{
  "_format": "hh-sol-artifact-1",
  "contractName": "CygnusAlbireo",
  "sourceName": "contracts/cygnus-core/CygnusAlbireo.sol",
  "abi": [
    {
      "inputs": [],
      "name": "ReentrantCall",
      "type": "error"
    },
    {
      "inputs": [],
      "name": "BORROW_INIT_CODE_HASH",
      "outputs": [
        {
          "internalType": "bytes32",
          "name": "",
          "type": "bytes32"
        }
      ],
      "stateMutability": "view",
      "type": "function"
    },
    {
      "inputs": [],
      "name": "borrowParameters",
      "outputs": [
        {
          "internalType": "address",
          "name": "factory",
          "type": "address"
        },
        {
          "internalType": "address",
          "name": "underlying",
          "type": "address"
        },
        {
          "internalType": "address",
          "name": "collateral",
          "type": "address"
        },
        {
          "internalType": "uint256",
          "name": "baseRatePerYear",
          "type": "uint256"
        },
        {
          "internalType": "uint256",
          "name": "multiplier",
          "type": "uint256"
        },
        {
          "internalType": "uint256",
          "name": "kinkMultiplier",
          "type": "uint256"
        }
      ],
      "stateMutability": "view",
      "type": "function"
    },
    {
      "inputs": [
        {
          "internalType": "address",
          "name": "underlying",
          "type": "address"
        },
        {
          "internalType": "address",
          "name": "collateral",
          "type": "address"
        },
        {
          "internalType": "uint256",
          "name": "baseRatePerYear",
          "type": "uint256"
        },
        {
          "internalType": "uint256",
          "name": "multiplier",
          "type": "uint256"
        },
        {
          "internalType": "uint256",
          "name": "kinkMultiplier",
          "type": "uint256"
        }
      ],
      "name": "deployAlbireo",
      "outputs": [
        {
          "internalType": "address",
          "name": "cygnusDai",
          "type": "address"
        }
      ],
      "stateMutability": "nonpayable",
      "type": "function"
    }
  ],
  "bytecode": "0x608060405234801561001057600080fd5b506000805460ff19166001179055613daf8061002d6000396000f3fe608060405234801561001057600080fd5b50600436106100415760003560e01c80633c1a66ac14610046578063766ddd08146100765780639a9862361461008c575b600080fd5b6100596100543660046102ac565b6100f6565b6040516001600160a01b0390911681526020015b60405180910390f35b61007e610255565b60405190815260200161006d565b6001546002546003546004546005546006546100b8956001600160a01b03908116958116941692919086565b604080516001600160a01b039788168152958716602087015293909516928401929092526060830152608082015260a081019190915260c00161006d565b6000805460ff1661011a576040516306fda65d60e31b815260040160405180910390fd5b6000805460ff191690556040805160c081018252338082526001600160a01b038981166020808501829052918a1684860181905260608086018b9052608086018a905260a09095018890526001805473ffffffffffffffffffffffffffffffffffffffff1990811686179091556002805482169093179092556003805490921681179091556004899055600588905560068790558451808301919091528085019290925283518083038501815291909201928390528051910120906101de90610282565b8190604051809103906000f59050801580156101fe573d6000803e3d6000fd5b506001805473ffffffffffffffffffffffffffffffffffffffff19908116825560028054821690556003805490911690556000600481905560058190556006819055805460ff191690911790559695505050505050565b60405161026460208201610282565b6020820181038252601f19601f820116604052508051906020012081565b613a8180620002f983390190565b80356001600160a01b03811681146102a757600080fd5b919050565b600080600080600060a086880312156102c3578081fd5b6102cc86610290565b94506102da60208701610290565b9497949650505050604083013592606081013592608090910135915056fe60e06040524660075566b1a2bc2ec50000601055670b1a2bc2ec5000006011553480156200002c57600080fd5b50604080518082018252600e81526d4379676e75733a20426f72726f7760901b60208083019182528351808501909452600684526543796744414960d01b908401526000805460ff1916600190811790915582519293926012928592859285928592859285926200009e92916200058c565b508151620000b49060029060208501906200058c565b5060f81b7fff000000000000000000000000000000000000000000000000000000000000001660805250506040517f8b73c3c69bb8fe3d512ecc4cf759cc79239f7b179b0ffacaa9a75d522b39400f906200011290600190620006b4565b60408051918290038220828201825260018352603160f81b602093840152600754825193840194909452908201527fc89efdaa54c0f20c7adf612882df0950f5a951637e0307cdcb4c672f298b8bc6606082015260808101919091523060a082015260c00160408051601f19818403018152919052805160209091012060a05250620001a49450506200034192505050565b6001600160a01b0316639a9862366040518163ffffffff1660e01b815260040160c060405180830381600087803b158015620001df57600080fd5b505af1158015620001f4573d6000803e3d6000fd5b505050506040513d601f19601f820116820180604052508101906200021a91906200064f565b50505060601b6001600160601b03191660c052600c80546001600160a01b03199081166001600160a01b0393841617909155600d805490911692909116919091179055670de0b6b3a7640000600f556000600381905580806200027a3390565b6001600160a01b0316639a9862366040518163ffffffff1660e01b815260040160c060405180830381600087803b158015620002b557600080fd5b505af1158015620002ca573d6000803e3d6000fd5b505050506040513d601f19601f82011682018060405250810190620002f091906200064f565b9550955095505050506200030c8383836200034560201b60201c565b5050601a805463ffffffff4216600160e01b02600160701b600160e01b0390911617670de0b6b3a764000017905550620007e1565b3390565b6200035b60006702c68af0bb140000856200043b565b6200036a6001600a836200043b565b60128190556200037f6301e133808462000757565b601355601154620003af906200039a906301e1338062000778565b836200048360201b62001f081790919060201c565b601481905550620003f2601154620003de84846301e1338063ffffffff16620004ac60201b62001f191760201c565b6200048360201b62001f081790919060201c565b60155560408051848152602081018490529081018290527fd5624eebb6c71dfd24920f6002bcc6e05cc1f38f7b01f209b84930586ef5bf7e9060600160405180910390a1505050565b828110806200044957508181115b156200047e57604051639e7fe3bd60e01b81526004810184905260248101839052604481018290526064015b60405180910390fd5b505050565b6000620004a583670de0b6b3a764000084620004ac60201b62001f191760201c565b9392505050565b600080806000198587098587029250828110838203039150508060001415620004f857838281620004ed57634e487b7160e01b600052601260045260246000fd5b0492505050620004a5565b8381106200052457604051631dcf306360e21b8152600481018290526024810185905260440162000475565b600084868809600260036001881981018916988990049182028318808302840302808302840302808302840302808302840302808302840302918202909203026000889003889004909101858311909403939093029303949094049190911702949350505050565b8280546200059a90620007a4565b90600052602060002090601f016020900481019282620005be576000855562000609565b82601f10620005d957805160ff191683800117855562000609565b8280016001018555821562000609579182015b8281111562000609578251825591602001919060010190620005ec565b50620006179291506200061b565b5090565b5b808211156200061757600081556001016200061c565b80516001600160a01b03811681146200064a57600080fd5b919050565b60008060008060008060c0878903121562000668578182fd5b620006738762000632565b9550620006836020880162000632565b9450620006936040880162000632565b9350606087015192506080870151915060a087015190509295509295509295565b600080835482600182811c915080831680620006d157607f831692505b6020808410821415620006f257634e487b7160e01b87526022600452602487fd5b8180156200070957600181146200071b5762000749565b60ff1986168952848901965062000749565b60008a815260209020885b86811015620007415781548b82015290850190830162000726565b505084890196505b509498975050505050505050565b6000826200077357634e487b7160e01b81526012600452602481fd5b500490565b60008160001904831182151516156200079f57634e487b7160e01b81526011600452602481fd5b500290565b600181811c90821680620007b957607f821691505b60208210811415620007db57634e487b7160e01b600052602260045260246000fd5b50919050565b60805160f81c60a05160c05160601c6132476200083a600039600081816107c301528181610bcd01528181610c6f01526113770152600081816104eb015281816117840152611c60015260006104b201526132476000f3fe608060405234801561001057600080fd5b506004361061038e5760003560e01c80638f840ddd116101de578063c0789dcb1161010f578063d9a107c4116100ad578063e6a69ab81161007c578063e6a69ab814610860578063e8a24e1d1461086b578063f312b3601461087e578063fff6cae91461089157600080fd5b8063d9a107c4146107fd578063dd62ed3e1461080c578063dedffbe714610845578063e3a3d1451461085857600080fd5b8063d505accf116100e9578063d505accf146107ab578063d8dfeb45146107be578063d90e0264146107e5578063d95dc3ac146107ee57600080fd5b8063c0789dcb14610765578063c72f3fbb14610642578063c914b4371461079157600080fd5b8063a457c2d71161017c578063aa5af0fd11610156578063aa5af0fd1461070b578063ad7a672f14610736578063b7f1118a1461073f578063bc25cf771461075257600080fd5b8063a457c2d7146106dd578063a6afed95146106f0578063a9059cbb146106f857600080fd5b806395d89b41116101b857806395d89b41146106b05780639a8a0592146106b85780639b510998146106c15780639e79b55c146106ca57600080fd5b80638f840ddd14610677578063926d845b1461068a57806395a2251f1461069d57600080fd5b80633ba0b9a9116102c35780636f307dc3116102615780637ecebe00116102305780637ecebe001461062257806382ef81721461064257806386b9d81f146106515780638af70cfc1461066457600080fd5b80636f307dc3146105b257806370a08231146105dd57806372cf84a7146106065780637d6af0791461060f57600080fd5b806346f608ff1161029d57806346f608ff1461054457806347bd37181461054d57806354fd4d501461057f5780636a6278421461059f57600080fd5b80633ba0b9a9146105205780634322b714146105285780634381b3bf1461053157600080fd5b80631c4469831161033057806330adf81f1161030a57806330adf81f14610486578063313ce567146104ad5780633644e515146104e6578063395093511461050d57600080fd5b80631c4469831461044b5780631e7dcc0d1461046057806323b872dd1461047357600080fd5b80630bdfb1d81161036c5780630bdfb1d81461040557806318160ddd14610430578063182df0f5146104395780631aebf12f1461044257600080fd5b806301f8c1c81461039357806306fdde03146103cd578063095ea7b3146103e2575b600080fd5b6103ba7ff6d86ed606f871fa1a557ac0ba607adce07767acf53f492fb215a1a4db4aea6f81565b6040519081526020015b60405180910390f35b6103d5610899565b6040516103c491906130bf565b6103f56103f0366004612f89565b610927565b60405190151581526020016103c4565b6103ba610413366004612e02565b601660209081526000928352604080842090915290825290205481565b6103ba60035481565b6103ba600f5481565b6103ba60115481565b61045e610459366004612fd4565b61093e565b005b61045e61046e366004612e7a565b6109d9565b6103f5610481366004612e3a565b610d45565b6103ba7f6e71edae12b1b97f4d1f60370fef10105fa2faae0126114a169c64845d6126c981565b6104d47f000000000000000000000000000000000000000000000000000000000000000081565b60405160ff90911681526020016103c4565b6103ba7f000000000000000000000000000000000000000000000000000000000000000081565b6103f561051b366004612f89565b610dbb565b6103ba610e03565b6103ba60105481565b61045e61053f366004612fd4565b610e69565b6103ba60145481565b60195461056790600160801b90046001600160801b031681565b6040516001600160801b0390911681526020016103c4565b6103d5604051806040016040528060018152602001603160f81b81525081565b6103ba6105ad366004612dca565b610ef7565b600c546105c5906001600160a01b031681565b6040516001600160a01b0390911681526020016103c4565b6103ba6105eb366004612dca565b6001600160a01b031660009081526004602052604090205490565b6103ba60155481565b6103ba61061d366004612dca565b6111f1565b6103ba610630366004612dca565b60066020526000908152604090205481565b6103ba6702c68af0bb14000081565b6103ba61065f366004612e02565b611262565b600e546105c5906001600160a01b031681565b601954610567906001600160801b031681565b6103f5610698366004612f89565b6114a7565b6103ba6106ab366004612dca565b6114b4565b6103d5611636565b6103ba60075481565b6103ba60125481565b61045e6106d8366004612f14565b611643565b6103f56106eb366004612f89565b6118c3565b61045e6118f4565b6103f5610706366004612f89565b611ab8565b601a5461071e906001600160701b031681565b6040516001600160701b0390911681526020016103c4565b6103ba600b5481565b61045e61074d366004612dca565b611ac5565b61045e610760366004612dca565b611ae6565b601a5461077c90600160e01b900463ffffffff1681565b60405163ffffffff90911681526020016103c4565b601a5461071e90600160701b90046001600160701b031681565b61045e6107b9366004612f14565b611b57565b6105c57f000000000000000000000000000000000000000000000000000000000000000081565b6103ba60135481565b6103ba6706f05b59d3b2000081565b6103ba670d2f13f7789f000081565b6103ba61081a366004612e02565b6001600160a01b03918216600090815260056020908152604080832093909416825291909152205490565b61045e610853366004612dca565b611d88565b6103ba600a81565b61077c6301e1338081565b600d546105c5906001600160a01b031681565b61045e61088c366004613027565b611e6a565b61045e611ebc565b600180546108a6906131b1565b80601f01602080910402602001604051908101604052809291908181526020018280546108d2906131b1565b801561091f5780601f106108f45761010080835404028352916020019161091f565b820191906000526020600020905b81548152906001019060200180831161090257829003601f168201915b505050505081565b6000610934338484611ff5565b5060015b92915050565b6109466120a4565b60005460ff16610969576040516306fda65d60e31b815260040160405180910390fd5b6000805460ff19168155610986906702c68af0bb1400008361215d565b601080549082905560408051828152602081018490527faaa68312e2ea9d50e16af5068410ab56e1a1fd06037b1a35664812c30f82146091015b60405180910390a150506000805460ff19166001179055565b60005460ff166109fc576040516306fda65d60e31b815260040160405180910390fd5b6000805460ff19169055610a0e6118f4565b600b5480841115610a4157604051632f997d4760e21b815260048101859052602481018290526044015b60405180910390fd5b610a4c86338661219e565b8315610a6957600c54610a69906001600160a01b031686866122b3565b8115610aef576040517ffff48b1f0000000000000000000000000000000000000000000000000000000081526001600160a01b0386169063fff48b1f90610abc9033908a9089908990899060040161306e565b600060405180830381600087803b158015610ad657600080fd5b505af1158015610aea573d6000803e3d6000fd5b505050505b600c546040516370a0823160e01b81523060048201526000916001600160a01b0316906370a082319060240160206040518083038186803b158015610b3357600080fd5b505afa158015610b47573d6000803e3d6000fd5b505050506040513d601f19601f82011682018060405250810190610b6b9190612fec565b9050600082610b7a87846130f2565b610b849190613149565b90506000806000610b968b8a86612305565b6040516358654e0f60e01b81526001600160a01b038f811660048301523060248301526044820184905293965091945092506000917f000000000000000000000000000000000000000000000000000000000000000016906358654e0f90606401602060405180830381600087803b158015610c1157600080fd5b505af1158015610c25573d6000803e3d6000fd5b505050506040513d601f19601f82011682018060405250810190610c499190612fb4565b9050848a1115610cab5780610cab57604051633ffe255960e11b81526001600160a01b037f0000000000000000000000000000000000000000000000000000000000000000811660048301528d16602482015260448101849052606401610a38565b8b6001600160a01b03168b6001600160a01b0316610cc63390565b604080518e8152602081018a905290810188905260608101879052608081018690526001600160a01b0391909116907f33f3048bd4e6af45e53afb722adfd57dbde82da7e93e44db921fb4b8c6a70c4b9060a00160405180910390a450505050505050610d316124ff565b50506000805460ff19166001179055505050565b6000610d528484846125b4565b6001600160a01b038416600090815260056020908152604080832033845290915290205482811015610da157604051632b3ca6f360e11b81526004810182905260248101849052604401610a38565b610dae8533858403611ff5565b60019150505b9392505050565b3360009081526005602090815260408083206001600160a01b03861684529091528120548190610dec9084906130f2565b9050610df9338583611ff5565b5060019392505050565b6000610e0d6118f4565b60035480610e2457670de0b6b3a764000091505090565b601954600b54600091610e4891600160801b9091046001600160801b0316906130f2565b90506000610e568284611f08565b9050610e61816126d7565b935050505090565b610e716120a4565b60005460ff16610e94576040516306fda65d60e31b815260040160405180910390fd5b6000805460ff19169055610eb96706f05b59d3b20000670d2f13f7789f00008361215d565b601180549082905560408051828152602081018490527f3708b7f62cb1acca95324fe8062eaff0301e988506521a4ff0374b1e3142cd3591016109c0565b6000805460ff16610f1b576040516306fda65d60e31b815260040160405180910390fd5b6000805460ff19168155600c546040516370a0823160e01b81523060048201526001600160a01b03909116906370a082319060240160206040518083038186803b158015610f6857600080fd5b505afa158015610f7c573d6000803e3d6000fd5b505050506040513d601f19601f82011682018060405250810190610fa09190612fec565b600a5490915060ff161561113d576008546009546040516393f1a40b60e01b815260048101919091523060248201526000916001600160a01b0316906393f1a40b90604401604080518083038186803b158015610ffc57600080fd5b505afa158015611010573d6000803e3d6000fd5b505050506040513d601f19601f820116820180604052508101906110349190613004565b50600854600954604051631c57762b60e31b81526004810191909152602481018590529192506001600160a01b03169063e2bbb15890604401600060405180830381600087803b15801561108757600080fd5b505af115801561109b573d6000803e3d6000fd5b50506008546009546040516393f1a40b60e01b81526004810191909152306024820152600093506001600160a01b0390911691506393f1a40b90604401604080518083038186803b1580156110ef57600080fd5b505afa158015611103573d6000803e3d6000fd5b505050506040513d601f19601f820116820180604052508101906111279190613004565b5090506111348282613149565b9250505061114d565b600b5461114a9082613149565b90505b61115f611158610e03565b8290611f08565b9150600082116111855760405163cd698f4d60e01b815260048101839052602401610a38565b61118f83836127f3565b60408051828152602081018490526001600160a01b0385169133917f2f00e3cdd69a77be7ed215ec7b2a36784dd158f921fca79ac29deffa353fe6ee91015b60405180910390a3506111df6124ff565b6000805460ff19166001179055919050565b6001600160a01b03811660009081526017602090815260408083208151808301909252546001600160701b038082168352600160701b909104169181018290529061123f5750600092915050565b8051601a546020830151610db4926001600160701b039081169281169116611f19565b6000805460ff16611286576040516306fda65d60e31b815260040160405180910390fd5b6000805460ff191690556112986118f4565b600c546040516370a0823160e01b81523060048201526000916001600160a01b0316906370a082319060240160206040518083038186803b1580156112dc57600080fd5b505afa1580156112f0573d6000803e3d6000fd5b505050506040513d601f19601f820116820180604052508101906113149190612fec565b90506000611321856111f1565b90506000600b54836113339190613149565b905060008183106113445781611346565b825b60405163044c216f60e31b81526001600160a01b0388811660048301528981166024830152604482018390529192507f0000000000000000000000000000000000000000000000000000000000000000909116906322610b7890606401602060405180830381600087803b1580156113bd57600080fd5b505af11580156113d1573d6000803e3d6000fd5b505050506040513d601f19601f820116820180604052508101906113f59190612fec565b945060008060006114088a600087612305565b925092509250886001600160a01b03168a6001600160a01b03166114293390565b604080518c8152602081018a905290810187905260608101869052608081018590526001600160a01b0391909116907fb0dbe18c6ffdf0da655dd690e77211d379205c497be44c64447c3f5f021b51679060a00160405180910390a4505050505050506114946124ff565b6000805460ff1916600117905592915050565b60006109343384846128a6565b6000805460ff166114d8576040516306fda65d60e31b815260040160405180910390fd5b6000805460ff19168155308152600460205260409020546115016114fa610e03565b829061290e565b915060008211611527576040516319f4fb4360e31b815260048101839052602401610a38565b600b5482111561155857600b546040516339eff09f60e11b8152610a38918491600401918252602082015260400190565b611562308261291a565b600a5460ff16156115dc57600854600954604051630441a3e760e41b81526001600160a01b039092169163441a3e70916115a9918690600401918252602082015260400190565b600060405180830381600087803b1580156115c357600080fd5b505af11580156115d7573d6000803e3d6000fd5b505050505b600c546115f3906001600160a01b031684846122b3565b60408051838152602081018390526001600160a01b0385169133917f3f693fff038bb8a046aa76d9516190ac7444f7d69cf952c4cbdc086fdef2d6fc91016111ce565b600280546108a6906131b1565b6001600160a01b03871661167d576040516355fb1d7d60e01b81526001600160a01b03808916600483015287166024820152604401610a38565b6001600160a01b0386166116b757604051633e09f41760e01b81526001600160a01b03808916600483015287166024820152604401610a38565b4263ffffffff168410156116ed5760405163b49611d160e01b81526004810185905263ffffffff42166024820152604401610a38565b6001600160a01b0387811660008181526006602090815260408083208054600180820190925582517ff6d86ed606f871fa1a557ac0ba607adce07767acf53f492fb215a1a4db4aea6f8186015280840196909652958c166060860152608085018b905260a085019590955260c08085018a90528151808603909101815260e08501825280519083012061190160f01b6101008601527f000000000000000000000000000000000000000000000000000000000000000061010286015261012280860182905282518087039091018152610142860180845281519185019190912090859052610162860180845281905260ff8a166101828701526101a286018990526101c2860188905291519095919491926101e2808401939192601f1981019281900390910190855afa158015611828573d6000803e3d6000fd5b5050604051601f1901519150506001600160a01b038116611867576040516322b2f68d60e01b81526001600160a01b0382166004820152602401610a38565b896001600160a01b0316816001600160a01b0316146118ac5760405163156a3f6960e31b815260ff871660048201526024810186905260448101859052606401610a38565b6118b78a8a8a6128a6565b50505050505050505050565b3360009081526005602090815260408083206001600160a01b03861684529091528120548190610dec908490613149565b601a544290600160e01b900463ffffffff908116908216811415611916575050565b601a80546001600160e01b0316600160e01b63ffffffff851602179055600061193f8284613160565b601954600b54601a549293506001600160801b03600160801b83048116939216916001600160701b0316836119775750505050505050565b60006119848386866129c5565b9050600061199863ffffffff88168361312a565b905060006119a6828861290e565b90506119b281886130f2565b6010549097506119c2908261290e565b6119cc90876130f2565b601a549096506119e69083906001600160701b031661290e565b6119f090856130f2565b6001600160801b03878116908916600160801b026fffffffffffffffffffffffffffffffff191617601955601a80546001600160701b038381166dffffffffffffffffffffffffffff19918816600160701b02919091166001600160e01b031990921691909117179055604080518781526020810184905290810182905260608101899052608081018590529094507f717fee053884ab1935ba6d0140f6ed225371439611d9674ff445419d6a0fa1b79060a00160405180910390a150505050505050505050565b60006109343384846125b4565b611ae381611ad2836111f1565b601a546001600160701b0316612a7a565b50565b60005460ff16611b09576040516306fda65d60e31b815260040160405180910390fd5b6000805460ff19168155600b543082526004602052604090912054611b47918391611b349190613149565b600c546001600160a01b031691906122b3565b506000805460ff19166001179055565b6001600160a01b038716611b7e5760405163bc622b6360e01b815260040160405180910390fd5b6001600160a01b038616611ba557604051632853494b60e11b815260040160405180910390fd5b42841015611bc95760405163212ed8bb60e11b815260048101859052602401610a38565b6001600160a01b0387811660008181526006602090815260408083208054600180820190925582517f6e71edae12b1b97f4d1f60370fef10105fa2faae0126114a169c64845d6126c98186015280840196909652958c166060860152608085018b905260a085019590955260c08085018a90528151808603909101815260e08501825280519083012061190160f01b6101008601527f000000000000000000000000000000000000000000000000000000000000000061010286015261012280860182905282518087039091018152610142860180845281519185019190912090859052610162860180845281905260ff8a166101828701526101a286018990526101c2860188905291519095919491926101e2808401939192601f1981019281900390910190855afa158015611d04573d6000803e3d6000fd5b5050604051601f1901519150506001600160a01b038116611d3857604051630f81234f60e31b815260040160405180910390fd5b896001600160a01b0316816001600160a01b031614611d7d57604051630b76193960e31b815260ff871660048201526024810186905260448101859052606401610a38565b6118b78a8a8a611ff5565b611d906120a4565b60005460ff16611db3576040516306fda65d60e31b815260040160405180910390fd5b6000805460ff19169055600e546001600160a01b0382811691161415611e0357600e54604051635ab3b76b60e01b81526001600160a01b0391821660048201529082166024820152604401610a38565b600e80546001600160a01b0383811673ffffffffffffffffffffffffffffffffffffffff1983168117909355604080519190921680825260208201939093527fd055869d156456dabc9c0a740d75ad5b923e2974a5cca031f7a00b3d1b0c11d891016109c0565b611e726120a4565b60005460ff16611e95576040516306fda65d60e31b815260040160405180910390fd5b6000805460ff19169055611eaa838383612b00565b50506000805460ff1916600117905550565b60005460ff16611edf576040516306fda65d60e31b815260040160405180910390fd5b6000805460ff19169055611ef16118f4565b611ef96124ff565b6000805460ff19166001179055565b6000610db483670de0b6b3a7640000845b600080806000198587098587029250828110838203039150508060001415611f6257838281611f5857634e487b7160e01b600052601260045260246000fd5b0492505050610db4565b838110611f8c57604051631dcf306360e21b81526004810182905260248101859052604401610a38565b60008486880960026001871981018816978890046003810283188082028403028082028403028082028403028082028403028082028403029081029092039091026000889003889004909101858311909403939093029303949094049190911702949350505050565b6001600160a01b03831661201c5760405163230326bf60e11b815260040160405180910390fd5b6001600160a01b03821661204357604051630b39ecd960e21b815260040160405180910390fd5b6001600160a01b0383811660008181526005602090815260408083209487168084529482529182902085905590518481527f8c5be1e5ebec7d5bd14f71427d1e84f3dd0314c0f7b2291e5b200ac8c7c3b925910160405180910390a3505050565b600d54604080516303e1469160e61b815290516000926001600160a01b03169163f851a440916004808301926020929190829003018186803b1580156120e957600080fd5b505afa1580156120fd573d6000803e3d6000fd5b505050506040513d601f19601f820116820180604052508101906121219190612de6565b9050336001600160a01b03821614611ae357604051633e7c764160e21b81523360048201526001600160a01b0382166024820152604401610a38565b8281108061216a57508181115b1561219957604051639e7fe3bd60e01b8152600481018490526024810183905260448101829052606401610a38565b505050565b6001600160a01b038084166000818152601660209081526040808320948716808452949091529020549114156121fa57604051632637597760e01b81526001600160a01b03808616600483015284166024820152604401610a38565b6001600160a01b038416612234576040516355fb1d7d60e01b81526001600160a01b03808616600483015284166024820152604401610a38565b6001600160a01b03831661226e57604051633e09f41760e01b81526001600160a01b03808616600483015284166024820152604401610a38565b8181101561229957604051637793525960e01b81526004810182905260248101839052604401610a38565b6122ad84846122a88585613149565b6128a6565b50505050565b604080516001600160a01b038416602482015260448082018490528251808303909101815260649091019091526020810180516001600160e01b031663a9059cbb60e01b179052612199908490612bbb565b6000806000612313866111f1565b9250838514156123395750506019548190600160801b90046001600160801b03166124f6565b601a546001600160701b0316848611156123e8576001600160a01b0387166000908152601760205260408120906123708789613149565b905061237c81876130f2565b82546001600160701b03858116600160701b026001600160e01b0319909216908316171783556019549095506123c49082906001600160801b03600160801b909104166130f2565b601980546001600160801b03808416600160801b02911617905593506124e0915050565b6001600160a01b03871660009081526017602052604081209061240b8888613149565b905080861161241b57600061241f565b8086035b82546dffffffffffffffffffffffffffff19166001600160701b0382161783559450841561244d5782612450565b60005b82546001600160701b0391909116600160701b027fffffffff0000000000000000000000000000ffffffffffffffffffffffffffff90911617825560006124978688613149565b601954600160801b90046001600160801b0316955090508085116124bc5760006124c0565b8085035b601980546001600160801b03808416600160801b02911617905594505050505b6124f48784836001600160701b0316612a7a565b505b93509350939050565b600c546040516370a0823160e01b81523060048201526001600160a01b03909116906370a082319060240160206040518083038186803b15801561254257600080fd5b505afa158015612556573d6000803e3d6000fd5b505050506040513d601f19601f8201168201806040525081019061257a9190612fec565b600b8190556040519081527f8a0df8ef054fae2c3d2d19a7b322e864870cc9fd3cb07fb9526309c596244bf49060200160405180910390a1565b6001600160a01b0383166125db5760405163907bfbd760e01b815260040160405180910390fd5b6001600160a01b03821661260257604051637184c13f60e01b815260040160405180910390fd5b6001600160a01b0383166000908152600460205260409020548181101561264657604051632dcf2e2160e21b81526004810182905260248101839052604401610a38565b6001600160a01b0380851660009081526004602052604080822085850390559185168152908120805484929061267d9084906130f2565b92505081905550826001600160a01b0316846001600160a01b03167fddf252ad1be2c89b69c2b068fc378daa952ba7f163c4a11628f55a4df523b3ef846040516126c991815260200190565b60405180910390a350505050565b600f54600090808311156127e65760006126ff60105483866126f99190613149565b9061290e565b6127099085613149565b60185460195491925060009161272891906001600160801b0316613149565b9050806127385750929392505050565b600d5460408051632a371a5d60e21b815290516000926001600160a01b03169163a8dc6974916004808301926020929190829003018186803b15801561277d57600080fd5b505afa158015612791573d6000803e3d6000fd5b505050506040513d601f19601f820116820180604052508101906127b59190612de6565b90506127c181836127f3565b81601860008282546127d391906130f2565b909155505050600f829055509392505050565b5090919050565b50919050565b6001600160a01b03821661281a5760405163139241eb60e01b815260040160405180910390fd5b6001600160a01b038216600090815260046020526040812080548392906128429084906130f2565b92505081905550806003600082825461285b91906130f2565b90915550506040518181526001600160a01b038316906000907fddf252ad1be2c89b69c2b068fc378daa952ba7f163c4a11628f55a4df523b3ef906020015b60405180910390a35050565b6001600160a01b038381166000818152601660209081526040808320948716808452948252918290208590558151938452830184905290917fc3c1215b41d54142382d54a05fb991007165ae91bcb1879bac8b290d9111aaf4910160405180910390a2505050565b6000610db48383612c38565b6001600160a01b03821661294157604051638e35e80360e01b815260040160405180910390fd5b6001600160a01b03821660009081526004602052604081208054839290612969908490613149565b9250508190555080600360008282546129829190613149565b90915550506040518181526000906001600160a01b038416907fddf252ad1be2c89b69c2b068fc378daa952ba7f163c4a11628f55a4df523b3ef9060200161289a565b6000806129e7836129d686886130f2565b6129e09190613149565b8590611f08565b90506011548111612a1557601354601454612a0390839061290e565b612a0d91906130f2565b915050610db4565b6000601354612a3160145460115461290e90919063ffffffff16565b612a3b91906130f2565b9050600060115483612a4d9190613149565b905081612a656015548361290e90919063ffffffff16565b612a6f91906130f2565b979650505050505050565b600e546001600160a01b031680612a915750505050565b6040516305285d7f60e01b81526001600160a01b03858116600483015260248201859052604482018490528216906305285d7f90606401600060405180830381600087803b158015612ae257600080fd5b505af1158015612af6573d6000803e3d6000fd5b5050505050505050565b612b1460006702c68af0bb1400008561215d565b612b216001600a8361215d565b6012819055612b346301e133808461310a565b601355601154612b5390612b4c906301e1338061312a565b8390611f08565b601455601154612b7290612b6c84846301e13380611f19565b90611f08565b60155560408051848152602081018490529081018290527fd5624eebb6c71dfd24920f6002bcc6e05cc1f38f7b01f209b84930586ef5bf7e9060600160405180910390a1505050565b6000612bfd83836040518060400160405280601581526020017f5361666545726332304c6f774c6576656c43616c6c0000000000000000000000815250612cfa565b8051909150156121995780806020019051810190612c1b9190612fb4565b612199576040516364d6fc4d60e01b815260040160405180910390fd5b60008080600019848609848602925082811083820303915050670de0b6b3a76400008110612c7c5760405163698d9a0160e11b815260048101829052602401610a38565b600080670de0b6b3a76400008688099150506706f05b59d3b1ffff811182612cb65780670de0b6b3a7640000850401945050505050610938565b620400008285030493909111909103600160ee1b02919091177faccb18165bd6fe31ae1cf318dc5b51eee0e1ba569b88cd74c1773b91fac106690201905092915050565b60606001600160a01b0384163b612d2f57604051638201cc0560e01b81526001600160a01b0385166004820152602401610a38565b600080856001600160a01b031685604051612d4a9190613052565b6000604051808303816000865af19150503d8060008114612d87576040519150601f19603f3d011682016040523d82523d6000602084013e612d8c565b606091505b50915091508115612da0579150610db49050565b805115612db05780518082602001fd5b8360405162461bcd60e51b8152600401610a3891906130bf565b600060208284031215612ddb578081fd5b8135610db4816131fc565b600060208284031215612df7578081fd5b8151610db4816131fc565b60008060408385031215612e14578081fd5b8235612e1f816131fc565b91506020830135612e2f816131fc565b809150509250929050565b600080600060608486031215612e4e578081fd5b8335612e59816131fc565b92506020840135612e69816131fc565b929592945050506040919091013590565b600080600080600060808688031215612e91578081fd5b8535612e9c816131fc565b94506020860135612eac816131fc565b935060408601359250606086013567ffffffffffffffff80821115612ecf578283fd5b818801915088601f830112612ee2578283fd5b813581811115612ef0578384fd5b896020828501011115612f01578384fd5b9699959850939650602001949392505050565b600080600080600080600060e0888a031215612f2e578182fd5b8735612f39816131fc565b96506020880135612f49816131fc565b95506040880135945060608801359350608088013560ff81168114612f6c578283fd5b9699959850939692959460a0840135945060c09093013592915050565b60008060408385031215612f9b578182fd5b8235612fa6816131fc565b946020939093013593505050565b600060208284031215612fc5578081fd5b81518015158114610db4578182fd5b600060208284031215612fe5578081fd5b5035919050565b600060208284031215612ffd578081fd5b5051919050565b60008060408385031215613016578182fd5b505080516020909101519092909150565b60008060006060848603121561303b578283fd5b505081359360208301359350604090920135919050565b60008251613064818460208701613185565b9190910192915050565b60006001600160a01b03808816835280871660208401525084604083015260806060830152826080830152828460a084013781830160a090810191909152601f909201601f19160101949350505050565b60208152600082518060208401526130de816040850160208701613185565b601f01601f19169190910160400192915050565b60008219821115613105576131056131e6565b500190565b60008261312557634e487b7160e01b81526012600452602481fd5b500490565b6000816000190483118215151615613144576131446131e6565b500290565b60008282101561315b5761315b6131e6565b500390565b600063ffffffff8381169083168181101561317d5761317d6131e6565b039392505050565b60005b838110156131a0578181015183820152602001613188565b838111156122ad5750506000910152565b600181811c908216806131c557607f821691505b602082108114156127ed57634e487b7160e01b600052602260045260246000fd5b634e487b7160e01b600052601160045260246000fd5b6001600160a01b0381168114611ae357600080fdfea26469706673582212206238081a2b77ef135f2d428c451a349506bc014dc96636d8962eac5209423e2e64736f6c63430008040033a26469706673582212204f2886efbfc0c9decceb7276f718a655e016f8fa3e666d0a58ca839bc860c50564736f6c63430008040033",
  "linkReferences": {},
  "deployedLinkReferences": {}
}