{"contracts/cygnus-core/CygnusBorrowModel.sol":{"CygnusBorrowModel":{"abi":[{"inputs":[],"stateMutability":"nonpayable","type":"constructor"},{"inputs":[],"name":"AllowanceOverflow","type":"error"},{"inputs":[],"name":"AllowanceUnderflow","type":"error"},{"inputs":[],"name":"CygnusBorrowControl__ParameterNotInRange","type":"error"},{"inputs":[],"name":"CygnusTerminal__CantMintZeroShares","type":"error"},{"inputs":[],"name":"CygnusTerminal__CantRedeemZeroAssets","type":"error"},{"inputs":[],"name":"CygnusTerminal__CantSweepUnderlying","type":"error"},{"inputs":[],"name":"CygnusTerminal__MsgSenderNotAdmin","type":"error"},{"inputs":[],"name":"InsufficientAllowance","type":"error"},{"inputs":[],"name":"InsufficientBalance","type":"error"},{"inputs":[],"name":"InvalidPermit","type":"error"},{"inputs":[],"name":"PermitExpired","type":"error"},{"inputs":[],"name":"ReentrantCall","type":"error"},{"inputs":[],"name":"TotalSupplyOverflow","type":"error"},{"anonymous":false,"inputs":[{"indexed":false,"internalType":"uint256","name":"cashStored","type":"uint256"},{"indexed":false,"internalType":"uint256","name":"totalBorrowsStored","type":"uint256"},{"indexed":false,"internalType":"uint256","name":"interestAccumulated","type":"uint256"}],"name":"AccrueInterest","type":"event"},{"anonymous":false,"inputs":[{"indexed":true,"internalType":"address","name":"owner","type":"address"},{"indexed":true,"internalType":"address","name":"spender","type":"address"},{"indexed":false,"internalType":"uint256","name":"amount","type":"uint256"}],"name":"Approval","type":"event"},{"anonymous":false,"inputs":[{"indexed":true,"internalType":"address","name":"sender","type":"address"},{"indexed":true,"internalType":"address","name":"recipient","type":"address"},{"indexed":false,"internalType":"uint256","name":"assets","type":"uint256"},{"indexed":false,"internalType":"uint256","name":"shares","type":"uint256"}],"name":"Deposit","type":"event"},{"anonymous":false,"inputs":[{"indexed":false,"internalType":"address","name":"oldBorrowRewarder","type":"address"},{"indexed":false,"internalType":"address","name":"newBorrowRewarder","type":"address"}],"name":"NewCygnusBorrowRewarder","type":"event"},{"anonymous":false,"inputs":[{"indexed":false,"internalType":"uint256","name":"baseRatePerYear","type":"uint256"},{"indexed":false,"internalType":"uint256","name":"multiplierPerYear","type":"uint256"},{"indexed":false,"internalType":"uint256","name":"kinkMultiplier_","type":"uint256"},{"indexed":false,"internalType":"uint256","name":"kinkUtilizationRate_","type":"uint256"}],"name":"NewInterestRateParameters","type":"event"},{"anonymous":false,"inputs":[{"indexed":false,"internalType":"uint256","name":"oldReserveFactor","type":"uint256"},{"indexed":false,"internalType":"uint256","name":"newReserveFactor","type":"uint256"}],"name":"NewReserveFactor","type":"event"},{"anonymous":false,"inputs":[{"indexed":true,"internalType":"address","name":"sender","type":"address"},{"indexed":true,"internalType":"address","name":"token","type":"address"},{"indexed":false,"internalType":"uint256","name":"balance","type":"uint256"}],"name":"SweepToken","type":"event"},{"anonymous":false,"inputs":[{"indexed":false,"internalType":"uint160","name":"totalBalance","type":"uint160"}],"name":"Sync","type":"event"},{"anonymous":false,"inputs":[{"indexed":true,"internalType":"address","name":"from","type":"address"},{"indexed":true,"internalType":"address","name":"to","type":"address"},{"indexed":false,"internalType":"uint256","name":"amount","type":"uint256"}],"name":"Transfer","type":"event"},{"anonymous":false,"inputs":[{"indexed":true,"internalType":"address","name":"sender","type":"address"},{"indexed":true,"internalType":"address","name":"recipient","type":"address"},{"indexed":true,"internalType":"address","name":"owner","type":"address"},{"indexed":false,"internalType":"uint256","name":"assets","type":"uint256"},{"indexed":false,"internalType":"uint256","name":"shares","type":"uint256"}],"name":"Withdraw","type":"event"},{"inputs":[],"name":"DOMAIN_SEPARATOR","outputs":[{"internalType":"bytes32","name":"result","type":"bytes32"}],"stateMutability":"view","type":"function"},{"inputs":[],"name":"PERMIT2","outputs":[{"internalType":"contract IAllowanceTransfer","name":"","type":"address"}],"stateMutability":"view","type":"function"},{"inputs":[],"name":"accrueInterest","outputs":[],"stateMutability":"nonpayable","type":"function"},{"inputs":[{"internalType":"address","name":"owner","type":"address"},{"internalType":"address","name":"spender","type":"address"}],"name":"allowance","outputs":[{"internalType":"uint256","name":"result","type":"uint256"}],"stateMutability":"view","type":"function"},{"inputs":[{"internalType":"address","name":"spender","type":"address"},{"internalType":"uint256","name":"amount","type":"uint256"}],"name":"approve","outputs":[{"internalType":"bool","name":"","type":"bool"}],"stateMutability":"nonpayable","type":"function"},{"inputs":[{"internalType":"address","name":"owner","type":"address"}],"name":"balanceOf","outputs":[{"internalType":"uint256","name":"result","type":"uint256"}],"stateMutability":"view","type":"function"},{"inputs":[],"name":"baseRatePerSecond","outputs":[{"internalType":"uint256","name":"","type":"uint256"}],"stateMutability":"view","type":"function"},{"inputs":[{"internalType":"address","name":"","type":"address"}],"name":"borrowBalances","outputs":[{"internalType":"uint128","name":"principal","type":"uint128"},{"internalType":"uint128","name":"interestIndex","type":"uint128"}],"stateMutability":"view","type":"function"},{"inputs":[],"name":"borrowIndex","outputs":[{"internalType":"uint80","name":"","type":"uint80"}],"stateMutability":"view","type":"function"},{"inputs":[],"name":"borrowRate","outputs":[{"internalType":"uint48","name":"","type":"uint48"}],"stateMutability":"view","type":"function"},{"inputs":[],"name":"collateral","outputs":[{"internalType":"address","name":"","type":"address"}],"stateMutability":"view","type":"function"},{"inputs":[],"name":"cygnusBorrowRewarder","outputs":[{"internalType":"address","name":"","type":"address"}],"stateMutability":"view","type":"function"},{"inputs":[],"name":"cygnusNebulaOracle","outputs":[{"internalType":"contract ICygnusNebulaOracle","name":"","type":"address"}],"stateMutability":"view","type":"function"},{"inputs":[],"name":"decimals","outputs":[{"internalType":"uint8","name":"","type":"uint8"}],"stateMutability":"view","type":"function"},{"inputs":[{"internalType":"address","name":"spender","type":"address"},{"internalType":"uint256","name":"difference","type":"uint256"}],"name":"decreaseAllowance","outputs":[{"internalType":"bool","name":"","type":"bool"}],"stateMutability":"nonpayable","type":"function"},{"inputs":[{"internalType":"uint256","name":"assets","type":"uint256"},{"internalType":"address","name":"recipient","type":"address"},{"components":[{"components":[{"internalType":"address","name":"token","type":"address"},{"internalType":"uint160","name":"amount","type":"uint160"},{"internalType":"uint48","name":"expiration","type":"uint48"},{"internalType":"uint48","name":"nonce","type":"uint48"}],"internalType":"struct IAllowanceTransfer.PermitDetails","name":"details","type":"tuple"},{"internalType":"address","name":"spender","type":"address"},{"internalType":"uint256","name":"sigDeadline","type":"uint256"}],"internalType":"struct IAllowanceTransfer.PermitSingle","name":"_permit","type":"tuple"},{"internalType":"bytes","name":"signature","type":"bytes"}],"name":"deposit","outputs":[{"internalType":"uint256","name":"shares","type":"uint256"}],"stateMutability":"nonpayable","type":"function"},{"inputs":[],"name":"exchangeRate","outputs":[{"internalType":"uint256","name":"","type":"uint256"}],"stateMutability":"nonpayable","type":"function"},{"inputs":[],"name":"exchangeRateStored","outputs":[{"internalType":"uint256","name":"","type":"uint256"}],"stateMutability":"view","type":"function"},{"inputs":[{"internalType":"address","name":"borrower","type":"address"}],"name":"getBorrowBalance","outputs":[{"internalType":"uint256","name":"","type":"uint256"}],"stateMutability":"view","type":"function"},{"inputs":[],"name":"hangar18","outputs":[{"internalType":"contract IHangar18","name":"","type":"address"}],"stateMutability":"view","type":"function"},{"inputs":[{"internalType":"address","name":"spender","type":"address"},{"internalType":"uint256","name":"difference","type":"uint256"}],"name":"increaseAllowance","outputs":[{"internalType":"bool","name":"","type":"bool"}],"stateMutability":"nonpayable","type":"function"},{"inputs":[],"name":"jumpMultiplierPerSecond","outputs":[{"internalType":"uint256","name":"","type":"uint256"}],"stateMutability":"view","type":"function"},{"inputs":[],"name":"kinkMultiplier","outputs":[{"internalType":"uint256","name":"","type":"uint256"}],"stateMutability":"view","type":"function"},{"inputs":[],"name":"kinkUtilizationRate","outputs":[{"internalType":"uint256","name":"","type":"uint256"}],"stateMutability":"view","type":"function"},{"inputs":[],"name":"lastAccrualTimestamp","outputs":[{"internalType":"uint32","name":"","type":"uint32"}],"stateMutability":"view","type":"function"},{"inputs":[],"name":"multiplierPerSecond","outputs":[{"internalType":"uint256","name":"","type":"uint256"}],"stateMutability":"view","type":"function"},{"inputs":[],"name":"name","outputs":[{"internalType":"string","name":"","type":"string"}],"stateMutability":"pure","type":"function"},{"inputs":[{"internalType":"address","name":"owner","type":"address"}],"name":"nonces","outputs":[{"internalType":"uint256","name":"result","type":"uint256"}],"stateMutability":"view","type":"function"},{"inputs":[{"internalType":"address","name":"owner","type":"address"},{"internalType":"address","name":"spender","type":"address"},{"internalType":"uint256","name":"value","type":"uint256"},{"internalType":"uint256","name":"deadline","type":"uint256"},{"internalType":"uint8","name":"v","type":"uint8"},{"internalType":"bytes32","name":"r","type":"bytes32"},{"internalType":"bytes32","name":"s","type":"bytes32"}],"name":"permit","outputs":[],"stateMutability":"nonpayable","type":"function"},{"inputs":[{"internalType":"uint256","name":"shares","type":"uint256"},{"internalType":"address","name":"recipient","type":"address"},{"internalType":"address","name":"owner","type":"address"}],"name":"redeem","outputs":[{"internalType":"uint256","name":"assets","type":"uint256"}],"stateMutability":"nonpayable","type":"function"},{"inputs":[],"name":"reserveFactor","outputs":[{"internalType":"uint256","name":"","type":"uint256"}],"stateMutability":"view","type":"function"},{"inputs":[{"internalType":"address","name":"newBorrowRewarder","type":"address"}],"name":"setCygnusBorrowRewarder","outputs":[],"stateMutability":"nonpayable","type":"function"},{"inputs":[{"internalType":"uint256","name":"baseRatePerYear_","type":"uint256"},{"internalType":"uint256","name":"multiplierPerYear_","type":"uint256"},{"internalType":"uint256","name":"kinkMultiplier_","type":"uint256"},{"internalType":"uint256","name":"kinkUtilizationRate_","type":"uint256"}],"name":"setInterestRateModel","outputs":[],"stateMutability":"nonpayable","type":"function"},{"inputs":[{"internalType":"uint256","name":"newReserveFactor","type":"uint256"}],"name":"setReserveFactor","outputs":[],"stateMutability":"nonpayable","type":"function"},{"inputs":[],"name":"shuttleId","outputs":[{"internalType":"uint256","name":"","type":"uint256"}],"stateMutability":"view","type":"function"},{"inputs":[],"name":"supplyRate","outputs":[{"internalType":"uint256","name":"","type":"uint256"}],"stateMutability":"view","type":"function"},{"inputs":[{"internalType":"address","name":"token","type":"address"}],"name":"sweepToken","outputs":[],"stateMutability":"nonpayable","type":"function"},{"inputs":[],"name":"symbol","outputs":[{"internalType":"string","name":"","type":"string"}],"stateMutability":"view","type":"function"},{"inputs":[],"name":"totalBalance","outputs":[{"internalType":"uint160","name":"","type":"uint160"}],"stateMutability":"view","type":"function"},{"inputs":[],"name":"totalBorrows","outputs":[{"internalType":"uint96","name":"","type":"uint96"}],"stateMutability":"view","type":"function"},{"inputs":[],"name":"totalSupply","outputs":[{"internalType":"uint256","name":"result","type":"uint256"}],"stateMutability":"view","type":"function"},{"inputs":[{"internalType":"address","name":"borrower","type":"address"}],"name":"trackBorrower","outputs":[],"stateMutability":"nonpayable","type":"function"},{"inputs":[{"internalType":"address","name":"to","type":"address"},{"internalType":"uint256","name":"amount","type":"uint256"}],"name":"transfer","outputs":[{"internalType":"bool","name":"","type":"bool"}],"stateMutability":"nonpayable","type":"function"},{"inputs":[{"internalType":"address","name":"from","type":"address"},{"internalType":"address","name":"to","type":"address"},{"internalType":"uint256","name":"amount","type":"uint256"}],"name":"transferFrom","outputs":[{"internalType":"bool","name":"","type":"bool"}],"stateMutability":"nonpayable","type":"function"},{"inputs":[],"name":"underlying","outputs":[{"internalType":"address","name":"","type":"address"}],"stateMutability":"view","type":"function"},{"inputs":[],"name":"utilizationRate","outputs":[{"internalType":"uint256","name":"","type":"uint256"}],"stateMutability":"view","type":"function"}],"evm":{"bytecode":{"linkReferences":{},"object":"6101008060405234620001c9576000805460ff19166001178155635a412e5360e01b80835260a092838160048186335af18015620001be57839184918591869162000195575b5060e052855260c052608052670bcbce7f1b1500006006556002600755670214e8348c4f0000600855670de0b6b3a7640000600955604051908152828160048185335af191821562000189579162000150575b50600180546001600160a01b0319166001600160a01b0392909216919091179055600b80546001600160601b0365ffffffffffff60b01b01164260e01b6001600160e01b031916176503782dace9d960721b179055604051611fa4918262000277833960805182818161023b0152611c74015251816102bf015260c0518181816105830152818161085d01528181610a5e01528181610e800152818161117e0152818161157a0152611d5f015260e05181610f3d0152f35b620001759150823d841162000181575b6200016c8183620001ce565b8101906200021d565b50509150503862000098565b503d62000160565b604051903d90823e3d90fd5b92505050620001b49150843d861162000181576200016c8183620001ce565b9150903862000045565b6040513d85823e3d90fd5b600080fd5b601f909101601f19168101906001600160401b03821190821017620001f257604052565b634e487b7160e01b600052604160045260246000fd5b51906001600160a01b0382168203620001c957565b91908260a0910312620001c95781516001600160a01b03908181168103620001c957926200024e6020820162000208565b926200025d6040830162000208565b9260608301519081168103620001c9576080909201519056fe6040608081526004908136101561001557600080fd5b600091823560e01c90816306fdde03146116dc578163095ea7b31461167257816318160ddd1461164b578163182df0f51461162c5781631aebf12f1461160d5781631be19560146115335781631c446983146114cc5781631e44b7fc146112d157816323b872dd146111fc578163313ce567146111515781633644e5151461113457816339509351146110b15781633ba0b9a91461109457816342bf78af146110085781634322b71414610fe957816346f608ff14610fcb57816347bd371814610f9e5781635b322bbe14610f605781635f77f89114610f255781636afdd85014610efb5781636c321c8a14610ea45781636f307dc314610e6057816370a0823114610e2c57816372cf84a714610e0d5781637d6af07914610de75781637ecebe0014610db35781638808e71c146109f857816394e1373c146109a757816395d89b41146108375781639b51099814610818578163a457c2d714610794578163a6afed9514610778578163a9059cbb146106ea578163aa5af0fd146106bc578163ad168c9d14610694578163ad2961a314610670578163ad7a672f14610647578163ba087652146104ce578163c0789dcb146104ac578163c914b43714610482578163d505accf1461032857508063d8dfeb4514610301578063d90e0264146102e3578063d935bd92146102a0578063dd62ed3e146102635763e8a24e1d1461021d57600080fd5b3461025f578160031936011261025f57602090516001600160a01b037f0000000000000000000000000000000000000000000000000000000000000000168152f35b5080fd5b503461025f578060031936011261025f5760209161027f611754565b9061028861176f565b8452637f5e9f20600c52526034600c20549051908152f35b503461025f578160031936011261025f57602090516001600160a01b037f0000000000000000000000000000000000000000000000000000000000000000168152f35b503461025f578160031936011261025f576020906003549051908152f35b503461025f578160031936011261025f576020906001600160a01b03600154169051908152f35b9190503461047e5760e036600319011261047e57610344611754565b9161034d61176f565b6084359160643560443560ff8516850361047a57610369611ddf565b9286519783421161046e576001600160a01b038091169516956338377508600c52858a5260209485600c20948554956001870190557f6e71edae12b1b97f4d1f60370fef10105fa2faae0126114a169c64845d6126c98b5287878c0152888a8c015260608b019585875260808c015260a08b01526119018b52855260c0892088526042601e208a5260ff16845260a435875260c435606052838060808b60015afa50843d51036104635750777f5e9f200000000000000000000000000000000000000000851786526034602c20557f8c5be1e5ebec7d5bd14f71427d1e84f3dd0314c0f7b2291e5b200ac8c7c3b9259190a3528060605280f35b63ddafbaef8952601cfd5b50631a15a3cc8952601cfd5b8780fd5b8280fd5b50503461025f578160031936011261025f5760209065ffffffffffff600b5460b01c169051908152f35b50503461025f578160031936011261025f57602090600b5460e01c9051908152f35b83833461025f57606036600319011261025f578235916104ec61176f565b926104f5611785565b936001600160a01b039081861693843303610601575b61051c610516611cfc565b85611e51565b9687156105f1576387a211a2600c5281526020600c208054988986116105e65750846020990390556805345cdf77eb68f44c848154039055838152847fddf252ad1be2c89b69c2b068fc378daa952ba7f163c4a11628f55a4df523b3ef8983a36105a786827f0000000000000000000000000000000000000000000000000000000000000000611ef6565b8451928684528784015216907ffbde797d201c681b91056529119e0b02407c7bb96a4a2c75c01fc9667232c8db843392a46105e0611d33565b51908152f35b63f4d678b88352601cfd5b865163e3e8d29760e01b81528990fd5b33602052637f5e9f20600c528681526034600c2080546000198103610628575b505061050b565b80861161063b5785900390558880610621565b896313be252b8452601cfd5b50503461025f578160031936011261025f576001600160a01b036020925460081c169051908152f35b50503461025f578160031936011261025f5760209061068d611976565b9051908152f35b50503461025f578160031936011261025f576020906001600160a01b03600254169051908152f35b50503461025f578160031936011261025f5760209069ffffffffffffffffffff600b5460601c169051908152f35b828434610775578160031936011261077557610704611754565b602435916387a211a2600c5233815260209485600c209081549081861161076a575084900390555282600c208181540190558252600c5160601c337fddf252ad1be2c89b69c2b068fc378daa952ba7f163c4a11628f55a4df523b3ef8480a35160018152f35b63f4d678b88452601cfd5b80fd5b83346107755780600319360112610775576107916119f2565b80f35b8284346107755781600319360112610775576107ae611754565b60243590602052637f5e9f20600c523382526034600c2090815481811061080c5760209550038091558152602c5160601c907f8c5be1e5ebec7d5bd14f71427d1e84f3dd0314c0f7b2291e5b200ac8c7c3b925843392a35160018152f35b85638301ab388552601cfd5b50503461025f578160031936011261025f576020906007549051908152f35b9190503461047e578260031936011261047e5780516395d89b4160e01b815292808484817f00000000000000000000000000000000000000000000000000000000000000006001600160a01b03165afa92831561099b5781936108fa575b6108f684846108ec6028825180947f4379675553443a2000000000000000000000000000000000000000000000000060208301526108dc8151809260208686019101611705565b81010360088101855201836117c5565b5191829182611728565b0390f35b909192503d8083863e61090d81866117c5565b84019160208584031261077557845167ffffffffffffffff9586821161047e57019183601f8401121561025f578251958611610986575083519261095b601f8701601f1916602001856117c5565b8584526020868401011161077557506108f69361097e9160208085019101611705565b903880610895565b604190634e487b7160e01b6000525260246000fd5b509051903d90823e3d90fd5b50503461025f57602036600319011261025f5780916001600160a01b036109cc611754565b168152600a60205220548151906fffffffffffffffffffffffffffffffff8116825260801c6020820152f35b83833461025f5761012036600319011261025f578235610a1661176f565b9360c0366043190112610daf5761010490813567ffffffffffffffff92838211610c915736602383011215610c915781830135938411610c91573660248584010111610c91577f000000000000000000000000000000000000000000000000000000000000000093610a883086611f3f565b9281610c9f575b505050610a9b84611ebf565b926e22d473030f116ddee9f6b43ac78ba3803b1561047a578780916084895180948193631b63c28b60e11b8352338a8401523060248401526001600160a01b03809b1660448401528a881660648401525af18015610c9557908891610c7d575b5050610b2291610b0f610b14923090611f3f565b611969565b610b1c611cfc565b90611e7c565b948515610c6e576805345cdf77eb68f44c908154908115610bdc575b5050805491868301928310610bd05750556387a211a2600c528460005260209485600c20858154019055848652600c5160601c60007fddf252ad1be2c89b69c2b068fc378daa952ba7f163c4a11628f55a4df523b3ef8880a38351928352848684015216907fdcbc1c05240f31ff3ad067ef1ee35ce4997762752e3a095284754544f4c709d7833392a36105e0611d33565b63e5cfe957600052601cfd5b90966103e719810191908211610c5b5750956103e890818101908110610c4e5782556387a211a2600c5261dead6000526020600c20818154019055602052600c5160601c60007fddf252ad1be2c89b69c2b068fc378daa952ba7f163c4a11628f55a4df523b3ef602080a38780610b3e565b8363e5cfe957600052601cfd5b634e487b7160e01b815260118452602490fd5b50835163f1ca48b160e01b8152fd5b610c869061179b565b610c91578689610afb565b8680fd5b87513d8a823e3d90fd5b6e22d473030f116ddee9f6b43ac78ba391823b15610dab5788516302b67b5760e41b81523387820152936001600160a01b0380610cda611785565b166024870152606435818116809103610da357604487015260843565ffffffffffff90818116809103610da757606488015260a435908116809103610da357608487015260c435908116809103610d9f57859384848e97958295899560a485015260e43560c485015261010060e48501528301528060246101249401848401378181018301849052601f01601f191681010301925af18015610d9557610d82575b8080610a8f565b610d8e9096919661179b565b9487610d7b565b86513d89823e3d90fd5b8b80fd5b8c80fd5b8d80fd5b8980fd5b8380fd5b50503461025f57602036600319011261025f57602091610dd1611754565b906338377508600c525281600c20549051908152f35b50503461025f57602036600319011261025f5760209061068d610e08611754565b611831565b50503461025f578160031936011261025f576020906005549051908152f35b50503461025f57602036600319011261025f57602091610e4a611754565b906387a211a2600c525281600c20549051908152f35b50503461025f578160031936011261025f57602090516001600160a01b037f0000000000000000000000000000000000000000000000000000000000000000168152f35b50503461025f578160031936011261025f576020916bffffffffffffffffffffffff600b54168015600014610edb57509051908152f35b610b1c816001600160a01b03610ef5945460081c16611946565b906105e0565b50503461025f578160031936011261025f57602090516e22d473030f116ddee9f6b43ac78ba38152f35b50503461025f578160031936011261025f57602090517f00000000000000000000000000000000000000000000000000000000000000008152f35b833461077557602036600319011261077557610791610f7d611754565b610f8681611831565b69ffffffffffffffffffff600b5460601c1691611bec565b50503461025f578160031936011261025f576020906bffffffffffffffffffffffff600b54169051908152f35b90503461047e578260031936011261047e5760209250549051908152f35b50503461025f578160031936011261025f576020906008549051908152f35b50503461025f57602036600319011261025f577f2a0d5dc7fbc8045f59cb33c736f04f9a9b565e9f425912f9cd2bafdebd50cead90611045611754565b61104d611c56565b600254906001600160a01b0380911690817fffffffffffffffffffffffff00000000000000000000000000000000000000008416176002558351921682526020820152a180f35b50503461025f578160031936011261025f5760209061068d611cfc565b8284346107755781600319360112610775576110cb611754565b602052637f5e9f20600c523381526034600c20928354906024358201918210611129575080602094558152602c5160601c907f8c5be1e5ebec7d5bd14f71427d1e84f3dd0314c0f7b2291e5b200ac8c7c3b925843392a35160018152f35b63f90670668352601cfd5b50503461025f578160031936011261025f5760209061068d611ddf565b82843461077557806003193601126107755760208251809463313ce56760e01b8252816001600160a01b037f0000000000000000000000000000000000000000000000000000000000000000165afa92831561099b5781936111bb575b60208460ff855191168152f35b9092506020813d82116111f4575b816111d6602093836117c5565b8101031261047e57519160ff83168303610775575060ff60206111ae565b3d91506111c9565b83833461025f57606036600319011261025f57611217611754565b61121f61176f565b6044358260601b91602095338752600c93637f5e9f208117855260348520805460001981036112ae575b50506387a211a21784528684208054988985116105e65750836001600160a01b03969798990390555285822081815401905585525160601c91167fddf252ad1be2c89b69c2b068fc378daa952ba7f163c4a11628f55a4df523b3ef8480a35160018152f35b8086116112c55785900390556387a211a28a611249565b8a6313be252b8552601cfd5b90503461047e57608036600319011261047e578035916024359060443591606435936112fb611c56565b67016345785d8a000086116114ad576706f05b59d3b20000851080156114bb575b6114ad57600180851080156114a3575b611494576301e13380918288046003558683028381048803611481576113529085611e7c565b8155856007558660065588928685029060001988870991808310810180840393147f98f5be4dd1e14769fbd6666224dc1eb80dd2e0a3d2c8b328f57e76b7ae1039578484111594848c8b0990848211900360f91b90840360071c170295611401575b508b7ff58b8cc439edada25fd9495b7364aeb1d737dbef59be1cf62e0cc4001c44a3cd60808d8d8d8d8d6113e8848f611e7c565b600555815194855260208501528301526060820152a180f35b9091929394955061144c5750506114415750816113e88660807ff58b8cc439edada25fd9495b7364aeb1d737dbef59be1cf62e0cc4001c44a3cd386113b4565b63ae47f7028852601cfd5b0492508391506113e890508660807ff58b8cc439edada25fd9495b7364aeb1d737dbef59be1cf62e0cc4001c44a3cd386113b4565b634e487b7160e01b8a526011825260248afd5b508251630e49b3b360e41b8152fd5b50600a851161132c565b8251630e49b3b360e41b8152fd5b50670d2f13f7789f0000851161131c565b90503461047e57602036600319011261047e578035906114ea611c56565b6702c68af0bb14000082116114ad5750907faaa68312e2ea9d50e16af5068410ab56e1a1fd06037b1a35664812c30f82146091600854908060085582519182526020820152a180f35b83833461025f57602036600319011261025f5761154e611754565b9082549160ff8316156115fd5760ff19928316845561156b611c56565b6001600160a01b0391828216927f00000000000000000000000000000000000000000000000000000000000000001683146115ee5760019495506115bb6115b23084611f3f565b80933390611ef6565b519081527f6d25be279134f4ecaa4770aff0c3d916d9e7c5ef37b65ed95dbdba411f5d54d560203392a382541617815580f35b5163b5d8f39160e01b81528590fd5b81516306fda65d60e31b81528590fd5b50503461025f578160031936011261025f576020906006549051908152f35b50503461025f578160031936011261025f576020906009549051908152f35b50503461025f578160031936011261025f576020906805345cdf77eb68f44c549051908152f35b50503461025f578060031936011261025f5760209161168f611754565b602435908452637f5e9f20600c52338252806034600c20558152602c5160601c907f8c5be1e5ebec7d5bd14f71427d1e84f3dd0314c0f7b2291e5b200ac8c7c3b925843392a35160018152f35b50503461025f578160031936011261025f576108f6906116fa6117e7565b905191829182611728565b60005b8381106117185750506000910152565b8181015183820152602001611708565b604091602082526117488151809281602086015260208686019101611705565b601f01601f1916010190565b600435906001600160a01b038216820361176a57565b600080fd5b602435906001600160a01b038216820361176a57565b604435906001600160a01b038216820361176a57565b67ffffffffffffffff81116117af57604052565b634e487b7160e01b600052604160045260246000fd5b90601f8019910116810190811067ffffffffffffffff8211176117af57604052565b604051906040820182811067ffffffffffffffff8211176117af57604052601282527f4379676e75733a20426f72726f7761626c6500000000000000000000000000006020830152565b6001600160a01b03600091168152600a6020526040812054908160801c908115928361193f576fffffffffffffffffffffffffffffffff1669ffffffffffffffffffff600b5460601c16928294848302906000198685099583838810840180890398149188821115960996848703851697888604986002808b60030218808c02820302808c02820302808c02820302808c02820302808c02820302908160019c02900302928a82808c03040190878411900302918603041702966118fa575b5050505050505090565b90919293949596506119275750505061191a5750388080808080806118f0565b63ae47f70290526004601cfd5b91945092915061191a575004388080808080806118f0565b5091505090565b9190820180921161195357565b634e487b7160e01b600052601160045260246000fd5b9190820391821161195357565b600b54600854670de0b6b3a7640000908103908111611953576119a49065ffffffffffff8360b01c16611e51565b6001600160a01b036bffffffffffffffffffffffff8160005460081c16931680930181811161195357169182156119ea576119e7926119e291611e7c565b611e51565b90565b505050600090565b600b5463ffffffff42811660e083901c808203838111611953576bffffffffffffffffffffffff918286169460009169ffffffffffffffffffff6001600160a01b03845460081c169860601c1695148015611b83575b611b7a57611a568688611b8b565b921693848302948386041483151715611b665780611a8b611a9192611a85611a7e8a8a611e51565b809a611946565b97611e51565b90611946565b906c01000000000000000000000000851015611b59576a0100000000000000000000821015611b59576601000000000000831015611b595750917f875352fb3fadeb8c0be7cbbe8ff761b308fa7033470cd0287f02f3436fd76cb99593917bffffffffffff000000000000000000000000000000000000000000006060969475ffffffffffffffffffff00000000000000000000000063ffffffff60e01b4260e01b1694861691891b16179160b01b161717600b5560405192835260208301526040820152a1565b6335278d1290526004601cfd5b634e487b7160e01b82526011600452602482fd5b50505050505050565b508515611a48565b90610b1c81611b9993611946565b60065480821115611bdb5790611bd6611bcd6119e793611bc7611bbe60045483611e51565b60035490611946565b93611969565b60055490611e51565b611946565b50611bbe6119e79160045490611e51565b9190916001600160a01b03908160025416908115611c4f57813b1561176a5760006064928195604051978896879563d98320d560e01b8752166004860152602485015260448401525af18015611c435761179b5750565b6040513d6000823e3d90fd5b5050505050565b6040516303e1469160e61b81526001600160a01b03906020816004817f000000000000000000000000000000000000000000000000000000000000000086165afa908115611c4357600091611cc2575b50163303611cb057565b6040516331d63ad160e11b8152600490fd5b6020813d8211611cf4575b81611cda602093836117c5565b8101031261025f5751908282168203610775575038611ca6565b3d9150611ccd565b6805345cdf77eb68f44c5460009080611d1d575050670de0b6b3a764000090565b6001600160a01b036119e7925460081c16611e7c565b7f3145c2b643834867f2c0a8cac8a48218307687911615c0ed01412a09dd163b666020611d88611d83307f0000000000000000000000000000000000000000000000000000000000000000611f3f565b611ebf565b6000547fffffffffffffffffffffff0000000000000000000000000000000000000000ff74ffffffffffffffffffffffffffffffffffffffff008360081b169116176000556001600160a01b0360405191168152a1565b60a0604051611dec6117e7565b602081519101207f8b73c3c69bb8fe3d512ecc4cf759cc79239f7b179b0ffacaa9a75d522b39400f825260208201527fc89efdaa54c0f20c7adf612882df0950f5a951637e0307cdcb4c672f298b8bc660408201524660608201523060808201522090565b90806000190482118102611e6e57670de0b6b3a764000091020490565b63bac65e5b6000526004601cfd5b670de0b6b3a7640000907812725dd1d243aba0e75fe645cc4873f9e65afe688c928e1f218111820215830215611eb157020490565b637c5f487d6000526004601cfd5b74010000000000000000000000000000000000000000811015611ee8576001600160a01b031690565b6335278d126000526004601cfd5b60109260209260145260345260446000938480936fa9059cbb00000000000000000000000082525af13d156001835114171615611f3257603452565b6390b8ec1890526004601cfd5b602460106020939284936014526f70a082310000000000000000000000006000525afa601f3d1116602051029056fea2646970667358221220ebfe8290089fe4bd14a89ab9e34fc305a9f71412050870d6337c500a01746bc564736f6c63430008110033","opcodes":"PUSH2 0x100 DUP1 PUSH1 0x40 MSTORE CALLVALUE PUSH3 0x1C9 JUMPI PUSH1 0x0 DUP1 SLOAD PUSH1 0xFF NOT AND PUSH1 0x1 OR DUP2 SSTORE PUSH4 0x5A412E53 PUSH1 0xE0 SHL DUP1 DUP4 MSTORE PUSH1 0xA0 SWAP3 DUP4 DUP2 PUSH1 0x4 DUP2 DUP7 CALLER GAS CALL DUP1 ISZERO PUSH3 0x1BE JUMPI DUP4 SWAP2 DUP5 SWAP2 DUP6 SWAP2 DUP7 SWAP2 PUSH3 0x195 JUMPI JUMPDEST POP PUSH1 0xE0 MSTORE DUP6 MSTORE PUSH1 0xC0 MSTORE PUSH1 0x80 MSTORE PUSH8 0xBCBCE7F1B150000 PUSH1 0x6 SSTORE PUSH1 0x2 PUSH1 0x7 SSTORE PUSH8 0x214E8348C4F0000 PUSH1 0x8 SSTORE PUSH8 0xDE0B6B3A7640000 PUSH1 0x9 SSTORE PUSH1 0x40 MLOAD SWAP1 DUP2 MSTORE DUP3 DUP2 PUSH1 0x4 DUP2 DUP6 CALLER GAS CALL SWAP2 DUP3 ISZERO PUSH3 0x189 JUMPI SWAP2 PUSH3 0x150 JUMPI JUMPDEST POP PUSH1 0x1 DUP1 SLOAD PUSH1 0x1 PUSH1 0x1 PUSH1 0xA0 SHL SUB NOT AND PUSH1 0x1 PUSH1 0x1 PUSH1 0xA0 SHL SUB SWAP3 SWAP1 SWAP3 AND SWAP2 SWAP1 SWAP2 OR SWAP1 SSTORE PUSH1 0xB DUP1 SLOAD PUSH1 0x1 PUSH1 0x1 PUSH1 0x60 SHL SUB PUSH6 0xFFFFFFFFFFFF PUSH1 0xB0 SHL ADD AND TIMESTAMP PUSH1 0xE0 SHL PUSH1 0x1 PUSH1 0x1 PUSH1 0xE0 SHL SUB NOT AND OR PUSH6 0x3782DACE9D9 PUSH1 0x72 SHL OR SWAP1 SSTORE PUSH1 0x40 MLOAD PUSH2 0x1FA4 SWAP2 DUP3 PUSH3 0x277 DUP4 CODECOPY PUSH1 0x80 MLOAD DUP3 DUP2 DUP2 PUSH2 0x23B ADD MSTORE PUSH2 0x1C74 ADD MSTORE MLOAD DUP2 PUSH2 0x2BF ADD MSTORE PUSH1 0xC0 MLOAD DUP2 DUP2 DUP2 PUSH2 0x583 ADD MSTORE DUP2 DUP2 PUSH2 0x85D ADD MSTORE DUP2 DUP2 PUSH2 0xA5E ADD MSTORE DUP2 DUP2 PUSH2 0xE80 ADD MSTORE DUP2 DUP2 PUSH2 0x117E ADD MSTORE DUP2 DUP2 PUSH2 0x157A ADD MSTORE PUSH2 0x1D5F ADD MSTORE PUSH1 0xE0 MLOAD DUP2 PUSH2 0xF3D ADD MSTORE RETURN JUMPDEST PUSH3 0x175 SWAP2 POP DUP3 RETURNDATASIZE DUP5 GT PUSH3 0x181 JUMPI JUMPDEST PUSH3 0x16C DUP2 DUP4 PUSH3 0x1CE JUMP JUMPDEST DUP2 ADD SWAP1 PUSH3 0x21D JUMP JUMPDEST POP POP SWAP2 POP POP CODESIZE PUSH3 0x98 JUMP JUMPDEST POP RETURNDATASIZE PUSH3 0x160 JUMP JUMPDEST PUSH1 0x40 MLOAD SWAP1 RETURNDATASIZE SWAP1 DUP3 RETURNDATACOPY RETURNDATASIZE SWAP1 REVERT JUMPDEST SWAP3 POP POP POP PUSH3 0x1B4 SWAP2 POP DUP5 RETURNDATASIZE DUP7 GT PUSH3 0x181 JUMPI PUSH3 0x16C DUP2 DUP4 PUSH3 0x1CE JUMP JUMPDEST SWAP2 POP SWAP1 CODESIZE PUSH3 0x45 JUMP JUMPDEST PUSH1 0x40 MLOAD RETURNDATASIZE DUP6 DUP3 RETURNDATACOPY RETURNDATASIZE SWAP1 REVERT JUMPDEST PUSH1 0x0 DUP1 REVERT JUMPDEST PUSH1 0x1F SWAP1 SWAP2 ADD PUSH1 0x1F NOT AND DUP2 ADD SWAP1 PUSH1 0x1 PUSH1 0x1 PUSH1 0x40 SHL SUB DUP3 GT SWAP1 DUP3 LT OR PUSH3 0x1F2 JUMPI PUSH1 0x40 MSTORE JUMP JUMPDEST PUSH4 0x4E487B71 PUSH1 0xE0 SHL PUSH1 0x0 MSTORE PUSH1 0x41 PUSH1 0x4 MSTORE PUSH1 0x24 PUSH1 0x0 REVERT JUMPDEST MLOAD SWAP1 PUSH1 0x1 PUSH1 0x1 PUSH1 0xA0 SHL SUB DUP3 AND DUP3 SUB PUSH3 0x1C9 JUMPI JUMP JUMPDEST SWAP2 SWAP1 DUP3 PUSH1 0xA0 SWAP2 SUB SLT PUSH3 0x1C9 JUMPI DUP2 MLOAD PUSH1 0x1 PUSH1 0x1 PUSH1 0xA0 SHL SUB SWAP1 DUP2 DUP2 AND DUP2 SUB PUSH3 0x1C9 JUMPI SWAP3 PUSH3 0x24E PUSH1 0x20 DUP3 ADD PUSH3 0x208 JUMP JUMPDEST SWAP3 PUSH3 0x25D PUSH1 0x40 DUP4 ADD PUSH3 0x208 JUMP JUMPDEST SWAP3 PUSH1 0x60 DUP4 ADD MLOAD SWAP1 DUP2 AND DUP2 SUB PUSH3 0x1C9 JUMPI PUSH1 0x80 SWAP1 SWAP3 ADD MLOAD SWAP1 JUMP INVALID PUSH1 0x40 PUSH1 0x80 DUP2 MSTORE PUSH1 0x4 SWAP1 DUP2 CALLDATASIZE LT ISZERO PUSH2 0x15 JUMPI PUSH1 0x0 DUP1 REVERT JUMPDEST PUSH1 0x0 SWAP2 DUP3 CALLDATALOAD PUSH1 0xE0 SHR SWAP1 DUP2 PUSH4 0x6FDDE03 EQ PUSH2 0x16DC JUMPI DUP2 PUSH4 0x95EA7B3 EQ PUSH2 0x1672 JUMPI DUP2 PUSH4 0x18160DDD EQ PUSH2 0x164B JUMPI DUP2 PUSH4 0x182DF0F5 EQ PUSH2 0x162C JUMPI DUP2 PUSH4 0x1AEBF12F EQ PUSH2 0x160D JUMPI DUP2 PUSH4 0x1BE19560 EQ PUSH2 0x1533 JUMPI DUP2 PUSH4 0x1C446983 EQ PUSH2 0x14CC JUMPI DUP2 PUSH4 0x1E44B7FC EQ PUSH2 0x12D1 JUMPI DUP2 PUSH4 0x23B872DD EQ PUSH2 0x11FC JUMPI DUP2 PUSH4 0x313CE567 EQ PUSH2 0x1151 JUMPI DUP2 PUSH4 0x3644E515 EQ PUSH2 0x1134 JUMPI DUP2 PUSH4 0x39509351 EQ PUSH2 0x10B1 JUMPI DUP2 PUSH4 0x3BA0B9A9 EQ PUSH2 0x1094 JUMPI DUP2 PUSH4 0x42BF78AF EQ PUSH2 0x1008 JUMPI DUP2 PUSH4 0x4322B714 EQ PUSH2 0xFE9 JUMPI DUP2 PUSH4 0x46F608FF EQ PUSH2 0xFCB JUMPI DUP2 PUSH4 0x47BD3718 EQ PUSH2 0xF9E JUMPI DUP2 PUSH4 0x5B322BBE EQ PUSH2 0xF60 JUMPI DUP2 PUSH4 0x5F77F891 EQ PUSH2 0xF25 JUMPI DUP2 PUSH4 0x6AFDD850 EQ PUSH2 0xEFB JUMPI DUP2 PUSH4 0x6C321C8A EQ PUSH2 0xEA4 JUMPI DUP2 PUSH4 0x6F307DC3 EQ PUSH2 0xE60 JUMPI DUP2 PUSH4 0x70A08231 EQ PUSH2 0xE2C JUMPI DUP2 PUSH4 0x72CF84A7 EQ PUSH2 0xE0D JUMPI DUP2 PUSH4 0x7D6AF079 EQ PUSH2 0xDE7 JUMPI DUP2 PUSH4 0x7ECEBE00 EQ PUSH2 0xDB3 JUMPI DUP2 PUSH4 0x8808E71C EQ PUSH2 0x9F8 JUMPI DUP2 PUSH4 0x94E1373C EQ PUSH2 0x9A7 JUMPI DUP2 PUSH4 0x95D89B41 EQ PUSH2 0x837 JUMPI DUP2 PUSH4 0x9B510998 EQ PUSH2 0x818 JUMPI DUP2 PUSH4 0xA457C2D7 EQ PUSH2 0x794 JUMPI DUP2 PUSH4 0xA6AFED95 EQ PUSH2 0x778 JUMPI DUP2 PUSH4 0xA9059CBB EQ PUSH2 0x6EA JUMPI DUP2 PUSH4 0xAA5AF0FD EQ PUSH2 0x6BC JUMPI DUP2 PUSH4 0xAD168C9D EQ PUSH2 0x694 JUMPI DUP2 PUSH4 0xAD2961A3 EQ PUSH2 0x670 JUMPI DUP2 PUSH4 0xAD7A672F EQ PUSH2 0x647 JUMPI DUP2 PUSH4 0xBA087652 EQ PUSH2 0x4CE JUMPI DUP2 PUSH4 0xC0789DCB EQ PUSH2 0x4AC JUMPI DUP2 PUSH4 0xC914B437 EQ PUSH2 0x482 JUMPI DUP2 PUSH4 0xD505ACCF EQ PUSH2 0x328 JUMPI POP DUP1 PUSH4 0xD8DFEB45 EQ PUSH2 0x301 JUMPI DUP1 PUSH4 0xD90E0264 EQ PUSH2 0x2E3 JUMPI DUP1 PUSH4 0xD935BD92 EQ PUSH2 0x2A0 JUMPI DUP1 PUSH4 0xDD62ED3E EQ PUSH2 0x263 JUMPI PUSH4 0xE8A24E1D EQ PUSH2 0x21D JUMPI PUSH1 0x0 DUP1 REVERT JUMPDEST CALLVALUE PUSH2 0x25F JUMPI DUP2 PUSH1 0x3 NOT CALLDATASIZE ADD SLT PUSH2 0x25F JUMPI PUSH1 0x20 SWAP1 MLOAD PUSH1 0x1 PUSH1 0x1 PUSH1 0xA0 SHL SUB PUSH32 0x0 AND DUP2 MSTORE RETURN JUMPDEST POP DUP1 REVERT JUMPDEST POP CALLVALUE PUSH2 0x25F JUMPI DUP1 PUSH1 0x3 NOT CALLDATASIZE ADD SLT PUSH2 0x25F JUMPI PUSH1 0x20 SWAP2 PUSH2 0x27F PUSH2 0x1754 JUMP JUMPDEST SWAP1 PUSH2 0x288 PUSH2 0x176F JUMP JUMPDEST DUP5 MSTORE PUSH4 0x7F5E9F20 PUSH1 0xC MSTORE MSTORE PUSH1 0x34 PUSH1 0xC KECCAK256 SLOAD SWAP1 MLOAD SWAP1 DUP2 MSTORE RETURN JUMPDEST POP CALLVALUE PUSH2 0x25F JUMPI DUP2 PUSH1 0x3 NOT CALLDATASIZE ADD SLT PUSH2 0x25F JUMPI PUSH1 0x20 SWAP1 MLOAD PUSH1 0x1 PUSH1 0x1 PUSH1 0xA0 SHL SUB PUSH32 0x0 AND DUP2 MSTORE RETURN JUMPDEST POP CALLVALUE PUSH2 0x25F JUMPI DUP2 PUSH1 0x3 NOT CALLDATASIZE ADD SLT PUSH2 0x25F JUMPI PUSH1 0x20 SWAP1 PUSH1 0x3 SLOAD SWAP1 MLOAD SWAP1 DUP2 MSTORE RETURN JUMPDEST POP CALLVALUE PUSH2 0x25F JUMPI DUP2 PUSH1 0x3 NOT CALLDATASIZE ADD SLT PUSH2 0x25F JUMPI PUSH1 0x20 SWAP1 PUSH1 0x1 PUSH1 0x1 PUSH1 0xA0 SHL SUB PUSH1 0x1 SLOAD AND SWAP1 MLOAD SWAP1 DUP2 MSTORE RETURN JUMPDEST SWAP2 SWAP1 POP CALLVALUE PUSH2 0x47E JUMPI PUSH1 0xE0 CALLDATASIZE PUSH1 0x3 NOT ADD SLT PUSH2 0x47E JUMPI PUSH2 0x344 PUSH2 0x1754 JUMP JUMPDEST SWAP2 PUSH2 0x34D PUSH2 0x176F JUMP JUMPDEST PUSH1 0x84 CALLDATALOAD SWAP2 PUSH1 0x64 CALLDATALOAD PUSH1 0x44 CALLDATALOAD PUSH1 0xFF DUP6 AND DUP6 SUB PUSH2 0x47A JUMPI PUSH2 0x369 PUSH2 0x1DDF JUMP JUMPDEST SWAP3 DUP7 MLOAD SWAP8 DUP4 TIMESTAMP GT PUSH2 0x46E JUMPI PUSH1 0x1 PUSH1 0x1 PUSH1 0xA0 SHL SUB DUP1 SWAP2 AND SWAP6 AND SWAP6 PUSH4 0x38377508 PUSH1 0xC MSTORE DUP6 DUP11 MSTORE PUSH1 0x20 SWAP5 DUP6 PUSH1 0xC KECCAK256 SWAP5 DUP6 SLOAD SWAP6 PUSH1 0x1 DUP8 ADD SWAP1 SSTORE PUSH32 0x6E71EDAE12B1B97F4D1F60370FEF10105FA2FAAE0126114A169C64845D6126C9 DUP12 MSTORE DUP8 DUP8 DUP13 ADD MSTORE DUP9 DUP11 DUP13 ADD MSTORE PUSH1 0x60 DUP12 ADD SWAP6 DUP6 DUP8 MSTORE PUSH1 0x80 DUP13 ADD MSTORE PUSH1 0xA0 DUP12 ADD MSTORE PUSH2 0x1901 DUP12 MSTORE DUP6 MSTORE PUSH1 0xC0 DUP10 KECCAK256 DUP9 MSTORE PUSH1 0x42 PUSH1 0x1E KECCAK256 DUP11 MSTORE PUSH1 0xFF AND DUP5 MSTORE PUSH1 0xA4 CALLDATALOAD DUP8 MSTORE PUSH1 0xC4 CALLDATALOAD PUSH1 0x60 MSTORE DUP4 DUP1 PUSH1 0x80 DUP12 PUSH1 0x1 GAS STATICCALL POP DUP5 RETURNDATASIZE MLOAD SUB PUSH2 0x463 JUMPI POP PUSH24 0x7F5E9F200000000000000000000000000000000000000000 DUP6 OR DUP7 MSTORE PUSH1 0x34 PUSH1 0x2C KECCAK256 SSTORE PUSH32 0x8C5BE1E5EBEC7D5BD14F71427D1E84F3DD0314C0F7B2291E5B200AC8C7C3B925 SWAP2 SWAP1 LOG3 MSTORE DUP1 PUSH1 0x60 MSTORE DUP1 RETURN JUMPDEST PUSH4 0xDDAFBAEF DUP10 MSTORE PUSH1 0x1C REVERT JUMPDEST POP PUSH4 0x1A15A3CC DUP10 MSTORE PUSH1 0x1C REVERT JUMPDEST DUP8 DUP1 REVERT JUMPDEST DUP3 DUP1 REVERT JUMPDEST POP POP CALLVALUE PUSH2 0x25F JUMPI DUP2 PUSH1 0x3 NOT CALLDATASIZE ADD SLT PUSH2 0x25F JUMPI PUSH1 0x20 SWAP1 PUSH6 0xFFFFFFFFFFFF PUSH1 0xB SLOAD PUSH1 0xB0 SHR AND SWAP1 MLOAD SWAP1 DUP2 MSTORE RETURN JUMPDEST POP POP CALLVALUE PUSH2 0x25F JUMPI DUP2 PUSH1 0x3 NOT CALLDATASIZE ADD SLT PUSH2 0x25F JUMPI PUSH1 0x20 SWAP1 PUSH1 0xB SLOAD PUSH1 0xE0 SHR SWAP1 MLOAD SWAP1 DUP2 MSTORE RETURN JUMPDEST DUP4 DUP4 CALLVALUE PUSH2 0x25F JUMPI PUSH1 0x60 CALLDATASIZE PUSH1 0x3 NOT ADD SLT PUSH2 0x25F JUMPI DUP3 CALLDATALOAD SWAP2 PUSH2 0x4EC PUSH2 0x176F JUMP JUMPDEST SWAP3 PUSH2 0x4F5 PUSH2 0x1785 JUMP JUMPDEST SWAP4 PUSH1 0x1 PUSH1 0x1 PUSH1 0xA0 SHL SUB SWAP1 DUP2 DUP7 AND SWAP4 DUP5 CALLER SUB PUSH2 0x601 JUMPI JUMPDEST PUSH2 0x51C PUSH2 0x516 PUSH2 0x1CFC JUMP JUMPDEST DUP6 PUSH2 0x1E51 JUMP JUMPDEST SWAP7 DUP8 ISZERO PUSH2 0x5F1 JUMPI PUSH4 0x87A211A2 PUSH1 0xC MSTORE DUP2 MSTORE PUSH1 0x20 PUSH1 0xC KECCAK256 DUP1 SLOAD SWAP9 DUP10 DUP7 GT PUSH2 0x5E6 JUMPI POP DUP5 PUSH1 0x20 SWAP10 SUB SWAP1 SSTORE PUSH9 0x5345CDF77EB68F44C DUP5 DUP2 SLOAD SUB SWAP1 SSTORE DUP4 DUP2 MSTORE DUP5 PUSH32 0xDDF252AD1BE2C89B69C2B068FC378DAA952BA7F163C4A11628F55A4DF523B3EF DUP10 DUP4 LOG3 PUSH2 0x5A7 DUP7 DUP3 PUSH32 0x0 PUSH2 0x1EF6 JUMP JUMPDEST DUP5 MLOAD SWAP3 DUP7 DUP5 MSTORE DUP8 DUP5 ADD MSTORE AND SWAP1 PUSH32 0xFBDE797D201C681B91056529119E0B02407C7BB96A4A2C75C01FC9667232C8DB DUP5 CALLER SWAP3 LOG4 PUSH2 0x5E0 PUSH2 0x1D33 JUMP JUMPDEST MLOAD SWAP1 DUP2 MSTORE RETURN JUMPDEST PUSH4 0xF4D678B8 DUP4 MSTORE PUSH1 0x1C REVERT JUMPDEST DUP7 MLOAD PUSH4 0xE3E8D297 PUSH1 0xE0 SHL DUP2 MSTORE DUP10 SWAP1 REVERT JUMPDEST CALLER PUSH1 0x20 MSTORE PUSH4 0x7F5E9F20 PUSH1 0xC MSTORE DUP7 DUP2 MSTORE PUSH1 0x34 PUSH1 0xC KECCAK256 DUP1 SLOAD PUSH1 0x0 NOT DUP2 SUB PUSH2 0x628 JUMPI JUMPDEST POP POP PUSH2 0x50B JUMP JUMPDEST DUP1 DUP7 GT PUSH2 0x63B JUMPI DUP6 SWAP1 SUB SWAP1 SSTORE DUP9 DUP1 PUSH2 0x621 JUMP JUMPDEST DUP10 PUSH4 0x13BE252B DUP5 MSTORE PUSH1 0x1C REVERT JUMPDEST POP POP CALLVALUE PUSH2 0x25F JUMPI DUP2 PUSH1 0x3 NOT CALLDATASIZE ADD SLT PUSH2 0x25F JUMPI PUSH1 0x1 PUSH1 0x1 PUSH1 0xA0 SHL SUB PUSH1 0x20 SWAP3 SLOAD PUSH1 0x8 SHR AND SWAP1 MLOAD SWAP1 DUP2 MSTORE RETURN JUMPDEST POP POP CALLVALUE PUSH2 0x25F JUMPI DUP2 PUSH1 0x3 NOT CALLDATASIZE ADD SLT PUSH2 0x25F JUMPI PUSH1 0x20 SWAP1 PUSH2 0x68D PUSH2 0x1976 JUMP JUMPDEST SWAP1 MLOAD SWAP1 DUP2 MSTORE RETURN JUMPDEST POP POP CALLVALUE PUSH2 0x25F JUMPI DUP2 PUSH1 0x3 NOT CALLDATASIZE ADD SLT PUSH2 0x25F JUMPI PUSH1 0x20 SWAP1 PUSH1 0x1 PUSH1 0x1 PUSH1 0xA0 SHL SUB PUSH1 0x2 SLOAD AND SWAP1 MLOAD SWAP1 DUP2 MSTORE RETURN JUMPDEST POP POP CALLVALUE PUSH2 0x25F JUMPI DUP2 PUSH1 0x3 NOT CALLDATASIZE ADD SLT PUSH2 0x25F JUMPI PUSH1 0x20 SWAP1 PUSH10 0xFFFFFFFFFFFFFFFFFFFF PUSH1 0xB SLOAD PUSH1 0x60 SHR AND SWAP1 MLOAD SWAP1 DUP2 MSTORE RETURN JUMPDEST DUP3 DUP5 CALLVALUE PUSH2 0x775 JUMPI DUP2 PUSH1 0x3 NOT CALLDATASIZE ADD SLT PUSH2 0x775 JUMPI PUSH2 0x704 PUSH2 0x1754 JUMP JUMPDEST PUSH1 0x24 CALLDATALOAD SWAP2 PUSH4 0x87A211A2 PUSH1 0xC MSTORE CALLER DUP2 MSTORE PUSH1 0x20 SWAP5 DUP6 PUSH1 0xC KECCAK256 SWAP1 DUP2 SLOAD SWAP1 DUP2 DUP7 GT PUSH2 0x76A JUMPI POP DUP5 SWAP1 SUB SWAP1 SSTORE MSTORE DUP3 PUSH1 0xC KECCAK256 DUP2 DUP2 SLOAD ADD SWAP1 SSTORE DUP3 MSTORE PUSH1 0xC MLOAD PUSH1 0x60 SHR CALLER PUSH32 0xDDF252AD1BE2C89B69C2B068FC378DAA952BA7F163C4A11628F55A4DF523B3EF DUP5 DUP1 LOG3 MLOAD PUSH1 0x1 DUP2 MSTORE RETURN JUMPDEST PUSH4 0xF4D678B8 DUP5 MSTORE PUSH1 0x1C REVERT JUMPDEST DUP1 REVERT JUMPDEST DUP4 CALLVALUE PUSH2 0x775 JUMPI DUP1 PUSH1 0x3 NOT CALLDATASIZE ADD SLT PUSH2 0x775 JUMPI PUSH2 0x791 PUSH2 0x19F2 JUMP JUMPDEST DUP1 RETURN JUMPDEST DUP3 DUP5 CALLVALUE PUSH2 0x775 JUMPI DUP2 PUSH1 0x3 NOT CALLDATASIZE ADD SLT PUSH2 0x775 JUMPI PUSH2 0x7AE PUSH2 0x1754 JUMP JUMPDEST PUSH1 0x24 CALLDATALOAD SWAP1 PUSH1 0x20 MSTORE PUSH4 0x7F5E9F20 PUSH1 0xC MSTORE CALLER DUP3 MSTORE PUSH1 0x34 PUSH1 0xC KECCAK256 SWAP1 DUP2 SLOAD DUP2 DUP2 LT PUSH2 0x80C JUMPI PUSH1 0x20 SWAP6 POP SUB DUP1 SWAP2 SSTORE DUP2 MSTORE PUSH1 0x2C MLOAD PUSH1 0x60 SHR SWAP1 PUSH32 0x8C5BE1E5EBEC7D5BD14F71427D1E84F3DD0314C0F7B2291E5B200AC8C7C3B925 DUP5 CALLER SWAP3 LOG3 MLOAD PUSH1 0x1 DUP2 MSTORE RETURN JUMPDEST DUP6 PUSH4 0x8301AB38 DUP6 MSTORE PUSH1 0x1C REVERT JUMPDEST POP POP CALLVALUE PUSH2 0x25F JUMPI DUP2 PUSH1 0x3 NOT CALLDATASIZE ADD SLT PUSH2 0x25F JUMPI PUSH1 0x20 SWAP1 PUSH1 0x7 SLOAD SWAP1 MLOAD SWAP1 DUP2 MSTORE RETURN JUMPDEST SWAP2 SWAP1 POP CALLVALUE PUSH2 0x47E JUMPI DUP3 PUSH1 0x3 NOT CALLDATASIZE ADD SLT PUSH2 0x47E JUMPI DUP1 MLOAD PUSH4 0x95D89B41 PUSH1 0xE0 SHL DUP2 MSTORE SWAP3 DUP1 DUP5 DUP5 DUP2 PUSH32 0x0 PUSH1 0x1 PUSH1 0x1 PUSH1 0xA0 SHL SUB AND GAS STATICCALL SWAP3 DUP4 ISZERO PUSH2 0x99B JUMPI DUP2 SWAP4 PUSH2 0x8FA JUMPI JUMPDEST PUSH2 0x8F6 DUP5 DUP5 PUSH2 0x8EC PUSH1 0x28 DUP3 MLOAD DUP1 SWAP5 PUSH32 0x4379675553443A20000000000000000000000000000000000000000000000000 PUSH1 0x20 DUP4 ADD MSTORE PUSH2 0x8DC DUP2 MLOAD DUP1 SWAP3 PUSH1 0x20 DUP7 DUP7 ADD SWAP2 ADD PUSH2 0x1705 JUMP JUMPDEST DUP2 ADD SUB PUSH1 0x8 DUP2 ADD DUP6 MSTORE ADD DUP4 PUSH2 0x17C5 JUMP JUMPDEST MLOAD SWAP2 DUP3 SWAP2 DUP3 PUSH2 0x1728 JUMP JUMPDEST SUB SWAP1 RETURN JUMPDEST SWAP1 SWAP2 SWAP3 POP RETURNDATASIZE DUP1 DUP4 DUP7 RETURNDATACOPY PUSH2 0x90D DUP2 DUP7 PUSH2 0x17C5 JUMP JUMPDEST DUP5 ADD SWAP2 PUSH1 0x20 DUP6 DUP5 SUB SLT PUSH2 0x775 JUMPI DUP5 MLOAD PUSH8 0xFFFFFFFFFFFFFFFF SWAP6 DUP7 DUP3 GT PUSH2 0x47E JUMPI ADD SWAP2 DUP4 PUSH1 0x1F DUP5 ADD SLT ISZERO PUSH2 0x25F JUMPI DUP3 MLOAD SWAP6 DUP7 GT PUSH2 0x986 JUMPI POP DUP4 MLOAD SWAP3 PUSH2 0x95B PUSH1 0x1F DUP8 ADD PUSH1 0x1F NOT AND PUSH1 0x20 ADD DUP6 PUSH2 0x17C5 JUMP JUMPDEST DUP6 DUP5 MSTORE PUSH1 0x20 DUP7 DUP5 ADD ADD GT PUSH2 0x775 JUMPI POP PUSH2 0x8F6 SWAP4 PUSH2 0x97E SWAP2 PUSH1 0x20 DUP1 DUP6 ADD SWAP2 ADD PUSH2 0x1705 JUMP JUMPDEST SWAP1 CODESIZE DUP1 PUSH2 0x895 JUMP JUMPDEST PUSH1 0x41 SWAP1 PUSH4 0x4E487B71 PUSH1 0xE0 SHL PUSH1 0x0 MSTORE MSTORE PUSH1 0x24 PUSH1 0x0 REVERT JUMPDEST POP SWAP1 MLOAD SWAP1 RETURNDATASIZE SWAP1 DUP3 RETURNDATACOPY RETURNDATASIZE SWAP1 REVERT JUMPDEST POP POP CALLVALUE PUSH2 0x25F JUMPI PUSH1 0x20 CALLDATASIZE PUSH1 0x3 NOT ADD SLT PUSH2 0x25F JUMPI DUP1 SWAP2 PUSH1 0x1 PUSH1 0x1 PUSH1 0xA0 SHL SUB PUSH2 0x9CC PUSH2 0x1754 JUMP JUMPDEST AND DUP2 MSTORE PUSH1 0xA PUSH1 0x20 MSTORE KECCAK256 SLOAD DUP2 MLOAD SWAP1 PUSH16 0xFFFFFFFFFFFFFFFFFFFFFFFFFFFFFFFF DUP2 AND DUP3 MSTORE PUSH1 0x80 SHR PUSH1 0x20 DUP3 ADD MSTORE RETURN JUMPDEST DUP4 DUP4 CALLVALUE PUSH2 0x25F JUMPI PUSH2 0x120 CALLDATASIZE PUSH1 0x3 NOT ADD SLT PUSH2 0x25F JUMPI DUP3 CALLDATALOAD PUSH2 0xA16 PUSH2 0x176F JUMP JUMPDEST SWAP4 PUSH1 0xC0 CALLDATASIZE PUSH1 0x43 NOT ADD SLT PUSH2 0xDAF JUMPI PUSH2 0x104 SWAP1 DUP2 CALLDATALOAD PUSH8 0xFFFFFFFFFFFFFFFF SWAP3 DUP4 DUP3 GT PUSH2 0xC91 JUMPI CALLDATASIZE PUSH1 0x23 DUP4 ADD SLT ISZERO PUSH2 0xC91 JUMPI DUP2 DUP4 ADD CALLDATALOAD SWAP4 DUP5 GT PUSH2 0xC91 JUMPI CALLDATASIZE PUSH1 0x24 DUP6 DUP5 ADD ADD GT PUSH2 0xC91 JUMPI PUSH32 0x0 SWAP4 PUSH2 0xA88 ADDRESS DUP7 PUSH2 0x1F3F JUMP JUMPDEST SWAP3 DUP2 PUSH2 0xC9F JUMPI JUMPDEST POP POP POP PUSH2 0xA9B DUP5 PUSH2 0x1EBF JUMP JUMPDEST SWAP3 PUSH15 0x22D473030F116DDEE9F6B43AC78BA3 DUP1 EXTCODESIZE ISZERO PUSH2 0x47A JUMPI DUP8 DUP1 SWAP2 PUSH1 0x84 DUP10 MLOAD DUP1 SWAP5 DUP2 SWAP4 PUSH4 0x1B63C28B PUSH1 0xE1 SHL DUP4 MSTORE CALLER DUP11 DUP5 ADD MSTORE ADDRESS PUSH1 0x24 DUP5 ADD MSTORE PUSH1 0x1 PUSH1 0x1 PUSH1 0xA0 SHL SUB DUP1 SWAP12 AND PUSH1 0x44 DUP5 ADD MSTORE DUP11 DUP9 AND PUSH1 0x64 DUP5 ADD MSTORE GAS CALL DUP1 ISZERO PUSH2 0xC95 JUMPI SWAP1 DUP9 SWAP2 PUSH2 0xC7D JUMPI JUMPDEST POP POP PUSH2 0xB22 SWAP2 PUSH2 0xB0F PUSH2 0xB14 SWAP3 ADDRESS SWAP1 PUSH2 0x1F3F JUMP JUMPDEST PUSH2 0x1969 JUMP JUMPDEST PUSH2 0xB1C PUSH2 0x1CFC JUMP JUMPDEST SWAP1 PUSH2 0x1E7C JUMP JUMPDEST SWAP5 DUP6 ISZERO PUSH2 0xC6E JUMPI PUSH9 0x5345CDF77EB68F44C SWAP1 DUP2 SLOAD SWAP1 DUP2 ISZERO PUSH2 0xBDC JUMPI JUMPDEST POP POP DUP1 SLOAD SWAP2 DUP7 DUP4 ADD SWAP3 DUP4 LT PUSH2 0xBD0 JUMPI POP SSTORE PUSH4 0x87A211A2 PUSH1 0xC MSTORE DUP5 PUSH1 0x0 MSTORE PUSH1 0x20 SWAP5 DUP6 PUSH1 0xC KECCAK256 DUP6 DUP2 SLOAD ADD SWAP1 SSTORE DUP5 DUP7 MSTORE PUSH1 0xC MLOAD PUSH1 0x60 SHR PUSH1 0x0 PUSH32 0xDDF252AD1BE2C89B69C2B068FC378DAA952BA7F163C4A11628F55A4DF523B3EF DUP9 DUP1 LOG3 DUP4 MLOAD SWAP3 DUP4 MSTORE DUP5 DUP7 DUP5 ADD MSTORE AND SWAP1 PUSH32 0xDCBC1C05240F31FF3AD067EF1EE35CE4997762752E3A095284754544F4C709D7 DUP4 CALLER SWAP3 LOG3 PUSH2 0x5E0 PUSH2 0x1D33 JUMP JUMPDEST PUSH4 0xE5CFE957 PUSH1 0x0 MSTORE PUSH1 0x1C REVERT JUMPDEST SWAP1 SWAP7 PUSH2 0x3E7 NOT DUP2 ADD SWAP2 SWAP1 DUP3 GT PUSH2 0xC5B JUMPI POP SWAP6 PUSH2 0x3E8 SWAP1 DUP2 DUP2 ADD SWAP1 DUP2 LT PUSH2 0xC4E JUMPI DUP3 SSTORE PUSH4 0x87A211A2 PUSH1 0xC MSTORE PUSH2 0xDEAD PUSH1 0x0 MSTORE PUSH1 0x20 PUSH1 0xC KECCAK256 DUP2 DUP2 SLOAD ADD SWAP1 SSTORE PUSH1 0x20 MSTORE PUSH1 0xC MLOAD PUSH1 0x60 SHR PUSH1 0x0 PUSH32 0xDDF252AD1BE2C89B69C2B068FC378DAA952BA7F163C4A11628F55A4DF523B3EF PUSH1 0x20 DUP1 LOG3 DUP8 DUP1 PUSH2 0xB3E JUMP JUMPDEST DUP4 PUSH4 0xE5CFE957 PUSH1 0x0 MSTORE PUSH1 0x1C REVERT JUMPDEST PUSH4 0x4E487B71 PUSH1 0xE0 SHL DUP2 MSTORE PUSH1 0x11 DUP5 MSTORE PUSH1 0x24 SWAP1 REVERT JUMPDEST POP DUP4 MLOAD PUSH4 0xF1CA48B1 PUSH1 0xE0 SHL DUP2 MSTORE REVERT JUMPDEST PUSH2 0xC86 SWAP1 PUSH2 0x179B JUMP JUMPDEST PUSH2 0xC91 JUMPI DUP7 DUP10 PUSH2 0xAFB JUMP JUMPDEST DUP7 DUP1 REVERT JUMPDEST DUP8 MLOAD RETURNDATASIZE DUP11 DUP3 RETURNDATACOPY RETURNDATASIZE SWAP1 REVERT JUMPDEST PUSH15 0x22D473030F116DDEE9F6B43AC78BA3 SWAP2 DUP3 EXTCODESIZE ISZERO PUSH2 0xDAB JUMPI DUP9 MLOAD PUSH4 0x2B67B57 PUSH1 0xE4 SHL DUP2 MSTORE CALLER DUP8 DUP3 ADD MSTORE SWAP4 PUSH1 0x1 PUSH1 0x1 PUSH1 0xA0 SHL SUB DUP1 PUSH2 0xCDA PUSH2 0x1785 JUMP JUMPDEST AND PUSH1 0x24 DUP8 ADD MSTORE PUSH1 0x64 CALLDATALOAD DUP2 DUP2 AND DUP1 SWAP2 SUB PUSH2 0xDA3 JUMPI PUSH1 0x44 DUP8 ADD MSTORE PUSH1 0x84 CALLDATALOAD PUSH6 0xFFFFFFFFFFFF SWAP1 DUP2 DUP2 AND DUP1 SWAP2 SUB PUSH2 0xDA7 JUMPI PUSH1 0x64 DUP9 ADD MSTORE PUSH1 0xA4 CALLDATALOAD SWAP1 DUP2 AND DUP1 SWAP2 SUB PUSH2 0xDA3 JUMPI PUSH1 0x84 DUP8 ADD MSTORE PUSH1 0xC4 CALLDATALOAD SWAP1 DUP2 AND DUP1 SWAP2 SUB PUSH2 0xD9F JUMPI DUP6 SWAP4 DUP5 DUP5 DUP15 SWAP8 SWAP6 DUP3 SWAP6 DUP10 SWAP6 PUSH1 0xA4 DUP6 ADD MSTORE PUSH1 0xE4 CALLDATALOAD PUSH1 0xC4 DUP6 ADD MSTORE PUSH2 0x100 PUSH1 0xE4 DUP6 ADD MSTORE DUP4 ADD MSTORE DUP1 PUSH1 0x24 PUSH2 0x124 SWAP5 ADD DUP5 DUP5 ADD CALLDATACOPY DUP2 DUP2 ADD DUP4 ADD DUP5 SWAP1 MSTORE PUSH1 0x1F ADD PUSH1 0x1F NOT AND DUP2 ADD SUB ADD SWAP3 GAS CALL DUP1 ISZERO PUSH2 0xD95 JUMPI PUSH2 0xD82 JUMPI JUMPDEST DUP1 DUP1 PUSH2 0xA8F JUMP JUMPDEST PUSH2 0xD8E SWAP1 SWAP7 SWAP2 SWAP7 PUSH2 0x179B JUMP JUMPDEST SWAP5 DUP8 PUSH2 0xD7B JUMP JUMPDEST DUP7 MLOAD RETURNDATASIZE DUP10 DUP3 RETURNDATACOPY RETURNDATASIZE SWAP1 REVERT JUMPDEST DUP12 DUP1 REVERT JUMPDEST DUP13 DUP1 REVERT JUMPDEST DUP14 DUP1 REVERT JUMPDEST DUP10 DUP1 REVERT JUMPDEST DUP4 DUP1 REVERT JUMPDEST POP POP CALLVALUE PUSH2 0x25F JUMPI PUSH1 0x20 CALLDATASIZE PUSH1 0x3 NOT ADD SLT PUSH2 0x25F JUMPI PUSH1 0x20 SWAP2 PUSH2 0xDD1 PUSH2 0x1754 JUMP JUMPDEST SWAP1 PUSH4 0x38377508 PUSH1 0xC MSTORE MSTORE DUP2 PUSH1 0xC KECCAK256 SLOAD SWAP1 MLOAD SWAP1 DUP2 MSTORE RETURN JUMPDEST POP POP CALLVALUE PUSH2 0x25F JUMPI PUSH1 0x20 CALLDATASIZE PUSH1 0x3 NOT ADD SLT PUSH2 0x25F JUMPI PUSH1 0x20 SWAP1 PUSH2 0x68D PUSH2 0xE08 PUSH2 0x1754 JUMP JUMPDEST PUSH2 0x1831 JUMP JUMPDEST POP POP CALLVALUE PUSH2 0x25F JUMPI DUP2 PUSH1 0x3 NOT CALLDATASIZE ADD SLT PUSH2 0x25F JUMPI PUSH1 0x20 SWAP1 PUSH1 0x5 SLOAD SWAP1 MLOAD SWAP1 DUP2 MSTORE RETURN JUMPDEST POP POP CALLVALUE PUSH2 0x25F JUMPI PUSH1 0x20 CALLDATASIZE PUSH1 0x3 NOT ADD SLT PUSH2 0x25F JUMPI PUSH1 0x20 SWAP2 PUSH2 0xE4A PUSH2 0x1754 JUMP JUMPDEST SWAP1 PUSH4 0x87A211A2 PUSH1 0xC MSTORE MSTORE DUP2 PUSH1 0xC KECCAK256 SLOAD SWAP1 MLOAD SWAP1 DUP2 MSTORE RETURN JUMPDEST POP POP CALLVALUE PUSH2 0x25F JUMPI DUP2 PUSH1 0x3 NOT CALLDATASIZE ADD SLT PUSH2 0x25F JUMPI PUSH1 0x20 SWAP1 MLOAD PUSH1 0x1 PUSH1 0x1 PUSH1 0xA0 SHL SUB PUSH32 0x0 AND DUP2 MSTORE RETURN JUMPDEST POP POP CALLVALUE PUSH2 0x25F JUMPI DUP2 PUSH1 0x3 NOT CALLDATASIZE ADD SLT PUSH2 0x25F JUMPI PUSH1 0x20 SWAP2 PUSH12 0xFFFFFFFFFFFFFFFFFFFFFFFF PUSH1 0xB SLOAD AND DUP1 ISZERO PUSH1 0x0 EQ PUSH2 0xEDB JUMPI POP SWAP1 MLOAD SWAP1 DUP2 MSTORE RETURN JUMPDEST PUSH2 0xB1C DUP2 PUSH1 0x1 PUSH1 0x1 PUSH1 0xA0 SHL SUB PUSH2 0xEF5 SWAP5 SLOAD PUSH1 0x8 SHR AND PUSH2 0x1946 JUMP JUMPDEST SWAP1 PUSH2 0x5E0 JUMP JUMPDEST POP POP CALLVALUE PUSH2 0x25F JUMPI DUP2 PUSH1 0x3 NOT CALLDATASIZE ADD SLT PUSH2 0x25F JUMPI PUSH1 0x20 SWAP1 MLOAD PUSH15 0x22D473030F116DDEE9F6B43AC78BA3 DUP2 MSTORE RETURN JUMPDEST POP POP CALLVALUE PUSH2 0x25F JUMPI DUP2 PUSH1 0x3 NOT CALLDATASIZE ADD SLT PUSH2 0x25F JUMPI PUSH1 0x20 SWAP1 MLOAD PUSH32 0x0 DUP2 MSTORE RETURN JUMPDEST DUP4 CALLVALUE PUSH2 0x775 JUMPI PUSH1 0x20 CALLDATASIZE PUSH1 0x3 NOT ADD SLT PUSH2 0x775 JUMPI PUSH2 0x791 PUSH2 0xF7D PUSH2 0x1754 JUMP JUMPDEST PUSH2 0xF86 DUP2 PUSH2 0x1831 JUMP JUMPDEST PUSH10 0xFFFFFFFFFFFFFFFFFFFF PUSH1 0xB SLOAD PUSH1 0x60 SHR AND SWAP2 PUSH2 0x1BEC JUMP JUMPDEST POP POP CALLVALUE PUSH2 0x25F JUMPI DUP2 PUSH1 0x3 NOT CALLDATASIZE ADD SLT PUSH2 0x25F JUMPI PUSH1 0x20 SWAP1 PUSH12 0xFFFFFFFFFFFFFFFFFFFFFFFF PUSH1 0xB SLOAD AND SWAP1 MLOAD SWAP1 DUP2 MSTORE RETURN JUMPDEST SWAP1 POP CALLVALUE PUSH2 0x47E JUMPI DUP3 PUSH1 0x3 NOT CALLDATASIZE ADD SLT PUSH2 0x47E JUMPI PUSH1 0x20 SWAP3 POP SLOAD SWAP1 MLOAD SWAP1 DUP2 MSTORE RETURN JUMPDEST POP POP CALLVALUE PUSH2 0x25F JUMPI DUP2 PUSH1 0x3 NOT CALLDATASIZE ADD SLT PUSH2 0x25F JUMPI PUSH1 0x20 SWAP1 PUSH1 0x8 SLOAD SWAP1 MLOAD SWAP1 DUP2 MSTORE RETURN JUMPDEST POP POP CALLVALUE PUSH2 0x25F JUMPI PUSH1 0x20 CALLDATASIZE PUSH1 0x3 NOT ADD SLT PUSH2 0x25F JUMPI PUSH32 0x2A0D5DC7FBC8045F59CB33C736F04F9A9B565E9F425912F9CD2BAFDEBD50CEAD SWAP1 PUSH2 0x1045 PUSH2 0x1754 JUMP JUMPDEST PUSH2 0x104D PUSH2 0x1C56 JUMP JUMPDEST PUSH1 0x2 SLOAD SWAP1 PUSH1 0x1 PUSH1 0x1 PUSH1 0xA0 SHL SUB DUP1 SWAP2 AND SWAP1 DUP2 PUSH32 0xFFFFFFFFFFFFFFFFFFFFFFFF0000000000000000000000000000000000000000 DUP5 AND OR PUSH1 0x2 SSTORE DUP4 MLOAD SWAP3 AND DUP3 MSTORE PUSH1 0x20 DUP3 ADD MSTORE LOG1 DUP1 RETURN JUMPDEST POP POP CALLVALUE PUSH2 0x25F JUMPI DUP2 PUSH1 0x3 NOT CALLDATASIZE ADD SLT PUSH2 0x25F JUMPI PUSH1 0x20 SWAP1 PUSH2 0x68D PUSH2 0x1CFC JUMP JUMPDEST DUP3 DUP5 CALLVALUE PUSH2 0x775 JUMPI DUP2 PUSH1 0x3 NOT CALLDATASIZE ADD SLT PUSH2 0x775 JUMPI PUSH2 0x10CB PUSH2 0x1754 JUMP JUMPDEST PUSH1 0x20 MSTORE PUSH4 0x7F5E9F20 PUSH1 0xC MSTORE CALLER DUP2 MSTORE PUSH1 0x34 PUSH1 0xC KECCAK256 SWAP3 DUP4 SLOAD SWAP1 PUSH1 0x24 CALLDATALOAD DUP3 ADD SWAP2 DUP3 LT PUSH2 0x1129 JUMPI POP DUP1 PUSH1 0x20 SWAP5 SSTORE DUP2 MSTORE PUSH1 0x2C MLOAD PUSH1 0x60 SHR SWAP1 PUSH32 0x8C5BE1E5EBEC7D5BD14F71427D1E84F3DD0314C0F7B2291E5B200AC8C7C3B925 DUP5 CALLER SWAP3 LOG3 MLOAD PUSH1 0x1 DUP2 MSTORE RETURN JUMPDEST PUSH4 0xF9067066 DUP4 MSTORE PUSH1 0x1C REVERT JUMPDEST POP POP CALLVALUE PUSH2 0x25F JUMPI DUP2 PUSH1 0x3 NOT CALLDATASIZE ADD SLT PUSH2 0x25F JUMPI PUSH1 0x20 SWAP1 PUSH2 0x68D PUSH2 0x1DDF JUMP JUMPDEST DUP3 DUP5 CALLVALUE PUSH2 0x775 JUMPI DUP1 PUSH1 0x3 NOT CALLDATASIZE ADD SLT PUSH2 0x775 JUMPI PUSH1 0x20 DUP3 MLOAD DUP1 SWAP5 PUSH4 0x313CE567 PUSH1 0xE0 SHL DUP3 MSTORE DUP2 PUSH1 0x1 PUSH1 0x1 PUSH1 0xA0 SHL SUB PUSH32 0x0 AND GAS STATICCALL SWAP3 DUP4 ISZERO PUSH2 0x99B JUMPI DUP2 SWAP4 PUSH2 0x11BB JUMPI JUMPDEST PUSH1 0x20 DUP5 PUSH1 0xFF DUP6 MLOAD SWAP2 AND DUP2 MSTORE RETURN JUMPDEST SWAP1 SWAP3 POP PUSH1 0x20 DUP2 RETURNDATASIZE DUP3 GT PUSH2 0x11F4 JUMPI JUMPDEST DUP2 PUSH2 0x11D6 PUSH1 0x20 SWAP4 DUP4 PUSH2 0x17C5 JUMP JUMPDEST DUP2 ADD SUB SLT PUSH2 0x47E JUMPI MLOAD SWAP2 PUSH1 0xFF DUP4 AND DUP4 SUB PUSH2 0x775 JUMPI POP PUSH1 0xFF PUSH1 0x20 PUSH2 0x11AE JUMP JUMPDEST RETURNDATASIZE SWAP2 POP PUSH2 0x11C9 JUMP JUMPDEST DUP4 DUP4 CALLVALUE PUSH2 0x25F JUMPI PUSH1 0x60 CALLDATASIZE PUSH1 0x3 NOT ADD SLT PUSH2 0x25F JUMPI PUSH2 0x1217 PUSH2 0x1754 JUMP JUMPDEST PUSH2 0x121F PUSH2 0x176F JUMP JUMPDEST PUSH1 0x44 CALLDATALOAD DUP3 PUSH1 0x60 SHL SWAP2 PUSH1 0x20 SWAP6 CALLER DUP8 MSTORE PUSH1 0xC SWAP4 PUSH4 0x7F5E9F20 DUP2 OR DUP6 MSTORE PUSH1 0x34 DUP6 KECCAK256 DUP1 SLOAD PUSH1 0x0 NOT DUP2 SUB PUSH2 0x12AE JUMPI JUMPDEST POP POP PUSH4 0x87A211A2 OR DUP5 MSTORE DUP7 DUP5 KECCAK256 DUP1 SLOAD SWAP9 DUP10 DUP6 GT PUSH2 0x5E6 JUMPI POP DUP4 PUSH1 0x1 PUSH1 0x1 PUSH1 0xA0 SHL SUB SWAP7 SWAP8 SWAP9 SWAP10 SUB SWAP1 SSTORE MSTORE DUP6 DUP3 KECCAK256 DUP2 DUP2 SLOAD ADD SWAP1 SSTORE DUP6 MSTORE MLOAD PUSH1 0x60 SHR SWAP2 AND PUSH32 0xDDF252AD1BE2C89B69C2B068FC378DAA952BA7F163C4A11628F55A4DF523B3EF DUP5 DUP1 LOG3 MLOAD PUSH1 0x1 DUP2 MSTORE RETURN JUMPDEST DUP1 DUP7 GT PUSH2 0x12C5 JUMPI DUP6 SWAP1 SUB SWAP1 SSTORE PUSH4 0x87A211A2 DUP11 PUSH2 0x1249 JUMP JUMPDEST DUP11 PUSH4 0x13BE252B DUP6 MSTORE PUSH1 0x1C REVERT JUMPDEST SWAP1 POP CALLVALUE PUSH2 0x47E JUMPI PUSH1 0x80 CALLDATASIZE PUSH1 0x3 NOT ADD SLT PUSH2 0x47E JUMPI DUP1 CALLDATALOAD SWAP2 PUSH1 0x24 CALLDATALOAD SWAP1 PUSH1 0x44 CALLDATALOAD SWAP2 PUSH1 0x64 CALLDATALOAD SWAP4 PUSH2 0x12FB PUSH2 0x1C56 JUMP JUMPDEST PUSH8 0x16345785D8A0000 DUP7 GT PUSH2 0x14AD JUMPI PUSH8 0x6F05B59D3B20000 DUP6 LT DUP1 ISZERO PUSH2 0x14BB JUMPI JUMPDEST PUSH2 0x14AD JUMPI PUSH1 0x1 DUP1 DUP6 LT DUP1 ISZERO PUSH2 0x14A3 JUMPI JUMPDEST PUSH2 0x1494 JUMPI PUSH4 0x1E13380 SWAP2 DUP3 DUP9 DIV PUSH1 0x3 SSTORE DUP7 DUP4 MUL DUP4 DUP2 DIV DUP9 SUB PUSH2 0x1481 JUMPI PUSH2 0x1352 SWAP1 DUP6 PUSH2 0x1E7C JUMP JUMPDEST DUP2 SSTORE DUP6 PUSH1 0x7 SSTORE DUP7 PUSH1 0x6 SSTORE DUP9 SWAP3 DUP7 DUP6 MUL SWAP1 PUSH1 0x0 NOT DUP9 DUP8 MULMOD SWAP2 DUP1 DUP4 LT DUP2 ADD DUP1 DUP5 SUB SWAP4 EQ PUSH32 0x98F5BE4DD1E14769FBD6666224DC1EB80DD2E0A3D2C8B328F57E76B7AE103957 DUP5 DUP5 GT ISZERO SWAP5 DUP5 DUP13 DUP12 MULMOD SWAP1 DUP5 DUP3 GT SWAP1 SUB PUSH1 0xF9 SHL SWAP1 DUP5 SUB PUSH1 0x7 SHR OR MUL SWAP6 PUSH2 0x1401 JUMPI JUMPDEST POP DUP12 PUSH32 0xF58B8CC439EDADA25FD9495B7364AEB1D737DBEF59BE1CF62E0CC4001C44A3CD PUSH1 0x80 DUP14 DUP14 DUP14 DUP14 DUP14 PUSH2 0x13E8 DUP5 DUP16 PUSH2 0x1E7C JUMP JUMPDEST PUSH1 0x5 SSTORE DUP2 MLOAD SWAP5 DUP6 MSTORE PUSH1 0x20 DUP6 ADD MSTORE DUP4 ADD MSTORE PUSH1 0x60 DUP3 ADD MSTORE LOG1 DUP1 RETURN JUMPDEST SWAP1 SWAP2 SWAP3 SWAP4 SWAP5 SWAP6 POP PUSH2 0x144C JUMPI POP POP PUSH2 0x1441 JUMPI POP DUP2 PUSH2 0x13E8 DUP7 PUSH1 0x80 PUSH32 0xF58B8CC439EDADA25FD9495B7364AEB1D737DBEF59BE1CF62E0CC4001C44A3CD CODESIZE PUSH2 0x13B4 JUMP JUMPDEST PUSH4 0xAE47F702 DUP9 MSTORE PUSH1 0x1C REVERT JUMPDEST DIV SWAP3 POP DUP4 SWAP2 POP PUSH2 0x13E8 SWAP1 POP DUP7 PUSH1 0x80 PUSH32 0xF58B8CC439EDADA25FD9495B7364AEB1D737DBEF59BE1CF62E0CC4001C44A3CD CODESIZE PUSH2 0x13B4 JUMP JUMPDEST PUSH4 0x4E487B71 PUSH1 0xE0 SHL DUP11 MSTORE PUSH1 0x11 DUP3 MSTORE PUSH1 0x24 DUP11 REVERT JUMPDEST POP DUP3 MLOAD PUSH4 0xE49B3B3 PUSH1 0xE4 SHL DUP2 MSTORE REVERT JUMPDEST POP PUSH1 0xA DUP6 GT PUSH2 0x132C JUMP JUMPDEST DUP3 MLOAD PUSH4 0xE49B3B3 PUSH1 0xE4 SHL DUP2 MSTORE REVERT JUMPDEST POP PUSH8 0xD2F13F7789F0000 DUP6 GT PUSH2 0x131C JUMP JUMPDEST SWAP1 POP CALLVALUE PUSH2 0x47E JUMPI PUSH1 0x20 CALLDATASIZE PUSH1 0x3 NOT ADD SLT PUSH2 0x47E JUMPI DUP1 CALLDATALOAD SWAP1 PUSH2 0x14EA PUSH2 0x1C56 JUMP JUMPDEST PUSH8 0x2C68AF0BB140000 DUP3 GT PUSH2 0x14AD JUMPI POP SWAP1 PUSH32 0xAAA68312E2EA9D50E16AF5068410AB56E1A1FD06037B1A35664812C30F821460 SWAP2 PUSH1 0x8 SLOAD SWAP1 DUP1 PUSH1 0x8 SSTORE DUP3 MLOAD SWAP2 DUP3 MSTORE PUSH1 0x20 DUP3 ADD MSTORE LOG1 DUP1 RETURN JUMPDEST DUP4 DUP4 CALLVALUE PUSH2 0x25F JUMPI PUSH1 0x20 CALLDATASIZE PUSH1 0x3 NOT ADD SLT PUSH2 0x25F JUMPI PUSH2 0x154E PUSH2 0x1754 JUMP JUMPDEST SWAP1 DUP3 SLOAD SWAP2 PUSH1 0xFF DUP4 AND ISZERO PUSH2 0x15FD JUMPI PUSH1 0xFF NOT SWAP3 DUP4 AND DUP5 SSTORE PUSH2 0x156B PUSH2 0x1C56 JUMP JUMPDEST PUSH1 0x1 PUSH1 0x1 PUSH1 0xA0 SHL SUB SWAP2 DUP3 DUP3 AND SWAP3 PUSH32 0x0 AND DUP4 EQ PUSH2 0x15EE JUMPI PUSH1 0x1 SWAP5 SWAP6 POP PUSH2 0x15BB PUSH2 0x15B2 ADDRESS DUP5 PUSH2 0x1F3F JUMP JUMPDEST DUP1 SWAP4 CALLER SWAP1 PUSH2 0x1EF6 JUMP JUMPDEST MLOAD SWAP1 DUP2 MSTORE PUSH32 0x6D25BE279134F4ECAA4770AFF0C3D916D9E7C5EF37B65ED95DBDBA411F5D54D5 PUSH1 0x20 CALLER SWAP3 LOG3 DUP3 SLOAD AND OR DUP2 SSTORE DUP1 RETURN JUMPDEST MLOAD PUSH4 0xB5D8F391 PUSH1 0xE0 SHL DUP2 MSTORE DUP6 SWAP1 REVERT JUMPDEST DUP2 MLOAD PUSH4 0x6FDA65D PUSH1 0xE3 SHL DUP2 MSTORE DUP6 SWAP1 REVERT JUMPDEST POP POP CALLVALUE PUSH2 0x25F JUMPI DUP2 PUSH1 0x3 NOT CALLDATASIZE ADD SLT PUSH2 0x25F JUMPI PUSH1 0x20 SWAP1 PUSH1 0x6 SLOAD SWAP1 MLOAD SWAP1 DUP2 MSTORE RETURN JUMPDEST POP POP CALLVALUE PUSH2 0x25F JUMPI DUP2 PUSH1 0x3 NOT CALLDATASIZE ADD SLT PUSH2 0x25F JUMPI PUSH1 0x20 SWAP1 PUSH1 0x9 SLOAD SWAP1 MLOAD SWAP1 DUP2 MSTORE RETURN JUMPDEST POP POP CALLVALUE PUSH2 0x25F JUMPI DUP2 PUSH1 0x3 NOT CALLDATASIZE ADD SLT PUSH2 0x25F JUMPI PUSH1 0x20 SWAP1 PUSH9 0x5345CDF77EB68F44C SLOAD SWAP1 MLOAD SWAP1 DUP2 MSTORE RETURN JUMPDEST POP POP CALLVALUE PUSH2 0x25F JUMPI DUP1 PUSH1 0x3 NOT CALLDATASIZE ADD SLT PUSH2 0x25F JUMPI PUSH1 0x20 SWAP2 PUSH2 0x168F PUSH2 0x1754 JUMP JUMPDEST PUSH1 0x24 CALLDATALOAD SWAP1 DUP5 MSTORE PUSH4 0x7F5E9F20 PUSH1 0xC MSTORE CALLER DUP3 MSTORE DUP1 PUSH1 0x34 PUSH1 0xC KECCAK256 SSTORE DUP2 MSTORE PUSH1 0x2C MLOAD PUSH1 0x60 SHR SWAP1 PUSH32 0x8C5BE1E5EBEC7D5BD14F71427D1E84F3DD0314C0F7B2291E5B200AC8C7C3B925 DUP5 CALLER SWAP3 LOG3 MLOAD PUSH1 0x1 DUP2 MSTORE RETURN JUMPDEST POP POP CALLVALUE PUSH2 0x25F JUMPI DUP2 PUSH1 0x3 NOT CALLDATASIZE ADD SLT PUSH2 0x25F JUMPI PUSH2 0x8F6 SWAP1 PUSH2 0x16FA PUSH2 0x17E7 JUMP JUMPDEST SWAP1 MLOAD SWAP2 DUP3 SWAP2 DUP3 PUSH2 0x1728 JUMP JUMPDEST PUSH1 0x0 JUMPDEST DUP4 DUP2 LT PUSH2 0x1718 JUMPI POP POP PUSH1 0x0 SWAP2 ADD MSTORE JUMP JUMPDEST DUP2 DUP2 ADD MLOAD DUP4 DUP3 ADD MSTORE PUSH1 0x20 ADD PUSH2 0x1708 JUMP JUMPDEST PUSH1 0x40 SWAP2 PUSH1 0x20 DUP3 MSTORE PUSH2 0x1748 DUP2 MLOAD DUP1 SWAP3 DUP2 PUSH1 0x20 DUP7 ADD MSTORE PUSH1 0x20 DUP7 DUP7 ADD SWAP2 ADD PUSH2 0x1705 JUMP JUMPDEST PUSH1 0x1F ADD PUSH1 0x1F NOT AND ADD ADD SWAP1 JUMP JUMPDEST PUSH1 0x4 CALLDATALOAD SWAP1 PUSH1 0x1 PUSH1 0x1 PUSH1 0xA0 SHL SUB DUP3 AND DUP3 SUB PUSH2 0x176A JUMPI JUMP JUMPDEST PUSH1 0x0 DUP1 REVERT JUMPDEST PUSH1 0x24 CALLDATALOAD SWAP1 PUSH1 0x1 PUSH1 0x1 PUSH1 0xA0 SHL SUB DUP3 AND DUP3 SUB PUSH2 0x176A JUMPI JUMP JUMPDEST PUSH1 0x44 CALLDATALOAD SWAP1 PUSH1 0x1 PUSH1 0x1 PUSH1 0xA0 SHL SUB DUP3 AND DUP3 SUB PUSH2 0x176A JUMPI JUMP JUMPDEST PUSH8 0xFFFFFFFFFFFFFFFF DUP2 GT PUSH2 0x17AF JUMPI PUSH1 0x40 MSTORE JUMP JUMPDEST PUSH4 0x4E487B71 PUSH1 0xE0 SHL PUSH1 0x0 MSTORE PUSH1 0x41 PUSH1 0x4 MSTORE PUSH1 0x24 PUSH1 0x0 REVERT JUMPDEST SWAP1 PUSH1 0x1F DUP1 NOT SWAP2 ADD AND DUP2 ADD SWAP1 DUP2 LT PUSH8 0xFFFFFFFFFFFFFFFF DUP3 GT OR PUSH2 0x17AF JUMPI PUSH1 0x40 MSTORE JUMP JUMPDEST PUSH1 0x40 MLOAD SWAP1 PUSH1 0x40 DUP3 ADD DUP3 DUP2 LT PUSH8 0xFFFFFFFFFFFFFFFF DUP3 GT OR PUSH2 0x17AF JUMPI PUSH1 0x40 MSTORE PUSH1 0x12 DUP3 MSTORE PUSH32 0x4379676E75733A20426F72726F7761626C650000000000000000000000000000 PUSH1 0x20 DUP4 ADD MSTORE JUMP JUMPDEST PUSH1 0x1 PUSH1 0x1 PUSH1 0xA0 SHL SUB PUSH1 0x0 SWAP2 AND DUP2 MSTORE PUSH1 0xA PUSH1 0x20 MSTORE PUSH1 0x40 DUP2 KECCAK256 SLOAD SWAP1 DUP2 PUSH1 0x80 SHR SWAP1 DUP2 ISZERO SWAP3 DUP4 PUSH2 0x193F JUMPI PUSH16 0xFFFFFFFFFFFFFFFFFFFFFFFFFFFFFFFF AND PUSH10 0xFFFFFFFFFFFFFFFFFFFF PUSH1 0xB SLOAD PUSH1 0x60 SHR AND SWAP3 DUP3 SWAP5 DUP5 DUP4 MUL SWAP1 PUSH1 0x0 NOT DUP7 DUP6 MULMOD SWAP6 DUP4 DUP4 DUP9 LT DUP5 ADD DUP1 DUP10 SUB SWAP9 EQ SWAP2 DUP9 DUP3 GT ISZERO SWAP7 MULMOD SWAP7 DUP5 DUP8 SUB DUP6 AND SWAP8 DUP9 DUP7 DIV SWAP9 PUSH1 0x2 DUP1 DUP12 PUSH1 0x3 MUL XOR DUP1 DUP13 MUL DUP3 SUB MUL DUP1 DUP13 MUL DUP3 SUB MUL DUP1 DUP13 MUL DUP3 SUB MUL DUP1 DUP13 MUL DUP3 SUB MUL DUP1 DUP13 MUL DUP3 SUB MUL SWAP1 DUP2 PUSH1 0x1 SWAP13 MUL SWAP1 SUB MUL SWAP3 DUP11 DUP3 DUP1 DUP13 SUB DIV ADD SWAP1 DUP8 DUP5 GT SWAP1 SUB MUL SWAP2 DUP7 SUB DIV OR MUL SWAP7 PUSH2 0x18FA JUMPI JUMPDEST POP POP POP POP POP POP POP SWAP1 JUMP JUMPDEST SWAP1 SWAP2 SWAP3 SWAP4 SWAP5 SWAP6 SWAP7 POP PUSH2 0x1927 JUMPI POP POP POP PUSH2 0x191A JUMPI POP CODESIZE DUP1 DUP1 DUP1 DUP1 DUP1 DUP1 PUSH2 0x18F0 JUMP JUMPDEST PUSH4 0xAE47F702 SWAP1 MSTORE PUSH1 0x4 PUSH1 0x1C REVERT JUMPDEST SWAP2 SWAP5 POP SWAP3 SWAP2 POP PUSH2 0x191A JUMPI POP DIV CODESIZE DUP1 DUP1 DUP1 DUP1 DUP1 DUP1 PUSH2 0x18F0 JUMP JUMPDEST POP SWAP2 POP POP SWAP1 JUMP JUMPDEST SWAP2 SWAP1 DUP3 ADD DUP1 SWAP3 GT PUSH2 0x1953 JUMPI JUMP JUMPDEST PUSH4 0x4E487B71 PUSH1 0xE0 SHL PUSH1 0x0 MSTORE PUSH1 0x11 PUSH1 0x4 MSTORE PUSH1 0x24 PUSH1 0x0 REVERT JUMPDEST SWAP2 SWAP1 DUP3 SUB SWAP2 DUP3 GT PUSH2 0x1953 JUMPI JUMP JUMPDEST PUSH1 0xB SLOAD PUSH1 0x8 SLOAD PUSH8 0xDE0B6B3A7640000 SWAP1 DUP2 SUB SWAP1 DUP2 GT PUSH2 0x1953 JUMPI PUSH2 0x19A4 SWAP1 PUSH6 0xFFFFFFFFFFFF DUP4 PUSH1 0xB0 SHR AND PUSH2 0x1E51 JUMP JUMPDEST PUSH1 0x1 PUSH1 0x1 PUSH1 0xA0 SHL SUB PUSH12 0xFFFFFFFFFFFFFFFFFFFFFFFF DUP2 PUSH1 0x0 SLOAD PUSH1 0x8 SHR AND SWAP4 AND DUP1 SWAP4 ADD DUP2 DUP2 GT PUSH2 0x1953 JUMPI AND SWAP2 DUP3 ISZERO PUSH2 0x19EA JUMPI PUSH2 0x19E7 SWAP3 PUSH2 0x19E2 SWAP2 PUSH2 0x1E7C JUMP JUMPDEST PUSH2 0x1E51 JUMP JUMPDEST SWAP1 JUMP JUMPDEST POP POP POP PUSH1 0x0 SWAP1 JUMP JUMPDEST PUSH1 0xB SLOAD PUSH4 0xFFFFFFFF TIMESTAMP DUP2 AND PUSH1 0xE0 DUP4 SWAP1 SHR DUP1 DUP3 SUB DUP4 DUP2 GT PUSH2 0x1953 JUMPI PUSH12 0xFFFFFFFFFFFFFFFFFFFFFFFF SWAP2 DUP3 DUP7 AND SWAP5 PUSH1 0x0 SWAP2 PUSH10 0xFFFFFFFFFFFFFFFFFFFF PUSH1 0x1 PUSH1 0x1 PUSH1 0xA0 SHL SUB DUP5 SLOAD PUSH1 0x8 SHR AND SWAP9 PUSH1 0x60 SHR AND SWAP6 EQ DUP1 ISZERO PUSH2 0x1B83 JUMPI JUMPDEST PUSH2 0x1B7A JUMPI PUSH2 0x1A56 DUP7 DUP9 PUSH2 0x1B8B JUMP JUMPDEST SWAP3 AND SWAP4 DUP5 DUP4 MUL SWAP5 DUP4 DUP7 DIV EQ DUP4 ISZERO OR ISZERO PUSH2 0x1B66 JUMPI DUP1 PUSH2 0x1A8B PUSH2 0x1A91 SWAP3 PUSH2 0x1A85 PUSH2 0x1A7E DUP11 DUP11 PUSH2 0x1E51 JUMP JUMPDEST DUP1 SWAP11 PUSH2 0x1946 JUMP JUMPDEST SWAP8 PUSH2 0x1E51 JUMP JUMPDEST SWAP1 PUSH2 0x1946 JUMP JUMPDEST SWAP1 PUSH13 0x1000000000000000000000000 DUP6 LT ISZERO PUSH2 0x1B59 JUMPI PUSH11 0x100000000000000000000 DUP3 LT ISZERO PUSH2 0x1B59 JUMPI PUSH7 0x1000000000000 DUP4 LT ISZERO PUSH2 0x1B59 JUMPI POP SWAP2 PUSH32 0x875352FB3FADEB8C0BE7CBBE8FF761B308FA7033470CD0287F02F3436FD76CB9 SWAP6 SWAP4 SWAP2 PUSH28 0xFFFFFFFFFFFF00000000000000000000000000000000000000000000 PUSH1 0x60 SWAP7 SWAP5 PUSH22 0xFFFFFFFFFFFFFFFFFFFF000000000000000000000000 PUSH4 0xFFFFFFFF PUSH1 0xE0 SHL TIMESTAMP PUSH1 0xE0 SHL AND SWAP5 DUP7 AND SWAP2 DUP10 SHL AND OR SWAP2 PUSH1 0xB0 SHL AND OR OR PUSH1 0xB SSTORE PUSH1 0x40 MLOAD SWAP3 DUP4 MSTORE PUSH1 0x20 DUP4 ADD MSTORE PUSH1 0x40 DUP3 ADD MSTORE LOG1 JUMP JUMPDEST PUSH4 0x35278D12 SWAP1 MSTORE PUSH1 0x4 PUSH1 0x1C REVERT JUMPDEST PUSH4 0x4E487B71 PUSH1 0xE0 SHL DUP3 MSTORE PUSH1 0x11 PUSH1 0x4 MSTORE PUSH1 0x24 DUP3 REVERT JUMPDEST POP POP POP POP POP POP POP JUMP JUMPDEST POP DUP6 ISZERO PUSH2 0x1A48 JUMP JUMPDEST SWAP1 PUSH2 0xB1C DUP2 PUSH2 0x1B99 SWAP4 PUSH2 0x1946 JUMP JUMPDEST PUSH1 0x6 SLOAD DUP1 DUP3 GT ISZERO PUSH2 0x1BDB JUMPI SWAP1 PUSH2 0x1BD6 PUSH2 0x1BCD PUSH2 0x19E7 SWAP4 PUSH2 0x1BC7 PUSH2 0x1BBE PUSH1 0x4 SLOAD DUP4 PUSH2 0x1E51 JUMP JUMPDEST PUSH1 0x3 SLOAD SWAP1 PUSH2 0x1946 JUMP JUMPDEST SWAP4 PUSH2 0x1969 JUMP JUMPDEST PUSH1 0x5 SLOAD SWAP1 PUSH2 0x1E51 JUMP JUMPDEST PUSH2 0x1946 JUMP JUMPDEST POP PUSH2 0x1BBE PUSH2 0x19E7 SWAP2 PUSH1 0x4 SLOAD SWAP1 PUSH2 0x1E51 JUMP JUMPDEST SWAP2 SWAP1 SWAP2 PUSH1 0x1 PUSH1 0x1 PUSH1 0xA0 SHL SUB SWAP1 DUP2 PUSH1 0x2 SLOAD AND SWAP1 DUP2 ISZERO PUSH2 0x1C4F JUMPI DUP2 EXTCODESIZE ISZERO PUSH2 0x176A JUMPI PUSH1 0x0 PUSH1 0x64 SWAP3 DUP2 SWAP6 PUSH1 0x40 MLOAD SWAP8 DUP9 SWAP7 DUP8 SWAP6 PUSH4 0xD98320D5 PUSH1 0xE0 SHL DUP8 MSTORE AND PUSH1 0x4 DUP7 ADD MSTORE PUSH1 0x24 DUP6 ADD MSTORE PUSH1 0x44 DUP5 ADD MSTORE GAS CALL DUP1 ISZERO PUSH2 0x1C43 JUMPI PUSH2 0x179B JUMPI POP JUMP JUMPDEST PUSH1 0x40 MLOAD RETURNDATASIZE PUSH1 0x0 DUP3 RETURNDATACOPY RETURNDATASIZE SWAP1 REVERT JUMPDEST POP POP POP POP POP JUMP JUMPDEST PUSH1 0x40 MLOAD PUSH4 0x3E14691 PUSH1 0xE6 SHL DUP2 MSTORE PUSH1 0x1 PUSH1 0x1 PUSH1 0xA0 SHL SUB SWAP1 PUSH1 0x20 DUP2 PUSH1 0x4 DUP2 PUSH32 0x0 DUP7 AND GAS STATICCALL SWAP1 DUP2 ISZERO PUSH2 0x1C43 JUMPI PUSH1 0x0 SWAP2 PUSH2 0x1CC2 JUMPI JUMPDEST POP AND CALLER SUB PUSH2 0x1CB0 JUMPI JUMP JUMPDEST PUSH1 0x40 MLOAD PUSH4 0x31D63AD1 PUSH1 0xE1 SHL DUP2 MSTORE PUSH1 0x4 SWAP1 REVERT JUMPDEST PUSH1 0x20 DUP2 RETURNDATASIZE DUP3 GT PUSH2 0x1CF4 JUMPI JUMPDEST DUP2 PUSH2 0x1CDA PUSH1 0x20 SWAP4 DUP4 PUSH2 0x17C5 JUMP JUMPDEST DUP2 ADD SUB SLT PUSH2 0x25F JUMPI MLOAD SWAP1 DUP3 DUP3 AND DUP3 SUB PUSH2 0x775 JUMPI POP CODESIZE PUSH2 0x1CA6 JUMP JUMPDEST RETURNDATASIZE SWAP2 POP PUSH2 0x1CCD JUMP JUMPDEST PUSH9 0x5345CDF77EB68F44C SLOAD PUSH1 0x0 SWAP1 DUP1 PUSH2 0x1D1D JUMPI POP POP PUSH8 0xDE0B6B3A7640000 SWAP1 JUMP JUMPDEST PUSH1 0x1 PUSH1 0x1 PUSH1 0xA0 SHL SUB PUSH2 0x19E7 SWAP3 SLOAD PUSH1 0x8 SHR AND PUSH2 0x1E7C JUMP JUMPDEST PUSH32 0x3145C2B643834867F2C0A8CAC8A48218307687911615C0ED01412A09DD163B66 PUSH1 0x20 PUSH2 0x1D88 PUSH2 0x1D83 ADDRESS PUSH32 0x0 PUSH2 0x1F3F JUMP JUMPDEST PUSH2 0x1EBF JUMP JUMPDEST PUSH1 0x0 SLOAD PUSH32 0xFFFFFFFFFFFFFFFFFFFFFF0000000000000000000000000000000000000000FF PUSH21 0xFFFFFFFFFFFFFFFFFFFFFFFFFFFFFFFFFFFFFFFF00 DUP4 PUSH1 0x8 SHL AND SWAP2 AND OR PUSH1 0x0 SSTORE PUSH1 0x1 PUSH1 0x1 PUSH1 0xA0 SHL SUB PUSH1 0x40 MLOAD SWAP2 AND DUP2 MSTORE LOG1 JUMP JUMPDEST PUSH1 0xA0 PUSH1 0x40 MLOAD PUSH2 0x1DEC PUSH2 0x17E7 JUMP JUMPDEST PUSH1 0x20 DUP2 MLOAD SWAP2 ADD KECCAK256 PUSH32 0x8B73C3C69BB8FE3D512ECC4CF759CC79239F7B179B0FFACAA9A75D522B39400F DUP3 MSTORE PUSH1 0x20 DUP3 ADD MSTORE PUSH32 0xC89EFDAA54C0F20C7ADF612882DF0950F5A951637E0307CDCB4C672F298B8BC6 PUSH1 0x40 DUP3 ADD MSTORE CHAINID PUSH1 0x60 DUP3 ADD MSTORE ADDRESS PUSH1 0x80 DUP3 ADD MSTORE KECCAK256 SWAP1 JUMP JUMPDEST SWAP1 DUP1 PUSH1 0x0 NOT DIV DUP3 GT DUP2 MUL PUSH2 0x1E6E JUMPI PUSH8 0xDE0B6B3A7640000 SWAP2 MUL DIV SWAP1 JUMP JUMPDEST PUSH4 0xBAC65E5B PUSH1 0x0 MSTORE PUSH1 0x4 PUSH1 0x1C REVERT JUMPDEST PUSH8 0xDE0B6B3A7640000 SWAP1 PUSH25 0x12725DD1D243ABA0E75FE645CC4873F9E65AFE688C928E1F21 DUP2 GT DUP3 MUL ISZERO DUP4 MUL ISZERO PUSH2 0x1EB1 JUMPI MUL DIV SWAP1 JUMP JUMPDEST PUSH4 0x7C5F487D PUSH1 0x0 MSTORE PUSH1 0x4 PUSH1 0x1C REVERT JUMPDEST PUSH21 0x10000000000000000000000000000000000000000 DUP2 LT ISZERO PUSH2 0x1EE8 JUMPI PUSH1 0x1 PUSH1 0x1 PUSH1 0xA0 SHL SUB AND SWAP1 JUMP JUMPDEST PUSH4 0x35278D12 PUSH1 0x0 MSTORE PUSH1 0x4 PUSH1 0x1C REVERT JUMPDEST PUSH1 0x10 SWAP3 PUSH1 0x20 SWAP3 PUSH1 0x14 MSTORE PUSH1 0x34 MSTORE PUSH1 0x44 PUSH1 0x0 SWAP4 DUP5 DUP1 SWAP4 PUSH16 0xA9059CBB000000000000000000000000 DUP3 MSTORE GAS CALL RETURNDATASIZE ISZERO PUSH1 0x1 DUP4 MLOAD EQ OR AND ISZERO PUSH2 0x1F32 JUMPI PUSH1 0x34 MSTORE JUMP JUMPDEST PUSH4 0x90B8EC18 SWAP1 MSTORE PUSH1 0x4 PUSH1 0x1C REVERT JUMPDEST PUSH1 0x24 PUSH1 0x10 PUSH1 0x20 SWAP4 SWAP3 DUP5 SWAP4 PUSH1 0x14 MSTORE PUSH16 0x70A08231000000000000000000000000 PUSH1 0x0 MSTORE GAS STATICCALL PUSH1 0x1F RETURNDATASIZE GT AND PUSH1 0x20 MLOAD MUL SWAP1 JUMP INVALID LOG2 PUSH5 0x6970667358 0x22 SLT KECCAK256 0xEB INVALID DUP3 SWAP1 ADDMOD SWAP16 0xE4 0xBD EQ 0xA8 SWAP11 0xB9 0xE3 0x4F 0xC3 SDIV 0xA9 0xF7 EQ SLT SDIV ADDMOD PUSH17 0xD6337C500A01746BC564736F6C63430008 GT STOP CALLER "},"methodIdentifiers":{"DOMAIN_SEPARATOR()":"3644e515","PERMIT2()":"6afdd850","accrueInterest()":"a6afed95","allowance(address,address)":"dd62ed3e","approve(address,uint256)":"095ea7b3","balanceOf(address)":"70a08231","baseRatePerSecond()":"d90e0264","borrowBalances(address)":"94e1373c","borrowIndex()":"aa5af0fd","borrowRate()":"c914b437","collateral()":"d8dfeb45","cygnusBorrowRewarder()":"ad168c9d","cygnusNebulaOracle()":"d935bd92","decimals()":"313ce567","decreaseAllowance(address,uint256)":"a457c2d7","deposit(uint256,address,((address,uint160,uint48,uint48),address,uint256),bytes)":"8808e71c","exchangeRate()":"3ba0b9a9","exchangeRateStored()":"182df0f5","getBorrowBalance(address)":"7d6af079","hangar18()":"e8a24e1d","increaseAllowance(address,uint256)":"39509351","jumpMultiplierPerSecond()":"72cf84a7","kinkMultiplier()":"9b510998","kinkUtilizationRate()":"1aebf12f","lastAccrualTimestamp()":"c0789dcb","multiplierPerSecond()":"46f608ff","name()":"06fdde03","nonces(address)":"7ecebe00","permit(address,address,uint256,uint256,uint8,bytes32,bytes32)":"d505accf","redeem(uint256,address,address)":"ba087652","reserveFactor()":"4322b714","setCygnusBorrowRewarder(address)":"42bf78af","setInterestRateModel(uint256,uint256,uint256,uint256)":"1e44b7fc","setReserveFactor(uint256)":"1c446983","shuttleId()":"5f77f891","supplyRate()":"ad2961a3","sweepToken(address)":"1be19560","symbol()":"95d89b41","totalBalance()":"ad7a672f","totalBorrows()":"47bd3718","totalSupply()":"18160ddd","trackBorrower(address)":"5b322bbe","transfer(address,uint256)":"a9059cbb","transferFrom(address,address,uint256)":"23b872dd","underlying()":"6f307dc3","utilizationRate()":"6c321c8a"}}}}}