{"contracts/cygnus-core/CygnusBorrowControl.sol":{"CygnusBorrowControl":{"abi":[{"inputs":[],"stateMutability":"nonpayable","type":"constructor"},{"inputs":[],"name":"AllowanceOverflow","type":"error"},{"inputs":[],"name":"AllowanceUnderflow","type":"error"},{"inputs":[],"name":"CygnusBorrowControl__ParameterNotInRange","type":"error"},{"inputs":[],"name":"CygnusTerminal__CantMintZeroShares","type":"error"},{"inputs":[],"name":"CygnusTerminal__CantRedeemZeroAssets","type":"error"},{"inputs":[],"name":"CygnusTerminal__CantSweepUnderlying","type":"error"},{"inputs":[],"name":"CygnusTerminal__MsgSenderNotAdmin","type":"error"},{"inputs":[],"name":"InsufficientAllowance","type":"error"},{"inputs":[],"name":"InsufficientBalance","type":"error"},{"inputs":[],"name":"InvalidPermit","type":"error"},{"inputs":[],"name":"PermitExpired","type":"error"},{"inputs":[],"name":"ReentrantCall","type":"error"},{"inputs":[],"name":"TotalSupplyOverflow","type":"error"},{"anonymous":false,"inputs":[{"indexed":true,"internalType":"address","name":"owner","type":"address"},{"indexed":true,"internalType":"address","name":"spender","type":"address"},{"indexed":false,"internalType":"uint256","name":"amount","type":"uint256"}],"name":"Approval","type":"event"},{"anonymous":false,"inputs":[{"indexed":true,"internalType":"address","name":"sender","type":"address"},{"indexed":true,"internalType":"address","name":"recipient","type":"address"},{"indexed":false,"internalType":"uint256","name":"assets","type":"uint256"},{"indexed":false,"internalType":"uint256","name":"shares","type":"uint256"}],"name":"Deposit","type":"event"},{"anonymous":false,"inputs":[{"indexed":false,"internalType":"address","name":"oldBorrowRewarder","type":"address"},{"indexed":false,"internalType":"address","name":"newBorrowRewarder","type":"address"}],"name":"NewCygnusBorrowRewarder","type":"event"},{"anonymous":false,"inputs":[{"indexed":false,"internalType":"uint256","name":"baseRatePerYear","type":"uint256"},{"indexed":false,"internalType":"uint256","name":"multiplierPerYear","type":"uint256"},{"indexed":false,"internalType":"uint256","name":"kinkMultiplier_","type":"uint256"},{"indexed":false,"internalType":"uint256","name":"kinkUtilizationRate_","type":"uint256"}],"name":"NewInterestRateParameters","type":"event"},{"anonymous":false,"inputs":[{"indexed":false,"internalType":"uint256","name":"oldReserveFactor","type":"uint256"},{"indexed":false,"internalType":"uint256","name":"newReserveFactor","type":"uint256"}],"name":"NewReserveFactor","type":"event"},{"anonymous":false,"inputs":[{"indexed":true,"internalType":"address","name":"sender","type":"address"},{"indexed":true,"internalType":"address","name":"token","type":"address"},{"indexed":false,"internalType":"uint256","name":"balance","type":"uint256"}],"name":"SweepToken","type":"event"},{"anonymous":false,"inputs":[{"indexed":false,"internalType":"uint160","name":"totalBalance","type":"uint160"}],"name":"Sync","type":"event"},{"anonymous":false,"inputs":[{"indexed":true,"internalType":"address","name":"from","type":"address"},{"indexed":true,"internalType":"address","name":"to","type":"address"},{"indexed":false,"internalType":"uint256","name":"amount","type":"uint256"}],"name":"Transfer","type":"event"},{"anonymous":false,"inputs":[{"indexed":true,"internalType":"address","name":"sender","type":"address"},{"indexed":true,"internalType":"address","name":"recipient","type":"address"},{"indexed":true,"internalType":"address","name":"owner","type":"address"},{"indexed":false,"internalType":"uint256","name":"assets","type":"uint256"},{"indexed":false,"internalType":"uint256","name":"shares","type":"uint256"}],"name":"Withdraw","type":"event"},{"inputs":[],"name":"DOMAIN_SEPARATOR","outputs":[{"internalType":"bytes32","name":"result","type":"bytes32"}],"stateMutability":"view","type":"function"},{"inputs":[],"name":"PERMIT2","outputs":[{"internalType":"contract IAllowanceTransfer","name":"","type":"address"}],"stateMutability":"view","type":"function"},{"inputs":[{"internalType":"address","name":"owner","type":"address"},{"internalType":"address","name":"spender","type":"address"}],"name":"allowance","outputs":[{"internalType":"uint256","name":"result","type":"uint256"}],"stateMutability":"view","type":"function"},{"inputs":[{"internalType":"address","name":"spender","type":"address"},{"internalType":"uint256","name":"amount","type":"uint256"}],"name":"approve","outputs":[{"internalType":"bool","name":"","type":"bool"}],"stateMutability":"nonpayable","type":"function"},{"inputs":[{"internalType":"address","name":"owner","type":"address"}],"name":"balanceOf","outputs":[{"internalType":"uint256","name":"result","type":"uint256"}],"stateMutability":"view","type":"function"},{"inputs":[],"name":"baseRatePerSecond","outputs":[{"internalType":"uint256","name":"","type":"uint256"}],"stateMutability":"view","type":"function"},{"inputs":[],"name":"collateral","outputs":[{"internalType":"address","name":"","type":"address"}],"stateMutability":"view","type":"function"},{"inputs":[],"name":"cygnusBorrowRewarder","outputs":[{"internalType":"address","name":"","type":"address"}],"stateMutability":"view","type":"function"},{"inputs":[],"name":"cygnusNebulaOracle","outputs":[{"internalType":"contract ICygnusNebulaOracle","name":"","type":"address"}],"stateMutability":"view","type":"function"},{"inputs":[],"name":"decimals","outputs":[{"internalType":"uint8","name":"","type":"uint8"}],"stateMutability":"view","type":"function"},{"inputs":[{"internalType":"address","name":"spender","type":"address"},{"internalType":"uint256","name":"difference","type":"uint256"}],"name":"decreaseAllowance","outputs":[{"internalType":"bool","name":"","type":"bool"}],"stateMutability":"nonpayable","type":"function"},{"inputs":[{"internalType":"uint256","name":"assets","type":"uint256"},{"internalType":"address","name":"recipient","type":"address"},{"components":[{"components":[{"internalType":"address","name":"token","type":"address"},{"internalType":"uint160","name":"amount","type":"uint160"},{"internalType":"uint48","name":"expiration","type":"uint48"},{"internalType":"uint48","name":"nonce","type":"uint48"}],"internalType":"struct IAllowanceTransfer.PermitDetails","name":"details","type":"tuple"},{"internalType":"address","name":"spender","type":"address"},{"internalType":"uint256","name":"sigDeadline","type":"uint256"}],"internalType":"struct IAllowanceTransfer.PermitSingle","name":"_permit","type":"tuple"},{"internalType":"bytes","name":"signature","type":"bytes"}],"name":"deposit","outputs":[{"internalType":"uint256","name":"shares","type":"uint256"}],"stateMutability":"nonpayable","type":"function"},{"inputs":[],"name":"exchangeRate","outputs":[{"internalType":"uint256","name":"","type":"uint256"}],"stateMutability":"nonpayable","type":"function"},{"inputs":[],"name":"exchangeRateStored","outputs":[{"internalType":"uint256","name":"","type":"uint256"}],"stateMutability":"view","type":"function"},{"inputs":[],"name":"hangar18","outputs":[{"internalType":"contract IHangar18","name":"","type":"address"}],"stateMutability":"view","type":"function"},{"inputs":[{"internalType":"address","name":"spender","type":"address"},{"internalType":"uint256","name":"difference","type":"uint256"}],"name":"increaseAllowance","outputs":[{"internalType":"bool","name":"","type":"bool"}],"stateMutability":"nonpayable","type":"function"},{"inputs":[],"name":"jumpMultiplierPerSecond","outputs":[{"internalType":"uint256","name":"","type":"uint256"}],"stateMutability":"view","type":"function"},{"inputs":[],"name":"kinkMultiplier","outputs":[{"internalType":"uint256","name":"","type":"uint256"}],"stateMutability":"view","type":"function"},{"inputs":[],"name":"kinkUtilizationRate","outputs":[{"internalType":"uint256","name":"","type":"uint256"}],"stateMutability":"view","type":"function"},{"inputs":[],"name":"multiplierPerSecond","outputs":[{"internalType":"uint256","name":"","type":"uint256"}],"stateMutability":"view","type":"function"},{"inputs":[],"name":"name","outputs":[{"internalType":"string","name":"","type":"string"}],"stateMutability":"pure","type":"function"},{"inputs":[{"internalType":"address","name":"owner","type":"address"}],"name":"nonces","outputs":[{"internalType":"uint256","name":"result","type":"uint256"}],"stateMutability":"view","type":"function"},{"inputs":[{"internalType":"address","name":"owner","type":"address"},{"internalType":"address","name":"spender","type":"address"},{"internalType":"uint256","name":"value","type":"uint256"},{"internalType":"uint256","name":"deadline","type":"uint256"},{"internalType":"uint8","name":"v","type":"uint8"},{"internalType":"bytes32","name":"r","type":"bytes32"},{"internalType":"bytes32","name":"s","type":"bytes32"}],"name":"permit","outputs":[],"stateMutability":"nonpayable","type":"function"},{"inputs":[{"internalType":"uint256","name":"shares","type":"uint256"},{"internalType":"address","name":"recipient","type":"address"},{"internalType":"address","name":"owner","type":"address"}],"name":"redeem","outputs":[{"internalType":"uint256","name":"assets","type":"uint256"}],"stateMutability":"nonpayable","type":"function"},{"inputs":[],"name":"reserveFactor","outputs":[{"internalType":"uint256","name":"","type":"uint256"}],"stateMutability":"view","type":"function"},{"inputs":[{"internalType":"address","name":"newBorrowRewarder","type":"address"}],"name":"setCygnusBorrowRewarder","outputs":[],"stateMutability":"nonpayable","type":"function"},{"inputs":[{"internalType":"uint256","name":"baseRatePerYear_","type":"uint256"},{"internalType":"uint256","name":"multiplierPerYear_","type":"uint256"},{"internalType":"uint256","name":"kinkMultiplier_","type":"uint256"},{"internalType":"uint256","name":"kinkUtilizationRate_","type":"uint256"}],"name":"setInterestRateModel","outputs":[],"stateMutability":"nonpayable","type":"function"},{"inputs":[{"internalType":"uint256","name":"newReserveFactor","type":"uint256"}],"name":"setReserveFactor","outputs":[],"stateMutability":"nonpayable","type":"function"},{"inputs":[],"name":"shuttleId","outputs":[{"internalType":"uint256","name":"","type":"uint256"}],"stateMutability":"view","type":"function"},{"inputs":[{"internalType":"address","name":"token","type":"address"}],"name":"sweepToken","outputs":[],"stateMutability":"nonpayable","type":"function"},{"inputs":[],"name":"symbol","outputs":[{"internalType":"string","name":"","type":"string"}],"stateMutability":"view","type":"function"},{"inputs":[],"name":"totalBalance","outputs":[{"internalType":"uint160","name":"","type":"uint160"}],"stateMutability":"view","type":"function"},{"inputs":[],"name":"totalSupply","outputs":[{"internalType":"uint256","name":"result","type":"uint256"}],"stateMutability":"view","type":"function"},{"inputs":[{"internalType":"address","name":"to","type":"address"},{"internalType":"uint256","name":"amount","type":"uint256"}],"name":"transfer","outputs":[{"internalType":"bool","name":"","type":"bool"}],"stateMutability":"nonpayable","type":"function"},{"inputs":[{"internalType":"address","name":"from","type":"address"},{"internalType":"address","name":"to","type":"address"},{"internalType":"uint256","name":"amount","type":"uint256"}],"name":"transferFrom","outputs":[{"internalType":"bool","name":"","type":"bool"}],"stateMutability":"nonpayable","type":"function"},{"inputs":[],"name":"underlying","outputs":[{"internalType":"address","name":"","type":"address"}],"stateMutability":"view","type":"function"}],"evm":{"bytecode":{"linkReferences":{},"object":"610100806040523462000195576000805460ff19166001178155635a412e5360e01b80835260a092838160048186335af180156200018a57839184918591869162000161575b5060e052855260c052608052670bcbce7f1b1500006006556002600755670214e8348c4f0000600855670de0b6b3a7640000600955604051908152828160048185335af19182156200015557916200011c575b50600180546001600160a01b0319166001600160a01b039290921691909117905560405161193f91826200024383396080518281816101cd015261162b01525181610251015260c0518181816104da015281816107520152818161090301528181610d1701528181610f5a015281816113560152611725015260e05181610d7d0152f35b620001419150823d84116200014d575b6200013881836200019a565b810190620001e9565b50509150503862000098565b503d6200012c565b604051903d90823e3d90fd5b92505050620001809150843d86116200014d576200013881836200019a565b9150903862000045565b6040513d85823e3d90fd5b600080fd5b601f909101601f19168101906001600160401b03821190821017620001be57604052565b634e487b7160e01b600052604160045260246000fd5b51906001600160a01b03821682036200019557565b91908260a0910312620001955781516001600160a01b039081811681036200019557926200021a60208201620001d4565b926200022960408301620001d4565b926060830151908116810362000195576080909201519056fe6040608081526004908136101561001557600080fd5b600091823560e01c90816306fdde03146114b8578163095ea7b31461144e57816318160ddd14611427578163182df0f5146114085781631aebf12f146113e95781631be195601461130f5781631c446983146112a85781631e44b7fc146110ad57816323b872dd14610fd8578163313ce56714610f2d5781633644e51514610f105781633950935114610e8d5781633ba0b9a914610e6957816342bf78af14610ddd5781634322b71414610dbe57816346f608ff14610da05781635f77f89114610d655781636afdd85014610d3b5781636f307dc314610cf757816370a0823114610cc357816372cf84a714610ca45781637ecebe0014610c705781638808e71c1461089c57816395d89b411461072c5781639b5109981461070d578163a457c2d714610689578163a9059cbb146105fb578163ad168c9d146105d3578163ad7a672f146105aa578163ba08765214610414578163d505accf146102ba57508063d8dfeb4514610293578063d90e026414610275578063d935bd9214610232578063dd62ed3e146101f55763e8a24e1d146101af57600080fd5b346101f157816003193601126101f157602090516001600160a01b037f0000000000000000000000000000000000000000000000000000000000000000168152f35b5080fd5b50346101f157806003193601126101f157602091610211611530565b9061021a61154b565b8452637f5e9f20600c52526034600c20549051908152f35b50346101f157816003193601126101f157602090516001600160a01b037f0000000000000000000000000000000000000000000000000000000000000000168152f35b50346101f157816003193601126101f1576020906003549051908152f35b50346101f157816003193601126101f1576020906001600160a01b03600154169051908152f35b919050346104105760e0366003190112610410576102d6611530565b916102df61154b565b6084359160643560443560ff8516850361040c576102fb6117a5565b92865197834211610400576001600160a01b038091169516956338377508600c52858a5260209485600c20948554956001870190557f6e71edae12b1b97f4d1f60370fef10105fa2faae0126114a169c64845d6126c98b5287878c0152888a8c015260608b019585875260808c015260a08b01526119018b52855260c0892088526042601e208a5260ff16845260a435875260c435606052838060808b60015afa50843d51036103f55750777f5e9f200000000000000000000000000000000000000000851786526034602c20557f8c5be1e5ebec7d5bd14f71427d1e84f3dd0314c0f7b2291e5b200ac8c7c3b9259190a3528060605280f35b63ddafbaef8952601cfd5b50631a15a3cc8952601cfd5b8780fd5b8280fd5b8383346101f15760603660031901126101f15782359161043261154b565b9261043b611561565b936001600160a01b039081861693843303610564575b6104596116bf565b80600019048511810261055857670de0b6b3a764000090850204968715610548576387a211a2600c5281526020600c2080549889861161053d5750846020990390556805345cdf77eb68f44c848154039055838152847fddf252ad1be2c89b69c2b068fc378daa952ba7f163c4a11628f55a4df523b3ef8983a36104fe86827f0000000000000000000000000000000000000000000000000000000000000000611891565b8451928684528784015216907ffbde797d201c681b91056529119e0b02407c7bb96a4a2c75c01fc9667232c8db843392a46105376116f9565b51908152f35b63f4d678b88352601cfd5b865163e3e8d29760e01b81528990fd5b8863bac65e5b8352601cfd5b33602052637f5e9f20600c528681526034600c208054600019810361058b575b5050610451565b80861161059e5785900390558880610584565b896313be252b8452601cfd5b5050346101f157816003193601126101f1576001600160a01b036020925460081c169051908152f35b5050346101f157816003193601126101f1576020906001600160a01b03600254169051908152f35b828434610686578160031936011261068657610615611530565b602435916387a211a2600c5233815260209485600c209081549081861161067b575084900390555282600c208181540190558252600c5160601c337fddf252ad1be2c89b69c2b068fc378daa952ba7f163c4a11628f55a4df523b3ef8480a35160018152f35b63f4d678b88452601cfd5b80fd5b8284346106865781600319360112610686576106a3611530565b60243590602052637f5e9f20600c523382526034600c209081548181106107015760209550038091558152602c5160601c907f8c5be1e5ebec7d5bd14f71427d1e84f3dd0314c0f7b2291e5b200ac8c7c3b925843392a35160018152f35b85638301ab388552601cfd5b5050346101f157816003193601126101f1576020906007549051908152f35b9190503461041057826003193601126104105780516395d89b4160e01b815292808484817f00000000000000000000000000000000000000000000000000000000000000006001600160a01b03165afa9283156108905781936107ef575b6107eb84846107e16028825180947f4379675553443a2000000000000000000000000000000000000000000000000060208301526107d181518092602086860191016114e1565b81010360088101855201836115a1565b5191829182611504565b0390f35b909192503d8083863e61080281866115a1565b84019160208584031261068657845167ffffffffffffffff9586821161041057019183601f840112156101f157825195861161087b5750835192610850601f8701601f1916602001856115a1565b8584526020868401011161068657506107eb9361087391602080850191016114e1565b90388061078a565b604190634e487b7160e01b6000525260246000fd5b509051903d90823e3d90fd5b8383346101f1576101203660031901126101f15782356108ba61154b565b9360c0366043190112610c6c5767ffffffffffffffff906101048035838111610c685736602382011215610c685780830135938411610c68576024913683868401011161040c577f00000000000000000000000000000000000000000000000000000000000000009461092d30876118da565b9281610b5a575b5050506109408561185a565b936e22d473030f116ddee9f6b43ac78ba3803b15610b565788809160848a5180948193631b63c28b60e11b8352338b840152308a8401526001600160a01b03809c1660448401528b881660648401525af18015610b4c57908991610b38575b50506109ac9030906118da565b908103908111610b24576109c8906109c26116bf565b90611817565b958615610b14576805345cdf77eb68f44c918254918215610a83575b505050805491868301928310610a775750556387a211a2600c528460005260209485600c20858154019055848652600c5160601c60007fddf252ad1be2c89b69c2b068fc378daa952ba7f163c4a11628f55a4df523b3ef8880a38351928352848684015216907fdcbc1c05240f31ff3ad067ef1ee35ce4997762752e3a095284754544f4c709d7833392a36105376116f9565b63e5cfe957600052601cfd5b91976103e719810192908311610b04575050956103e890818101908110610af75782556387a211a2600c5261dead6000526020600c20818154019055602052600c5160601c60007fddf252ad1be2c89b69c2b068fc378daa952ba7f163c4a11628f55a4df523b3ef602080a38780806109e4565b8363e5cfe957600052601cfd5b634e487b7160e01b815260118552fd5b855163f1ca48b160e01b81528390fd5b50634e487b7160e01b600090815260118352fd5b610b4190611577565b61040c57878a61099f565b88513d8b823e3d90fd5b8880fd5b6e22d473030f116ddee9f6b43ac78ba391823b15610c645789516302b67b5760e41b81523388820152936001600160a01b0380610b95611561565b1688870152606435818116809103610c5c57604487015260843565ffffffffffff90818116809103610c6057606488015260a435908116809103610c5c57608487015260c435908116809103610c5857859384848f97958295899560a485015260e43560c485015261010060e4850152830152808b6101249401848401378181018301849052601f01601f191681010301925af18015610c4e57610c3b575b8080610934565b610c4790979197611577565b9588610c34565b87513d8a823e3d90fd5b8c80fd5b8d80fd5b8e80fd5b8a80fd5b8680fd5b8380fd5b5050346101f15760203660031901126101f157602091610c8e611530565b906338377508600c525281600c20549051908152f35b5050346101f157816003193601126101f1576020906005549051908152f35b5050346101f15760203660031901126101f157602091610ce1611530565b906387a211a2600c525281600c20549051908152f35b5050346101f157816003193601126101f157602090516001600160a01b037f0000000000000000000000000000000000000000000000000000000000000000168152f35b5050346101f157816003193601126101f157602090516e22d473030f116ddee9f6b43ac78ba38152f35b5050346101f157816003193601126101f157602090517f00000000000000000000000000000000000000000000000000000000000000008152f35b90503461041057826003193601126104105760209250549051908152f35b5050346101f157816003193601126101f1576020906008549051908152f35b5050346101f15760203660031901126101f1577f2a0d5dc7fbc8045f59cb33c736f04f9a9b565e9f425912f9cd2bafdebd50cead90610e1a611530565b610e2261160d565b600254906001600160a01b0380911690817fffffffffffffffffffffffff00000000000000000000000000000000000000008416176002558351921682526020820152a180f35b5050346101f157816003193601126101f157602090610e866116bf565b9051908152f35b828434610686578160031936011261068657610ea7611530565b602052637f5e9f20600c523381526034600c20928354906024358201918210610f05575080602094558152602c5160601c907f8c5be1e5ebec7d5bd14f71427d1e84f3dd0314c0f7b2291e5b200ac8c7c3b925843392a35160018152f35b63f90670668352601cfd5b5050346101f157816003193601126101f157602090610e866117a5565b82843461068657806003193601126106865760208251809463313ce56760e01b8252816001600160a01b037f0000000000000000000000000000000000000000000000000000000000000000165afa928315610890578193610f97575b60208460ff855191168152f35b9092506020813d8211610fd0575b81610fb2602093836115a1565b8101031261041057519160ff83168303610686575060ff6020610f8a565b3d9150610fa5565b8383346101f15760603660031901126101f157610ff3611530565b610ffb61154b565b6044358260601b91602095338752600c93637f5e9f2081178552603485208054600019810361108a575b50506387a211a217845286842080549889851161053d5750836001600160a01b03969798990390555285822081815401905585525160601c91167fddf252ad1be2c89b69c2b068fc378daa952ba7f163c4a11628f55a4df523b3ef8480a35160018152f35b8086116110a15785900390556387a211a28a611025565b8a6313be252b8552601cfd5b905034610410576080366003190112610410578035916024359060443591606435936110d761160d565b67016345785d8a00008611611289576706f05b59d3b2000085108015611297575b611289576001808510801561127f575b611270576301e1338091828804600355868302838104880361125d5761112e9085611817565b8155856007558660065588928685029060001988870991808310810180840393147f98f5be4dd1e14769fbd6666224dc1eb80dd2e0a3d2c8b328f57e76b7ae1039578484111594848c8b0990848211900360f91b90840360071c1702956111dd575b508b7ff58b8cc439edada25fd9495b7364aeb1d737dbef59be1cf62e0cc4001c44a3cd60808d8d8d8d8d6111c4848f611817565b600555815194855260208501528301526060820152a180f35b9091929394955061122857505061121d5750816111c48660807ff58b8cc439edada25fd9495b7364aeb1d737dbef59be1cf62e0cc4001c44a3cd38611190565b63ae47f7028852601cfd5b0492508391506111c490508660807ff58b8cc439edada25fd9495b7364aeb1d737dbef59be1cf62e0cc4001c44a3cd38611190565b634e487b7160e01b8a526011825260248afd5b508251630e49b3b360e41b8152fd5b50600a8511611108565b8251630e49b3b360e41b8152fd5b50670d2f13f7789f000085116110f8565b905034610410576020366003190112610410578035906112c661160d565b6702c68af0bb14000082116112895750907faaa68312e2ea9d50e16af5068410ab56e1a1fd06037b1a35664812c30f82146091600854908060085582519182526020820152a180f35b8383346101f15760203660031901126101f15761132a611530565b9082549160ff8316156113d95760ff19928316845561134761160d565b6001600160a01b0391828216927f00000000000000000000000000000000000000000000000000000000000000001683146113ca57600194955061139761138e30846118da565b80933390611891565b519081527f6d25be279134f4ecaa4770aff0c3d916d9e7c5ef37b65ed95dbdba411f5d54d560203392a382541617815580f35b5163b5d8f39160e01b81528590fd5b81516306fda65d60e31b81528590fd5b5050346101f157816003193601126101f1576020906006549051908152f35b5050346101f157816003193601126101f1576020906009549051908152f35b5050346101f157816003193601126101f1576020906805345cdf77eb68f44c549051908152f35b5050346101f157806003193601126101f15760209161146b611530565b602435908452637f5e9f20600c52338252806034600c20558152602c5160601c907f8c5be1e5ebec7d5bd14f71427d1e84f3dd0314c0f7b2291e5b200ac8c7c3b925843392a35160018152f35b5050346101f157816003193601126101f1576107eb906114d66115c3565b905191829182611504565b60005b8381106114f45750506000910152565b81810151838201526020016114e4565b6040916020825261152481518092816020860152602086860191016114e1565b601f01601f1916010190565b600435906001600160a01b038216820361154657565b600080fd5b602435906001600160a01b038216820361154657565b604435906001600160a01b038216820361154657565b67ffffffffffffffff811161158b57604052565b634e487b7160e01b600052604160045260246000fd5b90601f8019910116810190811067ffffffffffffffff82111761158b57604052565b604051906040820182811067ffffffffffffffff82111761158b57604052601282527f4379676e75733a20426f72726f7761626c6500000000000000000000000000006020830152565b6040516303e1469160e61b81526001600160a01b03906020816004817f000000000000000000000000000000000000000000000000000000000000000086165afa9081156116b357600091611679575b5016330361166757565b6040516331d63ad160e11b8152600490fd5b6020813d82116116ab575b81611691602093836115a1565b810103126101f1575190828216820361068657503861165d565b3d9150611684565b6040513d6000823e3d90fd5b6805345cdf77eb68f44c54600090806116e0575050670de0b6b3a764000090565b6001600160a01b036116f6925460081c16611817565b90565b7f3145c2b643834867f2c0a8cac8a48218307687911615c0ed01412a09dd163b66602061174e611749307f00000000000000000000000000000000000000000000000000000000000000006118da565b61185a565b6000547fffffffffffffffffffffff0000000000000000000000000000000000000000ff74ffffffffffffffffffffffffffffffffffffffff008360081b169116176000556001600160a01b0360405191168152a1565b60a06040516117b26115c3565b602081519101207f8b73c3c69bb8fe3d512ecc4cf759cc79239f7b179b0ffacaa9a75d522b39400f825260208201527fc89efdaa54c0f20c7adf612882df0950f5a951637e0307cdcb4c672f298b8bc660408201524660608201523060808201522090565b670de0b6b3a7640000907812725dd1d243aba0e75fe645cc4873f9e65afe688c928e1f21811182021583021561184c57020490565b637c5f487d6000526004601cfd5b74010000000000000000000000000000000000000000811015611883576001600160a01b031690565b6335278d126000526004601cfd5b60109260209260145260345260446000938480936fa9059cbb00000000000000000000000082525af13d1560018351141716156118cd57603452565b6390b8ec1890526004601cfd5b602460106020939284936014526f70a082310000000000000000000000006000525afa601f3d1116602051029056fea2646970667358221220ed7b015028eef9afd1793cda358ac7ee99f4d65c87b28544828e5ee664a1f40064736f6c63430008110033","opcodes":"PUSH2 0x100 DUP1 PUSH1 0x40 MSTORE CALLVALUE PUSH3 0x195 JUMPI PUSH1 0x0 DUP1 SLOAD PUSH1 0xFF NOT AND PUSH1 0x1 OR DUP2 SSTORE PUSH4 0x5A412E53 PUSH1 0xE0 SHL DUP1 DUP4 MSTORE PUSH1 0xA0 SWAP3 DUP4 DUP2 PUSH1 0x4 DUP2 DUP7 CALLER GAS CALL DUP1 ISZERO PUSH3 0x18A JUMPI DUP4 SWAP2 DUP5 SWAP2 DUP6 SWAP2 DUP7 SWAP2 PUSH3 0x161 JUMPI JUMPDEST POP PUSH1 0xE0 MSTORE DUP6 MSTORE PUSH1 0xC0 MSTORE PUSH1 0x80 MSTORE PUSH8 0xBCBCE7F1B150000 PUSH1 0x6 SSTORE PUSH1 0x2 PUSH1 0x7 SSTORE PUSH8 0x214E8348C4F0000 PUSH1 0x8 SSTORE PUSH8 0xDE0B6B3A7640000 PUSH1 0x9 SSTORE PUSH1 0x40 MLOAD SWAP1 DUP2 MSTORE DUP3 DUP2 PUSH1 0x4 DUP2 DUP6 CALLER GAS CALL SWAP2 DUP3 ISZERO PUSH3 0x155 JUMPI SWAP2 PUSH3 0x11C JUMPI JUMPDEST POP PUSH1 0x1 DUP1 SLOAD PUSH1 0x1 PUSH1 0x1 PUSH1 0xA0 SHL SUB NOT AND PUSH1 0x1 PUSH1 0x1 PUSH1 0xA0 SHL SUB SWAP3 SWAP1 SWAP3 AND SWAP2 SWAP1 SWAP2 OR SWAP1 SSTORE PUSH1 0x40 MLOAD PUSH2 0x193F SWAP2 DUP3 PUSH3 0x243 DUP4 CODECOPY PUSH1 0x80 MLOAD DUP3 DUP2 DUP2 PUSH2 0x1CD ADD MSTORE PUSH2 0x162B ADD MSTORE MLOAD DUP2 PUSH2 0x251 ADD MSTORE PUSH1 0xC0 MLOAD DUP2 DUP2 DUP2 PUSH2 0x4DA ADD MSTORE DUP2 DUP2 PUSH2 0x752 ADD MSTORE DUP2 DUP2 PUSH2 0x903 ADD MSTORE DUP2 DUP2 PUSH2 0xD17 ADD MSTORE DUP2 DUP2 PUSH2 0xF5A ADD MSTORE DUP2 DUP2 PUSH2 0x1356 ADD MSTORE PUSH2 0x1725 ADD MSTORE PUSH1 0xE0 MLOAD DUP2 PUSH2 0xD7D ADD MSTORE RETURN JUMPDEST PUSH3 0x141 SWAP2 POP DUP3 RETURNDATASIZE DUP5 GT PUSH3 0x14D JUMPI JUMPDEST PUSH3 0x138 DUP2 DUP4 PUSH3 0x19A JUMP JUMPDEST DUP2 ADD SWAP1 PUSH3 0x1E9 JUMP JUMPDEST POP POP SWAP2 POP POP CODESIZE PUSH3 0x98 JUMP JUMPDEST POP RETURNDATASIZE PUSH3 0x12C JUMP JUMPDEST PUSH1 0x40 MLOAD SWAP1 RETURNDATASIZE SWAP1 DUP3 RETURNDATACOPY RETURNDATASIZE SWAP1 REVERT JUMPDEST SWAP3 POP POP POP PUSH3 0x180 SWAP2 POP DUP5 RETURNDATASIZE DUP7 GT PUSH3 0x14D JUMPI PUSH3 0x138 DUP2 DUP4 PUSH3 0x19A JUMP JUMPDEST SWAP2 POP SWAP1 CODESIZE PUSH3 0x45 JUMP JUMPDEST PUSH1 0x40 MLOAD RETURNDATASIZE DUP6 DUP3 RETURNDATACOPY RETURNDATASIZE SWAP1 REVERT JUMPDEST PUSH1 0x0 DUP1 REVERT JUMPDEST PUSH1 0x1F SWAP1 SWAP2 ADD PUSH1 0x1F NOT AND DUP2 ADD SWAP1 PUSH1 0x1 PUSH1 0x1 PUSH1 0x40 SHL SUB DUP3 GT SWAP1 DUP3 LT OR PUSH3 0x1BE JUMPI PUSH1 0x40 MSTORE JUMP JUMPDEST PUSH4 0x4E487B71 PUSH1 0xE0 SHL PUSH1 0x0 MSTORE PUSH1 0x41 PUSH1 0x4 MSTORE PUSH1 0x24 PUSH1 0x0 REVERT JUMPDEST MLOAD SWAP1 PUSH1 0x1 PUSH1 0x1 PUSH1 0xA0 SHL SUB DUP3 AND DUP3 SUB PUSH3 0x195 JUMPI JUMP JUMPDEST SWAP2 SWAP1 DUP3 PUSH1 0xA0 SWAP2 SUB SLT PUSH3 0x195 JUMPI DUP2 MLOAD PUSH1 0x1 PUSH1 0x1 PUSH1 0xA0 SHL SUB SWAP1 DUP2 DUP2 AND DUP2 SUB PUSH3 0x195 JUMPI SWAP3 PUSH3 0x21A PUSH1 0x20 DUP3 ADD PUSH3 0x1D4 JUMP JUMPDEST SWAP3 PUSH3 0x229 PUSH1 0x40 DUP4 ADD PUSH3 0x1D4 JUMP JUMPDEST SWAP3 PUSH1 0x60 DUP4 ADD MLOAD SWAP1 DUP2 AND DUP2 SUB PUSH3 0x195 JUMPI PUSH1 0x80 SWAP1 SWAP3 ADD MLOAD SWAP1 JUMP INVALID PUSH1 0x40 PUSH1 0x80 DUP2 MSTORE PUSH1 0x4 SWAP1 DUP2 CALLDATASIZE LT ISZERO PUSH2 0x15 JUMPI PUSH1 0x0 DUP1 REVERT JUMPDEST PUSH1 0x0 SWAP2 DUP3 CALLDATALOAD PUSH1 0xE0 SHR SWAP1 DUP2 PUSH4 0x6FDDE03 EQ PUSH2 0x14B8 JUMPI DUP2 PUSH4 0x95EA7B3 EQ PUSH2 0x144E JUMPI DUP2 PUSH4 0x18160DDD EQ PUSH2 0x1427 JUMPI DUP2 PUSH4 0x182DF0F5 EQ PUSH2 0x1408 JUMPI DUP2 PUSH4 0x1AEBF12F EQ PUSH2 0x13E9 JUMPI DUP2 PUSH4 0x1BE19560 EQ PUSH2 0x130F JUMPI DUP2 PUSH4 0x1C446983 EQ PUSH2 0x12A8 JUMPI DUP2 PUSH4 0x1E44B7FC EQ PUSH2 0x10AD JUMPI DUP2 PUSH4 0x23B872DD EQ PUSH2 0xFD8 JUMPI DUP2 PUSH4 0x313CE567 EQ PUSH2 0xF2D JUMPI DUP2 PUSH4 0x3644E515 EQ PUSH2 0xF10 JUMPI DUP2 PUSH4 0x39509351 EQ PUSH2 0xE8D JUMPI DUP2 PUSH4 0x3BA0B9A9 EQ PUSH2 0xE69 JUMPI DUP2 PUSH4 0x42BF78AF EQ PUSH2 0xDDD JUMPI DUP2 PUSH4 0x4322B714 EQ PUSH2 0xDBE JUMPI DUP2 PUSH4 0x46F608FF EQ PUSH2 0xDA0 JUMPI DUP2 PUSH4 0x5F77F891 EQ PUSH2 0xD65 JUMPI DUP2 PUSH4 0x6AFDD850 EQ PUSH2 0xD3B JUMPI DUP2 PUSH4 0x6F307DC3 EQ PUSH2 0xCF7 JUMPI DUP2 PUSH4 0x70A08231 EQ PUSH2 0xCC3 JUMPI DUP2 PUSH4 0x72CF84A7 EQ PUSH2 0xCA4 JUMPI DUP2 PUSH4 0x7ECEBE00 EQ PUSH2 0xC70 JUMPI DUP2 PUSH4 0x8808E71C EQ PUSH2 0x89C JUMPI DUP2 PUSH4 0x95D89B41 EQ PUSH2 0x72C JUMPI DUP2 PUSH4 0x9B510998 EQ PUSH2 0x70D JUMPI DUP2 PUSH4 0xA457C2D7 EQ PUSH2 0x689 JUMPI DUP2 PUSH4 0xA9059CBB EQ PUSH2 0x5FB JUMPI DUP2 PUSH4 0xAD168C9D EQ PUSH2 0x5D3 JUMPI DUP2 PUSH4 0xAD7A672F EQ PUSH2 0x5AA JUMPI DUP2 PUSH4 0xBA087652 EQ PUSH2 0x414 JUMPI DUP2 PUSH4 0xD505ACCF EQ PUSH2 0x2BA JUMPI POP DUP1 PUSH4 0xD8DFEB45 EQ PUSH2 0x293 JUMPI DUP1 PUSH4 0xD90E0264 EQ PUSH2 0x275 JUMPI DUP1 PUSH4 0xD935BD92 EQ PUSH2 0x232 JUMPI DUP1 PUSH4 0xDD62ED3E EQ PUSH2 0x1F5 JUMPI PUSH4 0xE8A24E1D EQ PUSH2 0x1AF JUMPI PUSH1 0x0 DUP1 REVERT JUMPDEST CALLVALUE PUSH2 0x1F1 JUMPI DUP2 PUSH1 0x3 NOT CALLDATASIZE ADD SLT PUSH2 0x1F1 JUMPI PUSH1 0x20 SWAP1 MLOAD PUSH1 0x1 PUSH1 0x1 PUSH1 0xA0 SHL SUB PUSH32 0x0 AND DUP2 MSTORE RETURN JUMPDEST POP DUP1 REVERT JUMPDEST POP CALLVALUE PUSH2 0x1F1 JUMPI DUP1 PUSH1 0x3 NOT CALLDATASIZE ADD SLT PUSH2 0x1F1 JUMPI PUSH1 0x20 SWAP2 PUSH2 0x211 PUSH2 0x1530 JUMP JUMPDEST SWAP1 PUSH2 0x21A PUSH2 0x154B JUMP JUMPDEST DUP5 MSTORE PUSH4 0x7F5E9F20 PUSH1 0xC MSTORE MSTORE PUSH1 0x34 PUSH1 0xC KECCAK256 SLOAD SWAP1 MLOAD SWAP1 DUP2 MSTORE RETURN JUMPDEST POP CALLVALUE PUSH2 0x1F1 JUMPI DUP2 PUSH1 0x3 NOT CALLDATASIZE ADD SLT PUSH2 0x1F1 JUMPI PUSH1 0x20 SWAP1 MLOAD PUSH1 0x1 PUSH1 0x1 PUSH1 0xA0 SHL SUB PUSH32 0x0 AND DUP2 MSTORE RETURN JUMPDEST POP CALLVALUE PUSH2 0x1F1 JUMPI DUP2 PUSH1 0x3 NOT CALLDATASIZE ADD SLT PUSH2 0x1F1 JUMPI PUSH1 0x20 SWAP1 PUSH1 0x3 SLOAD SWAP1 MLOAD SWAP1 DUP2 MSTORE RETURN JUMPDEST POP CALLVALUE PUSH2 0x1F1 JUMPI DUP2 PUSH1 0x3 NOT CALLDATASIZE ADD SLT PUSH2 0x1F1 JUMPI PUSH1 0x20 SWAP1 PUSH1 0x1 PUSH1 0x1 PUSH1 0xA0 SHL SUB PUSH1 0x1 SLOAD AND SWAP1 MLOAD SWAP1 DUP2 MSTORE RETURN JUMPDEST SWAP2 SWAP1 POP CALLVALUE PUSH2 0x410 JUMPI PUSH1 0xE0 CALLDATASIZE PUSH1 0x3 NOT ADD SLT PUSH2 0x410 JUMPI PUSH2 0x2D6 PUSH2 0x1530 JUMP JUMPDEST SWAP2 PUSH2 0x2DF PUSH2 0x154B JUMP JUMPDEST PUSH1 0x84 CALLDATALOAD SWAP2 PUSH1 0x64 CALLDATALOAD PUSH1 0x44 CALLDATALOAD PUSH1 0xFF DUP6 AND DUP6 SUB PUSH2 0x40C JUMPI PUSH2 0x2FB PUSH2 0x17A5 JUMP JUMPDEST SWAP3 DUP7 MLOAD SWAP8 DUP4 TIMESTAMP GT PUSH2 0x400 JUMPI PUSH1 0x1 PUSH1 0x1 PUSH1 0xA0 SHL SUB DUP1 SWAP2 AND SWAP6 AND SWAP6 PUSH4 0x38377508 PUSH1 0xC MSTORE DUP6 DUP11 MSTORE PUSH1 0x20 SWAP5 DUP6 PUSH1 0xC KECCAK256 SWAP5 DUP6 SLOAD SWAP6 PUSH1 0x1 DUP8 ADD SWAP1 SSTORE PUSH32 0x6E71EDAE12B1B97F4D1F60370FEF10105FA2FAAE0126114A169C64845D6126C9 DUP12 MSTORE DUP8 DUP8 DUP13 ADD MSTORE DUP9 DUP11 DUP13 ADD MSTORE PUSH1 0x60 DUP12 ADD SWAP6 DUP6 DUP8 MSTORE PUSH1 0x80 DUP13 ADD MSTORE PUSH1 0xA0 DUP12 ADD MSTORE PUSH2 0x1901 DUP12 MSTORE DUP6 MSTORE PUSH1 0xC0 DUP10 KECCAK256 DUP9 MSTORE PUSH1 0x42 PUSH1 0x1E KECCAK256 DUP11 MSTORE PUSH1 0xFF AND DUP5 MSTORE PUSH1 0xA4 CALLDATALOAD DUP8 MSTORE PUSH1 0xC4 CALLDATALOAD PUSH1 0x60 MSTORE DUP4 DUP1 PUSH1 0x80 DUP12 PUSH1 0x1 GAS STATICCALL POP DUP5 RETURNDATASIZE MLOAD SUB PUSH2 0x3F5 JUMPI POP PUSH24 0x7F5E9F200000000000000000000000000000000000000000 DUP6 OR DUP7 MSTORE PUSH1 0x34 PUSH1 0x2C KECCAK256 SSTORE PUSH32 0x8C5BE1E5EBEC7D5BD14F71427D1E84F3DD0314C0F7B2291E5B200AC8C7C3B925 SWAP2 SWAP1 LOG3 MSTORE DUP1 PUSH1 0x60 MSTORE DUP1 RETURN JUMPDEST PUSH4 0xDDAFBAEF DUP10 MSTORE PUSH1 0x1C REVERT JUMPDEST POP PUSH4 0x1A15A3CC DUP10 MSTORE PUSH1 0x1C REVERT JUMPDEST DUP8 DUP1 REVERT JUMPDEST DUP3 DUP1 REVERT JUMPDEST DUP4 DUP4 CALLVALUE PUSH2 0x1F1 JUMPI PUSH1 0x60 CALLDATASIZE PUSH1 0x3 NOT ADD SLT PUSH2 0x1F1 JUMPI DUP3 CALLDATALOAD SWAP2 PUSH2 0x432 PUSH2 0x154B JUMP JUMPDEST SWAP3 PUSH2 0x43B PUSH2 0x1561 JUMP JUMPDEST SWAP4 PUSH1 0x1 PUSH1 0x1 PUSH1 0xA0 SHL SUB SWAP1 DUP2 DUP7 AND SWAP4 DUP5 CALLER SUB PUSH2 0x564 JUMPI JUMPDEST PUSH2 0x459 PUSH2 0x16BF JUMP JUMPDEST DUP1 PUSH1 0x0 NOT DIV DUP6 GT DUP2 MUL PUSH2 0x558 JUMPI PUSH8 0xDE0B6B3A7640000 SWAP1 DUP6 MUL DIV SWAP7 DUP8 ISZERO PUSH2 0x548 JUMPI PUSH4 0x87A211A2 PUSH1 0xC MSTORE DUP2 MSTORE PUSH1 0x20 PUSH1 0xC KECCAK256 DUP1 SLOAD SWAP9 DUP10 DUP7 GT PUSH2 0x53D JUMPI POP DUP5 PUSH1 0x20 SWAP10 SUB SWAP1 SSTORE PUSH9 0x5345CDF77EB68F44C DUP5 DUP2 SLOAD SUB SWAP1 SSTORE DUP4 DUP2 MSTORE DUP5 PUSH32 0xDDF252AD1BE2C89B69C2B068FC378DAA952BA7F163C4A11628F55A4DF523B3EF DUP10 DUP4 LOG3 PUSH2 0x4FE DUP7 DUP3 PUSH32 0x0 PUSH2 0x1891 JUMP JUMPDEST DUP5 MLOAD SWAP3 DUP7 DUP5 MSTORE DUP8 DUP5 ADD MSTORE AND SWAP1 PUSH32 0xFBDE797D201C681B91056529119E0B02407C7BB96A4A2C75C01FC9667232C8DB DUP5 CALLER SWAP3 LOG4 PUSH2 0x537 PUSH2 0x16F9 JUMP JUMPDEST MLOAD SWAP1 DUP2 MSTORE RETURN JUMPDEST PUSH4 0xF4D678B8 DUP4 MSTORE PUSH1 0x1C REVERT JUMPDEST DUP7 MLOAD PUSH4 0xE3E8D297 PUSH1 0xE0 SHL DUP2 MSTORE DUP10 SWAP1 REVERT JUMPDEST DUP9 PUSH4 0xBAC65E5B DUP4 MSTORE PUSH1 0x1C REVERT JUMPDEST CALLER PUSH1 0x20 MSTORE PUSH4 0x7F5E9F20 PUSH1 0xC MSTORE DUP7 DUP2 MSTORE PUSH1 0x34 PUSH1 0xC KECCAK256 DUP1 SLOAD PUSH1 0x0 NOT DUP2 SUB PUSH2 0x58B JUMPI JUMPDEST POP POP PUSH2 0x451 JUMP JUMPDEST DUP1 DUP7 GT PUSH2 0x59E JUMPI DUP6 SWAP1 SUB SWAP1 SSTORE DUP9 DUP1 PUSH2 0x584 JUMP JUMPDEST DUP10 PUSH4 0x13BE252B DUP5 MSTORE PUSH1 0x1C REVERT JUMPDEST POP POP CALLVALUE PUSH2 0x1F1 JUMPI DUP2 PUSH1 0x3 NOT CALLDATASIZE ADD SLT PUSH2 0x1F1 JUMPI PUSH1 0x1 PUSH1 0x1 PUSH1 0xA0 SHL SUB PUSH1 0x20 SWAP3 SLOAD PUSH1 0x8 SHR AND SWAP1 MLOAD SWAP1 DUP2 MSTORE RETURN JUMPDEST POP POP CALLVALUE PUSH2 0x1F1 JUMPI DUP2 PUSH1 0x3 NOT CALLDATASIZE ADD SLT PUSH2 0x1F1 JUMPI PUSH1 0x20 SWAP1 PUSH1 0x1 PUSH1 0x1 PUSH1 0xA0 SHL SUB PUSH1 0x2 SLOAD AND SWAP1 MLOAD SWAP1 DUP2 MSTORE RETURN JUMPDEST DUP3 DUP5 CALLVALUE PUSH2 0x686 JUMPI DUP2 PUSH1 0x3 NOT CALLDATASIZE ADD SLT PUSH2 0x686 JUMPI PUSH2 0x615 PUSH2 0x1530 JUMP JUMPDEST PUSH1 0x24 CALLDATALOAD SWAP2 PUSH4 0x87A211A2 PUSH1 0xC MSTORE CALLER DUP2 MSTORE PUSH1 0x20 SWAP5 DUP6 PUSH1 0xC KECCAK256 SWAP1 DUP2 SLOAD SWAP1 DUP2 DUP7 GT PUSH2 0x67B JUMPI POP DUP5 SWAP1 SUB SWAP1 SSTORE MSTORE DUP3 PUSH1 0xC KECCAK256 DUP2 DUP2 SLOAD ADD SWAP1 SSTORE DUP3 MSTORE PUSH1 0xC MLOAD PUSH1 0x60 SHR CALLER PUSH32 0xDDF252AD1BE2C89B69C2B068FC378DAA952BA7F163C4A11628F55A4DF523B3EF DUP5 DUP1 LOG3 MLOAD PUSH1 0x1 DUP2 MSTORE RETURN JUMPDEST PUSH4 0xF4D678B8 DUP5 MSTORE PUSH1 0x1C REVERT JUMPDEST DUP1 REVERT JUMPDEST DUP3 DUP5 CALLVALUE PUSH2 0x686 JUMPI DUP2 PUSH1 0x3 NOT CALLDATASIZE ADD SLT PUSH2 0x686 JUMPI PUSH2 0x6A3 PUSH2 0x1530 JUMP JUMPDEST PUSH1 0x24 CALLDATALOAD SWAP1 PUSH1 0x20 MSTORE PUSH4 0x7F5E9F20 PUSH1 0xC MSTORE CALLER DUP3 MSTORE PUSH1 0x34 PUSH1 0xC KECCAK256 SWAP1 DUP2 SLOAD DUP2 DUP2 LT PUSH2 0x701 JUMPI PUSH1 0x20 SWAP6 POP SUB DUP1 SWAP2 SSTORE DUP2 MSTORE PUSH1 0x2C MLOAD PUSH1 0x60 SHR SWAP1 PUSH32 0x8C5BE1E5EBEC7D5BD14F71427D1E84F3DD0314C0F7B2291E5B200AC8C7C3B925 DUP5 CALLER SWAP3 LOG3 MLOAD PUSH1 0x1 DUP2 MSTORE RETURN JUMPDEST DUP6 PUSH4 0x8301AB38 DUP6 MSTORE PUSH1 0x1C REVERT JUMPDEST POP POP CALLVALUE PUSH2 0x1F1 JUMPI DUP2 PUSH1 0x3 NOT CALLDATASIZE ADD SLT PUSH2 0x1F1 JUMPI PUSH1 0x20 SWAP1 PUSH1 0x7 SLOAD SWAP1 MLOAD SWAP1 DUP2 MSTORE RETURN JUMPDEST SWAP2 SWAP1 POP CALLVALUE PUSH2 0x410 JUMPI DUP3 PUSH1 0x3 NOT CALLDATASIZE ADD SLT PUSH2 0x410 JUMPI DUP1 MLOAD PUSH4 0x95D89B41 PUSH1 0xE0 SHL DUP2 MSTORE SWAP3 DUP1 DUP5 DUP5 DUP2 PUSH32 0x0 PUSH1 0x1 PUSH1 0x1 PUSH1 0xA0 SHL SUB AND GAS STATICCALL SWAP3 DUP4 ISZERO PUSH2 0x890 JUMPI DUP2 SWAP4 PUSH2 0x7EF JUMPI JUMPDEST PUSH2 0x7EB DUP5 DUP5 PUSH2 0x7E1 PUSH1 0x28 DUP3 MLOAD DUP1 SWAP5 PUSH32 0x4379675553443A20000000000000000000000000000000000000000000000000 PUSH1 0x20 DUP4 ADD MSTORE PUSH2 0x7D1 DUP2 MLOAD DUP1 SWAP3 PUSH1 0x20 DUP7 DUP7 ADD SWAP2 ADD PUSH2 0x14E1 JUMP JUMPDEST DUP2 ADD SUB PUSH1 0x8 DUP2 ADD DUP6 MSTORE ADD DUP4 PUSH2 0x15A1 JUMP JUMPDEST MLOAD SWAP2 DUP3 SWAP2 DUP3 PUSH2 0x1504 JUMP JUMPDEST SUB SWAP1 RETURN JUMPDEST SWAP1 SWAP2 SWAP3 POP RETURNDATASIZE DUP1 DUP4 DUP7 RETURNDATACOPY PUSH2 0x802 DUP2 DUP7 PUSH2 0x15A1 JUMP JUMPDEST DUP5 ADD SWAP2 PUSH1 0x20 DUP6 DUP5 SUB SLT PUSH2 0x686 JUMPI DUP5 MLOAD PUSH8 0xFFFFFFFFFFFFFFFF SWAP6 DUP7 DUP3 GT PUSH2 0x410 JUMPI ADD SWAP2 DUP4 PUSH1 0x1F DUP5 ADD SLT ISZERO PUSH2 0x1F1 JUMPI DUP3 MLOAD SWAP6 DUP7 GT PUSH2 0x87B JUMPI POP DUP4 MLOAD SWAP3 PUSH2 0x850 PUSH1 0x1F DUP8 ADD PUSH1 0x1F NOT AND PUSH1 0x20 ADD DUP6 PUSH2 0x15A1 JUMP JUMPDEST DUP6 DUP5 MSTORE PUSH1 0x20 DUP7 DUP5 ADD ADD GT PUSH2 0x686 JUMPI POP PUSH2 0x7EB SWAP4 PUSH2 0x873 SWAP2 PUSH1 0x20 DUP1 DUP6 ADD SWAP2 ADD PUSH2 0x14E1 JUMP JUMPDEST SWAP1 CODESIZE DUP1 PUSH2 0x78A JUMP JUMPDEST PUSH1 0x41 SWAP1 PUSH4 0x4E487B71 PUSH1 0xE0 SHL PUSH1 0x0 MSTORE MSTORE PUSH1 0x24 PUSH1 0x0 REVERT JUMPDEST POP SWAP1 MLOAD SWAP1 RETURNDATASIZE SWAP1 DUP3 RETURNDATACOPY RETURNDATASIZE SWAP1 REVERT JUMPDEST DUP4 DUP4 CALLVALUE PUSH2 0x1F1 JUMPI PUSH2 0x120 CALLDATASIZE PUSH1 0x3 NOT ADD SLT PUSH2 0x1F1 JUMPI DUP3 CALLDATALOAD PUSH2 0x8BA PUSH2 0x154B JUMP JUMPDEST SWAP4 PUSH1 0xC0 CALLDATASIZE PUSH1 0x43 NOT ADD SLT PUSH2 0xC6C JUMPI PUSH8 0xFFFFFFFFFFFFFFFF SWAP1 PUSH2 0x104 DUP1 CALLDATALOAD DUP4 DUP2 GT PUSH2 0xC68 JUMPI CALLDATASIZE PUSH1 0x23 DUP3 ADD SLT ISZERO PUSH2 0xC68 JUMPI DUP1 DUP4 ADD CALLDATALOAD SWAP4 DUP5 GT PUSH2 0xC68 JUMPI PUSH1 0x24 SWAP2 CALLDATASIZE DUP4 DUP7 DUP5 ADD ADD GT PUSH2 0x40C JUMPI PUSH32 0x0 SWAP5 PUSH2 0x92D ADDRESS DUP8 PUSH2 0x18DA JUMP JUMPDEST SWAP3 DUP2 PUSH2 0xB5A JUMPI JUMPDEST POP POP POP PUSH2 0x940 DUP6 PUSH2 0x185A JUMP JUMPDEST SWAP4 PUSH15 0x22D473030F116DDEE9F6B43AC78BA3 DUP1 EXTCODESIZE ISZERO PUSH2 0xB56 JUMPI DUP9 DUP1 SWAP2 PUSH1 0x84 DUP11 MLOAD DUP1 SWAP5 DUP2 SWAP4 PUSH4 0x1B63C28B PUSH1 0xE1 SHL DUP4 MSTORE CALLER DUP12 DUP5 ADD MSTORE ADDRESS DUP11 DUP5 ADD MSTORE PUSH1 0x1 PUSH1 0x1 PUSH1 0xA0 SHL SUB DUP1 SWAP13 AND PUSH1 0x44 DUP5 ADD MSTORE DUP12 DUP9 AND PUSH1 0x64 DUP5 ADD MSTORE GAS CALL DUP1 ISZERO PUSH2 0xB4C JUMPI SWAP1 DUP10 SWAP2 PUSH2 0xB38 JUMPI JUMPDEST POP POP PUSH2 0x9AC SWAP1 ADDRESS SWAP1 PUSH2 0x18DA JUMP JUMPDEST SWAP1 DUP2 SUB SWAP1 DUP2 GT PUSH2 0xB24 JUMPI PUSH2 0x9C8 SWAP1 PUSH2 0x9C2 PUSH2 0x16BF JUMP JUMPDEST SWAP1 PUSH2 0x1817 JUMP JUMPDEST SWAP6 DUP7 ISZERO PUSH2 0xB14 JUMPI PUSH9 0x5345CDF77EB68F44C SWAP2 DUP3 SLOAD SWAP2 DUP3 ISZERO PUSH2 0xA83 JUMPI JUMPDEST POP POP POP DUP1 SLOAD SWAP2 DUP7 DUP4 ADD SWAP3 DUP4 LT PUSH2 0xA77 JUMPI POP SSTORE PUSH4 0x87A211A2 PUSH1 0xC MSTORE DUP5 PUSH1 0x0 MSTORE PUSH1 0x20 SWAP5 DUP6 PUSH1 0xC KECCAK256 DUP6 DUP2 SLOAD ADD SWAP1 SSTORE DUP5 DUP7 MSTORE PUSH1 0xC MLOAD PUSH1 0x60 SHR PUSH1 0x0 PUSH32 0xDDF252AD1BE2C89B69C2B068FC378DAA952BA7F163C4A11628F55A4DF523B3EF DUP9 DUP1 LOG3 DUP4 MLOAD SWAP3 DUP4 MSTORE DUP5 DUP7 DUP5 ADD MSTORE AND SWAP1 PUSH32 0xDCBC1C05240F31FF3AD067EF1EE35CE4997762752E3A095284754544F4C709D7 DUP4 CALLER SWAP3 LOG3 PUSH2 0x537 PUSH2 0x16F9 JUMP JUMPDEST PUSH4 0xE5CFE957 PUSH1 0x0 MSTORE PUSH1 0x1C REVERT JUMPDEST SWAP2 SWAP8 PUSH2 0x3E7 NOT DUP2 ADD SWAP3 SWAP1 DUP4 GT PUSH2 0xB04 JUMPI POP POP SWAP6 PUSH2 0x3E8 SWAP1 DUP2 DUP2 ADD SWAP1 DUP2 LT PUSH2 0xAF7 JUMPI DUP3 SSTORE PUSH4 0x87A211A2 PUSH1 0xC MSTORE PUSH2 0xDEAD PUSH1 0x0 MSTORE PUSH1 0x20 PUSH1 0xC KECCAK256 DUP2 DUP2 SLOAD ADD SWAP1 SSTORE PUSH1 0x20 MSTORE PUSH1 0xC MLOAD PUSH1 0x60 SHR PUSH1 0x0 PUSH32 0xDDF252AD1BE2C89B69C2B068FC378DAA952BA7F163C4A11628F55A4DF523B3EF PUSH1 0x20 DUP1 LOG3 DUP8 DUP1 DUP1 PUSH2 0x9E4 JUMP JUMPDEST DUP4 PUSH4 0xE5CFE957 PUSH1 0x0 MSTORE PUSH1 0x1C REVERT JUMPDEST PUSH4 0x4E487B71 PUSH1 0xE0 SHL DUP2 MSTORE PUSH1 0x11 DUP6 MSTORE REVERT JUMPDEST DUP6 MLOAD PUSH4 0xF1CA48B1 PUSH1 0xE0 SHL DUP2 MSTORE DUP4 SWAP1 REVERT JUMPDEST POP PUSH4 0x4E487B71 PUSH1 0xE0 SHL PUSH1 0x0 SWAP1 DUP2 MSTORE PUSH1 0x11 DUP4 MSTORE REVERT JUMPDEST PUSH2 0xB41 SWAP1 PUSH2 0x1577 JUMP JUMPDEST PUSH2 0x40C JUMPI DUP8 DUP11 PUSH2 0x99F JUMP JUMPDEST DUP9 MLOAD RETURNDATASIZE DUP12 DUP3 RETURNDATACOPY RETURNDATASIZE SWAP1 REVERT JUMPDEST DUP9 DUP1 REVERT JUMPDEST PUSH15 0x22D473030F116DDEE9F6B43AC78BA3 SWAP2 DUP3 EXTCODESIZE ISZERO PUSH2 0xC64 JUMPI DUP10 MLOAD PUSH4 0x2B67B57 PUSH1 0xE4 SHL DUP2 MSTORE CALLER DUP9 DUP3 ADD MSTORE SWAP4 PUSH1 0x1 PUSH1 0x1 PUSH1 0xA0 SHL SUB DUP1 PUSH2 0xB95 PUSH2 0x1561 JUMP JUMPDEST AND DUP9 DUP8 ADD MSTORE PUSH1 0x64 CALLDATALOAD DUP2 DUP2 AND DUP1 SWAP2 SUB PUSH2 0xC5C JUMPI PUSH1 0x44 DUP8 ADD MSTORE PUSH1 0x84 CALLDATALOAD PUSH6 0xFFFFFFFFFFFF SWAP1 DUP2 DUP2 AND DUP1 SWAP2 SUB PUSH2 0xC60 JUMPI PUSH1 0x64 DUP9 ADD MSTORE PUSH1 0xA4 CALLDATALOAD SWAP1 DUP2 AND DUP1 SWAP2 SUB PUSH2 0xC5C JUMPI PUSH1 0x84 DUP8 ADD MSTORE PUSH1 0xC4 CALLDATALOAD SWAP1 DUP2 AND DUP1 SWAP2 SUB PUSH2 0xC58 JUMPI DUP6 SWAP4 DUP5 DUP5 DUP16 SWAP8 SWAP6 DUP3 SWAP6 DUP10 SWAP6 PUSH1 0xA4 DUP6 ADD MSTORE PUSH1 0xE4 CALLDATALOAD PUSH1 0xC4 DUP6 ADD MSTORE PUSH2 0x100 PUSH1 0xE4 DUP6 ADD MSTORE DUP4 ADD MSTORE DUP1 DUP12 PUSH2 0x124 SWAP5 ADD DUP5 DUP5 ADD CALLDATACOPY DUP2 DUP2 ADD DUP4 ADD DUP5 SWAP1 MSTORE PUSH1 0x1F ADD PUSH1 0x1F NOT AND DUP2 ADD SUB ADD SWAP3 GAS CALL DUP1 ISZERO PUSH2 0xC4E JUMPI PUSH2 0xC3B JUMPI JUMPDEST DUP1 DUP1 PUSH2 0x934 JUMP JUMPDEST PUSH2 0xC47 SWAP1 SWAP8 SWAP2 SWAP8 PUSH2 0x1577 JUMP JUMPDEST SWAP6 DUP9 PUSH2 0xC34 JUMP JUMPDEST DUP8 MLOAD RETURNDATASIZE DUP11 DUP3 RETURNDATACOPY RETURNDATASIZE SWAP1 REVERT JUMPDEST DUP13 DUP1 REVERT JUMPDEST DUP14 DUP1 REVERT JUMPDEST DUP15 DUP1 REVERT JUMPDEST DUP11 DUP1 REVERT JUMPDEST DUP7 DUP1 REVERT JUMPDEST DUP4 DUP1 REVERT JUMPDEST POP POP CALLVALUE PUSH2 0x1F1 JUMPI PUSH1 0x20 CALLDATASIZE PUSH1 0x3 NOT ADD SLT PUSH2 0x1F1 JUMPI PUSH1 0x20 SWAP2 PUSH2 0xC8E PUSH2 0x1530 JUMP JUMPDEST SWAP1 PUSH4 0x38377508 PUSH1 0xC MSTORE MSTORE DUP2 PUSH1 0xC KECCAK256 SLOAD SWAP1 MLOAD SWAP1 DUP2 MSTORE RETURN JUMPDEST POP POP CALLVALUE PUSH2 0x1F1 JUMPI DUP2 PUSH1 0x3 NOT CALLDATASIZE ADD SLT PUSH2 0x1F1 JUMPI PUSH1 0x20 SWAP1 PUSH1 0x5 SLOAD SWAP1 MLOAD SWAP1 DUP2 MSTORE RETURN JUMPDEST POP POP CALLVALUE PUSH2 0x1F1 JUMPI PUSH1 0x20 CALLDATASIZE PUSH1 0x3 NOT ADD SLT PUSH2 0x1F1 JUMPI PUSH1 0x20 SWAP2 PUSH2 0xCE1 PUSH2 0x1530 JUMP JUMPDEST SWAP1 PUSH4 0x87A211A2 PUSH1 0xC MSTORE MSTORE DUP2 PUSH1 0xC KECCAK256 SLOAD SWAP1 MLOAD SWAP1 DUP2 MSTORE RETURN JUMPDEST POP POP CALLVALUE PUSH2 0x1F1 JUMPI DUP2 PUSH1 0x3 NOT CALLDATASIZE ADD SLT PUSH2 0x1F1 JUMPI PUSH1 0x20 SWAP1 MLOAD PUSH1 0x1 PUSH1 0x1 PUSH1 0xA0 SHL SUB PUSH32 0x0 AND DUP2 MSTORE RETURN JUMPDEST POP POP CALLVALUE PUSH2 0x1F1 JUMPI DUP2 PUSH1 0x3 NOT CALLDATASIZE ADD SLT PUSH2 0x1F1 JUMPI PUSH1 0x20 SWAP1 MLOAD PUSH15 0x22D473030F116DDEE9F6B43AC78BA3 DUP2 MSTORE RETURN JUMPDEST POP POP CALLVALUE PUSH2 0x1F1 JUMPI DUP2 PUSH1 0x3 NOT CALLDATASIZE ADD SLT PUSH2 0x1F1 JUMPI PUSH1 0x20 SWAP1 MLOAD PUSH32 0x0 DUP2 MSTORE RETURN JUMPDEST SWAP1 POP CALLVALUE PUSH2 0x410 JUMPI DUP3 PUSH1 0x3 NOT CALLDATASIZE ADD SLT PUSH2 0x410 JUMPI PUSH1 0x20 SWAP3 POP SLOAD SWAP1 MLOAD SWAP1 DUP2 MSTORE RETURN JUMPDEST POP POP CALLVALUE PUSH2 0x1F1 JUMPI DUP2 PUSH1 0x3 NOT CALLDATASIZE ADD SLT PUSH2 0x1F1 JUMPI PUSH1 0x20 SWAP1 PUSH1 0x8 SLOAD SWAP1 MLOAD SWAP1 DUP2 MSTORE RETURN JUMPDEST POP POP CALLVALUE PUSH2 0x1F1 JUMPI PUSH1 0x20 CALLDATASIZE PUSH1 0x3 NOT ADD SLT PUSH2 0x1F1 JUMPI PUSH32 0x2A0D5DC7FBC8045F59CB33C736F04F9A9B565E9F425912F9CD2BAFDEBD50CEAD SWAP1 PUSH2 0xE1A PUSH2 0x1530 JUMP JUMPDEST PUSH2 0xE22 PUSH2 0x160D JUMP JUMPDEST PUSH1 0x2 SLOAD SWAP1 PUSH1 0x1 PUSH1 0x1 PUSH1 0xA0 SHL SUB DUP1 SWAP2 AND SWAP1 DUP2 PUSH32 0xFFFFFFFFFFFFFFFFFFFFFFFF0000000000000000000000000000000000000000 DUP5 AND OR PUSH1 0x2 SSTORE DUP4 MLOAD SWAP3 AND DUP3 MSTORE PUSH1 0x20 DUP3 ADD MSTORE LOG1 DUP1 RETURN JUMPDEST POP POP CALLVALUE PUSH2 0x1F1 JUMPI DUP2 PUSH1 0x3 NOT CALLDATASIZE ADD SLT PUSH2 0x1F1 JUMPI PUSH1 0x20 SWAP1 PUSH2 0xE86 PUSH2 0x16BF JUMP JUMPDEST SWAP1 MLOAD SWAP1 DUP2 MSTORE RETURN JUMPDEST DUP3 DUP5 CALLVALUE PUSH2 0x686 JUMPI DUP2 PUSH1 0x3 NOT CALLDATASIZE ADD SLT PUSH2 0x686 JUMPI PUSH2 0xEA7 PUSH2 0x1530 JUMP JUMPDEST PUSH1 0x20 MSTORE PUSH4 0x7F5E9F20 PUSH1 0xC MSTORE CALLER DUP2 MSTORE PUSH1 0x34 PUSH1 0xC KECCAK256 SWAP3 DUP4 SLOAD SWAP1 PUSH1 0x24 CALLDATALOAD DUP3 ADD SWAP2 DUP3 LT PUSH2 0xF05 JUMPI POP DUP1 PUSH1 0x20 SWAP5 SSTORE DUP2 MSTORE PUSH1 0x2C MLOAD PUSH1 0x60 SHR SWAP1 PUSH32 0x8C5BE1E5EBEC7D5BD14F71427D1E84F3DD0314C0F7B2291E5B200AC8C7C3B925 DUP5 CALLER SWAP3 LOG3 MLOAD PUSH1 0x1 DUP2 MSTORE RETURN JUMPDEST PUSH4 0xF9067066 DUP4 MSTORE PUSH1 0x1C REVERT JUMPDEST POP POP CALLVALUE PUSH2 0x1F1 JUMPI DUP2 PUSH1 0x3 NOT CALLDATASIZE ADD SLT PUSH2 0x1F1 JUMPI PUSH1 0x20 SWAP1 PUSH2 0xE86 PUSH2 0x17A5 JUMP JUMPDEST DUP3 DUP5 CALLVALUE PUSH2 0x686 JUMPI DUP1 PUSH1 0x3 NOT CALLDATASIZE ADD SLT PUSH2 0x686 JUMPI PUSH1 0x20 DUP3 MLOAD DUP1 SWAP5 PUSH4 0x313CE567 PUSH1 0xE0 SHL DUP3 MSTORE DUP2 PUSH1 0x1 PUSH1 0x1 PUSH1 0xA0 SHL SUB PUSH32 0x0 AND GAS STATICCALL SWAP3 DUP4 ISZERO PUSH2 0x890 JUMPI DUP2 SWAP4 PUSH2 0xF97 JUMPI JUMPDEST PUSH1 0x20 DUP5 PUSH1 0xFF DUP6 MLOAD SWAP2 AND DUP2 MSTORE RETURN JUMPDEST SWAP1 SWAP3 POP PUSH1 0x20 DUP2 RETURNDATASIZE DUP3 GT PUSH2 0xFD0 JUMPI JUMPDEST DUP2 PUSH2 0xFB2 PUSH1 0x20 SWAP4 DUP4 PUSH2 0x15A1 JUMP JUMPDEST DUP2 ADD SUB SLT PUSH2 0x410 JUMPI MLOAD SWAP2 PUSH1 0xFF DUP4 AND DUP4 SUB PUSH2 0x686 JUMPI POP PUSH1 0xFF PUSH1 0x20 PUSH2 0xF8A JUMP JUMPDEST RETURNDATASIZE SWAP2 POP PUSH2 0xFA5 JUMP JUMPDEST DUP4 DUP4 CALLVALUE PUSH2 0x1F1 JUMPI PUSH1 0x60 CALLDATASIZE PUSH1 0x3 NOT ADD SLT PUSH2 0x1F1 JUMPI PUSH2 0xFF3 PUSH2 0x1530 JUMP JUMPDEST PUSH2 0xFFB PUSH2 0x154B JUMP JUMPDEST PUSH1 0x44 CALLDATALOAD DUP3 PUSH1 0x60 SHL SWAP2 PUSH1 0x20 SWAP6 CALLER DUP8 MSTORE PUSH1 0xC SWAP4 PUSH4 0x7F5E9F20 DUP2 OR DUP6 MSTORE PUSH1 0x34 DUP6 KECCAK256 DUP1 SLOAD PUSH1 0x0 NOT DUP2 SUB PUSH2 0x108A JUMPI JUMPDEST POP POP PUSH4 0x87A211A2 OR DUP5 MSTORE DUP7 DUP5 KECCAK256 DUP1 SLOAD SWAP9 DUP10 DUP6 GT PUSH2 0x53D JUMPI POP DUP4 PUSH1 0x1 PUSH1 0x1 PUSH1 0xA0 SHL SUB SWAP7 SWAP8 SWAP9 SWAP10 SUB SWAP1 SSTORE MSTORE DUP6 DUP3 KECCAK256 DUP2 DUP2 SLOAD ADD SWAP1 SSTORE DUP6 MSTORE MLOAD PUSH1 0x60 SHR SWAP2 AND PUSH32 0xDDF252AD1BE2C89B69C2B068FC378DAA952BA7F163C4A11628F55A4DF523B3EF DUP5 DUP1 LOG3 MLOAD PUSH1 0x1 DUP2 MSTORE RETURN JUMPDEST DUP1 DUP7 GT PUSH2 0x10A1 JUMPI DUP6 SWAP1 SUB SWAP1 SSTORE PUSH4 0x87A211A2 DUP11 PUSH2 0x1025 JUMP JUMPDEST DUP11 PUSH4 0x13BE252B DUP6 MSTORE PUSH1 0x1C REVERT JUMPDEST SWAP1 POP CALLVALUE PUSH2 0x410 JUMPI PUSH1 0x80 CALLDATASIZE PUSH1 0x3 NOT ADD SLT PUSH2 0x410 JUMPI DUP1 CALLDATALOAD SWAP2 PUSH1 0x24 CALLDATALOAD SWAP1 PUSH1 0x44 CALLDATALOAD SWAP2 PUSH1 0x64 CALLDATALOAD SWAP4 PUSH2 0x10D7 PUSH2 0x160D JUMP JUMPDEST PUSH8 0x16345785D8A0000 DUP7 GT PUSH2 0x1289 JUMPI PUSH8 0x6F05B59D3B20000 DUP6 LT DUP1 ISZERO PUSH2 0x1297 JUMPI JUMPDEST PUSH2 0x1289 JUMPI PUSH1 0x1 DUP1 DUP6 LT DUP1 ISZERO PUSH2 0x127F JUMPI JUMPDEST PUSH2 0x1270 JUMPI PUSH4 0x1E13380 SWAP2 DUP3 DUP9 DIV PUSH1 0x3 SSTORE DUP7 DUP4 MUL DUP4 DUP2 DIV DUP9 SUB PUSH2 0x125D JUMPI PUSH2 0x112E SWAP1 DUP6 PUSH2 0x1817 JUMP JUMPDEST DUP2 SSTORE DUP6 PUSH1 0x7 SSTORE DUP7 PUSH1 0x6 SSTORE DUP9 SWAP3 DUP7 DUP6 MUL SWAP1 PUSH1 0x0 NOT DUP9 DUP8 MULMOD SWAP2 DUP1 DUP4 LT DUP2 ADD DUP1 DUP5 SUB SWAP4 EQ PUSH32 0x98F5BE4DD1E14769FBD6666224DC1EB80DD2E0A3D2C8B328F57E76B7AE103957 DUP5 DUP5 GT ISZERO SWAP5 DUP5 DUP13 DUP12 MULMOD SWAP1 DUP5 DUP3 GT SWAP1 SUB PUSH1 0xF9 SHL SWAP1 DUP5 SUB PUSH1 0x7 SHR OR MUL SWAP6 PUSH2 0x11DD JUMPI JUMPDEST POP DUP12 PUSH32 0xF58B8CC439EDADA25FD9495B7364AEB1D737DBEF59BE1CF62E0CC4001C44A3CD PUSH1 0x80 DUP14 DUP14 DUP14 DUP14 DUP14 PUSH2 0x11C4 DUP5 DUP16 PUSH2 0x1817 JUMP JUMPDEST PUSH1 0x5 SSTORE DUP2 MLOAD SWAP5 DUP6 MSTORE PUSH1 0x20 DUP6 ADD MSTORE DUP4 ADD MSTORE PUSH1 0x60 DUP3 ADD MSTORE LOG1 DUP1 RETURN JUMPDEST SWAP1 SWAP2 SWAP3 SWAP4 SWAP5 SWAP6 POP PUSH2 0x1228 JUMPI POP POP PUSH2 0x121D JUMPI POP DUP2 PUSH2 0x11C4 DUP7 PUSH1 0x80 PUSH32 0xF58B8CC439EDADA25FD9495B7364AEB1D737DBEF59BE1CF62E0CC4001C44A3CD CODESIZE PUSH2 0x1190 JUMP JUMPDEST PUSH4 0xAE47F702 DUP9 MSTORE PUSH1 0x1C REVERT JUMPDEST DIV SWAP3 POP DUP4 SWAP2 POP PUSH2 0x11C4 SWAP1 POP DUP7 PUSH1 0x80 PUSH32 0xF58B8CC439EDADA25FD9495B7364AEB1D737DBEF59BE1CF62E0CC4001C44A3CD CODESIZE PUSH2 0x1190 JUMP JUMPDEST PUSH4 0x4E487B71 PUSH1 0xE0 SHL DUP11 MSTORE PUSH1 0x11 DUP3 MSTORE PUSH1 0x24 DUP11 REVERT JUMPDEST POP DUP3 MLOAD PUSH4 0xE49B3B3 PUSH1 0xE4 SHL DUP2 MSTORE REVERT JUMPDEST POP PUSH1 0xA DUP6 GT PUSH2 0x1108 JUMP JUMPDEST DUP3 MLOAD PUSH4 0xE49B3B3 PUSH1 0xE4 SHL DUP2 MSTORE REVERT JUMPDEST POP PUSH8 0xD2F13F7789F0000 DUP6 GT PUSH2 0x10F8 JUMP JUMPDEST SWAP1 POP CALLVALUE PUSH2 0x410 JUMPI PUSH1 0x20 CALLDATASIZE PUSH1 0x3 NOT ADD SLT PUSH2 0x410 JUMPI DUP1 CALLDATALOAD SWAP1 PUSH2 0x12C6 PUSH2 0x160D JUMP JUMPDEST PUSH8 0x2C68AF0BB140000 DUP3 GT PUSH2 0x1289 JUMPI POP SWAP1 PUSH32 0xAAA68312E2EA9D50E16AF5068410AB56E1A1FD06037B1A35664812C30F821460 SWAP2 PUSH1 0x8 SLOAD SWAP1 DUP1 PUSH1 0x8 SSTORE DUP3 MLOAD SWAP2 DUP3 MSTORE PUSH1 0x20 DUP3 ADD MSTORE LOG1 DUP1 RETURN JUMPDEST DUP4 DUP4 CALLVALUE PUSH2 0x1F1 JUMPI PUSH1 0x20 CALLDATASIZE PUSH1 0x3 NOT ADD SLT PUSH2 0x1F1 JUMPI PUSH2 0x132A PUSH2 0x1530 JUMP JUMPDEST SWAP1 DUP3 SLOAD SWAP2 PUSH1 0xFF DUP4 AND ISZERO PUSH2 0x13D9 JUMPI PUSH1 0xFF NOT SWAP3 DUP4 AND DUP5 SSTORE PUSH2 0x1347 PUSH2 0x160D JUMP JUMPDEST PUSH1 0x1 PUSH1 0x1 PUSH1 0xA0 SHL SUB SWAP2 DUP3 DUP3 AND SWAP3 PUSH32 0x0 AND DUP4 EQ PUSH2 0x13CA JUMPI PUSH1 0x1 SWAP5 SWAP6 POP PUSH2 0x1397 PUSH2 0x138E ADDRESS DUP5 PUSH2 0x18DA JUMP JUMPDEST DUP1 SWAP4 CALLER SWAP1 PUSH2 0x1891 JUMP JUMPDEST MLOAD SWAP1 DUP2 MSTORE PUSH32 0x6D25BE279134F4ECAA4770AFF0C3D916D9E7C5EF37B65ED95DBDBA411F5D54D5 PUSH1 0x20 CALLER SWAP3 LOG3 DUP3 SLOAD AND OR DUP2 SSTORE DUP1 RETURN JUMPDEST MLOAD PUSH4 0xB5D8F391 PUSH1 0xE0 SHL DUP2 MSTORE DUP6 SWAP1 REVERT JUMPDEST DUP2 MLOAD PUSH4 0x6FDA65D PUSH1 0xE3 SHL DUP2 MSTORE DUP6 SWAP1 REVERT JUMPDEST POP POP CALLVALUE PUSH2 0x1F1 JUMPI DUP2 PUSH1 0x3 NOT CALLDATASIZE ADD SLT PUSH2 0x1F1 JUMPI PUSH1 0x20 SWAP1 PUSH1 0x6 SLOAD SWAP1 MLOAD SWAP1 DUP2 MSTORE RETURN JUMPDEST POP POP CALLVALUE PUSH2 0x1F1 JUMPI DUP2 PUSH1 0x3 NOT CALLDATASIZE ADD SLT PUSH2 0x1F1 JUMPI PUSH1 0x20 SWAP1 PUSH1 0x9 SLOAD SWAP1 MLOAD SWAP1 DUP2 MSTORE RETURN JUMPDEST POP POP CALLVALUE PUSH2 0x1F1 JUMPI DUP2 PUSH1 0x3 NOT CALLDATASIZE ADD SLT PUSH2 0x1F1 JUMPI PUSH1 0x20 SWAP1 PUSH9 0x5345CDF77EB68F44C SLOAD SWAP1 MLOAD SWAP1 DUP2 MSTORE RETURN JUMPDEST POP POP CALLVALUE PUSH2 0x1F1 JUMPI DUP1 PUSH1 0x3 NOT CALLDATASIZE ADD SLT PUSH2 0x1F1 JUMPI PUSH1 0x20 SWAP2 PUSH2 0x146B PUSH2 0x1530 JUMP JUMPDEST PUSH1 0x24 CALLDATALOAD SWAP1 DUP5 MSTORE PUSH4 0x7F5E9F20 PUSH1 0xC MSTORE CALLER DUP3 MSTORE DUP1 PUSH1 0x34 PUSH1 0xC KECCAK256 SSTORE DUP2 MSTORE PUSH1 0x2C MLOAD PUSH1 0x60 SHR SWAP1 PUSH32 0x8C5BE1E5EBEC7D5BD14F71427D1E84F3DD0314C0F7B2291E5B200AC8C7C3B925 DUP5 CALLER SWAP3 LOG3 MLOAD PUSH1 0x1 DUP2 MSTORE RETURN JUMPDEST POP POP CALLVALUE PUSH2 0x1F1 JUMPI DUP2 PUSH1 0x3 NOT CALLDATASIZE ADD SLT PUSH2 0x1F1 JUMPI PUSH2 0x7EB SWAP1 PUSH2 0x14D6 PUSH2 0x15C3 JUMP JUMPDEST SWAP1 MLOAD SWAP2 DUP3 SWAP2 DUP3 PUSH2 0x1504 JUMP JUMPDEST PUSH1 0x0 JUMPDEST DUP4 DUP2 LT PUSH2 0x14F4 JUMPI POP POP PUSH1 0x0 SWAP2 ADD MSTORE JUMP JUMPDEST DUP2 DUP2 ADD MLOAD DUP4 DUP3 ADD MSTORE PUSH1 0x20 ADD PUSH2 0x14E4 JUMP JUMPDEST PUSH1 0x40 SWAP2 PUSH1 0x20 DUP3 MSTORE PUSH2 0x1524 DUP2 MLOAD DUP1 SWAP3 DUP2 PUSH1 0x20 DUP7 ADD MSTORE PUSH1 0x20 DUP7 DUP7 ADD SWAP2 ADD PUSH2 0x14E1 JUMP JUMPDEST PUSH1 0x1F ADD PUSH1 0x1F NOT AND ADD ADD SWAP1 JUMP JUMPDEST PUSH1 0x4 CALLDATALOAD SWAP1 PUSH1 0x1 PUSH1 0x1 PUSH1 0xA0 SHL SUB DUP3 AND DUP3 SUB PUSH2 0x1546 JUMPI JUMP JUMPDEST PUSH1 0x0 DUP1 REVERT JUMPDEST PUSH1 0x24 CALLDATALOAD SWAP1 PUSH1 0x1 PUSH1 0x1 PUSH1 0xA0 SHL SUB DUP3 AND DUP3 SUB PUSH2 0x1546 JUMPI JUMP JUMPDEST PUSH1 0x44 CALLDATALOAD SWAP1 PUSH1 0x1 PUSH1 0x1 PUSH1 0xA0 SHL SUB DUP3 AND DUP3 SUB PUSH2 0x1546 JUMPI JUMP JUMPDEST PUSH8 0xFFFFFFFFFFFFFFFF DUP2 GT PUSH2 0x158B JUMPI PUSH1 0x40 MSTORE JUMP JUMPDEST PUSH4 0x4E487B71 PUSH1 0xE0 SHL PUSH1 0x0 MSTORE PUSH1 0x41 PUSH1 0x4 MSTORE PUSH1 0x24 PUSH1 0x0 REVERT JUMPDEST SWAP1 PUSH1 0x1F DUP1 NOT SWAP2 ADD AND DUP2 ADD SWAP1 DUP2 LT PUSH8 0xFFFFFFFFFFFFFFFF DUP3 GT OR PUSH2 0x158B JUMPI PUSH1 0x40 MSTORE JUMP JUMPDEST PUSH1 0x40 MLOAD SWAP1 PUSH1 0x40 DUP3 ADD DUP3 DUP2 LT PUSH8 0xFFFFFFFFFFFFFFFF DUP3 GT OR PUSH2 0x158B JUMPI PUSH1 0x40 MSTORE PUSH1 0x12 DUP3 MSTORE PUSH32 0x4379676E75733A20426F72726F7761626C650000000000000000000000000000 PUSH1 0x20 DUP4 ADD MSTORE JUMP JUMPDEST PUSH1 0x40 MLOAD PUSH4 0x3E14691 PUSH1 0xE6 SHL DUP2 MSTORE PUSH1 0x1 PUSH1 0x1 PUSH1 0xA0 SHL SUB SWAP1 PUSH1 0x20 DUP2 PUSH1 0x4 DUP2 PUSH32 0x0 DUP7 AND GAS STATICCALL SWAP1 DUP2 ISZERO PUSH2 0x16B3 JUMPI PUSH1 0x0 SWAP2 PUSH2 0x1679 JUMPI JUMPDEST POP AND CALLER SUB PUSH2 0x1667 JUMPI JUMP JUMPDEST PUSH1 0x40 MLOAD PUSH4 0x31D63AD1 PUSH1 0xE1 SHL DUP2 MSTORE PUSH1 0x4 SWAP1 REVERT JUMPDEST PUSH1 0x20 DUP2 RETURNDATASIZE DUP3 GT PUSH2 0x16AB JUMPI JUMPDEST DUP2 PUSH2 0x1691 PUSH1 0x20 SWAP4 DUP4 PUSH2 0x15A1 JUMP JUMPDEST DUP2 ADD SUB SLT PUSH2 0x1F1 JUMPI MLOAD SWAP1 DUP3 DUP3 AND DUP3 SUB PUSH2 0x686 JUMPI POP CODESIZE PUSH2 0x165D JUMP JUMPDEST RETURNDATASIZE SWAP2 POP PUSH2 0x1684 JUMP JUMPDEST PUSH1 0x40 MLOAD RETURNDATASIZE PUSH1 0x0 DUP3 RETURNDATACOPY RETURNDATASIZE SWAP1 REVERT JUMPDEST PUSH9 0x5345CDF77EB68F44C SLOAD PUSH1 0x0 SWAP1 DUP1 PUSH2 0x16E0 JUMPI POP POP PUSH8 0xDE0B6B3A7640000 SWAP1 JUMP JUMPDEST PUSH1 0x1 PUSH1 0x1 PUSH1 0xA0 SHL SUB PUSH2 0x16F6 SWAP3 SLOAD PUSH1 0x8 SHR AND PUSH2 0x1817 JUMP JUMPDEST SWAP1 JUMP JUMPDEST PUSH32 0x3145C2B643834867F2C0A8CAC8A48218307687911615C0ED01412A09DD163B66 PUSH1 0x20 PUSH2 0x174E PUSH2 0x1749 ADDRESS PUSH32 0x0 PUSH2 0x18DA JUMP JUMPDEST PUSH2 0x185A JUMP JUMPDEST PUSH1 0x0 SLOAD PUSH32 0xFFFFFFFFFFFFFFFFFFFFFF0000000000000000000000000000000000000000FF PUSH21 0xFFFFFFFFFFFFFFFFFFFFFFFFFFFFFFFFFFFFFFFF00 DUP4 PUSH1 0x8 SHL AND SWAP2 AND OR PUSH1 0x0 SSTORE PUSH1 0x1 PUSH1 0x1 PUSH1 0xA0 SHL SUB PUSH1 0x40 MLOAD SWAP2 AND DUP2 MSTORE LOG1 JUMP JUMPDEST PUSH1 0xA0 PUSH1 0x40 MLOAD PUSH2 0x17B2 PUSH2 0x15C3 JUMP JUMPDEST PUSH1 0x20 DUP2 MLOAD SWAP2 ADD KECCAK256 PUSH32 0x8B73C3C69BB8FE3D512ECC4CF759CC79239F7B179B0FFACAA9A75D522B39400F DUP3 MSTORE PUSH1 0x20 DUP3 ADD MSTORE PUSH32 0xC89EFDAA54C0F20C7ADF612882DF0950F5A951637E0307CDCB4C672F298B8BC6 PUSH1 0x40 DUP3 ADD MSTORE CHAINID PUSH1 0x60 DUP3 ADD MSTORE ADDRESS PUSH1 0x80 DUP3 ADD MSTORE KECCAK256 SWAP1 JUMP JUMPDEST PUSH8 0xDE0B6B3A7640000 SWAP1 PUSH25 0x12725DD1D243ABA0E75FE645CC4873F9E65AFE688C928E1F21 DUP2 GT DUP3 MUL ISZERO DUP4 MUL ISZERO PUSH2 0x184C JUMPI MUL DIV SWAP1 JUMP JUMPDEST PUSH4 0x7C5F487D PUSH1 0x0 MSTORE PUSH1 0x4 PUSH1 0x1C REVERT JUMPDEST PUSH21 0x10000000000000000000000000000000000000000 DUP2 LT ISZERO PUSH2 0x1883 JUMPI PUSH1 0x1 PUSH1 0x1 PUSH1 0xA0 SHL SUB AND SWAP1 JUMP JUMPDEST PUSH4 0x35278D12 PUSH1 0x0 MSTORE PUSH1 0x4 PUSH1 0x1C REVERT JUMPDEST PUSH1 0x10 SWAP3 PUSH1 0x20 SWAP3 PUSH1 0x14 MSTORE PUSH1 0x34 MSTORE PUSH1 0x44 PUSH1 0x0 SWAP4 DUP5 DUP1 SWAP4 PUSH16 0xA9059CBB000000000000000000000000 DUP3 MSTORE GAS CALL RETURNDATASIZE ISZERO PUSH1 0x1 DUP4 MLOAD EQ OR AND ISZERO PUSH2 0x18CD JUMPI PUSH1 0x34 MSTORE JUMP JUMPDEST PUSH4 0x90B8EC18 SWAP1 MSTORE PUSH1 0x4 PUSH1 0x1C REVERT JUMPDEST PUSH1 0x24 PUSH1 0x10 PUSH1 0x20 SWAP4 SWAP3 DUP5 SWAP4 PUSH1 0x14 MSTORE PUSH16 0x70A08231000000000000000000000000 PUSH1 0x0 MSTORE GAS STATICCALL PUSH1 0x1F RETURNDATASIZE GT AND PUSH1 0x20 MLOAD MUL SWAP1 JUMP INVALID LOG2 PUSH5 0x6970667358 0x22 SLT KECCAK256 0xED PUSH28 0x15028EEF9AFD1793CDA358AC7EE99F4D65C87B28544828E5EE664A1 DELEGATECALL STOP PUSH5 0x736F6C6343 STOP ADDMOD GT STOP CALLER "},"methodIdentifiers":{"DOMAIN_SEPARATOR()":"3644e515","PERMIT2()":"6afdd850","allowance(address,address)":"dd62ed3e","approve(address,uint256)":"095ea7b3","balanceOf(address)":"70a08231","baseRatePerSecond()":"d90e0264","collateral()":"d8dfeb45","cygnusBorrowRewarder()":"ad168c9d","cygnusNebulaOracle()":"d935bd92","decimals()":"313ce567","decreaseAllowance(address,uint256)":"a457c2d7","deposit(uint256,address,((address,uint160,uint48,uint48),address,uint256),bytes)":"8808e71c","exchangeRate()":"3ba0b9a9","exchangeRateStored()":"182df0f5","hangar18()":"e8a24e1d","increaseAllowance(address,uint256)":"39509351","jumpMultiplierPerSecond()":"72cf84a7","kinkMultiplier()":"9b510998","kinkUtilizationRate()":"1aebf12f","multiplierPerSecond()":"46f608ff","name()":"06fdde03","nonces(address)":"7ecebe00","permit(address,address,uint256,uint256,uint8,bytes32,bytes32)":"d505accf","redeem(uint256,address,address)":"ba087652","reserveFactor()":"4322b714","setCygnusBorrowRewarder(address)":"42bf78af","setInterestRateModel(uint256,uint256,uint256,uint256)":"1e44b7fc","setReserveFactor(uint256)":"1c446983","shuttleId()":"5f77f891","sweepToken(address)":"1be19560","symbol()":"95d89b41","totalBalance()":"ad7a672f","totalSupply()":"18160ddd","transfer(address,uint256)":"a9059cbb","transferFrom(address,address,uint256)":"23b872dd","underlying()":"6f307dc3"}}}}}