{"contracts/cygnus-core/CygnusBorrowVoid.sol":{"CygnusBorrowVoid":{"abi":[{"inputs":[],"stateMutability":"nonpayable","type":"constructor"},{"inputs":[],"name":"AllowanceOverflow","type":"error"},{"inputs":[],"name":"AllowanceUnderflow","type":"error"},{"inputs":[],"name":"CygnusBorrowControl__ParameterNotInRange","type":"error"},{"inputs":[],"name":"CygnusBorrowVoid__CTokenError","type":"error"},{"inputs":[],"name":"CygnusBorrowVoid__OnlyHarvesterAllowed","type":"error"},{"inputs":[],"name":"CygnusTerminal__CantMintZeroShares","type":"error"},{"inputs":[],"name":"CygnusTerminal__CantRedeemZeroAssets","type":"error"},{"inputs":[],"name":"CygnusTerminal__CantSweepUnderlying","type":"error"},{"inputs":[],"name":"CygnusTerminal__MsgSenderNotAdmin","type":"error"},{"inputs":[],"name":"InsufficientAllowance","type":"error"},{"inputs":[],"name":"InsufficientBalance","type":"error"},{"inputs":[],"name":"InvalidPermit","type":"error"},{"inputs":[],"name":"PermitExpired","type":"error"},{"inputs":[],"name":"ReentrantCall","type":"error"},{"inputs":[],"name":"TotalSupplyOverflow","type":"error"},{"anonymous":false,"inputs":[{"indexed":false,"internalType":"uint256","name":"cashStored","type":"uint256"},{"indexed":false,"internalType":"uint256","name":"totalBorrowsStored","type":"uint256"},{"indexed":false,"internalType":"uint256","name":"interestAccumulated","type":"uint256"}],"name":"AccrueInterest","type":"event"},{"anonymous":false,"inputs":[{"indexed":true,"internalType":"address","name":"owner","type":"address"},{"indexed":true,"internalType":"address","name":"spender","type":"address"},{"indexed":false,"internalType":"uint256","name":"amount","type":"uint256"}],"name":"Approval","type":"event"},{"anonymous":false,"inputs":[{"indexed":false,"internalType":"address","name":"underlying","type":"address"},{"indexed":false,"internalType":"uint256","name":"shuttleId","type":"uint256"},{"indexed":false,"internalType":"address","name":"sender","type":"address"}],"name":"ChargeVoid","type":"event"},{"anonymous":false,"inputs":[{"indexed":true,"internalType":"address","name":"sender","type":"address"},{"indexed":true,"internalType":"address","name":"recipient","type":"address"},{"indexed":false,"internalType":"uint256","name":"assets","type":"uint256"},{"indexed":false,"internalType":"uint256","name":"shares","type":"uint256"}],"name":"Deposit","type":"event"},{"anonymous":false,"inputs":[{"indexed":false,"internalType":"address","name":"oldBorrowRewarder","type":"address"},{"indexed":false,"internalType":"address","name":"newBorrowRewarder","type":"address"}],"name":"NewCygnusBorrowRewarder","type":"event"},{"anonymous":false,"inputs":[{"indexed":false,"internalType":"contract ICygnusHarvester","name":"oldHarvester","type":"address"},{"indexed":false,"internalType":"contract ICygnusHarvester","name":"newHarvester","type":"address"}],"name":"NewHarvester","type":"event"},{"anonymous":false,"inputs":[{"indexed":false,"internalType":"uint256","name":"baseRatePerYear","type":"uint256"},{"indexed":false,"internalType":"uint256","name":"multiplierPerYear","type":"uint256"},{"indexed":false,"internalType":"uint256","name":"kinkMultiplier_","type":"uint256"},{"indexed":false,"internalType":"uint256","name":"kinkUtilizationRate_","type":"uint256"}],"name":"NewInterestRateParameters","type":"event"},{"anonymous":false,"inputs":[{"indexed":false,"internalType":"uint256","name":"oldReserveFactor","type":"uint256"},{"indexed":false,"internalType":"uint256","name":"newReserveFactor","type":"uint256"}],"name":"NewReserveFactor","type":"event"},{"anonymous":false,"inputs":[{"indexed":true,"internalType":"address","name":"reinvestor","type":"address"},{"indexed":false,"internalType":"uint256","name":"liquidity","type":"uint256"},{"indexed":false,"internalType":"uint256","name":"timestamp","type":"uint256"}],"name":"RechargeVoid","type":"event"},{"anonymous":false,"inputs":[{"indexed":true,"internalType":"address","name":"sender","type":"address"},{"indexed":true,"internalType":"address","name":"token","type":"address"},{"indexed":false,"internalType":"uint256","name":"balance","type":"uint256"}],"name":"SweepToken","type":"event"},{"anonymous":false,"inputs":[{"indexed":false,"internalType":"uint160","name":"totalBalance","type":"uint160"}],"name":"Sync","type":"event"},{"anonymous":false,"inputs":[{"indexed":true,"internalType":"address","name":"from","type":"address"},{"indexed":true,"internalType":"address","name":"to","type":"address"},{"indexed":false,"internalType":"uint256","name":"amount","type":"uint256"}],"name":"Transfer","type":"event"},{"anonymous":false,"inputs":[{"indexed":true,"internalType":"address","name":"sender","type":"address"},{"indexed":true,"internalType":"address","name":"recipient","type":"address"},{"indexed":true,"internalType":"address","name":"owner","type":"address"},{"indexed":false,"internalType":"uint256","name":"assets","type":"uint256"},{"indexed":false,"internalType":"uint256","name":"shares","type":"uint256"}],"name":"Withdraw","type":"event"},{"inputs":[],"name":"DOMAIN_SEPARATOR","outputs":[{"internalType":"bytes32","name":"result","type":"bytes32"}],"stateMutability":"view","type":"function"},{"inputs":[],"name":"PERMIT2","outputs":[{"internalType":"contract IAllowanceTransfer","name":"","type":"address"}],"stateMutability":"view","type":"function"},{"inputs":[],"name":"accrueInterest","outputs":[],"stateMutability":"nonpayable","type":"function"},{"inputs":[{"internalType":"address","name":"owner","type":"address"},{"internalType":"address","name":"spender","type":"address"}],"name":"allowance","outputs":[{"internalType":"uint256","name":"result","type":"uint256"}],"stateMutability":"view","type":"function"},{"inputs":[{"internalType":"address","name":"spender","type":"address"},{"internalType":"uint256","name":"amount","type":"uint256"}],"name":"approve","outputs":[{"internalType":"bool","name":"","type":"bool"}],"stateMutability":"nonpayable","type":"function"},{"inputs":[{"internalType":"address","name":"owner","type":"address"}],"name":"balanceOf","outputs":[{"internalType":"uint256","name":"result","type":"uint256"}],"stateMutability":"view","type":"function"},{"inputs":[],"name":"baseRatePerSecond","outputs":[{"internalType":"uint256","name":"","type":"uint256"}],"stateMutability":"view","type":"function"},{"inputs":[{"internalType":"address","name":"","type":"address"}],"name":"borrowBalances","outputs":[{"internalType":"uint128","name":"principal","type":"uint128"},{"internalType":"uint128","name":"interestIndex","type":"uint128"}],"stateMutability":"view","type":"function"},{"inputs":[],"name":"borrowIndex","outputs":[{"internalType":"uint80","name":"","type":"uint80"}],"stateMutability":"view","type":"function"},{"inputs":[],"name":"borrowRate","outputs":[{"internalType":"uint48","name":"","type":"uint48"}],"stateMutability":"view","type":"function"},{"inputs":[],"name":"chargeVoid","outputs":[],"stateMutability":"nonpayable","type":"function"},{"inputs":[],"name":"collateral","outputs":[{"internalType":"address","name":"","type":"address"}],"stateMutability":"view","type":"function"},{"inputs":[],"name":"cygnusBorrowRewarder","outputs":[{"internalType":"address","name":"","type":"address"}],"stateMutability":"view","type":"function"},{"inputs":[],"name":"cygnusNebulaOracle","outputs":[{"internalType":"contract ICygnusNebulaOracle","name":"","type":"address"}],"stateMutability":"view","type":"function"},{"inputs":[],"name":"decimals","outputs":[{"internalType":"uint8","name":"","type":"uint8"}],"stateMutability":"view","type":"function"},{"inputs":[{"internalType":"address","name":"spender","type":"address"},{"internalType":"uint256","name":"difference","type":"uint256"}],"name":"decreaseAllowance","outputs":[{"internalType":"bool","name":"","type":"bool"}],"stateMutability":"nonpayable","type":"function"},{"inputs":[{"internalType":"uint256","name":"assets","type":"uint256"},{"internalType":"address","name":"recipient","type":"address"},{"components":[{"components":[{"internalType":"address","name":"token","type":"address"},{"internalType":"uint160","name":"amount","type":"uint160"},{"internalType":"uint48","name":"expiration","type":"uint48"},{"internalType":"uint48","name":"nonce","type":"uint48"}],"internalType":"struct IAllowanceTransfer.PermitDetails","name":"details","type":"tuple"},{"internalType":"address","name":"spender","type":"address"},{"internalType":"uint256","name":"sigDeadline","type":"uint256"}],"internalType":"struct IAllowanceTransfer.PermitSingle","name":"_permit","type":"tuple"},{"internalType":"bytes","name":"signature","type":"bytes"}],"name":"deposit","outputs":[{"internalType":"uint256","name":"shares","type":"uint256"}],"stateMutability":"nonpayable","type":"function"},{"inputs":[],"name":"exchangeRate","outputs":[{"internalType":"uint256","name":"","type":"uint256"}],"stateMutability":"nonpayable","type":"function"},{"inputs":[],"name":"exchangeRateStored","outputs":[{"internalType":"uint256","name":"","type":"uint256"}],"stateMutability":"view","type":"function"},{"inputs":[{"internalType":"address","name":"borrower","type":"address"}],"name":"getBorrowBalance","outputs":[{"internalType":"uint256","name":"","type":"uint256"}],"stateMutability":"view","type":"function"},{"inputs":[],"name":"getRewards","outputs":[{"internalType":"address[]","name":"tokens","type":"address[]"},{"internalType":"uint256[]","name":"amounts","type":"uint256[]"}],"stateMutability":"nonpayable","type":"function"},{"inputs":[],"name":"hangar18","outputs":[{"internalType":"contract IHangar18","name":"","type":"address"}],"stateMutability":"view","type":"function"},{"inputs":[],"name":"harvester","outputs":[{"internalType":"contract ICygnusHarvester","name":"","type":"address"}],"stateMutability":"view","type":"function"},{"inputs":[{"internalType":"address","name":"spender","type":"address"},{"internalType":"uint256","name":"difference","type":"uint256"}],"name":"increaseAllowance","outputs":[{"internalType":"bool","name":"","type":"bool"}],"stateMutability":"nonpayable","type":"function"},{"inputs":[],"name":"jumpMultiplierPerSecond","outputs":[{"internalType":"uint256","name":"","type":"uint256"}],"stateMutability":"view","type":"function"},{"inputs":[],"name":"kinkMultiplier","outputs":[{"internalType":"uint256","name":"","type":"uint256"}],"stateMutability":"view","type":"function"},{"inputs":[],"name":"kinkUtilizationRate","outputs":[{"internalType":"uint256","name":"","type":"uint256"}],"stateMutability":"view","type":"function"},{"inputs":[],"name":"lastAccrualTimestamp","outputs":[{"internalType":"uint32","name":"","type":"uint32"}],"stateMutability":"view","type":"function"},{"inputs":[],"name":"lastReinvest","outputs":[{"internalType":"uint256","name":"","type":"uint256"}],"stateMutability":"view","type":"function"},{"inputs":[],"name":"multiplierPerSecond","outputs":[{"internalType":"uint256","name":"","type":"uint256"}],"stateMutability":"view","type":"function"},{"inputs":[],"name":"name","outputs":[{"internalType":"string","name":"","type":"string"}],"stateMutability":"pure","type":"function"},{"inputs":[{"internalType":"address","name":"owner","type":"address"}],"name":"nonces","outputs":[{"internalType":"uint256","name":"result","type":"uint256"}],"stateMutability":"view","type":"function"},{"inputs":[{"internalType":"address","name":"owner","type":"address"},{"internalType":"address","name":"spender","type":"address"},{"internalType":"uint256","name":"value","type":"uint256"},{"internalType":"uint256","name":"deadline","type":"uint256"},{"internalType":"uint8","name":"v","type":"uint8"},{"internalType":"bytes32","name":"r","type":"bytes32"},{"internalType":"bytes32","name":"s","type":"bytes32"}],"name":"permit","outputs":[],"stateMutability":"nonpayable","type":"function"},{"inputs":[{"internalType":"uint256","name":"shares","type":"uint256"},{"internalType":"address","name":"recipient","type":"address"},{"internalType":"address","name":"owner","type":"address"}],"name":"redeem","outputs":[{"internalType":"uint256","name":"assets","type":"uint256"}],"stateMutability":"nonpayable","type":"function"},{"inputs":[{"internalType":"uint256","name":"liquidity","type":"uint256"}],"name":"reinvestRewards_y7b","outputs":[],"stateMutability":"nonpayable","type":"function"},{"inputs":[],"name":"reserveFactor","outputs":[{"internalType":"uint256","name":"","type":"uint256"}],"stateMutability":"view","type":"function"},{"inputs":[],"name":"rewardToken","outputs":[{"internalType":"address","name":"","type":"address"}],"stateMutability":"pure","type":"function"},{"inputs":[],"name":"rewarder","outputs":[{"internalType":"address","name":"","type":"address"}],"stateMutability":"pure","type":"function"},{"inputs":[{"internalType":"address","name":"newBorrowRewarder","type":"address"}],"name":"setCygnusBorrowRewarder","outputs":[],"stateMutability":"nonpayable","type":"function"},{"inputs":[{"internalType":"contract ICygnusHarvester","name":"_harvester","type":"address"}],"name":"setHarvester","outputs":[],"stateMutability":"nonpayable","type":"function"},{"inputs":[{"internalType":"uint256","name":"baseRatePerYear_","type":"uint256"},{"internalType":"uint256","name":"multiplierPerYear_","type":"uint256"},{"internalType":"uint256","name":"kinkMultiplier_","type":"uint256"},{"internalType":"uint256","name":"kinkUtilizationRate_","type":"uint256"}],"name":"setInterestRateModel","outputs":[],"stateMutability":"nonpayable","type":"function"},{"inputs":[{"internalType":"uint256","name":"newReserveFactor","type":"uint256"}],"name":"setReserveFactor","outputs":[],"stateMutability":"nonpayable","type":"function"},{"inputs":[],"name":"shuttleId","outputs":[{"internalType":"uint256","name":"","type":"uint256"}],"stateMutability":"view","type":"function"},{"inputs":[],"name":"supplyRate","outputs":[{"internalType":"uint256","name":"","type":"uint256"}],"stateMutability":"view","type":"function"},{"inputs":[{"internalType":"address","name":"token","type":"address"}],"name":"sweepToken","outputs":[],"stateMutability":"nonpayable","type":"function"},{"inputs":[],"name":"symbol","outputs":[{"internalType":"string","name":"","type":"string"}],"stateMutability":"view","type":"function"},{"inputs":[],"name":"totalBalance","outputs":[{"internalType":"uint160","name":"","type":"uint160"}],"stateMutability":"view","type":"function"},{"inputs":[],"name":"totalBorrows","outputs":[{"internalType":"uint96","name":"","type":"uint96"}],"stateMutability":"view","type":"function"},{"inputs":[],"name":"totalSupply","outputs":[{"internalType":"uint256","name":"result","type":"uint256"}],"stateMutability":"view","type":"function"},{"inputs":[{"internalType":"address","name":"borrower","type":"address"}],"name":"trackBorrower","outputs":[],"stateMutability":"nonpayable","type":"function"},{"inputs":[{"internalType":"address","name":"to","type":"address"},{"internalType":"uint256","name":"amount","type":"uint256"}],"name":"transfer","outputs":[{"internalType":"bool","name":"","type":"bool"}],"stateMutability":"nonpayable","type":"function"},{"inputs":[{"internalType":"address","name":"from","type":"address"},{"internalType":"address","name":"to","type":"address"},{"internalType":"uint256","name":"amount","type":"uint256"}],"name":"transferFrom","outputs":[{"internalType":"bool","name":"","type":"bool"}],"stateMutability":"nonpayable","type":"function"},{"inputs":[],"name":"underlying","outputs":[{"internalType":"address","name":"","type":"address"}],"stateMutability":"view","type":"function"},{"inputs":[],"name":"utilizationRate","outputs":[{"internalType":"uint256","name":"","type":"uint256"}],"stateMutability":"view","type":"function"}],"evm":{"bytecode":{"linkReferences":{},"object":"6101008060405234620001d7576000805460ff19166001178155635a412e5360e01b80835260a092838160048186335af18015620001cc578391849185918691620001a3575b5060e052855260c052608052670bcbce7f1b1500006006556002600755670214e8348c4f0000600855670de0b6b3a7640000600955604051908152828160048185335af19182156200019757916200015e575b50600180546001600160a01b0319166001600160a01b0392909216919091179055600b80546001600160601b0365ffffffffffff60b01b01164260e01b6001600160e01b031916176503782dace9d960721b179055604051612b9e91826200028583396080518281816102c7015261283a01525181610375015260c0518181816105bc0152818161072c01528181610a6301528181610cd001528181611121015281816114430152818161184a01526119a4015260e0518181816105fd01526111de0152f35b620001839150823d84116200018f575b6200017a8183620001dc565b8101906200022b565b50509150503862000098565b503d6200016e565b604051903d90823e3d90fd5b92505050620001c29150843d86116200018f576200017a8183620001dc565b9150903862000045565b6040513d85823e3d90fd5b600080fd5b601f909101601f19168101906001600160401b038211908210176200020057604052565b634e487b7160e01b600052604160045260246000fd5b51906001600160a01b0382168203620001d757565b91908260a0910312620001d75781516001600160a01b03908181168103620001d757926200025c6020820162000216565b926200026b6040830162000216565b9260608301519081168103620001d7576080909201519056fe608060408181526004918236101561001657600080fd5b600092833560e01c9182630572b0cc14611b6b5750816306fdde0314611b42578163095ea7b314611ad857816315de1daa1461194257816318160ddd1461191b578163182df0f5146118fc5781631aebf12f146118dd5781631be19560146118035781631c4469831461179c5781631e44b7fc146115a157816323b872dd146114c1578163313ce567146114165781633644e515146113f957816339509351146113765781633ba0b9a91461135957816342bf78af146112d15781634322b714146112b257816346f608ff1461129457816347bd3718146112675781634bdaeac11461123f5781635b322bbe146112015781635f77f891146111c65781636afdd8501461119c5781636c321c8a146111455781636f307dc31461110157816370a08231146110cd57816372cf84a7146110ae5781637d6af079146110885781637ecebe001461105457816381f5b6f414610fc75781638808e71c14610bfe57816394e1373c14610bad57816395d89b4114610a3d5781639b51099814610a1e578163a457c2d71461099a578163a6afed951461097e578163a9059cbb146108fb578163aa5af0fd146108cd578163ad168c9d146108a5578163ad2961a314610881578163ad7a672f14610858578163b5f3c95b14610839578163ba0876521461062a578163bcbc332014610584578163c0789dcb14610562578163c914b43714610538578163d505accf146103de57508063d8dfeb45146103b7578063d90e026414610399578063d935bd9214610356578063dcc3e06e14610328578063dd62ed3e146102eb578063e8a24e1d146102a85763f7c618c11461027757600080fd5b346102a457816003193601126102a45760209051731db2466d9f5e10d7090e7152b68d62703a2245f08152f35b5080fd5b50346102a457816003193601126102a457602090516001600160a01b037f0000000000000000000000000000000000000000000000000000000000000000168152f35b50346102a457806003193601126102a457602091610307611c88565b90610310611c9e565b8452637f5e9f20600c52526034600c20549051908152f35b50346102a457816003193601126102a457602090517360cf091cd3f50420d50fd7f707414d0df4751c588152f35b50346102a457816003193601126102a457602090516001600160a01b037f0000000000000000000000000000000000000000000000000000000000000000168152f35b50346102a457816003193601126102a4576020906003549051908152f35b50346102a457816003193601126102a4576020906001600160a01b03600154169051908152f35b919050346105345760e0366003190112610534576103fa611c88565b91610403611c9e565b6084359160643560443560ff851685036105305761041f6129d9565b92865197834211610524576001600160a01b038091169516956338377508600c52858a5260209485600c20948554956001870190557f6e71edae12b1b97f4d1f60370fef10105fa2faae0126114a169c64845d6126c98b5287878c0152888a8c015260608b019585875260808c015260a08b01526119018b52855260c0892088526042601e208a5260ff16845260a435875260c435606052838060808b60015afa50843d51036105195750777f5e9f200000000000000000000000000000000000000000851786526034602c20557f8c5be1e5ebec7d5bd14f71427d1e84f3dd0314c0f7b2291e5b200ac8c7c3b9259190a3528060605280f35b63ddafbaef8952601cfd5b50631a15a3cc8952601cfd5b8780fd5b8280fd5b5050346102a457816003193601126102a45760209065ffffffffffff600b5460b01c169051908152f35b5050346102a457816003193601126102a457602090600b5460e01c9051908152f35b5050346102a457816003193601126102a45760607f98ccebae89f16f152c93c6a0cdc0d99913b9e62a9fc612471c21ffc299c389fd917f0000000000000000000000000000000000000000000000000000000000000000906105e58261226a565b6105ed6122fb565b6001600160a01b038151921682527f000000000000000000000000000000000000000000000000000000000000000060208301523390820152a180f35b9190503461053457606036600319011261053457813592610649611c9e565b93610652611cb4565b9461065b6128dd565b6001600160a01b0390818716938433036107f3575b61068161067b6128a6565b85612a4b565b9687156107e557865163852a12e360e01b8152818101899052602099908a816024818773ec8fea79026ffed168ccf5c627c7f486d77b765f5af19081156107db5784916107a9575b5061079a576387a211a2600c52825288600c209081549081871161078f575085900390556805345cdf77eb68f44c848154039055838152847fddf252ad1be2c89b69c2b068fc378daa952ba7f163c4a11628f55a4df523b3ef8983a361075086827f0000000000000000000000000000000000000000000000000000000000000000612af0565b8451928684528784015216907ffbde797d201c681b91056529119e0b02407c7bb96a4a2c75c01fc9667232c8db843392a46107896128dd565b51908152f35b63f4d678b88452601cfd5b5086516339d7be8d60e21b8152fd5b90508a81813d83116107d4575b6107c08183611d10565b810103126107cf5751386106c9565b600080fd5b503d6107b6565b89513d86823e3d90fd5b865163e3e8d29760e01b8152fd5b33602052637f5e9f20600c528781526034600c208054600019810361081a575b5050610670565b80861161082d5785900390553880610813565b886313be252b8452601cfd5b5050346102a457816003193601126102a457602090600d549051908152f35b5050346102a457816003193601126102a4576001600160a01b036020925460081c169051908152f35b5050346102a457816003193601126102a45760209061089e611eb0565b9051908152f35b5050346102a457816003193601126102a4576020906001600160a01b03600254169051908152f35b5050346102a457816003193601126102a45760209069ffffffffffffffffffff600b5460601c169051908152f35b82843461097b578160031936011261097b57610915611c88565b602435916387a211a2600c5233815260209485600c209081549081861161078f575084900390555282600c208181540190558252600c5160601c337fddf252ad1be2c89b69c2b068fc378daa952ba7f163c4a11628f55a4df523b3ef8480a35160018152f35b80fd5b833461097b578060031936011261097b57610997611f2c565b80f35b82843461097b578160031936011261097b576109b4611c88565b60243590602052637f5e9f20600c523382526034600c20908154818110610a125760209550038091558152602c5160601c907f8c5be1e5ebec7d5bd14f71427d1e84f3dd0314c0f7b2291e5b200ac8c7c3b925843392a35160018152f35b85638301ab388552601cfd5b5050346102a457816003193601126102a4576020906007549051908152f35b9190503461053457826003193601126105345780516395d89b4160e01b815292808484817f00000000000000000000000000000000000000000000000000000000000000006001600160a01b03165afa928315610ba1578193610b00575b610afc8484610af26028825180947f4379675553443a200000000000000000000000000000000000000000000000006020830152610ae28151809260208686019101611c39565b8101036008810185520183611d10565b5191829182611c5c565b0390f35b909192503d8083863e610b138186611d10565b84019160208584031261097b57845167ffffffffffffffff9586821161053457019183601f840112156102a4578251958611610b8c5750835192610b61601f8701601f191660200185611d10565b8584526020868401011161097b5750610afc93610b849160208085019101611c39565b903880610a9b565b604190634e487b7160e01b6000525260246000fd5b509051903d90823e3d90fd5b5050346102a45760203660031901126102a45780916001600160a01b03610bd2611c88565b168152600a60205220548151906fffffffffffffffffffffffffffffffff8116825260801c6020820152f35b8383346102a4576101203660031901126102a4578235610c1c611c9e565b9360c0366043190112610fc3576101049081359167ffffffffffffffff808411610eaf5736602385011215610eaf5783830135908111610eaf573660248286010111610eaf57610c6a6128dd565b610c72612967565b9381610eb3575b505050610c8583612ab9565b916e22d473030f116ddee9f6b43ac78ba3803b15610eaf578680916084885180948193631b63c28b60e11b835233898401523060248401526001600160a01b03809a166044840152897f00000000000000000000000000000000000000000000000000000000000000001660648401525af18015610ea557908791610e8d575b5050610d24610d3291610d1786612791565b610d1f612967565b611ea3565b610d2c6128a6565b90612a76565b948515610e7e576805345cdf77eb68f44c908154908115610dec575b5050805491868301928310610de05750556387a211a2600c528460005260209485600c20858154019055848652600c5160601c60007fddf252ad1be2c89b69c2b068fc378daa952ba7f163c4a11628f55a4df523b3ef8880a38351928352848684015216907fdcbc1c05240f31ff3ad067ef1ee35ce4997762752e3a095284754544f4c709d7833392a36107896128dd565b63e5cfe957600052601cfd5b90966103e719810191908211610e6b5750956103e890818101908110610e5e5782556387a211a2600c5261dead6000526020600c20818154019055602052600c5160601c60007fddf252ad1be2c89b69c2b068fc378daa952ba7f163c4a11628f55a4df523b3ef602080a38780610d4e565b8363e5cfe957600052601cfd5b634e487b7160e01b815260118452602490fd5b50835163f1ca48b160e01b8152fd5b610e9690611cca565b610ea1578588610d05565b8580fd5b86513d89823e3d90fd5b8680fd5b6e22d473030f116ddee9f6b43ac78ba391823b15610fbf5787516302b67b5760e41b81523386820152936001600160a01b0380610eee611cb4565b166024870152606435818116809103610fb757604487015260843565ffffffffffff90818116809103610fbb57606488015260a435908116809103610fb757608487015260c435908116809103610fb357859384848d97958295899560a485015260e43560c485015261010060e48501528301528060246101249401848401378181018301849052601f01601f191681010301925af18015610fa957610f96575b8080610c79565b610fa290959195611cca565b9386610f8f565b85513d88823e3d90fd5b8a80fd5b8b80fd5b8c80fd5b8880fd5b8380fd5b9190503461053457602036600319011261053457813591610fe66128dd565b610fee611f2c565b6001600160a01b03600c5416330361104657507fc63644116f6ef474fe595238489f3d0d31a12c55be3a748d72269a62882b04c99061102c83612791565b42600d5580519283524260208401523392a26109976128dd565b9051630dd8de6360e11b8152fd5b5050346102a45760203660031901126102a457602091611072611c88565b906338377508600c525281600c20549051908152f35b5050346102a45760203660031901126102a45760209061089e6110a9611c88565b611d6b565b5050346102a457816003193601126102a4576020906005549051908152f35b5050346102a45760203660031901126102a4576020916110eb611c88565b906387a211a2600c525281600c20549051908152f35b5050346102a457816003193601126102a457602090516001600160a01b037f0000000000000000000000000000000000000000000000000000000000000000168152f35b5050346102a457816003193601126102a4576020916bffffffffffffffffffffffff600b5416801560001461117c57509051908152f35b610d2c816001600160a01b03611196945460081c16611e80565b90610789565b5050346102a457816003193601126102a457602090516e22d473030f116ddee9f6b43ac78ba38152f35b5050346102a457816003193601126102a457602090517f00000000000000000000000000000000000000000000000000000000000000008152f35b833461097b57602036600319011261097b5761099761121e611c88565b61122781611d6b565b69ffffffffffffffffffff600b5460601c1691612126565b5050346102a457816003193601126102a4576020906001600160a01b03600c54169051908152f35b5050346102a457816003193601126102a4576020906bffffffffffffffffffffffff600b54169051908152f35b90503461053457826003193601126105345760209250549051908152f35b5050346102a457816003193601126102a4576020906008549051908152f35b5050346102a45760203660031901126102a4577f2a0d5dc7fbc8045f59cb33c736f04f9a9b565e9f425912f9cd2bafdebd50cead9061130e611c88565b61131661281c565b600280546001600160a01b0392831673ffffffffffffffffffffffffffffffffffffffff198216811790925592519190921681526020810191909152604090a180f35b5050346102a457816003193601126102a45760209061089e6128a6565b82843461097b578160031936011261097b57611390611c88565b602052637f5e9f20600c523381526034600c209283549060243582019182106113ee575080602094558152602c5160601c907f8c5be1e5ebec7d5bd14f71427d1e84f3dd0314c0f7b2291e5b200ac8c7c3b925843392a35160018152f35b63f90670668352601cfd5b5050346102a457816003193601126102a45760209061089e6129d9565b82843461097b578060031936011261097b5760208251809463313ce56760e01b8252816001600160a01b037f0000000000000000000000000000000000000000000000000000000000000000165afa928315610ba1578193611480575b60208460ff855191168152f35b9092506020813d82116114b9575b8161149b60209383611d10565b8101031261053457519160ff8316830361097b575060ff6020611473565b3d915061148e565b8383346102a45760603660031901126102a4576114dc611c88565b6114e4611c9e565b6044358260601b91602095338752600c93637f5e9f2081178552603485208054600019810361157e575b50506387a211a21784528684208054988985116115735750836001600160a01b03969798990390555285822081815401905585525160601c91167fddf252ad1be2c89b69c2b068fc378daa952ba7f163c4a11628f55a4df523b3ef8480a35160018152f35b63f4d678b88352601cfd5b8086116115955785900390556387a211a28a61150e565b8a6313be252b8552601cfd5b905034610534576080366003190112610534578035916024359060443591606435936115cb61281c565b67016345785d8a0000861161177d576706f05b59d3b200008510801561178b575b61177d5760018085108015611773575b611764576301e13380918288046003558683028381048803611751576116229085612a76565b8155856007558660065588928685029060001988870991808310810180840393147f98f5be4dd1e14769fbd6666224dc1eb80dd2e0a3d2c8b328f57e76b7ae1039578484111594848c8b0990848211900360f91b90840360071c1702956116d1575b508b7ff58b8cc439edada25fd9495b7364aeb1d737dbef59be1cf62e0cc4001c44a3cd60808d8d8d8d8d6116b8848f612a76565b600555815194855260208501528301526060820152a180f35b9091929394955061171c5750506117115750816116b88660807ff58b8cc439edada25fd9495b7364aeb1d737dbef59be1cf62e0cc4001c44a3cd38611684565b63ae47f7028852601cfd5b0492508391506116b890508660807ff58b8cc439edada25fd9495b7364aeb1d737dbef59be1cf62e0cc4001c44a3cd38611684565b634e487b7160e01b8a526011825260248afd5b508251630e49b3b360e41b8152fd5b50600a85116115fc565b8251630e49b3b360e41b8152fd5b50670d2f13f7789f000085116115ec565b905034610534576020366003190112610534578035906117ba61281c565b6702c68af0bb140000821161177d5750907faaa68312e2ea9d50e16af5068410ab56e1a1fd06037b1a35664812c30f82146091600854908060085582519182526020820152a180f35b8383346102a45760203660031901126102a45761181e611c88565b9082549160ff8316156118cd5760ff19928316845561183b61281c565b6001600160a01b0391828216927f00000000000000000000000000000000000000000000000000000000000000001683146118be57600194955061188b6118823084612b39565b80933390612af0565b519081527f6d25be279134f4ecaa4770aff0c3d916d9e7c5ef37b65ed95dbdba411f5d54d560203392a382541617815580f35b5163b5d8f39160e01b81528590fd5b81516306fda65d60e31b81528590fd5b5050346102a457816003193601126102a4576020906006549051908152f35b5050346102a457816003193601126102a4576020906009549051908152f35b5050346102a457816003193601126102a4576020906805345cdf77eb68f44c549051908152f35b919050346105345760209081600319360112610fc3578235936001600160a01b03928386168096036102a45761197661281c565b600c928354958773ffffffffffffffffffffffffffffffffffffffff1988161785556119a0612406565b50947f00000000000000000000000000000000000000000000000000000000000000008716855b8751811015611aa45781896119dc838b6123ae565b5116036119f2575b6119ed906123d8565b6119c7565b611a3c868a611a01848c6123ae565b51168b8654169088518080958194636eb1769f60e11b8352308c84019060209093929360408301946001600160a01b03809216845216910152565b03915afa8015611a9a57908791611a71575b505080611a6a8c8b611a636119ed958d6123ae565b511661219b565b90506119e4565b813d8311611a93575b611a848183611d10565b81010312610eaf578538611a4e565b503d611a7a565b86513d8a823e3d90fd5b867f6a97a9e954ae4ef4c8ecc6c7dd8a1cbe668254132294ceb515db9a2e4faad7f5868c8e8a8e845193168352820152a180f35b5050346102a457806003193601126102a457602091611af5611c88565b602435908452637f5e9f20600c52338252806034600c20558152602c5160601c907f8c5be1e5ebec7d5bd14f71427d1e84f3dd0314c0f7b2291e5b200ac8c7c3b925843392a35160018152f35b5050346102a457816003193601126102a457610afc90611b60611d32565b905191829182611c5c565b939150346102a457816003193601126102a45781549360ff851615611bf057611bba84868560ff198092168155611ba0612406565b949060018094845416178355845194808652850190611bfc565b6020848203818601528080875193848152019601925b828110611bdd5785870386f35b8351875295810195928101928401611bd0565b6306fda65d60e31b8152fd5b90815180825260208080930193019160005b828110611c1c575050505090565b83516001600160a01b031685529381019392810192600101611c0e565b60005b838110611c4c5750506000910152565b8181015183820152602001611c3c565b60409160208252611c7c8151809281602086015260208686019101611c39565b601f01601f1916010190565b600435906001600160a01b03821682036107cf57565b602435906001600160a01b03821682036107cf57565b604435906001600160a01b03821682036107cf57565b67ffffffffffffffff8111611cde57604052565b634e487b7160e01b600052604160045260246000fd5b6040810190811067ffffffffffffffff821117611cde57604052565b90601f8019910116810190811067ffffffffffffffff821117611cde57604052565b60405190611d3f82611cf4565b601282527f4379676e75733a20426f72726f7761626c6500000000000000000000000000006020830152565b6001600160a01b03600091168152600a6020526040812054908160801c9081159283611e79576fffffffffffffffffffffffffffffffff1669ffffffffffffffffffff600b5460601c16928294848302906000198685099583838810840180890398149188821115960996848703851697888604986002808b60030218808c02820302808c02820302808c02820302808c02820302808c02820302908160019c02900302928a82808c0304019087841190030291860304170296611e34575b5050505050505090565b9091929394959650611e6157505050611e54575038808080808080611e2a565b63ae47f70290526004601cfd5b919450929150611e5457500438808080808080611e2a565b5091505090565b91908201809211611e8d57565b634e487b7160e01b600052601160045260246000fd5b91908203918211611e8d57565b600b54600854670de0b6b3a7640000908103908111611e8d57611ede9065ffffffffffff8360b01c16612a4b565b6001600160a01b036bffffffffffffffffffffffff8160005460081c169316809301818111611e8d5716918215611f2457611f2192611f1c91612a76565b612a4b565b90565b505050600090565b600b5463ffffffff42811660e083901c808203838111611e8d576bffffffffffffffffffffffff918286169460009169ffffffffffffffffffff6001600160a01b03845460081c169860601c16951480156120bd575b6120b457611f9086886120c5565b9216938483029483860414831517156120a05780611fc5611fcb92611fbf611fb88a8a612a4b565b809a611e80565b97612a4b565b90611e80565b906c01000000000000000000000000851015612093576a01000000000000000000008210156120935766010000000000008310156120935750917f875352fb3fadeb8c0be7cbbe8ff761b308fa7033470cd0287f02f3436fd76cb99593917bffffffffffff000000000000000000000000000000000000000000006060969475ffffffffffffffffffff00000000000000000000000063ffffffff60e01b4260e01b1694861691891b16179160b01b161717600b5560405192835260208301526040820152a1565b6335278d1290526004601cfd5b634e487b7160e01b82526011600452602482fd5b50505050505050565b508515611f82565b90610d2c816120d393611e80565b600654808211156121155790612110612107611f21936121016120f860045483612a4b565b60035490611e80565b93611ea3565b60055490612a4b565b611e80565b506120f8611f219160045490612a4b565b9190916001600160a01b0390816002541690811561219457813b156107cf5760006064928195604051978896879563d98320d560e01b8752166004860152602485015260448401525af180156121885761217d5750565b61218690611cca565b565b6040513d6000823e3d90fd5b5050505050565b604051636eb1769f60e11b81523060048201526001600160a01b03831660248201529190602083806044810103816001600160a01b0385165afa92831561218857600093612237575b50600019809310156122325760106000604492602095829560145260345263095ea7b360601b82525af13d15600160005114171615612224576000603452565b633e3f8f736000526004601cfd5b505050565b90926020823d8211612262575b8161225160209383611d10565b8101031261097b57505191386121e4565b3d9150612244565b604051636eb1769f60e11b815230600482015273ec8fea79026ffed168ccf5c627c7f486d77b765f6024820181905290916020836044816001600160a01b0385165afa928315612188576000936122375750600019809310156122325760106000604492602095829560145260345263095ea7b360601b82525af13d15600160005114171615612224576000603452565b604051636eb1769f60e11b815230600482015273dc05d85069dc4aba65954008ff99f2d73ff1261860248201819052731db2466d9f5e10d7090e7152b68d62703a2245f0602083604481845afa928315612188576000936122375750600019809310156122325760106000604492602095829560145260345263095ea7b360601b82525af13d15600160005114171615612224576000603452565b67ffffffffffffffff8111611cde5760051b60200190565b80518210156123c25760209160051b010190565b634e487b7160e01b600052603260045260246000fd5b6000198114611e8d5760010190565b908160209103126107cf57516001600160a01b03811681036107cf5790565b600090604090815161241781611cf4565b600181526020928382018436823782511561277d5773ec8fea79026ffed168ccf5c627c7f486d77b765f90527360cf091cd3f50420d50fd7f707414d0df4751c5891823b15610ea157815162e1ed9760e51b81528681600495308783015281838161248d6024988a8a8401526044830190611bfc565b03925af1801561277357612760575b50815163d1058e5960e01b815273dc05d85069dc4aba65954008ff99f2d73ff12618969081818681838c5af19081156127565782916126c2575b50306014526f70a0823100000000000000000000000082528680846010731db2466d9f5e10d7090e7152b68d62703a2245f05afa601f3d111687510280612670575b5051926000199283850194851161265f5761253285612396565b9261253f83519485611d10565b858452601f19948561255088612396565b01368b870137849a61256188612396565b9661256e86519889611d10565b88885261257a89612396565b01368c890137869a60015b8981111561259a575050505050505050505050565b86516327b2595f60e11b81528b81018290528281888189885af1908115612655578691612628575b5084820190828211612616579061260b6126048b61261195946125e585836123ae565b6001600160a01b0380921690526125fd8530936123ae565b5116612b39565b918c6123ae565b526123d8565b612585565b634e487b7160e01b875260118d528787fd5b6126489150833d851161264e575b6126408183611d10565b8101906123e7565b386125c2565b503d612636565b88513d88823e3d90fd5b634e487b7160e01b83526011865282fd5b883b156105345784519063140e25ad60e31b82528682015282818581838d5af180156126b8579083916126a4575b50612518565b6126ad90611cca565b6102a457813861269e565b85513d85823e3d90fd5b90503d8083833e6126d38183611d10565b81019087818303126105345780519067ffffffffffffffff8211610fc357019080601f8301121561053457815161270981612396565b9261271687519485611d10565b818452898085019260051b8201019283116127525789809101915b8383106127425750505050386124d6565b82518152918101918a9101612731565b8480fd5b84513d84823e3d90fd5b61276c90969196611cca565b943861249c565b83513d89823e3d90fd5b634e487b7160e01b86526032600452602486fd5b6040519063140e25ad60e31b82526004820152602081602481600073ec8fea79026ffed168ccf5c627c7f486d77b765f5af1908115612188576000916127eb575b506127d957565b6040516339d7be8d60e21b8152600490fd5b906020823d8211612814575b8161280460209383611d10565b8101031261097b575051386127d2565b3d91506127f7565b6040516303e1469160e61b81526001600160a01b03906020816004817f000000000000000000000000000000000000000000000000000000000000000086165afa90811561218857600091612888575b5016330361287657565b6040516331d63ad160e11b8152600490fd5b6128a0915060203d811161264e576126408183611d10565b3861286c565b6805345cdf77eb68f44c54600090806128c7575050670de0b6b3a764000090565b6001600160a01b03611f21925460081c16612a76565b7f3145c2b643834867f2c0a8cac8a48218307687911615c0ed01412a09dd163b66602061291061290b612967565b612ab9565b6000547fffffffffffffffffffffff0000000000000000000000000000000000000000ff74ffffffffffffffffffffffffffffffffffffffff008360081b169116176000556001600160a01b0360405191168152a1565b604051633af9e66960e01b8152306004820152602081602481600073ec8fea79026ffed168ccf5c627c7f486d77b765f5af1908115612188576000916129ab575090565b906020823d82116129d1575b816129c460209383611d10565b8101031261097b57505190565b3d91506129b7565b60a06040516129e6611d32565b602081519101207f8b73c3c69bb8fe3d512ecc4cf759cc79239f7b179b0ffacaa9a75d522b39400f825260208201527fc89efdaa54c0f20c7adf612882df0950f5a951637e0307cdcb4c672f298b8bc660408201524660608201523060808201522090565b90806000190482118102612a6857670de0b6b3a764000091020490565b63bac65e5b6000526004601cfd5b670de0b6b3a7640000907812725dd1d243aba0e75fe645cc4873f9e65afe688c928e1f218111820215830215612aab57020490565b637c5f487d6000526004601cfd5b74010000000000000000000000000000000000000000811015612ae2576001600160a01b031690565b6335278d126000526004601cfd5b60109260209260145260345260446000938480936fa9059cbb00000000000000000000000082525af13d156001835114171615612b2c57603452565b6390b8ec1890526004601cfd5b602460106020939284936014526f70a082310000000000000000000000006000525afa601f3d1116602051029056fea2646970667358221220fb4e7c51c8676a812412c7ce62ce6c17664ba81872bc4e9ce8035d5e3911e6d764736f6c63430008110033","opcodes":"PUSH2 0x100 DUP1 PUSH1 0x40 MSTORE CALLVALUE PUSH3 0x1D7 JUMPI PUSH1 0x0 DUP1 SLOAD PUSH1 0xFF NOT AND PUSH1 0x1 OR DUP2 SSTORE PUSH4 0x5A412E53 PUSH1 0xE0 SHL DUP1 DUP4 MSTORE PUSH1 0xA0 SWAP3 DUP4 DUP2 PUSH1 0x4 DUP2 DUP7 CALLER GAS CALL DUP1 ISZERO PUSH3 0x1CC JUMPI DUP4 SWAP2 DUP5 SWAP2 DUP6 SWAP2 DUP7 SWAP2 PUSH3 0x1A3 JUMPI JUMPDEST POP PUSH1 0xE0 MSTORE DUP6 MSTORE PUSH1 0xC0 MSTORE PUSH1 0x80 MSTORE PUSH8 0xBCBCE7F1B150000 PUSH1 0x6 SSTORE PUSH1 0x2 PUSH1 0x7 SSTORE PUSH8 0x214E8348C4F0000 PUSH1 0x8 SSTORE PUSH8 0xDE0B6B3A7640000 PUSH1 0x9 SSTORE PUSH1 0x40 MLOAD SWAP1 DUP2 MSTORE DUP3 DUP2 PUSH1 0x4 DUP2 DUP6 CALLER GAS CALL SWAP2 DUP3 ISZERO PUSH3 0x197 JUMPI SWAP2 PUSH3 0x15E JUMPI JUMPDEST POP PUSH1 0x1 DUP1 SLOAD PUSH1 0x1 PUSH1 0x1 PUSH1 0xA0 SHL SUB NOT AND PUSH1 0x1 PUSH1 0x1 PUSH1 0xA0 SHL SUB SWAP3 SWAP1 SWAP3 AND SWAP2 SWAP1 SWAP2 OR SWAP1 SSTORE PUSH1 0xB DUP1 SLOAD PUSH1 0x1 PUSH1 0x1 PUSH1 0x60 SHL SUB PUSH6 0xFFFFFFFFFFFF PUSH1 0xB0 SHL ADD AND TIMESTAMP PUSH1 0xE0 SHL PUSH1 0x1 PUSH1 0x1 PUSH1 0xE0 SHL SUB NOT AND OR PUSH6 0x3782DACE9D9 PUSH1 0x72 SHL OR SWAP1 SSTORE PUSH1 0x40 MLOAD PUSH2 0x2B9E SWAP2 DUP3 PUSH3 0x285 DUP4 CODECOPY PUSH1 0x80 MLOAD DUP3 DUP2 DUP2 PUSH2 0x2C7 ADD MSTORE PUSH2 0x283A ADD MSTORE MLOAD DUP2 PUSH2 0x375 ADD MSTORE PUSH1 0xC0 MLOAD DUP2 DUP2 DUP2 PUSH2 0x5BC ADD MSTORE DUP2 DUP2 PUSH2 0x72C ADD MSTORE DUP2 DUP2 PUSH2 0xA63 ADD MSTORE DUP2 DUP2 PUSH2 0xCD0 ADD MSTORE DUP2 DUP2 PUSH2 0x1121 ADD MSTORE DUP2 DUP2 PUSH2 0x1443 ADD MSTORE DUP2 DUP2 PUSH2 0x184A ADD MSTORE PUSH2 0x19A4 ADD MSTORE PUSH1 0xE0 MLOAD DUP2 DUP2 DUP2 PUSH2 0x5FD ADD MSTORE PUSH2 0x11DE ADD MSTORE RETURN JUMPDEST PUSH3 0x183 SWAP2 POP DUP3 RETURNDATASIZE DUP5 GT PUSH3 0x18F JUMPI JUMPDEST PUSH3 0x17A DUP2 DUP4 PUSH3 0x1DC JUMP JUMPDEST DUP2 ADD SWAP1 PUSH3 0x22B JUMP JUMPDEST POP POP SWAP2 POP POP CODESIZE PUSH3 0x98 JUMP JUMPDEST POP RETURNDATASIZE PUSH3 0x16E JUMP JUMPDEST PUSH1 0x40 MLOAD SWAP1 RETURNDATASIZE SWAP1 DUP3 RETURNDATACOPY RETURNDATASIZE SWAP1 REVERT JUMPDEST SWAP3 POP POP POP PUSH3 0x1C2 SWAP2 POP DUP5 RETURNDATASIZE DUP7 GT PUSH3 0x18F JUMPI PUSH3 0x17A DUP2 DUP4 PUSH3 0x1DC JUMP JUMPDEST SWAP2 POP SWAP1 CODESIZE PUSH3 0x45 JUMP JUMPDEST PUSH1 0x40 MLOAD RETURNDATASIZE DUP6 DUP3 RETURNDATACOPY RETURNDATASIZE SWAP1 REVERT JUMPDEST PUSH1 0x0 DUP1 REVERT JUMPDEST PUSH1 0x1F SWAP1 SWAP2 ADD PUSH1 0x1F NOT AND DUP2 ADD SWAP1 PUSH1 0x1 PUSH1 0x1 PUSH1 0x40 SHL SUB DUP3 GT SWAP1 DUP3 LT OR PUSH3 0x200 JUMPI PUSH1 0x40 MSTORE JUMP JUMPDEST PUSH4 0x4E487B71 PUSH1 0xE0 SHL PUSH1 0x0 MSTORE PUSH1 0x41 PUSH1 0x4 MSTORE PUSH1 0x24 PUSH1 0x0 REVERT JUMPDEST MLOAD SWAP1 PUSH1 0x1 PUSH1 0x1 PUSH1 0xA0 SHL SUB DUP3 AND DUP3 SUB PUSH3 0x1D7 JUMPI JUMP JUMPDEST SWAP2 SWAP1 DUP3 PUSH1 0xA0 SWAP2 SUB SLT PUSH3 0x1D7 JUMPI DUP2 MLOAD PUSH1 0x1 PUSH1 0x1 PUSH1 0xA0 SHL SUB SWAP1 DUP2 DUP2 AND DUP2 SUB PUSH3 0x1D7 JUMPI SWAP3 PUSH3 0x25C PUSH1 0x20 DUP3 ADD PUSH3 0x216 JUMP JUMPDEST SWAP3 PUSH3 0x26B PUSH1 0x40 DUP4 ADD PUSH3 0x216 JUMP JUMPDEST SWAP3 PUSH1 0x60 DUP4 ADD MLOAD SWAP1 DUP2 AND DUP2 SUB PUSH3 0x1D7 JUMPI PUSH1 0x80 SWAP1 SWAP3 ADD MLOAD SWAP1 JUMP INVALID PUSH1 0x80 PUSH1 0x40 DUP2 DUP2 MSTORE PUSH1 0x4 SWAP2 DUP3 CALLDATASIZE LT ISZERO PUSH2 0x16 JUMPI PUSH1 0x0 DUP1 REVERT JUMPDEST PUSH1 0x0 SWAP3 DUP4 CALLDATALOAD PUSH1 0xE0 SHR SWAP2 DUP3 PUSH4 0x572B0CC EQ PUSH2 0x1B6B JUMPI POP DUP2 PUSH4 0x6FDDE03 EQ PUSH2 0x1B42 JUMPI DUP2 PUSH4 0x95EA7B3 EQ PUSH2 0x1AD8 JUMPI DUP2 PUSH4 0x15DE1DAA EQ PUSH2 0x1942 JUMPI DUP2 PUSH4 0x18160DDD EQ PUSH2 0x191B JUMPI DUP2 PUSH4 0x182DF0F5 EQ PUSH2 0x18FC JUMPI DUP2 PUSH4 0x1AEBF12F EQ PUSH2 0x18DD JUMPI DUP2 PUSH4 0x1BE19560 EQ PUSH2 0x1803 JUMPI DUP2 PUSH4 0x1C446983 EQ PUSH2 0x179C JUMPI DUP2 PUSH4 0x1E44B7FC EQ PUSH2 0x15A1 JUMPI DUP2 PUSH4 0x23B872DD EQ PUSH2 0x14C1 JUMPI DUP2 PUSH4 0x313CE567 EQ PUSH2 0x1416 JUMPI DUP2 PUSH4 0x3644E515 EQ PUSH2 0x13F9 JUMPI DUP2 PUSH4 0x39509351 EQ PUSH2 0x1376 JUMPI DUP2 PUSH4 0x3BA0B9A9 EQ PUSH2 0x1359 JUMPI DUP2 PUSH4 0x42BF78AF EQ PUSH2 0x12D1 JUMPI DUP2 PUSH4 0x4322B714 EQ PUSH2 0x12B2 JUMPI DUP2 PUSH4 0x46F608FF EQ PUSH2 0x1294 JUMPI DUP2 PUSH4 0x47BD3718 EQ PUSH2 0x1267 JUMPI DUP2 PUSH4 0x4BDAEAC1 EQ PUSH2 0x123F JUMPI DUP2 PUSH4 0x5B322BBE EQ PUSH2 0x1201 JUMPI DUP2 PUSH4 0x5F77F891 EQ PUSH2 0x11C6 JUMPI DUP2 PUSH4 0x6AFDD850 EQ PUSH2 0x119C JUMPI DUP2 PUSH4 0x6C321C8A EQ PUSH2 0x1145 JUMPI DUP2 PUSH4 0x6F307DC3 EQ PUSH2 0x1101 JUMPI DUP2 PUSH4 0x70A08231 EQ PUSH2 0x10CD JUMPI DUP2 PUSH4 0x72CF84A7 EQ PUSH2 0x10AE JUMPI DUP2 PUSH4 0x7D6AF079 EQ PUSH2 0x1088 JUMPI DUP2 PUSH4 0x7ECEBE00 EQ PUSH2 0x1054 JUMPI DUP2 PUSH4 0x81F5B6F4 EQ PUSH2 0xFC7 JUMPI DUP2 PUSH4 0x8808E71C EQ PUSH2 0xBFE JUMPI DUP2 PUSH4 0x94E1373C EQ PUSH2 0xBAD JUMPI DUP2 PUSH4 0x95D89B41 EQ PUSH2 0xA3D JUMPI DUP2 PUSH4 0x9B510998 EQ PUSH2 0xA1E JUMPI DUP2 PUSH4 0xA457C2D7 EQ PUSH2 0x99A JUMPI DUP2 PUSH4 0xA6AFED95 EQ PUSH2 0x97E JUMPI DUP2 PUSH4 0xA9059CBB EQ PUSH2 0x8FB JUMPI DUP2 PUSH4 0xAA5AF0FD EQ PUSH2 0x8CD JUMPI DUP2 PUSH4 0xAD168C9D EQ PUSH2 0x8A5 JUMPI DUP2 PUSH4 0xAD2961A3 EQ PUSH2 0x881 JUMPI DUP2 PUSH4 0xAD7A672F EQ PUSH2 0x858 JUMPI DUP2 PUSH4 0xB5F3C95B EQ PUSH2 0x839 JUMPI DUP2 PUSH4 0xBA087652 EQ PUSH2 0x62A JUMPI DUP2 PUSH4 0xBCBC3320 EQ PUSH2 0x584 JUMPI DUP2 PUSH4 0xC0789DCB EQ PUSH2 0x562 JUMPI DUP2 PUSH4 0xC914B437 EQ PUSH2 0x538 JUMPI DUP2 PUSH4 0xD505ACCF EQ PUSH2 0x3DE JUMPI POP DUP1 PUSH4 0xD8DFEB45 EQ PUSH2 0x3B7 JUMPI DUP1 PUSH4 0xD90E0264 EQ PUSH2 0x399 JUMPI DUP1 PUSH4 0xD935BD92 EQ PUSH2 0x356 JUMPI DUP1 PUSH4 0xDCC3E06E EQ PUSH2 0x328 JUMPI DUP1 PUSH4 0xDD62ED3E EQ PUSH2 0x2EB JUMPI DUP1 PUSH4 0xE8A24E1D EQ PUSH2 0x2A8 JUMPI PUSH4 0xF7C618C1 EQ PUSH2 0x277 JUMPI PUSH1 0x0 DUP1 REVERT JUMPDEST CALLVALUE PUSH2 0x2A4 JUMPI DUP2 PUSH1 0x3 NOT CALLDATASIZE ADD SLT PUSH2 0x2A4 JUMPI PUSH1 0x20 SWAP1 MLOAD PUSH20 0x1DB2466D9F5E10D7090E7152B68D62703A2245F0 DUP2 MSTORE RETURN JUMPDEST POP DUP1 REVERT JUMPDEST POP CALLVALUE PUSH2 0x2A4 JUMPI DUP2 PUSH1 0x3 NOT CALLDATASIZE ADD SLT PUSH2 0x2A4 JUMPI PUSH1 0x20 SWAP1 MLOAD PUSH1 0x1 PUSH1 0x1 PUSH1 0xA0 SHL SUB PUSH32 0x0 AND DUP2 MSTORE RETURN JUMPDEST POP CALLVALUE PUSH2 0x2A4 JUMPI DUP1 PUSH1 0x3 NOT CALLDATASIZE ADD SLT PUSH2 0x2A4 JUMPI PUSH1 0x20 SWAP2 PUSH2 0x307 PUSH2 0x1C88 JUMP JUMPDEST SWAP1 PUSH2 0x310 PUSH2 0x1C9E JUMP JUMPDEST DUP5 MSTORE PUSH4 0x7F5E9F20 PUSH1 0xC MSTORE MSTORE PUSH1 0x34 PUSH1 0xC KECCAK256 SLOAD SWAP1 MLOAD SWAP1 DUP2 MSTORE RETURN JUMPDEST POP CALLVALUE PUSH2 0x2A4 JUMPI DUP2 PUSH1 0x3 NOT CALLDATASIZE ADD SLT PUSH2 0x2A4 JUMPI PUSH1 0x20 SWAP1 MLOAD PUSH20 0x60CF091CD3F50420D50FD7F707414D0DF4751C58 DUP2 MSTORE RETURN JUMPDEST POP CALLVALUE PUSH2 0x2A4 JUMPI DUP2 PUSH1 0x3 NOT CALLDATASIZE ADD SLT PUSH2 0x2A4 JUMPI PUSH1 0x20 SWAP1 MLOAD PUSH1 0x1 PUSH1 0x1 PUSH1 0xA0 SHL SUB PUSH32 0x0 AND DUP2 MSTORE RETURN JUMPDEST POP CALLVALUE PUSH2 0x2A4 JUMPI DUP2 PUSH1 0x3 NOT CALLDATASIZE ADD SLT PUSH2 0x2A4 JUMPI PUSH1 0x20 SWAP1 PUSH1 0x3 SLOAD SWAP1 MLOAD SWAP1 DUP2 MSTORE RETURN JUMPDEST POP CALLVALUE PUSH2 0x2A4 JUMPI DUP2 PUSH1 0x3 NOT CALLDATASIZE ADD SLT PUSH2 0x2A4 JUMPI PUSH1 0x20 SWAP1 PUSH1 0x1 PUSH1 0x1 PUSH1 0xA0 SHL SUB PUSH1 0x1 SLOAD AND SWAP1 MLOAD SWAP1 DUP2 MSTORE RETURN JUMPDEST SWAP2 SWAP1 POP CALLVALUE PUSH2 0x534 JUMPI PUSH1 0xE0 CALLDATASIZE PUSH1 0x3 NOT ADD SLT PUSH2 0x534 JUMPI PUSH2 0x3FA PUSH2 0x1C88 JUMP JUMPDEST SWAP2 PUSH2 0x403 PUSH2 0x1C9E JUMP JUMPDEST PUSH1 0x84 CALLDATALOAD SWAP2 PUSH1 0x64 CALLDATALOAD PUSH1 0x44 CALLDATALOAD PUSH1 0xFF DUP6 AND DUP6 SUB PUSH2 0x530 JUMPI PUSH2 0x41F PUSH2 0x29D9 JUMP JUMPDEST SWAP3 DUP7 MLOAD SWAP8 DUP4 TIMESTAMP GT PUSH2 0x524 JUMPI PUSH1 0x1 PUSH1 0x1 PUSH1 0xA0 SHL SUB DUP1 SWAP2 AND SWAP6 AND SWAP6 PUSH4 0x38377508 PUSH1 0xC MSTORE DUP6 DUP11 MSTORE PUSH1 0x20 SWAP5 DUP6 PUSH1 0xC KECCAK256 SWAP5 DUP6 SLOAD SWAP6 PUSH1 0x1 DUP8 ADD SWAP1 SSTORE PUSH32 0x6E71EDAE12B1B97F4D1F60370FEF10105FA2FAAE0126114A169C64845D6126C9 DUP12 MSTORE DUP8 DUP8 DUP13 ADD MSTORE DUP9 DUP11 DUP13 ADD MSTORE PUSH1 0x60 DUP12 ADD SWAP6 DUP6 DUP8 MSTORE PUSH1 0x80 DUP13 ADD MSTORE PUSH1 0xA0 DUP12 ADD MSTORE PUSH2 0x1901 DUP12 MSTORE DUP6 MSTORE PUSH1 0xC0 DUP10 KECCAK256 DUP9 MSTORE PUSH1 0x42 PUSH1 0x1E KECCAK256 DUP11 MSTORE PUSH1 0xFF AND DUP5 MSTORE PUSH1 0xA4 CALLDATALOAD DUP8 MSTORE PUSH1 0xC4 CALLDATALOAD PUSH1 0x60 MSTORE DUP4 DUP1 PUSH1 0x80 DUP12 PUSH1 0x1 GAS STATICCALL POP DUP5 RETURNDATASIZE MLOAD SUB PUSH2 0x519 JUMPI POP PUSH24 0x7F5E9F200000000000000000000000000000000000000000 DUP6 OR DUP7 MSTORE PUSH1 0x34 PUSH1 0x2C KECCAK256 SSTORE PUSH32 0x8C5BE1E5EBEC7D5BD14F71427D1E84F3DD0314C0F7B2291E5B200AC8C7C3B925 SWAP2 SWAP1 LOG3 MSTORE DUP1 PUSH1 0x60 MSTORE DUP1 RETURN JUMPDEST PUSH4 0xDDAFBAEF DUP10 MSTORE PUSH1 0x1C REVERT JUMPDEST POP PUSH4 0x1A15A3CC DUP10 MSTORE PUSH1 0x1C REVERT JUMPDEST DUP8 DUP1 REVERT JUMPDEST DUP3 DUP1 REVERT JUMPDEST POP POP CALLVALUE PUSH2 0x2A4 JUMPI DUP2 PUSH1 0x3 NOT CALLDATASIZE ADD SLT PUSH2 0x2A4 JUMPI PUSH1 0x20 SWAP1 PUSH6 0xFFFFFFFFFFFF PUSH1 0xB SLOAD PUSH1 0xB0 SHR AND SWAP1 MLOAD SWAP1 DUP2 MSTORE RETURN JUMPDEST POP POP CALLVALUE PUSH2 0x2A4 JUMPI DUP2 PUSH1 0x3 NOT CALLDATASIZE ADD SLT PUSH2 0x2A4 JUMPI PUSH1 0x20 SWAP1 PUSH1 0xB SLOAD PUSH1 0xE0 SHR SWAP1 MLOAD SWAP1 DUP2 MSTORE RETURN JUMPDEST POP POP CALLVALUE PUSH2 0x2A4 JUMPI DUP2 PUSH1 0x3 NOT CALLDATASIZE ADD SLT PUSH2 0x2A4 JUMPI PUSH1 0x60 PUSH32 0x98CCEBAE89F16F152C93C6A0CDC0D99913B9E62A9FC612471C21FFC299C389FD SWAP2 PUSH32 0x0 SWAP1 PUSH2 0x5E5 DUP3 PUSH2 0x226A JUMP JUMPDEST PUSH2 0x5ED PUSH2 0x22FB JUMP JUMPDEST PUSH1 0x1 PUSH1 0x1 PUSH1 0xA0 SHL SUB DUP2 MLOAD SWAP3 AND DUP3 MSTORE PUSH32 0x0 PUSH1 0x20 DUP4 ADD MSTORE CALLER SWAP1 DUP3 ADD MSTORE LOG1 DUP1 RETURN JUMPDEST SWAP2 SWAP1 POP CALLVALUE PUSH2 0x534 JUMPI PUSH1 0x60 CALLDATASIZE PUSH1 0x3 NOT ADD SLT PUSH2 0x534 JUMPI DUP2 CALLDATALOAD SWAP3 PUSH2 0x649 PUSH2 0x1C9E JUMP JUMPDEST SWAP4 PUSH2 0x652 PUSH2 0x1CB4 JUMP JUMPDEST SWAP5 PUSH2 0x65B PUSH2 0x28DD JUMP JUMPDEST PUSH1 0x1 PUSH1 0x1 PUSH1 0xA0 SHL SUB SWAP1 DUP2 DUP8 AND SWAP4 DUP5 CALLER SUB PUSH2 0x7F3 JUMPI JUMPDEST PUSH2 0x681 PUSH2 0x67B PUSH2 0x28A6 JUMP JUMPDEST DUP6 PUSH2 0x2A4B JUMP JUMPDEST SWAP7 DUP8 ISZERO PUSH2 0x7E5 JUMPI DUP7 MLOAD PUSH4 0x852A12E3 PUSH1 0xE0 SHL DUP2 MSTORE DUP2 DUP2 ADD DUP10 SWAP1 MSTORE PUSH1 0x20 SWAP10 SWAP1 DUP11 DUP2 PUSH1 0x24 DUP2 DUP8 PUSH20 0xEC8FEA79026FFED168CCF5C627C7F486D77B765F GAS CALL SWAP1 DUP2 ISZERO PUSH2 0x7DB JUMPI DUP5 SWAP2 PUSH2 0x7A9 JUMPI JUMPDEST POP PUSH2 0x79A JUMPI PUSH4 0x87A211A2 PUSH1 0xC MSTORE DUP3 MSTORE DUP9 PUSH1 0xC KECCAK256 SWAP1 DUP2 SLOAD SWAP1 DUP2 DUP8 GT PUSH2 0x78F JUMPI POP DUP6 SWAP1 SUB SWAP1 SSTORE PUSH9 0x5345CDF77EB68F44C DUP5 DUP2 SLOAD SUB SWAP1 SSTORE DUP4 DUP2 MSTORE DUP5 PUSH32 0xDDF252AD1BE2C89B69C2B068FC378DAA952BA7F163C4A11628F55A4DF523B3EF DUP10 DUP4 LOG3 PUSH2 0x750 DUP7 DUP3 PUSH32 0x0 PUSH2 0x2AF0 JUMP JUMPDEST DUP5 MLOAD SWAP3 DUP7 DUP5 MSTORE DUP8 DUP5 ADD MSTORE AND SWAP1 PUSH32 0xFBDE797D201C681B91056529119E0B02407C7BB96A4A2C75C01FC9667232C8DB DUP5 CALLER SWAP3 LOG4 PUSH2 0x789 PUSH2 0x28DD JUMP JUMPDEST MLOAD SWAP1 DUP2 MSTORE RETURN JUMPDEST PUSH4 0xF4D678B8 DUP5 MSTORE PUSH1 0x1C REVERT JUMPDEST POP DUP7 MLOAD PUSH4 0x39D7BE8D PUSH1 0xE2 SHL DUP2 MSTORE REVERT JUMPDEST SWAP1 POP DUP11 DUP2 DUP2 RETURNDATASIZE DUP4 GT PUSH2 0x7D4 JUMPI JUMPDEST PUSH2 0x7C0 DUP2 DUP4 PUSH2 0x1D10 JUMP JUMPDEST DUP2 ADD SUB SLT PUSH2 0x7CF JUMPI MLOAD CODESIZE PUSH2 0x6C9 JUMP JUMPDEST PUSH1 0x0 DUP1 REVERT JUMPDEST POP RETURNDATASIZE PUSH2 0x7B6 JUMP JUMPDEST DUP10 MLOAD RETURNDATASIZE DUP7 DUP3 RETURNDATACOPY RETURNDATASIZE SWAP1 REVERT JUMPDEST DUP7 MLOAD PUSH4 0xE3E8D297 PUSH1 0xE0 SHL DUP2 MSTORE REVERT JUMPDEST CALLER PUSH1 0x20 MSTORE PUSH4 0x7F5E9F20 PUSH1 0xC MSTORE DUP8 DUP2 MSTORE PUSH1 0x34 PUSH1 0xC KECCAK256 DUP1 SLOAD PUSH1 0x0 NOT DUP2 SUB PUSH2 0x81A JUMPI JUMPDEST POP POP PUSH2 0x670 JUMP JUMPDEST DUP1 DUP7 GT PUSH2 0x82D JUMPI DUP6 SWAP1 SUB SWAP1 SSTORE CODESIZE DUP1 PUSH2 0x813 JUMP JUMPDEST DUP9 PUSH4 0x13BE252B DUP5 MSTORE PUSH1 0x1C REVERT JUMPDEST POP POP CALLVALUE PUSH2 0x2A4 JUMPI DUP2 PUSH1 0x3 NOT CALLDATASIZE ADD SLT PUSH2 0x2A4 JUMPI PUSH1 0x20 SWAP1 PUSH1 0xD SLOAD SWAP1 MLOAD SWAP1 DUP2 MSTORE RETURN JUMPDEST POP POP CALLVALUE PUSH2 0x2A4 JUMPI DUP2 PUSH1 0x3 NOT CALLDATASIZE ADD SLT PUSH2 0x2A4 JUMPI PUSH1 0x1 PUSH1 0x1 PUSH1 0xA0 SHL SUB PUSH1 0x20 SWAP3 SLOAD PUSH1 0x8 SHR AND SWAP1 MLOAD SWAP1 DUP2 MSTORE RETURN JUMPDEST POP POP CALLVALUE PUSH2 0x2A4 JUMPI DUP2 PUSH1 0x3 NOT CALLDATASIZE ADD SLT PUSH2 0x2A4 JUMPI PUSH1 0x20 SWAP1 PUSH2 0x89E PUSH2 0x1EB0 JUMP JUMPDEST SWAP1 MLOAD SWAP1 DUP2 MSTORE RETURN JUMPDEST POP POP CALLVALUE PUSH2 0x2A4 JUMPI DUP2 PUSH1 0x3 NOT CALLDATASIZE ADD SLT PUSH2 0x2A4 JUMPI PUSH1 0x20 SWAP1 PUSH1 0x1 PUSH1 0x1 PUSH1 0xA0 SHL SUB PUSH1 0x2 SLOAD AND SWAP1 MLOAD SWAP1 DUP2 MSTORE RETURN JUMPDEST POP POP CALLVALUE PUSH2 0x2A4 JUMPI DUP2 PUSH1 0x3 NOT CALLDATASIZE ADD SLT PUSH2 0x2A4 JUMPI PUSH1 0x20 SWAP1 PUSH10 0xFFFFFFFFFFFFFFFFFFFF PUSH1 0xB SLOAD PUSH1 0x60 SHR AND SWAP1 MLOAD SWAP1 DUP2 MSTORE RETURN JUMPDEST DUP3 DUP5 CALLVALUE PUSH2 0x97B JUMPI DUP2 PUSH1 0x3 NOT CALLDATASIZE ADD SLT PUSH2 0x97B JUMPI PUSH2 0x915 PUSH2 0x1C88 JUMP JUMPDEST PUSH1 0x24 CALLDATALOAD SWAP2 PUSH4 0x87A211A2 PUSH1 0xC MSTORE CALLER DUP2 MSTORE PUSH1 0x20 SWAP5 DUP6 PUSH1 0xC KECCAK256 SWAP1 DUP2 SLOAD SWAP1 DUP2 DUP7 GT PUSH2 0x78F JUMPI POP DUP5 SWAP1 SUB SWAP1 SSTORE MSTORE DUP3 PUSH1 0xC KECCAK256 DUP2 DUP2 SLOAD ADD SWAP1 SSTORE DUP3 MSTORE PUSH1 0xC MLOAD PUSH1 0x60 SHR CALLER PUSH32 0xDDF252AD1BE2C89B69C2B068FC378DAA952BA7F163C4A11628F55A4DF523B3EF DUP5 DUP1 LOG3 MLOAD PUSH1 0x1 DUP2 MSTORE RETURN JUMPDEST DUP1 REVERT JUMPDEST DUP4 CALLVALUE PUSH2 0x97B JUMPI DUP1 PUSH1 0x3 NOT CALLDATASIZE ADD SLT PUSH2 0x97B JUMPI PUSH2 0x997 PUSH2 0x1F2C JUMP JUMPDEST DUP1 RETURN JUMPDEST DUP3 DUP5 CALLVALUE PUSH2 0x97B JUMPI DUP2 PUSH1 0x3 NOT CALLDATASIZE ADD SLT PUSH2 0x97B JUMPI PUSH2 0x9B4 PUSH2 0x1C88 JUMP JUMPDEST PUSH1 0x24 CALLDATALOAD SWAP1 PUSH1 0x20 MSTORE PUSH4 0x7F5E9F20 PUSH1 0xC MSTORE CALLER DUP3 MSTORE PUSH1 0x34 PUSH1 0xC KECCAK256 SWAP1 DUP2 SLOAD DUP2 DUP2 LT PUSH2 0xA12 JUMPI PUSH1 0x20 SWAP6 POP SUB DUP1 SWAP2 SSTORE DUP2 MSTORE PUSH1 0x2C MLOAD PUSH1 0x60 SHR SWAP1 PUSH32 0x8C5BE1E5EBEC7D5BD14F71427D1E84F3DD0314C0F7B2291E5B200AC8C7C3B925 DUP5 CALLER SWAP3 LOG3 MLOAD PUSH1 0x1 DUP2 MSTORE RETURN JUMPDEST DUP6 PUSH4 0x8301AB38 DUP6 MSTORE PUSH1 0x1C REVERT JUMPDEST POP POP CALLVALUE PUSH2 0x2A4 JUMPI DUP2 PUSH1 0x3 NOT CALLDATASIZE ADD SLT PUSH2 0x2A4 JUMPI PUSH1 0x20 SWAP1 PUSH1 0x7 SLOAD SWAP1 MLOAD SWAP1 DUP2 MSTORE RETURN JUMPDEST SWAP2 SWAP1 POP CALLVALUE PUSH2 0x534 JUMPI DUP3 PUSH1 0x3 NOT CALLDATASIZE ADD SLT PUSH2 0x534 JUMPI DUP1 MLOAD PUSH4 0x95D89B41 PUSH1 0xE0 SHL DUP2 MSTORE SWAP3 DUP1 DUP5 DUP5 DUP2 PUSH32 0x0 PUSH1 0x1 PUSH1 0x1 PUSH1 0xA0 SHL SUB AND GAS STATICCALL SWAP3 DUP4 ISZERO PUSH2 0xBA1 JUMPI DUP2 SWAP4 PUSH2 0xB00 JUMPI JUMPDEST PUSH2 0xAFC DUP5 DUP5 PUSH2 0xAF2 PUSH1 0x28 DUP3 MLOAD DUP1 SWAP5 PUSH32 0x4379675553443A20000000000000000000000000000000000000000000000000 PUSH1 0x20 DUP4 ADD MSTORE PUSH2 0xAE2 DUP2 MLOAD DUP1 SWAP3 PUSH1 0x20 DUP7 DUP7 ADD SWAP2 ADD PUSH2 0x1C39 JUMP JUMPDEST DUP2 ADD SUB PUSH1 0x8 DUP2 ADD DUP6 MSTORE ADD DUP4 PUSH2 0x1D10 JUMP JUMPDEST MLOAD SWAP2 DUP3 SWAP2 DUP3 PUSH2 0x1C5C JUMP JUMPDEST SUB SWAP1 RETURN JUMPDEST SWAP1 SWAP2 SWAP3 POP RETURNDATASIZE DUP1 DUP4 DUP7 RETURNDATACOPY PUSH2 0xB13 DUP2 DUP7 PUSH2 0x1D10 JUMP JUMPDEST DUP5 ADD SWAP2 PUSH1 0x20 DUP6 DUP5 SUB SLT PUSH2 0x97B JUMPI DUP5 MLOAD PUSH8 0xFFFFFFFFFFFFFFFF SWAP6 DUP7 DUP3 GT PUSH2 0x534 JUMPI ADD SWAP2 DUP4 PUSH1 0x1F DUP5 ADD SLT ISZERO PUSH2 0x2A4 JUMPI DUP3 MLOAD SWAP6 DUP7 GT PUSH2 0xB8C JUMPI POP DUP4 MLOAD SWAP3 PUSH2 0xB61 PUSH1 0x1F DUP8 ADD PUSH1 0x1F NOT AND PUSH1 0x20 ADD DUP6 PUSH2 0x1D10 JUMP JUMPDEST DUP6 DUP5 MSTORE PUSH1 0x20 DUP7 DUP5 ADD ADD GT PUSH2 0x97B JUMPI POP PUSH2 0xAFC SWAP4 PUSH2 0xB84 SWAP2 PUSH1 0x20 DUP1 DUP6 ADD SWAP2 ADD PUSH2 0x1C39 JUMP JUMPDEST SWAP1 CODESIZE DUP1 PUSH2 0xA9B JUMP JUMPDEST PUSH1 0x41 SWAP1 PUSH4 0x4E487B71 PUSH1 0xE0 SHL PUSH1 0x0 MSTORE MSTORE PUSH1 0x24 PUSH1 0x0 REVERT JUMPDEST POP SWAP1 MLOAD SWAP1 RETURNDATASIZE SWAP1 DUP3 RETURNDATACOPY RETURNDATASIZE SWAP1 REVERT JUMPDEST POP POP CALLVALUE PUSH2 0x2A4 JUMPI PUSH1 0x20 CALLDATASIZE PUSH1 0x3 NOT ADD SLT PUSH2 0x2A4 JUMPI DUP1 SWAP2 PUSH1 0x1 PUSH1 0x1 PUSH1 0xA0 SHL SUB PUSH2 0xBD2 PUSH2 0x1C88 JUMP JUMPDEST AND DUP2 MSTORE PUSH1 0xA PUSH1 0x20 MSTORE KECCAK256 SLOAD DUP2 MLOAD SWAP1 PUSH16 0xFFFFFFFFFFFFFFFFFFFFFFFFFFFFFFFF DUP2 AND DUP3 MSTORE PUSH1 0x80 SHR PUSH1 0x20 DUP3 ADD MSTORE RETURN JUMPDEST DUP4 DUP4 CALLVALUE PUSH2 0x2A4 JUMPI PUSH2 0x120 CALLDATASIZE PUSH1 0x3 NOT ADD SLT PUSH2 0x2A4 JUMPI DUP3 CALLDATALOAD PUSH2 0xC1C PUSH2 0x1C9E JUMP JUMPDEST SWAP4 PUSH1 0xC0 CALLDATASIZE PUSH1 0x43 NOT ADD SLT PUSH2 0xFC3 JUMPI PUSH2 0x104 SWAP1 DUP2 CALLDATALOAD SWAP2 PUSH8 0xFFFFFFFFFFFFFFFF DUP1 DUP5 GT PUSH2 0xEAF JUMPI CALLDATASIZE PUSH1 0x23 DUP6 ADD SLT ISZERO PUSH2 0xEAF JUMPI DUP4 DUP4 ADD CALLDATALOAD SWAP1 DUP2 GT PUSH2 0xEAF JUMPI CALLDATASIZE PUSH1 0x24 DUP3 DUP7 ADD ADD GT PUSH2 0xEAF JUMPI PUSH2 0xC6A PUSH2 0x28DD JUMP JUMPDEST PUSH2 0xC72 PUSH2 0x2967 JUMP JUMPDEST SWAP4 DUP2 PUSH2 0xEB3 JUMPI JUMPDEST POP POP POP PUSH2 0xC85 DUP4 PUSH2 0x2AB9 JUMP JUMPDEST SWAP2 PUSH15 0x22D473030F116DDEE9F6B43AC78BA3 DUP1 EXTCODESIZE ISZERO PUSH2 0xEAF JUMPI DUP7 DUP1 SWAP2 PUSH1 0x84 DUP9 MLOAD DUP1 SWAP5 DUP2 SWAP4 PUSH4 0x1B63C28B PUSH1 0xE1 SHL DUP4 MSTORE CALLER DUP10 DUP5 ADD MSTORE ADDRESS PUSH1 0x24 DUP5 ADD MSTORE PUSH1 0x1 PUSH1 0x1 PUSH1 0xA0 SHL SUB DUP1 SWAP11 AND PUSH1 0x44 DUP5 ADD MSTORE DUP10 PUSH32 0x0 AND PUSH1 0x64 DUP5 ADD MSTORE GAS CALL DUP1 ISZERO PUSH2 0xEA5 JUMPI SWAP1 DUP8 SWAP2 PUSH2 0xE8D JUMPI JUMPDEST POP POP PUSH2 0xD24 PUSH2 0xD32 SWAP2 PUSH2 0xD17 DUP7 PUSH2 0x2791 JUMP JUMPDEST PUSH2 0xD1F PUSH2 0x2967 JUMP JUMPDEST PUSH2 0x1EA3 JUMP JUMPDEST PUSH2 0xD2C PUSH2 0x28A6 JUMP JUMPDEST SWAP1 PUSH2 0x2A76 JUMP JUMPDEST SWAP5 DUP6 ISZERO PUSH2 0xE7E JUMPI PUSH9 0x5345CDF77EB68F44C SWAP1 DUP2 SLOAD SWAP1 DUP2 ISZERO PUSH2 0xDEC JUMPI JUMPDEST POP POP DUP1 SLOAD SWAP2 DUP7 DUP4 ADD SWAP3 DUP4 LT PUSH2 0xDE0 JUMPI POP SSTORE PUSH4 0x87A211A2 PUSH1 0xC MSTORE DUP5 PUSH1 0x0 MSTORE PUSH1 0x20 SWAP5 DUP6 PUSH1 0xC KECCAK256 DUP6 DUP2 SLOAD ADD SWAP1 SSTORE DUP5 DUP7 MSTORE PUSH1 0xC MLOAD PUSH1 0x60 SHR PUSH1 0x0 PUSH32 0xDDF252AD1BE2C89B69C2B068FC378DAA952BA7F163C4A11628F55A4DF523B3EF DUP9 DUP1 LOG3 DUP4 MLOAD SWAP3 DUP4 MSTORE DUP5 DUP7 DUP5 ADD MSTORE AND SWAP1 PUSH32 0xDCBC1C05240F31FF3AD067EF1EE35CE4997762752E3A095284754544F4C709D7 DUP4 CALLER SWAP3 LOG3 PUSH2 0x789 PUSH2 0x28DD JUMP JUMPDEST PUSH4 0xE5CFE957 PUSH1 0x0 MSTORE PUSH1 0x1C REVERT JUMPDEST SWAP1 SWAP7 PUSH2 0x3E7 NOT DUP2 ADD SWAP2 SWAP1 DUP3 GT PUSH2 0xE6B JUMPI POP SWAP6 PUSH2 0x3E8 SWAP1 DUP2 DUP2 ADD SWAP1 DUP2 LT PUSH2 0xE5E JUMPI DUP3 SSTORE PUSH4 0x87A211A2 PUSH1 0xC MSTORE PUSH2 0xDEAD PUSH1 0x0 MSTORE PUSH1 0x20 PUSH1 0xC KECCAK256 DUP2 DUP2 SLOAD ADD SWAP1 SSTORE PUSH1 0x20 MSTORE PUSH1 0xC MLOAD PUSH1 0x60 SHR PUSH1 0x0 PUSH32 0xDDF252AD1BE2C89B69C2B068FC378DAA952BA7F163C4A11628F55A4DF523B3EF PUSH1 0x20 DUP1 LOG3 DUP8 DUP1 PUSH2 0xD4E JUMP JUMPDEST DUP4 PUSH4 0xE5CFE957 PUSH1 0x0 MSTORE PUSH1 0x1C REVERT JUMPDEST PUSH4 0x4E487B71 PUSH1 0xE0 SHL DUP2 MSTORE PUSH1 0x11 DUP5 MSTORE PUSH1 0x24 SWAP1 REVERT JUMPDEST POP DUP4 MLOAD PUSH4 0xF1CA48B1 PUSH1 0xE0 SHL DUP2 MSTORE REVERT JUMPDEST PUSH2 0xE96 SWAP1 PUSH2 0x1CCA JUMP JUMPDEST PUSH2 0xEA1 JUMPI DUP6 DUP9 PUSH2 0xD05 JUMP JUMPDEST DUP6 DUP1 REVERT JUMPDEST DUP7 MLOAD RETURNDATASIZE DUP10 DUP3 RETURNDATACOPY RETURNDATASIZE SWAP1 REVERT JUMPDEST DUP7 DUP1 REVERT JUMPDEST PUSH15 0x22D473030F116DDEE9F6B43AC78BA3 SWAP2 DUP3 EXTCODESIZE ISZERO PUSH2 0xFBF JUMPI DUP8 MLOAD PUSH4 0x2B67B57 PUSH1 0xE4 SHL DUP2 MSTORE CALLER DUP7 DUP3 ADD MSTORE SWAP4 PUSH1 0x1 PUSH1 0x1 PUSH1 0xA0 SHL SUB DUP1 PUSH2 0xEEE PUSH2 0x1CB4 JUMP JUMPDEST AND PUSH1 0x24 DUP8 ADD MSTORE PUSH1 0x64 CALLDATALOAD DUP2 DUP2 AND DUP1 SWAP2 SUB PUSH2 0xFB7 JUMPI PUSH1 0x44 DUP8 ADD MSTORE PUSH1 0x84 CALLDATALOAD PUSH6 0xFFFFFFFFFFFF SWAP1 DUP2 DUP2 AND DUP1 SWAP2 SUB PUSH2 0xFBB JUMPI PUSH1 0x64 DUP9 ADD MSTORE PUSH1 0xA4 CALLDATALOAD SWAP1 DUP2 AND DUP1 SWAP2 SUB PUSH2 0xFB7 JUMPI PUSH1 0x84 DUP8 ADD MSTORE PUSH1 0xC4 CALLDATALOAD SWAP1 DUP2 AND DUP1 SWAP2 SUB PUSH2 0xFB3 JUMPI DUP6 SWAP4 DUP5 DUP5 DUP14 SWAP8 SWAP6 DUP3 SWAP6 DUP10 SWAP6 PUSH1 0xA4 DUP6 ADD MSTORE PUSH1 0xE4 CALLDATALOAD PUSH1 0xC4 DUP6 ADD MSTORE PUSH2 0x100 PUSH1 0xE4 DUP6 ADD MSTORE DUP4 ADD MSTORE DUP1 PUSH1 0x24 PUSH2 0x124 SWAP5 ADD DUP5 DUP5 ADD CALLDATACOPY DUP2 DUP2 ADD DUP4 ADD DUP5 SWAP1 MSTORE PUSH1 0x1F ADD PUSH1 0x1F NOT AND DUP2 ADD SUB ADD SWAP3 GAS CALL DUP1 ISZERO PUSH2 0xFA9 JUMPI PUSH2 0xF96 JUMPI JUMPDEST DUP1 DUP1 PUSH2 0xC79 JUMP JUMPDEST PUSH2 0xFA2 SWAP1 SWAP6 SWAP2 SWAP6 PUSH2 0x1CCA JUMP JUMPDEST SWAP4 DUP7 PUSH2 0xF8F JUMP JUMPDEST DUP6 MLOAD RETURNDATASIZE DUP9 DUP3 RETURNDATACOPY RETURNDATASIZE SWAP1 REVERT JUMPDEST DUP11 DUP1 REVERT JUMPDEST DUP12 DUP1 REVERT JUMPDEST DUP13 DUP1 REVERT JUMPDEST DUP9 DUP1 REVERT JUMPDEST DUP4 DUP1 REVERT JUMPDEST SWAP2 SWAP1 POP CALLVALUE PUSH2 0x534 JUMPI PUSH1 0x20 CALLDATASIZE PUSH1 0x3 NOT ADD SLT PUSH2 0x534 JUMPI DUP2 CALLDATALOAD SWAP2 PUSH2 0xFE6 PUSH2 0x28DD JUMP JUMPDEST PUSH2 0xFEE PUSH2 0x1F2C JUMP JUMPDEST PUSH1 0x1 PUSH1 0x1 PUSH1 0xA0 SHL SUB PUSH1 0xC SLOAD AND CALLER SUB PUSH2 0x1046 JUMPI POP PUSH32 0xC63644116F6EF474FE595238489F3D0D31A12C55BE3A748D72269A62882B04C9 SWAP1 PUSH2 0x102C DUP4 PUSH2 0x2791 JUMP JUMPDEST TIMESTAMP PUSH1 0xD SSTORE DUP1 MLOAD SWAP3 DUP4 MSTORE TIMESTAMP PUSH1 0x20 DUP5 ADD MSTORE CALLER SWAP3 LOG2 PUSH2 0x997 PUSH2 0x28DD JUMP JUMPDEST SWAP1 MLOAD PUSH4 0xDD8DE63 PUSH1 0xE1 SHL DUP2 MSTORE REVERT JUMPDEST POP POP CALLVALUE PUSH2 0x2A4 JUMPI PUSH1 0x20 CALLDATASIZE PUSH1 0x3 NOT ADD SLT PUSH2 0x2A4 JUMPI PUSH1 0x20 SWAP2 PUSH2 0x1072 PUSH2 0x1C88 JUMP JUMPDEST SWAP1 PUSH4 0x38377508 PUSH1 0xC MSTORE MSTORE DUP2 PUSH1 0xC KECCAK256 SLOAD SWAP1 MLOAD SWAP1 DUP2 MSTORE RETURN JUMPDEST POP POP CALLVALUE PUSH2 0x2A4 JUMPI PUSH1 0x20 CALLDATASIZE PUSH1 0x3 NOT ADD SLT PUSH2 0x2A4 JUMPI PUSH1 0x20 SWAP1 PUSH2 0x89E PUSH2 0x10A9 PUSH2 0x1C88 JUMP JUMPDEST PUSH2 0x1D6B JUMP JUMPDEST POP POP CALLVALUE PUSH2 0x2A4 JUMPI DUP2 PUSH1 0x3 NOT CALLDATASIZE ADD SLT PUSH2 0x2A4 JUMPI PUSH1 0x20 SWAP1 PUSH1 0x5 SLOAD SWAP1 MLOAD SWAP1 DUP2 MSTORE RETURN JUMPDEST POP POP CALLVALUE PUSH2 0x2A4 JUMPI PUSH1 0x20 CALLDATASIZE PUSH1 0x3 NOT ADD SLT PUSH2 0x2A4 JUMPI PUSH1 0x20 SWAP2 PUSH2 0x10EB PUSH2 0x1C88 JUMP JUMPDEST SWAP1 PUSH4 0x87A211A2 PUSH1 0xC MSTORE MSTORE DUP2 PUSH1 0xC KECCAK256 SLOAD SWAP1 MLOAD SWAP1 DUP2 MSTORE RETURN JUMPDEST POP POP CALLVALUE PUSH2 0x2A4 JUMPI DUP2 PUSH1 0x3 NOT CALLDATASIZE ADD SLT PUSH2 0x2A4 JUMPI PUSH1 0x20 SWAP1 MLOAD PUSH1 0x1 PUSH1 0x1 PUSH1 0xA0 SHL SUB PUSH32 0x0 AND DUP2 MSTORE RETURN JUMPDEST POP POP CALLVALUE PUSH2 0x2A4 JUMPI DUP2 PUSH1 0x3 NOT CALLDATASIZE ADD SLT PUSH2 0x2A4 JUMPI PUSH1 0x20 SWAP2 PUSH12 0xFFFFFFFFFFFFFFFFFFFFFFFF PUSH1 0xB SLOAD AND DUP1 ISZERO PUSH1 0x0 EQ PUSH2 0x117C JUMPI POP SWAP1 MLOAD SWAP1 DUP2 MSTORE RETURN JUMPDEST PUSH2 0xD2C DUP2 PUSH1 0x1 PUSH1 0x1 PUSH1 0xA0 SHL SUB PUSH2 0x1196 SWAP5 SLOAD PUSH1 0x8 SHR AND PUSH2 0x1E80 JUMP JUMPDEST SWAP1 PUSH2 0x789 JUMP JUMPDEST POP POP CALLVALUE PUSH2 0x2A4 JUMPI DUP2 PUSH1 0x3 NOT CALLDATASIZE ADD SLT PUSH2 0x2A4 JUMPI PUSH1 0x20 SWAP1 MLOAD PUSH15 0x22D473030F116DDEE9F6B43AC78BA3 DUP2 MSTORE RETURN JUMPDEST POP POP CALLVALUE PUSH2 0x2A4 JUMPI DUP2 PUSH1 0x3 NOT CALLDATASIZE ADD SLT PUSH2 0x2A4 JUMPI PUSH1 0x20 SWAP1 MLOAD PUSH32 0x0 DUP2 MSTORE RETURN JUMPDEST DUP4 CALLVALUE PUSH2 0x97B JUMPI PUSH1 0x20 CALLDATASIZE PUSH1 0x3 NOT ADD SLT PUSH2 0x97B JUMPI PUSH2 0x997 PUSH2 0x121E PUSH2 0x1C88 JUMP JUMPDEST PUSH2 0x1227 DUP2 PUSH2 0x1D6B JUMP JUMPDEST PUSH10 0xFFFFFFFFFFFFFFFFFFFF PUSH1 0xB SLOAD PUSH1 0x60 SHR AND SWAP2 PUSH2 0x2126 JUMP JUMPDEST POP POP CALLVALUE PUSH2 0x2A4 JUMPI DUP2 PUSH1 0x3 NOT CALLDATASIZE ADD SLT PUSH2 0x2A4 JUMPI PUSH1 0x20 SWAP1 PUSH1 0x1 PUSH1 0x1 PUSH1 0xA0 SHL SUB PUSH1 0xC SLOAD AND SWAP1 MLOAD SWAP1 DUP2 MSTORE RETURN JUMPDEST POP POP CALLVALUE PUSH2 0x2A4 JUMPI DUP2 PUSH1 0x3 NOT CALLDATASIZE ADD SLT PUSH2 0x2A4 JUMPI PUSH1 0x20 SWAP1 PUSH12 0xFFFFFFFFFFFFFFFFFFFFFFFF PUSH1 0xB SLOAD AND SWAP1 MLOAD SWAP1 DUP2 MSTORE RETURN JUMPDEST SWAP1 POP CALLVALUE PUSH2 0x534 JUMPI DUP3 PUSH1 0x3 NOT CALLDATASIZE ADD SLT PUSH2 0x534 JUMPI PUSH1 0x20 SWAP3 POP SLOAD SWAP1 MLOAD SWAP1 DUP2 MSTORE RETURN JUMPDEST POP POP CALLVALUE PUSH2 0x2A4 JUMPI DUP2 PUSH1 0x3 NOT CALLDATASIZE ADD SLT PUSH2 0x2A4 JUMPI PUSH1 0x20 SWAP1 PUSH1 0x8 SLOAD SWAP1 MLOAD SWAP1 DUP2 MSTORE RETURN JUMPDEST POP POP CALLVALUE PUSH2 0x2A4 JUMPI PUSH1 0x20 CALLDATASIZE PUSH1 0x3 NOT ADD SLT PUSH2 0x2A4 JUMPI PUSH32 0x2A0D5DC7FBC8045F59CB33C736F04F9A9B565E9F425912F9CD2BAFDEBD50CEAD SWAP1 PUSH2 0x130E PUSH2 0x1C88 JUMP JUMPDEST PUSH2 0x1316 PUSH2 0x281C JUMP JUMPDEST PUSH1 0x2 DUP1 SLOAD PUSH1 0x1 PUSH1 0x1 PUSH1 0xA0 SHL SUB SWAP3 DUP4 AND PUSH20 0xFFFFFFFFFFFFFFFFFFFFFFFFFFFFFFFFFFFFFFFF NOT DUP3 AND DUP2 OR SWAP1 SWAP3 SSTORE SWAP3 MLOAD SWAP2 SWAP1 SWAP3 AND DUP2 MSTORE PUSH1 0x20 DUP2 ADD SWAP2 SWAP1 SWAP2 MSTORE PUSH1 0x40 SWAP1 LOG1 DUP1 RETURN JUMPDEST POP POP CALLVALUE PUSH2 0x2A4 JUMPI DUP2 PUSH1 0x3 NOT CALLDATASIZE ADD SLT PUSH2 0x2A4 JUMPI PUSH1 0x20 SWAP1 PUSH2 0x89E PUSH2 0x28A6 JUMP JUMPDEST DUP3 DUP5 CALLVALUE PUSH2 0x97B JUMPI DUP2 PUSH1 0x3 NOT CALLDATASIZE ADD SLT PUSH2 0x97B JUMPI PUSH2 0x1390 PUSH2 0x1C88 JUMP JUMPDEST PUSH1 0x20 MSTORE PUSH4 0x7F5E9F20 PUSH1 0xC MSTORE CALLER DUP2 MSTORE PUSH1 0x34 PUSH1 0xC KECCAK256 SWAP3 DUP4 SLOAD SWAP1 PUSH1 0x24 CALLDATALOAD DUP3 ADD SWAP2 DUP3 LT PUSH2 0x13EE JUMPI POP DUP1 PUSH1 0x20 SWAP5 SSTORE DUP2 MSTORE PUSH1 0x2C MLOAD PUSH1 0x60 SHR SWAP1 PUSH32 0x8C5BE1E5EBEC7D5BD14F71427D1E84F3DD0314C0F7B2291E5B200AC8C7C3B925 DUP5 CALLER SWAP3 LOG3 MLOAD PUSH1 0x1 DUP2 MSTORE RETURN JUMPDEST PUSH4 0xF9067066 DUP4 MSTORE PUSH1 0x1C REVERT JUMPDEST POP POP CALLVALUE PUSH2 0x2A4 JUMPI DUP2 PUSH1 0x3 NOT CALLDATASIZE ADD SLT PUSH2 0x2A4 JUMPI PUSH1 0x20 SWAP1 PUSH2 0x89E PUSH2 0x29D9 JUMP JUMPDEST DUP3 DUP5 CALLVALUE PUSH2 0x97B JUMPI DUP1 PUSH1 0x3 NOT CALLDATASIZE ADD SLT PUSH2 0x97B JUMPI PUSH1 0x20 DUP3 MLOAD DUP1 SWAP5 PUSH4 0x313CE567 PUSH1 0xE0 SHL DUP3 MSTORE DUP2 PUSH1 0x1 PUSH1 0x1 PUSH1 0xA0 SHL SUB PUSH32 0x0 AND GAS STATICCALL SWAP3 DUP4 ISZERO PUSH2 0xBA1 JUMPI DUP2 SWAP4 PUSH2 0x1480 JUMPI JUMPDEST PUSH1 0x20 DUP5 PUSH1 0xFF DUP6 MLOAD SWAP2 AND DUP2 MSTORE RETURN JUMPDEST SWAP1 SWAP3 POP PUSH1 0x20 DUP2 RETURNDATASIZE DUP3 GT PUSH2 0x14B9 JUMPI JUMPDEST DUP2 PUSH2 0x149B PUSH1 0x20 SWAP4 DUP4 PUSH2 0x1D10 JUMP JUMPDEST DUP2 ADD SUB SLT PUSH2 0x534 JUMPI MLOAD SWAP2 PUSH1 0xFF DUP4 AND DUP4 SUB PUSH2 0x97B JUMPI POP PUSH1 0xFF PUSH1 0x20 PUSH2 0x1473 JUMP JUMPDEST RETURNDATASIZE SWAP2 POP PUSH2 0x148E JUMP JUMPDEST DUP4 DUP4 CALLVALUE PUSH2 0x2A4 JUMPI PUSH1 0x60 CALLDATASIZE PUSH1 0x3 NOT ADD SLT PUSH2 0x2A4 JUMPI PUSH2 0x14DC PUSH2 0x1C88 JUMP JUMPDEST PUSH2 0x14E4 PUSH2 0x1C9E JUMP JUMPDEST PUSH1 0x44 CALLDATALOAD DUP3 PUSH1 0x60 SHL SWAP2 PUSH1 0x20 SWAP6 CALLER DUP8 MSTORE PUSH1 0xC SWAP4 PUSH4 0x7F5E9F20 DUP2 OR DUP6 MSTORE PUSH1 0x34 DUP6 KECCAK256 DUP1 SLOAD PUSH1 0x0 NOT DUP2 SUB PUSH2 0x157E JUMPI JUMPDEST POP POP PUSH4 0x87A211A2 OR DUP5 MSTORE DUP7 DUP5 KECCAK256 DUP1 SLOAD SWAP9 DUP10 DUP6 GT PUSH2 0x1573 JUMPI POP DUP4 PUSH1 0x1 PUSH1 0x1 PUSH1 0xA0 SHL SUB SWAP7 SWAP8 SWAP9 SWAP10 SUB SWAP1 SSTORE MSTORE DUP6 DUP3 KECCAK256 DUP2 DUP2 SLOAD ADD SWAP1 SSTORE DUP6 MSTORE MLOAD PUSH1 0x60 SHR SWAP2 AND PUSH32 0xDDF252AD1BE2C89B69C2B068FC378DAA952BA7F163C4A11628F55A4DF523B3EF DUP5 DUP1 LOG3 MLOAD PUSH1 0x1 DUP2 MSTORE RETURN JUMPDEST PUSH4 0xF4D678B8 DUP4 MSTORE PUSH1 0x1C REVERT JUMPDEST DUP1 DUP7 GT PUSH2 0x1595 JUMPI DUP6 SWAP1 SUB SWAP1 SSTORE PUSH4 0x87A211A2 DUP11 PUSH2 0x150E JUMP JUMPDEST DUP11 PUSH4 0x13BE252B DUP6 MSTORE PUSH1 0x1C REVERT JUMPDEST SWAP1 POP CALLVALUE PUSH2 0x534 JUMPI PUSH1 0x80 CALLDATASIZE PUSH1 0x3 NOT ADD SLT PUSH2 0x534 JUMPI DUP1 CALLDATALOAD SWAP2 PUSH1 0x24 CALLDATALOAD SWAP1 PUSH1 0x44 CALLDATALOAD SWAP2 PUSH1 0x64 CALLDATALOAD SWAP4 PUSH2 0x15CB PUSH2 0x281C JUMP JUMPDEST PUSH8 0x16345785D8A0000 DUP7 GT PUSH2 0x177D JUMPI PUSH8 0x6F05B59D3B20000 DUP6 LT DUP1 ISZERO PUSH2 0x178B JUMPI JUMPDEST PUSH2 0x177D JUMPI PUSH1 0x1 DUP1 DUP6 LT DUP1 ISZERO PUSH2 0x1773 JUMPI JUMPDEST PUSH2 0x1764 JUMPI PUSH4 0x1E13380 SWAP2 DUP3 DUP9 DIV PUSH1 0x3 SSTORE DUP7 DUP4 MUL DUP4 DUP2 DIV DUP9 SUB PUSH2 0x1751 JUMPI PUSH2 0x1622 SWAP1 DUP6 PUSH2 0x2A76 JUMP JUMPDEST DUP2 SSTORE DUP6 PUSH1 0x7 SSTORE DUP7 PUSH1 0x6 SSTORE DUP9 SWAP3 DUP7 DUP6 MUL SWAP1 PUSH1 0x0 NOT DUP9 DUP8 MULMOD SWAP2 DUP1 DUP4 LT DUP2 ADD DUP1 DUP5 SUB SWAP4 EQ PUSH32 0x98F5BE4DD1E14769FBD6666224DC1EB80DD2E0A3D2C8B328F57E76B7AE103957 DUP5 DUP5 GT ISZERO SWAP5 DUP5 DUP13 DUP12 MULMOD SWAP1 DUP5 DUP3 GT SWAP1 SUB PUSH1 0xF9 SHL SWAP1 DUP5 SUB PUSH1 0x7 SHR OR MUL SWAP6 PUSH2 0x16D1 JUMPI JUMPDEST POP DUP12 PUSH32 0xF58B8CC439EDADA25FD9495B7364AEB1D737DBEF59BE1CF62E0CC4001C44A3CD PUSH1 0x80 DUP14 DUP14 DUP14 DUP14 DUP14 PUSH2 0x16B8 DUP5 DUP16 PUSH2 0x2A76 JUMP JUMPDEST PUSH1 0x5 SSTORE DUP2 MLOAD SWAP5 DUP6 MSTORE PUSH1 0x20 DUP6 ADD MSTORE DUP4 ADD MSTORE PUSH1 0x60 DUP3 ADD MSTORE LOG1 DUP1 RETURN JUMPDEST SWAP1 SWAP2 SWAP3 SWAP4 SWAP5 SWAP6 POP PUSH2 0x171C JUMPI POP POP PUSH2 0x1711 JUMPI POP DUP2 PUSH2 0x16B8 DUP7 PUSH1 0x80 PUSH32 0xF58B8CC439EDADA25FD9495B7364AEB1D737DBEF59BE1CF62E0CC4001C44A3CD CODESIZE PUSH2 0x1684 JUMP JUMPDEST PUSH4 0xAE47F702 DUP9 MSTORE PUSH1 0x1C REVERT JUMPDEST DIV SWAP3 POP DUP4 SWAP2 POP PUSH2 0x16B8 SWAP1 POP DUP7 PUSH1 0x80 PUSH32 0xF58B8CC439EDADA25FD9495B7364AEB1D737DBEF59BE1CF62E0CC4001C44A3CD CODESIZE PUSH2 0x1684 JUMP JUMPDEST PUSH4 0x4E487B71 PUSH1 0xE0 SHL DUP11 MSTORE PUSH1 0x11 DUP3 MSTORE PUSH1 0x24 DUP11 REVERT JUMPDEST POP DUP3 MLOAD PUSH4 0xE49B3B3 PUSH1 0xE4 SHL DUP2 MSTORE REVERT JUMPDEST POP PUSH1 0xA DUP6 GT PUSH2 0x15FC JUMP JUMPDEST DUP3 MLOAD PUSH4 0xE49B3B3 PUSH1 0xE4 SHL DUP2 MSTORE REVERT JUMPDEST POP PUSH8 0xD2F13F7789F0000 DUP6 GT PUSH2 0x15EC JUMP JUMPDEST SWAP1 POP CALLVALUE PUSH2 0x534 JUMPI PUSH1 0x20 CALLDATASIZE PUSH1 0x3 NOT ADD SLT PUSH2 0x534 JUMPI DUP1 CALLDATALOAD SWAP1 PUSH2 0x17BA PUSH2 0x281C JUMP JUMPDEST PUSH8 0x2C68AF0BB140000 DUP3 GT PUSH2 0x177D JUMPI POP SWAP1 PUSH32 0xAAA68312E2EA9D50E16AF5068410AB56E1A1FD06037B1A35664812C30F821460 SWAP2 PUSH1 0x8 SLOAD SWAP1 DUP1 PUSH1 0x8 SSTORE DUP3 MLOAD SWAP2 DUP3 MSTORE PUSH1 0x20 DUP3 ADD MSTORE LOG1 DUP1 RETURN JUMPDEST DUP4 DUP4 CALLVALUE PUSH2 0x2A4 JUMPI PUSH1 0x20 CALLDATASIZE PUSH1 0x3 NOT ADD SLT PUSH2 0x2A4 JUMPI PUSH2 0x181E PUSH2 0x1C88 JUMP JUMPDEST SWAP1 DUP3 SLOAD SWAP2 PUSH1 0xFF DUP4 AND ISZERO PUSH2 0x18CD JUMPI PUSH1 0xFF NOT SWAP3 DUP4 AND DUP5 SSTORE PUSH2 0x183B PUSH2 0x281C JUMP JUMPDEST PUSH1 0x1 PUSH1 0x1 PUSH1 0xA0 SHL SUB SWAP2 DUP3 DUP3 AND SWAP3 PUSH32 0x0 AND DUP4 EQ PUSH2 0x18BE JUMPI PUSH1 0x1 SWAP5 SWAP6 POP PUSH2 0x188B PUSH2 0x1882 ADDRESS DUP5 PUSH2 0x2B39 JUMP JUMPDEST DUP1 SWAP4 CALLER SWAP1 PUSH2 0x2AF0 JUMP JUMPDEST MLOAD SWAP1 DUP2 MSTORE PUSH32 0x6D25BE279134F4ECAA4770AFF0C3D916D9E7C5EF37B65ED95DBDBA411F5D54D5 PUSH1 0x20 CALLER SWAP3 LOG3 DUP3 SLOAD AND OR DUP2 SSTORE DUP1 RETURN JUMPDEST MLOAD PUSH4 0xB5D8F391 PUSH1 0xE0 SHL DUP2 MSTORE DUP6 SWAP1 REVERT JUMPDEST DUP2 MLOAD PUSH4 0x6FDA65D PUSH1 0xE3 SHL DUP2 MSTORE DUP6 SWAP1 REVERT JUMPDEST POP POP CALLVALUE PUSH2 0x2A4 JUMPI DUP2 PUSH1 0x3 NOT CALLDATASIZE ADD SLT PUSH2 0x2A4 JUMPI PUSH1 0x20 SWAP1 PUSH1 0x6 SLOAD SWAP1 MLOAD SWAP1 DUP2 MSTORE RETURN JUMPDEST POP POP CALLVALUE PUSH2 0x2A4 JUMPI DUP2 PUSH1 0x3 NOT CALLDATASIZE ADD SLT PUSH2 0x2A4 JUMPI PUSH1 0x20 SWAP1 PUSH1 0x9 SLOAD SWAP1 MLOAD SWAP1 DUP2 MSTORE RETURN JUMPDEST POP POP CALLVALUE PUSH2 0x2A4 JUMPI DUP2 PUSH1 0x3 NOT CALLDATASIZE ADD SLT PUSH2 0x2A4 JUMPI PUSH1 0x20 SWAP1 PUSH9 0x5345CDF77EB68F44C SLOAD SWAP1 MLOAD SWAP1 DUP2 MSTORE RETURN JUMPDEST SWAP2 SWAP1 POP CALLVALUE PUSH2 0x534 JUMPI PUSH1 0x20 SWAP1 DUP2 PUSH1 0x3 NOT CALLDATASIZE ADD SLT PUSH2 0xFC3 JUMPI DUP3 CALLDATALOAD SWAP4 PUSH1 0x1 PUSH1 0x1 PUSH1 0xA0 SHL SUB SWAP3 DUP4 DUP7 AND DUP1 SWAP7 SUB PUSH2 0x2A4 JUMPI PUSH2 0x1976 PUSH2 0x281C JUMP JUMPDEST PUSH1 0xC SWAP3 DUP4 SLOAD SWAP6 DUP8 PUSH20 0xFFFFFFFFFFFFFFFFFFFFFFFFFFFFFFFFFFFFFFFF NOT DUP9 AND OR DUP6 SSTORE PUSH2 0x19A0 PUSH2 0x2406 JUMP JUMPDEST POP SWAP5 PUSH32 0x0 DUP8 AND DUP6 JUMPDEST DUP8 MLOAD DUP2 LT ISZERO PUSH2 0x1AA4 JUMPI DUP2 DUP10 PUSH2 0x19DC DUP4 DUP12 PUSH2 0x23AE JUMP JUMPDEST MLOAD AND SUB PUSH2 0x19F2 JUMPI JUMPDEST PUSH2 0x19ED SWAP1 PUSH2 0x23D8 JUMP JUMPDEST PUSH2 0x19C7 JUMP JUMPDEST PUSH2 0x1A3C DUP7 DUP11 PUSH2 0x1A01 DUP5 DUP13 PUSH2 0x23AE JUMP JUMPDEST MLOAD AND DUP12 DUP7 SLOAD AND SWAP1 DUP9 MLOAD DUP1 DUP1 SWAP6 DUP2 SWAP5 PUSH4 0x6EB1769F PUSH1 0xE1 SHL DUP4 MSTORE ADDRESS DUP13 DUP5 ADD SWAP1 PUSH1 0x20 SWAP1 SWAP4 SWAP3 SWAP4 PUSH1 0x40 DUP4 ADD SWAP5 PUSH1 0x1 PUSH1 0x1 PUSH1 0xA0 SHL SUB DUP1 SWAP3 AND DUP5 MSTORE AND SWAP2 ADD MSTORE JUMP JUMPDEST SUB SWAP2 GAS STATICCALL DUP1 ISZERO PUSH2 0x1A9A JUMPI SWAP1 DUP8 SWAP2 PUSH2 0x1A71 JUMPI JUMPDEST POP POP DUP1 PUSH2 0x1A6A DUP13 DUP12 PUSH2 0x1A63 PUSH2 0x19ED SWAP6 DUP14 PUSH2 0x23AE JUMP JUMPDEST MLOAD AND PUSH2 0x219B JUMP JUMPDEST SWAP1 POP PUSH2 0x19E4 JUMP JUMPDEST DUP2 RETURNDATASIZE DUP4 GT PUSH2 0x1A93 JUMPI JUMPDEST PUSH2 0x1A84 DUP2 DUP4 PUSH2 0x1D10 JUMP JUMPDEST DUP2 ADD SUB SLT PUSH2 0xEAF JUMPI DUP6 CODESIZE PUSH2 0x1A4E JUMP JUMPDEST POP RETURNDATASIZE PUSH2 0x1A7A JUMP JUMPDEST DUP7 MLOAD RETURNDATASIZE DUP11 DUP3 RETURNDATACOPY RETURNDATASIZE SWAP1 REVERT JUMPDEST DUP7 PUSH32 0x6A97A9E954AE4EF4C8ECC6C7DD8A1CBE668254132294CEB515DB9A2E4FAAD7F5 DUP7 DUP13 DUP15 DUP11 DUP15 DUP5 MLOAD SWAP4 AND DUP4 MSTORE DUP3 ADD MSTORE LOG1 DUP1 RETURN JUMPDEST POP POP CALLVALUE PUSH2 0x2A4 JUMPI DUP1 PUSH1 0x3 NOT CALLDATASIZE ADD SLT PUSH2 0x2A4 JUMPI PUSH1 0x20 SWAP2 PUSH2 0x1AF5 PUSH2 0x1C88 JUMP JUMPDEST PUSH1 0x24 CALLDATALOAD SWAP1 DUP5 MSTORE PUSH4 0x7F5E9F20 PUSH1 0xC MSTORE CALLER DUP3 MSTORE DUP1 PUSH1 0x34 PUSH1 0xC KECCAK256 SSTORE DUP2 MSTORE PUSH1 0x2C MLOAD PUSH1 0x60 SHR SWAP1 PUSH32 0x8C5BE1E5EBEC7D5BD14F71427D1E84F3DD0314C0F7B2291E5B200AC8C7C3B925 DUP5 CALLER SWAP3 LOG3 MLOAD PUSH1 0x1 DUP2 MSTORE RETURN JUMPDEST POP POP CALLVALUE PUSH2 0x2A4 JUMPI DUP2 PUSH1 0x3 NOT CALLDATASIZE ADD SLT PUSH2 0x2A4 JUMPI PUSH2 0xAFC SWAP1 PUSH2 0x1B60 PUSH2 0x1D32 JUMP JUMPDEST SWAP1 MLOAD SWAP2 DUP3 SWAP2 DUP3 PUSH2 0x1C5C JUMP JUMPDEST SWAP4 SWAP2 POP CALLVALUE PUSH2 0x2A4 JUMPI DUP2 PUSH1 0x3 NOT CALLDATASIZE ADD SLT PUSH2 0x2A4 JUMPI DUP2 SLOAD SWAP4 PUSH1 0xFF DUP6 AND ISZERO PUSH2 0x1BF0 JUMPI PUSH2 0x1BBA DUP5 DUP7 DUP6 PUSH1 0xFF NOT DUP1 SWAP3 AND DUP2 SSTORE PUSH2 0x1BA0 PUSH2 0x2406 JUMP JUMPDEST SWAP5 SWAP1 PUSH1 0x1 DUP1 SWAP5 DUP5 SLOAD AND OR DUP4 SSTORE DUP5 MLOAD SWAP5 DUP1 DUP7 MSTORE DUP6 ADD SWAP1 PUSH2 0x1BFC JUMP JUMPDEST PUSH1 0x20 DUP5 DUP3 SUB DUP2 DUP7 ADD MSTORE DUP1 DUP1 DUP8 MLOAD SWAP4 DUP5 DUP2 MSTORE ADD SWAP7 ADD SWAP3 JUMPDEST DUP3 DUP2 LT PUSH2 0x1BDD JUMPI DUP6 DUP8 SUB DUP7 RETURN JUMPDEST DUP4 MLOAD DUP8 MSTORE SWAP6 DUP2 ADD SWAP6 SWAP3 DUP2 ADD SWAP3 DUP5 ADD PUSH2 0x1BD0 JUMP JUMPDEST PUSH4 0x6FDA65D PUSH1 0xE3 SHL DUP2 MSTORE REVERT JUMPDEST SWAP1 DUP2 MLOAD DUP1 DUP3 MSTORE PUSH1 0x20 DUP1 DUP1 SWAP4 ADD SWAP4 ADD SWAP2 PUSH1 0x0 JUMPDEST DUP3 DUP2 LT PUSH2 0x1C1C JUMPI POP POP POP POP SWAP1 JUMP JUMPDEST DUP4 MLOAD PUSH1 0x1 PUSH1 0x1 PUSH1 0xA0 SHL SUB AND DUP6 MSTORE SWAP4 DUP2 ADD SWAP4 SWAP3 DUP2 ADD SWAP3 PUSH1 0x1 ADD PUSH2 0x1C0E JUMP JUMPDEST PUSH1 0x0 JUMPDEST DUP4 DUP2 LT PUSH2 0x1C4C JUMPI POP POP PUSH1 0x0 SWAP2 ADD MSTORE JUMP JUMPDEST DUP2 DUP2 ADD MLOAD DUP4 DUP3 ADD MSTORE PUSH1 0x20 ADD PUSH2 0x1C3C JUMP JUMPDEST PUSH1 0x40 SWAP2 PUSH1 0x20 DUP3 MSTORE PUSH2 0x1C7C DUP2 MLOAD DUP1 SWAP3 DUP2 PUSH1 0x20 DUP7 ADD MSTORE PUSH1 0x20 DUP7 DUP7 ADD SWAP2 ADD PUSH2 0x1C39 JUMP JUMPDEST PUSH1 0x1F ADD PUSH1 0x1F NOT AND ADD ADD SWAP1 JUMP JUMPDEST PUSH1 0x4 CALLDATALOAD SWAP1 PUSH1 0x1 PUSH1 0x1 PUSH1 0xA0 SHL SUB DUP3 AND DUP3 SUB PUSH2 0x7CF JUMPI JUMP JUMPDEST PUSH1 0x24 CALLDATALOAD SWAP1 PUSH1 0x1 PUSH1 0x1 PUSH1 0xA0 SHL SUB DUP3 AND DUP3 SUB PUSH2 0x7CF JUMPI JUMP JUMPDEST PUSH1 0x44 CALLDATALOAD SWAP1 PUSH1 0x1 PUSH1 0x1 PUSH1 0xA0 SHL SUB DUP3 AND DUP3 SUB PUSH2 0x7CF JUMPI JUMP JUMPDEST PUSH8 0xFFFFFFFFFFFFFFFF DUP2 GT PUSH2 0x1CDE JUMPI PUSH1 0x40 MSTORE JUMP JUMPDEST PUSH4 0x4E487B71 PUSH1 0xE0 SHL PUSH1 0x0 MSTORE PUSH1 0x41 PUSH1 0x4 MSTORE PUSH1 0x24 PUSH1 0x0 REVERT JUMPDEST PUSH1 0x40 DUP2 ADD SWAP1 DUP2 LT PUSH8 0xFFFFFFFFFFFFFFFF DUP3 GT OR PUSH2 0x1CDE JUMPI PUSH1 0x40 MSTORE JUMP JUMPDEST SWAP1 PUSH1 0x1F DUP1 NOT SWAP2 ADD AND DUP2 ADD SWAP1 DUP2 LT PUSH8 0xFFFFFFFFFFFFFFFF DUP3 GT OR PUSH2 0x1CDE JUMPI PUSH1 0x40 MSTORE JUMP JUMPDEST PUSH1 0x40 MLOAD SWAP1 PUSH2 0x1D3F DUP3 PUSH2 0x1CF4 JUMP JUMPDEST PUSH1 0x12 DUP3 MSTORE PUSH32 0x4379676E75733A20426F72726F7761626C650000000000000000000000000000 PUSH1 0x20 DUP4 ADD MSTORE JUMP JUMPDEST PUSH1 0x1 PUSH1 0x1 PUSH1 0xA0 SHL SUB PUSH1 0x0 SWAP2 AND DUP2 MSTORE PUSH1 0xA PUSH1 0x20 MSTORE PUSH1 0x40 DUP2 KECCAK256 SLOAD SWAP1 DUP2 PUSH1 0x80 SHR SWAP1 DUP2 ISZERO SWAP3 DUP4 PUSH2 0x1E79 JUMPI PUSH16 0xFFFFFFFFFFFFFFFFFFFFFFFFFFFFFFFF AND PUSH10 0xFFFFFFFFFFFFFFFFFFFF PUSH1 0xB SLOAD PUSH1 0x60 SHR AND SWAP3 DUP3 SWAP5 DUP5 DUP4 MUL SWAP1 PUSH1 0x0 NOT DUP7 DUP6 MULMOD SWAP6 DUP4 DUP4 DUP9 LT DUP5 ADD DUP1 DUP10 SUB SWAP9 EQ SWAP2 DUP9 DUP3 GT ISZERO SWAP7 MULMOD SWAP7 DUP5 DUP8 SUB DUP6 AND SWAP8 DUP9 DUP7 DIV SWAP9 PUSH1 0x2 DUP1 DUP12 PUSH1 0x3 MUL XOR DUP1 DUP13 MUL DUP3 SUB MUL DUP1 DUP13 MUL DUP3 SUB MUL DUP1 DUP13 MUL DUP3 SUB MUL DUP1 DUP13 MUL DUP3 SUB MUL DUP1 DUP13 MUL DUP3 SUB MUL SWAP1 DUP2 PUSH1 0x1 SWAP13 MUL SWAP1 SUB MUL SWAP3 DUP11 DUP3 DUP1 DUP13 SUB DIV ADD SWAP1 DUP8 DUP5 GT SWAP1 SUB MUL SWAP2 DUP7 SUB DIV OR MUL SWAP7 PUSH2 0x1E34 JUMPI JUMPDEST POP POP POP POP POP POP POP SWAP1 JUMP JUMPDEST SWAP1 SWAP2 SWAP3 SWAP4 SWAP5 SWAP6 SWAP7 POP PUSH2 0x1E61 JUMPI POP POP POP PUSH2 0x1E54 JUMPI POP CODESIZE DUP1 DUP1 DUP1 DUP1 DUP1 DUP1 PUSH2 0x1E2A JUMP JUMPDEST PUSH4 0xAE47F702 SWAP1 MSTORE PUSH1 0x4 PUSH1 0x1C REVERT JUMPDEST SWAP2 SWAP5 POP SWAP3 SWAP2 POP PUSH2 0x1E54 JUMPI POP DIV CODESIZE DUP1 DUP1 DUP1 DUP1 DUP1 DUP1 PUSH2 0x1E2A JUMP JUMPDEST POP SWAP2 POP POP SWAP1 JUMP JUMPDEST SWAP2 SWAP1 DUP3 ADD DUP1 SWAP3 GT PUSH2 0x1E8D JUMPI JUMP JUMPDEST PUSH4 0x4E487B71 PUSH1 0xE0 SHL PUSH1 0x0 MSTORE PUSH1 0x11 PUSH1 0x4 MSTORE PUSH1 0x24 PUSH1 0x0 REVERT JUMPDEST SWAP2 SWAP1 DUP3 SUB SWAP2 DUP3 GT PUSH2 0x1E8D JUMPI JUMP JUMPDEST PUSH1 0xB SLOAD PUSH1 0x8 SLOAD PUSH8 0xDE0B6B3A7640000 SWAP1 DUP2 SUB SWAP1 DUP2 GT PUSH2 0x1E8D JUMPI PUSH2 0x1EDE SWAP1 PUSH6 0xFFFFFFFFFFFF DUP4 PUSH1 0xB0 SHR AND PUSH2 0x2A4B JUMP JUMPDEST PUSH1 0x1 PUSH1 0x1 PUSH1 0xA0 SHL SUB PUSH12 0xFFFFFFFFFFFFFFFFFFFFFFFF DUP2 PUSH1 0x0 SLOAD PUSH1 0x8 SHR AND SWAP4 AND DUP1 SWAP4 ADD DUP2 DUP2 GT PUSH2 0x1E8D JUMPI AND SWAP2 DUP3 ISZERO PUSH2 0x1F24 JUMPI PUSH2 0x1F21 SWAP3 PUSH2 0x1F1C SWAP2 PUSH2 0x2A76 JUMP JUMPDEST PUSH2 0x2A4B JUMP JUMPDEST SWAP1 JUMP JUMPDEST POP POP POP PUSH1 0x0 SWAP1 JUMP JUMPDEST PUSH1 0xB SLOAD PUSH4 0xFFFFFFFF TIMESTAMP DUP2 AND PUSH1 0xE0 DUP4 SWAP1 SHR DUP1 DUP3 SUB DUP4 DUP2 GT PUSH2 0x1E8D JUMPI PUSH12 0xFFFFFFFFFFFFFFFFFFFFFFFF SWAP2 DUP3 DUP7 AND SWAP5 PUSH1 0x0 SWAP2 PUSH10 0xFFFFFFFFFFFFFFFFFFFF PUSH1 0x1 PUSH1 0x1 PUSH1 0xA0 SHL SUB DUP5 SLOAD PUSH1 0x8 SHR AND SWAP9 PUSH1 0x60 SHR AND SWAP6 EQ DUP1 ISZERO PUSH2 0x20BD JUMPI JUMPDEST PUSH2 0x20B4 JUMPI PUSH2 0x1F90 DUP7 DUP9 PUSH2 0x20C5 JUMP JUMPDEST SWAP3 AND SWAP4 DUP5 DUP4 MUL SWAP5 DUP4 DUP7 DIV EQ DUP4 ISZERO OR ISZERO PUSH2 0x20A0 JUMPI DUP1 PUSH2 0x1FC5 PUSH2 0x1FCB SWAP3 PUSH2 0x1FBF PUSH2 0x1FB8 DUP11 DUP11 PUSH2 0x2A4B JUMP JUMPDEST DUP1 SWAP11 PUSH2 0x1E80 JUMP JUMPDEST SWAP8 PUSH2 0x2A4B JUMP JUMPDEST SWAP1 PUSH2 0x1E80 JUMP JUMPDEST SWAP1 PUSH13 0x1000000000000000000000000 DUP6 LT ISZERO PUSH2 0x2093 JUMPI PUSH11 0x100000000000000000000 DUP3 LT ISZERO PUSH2 0x2093 JUMPI PUSH7 0x1000000000000 DUP4 LT ISZERO PUSH2 0x2093 JUMPI POP SWAP2 PUSH32 0x875352FB3FADEB8C0BE7CBBE8FF761B308FA7033470CD0287F02F3436FD76CB9 SWAP6 SWAP4 SWAP2 PUSH28 0xFFFFFFFFFFFF00000000000000000000000000000000000000000000 PUSH1 0x60 SWAP7 SWAP5 PUSH22 0xFFFFFFFFFFFFFFFFFFFF000000000000000000000000 PUSH4 0xFFFFFFFF PUSH1 0xE0 SHL TIMESTAMP PUSH1 0xE0 SHL AND SWAP5 DUP7 AND SWAP2 DUP10 SHL AND OR SWAP2 PUSH1 0xB0 SHL AND OR OR PUSH1 0xB SSTORE PUSH1 0x40 MLOAD SWAP3 DUP4 MSTORE PUSH1 0x20 DUP4 ADD MSTORE PUSH1 0x40 DUP3 ADD MSTORE LOG1 JUMP JUMPDEST PUSH4 0x35278D12 SWAP1 MSTORE PUSH1 0x4 PUSH1 0x1C REVERT JUMPDEST PUSH4 0x4E487B71 PUSH1 0xE0 SHL DUP3 MSTORE PUSH1 0x11 PUSH1 0x4 MSTORE PUSH1 0x24 DUP3 REVERT JUMPDEST POP POP POP POP POP POP POP JUMP JUMPDEST POP DUP6 ISZERO PUSH2 0x1F82 JUMP JUMPDEST SWAP1 PUSH2 0xD2C DUP2 PUSH2 0x20D3 SWAP4 PUSH2 0x1E80 JUMP JUMPDEST PUSH1 0x6 SLOAD DUP1 DUP3 GT ISZERO PUSH2 0x2115 JUMPI SWAP1 PUSH2 0x2110 PUSH2 0x2107 PUSH2 0x1F21 SWAP4 PUSH2 0x2101 PUSH2 0x20F8 PUSH1 0x4 SLOAD DUP4 PUSH2 0x2A4B JUMP JUMPDEST PUSH1 0x3 SLOAD SWAP1 PUSH2 0x1E80 JUMP JUMPDEST SWAP4 PUSH2 0x1EA3 JUMP JUMPDEST PUSH1 0x5 SLOAD SWAP1 PUSH2 0x2A4B JUMP JUMPDEST PUSH2 0x1E80 JUMP JUMPDEST POP PUSH2 0x20F8 PUSH2 0x1F21 SWAP2 PUSH1 0x4 SLOAD SWAP1 PUSH2 0x2A4B JUMP JUMPDEST SWAP2 SWAP1 SWAP2 PUSH1 0x1 PUSH1 0x1 PUSH1 0xA0 SHL SUB SWAP1 DUP2 PUSH1 0x2 SLOAD AND SWAP1 DUP2 ISZERO PUSH2 0x2194 JUMPI DUP2 EXTCODESIZE ISZERO PUSH2 0x7CF JUMPI PUSH1 0x0 PUSH1 0x64 SWAP3 DUP2 SWAP6 PUSH1 0x40 MLOAD SWAP8 DUP9 SWAP7 DUP8 SWAP6 PUSH4 0xD98320D5 PUSH1 0xE0 SHL DUP8 MSTORE AND PUSH1 0x4 DUP7 ADD MSTORE PUSH1 0x24 DUP6 ADD MSTORE PUSH1 0x44 DUP5 ADD MSTORE GAS CALL DUP1 ISZERO PUSH2 0x2188 JUMPI PUSH2 0x217D JUMPI POP JUMP JUMPDEST PUSH2 0x2186 SWAP1 PUSH2 0x1CCA JUMP JUMPDEST JUMP JUMPDEST PUSH1 0x40 MLOAD RETURNDATASIZE PUSH1 0x0 DUP3 RETURNDATACOPY RETURNDATASIZE SWAP1 REVERT JUMPDEST POP POP POP POP POP JUMP JUMPDEST PUSH1 0x40 MLOAD PUSH4 0x6EB1769F PUSH1 0xE1 SHL DUP2 MSTORE ADDRESS PUSH1 0x4 DUP3 ADD MSTORE PUSH1 0x1 PUSH1 0x1 PUSH1 0xA0 SHL SUB DUP4 AND PUSH1 0x24 DUP3 ADD MSTORE SWAP2 SWAP1 PUSH1 0x20 DUP4 DUP1 PUSH1 0x44 DUP2 ADD SUB DUP2 PUSH1 0x1 PUSH1 0x1 PUSH1 0xA0 SHL SUB DUP6 AND GAS STATICCALL SWAP3 DUP4 ISZERO PUSH2 0x2188 JUMPI PUSH1 0x0 SWAP4 PUSH2 0x2237 JUMPI JUMPDEST POP PUSH1 0x0 NOT DUP1 SWAP4 LT ISZERO PUSH2 0x2232 JUMPI PUSH1 0x10 PUSH1 0x0 PUSH1 0x44 SWAP3 PUSH1 0x20 SWAP6 DUP3 SWAP6 PUSH1 0x14 MSTORE PUSH1 0x34 MSTORE PUSH4 0x95EA7B3 PUSH1 0x60 SHL DUP3 MSTORE GAS CALL RETURNDATASIZE ISZERO PUSH1 0x1 PUSH1 0x0 MLOAD EQ OR AND ISZERO PUSH2 0x2224 JUMPI PUSH1 0x0 PUSH1 0x34 MSTORE JUMP JUMPDEST PUSH4 0x3E3F8F73 PUSH1 0x0 MSTORE PUSH1 0x4 PUSH1 0x1C REVERT JUMPDEST POP POP POP JUMP JUMPDEST SWAP1 SWAP3 PUSH1 0x20 DUP3 RETURNDATASIZE DUP3 GT PUSH2 0x2262 JUMPI JUMPDEST DUP2 PUSH2 0x2251 PUSH1 0x20 SWAP4 DUP4 PUSH2 0x1D10 JUMP JUMPDEST DUP2 ADD SUB SLT PUSH2 0x97B JUMPI POP MLOAD SWAP2 CODESIZE PUSH2 0x21E4 JUMP JUMPDEST RETURNDATASIZE SWAP2 POP PUSH2 0x2244 JUMP JUMPDEST PUSH1 0x40 MLOAD PUSH4 0x6EB1769F PUSH1 0xE1 SHL DUP2 MSTORE ADDRESS PUSH1 0x4 DUP3 ADD MSTORE PUSH20 0xEC8FEA79026FFED168CCF5C627C7F486D77B765F PUSH1 0x24 DUP3 ADD DUP2 SWAP1 MSTORE SWAP1 SWAP2 PUSH1 0x20 DUP4 PUSH1 0x44 DUP2 PUSH1 0x1 PUSH1 0x1 PUSH1 0xA0 SHL SUB DUP6 AND GAS STATICCALL SWAP3 DUP4 ISZERO PUSH2 0x2188 JUMPI PUSH1 0x0 SWAP4 PUSH2 0x2237 JUMPI POP PUSH1 0x0 NOT DUP1 SWAP4 LT ISZERO PUSH2 0x2232 JUMPI PUSH1 0x10 PUSH1 0x0 PUSH1 0x44 SWAP3 PUSH1 0x20 SWAP6 DUP3 SWAP6 PUSH1 0x14 MSTORE PUSH1 0x34 MSTORE PUSH4 0x95EA7B3 PUSH1 0x60 SHL DUP3 MSTORE GAS CALL RETURNDATASIZE ISZERO PUSH1 0x1 PUSH1 0x0 MLOAD EQ OR AND ISZERO PUSH2 0x2224 JUMPI PUSH1 0x0 PUSH1 0x34 MSTORE JUMP JUMPDEST PUSH1 0x40 MLOAD PUSH4 0x6EB1769F PUSH1 0xE1 SHL DUP2 MSTORE ADDRESS PUSH1 0x4 DUP3 ADD MSTORE PUSH20 0xDC05D85069DC4ABA65954008FF99F2D73FF12618 PUSH1 0x24 DUP3 ADD DUP2 SWAP1 MSTORE PUSH20 0x1DB2466D9F5E10D7090E7152B68D62703A2245F0 PUSH1 0x20 DUP4 PUSH1 0x44 DUP2 DUP5 GAS STATICCALL SWAP3 DUP4 ISZERO PUSH2 0x2188 JUMPI PUSH1 0x0 SWAP4 PUSH2 0x2237 JUMPI POP PUSH1 0x0 NOT DUP1 SWAP4 LT ISZERO PUSH2 0x2232 JUMPI PUSH1 0x10 PUSH1 0x0 PUSH1 0x44 SWAP3 PUSH1 0x20 SWAP6 DUP3 SWAP6 PUSH1 0x14 MSTORE PUSH1 0x34 MSTORE PUSH4 0x95EA7B3 PUSH1 0x60 SHL DUP3 MSTORE GAS CALL RETURNDATASIZE ISZERO PUSH1 0x1 PUSH1 0x0 MLOAD EQ OR AND ISZERO PUSH2 0x2224 JUMPI PUSH1 0x0 PUSH1 0x34 MSTORE JUMP JUMPDEST PUSH8 0xFFFFFFFFFFFFFFFF DUP2 GT PUSH2 0x1CDE JUMPI PUSH1 0x5 SHL PUSH1 0x20 ADD SWAP1 JUMP JUMPDEST DUP1 MLOAD DUP3 LT ISZERO PUSH2 0x23C2 JUMPI PUSH1 0x20 SWAP2 PUSH1 0x5 SHL ADD ADD SWAP1 JUMP JUMPDEST PUSH4 0x4E487B71 PUSH1 0xE0 SHL PUSH1 0x0 MSTORE PUSH1 0x32 PUSH1 0x4 MSTORE PUSH1 0x24 PUSH1 0x0 REVERT JUMPDEST PUSH1 0x0 NOT DUP2 EQ PUSH2 0x1E8D JUMPI PUSH1 0x1 ADD SWAP1 JUMP JUMPDEST SWAP1 DUP2 PUSH1 0x20 SWAP2 SUB SLT PUSH2 0x7CF JUMPI MLOAD PUSH1 0x1 PUSH1 0x1 PUSH1 0xA0 SHL SUB DUP2 AND DUP2 SUB PUSH2 0x7CF JUMPI SWAP1 JUMP JUMPDEST PUSH1 0x0 SWAP1 PUSH1 0x40 SWAP1 DUP2 MLOAD PUSH2 0x2417 DUP2 PUSH2 0x1CF4 JUMP JUMPDEST PUSH1 0x1 DUP2 MSTORE PUSH1 0x20 SWAP3 DUP4 DUP3 ADD DUP5 CALLDATASIZE DUP3 CALLDATACOPY DUP3 MLOAD ISZERO PUSH2 0x277D JUMPI PUSH20 0xEC8FEA79026FFED168CCF5C627C7F486D77B765F SWAP1 MSTORE PUSH20 0x60CF091CD3F50420D50FD7F707414D0DF4751C58 SWAP2 DUP3 EXTCODESIZE ISZERO PUSH2 0xEA1 JUMPI DUP2 MLOAD PUSH3 0xE1ED97 PUSH1 0xE5 SHL DUP2 MSTORE DUP7 DUP2 PUSH1 0x4 SWAP6 ADDRESS DUP8 DUP4 ADD MSTORE DUP2 DUP4 DUP2 PUSH2 0x248D PUSH1 0x24 SWAP9 DUP11 DUP11 DUP5 ADD MSTORE PUSH1 0x44 DUP4 ADD SWAP1 PUSH2 0x1BFC JUMP JUMPDEST SUB SWAP3 GAS CALL DUP1 ISZERO PUSH2 0x2773 JUMPI PUSH2 0x2760 JUMPI JUMPDEST POP DUP2 MLOAD PUSH4 0xD1058E59 PUSH1 0xE0 SHL DUP2 MSTORE PUSH20 0xDC05D85069DC4ABA65954008FF99F2D73FF12618 SWAP7 SWAP1 DUP2 DUP2 DUP7 DUP2 DUP4 DUP13 GAS CALL SWAP1 DUP2 ISZERO PUSH2 0x2756 JUMPI DUP3 SWAP2 PUSH2 0x26C2 JUMPI JUMPDEST POP ADDRESS PUSH1 0x14 MSTORE PUSH16 0x70A08231000000000000000000000000 DUP3 MSTORE DUP7 DUP1 DUP5 PUSH1 0x10 PUSH20 0x1DB2466D9F5E10D7090E7152B68D62703A2245F0 GAS STATICCALL PUSH1 0x1F RETURNDATASIZE GT AND DUP8 MLOAD MUL DUP1 PUSH2 0x2670 JUMPI JUMPDEST POP MLOAD SWAP3 PUSH1 0x0 NOT SWAP3 DUP4 DUP6 ADD SWAP5 DUP6 GT PUSH2 0x265F JUMPI PUSH2 0x2532 DUP6 PUSH2 0x2396 JUMP JUMPDEST SWAP3 PUSH2 0x253F DUP4 MLOAD SWAP5 DUP6 PUSH2 0x1D10 JUMP JUMPDEST DUP6 DUP5 MSTORE PUSH1 0x1F NOT SWAP5 DUP6 PUSH2 0x2550 DUP9 PUSH2 0x2396 JUMP JUMPDEST ADD CALLDATASIZE DUP12 DUP8 ADD CALLDATACOPY DUP5 SWAP11 PUSH2 0x2561 DUP9 PUSH2 0x2396 JUMP JUMPDEST SWAP7 PUSH2 0x256E DUP7 MLOAD SWAP9 DUP10 PUSH2 0x1D10 JUMP JUMPDEST DUP9 DUP9 MSTORE PUSH2 0x257A DUP10 PUSH2 0x2396 JUMP JUMPDEST ADD CALLDATASIZE DUP13 DUP10 ADD CALLDATACOPY DUP7 SWAP11 PUSH1 0x1 JUMPDEST DUP10 DUP2 GT ISZERO PUSH2 0x259A JUMPI POP POP POP POP POP POP POP POP POP POP POP JUMP JUMPDEST DUP7 MLOAD PUSH4 0x27B2595F PUSH1 0xE1 SHL DUP2 MSTORE DUP12 DUP2 ADD DUP3 SWAP1 MSTORE DUP3 DUP2 DUP9 DUP2 DUP10 DUP9 GAS CALL SWAP1 DUP2 ISZERO PUSH2 0x2655 JUMPI DUP7 SWAP2 PUSH2 0x2628 JUMPI JUMPDEST POP DUP5 DUP3 ADD SWAP1 DUP3 DUP3 GT PUSH2 0x2616 JUMPI SWAP1 PUSH2 0x260B PUSH2 0x2604 DUP12 PUSH2 0x2611 SWAP6 SWAP5 PUSH2 0x25E5 DUP6 DUP4 PUSH2 0x23AE JUMP JUMPDEST PUSH1 0x1 PUSH1 0x1 PUSH1 0xA0 SHL SUB DUP1 SWAP3 AND SWAP1 MSTORE PUSH2 0x25FD DUP6 ADDRESS SWAP4 PUSH2 0x23AE JUMP JUMPDEST MLOAD AND PUSH2 0x2B39 JUMP JUMPDEST SWAP2 DUP13 PUSH2 0x23AE JUMP JUMPDEST MSTORE PUSH2 0x23D8 JUMP JUMPDEST PUSH2 0x2585 JUMP JUMPDEST PUSH4 0x4E487B71 PUSH1 0xE0 SHL DUP8 MSTORE PUSH1 0x11 DUP14 MSTORE DUP8 DUP8 REVERT JUMPDEST PUSH2 0x2648 SWAP2 POP DUP4 RETURNDATASIZE DUP6 GT PUSH2 0x264E JUMPI JUMPDEST PUSH2 0x2640 DUP2 DUP4 PUSH2 0x1D10 JUMP JUMPDEST DUP2 ADD SWAP1 PUSH2 0x23E7 JUMP JUMPDEST CODESIZE PUSH2 0x25C2 JUMP JUMPDEST POP RETURNDATASIZE PUSH2 0x2636 JUMP JUMPDEST DUP9 MLOAD RETURNDATASIZE DUP9 DUP3 RETURNDATACOPY RETURNDATASIZE SWAP1 REVERT JUMPDEST PUSH4 0x4E487B71 PUSH1 0xE0 SHL DUP4 MSTORE PUSH1 0x11 DUP7 MSTORE DUP3 REVERT JUMPDEST DUP9 EXTCODESIZE ISZERO PUSH2 0x534 JUMPI DUP5 MLOAD SWAP1 PUSH4 0x140E25AD PUSH1 0xE3 SHL DUP3 MSTORE DUP7 DUP3 ADD MSTORE DUP3 DUP2 DUP6 DUP2 DUP4 DUP14 GAS CALL DUP1 ISZERO PUSH2 0x26B8 JUMPI SWAP1 DUP4 SWAP2 PUSH2 0x26A4 JUMPI JUMPDEST POP PUSH2 0x2518 JUMP JUMPDEST PUSH2 0x26AD SWAP1 PUSH2 0x1CCA JUMP JUMPDEST PUSH2 0x2A4 JUMPI DUP2 CODESIZE PUSH2 0x269E JUMP JUMPDEST DUP6 MLOAD RETURNDATASIZE DUP6 DUP3 RETURNDATACOPY RETURNDATASIZE SWAP1 REVERT JUMPDEST SWAP1 POP RETURNDATASIZE DUP1 DUP4 DUP4 RETURNDATACOPY PUSH2 0x26D3 DUP2 DUP4 PUSH2 0x1D10 JUMP JUMPDEST DUP2 ADD SWAP1 DUP8 DUP2 DUP4 SUB SLT PUSH2 0x534 JUMPI DUP1 MLOAD SWAP1 PUSH8 0xFFFFFFFFFFFFFFFF DUP3 GT PUSH2 0xFC3 JUMPI ADD SWAP1 DUP1 PUSH1 0x1F DUP4 ADD SLT ISZERO PUSH2 0x534 JUMPI DUP2 MLOAD PUSH2 0x2709 DUP2 PUSH2 0x2396 JUMP JUMPDEST SWAP3 PUSH2 0x2716 DUP8 MLOAD SWAP5 DUP6 PUSH2 0x1D10 JUMP JUMPDEST DUP2 DUP5 MSTORE DUP10 DUP1 DUP6 ADD SWAP3 PUSH1 0x5 SHL DUP3 ADD ADD SWAP3 DUP4 GT PUSH2 0x2752 JUMPI DUP10 DUP1 SWAP2 ADD SWAP2 JUMPDEST DUP4 DUP4 LT PUSH2 0x2742 JUMPI POP POP POP POP CODESIZE PUSH2 0x24D6 JUMP JUMPDEST DUP3 MLOAD DUP2 MSTORE SWAP2 DUP2 ADD SWAP2 DUP11 SWAP2 ADD PUSH2 0x2731 JUMP JUMPDEST DUP5 DUP1 REVERT JUMPDEST DUP5 MLOAD RETURNDATASIZE DUP5 DUP3 RETURNDATACOPY RETURNDATASIZE SWAP1 REVERT JUMPDEST PUSH2 0x276C SWAP1 SWAP7 SWAP2 SWAP7 PUSH2 0x1CCA JUMP JUMPDEST SWAP5 CODESIZE PUSH2 0x249C JUMP JUMPDEST DUP4 MLOAD RETURNDATASIZE DUP10 DUP3 RETURNDATACOPY RETURNDATASIZE SWAP1 REVERT JUMPDEST PUSH4 0x4E487B71 PUSH1 0xE0 SHL DUP7 MSTORE PUSH1 0x32 PUSH1 0x4 MSTORE PUSH1 0x24 DUP7 REVERT JUMPDEST PUSH1 0x40 MLOAD SWAP1 PUSH4 0x140E25AD PUSH1 0xE3 SHL DUP3 MSTORE PUSH1 0x4 DUP3 ADD MSTORE PUSH1 0x20 DUP2 PUSH1 0x24 DUP2 PUSH1 0x0 PUSH20 0xEC8FEA79026FFED168CCF5C627C7F486D77B765F GAS CALL SWAP1 DUP2 ISZERO PUSH2 0x2188 JUMPI PUSH1 0x0 SWAP2 PUSH2 0x27EB JUMPI JUMPDEST POP PUSH2 0x27D9 JUMPI JUMP JUMPDEST PUSH1 0x40 MLOAD PUSH4 0x39D7BE8D PUSH1 0xE2 SHL DUP2 MSTORE PUSH1 0x4 SWAP1 REVERT JUMPDEST SWAP1 PUSH1 0x20 DUP3 RETURNDATASIZE DUP3 GT PUSH2 0x2814 JUMPI JUMPDEST DUP2 PUSH2 0x2804 PUSH1 0x20 SWAP4 DUP4 PUSH2 0x1D10 JUMP JUMPDEST DUP2 ADD SUB SLT PUSH2 0x97B JUMPI POP MLOAD CODESIZE PUSH2 0x27D2 JUMP JUMPDEST RETURNDATASIZE SWAP2 POP PUSH2 0x27F7 JUMP JUMPDEST PUSH1 0x40 MLOAD PUSH4 0x3E14691 PUSH1 0xE6 SHL DUP2 MSTORE PUSH1 0x1 PUSH1 0x1 PUSH1 0xA0 SHL SUB SWAP1 PUSH1 0x20 DUP2 PUSH1 0x4 DUP2 PUSH32 0x0 DUP7 AND GAS STATICCALL SWAP1 DUP2 ISZERO PUSH2 0x2188 JUMPI PUSH1 0x0 SWAP2 PUSH2 0x2888 JUMPI JUMPDEST POP AND CALLER SUB PUSH2 0x2876 JUMPI JUMP JUMPDEST PUSH1 0x40 MLOAD PUSH4 0x31D63AD1 PUSH1 0xE1 SHL DUP2 MSTORE PUSH1 0x4 SWAP1 REVERT JUMPDEST PUSH2 0x28A0 SWAP2 POP PUSH1 0x20 RETURNDATASIZE DUP2 GT PUSH2 0x264E JUMPI PUSH2 0x2640 DUP2 DUP4 PUSH2 0x1D10 JUMP JUMPDEST CODESIZE PUSH2 0x286C JUMP JUMPDEST PUSH9 0x5345CDF77EB68F44C SLOAD PUSH1 0x0 SWAP1 DUP1 PUSH2 0x28C7 JUMPI POP POP PUSH8 0xDE0B6B3A7640000 SWAP1 JUMP JUMPDEST PUSH1 0x1 PUSH1 0x1 PUSH1 0xA0 SHL SUB PUSH2 0x1F21 SWAP3 SLOAD PUSH1 0x8 SHR AND PUSH2 0x2A76 JUMP JUMPDEST PUSH32 0x3145C2B643834867F2C0A8CAC8A48218307687911615C0ED01412A09DD163B66 PUSH1 0x20 PUSH2 0x2910 PUSH2 0x290B PUSH2 0x2967 JUMP JUMPDEST PUSH2 0x2AB9 JUMP JUMPDEST PUSH1 0x0 SLOAD PUSH32 0xFFFFFFFFFFFFFFFFFFFFFF0000000000000000000000000000000000000000FF PUSH21 0xFFFFFFFFFFFFFFFFFFFFFFFFFFFFFFFFFFFFFFFF00 DUP4 PUSH1 0x8 SHL AND SWAP2 AND OR PUSH1 0x0 SSTORE PUSH1 0x1 PUSH1 0x1 PUSH1 0xA0 SHL SUB PUSH1 0x40 MLOAD SWAP2 AND DUP2 MSTORE LOG1 JUMP JUMPDEST PUSH1 0x40 MLOAD PUSH4 0x3AF9E669 PUSH1 0xE0 SHL DUP2 MSTORE ADDRESS PUSH1 0x4 DUP3 ADD MSTORE PUSH1 0x20 DUP2 PUSH1 0x24 DUP2 PUSH1 0x0 PUSH20 0xEC8FEA79026FFED168CCF5C627C7F486D77B765F GAS CALL SWAP1 DUP2 ISZERO PUSH2 0x2188 JUMPI PUSH1 0x0 SWAP2 PUSH2 0x29AB JUMPI POP SWAP1 JUMP JUMPDEST SWAP1 PUSH1 0x20 DUP3 RETURNDATASIZE DUP3 GT PUSH2 0x29D1 JUMPI JUMPDEST DUP2 PUSH2 0x29C4 PUSH1 0x20 SWAP4 DUP4 PUSH2 0x1D10 JUMP JUMPDEST DUP2 ADD SUB SLT PUSH2 0x97B JUMPI POP MLOAD SWAP1 JUMP JUMPDEST RETURNDATASIZE SWAP2 POP PUSH2 0x29B7 JUMP JUMPDEST PUSH1 0xA0 PUSH1 0x40 MLOAD PUSH2 0x29E6 PUSH2 0x1D32 JUMP JUMPDEST PUSH1 0x20 DUP2 MLOAD SWAP2 ADD KECCAK256 PUSH32 0x8B73C3C69BB8FE3D512ECC4CF759CC79239F7B179B0FFACAA9A75D522B39400F DUP3 MSTORE PUSH1 0x20 DUP3 ADD MSTORE PUSH32 0xC89EFDAA54C0F20C7ADF612882DF0950F5A951637E0307CDCB4C672F298B8BC6 PUSH1 0x40 DUP3 ADD MSTORE CHAINID PUSH1 0x60 DUP3 ADD MSTORE ADDRESS PUSH1 0x80 DUP3 ADD MSTORE KECCAK256 SWAP1 JUMP JUMPDEST SWAP1 DUP1 PUSH1 0x0 NOT DIV DUP3 GT DUP2 MUL PUSH2 0x2A68 JUMPI PUSH8 0xDE0B6B3A7640000 SWAP2 MUL DIV SWAP1 JUMP JUMPDEST PUSH4 0xBAC65E5B PUSH1 0x0 MSTORE PUSH1 0x4 PUSH1 0x1C REVERT JUMPDEST PUSH8 0xDE0B6B3A7640000 SWAP1 PUSH25 0x12725DD1D243ABA0E75FE645CC4873F9E65AFE688C928E1F21 DUP2 GT DUP3 MUL ISZERO DUP4 MUL ISZERO PUSH2 0x2AAB JUMPI MUL DIV SWAP1 JUMP JUMPDEST PUSH4 0x7C5F487D PUSH1 0x0 MSTORE PUSH1 0x4 PUSH1 0x1C REVERT JUMPDEST PUSH21 0x10000000000000000000000000000000000000000 DUP2 LT ISZERO PUSH2 0x2AE2 JUMPI PUSH1 0x1 PUSH1 0x1 PUSH1 0xA0 SHL SUB AND SWAP1 JUMP JUMPDEST PUSH4 0x35278D12 PUSH1 0x0 MSTORE PUSH1 0x4 PUSH1 0x1C REVERT JUMPDEST PUSH1 0x10 SWAP3 PUSH1 0x20 SWAP3 PUSH1 0x14 MSTORE PUSH1 0x34 MSTORE PUSH1 0x44 PUSH1 0x0 SWAP4 DUP5 DUP1 SWAP4 PUSH16 0xA9059CBB000000000000000000000000 DUP3 MSTORE GAS CALL RETURNDATASIZE ISZERO PUSH1 0x1 DUP4 MLOAD EQ OR AND ISZERO PUSH2 0x2B2C JUMPI PUSH1 0x34 MSTORE JUMP JUMPDEST PUSH4 0x90B8EC18 SWAP1 MSTORE PUSH1 0x4 PUSH1 0x1C REVERT JUMPDEST PUSH1 0x24 PUSH1 0x10 PUSH1 0x20 SWAP4 SWAP3 DUP5 SWAP4 PUSH1 0x14 MSTORE PUSH16 0x70A08231000000000000000000000000 PUSH1 0x0 MSTORE GAS STATICCALL PUSH1 0x1F RETURNDATASIZE GT AND PUSH1 0x20 MLOAD MUL SWAP1 JUMP INVALID LOG2 PUSH5 0x6970667358 0x22 SLT KECCAK256 0xFB 0x4E PUSH29 0x51C8676A812412C7CE62CE6C17664BA81872BC4E9CE8035D5E3911E6D7 PUSH5 0x736F6C6343 STOP ADDMOD GT STOP CALLER "},"methodIdentifiers":{"DOMAIN_SEPARATOR()":"3644e515","PERMIT2()":"6afdd850","accrueInterest()":"a6afed95","allowance(address,address)":"dd62ed3e","approve(address,uint256)":"095ea7b3","balanceOf(address)":"70a08231","baseRatePerSecond()":"d90e0264","borrowBalances(address)":"94e1373c","borrowIndex()":"aa5af0fd","borrowRate()":"c914b437","chargeVoid()":"bcbc3320","collateral()":"d8dfeb45","cygnusBorrowRewarder()":"ad168c9d","cygnusNebulaOracle()":"d935bd92","decimals()":"313ce567","decreaseAllowance(address,uint256)":"a457c2d7","deposit(uint256,address,((address,uint160,uint48,uint48),address,uint256),bytes)":"8808e71c","exchangeRate()":"3ba0b9a9","exchangeRateStored()":"182df0f5","getBorrowBalance(address)":"7d6af079","getRewards()":"0572b0cc","hangar18()":"e8a24e1d","harvester()":"4bdaeac1","increaseAllowance(address,uint256)":"39509351","jumpMultiplierPerSecond()":"72cf84a7","kinkMultiplier()":"9b510998","kinkUtilizationRate()":"1aebf12f","lastAccrualTimestamp()":"c0789dcb","lastReinvest()":"b5f3c95b","multiplierPerSecond()":"46f608ff","name()":"06fdde03","nonces(address)":"7ecebe00","permit(address,address,uint256,uint256,uint8,bytes32,bytes32)":"d505accf","redeem(uint256,address,address)":"ba087652","reinvestRewards_y7b(uint256)":"81f5b6f4","reserveFactor()":"4322b714","rewardToken()":"f7c618c1","rewarder()":"dcc3e06e","setCygnusBorrowRewarder(address)":"42bf78af","setHarvester(address)":"15de1daa","setInterestRateModel(uint256,uint256,uint256,uint256)":"1e44b7fc","setReserveFactor(uint256)":"1c446983","shuttleId()":"5f77f891","supplyRate()":"ad2961a3","sweepToken(address)":"1be19560","symbol()":"95d89b41","totalBalance()":"ad7a672f","totalBorrows()":"47bd3718","totalSupply()":"18160ddd","trackBorrower(address)":"5b322bbe","transfer(address,uint256)":"a9059cbb","transferFrom(address,address,uint256)":"23b872dd","underlying()":"6f307dc3","utilizationRate()":"6c321c8a"}}}}}