{"contracts/cygnus-core/AlbireoOrbiter.sol":{"AlbireoOrbiter":{"abi":[{"inputs":[],"name":"borrowableInitCodeHash","outputs":[{"internalType":"bytes32","name":"","type":"bytes32"}],"stateMutability":"view","type":"function"},{"inputs":[{"internalType":"address","name":"underlying","type":"address"},{"internalType":"address","name":"collateral","type":"address"},{"internalType":"address","name":"oracle","type":"address"},{"internalType":"uint256","name":"shuttleId","type":"uint256"}],"name":"deployAlbireo","outputs":[{"internalType":"address","name":"borrowable","type":"address"}],"stateMutability":"nonpayable","type":"function"},{"inputs":[],"name":"shuttleParameters","outputs":[{"internalType":"address","name":"factory","type":"address"},{"internalType":"address","name":"underlying","type":"address"},{"internalType":"address","name":"collateral","type":"address"},{"internalType":"address","name":"oracle","type":"address"},{"internalType":"uint256","name":"shuttleId","type":"uint256"}],"stateMutability":"view","type":"function"}],"evm":{"bytecode":{"linkReferences":{},"object":"60a034610069576136ff90603f8201601f191681016001600160401b03811182821017610053576040528181526020810191613a1583395190206080526040516139a6908161006f823960805181605c0152f35b634e487b7160e01b600052604160045260246000fd5b600080fdfe608060408181526004918236101561001657600080fd5b600092833560e01c9182635a412e5314610215575081639ba991f814610083575063b3984b8d1461004657600080fd5b3461007f578160031936011261007f57602090517f00000000000000000000000000000000000000000000000000000000000000008152f35b5080fd5b919050346102115760803660031901126102115781359073ffffffffffffffffffffffffffffffffffffffff9182811680910361020d576024358381168091036102095760443584811680910361020557835167ffffffffffffffff93606435929160a08101868111828210176101f25784916080918952338152836020820152868982015284606082015201527fffffffffffffffffffffffff00000000000000000000000000000000000000009033828b5416178a55816001541617600155838160025416176002556003541617600355855582516020810191825233848201528381526060810191818310848411176101df5782855281519020926136ff8083019160608301908582109111176101cc576102728439039086f59283156101c25793602094818055816001558160025581600355555191168152f35b81513d86823e3d90fd5b634e487b7160e01b895260418852602489fd5b634e487b7160e01b885260418752602488fd5b634e487b7160e01b8b5260418a5260248bfd5b8680fd5b8580fd5b8480fd5b8280fd5b9291503461026d578360031936011261026d5760a09373ffffffffffffffffffffffffffffffffffffffff80915416928160015416826002541692600354169354948652602086015284015260608301526080820152f35b8380fdfe6101008060405234620001f3576000805460ff19166001178155635a412e5360e01b80835260a092838160048186335af18015620001e8578391849185918691620001bf575b5060e052855260c052608052670bcbce7f1b1500006006556002600755670214e8348c4f0000600855670de0b6b3a7640000600955604051908152828160048185335af1918215620001b357916200017a575b50600180546001600160a01b0319166001600160a01b0392909216919091179055600b80546001600160601b0365ffffffffffff60b01b01164260e01b6001600160e01b031916176503782dace9d960721b17905560405161345e9182620002a18339608051828181610354015281816122cd0152612fa901525181610405015260c0518181816106490152818161078601528181610a4801528181610c970152818161108b015281816113b4015281816114de0152818161178d0152818161196e01528181611c5e0152611db7015260e05181818161068a01526111480152f35b6200019f9150823d8411620001ab575b620001968183620001f8565b81019062000247565b50509150503862000098565b503d6200018a565b604051903d90823e3d90fd5b92505050620001de9150843d8611620001ab57620001968183620001f8565b9150903862000045565b6040513d85823e3d90fd5b600080fd5b601f909101601f19168101906001600160401b038211908210176200021c57604052565b634e487b7160e01b600052604160045260246000fd5b51906001600160a01b0382168203620001f357565b91908260a0910312620001f35781516001600160a01b03908181168103620001f35792620002786020820162000232565b92620002876040830162000232565b9260608301519081168103620001f3576080909201519056fe6080604081815260048036101561001557600080fd5b600092833560e01c9081630572b0cc14611f7e5750806306fdde0314611f55578063095ea7b314611eeb57806315de1daa14611d5657806318160ddd14611d2f578063182df0f514611d105780631aebf12f14611cf15780631be1956014611c165780631c44698314611bb05780631e44b7fc146119b65780631e7dcc0d1461171e57806323b872dd1461164857806327ce385414611432578063313ce567146113875780633644e5151461136a57806339509351146112e75780633ba0b9a9146112c257806342bf78af1461123a5780634322b7141461121b57806346f608ff146111fe57806347bd3718146111d15780634bdaeac1146111a95780635b322bbe1461116b5780635f77f891146111305780636afdd850146111065780636c321c8a146110af5780636f307dc31461106b57806370a082311461103757806372cf84a7146110185780637d6af07914610ff25780637ecebe0014610fbe57806381f5b6f414610f325780638808e71c14610bda57806394e1373c14610b9257806395d89b4114610a235780639b51099814610a04578063a457c2d714610980578063a6afed9514610964578063a9059cbb146108d6578063aa5af0fd146108a8578063ad168c9d14610880578063ad2961a31461085c578063ad7a672f14610833578063b5f3c95b14610814578063ba087652146106b7578063bcbc332014610611578063c0789dcb146105ef578063c914b437146105c5578063d505accf14610470578063d8dfeb4514610448578063d90e026414610429578063d935bd92146103e5578063dcc3e06e146103b6578063dd62ed3e14610378578063e8a24e1d14610334578063f7c618c1146103015763fff6cae91461029657600080fd5b346102fd57826003193601126102fd5782549160ff8316156102f0578360018460ff1980911683556102c6613015565b6102ce612712565b6102d6612712565b6102de612185565b506102e7613015565b82541617815580f35b516306fda65d60e31b8152fd5b8280fd5b50503461033057816003193601126103305760209051731db2466d9f5e10d7090e7152b68d62703a2245f08152f35b5080fd5b505034610330578160031936011261033057602090516001600160a01b037f0000000000000000000000000000000000000000000000000000000000000000168152f35b50503461033057806003193601126103305760209161039561209b565b9061039e6120b1565b8452637f5e9f20600c52526034600c20549051908152f35b505034610330578160031936011261033057602090517360cf091cd3f50420d50fd7f707414d0df4751c588152f35b505034610330578160031936011261033057602090516001600160a01b037f0000000000000000000000000000000000000000000000000000000000000000168152f35b5050346103305781600319360112610330576020906003549051908152f35b5050346103305781600319360112610330576020906001600160a01b03600154169051908152f35b5090346102fd5760e03660031901126102fd5761048b61209b565b916104946120b1565b6084359160643560443560ff851685036105c1576104b0613111565b928651978342116105b5576001600160a01b038091169516956338377508600c52858a5260209485600c20948554956001870190557f6e71edae12b1b97f4d1f60370fef10105fa2faae0126114a169c64845d6126c98b5287878c0152888a8c015260608b019585875260808c015260a08b01526119018b52855260c0892088526042601e208a5260ff16845260a435875260c435606052838060808b60015afa50843d51036105aa5750777f5e9f200000000000000000000000000000000000000000851786526034602c20557f8c5be1e5ebec7d5bd14f71427d1e84f3dd0314c0f7b2291e5b200ac8c7c3b9259190a3528060605280f35b63ddafbaef8952601cfd5b50631a15a3cc8952601cfd5b8780fd5b50503461033057816003193601126103305760209065ffffffffffff600b5460b01c169051908152f35b505034610330578160031936011261033057602090600b5460e01c9051908152f35b50503461033057816003193601126103305760607f98ccebae89f16f152c93c6a0cdc0d99913b9e62a9fc612471c21ffc299c389fd917f00000000000000000000000000000000000000000000000000000000000000009061067282612a97565b61067a612b28565b6001600160a01b038151921682527f000000000000000000000000000000000000000000000000000000000000000060208301523390820152a180f35b50919034610330576060366003190112610330578235916106d66120b1565b926106df6120c7565b936106e8613015565b6001600160a01b039081861693843303610804575b610705612712565b610716610710612185565b85613230565b9687156107f45761072688612981565b6387a211a2600c5281526020600c208054988986116107e95750846020990390556805345cdf77eb68f44c848154039055838152847fddf252ad1be2c89b69c2b068fc378daa952ba7f163c4a11628f55a4df523b3ef8983a36107aa86827f00000000000000000000000000000000000000000000000000000000000000006133b0565b8451928684528784015216907ffbde797d201c681b91056529119e0b02407c7bb96a4a2c75c01fc9667232c8db843392a46107e3613015565b51908152f35b63f4d678b88352601cfd5b865163e3e8d29760e01b81528990fd5b61080f8433896131f1565b6106fd565b505034610330578160031936011261033057602090600d549051908152f35b5050346103305781600319360112610330576001600160a01b036020925460081c169051908152f35b5050346103305781600319360112610330576020906108796123fb565b9051908152f35b5050346103305781600319360112610330576020906001600160a01b03600254169051908152f35b50503461033057816003193601126103305760209069ffffffffffffffffffff600b5460601c169051908152f35b5091346109615781600319360112610961576108f061209b565b602435916387a211a2600c5233815260209485600c2090815490818611610956575084900390555282600c208181540190558252600c5160601c337fddf252ad1be2c89b69c2b068fc378daa952ba7f163c4a11628f55a4df523b3ef8480a35160018152f35b63f4d678b88452601cfd5b80fd5b833461096157806003193601126109615761097d612712565b80f35b50913461096157816003193601126109615761099a61209b565b60243590602052637f5e9f20600c523382526034600c209081548181106109f85760209550038091558152602c5160601c907f8c5be1e5ebec7d5bd14f71427d1e84f3dd0314c0f7b2291e5b200ac8c7c3b925843392a35160018152f35b85638301ab388552601cfd5b5050346103305781600319360112610330576020906007549051908152f35b5090346102fd57826003193601126102fd5780516395d89b4160e01b815292808484817f00000000000000000000000000000000000000000000000000000000000000006001600160a01b03165afa928315610b86578193610ae5575b610ae18484610ad76028825180947f4379675553443a200000000000000000000000000000000000000000000000006020830152610ac7815180926020868601910161204c565b810103600881018552018361222e565b519182918261206f565b0390f35b909192503d8083863e610af8818661222e565b84019160208584031261096157845167ffffffffffffffff958682116102fd57019183601f84011215610330578251958611610b715750835192610b46601f8701601f19166020018561222e565b858452602086840101116109615750610ae193610b69916020808501910161204c565b903880610a80565b604190634e487b7160e01b6000525260246000fd5b509051903d90823e3d90fd5b5050346103305760203660031901126103305780916001600160a01b03610bb761209b565b168152600a60205220548151906001600160801b038116825260801c6020820152f35b5091903461033057610120366003190112610330578235610bf96120b1565b60c0366043190112610f2e5761010490813567ffffffffffffffff8111610e1e57610c2790369088016120dd565b92610c30613015565b610c3861309f565b9380610e30575b505050610c4b83613387565b916e22d473030f116ddee9f6b43ac78ba3803b15610e2c578680916084885180948193631b63c28b60e11b83528d33908401523060248401526001600160a01b03809a166044840152897f00000000000000000000000000000000000000000000000000000000000000001660648401525af18015610e2257908791610e0a575b5050610ceb610d0191610cde866128f6565b610ce661309f565b6121db565b610cf3612712565b610cfb612185565b9061325b565b948515610dfa576805345cdf77eb68f44c8054918215610d66575b50505060209550610d2d8582613183565b8351928352848684015216907fdcbc1c05240f31ff3ad067ef1ee35ce4997762752e3a095284754544f4c709d7833392a36107e3613015565b919690916103e7198201918211610de75750956103e891828201918210610dda5760209850556387a211a2600c5261dead60005286600c208181540190558652600c5160601c60007fddf252ad1be2c89b69c2b068fc378daa952ba7f163c4a11628f55a4df523b3ef8880a3388080610d1c565b8863e5cfe957600052601cfd5b634e487b7160e01b815260118952602490fd5b845163f1ca48b160e01b81528790fd5b610e13906121e8565b610e1e578538610ccc565b8580fd5b86513d89823e3d90fd5b8680fd5b6e22d473030f116ddee9f6b43ac78ba3803b15610f2a5787516302b67b5760e41b8152338b820152936001600160a01b039283610e6b6120c7565b166024870152606435848116809103610f2657604487015260843565ffffffffffff90818116809103610f2157606488015260a435908116809103610f2157608487015260c435938416809403610f215785610ee78195938d97938894849660a486015260e43560c486015261010060e4860152840191612354565b03925af18015610f1757908691610eff575b80610c3f565b610f08906121e8565b610f13578438610ef9565b8480fd5b85513d88823e3d90fd5b600080fd5b8b80fd5b8880fd5b8380fd5b5090346102fd5760203660031901126102fd57813591610f50613015565b610f58612712565b6001600160a01b03600c54163303610fb057507fc63644116f6ef474fe595238489f3d0d31a12c55be3a748d72269a62882b04c990610f96836128f6565b42600d5580519283524260208401523392a261097d613015565b9051630dd8de6360e11b8152fd5b50503461033057602036600319011261033057602091610fdc61209b565b906338377508600c525281600c20549051908152f35b5050346103305760203660031901126103305760209061087961101361209b565b6123ae565b5050346103305781600319360112610330576020906005549051908152f35b5050346103305760203660031901126103305760209161105561209b565b906387a211a2600c525281600c20549051908152f35b505034610330578160031936011261033057602090516001600160a01b037f0000000000000000000000000000000000000000000000000000000000000000168152f35b5050346103305781600319360112610330576020916bffffffffffffffffffffffff600b541680156000146110e657509051908152f35b610cfb816001600160a01b03611100945460081c16612162565b906107e3565b505034610330578160031936011261033057602090516e22d473030f116ddee9f6b43ac78ba38152f35b505034610330578160031936011261033057602090517f00000000000000000000000000000000000000000000000000000000000000008152f35b83346109615760203660031901126109615761097d61118861209b565b611191816123ae565b69ffffffffffffffffffff600b5460601c16916126ab565b5050346103305781600319360112610330576020906001600160a01b03600c54169051908152f35b5050346103305781600319360112610330576020906bffffffffffffffffffffffff600b54169051908152f35b50346102fd57826003193601126102fd5760209250549051908152f35b5050346103305781600319360112610330576020906008549051908152f35b505034610330576020366003190112610330577f2a0d5dc7fbc8045f59cb33c736f04f9a9b565e9f425912f9cd2bafdebd50cead9061127761209b565b61127f612f8b565b600280546001600160a01b0392831673ffffffffffffffffffffffffffffffffffffffff198216811790925592519190921681526020810191909152604090a180f35b5050346103305781600319360112610330576020906112df612712565b610879612185565b50913461096157816003193601126109615761130161209b565b602052637f5e9f20600c523381526034600c2092835490602435820191821061135f575080602094558152602c5160601c907f8c5be1e5ebec7d5bd14f71427d1e84f3dd0314c0f7b2291e5b200ac8c7c3b925843392a35160018152f35b63f90670668352601cfd5b505034610330578160031936011261033057602090610879613111565b50913461096157806003193601126109615760208251809463313ce56760e01b8252816001600160a01b037f0000000000000000000000000000000000000000000000000000000000000000165afa928315610b865781936113f1575b60208460ff855191168152f35b9092506020813d821161142a575b8161140c6020938361222e565b810103126102fd57519160ff83168303610961575060ff60206113e4565b3d91506113ff565b5090346102fd576114423661210b565b91969384549760ff8916156116385760ff199889168655879493929190611467613015565b61146f612712565b611478826123ae565b90808210156116305750915b6001600160a01b039360208560648160015416988b8d51998a948593632d3aef6960e21b855216809d84015288169a8b60248401528960448401525af19485156116265788956115f3575b5080611581575b5050611502307f00000000000000000000000000000000000000000000000000000000000000006133f9565b978289106115735750917fb2b14447b2fb5b250428a70cf03fd19f8ff7ee7e04a46ebe7824df2a0c91a9e38860209a95936115408260019997612474565b5061154a826128f6565b8951938452602084015260408301523391606090a4611567613015565b82541617905551908152f35b87516307b1bd6f60e21b8152fd5b333b156105c15787908a6115c18b51948593849363e95471c760e01b85523390850152896024850152886044850152608060648501526084840191612354565b038183335af180156115e957908791156114d6576115de906121e8565b610e1e5785386114d6565b88513d89823e3d90fd5b9094506020813d821161161e575b8161160e6020938361222e565b81010312610f21575193386114cf565b3d9150611601565b89513d8a823e3d90fd5b905091611484565b86516306fda65d60e31b81528890fd5b509190346103305760603660031901126103305761166461209b565b61166c6120b1565b6044358260601b91602095338752600c93637f5e9f208117855260348520805460001981036116fb575b50506387a211a21784528684208054988985116107e95750836001600160a01b03969798990390555285822081815401905585525160601c91167fddf252ad1be2c89b69c2b068fc378daa952ba7f163c4a11628f55a4df523b3ef8480a35160018152f35b8086116117125785900390556387a211a238611696565b8a6313be252b8552601cfd5b509190346103305761172f3661210b565b94939686939193549560ff8716156119a75760ff199687168855839190611754613015565b61175c612712565b6001600160a01b03998a811696338803611997575b841515928361195e575b806118d9575b50506117b9906117b1307f00000000000000000000000000000000000000000000000000000000000000006133f9565b9485916125b6565b908386111561188f575060208a600154169160448951809481936333e3231160e21b83528b8884015260248301525afa90811561188557899161184b575b501561183d5750967f96558a334f4759f0e7c423d68c84721860bd8fbf94ddc4e55158ecb125ad04b591600197985b8651948552602085015216933392a46102e7613015565b855163efd5188560e01b8152fd5b90506020813d821161187d575b816118656020938361222e565b81010312610f2a57518015158103610f2a57386117f7565b3d9150611858565b87513d8b823e3d90fd5b90506118cb5750967f96558a334f4759f0e7c423d68c84721860bd8fbf94ddc4e55158ecb125ad04b591886118c66001999a6128f6565b611826565b8551637cc109a560e11b8152fd5b909192939450333b1561195a57611919918b918a519384928392638f53d74f60e01b8452338a8501528b6024850152606060448501526064840191612354565b038183335af1801561195057611935575b908186949392611781565b85939291996119466117b9926121e8565b999192935061192a565b88513d8c823e3d90fd5b8a80fd5b61196786612981565b61199286887f00000000000000000000000000000000000000000000000000000000000000006133b0565b61177b565b6119a28533846131f1565b611771565b5084516306fda65d60e31b8152fd5b50346102fd5760803660031901126102fd578035916024359060443591606435936119df612f8b565b67016345785d8a00008611611b91576706f05b59d3b2000085108015611b9f575b611b915760018085108015611b87575b611b78576301e13380918288046003558683028381048803611b6557611a36908561325b565b8155856007558660065588928685029060001988870991808310810180840393147f98f5be4dd1e14769fbd6666224dc1eb80dd2e0a3d2c8b328f57e76b7ae1039578484111594848c8b0990848211900360f91b90840360071c170295611ae5575b508b7ff58b8cc439edada25fd9495b7364aeb1d737dbef59be1cf62e0cc4001c44a3cd60808d8d8d8d8d611acc848f61325b565b600555815194855260208501528301526060820152a180f35b90919293949550611b30575050611b25575081611acc8660807ff58b8cc439edada25fd9495b7364aeb1d737dbef59be1cf62e0cc4001c44a3cd38611a98565b63ae47f7028852601cfd5b049250839150611acc90508660807ff58b8cc439edada25fd9495b7364aeb1d737dbef59be1cf62e0cc4001c44a3cd38611a98565b634e487b7160e01b8a526011825260248afd5b508251630e49b3b360e41b8152fd5b50600a8511611a10565b8251630e49b3b360e41b8152fd5b50670d2f13f7789f00008511611a00565b50346102fd5760203660031901126102fd57803590611bcd612f8b565b6702c68af0bb1400008211611b915750907faaa68312e2ea9d50e16af5068410ab56e1a1fd06037b1a35664812c30f82146091600854908060085582519182526020820152a180f35b5091903461033057602036600319011261033057611c3261209b565b9082549160ff831615611ce15760ff199283168455611c4f612f8b565b6001600160a01b0391828216927f0000000000000000000000000000000000000000000000000000000000000000168314611cd2576001949550611c9f611c9630846133f9565b809333906133b0565b519081527f6d25be279134f4ecaa4770aff0c3d916d9e7c5ef37b65ed95dbdba411f5d54d560203392a382541617815580f35b5163b5d8f39160e01b81528590fd5b81516306fda65d60e31b81528590fd5b5050346103305781600319360112610330576020906006549051908152f35b5050346103305781600319360112610330576020906009549051908152f35b5050346103305781600319360112610330576020906805345cdf77eb68f44c549051908152f35b5090346102fd5760209081600319360112610f2e578235936001600160a01b039283861680960361033057611d89612f8b565b600c928354958773ffffffffffffffffffffffffffffffffffffffff198816178555611db3612c14565b50947f00000000000000000000000000000000000000000000000000000000000000008716855b8751811015611eb7578189611def838b612bdb565b511603611e05575b611e0090612c05565b611dda565b611e4f868a611e14848c612bdb565b51168b8654169088518080958194636eb1769f60e11b8352308c84019060209093929360408301946001600160a01b03809216845216910152565b03915afa8015611ead57908791611e84575b505080611e7d8c8b611e76611e00958d612bdb565b51166129c8565b9050611df7565b813d8311611ea6575b611e97818361222e565b81010312610e2c578538611e61565b503d611e8d565b86513d8a823e3d90fd5b867f6a97a9e954ae4ef4c8ecc6c7dd8a1cbe668254132294ceb515db9a2e4faad7f5868c8e8a8e845193168352820152a180f35b505034610330578060031936011261033057602091611f0861209b565b602435908452637f5e9f20600c52338252806034600c20558152602c5160601c907f8c5be1e5ebec7d5bd14f71427d1e84f3dd0314c0f7b2291e5b200ac8c7c3b925843392a35160018152f35b505034610330578160031936011261033057610ae190611f73612375565b90519182918261206f565b8385843461033057816003193601126103305781549360ff85161561200357611fcd84868560ff198092168155611fb3612c14565b94906001809484541617835584519480865285019061200f565b6020848203818601528080875193848152019601925b828110611ff05785870386f35b8351875295810195928101928401611fe3565b6306fda65d60e31b8152fd5b90815180825260208080930193019160005b82811061202f575050505090565b83516001600160a01b031685529381019392810192600101612021565b60005b83811061205f5750506000910152565b818101518382015260200161204f565b6040916020825261208f815180928160208601526020868601910161204c565b601f01601f1916010190565b600435906001600160a01b0382168203610f2157565b602435906001600160a01b0382168203610f2157565b604435906001600160a01b0382168203610f2157565b9181601f84011215610f215782359167ffffffffffffffff8311610f215760208381860195010111610f2157565b906080600319830112610f21576001600160a01b03916004358381168103610f2157926024359081168103610f215791604435916064359067ffffffffffffffff8211610f215761215e916004016120dd565b9091565b9190820180921161216f57565b634e487b7160e01b600052601160045260246000fd5b6805345cdf77eb68f44c5480156121d457806121cc6121d1926121c76001600160a01b0360005460081c166bffffffffffffffffffffffff600b541690612162565b61325b565b61226f565b90565b5060095490565b9190820391821161216f57565b67ffffffffffffffff81116121fc57604052565b634e487b7160e01b600052604160045260246000fd5b6040810190811067ffffffffffffffff8211176121fc57604052565b90601f8019910116810190811067ffffffffffffffff8211176121fc57604052565b90816020910312610f2157516001600160a01b0381168103610f215790565b60095490918183111561234f57610ce66122a161229b6122926122a995876121db565b60085490613230565b856121db565b80948361329e565b806122b7575b508060095590565b604051630b60d15f60e31b8152906020826004817f00000000000000000000000000000000000000000000000000000000000000006001600160a01b03165afa80156123435761230f92600091612315575b50613183565b386122af565b612336915060203d811161233c575b61232e818361222e565b810190612250565b38612309565b503d612324565b6040513d6000823e3d90fd5b505090565b908060209392818452848401376000828201840152601f01601f1916010190565b6040519061238282612212565b601282527f4379676e75733a20426f72726f7761626c6500000000000000000000000000006020830152565b6001600160a01b0316600052600a6020526040600020548060801c80156123f4576121d1916001600160801b0369ffffffffffffffffffff600b5460601c16911661329e565b5050600090565b600b54600854670de0b6b3a764000090810390811161216f576124299065ffffffffffff8360b01c16613230565b6001600160a01b036bffffffffffffffffffffffff8160005460081c16931680930181811161216f571691821561246c576121d1926124679161325b565b613230565b505050600090565b919091612480816123ae565b83156125b157906125699169ffffffffffffffffffff600b5460601c169160006001600160a01b0382168152600a60205260408120968084116000146125a55761252690840380945b610ce6829a6001600160801b036124df85613362565b82546fffffffffffffffffffffffffffffffff19169116178155836125735780546001600160801b0316608087901b6fffffffffffffffffffffffffffffffff1916179055565b600b54916bffffffffffffffffffffffff9161254f91838516908282111561256b57500361333c565b16906bffffffffffffffffffffffff191617600b556126ab565b565b91505061333c565b61257c89613362565b81546001600160801b031660809190911b6fffffffffffffffffffffffffffffffff1916179055565b506125268180946124c9565b925050565b9291926125c2816123ae565b8483146126a55769ffffffffffffffffffff600b5460601c16946000936001600160a01b0384168552600a60205260408520948282116000146126695750916126176126449794926125699694038092612162565b9687936001600160801b0361262b86613362565b166001600160801b031982541617815561257c86613362565b600b549061254f6126646bffffffffffffffffffffffff92838516612162565b61333c565b90612569959361252691610ce69996940380821160001461269d578103905b81998a966001600160801b036124df85613362565b508290612688565b93505050565b9190916001600160a01b0390816002541690811561270b57813b15610f215760006064928195604051978896879563d98320d560e01b8752166004860152602485015260448401525af18015612343576127025750565b612569906121e8565b5050505050565b63ffffffff804216600b548060e01c928383039381851161216f576bffffffffffffffffffffffff918284169169ffffffffffffffffffff6001600160a01b0360005460081c169560601c169514801561288d575b612885576127758285612895565b95169384860294868604148615171561216f57806127aa6127b0926127a461279d868a613230565b8096612162565b97613230565b90612162565b916127ba8561333c565b16916a0100000000000000000000811015612877576601000000000000861015612877577f875352fb3fadeb8c0be7cbbe8ff761b308fa7033470cd0287f02f3436fd76cb9957bffffffffffff000000000000000000000000000000000000000000006128729475ffffffffffffffffffff00000000000000000000000063ffffffff60e01b4260e01b169460601b16179160b01b161717600b55604051938493846040919493926060820195825260208201520152565b0390a1565b6335278d126000526004601cfd5b505050505050565b508115612767565b90610cfb816128a393612162565b600654808211156128e557906128e06128d76121d1936128d16128c860045483613230565b60035490612162565b936121db565b60055490613230565b612162565b506128c86121d19160045490613230565b6040519063140e25ad60e31b82526004820152602081602481600073ec8fea79026ffed168ccf5c627c7f486d77b765f5af190811561234357600091612950575b5061293e57565b6040516339d7be8d60e21b8152600490fd5b906020823d8211612979575b816129696020938361222e565b8101031261096157505138612937565b3d915061295c565b6040519063852a12e360e01b82526004820152602081602481600073ec8fea79026ffed168ccf5c627c7f486d77b765f5af190811561234357600091612950575061293e57565b604051636eb1769f60e11b81523060048201526001600160a01b03831660248201529190602083806044810103816001600160a01b0385165afa92831561234357600093612a64575b5060001980931015612a5f5760106000604492602095829560145260345263095ea7b360601b82525af13d15600160005114171615612a51576000603452565b633e3f8f736000526004601cfd5b505050565b90926020823d8211612a8f575b81612a7e6020938361222e565b810103126109615750519138612a11565b3d9150612a71565b604051636eb1769f60e11b815230600482015273ec8fea79026ffed168ccf5c627c7f486d77b765f6024820181905290916020836044816001600160a01b0385165afa92831561234357600093612a64575060001980931015612a5f5760106000604492602095829560145260345263095ea7b360601b82525af13d15600160005114171615612a51576000603452565b604051636eb1769f60e11b815230600482015273dc05d85069dc4aba65954008ff99f2d73ff1261860248201819052731db2466d9f5e10d7090e7152b68d62703a2245f0602083604481845afa92831561234357600093612a64575060001980931015612a5f5760106000604492602095829560145260345263095ea7b360601b82525af13d15600160005114171615612a51576000603452565b67ffffffffffffffff81116121fc5760051b60200190565b8051821015612bef5760209160051b010190565b634e487b7160e01b600052603260045260246000fd5b600019811461216f5760010190565b6000906040908151612c2581612212565b6001815260209283820184368237825115612f775773ec8fea79026ffed168ccf5c627c7f486d77b765f90527360cf091cd3f50420d50fd7f707414d0df4751c5891823b15610e1e57815162e1ed9760e51b815286816004953087830152818381612c9b6024988a8a840152604483019061200f565b03925af18015612f6d57612f5a575b50815163d1058e5960e01b815273dc05d85069dc4aba65954008ff99f2d73ff12618969081818681838c5af1908115612f50578291612ec0575b50306014526f70a0823100000000000000000000000082528680846010731db2466d9f5e10d7090e7152b68d62703a2245f05afa601f3d111687510280612e6e575b50519260001992838501948511612e5d57612d4085612bc3565b92612d4d8351948561222e565b858452601f199485612d5e88612bc3565b01368b870137849a612d6f88612bc3565b96612d7c8651988961222e565b888852612d8889612bc3565b01368c890137869a60015b89811115612da8575050505050505050505050565b86516327b2595f60e11b81528b81018290528281888189885af1908115612e53578691612e36575b5084820190828211612e245790612e19612e128b612e1f9594612df38583612bdb565b6001600160a01b038092169052612e0b853093612bdb565b51166133f9565b918c612bdb565b52612c05565b612d93565b634e487b7160e01b875260118d528787fd5b612e4d9150833d851161233c5761232e818361222e565b38612dd0565b88513d88823e3d90fd5b634e487b7160e01b83526011865282fd5b883b156102fd5784519063140e25ad60e31b82528682015282818581838d5af18015612eb657908391612ea2575b50612d26565b612eab906121e8565b610330578138612e9c565b85513d85823e3d90fd5b90503d8083833e612ed1818361222e565b81019087818303126102fd5780519067ffffffffffffffff8211610f2e57019080601f830112156102fd578151612f0781612bc3565b92612f148751948561222e565b818452898085019260051b820101928311610f135789809101915b838310612f40575050505038612ce4565b82518152918101918a9101612f2f565b84513d84823e3d90fd5b612f66909691966121e8565b9438612caa565b83513d89823e3d90fd5b634e487b7160e01b86526032600452602486fd5b6040516303e1469160e61b81526001600160a01b03906020816004817f000000000000000000000000000000000000000000000000000000000000000086165afa90811561234357600091612ff7575b50163303612fe557565b6040516331d63ad160e11b8152600490fd5b61300f915060203d811161233c5761232e818361222e565b38612fdb565b7f3145c2b643834867f2c0a8cac8a48218307687911615c0ed01412a09dd163b66602061304861304361309f565b613387565b6000547fffffffffffffffffffffff0000000000000000000000000000000000000000ff74ffffffffffffffffffffffffffffffffffffffff008360081b169116176000556001600160a01b0360405191168152a1565b604051633af9e66960e01b8152306004820152602081602481600073ec8fea79026ffed168ccf5c627c7f486d77b765f5af1908115612343576000916130e3575090565b906020823d8211613109575b816130fc6020938361222e565b8101031261096157505190565b3d91506130ef565b60a060405161311e612375565b602081519101207f8b73c3c69bb8fe3d512ecc4cf759cc79239f7b179b0ffacaa9a75d522b39400f825260208201527fc89efdaa54c0f20c7adf612882df0950f5a951637e0307cdcb4c672f298b8bc660408201524660608201523060808201522090565b6805345cdf77eb68f44c8054908382019182106131e357556387a211a2600c526000526020600c20818154019055602052600c5160601c60007fddf252ad1be2c89b69c2b068fc378daa952ba7f163c4a11628f55a4df523b3ef602080a3565b63e5cfe9576000526004601cfd5b90602052637f5e9f20600c526000526034600c20908154600019810361321657505050565b80821161322257039055565b6313be252b6000526004601cfd5b9080600019048211810261324d57670de0b6b3a764000091020490565b63bac65e5b6000526004601cfd5b670de0b6b3a7640000907812725dd1d243aba0e75fe645cc4873f9e65afe688c928e1f21811182021583021561329057020490565b637c5f487d6000526004601cfd5b91600092828102926000198183099184831085018084039314613320578284111561331357908391099060018386038416808080960460028082600302188083028203028083028203028083028203028083028203028083028203028092029003029703040190848311900302920304170290565b63ae47f70286526004601cfd5b50505091821561332f57500490565b63ae47f70290526004601cfd5b6c01000000000000000000000000811015612877576bffffffffffffffffffffffff1690565b700100000000000000000000000000000000811015612877576001600160801b031690565b74010000000000000000000000000000000000000000811015612877576001600160a01b031690565b60109260209260145260345260446000938480936fa9059cbb00000000000000000000000082525af13d1560018351141716156133ec57603452565b6390b8ec1890526004601cfd5b602460106020939284936014526f70a082310000000000000000000000006000525afa601f3d1116602051029056fea2646970667358221220697740a96364de7ec5f23adae046be58692b794a4d1e2d5effd364034bc4737964736f6c63430008110033a264697066735822122078363a5f4a2df12cad2b096d31478d536c554d43cfca7c5767aa5ae6cbbc2e9d64736f6c634300081100336101008060405234620001f3576000805460ff19166001178155635a412e5360e01b80835260a092838160048186335af18015620001e8578391849185918691620001bf575b5060e052855260c052608052670bcbce7f1b1500006006556002600755670214e8348c4f0000600855670de0b6b3a7640000600955604051908152828160048185335af1918215620001b357916200017a575b50600180546001600160a01b0319166001600160a01b0392909216919091179055600b80546001600160601b0365ffffffffffff60b01b01164260e01b6001600160e01b031916176503782dace9d960721b17905560405161345e9182620002a18339608051828181610354015281816122cd0152612fa901525181610405015260c0518181816106490152818161078601528181610a4801528181610c970152818161108b015281816113b4015281816114de0152818161178d0152818161196e01528181611c5e0152611db7015260e05181818161068a01526111480152f35b6200019f9150823d8411620001ab575b620001968183620001f8565b81019062000247565b50509150503862000098565b503d6200018a565b604051903d90823e3d90fd5b92505050620001de9150843d8611620001ab57620001968183620001f8565b9150903862000045565b6040513d85823e3d90fd5b600080fd5b601f909101601f19168101906001600160401b038211908210176200021c57604052565b634e487b7160e01b600052604160045260246000fd5b51906001600160a01b0382168203620001f357565b91908260a0910312620001f35781516001600160a01b03908181168103620001f35792620002786020820162000232565b92620002876040830162000232565b9260608301519081168103620001f3576080909201519056fe6080604081815260048036101561001557600080fd5b600092833560e01c9081630572b0cc14611f7e5750806306fdde0314611f55578063095ea7b314611eeb57806315de1daa14611d5657806318160ddd14611d2f578063182df0f514611d105780631aebf12f14611cf15780631be1956014611c165780631c44698314611bb05780631e44b7fc146119b65780631e7dcc0d1461171e57806323b872dd1461164857806327ce385414611432578063313ce567146113875780633644e5151461136a57806339509351146112e75780633ba0b9a9146112c257806342bf78af1461123a5780634322b7141461121b57806346f608ff146111fe57806347bd3718146111d15780634bdaeac1146111a95780635b322bbe1461116b5780635f77f891146111305780636afdd850146111065780636c321c8a146110af5780636f307dc31461106b57806370a082311461103757806372cf84a7146110185780637d6af07914610ff25780637ecebe0014610fbe57806381f5b6f414610f325780638808e71c14610bda57806394e1373c14610b9257806395d89b4114610a235780639b51099814610a04578063a457c2d714610980578063a6afed9514610964578063a9059cbb146108d6578063aa5af0fd146108a8578063ad168c9d14610880578063ad2961a31461085c578063ad7a672f14610833578063b5f3c95b14610814578063ba087652146106b7578063bcbc332014610611578063c0789dcb146105ef578063c914b437146105c5578063d505accf14610470578063d8dfeb4514610448578063d90e026414610429578063d935bd92146103e5578063dcc3e06e146103b6578063dd62ed3e14610378578063e8a24e1d14610334578063f7c618c1146103015763fff6cae91461029657600080fd5b346102fd57826003193601126102fd5782549160ff8316156102f0578360018460ff1980911683556102c6613015565b6102ce612712565b6102d6612712565b6102de612185565b506102e7613015565b82541617815580f35b516306fda65d60e31b8152fd5b8280fd5b50503461033057816003193601126103305760209051731db2466d9f5e10d7090e7152b68d62703a2245f08152f35b5080fd5b505034610330578160031936011261033057602090516001600160a01b037f0000000000000000000000000000000000000000000000000000000000000000168152f35b50503461033057806003193601126103305760209161039561209b565b9061039e6120b1565b8452637f5e9f20600c52526034600c20549051908152f35b505034610330578160031936011261033057602090517360cf091cd3f50420d50fd7f707414d0df4751c588152f35b505034610330578160031936011261033057602090516001600160a01b037f0000000000000000000000000000000000000000000000000000000000000000168152f35b5050346103305781600319360112610330576020906003549051908152f35b5050346103305781600319360112610330576020906001600160a01b03600154169051908152f35b5090346102fd5760e03660031901126102fd5761048b61209b565b916104946120b1565b6084359160643560443560ff851685036105c1576104b0613111565b928651978342116105b5576001600160a01b038091169516956338377508600c52858a5260209485600c20948554956001870190557f6e71edae12b1b97f4d1f60370fef10105fa2faae0126114a169c64845d6126c98b5287878c0152888a8c015260608b019585875260808c015260a08b01526119018b52855260c0892088526042601e208a5260ff16845260a435875260c435606052838060808b60015afa50843d51036105aa5750777f5e9f200000000000000000000000000000000000000000851786526034602c20557f8c5be1e5ebec7d5bd14f71427d1e84f3dd0314c0f7b2291e5b200ac8c7c3b9259190a3528060605280f35b63ddafbaef8952601cfd5b50631a15a3cc8952601cfd5b8780fd5b50503461033057816003193601126103305760209065ffffffffffff600b5460b01c169051908152f35b505034610330578160031936011261033057602090600b5460e01c9051908152f35b50503461033057816003193601126103305760607f98ccebae89f16f152c93c6a0cdc0d99913b9e62a9fc612471c21ffc299c389fd917f00000000000000000000000000000000000000000000000000000000000000009061067282612a97565b61067a612b28565b6001600160a01b038151921682527f000000000000000000000000000000000000000000000000000000000000000060208301523390820152a180f35b50919034610330576060366003190112610330578235916106d66120b1565b926106df6120c7565b936106e8613015565b6001600160a01b039081861693843303610804575b610705612712565b610716610710612185565b85613230565b9687156107f45761072688612981565b6387a211a2600c5281526020600c208054988986116107e95750846020990390556805345cdf77eb68f44c848154039055838152847fddf252ad1be2c89b69c2b068fc378daa952ba7f163c4a11628f55a4df523b3ef8983a36107aa86827f00000000000000000000000000000000000000000000000000000000000000006133b0565b8451928684528784015216907ffbde797d201c681b91056529119e0b02407c7bb96a4a2c75c01fc9667232c8db843392a46107e3613015565b51908152f35b63f4d678b88352601cfd5b865163e3e8d29760e01b81528990fd5b61080f8433896131f1565b6106fd565b505034610330578160031936011261033057602090600d549051908152f35b5050346103305781600319360112610330576001600160a01b036020925460081c169051908152f35b5050346103305781600319360112610330576020906108796123fb565b9051908152f35b5050346103305781600319360112610330576020906001600160a01b03600254169051908152f35b50503461033057816003193601126103305760209069ffffffffffffffffffff600b5460601c169051908152f35b5091346109615781600319360112610961576108f061209b565b602435916387a211a2600c5233815260209485600c2090815490818611610956575084900390555282600c208181540190558252600c5160601c337fddf252ad1be2c89b69c2b068fc378daa952ba7f163c4a11628f55a4df523b3ef8480a35160018152f35b63f4d678b88452601cfd5b80fd5b833461096157806003193601126109615761097d612712565b80f35b50913461096157816003193601126109615761099a61209b565b60243590602052637f5e9f20600c523382526034600c209081548181106109f85760209550038091558152602c5160601c907f8c5be1e5ebec7d5bd14f71427d1e84f3dd0314c0f7b2291e5b200ac8c7c3b925843392a35160018152f35b85638301ab388552601cfd5b5050346103305781600319360112610330576020906007549051908152f35b5090346102fd57826003193601126102fd5780516395d89b4160e01b815292808484817f00000000000000000000000000000000000000000000000000000000000000006001600160a01b03165afa928315610b86578193610ae5575b610ae18484610ad76028825180947f4379675553443a200000000000000000000000000000000000000000000000006020830152610ac7815180926020868601910161204c565b810103600881018552018361222e565b519182918261206f565b0390f35b909192503d8083863e610af8818661222e565b84019160208584031261096157845167ffffffffffffffff958682116102fd57019183601f84011215610330578251958611610b715750835192610b46601f8701601f19166020018561222e565b858452602086840101116109615750610ae193610b69916020808501910161204c565b903880610a80565b604190634e487b7160e01b6000525260246000fd5b509051903d90823e3d90fd5b5050346103305760203660031901126103305780916001600160a01b03610bb761209b565b168152600a60205220548151906001600160801b038116825260801c6020820152f35b5091903461033057610120366003190112610330578235610bf96120b1565b60c0366043190112610f2e5761010490813567ffffffffffffffff8111610e1e57610c2790369088016120dd565b92610c30613015565b610c3861309f565b9380610e30575b505050610c4b83613387565b916e22d473030f116ddee9f6b43ac78ba3803b15610e2c578680916084885180948193631b63c28b60e11b83528d33908401523060248401526001600160a01b03809a166044840152897f00000000000000000000000000000000000000000000000000000000000000001660648401525af18015610e2257908791610e0a575b5050610ceb610d0191610cde866128f6565b610ce661309f565b6121db565b610cf3612712565b610cfb612185565b9061325b565b948515610dfa576805345cdf77eb68f44c8054918215610d66575b50505060209550610d2d8582613183565b8351928352848684015216907fdcbc1c05240f31ff3ad067ef1ee35ce4997762752e3a095284754544f4c709d7833392a36107e3613015565b919690916103e7198201918211610de75750956103e891828201918210610dda5760209850556387a211a2600c5261dead60005286600c208181540190558652600c5160601c60007fddf252ad1be2c89b69c2b068fc378daa952ba7f163c4a11628f55a4df523b3ef8880a3388080610d1c565b8863e5cfe957600052601cfd5b634e487b7160e01b815260118952602490fd5b845163f1ca48b160e01b81528790fd5b610e13906121e8565b610e1e578538610ccc565b8580fd5b86513d89823e3d90fd5b8680fd5b6e22d473030f116ddee9f6b43ac78ba3803b15610f2a5787516302b67b5760e41b8152338b820152936001600160a01b039283610e6b6120c7565b166024870152606435848116809103610f2657604487015260843565ffffffffffff90818116809103610f2157606488015260a435908116809103610f2157608487015260c435938416809403610f215785610ee78195938d97938894849660a486015260e43560c486015261010060e4860152840191612354565b03925af18015610f1757908691610eff575b80610c3f565b610f08906121e8565b610f13578438610ef9565b8480fd5b85513d88823e3d90fd5b600080fd5b8b80fd5b8880fd5b8380fd5b5090346102fd5760203660031901126102fd57813591610f50613015565b610f58612712565b6001600160a01b03600c54163303610fb057507fc63644116f6ef474fe595238489f3d0d31a12c55be3a748d72269a62882b04c990610f96836128f6565b42600d5580519283524260208401523392a261097d613015565b9051630dd8de6360e11b8152fd5b50503461033057602036600319011261033057602091610fdc61209b565b906338377508600c525281600c20549051908152f35b5050346103305760203660031901126103305760209061087961101361209b565b6123ae565b5050346103305781600319360112610330576020906005549051908152f35b5050346103305760203660031901126103305760209161105561209b565b906387a211a2600c525281600c20549051908152f35b505034610330578160031936011261033057602090516001600160a01b037f0000000000000000000000000000000000000000000000000000000000000000168152f35b5050346103305781600319360112610330576020916bffffffffffffffffffffffff600b541680156000146110e657509051908152f35b610cfb816001600160a01b03611100945460081c16612162565b906107e3565b505034610330578160031936011261033057602090516e22d473030f116ddee9f6b43ac78ba38152f35b505034610330578160031936011261033057602090517f00000000000000000000000000000000000000000000000000000000000000008152f35b83346109615760203660031901126109615761097d61118861209b565b611191816123ae565b69ffffffffffffffffffff600b5460601c16916126ab565b5050346103305781600319360112610330576020906001600160a01b03600c54169051908152f35b5050346103305781600319360112610330576020906bffffffffffffffffffffffff600b54169051908152f35b50346102fd57826003193601126102fd5760209250549051908152f35b5050346103305781600319360112610330576020906008549051908152f35b505034610330576020366003190112610330577f2a0d5dc7fbc8045f59cb33c736f04f9a9b565e9f425912f9cd2bafdebd50cead9061127761209b565b61127f612f8b565b600280546001600160a01b0392831673ffffffffffffffffffffffffffffffffffffffff198216811790925592519190921681526020810191909152604090a180f35b5050346103305781600319360112610330576020906112df612712565b610879612185565b50913461096157816003193601126109615761130161209b565b602052637f5e9f20600c523381526034600c2092835490602435820191821061135f575080602094558152602c5160601c907f8c5be1e5ebec7d5bd14f71427d1e84f3dd0314c0f7b2291e5b200ac8c7c3b925843392a35160018152f35b63f90670668352601cfd5b505034610330578160031936011261033057602090610879613111565b50913461096157806003193601126109615760208251809463313ce56760e01b8252816001600160a01b037f0000000000000000000000000000000000000000000000000000000000000000165afa928315610b865781936113f1575b60208460ff855191168152f35b9092506020813d821161142a575b8161140c6020938361222e565b810103126102fd57519160ff83168303610961575060ff60206113e4565b3d91506113ff565b5090346102fd576114423661210b565b91969384549760ff8916156116385760ff199889168655879493929190611467613015565b61146f612712565b611478826123ae565b90808210156116305750915b6001600160a01b039360208560648160015416988b8d51998a948593632d3aef6960e21b855216809d84015288169a8b60248401528960448401525af19485156116265788956115f3575b5080611581575b5050611502307f00000000000000000000000000000000000000000000000000000000000000006133f9565b978289106115735750917fb2b14447b2fb5b250428a70cf03fd19f8ff7ee7e04a46ebe7824df2a0c91a9e38860209a95936115408260019997612474565b5061154a826128f6565b8951938452602084015260408301523391606090a4611567613015565b82541617905551908152f35b87516307b1bd6f60e21b8152fd5b333b156105c15787908a6115c18b51948593849363e95471c760e01b85523390850152896024850152886044850152608060648501526084840191612354565b038183335af180156115e957908791156114d6576115de906121e8565b610e1e5785386114d6565b88513d89823e3d90fd5b9094506020813d821161161e575b8161160e6020938361222e565b81010312610f21575193386114cf565b3d9150611601565b89513d8a823e3d90fd5b905091611484565b86516306fda65d60e31b81528890fd5b509190346103305760603660031901126103305761166461209b565b61166c6120b1565b6044358260601b91602095338752600c93637f5e9f208117855260348520805460001981036116fb575b50506387a211a21784528684208054988985116107e95750836001600160a01b03969798990390555285822081815401905585525160601c91167fddf252ad1be2c89b69c2b068fc378daa952ba7f163c4a11628f55a4df523b3ef8480a35160018152f35b8086116117125785900390556387a211a238611696565b8a6313be252b8552601cfd5b509190346103305761172f3661210b565b94939686939193549560ff8716156119a75760ff199687168855839190611754613015565b61175c612712565b6001600160a01b03998a811696338803611997575b841515928361195e575b806118d9575b50506117b9906117b1307f00000000000000000000000000000000000000000000000000000000000000006133f9565b9485916125b6565b908386111561188f575060208a600154169160448951809481936333e3231160e21b83528b8884015260248301525afa90811561188557899161184b575b501561183d5750967f96558a334f4759f0e7c423d68c84721860bd8fbf94ddc4e55158ecb125ad04b591600197985b8651948552602085015216933392a46102e7613015565b855163efd5188560e01b8152fd5b90506020813d821161187d575b816118656020938361222e565b81010312610f2a57518015158103610f2a57386117f7565b3d9150611858565b87513d8b823e3d90fd5b90506118cb5750967f96558a334f4759f0e7c423d68c84721860bd8fbf94ddc4e55158ecb125ad04b591886118c66001999a6128f6565b611826565b8551637cc109a560e11b8152fd5b909192939450333b1561195a57611919918b918a519384928392638f53d74f60e01b8452338a8501528b6024850152606060448501526064840191612354565b038183335af1801561195057611935575b908186949392611781565b85939291996119466117b9926121e8565b999192935061192a565b88513d8c823e3d90fd5b8a80fd5b61196786612981565b61199286887f00000000000000000000000000000000000000000000000000000000000000006133b0565b61177b565b6119a28533846131f1565b611771565b5084516306fda65d60e31b8152fd5b50346102fd5760803660031901126102fd578035916024359060443591606435936119df612f8b565b67016345785d8a00008611611b91576706f05b59d3b2000085108015611b9f575b611b915760018085108015611b87575b611b78576301e13380918288046003558683028381048803611b6557611a36908561325b565b8155856007558660065588928685029060001988870991808310810180840393147f98f5be4dd1e14769fbd6666224dc1eb80dd2e0a3d2c8b328f57e76b7ae1039578484111594848c8b0990848211900360f91b90840360071c170295611ae5575b508b7ff58b8cc439edada25fd9495b7364aeb1d737dbef59be1cf62e0cc4001c44a3cd60808d8d8d8d8d611acc848f61325b565b600555815194855260208501528301526060820152a180f35b90919293949550611b30575050611b25575081611acc8660807ff58b8cc439edada25fd9495b7364aeb1d737dbef59be1cf62e0cc4001c44a3cd38611a98565b63ae47f7028852601cfd5b049250839150611acc90508660807ff58b8cc439edada25fd9495b7364aeb1d737dbef59be1cf62e0cc4001c44a3cd38611a98565b634e487b7160e01b8a526011825260248afd5b508251630e49b3b360e41b8152fd5b50600a8511611a10565b8251630e49b3b360e41b8152fd5b50670d2f13f7789f00008511611a00565b50346102fd5760203660031901126102fd57803590611bcd612f8b565b6702c68af0bb1400008211611b915750907faaa68312e2ea9d50e16af5068410ab56e1a1fd06037b1a35664812c30f82146091600854908060085582519182526020820152a180f35b5091903461033057602036600319011261033057611c3261209b565b9082549160ff831615611ce15760ff199283168455611c4f612f8b565b6001600160a01b0391828216927f0000000000000000000000000000000000000000000000000000000000000000168314611cd2576001949550611c9f611c9630846133f9565b809333906133b0565b519081527f6d25be279134f4ecaa4770aff0c3d916d9e7c5ef37b65ed95dbdba411f5d54d560203392a382541617815580f35b5163b5d8f39160e01b81528590fd5b81516306fda65d60e31b81528590fd5b5050346103305781600319360112610330576020906006549051908152f35b5050346103305781600319360112610330576020906009549051908152f35b5050346103305781600319360112610330576020906805345cdf77eb68f44c549051908152f35b5090346102fd5760209081600319360112610f2e578235936001600160a01b039283861680960361033057611d89612f8b565b600c928354958773ffffffffffffffffffffffffffffffffffffffff198816178555611db3612c14565b50947f00000000000000000000000000000000000000000000000000000000000000008716855b8751811015611eb7578189611def838b612bdb565b511603611e05575b611e0090612c05565b611dda565b611e4f868a611e14848c612bdb565b51168b8654169088518080958194636eb1769f60e11b8352308c84019060209093929360408301946001600160a01b03809216845216910152565b03915afa8015611ead57908791611e84575b505080611e7d8c8b611e76611e00958d612bdb565b51166129c8565b9050611df7565b813d8311611ea6575b611e97818361222e565b81010312610e2c578538611e61565b503d611e8d565b86513d8a823e3d90fd5b867f6a97a9e954ae4ef4c8ecc6c7dd8a1cbe668254132294ceb515db9a2e4faad7f5868c8e8a8e845193168352820152a180f35b505034610330578060031936011261033057602091611f0861209b565b602435908452637f5e9f20600c52338252806034600c20558152602c5160601c907f8c5be1e5ebec7d5bd14f71427d1e84f3dd0314c0f7b2291e5b200ac8c7c3b925843392a35160018152f35b505034610330578160031936011261033057610ae190611f73612375565b90519182918261206f565b8385843461033057816003193601126103305781549360ff85161561200357611fcd84868560ff198092168155611fb3612c14565b94906001809484541617835584519480865285019061200f565b6020848203818601528080875193848152019601925b828110611ff05785870386f35b8351875295810195928101928401611fe3565b6306fda65d60e31b8152fd5b90815180825260208080930193019160005b82811061202f575050505090565b83516001600160a01b031685529381019392810192600101612021565b60005b83811061205f5750506000910152565b818101518382015260200161204f565b6040916020825261208f815180928160208601526020868601910161204c565b601f01601f1916010190565b600435906001600160a01b0382168203610f2157565b602435906001600160a01b0382168203610f2157565b604435906001600160a01b0382168203610f2157565b9181601f84011215610f215782359167ffffffffffffffff8311610f215760208381860195010111610f2157565b906080600319830112610f21576001600160a01b03916004358381168103610f2157926024359081168103610f215791604435916064359067ffffffffffffffff8211610f215761215e916004016120dd565b9091565b9190820180921161216f57565b634e487b7160e01b600052601160045260246000fd5b6805345cdf77eb68f44c5480156121d457806121cc6121d1926121c76001600160a01b0360005460081c166bffffffffffffffffffffffff600b541690612162565b61325b565b61226f565b90565b5060095490565b9190820391821161216f57565b67ffffffffffffffff81116121fc57604052565b634e487b7160e01b600052604160045260246000fd5b6040810190811067ffffffffffffffff8211176121fc57604052565b90601f8019910116810190811067ffffffffffffffff8211176121fc57604052565b90816020910312610f2157516001600160a01b0381168103610f215790565b60095490918183111561234f57610ce66122a161229b6122926122a995876121db565b60085490613230565b856121db565b80948361329e565b806122b7575b508060095590565b604051630b60d15f60e31b8152906020826004817f00000000000000000000000000000000000000000000000000000000000000006001600160a01b03165afa80156123435761230f92600091612315575b50613183565b386122af565b612336915060203d811161233c575b61232e818361222e565b810190612250565b38612309565b503d612324565b6040513d6000823e3d90fd5b505090565b908060209392818452848401376000828201840152601f01601f1916010190565b6040519061238282612212565b601282527f4379676e75733a20426f72726f7761626c6500000000000000000000000000006020830152565b6001600160a01b0316600052600a6020526040600020548060801c80156123f4576121d1916001600160801b0369ffffffffffffffffffff600b5460601c16911661329e565b5050600090565b600b54600854670de0b6b3a764000090810390811161216f576124299065ffffffffffff8360b01c16613230565b6001600160a01b036bffffffffffffffffffffffff8160005460081c16931680930181811161216f571691821561246c576121d1926124679161325b565b613230565b505050600090565b919091612480816123ae565b83156125b157906125699169ffffffffffffffffffff600b5460601c169160006001600160a01b0382168152600a60205260408120968084116000146125a55761252690840380945b610ce6829a6001600160801b036124df85613362565b82546fffffffffffffffffffffffffffffffff19169116178155836125735780546001600160801b0316608087901b6fffffffffffffffffffffffffffffffff1916179055565b600b54916bffffffffffffffffffffffff9161254f91838516908282111561256b57500361333c565b16906bffffffffffffffffffffffff191617600b556126ab565b565b91505061333c565b61257c89613362565b81546001600160801b031660809190911b6fffffffffffffffffffffffffffffffff1916179055565b506125268180946124c9565b925050565b9291926125c2816123ae565b8483146126a55769ffffffffffffffffffff600b5460601c16946000936001600160a01b0384168552600a60205260408520948282116000146126695750916126176126449794926125699694038092612162565b9687936001600160801b0361262b86613362565b166001600160801b031982541617815561257c86613362565b600b549061254f6126646bffffffffffffffffffffffff92838516612162565b61333c565b90612569959361252691610ce69996940380821160001461269d578103905b81998a966001600160801b036124df85613362565b508290612688565b93505050565b9190916001600160a01b0390816002541690811561270b57813b15610f215760006064928195604051978896879563d98320d560e01b8752166004860152602485015260448401525af18015612343576127025750565b612569906121e8565b5050505050565b63ffffffff804216600b548060e01c928383039381851161216f576bffffffffffffffffffffffff918284169169ffffffffffffffffffff6001600160a01b0360005460081c169560601c169514801561288d575b612885576127758285612895565b95169384860294868604148615171561216f57806127aa6127b0926127a461279d868a613230565b8096612162565b97613230565b90612162565b916127ba8561333c565b16916a0100000000000000000000811015612877576601000000000000861015612877577f875352fb3fadeb8c0be7cbbe8ff761b308fa7033470cd0287f02f3436fd76cb9957bffffffffffff000000000000000000000000000000000000000000006128729475ffffffffffffffffffff00000000000000000000000063ffffffff60e01b4260e01b169460601b16179160b01b161717600b55604051938493846040919493926060820195825260208201520152565b0390a1565b6335278d126000526004601cfd5b505050505050565b508115612767565b90610cfb816128a393612162565b600654808211156128e557906128e06128d76121d1936128d16128c860045483613230565b60035490612162565b936121db565b60055490613230565b612162565b506128c86121d19160045490613230565b6040519063140e25ad60e31b82526004820152602081602481600073ec8fea79026ffed168ccf5c627c7f486d77b765f5af190811561234357600091612950575b5061293e57565b6040516339d7be8d60e21b8152600490fd5b906020823d8211612979575b816129696020938361222e565b8101031261096157505138612937565b3d915061295c565b6040519063852a12e360e01b82526004820152602081602481600073ec8fea79026ffed168ccf5c627c7f486d77b765f5af190811561234357600091612950575061293e57565b604051636eb1769f60e11b81523060048201526001600160a01b03831660248201529190602083806044810103816001600160a01b0385165afa92831561234357600093612a64575b5060001980931015612a5f5760106000604492602095829560145260345263095ea7b360601b82525af13d15600160005114171615612a51576000603452565b633e3f8f736000526004601cfd5b505050565b90926020823d8211612a8f575b81612a7e6020938361222e565b810103126109615750519138612a11565b3d9150612a71565b604051636eb1769f60e11b815230600482015273ec8fea79026ffed168ccf5c627c7f486d77b765f6024820181905290916020836044816001600160a01b0385165afa92831561234357600093612a64575060001980931015612a5f5760106000604492602095829560145260345263095ea7b360601b82525af13d15600160005114171615612a51576000603452565b604051636eb1769f60e11b815230600482015273dc05d85069dc4aba65954008ff99f2d73ff1261860248201819052731db2466d9f5e10d7090e7152b68d62703a2245f0602083604481845afa92831561234357600093612a64575060001980931015612a5f5760106000604492602095829560145260345263095ea7b360601b82525af13d15600160005114171615612a51576000603452565b67ffffffffffffffff81116121fc5760051b60200190565b8051821015612bef5760209160051b010190565b634e487b7160e01b600052603260045260246000fd5b600019811461216f5760010190565b6000906040908151612c2581612212565b6001815260209283820184368237825115612f775773ec8fea79026ffed168ccf5c627c7f486d77b765f90527360cf091cd3f50420d50fd7f707414d0df4751c5891823b15610e1e57815162e1ed9760e51b815286816004953087830152818381612c9b6024988a8a840152604483019061200f565b03925af18015612f6d57612f5a575b50815163d1058e5960e01b815273dc05d85069dc4aba65954008ff99f2d73ff12618969081818681838c5af1908115612f50578291612ec0575b50306014526f70a0823100000000000000000000000082528680846010731db2466d9f5e10d7090e7152b68d62703a2245f05afa601f3d111687510280612e6e575b50519260001992838501948511612e5d57612d4085612bc3565b92612d4d8351948561222e565b858452601f199485612d5e88612bc3565b01368b870137849a612d6f88612bc3565b96612d7c8651988961222e565b888852612d8889612bc3565b01368c890137869a60015b89811115612da8575050505050505050505050565b86516327b2595f60e11b81528b81018290528281888189885af1908115612e53578691612e36575b5084820190828211612e245790612e19612e128b612e1f9594612df38583612bdb565b6001600160a01b038092169052612e0b853093612bdb565b51166133f9565b918c612bdb565b52612c05565b612d93565b634e487b7160e01b875260118d528787fd5b612e4d9150833d851161233c5761232e818361222e565b38612dd0565b88513d88823e3d90fd5b634e487b7160e01b83526011865282fd5b883b156102fd5784519063140e25ad60e31b82528682015282818581838d5af18015612eb657908391612ea2575b50612d26565b612eab906121e8565b610330578138612e9c565b85513d85823e3d90fd5b90503d8083833e612ed1818361222e565b81019087818303126102fd5780519067ffffffffffffffff8211610f2e57019080601f830112156102fd578151612f0781612bc3565b92612f148751948561222e565b818452898085019260051b820101928311610f135789809101915b838310612f40575050505038612ce4565b82518152918101918a9101612f2f565b84513d84823e3d90fd5b612f66909691966121e8565b9438612caa565b83513d89823e3d90fd5b634e487b7160e01b86526032600452602486fd5b6040516303e1469160e61b81526001600160a01b03906020816004817f000000000000000000000000000000000000000000000000000000000000000086165afa90811561234357600091612ff7575b50163303612fe557565b6040516331d63ad160e11b8152600490fd5b61300f915060203d811161233c5761232e818361222e565b38612fdb565b7f3145c2b643834867f2c0a8cac8a48218307687911615c0ed01412a09dd163b66602061304861304361309f565b613387565b6000547fffffffffffffffffffffff0000000000000000000000000000000000000000ff74ffffffffffffffffffffffffffffffffffffffff008360081b169116176000556001600160a01b0360405191168152a1565b604051633af9e66960e01b8152306004820152602081602481600073ec8fea79026ffed168ccf5c627c7f486d77b765f5af1908115612343576000916130e3575090565b906020823d8211613109575b816130fc6020938361222e565b8101031261096157505190565b3d91506130ef565b60a060405161311e612375565b602081519101207f8b73c3c69bb8fe3d512ecc4cf759cc79239f7b179b0ffacaa9a75d522b39400f825260208201527fc89efdaa54c0f20c7adf612882df0950f5a951637e0307cdcb4c672f298b8bc660408201524660608201523060808201522090565b6805345cdf77eb68f44c8054908382019182106131e357556387a211a2600c526000526020600c20818154019055602052600c5160601c60007fddf252ad1be2c89b69c2b068fc378daa952ba7f163c4a11628f55a4df523b3ef602080a3565b63e5cfe9576000526004601cfd5b90602052637f5e9f20600c526000526034600c20908154600019810361321657505050565b80821161322257039055565b6313be252b6000526004601cfd5b9080600019048211810261324d57670de0b6b3a764000091020490565b63bac65e5b6000526004601cfd5b670de0b6b3a7640000907812725dd1d243aba0e75fe645cc4873f9e65afe688c928e1f21811182021583021561329057020490565b637c5f487d6000526004601cfd5b91600092828102926000198183099184831085018084039314613320578284111561331357908391099060018386038416808080960460028082600302188083028203028083028203028083028203028083028203028083028203028092029003029703040190848311900302920304170290565b63ae47f70286526004601cfd5b50505091821561332f57500490565b63ae47f70290526004601cfd5b6c01000000000000000000000000811015612877576bffffffffffffffffffffffff1690565b700100000000000000000000000000000000811015612877576001600160801b031690565b74010000000000000000000000000000000000000000811015612877576001600160a01b031690565b60109260209260145260345260446000938480936fa9059cbb00000000000000000000000082525af13d1560018351141716156133ec57603452565b6390b8ec1890526004601cfd5b602460106020939284936014526f70a082310000000000000000000000006000525afa601f3d1116602051029056fea2646970667358221220697740a96364de7ec5f23adae046be58692b794a4d1e2d5effd364034bc4737964736f6c63430008110033","opcodes":"PUSH1 0xA0 CALLVALUE PUSH2 0x69 JUMPI PUSH2 0x36FF SWAP1 PUSH1 0x3F DUP3 ADD PUSH1 0x1F NOT AND DUP2 ADD PUSH1 0x1 PUSH1 0x1 PUSH1 0x40 SHL SUB DUP2 GT DUP3 DUP3 LT OR PUSH2 0x53 JUMPI PUSH1 0x40 MSTORE DUP2 DUP2 MSTORE PUSH1 0x20 DUP2 ADD SWAP2 PUSH2 0x3A15 DUP4 CODECOPY MLOAD SWAP1 KECCAK256 PUSH1 0x80 MSTORE PUSH1 0x40 MLOAD PUSH2 0x39A6 SWAP1 DUP2 PUSH2 0x6F DUP3 CODECOPY PUSH1 0x80 MLOAD DUP2 PUSH1 0x5C ADD MSTORE RETURN JUMPDEST PUSH4 0x4E487B71 PUSH1 0xE0 SHL PUSH1 0x0 MSTORE PUSH1 0x41 PUSH1 0x4 MSTORE PUSH1 0x24 PUSH1 0x0 REVERT JUMPDEST PUSH1 0x0 DUP1 REVERT INVALID PUSH1 0x80 PUSH1 0x40 DUP2 DUP2 MSTORE PUSH1 0x4 SWAP2 DUP3 CALLDATASIZE LT ISZERO PUSH2 0x16 JUMPI PUSH1 0x0 DUP1 REVERT JUMPDEST PUSH1 0x0 SWAP3 DUP4 CALLDATALOAD PUSH1 0xE0 SHR SWAP2 DUP3 PUSH4 0x5A412E53 EQ PUSH2 0x215 JUMPI POP DUP2 PUSH4 0x9BA991F8 EQ PUSH2 0x83 JUMPI POP PUSH4 0xB3984B8D EQ PUSH2 0x46 JUMPI PUSH1 0x0 DUP1 REVERT JUMPDEST CALLVALUE PUSH2 0x7F JUMPI DUP2 PUSH1 0x3 NOT CALLDATASIZE ADD SLT PUSH2 0x7F JUMPI PUSH1 0x20 SWAP1 MLOAD PUSH32 0x0 DUP2 MSTORE RETURN JUMPDEST POP DUP1 REVERT JUMPDEST SWAP2 SWAP1 POP CALLVALUE PUSH2 0x211 JUMPI PUSH1 0x80 CALLDATASIZE PUSH1 0x3 NOT ADD SLT PUSH2 0x211 JUMPI DUP2 CALLDATALOAD SWAP1 PUSH20 0xFFFFFFFFFFFFFFFFFFFFFFFFFFFFFFFFFFFFFFFF SWAP2 DUP3 DUP2 AND DUP1 SWAP2 SUB PUSH2 0x20D JUMPI PUSH1 0x24 CALLDATALOAD DUP4 DUP2 AND DUP1 SWAP2 SUB PUSH2 0x209 JUMPI PUSH1 0x44 CALLDATALOAD DUP5 DUP2 AND DUP1 SWAP2 SUB PUSH2 0x205 JUMPI DUP4 MLOAD PUSH8 0xFFFFFFFFFFFFFFFF SWAP4 PUSH1 0x64 CALLDATALOAD SWAP3 SWAP2 PUSH1 0xA0 DUP2 ADD DUP7 DUP2 GT DUP3 DUP3 LT OR PUSH2 0x1F2 JUMPI DUP5 SWAP2 PUSH1 0x80 SWAP2 DUP10 MSTORE CALLER DUP2 MSTORE DUP4 PUSH1 0x20 DUP3 ADD MSTORE DUP7 DUP10 DUP3 ADD MSTORE DUP5 PUSH1 0x60 DUP3 ADD MSTORE ADD MSTORE PUSH32 0xFFFFFFFFFFFFFFFFFFFFFFFF0000000000000000000000000000000000000000 SWAP1 CALLER DUP3 DUP12 SLOAD AND OR DUP11 SSTORE DUP2 PUSH1 0x1 SLOAD AND OR PUSH1 0x1 SSTORE DUP4 DUP2 PUSH1 0x2 SLOAD AND OR PUSH1 0x2 SSTORE PUSH1 0x3 SLOAD AND OR PUSH1 0x3 SSTORE DUP6 SSTORE DUP3 MLOAD PUSH1 0x20 DUP2 ADD SWAP2 DUP3 MSTORE CALLER DUP5 DUP3 ADD MSTORE DUP4 DUP2 MSTORE PUSH1 0x60 DUP2 ADD SWAP2 DUP2 DUP4 LT DUP5 DUP5 GT OR PUSH2 0x1DF JUMPI DUP3 DUP6 MSTORE DUP2 MLOAD SWAP1 KECCAK256 SWAP3 PUSH2 0x36FF DUP1 DUP4 ADD SWAP2 PUSH1 0x60 DUP4 ADD SWAP1 DUP6 DUP3 LT SWAP2 GT OR PUSH2 0x1CC JUMPI PUSH2 0x272 DUP5 CODECOPY SUB SWAP1 DUP7 CREATE2 SWAP3 DUP4 ISZERO PUSH2 0x1C2 JUMPI SWAP4 PUSH1 0x20 SWAP5 DUP2 DUP1 SSTORE DUP2 PUSH1 0x1 SSTORE DUP2 PUSH1 0x2 SSTORE DUP2 PUSH1 0x3 SSTORE SSTORE MLOAD SWAP2 AND DUP2 MSTORE RETURN JUMPDEST DUP2 MLOAD RETURNDATASIZE DUP7 DUP3 RETURNDATACOPY RETURNDATASIZE SWAP1 REVERT JUMPDEST PUSH4 0x4E487B71 PUSH1 0xE0 SHL DUP10 MSTORE PUSH1 0x41 DUP9 MSTORE PUSH1 0x24 DUP10 REVERT JUMPDEST PUSH4 0x4E487B71 PUSH1 0xE0 SHL DUP9 MSTORE PUSH1 0x41 DUP8 MSTORE PUSH1 0x24 DUP9 REVERT JUMPDEST PUSH4 0x4E487B71 PUSH1 0xE0 SHL DUP12 MSTORE PUSH1 0x41 DUP11 MSTORE PUSH1 0x24 DUP12 REVERT JUMPDEST DUP7 DUP1 REVERT JUMPDEST DUP6 DUP1 REVERT JUMPDEST DUP5 DUP1 REVERT JUMPDEST DUP3 DUP1 REVERT JUMPDEST SWAP3 SWAP2 POP CALLVALUE PUSH2 0x26D JUMPI DUP4 PUSH1 0x3 NOT CALLDATASIZE ADD SLT PUSH2 0x26D JUMPI PUSH1 0xA0 SWAP4 PUSH20 0xFFFFFFFFFFFFFFFFFFFFFFFFFFFFFFFFFFFFFFFF DUP1 SWAP2 SLOAD AND SWAP3 DUP2 PUSH1 0x1 SLOAD AND DUP3 PUSH1 0x2 SLOAD AND SWAP3 PUSH1 0x3 SLOAD AND SWAP4 SLOAD SWAP5 DUP7 MSTORE PUSH1 0x20 DUP7 ADD MSTORE DUP5 ADD MSTORE PUSH1 0x60 DUP4 ADD MSTORE PUSH1 0x80 DUP3 ADD MSTORE RETURN JUMPDEST DUP4 DUP1 REVERT INVALID PUSH2 0x100 DUP1 PUSH1 0x40 MSTORE CALLVALUE PUSH3 0x1F3 JUMPI PUSH1 0x0 DUP1 SLOAD PUSH1 0xFF NOT AND PUSH1 0x1 OR DUP2 SSTORE PUSH4 0x5A412E53 PUSH1 0xE0 SHL DUP1 DUP4 MSTORE PUSH1 0xA0 SWAP3 DUP4 DUP2 PUSH1 0x4 DUP2 DUP7 CALLER GAS CALL DUP1 ISZERO PUSH3 0x1E8 JUMPI DUP4 SWAP2 DUP5 SWAP2 DUP6 SWAP2 DUP7 SWAP2 PUSH3 0x1BF JUMPI JUMPDEST POP PUSH1 0xE0 MSTORE DUP6 MSTORE PUSH1 0xC0 MSTORE PUSH1 0x80 MSTORE PUSH8 0xBCBCE7F1B150000 PUSH1 0x6 SSTORE PUSH1 0x2 PUSH1 0x7 SSTORE PUSH8 0x214E8348C4F0000 PUSH1 0x8 SSTORE PUSH8 0xDE0B6B3A7640000 PUSH1 0x9 SSTORE PUSH1 0x40 MLOAD SWAP1 DUP2 MSTORE DUP3 DUP2 PUSH1 0x4 DUP2 DUP6 CALLER GAS CALL SWAP2 DUP3 ISZERO PUSH3 0x1B3 JUMPI SWAP2 PUSH3 0x17A JUMPI JUMPDEST POP PUSH1 0x1 DUP1 SLOAD PUSH1 0x1 PUSH1 0x1 PUSH1 0xA0 SHL SUB NOT AND PUSH1 0x1 PUSH1 0x1 PUSH1 0xA0 SHL SUB SWAP3 SWAP1 SWAP3 AND SWAP2 SWAP1 SWAP2 OR SWAP1 SSTORE PUSH1 0xB DUP1 SLOAD PUSH1 0x1 PUSH1 0x1 PUSH1 0x60 SHL SUB PUSH6 0xFFFFFFFFFFFF PUSH1 0xB0 SHL ADD AND TIMESTAMP PUSH1 0xE0 SHL PUSH1 0x1 PUSH1 0x1 PUSH1 0xE0 SHL SUB NOT AND OR PUSH6 0x3782DACE9D9 PUSH1 0x72 SHL OR SWAP1 SSTORE PUSH1 0x40 MLOAD PUSH2 0x345E SWAP2 DUP3 PUSH3 0x2A1 DUP4 CODECOPY PUSH1 0x80 MLOAD DUP3 DUP2 DUP2 PUSH2 0x354 ADD MSTORE DUP2 DUP2 PUSH2 0x22CD ADD MSTORE PUSH2 0x2FA9 ADD MSTORE MLOAD DUP2 PUSH2 0x405 ADD MSTORE PUSH1 0xC0 MLOAD DUP2 DUP2 DUP2 PUSH2 0x649 ADD MSTORE DUP2 DUP2 PUSH2 0x786 ADD MSTORE DUP2 DUP2 PUSH2 0xA48 ADD MSTORE DUP2 DUP2 PUSH2 0xC97 ADD MSTORE DUP2 DUP2 PUSH2 0x108B ADD MSTORE DUP2 DUP2 PUSH2 0x13B4 ADD MSTORE DUP2 DUP2 PUSH2 0x14DE ADD MSTORE DUP2 DUP2 PUSH2 0x178D ADD MSTORE DUP2 DUP2 PUSH2 0x196E ADD MSTORE DUP2 DUP2 PUSH2 0x1C5E ADD MSTORE PUSH2 0x1DB7 ADD MSTORE PUSH1 0xE0 MLOAD DUP2 DUP2 DUP2 PUSH2 0x68A ADD MSTORE PUSH2 0x1148 ADD MSTORE RETURN JUMPDEST PUSH3 0x19F SWAP2 POP DUP3 RETURNDATASIZE DUP5 GT PUSH3 0x1AB JUMPI JUMPDEST PUSH3 0x196 DUP2 DUP4 PUSH3 0x1F8 JUMP JUMPDEST DUP2 ADD SWAP1 PUSH3 0x247 JUMP JUMPDEST POP POP SWAP2 POP POP CODESIZE PUSH3 0x98 JUMP JUMPDEST POP RETURNDATASIZE PUSH3 0x18A JUMP JUMPDEST PUSH1 0x40 MLOAD SWAP1 RETURNDATASIZE SWAP1 DUP3 RETURNDATACOPY RETURNDATASIZE SWAP1 REVERT JUMPDEST SWAP3 POP POP POP PUSH3 0x1DE SWAP2 POP DUP5 RETURNDATASIZE DUP7 GT PUSH3 0x1AB JUMPI PUSH3 0x196 DUP2 DUP4 PUSH3 0x1F8 JUMP JUMPDEST SWAP2 POP SWAP1 CODESIZE PUSH3 0x45 JUMP JUMPDEST PUSH1 0x40 MLOAD RETURNDATASIZE DUP6 DUP3 RETURNDATACOPY RETURNDATASIZE SWAP1 REVERT JUMPDEST PUSH1 0x0 DUP1 REVERT JUMPDEST PUSH1 0x1F SWAP1 SWAP2 ADD PUSH1 0x1F NOT AND DUP2 ADD SWAP1 PUSH1 0x1 PUSH1 0x1 PUSH1 0x40 SHL SUB DUP3 GT SWAP1 DUP3 LT OR PUSH3 0x21C JUMPI PUSH1 0x40 MSTORE JUMP JUMPDEST PUSH4 0x4E487B71 PUSH1 0xE0 SHL PUSH1 0x0 MSTORE PUSH1 0x41 PUSH1 0x4 MSTORE PUSH1 0x24 PUSH1 0x0 REVERT JUMPDEST MLOAD SWAP1 PUSH1 0x1 PUSH1 0x1 PUSH1 0xA0 SHL SUB DUP3 AND DUP3 SUB PUSH3 0x1F3 JUMPI JUMP JUMPDEST SWAP2 SWAP1 DUP3 PUSH1 0xA0 SWAP2 SUB SLT PUSH3 0x1F3 JUMPI DUP2 MLOAD PUSH1 0x1 PUSH1 0x1 PUSH1 0xA0 SHL SUB SWAP1 DUP2 DUP2 AND DUP2 SUB PUSH3 0x1F3 JUMPI SWAP3 PUSH3 0x278 PUSH1 0x20 DUP3 ADD PUSH3 0x232 JUMP JUMPDEST SWAP3 PUSH3 0x287 PUSH1 0x40 DUP4 ADD PUSH3 0x232 JUMP JUMPDEST SWAP3 PUSH1 0x60 DUP4 ADD MLOAD SWAP1 DUP2 AND DUP2 SUB PUSH3 0x1F3 JUMPI PUSH1 0x80 SWAP1 SWAP3 ADD MLOAD SWAP1 JUMP INVALID PUSH1 0x80 PUSH1 0x40 DUP2 DUP2 MSTORE PUSH1 0x4 DUP1 CALLDATASIZE LT ISZERO PUSH2 0x15 JUMPI PUSH1 0x0 DUP1 REVERT JUMPDEST PUSH1 0x0 SWAP3 DUP4 CALLDATALOAD PUSH1 0xE0 SHR SWAP1 DUP2 PUSH4 0x572B0CC EQ PUSH2 0x1F7E JUMPI POP DUP1 PUSH4 0x6FDDE03 EQ PUSH2 0x1F55 JUMPI DUP1 PUSH4 0x95EA7B3 EQ PUSH2 0x1EEB JUMPI DUP1 PUSH4 0x15DE1DAA EQ PUSH2 0x1D56 JUMPI DUP1 PUSH4 0x18160DDD EQ PUSH2 0x1D2F JUMPI DUP1 PUSH4 0x182DF0F5 EQ PUSH2 0x1D10 JUMPI DUP1 PUSH4 0x1AEBF12F EQ PUSH2 0x1CF1 JUMPI DUP1 PUSH4 0x1BE19560 EQ PUSH2 0x1C16 JUMPI DUP1 PUSH4 0x1C446983 EQ PUSH2 0x1BB0 JUMPI DUP1 PUSH4 0x1E44B7FC EQ PUSH2 0x19B6 JUMPI DUP1 PUSH4 0x1E7DCC0D EQ PUSH2 0x171E JUMPI DUP1 PUSH4 0x23B872DD EQ PUSH2 0x1648 JUMPI DUP1 PUSH4 0x27CE3854 EQ PUSH2 0x1432 JUMPI DUP1 PUSH4 0x313CE567 EQ PUSH2 0x1387 JUMPI DUP1 PUSH4 0x3644E515 EQ PUSH2 0x136A JUMPI DUP1 PUSH4 0x39509351 EQ PUSH2 0x12E7 JUMPI DUP1 PUSH4 0x3BA0B9A9 EQ PUSH2 0x12C2 JUMPI DUP1 PUSH4 0x42BF78AF EQ PUSH2 0x123A JUMPI DUP1 PUSH4 0x4322B714 EQ PUSH2 0x121B JUMPI DUP1 PUSH4 0x46F608FF EQ PUSH2 0x11FE JUMPI DUP1 PUSH4 0x47BD3718 EQ PUSH2 0x11D1 JUMPI DUP1 PUSH4 0x4BDAEAC1 EQ PUSH2 0x11A9 JUMPI DUP1 PUSH4 0x5B322BBE EQ PUSH2 0x116B JUMPI DUP1 PUSH4 0x5F77F891 EQ PUSH2 0x1130 JUMPI DUP1 PUSH4 0x6AFDD850 EQ PUSH2 0x1106 JUMPI DUP1 PUSH4 0x6C321C8A EQ PUSH2 0x10AF JUMPI DUP1 PUSH4 0x6F307DC3 EQ PUSH2 0x106B JUMPI DUP1 PUSH4 0x70A08231 EQ PUSH2 0x1037 JUMPI DUP1 PUSH4 0x72CF84A7 EQ PUSH2 0x1018 JUMPI DUP1 PUSH4 0x7D6AF079 EQ PUSH2 0xFF2 JUMPI DUP1 PUSH4 0x7ECEBE00 EQ PUSH2 0xFBE JUMPI DUP1 PUSH4 0x81F5B6F4 EQ PUSH2 0xF32 JUMPI DUP1 PUSH4 0x8808E71C EQ PUSH2 0xBDA JUMPI DUP1 PUSH4 0x94E1373C EQ PUSH2 0xB92 JUMPI DUP1 PUSH4 0x95D89B41 EQ PUSH2 0xA23 JUMPI DUP1 PUSH4 0x9B510998 EQ PUSH2 0xA04 JUMPI DUP1 PUSH4 0xA457C2D7 EQ PUSH2 0x980 JUMPI DUP1 PUSH4 0xA6AFED95 EQ PUSH2 0x964 JUMPI DUP1 PUSH4 0xA9059CBB EQ PUSH2 0x8D6 JUMPI DUP1 PUSH4 0xAA5AF0FD EQ PUSH2 0x8A8 JUMPI DUP1 PUSH4 0xAD168C9D EQ PUSH2 0x880 JUMPI DUP1 PUSH4 0xAD2961A3 EQ PUSH2 0x85C JUMPI DUP1 PUSH4 0xAD7A672F EQ PUSH2 0x833 JUMPI DUP1 PUSH4 0xB5F3C95B EQ PUSH2 0x814 JUMPI DUP1 PUSH4 0xBA087652 EQ PUSH2 0x6B7 JUMPI DUP1 PUSH4 0xBCBC3320 EQ PUSH2 0x611 JUMPI DUP1 PUSH4 0xC0789DCB EQ PUSH2 0x5EF JUMPI DUP1 PUSH4 0xC914B437 EQ PUSH2 0x5C5 JUMPI DUP1 PUSH4 0xD505ACCF EQ PUSH2 0x470 JUMPI DUP1 PUSH4 0xD8DFEB45 EQ PUSH2 0x448 JUMPI DUP1 PUSH4 0xD90E0264 EQ PUSH2 0x429 JUMPI DUP1 PUSH4 0xD935BD92 EQ PUSH2 0x3E5 JUMPI DUP1 PUSH4 0xDCC3E06E EQ PUSH2 0x3B6 JUMPI DUP1 PUSH4 0xDD62ED3E EQ PUSH2 0x378 JUMPI DUP1 PUSH4 0xE8A24E1D EQ PUSH2 0x334 JUMPI DUP1 PUSH4 0xF7C618C1 EQ PUSH2 0x301 JUMPI PUSH4 0xFFF6CAE9 EQ PUSH2 0x296 JUMPI PUSH1 0x0 DUP1 REVERT JUMPDEST CALLVALUE PUSH2 0x2FD JUMPI DUP3 PUSH1 0x3 NOT CALLDATASIZE ADD SLT PUSH2 0x2FD JUMPI DUP3 SLOAD SWAP2 PUSH1 0xFF DUP4 AND ISZERO PUSH2 0x2F0 JUMPI DUP4 PUSH1 0x1 DUP5 PUSH1 0xFF NOT DUP1 SWAP2 AND DUP4 SSTORE PUSH2 0x2C6 PUSH2 0x3015 JUMP JUMPDEST PUSH2 0x2CE PUSH2 0x2712 JUMP JUMPDEST PUSH2 0x2D6 PUSH2 0x2712 JUMP JUMPDEST PUSH2 0x2DE PUSH2 0x2185 JUMP JUMPDEST POP PUSH2 0x2E7 PUSH2 0x3015 JUMP JUMPDEST DUP3 SLOAD AND OR DUP2 SSTORE DUP1 RETURN JUMPDEST MLOAD PUSH4 0x6FDA65D PUSH1 0xE3 SHL DUP2 MSTORE REVERT JUMPDEST DUP3 DUP1 REVERT JUMPDEST POP POP CALLVALUE PUSH2 0x330 JUMPI DUP2 PUSH1 0x3 NOT CALLDATASIZE ADD SLT PUSH2 0x330 JUMPI PUSH1 0x20 SWAP1 MLOAD PUSH20 0x1DB2466D9F5E10D7090E7152B68D62703A2245F0 DUP2 MSTORE RETURN JUMPDEST POP DUP1 REVERT JUMPDEST POP POP CALLVALUE PUSH2 0x330 JUMPI DUP2 PUSH1 0x3 NOT CALLDATASIZE ADD SLT PUSH2 0x330 JUMPI PUSH1 0x20 SWAP1 MLOAD PUSH1 0x1 PUSH1 0x1 PUSH1 0xA0 SHL SUB PUSH32 0x0 AND DUP2 MSTORE RETURN JUMPDEST POP POP CALLVALUE PUSH2 0x330 JUMPI DUP1 PUSH1 0x3 NOT CALLDATASIZE ADD SLT PUSH2 0x330 JUMPI PUSH1 0x20 SWAP2 PUSH2 0x395 PUSH2 0x209B JUMP JUMPDEST SWAP1 PUSH2 0x39E PUSH2 0x20B1 JUMP JUMPDEST DUP5 MSTORE PUSH4 0x7F5E9F20 PUSH1 0xC MSTORE MSTORE PUSH1 0x34 PUSH1 0xC KECCAK256 SLOAD SWAP1 MLOAD SWAP1 DUP2 MSTORE RETURN JUMPDEST POP POP CALLVALUE PUSH2 0x330 JUMPI DUP2 PUSH1 0x3 NOT CALLDATASIZE ADD SLT PUSH2 0x330 JUMPI PUSH1 0x20 SWAP1 MLOAD PUSH20 0x60CF091CD3F50420D50FD7F707414D0DF4751C58 DUP2 MSTORE RETURN JUMPDEST POP POP CALLVALUE PUSH2 0x330 JUMPI DUP2 PUSH1 0x3 NOT CALLDATASIZE ADD SLT PUSH2 0x330 JUMPI PUSH1 0x20 SWAP1 MLOAD PUSH1 0x1 PUSH1 0x1 PUSH1 0xA0 SHL SUB PUSH32 0x0 AND DUP2 MSTORE RETURN JUMPDEST POP POP CALLVALUE PUSH2 0x330 JUMPI DUP2 PUSH1 0x3 NOT CALLDATASIZE ADD SLT PUSH2 0x330 JUMPI PUSH1 0x20 SWAP1 PUSH1 0x3 SLOAD SWAP1 MLOAD SWAP1 DUP2 MSTORE RETURN JUMPDEST POP POP CALLVALUE PUSH2 0x330 JUMPI DUP2 PUSH1 0x3 NOT CALLDATASIZE ADD SLT PUSH2 0x330 JUMPI PUSH1 0x20 SWAP1 PUSH1 0x1 PUSH1 0x1 PUSH1 0xA0 SHL SUB PUSH1 0x1 SLOAD AND SWAP1 MLOAD SWAP1 DUP2 MSTORE RETURN JUMPDEST POP SWAP1 CALLVALUE PUSH2 0x2FD JUMPI PUSH1 0xE0 CALLDATASIZE PUSH1 0x3 NOT ADD SLT PUSH2 0x2FD JUMPI PUSH2 0x48B PUSH2 0x209B JUMP JUMPDEST SWAP2 PUSH2 0x494 PUSH2 0x20B1 JUMP JUMPDEST PUSH1 0x84 CALLDATALOAD SWAP2 PUSH1 0x64 CALLDATALOAD PUSH1 0x44 CALLDATALOAD PUSH1 0xFF DUP6 AND DUP6 SUB PUSH2 0x5C1 JUMPI PUSH2 0x4B0 PUSH2 0x3111 JUMP JUMPDEST SWAP3 DUP7 MLOAD SWAP8 DUP4 TIMESTAMP GT PUSH2 0x5B5 JUMPI PUSH1 0x1 PUSH1 0x1 PUSH1 0xA0 SHL SUB DUP1 SWAP2 AND SWAP6 AND SWAP6 PUSH4 0x38377508 PUSH1 0xC MSTORE DUP6 DUP11 MSTORE PUSH1 0x20 SWAP5 DUP6 PUSH1 0xC KECCAK256 SWAP5 DUP6 SLOAD SWAP6 PUSH1 0x1 DUP8 ADD SWAP1 SSTORE PUSH32 0x6E71EDAE12B1B97F4D1F60370FEF10105FA2FAAE0126114A169C64845D6126C9 DUP12 MSTORE DUP8 DUP8 DUP13 ADD MSTORE DUP9 DUP11 DUP13 ADD MSTORE PUSH1 0x60 DUP12 ADD SWAP6 DUP6 DUP8 MSTORE PUSH1 0x80 DUP13 ADD MSTORE PUSH1 0xA0 DUP12 ADD MSTORE PUSH2 0x1901 DUP12 MSTORE DUP6 MSTORE PUSH1 0xC0 DUP10 KECCAK256 DUP9 MSTORE PUSH1 0x42 PUSH1 0x1E KECCAK256 DUP11 MSTORE PUSH1 0xFF AND DUP5 MSTORE PUSH1 0xA4 CALLDATALOAD DUP8 MSTORE PUSH1 0xC4 CALLDATALOAD PUSH1 0x60 MSTORE DUP4 DUP1 PUSH1 0x80 DUP12 PUSH1 0x1 GAS STATICCALL POP DUP5 RETURNDATASIZE MLOAD SUB PUSH2 0x5AA JUMPI POP PUSH24 0x7F5E9F200000000000000000000000000000000000000000 DUP6 OR DUP7 MSTORE PUSH1 0x34 PUSH1 0x2C KECCAK256 SSTORE PUSH32 0x8C5BE1E5EBEC7D5BD14F71427D1E84F3DD0314C0F7B2291E5B200AC8C7C3B925 SWAP2 SWAP1 LOG3 MSTORE DUP1 PUSH1 0x60 MSTORE DUP1 RETURN JUMPDEST PUSH4 0xDDAFBAEF DUP10 MSTORE PUSH1 0x1C REVERT JUMPDEST POP PUSH4 0x1A15A3CC DUP10 MSTORE PUSH1 0x1C REVERT JUMPDEST DUP8 DUP1 REVERT JUMPDEST POP POP CALLVALUE PUSH2 0x330 JUMPI DUP2 PUSH1 0x3 NOT CALLDATASIZE ADD SLT PUSH2 0x330 JUMPI PUSH1 0x20 SWAP1 PUSH6 0xFFFFFFFFFFFF PUSH1 0xB SLOAD PUSH1 0xB0 SHR AND SWAP1 MLOAD SWAP1 DUP2 MSTORE RETURN JUMPDEST POP POP CALLVALUE PUSH2 0x330 JUMPI DUP2 PUSH1 0x3 NOT CALLDATASIZE ADD SLT PUSH2 0x330 JUMPI PUSH1 0x20 SWAP1 PUSH1 0xB SLOAD PUSH1 0xE0 SHR SWAP1 MLOAD SWAP1 DUP2 MSTORE RETURN JUMPDEST POP POP CALLVALUE PUSH2 0x330 JUMPI DUP2 PUSH1 0x3 NOT CALLDATASIZE ADD SLT PUSH2 0x330 JUMPI PUSH1 0x60 PUSH32 0x98CCEBAE89F16F152C93C6A0CDC0D99913B9E62A9FC612471C21FFC299C389FD SWAP2 PUSH32 0x0 SWAP1 PUSH2 0x672 DUP3 PUSH2 0x2A97 JUMP JUMPDEST PUSH2 0x67A PUSH2 0x2B28 JUMP JUMPDEST PUSH1 0x1 PUSH1 0x1 PUSH1 0xA0 SHL SUB DUP2 MLOAD SWAP3 AND DUP3 MSTORE PUSH32 0x0 PUSH1 0x20 DUP4 ADD MSTORE CALLER SWAP1 DUP3 ADD MSTORE LOG1 DUP1 RETURN JUMPDEST POP SWAP2 SWAP1 CALLVALUE PUSH2 0x330 JUMPI PUSH1 0x60 CALLDATASIZE PUSH1 0x3 NOT ADD SLT PUSH2 0x330 JUMPI DUP3 CALLDATALOAD SWAP2 PUSH2 0x6D6 PUSH2 0x20B1 JUMP JUMPDEST SWAP3 PUSH2 0x6DF PUSH2 0x20C7 JUMP JUMPDEST SWAP4 PUSH2 0x6E8 PUSH2 0x3015 JUMP JUMPDEST PUSH1 0x1 PUSH1 0x1 PUSH1 0xA0 SHL SUB SWAP1 DUP2 DUP7 AND SWAP4 DUP5 CALLER SUB PUSH2 0x804 JUMPI JUMPDEST PUSH2 0x705 PUSH2 0x2712 JUMP JUMPDEST PUSH2 0x716 PUSH2 0x710 PUSH2 0x2185 JUMP JUMPDEST DUP6 PUSH2 0x3230 JUMP JUMPDEST SWAP7 DUP8 ISZERO PUSH2 0x7F4 JUMPI PUSH2 0x726 DUP9 PUSH2 0x2981 JUMP JUMPDEST PUSH4 0x87A211A2 PUSH1 0xC MSTORE DUP2 MSTORE PUSH1 0x20 PUSH1 0xC KECCAK256 DUP1 SLOAD SWAP9 DUP10 DUP7 GT PUSH2 0x7E9 JUMPI POP DUP5 PUSH1 0x20 SWAP10 SUB SWAP1 SSTORE PUSH9 0x5345CDF77EB68F44C DUP5 DUP2 SLOAD SUB SWAP1 SSTORE DUP4 DUP2 MSTORE DUP5 PUSH32 0xDDF252AD1BE2C89B69C2B068FC378DAA952BA7F163C4A11628F55A4DF523B3EF DUP10 DUP4 LOG3 PUSH2 0x7AA DUP7 DUP3 PUSH32 0x0 PUSH2 0x33B0 JUMP JUMPDEST DUP5 MLOAD SWAP3 DUP7 DUP5 MSTORE DUP8 DUP5 ADD MSTORE AND SWAP1 PUSH32 0xFBDE797D201C681B91056529119E0B02407C7BB96A4A2C75C01FC9667232C8DB DUP5 CALLER SWAP3 LOG4 PUSH2 0x7E3 PUSH2 0x3015 JUMP JUMPDEST MLOAD SWAP1 DUP2 MSTORE RETURN JUMPDEST PUSH4 0xF4D678B8 DUP4 MSTORE PUSH1 0x1C REVERT JUMPDEST DUP7 MLOAD PUSH4 0xE3E8D297 PUSH1 0xE0 SHL DUP2 MSTORE DUP10 SWAP1 REVERT JUMPDEST PUSH2 0x80F DUP5 CALLER DUP10 PUSH2 0x31F1 JUMP JUMPDEST PUSH2 0x6FD JUMP JUMPDEST POP POP CALLVALUE PUSH2 0x330 JUMPI DUP2 PUSH1 0x3 NOT CALLDATASIZE ADD SLT PUSH2 0x330 JUMPI PUSH1 0x20 SWAP1 PUSH1 0xD SLOAD SWAP1 MLOAD SWAP1 DUP2 MSTORE RETURN JUMPDEST POP POP CALLVALUE PUSH2 0x330 JUMPI DUP2 PUSH1 0x3 NOT CALLDATASIZE ADD SLT PUSH2 0x330 JUMPI PUSH1 0x1 PUSH1 0x1 PUSH1 0xA0 SHL SUB PUSH1 0x20 SWAP3 SLOAD PUSH1 0x8 SHR AND SWAP1 MLOAD SWAP1 DUP2 MSTORE RETURN JUMPDEST POP POP CALLVALUE PUSH2 0x330 JUMPI DUP2 PUSH1 0x3 NOT CALLDATASIZE ADD SLT PUSH2 0x330 JUMPI PUSH1 0x20 SWAP1 PUSH2 0x879 PUSH2 0x23FB JUMP JUMPDEST SWAP1 MLOAD SWAP1 DUP2 MSTORE RETURN JUMPDEST POP POP CALLVALUE PUSH2 0x330 JUMPI DUP2 PUSH1 0x3 NOT CALLDATASIZE ADD SLT PUSH2 0x330 JUMPI PUSH1 0x20 SWAP1 PUSH1 0x1 PUSH1 0x1 PUSH1 0xA0 SHL SUB PUSH1 0x2 SLOAD AND SWAP1 MLOAD SWAP1 DUP2 MSTORE RETURN JUMPDEST POP POP CALLVALUE PUSH2 0x330 JUMPI DUP2 PUSH1 0x3 NOT CALLDATASIZE ADD SLT PUSH2 0x330 JUMPI PUSH1 0x20 SWAP1 PUSH10 0xFFFFFFFFFFFFFFFFFFFF PUSH1 0xB SLOAD PUSH1 0x60 SHR AND SWAP1 MLOAD SWAP1 DUP2 MSTORE RETURN JUMPDEST POP SWAP2 CALLVALUE PUSH2 0x961 JUMPI DUP2 PUSH1 0x3 NOT CALLDATASIZE ADD SLT PUSH2 0x961 JUMPI PUSH2 0x8F0 PUSH2 0x209B JUMP JUMPDEST PUSH1 0x24 CALLDATALOAD SWAP2 PUSH4 0x87A211A2 PUSH1 0xC MSTORE CALLER DUP2 MSTORE PUSH1 0x20 SWAP5 DUP6 PUSH1 0xC KECCAK256 SWAP1 DUP2 SLOAD SWAP1 DUP2 DUP7 GT PUSH2 0x956 JUMPI POP DUP5 SWAP1 SUB SWAP1 SSTORE MSTORE DUP3 PUSH1 0xC KECCAK256 DUP2 DUP2 SLOAD ADD SWAP1 SSTORE DUP3 MSTORE PUSH1 0xC MLOAD PUSH1 0x60 SHR CALLER PUSH32 0xDDF252AD1BE2C89B69C2B068FC378DAA952BA7F163C4A11628F55A4DF523B3EF DUP5 DUP1 LOG3 MLOAD PUSH1 0x1 DUP2 MSTORE RETURN JUMPDEST PUSH4 0xF4D678B8 DUP5 MSTORE PUSH1 0x1C REVERT JUMPDEST DUP1 REVERT JUMPDEST DUP4 CALLVALUE PUSH2 0x961 JUMPI DUP1 PUSH1 0x3 NOT CALLDATASIZE ADD SLT PUSH2 0x961 JUMPI PUSH2 0x97D PUSH2 0x2712 JUMP JUMPDEST DUP1 RETURN JUMPDEST POP SWAP2 CALLVALUE PUSH2 0x961 JUMPI DUP2 PUSH1 0x3 NOT CALLDATASIZE ADD SLT PUSH2 0x961 JUMPI PUSH2 0x99A PUSH2 0x209B JUMP JUMPDEST PUSH1 0x24 CALLDATALOAD SWAP1 PUSH1 0x20 MSTORE PUSH4 0x7F5E9F20 PUSH1 0xC MSTORE CALLER DUP3 MSTORE PUSH1 0x34 PUSH1 0xC KECCAK256 SWAP1 DUP2 SLOAD DUP2 DUP2 LT PUSH2 0x9F8 JUMPI PUSH1 0x20 SWAP6 POP SUB DUP1 SWAP2 SSTORE DUP2 MSTORE PUSH1 0x2C MLOAD PUSH1 0x60 SHR SWAP1 PUSH32 0x8C5BE1E5EBEC7D5BD14F71427D1E84F3DD0314C0F7B2291E5B200AC8C7C3B925 DUP5 CALLER SWAP3 LOG3 MLOAD PUSH1 0x1 DUP2 MSTORE RETURN JUMPDEST DUP6 PUSH4 0x8301AB38 DUP6 MSTORE PUSH1 0x1C REVERT JUMPDEST POP POP CALLVALUE PUSH2 0x330 JUMPI DUP2 PUSH1 0x3 NOT CALLDATASIZE ADD SLT PUSH2 0x330 JUMPI PUSH1 0x20 SWAP1 PUSH1 0x7 SLOAD SWAP1 MLOAD SWAP1 DUP2 MSTORE RETURN JUMPDEST POP SWAP1 CALLVALUE PUSH2 0x2FD JUMPI DUP3 PUSH1 0x3 NOT CALLDATASIZE ADD SLT PUSH2 0x2FD JUMPI DUP1 MLOAD PUSH4 0x95D89B41 PUSH1 0xE0 SHL DUP2 MSTORE SWAP3 DUP1 DUP5 DUP5 DUP2 PUSH32 0x0 PUSH1 0x1 PUSH1 0x1 PUSH1 0xA0 SHL SUB AND GAS STATICCALL SWAP3 DUP4 ISZERO PUSH2 0xB86 JUMPI DUP2 SWAP4 PUSH2 0xAE5 JUMPI JUMPDEST PUSH2 0xAE1 DUP5 DUP5 PUSH2 0xAD7 PUSH1 0x28 DUP3 MLOAD DUP1 SWAP5 PUSH32 0x4379675553443A20000000000000000000000000000000000000000000000000 PUSH1 0x20 DUP4 ADD MSTORE PUSH2 0xAC7 DUP2 MLOAD DUP1 SWAP3 PUSH1 0x20 DUP7 DUP7 ADD SWAP2 ADD PUSH2 0x204C JUMP JUMPDEST DUP2 ADD SUB PUSH1 0x8 DUP2 ADD DUP6 MSTORE ADD DUP4 PUSH2 0x222E JUMP JUMPDEST MLOAD SWAP2 DUP3 SWAP2 DUP3 PUSH2 0x206F JUMP JUMPDEST SUB SWAP1 RETURN JUMPDEST SWAP1 SWAP2 SWAP3 POP RETURNDATASIZE DUP1 DUP4 DUP7 RETURNDATACOPY PUSH2 0xAF8 DUP2 DUP7 PUSH2 0x222E JUMP JUMPDEST DUP5 ADD SWAP2 PUSH1 0x20 DUP6 DUP5 SUB SLT PUSH2 0x961 JUMPI DUP5 MLOAD PUSH8 0xFFFFFFFFFFFFFFFF SWAP6 DUP7 DUP3 GT PUSH2 0x2FD JUMPI ADD SWAP2 DUP4 PUSH1 0x1F DUP5 ADD SLT ISZERO PUSH2 0x330 JUMPI DUP3 MLOAD SWAP6 DUP7 GT PUSH2 0xB71 JUMPI POP DUP4 MLOAD SWAP3 PUSH2 0xB46 PUSH1 0x1F DUP8 ADD PUSH1 0x1F NOT AND PUSH1 0x20 ADD DUP6 PUSH2 0x222E JUMP JUMPDEST DUP6 DUP5 MSTORE PUSH1 0x20 DUP7 DUP5 ADD ADD GT PUSH2 0x961 JUMPI POP PUSH2 0xAE1 SWAP4 PUSH2 0xB69 SWAP2 PUSH1 0x20 DUP1 DUP6 ADD SWAP2 ADD PUSH2 0x204C JUMP JUMPDEST SWAP1 CODESIZE DUP1 PUSH2 0xA80 JUMP JUMPDEST PUSH1 0x41 SWAP1 PUSH4 0x4E487B71 PUSH1 0xE0 SHL PUSH1 0x0 MSTORE MSTORE PUSH1 0x24 PUSH1 0x0 REVERT JUMPDEST POP SWAP1 MLOAD SWAP1 RETURNDATASIZE SWAP1 DUP3 RETURNDATACOPY RETURNDATASIZE SWAP1 REVERT JUMPDEST POP POP CALLVALUE PUSH2 0x330 JUMPI PUSH1 0x20 CALLDATASIZE PUSH1 0x3 NOT ADD SLT PUSH2 0x330 JUMPI DUP1 SWAP2 PUSH1 0x1 PUSH1 0x1 PUSH1 0xA0 SHL SUB PUSH2 0xBB7 PUSH2 0x209B JUMP JUMPDEST AND DUP2 MSTORE PUSH1 0xA PUSH1 0x20 MSTORE KECCAK256 SLOAD DUP2 MLOAD SWAP1 PUSH1 0x1 PUSH1 0x1 PUSH1 0x80 SHL SUB DUP2 AND DUP3 MSTORE PUSH1 0x80 SHR PUSH1 0x20 DUP3 ADD MSTORE RETURN JUMPDEST POP SWAP2 SWAP1 CALLVALUE PUSH2 0x330 JUMPI PUSH2 0x120 CALLDATASIZE PUSH1 0x3 NOT ADD SLT PUSH2 0x330 JUMPI DUP3 CALLDATALOAD PUSH2 0xBF9 PUSH2 0x20B1 JUMP JUMPDEST PUSH1 0xC0 CALLDATASIZE PUSH1 0x43 NOT ADD SLT PUSH2 0xF2E JUMPI PUSH2 0x104 SWAP1 DUP2 CALLDATALOAD PUSH8 0xFFFFFFFFFFFFFFFF DUP2 GT PUSH2 0xE1E JUMPI PUSH2 0xC27 SWAP1 CALLDATASIZE SWAP1 DUP9 ADD PUSH2 0x20DD JUMP JUMPDEST SWAP3 PUSH2 0xC30 PUSH2 0x3015 JUMP JUMPDEST PUSH2 0xC38 PUSH2 0x309F JUMP JUMPDEST SWAP4 DUP1 PUSH2 0xE30 JUMPI JUMPDEST POP POP POP PUSH2 0xC4B DUP4 PUSH2 0x3387 JUMP JUMPDEST SWAP2 PUSH15 0x22D473030F116DDEE9F6B43AC78BA3 DUP1 EXTCODESIZE ISZERO PUSH2 0xE2C JUMPI DUP7 DUP1 SWAP2 PUSH1 0x84 DUP9 MLOAD DUP1 SWAP5 DUP2 SWAP4 PUSH4 0x1B63C28B PUSH1 0xE1 SHL DUP4 MSTORE DUP14 CALLER SWAP1 DUP5 ADD MSTORE ADDRESS PUSH1 0x24 DUP5 ADD MSTORE PUSH1 0x1 PUSH1 0x1 PUSH1 0xA0 SHL SUB DUP1 SWAP11 AND PUSH1 0x44 DUP5 ADD MSTORE DUP10 PUSH32 0x0 AND PUSH1 0x64 DUP5 ADD MSTORE GAS CALL DUP1 ISZERO PUSH2 0xE22 JUMPI SWAP1 DUP8 SWAP2 PUSH2 0xE0A JUMPI JUMPDEST POP POP PUSH2 0xCEB PUSH2 0xD01 SWAP2 PUSH2 0xCDE DUP7 PUSH2 0x28F6 JUMP JUMPDEST PUSH2 0xCE6 PUSH2 0x309F JUMP JUMPDEST PUSH2 0x21DB JUMP JUMPDEST PUSH2 0xCF3 PUSH2 0x2712 JUMP JUMPDEST PUSH2 0xCFB PUSH2 0x2185 JUMP JUMPDEST SWAP1 PUSH2 0x325B JUMP JUMPDEST SWAP5 DUP6 ISZERO PUSH2 0xDFA JUMPI PUSH9 0x5345CDF77EB68F44C DUP1 SLOAD SWAP2 DUP3 ISZERO PUSH2 0xD66 JUMPI JUMPDEST POP POP POP PUSH1 0x20 SWAP6 POP PUSH2 0xD2D DUP6 DUP3 PUSH2 0x3183 JUMP JUMPDEST DUP4 MLOAD SWAP3 DUP4 MSTORE DUP5 DUP7 DUP5 ADD MSTORE AND SWAP1 PUSH32 0xDCBC1C05240F31FF3AD067EF1EE35CE4997762752E3A095284754544F4C709D7 DUP4 CALLER SWAP3 LOG3 PUSH2 0x7E3 PUSH2 0x3015 JUMP JUMPDEST SWAP2 SWAP7 SWAP1 SWAP2 PUSH2 0x3E7 NOT DUP3 ADD SWAP2 DUP3 GT PUSH2 0xDE7 JUMPI POP SWAP6 PUSH2 0x3E8 SWAP2 DUP3 DUP3 ADD SWAP2 DUP3 LT PUSH2 0xDDA JUMPI PUSH1 0x20 SWAP9 POP SSTORE PUSH4 0x87A211A2 PUSH1 0xC MSTORE PUSH2 0xDEAD PUSH1 0x0 MSTORE DUP7 PUSH1 0xC KECCAK256 DUP2 DUP2 SLOAD ADD SWAP1 SSTORE DUP7 MSTORE PUSH1 0xC MLOAD PUSH1 0x60 SHR PUSH1 0x0 PUSH32 0xDDF252AD1BE2C89B69C2B068FC378DAA952BA7F163C4A11628F55A4DF523B3EF DUP9 DUP1 LOG3 CODESIZE DUP1 DUP1 PUSH2 0xD1C JUMP JUMPDEST DUP9 PUSH4 0xE5CFE957 PUSH1 0x0 MSTORE PUSH1 0x1C REVERT JUMPDEST PUSH4 0x4E487B71 PUSH1 0xE0 SHL DUP2 MSTORE PUSH1 0x11 DUP10 MSTORE PUSH1 0x24 SWAP1 REVERT JUMPDEST DUP5 MLOAD PUSH4 0xF1CA48B1 PUSH1 0xE0 SHL DUP2 MSTORE DUP8 SWAP1 REVERT JUMPDEST PUSH2 0xE13 SWAP1 PUSH2 0x21E8 JUMP JUMPDEST PUSH2 0xE1E JUMPI DUP6 CODESIZE PUSH2 0xCCC JUMP JUMPDEST DUP6 DUP1 REVERT JUMPDEST DUP7 MLOAD RETURNDATASIZE DUP10 DUP3 RETURNDATACOPY RETURNDATASIZE SWAP1 REVERT JUMPDEST DUP7 DUP1 REVERT JUMPDEST PUSH15 0x22D473030F116DDEE9F6B43AC78BA3 DUP1 EXTCODESIZE ISZERO PUSH2 0xF2A JUMPI DUP8 MLOAD PUSH4 0x2B67B57 PUSH1 0xE4 SHL DUP2 MSTORE CALLER DUP12 DUP3 ADD MSTORE SWAP4 PUSH1 0x1 PUSH1 0x1 PUSH1 0xA0 SHL SUB SWAP3 DUP4 PUSH2 0xE6B PUSH2 0x20C7 JUMP JUMPDEST AND PUSH1 0x24 DUP8 ADD MSTORE PUSH1 0x64 CALLDATALOAD DUP5 DUP2 AND DUP1 SWAP2 SUB PUSH2 0xF26 JUMPI PUSH1 0x44 DUP8 ADD MSTORE PUSH1 0x84 CALLDATALOAD PUSH6 0xFFFFFFFFFFFF SWAP1 DUP2 DUP2 AND DUP1 SWAP2 SUB PUSH2 0xF21 JUMPI PUSH1 0x64 DUP9 ADD MSTORE PUSH1 0xA4 CALLDATALOAD SWAP1 DUP2 AND DUP1 SWAP2 SUB PUSH2 0xF21 JUMPI PUSH1 0x84 DUP8 ADD MSTORE PUSH1 0xC4 CALLDATALOAD SWAP4 DUP5 AND DUP1 SWAP5 SUB PUSH2 0xF21 JUMPI DUP6 PUSH2 0xEE7 DUP2 SWAP6 SWAP4 DUP14 SWAP8 SWAP4 DUP9 SWAP5 DUP5 SWAP7 PUSH1 0xA4 DUP7 ADD MSTORE PUSH1 0xE4 CALLDATALOAD PUSH1 0xC4 DUP7 ADD MSTORE PUSH2 0x100 PUSH1 0xE4 DUP7 ADD MSTORE DUP5 ADD SWAP2 PUSH2 0x2354 JUMP JUMPDEST SUB SWAP3 GAS CALL DUP1 ISZERO PUSH2 0xF17 JUMPI SWAP1 DUP7 SWAP2 PUSH2 0xEFF JUMPI JUMPDEST DUP1 PUSH2 0xC3F JUMP JUMPDEST PUSH2 0xF08 SWAP1 PUSH2 0x21E8 JUMP JUMPDEST PUSH2 0xF13 JUMPI DUP5 CODESIZE PUSH2 0xEF9 JUMP JUMPDEST DUP5 DUP1 REVERT JUMPDEST DUP6 MLOAD RETURNDATASIZE DUP9 DUP3 RETURNDATACOPY RETURNDATASIZE SWAP1 REVERT JUMPDEST PUSH1 0x0 DUP1 REVERT JUMPDEST DUP12 DUP1 REVERT JUMPDEST DUP9 DUP1 REVERT JUMPDEST DUP4 DUP1 REVERT JUMPDEST POP SWAP1 CALLVALUE PUSH2 0x2FD JUMPI PUSH1 0x20 CALLDATASIZE PUSH1 0x3 NOT ADD SLT PUSH2 0x2FD JUMPI DUP2 CALLDATALOAD SWAP2 PUSH2 0xF50 PUSH2 0x3015 JUMP JUMPDEST PUSH2 0xF58 PUSH2 0x2712 JUMP JUMPDEST PUSH1 0x1 PUSH1 0x1 PUSH1 0xA0 SHL SUB PUSH1 0xC SLOAD AND CALLER SUB PUSH2 0xFB0 JUMPI POP PUSH32 0xC63644116F6EF474FE595238489F3D0D31A12C55BE3A748D72269A62882B04C9 SWAP1 PUSH2 0xF96 DUP4 PUSH2 0x28F6 JUMP JUMPDEST TIMESTAMP PUSH1 0xD SSTORE DUP1 MLOAD SWAP3 DUP4 MSTORE TIMESTAMP PUSH1 0x20 DUP5 ADD MSTORE CALLER SWAP3 LOG2 PUSH2 0x97D PUSH2 0x3015 JUMP JUMPDEST SWAP1 MLOAD PUSH4 0xDD8DE63 PUSH1 0xE1 SHL DUP2 MSTORE REVERT JUMPDEST POP POP CALLVALUE PUSH2 0x330 JUMPI PUSH1 0x20 CALLDATASIZE PUSH1 0x3 NOT ADD SLT PUSH2 0x330 JUMPI PUSH1 0x20 SWAP2 PUSH2 0xFDC PUSH2 0x209B JUMP JUMPDEST SWAP1 PUSH4 0x38377508 PUSH1 0xC MSTORE MSTORE DUP2 PUSH1 0xC KECCAK256 SLOAD SWAP1 MLOAD SWAP1 DUP2 MSTORE RETURN JUMPDEST POP POP CALLVALUE PUSH2 0x330 JUMPI PUSH1 0x20 CALLDATASIZE PUSH1 0x3 NOT ADD SLT PUSH2 0x330 JUMPI PUSH1 0x20 SWAP1 PUSH2 0x879 PUSH2 0x1013 PUSH2 0x209B JUMP JUMPDEST PUSH2 0x23AE JUMP JUMPDEST POP POP CALLVALUE PUSH2 0x330 JUMPI DUP2 PUSH1 0x3 NOT CALLDATASIZE ADD SLT PUSH2 0x330 JUMPI PUSH1 0x20 SWAP1 PUSH1 0x5 SLOAD SWAP1 MLOAD SWAP1 DUP2 MSTORE RETURN JUMPDEST POP POP CALLVALUE PUSH2 0x330 JUMPI PUSH1 0x20 CALLDATASIZE PUSH1 0x3 NOT ADD SLT PUSH2 0x330 JUMPI PUSH1 0x20 SWAP2 PUSH2 0x1055 PUSH2 0x209B JUMP JUMPDEST SWAP1 PUSH4 0x87A211A2 PUSH1 0xC MSTORE MSTORE DUP2 PUSH1 0xC KECCAK256 SLOAD SWAP1 MLOAD SWAP1 DUP2 MSTORE RETURN JUMPDEST POP POP CALLVALUE PUSH2 0x330 JUMPI DUP2 PUSH1 0x3 NOT CALLDATASIZE ADD SLT PUSH2 0x330 JUMPI PUSH1 0x20 SWAP1 MLOAD PUSH1 0x1 PUSH1 0x1 PUSH1 0xA0 SHL SUB PUSH32 0x0 AND DUP2 MSTORE RETURN JUMPDEST POP POP CALLVALUE PUSH2 0x330 JUMPI DUP2 PUSH1 0x3 NOT CALLDATASIZE ADD SLT PUSH2 0x330 JUMPI PUSH1 0x20 SWAP2 PUSH12 0xFFFFFFFFFFFFFFFFFFFFFFFF PUSH1 0xB SLOAD AND DUP1 ISZERO PUSH1 0x0 EQ PUSH2 0x10E6 JUMPI POP SWAP1 MLOAD SWAP1 DUP2 MSTORE RETURN JUMPDEST PUSH2 0xCFB DUP2 PUSH1 0x1 PUSH1 0x1 PUSH1 0xA0 SHL SUB PUSH2 0x1100 SWAP5 SLOAD PUSH1 0x8 SHR AND PUSH2 0x2162 JUMP JUMPDEST SWAP1 PUSH2 0x7E3 JUMP JUMPDEST POP POP CALLVALUE PUSH2 0x330 JUMPI DUP2 PUSH1 0x3 NOT CALLDATASIZE ADD SLT PUSH2 0x330 JUMPI PUSH1 0x20 SWAP1 MLOAD PUSH15 0x22D473030F116DDEE9F6B43AC78BA3 DUP2 MSTORE RETURN JUMPDEST POP POP CALLVALUE PUSH2 0x330 JUMPI DUP2 PUSH1 0x3 NOT CALLDATASIZE ADD SLT PUSH2 0x330 JUMPI PUSH1 0x20 SWAP1 MLOAD PUSH32 0x0 DUP2 MSTORE RETURN JUMPDEST DUP4 CALLVALUE PUSH2 0x961 JUMPI PUSH1 0x20 CALLDATASIZE PUSH1 0x3 NOT ADD SLT PUSH2 0x961 JUMPI PUSH2 0x97D PUSH2 0x1188 PUSH2 0x209B JUMP JUMPDEST PUSH2 0x1191 DUP2 PUSH2 0x23AE JUMP JUMPDEST PUSH10 0xFFFFFFFFFFFFFFFFFFFF PUSH1 0xB SLOAD PUSH1 0x60 SHR AND SWAP2 PUSH2 0x26AB JUMP JUMPDEST POP POP CALLVALUE PUSH2 0x330 JUMPI DUP2 PUSH1 0x3 NOT CALLDATASIZE ADD SLT PUSH2 0x330 JUMPI PUSH1 0x20 SWAP1 PUSH1 0x1 PUSH1 0x1 PUSH1 0xA0 SHL SUB PUSH1 0xC SLOAD AND SWAP1 MLOAD SWAP1 DUP2 MSTORE RETURN JUMPDEST POP POP CALLVALUE PUSH2 0x330 JUMPI DUP2 PUSH1 0x3 NOT CALLDATASIZE ADD SLT PUSH2 0x330 JUMPI PUSH1 0x20 SWAP1 PUSH12 0xFFFFFFFFFFFFFFFFFFFFFFFF PUSH1 0xB SLOAD AND SWAP1 MLOAD SWAP1 DUP2 MSTORE RETURN JUMPDEST POP CALLVALUE PUSH2 0x2FD JUMPI DUP3 PUSH1 0x3 NOT CALLDATASIZE ADD SLT PUSH2 0x2FD JUMPI PUSH1 0x20 SWAP3 POP SLOAD SWAP1 MLOAD SWAP1 DUP2 MSTORE RETURN JUMPDEST POP POP CALLVALUE PUSH2 0x330 JUMPI DUP2 PUSH1 0x3 NOT CALLDATASIZE ADD SLT PUSH2 0x330 JUMPI PUSH1 0x20 SWAP1 PUSH1 0x8 SLOAD SWAP1 MLOAD SWAP1 DUP2 MSTORE RETURN JUMPDEST POP POP CALLVALUE PUSH2 0x330 JUMPI PUSH1 0x20 CALLDATASIZE PUSH1 0x3 NOT ADD SLT PUSH2 0x330 JUMPI PUSH32 0x2A0D5DC7FBC8045F59CB33C736F04F9A9B565E9F425912F9CD2BAFDEBD50CEAD SWAP1 PUSH2 0x1277 PUSH2 0x209B JUMP JUMPDEST PUSH2 0x127F PUSH2 0x2F8B JUMP JUMPDEST PUSH1 0x2 DUP1 SLOAD PUSH1 0x1 PUSH1 0x1 PUSH1 0xA0 SHL SUB SWAP3 DUP4 AND PUSH20 0xFFFFFFFFFFFFFFFFFFFFFFFFFFFFFFFFFFFFFFFF NOT DUP3 AND DUP2 OR SWAP1 SWAP3 SSTORE SWAP3 MLOAD SWAP2 SWAP1 SWAP3 AND DUP2 MSTORE PUSH1 0x20 DUP2 ADD SWAP2 SWAP1 SWAP2 MSTORE PUSH1 0x40 SWAP1 LOG1 DUP1 RETURN JUMPDEST POP POP CALLVALUE PUSH2 0x330 JUMPI DUP2 PUSH1 0x3 NOT CALLDATASIZE ADD SLT PUSH2 0x330 JUMPI PUSH1 0x20 SWAP1 PUSH2 0x12DF PUSH2 0x2712 JUMP JUMPDEST PUSH2 0x879 PUSH2 0x2185 JUMP JUMPDEST POP SWAP2 CALLVALUE PUSH2 0x961 JUMPI DUP2 PUSH1 0x3 NOT CALLDATASIZE ADD SLT PUSH2 0x961 JUMPI PUSH2 0x1301 PUSH2 0x209B JUMP JUMPDEST PUSH1 0x20 MSTORE PUSH4 0x7F5E9F20 PUSH1 0xC MSTORE CALLER DUP2 MSTORE PUSH1 0x34 PUSH1 0xC KECCAK256 SWAP3 DUP4 SLOAD SWAP1 PUSH1 0x24 CALLDATALOAD DUP3 ADD SWAP2 DUP3 LT PUSH2 0x135F JUMPI POP DUP1 PUSH1 0x20 SWAP5 SSTORE DUP2 MSTORE PUSH1 0x2C MLOAD PUSH1 0x60 SHR SWAP1 PUSH32 0x8C5BE1E5EBEC7D5BD14F71427D1E84F3DD0314C0F7B2291E5B200AC8C7C3B925 DUP5 CALLER SWAP3 LOG3 MLOAD PUSH1 0x1 DUP2 MSTORE RETURN JUMPDEST PUSH4 0xF9067066 DUP4 MSTORE PUSH1 0x1C REVERT JUMPDEST POP POP CALLVALUE PUSH2 0x330 JUMPI DUP2 PUSH1 0x3 NOT CALLDATASIZE ADD SLT PUSH2 0x330 JUMPI PUSH1 0x20 SWAP1 PUSH2 0x879 PUSH2 0x3111 JUMP JUMPDEST POP SWAP2 CALLVALUE PUSH2 0x961 JUMPI DUP1 PUSH1 0x3 NOT CALLDATASIZE ADD SLT PUSH2 0x961 JUMPI PUSH1 0x20 DUP3 MLOAD DUP1 SWAP5 PUSH4 0x313CE567 PUSH1 0xE0 SHL DUP3 MSTORE DUP2 PUSH1 0x1 PUSH1 0x1 PUSH1 0xA0 SHL SUB PUSH32 0x0 AND GAS STATICCALL SWAP3 DUP4 ISZERO PUSH2 0xB86 JUMPI DUP2 SWAP4 PUSH2 0x13F1 JUMPI JUMPDEST PUSH1 0x20 DUP5 PUSH1 0xFF DUP6 MLOAD SWAP2 AND DUP2 MSTORE RETURN JUMPDEST SWAP1 SWAP3 POP PUSH1 0x20 DUP2 RETURNDATASIZE DUP3 GT PUSH2 0x142A JUMPI JUMPDEST DUP2 PUSH2 0x140C PUSH1 0x20 SWAP4 DUP4 PUSH2 0x222E JUMP JUMPDEST DUP2 ADD SUB SLT PUSH2 0x2FD JUMPI MLOAD SWAP2 PUSH1 0xFF DUP4 AND DUP4 SUB PUSH2 0x961 JUMPI POP PUSH1 0xFF PUSH1 0x20 PUSH2 0x13E4 JUMP JUMPDEST RETURNDATASIZE SWAP2 POP PUSH2 0x13FF JUMP JUMPDEST POP SWAP1 CALLVALUE PUSH2 0x2FD JUMPI PUSH2 0x1442 CALLDATASIZE PUSH2 0x210B JUMP JUMPDEST SWAP2 SWAP7 SWAP4 DUP5 SLOAD SWAP8 PUSH1 0xFF DUP10 AND ISZERO PUSH2 0x1638 JUMPI PUSH1 0xFF NOT SWAP9 DUP10 AND DUP7 SSTORE DUP8 SWAP5 SWAP4 SWAP3 SWAP2 SWAP1 PUSH2 0x1467 PUSH2 0x3015 JUMP JUMPDEST PUSH2 0x146F PUSH2 0x2712 JUMP JUMPDEST PUSH2 0x1478 DUP3 PUSH2 0x23AE JUMP JUMPDEST SWAP1 DUP1 DUP3 LT ISZERO PUSH2 0x1630 JUMPI POP SWAP2 JUMPDEST PUSH1 0x1 PUSH1 0x1 PUSH1 0xA0 SHL SUB SWAP4 PUSH1 0x20 DUP6 PUSH1 0x64 DUP2 PUSH1 0x1 SLOAD AND SWAP9 DUP12 DUP14 MLOAD SWAP10 DUP11 SWAP5 DUP6 SWAP4 PUSH4 0x2D3AEF69 PUSH1 0xE2 SHL DUP6 MSTORE AND DUP1 SWAP14 DUP5 ADD MSTORE DUP9 AND SWAP11 DUP12 PUSH1 0x24 DUP5 ADD MSTORE DUP10 PUSH1 0x44 DUP5 ADD MSTORE GAS CALL SWAP5 DUP6 ISZERO PUSH2 0x1626 JUMPI DUP9 SWAP6 PUSH2 0x15F3 JUMPI JUMPDEST POP DUP1 PUSH2 0x1581 JUMPI JUMPDEST POP POP PUSH2 0x1502 ADDRESS PUSH32 0x0 PUSH2 0x33F9 JUMP JUMPDEST SWAP8 DUP3 DUP10 LT PUSH2 0x1573 JUMPI POP SWAP2 PUSH32 0xB2B14447B2FB5B250428A70CF03FD19F8FF7EE7E04A46EBE7824DF2A0C91A9E3 DUP9 PUSH1 0x20 SWAP11 SWAP6 SWAP4 PUSH2 0x1540 DUP3 PUSH1 0x1 SWAP10 SWAP8 PUSH2 0x2474 JUMP JUMPDEST POP PUSH2 0x154A DUP3 PUSH2 0x28F6 JUMP JUMPDEST DUP10 MLOAD SWAP4 DUP5 MSTORE PUSH1 0x20 DUP5 ADD MSTORE PUSH1 0x40 DUP4 ADD MSTORE CALLER SWAP2 PUSH1 0x60 SWAP1 LOG4 PUSH2 0x1567 PUSH2 0x3015 JUMP JUMPDEST DUP3 SLOAD AND OR SWAP1 SSTORE MLOAD SWAP1 DUP2 MSTORE RETURN JUMPDEST DUP8 MLOAD PUSH4 0x7B1BD6F PUSH1 0xE2 SHL DUP2 MSTORE REVERT JUMPDEST CALLER EXTCODESIZE ISZERO PUSH2 0x5C1 JUMPI DUP8 SWAP1 DUP11 PUSH2 0x15C1 DUP12 MLOAD SWAP5 DUP6 SWAP4 DUP5 SWAP4 PUSH4 0xE95471C7 PUSH1 0xE0 SHL DUP6 MSTORE CALLER SWAP1 DUP6 ADD MSTORE DUP10 PUSH1 0x24 DUP6 ADD MSTORE DUP9 PUSH1 0x44 DUP6 ADD MSTORE PUSH1 0x80 PUSH1 0x64 DUP6 ADD MSTORE PUSH1 0x84 DUP5 ADD SWAP2 PUSH2 0x2354 JUMP JUMPDEST SUB DUP2 DUP4 CALLER GAS CALL DUP1 ISZERO PUSH2 0x15E9 JUMPI SWAP1 DUP8 SWAP2 ISZERO PUSH2 0x14D6 JUMPI PUSH2 0x15DE SWAP1 PUSH2 0x21E8 JUMP JUMPDEST PUSH2 0xE1E JUMPI DUP6 CODESIZE PUSH2 0x14D6 JUMP JUMPDEST DUP9 MLOAD RETURNDATASIZE DUP10 DUP3 RETURNDATACOPY RETURNDATASIZE SWAP1 REVERT JUMPDEST SWAP1 SWAP5 POP PUSH1 0x20 DUP2 RETURNDATASIZE DUP3 GT PUSH2 0x161E JUMPI JUMPDEST DUP2 PUSH2 0x160E PUSH1 0x20 SWAP4 DUP4 PUSH2 0x222E JUMP JUMPDEST DUP2 ADD SUB SLT PUSH2 0xF21 JUMPI MLOAD SWAP4 CODESIZE PUSH2 0x14CF JUMP JUMPDEST RETURNDATASIZE SWAP2 POP PUSH2 0x1601 JUMP JUMPDEST DUP10 MLOAD RETURNDATASIZE DUP11 DUP3 RETURNDATACOPY RETURNDATASIZE SWAP1 REVERT JUMPDEST SWAP1 POP SWAP2 PUSH2 0x1484 JUMP JUMPDEST DUP7 MLOAD PUSH4 0x6FDA65D PUSH1 0xE3 SHL DUP2 MSTORE DUP9 SWAP1 REVERT JUMPDEST POP SWAP2 SWAP1 CALLVALUE PUSH2 0x330 JUMPI PUSH1 0x60 CALLDATASIZE PUSH1 0x3 NOT ADD SLT PUSH2 0x330 JUMPI PUSH2 0x1664 PUSH2 0x209B JUMP JUMPDEST PUSH2 0x166C PUSH2 0x20B1 JUMP JUMPDEST PUSH1 0x44 CALLDATALOAD DUP3 PUSH1 0x60 SHL SWAP2 PUSH1 0x20 SWAP6 CALLER DUP8 MSTORE PUSH1 0xC SWAP4 PUSH4 0x7F5E9F20 DUP2 OR DUP6 MSTORE PUSH1 0x34 DUP6 KECCAK256 DUP1 SLOAD PUSH1 0x0 NOT DUP2 SUB PUSH2 0x16FB JUMPI JUMPDEST POP POP PUSH4 0x87A211A2 OR DUP5 MSTORE DUP7 DUP5 KECCAK256 DUP1 SLOAD SWAP9 DUP10 DUP6 GT PUSH2 0x7E9 JUMPI POP DUP4 PUSH1 0x1 PUSH1 0x1 PUSH1 0xA0 SHL SUB SWAP7 SWAP8 SWAP9 SWAP10 SUB SWAP1 SSTORE MSTORE DUP6 DUP3 KECCAK256 DUP2 DUP2 SLOAD ADD SWAP1 SSTORE DUP6 MSTORE MLOAD PUSH1 0x60 SHR SWAP2 AND PUSH32 0xDDF252AD1BE2C89B69C2B068FC378DAA952BA7F163C4A11628F55A4DF523B3EF DUP5 DUP1 LOG3 MLOAD PUSH1 0x1 DUP2 MSTORE RETURN JUMPDEST DUP1 DUP7 GT PUSH2 0x1712 JUMPI DUP6 SWAP1 SUB SWAP1 SSTORE PUSH4 0x87A211A2 CODESIZE PUSH2 0x1696 JUMP JUMPDEST DUP11 PUSH4 0x13BE252B DUP6 MSTORE PUSH1 0x1C REVERT JUMPDEST POP SWAP2 SWAP1 CALLVALUE PUSH2 0x330 JUMPI PUSH2 0x172F CALLDATASIZE PUSH2 0x210B JUMP JUMPDEST SWAP5 SWAP4 SWAP7 DUP7 SWAP4 SWAP2 SWAP4 SLOAD SWAP6 PUSH1 0xFF DUP8 AND ISZERO PUSH2 0x19A7 JUMPI PUSH1 0xFF NOT SWAP7 DUP8 AND DUP9 SSTORE DUP4 SWAP2 SWAP1 PUSH2 0x1754 PUSH2 0x3015 JUMP JUMPDEST PUSH2 0x175C PUSH2 0x2712 JUMP JUMPDEST PUSH1 0x1 PUSH1 0x1 PUSH1 0xA0 SHL SUB SWAP10 DUP11 DUP2 AND SWAP7 CALLER DUP9 SUB PUSH2 0x1997 JUMPI JUMPDEST DUP5 ISZERO ISZERO SWAP3 DUP4 PUSH2 0x195E JUMPI JUMPDEST DUP1 PUSH2 0x18D9 JUMPI JUMPDEST POP POP PUSH2 0x17B9 SWAP1 PUSH2 0x17B1 ADDRESS PUSH32 0x0 PUSH2 0x33F9 JUMP JUMPDEST SWAP5 DUP6 SWAP2 PUSH2 0x25B6 JUMP JUMPDEST SWAP1 DUP4 DUP7 GT ISZERO PUSH2 0x188F JUMPI POP PUSH1 0x20 DUP11 PUSH1 0x1 SLOAD AND SWAP2 PUSH1 0x44 DUP10 MLOAD DUP1 SWAP5 DUP2 SWAP4 PUSH4 0x33E32311 PUSH1 0xE2 SHL DUP4 MSTORE DUP12 DUP9 DUP5 ADD MSTORE PUSH1 0x24 DUP4 ADD MSTORE GAS STATICCALL SWAP1 DUP2 ISZERO PUSH2 0x1885 JUMPI DUP10 SWAP2 PUSH2 0x184B JUMPI JUMPDEST POP ISZERO PUSH2 0x183D JUMPI POP SWAP7 PUSH32 0x96558A334F4759F0E7C423D68C84721860BD8FBF94DDC4E55158ECB125AD04B5 SWAP2 PUSH1 0x1 SWAP8 SWAP9 JUMPDEST DUP7 MLOAD SWAP5 DUP6 MSTORE PUSH1 0x20 DUP6 ADD MSTORE AND SWAP4 CALLER SWAP3 LOG4 PUSH2 0x2E7 PUSH2 0x3015 JUMP JUMPDEST DUP6 MLOAD PUSH4 0xEFD51885 PUSH1 0xE0 SHL DUP2 MSTORE REVERT JUMPDEST SWAP1 POP PUSH1 0x20 DUP2 RETURNDATASIZE DUP3 GT PUSH2 0x187D JUMPI JUMPDEST DUP2 PUSH2 0x1865 PUSH1 0x20 SWAP4 DUP4 PUSH2 0x222E JUMP JUMPDEST DUP2 ADD SUB SLT PUSH2 0xF2A JUMPI MLOAD DUP1 ISZERO ISZERO DUP2 SUB PUSH2 0xF2A JUMPI CODESIZE PUSH2 0x17F7 JUMP JUMPDEST RETURNDATASIZE SWAP2 POP PUSH2 0x1858 JUMP JUMPDEST DUP8 MLOAD RETURNDATASIZE DUP12 DUP3 RETURNDATACOPY RETURNDATASIZE SWAP1 REVERT JUMPDEST SWAP1 POP PUSH2 0x18CB JUMPI POP SWAP7 PUSH32 0x96558A334F4759F0E7C423D68C84721860BD8FBF94DDC4E55158ECB125AD04B5 SWAP2 DUP9 PUSH2 0x18C6 PUSH1 0x1 SWAP10 SWAP11 PUSH2 0x28F6 JUMP JUMPDEST PUSH2 0x1826 JUMP JUMPDEST DUP6 MLOAD PUSH4 0x7CC109A5 PUSH1 0xE1 SHL DUP2 MSTORE REVERT JUMPDEST SWAP1 SWAP2 SWAP3 SWAP4 SWAP5 POP CALLER EXTCODESIZE ISZERO PUSH2 0x195A JUMPI PUSH2 0x1919 SWAP2 DUP12 SWAP2 DUP11 MLOAD SWAP4 DUP5 SWAP3 DUP4 SWAP3 PUSH4 0x8F53D74F PUSH1 0xE0 SHL DUP5 MSTORE CALLER DUP11 DUP6 ADD MSTORE DUP12 PUSH1 0x24 DUP6 ADD MSTORE PUSH1 0x60 PUSH1 0x44 DUP6 ADD MSTORE PUSH1 0x64 DUP5 ADD SWAP2 PUSH2 0x2354 JUMP JUMPDEST SUB DUP2 DUP4 CALLER GAS CALL DUP1 ISZERO PUSH2 0x1950 JUMPI PUSH2 0x1935 JUMPI JUMPDEST SWAP1 DUP2 DUP7 SWAP5 SWAP4 SWAP3 PUSH2 0x1781 JUMP JUMPDEST DUP6 SWAP4 SWAP3 SWAP2 SWAP10 PUSH2 0x1946 PUSH2 0x17B9 SWAP3 PUSH2 0x21E8 JUMP JUMPDEST SWAP10 SWAP2 SWAP3 SWAP4 POP PUSH2 0x192A JUMP JUMPDEST DUP9 MLOAD RETURNDATASIZE DUP13 DUP3 RETURNDATACOPY RETURNDATASIZE SWAP1 REVERT JUMPDEST DUP11 DUP1 REVERT JUMPDEST PUSH2 0x1967 DUP7 PUSH2 0x2981 JUMP JUMPDEST PUSH2 0x1992 DUP7 DUP9 PUSH32 0x0 PUSH2 0x33B0 JUMP JUMPDEST PUSH2 0x177B JUMP JUMPDEST PUSH2 0x19A2 DUP6 CALLER DUP5 PUSH2 0x31F1 JUMP JUMPDEST PUSH2 0x1771 JUMP JUMPDEST POP DUP5 MLOAD PUSH4 0x6FDA65D PUSH1 0xE3 SHL DUP2 MSTORE REVERT JUMPDEST POP CALLVALUE PUSH2 0x2FD JUMPI PUSH1 0x80 CALLDATASIZE PUSH1 0x3 NOT ADD SLT PUSH2 0x2FD JUMPI DUP1 CALLDATALOAD SWAP2 PUSH1 0x24 CALLDATALOAD SWAP1 PUSH1 0x44 CALLDATALOAD SWAP2 PUSH1 0x64 CALLDATALOAD SWAP4 PUSH2 0x19DF PUSH2 0x2F8B JUMP JUMPDEST PUSH8 0x16345785D8A0000 DUP7 GT PUSH2 0x1B91 JUMPI PUSH8 0x6F05B59D3B20000 DUP6 LT DUP1 ISZERO PUSH2 0x1B9F JUMPI JUMPDEST PUSH2 0x1B91 JUMPI PUSH1 0x1 DUP1 DUP6 LT DUP1 ISZERO PUSH2 0x1B87 JUMPI JUMPDEST PUSH2 0x1B78 JUMPI PUSH4 0x1E13380 SWAP2 DUP3 DUP9 DIV PUSH1 0x3 SSTORE DUP7 DUP4 MUL DUP4 DUP2 DIV DUP9 SUB PUSH2 0x1B65 JUMPI PUSH2 0x1A36 SWAP1 DUP6 PUSH2 0x325B JUMP JUMPDEST DUP2 SSTORE DUP6 PUSH1 0x7 SSTORE DUP7 PUSH1 0x6 SSTORE DUP9 SWAP3 DUP7 DUP6 MUL SWAP1 PUSH1 0x0 NOT DUP9 DUP8 MULMOD SWAP2 DUP1 DUP4 LT DUP2 ADD DUP1 DUP5 SUB SWAP4 EQ PUSH32 0x98F5BE4DD1E14769FBD6666224DC1EB80DD2E0A3D2C8B328F57E76B7AE103957 DUP5 DUP5 GT ISZERO SWAP5 DUP5 DUP13 DUP12 MULMOD SWAP1 DUP5 DUP3 GT SWAP1 SUB PUSH1 0xF9 SHL SWAP1 DUP5 SUB PUSH1 0x7 SHR OR MUL SWAP6 PUSH2 0x1AE5 JUMPI JUMPDEST POP DUP12 PUSH32 0xF58B8CC439EDADA25FD9495B7364AEB1D737DBEF59BE1CF62E0CC4001C44A3CD PUSH1 0x80 DUP14 DUP14 DUP14 DUP14 DUP14 PUSH2 0x1ACC DUP5 DUP16 PUSH2 0x325B JUMP JUMPDEST PUSH1 0x5 SSTORE DUP2 MLOAD SWAP5 DUP6 MSTORE PUSH1 0x20 DUP6 ADD MSTORE DUP4 ADD MSTORE PUSH1 0x60 DUP3 ADD MSTORE LOG1 DUP1 RETURN JUMPDEST SWAP1 SWAP2 SWAP3 SWAP4 SWAP5 SWAP6 POP PUSH2 0x1B30 JUMPI POP POP PUSH2 0x1B25 JUMPI POP DUP2 PUSH2 0x1ACC DUP7 PUSH1 0x80 PUSH32 0xF58B8CC439EDADA25FD9495B7364AEB1D737DBEF59BE1CF62E0CC4001C44A3CD CODESIZE PUSH2 0x1A98 JUMP JUMPDEST PUSH4 0xAE47F702 DUP9 MSTORE PUSH1 0x1C REVERT JUMPDEST DIV SWAP3 POP DUP4 SWAP2 POP PUSH2 0x1ACC SWAP1 POP DUP7 PUSH1 0x80 PUSH32 0xF58B8CC439EDADA25FD9495B7364AEB1D737DBEF59BE1CF62E0CC4001C44A3CD CODESIZE PUSH2 0x1A98 JUMP JUMPDEST PUSH4 0x4E487B71 PUSH1 0xE0 SHL DUP11 MSTORE PUSH1 0x11 DUP3 MSTORE PUSH1 0x24 DUP11 REVERT JUMPDEST POP DUP3 MLOAD PUSH4 0xE49B3B3 PUSH1 0xE4 SHL DUP2 MSTORE REVERT JUMPDEST POP PUSH1 0xA DUP6 GT PUSH2 0x1A10 JUMP JUMPDEST DUP3 MLOAD PUSH4 0xE49B3B3 PUSH1 0xE4 SHL DUP2 MSTORE REVERT JUMPDEST POP PUSH8 0xD2F13F7789F0000 DUP6 GT PUSH2 0x1A00 JUMP JUMPDEST POP CALLVALUE PUSH2 0x2FD JUMPI PUSH1 0x20 CALLDATASIZE PUSH1 0x3 NOT ADD SLT PUSH2 0x2FD JUMPI DUP1 CALLDATALOAD SWAP1 PUSH2 0x1BCD PUSH2 0x2F8B JUMP JUMPDEST PUSH8 0x2C68AF0BB140000 DUP3 GT PUSH2 0x1B91 JUMPI POP SWAP1 PUSH32 0xAAA68312E2EA9D50E16AF5068410AB56E1A1FD06037B1A35664812C30F821460 SWAP2 PUSH1 0x8 SLOAD SWAP1 DUP1 PUSH1 0x8 SSTORE DUP3 MLOAD SWAP2 DUP3 MSTORE PUSH1 0x20 DUP3 ADD MSTORE LOG1 DUP1 RETURN JUMPDEST POP SWAP2 SWAP1 CALLVALUE PUSH2 0x330 JUMPI PUSH1 0x20 CALLDATASIZE PUSH1 0x3 NOT ADD SLT PUSH2 0x330 JUMPI PUSH2 0x1C32 PUSH2 0x209B JUMP JUMPDEST SWAP1 DUP3 SLOAD SWAP2 PUSH1 0xFF DUP4 AND ISZERO PUSH2 0x1CE1 JUMPI PUSH1 0xFF NOT SWAP3 DUP4 AND DUP5 SSTORE PUSH2 0x1C4F PUSH2 0x2F8B JUMP JUMPDEST PUSH1 0x1 PUSH1 0x1 PUSH1 0xA0 SHL SUB SWAP2 DUP3 DUP3 AND SWAP3 PUSH32 0x0 AND DUP4 EQ PUSH2 0x1CD2 JUMPI PUSH1 0x1 SWAP5 SWAP6 POP PUSH2 0x1C9F PUSH2 0x1C96 ADDRESS DUP5 PUSH2 0x33F9 JUMP JUMPDEST DUP1 SWAP4 CALLER SWAP1 PUSH2 0x33B0 JUMP JUMPDEST MLOAD SWAP1 DUP2 MSTORE PUSH32 0x6D25BE279134F4ECAA4770AFF0C3D916D9E7C5EF37B65ED95DBDBA411F5D54D5 PUSH1 0x20 CALLER SWAP3 LOG3 DUP3 SLOAD AND OR DUP2 SSTORE DUP1 RETURN JUMPDEST MLOAD PUSH4 0xB5D8F391 PUSH1 0xE0 SHL DUP2 MSTORE DUP6 SWAP1 REVERT JUMPDEST DUP2 MLOAD PUSH4 0x6FDA65D PUSH1 0xE3 SHL DUP2 MSTORE DUP6 SWAP1 REVERT JUMPDEST POP POP CALLVALUE PUSH2 0x330 JUMPI DUP2 PUSH1 0x3 NOT CALLDATASIZE ADD SLT PUSH2 0x330 JUMPI PUSH1 0x20 SWAP1 PUSH1 0x6 SLOAD SWAP1 MLOAD SWAP1 DUP2 MSTORE RETURN JUMPDEST POP POP CALLVALUE PUSH2 0x330 JUMPI DUP2 PUSH1 0x3 NOT CALLDATASIZE ADD SLT PUSH2 0x330 JUMPI PUSH1 0x20 SWAP1 PUSH1 0x9 SLOAD SWAP1 MLOAD SWAP1 DUP2 MSTORE RETURN JUMPDEST POP POP CALLVALUE PUSH2 0x330 JUMPI DUP2 PUSH1 0x3 NOT CALLDATASIZE ADD SLT PUSH2 0x330 JUMPI PUSH1 0x20 SWAP1 PUSH9 0x5345CDF77EB68F44C SLOAD SWAP1 MLOAD SWAP1 DUP2 MSTORE RETURN JUMPDEST POP SWAP1 CALLVALUE PUSH2 0x2FD JUMPI PUSH1 0x20 SWAP1 DUP2 PUSH1 0x3 NOT CALLDATASIZE ADD SLT PUSH2 0xF2E JUMPI DUP3 CALLDATALOAD SWAP4 PUSH1 0x1 PUSH1 0x1 PUSH1 0xA0 SHL SUB SWAP3 DUP4 DUP7 AND DUP1 SWAP7 SUB PUSH2 0x330 JUMPI PUSH2 0x1D89 PUSH2 0x2F8B JUMP JUMPDEST PUSH1 0xC SWAP3 DUP4 SLOAD SWAP6 DUP8 PUSH20 0xFFFFFFFFFFFFFFFFFFFFFFFFFFFFFFFFFFFFFFFF NOT DUP9 AND OR DUP6 SSTORE PUSH2 0x1DB3 PUSH2 0x2C14 JUMP JUMPDEST POP SWAP5 PUSH32 0x0 DUP8 AND DUP6 JUMPDEST DUP8 MLOAD DUP2 LT ISZERO PUSH2 0x1EB7 JUMPI DUP2 DUP10 PUSH2 0x1DEF DUP4 DUP12 PUSH2 0x2BDB JUMP JUMPDEST MLOAD AND SUB PUSH2 0x1E05 JUMPI JUMPDEST PUSH2 0x1E00 SWAP1 PUSH2 0x2C05 JUMP JUMPDEST PUSH2 0x1DDA JUMP JUMPDEST PUSH2 0x1E4F DUP7 DUP11 PUSH2 0x1E14 DUP5 DUP13 PUSH2 0x2BDB JUMP JUMPDEST MLOAD AND DUP12 DUP7 SLOAD AND SWAP1 DUP9 MLOAD DUP1 DUP1 SWAP6 DUP2 SWAP5 PUSH4 0x6EB1769F PUSH1 0xE1 SHL DUP4 MSTORE ADDRESS DUP13 DUP5 ADD SWAP1 PUSH1 0x20 SWAP1 SWAP4 SWAP3 SWAP4 PUSH1 0x40 DUP4 ADD SWAP5 PUSH1 0x1 PUSH1 0x1 PUSH1 0xA0 SHL SUB DUP1 SWAP3 AND DUP5 MSTORE AND SWAP2 ADD MSTORE JUMP JUMPDEST SUB SWAP2 GAS STATICCALL DUP1 ISZERO PUSH2 0x1EAD JUMPI SWAP1 DUP8 SWAP2 PUSH2 0x1E84 JUMPI JUMPDEST POP POP DUP1 PUSH2 0x1E7D DUP13 DUP12 PUSH2 0x1E76 PUSH2 0x1E00 SWAP6 DUP14 PUSH2 0x2BDB JUMP JUMPDEST MLOAD AND PUSH2 0x29C8 JUMP JUMPDEST SWAP1 POP PUSH2 0x1DF7 JUMP JUMPDEST DUP2 RETURNDATASIZE DUP4 GT PUSH2 0x1EA6 JUMPI JUMPDEST PUSH2 0x1E97 DUP2 DUP4 PUSH2 0x222E JUMP JUMPDEST DUP2 ADD SUB SLT PUSH2 0xE2C JUMPI DUP6 CODESIZE PUSH2 0x1E61 JUMP JUMPDEST POP RETURNDATASIZE PUSH2 0x1E8D JUMP JUMPDEST DUP7 MLOAD RETURNDATASIZE DUP11 DUP3 RETURNDATACOPY RETURNDATASIZE SWAP1 REVERT JUMPDEST DUP7 PUSH32 0x6A97A9E954AE4EF4C8ECC6C7DD8A1CBE668254132294CEB515DB9A2E4FAAD7F5 DUP7 DUP13 DUP15 DUP11 DUP15 DUP5 MLOAD SWAP4 AND DUP4 MSTORE DUP3 ADD MSTORE LOG1 DUP1 RETURN JUMPDEST POP POP CALLVALUE PUSH2 0x330 JUMPI DUP1 PUSH1 0x3 NOT CALLDATASIZE ADD SLT PUSH2 0x330 JUMPI PUSH1 0x20 SWAP2 PUSH2 0x1F08 PUSH2 0x209B JUMP JUMPDEST PUSH1 0x24 CALLDATALOAD SWAP1 DUP5 MSTORE PUSH4 0x7F5E9F20 PUSH1 0xC MSTORE CALLER DUP3 MSTORE DUP1 PUSH1 0x34 PUSH1 0xC KECCAK256 SSTORE DUP2 MSTORE PUSH1 0x2C MLOAD PUSH1 0x60 SHR SWAP1 PUSH32 0x8C5BE1E5EBEC7D5BD14F71427D1E84F3DD0314C0F7B2291E5B200AC8C7C3B925 DUP5 CALLER SWAP3 LOG3 MLOAD PUSH1 0x1 DUP2 MSTORE RETURN JUMPDEST POP POP CALLVALUE PUSH2 0x330 JUMPI DUP2 PUSH1 0x3 NOT CALLDATASIZE ADD SLT PUSH2 0x330 JUMPI PUSH2 0xAE1 SWAP1 PUSH2 0x1F73 PUSH2 0x2375 JUMP JUMPDEST SWAP1 MLOAD SWAP2 DUP3 SWAP2 DUP3 PUSH2 0x206F JUMP JUMPDEST DUP4 DUP6 DUP5 CALLVALUE PUSH2 0x330 JUMPI DUP2 PUSH1 0x3 NOT CALLDATASIZE ADD SLT PUSH2 0x330 JUMPI DUP2 SLOAD SWAP4 PUSH1 0xFF DUP6 AND ISZERO PUSH2 0x2003 JUMPI PUSH2 0x1FCD DUP5 DUP7 DUP6 PUSH1 0xFF NOT DUP1 SWAP3 AND DUP2 SSTORE PUSH2 0x1FB3 PUSH2 0x2C14 JUMP JUMPDEST SWAP5 SWAP1 PUSH1 0x1 DUP1 SWAP5 DUP5 SLOAD AND OR DUP4 SSTORE DUP5 MLOAD SWAP5 DUP1 DUP7 MSTORE DUP6 ADD SWAP1 PUSH2 0x200F JUMP JUMPDEST PUSH1 0x20 DUP5 DUP3 SUB DUP2 DUP7 ADD MSTORE DUP1 DUP1 DUP8 MLOAD SWAP4 DUP5 DUP2 MSTORE ADD SWAP7 ADD SWAP3 JUMPDEST DUP3 DUP2 LT PUSH2 0x1FF0 JUMPI DUP6 DUP8 SUB DUP7 RETURN JUMPDEST DUP4 MLOAD DUP8 MSTORE SWAP6 DUP2 ADD SWAP6 SWAP3 DUP2 ADD SWAP3 DUP5 ADD PUSH2 0x1FE3 JUMP JUMPDEST PUSH4 0x6FDA65D PUSH1 0xE3 SHL DUP2 MSTORE REVERT JUMPDEST SWAP1 DUP2 MLOAD DUP1 DUP3 MSTORE PUSH1 0x20 DUP1 DUP1 SWAP4 ADD SWAP4 ADD SWAP2 PUSH1 0x0 JUMPDEST DUP3 DUP2 LT PUSH2 0x202F JUMPI POP POP POP POP SWAP1 JUMP JUMPDEST DUP4 MLOAD PUSH1 0x1 PUSH1 0x1 PUSH1 0xA0 SHL SUB AND DUP6 MSTORE SWAP4 DUP2 ADD SWAP4 SWAP3 DUP2 ADD SWAP3 PUSH1 0x1 ADD PUSH2 0x2021 JUMP JUMPDEST PUSH1 0x0 JUMPDEST DUP4 DUP2 LT PUSH2 0x205F JUMPI POP POP PUSH1 0x0 SWAP2 ADD MSTORE JUMP JUMPDEST DUP2 DUP2 ADD MLOAD DUP4 DUP3 ADD MSTORE PUSH1 0x20 ADD PUSH2 0x204F JUMP JUMPDEST PUSH1 0x40 SWAP2 PUSH1 0x20 DUP3 MSTORE PUSH2 0x208F DUP2 MLOAD DUP1 SWAP3 DUP2 PUSH1 0x20 DUP7 ADD MSTORE PUSH1 0x20 DUP7 DUP7 ADD SWAP2 ADD PUSH2 0x204C JUMP JUMPDEST PUSH1 0x1F ADD PUSH1 0x1F NOT AND ADD ADD SWAP1 JUMP JUMPDEST PUSH1 0x4 CALLDATALOAD SWAP1 PUSH1 0x1 PUSH1 0x1 PUSH1 0xA0 SHL SUB DUP3 AND DUP3 SUB PUSH2 0xF21 JUMPI JUMP JUMPDEST PUSH1 0x24 CALLDATALOAD SWAP1 PUSH1 0x1 PUSH1 0x1 PUSH1 0xA0 SHL SUB DUP3 AND DUP3 SUB PUSH2 0xF21 JUMPI JUMP JUMPDEST PUSH1 0x44 CALLDATALOAD SWAP1 PUSH1 0x1 PUSH1 0x1 PUSH1 0xA0 SHL SUB DUP3 AND DUP3 SUB PUSH2 0xF21 JUMPI JUMP JUMPDEST SWAP2 DUP2 PUSH1 0x1F DUP5 ADD SLT ISZERO PUSH2 0xF21 JUMPI DUP3 CALLDATALOAD SWAP2 PUSH8 0xFFFFFFFFFFFFFFFF DUP4 GT PUSH2 0xF21 JUMPI PUSH1 0x20 DUP4 DUP2 DUP7 ADD SWAP6 ADD ADD GT PUSH2 0xF21 JUMPI JUMP JUMPDEST SWAP1 PUSH1 0x80 PUSH1 0x3 NOT DUP4 ADD SLT PUSH2 0xF21 JUMPI PUSH1 0x1 PUSH1 0x1 PUSH1 0xA0 SHL SUB SWAP2 PUSH1 0x4 CALLDATALOAD DUP4 DUP2 AND DUP2 SUB PUSH2 0xF21 JUMPI SWAP3 PUSH1 0x24 CALLDATALOAD SWAP1 DUP2 AND DUP2 SUB PUSH2 0xF21 JUMPI SWAP2 PUSH1 0x44 CALLDATALOAD SWAP2 PUSH1 0x64 CALLDATALOAD SWAP1 PUSH8 0xFFFFFFFFFFFFFFFF DUP3 GT PUSH2 0xF21 JUMPI PUSH2 0x215E SWAP2 PUSH1 0x4 ADD PUSH2 0x20DD JUMP JUMPDEST SWAP1 SWAP2 JUMP JUMPDEST SWAP2 SWAP1 DUP3 ADD DUP1 SWAP3 GT PUSH2 0x216F JUMPI JUMP JUMPDEST PUSH4 0x4E487B71 PUSH1 0xE0 SHL PUSH1 0x0 MSTORE PUSH1 0x11 PUSH1 0x4 MSTORE PUSH1 0x24 PUSH1 0x0 REVERT JUMPDEST PUSH9 0x5345CDF77EB68F44C SLOAD DUP1 ISZERO PUSH2 0x21D4 JUMPI DUP1 PUSH2 0x21CC PUSH2 0x21D1 SWAP3 PUSH2 0x21C7 PUSH1 0x1 PUSH1 0x1 PUSH1 0xA0 SHL SUB PUSH1 0x0 SLOAD PUSH1 0x8 SHR AND PUSH12 0xFFFFFFFFFFFFFFFFFFFFFFFF PUSH1 0xB SLOAD AND SWAP1 PUSH2 0x2162 JUMP JUMPDEST PUSH2 0x325B JUMP JUMPDEST PUSH2 0x226F JUMP JUMPDEST SWAP1 JUMP JUMPDEST POP PUSH1 0x9 SLOAD SWAP1 JUMP JUMPDEST SWAP2 SWAP1 DUP3 SUB SWAP2 DUP3 GT PUSH2 0x216F JUMPI JUMP JUMPDEST PUSH8 0xFFFFFFFFFFFFFFFF DUP2 GT PUSH2 0x21FC JUMPI PUSH1 0x40 MSTORE JUMP JUMPDEST PUSH4 0x4E487B71 PUSH1 0xE0 SHL PUSH1 0x0 MSTORE PUSH1 0x41 PUSH1 0x4 MSTORE PUSH1 0x24 PUSH1 0x0 REVERT JUMPDEST PUSH1 0x40 DUP2 ADD SWAP1 DUP2 LT PUSH8 0xFFFFFFFFFFFFFFFF DUP3 GT OR PUSH2 0x21FC JUMPI PUSH1 0x40 MSTORE JUMP JUMPDEST SWAP1 PUSH1 0x1F DUP1 NOT SWAP2 ADD AND DUP2 ADD SWAP1 DUP2 LT PUSH8 0xFFFFFFFFFFFFFFFF DUP3 GT OR PUSH2 0x21FC JUMPI PUSH1 0x40 MSTORE JUMP JUMPDEST SWAP1 DUP2 PUSH1 0x20 SWAP2 SUB SLT PUSH2 0xF21 JUMPI MLOAD PUSH1 0x1 PUSH1 0x1 PUSH1 0xA0 SHL SUB DUP2 AND DUP2 SUB PUSH2 0xF21 JUMPI SWAP1 JUMP JUMPDEST PUSH1 0x9 SLOAD SWAP1 SWAP2 DUP2 DUP4 GT ISZERO PUSH2 0x234F JUMPI PUSH2 0xCE6 PUSH2 0x22A1 PUSH2 0x229B PUSH2 0x2292 PUSH2 0x22A9 SWAP6 DUP8 PUSH2 0x21DB JUMP JUMPDEST PUSH1 0x8 SLOAD SWAP1 PUSH2 0x3230 JUMP JUMPDEST DUP6 PUSH2 0x21DB JUMP JUMPDEST DUP1 SWAP5 DUP4 PUSH2 0x329E JUMP JUMPDEST DUP1 PUSH2 0x22B7 JUMPI JUMPDEST POP DUP1 PUSH1 0x9 SSTORE SWAP1 JUMP JUMPDEST PUSH1 0x40 MLOAD PUSH4 0xB60D15F PUSH1 0xE3 SHL DUP2 MSTORE SWAP1 PUSH1 0x20 DUP3 PUSH1 0x4 DUP2 PUSH32 0x0 PUSH1 0x1 PUSH1 0x1 PUSH1 0xA0 SHL SUB AND GAS STATICCALL DUP1 ISZERO PUSH2 0x2343 JUMPI PUSH2 0x230F SWAP3 PUSH1 0x0 SWAP2 PUSH2 0x2315 JUMPI JUMPDEST POP PUSH2 0x3183 JUMP JUMPDEST CODESIZE PUSH2 0x22AF JUMP JUMPDEST PUSH2 0x2336 SWAP2 POP PUSH1 0x20 RETURNDATASIZE DUP2 GT PUSH2 0x233C JUMPI JUMPDEST PUSH2 0x232E DUP2 DUP4 PUSH2 0x222E JUMP JUMPDEST DUP2 ADD SWAP1 PUSH2 0x2250 JUMP JUMPDEST CODESIZE PUSH2 0x2309 JUMP JUMPDEST POP RETURNDATASIZE PUSH2 0x2324 JUMP JUMPDEST PUSH1 0x40 MLOAD RETURNDATASIZE PUSH1 0x0 DUP3 RETURNDATACOPY RETURNDATASIZE SWAP1 REVERT JUMPDEST POP POP SWAP1 JUMP JUMPDEST SWAP1 DUP1 PUSH1 0x20 SWAP4 SWAP3 DUP2 DUP5 MSTORE DUP5 DUP5 ADD CALLDATACOPY PUSH1 0x0 DUP3 DUP3 ADD DUP5 ADD MSTORE PUSH1 0x1F ADD PUSH1 0x1F NOT AND ADD ADD SWAP1 JUMP JUMPDEST PUSH1 0x40 MLOAD SWAP1 PUSH2 0x2382 DUP3 PUSH2 0x2212 JUMP JUMPDEST PUSH1 0x12 DUP3 MSTORE PUSH32 0x4379676E75733A20426F72726F7761626C650000000000000000000000000000 PUSH1 0x20 DUP4 ADD MSTORE JUMP JUMPDEST PUSH1 0x1 PUSH1 0x1 PUSH1 0xA0 SHL SUB AND PUSH1 0x0 MSTORE PUSH1 0xA PUSH1 0x20 MSTORE PUSH1 0x40 PUSH1 0x0 KECCAK256 SLOAD DUP1 PUSH1 0x80 SHR DUP1 ISZERO PUSH2 0x23F4 JUMPI PUSH2 0x21D1 SWAP2 PUSH1 0x1 PUSH1 0x1 PUSH1 0x80 SHL SUB PUSH10 0xFFFFFFFFFFFFFFFFFFFF PUSH1 0xB SLOAD PUSH1 0x60 SHR AND SWAP2 AND PUSH2 0x329E JUMP JUMPDEST POP POP PUSH1 0x0 SWAP1 JUMP JUMPDEST PUSH1 0xB SLOAD PUSH1 0x8 SLOAD PUSH8 0xDE0B6B3A7640000 SWAP1 DUP2 SUB SWAP1 DUP2 GT PUSH2 0x216F JUMPI PUSH2 0x2429 SWAP1 PUSH6 0xFFFFFFFFFFFF DUP4 PUSH1 0xB0 SHR AND PUSH2 0x3230 JUMP JUMPDEST PUSH1 0x1 PUSH1 0x1 PUSH1 0xA0 SHL SUB PUSH12 0xFFFFFFFFFFFFFFFFFFFFFFFF DUP2 PUSH1 0x0 SLOAD PUSH1 0x8 SHR AND SWAP4 AND DUP1 SWAP4 ADD DUP2 DUP2 GT PUSH2 0x216F JUMPI AND SWAP2 DUP3 ISZERO PUSH2 0x246C JUMPI PUSH2 0x21D1 SWAP3 PUSH2 0x2467 SWAP2 PUSH2 0x325B JUMP JUMPDEST PUSH2 0x3230 JUMP JUMPDEST POP POP POP PUSH1 0x0 SWAP1 JUMP JUMPDEST SWAP2 SWAP1 SWAP2 PUSH2 0x2480 DUP2 PUSH2 0x23AE JUMP JUMPDEST DUP4 ISZERO PUSH2 0x25B1 JUMPI SWAP1 PUSH2 0x2569 SWAP2 PUSH10 0xFFFFFFFFFFFFFFFFFFFF PUSH1 0xB SLOAD PUSH1 0x60 SHR AND SWAP2 PUSH1 0x0 PUSH1 0x1 PUSH1 0x1 PUSH1 0xA0 SHL SUB DUP3 AND DUP2 MSTORE PUSH1 0xA PUSH1 0x20 MSTORE PUSH1 0x40 DUP2 KECCAK256 SWAP7 DUP1 DUP5 GT PUSH1 0x0 EQ PUSH2 0x25A5 JUMPI PUSH2 0x2526 SWAP1 DUP5 SUB DUP1 SWAP5 JUMPDEST PUSH2 0xCE6 DUP3 SWAP11 PUSH1 0x1 PUSH1 0x1 PUSH1 0x80 SHL SUB PUSH2 0x24DF DUP6 PUSH2 0x3362 JUMP JUMPDEST DUP3 SLOAD PUSH16 0xFFFFFFFFFFFFFFFFFFFFFFFFFFFFFFFF NOT AND SWAP2 AND OR DUP2 SSTORE DUP4 PUSH2 0x2573 JUMPI DUP1 SLOAD PUSH1 0x1 PUSH1 0x1 PUSH1 0x80 SHL SUB AND PUSH1 0x80 DUP8 SWAP1 SHL PUSH16 0xFFFFFFFFFFFFFFFFFFFFFFFFFFFFFFFF NOT AND OR SWAP1 SSTORE JUMP JUMPDEST PUSH1 0xB SLOAD SWAP2 PUSH12 0xFFFFFFFFFFFFFFFFFFFFFFFF SWAP2 PUSH2 0x254F SWAP2 DUP4 DUP6 AND SWAP1 DUP3 DUP3 GT ISZERO PUSH2 0x256B JUMPI POP SUB PUSH2 0x333C JUMP JUMPDEST AND SWAP1 PUSH12 0xFFFFFFFFFFFFFFFFFFFFFFFF NOT AND OR PUSH1 0xB SSTORE PUSH2 0x26AB JUMP JUMPDEST JUMP JUMPDEST SWAP2 POP POP PUSH2 0x333C JUMP JUMPDEST PUSH2 0x257C DUP10 PUSH2 0x3362 JUMP JUMPDEST DUP2 SLOAD PUSH1 0x1 PUSH1 0x1 PUSH1 0x80 SHL SUB AND PUSH1 0x80 SWAP2 SWAP1 SWAP2 SHL PUSH16 0xFFFFFFFFFFFFFFFFFFFFFFFFFFFFFFFF NOT AND OR SWAP1 SSTORE JUMP JUMPDEST POP PUSH2 0x2526 DUP2 DUP1 SWAP5 PUSH2 0x24C9 JUMP JUMPDEST SWAP3 POP POP JUMP JUMPDEST SWAP3 SWAP2 SWAP3 PUSH2 0x25C2 DUP2 PUSH2 0x23AE JUMP JUMPDEST DUP5 DUP4 EQ PUSH2 0x26A5 JUMPI PUSH10 0xFFFFFFFFFFFFFFFFFFFF PUSH1 0xB SLOAD PUSH1 0x60 SHR AND SWAP5 PUSH1 0x0 SWAP4 PUSH1 0x1 PUSH1 0x1 PUSH1 0xA0 SHL SUB DUP5 AND DUP6 MSTORE PUSH1 0xA PUSH1 0x20 MSTORE PUSH1 0x40 DUP6 KECCAK256 SWAP5 DUP3 DUP3 GT PUSH1 0x0 EQ PUSH2 0x2669 JUMPI POP SWAP2 PUSH2 0x2617 PUSH2 0x2644 SWAP8 SWAP5 SWAP3 PUSH2 0x2569 SWAP7 SWAP5 SUB DUP1 SWAP3 PUSH2 0x2162 JUMP JUMPDEST SWAP7 DUP8 SWAP4 PUSH1 0x1 PUSH1 0x1 PUSH1 0x80 SHL SUB PUSH2 0x262B DUP7 PUSH2 0x3362 JUMP JUMPDEST AND PUSH1 0x1 PUSH1 0x1 PUSH1 0x80 SHL SUB NOT DUP3 SLOAD AND OR DUP2 SSTORE PUSH2 0x257C DUP7 PUSH2 0x3362 JUMP JUMPDEST PUSH1 0xB SLOAD SWAP1 PUSH2 0x254F PUSH2 0x2664 PUSH12 0xFFFFFFFFFFFFFFFFFFFFFFFF SWAP3 DUP4 DUP6 AND PUSH2 0x2162 JUMP JUMPDEST PUSH2 0x333C JUMP JUMPDEST SWAP1 PUSH2 0x2569 SWAP6 SWAP4 PUSH2 0x2526 SWAP2 PUSH2 0xCE6 SWAP10 SWAP7 SWAP5 SUB DUP1 DUP3 GT PUSH1 0x0 EQ PUSH2 0x269D JUMPI DUP2 SUB SWAP1 JUMPDEST DUP2 SWAP10 DUP11 SWAP7 PUSH1 0x1 PUSH1 0x1 PUSH1 0x80 SHL SUB PUSH2 0x24DF DUP6 PUSH2 0x3362 JUMP JUMPDEST POP DUP3 SWAP1 PUSH2 0x2688 JUMP JUMPDEST SWAP4 POP POP POP JUMP JUMPDEST SWAP2 SWAP1 SWAP2 PUSH1 0x1 PUSH1 0x1 PUSH1 0xA0 SHL SUB SWAP1 DUP2 PUSH1 0x2 SLOAD AND SWAP1 DUP2 ISZERO PUSH2 0x270B JUMPI DUP2 EXTCODESIZE ISZERO PUSH2 0xF21 JUMPI PUSH1 0x0 PUSH1 0x64 SWAP3 DUP2 SWAP6 PUSH1 0x40 MLOAD SWAP8 DUP9 SWAP7 DUP8 SWAP6 PUSH4 0xD98320D5 PUSH1 0xE0 SHL DUP8 MSTORE AND PUSH1 0x4 DUP7 ADD MSTORE PUSH1 0x24 DUP6 ADD MSTORE PUSH1 0x44 DUP5 ADD MSTORE GAS CALL DUP1 ISZERO PUSH2 0x2343 JUMPI PUSH2 0x2702 JUMPI POP JUMP JUMPDEST PUSH2 0x2569 SWAP1 PUSH2 0x21E8 JUMP JUMPDEST POP POP POP POP POP JUMP JUMPDEST PUSH4 0xFFFFFFFF DUP1 TIMESTAMP AND PUSH1 0xB SLOAD DUP1 PUSH1 0xE0 SHR SWAP3 DUP4 DUP4 SUB SWAP4 DUP2 DUP6 GT PUSH2 0x216F JUMPI PUSH12 0xFFFFFFFFFFFFFFFFFFFFFFFF SWAP2 DUP3 DUP5 AND SWAP2 PUSH10 0xFFFFFFFFFFFFFFFFFFFF PUSH1 0x1 PUSH1 0x1 PUSH1 0xA0 SHL SUB PUSH1 0x0 SLOAD PUSH1 0x8 SHR AND SWAP6 PUSH1 0x60 SHR AND SWAP6 EQ DUP1 ISZERO PUSH2 0x288D JUMPI JUMPDEST PUSH2 0x2885 JUMPI PUSH2 0x2775 DUP3 DUP6 PUSH2 0x2895 JUMP JUMPDEST SWAP6 AND SWAP4 DUP5 DUP7 MUL SWAP5 DUP7 DUP7 DIV EQ DUP7 ISZERO OR ISZERO PUSH2 0x216F JUMPI DUP1 PUSH2 0x27AA PUSH2 0x27B0 SWAP3 PUSH2 0x27A4 PUSH2 0x279D DUP7 DUP11 PUSH2 0x3230 JUMP JUMPDEST DUP1 SWAP7 PUSH2 0x2162 JUMP JUMPDEST SWAP8 PUSH2 0x3230 JUMP JUMPDEST SWAP1 PUSH2 0x2162 JUMP JUMPDEST SWAP2 PUSH2 0x27BA DUP6 PUSH2 0x333C JUMP JUMPDEST AND SWAP2 PUSH11 0x100000000000000000000 DUP2 LT ISZERO PUSH2 0x2877 JUMPI PUSH7 0x1000000000000 DUP7 LT ISZERO PUSH2 0x2877 JUMPI PUSH32 0x875352FB3FADEB8C0BE7CBBE8FF761B308FA7033470CD0287F02F3436FD76CB9 SWAP6 PUSH28 0xFFFFFFFFFFFF00000000000000000000000000000000000000000000 PUSH2 0x2872 SWAP5 PUSH22 0xFFFFFFFFFFFFFFFFFFFF000000000000000000000000 PUSH4 0xFFFFFFFF PUSH1 0xE0 SHL TIMESTAMP PUSH1 0xE0 SHL AND SWAP5 PUSH1 0x60 SHL AND OR SWAP2 PUSH1 0xB0 SHL AND OR OR PUSH1 0xB SSTORE PUSH1 0x40 MLOAD SWAP4 DUP5 SWAP4 DUP5 PUSH1 0x40 SWAP2 SWAP5 SWAP4 SWAP3 PUSH1 0x60 DUP3 ADD SWAP6 DUP3 MSTORE PUSH1 0x20 DUP3 ADD MSTORE ADD MSTORE JUMP JUMPDEST SUB SWAP1 LOG1 JUMP JUMPDEST PUSH4 0x35278D12 PUSH1 0x0 MSTORE PUSH1 0x4 PUSH1 0x1C REVERT JUMPDEST POP POP POP POP POP POP JUMP JUMPDEST POP DUP2 ISZERO PUSH2 0x2767 JUMP JUMPDEST SWAP1 PUSH2 0xCFB DUP2 PUSH2 0x28A3 SWAP4 PUSH2 0x2162 JUMP JUMPDEST PUSH1 0x6 SLOAD DUP1 DUP3 GT ISZERO PUSH2 0x28E5 JUMPI SWAP1 PUSH2 0x28E0 PUSH2 0x28D7 PUSH2 0x21D1 SWAP4 PUSH2 0x28D1 PUSH2 0x28C8 PUSH1 0x4 SLOAD DUP4 PUSH2 0x3230 JUMP JUMPDEST PUSH1 0x3 SLOAD SWAP1 PUSH2 0x2162 JUMP JUMPDEST SWAP4 PUSH2 0x21DB JUMP JUMPDEST PUSH1 0x5 SLOAD SWAP1 PUSH2 0x3230 JUMP JUMPDEST PUSH2 0x2162 JUMP JUMPDEST POP PUSH2 0x28C8 PUSH2 0x21D1 SWAP2 PUSH1 0x4 SLOAD SWAP1 PUSH2 0x3230 JUMP JUMPDEST PUSH1 0x40 MLOAD SWAP1 PUSH4 0x140E25AD PUSH1 0xE3 SHL DUP3 MSTORE PUSH1 0x4 DUP3 ADD MSTORE PUSH1 0x20 DUP2 PUSH1 0x24 DUP2 PUSH1 0x0 PUSH20 0xEC8FEA79026FFED168CCF5C627C7F486D77B765F GAS CALL SWAP1 DUP2 ISZERO PUSH2 0x2343 JUMPI PUSH1 0x0 SWAP2 PUSH2 0x2950 JUMPI JUMPDEST POP PUSH2 0x293E JUMPI JUMP JUMPDEST PUSH1 0x40 MLOAD PUSH4 0x39D7BE8D PUSH1 0xE2 SHL DUP2 MSTORE PUSH1 0x4 SWAP1 REVERT JUMPDEST SWAP1 PUSH1 0x20 DUP3 RETURNDATASIZE DUP3 GT PUSH2 0x2979 JUMPI JUMPDEST DUP2 PUSH2 0x2969 PUSH1 0x20 SWAP4 DUP4 PUSH2 0x222E JUMP JUMPDEST DUP2 ADD SUB SLT PUSH2 0x961 JUMPI POP MLOAD CODESIZE PUSH2 0x2937 JUMP JUMPDEST RETURNDATASIZE SWAP2 POP PUSH2 0x295C JUMP JUMPDEST PUSH1 0x40 MLOAD SWAP1 PUSH4 0x852A12E3 PUSH1 0xE0 SHL DUP3 MSTORE PUSH1 0x4 DUP3 ADD MSTORE PUSH1 0x20 DUP2 PUSH1 0x24 DUP2 PUSH1 0x0 PUSH20 0xEC8FEA79026FFED168CCF5C627C7F486D77B765F GAS CALL SWAP1 DUP2 ISZERO PUSH2 0x2343 JUMPI PUSH1 0x0 SWAP2 PUSH2 0x2950 JUMPI POP PUSH2 0x293E JUMPI JUMP JUMPDEST PUSH1 0x40 MLOAD PUSH4 0x6EB1769F PUSH1 0xE1 SHL DUP2 MSTORE ADDRESS PUSH1 0x4 DUP3 ADD MSTORE PUSH1 0x1 PUSH1 0x1 PUSH1 0xA0 SHL SUB DUP4 AND PUSH1 0x24 DUP3 ADD MSTORE SWAP2 SWAP1 PUSH1 0x20 DUP4 DUP1 PUSH1 0x44 DUP2 ADD SUB DUP2 PUSH1 0x1 PUSH1 0x1 PUSH1 0xA0 SHL SUB DUP6 AND GAS STATICCALL SWAP3 DUP4 ISZERO PUSH2 0x2343 JUMPI PUSH1 0x0 SWAP4 PUSH2 0x2A64 JUMPI JUMPDEST POP PUSH1 0x0 NOT DUP1 SWAP4 LT ISZERO PUSH2 0x2A5F JUMPI PUSH1 0x10 PUSH1 0x0 PUSH1 0x44 SWAP3 PUSH1 0x20 SWAP6 DUP3 SWAP6 PUSH1 0x14 MSTORE PUSH1 0x34 MSTORE PUSH4 0x95EA7B3 PUSH1 0x60 SHL DUP3 MSTORE GAS CALL RETURNDATASIZE ISZERO PUSH1 0x1 PUSH1 0x0 MLOAD EQ OR AND ISZERO PUSH2 0x2A51 JUMPI PUSH1 0x0 PUSH1 0x34 MSTORE JUMP JUMPDEST PUSH4 0x3E3F8F73 PUSH1 0x0 MSTORE PUSH1 0x4 PUSH1 0x1C REVERT JUMPDEST POP POP POP JUMP JUMPDEST SWAP1 SWAP3 PUSH1 0x20 DUP3 RETURNDATASIZE DUP3 GT PUSH2 0x2A8F JUMPI JUMPDEST DUP2 PUSH2 0x2A7E PUSH1 0x20 SWAP4 DUP4 PUSH2 0x222E JUMP JUMPDEST DUP2 ADD SUB SLT PUSH2 0x961 JUMPI POP MLOAD SWAP2 CODESIZE PUSH2 0x2A11 JUMP JUMPDEST RETURNDATASIZE SWAP2 POP PUSH2 0x2A71 JUMP JUMPDEST PUSH1 0x40 MLOAD PUSH4 0x6EB1769F PUSH1 0xE1 SHL DUP2 MSTORE ADDRESS PUSH1 0x4 DUP3 ADD MSTORE PUSH20 0xEC8FEA79026FFED168CCF5C627C7F486D77B765F PUSH1 0x24 DUP3 ADD DUP2 SWAP1 MSTORE SWAP1 SWAP2 PUSH1 0x20 DUP4 PUSH1 0x44 DUP2 PUSH1 0x1 PUSH1 0x1 PUSH1 0xA0 SHL SUB DUP6 AND GAS STATICCALL SWAP3 DUP4 ISZERO PUSH2 0x2343 JUMPI PUSH1 0x0 SWAP4 PUSH2 0x2A64 JUMPI POP PUSH1 0x0 NOT DUP1 SWAP4 LT ISZERO PUSH2 0x2A5F JUMPI PUSH1 0x10 PUSH1 0x0 PUSH1 0x44 SWAP3 PUSH1 0x20 SWAP6 DUP3 SWAP6 PUSH1 0x14 MSTORE PUSH1 0x34 MSTORE PUSH4 0x95EA7B3 PUSH1 0x60 SHL DUP3 MSTORE GAS CALL RETURNDATASIZE ISZERO PUSH1 0x1 PUSH1 0x0 MLOAD EQ OR AND ISZERO PUSH2 0x2A51 JUMPI PUSH1 0x0 PUSH1 0x34 MSTORE JUMP JUMPDEST PUSH1 0x40 MLOAD PUSH4 0x6EB1769F PUSH1 0xE1 SHL DUP2 MSTORE ADDRESS PUSH1 0x4 DUP3 ADD MSTORE PUSH20 0xDC05D85069DC4ABA65954008FF99F2D73FF12618 PUSH1 0x24 DUP3 ADD DUP2 SWAP1 MSTORE PUSH20 0x1DB2466D9F5E10D7090E7152B68D62703A2245F0 PUSH1 0x20 DUP4 PUSH1 0x44 DUP2 DUP5 GAS STATICCALL SWAP3 DUP4 ISZERO PUSH2 0x2343 JUMPI PUSH1 0x0 SWAP4 PUSH2 0x2A64 JUMPI POP PUSH1 0x0 NOT DUP1 SWAP4 LT ISZERO PUSH2 0x2A5F JUMPI PUSH1 0x10 PUSH1 0x0 PUSH1 0x44 SWAP3 PUSH1 0x20 SWAP6 DUP3 SWAP6 PUSH1 0x14 MSTORE PUSH1 0x34 MSTORE PUSH4 0x95EA7B3 PUSH1 0x60 SHL DUP3 MSTORE GAS CALL RETURNDATASIZE ISZERO PUSH1 0x1 PUSH1 0x0 MLOAD EQ OR AND ISZERO PUSH2 0x2A51 JUMPI PUSH1 0x0 PUSH1 0x34 MSTORE JUMP JUMPDEST PUSH8 0xFFFFFFFFFFFFFFFF DUP2 GT PUSH2 0x21FC JUMPI PUSH1 0x5 SHL PUSH1 0x20 ADD SWAP1 JUMP JUMPDEST DUP1 MLOAD DUP3 LT ISZERO PUSH2 0x2BEF JUMPI PUSH1 0x20 SWAP2 PUSH1 0x5 SHL ADD ADD SWAP1 JUMP JUMPDEST PUSH4 0x4E487B71 PUSH1 0xE0 SHL PUSH1 0x0 MSTORE PUSH1 0x32 PUSH1 0x4 MSTORE PUSH1 0x24 PUSH1 0x0 REVERT JUMPDEST PUSH1 0x0 NOT DUP2 EQ PUSH2 0x216F JUMPI PUSH1 0x1 ADD SWAP1 JUMP JUMPDEST PUSH1 0x0 SWAP1 PUSH1 0x40 SWAP1 DUP2 MLOAD PUSH2 0x2C25 DUP2 PUSH2 0x2212 JUMP JUMPDEST PUSH1 0x1 DUP2 MSTORE PUSH1 0x20 SWAP3 DUP4 DUP3 ADD DUP5 CALLDATASIZE DUP3 CALLDATACOPY DUP3 MLOAD ISZERO PUSH2 0x2F77 JUMPI PUSH20 0xEC8FEA79026FFED168CCF5C627C7F486D77B765F SWAP1 MSTORE PUSH20 0x60CF091CD3F50420D50FD7F707414D0DF4751C58 SWAP2 DUP3 EXTCODESIZE ISZERO PUSH2 0xE1E JUMPI DUP2 MLOAD PUSH3 0xE1ED97 PUSH1 0xE5 SHL DUP2 MSTORE DUP7 DUP2 PUSH1 0x4 SWAP6 ADDRESS DUP8 DUP4 ADD MSTORE DUP2 DUP4 DUP2 PUSH2 0x2C9B PUSH1 0x24 SWAP9 DUP11 DUP11 DUP5 ADD MSTORE PUSH1 0x44 DUP4 ADD SWAP1 PUSH2 0x200F JUMP JUMPDEST SUB SWAP3 GAS CALL DUP1 ISZERO PUSH2 0x2F6D JUMPI PUSH2 0x2F5A JUMPI JUMPDEST POP DUP2 MLOAD PUSH4 0xD1058E59 PUSH1 0xE0 SHL DUP2 MSTORE PUSH20 0xDC05D85069DC4ABA65954008FF99F2D73FF12618 SWAP7 SWAP1 DUP2 DUP2 DUP7 DUP2 DUP4 DUP13 GAS CALL SWAP1 DUP2 ISZERO PUSH2 0x2F50 JUMPI DUP3 SWAP2 PUSH2 0x2EC0 JUMPI JUMPDEST POP ADDRESS PUSH1 0x14 MSTORE PUSH16 0x70A08231000000000000000000000000 DUP3 MSTORE DUP7 DUP1 DUP5 PUSH1 0x10 PUSH20 0x1DB2466D9F5E10D7090E7152B68D62703A2245F0 GAS STATICCALL PUSH1 0x1F RETURNDATASIZE GT AND DUP8 MLOAD MUL DUP1 PUSH2 0x2E6E JUMPI JUMPDEST POP MLOAD SWAP3 PUSH1 0x0 NOT SWAP3 DUP4 DUP6 ADD SWAP5 DUP6 GT PUSH2 0x2E5D JUMPI PUSH2 0x2D40 DUP6 PUSH2 0x2BC3 JUMP JUMPDEST SWAP3 PUSH2 0x2D4D DUP4 MLOAD SWAP5 DUP6 PUSH2 0x222E JUMP JUMPDEST DUP6 DUP5 MSTORE PUSH1 0x1F NOT SWAP5 DUP6 PUSH2 0x2D5E DUP9 PUSH2 0x2BC3 JUMP JUMPDEST ADD CALLDATASIZE DUP12 DUP8 ADD CALLDATACOPY DUP5 SWAP11 PUSH2 0x2D6F DUP9 PUSH2 0x2BC3 JUMP JUMPDEST SWAP7 PUSH2 0x2D7C DUP7 MLOAD SWAP9 DUP10 PUSH2 0x222E JUMP JUMPDEST DUP9 DUP9 MSTORE PUSH2 0x2D88 DUP10 PUSH2 0x2BC3 JUMP JUMPDEST ADD CALLDATASIZE DUP13 DUP10 ADD CALLDATACOPY DUP7 SWAP11 PUSH1 0x1 JUMPDEST DUP10 DUP2 GT ISZERO PUSH2 0x2DA8 JUMPI POP POP POP POP POP POP POP POP POP POP POP JUMP JUMPDEST DUP7 MLOAD PUSH4 0x27B2595F PUSH1 0xE1 SHL DUP2 MSTORE DUP12 DUP2 ADD DUP3 SWAP1 MSTORE DUP3 DUP2 DUP9 DUP2 DUP10 DUP9 GAS CALL SWAP1 DUP2 ISZERO PUSH2 0x2E53 JUMPI DUP7 SWAP2 PUSH2 0x2E36 JUMPI JUMPDEST POP DUP5 DUP3 ADD SWAP1 DUP3 DUP3 GT PUSH2 0x2E24 JUMPI SWAP1 PUSH2 0x2E19 PUSH2 0x2E12 DUP12 PUSH2 0x2E1F SWAP6 SWAP5 PUSH2 0x2DF3 DUP6 DUP4 PUSH2 0x2BDB JUMP JUMPDEST PUSH1 0x1 PUSH1 0x1 PUSH1 0xA0 SHL SUB DUP1 SWAP3 AND SWAP1 MSTORE PUSH2 0x2E0B DUP6 ADDRESS SWAP4 PUSH2 0x2BDB JUMP JUMPDEST MLOAD AND PUSH2 0x33F9 JUMP JUMPDEST SWAP2 DUP13 PUSH2 0x2BDB JUMP JUMPDEST MSTORE PUSH2 0x2C05 JUMP JUMPDEST PUSH2 0x2D93 JUMP JUMPDEST PUSH4 0x4E487B71 PUSH1 0xE0 SHL DUP8 MSTORE PUSH1 0x11 DUP14 MSTORE DUP8 DUP8 REVERT JUMPDEST PUSH2 0x2E4D SWAP2 POP DUP4 RETURNDATASIZE DUP6 GT PUSH2 0x233C JUMPI PUSH2 0x232E DUP2 DUP4 PUSH2 0x222E JUMP JUMPDEST CODESIZE PUSH2 0x2DD0 JUMP JUMPDEST DUP9 MLOAD RETURNDATASIZE DUP9 DUP3 RETURNDATACOPY RETURNDATASIZE SWAP1 REVERT JUMPDEST PUSH4 0x4E487B71 PUSH1 0xE0 SHL DUP4 MSTORE PUSH1 0x11 DUP7 MSTORE DUP3 REVERT JUMPDEST DUP9 EXTCODESIZE ISZERO PUSH2 0x2FD JUMPI DUP5 MLOAD SWAP1 PUSH4 0x140E25AD PUSH1 0xE3 SHL DUP3 MSTORE DUP7 DUP3 ADD MSTORE DUP3 DUP2 DUP6 DUP2 DUP4 DUP14 GAS CALL DUP1 ISZERO PUSH2 0x2EB6 JUMPI SWAP1 DUP4 SWAP2 PUSH2 0x2EA2 JUMPI JUMPDEST POP PUSH2 0x2D26 JUMP JUMPDEST PUSH2 0x2EAB SWAP1 PUSH2 0x21E8 JUMP JUMPDEST PUSH2 0x330 JUMPI DUP2 CODESIZE PUSH2 0x2E9C JUMP JUMPDEST DUP6 MLOAD RETURNDATASIZE DUP6 DUP3 RETURNDATACOPY RETURNDATASIZE SWAP1 REVERT JUMPDEST SWAP1 POP RETURNDATASIZE DUP1 DUP4 DUP4 RETURNDATACOPY PUSH2 0x2ED1 DUP2 DUP4 PUSH2 0x222E JUMP JUMPDEST DUP2 ADD SWAP1 DUP8 DUP2 DUP4 SUB SLT PUSH2 0x2FD JUMPI DUP1 MLOAD SWAP1 PUSH8 0xFFFFFFFFFFFFFFFF DUP3 GT PUSH2 0xF2E JUMPI ADD SWAP1 DUP1 PUSH1 0x1F DUP4 ADD SLT ISZERO PUSH2 0x2FD JUMPI DUP2 MLOAD PUSH2 0x2F07 DUP2 PUSH2 0x2BC3 JUMP JUMPDEST SWAP3 PUSH2 0x2F14 DUP8 MLOAD SWAP5 DUP6 PUSH2 0x222E JUMP JUMPDEST DUP2 DUP5 MSTORE DUP10 DUP1 DUP6 ADD SWAP3 PUSH1 0x5 SHL DUP3 ADD ADD SWAP3 DUP4 GT PUSH2 0xF13 JUMPI DUP10 DUP1 SWAP2 ADD SWAP2 JUMPDEST DUP4 DUP4 LT PUSH2 0x2F40 JUMPI POP POP POP POP CODESIZE PUSH2 0x2CE4 JUMP JUMPDEST DUP3 MLOAD DUP2 MSTORE SWAP2 DUP2 ADD SWAP2 DUP11 SWAP2 ADD PUSH2 0x2F2F JUMP JUMPDEST DUP5 MLOAD RETURNDATASIZE DUP5 DUP3 RETURNDATACOPY RETURNDATASIZE SWAP1 REVERT JUMPDEST PUSH2 0x2F66 SWAP1 SWAP7 SWAP2 SWAP7 PUSH2 0x21E8 JUMP JUMPDEST SWAP5 CODESIZE PUSH2 0x2CAA JUMP JUMPDEST DUP4 MLOAD RETURNDATASIZE DUP10 DUP3 RETURNDATACOPY RETURNDATASIZE SWAP1 REVERT JUMPDEST PUSH4 0x4E487B71 PUSH1 0xE0 SHL DUP7 MSTORE PUSH1 0x32 PUSH1 0x4 MSTORE PUSH1 0x24 DUP7 REVERT JUMPDEST PUSH1 0x40 MLOAD PUSH4 0x3E14691 PUSH1 0xE6 SHL DUP2 MSTORE PUSH1 0x1 PUSH1 0x1 PUSH1 0xA0 SHL SUB SWAP1 PUSH1 0x20 DUP2 PUSH1 0x4 DUP2 PUSH32 0x0 DUP7 AND GAS STATICCALL SWAP1 DUP2 ISZERO PUSH2 0x2343 JUMPI PUSH1 0x0 SWAP2 PUSH2 0x2FF7 JUMPI JUMPDEST POP AND CALLER SUB PUSH2 0x2FE5 JUMPI JUMP JUMPDEST PUSH1 0x40 MLOAD PUSH4 0x31D63AD1 PUSH1 0xE1 SHL DUP2 MSTORE PUSH1 0x4 SWAP1 REVERT JUMPDEST PUSH2 0x300F SWAP2 POP PUSH1 0x20 RETURNDATASIZE DUP2 GT PUSH2 0x233C JUMPI PUSH2 0x232E DUP2 DUP4 PUSH2 0x222E JUMP JUMPDEST CODESIZE PUSH2 0x2FDB JUMP JUMPDEST PUSH32 0x3145C2B643834867F2C0A8CAC8A48218307687911615C0ED01412A09DD163B66 PUSH1 0x20 PUSH2 0x3048 PUSH2 0x3043 PUSH2 0x309F JUMP JUMPDEST PUSH2 0x3387 JUMP JUMPDEST PUSH1 0x0 SLOAD PUSH32 0xFFFFFFFFFFFFFFFFFFFFFF0000000000000000000000000000000000000000FF PUSH21 0xFFFFFFFFFFFFFFFFFFFFFFFFFFFFFFFFFFFFFFFF00 DUP4 PUSH1 0x8 SHL AND SWAP2 AND OR PUSH1 0x0 SSTORE PUSH1 0x1 PUSH1 0x1 PUSH1 0xA0 SHL SUB PUSH1 0x40 MLOAD SWAP2 AND DUP2 MSTORE LOG1 JUMP JUMPDEST PUSH1 0x40 MLOAD PUSH4 0x3AF9E669 PUSH1 0xE0 SHL DUP2 MSTORE ADDRESS PUSH1 0x4 DUP3 ADD MSTORE PUSH1 0x20 DUP2 PUSH1 0x24 DUP2 PUSH1 0x0 PUSH20 0xEC8FEA79026FFED168CCF5C627C7F486D77B765F GAS CALL SWAP1 DUP2 ISZERO PUSH2 0x2343 JUMPI PUSH1 0x0 SWAP2 PUSH2 0x30E3 JUMPI POP SWAP1 JUMP JUMPDEST SWAP1 PUSH1 0x20 DUP3 RETURNDATASIZE DUP3 GT PUSH2 0x3109 JUMPI JUMPDEST DUP2 PUSH2 0x30FC PUSH1 0x20 SWAP4 DUP4 PUSH2 0x222E JUMP JUMPDEST DUP2 ADD SUB SLT PUSH2 0x961 JUMPI POP MLOAD SWAP1 JUMP JUMPDEST RETURNDATASIZE SWAP2 POP PUSH2 0x30EF JUMP JUMPDEST PUSH1 0xA0 PUSH1 0x40 MLOAD PUSH2 0x311E PUSH2 0x2375 JUMP JUMPDEST PUSH1 0x20 DUP2 MLOAD SWAP2 ADD KECCAK256 PUSH32 0x8B73C3C69BB8FE3D512ECC4CF759CC79239F7B179B0FFACAA9A75D522B39400F DUP3 MSTORE PUSH1 0x20 DUP3 ADD MSTORE PUSH32 0xC89EFDAA54C0F20C7ADF612882DF0950F5A951637E0307CDCB4C672F298B8BC6 PUSH1 0x40 DUP3 ADD MSTORE CHAINID PUSH1 0x60 DUP3 ADD MSTORE ADDRESS PUSH1 0x80 DUP3 ADD MSTORE KECCAK256 SWAP1 JUMP JUMPDEST PUSH9 0x5345CDF77EB68F44C DUP1 SLOAD SWAP1 DUP4 DUP3 ADD SWAP2 DUP3 LT PUSH2 0x31E3 JUMPI SSTORE PUSH4 0x87A211A2 PUSH1 0xC MSTORE PUSH1 0x0 MSTORE PUSH1 0x20 PUSH1 0xC KECCAK256 DUP2 DUP2 SLOAD ADD SWAP1 SSTORE PUSH1 0x20 MSTORE PUSH1 0xC MLOAD PUSH1 0x60 SHR PUSH1 0x0 PUSH32 0xDDF252AD1BE2C89B69C2B068FC378DAA952BA7F163C4A11628F55A4DF523B3EF PUSH1 0x20 DUP1 LOG3 JUMP JUMPDEST PUSH4 0xE5CFE957 PUSH1 0x0 MSTORE PUSH1 0x4 PUSH1 0x1C REVERT JUMPDEST SWAP1 PUSH1 0x20 MSTORE PUSH4 0x7F5E9F20 PUSH1 0xC MSTORE PUSH1 0x0 MSTORE PUSH1 0x34 PUSH1 0xC KECCAK256 SWAP1 DUP2 SLOAD PUSH1 0x0 NOT DUP2 SUB PUSH2 0x3216 JUMPI POP POP POP JUMP JUMPDEST DUP1 DUP3 GT PUSH2 0x3222 JUMPI SUB SWAP1 SSTORE JUMP JUMPDEST PUSH4 0x13BE252B PUSH1 0x0 MSTORE PUSH1 0x4 PUSH1 0x1C REVERT JUMPDEST SWAP1 DUP1 PUSH1 0x0 NOT DIV DUP3 GT DUP2 MUL PUSH2 0x324D JUMPI PUSH8 0xDE0B6B3A7640000 SWAP2 MUL DIV SWAP1 JUMP JUMPDEST PUSH4 0xBAC65E5B PUSH1 0x0 MSTORE PUSH1 0x4 PUSH1 0x1C REVERT JUMPDEST PUSH8 0xDE0B6B3A7640000 SWAP1 PUSH25 0x12725DD1D243ABA0E75FE645CC4873F9E65AFE688C928E1F21 DUP2 GT DUP3 MUL ISZERO DUP4 MUL ISZERO PUSH2 0x3290 JUMPI MUL DIV SWAP1 JUMP JUMPDEST PUSH4 0x7C5F487D PUSH1 0x0 MSTORE PUSH1 0x4 PUSH1 0x1C REVERT JUMPDEST SWAP2 PUSH1 0x0 SWAP3 DUP3 DUP2 MUL SWAP3 PUSH1 0x0 NOT DUP2 DUP4 MULMOD SWAP2 DUP5 DUP4 LT DUP6 ADD DUP1 DUP5 SUB SWAP4 EQ PUSH2 0x3320 JUMPI DUP3 DUP5 GT ISZERO PUSH2 0x3313 JUMPI SWAP1 DUP4 SWAP2 MULMOD SWAP1 PUSH1 0x1 DUP4 DUP7 SUB DUP5 AND DUP1 DUP1 DUP1 SWAP7 DIV PUSH1 0x2 DUP1 DUP3 PUSH1 0x3 MUL XOR DUP1 DUP4 MUL DUP3 SUB MUL DUP1 DUP4 MUL DUP3 SUB MUL DUP1 DUP4 MUL DUP3 SUB MUL DUP1 DUP4 MUL DUP3 SUB MUL DUP1 DUP4 MUL DUP3 SUB MUL DUP1 SWAP3 MUL SWAP1 SUB MUL SWAP8 SUB DIV ADD SWAP1 DUP5 DUP4 GT SWAP1 SUB MUL SWAP3 SUB DIV OR MUL SWAP1 JUMP JUMPDEST PUSH4 0xAE47F702 DUP7 MSTORE PUSH1 0x4 PUSH1 0x1C REVERT JUMPDEST POP POP POP SWAP2 DUP3 ISZERO PUSH2 0x332F JUMPI POP DIV SWAP1 JUMP JUMPDEST PUSH4 0xAE47F702 SWAP1 MSTORE PUSH1 0x4 PUSH1 0x1C REVERT JUMPDEST PUSH13 0x1000000000000000000000000 DUP2 LT ISZERO PUSH2 0x2877 JUMPI PUSH12 0xFFFFFFFFFFFFFFFFFFFFFFFF AND SWAP1 JUMP JUMPDEST PUSH17 0x100000000000000000000000000000000 DUP2 LT ISZERO PUSH2 0x2877 JUMPI PUSH1 0x1 PUSH1 0x1 PUSH1 0x80 SHL SUB AND SWAP1 JUMP JUMPDEST PUSH21 0x10000000000000000000000000000000000000000 DUP2 LT ISZERO PUSH2 0x2877 JUMPI PUSH1 0x1 PUSH1 0x1 PUSH1 0xA0 SHL SUB AND SWAP1 JUMP JUMPDEST PUSH1 0x10 SWAP3 PUSH1 0x20 SWAP3 PUSH1 0x14 MSTORE PUSH1 0x34 MSTORE PUSH1 0x44 PUSH1 0x0 SWAP4 DUP5 DUP1 SWAP4 PUSH16 0xA9059CBB000000000000000000000000 DUP3 MSTORE GAS CALL RETURNDATASIZE ISZERO PUSH1 0x1 DUP4 MLOAD EQ OR AND ISZERO PUSH2 0x33EC JUMPI PUSH1 0x34 MSTORE JUMP JUMPDEST PUSH4 0x90B8EC18 SWAP1 MSTORE PUSH1 0x4 PUSH1 0x1C REVERT JUMPDEST PUSH1 0x24 PUSH1 0x10 PUSH1 0x20 SWAP4 SWAP3 DUP5 SWAP4 PUSH1 0x14 MSTORE PUSH16 0x70A08231000000000000000000000000 PUSH1 0x0 MSTORE GAS STATICCALL PUSH1 0x1F RETURNDATASIZE GT AND PUSH1 0x20 MLOAD MUL SWAP1 JUMP INVALID LOG2 PUSH5 0x6970667358 0x22 SLT KECCAK256 PUSH10 0x7740A96364DE7EC5F23A 0xDA 0xE0 CHAINID 0xBE PC PUSH10 0x2B794A4D1E2D5EFFD364 SUB 0x4B 0xC4 PUSH20 0x7964736F6C63430008110033A264697066735822 SLT KECCAK256 PUSH25 0x363A5F4A2DF12CAD2B096D31478D536C554D43CFCA7C5767AA GAS 0xE6 0xCB 0xBC 0x2E SWAP14 PUSH5 0x736F6C6343 STOP ADDMOD GT STOP CALLER PUSH2 0x100 DUP1 PUSH1 0x40 MSTORE CALLVALUE PUSH3 0x1F3 JUMPI PUSH1 0x0 DUP1 SLOAD PUSH1 0xFF NOT AND PUSH1 0x1 OR DUP2 SSTORE PUSH4 0x5A412E53 PUSH1 0xE0 SHL DUP1 DUP4 MSTORE PUSH1 0xA0 SWAP3 DUP4 DUP2 PUSH1 0x4 DUP2 DUP7 CALLER GAS CALL DUP1 ISZERO PUSH3 0x1E8 JUMPI DUP4 SWAP2 DUP5 SWAP2 DUP6 SWAP2 DUP7 SWAP2 PUSH3 0x1BF JUMPI JUMPDEST POP PUSH1 0xE0 MSTORE DUP6 MSTORE PUSH1 0xC0 MSTORE PUSH1 0x80 MSTORE PUSH8 0xBCBCE7F1B150000 PUSH1 0x6 SSTORE PUSH1 0x2 PUSH1 0x7 SSTORE PUSH8 0x214E8348C4F0000 PUSH1 0x8 SSTORE PUSH8 0xDE0B6B3A7640000 PUSH1 0x9 SSTORE PUSH1 0x40 MLOAD SWAP1 DUP2 MSTORE DUP3 DUP2 PUSH1 0x4 DUP2 DUP6 CALLER GAS CALL SWAP2 DUP3 ISZERO PUSH3 0x1B3 JUMPI SWAP2 PUSH3 0x17A JUMPI JUMPDEST POP PUSH1 0x1 DUP1 SLOAD PUSH1 0x1 PUSH1 0x1 PUSH1 0xA0 SHL SUB NOT AND PUSH1 0x1 PUSH1 0x1 PUSH1 0xA0 SHL SUB SWAP3 SWAP1 SWAP3 AND SWAP2 SWAP1 SWAP2 OR SWAP1 SSTORE PUSH1 0xB DUP1 SLOAD PUSH1 0x1 PUSH1 0x1 PUSH1 0x60 SHL SUB PUSH6 0xFFFFFFFFFFFF PUSH1 0xB0 SHL ADD AND TIMESTAMP PUSH1 0xE0 SHL PUSH1 0x1 PUSH1 0x1 PUSH1 0xE0 SHL SUB NOT AND OR PUSH6 0x3782DACE9D9 PUSH1 0x72 SHL OR SWAP1 SSTORE PUSH1 0x40 MLOAD PUSH2 0x345E SWAP2 DUP3 PUSH3 0x2A1 DUP4 CODECOPY PUSH1 0x80 MLOAD DUP3 DUP2 DUP2 PUSH2 0x354 ADD MSTORE DUP2 DUP2 PUSH2 0x22CD ADD MSTORE PUSH2 0x2FA9 ADD MSTORE MLOAD DUP2 PUSH2 0x405 ADD MSTORE PUSH1 0xC0 MLOAD DUP2 DUP2 DUP2 PUSH2 0x649 ADD MSTORE DUP2 DUP2 PUSH2 0x786 ADD MSTORE DUP2 DUP2 PUSH2 0xA48 ADD MSTORE DUP2 DUP2 PUSH2 0xC97 ADD MSTORE DUP2 DUP2 PUSH2 0x108B ADD MSTORE DUP2 DUP2 PUSH2 0x13B4 ADD MSTORE DUP2 DUP2 PUSH2 0x14DE ADD MSTORE DUP2 DUP2 PUSH2 0x178D ADD MSTORE DUP2 DUP2 PUSH2 0x196E ADD MSTORE DUP2 DUP2 PUSH2 0x1C5E ADD MSTORE PUSH2 0x1DB7 ADD MSTORE PUSH1 0xE0 MLOAD DUP2 DUP2 DUP2 PUSH2 0x68A ADD MSTORE PUSH2 0x1148 ADD MSTORE RETURN JUMPDEST PUSH3 0x19F SWAP2 POP DUP3 RETURNDATASIZE DUP5 GT PUSH3 0x1AB JUMPI JUMPDEST PUSH3 0x196 DUP2 DUP4 PUSH3 0x1F8 JUMP JUMPDEST DUP2 ADD SWAP1 PUSH3 0x247 JUMP JUMPDEST POP POP SWAP2 POP POP CODESIZE PUSH3 0x98 JUMP JUMPDEST POP RETURNDATASIZE PUSH3 0x18A JUMP JUMPDEST PUSH1 0x40 MLOAD SWAP1 RETURNDATASIZE SWAP1 DUP3 RETURNDATACOPY RETURNDATASIZE SWAP1 REVERT JUMPDEST SWAP3 POP POP POP PUSH3 0x1DE SWAP2 POP DUP5 RETURNDATASIZE DUP7 GT PUSH3 0x1AB JUMPI PUSH3 0x196 DUP2 DUP4 PUSH3 0x1F8 JUMP JUMPDEST SWAP2 POP SWAP1 CODESIZE PUSH3 0x45 JUMP JUMPDEST PUSH1 0x40 MLOAD RETURNDATASIZE DUP6 DUP3 RETURNDATACOPY RETURNDATASIZE SWAP1 REVERT JUMPDEST PUSH1 0x0 DUP1 REVERT JUMPDEST PUSH1 0x1F SWAP1 SWAP2 ADD PUSH1 0x1F NOT AND DUP2 ADD SWAP1 PUSH1 0x1 PUSH1 0x1 PUSH1 0x40 SHL SUB DUP3 GT SWAP1 DUP3 LT OR PUSH3 0x21C JUMPI PUSH1 0x40 MSTORE JUMP JUMPDEST PUSH4 0x4E487B71 PUSH1 0xE0 SHL PUSH1 0x0 MSTORE PUSH1 0x41 PUSH1 0x4 MSTORE PUSH1 0x24 PUSH1 0x0 REVERT JUMPDEST MLOAD SWAP1 PUSH1 0x1 PUSH1 0x1 PUSH1 0xA0 SHL SUB DUP3 AND DUP3 SUB PUSH3 0x1F3 JUMPI JUMP JUMPDEST SWAP2 SWAP1 DUP3 PUSH1 0xA0 SWAP2 SUB SLT PUSH3 0x1F3 JUMPI DUP2 MLOAD PUSH1 0x1 PUSH1 0x1 PUSH1 0xA0 SHL SUB SWAP1 DUP2 DUP2 AND DUP2 SUB PUSH3 0x1F3 JUMPI SWAP3 PUSH3 0x278 PUSH1 0x20 DUP3 ADD PUSH3 0x232 JUMP JUMPDEST SWAP3 PUSH3 0x287 PUSH1 0x40 DUP4 ADD PUSH3 0x232 JUMP JUMPDEST SWAP3 PUSH1 0x60 DUP4 ADD MLOAD SWAP1 DUP2 AND DUP2 SUB PUSH3 0x1F3 JUMPI PUSH1 0x80 SWAP1 SWAP3 ADD MLOAD SWAP1 JUMP INVALID PUSH1 0x80 PUSH1 0x40 DUP2 DUP2 MSTORE PUSH1 0x4 DUP1 CALLDATASIZE LT ISZERO PUSH2 0x15 JUMPI PUSH1 0x0 DUP1 REVERT JUMPDEST PUSH1 0x0 SWAP3 DUP4 CALLDATALOAD PUSH1 0xE0 SHR SWAP1 DUP2 PUSH4 0x572B0CC EQ PUSH2 0x1F7E JUMPI POP DUP1 PUSH4 0x6FDDE03 EQ PUSH2 0x1F55 JUMPI DUP1 PUSH4 0x95EA7B3 EQ PUSH2 0x1EEB JUMPI DUP1 PUSH4 0x15DE1DAA EQ PUSH2 0x1D56 JUMPI DUP1 PUSH4 0x18160DDD EQ PUSH2 0x1D2F JUMPI DUP1 PUSH4 0x182DF0F5 EQ PUSH2 0x1D10 JUMPI DUP1 PUSH4 0x1AEBF12F EQ PUSH2 0x1CF1 JUMPI DUP1 PUSH4 0x1BE19560 EQ PUSH2 0x1C16 JUMPI DUP1 PUSH4 0x1C446983 EQ PUSH2 0x1BB0 JUMPI DUP1 PUSH4 0x1E44B7FC EQ PUSH2 0x19B6 JUMPI DUP1 PUSH4 0x1E7DCC0D EQ PUSH2 0x171E JUMPI DUP1 PUSH4 0x23B872DD EQ PUSH2 0x1648 JUMPI DUP1 PUSH4 0x27CE3854 EQ PUSH2 0x1432 JUMPI DUP1 PUSH4 0x313CE567 EQ PUSH2 0x1387 JUMPI DUP1 PUSH4 0x3644E515 EQ PUSH2 0x136A JUMPI DUP1 PUSH4 0x39509351 EQ PUSH2 0x12E7 JUMPI DUP1 PUSH4 0x3BA0B9A9 EQ PUSH2 0x12C2 JUMPI DUP1 PUSH4 0x42BF78AF EQ PUSH2 0x123A JUMPI DUP1 PUSH4 0x4322B714 EQ PUSH2 0x121B JUMPI DUP1 PUSH4 0x46F608FF EQ PUSH2 0x11FE JUMPI DUP1 PUSH4 0x47BD3718 EQ PUSH2 0x11D1 JUMPI DUP1 PUSH4 0x4BDAEAC1 EQ PUSH2 0x11A9 JUMPI DUP1 PUSH4 0x5B322BBE EQ PUSH2 0x116B JUMPI DUP1 PUSH4 0x5F77F891 EQ PUSH2 0x1130 JUMPI DUP1 PUSH4 0x6AFDD850 EQ PUSH2 0x1106 JUMPI DUP1 PUSH4 0x6C321C8A EQ PUSH2 0x10AF JUMPI DUP1 PUSH4 0x6F307DC3 EQ PUSH2 0x106B JUMPI DUP1 PUSH4 0x70A08231 EQ PUSH2 0x1037 JUMPI DUP1 PUSH4 0x72CF84A7 EQ PUSH2 0x1018 JUMPI DUP1 PUSH4 0x7D6AF079 EQ PUSH2 0xFF2 JUMPI DUP1 PUSH4 0x7ECEBE00 EQ PUSH2 0xFBE JUMPI DUP1 PUSH4 0x81F5B6F4 EQ PUSH2 0xF32 JUMPI DUP1 PUSH4 0x8808E71C EQ PUSH2 0xBDA JUMPI DUP1 PUSH4 0x94E1373C EQ PUSH2 0xB92 JUMPI DUP1 PUSH4 0x95D89B41 EQ PUSH2 0xA23 JUMPI DUP1 PUSH4 0x9B510998 EQ PUSH2 0xA04 JUMPI DUP1 PUSH4 0xA457C2D7 EQ PUSH2 0x980 JUMPI DUP1 PUSH4 0xA6AFED95 EQ PUSH2 0x964 JUMPI DUP1 PUSH4 0xA9059CBB EQ PUSH2 0x8D6 JUMPI DUP1 PUSH4 0xAA5AF0FD EQ PUSH2 0x8A8 JUMPI DUP1 PUSH4 0xAD168C9D EQ PUSH2 0x880 JUMPI DUP1 PUSH4 0xAD2961A3 EQ PUSH2 0x85C JUMPI DUP1 PUSH4 0xAD7A672F EQ PUSH2 0x833 JUMPI DUP1 PUSH4 0xB5F3C95B EQ PUSH2 0x814 JUMPI DUP1 PUSH4 0xBA087652 EQ PUSH2 0x6B7 JUMPI DUP1 PUSH4 0xBCBC3320 EQ PUSH2 0x611 JUMPI DUP1 PUSH4 0xC0789DCB EQ PUSH2 0x5EF JUMPI DUP1 PUSH4 0xC914B437 EQ PUSH2 0x5C5 JUMPI DUP1 PUSH4 0xD505ACCF EQ PUSH2 0x470 JUMPI DUP1 PUSH4 0xD8DFEB45 EQ PUSH2 0x448 JUMPI DUP1 PUSH4 0xD90E0264 EQ PUSH2 0x429 JUMPI DUP1 PUSH4 0xD935BD92 EQ PUSH2 0x3E5 JUMPI DUP1 PUSH4 0xDCC3E06E EQ PUSH2 0x3B6 JUMPI DUP1 PUSH4 0xDD62ED3E EQ PUSH2 0x378 JUMPI DUP1 PUSH4 0xE8A24E1D EQ PUSH2 0x334 JUMPI DUP1 PUSH4 0xF7C618C1 EQ PUSH2 0x301 JUMPI PUSH4 0xFFF6CAE9 EQ PUSH2 0x296 JUMPI PUSH1 0x0 DUP1 REVERT JUMPDEST CALLVALUE PUSH2 0x2FD JUMPI DUP3 PUSH1 0x3 NOT CALLDATASIZE ADD SLT PUSH2 0x2FD JUMPI DUP3 SLOAD SWAP2 PUSH1 0xFF DUP4 AND ISZERO PUSH2 0x2F0 JUMPI DUP4 PUSH1 0x1 DUP5 PUSH1 0xFF NOT DUP1 SWAP2 AND DUP4 SSTORE PUSH2 0x2C6 PUSH2 0x3015 JUMP JUMPDEST PUSH2 0x2CE PUSH2 0x2712 JUMP JUMPDEST PUSH2 0x2D6 PUSH2 0x2712 JUMP JUMPDEST PUSH2 0x2DE PUSH2 0x2185 JUMP JUMPDEST POP PUSH2 0x2E7 PUSH2 0x3015 JUMP JUMPDEST DUP3 SLOAD AND OR DUP2 SSTORE DUP1 RETURN JUMPDEST MLOAD PUSH4 0x6FDA65D PUSH1 0xE3 SHL DUP2 MSTORE REVERT JUMPDEST DUP3 DUP1 REVERT JUMPDEST POP POP CALLVALUE PUSH2 0x330 JUMPI DUP2 PUSH1 0x3 NOT CALLDATASIZE ADD SLT PUSH2 0x330 JUMPI PUSH1 0x20 SWAP1 MLOAD PUSH20 0x1DB2466D9F5E10D7090E7152B68D62703A2245F0 DUP2 MSTORE RETURN JUMPDEST POP DUP1 REVERT JUMPDEST POP POP CALLVALUE PUSH2 0x330 JUMPI DUP2 PUSH1 0x3 NOT CALLDATASIZE ADD SLT PUSH2 0x330 JUMPI PUSH1 0x20 SWAP1 MLOAD PUSH1 0x1 PUSH1 0x1 PUSH1 0xA0 SHL SUB PUSH32 0x0 AND DUP2 MSTORE RETURN JUMPDEST POP POP CALLVALUE PUSH2 0x330 JUMPI DUP1 PUSH1 0x3 NOT CALLDATASIZE ADD SLT PUSH2 0x330 JUMPI PUSH1 0x20 SWAP2 PUSH2 0x395 PUSH2 0x209B JUMP JUMPDEST SWAP1 PUSH2 0x39E PUSH2 0x20B1 JUMP JUMPDEST DUP5 MSTORE PUSH4 0x7F5E9F20 PUSH1 0xC MSTORE MSTORE PUSH1 0x34 PUSH1 0xC KECCAK256 SLOAD SWAP1 MLOAD SWAP1 DUP2 MSTORE RETURN JUMPDEST POP POP CALLVALUE PUSH2 0x330 JUMPI DUP2 PUSH1 0x3 NOT CALLDATASIZE ADD SLT PUSH2 0x330 JUMPI PUSH1 0x20 SWAP1 MLOAD PUSH20 0x60CF091CD3F50420D50FD7F707414D0DF4751C58 DUP2 MSTORE RETURN JUMPDEST POP POP CALLVALUE PUSH2 0x330 JUMPI DUP2 PUSH1 0x3 NOT CALLDATASIZE ADD SLT PUSH2 0x330 JUMPI PUSH1 0x20 SWAP1 MLOAD PUSH1 0x1 PUSH1 0x1 PUSH1 0xA0 SHL SUB PUSH32 0x0 AND DUP2 MSTORE RETURN JUMPDEST POP POP CALLVALUE PUSH2 0x330 JUMPI DUP2 PUSH1 0x3 NOT CALLDATASIZE ADD SLT PUSH2 0x330 JUMPI PUSH1 0x20 SWAP1 PUSH1 0x3 SLOAD SWAP1 MLOAD SWAP1 DUP2 MSTORE RETURN JUMPDEST POP POP CALLVALUE PUSH2 0x330 JUMPI DUP2 PUSH1 0x3 NOT CALLDATASIZE ADD SLT PUSH2 0x330 JUMPI PUSH1 0x20 SWAP1 PUSH1 0x1 PUSH1 0x1 PUSH1 0xA0 SHL SUB PUSH1 0x1 SLOAD AND SWAP1 MLOAD SWAP1 DUP2 MSTORE RETURN JUMPDEST POP SWAP1 CALLVALUE PUSH2 0x2FD JUMPI PUSH1 0xE0 CALLDATASIZE PUSH1 0x3 NOT ADD SLT PUSH2 0x2FD JUMPI PUSH2 0x48B PUSH2 0x209B JUMP JUMPDEST SWAP2 PUSH2 0x494 PUSH2 0x20B1 JUMP JUMPDEST PUSH1 0x84 CALLDATALOAD SWAP2 PUSH1 0x64 CALLDATALOAD PUSH1 0x44 CALLDATALOAD PUSH1 0xFF DUP6 AND DUP6 SUB PUSH2 0x5C1 JUMPI PUSH2 0x4B0 PUSH2 0x3111 JUMP JUMPDEST SWAP3 DUP7 MLOAD SWAP8 DUP4 TIMESTAMP GT PUSH2 0x5B5 JUMPI PUSH1 0x1 PUSH1 0x1 PUSH1 0xA0 SHL SUB DUP1 SWAP2 AND SWAP6 AND SWAP6 PUSH4 0x38377508 PUSH1 0xC MSTORE DUP6 DUP11 MSTORE PUSH1 0x20 SWAP5 DUP6 PUSH1 0xC KECCAK256 SWAP5 DUP6 SLOAD SWAP6 PUSH1 0x1 DUP8 ADD SWAP1 SSTORE PUSH32 0x6E71EDAE12B1B97F4D1F60370FEF10105FA2FAAE0126114A169C64845D6126C9 DUP12 MSTORE DUP8 DUP8 DUP13 ADD MSTORE DUP9 DUP11 DUP13 ADD MSTORE PUSH1 0x60 DUP12 ADD SWAP6 DUP6 DUP8 MSTORE PUSH1 0x80 DUP13 ADD MSTORE PUSH1 0xA0 DUP12 ADD MSTORE PUSH2 0x1901 DUP12 MSTORE DUP6 MSTORE PUSH1 0xC0 DUP10 KECCAK256 DUP9 MSTORE PUSH1 0x42 PUSH1 0x1E KECCAK256 DUP11 MSTORE PUSH1 0xFF AND DUP5 MSTORE PUSH1 0xA4 CALLDATALOAD DUP8 MSTORE PUSH1 0xC4 CALLDATALOAD PUSH1 0x60 MSTORE DUP4 DUP1 PUSH1 0x80 DUP12 PUSH1 0x1 GAS STATICCALL POP DUP5 RETURNDATASIZE MLOAD SUB PUSH2 0x5AA JUMPI POP PUSH24 0x7F5E9F200000000000000000000000000000000000000000 DUP6 OR DUP7 MSTORE PUSH1 0x34 PUSH1 0x2C KECCAK256 SSTORE PUSH32 0x8C5BE1E5EBEC7D5BD14F71427D1E84F3DD0314C0F7B2291E5B200AC8C7C3B925 SWAP2 SWAP1 LOG3 MSTORE DUP1 PUSH1 0x60 MSTORE DUP1 RETURN JUMPDEST PUSH4 0xDDAFBAEF DUP10 MSTORE PUSH1 0x1C REVERT JUMPDEST POP PUSH4 0x1A15A3CC DUP10 MSTORE PUSH1 0x1C REVERT JUMPDEST DUP8 DUP1 REVERT JUMPDEST POP POP CALLVALUE PUSH2 0x330 JUMPI DUP2 PUSH1 0x3 NOT CALLDATASIZE ADD SLT PUSH2 0x330 JUMPI PUSH1 0x20 SWAP1 PUSH6 0xFFFFFFFFFFFF PUSH1 0xB SLOAD PUSH1 0xB0 SHR AND SWAP1 MLOAD SWAP1 DUP2 MSTORE RETURN JUMPDEST POP POP CALLVALUE PUSH2 0x330 JUMPI DUP2 PUSH1 0x3 NOT CALLDATASIZE ADD SLT PUSH2 0x330 JUMPI PUSH1 0x20 SWAP1 PUSH1 0xB SLOAD PUSH1 0xE0 SHR SWAP1 MLOAD SWAP1 DUP2 MSTORE RETURN JUMPDEST POP POP CALLVALUE PUSH2 0x330 JUMPI DUP2 PUSH1 0x3 NOT CALLDATASIZE ADD SLT PUSH2 0x330 JUMPI PUSH1 0x60 PUSH32 0x98CCEBAE89F16F152C93C6A0CDC0D99913B9E62A9FC612471C21FFC299C389FD SWAP2 PUSH32 0x0 SWAP1 PUSH2 0x672 DUP3 PUSH2 0x2A97 JUMP JUMPDEST PUSH2 0x67A PUSH2 0x2B28 JUMP JUMPDEST PUSH1 0x1 PUSH1 0x1 PUSH1 0xA0 SHL SUB DUP2 MLOAD SWAP3 AND DUP3 MSTORE PUSH32 0x0 PUSH1 0x20 DUP4 ADD MSTORE CALLER SWAP1 DUP3 ADD MSTORE LOG1 DUP1 RETURN JUMPDEST POP SWAP2 SWAP1 CALLVALUE PUSH2 0x330 JUMPI PUSH1 0x60 CALLDATASIZE PUSH1 0x3 NOT ADD SLT PUSH2 0x330 JUMPI DUP3 CALLDATALOAD SWAP2 PUSH2 0x6D6 PUSH2 0x20B1 JUMP JUMPDEST SWAP3 PUSH2 0x6DF PUSH2 0x20C7 JUMP JUMPDEST SWAP4 PUSH2 0x6E8 PUSH2 0x3015 JUMP JUMPDEST PUSH1 0x1 PUSH1 0x1 PUSH1 0xA0 SHL SUB SWAP1 DUP2 DUP7 AND SWAP4 DUP5 CALLER SUB PUSH2 0x804 JUMPI JUMPDEST PUSH2 0x705 PUSH2 0x2712 JUMP JUMPDEST PUSH2 0x716 PUSH2 0x710 PUSH2 0x2185 JUMP JUMPDEST DUP6 PUSH2 0x3230 JUMP JUMPDEST SWAP7 DUP8 ISZERO PUSH2 0x7F4 JUMPI PUSH2 0x726 DUP9 PUSH2 0x2981 JUMP JUMPDEST PUSH4 0x87A211A2 PUSH1 0xC MSTORE DUP2 MSTORE PUSH1 0x20 PUSH1 0xC KECCAK256 DUP1 SLOAD SWAP9 DUP10 DUP7 GT PUSH2 0x7E9 JUMPI POP DUP5 PUSH1 0x20 SWAP10 SUB SWAP1 SSTORE PUSH9 0x5345CDF77EB68F44C DUP5 DUP2 SLOAD SUB SWAP1 SSTORE DUP4 DUP2 MSTORE DUP5 PUSH32 0xDDF252AD1BE2C89B69C2B068FC378DAA952BA7F163C4A11628F55A4DF523B3EF DUP10 DUP4 LOG3 PUSH2 0x7AA DUP7 DUP3 PUSH32 0x0 PUSH2 0x33B0 JUMP JUMPDEST DUP5 MLOAD SWAP3 DUP7 DUP5 MSTORE DUP8 DUP5 ADD MSTORE AND SWAP1 PUSH32 0xFBDE797D201C681B91056529119E0B02407C7BB96A4A2C75C01FC9667232C8DB DUP5 CALLER SWAP3 LOG4 PUSH2 0x7E3 PUSH2 0x3015 JUMP JUMPDEST MLOAD SWAP1 DUP2 MSTORE RETURN JUMPDEST PUSH4 0xF4D678B8 DUP4 MSTORE PUSH1 0x1C REVERT JUMPDEST DUP7 MLOAD PUSH4 0xE3E8D297 PUSH1 0xE0 SHL DUP2 MSTORE DUP10 SWAP1 REVERT JUMPDEST PUSH2 0x80F DUP5 CALLER DUP10 PUSH2 0x31F1 JUMP JUMPDEST PUSH2 0x6FD JUMP JUMPDEST POP POP CALLVALUE PUSH2 0x330 JUMPI DUP2 PUSH1 0x3 NOT CALLDATASIZE ADD SLT PUSH2 0x330 JUMPI PUSH1 0x20 SWAP1 PUSH1 0xD SLOAD SWAP1 MLOAD SWAP1 DUP2 MSTORE RETURN JUMPDEST POP POP CALLVALUE PUSH2 0x330 JUMPI DUP2 PUSH1 0x3 NOT CALLDATASIZE ADD SLT PUSH2 0x330 JUMPI PUSH1 0x1 PUSH1 0x1 PUSH1 0xA0 SHL SUB PUSH1 0x20 SWAP3 SLOAD PUSH1 0x8 SHR AND SWAP1 MLOAD SWAP1 DUP2 MSTORE RETURN JUMPDEST POP POP CALLVALUE PUSH2 0x330 JUMPI DUP2 PUSH1 0x3 NOT CALLDATASIZE ADD SLT PUSH2 0x330 JUMPI PUSH1 0x20 SWAP1 PUSH2 0x879 PUSH2 0x23FB JUMP JUMPDEST SWAP1 MLOAD SWAP1 DUP2 MSTORE RETURN JUMPDEST POP POP CALLVALUE PUSH2 0x330 JUMPI DUP2 PUSH1 0x3 NOT CALLDATASIZE ADD SLT PUSH2 0x330 JUMPI PUSH1 0x20 SWAP1 PUSH1 0x1 PUSH1 0x1 PUSH1 0xA0 SHL SUB PUSH1 0x2 SLOAD AND SWAP1 MLOAD SWAP1 DUP2 MSTORE RETURN JUMPDEST POP POP CALLVALUE PUSH2 0x330 JUMPI DUP2 PUSH1 0x3 NOT CALLDATASIZE ADD SLT PUSH2 0x330 JUMPI PUSH1 0x20 SWAP1 PUSH10 0xFFFFFFFFFFFFFFFFFFFF PUSH1 0xB SLOAD PUSH1 0x60 SHR AND SWAP1 MLOAD SWAP1 DUP2 MSTORE RETURN JUMPDEST POP SWAP2 CALLVALUE PUSH2 0x961 JUMPI DUP2 PUSH1 0x3 NOT CALLDATASIZE ADD SLT PUSH2 0x961 JUMPI PUSH2 0x8F0 PUSH2 0x209B JUMP JUMPDEST PUSH1 0x24 CALLDATALOAD SWAP2 PUSH4 0x87A211A2 PUSH1 0xC MSTORE CALLER DUP2 MSTORE PUSH1 0x20 SWAP5 DUP6 PUSH1 0xC KECCAK256 SWAP1 DUP2 SLOAD SWAP1 DUP2 DUP7 GT PUSH2 0x956 JUMPI POP DUP5 SWAP1 SUB SWAP1 SSTORE MSTORE DUP3 PUSH1 0xC KECCAK256 DUP2 DUP2 SLOAD ADD SWAP1 SSTORE DUP3 MSTORE PUSH1 0xC MLOAD PUSH1 0x60 SHR CALLER PUSH32 0xDDF252AD1BE2C89B69C2B068FC378DAA952BA7F163C4A11628F55A4DF523B3EF DUP5 DUP1 LOG3 MLOAD PUSH1 0x1 DUP2 MSTORE RETURN JUMPDEST PUSH4 0xF4D678B8 DUP5 MSTORE PUSH1 0x1C REVERT JUMPDEST DUP1 REVERT JUMPDEST DUP4 CALLVALUE PUSH2 0x961 JUMPI DUP1 PUSH1 0x3 NOT CALLDATASIZE ADD SLT PUSH2 0x961 JUMPI PUSH2 0x97D PUSH2 0x2712 JUMP JUMPDEST DUP1 RETURN JUMPDEST POP SWAP2 CALLVALUE PUSH2 0x961 JUMPI DUP2 PUSH1 0x3 NOT CALLDATASIZE ADD SLT PUSH2 0x961 JUMPI PUSH2 0x99A PUSH2 0x209B JUMP JUMPDEST PUSH1 0x24 CALLDATALOAD SWAP1 PUSH1 0x20 MSTORE PUSH4 0x7F5E9F20 PUSH1 0xC MSTORE CALLER DUP3 MSTORE PUSH1 0x34 PUSH1 0xC KECCAK256 SWAP1 DUP2 SLOAD DUP2 DUP2 LT PUSH2 0x9F8 JUMPI PUSH1 0x20 SWAP6 POP SUB DUP1 SWAP2 SSTORE DUP2 MSTORE PUSH1 0x2C MLOAD PUSH1 0x60 SHR SWAP1 PUSH32 0x8C5BE1E5EBEC7D5BD14F71427D1E84F3DD0314C0F7B2291E5B200AC8C7C3B925 DUP5 CALLER SWAP3 LOG3 MLOAD PUSH1 0x1 DUP2 MSTORE RETURN JUMPDEST DUP6 PUSH4 0x8301AB38 DUP6 MSTORE PUSH1 0x1C REVERT JUMPDEST POP POP CALLVALUE PUSH2 0x330 JUMPI DUP2 PUSH1 0x3 NOT CALLDATASIZE ADD SLT PUSH2 0x330 JUMPI PUSH1 0x20 SWAP1 PUSH1 0x7 SLOAD SWAP1 MLOAD SWAP1 DUP2 MSTORE RETURN JUMPDEST POP SWAP1 CALLVALUE PUSH2 0x2FD JUMPI DUP3 PUSH1 0x3 NOT CALLDATASIZE ADD SLT PUSH2 0x2FD JUMPI DUP1 MLOAD PUSH4 0x95D89B41 PUSH1 0xE0 SHL DUP2 MSTORE SWAP3 DUP1 DUP5 DUP5 DUP2 PUSH32 0x0 PUSH1 0x1 PUSH1 0x1 PUSH1 0xA0 SHL SUB AND GAS STATICCALL SWAP3 DUP4 ISZERO PUSH2 0xB86 JUMPI DUP2 SWAP4 PUSH2 0xAE5 JUMPI JUMPDEST PUSH2 0xAE1 DUP5 DUP5 PUSH2 0xAD7 PUSH1 0x28 DUP3 MLOAD DUP1 SWAP5 PUSH32 0x4379675553443A20000000000000000000000000000000000000000000000000 PUSH1 0x20 DUP4 ADD MSTORE PUSH2 0xAC7 DUP2 MLOAD DUP1 SWAP3 PUSH1 0x20 DUP7 DUP7 ADD SWAP2 ADD PUSH2 0x204C JUMP JUMPDEST DUP2 ADD SUB PUSH1 0x8 DUP2 ADD DUP6 MSTORE ADD DUP4 PUSH2 0x222E JUMP JUMPDEST MLOAD SWAP2 DUP3 SWAP2 DUP3 PUSH2 0x206F JUMP JUMPDEST SUB SWAP1 RETURN JUMPDEST SWAP1 SWAP2 SWAP3 POP RETURNDATASIZE DUP1 DUP4 DUP7 RETURNDATACOPY PUSH2 0xAF8 DUP2 DUP7 PUSH2 0x222E JUMP JUMPDEST DUP5 ADD SWAP2 PUSH1 0x20 DUP6 DUP5 SUB SLT PUSH2 0x961 JUMPI DUP5 MLOAD PUSH8 0xFFFFFFFFFFFFFFFF SWAP6 DUP7 DUP3 GT PUSH2 0x2FD JUMPI ADD SWAP2 DUP4 PUSH1 0x1F DUP5 ADD SLT ISZERO PUSH2 0x330 JUMPI DUP3 MLOAD SWAP6 DUP7 GT PUSH2 0xB71 JUMPI POP DUP4 MLOAD SWAP3 PUSH2 0xB46 PUSH1 0x1F DUP8 ADD PUSH1 0x1F NOT AND PUSH1 0x20 ADD DUP6 PUSH2 0x222E JUMP JUMPDEST DUP6 DUP5 MSTORE PUSH1 0x20 DUP7 DUP5 ADD ADD GT PUSH2 0x961 JUMPI POP PUSH2 0xAE1 SWAP4 PUSH2 0xB69 SWAP2 PUSH1 0x20 DUP1 DUP6 ADD SWAP2 ADD PUSH2 0x204C JUMP JUMPDEST SWAP1 CODESIZE DUP1 PUSH2 0xA80 JUMP JUMPDEST PUSH1 0x41 SWAP1 PUSH4 0x4E487B71 PUSH1 0xE0 SHL PUSH1 0x0 MSTORE MSTORE PUSH1 0x24 PUSH1 0x0 REVERT JUMPDEST POP SWAP1 MLOAD SWAP1 RETURNDATASIZE SWAP1 DUP3 RETURNDATACOPY RETURNDATASIZE SWAP1 REVERT JUMPDEST POP POP CALLVALUE PUSH2 0x330 JUMPI PUSH1 0x20 CALLDATASIZE PUSH1 0x3 NOT ADD SLT PUSH2 0x330 JUMPI DUP1 SWAP2 PUSH1 0x1 PUSH1 0x1 PUSH1 0xA0 SHL SUB PUSH2 0xBB7 PUSH2 0x209B JUMP JUMPDEST AND DUP2 MSTORE PUSH1 0xA PUSH1 0x20 MSTORE KECCAK256 SLOAD DUP2 MLOAD SWAP1 PUSH1 0x1 PUSH1 0x1 PUSH1 0x80 SHL SUB DUP2 AND DUP3 MSTORE PUSH1 0x80 SHR PUSH1 0x20 DUP3 ADD MSTORE RETURN JUMPDEST POP SWAP2 SWAP1 CALLVALUE PUSH2 0x330 JUMPI PUSH2 0x120 CALLDATASIZE PUSH1 0x3 NOT ADD SLT PUSH2 0x330 JUMPI DUP3 CALLDATALOAD PUSH2 0xBF9 PUSH2 0x20B1 JUMP JUMPDEST PUSH1 0xC0 CALLDATASIZE PUSH1 0x43 NOT ADD SLT PUSH2 0xF2E JUMPI PUSH2 0x104 SWAP1 DUP2 CALLDATALOAD PUSH8 0xFFFFFFFFFFFFFFFF DUP2 GT PUSH2 0xE1E JUMPI PUSH2 0xC27 SWAP1 CALLDATASIZE SWAP1 DUP9 ADD PUSH2 0x20DD JUMP JUMPDEST SWAP3 PUSH2 0xC30 PUSH2 0x3015 JUMP JUMPDEST PUSH2 0xC38 PUSH2 0x309F JUMP JUMPDEST SWAP4 DUP1 PUSH2 0xE30 JUMPI JUMPDEST POP POP POP PUSH2 0xC4B DUP4 PUSH2 0x3387 JUMP JUMPDEST SWAP2 PUSH15 0x22D473030F116DDEE9F6B43AC78BA3 DUP1 EXTCODESIZE ISZERO PUSH2 0xE2C JUMPI DUP7 DUP1 SWAP2 PUSH1 0x84 DUP9 MLOAD DUP1 SWAP5 DUP2 SWAP4 PUSH4 0x1B63C28B PUSH1 0xE1 SHL DUP4 MSTORE DUP14 CALLER SWAP1 DUP5 ADD MSTORE ADDRESS PUSH1 0x24 DUP5 ADD MSTORE PUSH1 0x1 PUSH1 0x1 PUSH1 0xA0 SHL SUB DUP1 SWAP11 AND PUSH1 0x44 DUP5 ADD MSTORE DUP10 PUSH32 0x0 AND PUSH1 0x64 DUP5 ADD MSTORE GAS CALL DUP1 ISZERO PUSH2 0xE22 JUMPI SWAP1 DUP8 SWAP2 PUSH2 0xE0A JUMPI JUMPDEST POP POP PUSH2 0xCEB PUSH2 0xD01 SWAP2 PUSH2 0xCDE DUP7 PUSH2 0x28F6 JUMP JUMPDEST PUSH2 0xCE6 PUSH2 0x309F JUMP JUMPDEST PUSH2 0x21DB JUMP JUMPDEST PUSH2 0xCF3 PUSH2 0x2712 JUMP JUMPDEST PUSH2 0xCFB PUSH2 0x2185 JUMP JUMPDEST SWAP1 PUSH2 0x325B JUMP JUMPDEST SWAP5 DUP6 ISZERO PUSH2 0xDFA JUMPI PUSH9 0x5345CDF77EB68F44C DUP1 SLOAD SWAP2 DUP3 ISZERO PUSH2 0xD66 JUMPI JUMPDEST POP POP POP PUSH1 0x20 SWAP6 POP PUSH2 0xD2D DUP6 DUP3 PUSH2 0x3183 JUMP JUMPDEST DUP4 MLOAD SWAP3 DUP4 MSTORE DUP5 DUP7 DUP5 ADD MSTORE AND SWAP1 PUSH32 0xDCBC1C05240F31FF3AD067EF1EE35CE4997762752E3A095284754544F4C709D7 DUP4 CALLER SWAP3 LOG3 PUSH2 0x7E3 PUSH2 0x3015 JUMP JUMPDEST SWAP2 SWAP7 SWAP1 SWAP2 PUSH2 0x3E7 NOT DUP3 ADD SWAP2 DUP3 GT PUSH2 0xDE7 JUMPI POP SWAP6 PUSH2 0x3E8 SWAP2 DUP3 DUP3 ADD SWAP2 DUP3 LT PUSH2 0xDDA JUMPI PUSH1 0x20 SWAP9 POP SSTORE PUSH4 0x87A211A2 PUSH1 0xC MSTORE PUSH2 0xDEAD PUSH1 0x0 MSTORE DUP7 PUSH1 0xC KECCAK256 DUP2 DUP2 SLOAD ADD SWAP1 SSTORE DUP7 MSTORE PUSH1 0xC MLOAD PUSH1 0x60 SHR PUSH1 0x0 PUSH32 0xDDF252AD1BE2C89B69C2B068FC378DAA952BA7F163C4A11628F55A4DF523B3EF DUP9 DUP1 LOG3 CODESIZE DUP1 DUP1 PUSH2 0xD1C JUMP JUMPDEST DUP9 PUSH4 0xE5CFE957 PUSH1 0x0 MSTORE PUSH1 0x1C REVERT JUMPDEST PUSH4 0x4E487B71 PUSH1 0xE0 SHL DUP2 MSTORE PUSH1 0x11 DUP10 MSTORE PUSH1 0x24 SWAP1 REVERT JUMPDEST DUP5 MLOAD PUSH4 0xF1CA48B1 PUSH1 0xE0 SHL DUP2 MSTORE DUP8 SWAP1 REVERT JUMPDEST PUSH2 0xE13 SWAP1 PUSH2 0x21E8 JUMP JUMPDEST PUSH2 0xE1E JUMPI DUP6 CODESIZE PUSH2 0xCCC JUMP JUMPDEST DUP6 DUP1 REVERT JUMPDEST DUP7 MLOAD RETURNDATASIZE DUP10 DUP3 RETURNDATACOPY RETURNDATASIZE SWAP1 REVERT JUMPDEST DUP7 DUP1 REVERT JUMPDEST PUSH15 0x22D473030F116DDEE9F6B43AC78BA3 DUP1 EXTCODESIZE ISZERO PUSH2 0xF2A JUMPI DUP8 MLOAD PUSH4 0x2B67B57 PUSH1 0xE4 SHL DUP2 MSTORE CALLER DUP12 DUP3 ADD MSTORE SWAP4 PUSH1 0x1 PUSH1 0x1 PUSH1 0xA0 SHL SUB SWAP3 DUP4 PUSH2 0xE6B PUSH2 0x20C7 JUMP JUMPDEST AND PUSH1 0x24 DUP8 ADD MSTORE PUSH1 0x64 CALLDATALOAD DUP5 DUP2 AND DUP1 SWAP2 SUB PUSH2 0xF26 JUMPI PUSH1 0x44 DUP8 ADD MSTORE PUSH1 0x84 CALLDATALOAD PUSH6 0xFFFFFFFFFFFF SWAP1 DUP2 DUP2 AND DUP1 SWAP2 SUB PUSH2 0xF21 JUMPI PUSH1 0x64 DUP9 ADD MSTORE PUSH1 0xA4 CALLDATALOAD SWAP1 DUP2 AND DUP1 SWAP2 SUB PUSH2 0xF21 JUMPI PUSH1 0x84 DUP8 ADD MSTORE PUSH1 0xC4 CALLDATALOAD SWAP4 DUP5 AND DUP1 SWAP5 SUB PUSH2 0xF21 JUMPI DUP6 PUSH2 0xEE7 DUP2 SWAP6 SWAP4 DUP14 SWAP8 SWAP4 DUP9 SWAP5 DUP5 SWAP7 PUSH1 0xA4 DUP7 ADD MSTORE PUSH1 0xE4 CALLDATALOAD PUSH1 0xC4 DUP7 ADD MSTORE PUSH2 0x100 PUSH1 0xE4 DUP7 ADD MSTORE DUP5 ADD SWAP2 PUSH2 0x2354 JUMP JUMPDEST SUB SWAP3 GAS CALL DUP1 ISZERO PUSH2 0xF17 JUMPI SWAP1 DUP7 SWAP2 PUSH2 0xEFF JUMPI JUMPDEST DUP1 PUSH2 0xC3F JUMP JUMPDEST PUSH2 0xF08 SWAP1 PUSH2 0x21E8 JUMP JUMPDEST PUSH2 0xF13 JUMPI DUP5 CODESIZE PUSH2 0xEF9 JUMP JUMPDEST DUP5 DUP1 REVERT JUMPDEST DUP6 MLOAD RETURNDATASIZE DUP9 DUP3 RETURNDATACOPY RETURNDATASIZE SWAP1 REVERT JUMPDEST PUSH1 0x0 DUP1 REVERT JUMPDEST DUP12 DUP1 REVERT JUMPDEST DUP9 DUP1 REVERT JUMPDEST DUP4 DUP1 REVERT JUMPDEST POP SWAP1 CALLVALUE PUSH2 0x2FD JUMPI PUSH1 0x20 CALLDATASIZE PUSH1 0x3 NOT ADD SLT PUSH2 0x2FD JUMPI DUP2 CALLDATALOAD SWAP2 PUSH2 0xF50 PUSH2 0x3015 JUMP JUMPDEST PUSH2 0xF58 PUSH2 0x2712 JUMP JUMPDEST PUSH1 0x1 PUSH1 0x1 PUSH1 0xA0 SHL SUB PUSH1 0xC SLOAD AND CALLER SUB PUSH2 0xFB0 JUMPI POP PUSH32 0xC63644116F6EF474FE595238489F3D0D31A12C55BE3A748D72269A62882B04C9 SWAP1 PUSH2 0xF96 DUP4 PUSH2 0x28F6 JUMP JUMPDEST TIMESTAMP PUSH1 0xD SSTORE DUP1 MLOAD SWAP3 DUP4 MSTORE TIMESTAMP PUSH1 0x20 DUP5 ADD MSTORE CALLER SWAP3 LOG2 PUSH2 0x97D PUSH2 0x3015 JUMP JUMPDEST SWAP1 MLOAD PUSH4 0xDD8DE63 PUSH1 0xE1 SHL DUP2 MSTORE REVERT JUMPDEST POP POP CALLVALUE PUSH2 0x330 JUMPI PUSH1 0x20 CALLDATASIZE PUSH1 0x3 NOT ADD SLT PUSH2 0x330 JUMPI PUSH1 0x20 SWAP2 PUSH2 0xFDC PUSH2 0x209B JUMP JUMPDEST SWAP1 PUSH4 0x38377508 PUSH1 0xC MSTORE MSTORE DUP2 PUSH1 0xC KECCAK256 SLOAD SWAP1 MLOAD SWAP1 DUP2 MSTORE RETURN JUMPDEST POP POP CALLVALUE PUSH2 0x330 JUMPI PUSH1 0x20 CALLDATASIZE PUSH1 0x3 NOT ADD SLT PUSH2 0x330 JUMPI PUSH1 0x20 SWAP1 PUSH2 0x879 PUSH2 0x1013 PUSH2 0x209B JUMP JUMPDEST PUSH2 0x23AE JUMP JUMPDEST POP POP CALLVALUE PUSH2 0x330 JUMPI DUP2 PUSH1 0x3 NOT CALLDATASIZE ADD SLT PUSH2 0x330 JUMPI PUSH1 0x20 SWAP1 PUSH1 0x5 SLOAD SWAP1 MLOAD SWAP1 DUP2 MSTORE RETURN JUMPDEST POP POP CALLVALUE PUSH2 0x330 JUMPI PUSH1 0x20 CALLDATASIZE PUSH1 0x3 NOT ADD SLT PUSH2 0x330 JUMPI PUSH1 0x20 SWAP2 PUSH2 0x1055 PUSH2 0x209B JUMP JUMPDEST SWAP1 PUSH4 0x87A211A2 PUSH1 0xC MSTORE MSTORE DUP2 PUSH1 0xC KECCAK256 SLOAD SWAP1 MLOAD SWAP1 DUP2 MSTORE RETURN JUMPDEST POP POP CALLVALUE PUSH2 0x330 JUMPI DUP2 PUSH1 0x3 NOT CALLDATASIZE ADD SLT PUSH2 0x330 JUMPI PUSH1 0x20 SWAP1 MLOAD PUSH1 0x1 PUSH1 0x1 PUSH1 0xA0 SHL SUB PUSH32 0x0 AND DUP2 MSTORE RETURN JUMPDEST POP POP CALLVALUE PUSH2 0x330 JUMPI DUP2 PUSH1 0x3 NOT CALLDATASIZE ADD SLT PUSH2 0x330 JUMPI PUSH1 0x20 SWAP2 PUSH12 0xFFFFFFFFFFFFFFFFFFFFFFFF PUSH1 0xB SLOAD AND DUP1 ISZERO PUSH1 0x0 EQ PUSH2 0x10E6 JUMPI POP SWAP1 MLOAD SWAP1 DUP2 MSTORE RETURN JUMPDEST PUSH2 0xCFB DUP2 PUSH1 0x1 PUSH1 0x1 PUSH1 0xA0 SHL SUB PUSH2 0x1100 SWAP5 SLOAD PUSH1 0x8 SHR AND PUSH2 0x2162 JUMP JUMPDEST SWAP1 PUSH2 0x7E3 JUMP JUMPDEST POP POP CALLVALUE PUSH2 0x330 JUMPI DUP2 PUSH1 0x3 NOT CALLDATASIZE ADD SLT PUSH2 0x330 JUMPI PUSH1 0x20 SWAP1 MLOAD PUSH15 0x22D473030F116DDEE9F6B43AC78BA3 DUP2 MSTORE RETURN JUMPDEST POP POP CALLVALUE PUSH2 0x330 JUMPI DUP2 PUSH1 0x3 NOT CALLDATASIZE ADD SLT PUSH2 0x330 JUMPI PUSH1 0x20 SWAP1 MLOAD PUSH32 0x0 DUP2 MSTORE RETURN JUMPDEST DUP4 CALLVALUE PUSH2 0x961 JUMPI PUSH1 0x20 CALLDATASIZE PUSH1 0x3 NOT ADD SLT PUSH2 0x961 JUMPI PUSH2 0x97D PUSH2 0x1188 PUSH2 0x209B JUMP JUMPDEST PUSH2 0x1191 DUP2 PUSH2 0x23AE JUMP JUMPDEST PUSH10 0xFFFFFFFFFFFFFFFFFFFF PUSH1 0xB SLOAD PUSH1 0x60 SHR AND SWAP2 PUSH2 0x26AB JUMP JUMPDEST POP POP CALLVALUE PUSH2 0x330 JUMPI DUP2 PUSH1 0x3 NOT CALLDATASIZE ADD SLT PUSH2 0x330 JUMPI PUSH1 0x20 SWAP1 PUSH1 0x1 PUSH1 0x1 PUSH1 0xA0 SHL SUB PUSH1 0xC SLOAD AND SWAP1 MLOAD SWAP1 DUP2 MSTORE RETURN JUMPDEST POP POP CALLVALUE PUSH2 0x330 JUMPI DUP2 PUSH1 0x3 NOT CALLDATASIZE ADD SLT PUSH2 0x330 JUMPI PUSH1 0x20 SWAP1 PUSH12 0xFFFFFFFFFFFFFFFFFFFFFFFF PUSH1 0xB SLOAD AND SWAP1 MLOAD SWAP1 DUP2 MSTORE RETURN JUMPDEST POP CALLVALUE PUSH2 0x2FD JUMPI DUP3 PUSH1 0x3 NOT CALLDATASIZE ADD SLT PUSH2 0x2FD JUMPI PUSH1 0x20 SWAP3 POP SLOAD SWAP1 MLOAD SWAP1 DUP2 MSTORE RETURN JUMPDEST POP POP CALLVALUE PUSH2 0x330 JUMPI DUP2 PUSH1 0x3 NOT CALLDATASIZE ADD SLT PUSH2 0x330 JUMPI PUSH1 0x20 SWAP1 PUSH1 0x8 SLOAD SWAP1 MLOAD SWAP1 DUP2 MSTORE RETURN JUMPDEST POP POP CALLVALUE PUSH2 0x330 JUMPI PUSH1 0x20 CALLDATASIZE PUSH1 0x3 NOT ADD SLT PUSH2 0x330 JUMPI PUSH32 0x2A0D5DC7FBC8045F59CB33C736F04F9A9B565E9F425912F9CD2BAFDEBD50CEAD SWAP1 PUSH2 0x1277 PUSH2 0x209B JUMP JUMPDEST PUSH2 0x127F PUSH2 0x2F8B JUMP JUMPDEST PUSH1 0x2 DUP1 SLOAD PUSH1 0x1 PUSH1 0x1 PUSH1 0xA0 SHL SUB SWAP3 DUP4 AND PUSH20 0xFFFFFFFFFFFFFFFFFFFFFFFFFFFFFFFFFFFFFFFF NOT DUP3 AND DUP2 OR SWAP1 SWAP3 SSTORE SWAP3 MLOAD SWAP2 SWAP1 SWAP3 AND DUP2 MSTORE PUSH1 0x20 DUP2 ADD SWAP2 SWAP1 SWAP2 MSTORE PUSH1 0x40 SWAP1 LOG1 DUP1 RETURN JUMPDEST POP POP CALLVALUE PUSH2 0x330 JUMPI DUP2 PUSH1 0x3 NOT CALLDATASIZE ADD SLT PUSH2 0x330 JUMPI PUSH1 0x20 SWAP1 PUSH2 0x12DF PUSH2 0x2712 JUMP JUMPDEST PUSH2 0x879 PUSH2 0x2185 JUMP JUMPDEST POP SWAP2 CALLVALUE PUSH2 0x961 JUMPI DUP2 PUSH1 0x3 NOT CALLDATASIZE ADD SLT PUSH2 0x961 JUMPI PUSH2 0x1301 PUSH2 0x209B JUMP JUMPDEST PUSH1 0x20 MSTORE PUSH4 0x7F5E9F20 PUSH1 0xC MSTORE CALLER DUP2 MSTORE PUSH1 0x34 PUSH1 0xC KECCAK256 SWAP3 DUP4 SLOAD SWAP1 PUSH1 0x24 CALLDATALOAD DUP3 ADD SWAP2 DUP3 LT PUSH2 0x135F JUMPI POP DUP1 PUSH1 0x20 SWAP5 SSTORE DUP2 MSTORE PUSH1 0x2C MLOAD PUSH1 0x60 SHR SWAP1 PUSH32 0x8C5BE1E5EBEC7D5BD14F71427D1E84F3DD0314C0F7B2291E5B200AC8C7C3B925 DUP5 CALLER SWAP3 LOG3 MLOAD PUSH1 0x1 DUP2 MSTORE RETURN JUMPDEST PUSH4 0xF9067066 DUP4 MSTORE PUSH1 0x1C REVERT JUMPDEST POP POP CALLVALUE PUSH2 0x330 JUMPI DUP2 PUSH1 0x3 NOT CALLDATASIZE ADD SLT PUSH2 0x330 JUMPI PUSH1 0x20 SWAP1 PUSH2 0x879 PUSH2 0x3111 JUMP JUMPDEST POP SWAP2 CALLVALUE PUSH2 0x961 JUMPI DUP1 PUSH1 0x3 NOT CALLDATASIZE ADD SLT PUSH2 0x961 JUMPI PUSH1 0x20 DUP3 MLOAD DUP1 SWAP5 PUSH4 0x313CE567 PUSH1 0xE0 SHL DUP3 MSTORE DUP2 PUSH1 0x1 PUSH1 0x1 PUSH1 0xA0 SHL SUB PUSH32 0x0 AND GAS STATICCALL SWAP3 DUP4 ISZERO PUSH2 0xB86 JUMPI DUP2 SWAP4 PUSH2 0x13F1 JUMPI JUMPDEST PUSH1 0x20 DUP5 PUSH1 0xFF DUP6 MLOAD SWAP2 AND DUP2 MSTORE RETURN JUMPDEST SWAP1 SWAP3 POP PUSH1 0x20 DUP2 RETURNDATASIZE DUP3 GT PUSH2 0x142A JUMPI JUMPDEST DUP2 PUSH2 0x140C PUSH1 0x20 SWAP4 DUP4 PUSH2 0x222E JUMP JUMPDEST DUP2 ADD SUB SLT PUSH2 0x2FD JUMPI MLOAD SWAP2 PUSH1 0xFF DUP4 AND DUP4 SUB PUSH2 0x961 JUMPI POP PUSH1 0xFF PUSH1 0x20 PUSH2 0x13E4 JUMP JUMPDEST RETURNDATASIZE SWAP2 POP PUSH2 0x13FF JUMP JUMPDEST POP SWAP1 CALLVALUE PUSH2 0x2FD JUMPI PUSH2 0x1442 CALLDATASIZE PUSH2 0x210B JUMP JUMPDEST SWAP2 SWAP7 SWAP4 DUP5 SLOAD SWAP8 PUSH1 0xFF DUP10 AND ISZERO PUSH2 0x1638 JUMPI PUSH1 0xFF NOT SWAP9 DUP10 AND DUP7 SSTORE DUP8 SWAP5 SWAP4 SWAP3 SWAP2 SWAP1 PUSH2 0x1467 PUSH2 0x3015 JUMP JUMPDEST PUSH2 0x146F PUSH2 0x2712 JUMP JUMPDEST PUSH2 0x1478 DUP3 PUSH2 0x23AE JUMP JUMPDEST SWAP1 DUP1 DUP3 LT ISZERO PUSH2 0x1630 JUMPI POP SWAP2 JUMPDEST PUSH1 0x1 PUSH1 0x1 PUSH1 0xA0 SHL SUB SWAP4 PUSH1 0x20 DUP6 PUSH1 0x64 DUP2 PUSH1 0x1 SLOAD AND SWAP9 DUP12 DUP14 MLOAD SWAP10 DUP11 SWAP5 DUP6 SWAP4 PUSH4 0x2D3AEF69 PUSH1 0xE2 SHL DUP6 MSTORE AND DUP1 SWAP14 DUP5 ADD MSTORE DUP9 AND SWAP11 DUP12 PUSH1 0x24 DUP5 ADD MSTORE DUP10 PUSH1 0x44 DUP5 ADD MSTORE GAS CALL SWAP5 DUP6 ISZERO PUSH2 0x1626 JUMPI DUP9 SWAP6 PUSH2 0x15F3 JUMPI JUMPDEST POP DUP1 PUSH2 0x1581 JUMPI JUMPDEST POP POP PUSH2 0x1502 ADDRESS PUSH32 0x0 PUSH2 0x33F9 JUMP JUMPDEST SWAP8 DUP3 DUP10 LT PUSH2 0x1573 JUMPI POP SWAP2 PUSH32 0xB2B14447B2FB5B250428A70CF03FD19F8FF7EE7E04A46EBE7824DF2A0C91A9E3 DUP9 PUSH1 0x20 SWAP11 SWAP6 SWAP4 PUSH2 0x1540 DUP3 PUSH1 0x1 SWAP10 SWAP8 PUSH2 0x2474 JUMP JUMPDEST POP PUSH2 0x154A DUP3 PUSH2 0x28F6 JUMP JUMPDEST DUP10 MLOAD SWAP4 DUP5 MSTORE PUSH1 0x20 DUP5 ADD MSTORE PUSH1 0x40 DUP4 ADD MSTORE CALLER SWAP2 PUSH1 0x60 SWAP1 LOG4 PUSH2 0x1567 PUSH2 0x3015 JUMP JUMPDEST DUP3 SLOAD AND OR SWAP1 SSTORE MLOAD SWAP1 DUP2 MSTORE RETURN JUMPDEST DUP8 MLOAD PUSH4 0x7B1BD6F PUSH1 0xE2 SHL DUP2 MSTORE REVERT JUMPDEST CALLER EXTCODESIZE ISZERO PUSH2 0x5C1 JUMPI DUP8 SWAP1 DUP11 PUSH2 0x15C1 DUP12 MLOAD SWAP5 DUP6 SWAP4 DUP5 SWAP4 PUSH4 0xE95471C7 PUSH1 0xE0 SHL DUP6 MSTORE CALLER SWAP1 DUP6 ADD MSTORE DUP10 PUSH1 0x24 DUP6 ADD MSTORE DUP9 PUSH1 0x44 DUP6 ADD MSTORE PUSH1 0x80 PUSH1 0x64 DUP6 ADD MSTORE PUSH1 0x84 DUP5 ADD SWAP2 PUSH2 0x2354 JUMP JUMPDEST SUB DUP2 DUP4 CALLER GAS CALL DUP1 ISZERO PUSH2 0x15E9 JUMPI SWAP1 DUP8 SWAP2 ISZERO PUSH2 0x14D6 JUMPI PUSH2 0x15DE SWAP1 PUSH2 0x21E8 JUMP JUMPDEST PUSH2 0xE1E JUMPI DUP6 CODESIZE PUSH2 0x14D6 JUMP JUMPDEST DUP9 MLOAD RETURNDATASIZE DUP10 DUP3 RETURNDATACOPY RETURNDATASIZE SWAP1 REVERT JUMPDEST SWAP1 SWAP5 POP PUSH1 0x20 DUP2 RETURNDATASIZE DUP3 GT PUSH2 0x161E JUMPI JUMPDEST DUP2 PUSH2 0x160E PUSH1 0x20 SWAP4 DUP4 PUSH2 0x222E JUMP JUMPDEST DUP2 ADD SUB SLT PUSH2 0xF21 JUMPI MLOAD SWAP4 CODESIZE PUSH2 0x14CF JUMP JUMPDEST RETURNDATASIZE SWAP2 POP PUSH2 0x1601 JUMP JUMPDEST DUP10 MLOAD RETURNDATASIZE DUP11 DUP3 RETURNDATACOPY RETURNDATASIZE SWAP1 REVERT JUMPDEST SWAP1 POP SWAP2 PUSH2 0x1484 JUMP JUMPDEST DUP7 MLOAD PUSH4 0x6FDA65D PUSH1 0xE3 SHL DUP2 MSTORE DUP9 SWAP1 REVERT JUMPDEST POP SWAP2 SWAP1 CALLVALUE PUSH2 0x330 JUMPI PUSH1 0x60 CALLDATASIZE PUSH1 0x3 NOT ADD SLT PUSH2 0x330 JUMPI PUSH2 0x1664 PUSH2 0x209B JUMP JUMPDEST PUSH2 0x166C PUSH2 0x20B1 JUMP JUMPDEST PUSH1 0x44 CALLDATALOAD DUP3 PUSH1 0x60 SHL SWAP2 PUSH1 0x20 SWAP6 CALLER DUP8 MSTORE PUSH1 0xC SWAP4 PUSH4 0x7F5E9F20 DUP2 OR DUP6 MSTORE PUSH1 0x34 DUP6 KECCAK256 DUP1 SLOAD PUSH1 0x0 NOT DUP2 SUB PUSH2 0x16FB JUMPI JUMPDEST POP POP PUSH4 0x87A211A2 OR DUP5 MSTORE DUP7 DUP5 KECCAK256 DUP1 SLOAD SWAP9 DUP10 DUP6 GT PUSH2 0x7E9 JUMPI POP DUP4 PUSH1 0x1 PUSH1 0x1 PUSH1 0xA0 SHL SUB SWAP7 SWAP8 SWAP9 SWAP10 SUB SWAP1 SSTORE MSTORE DUP6 DUP3 KECCAK256 DUP2 DUP2 SLOAD ADD SWAP1 SSTORE DUP6 MSTORE MLOAD PUSH1 0x60 SHR SWAP2 AND PUSH32 0xDDF252AD1BE2C89B69C2B068FC378DAA952BA7F163C4A11628F55A4DF523B3EF DUP5 DUP1 LOG3 MLOAD PUSH1 0x1 DUP2 MSTORE RETURN JUMPDEST DUP1 DUP7 GT PUSH2 0x1712 JUMPI DUP6 SWAP1 SUB SWAP1 SSTORE PUSH4 0x87A211A2 CODESIZE PUSH2 0x1696 JUMP JUMPDEST DUP11 PUSH4 0x13BE252B DUP6 MSTORE PUSH1 0x1C REVERT JUMPDEST POP SWAP2 SWAP1 CALLVALUE PUSH2 0x330 JUMPI PUSH2 0x172F CALLDATASIZE PUSH2 0x210B JUMP JUMPDEST SWAP5 SWAP4 SWAP7 DUP7 SWAP4 SWAP2 SWAP4 SLOAD SWAP6 PUSH1 0xFF DUP8 AND ISZERO PUSH2 0x19A7 JUMPI PUSH1 0xFF NOT SWAP7 DUP8 AND DUP9 SSTORE DUP4 SWAP2 SWAP1 PUSH2 0x1754 PUSH2 0x3015 JUMP JUMPDEST PUSH2 0x175C PUSH2 0x2712 JUMP JUMPDEST PUSH1 0x1 PUSH1 0x1 PUSH1 0xA0 SHL SUB SWAP10 DUP11 DUP2 AND SWAP7 CALLER DUP9 SUB PUSH2 0x1997 JUMPI JUMPDEST DUP5 ISZERO ISZERO SWAP3 DUP4 PUSH2 0x195E JUMPI JUMPDEST DUP1 PUSH2 0x18D9 JUMPI JUMPDEST POP POP PUSH2 0x17B9 SWAP1 PUSH2 0x17B1 ADDRESS PUSH32 0x0 PUSH2 0x33F9 JUMP JUMPDEST SWAP5 DUP6 SWAP2 PUSH2 0x25B6 JUMP JUMPDEST SWAP1 DUP4 DUP7 GT ISZERO PUSH2 0x188F JUMPI POP PUSH1 0x20 DUP11 PUSH1 0x1 SLOAD AND SWAP2 PUSH1 0x44 DUP10 MLOAD DUP1 SWAP5 DUP2 SWAP4 PUSH4 0x33E32311 PUSH1 0xE2 SHL DUP4 MSTORE DUP12 DUP9 DUP5 ADD MSTORE PUSH1 0x24 DUP4 ADD MSTORE GAS STATICCALL SWAP1 DUP2 ISZERO PUSH2 0x1885 JUMPI DUP10 SWAP2 PUSH2 0x184B JUMPI JUMPDEST POP ISZERO PUSH2 0x183D JUMPI POP SWAP7 PUSH32 0x96558A334F4759F0E7C423D68C84721860BD8FBF94DDC4E55158ECB125AD04B5 SWAP2 PUSH1 0x1 SWAP8 SWAP9 JUMPDEST DUP7 MLOAD SWAP5 DUP6 MSTORE PUSH1 0x20 DUP6 ADD MSTORE AND SWAP4 CALLER SWAP3 LOG4 PUSH2 0x2E7 PUSH2 0x3015 JUMP JUMPDEST DUP6 MLOAD PUSH4 0xEFD51885 PUSH1 0xE0 SHL DUP2 MSTORE REVERT JUMPDEST SWAP1 POP PUSH1 0x20 DUP2 RETURNDATASIZE DUP3 GT PUSH2 0x187D JUMPI JUMPDEST DUP2 PUSH2 0x1865 PUSH1 0x20 SWAP4 DUP4 PUSH2 0x222E JUMP JUMPDEST DUP2 ADD SUB SLT PUSH2 0xF2A JUMPI MLOAD DUP1 ISZERO ISZERO DUP2 SUB PUSH2 0xF2A JUMPI CODESIZE PUSH2 0x17F7 JUMP JUMPDEST RETURNDATASIZE SWAP2 POP PUSH2 0x1858 JUMP JUMPDEST DUP8 MLOAD RETURNDATASIZE DUP12 DUP3 RETURNDATACOPY RETURNDATASIZE SWAP1 REVERT JUMPDEST SWAP1 POP PUSH2 0x18CB JUMPI POP SWAP7 PUSH32 0x96558A334F4759F0E7C423D68C84721860BD8FBF94DDC4E55158ECB125AD04B5 SWAP2 DUP9 PUSH2 0x18C6 PUSH1 0x1 SWAP10 SWAP11 PUSH2 0x28F6 JUMP JUMPDEST PUSH2 0x1826 JUMP JUMPDEST DUP6 MLOAD PUSH4 0x7CC109A5 PUSH1 0xE1 SHL DUP2 MSTORE REVERT JUMPDEST SWAP1 SWAP2 SWAP3 SWAP4 SWAP5 POP CALLER EXTCODESIZE ISZERO PUSH2 0x195A JUMPI PUSH2 0x1919 SWAP2 DUP12 SWAP2 DUP11 MLOAD SWAP4 DUP5 SWAP3 DUP4 SWAP3 PUSH4 0x8F53D74F PUSH1 0xE0 SHL DUP5 MSTORE CALLER DUP11 DUP6 ADD MSTORE DUP12 PUSH1 0x24 DUP6 ADD MSTORE PUSH1 0x60 PUSH1 0x44 DUP6 ADD MSTORE PUSH1 0x64 DUP5 ADD SWAP2 PUSH2 0x2354 JUMP JUMPDEST SUB DUP2 DUP4 CALLER GAS CALL DUP1 ISZERO PUSH2 0x1950 JUMPI PUSH2 0x1935 JUMPI JUMPDEST SWAP1 DUP2 DUP7 SWAP5 SWAP4 SWAP3 PUSH2 0x1781 JUMP JUMPDEST DUP6 SWAP4 SWAP3 SWAP2 SWAP10 PUSH2 0x1946 PUSH2 0x17B9 SWAP3 PUSH2 0x21E8 JUMP JUMPDEST SWAP10 SWAP2 SWAP3 SWAP4 POP PUSH2 0x192A JUMP JUMPDEST DUP9 MLOAD RETURNDATASIZE DUP13 DUP3 RETURNDATACOPY RETURNDATASIZE SWAP1 REVERT JUMPDEST DUP11 DUP1 REVERT JUMPDEST PUSH2 0x1967 DUP7 PUSH2 0x2981 JUMP JUMPDEST PUSH2 0x1992 DUP7 DUP9 PUSH32 0x0 PUSH2 0x33B0 JUMP JUMPDEST PUSH2 0x177B JUMP JUMPDEST PUSH2 0x19A2 DUP6 CALLER DUP5 PUSH2 0x31F1 JUMP JUMPDEST PUSH2 0x1771 JUMP JUMPDEST POP DUP5 MLOAD PUSH4 0x6FDA65D PUSH1 0xE3 SHL DUP2 MSTORE REVERT JUMPDEST POP CALLVALUE PUSH2 0x2FD JUMPI PUSH1 0x80 CALLDATASIZE PUSH1 0x3 NOT ADD SLT PUSH2 0x2FD JUMPI DUP1 CALLDATALOAD SWAP2 PUSH1 0x24 CALLDATALOAD SWAP1 PUSH1 0x44 CALLDATALOAD SWAP2 PUSH1 0x64 CALLDATALOAD SWAP4 PUSH2 0x19DF PUSH2 0x2F8B JUMP JUMPDEST PUSH8 0x16345785D8A0000 DUP7 GT PUSH2 0x1B91 JUMPI PUSH8 0x6F05B59D3B20000 DUP6 LT DUP1 ISZERO PUSH2 0x1B9F JUMPI JUMPDEST PUSH2 0x1B91 JUMPI PUSH1 0x1 DUP1 DUP6 LT DUP1 ISZERO PUSH2 0x1B87 JUMPI JUMPDEST PUSH2 0x1B78 JUMPI PUSH4 0x1E13380 SWAP2 DUP3 DUP9 DIV PUSH1 0x3 SSTORE DUP7 DUP4 MUL DUP4 DUP2 DIV DUP9 SUB PUSH2 0x1B65 JUMPI PUSH2 0x1A36 SWAP1 DUP6 PUSH2 0x325B JUMP JUMPDEST DUP2 SSTORE DUP6 PUSH1 0x7 SSTORE DUP7 PUSH1 0x6 SSTORE DUP9 SWAP3 DUP7 DUP6 MUL SWAP1 PUSH1 0x0 NOT DUP9 DUP8 MULMOD SWAP2 DUP1 DUP4 LT DUP2 ADD DUP1 DUP5 SUB SWAP4 EQ PUSH32 0x98F5BE4DD1E14769FBD6666224DC1EB80DD2E0A3D2C8B328F57E76B7AE103957 DUP5 DUP5 GT ISZERO SWAP5 DUP5 DUP13 DUP12 MULMOD SWAP1 DUP5 DUP3 GT SWAP1 SUB PUSH1 0xF9 SHL SWAP1 DUP5 SUB PUSH1 0x7 SHR OR MUL SWAP6 PUSH2 0x1AE5 JUMPI JUMPDEST POP DUP12 PUSH32 0xF58B8CC439EDADA25FD9495B7364AEB1D737DBEF59BE1CF62E0CC4001C44A3CD PUSH1 0x80 DUP14 DUP14 DUP14 DUP14 DUP14 PUSH2 0x1ACC DUP5 DUP16 PUSH2 0x325B JUMP JUMPDEST PUSH1 0x5 SSTORE DUP2 MLOAD SWAP5 DUP6 MSTORE PUSH1 0x20 DUP6 ADD MSTORE DUP4 ADD MSTORE PUSH1 0x60 DUP3 ADD MSTORE LOG1 DUP1 RETURN JUMPDEST SWAP1 SWAP2 SWAP3 SWAP4 SWAP5 SWAP6 POP PUSH2 0x1B30 JUMPI POP POP PUSH2 0x1B25 JUMPI POP DUP2 PUSH2 0x1ACC DUP7 PUSH1 0x80 PUSH32 0xF58B8CC439EDADA25FD9495B7364AEB1D737DBEF59BE1CF62E0CC4001C44A3CD CODESIZE PUSH2 0x1A98 JUMP JUMPDEST PUSH4 0xAE47F702 DUP9 MSTORE PUSH1 0x1C REVERT JUMPDEST DIV SWAP3 POP DUP4 SWAP2 POP PUSH2 0x1ACC SWAP1 POP DUP7 PUSH1 0x80 PUSH32 0xF58B8CC439EDADA25FD9495B7364AEB1D737DBEF59BE1CF62E0CC4001C44A3CD CODESIZE PUSH2 0x1A98 JUMP JUMPDEST PUSH4 0x4E487B71 PUSH1 0xE0 SHL DUP11 MSTORE PUSH1 0x11 DUP3 MSTORE PUSH1 0x24 DUP11 REVERT JUMPDEST POP DUP3 MLOAD PUSH4 0xE49B3B3 PUSH1 0xE4 SHL DUP2 MSTORE REVERT JUMPDEST POP PUSH1 0xA DUP6 GT PUSH2 0x1A10 JUMP JUMPDEST DUP3 MLOAD PUSH4 0xE49B3B3 PUSH1 0xE4 SHL DUP2 MSTORE REVERT JUMPDEST POP PUSH8 0xD2F13F7789F0000 DUP6 GT PUSH2 0x1A00 JUMP JUMPDEST POP CALLVALUE PUSH2 0x2FD JUMPI PUSH1 0x20 CALLDATASIZE PUSH1 0x3 NOT ADD SLT PUSH2 0x2FD JUMPI DUP1 CALLDATALOAD SWAP1 PUSH2 0x1BCD PUSH2 0x2F8B JUMP JUMPDEST PUSH8 0x2C68AF0BB140000 DUP3 GT PUSH2 0x1B91 JUMPI POP SWAP1 PUSH32 0xAAA68312E2EA9D50E16AF5068410AB56E1A1FD06037B1A35664812C30F821460 SWAP2 PUSH1 0x8 SLOAD SWAP1 DUP1 PUSH1 0x8 SSTORE DUP3 MLOAD SWAP2 DUP3 MSTORE PUSH1 0x20 DUP3 ADD MSTORE LOG1 DUP1 RETURN JUMPDEST POP SWAP2 SWAP1 CALLVALUE PUSH2 0x330 JUMPI PUSH1 0x20 CALLDATASIZE PUSH1 0x3 NOT ADD SLT PUSH2 0x330 JUMPI PUSH2 0x1C32 PUSH2 0x209B JUMP JUMPDEST SWAP1 DUP3 SLOAD SWAP2 PUSH1 0xFF DUP4 AND ISZERO PUSH2 0x1CE1 JUMPI PUSH1 0xFF NOT SWAP3 DUP4 AND DUP5 SSTORE PUSH2 0x1C4F PUSH2 0x2F8B JUMP JUMPDEST PUSH1 0x1 PUSH1 0x1 PUSH1 0xA0 SHL SUB SWAP2 DUP3 DUP3 AND SWAP3 PUSH32 0x0 AND DUP4 EQ PUSH2 0x1CD2 JUMPI PUSH1 0x1 SWAP5 SWAP6 POP PUSH2 0x1C9F PUSH2 0x1C96 ADDRESS DUP5 PUSH2 0x33F9 JUMP JUMPDEST DUP1 SWAP4 CALLER SWAP1 PUSH2 0x33B0 JUMP JUMPDEST MLOAD SWAP1 DUP2 MSTORE PUSH32 0x6D25BE279134F4ECAA4770AFF0C3D916D9E7C5EF37B65ED95DBDBA411F5D54D5 PUSH1 0x20 CALLER SWAP3 LOG3 DUP3 SLOAD AND OR DUP2 SSTORE DUP1 RETURN JUMPDEST MLOAD PUSH4 0xB5D8F391 PUSH1 0xE0 SHL DUP2 MSTORE DUP6 SWAP1 REVERT JUMPDEST DUP2 MLOAD PUSH4 0x6FDA65D PUSH1 0xE3 SHL DUP2 MSTORE DUP6 SWAP1 REVERT JUMPDEST POP POP CALLVALUE PUSH2 0x330 JUMPI DUP2 PUSH1 0x3 NOT CALLDATASIZE ADD SLT PUSH2 0x330 JUMPI PUSH1 0x20 SWAP1 PUSH1 0x6 SLOAD SWAP1 MLOAD SWAP1 DUP2 MSTORE RETURN JUMPDEST POP POP CALLVALUE PUSH2 0x330 JUMPI DUP2 PUSH1 0x3 NOT CALLDATASIZE ADD SLT PUSH2 0x330 JUMPI PUSH1 0x20 SWAP1 PUSH1 0x9 SLOAD SWAP1 MLOAD SWAP1 DUP2 MSTORE RETURN JUMPDEST POP POP CALLVALUE PUSH2 0x330 JUMPI DUP2 PUSH1 0x3 NOT CALLDATASIZE ADD SLT PUSH2 0x330 JUMPI PUSH1 0x20 SWAP1 PUSH9 0x5345CDF77EB68F44C SLOAD SWAP1 MLOAD SWAP1 DUP2 MSTORE RETURN JUMPDEST POP SWAP1 CALLVALUE PUSH2 0x2FD JUMPI PUSH1 0x20 SWAP1 DUP2 PUSH1 0x3 NOT CALLDATASIZE ADD SLT PUSH2 0xF2E JUMPI DUP3 CALLDATALOAD SWAP4 PUSH1 0x1 PUSH1 0x1 PUSH1 0xA0 SHL SUB SWAP3 DUP4 DUP7 AND DUP1 SWAP7 SUB PUSH2 0x330 JUMPI PUSH2 0x1D89 PUSH2 0x2F8B JUMP JUMPDEST PUSH1 0xC SWAP3 DUP4 SLOAD SWAP6 DUP8 PUSH20 0xFFFFFFFFFFFFFFFFFFFFFFFFFFFFFFFFFFFFFFFF NOT DUP9 AND OR DUP6 SSTORE PUSH2 0x1DB3 PUSH2 0x2C14 JUMP JUMPDEST POP SWAP5 PUSH32 0x0 DUP8 AND DUP6 JUMPDEST DUP8 MLOAD DUP2 LT ISZERO PUSH2 0x1EB7 JUMPI DUP2 DUP10 PUSH2 0x1DEF DUP4 DUP12 PUSH2 0x2BDB JUMP JUMPDEST MLOAD AND SUB PUSH2 0x1E05 JUMPI JUMPDEST PUSH2 0x1E00 SWAP1 PUSH2 0x2C05 JUMP JUMPDEST PUSH2 0x1DDA JUMP JUMPDEST PUSH2 0x1E4F DUP7 DUP11 PUSH2 0x1E14 DUP5 DUP13 PUSH2 0x2BDB JUMP JUMPDEST MLOAD AND DUP12 DUP7 SLOAD AND SWAP1 DUP9 MLOAD DUP1 DUP1 SWAP6 DUP2 SWAP5 PUSH4 0x6EB1769F PUSH1 0xE1 SHL DUP4 MSTORE ADDRESS DUP13 DUP5 ADD SWAP1 PUSH1 0x20 SWAP1 SWAP4 SWAP3 SWAP4 PUSH1 0x40 DUP4 ADD SWAP5 PUSH1 0x1 PUSH1 0x1 PUSH1 0xA0 SHL SUB DUP1 SWAP3 AND DUP5 MSTORE AND SWAP2 ADD MSTORE JUMP JUMPDEST SUB SWAP2 GAS STATICCALL DUP1 ISZERO PUSH2 0x1EAD JUMPI SWAP1 DUP8 SWAP2 PUSH2 0x1E84 JUMPI JUMPDEST POP POP DUP1 PUSH2 0x1E7D DUP13 DUP12 PUSH2 0x1E76 PUSH2 0x1E00 SWAP6 DUP14 PUSH2 0x2BDB JUMP JUMPDEST MLOAD AND PUSH2 0x29C8 JUMP JUMPDEST SWAP1 POP PUSH2 0x1DF7 JUMP JUMPDEST DUP2 RETURNDATASIZE DUP4 GT PUSH2 0x1EA6 JUMPI JUMPDEST PUSH2 0x1E97 DUP2 DUP4 PUSH2 0x222E JUMP JUMPDEST DUP2 ADD SUB SLT PUSH2 0xE2C JUMPI DUP6 CODESIZE PUSH2 0x1E61 JUMP JUMPDEST POP RETURNDATASIZE PUSH2 0x1E8D JUMP JUMPDEST DUP7 MLOAD RETURNDATASIZE DUP11 DUP3 RETURNDATACOPY RETURNDATASIZE SWAP1 REVERT JUMPDEST DUP7 PUSH32 0x6A97A9E954AE4EF4C8ECC6C7DD8A1CBE668254132294CEB515DB9A2E4FAAD7F5 DUP7 DUP13 DUP15 DUP11 DUP15 DUP5 MLOAD SWAP4 AND DUP4 MSTORE DUP3 ADD MSTORE LOG1 DUP1 RETURN JUMPDEST POP POP CALLVALUE PUSH2 0x330 JUMPI DUP1 PUSH1 0x3 NOT CALLDATASIZE ADD SLT PUSH2 0x330 JUMPI PUSH1 0x20 SWAP2 PUSH2 0x1F08 PUSH2 0x209B JUMP JUMPDEST PUSH1 0x24 CALLDATALOAD SWAP1 DUP5 MSTORE PUSH4 0x7F5E9F20 PUSH1 0xC MSTORE CALLER DUP3 MSTORE DUP1 PUSH1 0x34 PUSH1 0xC KECCAK256 SSTORE DUP2 MSTORE PUSH1 0x2C MLOAD PUSH1 0x60 SHR SWAP1 PUSH32 0x8C5BE1E5EBEC7D5BD14F71427D1E84F3DD0314C0F7B2291E5B200AC8C7C3B925 DUP5 CALLER SWAP3 LOG3 MLOAD PUSH1 0x1 DUP2 MSTORE RETURN JUMPDEST POP POP CALLVALUE PUSH2 0x330 JUMPI DUP2 PUSH1 0x3 NOT CALLDATASIZE ADD SLT PUSH2 0x330 JUMPI PUSH2 0xAE1 SWAP1 PUSH2 0x1F73 PUSH2 0x2375 JUMP JUMPDEST SWAP1 MLOAD SWAP2 DUP3 SWAP2 DUP3 PUSH2 0x206F JUMP JUMPDEST DUP4 DUP6 DUP5 CALLVALUE PUSH2 0x330 JUMPI DUP2 PUSH1 0x3 NOT CALLDATASIZE ADD SLT PUSH2 0x330 JUMPI DUP2 SLOAD SWAP4 PUSH1 0xFF DUP6 AND ISZERO PUSH2 0x2003 JUMPI PUSH2 0x1FCD DUP5 DUP7 DUP6 PUSH1 0xFF NOT DUP1 SWAP3 AND DUP2 SSTORE PUSH2 0x1FB3 PUSH2 0x2C14 JUMP JUMPDEST SWAP5 SWAP1 PUSH1 0x1 DUP1 SWAP5 DUP5 SLOAD AND OR DUP4 SSTORE DUP5 MLOAD SWAP5 DUP1 DUP7 MSTORE DUP6 ADD SWAP1 PUSH2 0x200F JUMP JUMPDEST PUSH1 0x20 DUP5 DUP3 SUB DUP2 DUP7 ADD MSTORE DUP1 DUP1 DUP8 MLOAD SWAP4 DUP5 DUP2 MSTORE ADD SWAP7 ADD SWAP3 JUMPDEST DUP3 DUP2 LT PUSH2 0x1FF0 JUMPI DUP6 DUP8 SUB DUP7 RETURN JUMPDEST DUP4 MLOAD DUP8 MSTORE SWAP6 DUP2 ADD SWAP6 SWAP3 DUP2 ADD SWAP3 DUP5 ADD PUSH2 0x1FE3 JUMP JUMPDEST PUSH4 0x6FDA65D PUSH1 0xE3 SHL DUP2 MSTORE REVERT JUMPDEST SWAP1 DUP2 MLOAD DUP1 DUP3 MSTORE PUSH1 0x20 DUP1 DUP1 SWAP4 ADD SWAP4 ADD SWAP2 PUSH1 0x0 JUMPDEST DUP3 DUP2 LT PUSH2 0x202F JUMPI POP POP POP POP SWAP1 JUMP JUMPDEST DUP4 MLOAD PUSH1 0x1 PUSH1 0x1 PUSH1 0xA0 SHL SUB AND DUP6 MSTORE SWAP4 DUP2 ADD SWAP4 SWAP3 DUP2 ADD SWAP3 PUSH1 0x1 ADD PUSH2 0x2021 JUMP JUMPDEST PUSH1 0x0 JUMPDEST DUP4 DUP2 LT PUSH2 0x205F JUMPI POP POP PUSH1 0x0 SWAP2 ADD MSTORE JUMP JUMPDEST DUP2 DUP2 ADD MLOAD DUP4 DUP3 ADD MSTORE PUSH1 0x20 ADD PUSH2 0x204F JUMP JUMPDEST PUSH1 0x40 SWAP2 PUSH1 0x20 DUP3 MSTORE PUSH2 0x208F DUP2 MLOAD DUP1 SWAP3 DUP2 PUSH1 0x20 DUP7 ADD MSTORE PUSH1 0x20 DUP7 DUP7 ADD SWAP2 ADD PUSH2 0x204C JUMP JUMPDEST PUSH1 0x1F ADD PUSH1 0x1F NOT AND ADD ADD SWAP1 JUMP JUMPDEST PUSH1 0x4 CALLDATALOAD SWAP1 PUSH1 0x1 PUSH1 0x1 PUSH1 0xA0 SHL SUB DUP3 AND DUP3 SUB PUSH2 0xF21 JUMPI JUMP JUMPDEST PUSH1 0x24 CALLDATALOAD SWAP1 PUSH1 0x1 PUSH1 0x1 PUSH1 0xA0 SHL SUB DUP3 AND DUP3 SUB PUSH2 0xF21 JUMPI JUMP JUMPDEST PUSH1 0x44 CALLDATALOAD SWAP1 PUSH1 0x1 PUSH1 0x1 PUSH1 0xA0 SHL SUB DUP3 AND DUP3 SUB PUSH2 0xF21 JUMPI JUMP JUMPDEST SWAP2 DUP2 PUSH1 0x1F DUP5 ADD SLT ISZERO PUSH2 0xF21 JUMPI DUP3 CALLDATALOAD SWAP2 PUSH8 0xFFFFFFFFFFFFFFFF DUP4 GT PUSH2 0xF21 JUMPI PUSH1 0x20 DUP4 DUP2 DUP7 ADD SWAP6 ADD ADD GT PUSH2 0xF21 JUMPI JUMP JUMPDEST SWAP1 PUSH1 0x80 PUSH1 0x3 NOT DUP4 ADD SLT PUSH2 0xF21 JUMPI PUSH1 0x1 PUSH1 0x1 PUSH1 0xA0 SHL SUB SWAP2 PUSH1 0x4 CALLDATALOAD DUP4 DUP2 AND DUP2 SUB PUSH2 0xF21 JUMPI SWAP3 PUSH1 0x24 CALLDATALOAD SWAP1 DUP2 AND DUP2 SUB PUSH2 0xF21 JUMPI SWAP2 PUSH1 0x44 CALLDATALOAD SWAP2 PUSH1 0x64 CALLDATALOAD SWAP1 PUSH8 0xFFFFFFFFFFFFFFFF DUP3 GT PUSH2 0xF21 JUMPI PUSH2 0x215E SWAP2 PUSH1 0x4 ADD PUSH2 0x20DD JUMP JUMPDEST SWAP1 SWAP2 JUMP JUMPDEST SWAP2 SWAP1 DUP3 ADD DUP1 SWAP3 GT PUSH2 0x216F JUMPI JUMP JUMPDEST PUSH4 0x4E487B71 PUSH1 0xE0 SHL PUSH1 0x0 MSTORE PUSH1 0x11 PUSH1 0x4 MSTORE PUSH1 0x24 PUSH1 0x0 REVERT JUMPDEST PUSH9 0x5345CDF77EB68F44C SLOAD DUP1 ISZERO PUSH2 0x21D4 JUMPI DUP1 PUSH2 0x21CC PUSH2 0x21D1 SWAP3 PUSH2 0x21C7 PUSH1 0x1 PUSH1 0x1 PUSH1 0xA0 SHL SUB PUSH1 0x0 SLOAD PUSH1 0x8 SHR AND PUSH12 0xFFFFFFFFFFFFFFFFFFFFFFFF PUSH1 0xB SLOAD AND SWAP1 PUSH2 0x2162 JUMP JUMPDEST PUSH2 0x325B JUMP JUMPDEST PUSH2 0x226F JUMP JUMPDEST SWAP1 JUMP JUMPDEST POP PUSH1 0x9 SLOAD SWAP1 JUMP JUMPDEST SWAP2 SWAP1 DUP3 SUB SWAP2 DUP3 GT PUSH2 0x216F JUMPI JUMP JUMPDEST PUSH8 0xFFFFFFFFFFFFFFFF DUP2 GT PUSH2 0x21FC JUMPI PUSH1 0x40 MSTORE JUMP JUMPDEST PUSH4 0x4E487B71 PUSH1 0xE0 SHL PUSH1 0x0 MSTORE PUSH1 0x41 PUSH1 0x4 MSTORE PUSH1 0x24 PUSH1 0x0 REVERT JUMPDEST PUSH1 0x40 DUP2 ADD SWAP1 DUP2 LT PUSH8 0xFFFFFFFFFFFFFFFF DUP3 GT OR PUSH2 0x21FC JUMPI PUSH1 0x40 MSTORE JUMP JUMPDEST SWAP1 PUSH1 0x1F DUP1 NOT SWAP2 ADD AND DUP2 ADD SWAP1 DUP2 LT PUSH8 0xFFFFFFFFFFFFFFFF DUP3 GT OR PUSH2 0x21FC JUMPI PUSH1 0x40 MSTORE JUMP JUMPDEST SWAP1 DUP2 PUSH1 0x20 SWAP2 SUB SLT PUSH2 0xF21 JUMPI MLOAD PUSH1 0x1 PUSH1 0x1 PUSH1 0xA0 SHL SUB DUP2 AND DUP2 SUB PUSH2 0xF21 JUMPI SWAP1 JUMP JUMPDEST PUSH1 0x9 SLOAD SWAP1 SWAP2 DUP2 DUP4 GT ISZERO PUSH2 0x234F JUMPI PUSH2 0xCE6 PUSH2 0x22A1 PUSH2 0x229B PUSH2 0x2292 PUSH2 0x22A9 SWAP6 DUP8 PUSH2 0x21DB JUMP JUMPDEST PUSH1 0x8 SLOAD SWAP1 PUSH2 0x3230 JUMP JUMPDEST DUP6 PUSH2 0x21DB JUMP JUMPDEST DUP1 SWAP5 DUP4 PUSH2 0x329E JUMP JUMPDEST DUP1 PUSH2 0x22B7 JUMPI JUMPDEST POP DUP1 PUSH1 0x9 SSTORE SWAP1 JUMP JUMPDEST PUSH1 0x40 MLOAD PUSH4 0xB60D15F PUSH1 0xE3 SHL DUP2 MSTORE SWAP1 PUSH1 0x20 DUP3 PUSH1 0x4 DUP2 PUSH32 0x0 PUSH1 0x1 PUSH1 0x1 PUSH1 0xA0 SHL SUB AND GAS STATICCALL DUP1 ISZERO PUSH2 0x2343 JUMPI PUSH2 0x230F SWAP3 PUSH1 0x0 SWAP2 PUSH2 0x2315 JUMPI JUMPDEST POP PUSH2 0x3183 JUMP JUMPDEST CODESIZE PUSH2 0x22AF JUMP JUMPDEST PUSH2 0x2336 SWAP2 POP PUSH1 0x20 RETURNDATASIZE DUP2 GT PUSH2 0x233C JUMPI JUMPDEST PUSH2 0x232E DUP2 DUP4 PUSH2 0x222E JUMP JUMPDEST DUP2 ADD SWAP1 PUSH2 0x2250 JUMP JUMPDEST CODESIZE PUSH2 0x2309 JUMP JUMPDEST POP RETURNDATASIZE PUSH2 0x2324 JUMP JUMPDEST PUSH1 0x40 MLOAD RETURNDATASIZE PUSH1 0x0 DUP3 RETURNDATACOPY RETURNDATASIZE SWAP1 REVERT JUMPDEST POP POP SWAP1 JUMP JUMPDEST SWAP1 DUP1 PUSH1 0x20 SWAP4 SWAP3 DUP2 DUP5 MSTORE DUP5 DUP5 ADD CALLDATACOPY PUSH1 0x0 DUP3 DUP3 ADD DUP5 ADD MSTORE PUSH1 0x1F ADD PUSH1 0x1F NOT AND ADD ADD SWAP1 JUMP JUMPDEST PUSH1 0x40 MLOAD SWAP1 PUSH2 0x2382 DUP3 PUSH2 0x2212 JUMP JUMPDEST PUSH1 0x12 DUP3 MSTORE PUSH32 0x4379676E75733A20426F72726F7761626C650000000000000000000000000000 PUSH1 0x20 DUP4 ADD MSTORE JUMP JUMPDEST PUSH1 0x1 PUSH1 0x1 PUSH1 0xA0 SHL SUB AND PUSH1 0x0 MSTORE PUSH1 0xA PUSH1 0x20 MSTORE PUSH1 0x40 PUSH1 0x0 KECCAK256 SLOAD DUP1 PUSH1 0x80 SHR DUP1 ISZERO PUSH2 0x23F4 JUMPI PUSH2 0x21D1 SWAP2 PUSH1 0x1 PUSH1 0x1 PUSH1 0x80 SHL SUB PUSH10 0xFFFFFFFFFFFFFFFFFFFF PUSH1 0xB SLOAD PUSH1 0x60 SHR AND SWAP2 AND PUSH2 0x329E JUMP JUMPDEST POP POP PUSH1 0x0 SWAP1 JUMP JUMPDEST PUSH1 0xB SLOAD PUSH1 0x8 SLOAD PUSH8 0xDE0B6B3A7640000 SWAP1 DUP2 SUB SWAP1 DUP2 GT PUSH2 0x216F JUMPI PUSH2 0x2429 SWAP1 PUSH6 0xFFFFFFFFFFFF DUP4 PUSH1 0xB0 SHR AND PUSH2 0x3230 JUMP JUMPDEST PUSH1 0x1 PUSH1 0x1 PUSH1 0xA0 SHL SUB PUSH12 0xFFFFFFFFFFFFFFFFFFFFFFFF DUP2 PUSH1 0x0 SLOAD PUSH1 0x8 SHR AND SWAP4 AND DUP1 SWAP4 ADD DUP2 DUP2 GT PUSH2 0x216F JUMPI AND SWAP2 DUP3 ISZERO PUSH2 0x246C JUMPI PUSH2 0x21D1 SWAP3 PUSH2 0x2467 SWAP2 PUSH2 0x325B JUMP JUMPDEST PUSH2 0x3230 JUMP JUMPDEST POP POP POP PUSH1 0x0 SWAP1 JUMP JUMPDEST SWAP2 SWAP1 SWAP2 PUSH2 0x2480 DUP2 PUSH2 0x23AE JUMP JUMPDEST DUP4 ISZERO PUSH2 0x25B1 JUMPI SWAP1 PUSH2 0x2569 SWAP2 PUSH10 0xFFFFFFFFFFFFFFFFFFFF PUSH1 0xB SLOAD PUSH1 0x60 SHR AND SWAP2 PUSH1 0x0 PUSH1 0x1 PUSH1 0x1 PUSH1 0xA0 SHL SUB DUP3 AND DUP2 MSTORE PUSH1 0xA PUSH1 0x20 MSTORE PUSH1 0x40 DUP2 KECCAK256 SWAP7 DUP1 DUP5 GT PUSH1 0x0 EQ PUSH2 0x25A5 JUMPI PUSH2 0x2526 SWAP1 DUP5 SUB DUP1 SWAP5 JUMPDEST PUSH2 0xCE6 DUP3 SWAP11 PUSH1 0x1 PUSH1 0x1 PUSH1 0x80 SHL SUB PUSH2 0x24DF DUP6 PUSH2 0x3362 JUMP JUMPDEST DUP3 SLOAD PUSH16 0xFFFFFFFFFFFFFFFFFFFFFFFFFFFFFFFF NOT AND SWAP2 AND OR DUP2 SSTORE DUP4 PUSH2 0x2573 JUMPI DUP1 SLOAD PUSH1 0x1 PUSH1 0x1 PUSH1 0x80 SHL SUB AND PUSH1 0x80 DUP8 SWAP1 SHL PUSH16 0xFFFFFFFFFFFFFFFFFFFFFFFFFFFFFFFF NOT AND OR SWAP1 SSTORE JUMP JUMPDEST PUSH1 0xB SLOAD SWAP2 PUSH12 0xFFFFFFFFFFFFFFFFFFFFFFFF SWAP2 PUSH2 0x254F SWAP2 DUP4 DUP6 AND SWAP1 DUP3 DUP3 GT ISZERO PUSH2 0x256B JUMPI POP SUB PUSH2 0x333C JUMP JUMPDEST AND SWAP1 PUSH12 0xFFFFFFFFFFFFFFFFFFFFFFFF NOT AND OR PUSH1 0xB SSTORE PUSH2 0x26AB JUMP JUMPDEST JUMP JUMPDEST SWAP2 POP POP PUSH2 0x333C JUMP JUMPDEST PUSH2 0x257C DUP10 PUSH2 0x3362 JUMP JUMPDEST DUP2 SLOAD PUSH1 0x1 PUSH1 0x1 PUSH1 0x80 SHL SUB AND PUSH1 0x80 SWAP2 SWAP1 SWAP2 SHL PUSH16 0xFFFFFFFFFFFFFFFFFFFFFFFFFFFFFFFF NOT AND OR SWAP1 SSTORE JUMP JUMPDEST POP PUSH2 0x2526 DUP2 DUP1 SWAP5 PUSH2 0x24C9 JUMP JUMPDEST SWAP3 POP POP JUMP JUMPDEST SWAP3 SWAP2 SWAP3 PUSH2 0x25C2 DUP2 PUSH2 0x23AE JUMP JUMPDEST DUP5 DUP4 EQ PUSH2 0x26A5 JUMPI PUSH10 0xFFFFFFFFFFFFFFFFFFFF PUSH1 0xB SLOAD PUSH1 0x60 SHR AND SWAP5 PUSH1 0x0 SWAP4 PUSH1 0x1 PUSH1 0x1 PUSH1 0xA0 SHL SUB DUP5 AND DUP6 MSTORE PUSH1 0xA PUSH1 0x20 MSTORE PUSH1 0x40 DUP6 KECCAK256 SWAP5 DUP3 DUP3 GT PUSH1 0x0 EQ PUSH2 0x2669 JUMPI POP SWAP2 PUSH2 0x2617 PUSH2 0x2644 SWAP8 SWAP5 SWAP3 PUSH2 0x2569 SWAP7 SWAP5 SUB DUP1 SWAP3 PUSH2 0x2162 JUMP JUMPDEST SWAP7 DUP8 SWAP4 PUSH1 0x1 PUSH1 0x1 PUSH1 0x80 SHL SUB PUSH2 0x262B DUP7 PUSH2 0x3362 JUMP JUMPDEST AND PUSH1 0x1 PUSH1 0x1 PUSH1 0x80 SHL SUB NOT DUP3 SLOAD AND OR DUP2 SSTORE PUSH2 0x257C DUP7 PUSH2 0x3362 JUMP JUMPDEST PUSH1 0xB SLOAD SWAP1 PUSH2 0x254F PUSH2 0x2664 PUSH12 0xFFFFFFFFFFFFFFFFFFFFFFFF SWAP3 DUP4 DUP6 AND PUSH2 0x2162 JUMP JUMPDEST PUSH2 0x333C JUMP JUMPDEST SWAP1 PUSH2 0x2569 SWAP6 SWAP4 PUSH2 0x2526 SWAP2 PUSH2 0xCE6 SWAP10 SWAP7 SWAP5 SUB DUP1 DUP3 GT PUSH1 0x0 EQ PUSH2 0x269D JUMPI DUP2 SUB SWAP1 JUMPDEST DUP2 SWAP10 DUP11 SWAP7 PUSH1 0x1 PUSH1 0x1 PUSH1 0x80 SHL SUB PUSH2 0x24DF DUP6 PUSH2 0x3362 JUMP JUMPDEST POP DUP3 SWAP1 PUSH2 0x2688 JUMP JUMPDEST SWAP4 POP POP POP JUMP JUMPDEST SWAP2 SWAP1 SWAP2 PUSH1 0x1 PUSH1 0x1 PUSH1 0xA0 SHL SUB SWAP1 DUP2 PUSH1 0x2 SLOAD AND SWAP1 DUP2 ISZERO PUSH2 0x270B JUMPI DUP2 EXTCODESIZE ISZERO PUSH2 0xF21 JUMPI PUSH1 0x0 PUSH1 0x64 SWAP3 DUP2 SWAP6 PUSH1 0x40 MLOAD SWAP8 DUP9 SWAP7 DUP8 SWAP6 PUSH4 0xD98320D5 PUSH1 0xE0 SHL DUP8 MSTORE AND PUSH1 0x4 DUP7 ADD MSTORE PUSH1 0x24 DUP6 ADD MSTORE PUSH1 0x44 DUP5 ADD MSTORE GAS CALL DUP1 ISZERO PUSH2 0x2343 JUMPI PUSH2 0x2702 JUMPI POP JUMP JUMPDEST PUSH2 0x2569 SWAP1 PUSH2 0x21E8 JUMP JUMPDEST POP POP POP POP POP JUMP JUMPDEST PUSH4 0xFFFFFFFF DUP1 TIMESTAMP AND PUSH1 0xB SLOAD DUP1 PUSH1 0xE0 SHR SWAP3 DUP4 DUP4 SUB SWAP4 DUP2 DUP6 GT PUSH2 0x216F JUMPI PUSH12 0xFFFFFFFFFFFFFFFFFFFFFFFF SWAP2 DUP3 DUP5 AND SWAP2 PUSH10 0xFFFFFFFFFFFFFFFFFFFF PUSH1 0x1 PUSH1 0x1 PUSH1 0xA0 SHL SUB PUSH1 0x0 SLOAD PUSH1 0x8 SHR AND SWAP6 PUSH1 0x60 SHR AND SWAP6 EQ DUP1 ISZERO PUSH2 0x288D JUMPI JUMPDEST PUSH2 0x2885 JUMPI PUSH2 0x2775 DUP3 DUP6 PUSH2 0x2895 JUMP JUMPDEST SWAP6 AND SWAP4 DUP5 DUP7 MUL SWAP5 DUP7 DUP7 DIV EQ DUP7 ISZERO OR ISZERO PUSH2 0x216F JUMPI DUP1 PUSH2 0x27AA PUSH2 0x27B0 SWAP3 PUSH2 0x27A4 PUSH2 0x279D DUP7 DUP11 PUSH2 0x3230 JUMP JUMPDEST DUP1 SWAP7 PUSH2 0x2162 JUMP JUMPDEST SWAP8 PUSH2 0x3230 JUMP JUMPDEST SWAP1 PUSH2 0x2162 JUMP JUMPDEST SWAP2 PUSH2 0x27BA DUP6 PUSH2 0x333C JUMP JUMPDEST AND SWAP2 PUSH11 0x100000000000000000000 DUP2 LT ISZERO PUSH2 0x2877 JUMPI PUSH7 0x1000000000000 DUP7 LT ISZERO PUSH2 0x2877 JUMPI PUSH32 0x875352FB3FADEB8C0BE7CBBE8FF761B308FA7033470CD0287F02F3436FD76CB9 SWAP6 PUSH28 0xFFFFFFFFFFFF00000000000000000000000000000000000000000000 PUSH2 0x2872 SWAP5 PUSH22 0xFFFFFFFFFFFFFFFFFFFF000000000000000000000000 PUSH4 0xFFFFFFFF PUSH1 0xE0 SHL TIMESTAMP PUSH1 0xE0 SHL AND SWAP5 PUSH1 0x60 SHL AND OR SWAP2 PUSH1 0xB0 SHL AND OR OR PUSH1 0xB SSTORE PUSH1 0x40 MLOAD SWAP4 DUP5 SWAP4 DUP5 PUSH1 0x40 SWAP2 SWAP5 SWAP4 SWAP3 PUSH1 0x60 DUP3 ADD SWAP6 DUP3 MSTORE PUSH1 0x20 DUP3 ADD MSTORE ADD MSTORE JUMP JUMPDEST SUB SWAP1 LOG1 JUMP JUMPDEST PUSH4 0x35278D12 PUSH1 0x0 MSTORE PUSH1 0x4 PUSH1 0x1C REVERT JUMPDEST POP POP POP POP POP POP JUMP JUMPDEST POP DUP2 ISZERO PUSH2 0x2767 JUMP JUMPDEST SWAP1 PUSH2 0xCFB DUP2 PUSH2 0x28A3 SWAP4 PUSH2 0x2162 JUMP JUMPDEST PUSH1 0x6 SLOAD DUP1 DUP3 GT ISZERO PUSH2 0x28E5 JUMPI SWAP1 PUSH2 0x28E0 PUSH2 0x28D7 PUSH2 0x21D1 SWAP4 PUSH2 0x28D1 PUSH2 0x28C8 PUSH1 0x4 SLOAD DUP4 PUSH2 0x3230 JUMP JUMPDEST PUSH1 0x3 SLOAD SWAP1 PUSH2 0x2162 JUMP JUMPDEST SWAP4 PUSH2 0x21DB JUMP JUMPDEST PUSH1 0x5 SLOAD SWAP1 PUSH2 0x3230 JUMP JUMPDEST PUSH2 0x2162 JUMP JUMPDEST POP PUSH2 0x28C8 PUSH2 0x21D1 SWAP2 PUSH1 0x4 SLOAD SWAP1 PUSH2 0x3230 JUMP JUMPDEST PUSH1 0x40 MLOAD SWAP1 PUSH4 0x140E25AD PUSH1 0xE3 SHL DUP3 MSTORE PUSH1 0x4 DUP3 ADD MSTORE PUSH1 0x20 DUP2 PUSH1 0x24 DUP2 PUSH1 0x0 PUSH20 0xEC8FEA79026FFED168CCF5C627C7F486D77B765F GAS CALL SWAP1 DUP2 ISZERO PUSH2 0x2343 JUMPI PUSH1 0x0 SWAP2 PUSH2 0x2950 JUMPI JUMPDEST POP PUSH2 0x293E JUMPI JUMP JUMPDEST PUSH1 0x40 MLOAD PUSH4 0x39D7BE8D PUSH1 0xE2 SHL DUP2 MSTORE PUSH1 0x4 SWAP1 REVERT JUMPDEST SWAP1 PUSH1 0x20 DUP3 RETURNDATASIZE DUP3 GT PUSH2 0x2979 JUMPI JUMPDEST DUP2 PUSH2 0x2969 PUSH1 0x20 SWAP4 DUP4 PUSH2 0x222E JUMP JUMPDEST DUP2 ADD SUB SLT PUSH2 0x961 JUMPI POP MLOAD CODESIZE PUSH2 0x2937 JUMP JUMPDEST RETURNDATASIZE SWAP2 POP PUSH2 0x295C JUMP JUMPDEST PUSH1 0x40 MLOAD SWAP1 PUSH4 0x852A12E3 PUSH1 0xE0 SHL DUP3 MSTORE PUSH1 0x4 DUP3 ADD MSTORE PUSH1 0x20 DUP2 PUSH1 0x24 DUP2 PUSH1 0x0 PUSH20 0xEC8FEA79026FFED168CCF5C627C7F486D77B765F GAS CALL SWAP1 DUP2 ISZERO PUSH2 0x2343 JUMPI PUSH1 0x0 SWAP2 PUSH2 0x2950 JUMPI POP PUSH2 0x293E JUMPI JUMP JUMPDEST PUSH1 0x40 MLOAD PUSH4 0x6EB1769F PUSH1 0xE1 SHL DUP2 MSTORE ADDRESS PUSH1 0x4 DUP3 ADD MSTORE PUSH1 0x1 PUSH1 0x1 PUSH1 0xA0 SHL SUB DUP4 AND PUSH1 0x24 DUP3 ADD MSTORE SWAP2 SWAP1 PUSH1 0x20 DUP4 DUP1 PUSH1 0x44 DUP2 ADD SUB DUP2 PUSH1 0x1 PUSH1 0x1 PUSH1 0xA0 SHL SUB DUP6 AND GAS STATICCALL SWAP3 DUP4 ISZERO PUSH2 0x2343 JUMPI PUSH1 0x0 SWAP4 PUSH2 0x2A64 JUMPI JUMPDEST POP PUSH1 0x0 NOT DUP1 SWAP4 LT ISZERO PUSH2 0x2A5F JUMPI PUSH1 0x10 PUSH1 0x0 PUSH1 0x44 SWAP3 PUSH1 0x20 SWAP6 DUP3 SWAP6 PUSH1 0x14 MSTORE PUSH1 0x34 MSTORE PUSH4 0x95EA7B3 PUSH1 0x60 SHL DUP3 MSTORE GAS CALL RETURNDATASIZE ISZERO PUSH1 0x1 PUSH1 0x0 MLOAD EQ OR AND ISZERO PUSH2 0x2A51 JUMPI PUSH1 0x0 PUSH1 0x34 MSTORE JUMP JUMPDEST PUSH4 0x3E3F8F73 PUSH1 0x0 MSTORE PUSH1 0x4 PUSH1 0x1C REVERT JUMPDEST POP POP POP JUMP JUMPDEST SWAP1 SWAP3 PUSH1 0x20 DUP3 RETURNDATASIZE DUP3 GT PUSH2 0x2A8F JUMPI JUMPDEST DUP2 PUSH2 0x2A7E PUSH1 0x20 SWAP4 DUP4 PUSH2 0x222E JUMP JUMPDEST DUP2 ADD SUB SLT PUSH2 0x961 JUMPI POP MLOAD SWAP2 CODESIZE PUSH2 0x2A11 JUMP JUMPDEST RETURNDATASIZE SWAP2 POP PUSH2 0x2A71 JUMP JUMPDEST PUSH1 0x40 MLOAD PUSH4 0x6EB1769F PUSH1 0xE1 SHL DUP2 MSTORE ADDRESS PUSH1 0x4 DUP3 ADD MSTORE PUSH20 0xEC8FEA79026FFED168CCF5C627C7F486D77B765F PUSH1 0x24 DUP3 ADD DUP2 SWAP1 MSTORE SWAP1 SWAP2 PUSH1 0x20 DUP4 PUSH1 0x44 DUP2 PUSH1 0x1 PUSH1 0x1 PUSH1 0xA0 SHL SUB DUP6 AND GAS STATICCALL SWAP3 DUP4 ISZERO PUSH2 0x2343 JUMPI PUSH1 0x0 SWAP4 PUSH2 0x2A64 JUMPI POP PUSH1 0x0 NOT DUP1 SWAP4 LT ISZERO PUSH2 0x2A5F JUMPI PUSH1 0x10 PUSH1 0x0 PUSH1 0x44 SWAP3 PUSH1 0x20 SWAP6 DUP3 SWAP6 PUSH1 0x14 MSTORE PUSH1 0x34 MSTORE PUSH4 0x95EA7B3 PUSH1 0x60 SHL DUP3 MSTORE GAS CALL RETURNDATASIZE ISZERO PUSH1 0x1 PUSH1 0x0 MLOAD EQ OR AND ISZERO PUSH2 0x2A51 JUMPI PUSH1 0x0 PUSH1 0x34 MSTORE JUMP JUMPDEST PUSH1 0x40 MLOAD PUSH4 0x6EB1769F PUSH1 0xE1 SHL DUP2 MSTORE ADDRESS PUSH1 0x4 DUP3 ADD MSTORE PUSH20 0xDC05D85069DC4ABA65954008FF99F2D73FF12618 PUSH1 0x24 DUP3 ADD DUP2 SWAP1 MSTORE PUSH20 0x1DB2466D9F5E10D7090E7152B68D62703A2245F0 PUSH1 0x20 DUP4 PUSH1 0x44 DUP2 DUP5 GAS STATICCALL SWAP3 DUP4 ISZERO PUSH2 0x2343 JUMPI PUSH1 0x0 SWAP4 PUSH2 0x2A64 JUMPI POP PUSH1 0x0 NOT DUP1 SWAP4 LT ISZERO PUSH2 0x2A5F JUMPI PUSH1 0x10 PUSH1 0x0 PUSH1 0x44 SWAP3 PUSH1 0x20 SWAP6 DUP3 SWAP6 PUSH1 0x14 MSTORE PUSH1 0x34 MSTORE PUSH4 0x95EA7B3 PUSH1 0x60 SHL DUP3 MSTORE GAS CALL RETURNDATASIZE ISZERO PUSH1 0x1 PUSH1 0x0 MLOAD EQ OR AND ISZERO PUSH2 0x2A51 JUMPI PUSH1 0x0 PUSH1 0x34 MSTORE JUMP JUMPDEST PUSH8 0xFFFFFFFFFFFFFFFF DUP2 GT PUSH2 0x21FC JUMPI PUSH1 0x5 SHL PUSH1 0x20 ADD SWAP1 JUMP JUMPDEST DUP1 MLOAD DUP3 LT ISZERO PUSH2 0x2BEF JUMPI PUSH1 0x20 SWAP2 PUSH1 0x5 SHL ADD ADD SWAP1 JUMP JUMPDEST PUSH4 0x4E487B71 PUSH1 0xE0 SHL PUSH1 0x0 MSTORE PUSH1 0x32 PUSH1 0x4 MSTORE PUSH1 0x24 PUSH1 0x0 REVERT JUMPDEST PUSH1 0x0 NOT DUP2 EQ PUSH2 0x216F JUMPI PUSH1 0x1 ADD SWAP1 JUMP JUMPDEST PUSH1 0x0 SWAP1 PUSH1 0x40 SWAP1 DUP2 MLOAD PUSH2 0x2C25 DUP2 PUSH2 0x2212 JUMP JUMPDEST PUSH1 0x1 DUP2 MSTORE PUSH1 0x20 SWAP3 DUP4 DUP3 ADD DUP5 CALLDATASIZE DUP3 CALLDATACOPY DUP3 MLOAD ISZERO PUSH2 0x2F77 JUMPI PUSH20 0xEC8FEA79026FFED168CCF5C627C7F486D77B765F SWAP1 MSTORE PUSH20 0x60CF091CD3F50420D50FD7F707414D0DF4751C58 SWAP2 DUP3 EXTCODESIZE ISZERO PUSH2 0xE1E JUMPI DUP2 MLOAD PUSH3 0xE1ED97 PUSH1 0xE5 SHL DUP2 MSTORE DUP7 DUP2 PUSH1 0x4 SWAP6 ADDRESS DUP8 DUP4 ADD MSTORE DUP2 DUP4 DUP2 PUSH2 0x2C9B PUSH1 0x24 SWAP9 DUP11 DUP11 DUP5 ADD MSTORE PUSH1 0x44 DUP4 ADD SWAP1 PUSH2 0x200F JUMP JUMPDEST SUB SWAP3 GAS CALL DUP1 ISZERO PUSH2 0x2F6D JUMPI PUSH2 0x2F5A JUMPI JUMPDEST POP DUP2 MLOAD PUSH4 0xD1058E59 PUSH1 0xE0 SHL DUP2 MSTORE PUSH20 0xDC05D85069DC4ABA65954008FF99F2D73FF12618 SWAP7 SWAP1 DUP2 DUP2 DUP7 DUP2 DUP4 DUP13 GAS CALL SWAP1 DUP2 ISZERO PUSH2 0x2F50 JUMPI DUP3 SWAP2 PUSH2 0x2EC0 JUMPI JUMPDEST POP ADDRESS PUSH1 0x14 MSTORE PUSH16 0x70A08231000000000000000000000000 DUP3 MSTORE DUP7 DUP1 DUP5 PUSH1 0x10 PUSH20 0x1DB2466D9F5E10D7090E7152B68D62703A2245F0 GAS STATICCALL PUSH1 0x1F RETURNDATASIZE GT AND DUP8 MLOAD MUL DUP1 PUSH2 0x2E6E JUMPI JUMPDEST POP MLOAD SWAP3 PUSH1 0x0 NOT SWAP3 DUP4 DUP6 ADD SWAP5 DUP6 GT PUSH2 0x2E5D JUMPI PUSH2 0x2D40 DUP6 PUSH2 0x2BC3 JUMP JUMPDEST SWAP3 PUSH2 0x2D4D DUP4 MLOAD SWAP5 DUP6 PUSH2 0x222E JUMP JUMPDEST DUP6 DUP5 MSTORE PUSH1 0x1F NOT SWAP5 DUP6 PUSH2 0x2D5E DUP9 PUSH2 0x2BC3 JUMP JUMPDEST ADD CALLDATASIZE DUP12 DUP8 ADD CALLDATACOPY DUP5 SWAP11 PUSH2 0x2D6F DUP9 PUSH2 0x2BC3 JUMP JUMPDEST SWAP7 PUSH2 0x2D7C DUP7 MLOAD SWAP9 DUP10 PUSH2 0x222E JUMP JUMPDEST DUP9 DUP9 MSTORE PUSH2 0x2D88 DUP10 PUSH2 0x2BC3 JUMP JUMPDEST ADD CALLDATASIZE DUP13 DUP10 ADD CALLDATACOPY DUP7 SWAP11 PUSH1 0x1 JUMPDEST DUP10 DUP2 GT ISZERO PUSH2 0x2DA8 JUMPI POP POP POP POP POP POP POP POP POP POP POP JUMP JUMPDEST DUP7 MLOAD PUSH4 0x27B2595F PUSH1 0xE1 SHL DUP2 MSTORE DUP12 DUP2 ADD DUP3 SWAP1 MSTORE DUP3 DUP2 DUP9 DUP2 DUP10 DUP9 GAS CALL SWAP1 DUP2 ISZERO PUSH2 0x2E53 JUMPI DUP7 SWAP2 PUSH2 0x2E36 JUMPI JUMPDEST POP DUP5 DUP3 ADD SWAP1 DUP3 DUP3 GT PUSH2 0x2E24 JUMPI SWAP1 PUSH2 0x2E19 PUSH2 0x2E12 DUP12 PUSH2 0x2E1F SWAP6 SWAP5 PUSH2 0x2DF3 DUP6 DUP4 PUSH2 0x2BDB JUMP JUMPDEST PUSH1 0x1 PUSH1 0x1 PUSH1 0xA0 SHL SUB DUP1 SWAP3 AND SWAP1 MSTORE PUSH2 0x2E0B DUP6 ADDRESS SWAP4 PUSH2 0x2BDB JUMP JUMPDEST MLOAD AND PUSH2 0x33F9 JUMP JUMPDEST SWAP2 DUP13 PUSH2 0x2BDB JUMP JUMPDEST MSTORE PUSH2 0x2C05 JUMP JUMPDEST PUSH2 0x2D93 JUMP JUMPDEST PUSH4 0x4E487B71 PUSH1 0xE0 SHL DUP8 MSTORE PUSH1 0x11 DUP14 MSTORE DUP8 DUP8 REVERT JUMPDEST PUSH2 0x2E4D SWAP2 POP DUP4 RETURNDATASIZE DUP6 GT PUSH2 0x233C JUMPI PUSH2 0x232E DUP2 DUP4 PUSH2 0x222E JUMP JUMPDEST CODESIZE PUSH2 0x2DD0 JUMP JUMPDEST DUP9 MLOAD RETURNDATASIZE DUP9 DUP3 RETURNDATACOPY RETURNDATASIZE SWAP1 REVERT JUMPDEST PUSH4 0x4E487B71 PUSH1 0xE0 SHL DUP4 MSTORE PUSH1 0x11 DUP7 MSTORE DUP3 REVERT JUMPDEST DUP9 EXTCODESIZE ISZERO PUSH2 0x2FD JUMPI DUP5 MLOAD SWAP1 PUSH4 0x140E25AD PUSH1 0xE3 SHL DUP3 MSTORE DUP7 DUP3 ADD MSTORE DUP3 DUP2 DUP6 DUP2 DUP4 DUP14 GAS CALL DUP1 ISZERO PUSH2 0x2EB6 JUMPI SWAP1 DUP4 SWAP2 PUSH2 0x2EA2 JUMPI JUMPDEST POP PUSH2 0x2D26 JUMP JUMPDEST PUSH2 0x2EAB SWAP1 PUSH2 0x21E8 JUMP JUMPDEST PUSH2 0x330 JUMPI DUP2 CODESIZE PUSH2 0x2E9C JUMP JUMPDEST DUP6 MLOAD RETURNDATASIZE DUP6 DUP3 RETURNDATACOPY RETURNDATASIZE SWAP1 REVERT JUMPDEST SWAP1 POP RETURNDATASIZE DUP1 DUP4 DUP4 RETURNDATACOPY PUSH2 0x2ED1 DUP2 DUP4 PUSH2 0x222E JUMP JUMPDEST DUP2 ADD SWAP1 DUP8 DUP2 DUP4 SUB SLT PUSH2 0x2FD JUMPI DUP1 MLOAD SWAP1 PUSH8 0xFFFFFFFFFFFFFFFF DUP3 GT PUSH2 0xF2E JUMPI ADD SWAP1 DUP1 PUSH1 0x1F DUP4 ADD SLT ISZERO PUSH2 0x2FD JUMPI DUP2 MLOAD PUSH2 0x2F07 DUP2 PUSH2 0x2BC3 JUMP JUMPDEST SWAP3 PUSH2 0x2F14 DUP8 MLOAD SWAP5 DUP6 PUSH2 0x222E JUMP JUMPDEST DUP2 DUP5 MSTORE DUP10 DUP1 DUP6 ADD SWAP3 PUSH1 0x5 SHL DUP3 ADD ADD SWAP3 DUP4 GT PUSH2 0xF13 JUMPI DUP10 DUP1 SWAP2 ADD SWAP2 JUMPDEST DUP4 DUP4 LT PUSH2 0x2F40 JUMPI POP POP POP POP CODESIZE PUSH2 0x2CE4 JUMP JUMPDEST DUP3 MLOAD DUP2 MSTORE SWAP2 DUP2 ADD SWAP2 DUP11 SWAP2 ADD PUSH2 0x2F2F JUMP JUMPDEST DUP5 MLOAD RETURNDATASIZE DUP5 DUP3 RETURNDATACOPY RETURNDATASIZE SWAP1 REVERT JUMPDEST PUSH2 0x2F66 SWAP1 SWAP7 SWAP2 SWAP7 PUSH2 0x21E8 JUMP JUMPDEST SWAP5 CODESIZE PUSH2 0x2CAA JUMP JUMPDEST DUP4 MLOAD RETURNDATASIZE DUP10 DUP3 RETURNDATACOPY RETURNDATASIZE SWAP1 REVERT JUMPDEST PUSH4 0x4E487B71 PUSH1 0xE0 SHL DUP7 MSTORE PUSH1 0x32 PUSH1 0x4 MSTORE PUSH1 0x24 DUP7 REVERT JUMPDEST PUSH1 0x40 MLOAD PUSH4 0x3E14691 PUSH1 0xE6 SHL DUP2 MSTORE PUSH1 0x1 PUSH1 0x1 PUSH1 0xA0 SHL SUB SWAP1 PUSH1 0x20 DUP2 PUSH1 0x4 DUP2 PUSH32 0x0 DUP7 AND GAS STATICCALL SWAP1 DUP2 ISZERO PUSH2 0x2343 JUMPI PUSH1 0x0 SWAP2 PUSH2 0x2FF7 JUMPI JUMPDEST POP AND CALLER SUB PUSH2 0x2FE5 JUMPI JUMP JUMPDEST PUSH1 0x40 MLOAD PUSH4 0x31D63AD1 PUSH1 0xE1 SHL DUP2 MSTORE PUSH1 0x4 SWAP1 REVERT JUMPDEST PUSH2 0x300F SWAP2 POP PUSH1 0x20 RETURNDATASIZE DUP2 GT PUSH2 0x233C JUMPI PUSH2 0x232E DUP2 DUP4 PUSH2 0x222E JUMP JUMPDEST CODESIZE PUSH2 0x2FDB JUMP JUMPDEST PUSH32 0x3145C2B643834867F2C0A8CAC8A48218307687911615C0ED01412A09DD163B66 PUSH1 0x20 PUSH2 0x3048 PUSH2 0x3043 PUSH2 0x309F JUMP JUMPDEST PUSH2 0x3387 JUMP JUMPDEST PUSH1 0x0 SLOAD PUSH32 0xFFFFFFFFFFFFFFFFFFFFFF0000000000000000000000000000000000000000FF PUSH21 0xFFFFFFFFFFFFFFFFFFFFFFFFFFFFFFFFFFFFFFFF00 DUP4 PUSH1 0x8 SHL AND SWAP2 AND OR PUSH1 0x0 SSTORE PUSH1 0x1 PUSH1 0x1 PUSH1 0xA0 SHL SUB PUSH1 0x40 MLOAD SWAP2 AND DUP2 MSTORE LOG1 JUMP JUMPDEST PUSH1 0x40 MLOAD PUSH4 0x3AF9E669 PUSH1 0xE0 SHL DUP2 MSTORE ADDRESS PUSH1 0x4 DUP3 ADD MSTORE PUSH1 0x20 DUP2 PUSH1 0x24 DUP2 PUSH1 0x0 PUSH20 0xEC8FEA79026FFED168CCF5C627C7F486D77B765F GAS CALL SWAP1 DUP2 ISZERO PUSH2 0x2343 JUMPI PUSH1 0x0 SWAP2 PUSH2 0x30E3 JUMPI POP SWAP1 JUMP JUMPDEST SWAP1 PUSH1 0x20 DUP3 RETURNDATASIZE DUP3 GT PUSH2 0x3109 JUMPI JUMPDEST DUP2 PUSH2 0x30FC PUSH1 0x20 SWAP4 DUP4 PUSH2 0x222E JUMP JUMPDEST DUP2 ADD SUB SLT PUSH2 0x961 JUMPI POP MLOAD SWAP1 JUMP JUMPDEST RETURNDATASIZE SWAP2 POP PUSH2 0x30EF JUMP JUMPDEST PUSH1 0xA0 PUSH1 0x40 MLOAD PUSH2 0x311E PUSH2 0x2375 JUMP JUMPDEST PUSH1 0x20 DUP2 MLOAD SWAP2 ADD KECCAK256 PUSH32 0x8B73C3C69BB8FE3D512ECC4CF759CC79239F7B179B0FFACAA9A75D522B39400F DUP3 MSTORE PUSH1 0x20 DUP3 ADD MSTORE PUSH32 0xC89EFDAA54C0F20C7ADF612882DF0950F5A951637E0307CDCB4C672F298B8BC6 PUSH1 0x40 DUP3 ADD MSTORE CHAINID PUSH1 0x60 DUP3 ADD MSTORE ADDRESS PUSH1 0x80 DUP3 ADD MSTORE KECCAK256 SWAP1 JUMP JUMPDEST PUSH9 0x5345CDF77EB68F44C DUP1 SLOAD SWAP1 DUP4 DUP3 ADD SWAP2 DUP3 LT PUSH2 0x31E3 JUMPI SSTORE PUSH4 0x87A211A2 PUSH1 0xC MSTORE PUSH1 0x0 MSTORE PUSH1 0x20 PUSH1 0xC KECCAK256 DUP2 DUP2 SLOAD ADD SWAP1 SSTORE PUSH1 0x20 MSTORE PUSH1 0xC MLOAD PUSH1 0x60 SHR PUSH1 0x0 PUSH32 0xDDF252AD1BE2C89B69C2B068FC378DAA952BA7F163C4A11628F55A4DF523B3EF PUSH1 0x20 DUP1 LOG3 JUMP JUMPDEST PUSH4 0xE5CFE957 PUSH1 0x0 MSTORE PUSH1 0x4 PUSH1 0x1C REVERT JUMPDEST SWAP1 PUSH1 0x20 MSTORE PUSH4 0x7F5E9F20 PUSH1 0xC MSTORE PUSH1 0x0 MSTORE PUSH1 0x34 PUSH1 0xC KECCAK256 SWAP1 DUP2 SLOAD PUSH1 0x0 NOT DUP2 SUB PUSH2 0x3216 JUMPI POP POP POP JUMP JUMPDEST DUP1 DUP3 GT PUSH2 0x3222 JUMPI SUB SWAP1 SSTORE JUMP JUMPDEST PUSH4 0x13BE252B PUSH1 0x0 MSTORE PUSH1 0x4 PUSH1 0x1C REVERT JUMPDEST SWAP1 DUP1 PUSH1 0x0 NOT DIV DUP3 GT DUP2 MUL PUSH2 0x324D JUMPI PUSH8 0xDE0B6B3A7640000 SWAP2 MUL DIV SWAP1 JUMP JUMPDEST PUSH4 0xBAC65E5B PUSH1 0x0 MSTORE PUSH1 0x4 PUSH1 0x1C REVERT JUMPDEST PUSH8 0xDE0B6B3A7640000 SWAP1 PUSH25 0x12725DD1D243ABA0E75FE645CC4873F9E65AFE688C928E1F21 DUP2 GT DUP3 MUL ISZERO DUP4 MUL ISZERO PUSH2 0x3290 JUMPI MUL DIV SWAP1 JUMP JUMPDEST PUSH4 0x7C5F487D PUSH1 0x0 MSTORE PUSH1 0x4 PUSH1 0x1C REVERT JUMPDEST SWAP2 PUSH1 0x0 SWAP3 DUP3 DUP2 MUL SWAP3 PUSH1 0x0 NOT DUP2 DUP4 MULMOD SWAP2 DUP5 DUP4 LT DUP6 ADD DUP1 DUP5 SUB SWAP4 EQ PUSH2 0x3320 JUMPI DUP3 DUP5 GT ISZERO PUSH2 0x3313 JUMPI SWAP1 DUP4 SWAP2 MULMOD SWAP1 PUSH1 0x1 DUP4 DUP7 SUB DUP5 AND DUP1 DUP1 DUP1 SWAP7 DIV PUSH1 0x2 DUP1 DUP3 PUSH1 0x3 MUL XOR DUP1 DUP4 MUL DUP3 SUB MUL DUP1 DUP4 MUL DUP3 SUB MUL DUP1 DUP4 MUL DUP3 SUB MUL DUP1 DUP4 MUL DUP3 SUB MUL DUP1 DUP4 MUL DUP3 SUB MUL DUP1 SWAP3 MUL SWAP1 SUB MUL SWAP8 SUB DIV ADD SWAP1 DUP5 DUP4 GT SWAP1 SUB MUL SWAP3 SUB DIV OR MUL SWAP1 JUMP JUMPDEST PUSH4 0xAE47F702 DUP7 MSTORE PUSH1 0x4 PUSH1 0x1C REVERT JUMPDEST POP POP POP SWAP2 DUP3 ISZERO PUSH2 0x332F JUMPI POP DIV SWAP1 JUMP JUMPDEST PUSH4 0xAE47F702 SWAP1 MSTORE PUSH1 0x4 PUSH1 0x1C REVERT JUMPDEST PUSH13 0x1000000000000000000000000 DUP2 LT ISZERO PUSH2 0x2877 JUMPI PUSH12 0xFFFFFFFFFFFFFFFFFFFFFFFF AND SWAP1 JUMP JUMPDEST PUSH17 0x100000000000000000000000000000000 DUP2 LT ISZERO PUSH2 0x2877 JUMPI PUSH1 0x1 PUSH1 0x1 PUSH1 0x80 SHL SUB AND SWAP1 JUMP JUMPDEST PUSH21 0x10000000000000000000000000000000000000000 DUP2 LT ISZERO PUSH2 0x2877 JUMPI PUSH1 0x1 PUSH1 0x1 PUSH1 0xA0 SHL SUB AND SWAP1 JUMP JUMPDEST PUSH1 0x10 SWAP3 PUSH1 0x20 SWAP3 PUSH1 0x14 MSTORE PUSH1 0x34 MSTORE PUSH1 0x44 PUSH1 0x0 SWAP4 DUP5 DUP1 SWAP4 PUSH16 0xA9059CBB000000000000000000000000 DUP3 MSTORE GAS CALL RETURNDATASIZE ISZERO PUSH1 0x1 DUP4 MLOAD EQ OR AND ISZERO PUSH2 0x33EC JUMPI PUSH1 0x34 MSTORE JUMP JUMPDEST PUSH4 0x90B8EC18 SWAP1 MSTORE PUSH1 0x4 PUSH1 0x1C REVERT JUMPDEST PUSH1 0x24 PUSH1 0x10 PUSH1 0x20 SWAP4 SWAP3 DUP5 SWAP4 PUSH1 0x14 MSTORE PUSH16 0x70A08231000000000000000000000000 PUSH1 0x0 MSTORE GAS STATICCALL PUSH1 0x1F RETURNDATASIZE GT AND PUSH1 0x20 MLOAD MUL SWAP1 JUMP INVALID LOG2 PUSH5 0x6970667358 0x22 SLT KECCAK256 PUSH10 0x7740A96364DE7EC5F23A 0xDA 0xE0 CHAINID 0xBE PC PUSH10 0x2B794A4D1E2D5EFFD364 SUB 0x4B 0xC4 PUSH20 0x7964736F6C634300081100330000000000000000 "},"methodIdentifiers":{"borrowableInitCodeHash()":"b3984b8d","deployAlbireo(address,address,address,uint256)":"9ba991f8","shuttleParameters()":"5a412e53"}}}}}