{
  "contracts/cygnus-oracle/libraries/UQ112x112.sol": {
    "UQ112x112": {
      "abi": [
        {
          "inputs": [],
          "name": "Q112",
          "outputs": [
            {
              "internalType": "uint224",
              "name": "",
              "type": "uint224"
            }
          ],
          "stateMutability": "view",
          "type": "function"
        }
      ],
      "evm": {
        "bytecode": {
          "linkReferences": {},
          "object": "60b4610038600b82828239805160001a607314602b57634e487b7160e01b600052600060045260246000fd5b30600052607381538281f3fe730000000000000000000000000000000000000000301460806040526004361060335760003560e01c80633bf7a83e146038575b600080fd5b604d6e01000000000000000000000000000081565b6040517bffffffffffffffffffffffffffffffffffffffffffffffffffffffff909116815260200160405180910390f3fea26469706673582212200356db4f99d35573169a78c3869fa0b5d21714c36e07435d5ee3654e014ba18164736f6c63430008040033",
          "opcodes": "PUSH1 0xB4 PUSH2 0x38 PUSH1 0xB DUP3 DUP3 DUP3 CODECOPY DUP1 MLOAD PUSH1 0x0 BYTE PUSH1 0x73 EQ PUSH1 0x2B JUMPI PUSH4 0x4E487B71 PUSH1 0xE0 SHL PUSH1 0x0 MSTORE PUSH1 0x0 PUSH1 0x4 MSTORE PUSH1 0x24 PUSH1 0x0 REVERT JUMPDEST ADDRESS PUSH1 0x0 MSTORE PUSH1 0x73 DUP2 MSTORE8 DUP3 DUP2 RETURN INVALID PUSH20 0x0 ADDRESS EQ PUSH1 0x80 PUSH1 0x40 MSTORE PUSH1 0x4 CALLDATASIZE LT PUSH1 0x33 JUMPI PUSH1 0x0 CALLDATALOAD PUSH1 0xE0 SHR DUP1 PUSH4 0x3BF7A83E EQ PUSH1 0x38 JUMPI JUMPDEST PUSH1 0x0 DUP1 REVERT JUMPDEST PUSH1 0x4D PUSH15 0x10000000000000000000000000000 DUP2 JUMP JUMPDEST PUSH1 0x40 MLOAD PUSH28 0xFFFFFFFFFFFFFFFFFFFFFFFFFFFFFFFFFFFFFFFFFFFFFFFFFFFFFFFF SWAP1 SWAP2 AND DUP2 MSTORE PUSH1 0x20 ADD PUSH1 0x40 MLOAD DUP1 SWAP2 SUB SWAP1 RETURN INVALID LOG2 PUSH5 0x6970667358 0x22 SLT KECCAK256 SUB JUMP 0xDB 0x4F SWAP10 0xD3 SSTORE PUSH20 0x169A78C3869FA0B5D21714C36E07435D5EE3654E ADD 0x4B LOG1 DUP2 PUSH5 0x736F6C6343 STOP ADDMOD DIV STOP CALLER "
        },
        "methodIdentifiers": {
          "Q112()": "3bf7a83e"
        }
      }
    }
  }
}