{"contracts/cygnus-core/CygnusCollateral.sol":{"CygnusCollateral":{"abi":[{"inputs":[],"name":"AllowanceOverflow","type":"error"},{"inputs":[],"name":"AllowanceUnderflow","type":"error"},{"inputs":[],"name":"CygnusCollateralControl__ParameterNotInRange","type":"error"},{"inputs":[],"name":"CygnusCollateralModel__BorrowerCantBeAddressZero","type":"error"},{"inputs":[],"name":"CygnusCollateralModel__BorrowerCantBeCollateral","type":"error"},{"inputs":[],"name":"CygnusCollateralModel__PriceCantBeZero","type":"error"},{"inputs":[],"name":"CygnusCollateralVoid__OnlyHarvesterAllowed","type":"error"},{"inputs":[],"name":"CygnusCollateral__CantLiquidateZero","type":"error"},{"inputs":[],"name":"CygnusCollateral__CantRedeemZero","type":"error"},{"inputs":[],"name":"CygnusCollateral__InsufficientCygLPReceived","type":"error"},{"inputs":[],"name":"CygnusCollateral__InsufficientLiquidity","type":"error"},{"inputs":[],"name":"CygnusCollateral__MsgSenderNotBorrowable","type":"error"},{"inputs":[],"name":"CygnusCollateral__NotLiquidatable","type":"error"},{"inputs":[],"name":"CygnusCollateral__RedeemAmountInvalid","type":"error"},{"inputs":[],"name":"CygnusTerminal__CantMintZeroShares","type":"error"},{"inputs":[],"name":"CygnusTerminal__CantRedeemZeroAssets","type":"error"},{"inputs":[],"name":"CygnusTerminal__CantSweepUnderlying","type":"error"},{"inputs":[],"name":"CygnusTerminal__MsgSenderNotAdmin","type":"error"},{"inputs":[],"name":"InsufficientAllowance","type":"error"},{"inputs":[],"name":"InsufficientBalance","type":"error"},{"inputs":[],"name":"InvalidPermit","type":"error"},{"inputs":[],"name":"PermitExpired","type":"error"},{"inputs":[],"name":"ReentrantCall","type":"error"},{"inputs":[],"name":"TotalSupplyOverflow","type":"error"},{"anonymous":false,"inputs":[{"indexed":true,"internalType":"address","name":"owner","type":"address"},{"indexed":true,"internalType":"address","name":"spender","type":"address"},{"indexed":false,"internalType":"uint256","name":"amount","type":"uint256"}],"name":"Approval","type":"event"},{"anonymous":false,"inputs":[{"indexed":false,"internalType":"address","name":"underlying","type":"address"},{"indexed":false,"internalType":"uint256","name":"shuttleId","type":"uint256"},{"indexed":false,"internalType":"address","name":"sender","type":"address"}],"name":"ChargeVoid","type":"event"},{"anonymous":false,"inputs":[{"indexed":true,"internalType":"address","name":"sender","type":"address"},{"indexed":true,"internalType":"address","name":"recipient","type":"address"},{"indexed":false,"internalType":"uint256","name":"assets","type":"uint256"},{"indexed":false,"internalType":"uint256","name":"shares","type":"uint256"}],"name":"Deposit","type":"event"},{"anonymous":false,"inputs":[{"indexed":false,"internalType":"uint256","name":"oldDebtRatio","type":"uint256"},{"indexed":false,"internalType":"uint256","name":"newDebtRatio","type":"uint256"}],"name":"NewDebtRatio","type":"event"},{"anonymous":false,"inputs":[{"indexed":false,"internalType":"contract ICygnusHarvester","name":"oldHarvester","type":"address"},{"indexed":false,"internalType":"contract ICygnusHarvester","name":"newHarvester","type":"address"}],"name":"NewHarvester","type":"event"},{"anonymous":false,"inputs":[{"indexed":false,"internalType":"uint256","name":"oldLiquidationFee","type":"uint256"},{"indexed":false,"internalType":"uint256","name":"newLiquidationFee","type":"uint256"}],"name":"NewLiquidationFee","type":"event"},{"anonymous":false,"inputs":[{"indexed":false,"internalType":"uint256","name":"oldLiquidationIncentive","type":"uint256"},{"indexed":false,"internalType":"uint256","name":"newLiquidationIncentive","type":"uint256"}],"name":"NewLiquidationIncentive","type":"event"},{"anonymous":false,"inputs":[{"indexed":true,"internalType":"address","name":"reinvestor","type":"address"},{"indexed":false,"internalType":"uint256","name":"liquidity","type":"uint256"},{"indexed":false,"internalType":"uint256","name":"timestamp","type":"uint256"}],"name":"RechargeVoid","type":"event"},{"anonymous":false,"inputs":[{"indexed":true,"internalType":"address","name":"liquidator","type":"address"},{"indexed":true,"internalType":"address","name":"borrower","type":"address"},{"indexed":false,"internalType":"uint256","name":"cygLPAmount","type":"uint256"},{"indexed":false,"internalType":"uint256","name":"daoFee","type":"uint256"},{"indexed":false,"internalType":"uint256","name":"seized","type":"uint256"}],"name":"SeizeCygLP","type":"event"},{"anonymous":false,"inputs":[{"indexed":true,"internalType":"address","name":"sender","type":"address"},{"indexed":true,"internalType":"address","name":"token","type":"address"},{"indexed":false,"internalType":"uint256","name":"balance","type":"uint256"}],"name":"SweepToken","type":"event"},{"anonymous":false,"inputs":[{"indexed":false,"internalType":"uint160","name":"totalBalance","type":"uint160"}],"name":"Sync","type":"event"},{"anonymous":false,"inputs":[{"indexed":true,"internalType":"address","name":"from","type":"address"},{"indexed":true,"internalType":"address","name":"to","type":"address"},{"indexed":false,"internalType":"uint256","name":"amount","type":"uint256"}],"name":"Transfer","type":"event"},{"anonymous":false,"inputs":[{"indexed":true,"internalType":"address","name":"sender","type":"address"},{"indexed":true,"internalType":"address","name":"recipient","type":"address"},{"indexed":true,"internalType":"address","name":"owner","type":"address"},{"indexed":false,"internalType":"uint256","name":"assets","type":"uint256"},{"indexed":false,"internalType":"uint256","name":"shares","type":"uint256"}],"name":"Withdraw","type":"event"},{"inputs":[],"name":"DOMAIN_SEPARATOR","outputs":[{"internalType":"bytes32","name":"result","type":"bytes32"}],"stateMutability":"view","type":"function"},{"inputs":[],"name":"PERMIT2","outputs":[{"internalType":"contract IAllowanceTransfer","name":"","type":"address"}],"stateMutability":"view","type":"function"},{"inputs":[{"internalType":"address","name":"owner","type":"address"},{"internalType":"address","name":"spender","type":"address"}],"name":"allowance","outputs":[{"internalType":"uint256","name":"result","type":"uint256"}],"stateMutability":"view","type":"function"},{"inputs":[{"internalType":"address","name":"spender","type":"address"},{"internalType":"uint256","name":"amount","type":"uint256"}],"name":"approve","outputs":[{"internalType":"bool","name":"","type":"bool"}],"stateMutability":"nonpayable","type":"function"},{"inputs":[{"internalType":"address","name":"owner","type":"address"}],"name":"balanceOf","outputs":[{"internalType":"uint256","name":"result","type":"uint256"}],"stateMutability":"view","type":"function"},{"inputs":[],"name":"borrowable","outputs":[{"internalType":"address","name":"","type":"address"}],"stateMutability":"view","type":"function"},{"inputs":[{"internalType":"address","name":"borrower","type":"address"},{"internalType":"uint256","name":"borrowAmount","type":"uint256"}],"name":"canBorrow","outputs":[{"internalType":"bool","name":"","type":"bool"}],"stateMutability":"view","type":"function"},{"inputs":[{"internalType":"address","name":"borrower","type":"address"},{"internalType":"uint256","name":"redeemAmount","type":"uint256"}],"name":"canRedeem","outputs":[{"internalType":"bool","name":"","type":"bool"}],"stateMutability":"view","type":"function"},{"inputs":[],"name":"chargeVoid","outputs":[],"stateMutability":"nonpayable","type":"function"},{"inputs":[],"name":"cygnusNebulaOracle","outputs":[{"internalType":"contract ICygnusNebulaOracle","name":"","type":"address"}],"stateMutability":"view","type":"function"},{"inputs":[],"name":"debtRatio","outputs":[{"internalType":"uint256","name":"","type":"uint256"}],"stateMutability":"view","type":"function"},{"inputs":[],"name":"decimals","outputs":[{"internalType":"uint8","name":"","type":"uint8"}],"stateMutability":"view","type":"function"},{"inputs":[{"internalType":"address","name":"spender","type":"address"},{"internalType":"uint256","name":"difference","type":"uint256"}],"name":"decreaseAllowance","outputs":[{"internalType":"bool","name":"","type":"bool"}],"stateMutability":"nonpayable","type":"function"},{"inputs":[{"internalType":"uint256","name":"assets","type":"uint256"},{"internalType":"address","name":"recipient","type":"address"},{"components":[{"components":[{"internalType":"address","name":"token","type":"address"},{"internalType":"uint160","name":"amount","type":"uint160"},{"internalType":"uint48","name":"expiration","type":"uint48"},{"internalType":"uint48","name":"nonce","type":"uint48"}],"internalType":"struct IAllowanceTransfer.PermitDetails","name":"details","type":"tuple"},{"internalType":"address","name":"spender","type":"address"},{"internalType":"uint256","name":"sigDeadline","type":"uint256"}],"internalType":"struct IAllowanceTransfer.PermitSingle","name":"_permit","type":"tuple"},{"internalType":"bytes","name":"signature","type":"bytes"}],"name":"deposit","outputs":[{"internalType":"uint256","name":"shares","type":"uint256"}],"stateMutability":"nonpayable","type":"function"},{"inputs":[],"name":"exchangeRate","outputs":[{"internalType":"uint256","name":"","type":"uint256"}],"stateMutability":"view","type":"function"},{"inputs":[{"internalType":"address","name":"redeemer","type":"address"},{"internalType":"uint256","name":"assets","type":"uint256"},{"internalType":"bytes","name":"data","type":"bytes"}],"name":"flashRedeemAltair","outputs":[],"stateMutability":"nonpayable","type":"function"},{"inputs":[{"internalType":"address","name":"borrower","type":"address"}],"name":"getAccountLiquidity","outputs":[{"internalType":"uint256","name":"liquidity","type":"uint256"},{"internalType":"uint256","name":"shortfall","type":"uint256"}],"stateMutability":"view","type":"function"},{"inputs":[{"internalType":"address","name":"borrower","type":"address"}],"name":"getDebtRatio","outputs":[{"internalType":"uint256","name":"","type":"uint256"}],"stateMutability":"view","type":"function"},{"inputs":[],"name":"getLPTokenPrice","outputs":[{"internalType":"uint256","name":"price","type":"uint256"}],"stateMutability":"view","type":"function"},{"inputs":[],"name":"getRewards","outputs":[{"internalType":"address[]","name":"tokens","type":"address[]"},{"internalType":"uint256[]","name":"amounts","type":"uint256[]"}],"stateMutability":"nonpayable","type":"function"},{"inputs":[],"name":"hangar18","outputs":[{"internalType":"contract IHangar18","name":"","type":"address"}],"stateMutability":"view","type":"function"},{"inputs":[],"name":"harvester","outputs":[{"internalType":"contract ICygnusHarvester","name":"","type":"address"}],"stateMutability":"view","type":"function"},{"inputs":[{"internalType":"address","name":"spender","type":"address"},{"internalType":"uint256","name":"difference","type":"uint256"}],"name":"increaseAllowance","outputs":[{"internalType":"bool","name":"","type":"bool"}],"stateMutability":"nonpayable","type":"function"},{"inputs":[],"name":"lastReinvest","outputs":[{"internalType":"uint256","name":"","type":"uint256"}],"stateMutability":"view","type":"function"},{"inputs":[],"name":"liquidationFee","outputs":[{"internalType":"uint256","name":"","type":"uint256"}],"stateMutability":"view","type":"function"},{"inputs":[],"name":"liquidationIncentive","outputs":[{"internalType":"uint256","name":"","type":"uint256"}],"stateMutability":"view","type":"function"},{"inputs":[],"name":"name","outputs":[{"internalType":"string","name":"","type":"string"}],"stateMutability":"pure","type":"function"},{"inputs":[{"internalType":"address","name":"owner","type":"address"}],"name":"nonces","outputs":[{"internalType":"uint256","name":"result","type":"uint256"}],"stateMutability":"view","type":"function"},{"inputs":[{"internalType":"address","name":"owner","type":"address"},{"internalType":"address","name":"spender","type":"address"},{"internalType":"uint256","name":"value","type":"uint256"},{"internalType":"uint256","name":"deadline","type":"uint256"},{"internalType":"uint8","name":"v","type":"uint8"},{"internalType":"bytes32","name":"r","type":"bytes32"},{"internalType":"bytes32","name":"s","type":"bytes32"}],"name":"permit","outputs":[],"stateMutability":"nonpayable","type":"function"},{"inputs":[{"internalType":"uint256","name":"shares","type":"uint256"},{"internalType":"address","name":"recipient","type":"address"},{"internalType":"address","name":"owner","type":"address"}],"name":"redeem","outputs":[{"internalType":"uint256","name":"assets","type":"uint256"}],"stateMutability":"nonpayable","type":"function"},{"inputs":[{"internalType":"uint256","name":"liquidity","type":"uint256"}],"name":"reinvestRewards_y7b","outputs":[],"stateMutability":"nonpayable","type":"function"},{"inputs":[],"name":"rewardToken","outputs":[{"internalType":"address","name":"","type":"address"}],"stateMutability":"pure","type":"function"},{"inputs":[],"name":"rewarder","outputs":[{"internalType":"address","name":"","type":"address"}],"stateMutability":"view","type":"function"},{"inputs":[{"internalType":"address","name":"liquidator","type":"address"},{"internalType":"address","name":"borrower","type":"address"},{"internalType":"uint256","name":"repayAmount","type":"uint256"}],"name":"seizeCygLP","outputs":[{"internalType":"uint256","name":"cygLPAmount","type":"uint256"}],"stateMutability":"nonpayable","type":"function"},{"inputs":[{"internalType":"uint256","name":"newDebtRatio","type":"uint256"}],"name":"setDebtRatio","outputs":[],"stateMutability":"nonpayable","type":"function"},{"inputs":[{"internalType":"contract ICygnusHarvester","name":"_harvester","type":"address"}],"name":"setHarvester","outputs":[],"stateMutability":"nonpayable","type":"function"},{"inputs":[{"internalType":"uint256","name":"newLiquidationFee","type":"uint256"}],"name":"setLiquidationFee","outputs":[],"stateMutability":"nonpayable","type":"function"},{"inputs":[{"internalType":"uint256","name":"newLiquidationIncentive","type":"uint256"}],"name":"setLiquidationIncentive","outputs":[],"stateMutability":"nonpayable","type":"function"},{"inputs":[],"name":"shuttleId","outputs":[{"internalType":"uint256","name":"","type":"uint256"}],"stateMutability":"view","type":"function"},{"inputs":[{"internalType":"address","name":"token","type":"address"}],"name":"sweepToken","outputs":[],"stateMutability":"nonpayable","type":"function"},{"inputs":[],"name":"symbol","outputs":[{"internalType":"string","name":"","type":"string"}],"stateMutability":"view","type":"function"},{"inputs":[],"name":"sync","outputs":[],"stateMutability":"nonpayable","type":"function"},{"inputs":[],"name":"totalBalance","outputs":[{"internalType":"uint160","name":"","type":"uint160"}],"stateMutability":"view","type":"function"},{"inputs":[],"name":"totalSupply","outputs":[{"internalType":"uint256","name":"result","type":"uint256"}],"stateMutability":"view","type":"function"},{"inputs":[{"internalType":"address","name":"to","type":"address"},{"internalType":"uint256","name":"amount","type":"uint256"}],"name":"transfer","outputs":[{"internalType":"bool","name":"","type":"bool"}],"stateMutability":"nonpayable","type":"function"},{"inputs":[{"internalType":"address","name":"from","type":"address"},{"internalType":"address","name":"to","type":"address"},{"internalType":"uint256","name":"amount","type":"uint256"}],"name":"transferFrom","outputs":[{"internalType":"bool","name":"","type":"bool"}],"stateMutability":"nonpayable","type":"function"},{"inputs":[],"name":"underlying","outputs":[{"internalType":"address","name":"","type":"address"}],"stateMutability":"view","type":"function"}],"evm":{"bytecode":{"linkReferences":{},"object":"610140604081815234620002d6576000805460ff19166001178155635a412e5360e01b80845260a093909290848160048186335af1801562000278578391849185918691620002ad575b5060e052865260c052608052670d2f13f7789f0000600155670e5d0f042e878000600255805192808452848460048186335af19384156200027857839462000284575b506101009384528151908152848160048186335af1908115620002785783916200023f575b50815163b9a09fd560e01b81526001600160a01b0391821660048201526020816024817309236cff45047dbee6b921e00704bed6d6b8cf7e5afa93841562000234578094620001eb575b5050610120921682525191612a22938462000384853960805184818161057501528181610c6d015261260001525183818161063b0152612184015260c0518381816103500152818161097001528181610a6c01528181610f5b0152818161119f0152818161156c0152818161175a015281816118f501528181611a19015261215d015260e0518381816109cc01526115d20152518281816105310152818161085c01528181610b6501528181611cce01528181612032015261226c0152518181816105f70152818161099e0152818161111e01528181612302015281816124c30152818161258701526126a10152f35b909193506020823d82116200022b575b816200020a60209383620002db565b810103126200022857506200021f9062000315565b913880620000fb565b80fd5b3d9150620001fb565b8351903d90823e3d90fd5b620002649150853d871162000270575b6200025b8183620002db565b8101906200032a565b505050905038620000b1565b503d6200024f565b505051903d90823e3d90fd5b620002a0919450853d871162000270576200025b8183620002db565b505091505092386200008c565b92505050620002cc9150853d871162000270576200025b8183620002db565b9150903862000049565b600080fd5b601f909101601f19168101906001600160401b03821190821017620002ff57604052565b634e487b7160e01b600052604160045260246000fd5b51906001600160a01b0382168203620002d657565b91908260a0910312620002d65781516001600160a01b03908181168103620002d657926200035b6020820162000315565b926200036a6040830162000315565b9260608301519081168103620002d6576080909201519056fe6040608081526004908136101561001557600080fd5b600091823560e01c8063031a5c8214611c665780630572b0cc14611bd457806306fdde0314611bab578063095ea7b314611b4157806315de1daa146119af57806318160ddd146119885780631be19560146118ad57806323b872dd146117d8578063313ce5671461172d5780633644e51514611710578063395093511461168d5780633ba0b9a9146116705780634bdaeac11461164957806351303622146116255780635ec88c79146115f55780635f77f891146115ba5780636afdd850146115905780636f307dc31461154c57806370a08231146115185780637ecebe00146114e457806381f5b6f4146114665780638808e71c146110c45780638c765e94146110a557806395d89b4114610f36578063a36a363014610f17578063a457c2d714610e93578063a843108114610e15578063a9059cbb14610d80578063ad7a672f14610d57578063b4ebbda414610b46578063b5f3c95b14610b27578063ba087652146109f9578063bcbc332014610938578063cc1f8ffa14610906578063cea55f57146108e7578063cf8c8c44146107b4578063d505accf1461065f578063d935bd921461061b578063dcc3e06e146105d7578063dd62ed3e14610599578063e8a24e1d14610555578063e99a6ac714610511578063eb6a887d14610493578063f7c618c114610460578063fa14fdc2146102e4578063fef0bec8146102705763fff6cae91461022657600080fd5b3461026c578260031936011261026c5782549160ff83161561025f578360018460ff19809116835561025661266c565b82541617815580f35b516306fda65d60e31b8152fd5b8280fd5b503461026c57602036600319011261026c5780359061028d6125e2565b67016345785d8a000082116102d65750907f87272249f1056ec16a68dd9255101358246dd26a796e2f0bc6b3a0ad02f2de4191600354908060035582519182526020820152a180f35b825163058b4cb360e11b8152fd5b50903461026c57606036600319011261026c576102ff611d76565b916024359160443567ffffffffffffffff811161045c576103239036908401611e7e565b86549560ff87161561044c5760ff199687168855851561043c57906103748689949361034e826122f8565b7f0000000000000000000000000000000000000000000000000000000000000000612974565b806103c9575b5050506387a211a2600c523085526103a06020600c20549361039a611fb0565b906128fa565b83106103bc57846001856103b486306127c4565b61025661266c565b516337eed4ab60e11b8152fd5b333b1561026c576104039183918551938492839263989bebcf60e01b8452338a8501528a6024850152606060448501526064840191611f56565b038183335af180156104325761041a575b8061037a565b61042390611eac565b61042e578438610414565b8480fd5b83513d84823e3d90fd5b50505051632a28590560e01b8152fd5b505050516306fda65d60e31b8152fd5b8580fd5b50503461048f578160031936011261048f5760209051733c8b650257cfb5f272f799f5e2b4e65093a11a058152f35b5080fd5b503461026c57602036600319011261026c578035906104b06125e2565b670b1a2bc2ec50000082108015610500575b6102d65750907ff25d2243e4128e51523d8537f04f18c3e6390bbfc6323390a9a8e59b921ce04691600154908060015582519182526020820152a180f35b50670de0b6b3a764000082116104c2565b50503461048f578160031936011261048f57602090516001600160a01b037f0000000000000000000000000000000000000000000000000000000000000000168152f35b50503461048f578160031936011261048f57602090516001600160a01b037f0000000000000000000000000000000000000000000000000000000000000000168152f35b50503461048f578060031936011261048f576020916105b6611d76565b906105bf611d91565b8452637f5e9f20600c52526034600c20549051908152f35b50503461048f578160031936011261048f57602090516001600160a01b037f0000000000000000000000000000000000000000000000000000000000000000168152f35b50503461048f578160031936011261048f57602090516001600160a01b037f0000000000000000000000000000000000000000000000000000000000000000168152f35b50903461026c5760e036600319011261026c5761067a611d76565b91610683611d91565b6084359160643560443560ff851685036107b05761069f612752565b928651978342116107a4576001600160a01b038091169516956338377508600c52858a5260209485600c20948554956001870190557f6e71edae12b1b97f4d1f60370fef10105fa2faae0126114a169c64845d6126c98b5287878c0152888a8c015260608b019585875260808c015260a08b01526119018b52855260c0892088526042601e208a5260ff16845260a435875260c435606052838060808b60015afa50843d51036107995750777f5e9f200000000000000000000000000000000000000000851786526034602c20557f8c5be1e5ebec7d5bd14f71427d1e84f3dd0314c0f7b2291e5b200ac8c7c3b9259190a3528060605280f35b63ddafbaef8952601cfd5b50631a15a3cc8952601cfd5b8780fd5b5091346108c357816003193601126108c357506107cf611d76565b6024356001600160a01b03828116806107f2578451636e7ac57d60e11b81528690fd5b909192943082146108d957600019841461083e575b60208561083586896387a211a2600c5260005261083084600c205461082a611fb0565b906128ad565b6120db565b91519115825250f35b602092935060249085519485938492637d6af07960e01b84528301527f0000000000000000000000000000000000000000000000000000000000000000165afa9081156108ce57600091610899575b50826108356020610807565b906020823d82116108c6575b816108b260209383611ef2565b810103126108c3575051602061088d565b80fd5b3d91506108a5565b82513d6000823e3d90fd5b845163bf8c13af60e01b8152fd5b50503461048f578160031936011261048f576020906001549051908152f35b50503461048f578060031936011261048f5760209061092f610926611d76565b60243590612210565b90519015158152f35b50503461048f578160031936011261048f5760607f98ccebae89f16f152c93c6a0cdc0d99913b9e62a9fc612471c21ffc299c389fd917f0000000000000000000000000000000000000000000000000000000000000000906001600160a01b036109c4817f00000000000000000000000000000000000000000000000000000000000000001684612362565b8151921682527f000000000000000000000000000000000000000000000000000000000000000060208301523390820152a180f35b50903461026c57606036600319011261026c57813592610a17611d91565b93610a20611da7565b946001600160a01b039081871693843303610add575b50610a48610a42611fb0565b846128ad565b958615610acf5750610a6583602098610a60896122f8565b6127c4565b610a9086827f0000000000000000000000000000000000000000000000000000000000000000612974565b8451928684528784015216907ffbde797d201c681b91056529119e0b02407c7bb96a4a2c75c01fc9667232c8db843392a4610ac961266c565b51908152f35b855163e3e8d29760e01b8152fd5b33602052637f5e9f20600c528781526034600c20908154906000198203610b06575b5050610a36565b818611610b1b57508490039055388080610aff565b6313be252b899152601cfd5b50503461048f578160031936011261048f576020906005549051908152f35b5091346108c357610b5636611e49565b9091906001600160a01b0390337f0000000000000000000000000000000000000000000000000000000000000000831614610b9b578551632cac670b60e21b81528790fd5b85929181889215610d4757610baf86611fea565b905015610d3757610bc29061039a61213e565b60025490818102918183041490151715610d2457610bde611fb0565b908115610d11570494610bf2868583612843565b869260035480610c4c575b505060209650817f6b078885a9e49e8cb7156c2c48a5423d666dff282bd881b6174e1379fd541c3c92606092610c33868a611f33565b8851968a88528b8801528887015216941692a351908152f35b610c58919450876128ad565b92602086518092630b60d15f60e31b825281867f0000000000000000000000000000000000000000000000000000000000000000165afa908115610d075792606092610cd28683947f6b078885a9e49e8cb7156c2c48a5423d666dff282bd881b6174e1379fd541c3c9760209d91610cda575b5083612843565b925092610bfd565b610cfa91508d3d8111610d00575b610cf28183611ef2565b810190611f14565b8d610ccb565b503d610ce8565b86513d8a823e3d90fd5b634e487b7160e01b885260128452602488fd5b634e487b7160e01b875260118352602487fd5b845163c381cd1960e01b81528390fd5b845163f3934a2360e01b81528390fd5b50503461048f578160031936011261048f576001600160a01b036020925460081c169051908152f35b5091346108c357816003193601126108c357610d9a611d76565b60243591610da8833361271b565b6387a211a2600c5233815260209485600c2090815490818611610e0a575084900390555282600c208181540190558252600c5160601c337fddf252ad1be2c89b69c2b068fc378daa952ba7f163c4a11628f55a4df523b3ef8480a35160018152f35b63f4d678b88452601cfd5b503461026c57602036600319011261026c57803590610e326125e2565b670de0b6b3a764000082108015610e82575b6102d65750907faeba5a6c40a8ac138134bff1aaa65debf25971188a58804bad717f82f0ec131691600254908060025582519182526020820152a180f35b50670ff59ee833b300008211610e44565b5091346108c357816003193601126108c357610ead611d76565b60243590602052637f5e9f20600c523382526034600c20908154818110610f0b5760209550038091558152602c5160601c907f8c5be1e5ebec7d5bd14f71427d1e84f3dd0314c0f7b2291e5b200ac8c7c3b925843392a35160018152f35b85638301ab388552601cfd5b50503461048f578160031936011261048f576020906003549051908152f35b50903461026c578260031936011261026c5780516395d89b4160e01b815292808484817f00000000000000000000000000000000000000000000000000000000000000006001600160a01b03165afa928315611099578193610ff8575b610ff48484610fea6027825180947f4379674c503a20000000000000000000000000000000000000000000000000006020830152610fda8151809260208686019101611dfa565b8101036007810185520183611ef2565b5191829182611e1d565b0390f35b909192503d8083863e61100b8186611ef2565b8401916020858403126108c357845167ffffffffffffffff9586821161026c57019183601f8401121561048f5782519586116110845750835192611059601f8701601f191660200185611ef2565b858452602086840101116108c35750610ff49361107c9160208085019101611dfa565b903880610f93565b604190634e487b7160e01b6000525260246000fd5b509051903d90823e3d90fd5b50503461048f578160031936011261048f576020906002549051908152f35b5091903461048f5761012036600319011261048f5782356110e3611d91565b9360c03660431901126114625761010490813567ffffffffffffffff811161045c576111129036908301611e7e565b6001600160a01b0393847f0000000000000000000000000000000000000000000000000000000000000000169161114930846129bd565b938161137f575b50505061115c8561293d565b6e22d473030f116ddee9f6b43ac78ba390813b1561137b578560848a92838b519586948593631b63c28b60e11b8552338c8601523060248601521660448401528a7f00000000000000000000000000000000000000000000000000000000000000001660648401525af1801561137157908891611359575b50506111fe916111f16111f6926111ea8861257d565b30906129bd565b612203565b61039a611fb0565b94851561134a576805345cdf77eb68f44c9081549081156112b8575b50508054918683019283106112ac5750556387a211a2600c528460005260209485600c20858154019055848652600c5160601c60007fddf252ad1be2c89b69c2b068fc378daa952ba7f163c4a11628f55a4df523b3ef8880a38351928352848684015216907fdcbc1c05240f31ff3ad067ef1ee35ce4997762752e3a095284754544f4c709d7833392a3610ac961266c565b63e5cfe957600052601cfd5b90966103e7198101919082116113375750956103e89081810190811061132a5782556387a211a2600c5261dead6000526020600c20818154019055602052600c5160601c60007fddf252ad1be2c89b69c2b068fc378daa952ba7f163c4a11628f55a4df523b3ef602080a3388061121a565b8363e5cfe957600052601cfd5b634e487b7160e01b815260118452602490fd5b50835163f1ca48b160e01b8152fd5b61136290611eac565b61136d5786386111d4565b8680fd5b87513d8a823e3d90fd5b8880fd5b6e22d473030f116ddee9f6b43ac78ba391823b1561145e5789516302b67b5760e41b8152338882015293886113b2611da7565b16602486015260643589811680910361145657604486015260843565ffffffffffff9081811680910361145a57606487015260a43590811680910361145657608486015260c435898116809103611456578561142d81958f97958395899560a486015260e43560c486015261010060e4860152840191611f56565b03925af1801561137157611443575b8080611150565b61144f90979197611eac565b953861143c565b8c80fd5b8d80fd5b8a80fd5b8380fd5b50903461026c57602036600319011261026c578135916001600160a01b0381541633036114d657507fc63644116f6ef474fe595238489f3d0d31a12c55be3a748d72269a62882b04c9906114b98361257d565b4260055580519283524260208401523392a26114d361266c565b80f35b9051639f91a89160e01b8152fd5b50503461048f57602036600319011261048f57602091611502611d76565b906338377508600c525281600c20549051908152f35b50503461048f57602036600319011261048f57602091611536611d76565b906387a211a2600c525281600c20549051908152f35b50503461048f578160031936011261048f57602090516001600160a01b037f0000000000000000000000000000000000000000000000000000000000000000168152f35b50503461048f578160031936011261048f57602090516e22d473030f116ddee9f6b43ac78ba38152f35b50503461048f578160031936011261048f57602090517f00000000000000000000000000000000000000000000000000000000000000008152f35b8284346108c35760203660031901126108c35750611619611614611d76565b611fea565b82519182526020820152f35b50503461048f578160031936011261048f5760209061164261213e565b9051908152f35b5091346108c357806003193601126108c357506001600160a01b0360209254169051908152f35b50503461048f578160031936011261048f57602090611642611fb0565b5091346108c357816003193601126108c3576116a7611d76565b602052637f5e9f20600c523381526034600c20928354906024358201918210611705575080602094558152602c5160601c907f8c5be1e5ebec7d5bd14f71427d1e84f3dd0314c0f7b2291e5b200ac8c7c3b925843392a35160018152f35b63f90670668352601cfd5b50503461048f578160031936011261048f57602090611642612752565b5091346108c357806003193601126108c35760208251809463313ce56760e01b8252816001600160a01b037f0000000000000000000000000000000000000000000000000000000000000000165afa928315611099578193611797575b60208460ff855191168152f35b9092506020813d82116117d0575b816117b260209383611ef2565b8101031261026c57519160ff831683036108c3575060ff602061178a565b3d91506117a5565b5091903461048f576117e936611e49565b6117f3818461271b565b8260601b91602095338752600c93637f5e9f2081178552603485208054600019810361188a575b50506387a211a217845286842080549889851161187f5750836001600160a01b03969798990390555285822081815401905585525160601c91167fddf252ad1be2c89b69c2b068fc378daa952ba7f163c4a11628f55a4df523b3ef8480a35160018152f35b63f4d678b88352601cfd5b8086116118a15785900390556387a211a23861181a565b8a6313be252b8552601cfd5b5091903461048f57602036600319011261048f576118c9611d76565b9082549160ff8316156119785760ff1992831684556118e66125e2565b6001600160a01b0391828216927f000000000000000000000000000000000000000000000000000000000000000016831461196957600194955061193661192d30846129bd565b80933390612974565b519081527f6d25be279134f4ecaa4770aff0c3d916d9e7c5ef37b65ed95dbdba411f5d54d560203392a382541617815580f35b5163b5d8f39160e01b81528590fd5b81516306fda65d60e31b81528590fd5b50503461048f578160031936011261048f576020906805345cdf77eb68f44c549051908152f35b5082903461048f576020928360031936011261026c578135906001600160a01b039081831680930361042e576119e36125e2565b835495837fffffffffffffffffffffffff00000000000000000000000000000000000000008816178555611a15612461565b50917f00000000000000000000000000000000000000000000000000000000000000008416875b8451811015611b0d578186611a51838861244d565b511603611a7d575b6000198114611a6a57600101611a3c565b634e487b7160e01b895260118852602489fd5b85611a88828761244d565b511684878a541660448b87519485938492636eb1769f60e11b8452309084015260248301525afa8015611b0357908591611ada575b5050611ad58787611ace848961244d565b5116612362565b611a59565b813d8311611afc575b611aed8183611ef2565b8101031261137b57838b611abd565b503d611ae3565b84513d8c823e3d90fd5b887f6a97a9e954ae4ef4c8ecc6c7dd8a1cbe668254132294ceb515db9a2e4faad7f5848c8a888b845193168352820152a180f35b50503461048f578060031936011261048f57602091611b5e611d76565b602435908452637f5e9f20600c52338252806034600c20558152602c5160601c907f8c5be1e5ebec7d5bd14f71427d1e84f3dd0314c0f7b2291e5b200ac8c7c3b925843392a35160018152f35b50503461048f578160031936011261048f57610ff490611bc9611f77565b905191829182611e1d565b5091346108c357806003193601126108c35780549260ff841615611c58575060ff199283168155611c229290611c08612461565b949060018094845416178355845194808652850190611dbd565b6020848203818601528080875193848152019601925b828110611c455785870386f35b8351875295810195928101928401611c38565b82516306fda65d60e31b8152fd5b5091346108c3576020928360031936011261048f57611c83611d76565b6387a211a2600c5280835284611caa611ca282600c205461082a611fb0565b61082a61213e565b926024865180948193637d6af07960e01b83526001600160a01b03809216908301527f0000000000000000000000000000000000000000000000000000000000000000165afa8015611d6c578390611d3d575b611d179150611d1160025460035490611f33565b906128d8565b9080611d265750509051908152f35b600154611d37935061039a916128ad565b90610ac9565b508481813d8311611d65575b611d538183611ef2565b8101031261026c57611d179051611cfd565b503d611d49565b84513d85823e3d90fd5b600435906001600160a01b0382168203611d8c57565b600080fd5b602435906001600160a01b0382168203611d8c57565b604435906001600160a01b0382168203611d8c57565b90815180825260208080930193019160005b828110611ddd575050505090565b83516001600160a01b031685529381019392810192600101611dcf565b60005b838110611e0d5750506000910152565b8181015183820152602001611dfd565b60409160208252611e3d8151809281602086015260208686019101611dfa565b601f01601f1916010190565b6060906003190112611d8c576001600160a01b03906004358281168103611d8c57916024359081168103611d8c579060443590565b9181601f84011215611d8c5782359167ffffffffffffffff8311611d8c5760208381860195010111611d8c57565b67ffffffffffffffff8111611ec057604052565b634e487b7160e01b600052604160045260246000fd5b6040810190811067ffffffffffffffff821117611ec057604052565b90601f8019910116810190811067ffffffffffffffff821117611ec057604052565b90816020910312611d8c57516001600160a01b0381168103611d8c5790565b91908201809211611f4057565b634e487b7160e01b600052601160045260246000fd5b908060209392818452848401376000828201840152601f01601f1916010190565b60405190611f8482611ed6565b601282527f4379676e75733a20436f6c6c61746572616c00000000000000000000000000006020830152565b6805345cdf77eb68f44c5460009080611fd1575050670de0b6b3a764000090565b6001600160a01b03611fe7925460081c166128fa565b90565b6001600160a01b0391908281168061200e57604051636e7ac57d60e11b8152600490fd5b3081146120c957602090602460405180968193637d6af07960e01b835260048301527f0000000000000000000000000000000000000000000000000000000000000000165afa9283156120bd5760009361208a575b509161208691926387a211a2600c526000526108306020600c205461082a611fb0565b9091565b6020813d82116120b5575b816120a260209383611ef2565b8101031261146257519250612086612063565b3d9150612095565b6040513d6000823e3d90fd5b60405163bf8c13af60e01b8152600490fd5b6120ea6120f39161082a61213e565b600154906128ad565b9080156121245761210d90611d1160025460035490611f33565b9081811061211c570390600090565b600092910390565b506121389061039a60025460035490611f33565b90600090565b604051906317e5a1a160e01b82526020826024816001600160a01b03807f00000000000000000000000000000000000000000000000000000000000000001660048301527f0000000000000000000000000000000000000000000000000000000000000000165afa9182156120bd576000926121d0575b5081156121be57565b60405163586ad3b960e11b8152600490fd5b90916020823d82116121fb575b816121ea60209383611ef2565b810103126108c357505190386121b5565b3d91506121dd565b91908203918211611f4057565b9190916387a211a2600c526000928184526020600c20548082116122f35761224861224060249493602093612203565b61082a611fb0565b9160405193848092637d6af07960e01b82526001600160a01b0380911660048301527f0000000000000000000000000000000000000000000000000000000000000000165afa9182156122e85784926122ae575b506122a89293506120db565b90501590565b9091506020813d82116122e0575b816122c960209383611ef2565b81010312611462576122a89293505190839261229c565b3d91506122bc565b6040513d86823e3d90fd5b505050565b6001600160a01b037f00000000000000000000000000000000000000000000000000000000000000001690813b15611d8c57600091602483926040519485938492632e1a7d4d60e01b845260048401525af180156120bd576123575750565b61236090611eac565b565b9060405191636eb1769f60e11b83523060048401526020836044816001600160a01b03808716602483015285165afa9283156120bd576000936123f7575b50600019809310156122f3576010600060449260209582956014526034526f095ea7b300000000000000000000000082525af13d156001600051141716156123e9576000603452565b633e3f8f736000526004601cfd5b90926020823d8211612422575b8161241160209383611ef2565b810103126108c357505191386123a0565b3d9150612404565b8051156124375760200190565b634e487b7160e01b600052603260045260246000fd5b80518210156124375760209160051b010190565b60006040519161247083611ed6565b6001835260209283368183013780936040519161248c83611ed6565b600183528136818501378294733c8b650257cfb5f272f799f5e2b4e65093a11a0591826124b88261242a565b526001600160a01b037f00000000000000000000000000000000000000000000000000000000000000001690813b1561026c5761251c839283926040519485809481936331279d3d60e01b8352306004840152604060248401526044830190611dbd565b03925af1801561257257601085946f70a0823100000000000000000000000086956125609895602495612563575b5030601452525afa601f3d11169051029161242a565b52565b61256c90611eac565b3861254a565b6040513d84823e3d90fd5b6001600160a01b037f00000000000000000000000000000000000000000000000000000000000000001690813b15611d8c57600091604483926040519485938492631c57762b60e31b845260048401528160248401525af180156120bd576123575750565b6040516303e1469160e61b81526001600160a01b03906020816004817f000000000000000000000000000000000000000000000000000000000000000086165afa9081156120bd5760009161264e575b5016330361263c57565b6040516331d63ad160e11b8152600490fd5b612666915060203d8111610d0057610cf28183611ef2565b38612632565b7f3145c2b643834867f2c0a8cac8a48218307687911615c0ed01412a09dd163b6660206001600160a01b036126cb6126c630837f0000000000000000000000000000000000000000000000000000000000000000166129bd565b61293d565b906000547fffffffffffffffffffffff0000000000000000000000000000000000000000ff74ffffffffffffffffffffffffffffffffffffffff008460081b1691161760005560405191168152a1565b90306001600160a01b0383161461274e5761273591612210565b1561273c57565b604051631ba566ff60e01b8152600490fd5b5050565b60a060405161275f611f77565b602081519101207f8b73c3c69bb8fe3d512ecc4cf759cc79239f7b179b0ffacaa9a75d522b39400f825260208201527fc89efdaa54c0f20c7adf612882df0950f5a951637e0307cdcb4c672f298b8bc660408201524660608201523060808201522090565b906127cf818361271b565b6387a211a2600c52816000526020600c209182549182811161283557600093816001600160a01b03940390556805345cdf77eb68f44c8181540390558352167fddf252ad1be2c89b69c2b068fc378daa952ba7f163c4a11628f55a4df523b3ef602083a3565b63f4d678b86000526004601cfd5b91906387a211a28360601b17600c526020600c2080548084116128355783900390556000526020600c208181540190556020526001600160a01b03600c5160601c91167fddf252ad1be2c89b69c2b068fc378daa952ba7f163c4a11628f55a4df523b3ef602080a3565b908060001904821181026128ca57670de0b6b3a764000091020490565b63bac65e5b6000526004601cfd5b8160001904811182026128ca5702670de0b6b3a7640000808204910615150190565b670de0b6b3a7640000907812725dd1d243aba0e75fe645cc4873f9e65afe688c928e1f21811182021583021561292f57020490565b637c5f487d6000526004601cfd5b74010000000000000000000000000000000000000000811015612966576001600160a01b031690565b6335278d126000526004601cfd5b60109260209260145260345260446000938480936fa9059cbb00000000000000000000000082525af13d1560018351141716156129b057603452565b6390b8ec1890526004601cfd5b602460106020939284936014526f70a082310000000000000000000000006000525afa601f3d1116602051029056fea2646970667358221220fe53e79e319249229641c97ebf950dd6ef200f90ae522317e978f22942fed00164736f6c63430008110033","opcodes":"PUSH2 0x140 PUSH1 0x40 DUP2 DUP2 MSTORE CALLVALUE PUSH3 0x2D6 JUMPI PUSH1 0x0 DUP1 SLOAD PUSH1 0xFF NOT AND PUSH1 0x1 OR DUP2 SSTORE PUSH4 0x5A412E53 PUSH1 0xE0 SHL DUP1 DUP5 MSTORE PUSH1 0xA0 SWAP4 SWAP1 SWAP3 SWAP1 DUP5 DUP2 PUSH1 0x4 DUP2 DUP7 CALLER GAS CALL DUP1 ISZERO PUSH3 0x278 JUMPI DUP4 SWAP2 DUP5 SWAP2 DUP6 SWAP2 DUP7 SWAP2 PUSH3 0x2AD JUMPI JUMPDEST POP PUSH1 0xE0 MSTORE DUP7 MSTORE PUSH1 0xC0 MSTORE PUSH1 0x80 MSTORE PUSH8 0xD2F13F7789F0000 PUSH1 0x1 SSTORE PUSH8 0xE5D0F042E878000 PUSH1 0x2 SSTORE DUP1 MLOAD SWAP3 DUP1 DUP5 MSTORE DUP5 DUP5 PUSH1 0x4 DUP2 DUP7 CALLER GAS CALL SWAP4 DUP5 ISZERO PUSH3 0x278 JUMPI DUP4 SWAP5 PUSH3 0x284 JUMPI JUMPDEST POP PUSH2 0x100 SWAP4 DUP5 MSTORE DUP2 MLOAD SWAP1 DUP2 MSTORE DUP5 DUP2 PUSH1 0x4 DUP2 DUP7 CALLER GAS CALL SWAP1 DUP2 ISZERO PUSH3 0x278 JUMPI DUP4 SWAP2 PUSH3 0x23F JUMPI JUMPDEST POP DUP2 MLOAD PUSH4 0xB9A09FD5 PUSH1 0xE0 SHL DUP2 MSTORE PUSH1 0x1 PUSH1 0x1 PUSH1 0xA0 SHL SUB SWAP2 DUP3 AND PUSH1 0x4 DUP3 ADD MSTORE PUSH1 0x20 DUP2 PUSH1 0x24 DUP2 PUSH20 0x9236CFF45047DBEE6B921E00704BED6D6B8CF7E GAS STATICCALL SWAP4 DUP5 ISZERO PUSH3 0x234 JUMPI DUP1 SWAP5 PUSH3 0x1EB JUMPI JUMPDEST POP POP PUSH2 0x120 SWAP3 AND DUP3 MSTORE MLOAD SWAP2 PUSH2 0x2A22 SWAP4 DUP5 PUSH3 0x384 DUP6 CODECOPY PUSH1 0x80 MLOAD DUP5 DUP2 DUP2 PUSH2 0x575 ADD MSTORE DUP2 DUP2 PUSH2 0xC6D ADD MSTORE PUSH2 0x2600 ADD MSTORE MLOAD DUP4 DUP2 DUP2 PUSH2 0x63B ADD MSTORE PUSH2 0x2184 ADD MSTORE PUSH1 0xC0 MLOAD DUP4 DUP2 DUP2 PUSH2 0x350 ADD MSTORE DUP2 DUP2 PUSH2 0x970 ADD MSTORE DUP2 DUP2 PUSH2 0xA6C ADD MSTORE DUP2 DUP2 PUSH2 0xF5B ADD MSTORE DUP2 DUP2 PUSH2 0x119F ADD MSTORE DUP2 DUP2 PUSH2 0x156C ADD MSTORE DUP2 DUP2 PUSH2 0x175A ADD MSTORE DUP2 DUP2 PUSH2 0x18F5 ADD MSTORE DUP2 DUP2 PUSH2 0x1A19 ADD MSTORE PUSH2 0x215D ADD MSTORE PUSH1 0xE0 MLOAD DUP4 DUP2 DUP2 PUSH2 0x9CC ADD MSTORE PUSH2 0x15D2 ADD MSTORE MLOAD DUP3 DUP2 DUP2 PUSH2 0x531 ADD MSTORE DUP2 DUP2 PUSH2 0x85C ADD MSTORE DUP2 DUP2 PUSH2 0xB65 ADD MSTORE DUP2 DUP2 PUSH2 0x1CCE ADD MSTORE DUP2 DUP2 PUSH2 0x2032 ADD MSTORE PUSH2 0x226C ADD MSTORE MLOAD DUP2 DUP2 DUP2 PUSH2 0x5F7 ADD MSTORE DUP2 DUP2 PUSH2 0x99E ADD MSTORE DUP2 DUP2 PUSH2 0x111E ADD MSTORE DUP2 DUP2 PUSH2 0x2302 ADD MSTORE DUP2 DUP2 PUSH2 0x24C3 ADD MSTORE DUP2 DUP2 PUSH2 0x2587 ADD MSTORE PUSH2 0x26A1 ADD MSTORE RETURN JUMPDEST SWAP1 SWAP2 SWAP4 POP PUSH1 0x20 DUP3 RETURNDATASIZE DUP3 GT PUSH3 0x22B JUMPI JUMPDEST DUP2 PUSH3 0x20A PUSH1 0x20 SWAP4 DUP4 PUSH3 0x2DB JUMP JUMPDEST DUP2 ADD SUB SLT PUSH3 0x228 JUMPI POP PUSH3 0x21F SWAP1 PUSH3 0x315 JUMP JUMPDEST SWAP2 CODESIZE DUP1 PUSH3 0xFB JUMP JUMPDEST DUP1 REVERT JUMPDEST RETURNDATASIZE SWAP2 POP PUSH3 0x1FB JUMP JUMPDEST DUP4 MLOAD SWAP1 RETURNDATASIZE SWAP1 DUP3 RETURNDATACOPY RETURNDATASIZE SWAP1 REVERT JUMPDEST PUSH3 0x264 SWAP2 POP DUP6 RETURNDATASIZE DUP8 GT PUSH3 0x270 JUMPI JUMPDEST PUSH3 0x25B DUP2 DUP4 PUSH3 0x2DB JUMP JUMPDEST DUP2 ADD SWAP1 PUSH3 0x32A JUMP JUMPDEST POP POP POP SWAP1 POP CODESIZE PUSH3 0xB1 JUMP JUMPDEST POP RETURNDATASIZE PUSH3 0x24F JUMP JUMPDEST POP POP MLOAD SWAP1 RETURNDATASIZE SWAP1 DUP3 RETURNDATACOPY RETURNDATASIZE SWAP1 REVERT JUMPDEST PUSH3 0x2A0 SWAP2 SWAP5 POP DUP6 RETURNDATASIZE DUP8 GT PUSH3 0x270 JUMPI PUSH3 0x25B DUP2 DUP4 PUSH3 0x2DB JUMP JUMPDEST POP POP SWAP2 POP POP SWAP3 CODESIZE PUSH3 0x8C JUMP JUMPDEST SWAP3 POP POP POP PUSH3 0x2CC SWAP2 POP DUP6 RETURNDATASIZE DUP8 GT PUSH3 0x270 JUMPI PUSH3 0x25B DUP2 DUP4 PUSH3 0x2DB JUMP JUMPDEST SWAP2 POP SWAP1 CODESIZE PUSH3 0x49 JUMP JUMPDEST PUSH1 0x0 DUP1 REVERT JUMPDEST PUSH1 0x1F SWAP1 SWAP2 ADD PUSH1 0x1F NOT AND DUP2 ADD SWAP1 PUSH1 0x1 PUSH1 0x1 PUSH1 0x40 SHL SUB DUP3 GT SWAP1 DUP3 LT OR PUSH3 0x2FF JUMPI PUSH1 0x40 MSTORE JUMP JUMPDEST PUSH4 0x4E487B71 PUSH1 0xE0 SHL PUSH1 0x0 MSTORE PUSH1 0x41 PUSH1 0x4 MSTORE PUSH1 0x24 PUSH1 0x0 REVERT JUMPDEST MLOAD SWAP1 PUSH1 0x1 PUSH1 0x1 PUSH1 0xA0 SHL SUB DUP3 AND DUP3 SUB PUSH3 0x2D6 JUMPI JUMP JUMPDEST SWAP2 SWAP1 DUP3 PUSH1 0xA0 SWAP2 SUB SLT PUSH3 0x2D6 JUMPI DUP2 MLOAD PUSH1 0x1 PUSH1 0x1 PUSH1 0xA0 SHL SUB SWAP1 DUP2 DUP2 AND DUP2 SUB PUSH3 0x2D6 JUMPI SWAP3 PUSH3 0x35B PUSH1 0x20 DUP3 ADD PUSH3 0x315 JUMP JUMPDEST SWAP3 PUSH3 0x36A PUSH1 0x40 DUP4 ADD PUSH3 0x315 JUMP JUMPDEST SWAP3 PUSH1 0x60 DUP4 ADD MLOAD SWAP1 DUP2 AND DUP2 SUB PUSH3 0x2D6 JUMPI PUSH1 0x80 SWAP1 SWAP3 ADD MLOAD SWAP1 JUMP INVALID PUSH1 0x40 PUSH1 0x80 DUP2 MSTORE PUSH1 0x4 SWAP1 DUP2 CALLDATASIZE LT ISZERO PUSH2 0x15 JUMPI PUSH1 0x0 DUP1 REVERT JUMPDEST PUSH1 0x0 SWAP2 DUP3 CALLDATALOAD PUSH1 0xE0 SHR DUP1 PUSH4 0x31A5C82 EQ PUSH2 0x1C66 JUMPI DUP1 PUSH4 0x572B0CC EQ PUSH2 0x1BD4 JUMPI DUP1 PUSH4 0x6FDDE03 EQ PUSH2 0x1BAB JUMPI DUP1 PUSH4 0x95EA7B3 EQ PUSH2 0x1B41 JUMPI DUP1 PUSH4 0x15DE1DAA EQ PUSH2 0x19AF JUMPI DUP1 PUSH4 0x18160DDD EQ PUSH2 0x1988 JUMPI DUP1 PUSH4 0x1BE19560 EQ PUSH2 0x18AD JUMPI DUP1 PUSH4 0x23B872DD EQ PUSH2 0x17D8 JUMPI DUP1 PUSH4 0x313CE567 EQ PUSH2 0x172D JUMPI DUP1 PUSH4 0x3644E515 EQ PUSH2 0x1710 JUMPI DUP1 PUSH4 0x39509351 EQ PUSH2 0x168D JUMPI DUP1 PUSH4 0x3BA0B9A9 EQ PUSH2 0x1670 JUMPI DUP1 PUSH4 0x4BDAEAC1 EQ PUSH2 0x1649 JUMPI DUP1 PUSH4 0x51303622 EQ PUSH2 0x1625 JUMPI DUP1 PUSH4 0x5EC88C79 EQ PUSH2 0x15F5 JUMPI DUP1 PUSH4 0x5F77F891 EQ PUSH2 0x15BA JUMPI DUP1 PUSH4 0x6AFDD850 EQ PUSH2 0x1590 JUMPI DUP1 PUSH4 0x6F307DC3 EQ PUSH2 0x154C JUMPI DUP1 PUSH4 0x70A08231 EQ PUSH2 0x1518 JUMPI DUP1 PUSH4 0x7ECEBE00 EQ PUSH2 0x14E4 JUMPI DUP1 PUSH4 0x81F5B6F4 EQ PUSH2 0x1466 JUMPI DUP1 PUSH4 0x8808E71C EQ PUSH2 0x10C4 JUMPI DUP1 PUSH4 0x8C765E94 EQ PUSH2 0x10A5 JUMPI DUP1 PUSH4 0x95D89B41 EQ PUSH2 0xF36 JUMPI DUP1 PUSH4 0xA36A3630 EQ PUSH2 0xF17 JUMPI DUP1 PUSH4 0xA457C2D7 EQ PUSH2 0xE93 JUMPI DUP1 PUSH4 0xA8431081 EQ PUSH2 0xE15 JUMPI DUP1 PUSH4 0xA9059CBB EQ PUSH2 0xD80 JUMPI DUP1 PUSH4 0xAD7A672F EQ PUSH2 0xD57 JUMPI DUP1 PUSH4 0xB4EBBDA4 EQ PUSH2 0xB46 JUMPI DUP1 PUSH4 0xB5F3C95B EQ PUSH2 0xB27 JUMPI DUP1 PUSH4 0xBA087652 EQ PUSH2 0x9F9 JUMPI DUP1 PUSH4 0xBCBC3320 EQ PUSH2 0x938 JUMPI DUP1 PUSH4 0xCC1F8FFA EQ PUSH2 0x906 JUMPI DUP1 PUSH4 0xCEA55F57 EQ PUSH2 0x8E7 JUMPI DUP1 PUSH4 0xCF8C8C44 EQ PUSH2 0x7B4 JUMPI DUP1 PUSH4 0xD505ACCF EQ PUSH2 0x65F JUMPI DUP1 PUSH4 0xD935BD92 EQ PUSH2 0x61B JUMPI DUP1 PUSH4 0xDCC3E06E EQ PUSH2 0x5D7 JUMPI DUP1 PUSH4 0xDD62ED3E EQ PUSH2 0x599 JUMPI DUP1 PUSH4 0xE8A24E1D EQ PUSH2 0x555 JUMPI DUP1 PUSH4 0xE99A6AC7 EQ PUSH2 0x511 JUMPI DUP1 PUSH4 0xEB6A887D EQ PUSH2 0x493 JUMPI DUP1 PUSH4 0xF7C618C1 EQ PUSH2 0x460 JUMPI DUP1 PUSH4 0xFA14FDC2 EQ PUSH2 0x2E4 JUMPI DUP1 PUSH4 0xFEF0BEC8 EQ PUSH2 0x270 JUMPI PUSH4 0xFFF6CAE9 EQ PUSH2 0x226 JUMPI PUSH1 0x0 DUP1 REVERT JUMPDEST CALLVALUE PUSH2 0x26C JUMPI DUP3 PUSH1 0x3 NOT CALLDATASIZE ADD SLT PUSH2 0x26C JUMPI DUP3 SLOAD SWAP2 PUSH1 0xFF DUP4 AND ISZERO PUSH2 0x25F JUMPI DUP4 PUSH1 0x1 DUP5 PUSH1 0xFF NOT DUP1 SWAP2 AND DUP4 SSTORE PUSH2 0x256 PUSH2 0x266C JUMP JUMPDEST DUP3 SLOAD AND OR DUP2 SSTORE DUP1 RETURN JUMPDEST MLOAD PUSH4 0x6FDA65D PUSH1 0xE3 SHL DUP2 MSTORE REVERT JUMPDEST DUP3 DUP1 REVERT JUMPDEST POP CALLVALUE PUSH2 0x26C JUMPI PUSH1 0x20 CALLDATASIZE PUSH1 0x3 NOT ADD SLT PUSH2 0x26C JUMPI DUP1 CALLDATALOAD SWAP1 PUSH2 0x28D PUSH2 0x25E2 JUMP JUMPDEST PUSH8 0x16345785D8A0000 DUP3 GT PUSH2 0x2D6 JUMPI POP SWAP1 PUSH32 0x87272249F1056EC16A68DD9255101358246DD26A796E2F0BC6B3A0AD02F2DE41 SWAP2 PUSH1 0x3 SLOAD SWAP1 DUP1 PUSH1 0x3 SSTORE DUP3 MLOAD SWAP2 DUP3 MSTORE PUSH1 0x20 DUP3 ADD MSTORE LOG1 DUP1 RETURN JUMPDEST DUP3 MLOAD PUSH4 0x58B4CB3 PUSH1 0xE1 SHL DUP2 MSTORE REVERT JUMPDEST POP SWAP1 CALLVALUE PUSH2 0x26C JUMPI PUSH1 0x60 CALLDATASIZE PUSH1 0x3 NOT ADD SLT PUSH2 0x26C JUMPI PUSH2 0x2FF PUSH2 0x1D76 JUMP JUMPDEST SWAP2 PUSH1 0x24 CALLDATALOAD SWAP2 PUSH1 0x44 CALLDATALOAD PUSH8 0xFFFFFFFFFFFFFFFF DUP2 GT PUSH2 0x45C JUMPI PUSH2 0x323 SWAP1 CALLDATASIZE SWAP1 DUP5 ADD PUSH2 0x1E7E JUMP JUMPDEST DUP7 SLOAD SWAP6 PUSH1 0xFF DUP8 AND ISZERO PUSH2 0x44C JUMPI PUSH1 0xFF NOT SWAP7 DUP8 AND DUP9 SSTORE DUP6 ISZERO PUSH2 0x43C JUMPI SWAP1 PUSH2 0x374 DUP7 DUP10 SWAP5 SWAP4 PUSH2 0x34E DUP3 PUSH2 0x22F8 JUMP JUMPDEST PUSH32 0x0 PUSH2 0x2974 JUMP JUMPDEST DUP1 PUSH2 0x3C9 JUMPI JUMPDEST POP POP POP PUSH4 0x87A211A2 PUSH1 0xC MSTORE ADDRESS DUP6 MSTORE PUSH2 0x3A0 PUSH1 0x20 PUSH1 0xC KECCAK256 SLOAD SWAP4 PUSH2 0x39A PUSH2 0x1FB0 JUMP JUMPDEST SWAP1 PUSH2 0x28FA JUMP JUMPDEST DUP4 LT PUSH2 0x3BC JUMPI DUP5 PUSH1 0x1 DUP6 PUSH2 0x3B4 DUP7 ADDRESS PUSH2 0x27C4 JUMP JUMPDEST PUSH2 0x256 PUSH2 0x266C JUMP JUMPDEST MLOAD PUSH4 0x37EED4AB PUSH1 0xE1 SHL DUP2 MSTORE REVERT JUMPDEST CALLER EXTCODESIZE ISZERO PUSH2 0x26C JUMPI PUSH2 0x403 SWAP2 DUP4 SWAP2 DUP6 MLOAD SWAP4 DUP5 SWAP3 DUP4 SWAP3 PUSH4 0x989BEBCF PUSH1 0xE0 SHL DUP5 MSTORE CALLER DUP11 DUP6 ADD MSTORE DUP11 PUSH1 0x24 DUP6 ADD MSTORE PUSH1 0x60 PUSH1 0x44 DUP6 ADD MSTORE PUSH1 0x64 DUP5 ADD SWAP2 PUSH2 0x1F56 JUMP JUMPDEST SUB DUP2 DUP4 CALLER GAS CALL DUP1 ISZERO PUSH2 0x432 JUMPI PUSH2 0x41A JUMPI JUMPDEST DUP1 PUSH2 0x37A JUMP JUMPDEST PUSH2 0x423 SWAP1 PUSH2 0x1EAC JUMP JUMPDEST PUSH2 0x42E JUMPI DUP5 CODESIZE PUSH2 0x414 JUMP JUMPDEST DUP5 DUP1 REVERT JUMPDEST DUP4 MLOAD RETURNDATASIZE DUP5 DUP3 RETURNDATACOPY RETURNDATASIZE SWAP1 REVERT JUMPDEST POP POP POP MLOAD PUSH4 0x2A285905 PUSH1 0xE0 SHL DUP2 MSTORE REVERT JUMPDEST POP POP POP MLOAD PUSH4 0x6FDA65D PUSH1 0xE3 SHL DUP2 MSTORE REVERT JUMPDEST DUP6 DUP1 REVERT JUMPDEST POP POP CALLVALUE PUSH2 0x48F JUMPI DUP2 PUSH1 0x3 NOT CALLDATASIZE ADD SLT PUSH2 0x48F JUMPI PUSH1 0x20 SWAP1 MLOAD PUSH20 0x3C8B650257CFB5F272F799F5E2B4E65093A11A05 DUP2 MSTORE RETURN JUMPDEST POP DUP1 REVERT JUMPDEST POP CALLVALUE PUSH2 0x26C JUMPI PUSH1 0x20 CALLDATASIZE PUSH1 0x3 NOT ADD SLT PUSH2 0x26C JUMPI DUP1 CALLDATALOAD SWAP1 PUSH2 0x4B0 PUSH2 0x25E2 JUMP JUMPDEST PUSH8 0xB1A2BC2EC500000 DUP3 LT DUP1 ISZERO PUSH2 0x500 JUMPI JUMPDEST PUSH2 0x2D6 JUMPI POP SWAP1 PUSH32 0xF25D2243E4128E51523D8537F04F18C3E6390BBFC6323390A9A8E59B921CE046 SWAP2 PUSH1 0x1 SLOAD SWAP1 DUP1 PUSH1 0x1 SSTORE DUP3 MLOAD SWAP2 DUP3 MSTORE PUSH1 0x20 DUP3 ADD MSTORE LOG1 DUP1 RETURN JUMPDEST POP PUSH8 0xDE0B6B3A7640000 DUP3 GT PUSH2 0x4C2 JUMP JUMPDEST POP POP CALLVALUE PUSH2 0x48F JUMPI DUP2 PUSH1 0x3 NOT CALLDATASIZE ADD SLT PUSH2 0x48F JUMPI PUSH1 0x20 SWAP1 MLOAD PUSH1 0x1 PUSH1 0x1 PUSH1 0xA0 SHL SUB PUSH32 0x0 AND DUP2 MSTORE RETURN JUMPDEST POP POP CALLVALUE PUSH2 0x48F JUMPI DUP2 PUSH1 0x3 NOT CALLDATASIZE ADD SLT PUSH2 0x48F JUMPI PUSH1 0x20 SWAP1 MLOAD PUSH1 0x1 PUSH1 0x1 PUSH1 0xA0 SHL SUB PUSH32 0x0 AND DUP2 MSTORE RETURN JUMPDEST POP POP CALLVALUE PUSH2 0x48F JUMPI DUP1 PUSH1 0x3 NOT CALLDATASIZE ADD SLT PUSH2 0x48F JUMPI PUSH1 0x20 SWAP2 PUSH2 0x5B6 PUSH2 0x1D76 JUMP JUMPDEST SWAP1 PUSH2 0x5BF PUSH2 0x1D91 JUMP JUMPDEST DUP5 MSTORE PUSH4 0x7F5E9F20 PUSH1 0xC MSTORE MSTORE PUSH1 0x34 PUSH1 0xC KECCAK256 SLOAD SWAP1 MLOAD SWAP1 DUP2 MSTORE RETURN JUMPDEST POP POP CALLVALUE PUSH2 0x48F JUMPI DUP2 PUSH1 0x3 NOT CALLDATASIZE ADD SLT PUSH2 0x48F JUMPI PUSH1 0x20 SWAP1 MLOAD PUSH1 0x1 PUSH1 0x1 PUSH1 0xA0 SHL SUB PUSH32 0x0 AND DUP2 MSTORE RETURN JUMPDEST POP POP CALLVALUE PUSH2 0x48F JUMPI DUP2 PUSH1 0x3 NOT CALLDATASIZE ADD SLT PUSH2 0x48F JUMPI PUSH1 0x20 SWAP1 MLOAD PUSH1 0x1 PUSH1 0x1 PUSH1 0xA0 SHL SUB PUSH32 0x0 AND DUP2 MSTORE RETURN JUMPDEST POP SWAP1 CALLVALUE PUSH2 0x26C JUMPI PUSH1 0xE0 CALLDATASIZE PUSH1 0x3 NOT ADD SLT PUSH2 0x26C JUMPI PUSH2 0x67A PUSH2 0x1D76 JUMP JUMPDEST SWAP2 PUSH2 0x683 PUSH2 0x1D91 JUMP JUMPDEST PUSH1 0x84 CALLDATALOAD SWAP2 PUSH1 0x64 CALLDATALOAD PUSH1 0x44 CALLDATALOAD PUSH1 0xFF DUP6 AND DUP6 SUB PUSH2 0x7B0 JUMPI PUSH2 0x69F PUSH2 0x2752 JUMP JUMPDEST SWAP3 DUP7 MLOAD SWAP8 DUP4 TIMESTAMP GT PUSH2 0x7A4 JUMPI PUSH1 0x1 PUSH1 0x1 PUSH1 0xA0 SHL SUB DUP1 SWAP2 AND SWAP6 AND SWAP6 PUSH4 0x38377508 PUSH1 0xC MSTORE DUP6 DUP11 MSTORE PUSH1 0x20 SWAP5 DUP6 PUSH1 0xC KECCAK256 SWAP5 DUP6 SLOAD SWAP6 PUSH1 0x1 DUP8 ADD SWAP1 SSTORE PUSH32 0x6E71EDAE12B1B97F4D1F60370FEF10105FA2FAAE0126114A169C64845D6126C9 DUP12 MSTORE DUP8 DUP8 DUP13 ADD MSTORE DUP9 DUP11 DUP13 ADD MSTORE PUSH1 0x60 DUP12 ADD SWAP6 DUP6 DUP8 MSTORE PUSH1 0x80 DUP13 ADD MSTORE PUSH1 0xA0 DUP12 ADD MSTORE PUSH2 0x1901 DUP12 MSTORE DUP6 MSTORE PUSH1 0xC0 DUP10 KECCAK256 DUP9 MSTORE PUSH1 0x42 PUSH1 0x1E KECCAK256 DUP11 MSTORE PUSH1 0xFF AND DUP5 MSTORE PUSH1 0xA4 CALLDATALOAD DUP8 MSTORE PUSH1 0xC4 CALLDATALOAD PUSH1 0x60 MSTORE DUP4 DUP1 PUSH1 0x80 DUP12 PUSH1 0x1 GAS STATICCALL POP DUP5 RETURNDATASIZE MLOAD SUB PUSH2 0x799 JUMPI POP PUSH24 0x7F5E9F200000000000000000000000000000000000000000 DUP6 OR DUP7 MSTORE PUSH1 0x34 PUSH1 0x2C KECCAK256 SSTORE PUSH32 0x8C5BE1E5EBEC7D5BD14F71427D1E84F3DD0314C0F7B2291E5B200AC8C7C3B925 SWAP2 SWAP1 LOG3 MSTORE DUP1 PUSH1 0x60 MSTORE DUP1 RETURN JUMPDEST PUSH4 0xDDAFBAEF DUP10 MSTORE PUSH1 0x1C REVERT JUMPDEST POP PUSH4 0x1A15A3CC DUP10 MSTORE PUSH1 0x1C REVERT JUMPDEST DUP8 DUP1 REVERT JUMPDEST POP SWAP2 CALLVALUE PUSH2 0x8C3 JUMPI DUP2 PUSH1 0x3 NOT CALLDATASIZE ADD SLT PUSH2 0x8C3 JUMPI POP PUSH2 0x7CF PUSH2 0x1D76 JUMP JUMPDEST PUSH1 0x24 CALLDATALOAD PUSH1 0x1 PUSH1 0x1 PUSH1 0xA0 SHL SUB DUP3 DUP2 AND DUP1 PUSH2 0x7F2 JUMPI DUP5 MLOAD PUSH4 0x6E7AC57D PUSH1 0xE1 SHL DUP2 MSTORE DUP7 SWAP1 REVERT JUMPDEST SWAP1 SWAP2 SWAP3 SWAP5 ADDRESS DUP3 EQ PUSH2 0x8D9 JUMPI PUSH1 0x0 NOT DUP5 EQ PUSH2 0x83E JUMPI JUMPDEST PUSH1 0x20 DUP6 PUSH2 0x835 DUP7 DUP10 PUSH4 0x87A211A2 PUSH1 0xC MSTORE PUSH1 0x0 MSTORE PUSH2 0x830 DUP5 PUSH1 0xC KECCAK256 SLOAD PUSH2 0x82A PUSH2 0x1FB0 JUMP JUMPDEST SWAP1 PUSH2 0x28AD JUMP JUMPDEST PUSH2 0x20DB JUMP JUMPDEST SWAP2 MLOAD SWAP2 ISZERO DUP3 MSTORE POP RETURN JUMPDEST PUSH1 0x20 SWAP3 SWAP4 POP PUSH1 0x24 SWAP1 DUP6 MLOAD SWAP5 DUP6 SWAP4 DUP5 SWAP3 PUSH4 0x7D6AF079 PUSH1 0xE0 SHL DUP5 MSTORE DUP4 ADD MSTORE PUSH32 0x0 AND GAS STATICCALL SWAP1 DUP2 ISZERO PUSH2 0x8CE JUMPI PUSH1 0x0 SWAP2 PUSH2 0x899 JUMPI JUMPDEST POP DUP3 PUSH2 0x835 PUSH1 0x20 PUSH2 0x807 JUMP JUMPDEST SWAP1 PUSH1 0x20 DUP3 RETURNDATASIZE DUP3 GT PUSH2 0x8C6 JUMPI JUMPDEST DUP2 PUSH2 0x8B2 PUSH1 0x20 SWAP4 DUP4 PUSH2 0x1EF2 JUMP JUMPDEST DUP2 ADD SUB SLT PUSH2 0x8C3 JUMPI POP MLOAD PUSH1 0x20 PUSH2 0x88D JUMP JUMPDEST DUP1 REVERT JUMPDEST RETURNDATASIZE SWAP2 POP PUSH2 0x8A5 JUMP JUMPDEST DUP3 MLOAD RETURNDATASIZE PUSH1 0x0 DUP3 RETURNDATACOPY RETURNDATASIZE SWAP1 REVERT JUMPDEST DUP5 MLOAD PUSH4 0xBF8C13AF PUSH1 0xE0 SHL DUP2 MSTORE REVERT JUMPDEST POP POP CALLVALUE PUSH2 0x48F JUMPI DUP2 PUSH1 0x3 NOT CALLDATASIZE ADD SLT PUSH2 0x48F JUMPI PUSH1 0x20 SWAP1 PUSH1 0x1 SLOAD SWAP1 MLOAD SWAP1 DUP2 MSTORE RETURN JUMPDEST POP POP CALLVALUE PUSH2 0x48F JUMPI DUP1 PUSH1 0x3 NOT CALLDATASIZE ADD SLT PUSH2 0x48F JUMPI PUSH1 0x20 SWAP1 PUSH2 0x92F PUSH2 0x926 PUSH2 0x1D76 JUMP JUMPDEST PUSH1 0x24 CALLDATALOAD SWAP1 PUSH2 0x2210 JUMP JUMPDEST SWAP1 MLOAD SWAP1 ISZERO ISZERO DUP2 MSTORE RETURN JUMPDEST POP POP CALLVALUE PUSH2 0x48F JUMPI DUP2 PUSH1 0x3 NOT CALLDATASIZE ADD SLT PUSH2 0x48F JUMPI PUSH1 0x60 PUSH32 0x98CCEBAE89F16F152C93C6A0CDC0D99913B9E62A9FC612471C21FFC299C389FD SWAP2 PUSH32 0x0 SWAP1 PUSH1 0x1 PUSH1 0x1 PUSH1 0xA0 SHL SUB PUSH2 0x9C4 DUP2 PUSH32 0x0 AND DUP5 PUSH2 0x2362 JUMP JUMPDEST DUP2 MLOAD SWAP3 AND DUP3 MSTORE PUSH32 0x0 PUSH1 0x20 DUP4 ADD MSTORE CALLER SWAP1 DUP3 ADD MSTORE LOG1 DUP1 RETURN JUMPDEST POP SWAP1 CALLVALUE PUSH2 0x26C JUMPI PUSH1 0x60 CALLDATASIZE PUSH1 0x3 NOT ADD SLT PUSH2 0x26C JUMPI DUP2 CALLDATALOAD SWAP3 PUSH2 0xA17 PUSH2 0x1D91 JUMP JUMPDEST SWAP4 PUSH2 0xA20 PUSH2 0x1DA7 JUMP JUMPDEST SWAP5 PUSH1 0x1 PUSH1 0x1 PUSH1 0xA0 SHL SUB SWAP1 DUP2 DUP8 AND SWAP4 DUP5 CALLER SUB PUSH2 0xADD JUMPI JUMPDEST POP PUSH2 0xA48 PUSH2 0xA42 PUSH2 0x1FB0 JUMP JUMPDEST DUP5 PUSH2 0x28AD JUMP JUMPDEST SWAP6 DUP7 ISZERO PUSH2 0xACF JUMPI POP PUSH2 0xA65 DUP4 PUSH1 0x20 SWAP9 PUSH2 0xA60 DUP10 PUSH2 0x22F8 JUMP JUMPDEST PUSH2 0x27C4 JUMP JUMPDEST PUSH2 0xA90 DUP7 DUP3 PUSH32 0x0 PUSH2 0x2974 JUMP JUMPDEST DUP5 MLOAD SWAP3 DUP7 DUP5 MSTORE DUP8 DUP5 ADD MSTORE AND SWAP1 PUSH32 0xFBDE797D201C681B91056529119E0B02407C7BB96A4A2C75C01FC9667232C8DB DUP5 CALLER SWAP3 LOG4 PUSH2 0xAC9 PUSH2 0x266C JUMP JUMPDEST MLOAD SWAP1 DUP2 MSTORE RETURN JUMPDEST DUP6 MLOAD PUSH4 0xE3E8D297 PUSH1 0xE0 SHL DUP2 MSTORE REVERT JUMPDEST CALLER PUSH1 0x20 MSTORE PUSH4 0x7F5E9F20 PUSH1 0xC MSTORE DUP8 DUP2 MSTORE PUSH1 0x34 PUSH1 0xC KECCAK256 SWAP1 DUP2 SLOAD SWAP1 PUSH1 0x0 NOT DUP3 SUB PUSH2 0xB06 JUMPI JUMPDEST POP POP PUSH2 0xA36 JUMP JUMPDEST DUP2 DUP7 GT PUSH2 0xB1B JUMPI POP DUP5 SWAP1 SUB SWAP1 SSTORE CODESIZE DUP1 DUP1 PUSH2 0xAFF JUMP JUMPDEST PUSH4 0x13BE252B DUP10 SWAP2 MSTORE PUSH1 0x1C REVERT JUMPDEST POP POP CALLVALUE PUSH2 0x48F JUMPI DUP2 PUSH1 0x3 NOT CALLDATASIZE ADD SLT PUSH2 0x48F JUMPI PUSH1 0x20 SWAP1 PUSH1 0x5 SLOAD SWAP1 MLOAD SWAP1 DUP2 MSTORE RETURN JUMPDEST POP SWAP2 CALLVALUE PUSH2 0x8C3 JUMPI PUSH2 0xB56 CALLDATASIZE PUSH2 0x1E49 JUMP JUMPDEST SWAP1 SWAP2 SWAP1 PUSH1 0x1 PUSH1 0x1 PUSH1 0xA0 SHL SUB SWAP1 CALLER PUSH32 0x0 DUP4 AND EQ PUSH2 0xB9B JUMPI DUP6 MLOAD PUSH4 0x2CAC670B PUSH1 0xE2 SHL DUP2 MSTORE DUP8 SWAP1 REVERT JUMPDEST DUP6 SWAP3 SWAP2 DUP2 DUP9 SWAP3 ISZERO PUSH2 0xD47 JUMPI PUSH2 0xBAF DUP7 PUSH2 0x1FEA JUMP JUMPDEST SWAP1 POP ISZERO PUSH2 0xD37 JUMPI PUSH2 0xBC2 SWAP1 PUSH2 0x39A PUSH2 0x213E JUMP JUMPDEST PUSH1 0x2 SLOAD SWAP1 DUP2 DUP2 MUL SWAP2 DUP2 DUP4 DIV EQ SWAP1 ISZERO OR ISZERO PUSH2 0xD24 JUMPI PUSH2 0xBDE PUSH2 0x1FB0 JUMP JUMPDEST SWAP1 DUP2 ISZERO PUSH2 0xD11 JUMPI DIV SWAP5 PUSH2 0xBF2 DUP7 DUP6 DUP4 PUSH2 0x2843 JUMP JUMPDEST DUP7 SWAP3 PUSH1 0x3 SLOAD DUP1 PUSH2 0xC4C JUMPI JUMPDEST POP POP PUSH1 0x20 SWAP7 POP DUP2 PUSH32 0x6B078885A9E49E8CB7156C2C48A5423D666DFF282BD881B6174E1379FD541C3C SWAP3 PUSH1 0x60 SWAP3 PUSH2 0xC33 DUP7 DUP11 PUSH2 0x1F33 JUMP JUMPDEST DUP9 MLOAD SWAP7 DUP11 DUP9 MSTORE DUP12 DUP9 ADD MSTORE DUP9 DUP8 ADD MSTORE AND SWAP5 AND SWAP3 LOG3 MLOAD SWAP1 DUP2 MSTORE RETURN JUMPDEST PUSH2 0xC58 SWAP2 SWAP5 POP DUP8 PUSH2 0x28AD JUMP JUMPDEST SWAP3 PUSH1 0x20 DUP7 MLOAD DUP1 SWAP3 PUSH4 0xB60D15F PUSH1 0xE3 SHL DUP3 MSTORE DUP2 DUP7 PUSH32 0x0 AND GAS STATICCALL SWAP1 DUP2 ISZERO PUSH2 0xD07 JUMPI SWAP3 PUSH1 0x60 SWAP3 PUSH2 0xCD2 DUP7 DUP4 SWAP5 PUSH32 0x6B078885A9E49E8CB7156C2C48A5423D666DFF282BD881B6174E1379FD541C3C SWAP8 PUSH1 0x20 SWAP14 SWAP2 PUSH2 0xCDA JUMPI JUMPDEST POP DUP4 PUSH2 0x2843 JUMP JUMPDEST SWAP3 POP SWAP3 PUSH2 0xBFD JUMP JUMPDEST PUSH2 0xCFA SWAP2 POP DUP14 RETURNDATASIZE DUP2 GT PUSH2 0xD00 JUMPI JUMPDEST PUSH2 0xCF2 DUP2 DUP4 PUSH2 0x1EF2 JUMP JUMPDEST DUP2 ADD SWAP1 PUSH2 0x1F14 JUMP JUMPDEST DUP14 PUSH2 0xCCB JUMP JUMPDEST POP RETURNDATASIZE PUSH2 0xCE8 JUMP JUMPDEST DUP7 MLOAD RETURNDATASIZE DUP11 DUP3 RETURNDATACOPY RETURNDATASIZE SWAP1 REVERT JUMPDEST PUSH4 0x4E487B71 PUSH1 0xE0 SHL DUP9 MSTORE PUSH1 0x12 DUP5 MSTORE PUSH1 0x24 DUP9 REVERT JUMPDEST PUSH4 0x4E487B71 PUSH1 0xE0 SHL DUP8 MSTORE PUSH1 0x11 DUP4 MSTORE PUSH1 0x24 DUP8 REVERT JUMPDEST DUP5 MLOAD PUSH4 0xC381CD19 PUSH1 0xE0 SHL DUP2 MSTORE DUP4 SWAP1 REVERT JUMPDEST DUP5 MLOAD PUSH4 0xF3934A23 PUSH1 0xE0 SHL DUP2 MSTORE DUP4 SWAP1 REVERT JUMPDEST POP POP CALLVALUE PUSH2 0x48F JUMPI DUP2 PUSH1 0x3 NOT CALLDATASIZE ADD SLT PUSH2 0x48F JUMPI PUSH1 0x1 PUSH1 0x1 PUSH1 0xA0 SHL SUB PUSH1 0x20 SWAP3 SLOAD PUSH1 0x8 SHR AND SWAP1 MLOAD SWAP1 DUP2 MSTORE RETURN JUMPDEST POP SWAP2 CALLVALUE PUSH2 0x8C3 JUMPI DUP2 PUSH1 0x3 NOT CALLDATASIZE ADD SLT PUSH2 0x8C3 JUMPI PUSH2 0xD9A PUSH2 0x1D76 JUMP JUMPDEST PUSH1 0x24 CALLDATALOAD SWAP2 PUSH2 0xDA8 DUP4 CALLER PUSH2 0x271B JUMP JUMPDEST PUSH4 0x87A211A2 PUSH1 0xC MSTORE CALLER DUP2 MSTORE PUSH1 0x20 SWAP5 DUP6 PUSH1 0xC KECCAK256 SWAP1 DUP2 SLOAD SWAP1 DUP2 DUP7 GT PUSH2 0xE0A JUMPI POP DUP5 SWAP1 SUB SWAP1 SSTORE MSTORE DUP3 PUSH1 0xC KECCAK256 DUP2 DUP2 SLOAD ADD SWAP1 SSTORE DUP3 MSTORE PUSH1 0xC MLOAD PUSH1 0x60 SHR CALLER PUSH32 0xDDF252AD1BE2C89B69C2B068FC378DAA952BA7F163C4A11628F55A4DF523B3EF DUP5 DUP1 LOG3 MLOAD PUSH1 0x1 DUP2 MSTORE RETURN JUMPDEST PUSH4 0xF4D678B8 DUP5 MSTORE PUSH1 0x1C REVERT JUMPDEST POP CALLVALUE PUSH2 0x26C JUMPI PUSH1 0x20 CALLDATASIZE PUSH1 0x3 NOT ADD SLT PUSH2 0x26C JUMPI DUP1 CALLDATALOAD SWAP1 PUSH2 0xE32 PUSH2 0x25E2 JUMP JUMPDEST PUSH8 0xDE0B6B3A7640000 DUP3 LT DUP1 ISZERO PUSH2 0xE82 JUMPI JUMPDEST PUSH2 0x2D6 JUMPI POP SWAP1 PUSH32 0xAEBA5A6C40A8AC138134BFF1AAA65DEBF25971188A58804BAD717F82F0EC1316 SWAP2 PUSH1 0x2 SLOAD SWAP1 DUP1 PUSH1 0x2 SSTORE DUP3 MLOAD SWAP2 DUP3 MSTORE PUSH1 0x20 DUP3 ADD MSTORE LOG1 DUP1 RETURN JUMPDEST POP PUSH8 0xFF59EE833B30000 DUP3 GT PUSH2 0xE44 JUMP JUMPDEST POP SWAP2 CALLVALUE PUSH2 0x8C3 JUMPI DUP2 PUSH1 0x3 NOT CALLDATASIZE ADD SLT PUSH2 0x8C3 JUMPI PUSH2 0xEAD PUSH2 0x1D76 JUMP JUMPDEST PUSH1 0x24 CALLDATALOAD SWAP1 PUSH1 0x20 MSTORE PUSH4 0x7F5E9F20 PUSH1 0xC MSTORE CALLER DUP3 MSTORE PUSH1 0x34 PUSH1 0xC KECCAK256 SWAP1 DUP2 SLOAD DUP2 DUP2 LT PUSH2 0xF0B JUMPI PUSH1 0x20 SWAP6 POP SUB DUP1 SWAP2 SSTORE DUP2 MSTORE PUSH1 0x2C MLOAD PUSH1 0x60 SHR SWAP1 PUSH32 0x8C5BE1E5EBEC7D5BD14F71427D1E84F3DD0314C0F7B2291E5B200AC8C7C3B925 DUP5 CALLER SWAP3 LOG3 MLOAD PUSH1 0x1 DUP2 MSTORE RETURN JUMPDEST DUP6 PUSH4 0x8301AB38 DUP6 MSTORE PUSH1 0x1C REVERT JUMPDEST POP POP CALLVALUE PUSH2 0x48F JUMPI DUP2 PUSH1 0x3 NOT CALLDATASIZE ADD SLT PUSH2 0x48F JUMPI PUSH1 0x20 SWAP1 PUSH1 0x3 SLOAD SWAP1 MLOAD SWAP1 DUP2 MSTORE RETURN JUMPDEST POP SWAP1 CALLVALUE PUSH2 0x26C JUMPI DUP3 PUSH1 0x3 NOT CALLDATASIZE ADD SLT PUSH2 0x26C JUMPI DUP1 MLOAD PUSH4 0x95D89B41 PUSH1 0xE0 SHL DUP2 MSTORE SWAP3 DUP1 DUP5 DUP5 DUP2 PUSH32 0x0 PUSH1 0x1 PUSH1 0x1 PUSH1 0xA0 SHL SUB AND GAS STATICCALL SWAP3 DUP4 ISZERO PUSH2 0x1099 JUMPI DUP2 SWAP4 PUSH2 0xFF8 JUMPI JUMPDEST PUSH2 0xFF4 DUP5 DUP5 PUSH2 0xFEA PUSH1 0x27 DUP3 MLOAD DUP1 SWAP5 PUSH32 0x4379674C503A2000000000000000000000000000000000000000000000000000 PUSH1 0x20 DUP4 ADD MSTORE PUSH2 0xFDA DUP2 MLOAD DUP1 SWAP3 PUSH1 0x20 DUP7 DUP7 ADD SWAP2 ADD PUSH2 0x1DFA JUMP JUMPDEST DUP2 ADD SUB PUSH1 0x7 DUP2 ADD DUP6 MSTORE ADD DUP4 PUSH2 0x1EF2 JUMP JUMPDEST MLOAD SWAP2 DUP3 SWAP2 DUP3 PUSH2 0x1E1D JUMP JUMPDEST SUB SWAP1 RETURN JUMPDEST SWAP1 SWAP2 SWAP3 POP RETURNDATASIZE DUP1 DUP4 DUP7 RETURNDATACOPY PUSH2 0x100B DUP2 DUP7 PUSH2 0x1EF2 JUMP JUMPDEST DUP5 ADD SWAP2 PUSH1 0x20 DUP6 DUP5 SUB SLT PUSH2 0x8C3 JUMPI DUP5 MLOAD PUSH8 0xFFFFFFFFFFFFFFFF SWAP6 DUP7 DUP3 GT PUSH2 0x26C JUMPI ADD SWAP2 DUP4 PUSH1 0x1F DUP5 ADD SLT ISZERO PUSH2 0x48F JUMPI DUP3 MLOAD SWAP6 DUP7 GT PUSH2 0x1084 JUMPI POP DUP4 MLOAD SWAP3 PUSH2 0x1059 PUSH1 0x1F DUP8 ADD PUSH1 0x1F NOT AND PUSH1 0x20 ADD DUP6 PUSH2 0x1EF2 JUMP JUMPDEST DUP6 DUP5 MSTORE PUSH1 0x20 DUP7 DUP5 ADD ADD GT PUSH2 0x8C3 JUMPI POP PUSH2 0xFF4 SWAP4 PUSH2 0x107C SWAP2 PUSH1 0x20 DUP1 DUP6 ADD SWAP2 ADD PUSH2 0x1DFA JUMP JUMPDEST SWAP1 CODESIZE DUP1 PUSH2 0xF93 JUMP JUMPDEST PUSH1 0x41 SWAP1 PUSH4 0x4E487B71 PUSH1 0xE0 SHL PUSH1 0x0 MSTORE MSTORE PUSH1 0x24 PUSH1 0x0 REVERT JUMPDEST POP SWAP1 MLOAD SWAP1 RETURNDATASIZE SWAP1 DUP3 RETURNDATACOPY RETURNDATASIZE SWAP1 REVERT JUMPDEST POP POP CALLVALUE PUSH2 0x48F JUMPI DUP2 PUSH1 0x3 NOT CALLDATASIZE ADD SLT PUSH2 0x48F JUMPI PUSH1 0x20 SWAP1 PUSH1 0x2 SLOAD SWAP1 MLOAD SWAP1 DUP2 MSTORE RETURN JUMPDEST POP SWAP2 SWAP1 CALLVALUE PUSH2 0x48F JUMPI PUSH2 0x120 CALLDATASIZE PUSH1 0x3 NOT ADD SLT PUSH2 0x48F JUMPI DUP3 CALLDATALOAD PUSH2 0x10E3 PUSH2 0x1D91 JUMP JUMPDEST SWAP4 PUSH1 0xC0 CALLDATASIZE PUSH1 0x43 NOT ADD SLT PUSH2 0x1462 JUMPI PUSH2 0x104 SWAP1 DUP2 CALLDATALOAD PUSH8 0xFFFFFFFFFFFFFFFF DUP2 GT PUSH2 0x45C JUMPI PUSH2 0x1112 SWAP1 CALLDATASIZE SWAP1 DUP4 ADD PUSH2 0x1E7E JUMP JUMPDEST PUSH1 0x1 PUSH1 0x1 PUSH1 0xA0 SHL SUB SWAP4 DUP5 PUSH32 0x0 AND SWAP2 PUSH2 0x1149 ADDRESS DUP5 PUSH2 0x29BD JUMP JUMPDEST SWAP4 DUP2 PUSH2 0x137F JUMPI JUMPDEST POP POP POP PUSH2 0x115C DUP6 PUSH2 0x293D JUMP JUMPDEST PUSH15 0x22D473030F116DDEE9F6B43AC78BA3 SWAP1 DUP2 EXTCODESIZE ISZERO PUSH2 0x137B JUMPI DUP6 PUSH1 0x84 DUP11 SWAP3 DUP4 DUP12 MLOAD SWAP6 DUP7 SWAP5 DUP6 SWAP4 PUSH4 0x1B63C28B PUSH1 0xE1 SHL DUP6 MSTORE CALLER DUP13 DUP7 ADD MSTORE ADDRESS PUSH1 0x24 DUP7 ADD MSTORE AND PUSH1 0x44 DUP5 ADD MSTORE DUP11 PUSH32 0x0 AND PUSH1 0x64 DUP5 ADD MSTORE GAS CALL DUP1 ISZERO PUSH2 0x1371 JUMPI SWAP1 DUP9 SWAP2 PUSH2 0x1359 JUMPI JUMPDEST POP POP PUSH2 0x11FE SWAP2 PUSH2 0x11F1 PUSH2 0x11F6 SWAP3 PUSH2 0x11EA DUP9 PUSH2 0x257D JUMP JUMPDEST ADDRESS SWAP1 PUSH2 0x29BD JUMP JUMPDEST PUSH2 0x2203 JUMP JUMPDEST PUSH2 0x39A PUSH2 0x1FB0 JUMP JUMPDEST SWAP5 DUP6 ISZERO PUSH2 0x134A JUMPI PUSH9 0x5345CDF77EB68F44C SWAP1 DUP2 SLOAD SWAP1 DUP2 ISZERO PUSH2 0x12B8 JUMPI JUMPDEST POP POP DUP1 SLOAD SWAP2 DUP7 DUP4 ADD SWAP3 DUP4 LT PUSH2 0x12AC JUMPI POP SSTORE PUSH4 0x87A211A2 PUSH1 0xC MSTORE DUP5 PUSH1 0x0 MSTORE PUSH1 0x20 SWAP5 DUP6 PUSH1 0xC KECCAK256 DUP6 DUP2 SLOAD ADD SWAP1 SSTORE DUP5 DUP7 MSTORE PUSH1 0xC MLOAD PUSH1 0x60 SHR PUSH1 0x0 PUSH32 0xDDF252AD1BE2C89B69C2B068FC378DAA952BA7F163C4A11628F55A4DF523B3EF DUP9 DUP1 LOG3 DUP4 MLOAD SWAP3 DUP4 MSTORE DUP5 DUP7 DUP5 ADD MSTORE AND SWAP1 PUSH32 0xDCBC1C05240F31FF3AD067EF1EE35CE4997762752E3A095284754544F4C709D7 DUP4 CALLER SWAP3 LOG3 PUSH2 0xAC9 PUSH2 0x266C JUMP JUMPDEST PUSH4 0xE5CFE957 PUSH1 0x0 MSTORE PUSH1 0x1C REVERT JUMPDEST SWAP1 SWAP7 PUSH2 0x3E7 NOT DUP2 ADD SWAP2 SWAP1 DUP3 GT PUSH2 0x1337 JUMPI POP SWAP6 PUSH2 0x3E8 SWAP1 DUP2 DUP2 ADD SWAP1 DUP2 LT PUSH2 0x132A JUMPI DUP3 SSTORE PUSH4 0x87A211A2 PUSH1 0xC MSTORE PUSH2 0xDEAD PUSH1 0x0 MSTORE PUSH1 0x20 PUSH1 0xC KECCAK256 DUP2 DUP2 SLOAD ADD SWAP1 SSTORE PUSH1 0x20 MSTORE PUSH1 0xC MLOAD PUSH1 0x60 SHR PUSH1 0x0 PUSH32 0xDDF252AD1BE2C89B69C2B068FC378DAA952BA7F163C4A11628F55A4DF523B3EF PUSH1 0x20 DUP1 LOG3 CODESIZE DUP1 PUSH2 0x121A JUMP JUMPDEST DUP4 PUSH4 0xE5CFE957 PUSH1 0x0 MSTORE PUSH1 0x1C REVERT JUMPDEST PUSH4 0x4E487B71 PUSH1 0xE0 SHL DUP2 MSTORE PUSH1 0x11 DUP5 MSTORE PUSH1 0x24 SWAP1 REVERT JUMPDEST POP DUP4 MLOAD PUSH4 0xF1CA48B1 PUSH1 0xE0 SHL DUP2 MSTORE REVERT JUMPDEST PUSH2 0x1362 SWAP1 PUSH2 0x1EAC JUMP JUMPDEST PUSH2 0x136D JUMPI DUP7 CODESIZE PUSH2 0x11D4 JUMP JUMPDEST DUP7 DUP1 REVERT JUMPDEST DUP8 MLOAD RETURNDATASIZE DUP11 DUP3 RETURNDATACOPY RETURNDATASIZE SWAP1 REVERT JUMPDEST DUP9 DUP1 REVERT JUMPDEST PUSH15 0x22D473030F116DDEE9F6B43AC78BA3 SWAP2 DUP3 EXTCODESIZE ISZERO PUSH2 0x145E JUMPI DUP10 MLOAD PUSH4 0x2B67B57 PUSH1 0xE4 SHL DUP2 MSTORE CALLER DUP9 DUP3 ADD MSTORE SWAP4 DUP9 PUSH2 0x13B2 PUSH2 0x1DA7 JUMP JUMPDEST AND PUSH1 0x24 DUP7 ADD MSTORE PUSH1 0x64 CALLDATALOAD DUP10 DUP2 AND DUP1 SWAP2 SUB PUSH2 0x1456 JUMPI PUSH1 0x44 DUP7 ADD MSTORE PUSH1 0x84 CALLDATALOAD PUSH6 0xFFFFFFFFFFFF SWAP1 DUP2 DUP2 AND DUP1 SWAP2 SUB PUSH2 0x145A JUMPI PUSH1 0x64 DUP8 ADD MSTORE PUSH1 0xA4 CALLDATALOAD SWAP1 DUP2 AND DUP1 SWAP2 SUB PUSH2 0x1456 JUMPI PUSH1 0x84 DUP7 ADD MSTORE PUSH1 0xC4 CALLDATALOAD DUP10 DUP2 AND DUP1 SWAP2 SUB PUSH2 0x1456 JUMPI DUP6 PUSH2 0x142D DUP2 SWAP6 DUP16 SWAP8 SWAP6 DUP4 SWAP6 DUP10 SWAP6 PUSH1 0xA4 DUP7 ADD MSTORE PUSH1 0xE4 CALLDATALOAD PUSH1 0xC4 DUP7 ADD MSTORE PUSH2 0x100 PUSH1 0xE4 DUP7 ADD MSTORE DUP5 ADD SWAP2 PUSH2 0x1F56 JUMP JUMPDEST SUB SWAP3 GAS CALL DUP1 ISZERO PUSH2 0x1371 JUMPI PUSH2 0x1443 JUMPI JUMPDEST DUP1 DUP1 PUSH2 0x1150 JUMP JUMPDEST PUSH2 0x144F SWAP1 SWAP8 SWAP2 SWAP8 PUSH2 0x1EAC JUMP JUMPDEST SWAP6 CODESIZE PUSH2 0x143C JUMP JUMPDEST DUP13 DUP1 REVERT JUMPDEST DUP14 DUP1 REVERT JUMPDEST DUP11 DUP1 REVERT JUMPDEST DUP4 DUP1 REVERT JUMPDEST POP SWAP1 CALLVALUE PUSH2 0x26C JUMPI PUSH1 0x20 CALLDATASIZE PUSH1 0x3 NOT ADD SLT PUSH2 0x26C JUMPI DUP2 CALLDATALOAD SWAP2 PUSH1 0x1 PUSH1 0x1 PUSH1 0xA0 SHL SUB DUP2 SLOAD AND CALLER SUB PUSH2 0x14D6 JUMPI POP PUSH32 0xC63644116F6EF474FE595238489F3D0D31A12C55BE3A748D72269A62882B04C9 SWAP1 PUSH2 0x14B9 DUP4 PUSH2 0x257D JUMP JUMPDEST TIMESTAMP PUSH1 0x5 SSTORE DUP1 MLOAD SWAP3 DUP4 MSTORE TIMESTAMP PUSH1 0x20 DUP5 ADD MSTORE CALLER SWAP3 LOG2 PUSH2 0x14D3 PUSH2 0x266C JUMP JUMPDEST DUP1 RETURN JUMPDEST SWAP1 MLOAD PUSH4 0x9F91A891 PUSH1 0xE0 SHL DUP2 MSTORE REVERT JUMPDEST POP POP CALLVALUE PUSH2 0x48F JUMPI PUSH1 0x20 CALLDATASIZE PUSH1 0x3 NOT ADD SLT PUSH2 0x48F JUMPI PUSH1 0x20 SWAP2 PUSH2 0x1502 PUSH2 0x1D76 JUMP JUMPDEST SWAP1 PUSH4 0x38377508 PUSH1 0xC MSTORE MSTORE DUP2 PUSH1 0xC KECCAK256 SLOAD SWAP1 MLOAD SWAP1 DUP2 MSTORE RETURN JUMPDEST POP POP CALLVALUE PUSH2 0x48F JUMPI PUSH1 0x20 CALLDATASIZE PUSH1 0x3 NOT ADD SLT PUSH2 0x48F JUMPI PUSH1 0x20 SWAP2 PUSH2 0x1536 PUSH2 0x1D76 JUMP JUMPDEST SWAP1 PUSH4 0x87A211A2 PUSH1 0xC MSTORE MSTORE DUP2 PUSH1 0xC KECCAK256 SLOAD SWAP1 MLOAD SWAP1 DUP2 MSTORE RETURN JUMPDEST POP POP CALLVALUE PUSH2 0x48F JUMPI DUP2 PUSH1 0x3 NOT CALLDATASIZE ADD SLT PUSH2 0x48F JUMPI PUSH1 0x20 SWAP1 MLOAD PUSH1 0x1 PUSH1 0x1 PUSH1 0xA0 SHL SUB PUSH32 0x0 AND DUP2 MSTORE RETURN JUMPDEST POP POP CALLVALUE PUSH2 0x48F JUMPI DUP2 PUSH1 0x3 NOT CALLDATASIZE ADD SLT PUSH2 0x48F JUMPI PUSH1 0x20 SWAP1 MLOAD PUSH15 0x22D473030F116DDEE9F6B43AC78BA3 DUP2 MSTORE RETURN JUMPDEST POP POP CALLVALUE PUSH2 0x48F JUMPI DUP2 PUSH1 0x3 NOT CALLDATASIZE ADD SLT PUSH2 0x48F JUMPI PUSH1 0x20 SWAP1 MLOAD PUSH32 0x0 DUP2 MSTORE RETURN JUMPDEST DUP3 DUP5 CALLVALUE PUSH2 0x8C3 JUMPI PUSH1 0x20 CALLDATASIZE PUSH1 0x3 NOT ADD SLT PUSH2 0x8C3 JUMPI POP PUSH2 0x1619 PUSH2 0x1614 PUSH2 0x1D76 JUMP JUMPDEST PUSH2 0x1FEA JUMP JUMPDEST DUP3 MLOAD SWAP2 DUP3 MSTORE PUSH1 0x20 DUP3 ADD MSTORE RETURN JUMPDEST POP POP CALLVALUE PUSH2 0x48F JUMPI DUP2 PUSH1 0x3 NOT CALLDATASIZE ADD SLT PUSH2 0x48F JUMPI PUSH1 0x20 SWAP1 PUSH2 0x1642 PUSH2 0x213E JUMP JUMPDEST SWAP1 MLOAD SWAP1 DUP2 MSTORE RETURN JUMPDEST POP SWAP2 CALLVALUE PUSH2 0x8C3 JUMPI DUP1 PUSH1 0x3 NOT CALLDATASIZE ADD SLT PUSH2 0x8C3 JUMPI POP PUSH1 0x1 PUSH1 0x1 PUSH1 0xA0 SHL SUB PUSH1 0x20 SWAP3 SLOAD AND SWAP1 MLOAD SWAP1 DUP2 MSTORE RETURN JUMPDEST POP POP CALLVALUE PUSH2 0x48F JUMPI DUP2 PUSH1 0x3 NOT CALLDATASIZE ADD SLT PUSH2 0x48F JUMPI PUSH1 0x20 SWAP1 PUSH2 0x1642 PUSH2 0x1FB0 JUMP JUMPDEST POP SWAP2 CALLVALUE PUSH2 0x8C3 JUMPI DUP2 PUSH1 0x3 NOT CALLDATASIZE ADD SLT PUSH2 0x8C3 JUMPI PUSH2 0x16A7 PUSH2 0x1D76 JUMP JUMPDEST PUSH1 0x20 MSTORE PUSH4 0x7F5E9F20 PUSH1 0xC MSTORE CALLER DUP2 MSTORE PUSH1 0x34 PUSH1 0xC KECCAK256 SWAP3 DUP4 SLOAD SWAP1 PUSH1 0x24 CALLDATALOAD DUP3 ADD SWAP2 DUP3 LT PUSH2 0x1705 JUMPI POP DUP1 PUSH1 0x20 SWAP5 SSTORE DUP2 MSTORE PUSH1 0x2C MLOAD PUSH1 0x60 SHR SWAP1 PUSH32 0x8C5BE1E5EBEC7D5BD14F71427D1E84F3DD0314C0F7B2291E5B200AC8C7C3B925 DUP5 CALLER SWAP3 LOG3 MLOAD PUSH1 0x1 DUP2 MSTORE RETURN JUMPDEST PUSH4 0xF9067066 DUP4 MSTORE PUSH1 0x1C REVERT JUMPDEST POP POP CALLVALUE PUSH2 0x48F JUMPI DUP2 PUSH1 0x3 NOT CALLDATASIZE ADD SLT PUSH2 0x48F JUMPI PUSH1 0x20 SWAP1 PUSH2 0x1642 PUSH2 0x2752 JUMP JUMPDEST POP SWAP2 CALLVALUE PUSH2 0x8C3 JUMPI DUP1 PUSH1 0x3 NOT CALLDATASIZE ADD SLT PUSH2 0x8C3 JUMPI PUSH1 0x20 DUP3 MLOAD DUP1 SWAP5 PUSH4 0x313CE567 PUSH1 0xE0 SHL DUP3 MSTORE DUP2 PUSH1 0x1 PUSH1 0x1 PUSH1 0xA0 SHL SUB PUSH32 0x0 AND GAS STATICCALL SWAP3 DUP4 ISZERO PUSH2 0x1099 JUMPI DUP2 SWAP4 PUSH2 0x1797 JUMPI JUMPDEST PUSH1 0x20 DUP5 PUSH1 0xFF DUP6 MLOAD SWAP2 AND DUP2 MSTORE RETURN JUMPDEST SWAP1 SWAP3 POP PUSH1 0x20 DUP2 RETURNDATASIZE DUP3 GT PUSH2 0x17D0 JUMPI JUMPDEST DUP2 PUSH2 0x17B2 PUSH1 0x20 SWAP4 DUP4 PUSH2 0x1EF2 JUMP JUMPDEST DUP2 ADD SUB SLT PUSH2 0x26C JUMPI MLOAD SWAP2 PUSH1 0xFF DUP4 AND DUP4 SUB PUSH2 0x8C3 JUMPI POP PUSH1 0xFF PUSH1 0x20 PUSH2 0x178A JUMP JUMPDEST RETURNDATASIZE SWAP2 POP PUSH2 0x17A5 JUMP JUMPDEST POP SWAP2 SWAP1 CALLVALUE PUSH2 0x48F JUMPI PUSH2 0x17E9 CALLDATASIZE PUSH2 0x1E49 JUMP JUMPDEST PUSH2 0x17F3 DUP2 DUP5 PUSH2 0x271B JUMP JUMPDEST DUP3 PUSH1 0x60 SHL SWAP2 PUSH1 0x20 SWAP6 CALLER DUP8 MSTORE PUSH1 0xC SWAP4 PUSH4 0x7F5E9F20 DUP2 OR DUP6 MSTORE PUSH1 0x34 DUP6 KECCAK256 DUP1 SLOAD PUSH1 0x0 NOT DUP2 SUB PUSH2 0x188A JUMPI JUMPDEST POP POP PUSH4 0x87A211A2 OR DUP5 MSTORE DUP7 DUP5 KECCAK256 DUP1 SLOAD SWAP9 DUP10 DUP6 GT PUSH2 0x187F JUMPI POP DUP4 PUSH1 0x1 PUSH1 0x1 PUSH1 0xA0 SHL SUB SWAP7 SWAP8 SWAP9 SWAP10 SUB SWAP1 SSTORE MSTORE DUP6 DUP3 KECCAK256 DUP2 DUP2 SLOAD ADD SWAP1 SSTORE DUP6 MSTORE MLOAD PUSH1 0x60 SHR SWAP2 AND PUSH32 0xDDF252AD1BE2C89B69C2B068FC378DAA952BA7F163C4A11628F55A4DF523B3EF DUP5 DUP1 LOG3 MLOAD PUSH1 0x1 DUP2 MSTORE RETURN JUMPDEST PUSH4 0xF4D678B8 DUP4 MSTORE PUSH1 0x1C REVERT JUMPDEST DUP1 DUP7 GT PUSH2 0x18A1 JUMPI DUP6 SWAP1 SUB SWAP1 SSTORE PUSH4 0x87A211A2 CODESIZE PUSH2 0x181A JUMP JUMPDEST DUP11 PUSH4 0x13BE252B DUP6 MSTORE PUSH1 0x1C REVERT JUMPDEST POP SWAP2 SWAP1 CALLVALUE PUSH2 0x48F JUMPI PUSH1 0x20 CALLDATASIZE PUSH1 0x3 NOT ADD SLT PUSH2 0x48F JUMPI PUSH2 0x18C9 PUSH2 0x1D76 JUMP JUMPDEST SWAP1 DUP3 SLOAD SWAP2 PUSH1 0xFF DUP4 AND ISZERO PUSH2 0x1978 JUMPI PUSH1 0xFF NOT SWAP3 DUP4 AND DUP5 SSTORE PUSH2 0x18E6 PUSH2 0x25E2 JUMP JUMPDEST PUSH1 0x1 PUSH1 0x1 PUSH1 0xA0 SHL SUB SWAP2 DUP3 DUP3 AND SWAP3 PUSH32 0x0 AND DUP4 EQ PUSH2 0x1969 JUMPI PUSH1 0x1 SWAP5 SWAP6 POP PUSH2 0x1936 PUSH2 0x192D ADDRESS DUP5 PUSH2 0x29BD JUMP JUMPDEST DUP1 SWAP4 CALLER SWAP1 PUSH2 0x2974 JUMP JUMPDEST MLOAD SWAP1 DUP2 MSTORE PUSH32 0x6D25BE279134F4ECAA4770AFF0C3D916D9E7C5EF37B65ED95DBDBA411F5D54D5 PUSH1 0x20 CALLER SWAP3 LOG3 DUP3 SLOAD AND OR DUP2 SSTORE DUP1 RETURN JUMPDEST MLOAD PUSH4 0xB5D8F391 PUSH1 0xE0 SHL DUP2 MSTORE DUP6 SWAP1 REVERT JUMPDEST DUP2 MLOAD PUSH4 0x6FDA65D PUSH1 0xE3 SHL DUP2 MSTORE DUP6 SWAP1 REVERT JUMPDEST POP POP CALLVALUE PUSH2 0x48F JUMPI DUP2 PUSH1 0x3 NOT CALLDATASIZE ADD SLT PUSH2 0x48F JUMPI PUSH1 0x20 SWAP1 PUSH9 0x5345CDF77EB68F44C SLOAD SWAP1 MLOAD SWAP1 DUP2 MSTORE RETURN JUMPDEST POP DUP3 SWAP1 CALLVALUE PUSH2 0x48F JUMPI PUSH1 0x20 SWAP3 DUP4 PUSH1 0x3 NOT CALLDATASIZE ADD SLT PUSH2 0x26C JUMPI DUP2 CALLDATALOAD SWAP1 PUSH1 0x1 PUSH1 0x1 PUSH1 0xA0 SHL SUB SWAP1 DUP2 DUP4 AND DUP1 SWAP4 SUB PUSH2 0x42E JUMPI PUSH2 0x19E3 PUSH2 0x25E2 JUMP JUMPDEST DUP4 SLOAD SWAP6 DUP4 PUSH32 0xFFFFFFFFFFFFFFFFFFFFFFFF0000000000000000000000000000000000000000 DUP9 AND OR DUP6 SSTORE PUSH2 0x1A15 PUSH2 0x2461 JUMP JUMPDEST POP SWAP2 PUSH32 0x0 DUP5 AND DUP8 JUMPDEST DUP5 MLOAD DUP2 LT ISZERO PUSH2 0x1B0D JUMPI DUP2 DUP7 PUSH2 0x1A51 DUP4 DUP9 PUSH2 0x244D JUMP JUMPDEST MLOAD AND SUB PUSH2 0x1A7D JUMPI JUMPDEST PUSH1 0x0 NOT DUP2 EQ PUSH2 0x1A6A JUMPI PUSH1 0x1 ADD PUSH2 0x1A3C JUMP JUMPDEST PUSH4 0x4E487B71 PUSH1 0xE0 SHL DUP10 MSTORE PUSH1 0x11 DUP9 MSTORE PUSH1 0x24 DUP10 REVERT JUMPDEST DUP6 PUSH2 0x1A88 DUP3 DUP8 PUSH2 0x244D JUMP JUMPDEST MLOAD AND DUP5 DUP8 DUP11 SLOAD AND PUSH1 0x44 DUP12 DUP8 MLOAD SWAP5 DUP6 SWAP4 DUP5 SWAP3 PUSH4 0x6EB1769F PUSH1 0xE1 SHL DUP5 MSTORE ADDRESS SWAP1 DUP5 ADD MSTORE PUSH1 0x24 DUP4 ADD MSTORE GAS STATICCALL DUP1 ISZERO PUSH2 0x1B03 JUMPI SWAP1 DUP6 SWAP2 PUSH2 0x1ADA JUMPI JUMPDEST POP POP PUSH2 0x1AD5 DUP8 DUP8 PUSH2 0x1ACE DUP5 DUP10 PUSH2 0x244D JUMP JUMPDEST MLOAD AND PUSH2 0x2362 JUMP JUMPDEST PUSH2 0x1A59 JUMP JUMPDEST DUP2 RETURNDATASIZE DUP4 GT PUSH2 0x1AFC JUMPI JUMPDEST PUSH2 0x1AED DUP2 DUP4 PUSH2 0x1EF2 JUMP JUMPDEST DUP2 ADD SUB SLT PUSH2 0x137B JUMPI DUP4 DUP12 PUSH2 0x1ABD JUMP JUMPDEST POP RETURNDATASIZE PUSH2 0x1AE3 JUMP JUMPDEST DUP5 MLOAD RETURNDATASIZE DUP13 DUP3 RETURNDATACOPY RETURNDATASIZE SWAP1 REVERT JUMPDEST DUP9 PUSH32 0x6A97A9E954AE4EF4C8ECC6C7DD8A1CBE668254132294CEB515DB9A2E4FAAD7F5 DUP5 DUP13 DUP11 DUP9 DUP12 DUP5 MLOAD SWAP4 AND DUP4 MSTORE DUP3 ADD MSTORE LOG1 DUP1 RETURN JUMPDEST POP POP CALLVALUE PUSH2 0x48F JUMPI DUP1 PUSH1 0x3 NOT CALLDATASIZE ADD SLT PUSH2 0x48F JUMPI PUSH1 0x20 SWAP2 PUSH2 0x1B5E PUSH2 0x1D76 JUMP JUMPDEST PUSH1 0x24 CALLDATALOAD SWAP1 DUP5 MSTORE PUSH4 0x7F5E9F20 PUSH1 0xC MSTORE CALLER DUP3 MSTORE DUP1 PUSH1 0x34 PUSH1 0xC KECCAK256 SSTORE DUP2 MSTORE PUSH1 0x2C MLOAD PUSH1 0x60 SHR SWAP1 PUSH32 0x8C5BE1E5EBEC7D5BD14F71427D1E84F3DD0314C0F7B2291E5B200AC8C7C3B925 DUP5 CALLER SWAP3 LOG3 MLOAD PUSH1 0x1 DUP2 MSTORE RETURN JUMPDEST POP POP CALLVALUE PUSH2 0x48F JUMPI DUP2 PUSH1 0x3 NOT CALLDATASIZE ADD SLT PUSH2 0x48F JUMPI PUSH2 0xFF4 SWAP1 PUSH2 0x1BC9 PUSH2 0x1F77 JUMP JUMPDEST SWAP1 MLOAD SWAP2 DUP3 SWAP2 DUP3 PUSH2 0x1E1D JUMP JUMPDEST POP SWAP2 CALLVALUE PUSH2 0x8C3 JUMPI DUP1 PUSH1 0x3 NOT CALLDATASIZE ADD SLT PUSH2 0x8C3 JUMPI DUP1 SLOAD SWAP3 PUSH1 0xFF DUP5 AND ISZERO PUSH2 0x1C58 JUMPI POP PUSH1 0xFF NOT SWAP3 DUP4 AND DUP2 SSTORE PUSH2 0x1C22 SWAP3 SWAP1 PUSH2 0x1C08 PUSH2 0x2461 JUMP JUMPDEST SWAP5 SWAP1 PUSH1 0x1 DUP1 SWAP5 DUP5 SLOAD AND OR DUP4 SSTORE DUP5 MLOAD SWAP5 DUP1 DUP7 MSTORE DUP6 ADD SWAP1 PUSH2 0x1DBD JUMP JUMPDEST PUSH1 0x20 DUP5 DUP3 SUB DUP2 DUP7 ADD MSTORE DUP1 DUP1 DUP8 MLOAD SWAP4 DUP5 DUP2 MSTORE ADD SWAP7 ADD SWAP3 JUMPDEST DUP3 DUP2 LT PUSH2 0x1C45 JUMPI DUP6 DUP8 SUB DUP7 RETURN JUMPDEST DUP4 MLOAD DUP8 MSTORE SWAP6 DUP2 ADD SWAP6 SWAP3 DUP2 ADD SWAP3 DUP5 ADD PUSH2 0x1C38 JUMP JUMPDEST DUP3 MLOAD PUSH4 0x6FDA65D PUSH1 0xE3 SHL DUP2 MSTORE REVERT JUMPDEST POP SWAP2 CALLVALUE PUSH2 0x8C3 JUMPI PUSH1 0x20 SWAP3 DUP4 PUSH1 0x3 NOT CALLDATASIZE ADD SLT PUSH2 0x48F JUMPI PUSH2 0x1C83 PUSH2 0x1D76 JUMP JUMPDEST PUSH4 0x87A211A2 PUSH1 0xC MSTORE DUP1 DUP4 MSTORE DUP5 PUSH2 0x1CAA PUSH2 0x1CA2 DUP3 PUSH1 0xC KECCAK256 SLOAD PUSH2 0x82A PUSH2 0x1FB0 JUMP JUMPDEST PUSH2 0x82A PUSH2 0x213E JUMP JUMPDEST SWAP3 PUSH1 0x24 DUP7 MLOAD DUP1 SWAP5 DUP2 SWAP4 PUSH4 0x7D6AF079 PUSH1 0xE0 SHL DUP4 MSTORE PUSH1 0x1 PUSH1 0x1 PUSH1 0xA0 SHL SUB DUP1 SWAP3 AND SWAP1 DUP4 ADD MSTORE PUSH32 0x0 AND GAS STATICCALL DUP1 ISZERO PUSH2 0x1D6C JUMPI DUP4 SWAP1 PUSH2 0x1D3D JUMPI JUMPDEST PUSH2 0x1D17 SWAP2 POP PUSH2 0x1D11 PUSH1 0x2 SLOAD PUSH1 0x3 SLOAD SWAP1 PUSH2 0x1F33 JUMP JUMPDEST SWAP1 PUSH2 0x28D8 JUMP JUMPDEST SWAP1 DUP1 PUSH2 0x1D26 JUMPI POP POP SWAP1 MLOAD SWAP1 DUP2 MSTORE RETURN JUMPDEST PUSH1 0x1 SLOAD PUSH2 0x1D37 SWAP4 POP PUSH2 0x39A SWAP2 PUSH2 0x28AD JUMP JUMPDEST SWAP1 PUSH2 0xAC9 JUMP JUMPDEST POP DUP5 DUP2 DUP2 RETURNDATASIZE DUP4 GT PUSH2 0x1D65 JUMPI JUMPDEST PUSH2 0x1D53 DUP2 DUP4 PUSH2 0x1EF2 JUMP JUMPDEST DUP2 ADD SUB SLT PUSH2 0x26C JUMPI PUSH2 0x1D17 SWAP1 MLOAD PUSH2 0x1CFD JUMP JUMPDEST POP RETURNDATASIZE PUSH2 0x1D49 JUMP JUMPDEST DUP5 MLOAD RETURNDATASIZE DUP6 DUP3 RETURNDATACOPY RETURNDATASIZE SWAP1 REVERT JUMPDEST PUSH1 0x4 CALLDATALOAD SWAP1 PUSH1 0x1 PUSH1 0x1 PUSH1 0xA0 SHL SUB DUP3 AND DUP3 SUB PUSH2 0x1D8C JUMPI JUMP JUMPDEST PUSH1 0x0 DUP1 REVERT JUMPDEST PUSH1 0x24 CALLDATALOAD SWAP1 PUSH1 0x1 PUSH1 0x1 PUSH1 0xA0 SHL SUB DUP3 AND DUP3 SUB PUSH2 0x1D8C JUMPI JUMP JUMPDEST PUSH1 0x44 CALLDATALOAD SWAP1 PUSH1 0x1 PUSH1 0x1 PUSH1 0xA0 SHL SUB DUP3 AND DUP3 SUB PUSH2 0x1D8C JUMPI JUMP JUMPDEST SWAP1 DUP2 MLOAD DUP1 DUP3 MSTORE PUSH1 0x20 DUP1 DUP1 SWAP4 ADD SWAP4 ADD SWAP2 PUSH1 0x0 JUMPDEST DUP3 DUP2 LT PUSH2 0x1DDD JUMPI POP POP POP POP SWAP1 JUMP JUMPDEST DUP4 MLOAD PUSH1 0x1 PUSH1 0x1 PUSH1 0xA0 SHL SUB AND DUP6 MSTORE SWAP4 DUP2 ADD SWAP4 SWAP3 DUP2 ADD SWAP3 PUSH1 0x1 ADD PUSH2 0x1DCF JUMP JUMPDEST PUSH1 0x0 JUMPDEST DUP4 DUP2 LT PUSH2 0x1E0D JUMPI POP POP PUSH1 0x0 SWAP2 ADD MSTORE JUMP JUMPDEST DUP2 DUP2 ADD MLOAD DUP4 DUP3 ADD MSTORE PUSH1 0x20 ADD PUSH2 0x1DFD JUMP JUMPDEST PUSH1 0x40 SWAP2 PUSH1 0x20 DUP3 MSTORE PUSH2 0x1E3D DUP2 MLOAD DUP1 SWAP3 DUP2 PUSH1 0x20 DUP7 ADD MSTORE PUSH1 0x20 DUP7 DUP7 ADD SWAP2 ADD PUSH2 0x1DFA JUMP JUMPDEST PUSH1 0x1F ADD PUSH1 0x1F NOT AND ADD ADD SWAP1 JUMP JUMPDEST PUSH1 0x60 SWAP1 PUSH1 0x3 NOT ADD SLT PUSH2 0x1D8C JUMPI PUSH1 0x1 PUSH1 0x1 PUSH1 0xA0 SHL SUB SWAP1 PUSH1 0x4 CALLDATALOAD DUP3 DUP2 AND DUP2 SUB PUSH2 0x1D8C JUMPI SWAP2 PUSH1 0x24 CALLDATALOAD SWAP1 DUP2 AND DUP2 SUB PUSH2 0x1D8C JUMPI SWAP1 PUSH1 0x44 CALLDATALOAD SWAP1 JUMP JUMPDEST SWAP2 DUP2 PUSH1 0x1F DUP5 ADD SLT ISZERO PUSH2 0x1D8C JUMPI DUP3 CALLDATALOAD SWAP2 PUSH8 0xFFFFFFFFFFFFFFFF DUP4 GT PUSH2 0x1D8C JUMPI PUSH1 0x20 DUP4 DUP2 DUP7 ADD SWAP6 ADD ADD GT PUSH2 0x1D8C JUMPI JUMP JUMPDEST PUSH8 0xFFFFFFFFFFFFFFFF DUP2 GT PUSH2 0x1EC0 JUMPI PUSH1 0x40 MSTORE JUMP JUMPDEST PUSH4 0x4E487B71 PUSH1 0xE0 SHL PUSH1 0x0 MSTORE PUSH1 0x41 PUSH1 0x4 MSTORE PUSH1 0x24 PUSH1 0x0 REVERT JUMPDEST PUSH1 0x40 DUP2 ADD SWAP1 DUP2 LT PUSH8 0xFFFFFFFFFFFFFFFF DUP3 GT OR PUSH2 0x1EC0 JUMPI PUSH1 0x40 MSTORE JUMP JUMPDEST SWAP1 PUSH1 0x1F DUP1 NOT SWAP2 ADD AND DUP2 ADD SWAP1 DUP2 LT PUSH8 0xFFFFFFFFFFFFFFFF DUP3 GT OR PUSH2 0x1EC0 JUMPI PUSH1 0x40 MSTORE JUMP JUMPDEST SWAP1 DUP2 PUSH1 0x20 SWAP2 SUB SLT PUSH2 0x1D8C JUMPI MLOAD PUSH1 0x1 PUSH1 0x1 PUSH1 0xA0 SHL SUB DUP2 AND DUP2 SUB PUSH2 0x1D8C JUMPI SWAP1 JUMP JUMPDEST SWAP2 SWAP1 DUP3 ADD DUP1 SWAP3 GT PUSH2 0x1F40 JUMPI JUMP JUMPDEST PUSH4 0x4E487B71 PUSH1 0xE0 SHL PUSH1 0x0 MSTORE PUSH1 0x11 PUSH1 0x4 MSTORE PUSH1 0x24 PUSH1 0x0 REVERT JUMPDEST SWAP1 DUP1 PUSH1 0x20 SWAP4 SWAP3 DUP2 DUP5 MSTORE DUP5 DUP5 ADD CALLDATACOPY PUSH1 0x0 DUP3 DUP3 ADD DUP5 ADD MSTORE PUSH1 0x1F ADD PUSH1 0x1F NOT AND ADD ADD SWAP1 JUMP JUMPDEST PUSH1 0x40 MLOAD SWAP1 PUSH2 0x1F84 DUP3 PUSH2 0x1ED6 JUMP JUMPDEST PUSH1 0x12 DUP3 MSTORE PUSH32 0x4379676E75733A20436F6C6C61746572616C0000000000000000000000000000 PUSH1 0x20 DUP4 ADD MSTORE JUMP JUMPDEST PUSH9 0x5345CDF77EB68F44C SLOAD PUSH1 0x0 SWAP1 DUP1 PUSH2 0x1FD1 JUMPI POP POP PUSH8 0xDE0B6B3A7640000 SWAP1 JUMP JUMPDEST PUSH1 0x1 PUSH1 0x1 PUSH1 0xA0 SHL SUB PUSH2 0x1FE7 SWAP3 SLOAD PUSH1 0x8 SHR AND PUSH2 0x28FA JUMP JUMPDEST SWAP1 JUMP JUMPDEST PUSH1 0x1 PUSH1 0x1 PUSH1 0xA0 SHL SUB SWAP2 SWAP1 DUP3 DUP2 AND DUP1 PUSH2 0x200E JUMPI PUSH1 0x40 MLOAD PUSH4 0x6E7AC57D PUSH1 0xE1 SHL DUP2 MSTORE PUSH1 0x4 SWAP1 REVERT JUMPDEST ADDRESS DUP2 EQ PUSH2 0x20C9 JUMPI PUSH1 0x20 SWAP1 PUSH1 0x24 PUSH1 0x40 MLOAD DUP1 SWAP7 DUP2 SWAP4 PUSH4 0x7D6AF079 PUSH1 0xE0 SHL DUP4 MSTORE PUSH1 0x4 DUP4 ADD MSTORE PUSH32 0x0 AND GAS STATICCALL SWAP3 DUP4 ISZERO PUSH2 0x20BD JUMPI PUSH1 0x0 SWAP4 PUSH2 0x208A JUMPI JUMPDEST POP SWAP2 PUSH2 0x2086 SWAP2 SWAP3 PUSH4 0x87A211A2 PUSH1 0xC MSTORE PUSH1 0x0 MSTORE PUSH2 0x830 PUSH1 0x20 PUSH1 0xC KECCAK256 SLOAD PUSH2 0x82A PUSH2 0x1FB0 JUMP JUMPDEST SWAP1 SWAP2 JUMP JUMPDEST PUSH1 0x20 DUP2 RETURNDATASIZE DUP3 GT PUSH2 0x20B5 JUMPI JUMPDEST DUP2 PUSH2 0x20A2 PUSH1 0x20 SWAP4 DUP4 PUSH2 0x1EF2 JUMP JUMPDEST DUP2 ADD SUB SLT PUSH2 0x1462 JUMPI MLOAD SWAP3 POP PUSH2 0x2086 PUSH2 0x2063 JUMP JUMPDEST RETURNDATASIZE SWAP2 POP PUSH2 0x2095 JUMP JUMPDEST PUSH1 0x40 MLOAD RETURNDATASIZE PUSH1 0x0 DUP3 RETURNDATACOPY RETURNDATASIZE SWAP1 REVERT JUMPDEST PUSH1 0x40 MLOAD PUSH4 0xBF8C13AF PUSH1 0xE0 SHL DUP2 MSTORE PUSH1 0x4 SWAP1 REVERT JUMPDEST PUSH2 0x20EA PUSH2 0x20F3 SWAP2 PUSH2 0x82A PUSH2 0x213E JUMP JUMPDEST PUSH1 0x1 SLOAD SWAP1 PUSH2 0x28AD JUMP JUMPDEST SWAP1 DUP1 ISZERO PUSH2 0x2124 JUMPI PUSH2 0x210D SWAP1 PUSH2 0x1D11 PUSH1 0x2 SLOAD PUSH1 0x3 SLOAD SWAP1 PUSH2 0x1F33 JUMP JUMPDEST SWAP1 DUP2 DUP2 LT PUSH2 0x211C JUMPI SUB SWAP1 PUSH1 0x0 SWAP1 JUMP JUMPDEST PUSH1 0x0 SWAP3 SWAP2 SUB SWAP1 JUMP JUMPDEST POP PUSH2 0x2138 SWAP1 PUSH2 0x39A PUSH1 0x2 SLOAD PUSH1 0x3 SLOAD SWAP1 PUSH2 0x1F33 JUMP JUMPDEST SWAP1 PUSH1 0x0 SWAP1 JUMP JUMPDEST PUSH1 0x40 MLOAD SWAP1 PUSH4 0x17E5A1A1 PUSH1 0xE0 SHL DUP3 MSTORE PUSH1 0x20 DUP3 PUSH1 0x24 DUP2 PUSH1 0x1 PUSH1 0x1 PUSH1 0xA0 SHL SUB DUP1 PUSH32 0x0 AND PUSH1 0x4 DUP4 ADD MSTORE PUSH32 0x0 AND GAS STATICCALL SWAP2 DUP3 ISZERO PUSH2 0x20BD JUMPI PUSH1 0x0 SWAP3 PUSH2 0x21D0 JUMPI JUMPDEST POP DUP2 ISZERO PUSH2 0x21BE JUMPI JUMP JUMPDEST PUSH1 0x40 MLOAD PUSH4 0x586AD3B9 PUSH1 0xE1 SHL DUP2 MSTORE PUSH1 0x4 SWAP1 REVERT JUMPDEST SWAP1 SWAP2 PUSH1 0x20 DUP3 RETURNDATASIZE DUP3 GT PUSH2 0x21FB JUMPI JUMPDEST DUP2 PUSH2 0x21EA PUSH1 0x20 SWAP4 DUP4 PUSH2 0x1EF2 JUMP JUMPDEST DUP2 ADD SUB SLT PUSH2 0x8C3 JUMPI POP MLOAD SWAP1 CODESIZE PUSH2 0x21B5 JUMP JUMPDEST RETURNDATASIZE SWAP2 POP PUSH2 0x21DD JUMP JUMPDEST SWAP2 SWAP1 DUP3 SUB SWAP2 DUP3 GT PUSH2 0x1F40 JUMPI JUMP JUMPDEST SWAP2 SWAP1 SWAP2 PUSH4 0x87A211A2 PUSH1 0xC MSTORE PUSH1 0x0 SWAP3 DUP2 DUP5 MSTORE PUSH1 0x20 PUSH1 0xC KECCAK256 SLOAD DUP1 DUP3 GT PUSH2 0x22F3 JUMPI PUSH2 0x2248 PUSH2 0x2240 PUSH1 0x24 SWAP5 SWAP4 PUSH1 0x20 SWAP4 PUSH2 0x2203 JUMP JUMPDEST PUSH2 0x82A PUSH2 0x1FB0 JUMP JUMPDEST SWAP2 PUSH1 0x40 MLOAD SWAP4 DUP5 DUP1 SWAP3 PUSH4 0x7D6AF079 PUSH1 0xE0 SHL DUP3 MSTORE PUSH1 0x1 PUSH1 0x1 PUSH1 0xA0 SHL SUB DUP1 SWAP2 AND PUSH1 0x4 DUP4 ADD MSTORE PUSH32 0x0 AND GAS STATICCALL SWAP2 DUP3 ISZERO PUSH2 0x22E8 JUMPI DUP5 SWAP3 PUSH2 0x22AE JUMPI JUMPDEST POP PUSH2 0x22A8 SWAP3 SWAP4 POP PUSH2 0x20DB JUMP JUMPDEST SWAP1 POP ISZERO SWAP1 JUMP JUMPDEST SWAP1 SWAP2 POP PUSH1 0x20 DUP2 RETURNDATASIZE DUP3 GT PUSH2 0x22E0 JUMPI JUMPDEST DUP2 PUSH2 0x22C9 PUSH1 0x20 SWAP4 DUP4 PUSH2 0x1EF2 JUMP JUMPDEST DUP2 ADD SUB SLT PUSH2 0x1462 JUMPI PUSH2 0x22A8 SWAP3 SWAP4 POP MLOAD SWAP1 DUP4 SWAP3 PUSH2 0x229C JUMP JUMPDEST RETURNDATASIZE SWAP2 POP PUSH2 0x22BC JUMP JUMPDEST PUSH1 0x40 MLOAD RETURNDATASIZE DUP7 DUP3 RETURNDATACOPY RETURNDATASIZE SWAP1 REVERT JUMPDEST POP POP POP JUMP JUMPDEST PUSH1 0x1 PUSH1 0x1 PUSH1 0xA0 SHL SUB PUSH32 0x0 AND SWAP1 DUP2 EXTCODESIZE ISZERO PUSH2 0x1D8C JUMPI PUSH1 0x0 SWAP2 PUSH1 0x24 DUP4 SWAP3 PUSH1 0x40 MLOAD SWAP5 DUP6 SWAP4 DUP5 SWAP3 PUSH4 0x2E1A7D4D PUSH1 0xE0 SHL DUP5 MSTORE PUSH1 0x4 DUP5 ADD MSTORE GAS CALL DUP1 ISZERO PUSH2 0x20BD JUMPI PUSH2 0x2357 JUMPI POP JUMP JUMPDEST PUSH2 0x2360 SWAP1 PUSH2 0x1EAC JUMP JUMPDEST JUMP JUMPDEST SWAP1 PUSH1 0x40 MLOAD SWAP2 PUSH4 0x6EB1769F PUSH1 0xE1 SHL DUP4 MSTORE ADDRESS PUSH1 0x4 DUP5 ADD MSTORE PUSH1 0x20 DUP4 PUSH1 0x44 DUP2 PUSH1 0x1 PUSH1 0x1 PUSH1 0xA0 SHL SUB DUP1 DUP8 AND PUSH1 0x24 DUP4 ADD MSTORE DUP6 AND GAS STATICCALL SWAP3 DUP4 ISZERO PUSH2 0x20BD JUMPI PUSH1 0x0 SWAP4 PUSH2 0x23F7 JUMPI JUMPDEST POP PUSH1 0x0 NOT DUP1 SWAP4 LT ISZERO PUSH2 0x22F3 JUMPI PUSH1 0x10 PUSH1 0x0 PUSH1 0x44 SWAP3 PUSH1 0x20 SWAP6 DUP3 SWAP6 PUSH1 0x14 MSTORE PUSH1 0x34 MSTORE PUSH16 0x95EA7B3000000000000000000000000 DUP3 MSTORE GAS CALL RETURNDATASIZE ISZERO PUSH1 0x1 PUSH1 0x0 MLOAD EQ OR AND ISZERO PUSH2 0x23E9 JUMPI PUSH1 0x0 PUSH1 0x34 MSTORE JUMP JUMPDEST PUSH4 0x3E3F8F73 PUSH1 0x0 MSTORE PUSH1 0x4 PUSH1 0x1C REVERT JUMPDEST SWAP1 SWAP3 PUSH1 0x20 DUP3 RETURNDATASIZE DUP3 GT PUSH2 0x2422 JUMPI JUMPDEST DUP2 PUSH2 0x2411 PUSH1 0x20 SWAP4 DUP4 PUSH2 0x1EF2 JUMP JUMPDEST DUP2 ADD SUB SLT PUSH2 0x8C3 JUMPI POP MLOAD SWAP2 CODESIZE PUSH2 0x23A0 JUMP JUMPDEST RETURNDATASIZE SWAP2 POP PUSH2 0x2404 JUMP JUMPDEST DUP1 MLOAD ISZERO PUSH2 0x2437 JUMPI PUSH1 0x20 ADD SWAP1 JUMP JUMPDEST PUSH4 0x4E487B71 PUSH1 0xE0 SHL PUSH1 0x0 MSTORE PUSH1 0x32 PUSH1 0x4 MSTORE PUSH1 0x24 PUSH1 0x0 REVERT JUMPDEST DUP1 MLOAD DUP3 LT ISZERO PUSH2 0x2437 JUMPI PUSH1 0x20 SWAP2 PUSH1 0x5 SHL ADD ADD SWAP1 JUMP JUMPDEST PUSH1 0x0 PUSH1 0x40 MLOAD SWAP2 PUSH2 0x2470 DUP4 PUSH2 0x1ED6 JUMP JUMPDEST PUSH1 0x1 DUP4 MSTORE PUSH1 0x20 SWAP3 DUP4 CALLDATASIZE DUP2 DUP4 ADD CALLDATACOPY DUP1 SWAP4 PUSH1 0x40 MLOAD SWAP2 PUSH2 0x248C DUP4 PUSH2 0x1ED6 JUMP JUMPDEST PUSH1 0x1 DUP4 MSTORE DUP2 CALLDATASIZE DUP2 DUP6 ADD CALLDATACOPY DUP3 SWAP5 PUSH20 0x3C8B650257CFB5F272F799F5E2B4E65093A11A05 SWAP2 DUP3 PUSH2 0x24B8 DUP3 PUSH2 0x242A JUMP JUMPDEST MSTORE PUSH1 0x1 PUSH1 0x1 PUSH1 0xA0 SHL SUB PUSH32 0x0 AND SWAP1 DUP2 EXTCODESIZE ISZERO PUSH2 0x26C JUMPI PUSH2 0x251C DUP4 SWAP3 DUP4 SWAP3 PUSH1 0x40 MLOAD SWAP5 DUP6 DUP1 SWAP5 DUP2 SWAP4 PUSH4 0x31279D3D PUSH1 0xE0 SHL DUP4 MSTORE ADDRESS PUSH1 0x4 DUP5 ADD MSTORE PUSH1 0x40 PUSH1 0x24 DUP5 ADD MSTORE PUSH1 0x44 DUP4 ADD SWAP1 PUSH2 0x1DBD JUMP JUMPDEST SUB SWAP3 GAS CALL DUP1 ISZERO PUSH2 0x2572 JUMPI PUSH1 0x10 DUP6 SWAP5 PUSH16 0x70A08231000000000000000000000000 DUP7 SWAP6 PUSH2 0x2560 SWAP9 SWAP6 PUSH1 0x24 SWAP6 PUSH2 0x2563 JUMPI JUMPDEST POP ADDRESS PUSH1 0x14 MSTORE MSTORE GAS STATICCALL PUSH1 0x1F RETURNDATASIZE GT AND SWAP1 MLOAD MUL SWAP2 PUSH2 0x242A JUMP JUMPDEST MSTORE JUMP JUMPDEST PUSH2 0x256C SWAP1 PUSH2 0x1EAC JUMP JUMPDEST CODESIZE PUSH2 0x254A JUMP JUMPDEST PUSH1 0x40 MLOAD RETURNDATASIZE DUP5 DUP3 RETURNDATACOPY RETURNDATASIZE SWAP1 REVERT JUMPDEST PUSH1 0x1 PUSH1 0x1 PUSH1 0xA0 SHL SUB PUSH32 0x0 AND SWAP1 DUP2 EXTCODESIZE ISZERO PUSH2 0x1D8C JUMPI PUSH1 0x0 SWAP2 PUSH1 0x44 DUP4 SWAP3 PUSH1 0x40 MLOAD SWAP5 DUP6 SWAP4 DUP5 SWAP3 PUSH4 0x1C57762B PUSH1 0xE3 SHL DUP5 MSTORE PUSH1 0x4 DUP5 ADD MSTORE DUP2 PUSH1 0x24 DUP5 ADD MSTORE GAS CALL DUP1 ISZERO PUSH2 0x20BD JUMPI PUSH2 0x2357 JUMPI POP JUMP JUMPDEST PUSH1 0x40 MLOAD PUSH4 0x3E14691 PUSH1 0xE6 SHL DUP2 MSTORE PUSH1 0x1 PUSH1 0x1 PUSH1 0xA0 SHL SUB SWAP1 PUSH1 0x20 DUP2 PUSH1 0x4 DUP2 PUSH32 0x0 DUP7 AND GAS STATICCALL SWAP1 DUP2 ISZERO PUSH2 0x20BD JUMPI PUSH1 0x0 SWAP2 PUSH2 0x264E JUMPI JUMPDEST POP AND CALLER SUB PUSH2 0x263C JUMPI JUMP JUMPDEST PUSH1 0x40 MLOAD PUSH4 0x31D63AD1 PUSH1 0xE1 SHL DUP2 MSTORE PUSH1 0x4 SWAP1 REVERT JUMPDEST PUSH2 0x2666 SWAP2 POP PUSH1 0x20 RETURNDATASIZE DUP2 GT PUSH2 0xD00 JUMPI PUSH2 0xCF2 DUP2 DUP4 PUSH2 0x1EF2 JUMP JUMPDEST CODESIZE PUSH2 0x2632 JUMP JUMPDEST PUSH32 0x3145C2B643834867F2C0A8CAC8A48218307687911615C0ED01412A09DD163B66 PUSH1 0x20 PUSH1 0x1 PUSH1 0x1 PUSH1 0xA0 SHL SUB PUSH2 0x26CB PUSH2 0x26C6 ADDRESS DUP4 PUSH32 0x0 AND PUSH2 0x29BD JUMP JUMPDEST PUSH2 0x293D JUMP JUMPDEST SWAP1 PUSH1 0x0 SLOAD PUSH32 0xFFFFFFFFFFFFFFFFFFFFFF0000000000000000000000000000000000000000FF PUSH21 0xFFFFFFFFFFFFFFFFFFFFFFFFFFFFFFFFFFFFFFFF00 DUP5 PUSH1 0x8 SHL AND SWAP2 AND OR PUSH1 0x0 SSTORE PUSH1 0x40 MLOAD SWAP2 AND DUP2 MSTORE LOG1 JUMP JUMPDEST SWAP1 ADDRESS PUSH1 0x1 PUSH1 0x1 PUSH1 0xA0 SHL SUB DUP4 AND EQ PUSH2 0x274E JUMPI PUSH2 0x2735 SWAP2 PUSH2 0x2210 JUMP JUMPDEST ISZERO PUSH2 0x273C JUMPI JUMP JUMPDEST PUSH1 0x40 MLOAD PUSH4 0x1BA566FF PUSH1 0xE0 SHL DUP2 MSTORE PUSH1 0x4 SWAP1 REVERT JUMPDEST POP POP JUMP JUMPDEST PUSH1 0xA0 PUSH1 0x40 MLOAD PUSH2 0x275F PUSH2 0x1F77 JUMP JUMPDEST PUSH1 0x20 DUP2 MLOAD SWAP2 ADD KECCAK256 PUSH32 0x8B73C3C69BB8FE3D512ECC4CF759CC79239F7B179B0FFACAA9A75D522B39400F DUP3 MSTORE PUSH1 0x20 DUP3 ADD MSTORE PUSH32 0xC89EFDAA54C0F20C7ADF612882DF0950F5A951637E0307CDCB4C672F298B8BC6 PUSH1 0x40 DUP3 ADD MSTORE CHAINID PUSH1 0x60 DUP3 ADD MSTORE ADDRESS PUSH1 0x80 DUP3 ADD MSTORE KECCAK256 SWAP1 JUMP JUMPDEST SWAP1 PUSH2 0x27CF DUP2 DUP4 PUSH2 0x271B JUMP JUMPDEST PUSH4 0x87A211A2 PUSH1 0xC MSTORE DUP2 PUSH1 0x0 MSTORE PUSH1 0x20 PUSH1 0xC KECCAK256 SWAP2 DUP3 SLOAD SWAP2 DUP3 DUP2 GT PUSH2 0x2835 JUMPI PUSH1 0x0 SWAP4 DUP2 PUSH1 0x1 PUSH1 0x1 PUSH1 0xA0 SHL SUB SWAP5 SUB SWAP1 SSTORE PUSH9 0x5345CDF77EB68F44C DUP2 DUP2 SLOAD SUB SWAP1 SSTORE DUP4 MSTORE AND PUSH32 0xDDF252AD1BE2C89B69C2B068FC378DAA952BA7F163C4A11628F55A4DF523B3EF PUSH1 0x20 DUP4 LOG3 JUMP JUMPDEST PUSH4 0xF4D678B8 PUSH1 0x0 MSTORE PUSH1 0x4 PUSH1 0x1C REVERT JUMPDEST SWAP2 SWAP1 PUSH4 0x87A211A2 DUP4 PUSH1 0x60 SHL OR PUSH1 0xC MSTORE PUSH1 0x20 PUSH1 0xC KECCAK256 DUP1 SLOAD DUP1 DUP5 GT PUSH2 0x2835 JUMPI DUP4 SWAP1 SUB SWAP1 SSTORE PUSH1 0x0 MSTORE PUSH1 0x20 PUSH1 0xC KECCAK256 DUP2 DUP2 SLOAD ADD SWAP1 SSTORE PUSH1 0x20 MSTORE PUSH1 0x1 PUSH1 0x1 PUSH1 0xA0 SHL SUB PUSH1 0xC MLOAD PUSH1 0x60 SHR SWAP2 AND PUSH32 0xDDF252AD1BE2C89B69C2B068FC378DAA952BA7F163C4A11628F55A4DF523B3EF PUSH1 0x20 DUP1 LOG3 JUMP JUMPDEST SWAP1 DUP1 PUSH1 0x0 NOT DIV DUP3 GT DUP2 MUL PUSH2 0x28CA JUMPI PUSH8 0xDE0B6B3A7640000 SWAP2 MUL DIV SWAP1 JUMP JUMPDEST PUSH4 0xBAC65E5B PUSH1 0x0 MSTORE PUSH1 0x4 PUSH1 0x1C REVERT JUMPDEST DUP2 PUSH1 0x0 NOT DIV DUP2 GT DUP3 MUL PUSH2 0x28CA JUMPI MUL PUSH8 0xDE0B6B3A7640000 DUP1 DUP3 DIV SWAP2 MOD ISZERO ISZERO ADD SWAP1 JUMP JUMPDEST PUSH8 0xDE0B6B3A7640000 SWAP1 PUSH25 0x12725DD1D243ABA0E75FE645CC4873F9E65AFE688C928E1F21 DUP2 GT DUP3 MUL ISZERO DUP4 MUL ISZERO PUSH2 0x292F JUMPI MUL DIV SWAP1 JUMP JUMPDEST PUSH4 0x7C5F487D PUSH1 0x0 MSTORE PUSH1 0x4 PUSH1 0x1C REVERT JUMPDEST PUSH21 0x10000000000000000000000000000000000000000 DUP2 LT ISZERO PUSH2 0x2966 JUMPI PUSH1 0x1 PUSH1 0x1 PUSH1 0xA0 SHL SUB AND SWAP1 JUMP JUMPDEST PUSH4 0x35278D12 PUSH1 0x0 MSTORE PUSH1 0x4 PUSH1 0x1C REVERT JUMPDEST PUSH1 0x10 SWAP3 PUSH1 0x20 SWAP3 PUSH1 0x14 MSTORE PUSH1 0x34 MSTORE PUSH1 0x44 PUSH1 0x0 SWAP4 DUP5 DUP1 SWAP4 PUSH16 0xA9059CBB000000000000000000000000 DUP3 MSTORE GAS CALL RETURNDATASIZE ISZERO PUSH1 0x1 DUP4 MLOAD EQ OR AND ISZERO PUSH2 0x29B0 JUMPI PUSH1 0x34 MSTORE JUMP JUMPDEST PUSH4 0x90B8EC18 SWAP1 MSTORE PUSH1 0x4 PUSH1 0x1C REVERT JUMPDEST PUSH1 0x24 PUSH1 0x10 PUSH1 0x20 SWAP4 SWAP3 DUP5 SWAP4 PUSH1 0x14 MSTORE PUSH16 0x70A08231000000000000000000000000 PUSH1 0x0 MSTORE GAS STATICCALL PUSH1 0x1F RETURNDATASIZE GT AND PUSH1 0x20 MLOAD MUL SWAP1 JUMP INVALID LOG2 PUSH5 0x6970667358 0x22 SLT KECCAK256 INVALID MSTORE8 0xE7 SWAP15 BALANCE SWAP3 0x49 0x22 SWAP7 COINBASE 0xC9 PUSH31 0xBF950DD6EF200F90AE522317E978F22942FED00164736F6C63430008110033 "},"methodIdentifiers":{"DOMAIN_SEPARATOR()":"3644e515","PERMIT2()":"6afdd850","allowance(address,address)":"dd62ed3e","approve(address,uint256)":"095ea7b3","balanceOf(address)":"70a08231","borrowable()":"e99a6ac7","canBorrow(address,uint256)":"cf8c8c44","canRedeem(address,uint256)":"cc1f8ffa","chargeVoid()":"bcbc3320","cygnusNebulaOracle()":"d935bd92","debtRatio()":"cea55f57","decimals()":"313ce567","decreaseAllowance(address,uint256)":"a457c2d7","deposit(uint256,address,((address,uint160,uint48,uint48),address,uint256),bytes)":"8808e71c","exchangeRate()":"3ba0b9a9","flashRedeemAltair(address,uint256,bytes)":"fa14fdc2","getAccountLiquidity(address)":"5ec88c79","getDebtRatio(address)":"031a5c82","getLPTokenPrice()":"51303622","getRewards()":"0572b0cc","hangar18()":"e8a24e1d","harvester()":"4bdaeac1","increaseAllowance(address,uint256)":"39509351","lastReinvest()":"b5f3c95b","liquidationFee()":"a36a3630","liquidationIncentive()":"8c765e94","name()":"06fdde03","nonces(address)":"7ecebe00","permit(address,address,uint256,uint256,uint8,bytes32,bytes32)":"d505accf","redeem(uint256,address,address)":"ba087652","reinvestRewards_y7b(uint256)":"81f5b6f4","rewardToken()":"f7c618c1","rewarder()":"dcc3e06e","seizeCygLP(address,address,uint256)":"b4ebbda4","setDebtRatio(uint256)":"eb6a887d","setHarvester(address)":"15de1daa","setLiquidationFee(uint256)":"fef0bec8","setLiquidationIncentive(uint256)":"a8431081","shuttleId()":"5f77f891","sweepToken(address)":"1be19560","symbol()":"95d89b41","sync()":"fff6cae9","totalBalance()":"ad7a672f","totalSupply()":"18160ddd","transfer(address,uint256)":"a9059cbb","transferFrom(address,address,uint256)":"23b872dd","underlying()":"6f307dc3"}}}}}