{"contracts/cygnus-core/CygnusCollateralModel.sol":{"CygnusCollateralModel":{"abi":[{"inputs":[],"name":"AllowanceOverflow","type":"error"},{"inputs":[],"name":"AllowanceUnderflow","type":"error"},{"inputs":[],"name":"CygnusCollateralControl__ParameterNotInRange","type":"error"},{"inputs":[],"name":"CygnusCollateralModel__BorrowerCantBeAddressZero","type":"error"},{"inputs":[],"name":"CygnusCollateralModel__BorrowerCantBeCollateral","type":"error"},{"inputs":[],"name":"CygnusCollateralModel__PriceCantBeZero","type":"error"},{"inputs":[],"name":"CygnusTerminal__CantMintZeroShares","type":"error"},{"inputs":[],"name":"CygnusTerminal__CantRedeemZeroAssets","type":"error"},{"inputs":[],"name":"CygnusTerminal__CantSweepUnderlying","type":"error"},{"inputs":[],"name":"CygnusTerminal__MsgSenderNotAdmin","type":"error"},{"inputs":[],"name":"InsufficientAllowance","type":"error"},{"inputs":[],"name":"InsufficientBalance","type":"error"},{"inputs":[],"name":"InvalidPermit","type":"error"},{"inputs":[],"name":"PermitExpired","type":"error"},{"inputs":[],"name":"ReentrantCall","type":"error"},{"inputs":[],"name":"TotalSupplyOverflow","type":"error"},{"anonymous":false,"inputs":[{"indexed":true,"internalType":"address","name":"owner","type":"address"},{"indexed":true,"internalType":"address","name":"spender","type":"address"},{"indexed":false,"internalType":"uint256","name":"amount","type":"uint256"}],"name":"Approval","type":"event"},{"anonymous":false,"inputs":[{"indexed":true,"internalType":"address","name":"sender","type":"address"},{"indexed":true,"internalType":"address","name":"recipient","type":"address"},{"indexed":false,"internalType":"uint256","name":"assets","type":"uint256"},{"indexed":false,"internalType":"uint256","name":"shares","type":"uint256"}],"name":"Deposit","type":"event"},{"anonymous":false,"inputs":[{"indexed":false,"internalType":"uint256","name":"oldDebtRatio","type":"uint256"},{"indexed":false,"internalType":"uint256","name":"newDebtRatio","type":"uint256"}],"name":"NewDebtRatio","type":"event"},{"anonymous":false,"inputs":[{"indexed":false,"internalType":"uint256","name":"oldLiquidationFee","type":"uint256"},{"indexed":false,"internalType":"uint256","name":"newLiquidationFee","type":"uint256"}],"name":"NewLiquidationFee","type":"event"},{"anonymous":false,"inputs":[{"indexed":false,"internalType":"uint256","name":"oldLiquidationIncentive","type":"uint256"},{"indexed":false,"internalType":"uint256","name":"newLiquidationIncentive","type":"uint256"}],"name":"NewLiquidationIncentive","type":"event"},{"anonymous":false,"inputs":[{"indexed":true,"internalType":"address","name":"sender","type":"address"},{"indexed":true,"internalType":"address","name":"token","type":"address"},{"indexed":false,"internalType":"uint256","name":"balance","type":"uint256"}],"name":"SweepToken","type":"event"},{"anonymous":false,"inputs":[{"indexed":false,"internalType":"uint160","name":"totalBalance","type":"uint160"}],"name":"Sync","type":"event"},{"anonymous":false,"inputs":[{"indexed":true,"internalType":"address","name":"from","type":"address"},{"indexed":true,"internalType":"address","name":"to","type":"address"},{"indexed":false,"internalType":"uint256","name":"amount","type":"uint256"}],"name":"Transfer","type":"event"},{"anonymous":false,"inputs":[{"indexed":true,"internalType":"address","name":"sender","type":"address"},{"indexed":true,"internalType":"address","name":"recipient","type":"address"},{"indexed":true,"internalType":"address","name":"owner","type":"address"},{"indexed":false,"internalType":"uint256","name":"assets","type":"uint256"},{"indexed":false,"internalType":"uint256","name":"shares","type":"uint256"}],"name":"Withdraw","type":"event"},{"inputs":[],"name":"DOMAIN_SEPARATOR","outputs":[{"internalType":"bytes32","name":"result","type":"bytes32"}],"stateMutability":"view","type":"function"},{"inputs":[],"name":"PERMIT2","outputs":[{"internalType":"contract IAllowanceTransfer","name":"","type":"address"}],"stateMutability":"view","type":"function"},{"inputs":[{"internalType":"address","name":"owner","type":"address"},{"internalType":"address","name":"spender","type":"address"}],"name":"allowance","outputs":[{"internalType":"uint256","name":"result","type":"uint256"}],"stateMutability":"view","type":"function"},{"inputs":[{"internalType":"address","name":"spender","type":"address"},{"internalType":"uint256","name":"amount","type":"uint256"}],"name":"approve","outputs":[{"internalType":"bool","name":"","type":"bool"}],"stateMutability":"nonpayable","type":"function"},{"inputs":[{"internalType":"address","name":"owner","type":"address"}],"name":"balanceOf","outputs":[{"internalType":"uint256","name":"result","type":"uint256"}],"stateMutability":"view","type":"function"},{"inputs":[],"name":"borrowable","outputs":[{"internalType":"address","name":"","type":"address"}],"stateMutability":"view","type":"function"},{"inputs":[{"internalType":"address","name":"borrower","type":"address"},{"internalType":"uint256","name":"borrowAmount","type":"uint256"}],"name":"canBorrow","outputs":[{"internalType":"bool","name":"","type":"bool"}],"stateMutability":"view","type":"function"},{"inputs":[{"internalType":"address","name":"borrower","type":"address"},{"internalType":"uint256","name":"redeemAmount","type":"uint256"}],"name":"canRedeem","outputs":[{"internalType":"bool","name":"","type":"bool"}],"stateMutability":"view","type":"function"},{"inputs":[],"name":"cygnusNebulaOracle","outputs":[{"internalType":"contract ICygnusNebulaOracle","name":"","type":"address"}],"stateMutability":"view","type":"function"},{"inputs":[],"name":"debtRatio","outputs":[{"internalType":"uint256","name":"","type":"uint256"}],"stateMutability":"view","type":"function"},{"inputs":[],"name":"decimals","outputs":[{"internalType":"uint8","name":"","type":"uint8"}],"stateMutability":"view","type":"function"},{"inputs":[{"internalType":"address","name":"spender","type":"address"},{"internalType":"uint256","name":"difference","type":"uint256"}],"name":"decreaseAllowance","outputs":[{"internalType":"bool","name":"","type":"bool"}],"stateMutability":"nonpayable","type":"function"},{"inputs":[{"internalType":"uint256","name":"assets","type":"uint256"},{"internalType":"address","name":"recipient","type":"address"},{"components":[{"components":[{"internalType":"address","name":"token","type":"address"},{"internalType":"uint160","name":"amount","type":"uint160"},{"internalType":"uint48","name":"expiration","type":"uint48"},{"internalType":"uint48","name":"nonce","type":"uint48"}],"internalType":"struct IAllowanceTransfer.PermitDetails","name":"details","type":"tuple"},{"internalType":"address","name":"spender","type":"address"},{"internalType":"uint256","name":"sigDeadline","type":"uint256"}],"internalType":"struct IAllowanceTransfer.PermitSingle","name":"_permit","type":"tuple"},{"internalType":"bytes","name":"signature","type":"bytes"}],"name":"deposit","outputs":[{"internalType":"uint256","name":"shares","type":"uint256"}],"stateMutability":"nonpayable","type":"function"},{"inputs":[],"name":"exchangeRate","outputs":[{"internalType":"uint256","name":"","type":"uint256"}],"stateMutability":"view","type":"function"},{"inputs":[{"internalType":"address","name":"borrower","type":"address"}],"name":"getAccountLiquidity","outputs":[{"internalType":"uint256","name":"liquidity","type":"uint256"},{"internalType":"uint256","name":"shortfall","type":"uint256"}],"stateMutability":"view","type":"function"},{"inputs":[{"internalType":"address","name":"borrower","type":"address"}],"name":"getDebtRatio","outputs":[{"internalType":"uint256","name":"","type":"uint256"}],"stateMutability":"view","type":"function"},{"inputs":[],"name":"getLPTokenPrice","outputs":[{"internalType":"uint256","name":"price","type":"uint256"}],"stateMutability":"view","type":"function"},{"inputs":[],"name":"hangar18","outputs":[{"internalType":"contract IHangar18","name":"","type":"address"}],"stateMutability":"view","type":"function"},{"inputs":[{"internalType":"address","name":"spender","type":"address"},{"internalType":"uint256","name":"difference","type":"uint256"}],"name":"increaseAllowance","outputs":[{"internalType":"bool","name":"","type":"bool"}],"stateMutability":"nonpayable","type":"function"},{"inputs":[],"name":"liquidationFee","outputs":[{"internalType":"uint256","name":"","type":"uint256"}],"stateMutability":"view","type":"function"},{"inputs":[],"name":"liquidationIncentive","outputs":[{"internalType":"uint256","name":"","type":"uint256"}],"stateMutability":"view","type":"function"},{"inputs":[],"name":"name","outputs":[{"internalType":"string","name":"","type":"string"}],"stateMutability":"pure","type":"function"},{"inputs":[{"internalType":"address","name":"owner","type":"address"}],"name":"nonces","outputs":[{"internalType":"uint256","name":"result","type":"uint256"}],"stateMutability":"view","type":"function"},{"inputs":[{"internalType":"address","name":"owner","type":"address"},{"internalType":"address","name":"spender","type":"address"},{"internalType":"uint256","name":"value","type":"uint256"},{"internalType":"uint256","name":"deadline","type":"uint256"},{"internalType":"uint8","name":"v","type":"uint8"},{"internalType":"bytes32","name":"r","type":"bytes32"},{"internalType":"bytes32","name":"s","type":"bytes32"}],"name":"permit","outputs":[],"stateMutability":"nonpayable","type":"function"},{"inputs":[{"internalType":"uint256","name":"shares","type":"uint256"},{"internalType":"address","name":"recipient","type":"address"},{"internalType":"address","name":"owner","type":"address"}],"name":"redeem","outputs":[{"internalType":"uint256","name":"assets","type":"uint256"}],"stateMutability":"nonpayable","type":"function"},{"inputs":[{"internalType":"uint256","name":"newDebtRatio","type":"uint256"}],"name":"setDebtRatio","outputs":[],"stateMutability":"nonpayable","type":"function"},{"inputs":[{"internalType":"uint256","name":"newLiquidationFee","type":"uint256"}],"name":"setLiquidationFee","outputs":[],"stateMutability":"nonpayable","type":"function"},{"inputs":[{"internalType":"uint256","name":"newLiquidationIncentive","type":"uint256"}],"name":"setLiquidationIncentive","outputs":[],"stateMutability":"nonpayable","type":"function"},{"inputs":[],"name":"shuttleId","outputs":[{"internalType":"uint256","name":"","type":"uint256"}],"stateMutability":"view","type":"function"},{"inputs":[{"internalType":"address","name":"token","type":"address"}],"name":"sweepToken","outputs":[],"stateMutability":"nonpayable","type":"function"},{"inputs":[],"name":"symbol","outputs":[{"internalType":"string","name":"","type":"string"}],"stateMutability":"view","type":"function"},{"inputs":[],"name":"totalBalance","outputs":[{"internalType":"uint160","name":"","type":"uint160"}],"stateMutability":"view","type":"function"},{"inputs":[],"name":"totalSupply","outputs":[{"internalType":"uint256","name":"result","type":"uint256"}],"stateMutability":"view","type":"function"},{"inputs":[{"internalType":"address","name":"to","type":"address"},{"internalType":"uint256","name":"amount","type":"uint256"}],"name":"transfer","outputs":[{"internalType":"bool","name":"","type":"bool"}],"stateMutability":"nonpayable","type":"function"},{"inputs":[{"internalType":"address","name":"from","type":"address"},{"internalType":"address","name":"to","type":"address"},{"internalType":"uint256","name":"amount","type":"uint256"}],"name":"transferFrom","outputs":[{"internalType":"bool","name":"","type":"bool"}],"stateMutability":"nonpayable","type":"function"},{"inputs":[],"name":"underlying","outputs":[{"internalType":"address","name":"","type":"address"}],"stateMutability":"view","type":"function"}],"evm":{"bytecode":{"linkReferences":{},"object":"61012080604052346200019c576000805460ff19166001178155635a412e5360e01b80835260a092838160048186335af180156200019157839184918591869162000168575b5060e052855260c052608052670d2f13f7789f0000600155670e5d0f042e878000600255604051908152828160048185335af19182156200015c579162000123575b5061010090815260405190611d2992836200024a843960805183818161030a0152611a0e01525182818161038c01526117ea015260c05182818161073f015281816109fd01528181610bcd01528181610faa01528181611245015281816113e1015281816117c30152611ac2015260e051826110100152518181816102c2015281816105ad015281816110940152818161159601526118f40152f35b620001489150823d841162000154575b6200013f8183620001a1565b810190620001f0565b50509150503862000087565b503d62000133565b604051903d90823e3d90fd5b92505050620001879150843d861162000154576200013f8183620001a1565b9150903862000045565b6040513d85823e3d90fd5b600080fd5b601f909101601f19168101906001600160401b03821190821017620001c557604052565b634e487b7160e01b600052604160045260246000fd5b51906001600160a01b03821682036200019c57565b91908260a09103126200019c5781516001600160a01b039081811681036200019c57926200022160208201620001db565b926200023060408301620001db565b92606083015190811681036200019c576080909201519056fe6040608081526004908136101561001557600080fd5b600091823560e01c8063031a5c821461152e57806306fdde0314611505578063095ea7b31461149b57806318160ddd146114745780631be195601461139957806323b872dd146112c3578063313ce567146112185780633644e515146111fb57806339509351146111785780633ba0b9a91461115b57806351303622146111375780635ec88c79146110335780635f77f89114610ff85780636afdd85014610fce5780636f307dc314610f8a57806370a0823114610f565780637ecebe0014610f225780638808e71c14610b665780638c765e9414610b4757806395d89b41146109d8578063a36a3630146109b9578063a457c2d714610935578063a8431081146108b7578063a9059cbb1461082c578063ad7a672f14610803578063ba08765214610689578063cc1f8ffa14610657578063cea55f5714610638578063cf8c8c4414610505578063d505accf146103b0578063d935bd921461036c578063dd62ed3e1461032e578063e8a24e1d146102ea578063e99a6ac7146102a2578063eb6a887d146102245763fef0bec8146101ad57600080fd5b34610220576020366003190112610220578035906101c96119f0565b67016345785d8a000082116102125750907f87272249f1056ec16a68dd9255101358246dd26a796e2f0bc6b3a0ad02f2de4191600354908060035582519182526020820152a180f35b825163058b4cb360e11b8152fd5b8280fd5b5034610220576020366003190112610220578035906102416119f0565b670b1a2bc2ec50000082108015610291575b6102125750907ff25d2243e4128e51523d8537f04f18c3e6390bbfc6323390a9a8e59b921ce04691600154908060015582519182526020820152a180f35b50670de0b6b3a76400008211610253565b5050346102e657816003193601126102e657602090516001600160a01b037f0000000000000000000000000000000000000000000000000000000000000000168152f35b5080fd5b5050346102e657816003193601126102e657602090516001600160a01b037f0000000000000000000000000000000000000000000000000000000000000000168152f35b5050346102e657806003193601126102e65760209161034b61163e565b90610354611659565b8452637f5e9f20600c52526034600c20549051908152f35b5050346102e657816003193601126102e657602090516001600160a01b037f0000000000000000000000000000000000000000000000000000000000000000168152f35b5090346102205760e0366003190112610220576103cb61163e565b916103d4611659565b6084359160643560443560ff85168503610501576103f0611b42565b928651978342116104f5576001600160a01b038091169516956338377508600c52858a5260209485600c20948554956001870190557f6e71edae12b1b97f4d1f60370fef10105fa2faae0126114a169c64845d6126c98b5287878c0152888a8c015260608b019585875260808c015260a08b01526119018b52855260c0892088526042601e208a5260ff16845260a435875260c435606052838060808b60015afa50843d51036104ea5750777f5e9f200000000000000000000000000000000000000000851786526034602c20557f8c5be1e5ebec7d5bd14f71427d1e84f3dd0314c0f7b2291e5b200ac8c7c3b9259190a3528060605280f35b63ddafbaef8952601cfd5b50631a15a3cc8952601cfd5b8780fd5b5091346106145781600319360112610614575061052061163e565b6024356001600160a01b0382811680610543578451636e7ac57d60e11b81528690fd5b9091929430821461062a57600019841461058f575b60208561058686896387a211a2600c5260005261058184600c205461057b61176a565b90611bb4565b61198d565b91519115825250f35b602092935060249085519485938492637d6af07960e01b84528301527f0000000000000000000000000000000000000000000000000000000000000000165afa90811561061f576000916105ea575b50826105866020610558565b906020823d8211610617575b81610603602093836116fe565b8101031261061457505160206105de565b80fd5b3d91506105f6565b82513d6000823e3d90fd5b845163bf8c13af60e01b8152fd5b5050346102e657816003193601126102e6576020906001549051908152f35b5050346102e657806003193601126102e65760209061068061067761163e565b60243590611898565b90519015158152f35b509190346102e65760603660031901126102e6578235916106a8611659565b926106b161166f565b936001600160a01b0390818616938433036107bd575b6106d86106d261176a565b85611bb4565b9687156107ad576387a211a2600c5281526020600c208054988986116107a25750846020990390556805345cdf77eb68f44c848154039055838152847fddf252ad1be2c89b69c2b068fc378daa952ba7f163c4a11628f55a4df523b3ef8983a361076386827f0000000000000000000000000000000000000000000000000000000000000000611c7b565b8451928684528784015216907ffbde797d201c681b91056529119e0b02407c7bb96a4a2c75c01fc9667232c8db843392a461079c611a96565b51908152f35b63f4d678b88352601cfd5b865163e3e8d29760e01b81528990fd5b33602052637f5e9f20600c528681526034600c20805460001981036107e4575b50506106c7565b8086116107f757859003905538806107dd565b896313be252b8452601cfd5b5050346102e657816003193601126102e6576001600160a01b036020925460081c169051908152f35b50913461061457816003193601126106145761084661163e565b602435916387a211a2600c5233815260209485600c20908154908186116108ac575084900390555282600c208181540190558252600c5160601c337fddf252ad1be2c89b69c2b068fc378daa952ba7f163c4a11628f55a4df523b3ef8480a35160018152f35b63f4d678b88452601cfd5b5034610220576020366003190112610220578035906108d46119f0565b670de0b6b3a764000082108015610924575b6102125750907faeba5a6c40a8ac138134bff1aaa65debf25971188a58804bad717f82f0ec131691600254908060025582519182526020820152a180f35b50670ff59ee833b3000082116108e6565b50913461061457816003193601126106145761094f61163e565b60243590602052637f5e9f20600c523382526034600c209081548181106109ad5760209550038091558152602c5160601c907f8c5be1e5ebec7d5bd14f71427d1e84f3dd0314c0f7b2291e5b200ac8c7c3b925843392a35160018152f35b85638301ab388552601cfd5b5050346102e657816003193601126102e6576020906003549051908152f35b50903461022057826003193601126102205780516395d89b4160e01b815292808484817f00000000000000000000000000000000000000000000000000000000000000006001600160a01b03165afa928315610b3b578193610a9a575b610a968484610a8c6027825180947f4379674c503a20000000000000000000000000000000000000000000000000006020830152610a7c8151809260208686019101611685565b81010360078101855201836116fe565b51918291826116a8565b0390f35b909192503d8083863e610aad81866116fe565b84019160208584031261061457845167ffffffffffffffff9586821161022057019183601f840112156102e6578251958611610b265750835192610afb601f8701601f1916602001856116fe565b858452602086840101116106145750610a9693610b1e9160208085019101611685565b903880610a35565b604190634e487b7160e01b6000525260246000fd5b509051903d90823e3d90fd5b5050346102e657816003193601126102e6576020906002549051908152f35b509190346102e6576101203660031901126102e6578235610b85611659565b9360c0366043190112610f1e5761010490813567ffffffffffffffff92838211610e005736602383011215610e005781830135938411610e00573660248584010111610e00577f000000000000000000000000000000000000000000000000000000000000000093610bf73086611cc4565b9281610e0e575b505050610c0a84611c44565b926e22d473030f116ddee9f6b43ac78ba3803b15610501578780916084895180948193631b63c28b60e11b8352338a8401523060248401526001600160a01b03809b1660448401528a881660648401525af18015610e0457908891610dec575b5050610c9191610c7e610c83923090611cc4565b611875565b610c8b61176a565b90611c01565b948515610ddd576805345cdf77eb68f44c908154908115610d4b575b5050805491868301928310610d3f5750556387a211a2600c528460005260209485600c20858154019055848652600c5160601c60007fddf252ad1be2c89b69c2b068fc378daa952ba7f163c4a11628f55a4df523b3ef8880a38351928352848684015216907fdcbc1c05240f31ff3ad067ef1ee35ce4997762752e3a095284754544f4c709d7833392a361079c611a96565b63e5cfe957600052601cfd5b90966103e719810191908211610dca5750956103e890818101908110610dbd5782556387a211a2600c5261dead6000526020600c20818154019055602052600c5160601c60007fddf252ad1be2c89b69c2b068fc378daa952ba7f163c4a11628f55a4df523b3ef602080a33880610cad565b8363e5cfe957600052601cfd5b634e487b7160e01b815260118452602490fd5b50835163f1ca48b160e01b8152fd5b610df5906116d4565b610e00578638610c6a565b8680fd5b87513d8a823e3d90fd5b6e22d473030f116ddee9f6b43ac78ba391823b15610f1a5788516302b67b5760e41b81523387820152936001600160a01b0380610e4961166f565b166024870152606435818116809103610f1257604487015260843565ffffffffffff90818116809103610f1657606488015260a435908116809103610f1257608487015260c435908116809103610f0e57859384848e97958295899560a485015260e43560c485015261010060e48501528301528060246101249401848401378181018301849052601f01601f191681010301925af18015610f0457610ef1575b8080610bfe565b610efd909691966116d4565b9438610eea565b86513d89823e3d90fd5b8b80fd5b8c80fd5b8d80fd5b8980fd5b8380fd5b5050346102e65760203660031901126102e657602091610f4061163e565b906338377508600c525281600c20549051908152f35b5050346102e65760203660031901126102e657602091610f7461163e565b906387a211a2600c525281600c20549051908152f35b5050346102e657816003193601126102e657602090516001600160a01b037f0000000000000000000000000000000000000000000000000000000000000000168152f35b5050346102e657816003193601126102e657602090516e22d473030f116ddee9f6b43ac78ba38152f35b5050346102e657816003193601126102e657602090517f00000000000000000000000000000000000000000000000000000000000000008152f35b50913461061457602090816003193601126106145761105061163e565b6001600160a01b039080821680611071578551636e7ac57d60e11b81528790fd5b8630821461112957906024869288519586938492637d6af07960e01b84528301527f0000000000000000000000000000000000000000000000000000000000000000165afa91821561111f5783926110ee575b506110e2926387a211a2600c525261058183600c205461057b61176a565b90918351928352820152f35b9091508381813d8311611118575b61110681836116fe565b810103126102205751906110e26110c4565b503d6110fc565b85513d85823e3d90fd5b865163bf8c13af60e01b8152fd5b5050346102e657816003193601126102e6576020906111546117a4565b9051908152f35b5050346102e657816003193601126102e65760209061115461176a565b50913461061457816003193601126106145761119261163e565b602052637f5e9f20600c523381526034600c209283549060243582019182106111f0575080602094558152602c5160601c907f8c5be1e5ebec7d5bd14f71427d1e84f3dd0314c0f7b2291e5b200ac8c7c3b925843392a35160018152f35b63f90670668352601cfd5b5050346102e657816003193601126102e657602090611154611b42565b50913461061457806003193601126106145760208251809463313ce56760e01b8252816001600160a01b037f0000000000000000000000000000000000000000000000000000000000000000165afa928315610b3b578193611282575b60208460ff855191168152f35b9092506020813d82116112bb575b8161129d602093836116fe565b8101031261022057519160ff83168303610614575060ff6020611275565b3d9150611290565b509190346102e65760603660031901126102e6576112df61163e565b6112e7611659565b6044358260601b91602095338752600c93637f5e9f20811785526034852080546000198103611376575b50506387a211a21784528684208054988985116107a25750836001600160a01b03969798990390555285822081815401905585525160601c91167fddf252ad1be2c89b69c2b068fc378daa952ba7f163c4a11628f55a4df523b3ef8480a35160018152f35b80861161138d5785900390556387a211a238611311565b8a6313be252b8552601cfd5b509190346102e65760203660031901126102e6576113b561163e565b9082549160ff8316156114645760ff1992831684556113d26119f0565b6001600160a01b0391828216927f00000000000000000000000000000000000000000000000000000000000000001683146114555760019495506114226114193084611cc4565b80933390611c7b565b519081527f6d25be279134f4ecaa4770aff0c3d916d9e7c5ef37b65ed95dbdba411f5d54d560203392a382541617815580f35b5163b5d8f39160e01b81528590fd5b81516306fda65d60e31b81528590fd5b5050346102e657816003193601126102e6576020906805345cdf77eb68f44c549051908152f35b5050346102e657806003193601126102e6576020916114b861163e565b602435908452637f5e9f20600c52338252806034600c20558152602c5160601c907f8c5be1e5ebec7d5bd14f71427d1e84f3dd0314c0f7b2291e5b200ac8c7c3b925843392a35160018152f35b5050346102e657816003193601126102e657610a9690611523611720565b9051918291826116a8565b50913461061457602092836003193601126102e65761154b61163e565b6387a211a2600c528083528461157261156a82600c205461057b61176a565b61057b6117a4565b926024865180948193637d6af07960e01b83526001600160a01b03809216908301527f0000000000000000000000000000000000000000000000000000000000000000165afa8015611634578390611605575b6115df91506115d960025460035490611980565b90611bdf565b90806115ee5750509051908152f35b6001546115ff9350610c8b91611bb4565b9061079c565b508481813d831161162d575b61161b81836116fe565b81010312610220576115df90516115c5565b503d611611565b84513d85823e3d90fd5b600435906001600160a01b038216820361165457565b600080fd5b602435906001600160a01b038216820361165457565b604435906001600160a01b038216820361165457565b60005b8381106116985750506000910152565b8181015183820152602001611688565b604091602082526116c88151809281602086015260208686019101611685565b601f01601f1916010190565b67ffffffffffffffff81116116e857604052565b634e487b7160e01b600052604160045260246000fd5b90601f8019910116810190811067ffffffffffffffff8211176116e857604052565b604051906040820182811067ffffffffffffffff8211176116e857604052601282527f4379676e75733a20436f6c6c61746572616c00000000000000000000000000006020830152565b6805345cdf77eb68f44c546000908061178b575050670de0b6b3a764000090565b6001600160a01b036117a1925460081c16611c01565b90565b604051906317e5a1a160e01b82526020826024816001600160a01b03807f00000000000000000000000000000000000000000000000000000000000000001660048301527f0000000000000000000000000000000000000000000000000000000000000000165afa91821561186957600092611836575b50811561182457565b60405163586ad3b960e11b8152600490fd5b90916020823d8211611861575b81611850602093836116fe565b81010312610614575051903861181b565b3d9150611843565b6040513d6000823e3d90fd5b9190820391821161188257565b634e487b7160e01b600052601160045260246000fd5b9190916387a211a2600c526000928184526020600c205480821161197b576118d06118c860249493602093611875565b61057b61176a565b9160405193848092637d6af07960e01b82526001600160a01b0380911660048301527f0000000000000000000000000000000000000000000000000000000000000000165afa918215611970578492611936575b5061193092935061198d565b90501590565b9091506020813d8211611968575b81611951602093836116fe565b81010312610f1e5761193092935051908392611924565b3d9150611944565b6040513d86823e3d90fd5b505050565b9190820180921161188257565b61199c6119a59161057b6117a4565b60015490611bb4565b9080156119d6576119bf906115d960025460035490611980565b908181106119ce570390600090565b600092910390565b506119ea90610c8b60025460035490611980565b90600090565b6040516303e1469160e61b81526001600160a01b03906020816004817f000000000000000000000000000000000000000000000000000000000000000086165afa90811561186957600091611a5c575b50163303611a4a57565b6040516331d63ad160e11b8152600490fd5b6020813d8211611a8e575b81611a74602093836116fe565b810103126102e65751908282168203610614575038611a40565b3d9150611a67565b7f3145c2b643834867f2c0a8cac8a48218307687911615c0ed01412a09dd163b666020611aeb611ae6307f0000000000000000000000000000000000000000000000000000000000000000611cc4565b611c44565b6000547fffffffffffffffffffffff0000000000000000000000000000000000000000ff74ffffffffffffffffffffffffffffffffffffffff008360081b169116176000556001600160a01b0360405191168152a1565b60a0604051611b4f611720565b602081519101207f8b73c3c69bb8fe3d512ecc4cf759cc79239f7b179b0ffacaa9a75d522b39400f825260208201527fc89efdaa54c0f20c7adf612882df0950f5a951637e0307cdcb4c672f298b8bc660408201524660608201523060808201522090565b90806000190482118102611bd157670de0b6b3a764000091020490565b63bac65e5b6000526004601cfd5b816000190481118202611bd15702670de0b6b3a7640000808204910615150190565b670de0b6b3a7640000907812725dd1d243aba0e75fe645cc4873f9e65afe688c928e1f218111820215830215611c3657020490565b637c5f487d6000526004601cfd5b74010000000000000000000000000000000000000000811015611c6d576001600160a01b031690565b6335278d126000526004601cfd5b60109260209260145260345260446000938480936fa9059cbb00000000000000000000000082525af13d156001835114171615611cb757603452565b6390b8ec1890526004601cfd5b602460106020939284936014526f70a082310000000000000000000000006000525afa601f3d1116602051029056fea2646970667358221220ba79711c3e3f5a7a24275ebf724f15d482b22f62bca425a94bef9238d7b7627c64736f6c63430008110033","opcodes":"PUSH2 0x120 DUP1 PUSH1 0x40 MSTORE CALLVALUE PUSH3 0x19C JUMPI PUSH1 0x0 DUP1 SLOAD PUSH1 0xFF NOT AND PUSH1 0x1 OR DUP2 SSTORE PUSH4 0x5A412E53 PUSH1 0xE0 SHL DUP1 DUP4 MSTORE PUSH1 0xA0 SWAP3 DUP4 DUP2 PUSH1 0x4 DUP2 DUP7 CALLER GAS CALL DUP1 ISZERO PUSH3 0x191 JUMPI DUP4 SWAP2 DUP5 SWAP2 DUP6 SWAP2 DUP7 SWAP2 PUSH3 0x168 JUMPI JUMPDEST POP PUSH1 0xE0 MSTORE DUP6 MSTORE PUSH1 0xC0 MSTORE PUSH1 0x80 MSTORE PUSH8 0xD2F13F7789F0000 PUSH1 0x1 SSTORE PUSH8 0xE5D0F042E878000 PUSH1 0x2 SSTORE PUSH1 0x40 MLOAD SWAP1 DUP2 MSTORE DUP3 DUP2 PUSH1 0x4 DUP2 DUP6 CALLER GAS CALL SWAP2 DUP3 ISZERO PUSH3 0x15C JUMPI SWAP2 PUSH3 0x123 JUMPI JUMPDEST POP PUSH2 0x100 SWAP1 DUP2 MSTORE PUSH1 0x40 MLOAD SWAP1 PUSH2 0x1D29 SWAP3 DUP4 PUSH3 0x24A DUP5 CODECOPY PUSH1 0x80 MLOAD DUP4 DUP2 DUP2 PUSH2 0x30A ADD MSTORE PUSH2 0x1A0E ADD MSTORE MLOAD DUP3 DUP2 DUP2 PUSH2 0x38C ADD MSTORE PUSH2 0x17EA ADD MSTORE PUSH1 0xC0 MLOAD DUP3 DUP2 DUP2 PUSH2 0x73F ADD MSTORE DUP2 DUP2 PUSH2 0x9FD ADD MSTORE DUP2 DUP2 PUSH2 0xBCD ADD MSTORE DUP2 DUP2 PUSH2 0xFAA ADD MSTORE DUP2 DUP2 PUSH2 0x1245 ADD MSTORE DUP2 DUP2 PUSH2 0x13E1 ADD MSTORE DUP2 DUP2 PUSH2 0x17C3 ADD MSTORE PUSH2 0x1AC2 ADD MSTORE PUSH1 0xE0 MLOAD DUP3 PUSH2 0x1010 ADD MSTORE MLOAD DUP2 DUP2 DUP2 PUSH2 0x2C2 ADD MSTORE DUP2 DUP2 PUSH2 0x5AD ADD MSTORE DUP2 DUP2 PUSH2 0x1094 ADD MSTORE DUP2 DUP2 PUSH2 0x1596 ADD MSTORE PUSH2 0x18F4 ADD MSTORE RETURN JUMPDEST PUSH3 0x148 SWAP2 POP DUP3 RETURNDATASIZE DUP5 GT PUSH3 0x154 JUMPI JUMPDEST PUSH3 0x13F DUP2 DUP4 PUSH3 0x1A1 JUMP JUMPDEST DUP2 ADD SWAP1 PUSH3 0x1F0 JUMP JUMPDEST POP POP SWAP2 POP POP CODESIZE PUSH3 0x87 JUMP JUMPDEST POP RETURNDATASIZE PUSH3 0x133 JUMP JUMPDEST PUSH1 0x40 MLOAD SWAP1 RETURNDATASIZE SWAP1 DUP3 RETURNDATACOPY RETURNDATASIZE SWAP1 REVERT JUMPDEST SWAP3 POP POP POP PUSH3 0x187 SWAP2 POP DUP5 RETURNDATASIZE DUP7 GT PUSH3 0x154 JUMPI PUSH3 0x13F DUP2 DUP4 PUSH3 0x1A1 JUMP JUMPDEST SWAP2 POP SWAP1 CODESIZE PUSH3 0x45 JUMP JUMPDEST PUSH1 0x40 MLOAD RETURNDATASIZE DUP6 DUP3 RETURNDATACOPY RETURNDATASIZE SWAP1 REVERT JUMPDEST PUSH1 0x0 DUP1 REVERT JUMPDEST PUSH1 0x1F SWAP1 SWAP2 ADD PUSH1 0x1F NOT AND DUP2 ADD SWAP1 PUSH1 0x1 PUSH1 0x1 PUSH1 0x40 SHL SUB DUP3 GT SWAP1 DUP3 LT OR PUSH3 0x1C5 JUMPI PUSH1 0x40 MSTORE JUMP JUMPDEST PUSH4 0x4E487B71 PUSH1 0xE0 SHL PUSH1 0x0 MSTORE PUSH1 0x41 PUSH1 0x4 MSTORE PUSH1 0x24 PUSH1 0x0 REVERT JUMPDEST MLOAD SWAP1 PUSH1 0x1 PUSH1 0x1 PUSH1 0xA0 SHL SUB DUP3 AND DUP3 SUB PUSH3 0x19C JUMPI JUMP JUMPDEST SWAP2 SWAP1 DUP3 PUSH1 0xA0 SWAP2 SUB SLT PUSH3 0x19C JUMPI DUP2 MLOAD PUSH1 0x1 PUSH1 0x1 PUSH1 0xA0 SHL SUB SWAP1 DUP2 DUP2 AND DUP2 SUB PUSH3 0x19C JUMPI SWAP3 PUSH3 0x221 PUSH1 0x20 DUP3 ADD PUSH3 0x1DB JUMP JUMPDEST SWAP3 PUSH3 0x230 PUSH1 0x40 DUP4 ADD PUSH3 0x1DB JUMP JUMPDEST SWAP3 PUSH1 0x60 DUP4 ADD MLOAD SWAP1 DUP2 AND DUP2 SUB PUSH3 0x19C JUMPI PUSH1 0x80 SWAP1 SWAP3 ADD MLOAD SWAP1 JUMP INVALID PUSH1 0x40 PUSH1 0x80 DUP2 MSTORE PUSH1 0x4 SWAP1 DUP2 CALLDATASIZE LT ISZERO PUSH2 0x15 JUMPI PUSH1 0x0 DUP1 REVERT JUMPDEST PUSH1 0x0 SWAP2 DUP3 CALLDATALOAD PUSH1 0xE0 SHR DUP1 PUSH4 0x31A5C82 EQ PUSH2 0x152E JUMPI DUP1 PUSH4 0x6FDDE03 EQ PUSH2 0x1505 JUMPI DUP1 PUSH4 0x95EA7B3 EQ PUSH2 0x149B JUMPI DUP1 PUSH4 0x18160DDD EQ PUSH2 0x1474 JUMPI DUP1 PUSH4 0x1BE19560 EQ PUSH2 0x1399 JUMPI DUP1 PUSH4 0x23B872DD EQ PUSH2 0x12C3 JUMPI DUP1 PUSH4 0x313CE567 EQ PUSH2 0x1218 JUMPI DUP1 PUSH4 0x3644E515 EQ PUSH2 0x11FB JUMPI DUP1 PUSH4 0x39509351 EQ PUSH2 0x1178 JUMPI DUP1 PUSH4 0x3BA0B9A9 EQ PUSH2 0x115B JUMPI DUP1 PUSH4 0x51303622 EQ PUSH2 0x1137 JUMPI DUP1 PUSH4 0x5EC88C79 EQ PUSH2 0x1033 JUMPI DUP1 PUSH4 0x5F77F891 EQ PUSH2 0xFF8 JUMPI DUP1 PUSH4 0x6AFDD850 EQ PUSH2 0xFCE JUMPI DUP1 PUSH4 0x6F307DC3 EQ PUSH2 0xF8A JUMPI DUP1 PUSH4 0x70A08231 EQ PUSH2 0xF56 JUMPI DUP1 PUSH4 0x7ECEBE00 EQ PUSH2 0xF22 JUMPI DUP1 PUSH4 0x8808E71C EQ PUSH2 0xB66 JUMPI DUP1 PUSH4 0x8C765E94 EQ PUSH2 0xB47 JUMPI DUP1 PUSH4 0x95D89B41 EQ PUSH2 0x9D8 JUMPI DUP1 PUSH4 0xA36A3630 EQ PUSH2 0x9B9 JUMPI DUP1 PUSH4 0xA457C2D7 EQ PUSH2 0x935 JUMPI DUP1 PUSH4 0xA8431081 EQ PUSH2 0x8B7 JUMPI DUP1 PUSH4 0xA9059CBB EQ PUSH2 0x82C JUMPI DUP1 PUSH4 0xAD7A672F EQ PUSH2 0x803 JUMPI DUP1 PUSH4 0xBA087652 EQ PUSH2 0x689 JUMPI DUP1 PUSH4 0xCC1F8FFA EQ PUSH2 0x657 JUMPI DUP1 PUSH4 0xCEA55F57 EQ PUSH2 0x638 JUMPI DUP1 PUSH4 0xCF8C8C44 EQ PUSH2 0x505 JUMPI DUP1 PUSH4 0xD505ACCF EQ PUSH2 0x3B0 JUMPI DUP1 PUSH4 0xD935BD92 EQ PUSH2 0x36C JUMPI DUP1 PUSH4 0xDD62ED3E EQ PUSH2 0x32E JUMPI DUP1 PUSH4 0xE8A24E1D EQ PUSH2 0x2EA JUMPI DUP1 PUSH4 0xE99A6AC7 EQ PUSH2 0x2A2 JUMPI DUP1 PUSH4 0xEB6A887D EQ PUSH2 0x224 JUMPI PUSH4 0xFEF0BEC8 EQ PUSH2 0x1AD JUMPI PUSH1 0x0 DUP1 REVERT JUMPDEST CALLVALUE PUSH2 0x220 JUMPI PUSH1 0x20 CALLDATASIZE PUSH1 0x3 NOT ADD SLT PUSH2 0x220 JUMPI DUP1 CALLDATALOAD SWAP1 PUSH2 0x1C9 PUSH2 0x19F0 JUMP JUMPDEST PUSH8 0x16345785D8A0000 DUP3 GT PUSH2 0x212 JUMPI POP SWAP1 PUSH32 0x87272249F1056EC16A68DD9255101358246DD26A796E2F0BC6B3A0AD02F2DE41 SWAP2 PUSH1 0x3 SLOAD SWAP1 DUP1 PUSH1 0x3 SSTORE DUP3 MLOAD SWAP2 DUP3 MSTORE PUSH1 0x20 DUP3 ADD MSTORE LOG1 DUP1 RETURN JUMPDEST DUP3 MLOAD PUSH4 0x58B4CB3 PUSH1 0xE1 SHL DUP2 MSTORE REVERT JUMPDEST DUP3 DUP1 REVERT JUMPDEST POP CALLVALUE PUSH2 0x220 JUMPI PUSH1 0x20 CALLDATASIZE PUSH1 0x3 NOT ADD SLT PUSH2 0x220 JUMPI DUP1 CALLDATALOAD SWAP1 PUSH2 0x241 PUSH2 0x19F0 JUMP JUMPDEST PUSH8 0xB1A2BC2EC500000 DUP3 LT DUP1 ISZERO PUSH2 0x291 JUMPI JUMPDEST PUSH2 0x212 JUMPI POP SWAP1 PUSH32 0xF25D2243E4128E51523D8537F04F18C3E6390BBFC6323390A9A8E59B921CE046 SWAP2 PUSH1 0x1 SLOAD SWAP1 DUP1 PUSH1 0x1 SSTORE DUP3 MLOAD SWAP2 DUP3 MSTORE PUSH1 0x20 DUP3 ADD MSTORE LOG1 DUP1 RETURN JUMPDEST POP PUSH8 0xDE0B6B3A7640000 DUP3 GT PUSH2 0x253 JUMP JUMPDEST POP POP CALLVALUE PUSH2 0x2E6 JUMPI DUP2 PUSH1 0x3 NOT CALLDATASIZE ADD SLT PUSH2 0x2E6 JUMPI PUSH1 0x20 SWAP1 MLOAD PUSH1 0x1 PUSH1 0x1 PUSH1 0xA0 SHL SUB PUSH32 0x0 AND DUP2 MSTORE RETURN JUMPDEST POP DUP1 REVERT JUMPDEST POP POP CALLVALUE PUSH2 0x2E6 JUMPI DUP2 PUSH1 0x3 NOT CALLDATASIZE ADD SLT PUSH2 0x2E6 JUMPI PUSH1 0x20 SWAP1 MLOAD PUSH1 0x1 PUSH1 0x1 PUSH1 0xA0 SHL SUB PUSH32 0x0 AND DUP2 MSTORE RETURN JUMPDEST POP POP CALLVALUE PUSH2 0x2E6 JUMPI DUP1 PUSH1 0x3 NOT CALLDATASIZE ADD SLT PUSH2 0x2E6 JUMPI PUSH1 0x20 SWAP2 PUSH2 0x34B PUSH2 0x163E JUMP JUMPDEST SWAP1 PUSH2 0x354 PUSH2 0x1659 JUMP JUMPDEST DUP5 MSTORE PUSH4 0x7F5E9F20 PUSH1 0xC MSTORE MSTORE PUSH1 0x34 PUSH1 0xC KECCAK256 SLOAD SWAP1 MLOAD SWAP1 DUP2 MSTORE RETURN JUMPDEST POP POP CALLVALUE PUSH2 0x2E6 JUMPI DUP2 PUSH1 0x3 NOT CALLDATASIZE ADD SLT PUSH2 0x2E6 JUMPI PUSH1 0x20 SWAP1 MLOAD PUSH1 0x1 PUSH1 0x1 PUSH1 0xA0 SHL SUB PUSH32 0x0 AND DUP2 MSTORE RETURN JUMPDEST POP SWAP1 CALLVALUE PUSH2 0x220 JUMPI PUSH1 0xE0 CALLDATASIZE PUSH1 0x3 NOT ADD SLT PUSH2 0x220 JUMPI PUSH2 0x3CB PUSH2 0x163E JUMP JUMPDEST SWAP2 PUSH2 0x3D4 PUSH2 0x1659 JUMP JUMPDEST PUSH1 0x84 CALLDATALOAD SWAP2 PUSH1 0x64 CALLDATALOAD PUSH1 0x44 CALLDATALOAD PUSH1 0xFF DUP6 AND DUP6 SUB PUSH2 0x501 JUMPI PUSH2 0x3F0 PUSH2 0x1B42 JUMP JUMPDEST SWAP3 DUP7 MLOAD SWAP8 DUP4 TIMESTAMP GT PUSH2 0x4F5 JUMPI PUSH1 0x1 PUSH1 0x1 PUSH1 0xA0 SHL SUB DUP1 SWAP2 AND SWAP6 AND SWAP6 PUSH4 0x38377508 PUSH1 0xC MSTORE DUP6 DUP11 MSTORE PUSH1 0x20 SWAP5 DUP6 PUSH1 0xC KECCAK256 SWAP5 DUP6 SLOAD SWAP6 PUSH1 0x1 DUP8 ADD SWAP1 SSTORE PUSH32 0x6E71EDAE12B1B97F4D1F60370FEF10105FA2FAAE0126114A169C64845D6126C9 DUP12 MSTORE DUP8 DUP8 DUP13 ADD MSTORE DUP9 DUP11 DUP13 ADD MSTORE PUSH1 0x60 DUP12 ADD SWAP6 DUP6 DUP8 MSTORE PUSH1 0x80 DUP13 ADD MSTORE PUSH1 0xA0 DUP12 ADD MSTORE PUSH2 0x1901 DUP12 MSTORE DUP6 MSTORE PUSH1 0xC0 DUP10 KECCAK256 DUP9 MSTORE PUSH1 0x42 PUSH1 0x1E KECCAK256 DUP11 MSTORE PUSH1 0xFF AND DUP5 MSTORE PUSH1 0xA4 CALLDATALOAD DUP8 MSTORE PUSH1 0xC4 CALLDATALOAD PUSH1 0x60 MSTORE DUP4 DUP1 PUSH1 0x80 DUP12 PUSH1 0x1 GAS STATICCALL POP DUP5 RETURNDATASIZE MLOAD SUB PUSH2 0x4EA JUMPI POP PUSH24 0x7F5E9F200000000000000000000000000000000000000000 DUP6 OR DUP7 MSTORE PUSH1 0x34 PUSH1 0x2C KECCAK256 SSTORE PUSH32 0x8C5BE1E5EBEC7D5BD14F71427D1E84F3DD0314C0F7B2291E5B200AC8C7C3B925 SWAP2 SWAP1 LOG3 MSTORE DUP1 PUSH1 0x60 MSTORE DUP1 RETURN JUMPDEST PUSH4 0xDDAFBAEF DUP10 MSTORE PUSH1 0x1C REVERT JUMPDEST POP PUSH4 0x1A15A3CC DUP10 MSTORE PUSH1 0x1C REVERT JUMPDEST DUP8 DUP1 REVERT JUMPDEST POP SWAP2 CALLVALUE PUSH2 0x614 JUMPI DUP2 PUSH1 0x3 NOT CALLDATASIZE ADD SLT PUSH2 0x614 JUMPI POP PUSH2 0x520 PUSH2 0x163E JUMP JUMPDEST PUSH1 0x24 CALLDATALOAD PUSH1 0x1 PUSH1 0x1 PUSH1 0xA0 SHL SUB DUP3 DUP2 AND DUP1 PUSH2 0x543 JUMPI DUP5 MLOAD PUSH4 0x6E7AC57D PUSH1 0xE1 SHL DUP2 MSTORE DUP7 SWAP1 REVERT JUMPDEST SWAP1 SWAP2 SWAP3 SWAP5 ADDRESS DUP3 EQ PUSH2 0x62A JUMPI PUSH1 0x0 NOT DUP5 EQ PUSH2 0x58F JUMPI JUMPDEST PUSH1 0x20 DUP6 PUSH2 0x586 DUP7 DUP10 PUSH4 0x87A211A2 PUSH1 0xC MSTORE PUSH1 0x0 MSTORE PUSH2 0x581 DUP5 PUSH1 0xC KECCAK256 SLOAD PUSH2 0x57B PUSH2 0x176A JUMP JUMPDEST SWAP1 PUSH2 0x1BB4 JUMP JUMPDEST PUSH2 0x198D JUMP JUMPDEST SWAP2 MLOAD SWAP2 ISZERO DUP3 MSTORE POP RETURN JUMPDEST PUSH1 0x20 SWAP3 SWAP4 POP PUSH1 0x24 SWAP1 DUP6 MLOAD SWAP5 DUP6 SWAP4 DUP5 SWAP3 PUSH4 0x7D6AF079 PUSH1 0xE0 SHL DUP5 MSTORE DUP4 ADD MSTORE PUSH32 0x0 AND GAS STATICCALL SWAP1 DUP2 ISZERO PUSH2 0x61F JUMPI PUSH1 0x0 SWAP2 PUSH2 0x5EA JUMPI JUMPDEST POP DUP3 PUSH2 0x586 PUSH1 0x20 PUSH2 0x558 JUMP JUMPDEST SWAP1 PUSH1 0x20 DUP3 RETURNDATASIZE DUP3 GT PUSH2 0x617 JUMPI JUMPDEST DUP2 PUSH2 0x603 PUSH1 0x20 SWAP4 DUP4 PUSH2 0x16FE JUMP JUMPDEST DUP2 ADD SUB SLT PUSH2 0x614 JUMPI POP MLOAD PUSH1 0x20 PUSH2 0x5DE JUMP JUMPDEST DUP1 REVERT JUMPDEST RETURNDATASIZE SWAP2 POP PUSH2 0x5F6 JUMP JUMPDEST DUP3 MLOAD RETURNDATASIZE PUSH1 0x0 DUP3 RETURNDATACOPY RETURNDATASIZE SWAP1 REVERT JUMPDEST DUP5 MLOAD PUSH4 0xBF8C13AF PUSH1 0xE0 SHL DUP2 MSTORE REVERT JUMPDEST POP POP CALLVALUE PUSH2 0x2E6 JUMPI DUP2 PUSH1 0x3 NOT CALLDATASIZE ADD SLT PUSH2 0x2E6 JUMPI PUSH1 0x20 SWAP1 PUSH1 0x1 SLOAD SWAP1 MLOAD SWAP1 DUP2 MSTORE RETURN JUMPDEST POP POP CALLVALUE PUSH2 0x2E6 JUMPI DUP1 PUSH1 0x3 NOT CALLDATASIZE ADD SLT PUSH2 0x2E6 JUMPI PUSH1 0x20 SWAP1 PUSH2 0x680 PUSH2 0x677 PUSH2 0x163E JUMP JUMPDEST PUSH1 0x24 CALLDATALOAD SWAP1 PUSH2 0x1898 JUMP JUMPDEST SWAP1 MLOAD SWAP1 ISZERO ISZERO DUP2 MSTORE RETURN JUMPDEST POP SWAP2 SWAP1 CALLVALUE PUSH2 0x2E6 JUMPI PUSH1 0x60 CALLDATASIZE PUSH1 0x3 NOT ADD SLT PUSH2 0x2E6 JUMPI DUP3 CALLDATALOAD SWAP2 PUSH2 0x6A8 PUSH2 0x1659 JUMP JUMPDEST SWAP3 PUSH2 0x6B1 PUSH2 0x166F JUMP JUMPDEST SWAP4 PUSH1 0x1 PUSH1 0x1 PUSH1 0xA0 SHL SUB SWAP1 DUP2 DUP7 AND SWAP4 DUP5 CALLER SUB PUSH2 0x7BD JUMPI JUMPDEST PUSH2 0x6D8 PUSH2 0x6D2 PUSH2 0x176A JUMP JUMPDEST DUP6 PUSH2 0x1BB4 JUMP JUMPDEST SWAP7 DUP8 ISZERO PUSH2 0x7AD JUMPI PUSH4 0x87A211A2 PUSH1 0xC MSTORE DUP2 MSTORE PUSH1 0x20 PUSH1 0xC KECCAK256 DUP1 SLOAD SWAP9 DUP10 DUP7 GT PUSH2 0x7A2 JUMPI POP DUP5 PUSH1 0x20 SWAP10 SUB SWAP1 SSTORE PUSH9 0x5345CDF77EB68F44C DUP5 DUP2 SLOAD SUB SWAP1 SSTORE DUP4 DUP2 MSTORE DUP5 PUSH32 0xDDF252AD1BE2C89B69C2B068FC378DAA952BA7F163C4A11628F55A4DF523B3EF DUP10 DUP4 LOG3 PUSH2 0x763 DUP7 DUP3 PUSH32 0x0 PUSH2 0x1C7B JUMP JUMPDEST DUP5 MLOAD SWAP3 DUP7 DUP5 MSTORE DUP8 DUP5 ADD MSTORE AND SWAP1 PUSH32 0xFBDE797D201C681B91056529119E0B02407C7BB96A4A2C75C01FC9667232C8DB DUP5 CALLER SWAP3 LOG4 PUSH2 0x79C PUSH2 0x1A96 JUMP JUMPDEST MLOAD SWAP1 DUP2 MSTORE RETURN JUMPDEST PUSH4 0xF4D678B8 DUP4 MSTORE PUSH1 0x1C REVERT JUMPDEST DUP7 MLOAD PUSH4 0xE3E8D297 PUSH1 0xE0 SHL DUP2 MSTORE DUP10 SWAP1 REVERT JUMPDEST CALLER PUSH1 0x20 MSTORE PUSH4 0x7F5E9F20 PUSH1 0xC MSTORE DUP7 DUP2 MSTORE PUSH1 0x34 PUSH1 0xC KECCAK256 DUP1 SLOAD PUSH1 0x0 NOT DUP2 SUB PUSH2 0x7E4 JUMPI JUMPDEST POP POP PUSH2 0x6C7 JUMP JUMPDEST DUP1 DUP7 GT PUSH2 0x7F7 JUMPI DUP6 SWAP1 SUB SWAP1 SSTORE CODESIZE DUP1 PUSH2 0x7DD JUMP JUMPDEST DUP10 PUSH4 0x13BE252B DUP5 MSTORE PUSH1 0x1C REVERT JUMPDEST POP POP CALLVALUE PUSH2 0x2E6 JUMPI DUP2 PUSH1 0x3 NOT CALLDATASIZE ADD SLT PUSH2 0x2E6 JUMPI PUSH1 0x1 PUSH1 0x1 PUSH1 0xA0 SHL SUB PUSH1 0x20 SWAP3 SLOAD PUSH1 0x8 SHR AND SWAP1 MLOAD SWAP1 DUP2 MSTORE RETURN JUMPDEST POP SWAP2 CALLVALUE PUSH2 0x614 JUMPI DUP2 PUSH1 0x3 NOT CALLDATASIZE ADD SLT PUSH2 0x614 JUMPI PUSH2 0x846 PUSH2 0x163E JUMP JUMPDEST PUSH1 0x24 CALLDATALOAD SWAP2 PUSH4 0x87A211A2 PUSH1 0xC MSTORE CALLER DUP2 MSTORE PUSH1 0x20 SWAP5 DUP6 PUSH1 0xC KECCAK256 SWAP1 DUP2 SLOAD SWAP1 DUP2 DUP7 GT PUSH2 0x8AC JUMPI POP DUP5 SWAP1 SUB SWAP1 SSTORE MSTORE DUP3 PUSH1 0xC KECCAK256 DUP2 DUP2 SLOAD ADD SWAP1 SSTORE DUP3 MSTORE PUSH1 0xC MLOAD PUSH1 0x60 SHR CALLER PUSH32 0xDDF252AD1BE2C89B69C2B068FC378DAA952BA7F163C4A11628F55A4DF523B3EF DUP5 DUP1 LOG3 MLOAD PUSH1 0x1 DUP2 MSTORE RETURN JUMPDEST PUSH4 0xF4D678B8 DUP5 MSTORE PUSH1 0x1C REVERT JUMPDEST POP CALLVALUE PUSH2 0x220 JUMPI PUSH1 0x20 CALLDATASIZE PUSH1 0x3 NOT ADD SLT PUSH2 0x220 JUMPI DUP1 CALLDATALOAD SWAP1 PUSH2 0x8D4 PUSH2 0x19F0 JUMP JUMPDEST PUSH8 0xDE0B6B3A7640000 DUP3 LT DUP1 ISZERO PUSH2 0x924 JUMPI JUMPDEST PUSH2 0x212 JUMPI POP SWAP1 PUSH32 0xAEBA5A6C40A8AC138134BFF1AAA65DEBF25971188A58804BAD717F82F0EC1316 SWAP2 PUSH1 0x2 SLOAD SWAP1 DUP1 PUSH1 0x2 SSTORE DUP3 MLOAD SWAP2 DUP3 MSTORE PUSH1 0x20 DUP3 ADD MSTORE LOG1 DUP1 RETURN JUMPDEST POP PUSH8 0xFF59EE833B30000 DUP3 GT PUSH2 0x8E6 JUMP JUMPDEST POP SWAP2 CALLVALUE PUSH2 0x614 JUMPI DUP2 PUSH1 0x3 NOT CALLDATASIZE ADD SLT PUSH2 0x614 JUMPI PUSH2 0x94F PUSH2 0x163E JUMP JUMPDEST PUSH1 0x24 CALLDATALOAD SWAP1 PUSH1 0x20 MSTORE PUSH4 0x7F5E9F20 PUSH1 0xC MSTORE CALLER DUP3 MSTORE PUSH1 0x34 PUSH1 0xC KECCAK256 SWAP1 DUP2 SLOAD DUP2 DUP2 LT PUSH2 0x9AD JUMPI PUSH1 0x20 SWAP6 POP SUB DUP1 SWAP2 SSTORE DUP2 MSTORE PUSH1 0x2C MLOAD PUSH1 0x60 SHR SWAP1 PUSH32 0x8C5BE1E5EBEC7D5BD14F71427D1E84F3DD0314C0F7B2291E5B200AC8C7C3B925 DUP5 CALLER SWAP3 LOG3 MLOAD PUSH1 0x1 DUP2 MSTORE RETURN JUMPDEST DUP6 PUSH4 0x8301AB38 DUP6 MSTORE PUSH1 0x1C REVERT JUMPDEST POP POP CALLVALUE PUSH2 0x2E6 JUMPI DUP2 PUSH1 0x3 NOT CALLDATASIZE ADD SLT PUSH2 0x2E6 JUMPI PUSH1 0x20 SWAP1 PUSH1 0x3 SLOAD SWAP1 MLOAD SWAP1 DUP2 MSTORE RETURN JUMPDEST POP SWAP1 CALLVALUE PUSH2 0x220 JUMPI DUP3 PUSH1 0x3 NOT CALLDATASIZE ADD SLT PUSH2 0x220 JUMPI DUP1 MLOAD PUSH4 0x95D89B41 PUSH1 0xE0 SHL DUP2 MSTORE SWAP3 DUP1 DUP5 DUP5 DUP2 PUSH32 0x0 PUSH1 0x1 PUSH1 0x1 PUSH1 0xA0 SHL SUB AND GAS STATICCALL SWAP3 DUP4 ISZERO PUSH2 0xB3B JUMPI DUP2 SWAP4 PUSH2 0xA9A JUMPI JUMPDEST PUSH2 0xA96 DUP5 DUP5 PUSH2 0xA8C PUSH1 0x27 DUP3 MLOAD DUP1 SWAP5 PUSH32 0x4379674C503A2000000000000000000000000000000000000000000000000000 PUSH1 0x20 DUP4 ADD MSTORE PUSH2 0xA7C DUP2 MLOAD DUP1 SWAP3 PUSH1 0x20 DUP7 DUP7 ADD SWAP2 ADD PUSH2 0x1685 JUMP JUMPDEST DUP2 ADD SUB PUSH1 0x7 DUP2 ADD DUP6 MSTORE ADD DUP4 PUSH2 0x16FE JUMP JUMPDEST MLOAD SWAP2 DUP3 SWAP2 DUP3 PUSH2 0x16A8 JUMP JUMPDEST SUB SWAP1 RETURN JUMPDEST SWAP1 SWAP2 SWAP3 POP RETURNDATASIZE DUP1 DUP4 DUP7 RETURNDATACOPY PUSH2 0xAAD DUP2 DUP7 PUSH2 0x16FE JUMP JUMPDEST DUP5 ADD SWAP2 PUSH1 0x20 DUP6 DUP5 SUB SLT PUSH2 0x614 JUMPI DUP5 MLOAD PUSH8 0xFFFFFFFFFFFFFFFF SWAP6 DUP7 DUP3 GT PUSH2 0x220 JUMPI ADD SWAP2 DUP4 PUSH1 0x1F DUP5 ADD SLT ISZERO PUSH2 0x2E6 JUMPI DUP3 MLOAD SWAP6 DUP7 GT PUSH2 0xB26 JUMPI POP DUP4 MLOAD SWAP3 PUSH2 0xAFB PUSH1 0x1F DUP8 ADD PUSH1 0x1F NOT AND PUSH1 0x20 ADD DUP6 PUSH2 0x16FE JUMP JUMPDEST DUP6 DUP5 MSTORE PUSH1 0x20 DUP7 DUP5 ADD ADD GT PUSH2 0x614 JUMPI POP PUSH2 0xA96 SWAP4 PUSH2 0xB1E SWAP2 PUSH1 0x20 DUP1 DUP6 ADD SWAP2 ADD PUSH2 0x1685 JUMP JUMPDEST SWAP1 CODESIZE DUP1 PUSH2 0xA35 JUMP JUMPDEST PUSH1 0x41 SWAP1 PUSH4 0x4E487B71 PUSH1 0xE0 SHL PUSH1 0x0 MSTORE MSTORE PUSH1 0x24 PUSH1 0x0 REVERT JUMPDEST POP SWAP1 MLOAD SWAP1 RETURNDATASIZE SWAP1 DUP3 RETURNDATACOPY RETURNDATASIZE SWAP1 REVERT JUMPDEST POP POP CALLVALUE PUSH2 0x2E6 JUMPI DUP2 PUSH1 0x3 NOT CALLDATASIZE ADD SLT PUSH2 0x2E6 JUMPI PUSH1 0x20 SWAP1 PUSH1 0x2 SLOAD SWAP1 MLOAD SWAP1 DUP2 MSTORE RETURN JUMPDEST POP SWAP2 SWAP1 CALLVALUE PUSH2 0x2E6 JUMPI PUSH2 0x120 CALLDATASIZE PUSH1 0x3 NOT ADD SLT PUSH2 0x2E6 JUMPI DUP3 CALLDATALOAD PUSH2 0xB85 PUSH2 0x1659 JUMP JUMPDEST SWAP4 PUSH1 0xC0 CALLDATASIZE PUSH1 0x43 NOT ADD SLT PUSH2 0xF1E JUMPI PUSH2 0x104 SWAP1 DUP2 CALLDATALOAD PUSH8 0xFFFFFFFFFFFFFFFF SWAP3 DUP4 DUP3 GT PUSH2 0xE00 JUMPI CALLDATASIZE PUSH1 0x23 DUP4 ADD SLT ISZERO PUSH2 0xE00 JUMPI DUP2 DUP4 ADD CALLDATALOAD SWAP4 DUP5 GT PUSH2 0xE00 JUMPI CALLDATASIZE PUSH1 0x24 DUP6 DUP5 ADD ADD GT PUSH2 0xE00 JUMPI PUSH32 0x0 SWAP4 PUSH2 0xBF7 ADDRESS DUP7 PUSH2 0x1CC4 JUMP JUMPDEST SWAP3 DUP2 PUSH2 0xE0E JUMPI JUMPDEST POP POP POP PUSH2 0xC0A DUP5 PUSH2 0x1C44 JUMP JUMPDEST SWAP3 PUSH15 0x22D473030F116DDEE9F6B43AC78BA3 DUP1 EXTCODESIZE ISZERO PUSH2 0x501 JUMPI DUP8 DUP1 SWAP2 PUSH1 0x84 DUP10 MLOAD DUP1 SWAP5 DUP2 SWAP4 PUSH4 0x1B63C28B PUSH1 0xE1 SHL DUP4 MSTORE CALLER DUP11 DUP5 ADD MSTORE ADDRESS PUSH1 0x24 DUP5 ADD MSTORE PUSH1 0x1 PUSH1 0x1 PUSH1 0xA0 SHL SUB DUP1 SWAP12 AND PUSH1 0x44 DUP5 ADD MSTORE DUP11 DUP9 AND PUSH1 0x64 DUP5 ADD MSTORE GAS CALL DUP1 ISZERO PUSH2 0xE04 JUMPI SWAP1 DUP9 SWAP2 PUSH2 0xDEC JUMPI JUMPDEST POP POP PUSH2 0xC91 SWAP2 PUSH2 0xC7E PUSH2 0xC83 SWAP3 ADDRESS SWAP1 PUSH2 0x1CC4 JUMP JUMPDEST PUSH2 0x1875 JUMP JUMPDEST PUSH2 0xC8B PUSH2 0x176A JUMP JUMPDEST SWAP1 PUSH2 0x1C01 JUMP JUMPDEST SWAP5 DUP6 ISZERO PUSH2 0xDDD JUMPI PUSH9 0x5345CDF77EB68F44C SWAP1 DUP2 SLOAD SWAP1 DUP2 ISZERO PUSH2 0xD4B JUMPI JUMPDEST POP POP DUP1 SLOAD SWAP2 DUP7 DUP4 ADD SWAP3 DUP4 LT PUSH2 0xD3F JUMPI POP SSTORE PUSH4 0x87A211A2 PUSH1 0xC MSTORE DUP5 PUSH1 0x0 MSTORE PUSH1 0x20 SWAP5 DUP6 PUSH1 0xC KECCAK256 DUP6 DUP2 SLOAD ADD SWAP1 SSTORE DUP5 DUP7 MSTORE PUSH1 0xC MLOAD PUSH1 0x60 SHR PUSH1 0x0 PUSH32 0xDDF252AD1BE2C89B69C2B068FC378DAA952BA7F163C4A11628F55A4DF523B3EF DUP9 DUP1 LOG3 DUP4 MLOAD SWAP3 DUP4 MSTORE DUP5 DUP7 DUP5 ADD MSTORE AND SWAP1 PUSH32 0xDCBC1C05240F31FF3AD067EF1EE35CE4997762752E3A095284754544F4C709D7 DUP4 CALLER SWAP3 LOG3 PUSH2 0x79C PUSH2 0x1A96 JUMP JUMPDEST PUSH4 0xE5CFE957 PUSH1 0x0 MSTORE PUSH1 0x1C REVERT JUMPDEST SWAP1 SWAP7 PUSH2 0x3E7 NOT DUP2 ADD SWAP2 SWAP1 DUP3 GT PUSH2 0xDCA JUMPI POP SWAP6 PUSH2 0x3E8 SWAP1 DUP2 DUP2 ADD SWAP1 DUP2 LT PUSH2 0xDBD JUMPI DUP3 SSTORE PUSH4 0x87A211A2 PUSH1 0xC MSTORE PUSH2 0xDEAD PUSH1 0x0 MSTORE PUSH1 0x20 PUSH1 0xC KECCAK256 DUP2 DUP2 SLOAD ADD SWAP1 SSTORE PUSH1 0x20 MSTORE PUSH1 0xC MLOAD PUSH1 0x60 SHR PUSH1 0x0 PUSH32 0xDDF252AD1BE2C89B69C2B068FC378DAA952BA7F163C4A11628F55A4DF523B3EF PUSH1 0x20 DUP1 LOG3 CODESIZE DUP1 PUSH2 0xCAD JUMP JUMPDEST DUP4 PUSH4 0xE5CFE957 PUSH1 0x0 MSTORE PUSH1 0x1C REVERT JUMPDEST PUSH4 0x4E487B71 PUSH1 0xE0 SHL DUP2 MSTORE PUSH1 0x11 DUP5 MSTORE PUSH1 0x24 SWAP1 REVERT JUMPDEST POP DUP4 MLOAD PUSH4 0xF1CA48B1 PUSH1 0xE0 SHL DUP2 MSTORE REVERT JUMPDEST PUSH2 0xDF5 SWAP1 PUSH2 0x16D4 JUMP JUMPDEST PUSH2 0xE00 JUMPI DUP7 CODESIZE PUSH2 0xC6A JUMP JUMPDEST DUP7 DUP1 REVERT JUMPDEST DUP8 MLOAD RETURNDATASIZE DUP11 DUP3 RETURNDATACOPY RETURNDATASIZE SWAP1 REVERT JUMPDEST PUSH15 0x22D473030F116DDEE9F6B43AC78BA3 SWAP2 DUP3 EXTCODESIZE ISZERO PUSH2 0xF1A JUMPI DUP9 MLOAD PUSH4 0x2B67B57 PUSH1 0xE4 SHL DUP2 MSTORE CALLER DUP8 DUP3 ADD MSTORE SWAP4 PUSH1 0x1 PUSH1 0x1 PUSH1 0xA0 SHL SUB DUP1 PUSH2 0xE49 PUSH2 0x166F JUMP JUMPDEST AND PUSH1 0x24 DUP8 ADD MSTORE PUSH1 0x64 CALLDATALOAD DUP2 DUP2 AND DUP1 SWAP2 SUB PUSH2 0xF12 JUMPI PUSH1 0x44 DUP8 ADD MSTORE PUSH1 0x84 CALLDATALOAD PUSH6 0xFFFFFFFFFFFF SWAP1 DUP2 DUP2 AND DUP1 SWAP2 SUB PUSH2 0xF16 JUMPI PUSH1 0x64 DUP9 ADD MSTORE PUSH1 0xA4 CALLDATALOAD SWAP1 DUP2 AND DUP1 SWAP2 SUB PUSH2 0xF12 JUMPI PUSH1 0x84 DUP8 ADD MSTORE PUSH1 0xC4 CALLDATALOAD SWAP1 DUP2 AND DUP1 SWAP2 SUB PUSH2 0xF0E JUMPI DUP6 SWAP4 DUP5 DUP5 DUP15 SWAP8 SWAP6 DUP3 SWAP6 DUP10 SWAP6 PUSH1 0xA4 DUP6 ADD MSTORE PUSH1 0xE4 CALLDATALOAD PUSH1 0xC4 DUP6 ADD MSTORE PUSH2 0x100 PUSH1 0xE4 DUP6 ADD MSTORE DUP4 ADD MSTORE DUP1 PUSH1 0x24 PUSH2 0x124 SWAP5 ADD DUP5 DUP5 ADD CALLDATACOPY DUP2 DUP2 ADD DUP4 ADD DUP5 SWAP1 MSTORE PUSH1 0x1F ADD PUSH1 0x1F NOT AND DUP2 ADD SUB ADD SWAP3 GAS CALL DUP1 ISZERO PUSH2 0xF04 JUMPI PUSH2 0xEF1 JUMPI JUMPDEST DUP1 DUP1 PUSH2 0xBFE JUMP JUMPDEST PUSH2 0xEFD SWAP1 SWAP7 SWAP2 SWAP7 PUSH2 0x16D4 JUMP JUMPDEST SWAP5 CODESIZE PUSH2 0xEEA JUMP JUMPDEST DUP7 MLOAD RETURNDATASIZE DUP10 DUP3 RETURNDATACOPY RETURNDATASIZE SWAP1 REVERT JUMPDEST DUP12 DUP1 REVERT JUMPDEST DUP13 DUP1 REVERT JUMPDEST DUP14 DUP1 REVERT JUMPDEST DUP10 DUP1 REVERT JUMPDEST DUP4 DUP1 REVERT JUMPDEST POP POP CALLVALUE PUSH2 0x2E6 JUMPI PUSH1 0x20 CALLDATASIZE PUSH1 0x3 NOT ADD SLT PUSH2 0x2E6 JUMPI PUSH1 0x20 SWAP2 PUSH2 0xF40 PUSH2 0x163E JUMP JUMPDEST SWAP1 PUSH4 0x38377508 PUSH1 0xC MSTORE MSTORE DUP2 PUSH1 0xC KECCAK256 SLOAD SWAP1 MLOAD SWAP1 DUP2 MSTORE RETURN JUMPDEST POP POP CALLVALUE PUSH2 0x2E6 JUMPI PUSH1 0x20 CALLDATASIZE PUSH1 0x3 NOT ADD SLT PUSH2 0x2E6 JUMPI PUSH1 0x20 SWAP2 PUSH2 0xF74 PUSH2 0x163E JUMP JUMPDEST SWAP1 PUSH4 0x87A211A2 PUSH1 0xC MSTORE MSTORE DUP2 PUSH1 0xC KECCAK256 SLOAD SWAP1 MLOAD SWAP1 DUP2 MSTORE RETURN JUMPDEST POP POP CALLVALUE PUSH2 0x2E6 JUMPI DUP2 PUSH1 0x3 NOT CALLDATASIZE ADD SLT PUSH2 0x2E6 JUMPI PUSH1 0x20 SWAP1 MLOAD PUSH1 0x1 PUSH1 0x1 PUSH1 0xA0 SHL SUB PUSH32 0x0 AND DUP2 MSTORE RETURN JUMPDEST POP POP CALLVALUE PUSH2 0x2E6 JUMPI DUP2 PUSH1 0x3 NOT CALLDATASIZE ADD SLT PUSH2 0x2E6 JUMPI PUSH1 0x20 SWAP1 MLOAD PUSH15 0x22D473030F116DDEE9F6B43AC78BA3 DUP2 MSTORE RETURN JUMPDEST POP POP CALLVALUE PUSH2 0x2E6 JUMPI DUP2 PUSH1 0x3 NOT CALLDATASIZE ADD SLT PUSH2 0x2E6 JUMPI PUSH1 0x20 SWAP1 MLOAD PUSH32 0x0 DUP2 MSTORE RETURN JUMPDEST POP SWAP2 CALLVALUE PUSH2 0x614 JUMPI PUSH1 0x20 SWAP1 DUP2 PUSH1 0x3 NOT CALLDATASIZE ADD SLT PUSH2 0x614 JUMPI PUSH2 0x1050 PUSH2 0x163E JUMP JUMPDEST PUSH1 0x1 PUSH1 0x1 PUSH1 0xA0 SHL SUB SWAP1 DUP1 DUP3 AND DUP1 PUSH2 0x1071 JUMPI DUP6 MLOAD PUSH4 0x6E7AC57D PUSH1 0xE1 SHL DUP2 MSTORE DUP8 SWAP1 REVERT JUMPDEST DUP7 ADDRESS DUP3 EQ PUSH2 0x1129 JUMPI SWAP1 PUSH1 0x24 DUP7 SWAP3 DUP9 MLOAD SWAP6 DUP7 SWAP4 DUP5 SWAP3 PUSH4 0x7D6AF079 PUSH1 0xE0 SHL DUP5 MSTORE DUP4 ADD MSTORE PUSH32 0x0 AND GAS STATICCALL SWAP2 DUP3 ISZERO PUSH2 0x111F JUMPI DUP4 SWAP3 PUSH2 0x10EE JUMPI JUMPDEST POP PUSH2 0x10E2 SWAP3 PUSH4 0x87A211A2 PUSH1 0xC MSTORE MSTORE PUSH2 0x581 DUP4 PUSH1 0xC KECCAK256 SLOAD PUSH2 0x57B PUSH2 0x176A JUMP JUMPDEST SWAP1 SWAP2 DUP4 MLOAD SWAP3 DUP4 MSTORE DUP3 ADD MSTORE RETURN JUMPDEST SWAP1 SWAP2 POP DUP4 DUP2 DUP2 RETURNDATASIZE DUP4 GT PUSH2 0x1118 JUMPI JUMPDEST PUSH2 0x1106 DUP2 DUP4 PUSH2 0x16FE JUMP JUMPDEST DUP2 ADD SUB SLT PUSH2 0x220 JUMPI MLOAD SWAP1 PUSH2 0x10E2 PUSH2 0x10C4 JUMP JUMPDEST POP RETURNDATASIZE PUSH2 0x10FC JUMP JUMPDEST DUP6 MLOAD RETURNDATASIZE DUP6 DUP3 RETURNDATACOPY RETURNDATASIZE SWAP1 REVERT JUMPDEST DUP7 MLOAD PUSH4 0xBF8C13AF PUSH1 0xE0 SHL DUP2 MSTORE REVERT JUMPDEST POP POP CALLVALUE PUSH2 0x2E6 JUMPI DUP2 PUSH1 0x3 NOT CALLDATASIZE ADD SLT PUSH2 0x2E6 JUMPI PUSH1 0x20 SWAP1 PUSH2 0x1154 PUSH2 0x17A4 JUMP JUMPDEST SWAP1 MLOAD SWAP1 DUP2 MSTORE RETURN JUMPDEST POP POP CALLVALUE PUSH2 0x2E6 JUMPI DUP2 PUSH1 0x3 NOT CALLDATASIZE ADD SLT PUSH2 0x2E6 JUMPI PUSH1 0x20 SWAP1 PUSH2 0x1154 PUSH2 0x176A JUMP JUMPDEST POP SWAP2 CALLVALUE PUSH2 0x614 JUMPI DUP2 PUSH1 0x3 NOT CALLDATASIZE ADD SLT PUSH2 0x614 JUMPI PUSH2 0x1192 PUSH2 0x163E JUMP JUMPDEST PUSH1 0x20 MSTORE PUSH4 0x7F5E9F20 PUSH1 0xC MSTORE CALLER DUP2 MSTORE PUSH1 0x34 PUSH1 0xC KECCAK256 SWAP3 DUP4 SLOAD SWAP1 PUSH1 0x24 CALLDATALOAD DUP3 ADD SWAP2 DUP3 LT PUSH2 0x11F0 JUMPI POP DUP1 PUSH1 0x20 SWAP5 SSTORE DUP2 MSTORE PUSH1 0x2C MLOAD PUSH1 0x60 SHR SWAP1 PUSH32 0x8C5BE1E5EBEC7D5BD14F71427D1E84F3DD0314C0F7B2291E5B200AC8C7C3B925 DUP5 CALLER SWAP3 LOG3 MLOAD PUSH1 0x1 DUP2 MSTORE RETURN JUMPDEST PUSH4 0xF9067066 DUP4 MSTORE PUSH1 0x1C REVERT JUMPDEST POP POP CALLVALUE PUSH2 0x2E6 JUMPI DUP2 PUSH1 0x3 NOT CALLDATASIZE ADD SLT PUSH2 0x2E6 JUMPI PUSH1 0x20 SWAP1 PUSH2 0x1154 PUSH2 0x1B42 JUMP JUMPDEST POP SWAP2 CALLVALUE PUSH2 0x614 JUMPI DUP1 PUSH1 0x3 NOT CALLDATASIZE ADD SLT PUSH2 0x614 JUMPI PUSH1 0x20 DUP3 MLOAD DUP1 SWAP5 PUSH4 0x313CE567 PUSH1 0xE0 SHL DUP3 MSTORE DUP2 PUSH1 0x1 PUSH1 0x1 PUSH1 0xA0 SHL SUB PUSH32 0x0 AND GAS STATICCALL SWAP3 DUP4 ISZERO PUSH2 0xB3B JUMPI DUP2 SWAP4 PUSH2 0x1282 JUMPI JUMPDEST PUSH1 0x20 DUP5 PUSH1 0xFF DUP6 MLOAD SWAP2 AND DUP2 MSTORE RETURN JUMPDEST SWAP1 SWAP3 POP PUSH1 0x20 DUP2 RETURNDATASIZE DUP3 GT PUSH2 0x12BB JUMPI JUMPDEST DUP2 PUSH2 0x129D PUSH1 0x20 SWAP4 DUP4 PUSH2 0x16FE JUMP JUMPDEST DUP2 ADD SUB SLT PUSH2 0x220 JUMPI MLOAD SWAP2 PUSH1 0xFF DUP4 AND DUP4 SUB PUSH2 0x614 JUMPI POP PUSH1 0xFF PUSH1 0x20 PUSH2 0x1275 JUMP JUMPDEST RETURNDATASIZE SWAP2 POP PUSH2 0x1290 JUMP JUMPDEST POP SWAP2 SWAP1 CALLVALUE PUSH2 0x2E6 JUMPI PUSH1 0x60 CALLDATASIZE PUSH1 0x3 NOT ADD SLT PUSH2 0x2E6 JUMPI PUSH2 0x12DF PUSH2 0x163E JUMP JUMPDEST PUSH2 0x12E7 PUSH2 0x1659 JUMP JUMPDEST PUSH1 0x44 CALLDATALOAD DUP3 PUSH1 0x60 SHL SWAP2 PUSH1 0x20 SWAP6 CALLER DUP8 MSTORE PUSH1 0xC SWAP4 PUSH4 0x7F5E9F20 DUP2 OR DUP6 MSTORE PUSH1 0x34 DUP6 KECCAK256 DUP1 SLOAD PUSH1 0x0 NOT DUP2 SUB PUSH2 0x1376 JUMPI JUMPDEST POP POP PUSH4 0x87A211A2 OR DUP5 MSTORE DUP7 DUP5 KECCAK256 DUP1 SLOAD SWAP9 DUP10 DUP6 GT PUSH2 0x7A2 JUMPI POP DUP4 PUSH1 0x1 PUSH1 0x1 PUSH1 0xA0 SHL SUB SWAP7 SWAP8 SWAP9 SWAP10 SUB SWAP1 SSTORE MSTORE DUP6 DUP3 KECCAK256 DUP2 DUP2 SLOAD ADD SWAP1 SSTORE DUP6 MSTORE MLOAD PUSH1 0x60 SHR SWAP2 AND PUSH32 0xDDF252AD1BE2C89B69C2B068FC378DAA952BA7F163C4A11628F55A4DF523B3EF DUP5 DUP1 LOG3 MLOAD PUSH1 0x1 DUP2 MSTORE RETURN JUMPDEST DUP1 DUP7 GT PUSH2 0x138D JUMPI DUP6 SWAP1 SUB SWAP1 SSTORE PUSH4 0x87A211A2 CODESIZE PUSH2 0x1311 JUMP JUMPDEST DUP11 PUSH4 0x13BE252B DUP6 MSTORE PUSH1 0x1C REVERT JUMPDEST POP SWAP2 SWAP1 CALLVALUE PUSH2 0x2E6 JUMPI PUSH1 0x20 CALLDATASIZE PUSH1 0x3 NOT ADD SLT PUSH2 0x2E6 JUMPI PUSH2 0x13B5 PUSH2 0x163E JUMP JUMPDEST SWAP1 DUP3 SLOAD SWAP2 PUSH1 0xFF DUP4 AND ISZERO PUSH2 0x1464 JUMPI PUSH1 0xFF NOT SWAP3 DUP4 AND DUP5 SSTORE PUSH2 0x13D2 PUSH2 0x19F0 JUMP JUMPDEST PUSH1 0x1 PUSH1 0x1 PUSH1 0xA0 SHL SUB SWAP2 DUP3 DUP3 AND SWAP3 PUSH32 0x0 AND DUP4 EQ PUSH2 0x1455 JUMPI PUSH1 0x1 SWAP5 SWAP6 POP PUSH2 0x1422 PUSH2 0x1419 ADDRESS DUP5 PUSH2 0x1CC4 JUMP JUMPDEST DUP1 SWAP4 CALLER SWAP1 PUSH2 0x1C7B JUMP JUMPDEST MLOAD SWAP1 DUP2 MSTORE PUSH32 0x6D25BE279134F4ECAA4770AFF0C3D916D9E7C5EF37B65ED95DBDBA411F5D54D5 PUSH1 0x20 CALLER SWAP3 LOG3 DUP3 SLOAD AND OR DUP2 SSTORE DUP1 RETURN JUMPDEST MLOAD PUSH4 0xB5D8F391 PUSH1 0xE0 SHL DUP2 MSTORE DUP6 SWAP1 REVERT JUMPDEST DUP2 MLOAD PUSH4 0x6FDA65D PUSH1 0xE3 SHL DUP2 MSTORE DUP6 SWAP1 REVERT JUMPDEST POP POP CALLVALUE PUSH2 0x2E6 JUMPI DUP2 PUSH1 0x3 NOT CALLDATASIZE ADD SLT PUSH2 0x2E6 JUMPI PUSH1 0x20 SWAP1 PUSH9 0x5345CDF77EB68F44C SLOAD SWAP1 MLOAD SWAP1 DUP2 MSTORE RETURN JUMPDEST POP POP CALLVALUE PUSH2 0x2E6 JUMPI DUP1 PUSH1 0x3 NOT CALLDATASIZE ADD SLT PUSH2 0x2E6 JUMPI PUSH1 0x20 SWAP2 PUSH2 0x14B8 PUSH2 0x163E JUMP JUMPDEST PUSH1 0x24 CALLDATALOAD SWAP1 DUP5 MSTORE PUSH4 0x7F5E9F20 PUSH1 0xC MSTORE CALLER DUP3 MSTORE DUP1 PUSH1 0x34 PUSH1 0xC KECCAK256 SSTORE DUP2 MSTORE PUSH1 0x2C MLOAD PUSH1 0x60 SHR SWAP1 PUSH32 0x8C5BE1E5EBEC7D5BD14F71427D1E84F3DD0314C0F7B2291E5B200AC8C7C3B925 DUP5 CALLER SWAP3 LOG3 MLOAD PUSH1 0x1 DUP2 MSTORE RETURN JUMPDEST POP POP CALLVALUE PUSH2 0x2E6 JUMPI DUP2 PUSH1 0x3 NOT CALLDATASIZE ADD SLT PUSH2 0x2E6 JUMPI PUSH2 0xA96 SWAP1 PUSH2 0x1523 PUSH2 0x1720 JUMP JUMPDEST SWAP1 MLOAD SWAP2 DUP3 SWAP2 DUP3 PUSH2 0x16A8 JUMP JUMPDEST POP SWAP2 CALLVALUE PUSH2 0x614 JUMPI PUSH1 0x20 SWAP3 DUP4 PUSH1 0x3 NOT CALLDATASIZE ADD SLT PUSH2 0x2E6 JUMPI PUSH2 0x154B PUSH2 0x163E JUMP JUMPDEST PUSH4 0x87A211A2 PUSH1 0xC MSTORE DUP1 DUP4 MSTORE DUP5 PUSH2 0x1572 PUSH2 0x156A DUP3 PUSH1 0xC KECCAK256 SLOAD PUSH2 0x57B PUSH2 0x176A JUMP JUMPDEST PUSH2 0x57B PUSH2 0x17A4 JUMP JUMPDEST SWAP3 PUSH1 0x24 DUP7 MLOAD DUP1 SWAP5 DUP2 SWAP4 PUSH4 0x7D6AF079 PUSH1 0xE0 SHL DUP4 MSTORE PUSH1 0x1 PUSH1 0x1 PUSH1 0xA0 SHL SUB DUP1 SWAP3 AND SWAP1 DUP4 ADD MSTORE PUSH32 0x0 AND GAS STATICCALL DUP1 ISZERO PUSH2 0x1634 JUMPI DUP4 SWAP1 PUSH2 0x1605 JUMPI JUMPDEST PUSH2 0x15DF SWAP2 POP PUSH2 0x15D9 PUSH1 0x2 SLOAD PUSH1 0x3 SLOAD SWAP1 PUSH2 0x1980 JUMP JUMPDEST SWAP1 PUSH2 0x1BDF JUMP JUMPDEST SWAP1 DUP1 PUSH2 0x15EE JUMPI POP POP SWAP1 MLOAD SWAP1 DUP2 MSTORE RETURN JUMPDEST PUSH1 0x1 SLOAD PUSH2 0x15FF SWAP4 POP PUSH2 0xC8B SWAP2 PUSH2 0x1BB4 JUMP JUMPDEST SWAP1 PUSH2 0x79C JUMP JUMPDEST POP DUP5 DUP2 DUP2 RETURNDATASIZE DUP4 GT PUSH2 0x162D JUMPI JUMPDEST PUSH2 0x161B DUP2 DUP4 PUSH2 0x16FE JUMP JUMPDEST DUP2 ADD SUB SLT PUSH2 0x220 JUMPI PUSH2 0x15DF SWAP1 MLOAD PUSH2 0x15C5 JUMP JUMPDEST POP RETURNDATASIZE PUSH2 0x1611 JUMP JUMPDEST DUP5 MLOAD RETURNDATASIZE DUP6 DUP3 RETURNDATACOPY RETURNDATASIZE SWAP1 REVERT JUMPDEST PUSH1 0x4 CALLDATALOAD SWAP1 PUSH1 0x1 PUSH1 0x1 PUSH1 0xA0 SHL SUB DUP3 AND DUP3 SUB PUSH2 0x1654 JUMPI JUMP JUMPDEST PUSH1 0x0 DUP1 REVERT JUMPDEST PUSH1 0x24 CALLDATALOAD SWAP1 PUSH1 0x1 PUSH1 0x1 PUSH1 0xA0 SHL SUB DUP3 AND DUP3 SUB PUSH2 0x1654 JUMPI JUMP JUMPDEST PUSH1 0x44 CALLDATALOAD SWAP1 PUSH1 0x1 PUSH1 0x1 PUSH1 0xA0 SHL SUB DUP3 AND DUP3 SUB PUSH2 0x1654 JUMPI JUMP JUMPDEST PUSH1 0x0 JUMPDEST DUP4 DUP2 LT PUSH2 0x1698 JUMPI POP POP PUSH1 0x0 SWAP2 ADD MSTORE JUMP JUMPDEST DUP2 DUP2 ADD MLOAD DUP4 DUP3 ADD MSTORE PUSH1 0x20 ADD PUSH2 0x1688 JUMP JUMPDEST PUSH1 0x40 SWAP2 PUSH1 0x20 DUP3 MSTORE PUSH2 0x16C8 DUP2 MLOAD DUP1 SWAP3 DUP2 PUSH1 0x20 DUP7 ADD MSTORE PUSH1 0x20 DUP7 DUP7 ADD SWAP2 ADD PUSH2 0x1685 JUMP JUMPDEST PUSH1 0x1F ADD PUSH1 0x1F NOT AND ADD ADD SWAP1 JUMP JUMPDEST PUSH8 0xFFFFFFFFFFFFFFFF DUP2 GT PUSH2 0x16E8 JUMPI PUSH1 0x40 MSTORE JUMP JUMPDEST PUSH4 0x4E487B71 PUSH1 0xE0 SHL PUSH1 0x0 MSTORE PUSH1 0x41 PUSH1 0x4 MSTORE PUSH1 0x24 PUSH1 0x0 REVERT JUMPDEST SWAP1 PUSH1 0x1F DUP1 NOT SWAP2 ADD AND DUP2 ADD SWAP1 DUP2 LT PUSH8 0xFFFFFFFFFFFFFFFF DUP3 GT OR PUSH2 0x16E8 JUMPI PUSH1 0x40 MSTORE JUMP JUMPDEST PUSH1 0x40 MLOAD SWAP1 PUSH1 0x40 DUP3 ADD DUP3 DUP2 LT PUSH8 0xFFFFFFFFFFFFFFFF DUP3 GT OR PUSH2 0x16E8 JUMPI PUSH1 0x40 MSTORE PUSH1 0x12 DUP3 MSTORE PUSH32 0x4379676E75733A20436F6C6C61746572616C0000000000000000000000000000 PUSH1 0x20 DUP4 ADD MSTORE JUMP JUMPDEST PUSH9 0x5345CDF77EB68F44C SLOAD PUSH1 0x0 SWAP1 DUP1 PUSH2 0x178B JUMPI POP POP PUSH8 0xDE0B6B3A7640000 SWAP1 JUMP JUMPDEST PUSH1 0x1 PUSH1 0x1 PUSH1 0xA0 SHL SUB PUSH2 0x17A1 SWAP3 SLOAD PUSH1 0x8 SHR AND PUSH2 0x1C01 JUMP JUMPDEST SWAP1 JUMP JUMPDEST PUSH1 0x40 MLOAD SWAP1 PUSH4 0x17E5A1A1 PUSH1 0xE0 SHL DUP3 MSTORE PUSH1 0x20 DUP3 PUSH1 0x24 DUP2 PUSH1 0x1 PUSH1 0x1 PUSH1 0xA0 SHL SUB DUP1 PUSH32 0x0 AND PUSH1 0x4 DUP4 ADD MSTORE PUSH32 0x0 AND GAS STATICCALL SWAP2 DUP3 ISZERO PUSH2 0x1869 JUMPI PUSH1 0x0 SWAP3 PUSH2 0x1836 JUMPI JUMPDEST POP DUP2 ISZERO PUSH2 0x1824 JUMPI JUMP JUMPDEST PUSH1 0x40 MLOAD PUSH4 0x586AD3B9 PUSH1 0xE1 SHL DUP2 MSTORE PUSH1 0x4 SWAP1 REVERT JUMPDEST SWAP1 SWAP2 PUSH1 0x20 DUP3 RETURNDATASIZE DUP3 GT PUSH2 0x1861 JUMPI JUMPDEST DUP2 PUSH2 0x1850 PUSH1 0x20 SWAP4 DUP4 PUSH2 0x16FE JUMP JUMPDEST DUP2 ADD SUB SLT PUSH2 0x614 JUMPI POP MLOAD SWAP1 CODESIZE PUSH2 0x181B JUMP JUMPDEST RETURNDATASIZE SWAP2 POP PUSH2 0x1843 JUMP JUMPDEST PUSH1 0x40 MLOAD RETURNDATASIZE PUSH1 0x0 DUP3 RETURNDATACOPY RETURNDATASIZE SWAP1 REVERT JUMPDEST SWAP2 SWAP1 DUP3 SUB SWAP2 DUP3 GT PUSH2 0x1882 JUMPI JUMP JUMPDEST PUSH4 0x4E487B71 PUSH1 0xE0 SHL PUSH1 0x0 MSTORE PUSH1 0x11 PUSH1 0x4 MSTORE PUSH1 0x24 PUSH1 0x0 REVERT JUMPDEST SWAP2 SWAP1 SWAP2 PUSH4 0x87A211A2 PUSH1 0xC MSTORE PUSH1 0x0 SWAP3 DUP2 DUP5 MSTORE PUSH1 0x20 PUSH1 0xC KECCAK256 SLOAD DUP1 DUP3 GT PUSH2 0x197B JUMPI PUSH2 0x18D0 PUSH2 0x18C8 PUSH1 0x24 SWAP5 SWAP4 PUSH1 0x20 SWAP4 PUSH2 0x1875 JUMP JUMPDEST PUSH2 0x57B PUSH2 0x176A JUMP JUMPDEST SWAP2 PUSH1 0x40 MLOAD SWAP4 DUP5 DUP1 SWAP3 PUSH4 0x7D6AF079 PUSH1 0xE0 SHL DUP3 MSTORE PUSH1 0x1 PUSH1 0x1 PUSH1 0xA0 SHL SUB DUP1 SWAP2 AND PUSH1 0x4 DUP4 ADD MSTORE PUSH32 0x0 AND GAS STATICCALL SWAP2 DUP3 ISZERO PUSH2 0x1970 JUMPI DUP5 SWAP3 PUSH2 0x1936 JUMPI JUMPDEST POP PUSH2 0x1930 SWAP3 SWAP4 POP PUSH2 0x198D JUMP JUMPDEST SWAP1 POP ISZERO SWAP1 JUMP JUMPDEST SWAP1 SWAP2 POP PUSH1 0x20 DUP2 RETURNDATASIZE DUP3 GT PUSH2 0x1968 JUMPI JUMPDEST DUP2 PUSH2 0x1951 PUSH1 0x20 SWAP4 DUP4 PUSH2 0x16FE JUMP JUMPDEST DUP2 ADD SUB SLT PUSH2 0xF1E JUMPI PUSH2 0x1930 SWAP3 SWAP4 POP MLOAD SWAP1 DUP4 SWAP3 PUSH2 0x1924 JUMP JUMPDEST RETURNDATASIZE SWAP2 POP PUSH2 0x1944 JUMP JUMPDEST PUSH1 0x40 MLOAD RETURNDATASIZE DUP7 DUP3 RETURNDATACOPY RETURNDATASIZE SWAP1 REVERT JUMPDEST POP POP POP JUMP JUMPDEST SWAP2 SWAP1 DUP3 ADD DUP1 SWAP3 GT PUSH2 0x1882 JUMPI JUMP JUMPDEST PUSH2 0x199C PUSH2 0x19A5 SWAP2 PUSH2 0x57B PUSH2 0x17A4 JUMP JUMPDEST PUSH1 0x1 SLOAD SWAP1 PUSH2 0x1BB4 JUMP JUMPDEST SWAP1 DUP1 ISZERO PUSH2 0x19D6 JUMPI PUSH2 0x19BF SWAP1 PUSH2 0x15D9 PUSH1 0x2 SLOAD PUSH1 0x3 SLOAD SWAP1 PUSH2 0x1980 JUMP JUMPDEST SWAP1 DUP2 DUP2 LT PUSH2 0x19CE JUMPI SUB SWAP1 PUSH1 0x0 SWAP1 JUMP JUMPDEST PUSH1 0x0 SWAP3 SWAP2 SUB SWAP1 JUMP JUMPDEST POP PUSH2 0x19EA SWAP1 PUSH2 0xC8B PUSH1 0x2 SLOAD PUSH1 0x3 SLOAD SWAP1 PUSH2 0x1980 JUMP JUMPDEST SWAP1 PUSH1 0x0 SWAP1 JUMP JUMPDEST PUSH1 0x40 MLOAD PUSH4 0x3E14691 PUSH1 0xE6 SHL DUP2 MSTORE PUSH1 0x1 PUSH1 0x1 PUSH1 0xA0 SHL SUB SWAP1 PUSH1 0x20 DUP2 PUSH1 0x4 DUP2 PUSH32 0x0 DUP7 AND GAS STATICCALL SWAP1 DUP2 ISZERO PUSH2 0x1869 JUMPI PUSH1 0x0 SWAP2 PUSH2 0x1A5C JUMPI JUMPDEST POP AND CALLER SUB PUSH2 0x1A4A JUMPI JUMP JUMPDEST PUSH1 0x40 MLOAD PUSH4 0x31D63AD1 PUSH1 0xE1 SHL DUP2 MSTORE PUSH1 0x4 SWAP1 REVERT JUMPDEST PUSH1 0x20 DUP2 RETURNDATASIZE DUP3 GT PUSH2 0x1A8E JUMPI JUMPDEST DUP2 PUSH2 0x1A74 PUSH1 0x20 SWAP4 DUP4 PUSH2 0x16FE JUMP JUMPDEST DUP2 ADD SUB SLT PUSH2 0x2E6 JUMPI MLOAD SWAP1 DUP3 DUP3 AND DUP3 SUB PUSH2 0x614 JUMPI POP CODESIZE PUSH2 0x1A40 JUMP JUMPDEST RETURNDATASIZE SWAP2 POP PUSH2 0x1A67 JUMP JUMPDEST PUSH32 0x3145C2B643834867F2C0A8CAC8A48218307687911615C0ED01412A09DD163B66 PUSH1 0x20 PUSH2 0x1AEB PUSH2 0x1AE6 ADDRESS PUSH32 0x0 PUSH2 0x1CC4 JUMP JUMPDEST PUSH2 0x1C44 JUMP JUMPDEST PUSH1 0x0 SLOAD PUSH32 0xFFFFFFFFFFFFFFFFFFFFFF0000000000000000000000000000000000000000FF PUSH21 0xFFFFFFFFFFFFFFFFFFFFFFFFFFFFFFFFFFFFFFFF00 DUP4 PUSH1 0x8 SHL AND SWAP2 AND OR PUSH1 0x0 SSTORE PUSH1 0x1 PUSH1 0x1 PUSH1 0xA0 SHL SUB PUSH1 0x40 MLOAD SWAP2 AND DUP2 MSTORE LOG1 JUMP JUMPDEST PUSH1 0xA0 PUSH1 0x40 MLOAD PUSH2 0x1B4F PUSH2 0x1720 JUMP JUMPDEST PUSH1 0x20 DUP2 MLOAD SWAP2 ADD KECCAK256 PUSH32 0x8B73C3C69BB8FE3D512ECC4CF759CC79239F7B179B0FFACAA9A75D522B39400F DUP3 MSTORE PUSH1 0x20 DUP3 ADD MSTORE PUSH32 0xC89EFDAA54C0F20C7ADF612882DF0950F5A951637E0307CDCB4C672F298B8BC6 PUSH1 0x40 DUP3 ADD MSTORE CHAINID PUSH1 0x60 DUP3 ADD MSTORE ADDRESS PUSH1 0x80 DUP3 ADD MSTORE KECCAK256 SWAP1 JUMP JUMPDEST SWAP1 DUP1 PUSH1 0x0 NOT DIV DUP3 GT DUP2 MUL PUSH2 0x1BD1 JUMPI PUSH8 0xDE0B6B3A7640000 SWAP2 MUL DIV SWAP1 JUMP JUMPDEST PUSH4 0xBAC65E5B PUSH1 0x0 MSTORE PUSH1 0x4 PUSH1 0x1C REVERT JUMPDEST DUP2 PUSH1 0x0 NOT DIV DUP2 GT DUP3 MUL PUSH2 0x1BD1 JUMPI MUL PUSH8 0xDE0B6B3A7640000 DUP1 DUP3 DIV SWAP2 MOD ISZERO ISZERO ADD SWAP1 JUMP JUMPDEST PUSH8 0xDE0B6B3A7640000 SWAP1 PUSH25 0x12725DD1D243ABA0E75FE645CC4873F9E65AFE688C928E1F21 DUP2 GT DUP3 MUL ISZERO DUP4 MUL ISZERO PUSH2 0x1C36 JUMPI MUL DIV SWAP1 JUMP JUMPDEST PUSH4 0x7C5F487D PUSH1 0x0 MSTORE PUSH1 0x4 PUSH1 0x1C REVERT JUMPDEST PUSH21 0x10000000000000000000000000000000000000000 DUP2 LT ISZERO PUSH2 0x1C6D JUMPI PUSH1 0x1 PUSH1 0x1 PUSH1 0xA0 SHL SUB AND SWAP1 JUMP JUMPDEST PUSH4 0x35278D12 PUSH1 0x0 MSTORE PUSH1 0x4 PUSH1 0x1C REVERT JUMPDEST PUSH1 0x10 SWAP3 PUSH1 0x20 SWAP3 PUSH1 0x14 MSTORE PUSH1 0x34 MSTORE PUSH1 0x44 PUSH1 0x0 SWAP4 DUP5 DUP1 SWAP4 PUSH16 0xA9059CBB000000000000000000000000 DUP3 MSTORE GAS CALL RETURNDATASIZE ISZERO PUSH1 0x1 DUP4 MLOAD EQ OR AND ISZERO PUSH2 0x1CB7 JUMPI PUSH1 0x34 MSTORE JUMP JUMPDEST PUSH4 0x90B8EC18 SWAP1 MSTORE PUSH1 0x4 PUSH1 0x1C REVERT JUMPDEST PUSH1 0x24 PUSH1 0x10 PUSH1 0x20 SWAP4 SWAP3 DUP5 SWAP4 PUSH1 0x14 MSTORE PUSH16 0x70A08231000000000000000000000000 PUSH1 0x0 MSTORE GAS STATICCALL PUSH1 0x1F RETURNDATASIZE GT AND PUSH1 0x20 MLOAD MUL SWAP1 JUMP INVALID LOG2 PUSH5 0x6970667358 0x22 SLT KECCAK256 0xBA PUSH26 0x711C3E3F5A7A24275EBF724F15D482B22F62BCA425A94BEF9238 0xD7 0xB7 PUSH3 0x7C6473 PUSH16 0x6C634300081100330000000000000000 "},"methodIdentifiers":{"DOMAIN_SEPARATOR()":"3644e515","PERMIT2()":"6afdd850","allowance(address,address)":"dd62ed3e","approve(address,uint256)":"095ea7b3","balanceOf(address)":"70a08231","borrowable()":"e99a6ac7","canBorrow(address,uint256)":"cf8c8c44","canRedeem(address,uint256)":"cc1f8ffa","cygnusNebulaOracle()":"d935bd92","debtRatio()":"cea55f57","decimals()":"313ce567","decreaseAllowance(address,uint256)":"a457c2d7","deposit(uint256,address,((address,uint160,uint48,uint48),address,uint256),bytes)":"8808e71c","exchangeRate()":"3ba0b9a9","getAccountLiquidity(address)":"5ec88c79","getDebtRatio(address)":"031a5c82","getLPTokenPrice()":"51303622","hangar18()":"e8a24e1d","increaseAllowance(address,uint256)":"39509351","liquidationFee()":"a36a3630","liquidationIncentive()":"8c765e94","name()":"06fdde03","nonces(address)":"7ecebe00","permit(address,address,uint256,uint256,uint8,bytes32,bytes32)":"d505accf","redeem(uint256,address,address)":"ba087652","setDebtRatio(uint256)":"eb6a887d","setLiquidationFee(uint256)":"fef0bec8","setLiquidationIncentive(uint256)":"a8431081","shuttleId()":"5f77f891","sweepToken(address)":"1be19560","symbol()":"95d89b41","totalBalance()":"ad7a672f","totalSupply()":"18160ddd","transfer(address,uint256)":"a9059cbb","transferFrom(address,address,uint256)":"23b872dd","underlying()":"6f307dc3"}}}}}