{"contracts/cygnus-core/CygnusCollateralVoid.sol":{"CygnusCollateralVoid":{"abi":[{"inputs":[],"stateMutability":"nonpayable","type":"constructor"},{"inputs":[],"name":"AllowanceOverflow","type":"error"},{"inputs":[],"name":"AllowanceUnderflow","type":"error"},{"inputs":[],"name":"CygnusCollateralControl__ParameterNotInRange","type":"error"},{"inputs":[],"name":"CygnusCollateralModel__BorrowerCantBeAddressZero","type":"error"},{"inputs":[],"name":"CygnusCollateralModel__BorrowerCantBeCollateral","type":"error"},{"inputs":[],"name":"CygnusCollateralModel__PriceCantBeZero","type":"error"},{"inputs":[],"name":"CygnusCollateralVoid__OnlyHarvesterAllowed","type":"error"},{"inputs":[],"name":"CygnusTerminal__CantMintZeroShares","type":"error"},{"inputs":[],"name":"CygnusTerminal__CantRedeemZeroAssets","type":"error"},{"inputs":[],"name":"CygnusTerminal__CantSweepUnderlying","type":"error"},{"inputs":[],"name":"CygnusTerminal__MsgSenderNotAdmin","type":"error"},{"inputs":[],"name":"InsufficientAllowance","type":"error"},{"inputs":[],"name":"InsufficientBalance","type":"error"},{"inputs":[],"name":"InvalidPermit","type":"error"},{"inputs":[],"name":"PermitExpired","type":"error"},{"inputs":[],"name":"ReentrantCall","type":"error"},{"inputs":[],"name":"TotalSupplyOverflow","type":"error"},{"anonymous":false,"inputs":[{"indexed":true,"internalType":"address","name":"owner","type":"address"},{"indexed":true,"internalType":"address","name":"spender","type":"address"},{"indexed":false,"internalType":"uint256","name":"amount","type":"uint256"}],"name":"Approval","type":"event"},{"anonymous":false,"inputs":[{"indexed":false,"internalType":"address","name":"underlying","type":"address"},{"indexed":false,"internalType":"uint256","name":"shuttleId","type":"uint256"},{"indexed":false,"internalType":"address","name":"sender","type":"address"}],"name":"ChargeVoid","type":"event"},{"anonymous":false,"inputs":[{"indexed":true,"internalType":"address","name":"sender","type":"address"},{"indexed":true,"internalType":"address","name":"recipient","type":"address"},{"indexed":false,"internalType":"uint256","name":"assets","type":"uint256"},{"indexed":false,"internalType":"uint256","name":"shares","type":"uint256"}],"name":"Deposit","type":"event"},{"anonymous":false,"inputs":[{"indexed":false,"internalType":"uint256","name":"oldDebtRatio","type":"uint256"},{"indexed":false,"internalType":"uint256","name":"newDebtRatio","type":"uint256"}],"name":"NewDebtRatio","type":"event"},{"anonymous":false,"inputs":[{"indexed":false,"internalType":"contract ICygnusHarvester","name":"oldHarvester","type":"address"},{"indexed":false,"internalType":"contract ICygnusHarvester","name":"newHarvester","type":"address"}],"name":"NewHarvester","type":"event"},{"anonymous":false,"inputs":[{"indexed":false,"internalType":"uint256","name":"oldLiquidationFee","type":"uint256"},{"indexed":false,"internalType":"uint256","name":"newLiquidationFee","type":"uint256"}],"name":"NewLiquidationFee","type":"event"},{"anonymous":false,"inputs":[{"indexed":false,"internalType":"uint256","name":"oldLiquidationIncentive","type":"uint256"},{"indexed":false,"internalType":"uint256","name":"newLiquidationIncentive","type":"uint256"}],"name":"NewLiquidationIncentive","type":"event"},{"anonymous":false,"inputs":[{"indexed":true,"internalType":"address","name":"reinvestor","type":"address"},{"indexed":false,"internalType":"uint256","name":"liquidity","type":"uint256"},{"indexed":false,"internalType":"uint256","name":"timestamp","type":"uint256"}],"name":"RechargeVoid","type":"event"},{"anonymous":false,"inputs":[{"indexed":true,"internalType":"address","name":"sender","type":"address"},{"indexed":true,"internalType":"address","name":"token","type":"address"},{"indexed":false,"internalType":"uint256","name":"balance","type":"uint256"}],"name":"SweepToken","type":"event"},{"anonymous":false,"inputs":[{"indexed":false,"internalType":"uint160","name":"totalBalance","type":"uint160"}],"name":"Sync","type":"event"},{"anonymous":false,"inputs":[{"indexed":true,"internalType":"address","name":"from","type":"address"},{"indexed":true,"internalType":"address","name":"to","type":"address"},{"indexed":false,"internalType":"uint256","name":"amount","type":"uint256"}],"name":"Transfer","type":"event"},{"anonymous":false,"inputs":[{"indexed":true,"internalType":"address","name":"sender","type":"address"},{"indexed":true,"internalType":"address","name":"recipient","type":"address"},{"indexed":true,"internalType":"address","name":"owner","type":"address"},{"indexed":false,"internalType":"uint256","name":"assets","type":"uint256"},{"indexed":false,"internalType":"uint256","name":"shares","type":"uint256"}],"name":"Withdraw","type":"event"},{"inputs":[],"name":"DOMAIN_SEPARATOR","outputs":[{"internalType":"bytes32","name":"result","type":"bytes32"}],"stateMutability":"view","type":"function"},{"inputs":[],"name":"PERMIT2","outputs":[{"internalType":"contract IAllowanceTransfer","name":"","type":"address"}],"stateMutability":"view","type":"function"},{"inputs":[{"internalType":"address","name":"owner","type":"address"},{"internalType":"address","name":"spender","type":"address"}],"name":"allowance","outputs":[{"internalType":"uint256","name":"result","type":"uint256"}],"stateMutability":"view","type":"function"},{"inputs":[{"internalType":"address","name":"spender","type":"address"},{"internalType":"uint256","name":"amount","type":"uint256"}],"name":"approve","outputs":[{"internalType":"bool","name":"","type":"bool"}],"stateMutability":"nonpayable","type":"function"},{"inputs":[{"internalType":"address","name":"owner","type":"address"}],"name":"balanceOf","outputs":[{"internalType":"uint256","name":"result","type":"uint256"}],"stateMutability":"view","type":"function"},{"inputs":[],"name":"borrowable","outputs":[{"internalType":"address","name":"","type":"address"}],"stateMutability":"view","type":"function"},{"inputs":[{"internalType":"address","name":"borrower","type":"address"},{"internalType":"uint256","name":"borrowAmount","type":"uint256"}],"name":"canBorrow","outputs":[{"internalType":"bool","name":"","type":"bool"}],"stateMutability":"view","type":"function"},{"inputs":[{"internalType":"address","name":"borrower","type":"address"},{"internalType":"uint256","name":"redeemAmount","type":"uint256"}],"name":"canRedeem","outputs":[{"internalType":"bool","name":"","type":"bool"}],"stateMutability":"view","type":"function"},{"inputs":[],"name":"chargeVoid","outputs":[],"stateMutability":"nonpayable","type":"function"},{"inputs":[],"name":"cygnusNebulaOracle","outputs":[{"internalType":"contract ICygnusNebulaOracle","name":"","type":"address"}],"stateMutability":"view","type":"function"},{"inputs":[],"name":"debtRatio","outputs":[{"internalType":"uint256","name":"","type":"uint256"}],"stateMutability":"view","type":"function"},{"inputs":[],"name":"decimals","outputs":[{"internalType":"uint8","name":"","type":"uint8"}],"stateMutability":"view","type":"function"},{"inputs":[{"internalType":"address","name":"spender","type":"address"},{"internalType":"uint256","name":"difference","type":"uint256"}],"name":"decreaseAllowance","outputs":[{"internalType":"bool","name":"","type":"bool"}],"stateMutability":"nonpayable","type":"function"},{"inputs":[{"internalType":"uint256","name":"assets","type":"uint256"},{"internalType":"address","name":"recipient","type":"address"},{"components":[{"components":[{"internalType":"address","name":"token","type":"address"},{"internalType":"uint160","name":"amount","type":"uint160"},{"internalType":"uint48","name":"expiration","type":"uint48"},{"internalType":"uint48","name":"nonce","type":"uint48"}],"internalType":"struct IAllowanceTransfer.PermitDetails","name":"details","type":"tuple"},{"internalType":"address","name":"spender","type":"address"},{"internalType":"uint256","name":"sigDeadline","type":"uint256"}],"internalType":"struct IAllowanceTransfer.PermitSingle","name":"_permit","type":"tuple"},{"internalType":"bytes","name":"signature","type":"bytes"}],"name":"deposit","outputs":[{"internalType":"uint256","name":"shares","type":"uint256"}],"stateMutability":"nonpayable","type":"function"},{"inputs":[],"name":"exchangeRate","outputs":[{"internalType":"uint256","name":"","type":"uint256"}],"stateMutability":"view","type":"function"},{"inputs":[{"internalType":"address","name":"borrower","type":"address"}],"name":"getAccountLiquidity","outputs":[{"internalType":"uint256","name":"liquidity","type":"uint256"},{"internalType":"uint256","name":"shortfall","type":"uint256"}],"stateMutability":"view","type":"function"},{"inputs":[{"internalType":"address","name":"borrower","type":"address"}],"name":"getDebtRatio","outputs":[{"internalType":"uint256","name":"","type":"uint256"}],"stateMutability":"view","type":"function"},{"inputs":[],"name":"getLPTokenPrice","outputs":[{"internalType":"uint256","name":"price","type":"uint256"}],"stateMutability":"view","type":"function"},{"inputs":[],"name":"getRewards","outputs":[{"internalType":"address[]","name":"tokens","type":"address[]"},{"internalType":"uint256[]","name":"amounts","type":"uint256[]"}],"stateMutability":"nonpayable","type":"function"},{"inputs":[],"name":"hangar18","outputs":[{"internalType":"contract IHangar18","name":"","type":"address"}],"stateMutability":"view","type":"function"},{"inputs":[],"name":"harvester","outputs":[{"internalType":"contract ICygnusHarvester","name":"","type":"address"}],"stateMutability":"view","type":"function"},{"inputs":[{"internalType":"address","name":"spender","type":"address"},{"internalType":"uint256","name":"difference","type":"uint256"}],"name":"increaseAllowance","outputs":[{"internalType":"bool","name":"","type":"bool"}],"stateMutability":"nonpayable","type":"function"},{"inputs":[],"name":"lastReinvest","outputs":[{"internalType":"uint256","name":"","type":"uint256"}],"stateMutability":"view","type":"function"},{"inputs":[],"name":"liquidationFee","outputs":[{"internalType":"uint256","name":"","type":"uint256"}],"stateMutability":"view","type":"function"},{"inputs":[],"name":"liquidationIncentive","outputs":[{"internalType":"uint256","name":"","type":"uint256"}],"stateMutability":"view","type":"function"},{"inputs":[],"name":"name","outputs":[{"internalType":"string","name":"","type":"string"}],"stateMutability":"pure","type":"function"},{"inputs":[{"internalType":"address","name":"owner","type":"address"}],"name":"nonces","outputs":[{"internalType":"uint256","name":"result","type":"uint256"}],"stateMutability":"view","type":"function"},{"inputs":[{"internalType":"address","name":"owner","type":"address"},{"internalType":"address","name":"spender","type":"address"},{"internalType":"uint256","name":"value","type":"uint256"},{"internalType":"uint256","name":"deadline","type":"uint256"},{"internalType":"uint8","name":"v","type":"uint8"},{"internalType":"bytes32","name":"r","type":"bytes32"},{"internalType":"bytes32","name":"s","type":"bytes32"}],"name":"permit","outputs":[],"stateMutability":"nonpayable","type":"function"},{"inputs":[{"internalType":"uint256","name":"shares","type":"uint256"},{"internalType":"address","name":"recipient","type":"address"},{"internalType":"address","name":"owner","type":"address"}],"name":"redeem","outputs":[{"internalType":"uint256","name":"assets","type":"uint256"}],"stateMutability":"nonpayable","type":"function"},{"inputs":[{"internalType":"uint256","name":"liquidity","type":"uint256"}],"name":"reinvestRewards_y7b","outputs":[],"stateMutability":"nonpayable","type":"function"},{"inputs":[],"name":"rewardToken","outputs":[{"internalType":"address","name":"","type":"address"}],"stateMutability":"pure","type":"function"},{"inputs":[],"name":"rewarder","outputs":[{"internalType":"address","name":"","type":"address"}],"stateMutability":"view","type":"function"},{"inputs":[{"internalType":"uint256","name":"newDebtRatio","type":"uint256"}],"name":"setDebtRatio","outputs":[],"stateMutability":"nonpayable","type":"function"},{"inputs":[{"internalType":"contract ICygnusHarvester","name":"_harvester","type":"address"}],"name":"setHarvester","outputs":[],"stateMutability":"nonpayable","type":"function"},{"inputs":[{"internalType":"uint256","name":"newLiquidationFee","type":"uint256"}],"name":"setLiquidationFee","outputs":[],"stateMutability":"nonpayable","type":"function"},{"inputs":[{"internalType":"uint256","name":"newLiquidationIncentive","type":"uint256"}],"name":"setLiquidationIncentive","outputs":[],"stateMutability":"nonpayable","type":"function"},{"inputs":[],"name":"shuttleId","outputs":[{"internalType":"uint256","name":"","type":"uint256"}],"stateMutability":"view","type":"function"},{"inputs":[{"internalType":"address","name":"token","type":"address"}],"name":"sweepToken","outputs":[],"stateMutability":"nonpayable","type":"function"},{"inputs":[],"name":"symbol","outputs":[{"internalType":"string","name":"","type":"string"}],"stateMutability":"view","type":"function"},{"inputs":[],"name":"totalBalance","outputs":[{"internalType":"uint160","name":"","type":"uint160"}],"stateMutability":"view","type":"function"},{"inputs":[],"name":"totalSupply","outputs":[{"internalType":"uint256","name":"result","type":"uint256"}],"stateMutability":"view","type":"function"},{"inputs":[{"internalType":"address","name":"to","type":"address"},{"internalType":"uint256","name":"amount","type":"uint256"}],"name":"transfer","outputs":[{"internalType":"bool","name":"","type":"bool"}],"stateMutability":"nonpayable","type":"function"},{"inputs":[{"internalType":"address","name":"from","type":"address"},{"internalType":"address","name":"to","type":"address"},{"internalType":"uint256","name":"amount","type":"uint256"}],"name":"transferFrom","outputs":[{"internalType":"bool","name":"","type":"bool"}],"stateMutability":"nonpayable","type":"function"},{"inputs":[],"name":"underlying","outputs":[{"internalType":"address","name":"","type":"address"}],"stateMutability":"view","type":"function"}],"evm":{"bytecode":{"linkReferences":{},"object":"610140604081815234620002c1576000805460ff19166001178155635a412e5360e01b80845260a093909290848160048186335af180156200026357839184918591869162000298575b5060e052865260c052608052670d2f13f7789f0000600155670e5d0f042e878000600255805192808452848460048186335af1938415620002635783946200026f575b506101009384528151908152848160048186335af1908115620002635783916200022a575b50815163b9a09fd560e01b81526001600160a01b0391821660048201526020816024817309236cff45047dbee6b921e00704bed6d6b8cf7e5afa9384156200021f578094620001d6575b505061012092168252519161250493846200036f853960805184818161039101526121e60152518381816104570152611d37015260c05183818161078c0152818161092101528181610c1c01528181610e760152818161126001528181611522015281816116be015281816117e20152611d10015260e0518381816107e801526112c601525182818161034d015281816106780152818161134a01528181611a9b0152611e41015251818181610413015281816107ba0152818161086e01528181610df50152818161209e0152818161216201526122a30152f35b909193506020823d821162000216575b81620001f560209383620002c6565b810103126200021357506200020a9062000300565b913880620000fb565b80fd5b3d9150620001e6565b8351903d90823e3d90fd5b6200024f9150853d87116200025b575b620002468183620002c6565b81019062000315565b505050905038620000b1565b503d6200023a565b505051903d90823e3d90fd5b6200028b919450853d87116200025b57620002468183620002c6565b505091505092386200008c565b92505050620002b79150853d87116200025b57620002468183620002c6565b9150903862000049565b600080fd5b601f909101601f19168101906001600160401b03821190821017620002ea57604052565b634e487b7160e01b600052604160045260246000fd5b51906001600160a01b0382168203620002c157565b91908260a0910312620002c15781516001600160a01b03908181168103620002c15792620003466020820162000300565b92620003556040830162000300565b9260608301519081168103620002c1576080909201519056fe6040608081526004908136101561001557600080fd5b600091823560e01c8063031a5c8214611a335780630572b0cc146119a157806306fdde0314611978578063095ea7b31461190e57806315de1daa1461177857806318160ddd146117515780631be195601461167657806323b872dd146115a0578063313ce567146114f55780633644e515146114d857806339509351146114555780633ba0b9a9146114385780634bdaeac11461141157806351303622146113ed5780635ec88c79146112e95780635f77f891146112ae5780636afdd850146112845780636f307dc31461124057806370a082311461120c5780637ecebe00146111d857806381f5b6f41461115a5780638808e71c14610d855780638c765e9414610d6657806395d89b4114610bf7578063a36a363014610bd8578063a457c2d714610b54578063a843108114610ad6578063a9059cbb14610a4b578063ad7a672f14610a22578063b5f3c95b14610a03578063ba08765214610815578063bcbc332014610754578063cc1f8ffa14610722578063cea55f5714610703578063cf8c8c44146105d0578063d505accf1461047b578063d935bd9214610437578063dcc3e06e146103f3578063dd62ed3e146103b5578063e8a24e1d14610371578063e99a6ac71461032d578063eb6a887d146102af578063f7c618c11461027c5763fef0bec81461020557600080fd5b34610278576020366003190112610278578035906102216121c8565b67016345785d8a0000821161026a5750907f87272249f1056ec16a68dd9255101358246dd26a796e2f0bc6b3a0ad02f2de4191600354908060035582519182526020820152a180f35b825163058b4cb360e11b8152fd5b8280fd5b5050346102ab57816003193601126102ab5760209051733c8b650257cfb5f272f799f5e2b4e65093a11a058152f35b5080fd5b5034610278576020366003190112610278578035906102cc6121c8565b670b1a2bc2ec5000008210801561031c575b61026a5750907ff25d2243e4128e51523d8537f04f18c3e6390bbfc6323390a9a8e59b921ce04691600154908060015582519182526020820152a180f35b50670de0b6b3a764000082116102de565b5050346102ab57816003193601126102ab57602090516001600160a01b037f0000000000000000000000000000000000000000000000000000000000000000168152f35b5050346102ab57816003193601126102ab57602090516001600160a01b037f0000000000000000000000000000000000000000000000000000000000000000168152f35b5050346102ab57806003193601126102ab576020916103d2611b43565b906103db611b5e565b8452637f5e9f20600c52526034600c20549051908152f35b5050346102ab57816003193601126102ab57602090516001600160a01b037f0000000000000000000000000000000000000000000000000000000000000000168152f35b5050346102ab57816003193601126102ab57602090516001600160a01b037f0000000000000000000000000000000000000000000000000000000000000000168152f35b5090346102785760e036600319011261027857610496611b43565b9161049f611b5e565b6084359160643560443560ff851685036105cc576104bb61231d565b928651978342116105c0576001600160a01b038091169516956338377508600c52858a5260209485600c20948554956001870190557f6e71edae12b1b97f4d1f60370fef10105fa2faae0126114a169c64845d6126c98b5287878c0152888a8c015260608b019585875260808c015260a08b01526119018b52855260c0892088526042601e208a5260ff16845260a435875260c435606052838060808b60015afa50843d51036105b55750777f5e9f200000000000000000000000000000000000000000851786526034602c20557f8c5be1e5ebec7d5bd14f71427d1e84f3dd0314c0f7b2291e5b200ac8c7c3b9259190a3528060605280f35b63ddafbaef8952601cfd5b50631a15a3cc8952601cfd5b8780fd5b5091346106df57816003193601126106df57506105eb611b43565b6024356001600160a01b038281168061060e578451636e7ac57d60e11b81528690fd5b909192943082146106f557600019841461065a575b60208561065186896387a211a2600c5260005261064c84600c2054610646611cb7565b9061238f565b611eda565b91519115825250f35b602092935060249085519485938492637d6af07960e01b84528301527f0000000000000000000000000000000000000000000000000000000000000000165afa9081156106ea576000916106b5575b50826106516020610623565b906020823d82116106e2575b816106ce60209383611c5c565b810103126106df57505160206106a9565b80fd5b3d91506106c1565b82513d6000823e3d90fd5b845163bf8c13af60e01b8152fd5b5050346102ab57816003193601126102ab576020906001549051908152f35b5050346102ab57806003193601126102ab5760209061074b610742611b43565b60243590611de5565b90519015158152f35b5050346102ab57816003193601126102ab5760607f98ccebae89f16f152c93c6a0cdc0d99913b9e62a9fc612471c21ffc299c389fd917f0000000000000000000000000000000000000000000000000000000000000000906001600160a01b036107e0817f00000000000000000000000000000000000000000000000000000000000000001684611f3d565b8151921682527f000000000000000000000000000000000000000000000000000000000000000060208301523390820152a180f35b509190346102ab5760603660031901126102ab57823591610834611b5e565b9261083d611b74565b936001600160a01b0390818616938433036109bd575b61086461085e611cb7565b8561238f565b9687156109ad57837f000000000000000000000000000000000000000000000000000000000000000016803b1561027857828960248c838c519586948593632e1a7d4d60e01b85528401525af180156109a35790839161098f575b50506387a211a2600c5281526020600c208054988986116109845750846020990390556805345cdf77eb68f44c848154039055838152847fddf252ad1be2c89b69c2b068fc378daa952ba7f163c4a11628f55a4df523b3ef8983a361094586827f0000000000000000000000000000000000000000000000000000000000000000612456565b8451928684528784015216907ffbde797d201c681b91056529119e0b02407c7bb96a4a2c75c01fc9667232c8db843392a461097e61226e565b51908152f35b63f4d678b88352601cfd5b61099890611c16565b6102ab5781386108bf565b88513d85823e3d90fd5b865163e3e8d29760e01b81528990fd5b33602052637f5e9f20600c528681526034600c20805460001981036109e4575b5050610853565b8086116109f757859003905538806109dd565b896313be252b8452601cfd5b5050346102ab57816003193601126102ab576020906005549051908152f35b5050346102ab57816003193601126102ab576001600160a01b036020925460081c169051908152f35b5091346106df57816003193601126106df57610a65611b43565b602435916387a211a2600c5233815260209485600c2090815490818611610acb575084900390555282600c208181540190558252600c5160601c337fddf252ad1be2c89b69c2b068fc378daa952ba7f163c4a11628f55a4df523b3ef8480a35160018152f35b63f4d678b88452601cfd5b503461027857602036600319011261027857803590610af36121c8565b670de0b6b3a764000082108015610b43575b61026a5750907faeba5a6c40a8ac138134bff1aaa65debf25971188a58804bad717f82f0ec131691600254908060025582519182526020820152a180f35b50670ff59ee833b300008211610b05565b5091346106df57816003193601126106df57610b6e611b43565b60243590602052637f5e9f20600c523382526034600c20908154818110610bcc5760209550038091558152602c5160601c907f8c5be1e5ebec7d5bd14f71427d1e84f3dd0314c0f7b2291e5b200ac8c7c3b925843392a35160018152f35b85638301ab388552601cfd5b5050346102ab57816003193601126102ab576020906003549051908152f35b50903461027857826003193601126102785780516395d89b4160e01b815292808484817f00000000000000000000000000000000000000000000000000000000000000006001600160a01b03165afa928315610d5a578193610cb9575b610cb58484610cab6027825180947f4379674c503a20000000000000000000000000000000000000000000000000006020830152610c9b8151809260208686019101611bc7565b8101036007810185520183611c5c565b5191829182611bea565b0390f35b909192503d8083863e610ccc8186611c5c565b8401916020858403126106df57845167ffffffffffffffff9586821161027857019183601f840112156102ab578251958611610d455750835192610d1a601f8701601f191660200185611c5c565b858452602086840101116106df5750610cb593610d3d9160208085019101611bc7565b903880610c54565b604190634e487b7160e01b6000525260246000fd5b509051903d90823e3d90fd5b5050346102ab57816003193601126102ab576020906002549051908152f35b509190346102ab576101203660031901126102ab578235610da4611b5e565b9360c03660431901126111565761010490813567ffffffffffffffff80821161104a573660238301121561104a578183013590811161104a57366024828401011161104a576001600160a01b0393847f00000000000000000000000000000000000000000000000000000000000000001691610e20308461249f565b938161105c575b505050610e338561241f565b6e22d473030f116ddee9f6b43ac78ba390813b15611058578560848a92838b519586948593631b63c28b60e11b8552338c8601523060248601521660448401528a7f00000000000000000000000000000000000000000000000000000000000000001660648401525af1801561104e57908891611036575b5050610edb91610ec8610ecd92610ec188612158565b309061249f565b611dc2565b610ed5611cb7565b906123dc565b948515611027576805345cdf77eb68f44c908154908115610f95575b5050805491868301928310610f895750556387a211a2600c528460005260209485600c20858154019055848652600c5160601c60007fddf252ad1be2c89b69c2b068fc378daa952ba7f163c4a11628f55a4df523b3ef8880a38351928352848684015216907fdcbc1c05240f31ff3ad067ef1ee35ce4997762752e3a095284754544f4c709d7833392a361097e61226e565b63e5cfe957600052601cfd5b90966103e7198101919082116110145750956103e8908181019081106110075782556387a211a2600c5261dead6000526020600c20818154019055602052600c5160601c60007fddf252ad1be2c89b69c2b068fc378daa952ba7f163c4a11628f55a4df523b3ef602080a33880610ef7565b8363e5cfe957600052601cfd5b634e487b7160e01b815260118452602490fd5b50835163f1ca48b160e01b8152fd5b61103f90611c16565b61104a578638610eab565b8680fd5b87513d8a823e3d90fd5b8880fd5b6e22d473030f116ddee9f6b43ac78ba391823b156111525789516302b67b5760e41b81523388820152938861108f611b74565b16602486015260643589811680910361114a57604486015260843565ffffffffffff9081811680910361114e57606487015260a43590811680910361114a57608486015260c43589811680910361114a57859384848f97958295899560a485015260e43560c485015261010060e48501528301528060246101249401848401378181018301849052601f01601f191681010301925af1801561104e57611137575b8080610e27565b61114390979197611c16565b9538611130565b8c80fd5b8d80fd5b8a80fd5b8380fd5b509034610278576020366003190112610278578135916001600160a01b0381541633036111ca57507fc63644116f6ef474fe595238489f3d0d31a12c55be3a748d72269a62882b04c9906111ad83612158565b4260055580519283524260208401523392a26111c761226e565b80f35b9051639f91a89160e01b8152fd5b5050346102ab5760203660031901126102ab576020916111f6611b43565b906338377508600c525281600c20549051908152f35b5050346102ab5760203660031901126102ab5760209161122a611b43565b906387a211a2600c525281600c20549051908152f35b5050346102ab57816003193601126102ab57602090516001600160a01b037f0000000000000000000000000000000000000000000000000000000000000000168152f35b5050346102ab57816003193601126102ab57602090516e22d473030f116ddee9f6b43ac78ba38152f35b5050346102ab57816003193601126102ab57602090517f00000000000000000000000000000000000000000000000000000000000000008152f35b5091346106df57602090816003193601126106df57611306611b43565b6001600160a01b039080821680611327578551636e7ac57d60e11b81528790fd5b863082146113df57906024869288519586938492637d6af07960e01b84528301527f0000000000000000000000000000000000000000000000000000000000000000165afa9182156113d55783926113a4575b50611398926387a211a2600c525261064c83600c2054610646611cb7565b90918351928352820152f35b9091508381813d83116113ce575b6113bc8183611c5c565b8101031261027857519061139861137a565b503d6113b2565b85513d85823e3d90fd5b865163bf8c13af60e01b8152fd5b5050346102ab57816003193601126102ab5760209061140a611cf1565b9051908152f35b5091346106df57806003193601126106df57506001600160a01b0360209254169051908152f35b5050346102ab57816003193601126102ab5760209061140a611cb7565b5091346106df57816003193601126106df5761146f611b43565b602052637f5e9f20600c523381526034600c209283549060243582019182106114cd575080602094558152602c5160601c907f8c5be1e5ebec7d5bd14f71427d1e84f3dd0314c0f7b2291e5b200ac8c7c3b925843392a35160018152f35b63f90670668352601cfd5b5050346102ab57816003193601126102ab5760209061140a61231d565b5091346106df57806003193601126106df5760208251809463313ce56760e01b8252816001600160a01b037f0000000000000000000000000000000000000000000000000000000000000000165afa928315610d5a57819361155f575b60208460ff855191168152f35b9092506020813d8211611598575b8161157a60209383611c5c565b8101031261027857519160ff831683036106df575060ff6020611552565b3d915061156d565b509190346102ab5760603660031901126102ab576115bc611b43565b6115c4611b5e565b6044358260601b91602095338752600c93637f5e9f20811785526034852080546000198103611653575b50506387a211a21784528684208054988985116109845750836001600160a01b03969798990390555285822081815401905585525160601c91167fddf252ad1be2c89b69c2b068fc378daa952ba7f163c4a11628f55a4df523b3ef8480a35160018152f35b80861161166a5785900390556387a211a2386115ee565b8a6313be252b8552601cfd5b509190346102ab5760203660031901126102ab57611692611b43565b9082549160ff8316156117415760ff1992831684556116af6121c8565b6001600160a01b0391828216927f00000000000000000000000000000000000000000000000000000000000000001683146117325760019495506116ff6116f6308461249f565b80933390612456565b519081527f6d25be279134f4ecaa4770aff0c3d916d9e7c5ef37b65ed95dbdba411f5d54d560203392a382541617815580f35b5163b5d8f39160e01b81528590fd5b81516306fda65d60e31b81528590fd5b5050346102ab57816003193601126102ab576020906805345cdf77eb68f44c549051908152f35b508290346102ab5760209283600319360112610278578135906001600160a01b039081831680930361190a576117ac6121c8565b835495837fffffffffffffffffffffffff000000000000000000000000000000000000000088161785556117de61203c565b50917f00000000000000000000000000000000000000000000000000000000000000008416875b84518110156118d657818661181a8388612028565b511603611846575b600019811461183357600101611805565b634e487b7160e01b895260118852602489fd5b856118518287612028565b511684878a541660448b87519485938492636eb1769f60e11b8452309084015260248301525afa80156118cc579085916118a3575b505061189e87876118978489612028565b5116611f3d565b611822565b813d83116118c5575b6118b68183611c5c565b8101031261105857838b611886565b503d6118ac565b84513d8c823e3d90fd5b887f6a97a9e954ae4ef4c8ecc6c7dd8a1cbe668254132294ceb515db9a2e4faad7f5848c8a888b845193168352820152a180f35b8480fd5b5050346102ab57806003193601126102ab5760209161192b611b43565b602435908452637f5e9f20600c52338252806034600c20558152602c5160601c907f8c5be1e5ebec7d5bd14f71427d1e84f3dd0314c0f7b2291e5b200ac8c7c3b925843392a35160018152f35b5050346102ab57816003193601126102ab57610cb590611996611c7e565b905191829182611bea565b5091346106df57806003193601126106df5780549260ff841615611a25575060ff1992831681556119ef92906119d561203c565b949060018094845416178355845194808652850190611b8a565b6020848203818601528080875193848152019601925b828110611a125785870386f35b8351875295810195928101928401611a05565b82516306fda65d60e31b8152fd5b5091346106df57602092836003193601126102ab57611a50611b43565b6387a211a2600c5280835284611a77611a6f82600c2054610646611cb7565b610646611cf1565b926024865180948193637d6af07960e01b83526001600160a01b03809216908301527f0000000000000000000000000000000000000000000000000000000000000000165afa8015611b39578390611b0a575b611ae49150611ade60025460035490611ecd565b906123ba565b9080611af35750509051908152f35b600154611b049350610ed59161238f565b9061097e565b508481813d8311611b32575b611b208183611c5c565b8101031261027857611ae49051611aca565b503d611b16565b84513d85823e3d90fd5b600435906001600160a01b0382168203611b5957565b600080fd5b602435906001600160a01b0382168203611b5957565b604435906001600160a01b0382168203611b5957565b90815180825260208080930193019160005b828110611baa575050505090565b83516001600160a01b031685529381019392810192600101611b9c565b60005b838110611bda5750506000910152565b8181015183820152602001611bca565b60409160208252611c0a8151809281602086015260208686019101611bc7565b601f01601f1916010190565b67ffffffffffffffff8111611c2a57604052565b634e487b7160e01b600052604160045260246000fd5b6040810190811067ffffffffffffffff821117611c2a57604052565b90601f8019910116810190811067ffffffffffffffff821117611c2a57604052565b60405190611c8b82611c40565b601282527f4379676e75733a20436f6c6c61746572616c00000000000000000000000000006020830152565b6805345cdf77eb68f44c5460009080611cd8575050670de0b6b3a764000090565b6001600160a01b03611cee925460081c166123dc565b90565b604051906317e5a1a160e01b82526020826024816001600160a01b03807f00000000000000000000000000000000000000000000000000000000000000001660048301527f0000000000000000000000000000000000000000000000000000000000000000165afa918215611db657600092611d83575b508115611d7157565b60405163586ad3b960e11b8152600490fd5b90916020823d8211611dae575b81611d9d60209383611c5c565b810103126106df5750519038611d68565b3d9150611d90565b6040513d6000823e3d90fd5b91908203918211611dcf57565b634e487b7160e01b600052601160045260246000fd5b9190916387a211a2600c526000928184526020600c2054808211611ec857611e1d611e1560249493602093611dc2565b610646611cb7565b9160405193848092637d6af07960e01b82526001600160a01b0380911660048301527f0000000000000000000000000000000000000000000000000000000000000000165afa918215611ebd578492611e83575b50611e7d929350611eda565b90501590565b9091506020813d8211611eb5575b81611e9e60209383611c5c565b8101031261115657611e7d92935051908392611e71565b3d9150611e91565b6040513d86823e3d90fd5b505050565b91908201809211611dcf57565b611ee9611ef291610646611cf1565b6001549061238f565b908015611f2357611f0c90611ade60025460035490611ecd565b90818110611f1b570390600090565b600092910390565b50611f3790610ed560025460035490611ecd565b90600090565b9060405191636eb1769f60e11b83523060048401526020836044816001600160a01b03808716602483015285165afa928315611db657600093611fd2575b5060001980931015611ec8576010600060449260209582956014526034526f095ea7b300000000000000000000000082525af13d15600160005114171615611fc4576000603452565b633e3f8f736000526004601cfd5b90926020823d8211611ffd575b81611fec60209383611c5c565b810103126106df5750519138611f7b565b3d9150611fdf565b8051156120125760200190565b634e487b7160e01b600052603260045260246000fd5b80518210156120125760209160051b010190565b60006040519161204b83611c40565b6001835260209283368183013780936040519161206783611c40565b600183528136818501378294733c8b650257cfb5f272f799f5e2b4e65093a11a05918261209382612005565b526001600160a01b037f00000000000000000000000000000000000000000000000000000000000000001690813b15610278576120f7839283926040519485809481936331279d3d60e01b8352306004840152604060248401526044830190611b8a565b03925af1801561214d57601085946f70a08231000000000000000000000000869561213b989560249561213e575b5030601452525afa601f3d111690510291612005565b52565b61214790611c16565b38612125565b6040513d84823e3d90fd5b6001600160a01b037f00000000000000000000000000000000000000000000000000000000000000001690813b15611b5957600091604483926040519485938492631c57762b60e31b845260048401528160248401525af18015611db6576121bd5750565b6121c690611c16565b565b6040516303e1469160e61b81526001600160a01b03906020816004817f000000000000000000000000000000000000000000000000000000000000000086165afa908115611db657600091612234575b5016330361222257565b6040516331d63ad160e11b8152600490fd5b6020813d8211612266575b8161224c60209383611c5c565b810103126102ab57519082821682036106df575038612218565b3d915061223f565b7f3145c2b643834867f2c0a8cac8a48218307687911615c0ed01412a09dd163b6660206001600160a01b036122cd6122c830837f00000000000000000000000000000000000000000000000000000000000000001661249f565b61241f565b906000547fffffffffffffffffffffff0000000000000000000000000000000000000000ff74ffffffffffffffffffffffffffffffffffffffff008460081b1691161760005560405191168152a1565b60a060405161232a611c7e565b602081519101207f8b73c3c69bb8fe3d512ecc4cf759cc79239f7b179b0ffacaa9a75d522b39400f825260208201527fc89efdaa54c0f20c7adf612882df0950f5a951637e0307cdcb4c672f298b8bc660408201524660608201523060808201522090565b908060001904821181026123ac57670de0b6b3a764000091020490565b63bac65e5b6000526004601cfd5b8160001904811182026123ac5702670de0b6b3a7640000808204910615150190565b670de0b6b3a7640000907812725dd1d243aba0e75fe645cc4873f9e65afe688c928e1f21811182021583021561241157020490565b637c5f487d6000526004601cfd5b74010000000000000000000000000000000000000000811015612448576001600160a01b031690565b6335278d126000526004601cfd5b60109260209260145260345260446000938480936fa9059cbb00000000000000000000000082525af13d15600183511417161561249257603452565b6390b8ec1890526004601cfd5b602460106020939284936014526f70a082310000000000000000000000006000525afa601f3d1116602051029056fea264697066735822122060e305c2a41f5ae168e4f86c3d11a86571cb9013215fa70a8e26f5c43c71dd8a64736f6c63430008110033","opcodes":"PUSH2 0x140 PUSH1 0x40 DUP2 DUP2 MSTORE CALLVALUE PUSH3 0x2C1 JUMPI PUSH1 0x0 DUP1 SLOAD PUSH1 0xFF NOT AND PUSH1 0x1 OR DUP2 SSTORE PUSH4 0x5A412E53 PUSH1 0xE0 SHL DUP1 DUP5 MSTORE PUSH1 0xA0 SWAP4 SWAP1 SWAP3 SWAP1 DUP5 DUP2 PUSH1 0x4 DUP2 DUP7 CALLER GAS CALL DUP1 ISZERO PUSH3 0x263 JUMPI DUP4 SWAP2 DUP5 SWAP2 DUP6 SWAP2 DUP7 SWAP2 PUSH3 0x298 JUMPI JUMPDEST POP PUSH1 0xE0 MSTORE DUP7 MSTORE PUSH1 0xC0 MSTORE PUSH1 0x80 MSTORE PUSH8 0xD2F13F7789F0000 PUSH1 0x1 SSTORE PUSH8 0xE5D0F042E878000 PUSH1 0x2 SSTORE DUP1 MLOAD SWAP3 DUP1 DUP5 MSTORE DUP5 DUP5 PUSH1 0x4 DUP2 DUP7 CALLER GAS CALL SWAP4 DUP5 ISZERO PUSH3 0x263 JUMPI DUP4 SWAP5 PUSH3 0x26F JUMPI JUMPDEST POP PUSH2 0x100 SWAP4 DUP5 MSTORE DUP2 MLOAD SWAP1 DUP2 MSTORE DUP5 DUP2 PUSH1 0x4 DUP2 DUP7 CALLER GAS CALL SWAP1 DUP2 ISZERO PUSH3 0x263 JUMPI DUP4 SWAP2 PUSH3 0x22A JUMPI JUMPDEST POP DUP2 MLOAD PUSH4 0xB9A09FD5 PUSH1 0xE0 SHL DUP2 MSTORE PUSH1 0x1 PUSH1 0x1 PUSH1 0xA0 SHL SUB SWAP2 DUP3 AND PUSH1 0x4 DUP3 ADD MSTORE PUSH1 0x20 DUP2 PUSH1 0x24 DUP2 PUSH20 0x9236CFF45047DBEE6B921E00704BED6D6B8CF7E GAS STATICCALL SWAP4 DUP5 ISZERO PUSH3 0x21F JUMPI DUP1 SWAP5 PUSH3 0x1D6 JUMPI JUMPDEST POP POP PUSH2 0x120 SWAP3 AND DUP3 MSTORE MLOAD SWAP2 PUSH2 0x2504 SWAP4 DUP5 PUSH3 0x36F DUP6 CODECOPY PUSH1 0x80 MLOAD DUP5 DUP2 DUP2 PUSH2 0x391 ADD MSTORE PUSH2 0x21E6 ADD MSTORE MLOAD DUP4 DUP2 DUP2 PUSH2 0x457 ADD MSTORE PUSH2 0x1D37 ADD MSTORE PUSH1 0xC0 MLOAD DUP4 DUP2 DUP2 PUSH2 0x78C ADD MSTORE DUP2 DUP2 PUSH2 0x921 ADD MSTORE DUP2 DUP2 PUSH2 0xC1C ADD MSTORE DUP2 DUP2 PUSH2 0xE76 ADD MSTORE DUP2 DUP2 PUSH2 0x1260 ADD MSTORE DUP2 DUP2 PUSH2 0x1522 ADD MSTORE DUP2 DUP2 PUSH2 0x16BE ADD MSTORE DUP2 DUP2 PUSH2 0x17E2 ADD MSTORE PUSH2 0x1D10 ADD MSTORE PUSH1 0xE0 MLOAD DUP4 DUP2 DUP2 PUSH2 0x7E8 ADD MSTORE PUSH2 0x12C6 ADD MSTORE MLOAD DUP3 DUP2 DUP2 PUSH2 0x34D ADD MSTORE DUP2 DUP2 PUSH2 0x678 ADD MSTORE DUP2 DUP2 PUSH2 0x134A ADD MSTORE DUP2 DUP2 PUSH2 0x1A9B ADD MSTORE PUSH2 0x1E41 ADD MSTORE MLOAD DUP2 DUP2 DUP2 PUSH2 0x413 ADD MSTORE DUP2 DUP2 PUSH2 0x7BA ADD MSTORE DUP2 DUP2 PUSH2 0x86E ADD MSTORE DUP2 DUP2 PUSH2 0xDF5 ADD MSTORE DUP2 DUP2 PUSH2 0x209E ADD MSTORE DUP2 DUP2 PUSH2 0x2162 ADD MSTORE PUSH2 0x22A3 ADD MSTORE RETURN JUMPDEST SWAP1 SWAP2 SWAP4 POP PUSH1 0x20 DUP3 RETURNDATASIZE DUP3 GT PUSH3 0x216 JUMPI JUMPDEST DUP2 PUSH3 0x1F5 PUSH1 0x20 SWAP4 DUP4 PUSH3 0x2C6 JUMP JUMPDEST DUP2 ADD SUB SLT PUSH3 0x213 JUMPI POP PUSH3 0x20A SWAP1 PUSH3 0x300 JUMP JUMPDEST SWAP2 CODESIZE DUP1 PUSH3 0xFB JUMP JUMPDEST DUP1 REVERT JUMPDEST RETURNDATASIZE SWAP2 POP PUSH3 0x1E6 JUMP JUMPDEST DUP4 MLOAD SWAP1 RETURNDATASIZE SWAP1 DUP3 RETURNDATACOPY RETURNDATASIZE SWAP1 REVERT JUMPDEST PUSH3 0x24F SWAP2 POP DUP6 RETURNDATASIZE DUP8 GT PUSH3 0x25B JUMPI JUMPDEST PUSH3 0x246 DUP2 DUP4 PUSH3 0x2C6 JUMP JUMPDEST DUP2 ADD SWAP1 PUSH3 0x315 JUMP JUMPDEST POP POP POP SWAP1 POP CODESIZE PUSH3 0xB1 JUMP JUMPDEST POP RETURNDATASIZE PUSH3 0x23A JUMP JUMPDEST POP POP MLOAD SWAP1 RETURNDATASIZE SWAP1 DUP3 RETURNDATACOPY RETURNDATASIZE SWAP1 REVERT JUMPDEST PUSH3 0x28B SWAP2 SWAP5 POP DUP6 RETURNDATASIZE DUP8 GT PUSH3 0x25B JUMPI PUSH3 0x246 DUP2 DUP4 PUSH3 0x2C6 JUMP JUMPDEST POP POP SWAP2 POP POP SWAP3 CODESIZE PUSH3 0x8C JUMP JUMPDEST SWAP3 POP POP POP PUSH3 0x2B7 SWAP2 POP DUP6 RETURNDATASIZE DUP8 GT PUSH3 0x25B JUMPI PUSH3 0x246 DUP2 DUP4 PUSH3 0x2C6 JUMP JUMPDEST SWAP2 POP SWAP1 CODESIZE PUSH3 0x49 JUMP JUMPDEST PUSH1 0x0 DUP1 REVERT JUMPDEST PUSH1 0x1F SWAP1 SWAP2 ADD PUSH1 0x1F NOT AND DUP2 ADD SWAP1 PUSH1 0x1 PUSH1 0x1 PUSH1 0x40 SHL SUB DUP3 GT SWAP1 DUP3 LT OR PUSH3 0x2EA JUMPI PUSH1 0x40 MSTORE JUMP JUMPDEST PUSH4 0x4E487B71 PUSH1 0xE0 SHL PUSH1 0x0 MSTORE PUSH1 0x41 PUSH1 0x4 MSTORE PUSH1 0x24 PUSH1 0x0 REVERT JUMPDEST MLOAD SWAP1 PUSH1 0x1 PUSH1 0x1 PUSH1 0xA0 SHL SUB DUP3 AND DUP3 SUB PUSH3 0x2C1 JUMPI JUMP JUMPDEST SWAP2 SWAP1 DUP3 PUSH1 0xA0 SWAP2 SUB SLT PUSH3 0x2C1 JUMPI DUP2 MLOAD PUSH1 0x1 PUSH1 0x1 PUSH1 0xA0 SHL SUB SWAP1 DUP2 DUP2 AND DUP2 SUB PUSH3 0x2C1 JUMPI SWAP3 PUSH3 0x346 PUSH1 0x20 DUP3 ADD PUSH3 0x300 JUMP JUMPDEST SWAP3 PUSH3 0x355 PUSH1 0x40 DUP4 ADD PUSH3 0x300 JUMP JUMPDEST SWAP3 PUSH1 0x60 DUP4 ADD MLOAD SWAP1 DUP2 AND DUP2 SUB PUSH3 0x2C1 JUMPI PUSH1 0x80 SWAP1 SWAP3 ADD MLOAD SWAP1 JUMP INVALID PUSH1 0x40 PUSH1 0x80 DUP2 MSTORE PUSH1 0x4 SWAP1 DUP2 CALLDATASIZE LT ISZERO PUSH2 0x15 JUMPI PUSH1 0x0 DUP1 REVERT JUMPDEST PUSH1 0x0 SWAP2 DUP3 CALLDATALOAD PUSH1 0xE0 SHR DUP1 PUSH4 0x31A5C82 EQ PUSH2 0x1A33 JUMPI DUP1 PUSH4 0x572B0CC EQ PUSH2 0x19A1 JUMPI DUP1 PUSH4 0x6FDDE03 EQ PUSH2 0x1978 JUMPI DUP1 PUSH4 0x95EA7B3 EQ PUSH2 0x190E JUMPI DUP1 PUSH4 0x15DE1DAA EQ PUSH2 0x1778 JUMPI DUP1 PUSH4 0x18160DDD EQ PUSH2 0x1751 JUMPI DUP1 PUSH4 0x1BE19560 EQ PUSH2 0x1676 JUMPI DUP1 PUSH4 0x23B872DD EQ PUSH2 0x15A0 JUMPI DUP1 PUSH4 0x313CE567 EQ PUSH2 0x14F5 JUMPI DUP1 PUSH4 0x3644E515 EQ PUSH2 0x14D8 JUMPI DUP1 PUSH4 0x39509351 EQ PUSH2 0x1455 JUMPI DUP1 PUSH4 0x3BA0B9A9 EQ PUSH2 0x1438 JUMPI DUP1 PUSH4 0x4BDAEAC1 EQ PUSH2 0x1411 JUMPI DUP1 PUSH4 0x51303622 EQ PUSH2 0x13ED JUMPI DUP1 PUSH4 0x5EC88C79 EQ PUSH2 0x12E9 JUMPI DUP1 PUSH4 0x5F77F891 EQ PUSH2 0x12AE JUMPI DUP1 PUSH4 0x6AFDD850 EQ PUSH2 0x1284 JUMPI DUP1 PUSH4 0x6F307DC3 EQ PUSH2 0x1240 JUMPI DUP1 PUSH4 0x70A08231 EQ PUSH2 0x120C JUMPI DUP1 PUSH4 0x7ECEBE00 EQ PUSH2 0x11D8 JUMPI DUP1 PUSH4 0x81F5B6F4 EQ PUSH2 0x115A JUMPI DUP1 PUSH4 0x8808E71C EQ PUSH2 0xD85 JUMPI DUP1 PUSH4 0x8C765E94 EQ PUSH2 0xD66 JUMPI DUP1 PUSH4 0x95D89B41 EQ PUSH2 0xBF7 JUMPI DUP1 PUSH4 0xA36A3630 EQ PUSH2 0xBD8 JUMPI DUP1 PUSH4 0xA457C2D7 EQ PUSH2 0xB54 JUMPI DUP1 PUSH4 0xA8431081 EQ PUSH2 0xAD6 JUMPI DUP1 PUSH4 0xA9059CBB EQ PUSH2 0xA4B JUMPI DUP1 PUSH4 0xAD7A672F EQ PUSH2 0xA22 JUMPI DUP1 PUSH4 0xB5F3C95B EQ PUSH2 0xA03 JUMPI DUP1 PUSH4 0xBA087652 EQ PUSH2 0x815 JUMPI DUP1 PUSH4 0xBCBC3320 EQ PUSH2 0x754 JUMPI DUP1 PUSH4 0xCC1F8FFA EQ PUSH2 0x722 JUMPI DUP1 PUSH4 0xCEA55F57 EQ PUSH2 0x703 JUMPI DUP1 PUSH4 0xCF8C8C44 EQ PUSH2 0x5D0 JUMPI DUP1 PUSH4 0xD505ACCF EQ PUSH2 0x47B JUMPI DUP1 PUSH4 0xD935BD92 EQ PUSH2 0x437 JUMPI DUP1 PUSH4 0xDCC3E06E EQ PUSH2 0x3F3 JUMPI DUP1 PUSH4 0xDD62ED3E EQ PUSH2 0x3B5 JUMPI DUP1 PUSH4 0xE8A24E1D EQ PUSH2 0x371 JUMPI DUP1 PUSH4 0xE99A6AC7 EQ PUSH2 0x32D JUMPI DUP1 PUSH4 0xEB6A887D EQ PUSH2 0x2AF JUMPI DUP1 PUSH4 0xF7C618C1 EQ PUSH2 0x27C JUMPI PUSH4 0xFEF0BEC8 EQ PUSH2 0x205 JUMPI PUSH1 0x0 DUP1 REVERT JUMPDEST CALLVALUE PUSH2 0x278 JUMPI PUSH1 0x20 CALLDATASIZE PUSH1 0x3 NOT ADD SLT PUSH2 0x278 JUMPI DUP1 CALLDATALOAD SWAP1 PUSH2 0x221 PUSH2 0x21C8 JUMP JUMPDEST PUSH8 0x16345785D8A0000 DUP3 GT PUSH2 0x26A JUMPI POP SWAP1 PUSH32 0x87272249F1056EC16A68DD9255101358246DD26A796E2F0BC6B3A0AD02F2DE41 SWAP2 PUSH1 0x3 SLOAD SWAP1 DUP1 PUSH1 0x3 SSTORE DUP3 MLOAD SWAP2 DUP3 MSTORE PUSH1 0x20 DUP3 ADD MSTORE LOG1 DUP1 RETURN JUMPDEST DUP3 MLOAD PUSH4 0x58B4CB3 PUSH1 0xE1 SHL DUP2 MSTORE REVERT JUMPDEST DUP3 DUP1 REVERT JUMPDEST POP POP CALLVALUE PUSH2 0x2AB JUMPI DUP2 PUSH1 0x3 NOT CALLDATASIZE ADD SLT PUSH2 0x2AB JUMPI PUSH1 0x20 SWAP1 MLOAD PUSH20 0x3C8B650257CFB5F272F799F5E2B4E65093A11A05 DUP2 MSTORE RETURN JUMPDEST POP DUP1 REVERT JUMPDEST POP CALLVALUE PUSH2 0x278 JUMPI PUSH1 0x20 CALLDATASIZE PUSH1 0x3 NOT ADD SLT PUSH2 0x278 JUMPI DUP1 CALLDATALOAD SWAP1 PUSH2 0x2CC PUSH2 0x21C8 JUMP JUMPDEST PUSH8 0xB1A2BC2EC500000 DUP3 LT DUP1 ISZERO PUSH2 0x31C JUMPI JUMPDEST PUSH2 0x26A JUMPI POP SWAP1 PUSH32 0xF25D2243E4128E51523D8537F04F18C3E6390BBFC6323390A9A8E59B921CE046 SWAP2 PUSH1 0x1 SLOAD SWAP1 DUP1 PUSH1 0x1 SSTORE DUP3 MLOAD SWAP2 DUP3 MSTORE PUSH1 0x20 DUP3 ADD MSTORE LOG1 DUP1 RETURN JUMPDEST POP PUSH8 0xDE0B6B3A7640000 DUP3 GT PUSH2 0x2DE JUMP JUMPDEST POP POP CALLVALUE PUSH2 0x2AB JUMPI DUP2 PUSH1 0x3 NOT CALLDATASIZE ADD SLT PUSH2 0x2AB JUMPI PUSH1 0x20 SWAP1 MLOAD PUSH1 0x1 PUSH1 0x1 PUSH1 0xA0 SHL SUB PUSH32 0x0 AND DUP2 MSTORE RETURN JUMPDEST POP POP CALLVALUE PUSH2 0x2AB JUMPI DUP2 PUSH1 0x3 NOT CALLDATASIZE ADD SLT PUSH2 0x2AB JUMPI PUSH1 0x20 SWAP1 MLOAD PUSH1 0x1 PUSH1 0x1 PUSH1 0xA0 SHL SUB PUSH32 0x0 AND DUP2 MSTORE RETURN JUMPDEST POP POP CALLVALUE PUSH2 0x2AB JUMPI DUP1 PUSH1 0x3 NOT CALLDATASIZE ADD SLT PUSH2 0x2AB JUMPI PUSH1 0x20 SWAP2 PUSH2 0x3D2 PUSH2 0x1B43 JUMP JUMPDEST SWAP1 PUSH2 0x3DB PUSH2 0x1B5E JUMP JUMPDEST DUP5 MSTORE PUSH4 0x7F5E9F20 PUSH1 0xC MSTORE MSTORE PUSH1 0x34 PUSH1 0xC KECCAK256 SLOAD SWAP1 MLOAD SWAP1 DUP2 MSTORE RETURN JUMPDEST POP POP CALLVALUE PUSH2 0x2AB JUMPI DUP2 PUSH1 0x3 NOT CALLDATASIZE ADD SLT PUSH2 0x2AB JUMPI PUSH1 0x20 SWAP1 MLOAD PUSH1 0x1 PUSH1 0x1 PUSH1 0xA0 SHL SUB PUSH32 0x0 AND DUP2 MSTORE RETURN JUMPDEST POP POP CALLVALUE PUSH2 0x2AB JUMPI DUP2 PUSH1 0x3 NOT CALLDATASIZE ADD SLT PUSH2 0x2AB JUMPI PUSH1 0x20 SWAP1 MLOAD PUSH1 0x1 PUSH1 0x1 PUSH1 0xA0 SHL SUB PUSH32 0x0 AND DUP2 MSTORE RETURN JUMPDEST POP SWAP1 CALLVALUE PUSH2 0x278 JUMPI PUSH1 0xE0 CALLDATASIZE PUSH1 0x3 NOT ADD SLT PUSH2 0x278 JUMPI PUSH2 0x496 PUSH2 0x1B43 JUMP JUMPDEST SWAP2 PUSH2 0x49F PUSH2 0x1B5E JUMP JUMPDEST PUSH1 0x84 CALLDATALOAD SWAP2 PUSH1 0x64 CALLDATALOAD PUSH1 0x44 CALLDATALOAD PUSH1 0xFF DUP6 AND DUP6 SUB PUSH2 0x5CC JUMPI PUSH2 0x4BB PUSH2 0x231D JUMP JUMPDEST SWAP3 DUP7 MLOAD SWAP8 DUP4 TIMESTAMP GT PUSH2 0x5C0 JUMPI PUSH1 0x1 PUSH1 0x1 PUSH1 0xA0 SHL SUB DUP1 SWAP2 AND SWAP6 AND SWAP6 PUSH4 0x38377508 PUSH1 0xC MSTORE DUP6 DUP11 MSTORE PUSH1 0x20 SWAP5 DUP6 PUSH1 0xC KECCAK256 SWAP5 DUP6 SLOAD SWAP6 PUSH1 0x1 DUP8 ADD SWAP1 SSTORE PUSH32 0x6E71EDAE12B1B97F4D1F60370FEF10105FA2FAAE0126114A169C64845D6126C9 DUP12 MSTORE DUP8 DUP8 DUP13 ADD MSTORE DUP9 DUP11 DUP13 ADD MSTORE PUSH1 0x60 DUP12 ADD SWAP6 DUP6 DUP8 MSTORE PUSH1 0x80 DUP13 ADD MSTORE PUSH1 0xA0 DUP12 ADD MSTORE PUSH2 0x1901 DUP12 MSTORE DUP6 MSTORE PUSH1 0xC0 DUP10 KECCAK256 DUP9 MSTORE PUSH1 0x42 PUSH1 0x1E KECCAK256 DUP11 MSTORE PUSH1 0xFF AND DUP5 MSTORE PUSH1 0xA4 CALLDATALOAD DUP8 MSTORE PUSH1 0xC4 CALLDATALOAD PUSH1 0x60 MSTORE DUP4 DUP1 PUSH1 0x80 DUP12 PUSH1 0x1 GAS STATICCALL POP DUP5 RETURNDATASIZE MLOAD SUB PUSH2 0x5B5 JUMPI POP PUSH24 0x7F5E9F200000000000000000000000000000000000000000 DUP6 OR DUP7 MSTORE PUSH1 0x34 PUSH1 0x2C KECCAK256 SSTORE PUSH32 0x8C5BE1E5EBEC7D5BD14F71427D1E84F3DD0314C0F7B2291E5B200AC8C7C3B925 SWAP2 SWAP1 LOG3 MSTORE DUP1 PUSH1 0x60 MSTORE DUP1 RETURN JUMPDEST PUSH4 0xDDAFBAEF DUP10 MSTORE PUSH1 0x1C REVERT JUMPDEST POP PUSH4 0x1A15A3CC DUP10 MSTORE PUSH1 0x1C REVERT JUMPDEST DUP8 DUP1 REVERT JUMPDEST POP SWAP2 CALLVALUE PUSH2 0x6DF JUMPI DUP2 PUSH1 0x3 NOT CALLDATASIZE ADD SLT PUSH2 0x6DF JUMPI POP PUSH2 0x5EB PUSH2 0x1B43 JUMP JUMPDEST PUSH1 0x24 CALLDATALOAD PUSH1 0x1 PUSH1 0x1 PUSH1 0xA0 SHL SUB DUP3 DUP2 AND DUP1 PUSH2 0x60E JUMPI DUP5 MLOAD PUSH4 0x6E7AC57D PUSH1 0xE1 SHL DUP2 MSTORE DUP7 SWAP1 REVERT JUMPDEST SWAP1 SWAP2 SWAP3 SWAP5 ADDRESS DUP3 EQ PUSH2 0x6F5 JUMPI PUSH1 0x0 NOT DUP5 EQ PUSH2 0x65A JUMPI JUMPDEST PUSH1 0x20 DUP6 PUSH2 0x651 DUP7 DUP10 PUSH4 0x87A211A2 PUSH1 0xC MSTORE PUSH1 0x0 MSTORE PUSH2 0x64C DUP5 PUSH1 0xC KECCAK256 SLOAD PUSH2 0x646 PUSH2 0x1CB7 JUMP JUMPDEST SWAP1 PUSH2 0x238F JUMP JUMPDEST PUSH2 0x1EDA JUMP JUMPDEST SWAP2 MLOAD SWAP2 ISZERO DUP3 MSTORE POP RETURN JUMPDEST PUSH1 0x20 SWAP3 SWAP4 POP PUSH1 0x24 SWAP1 DUP6 MLOAD SWAP5 DUP6 SWAP4 DUP5 SWAP3 PUSH4 0x7D6AF079 PUSH1 0xE0 SHL DUP5 MSTORE DUP4 ADD MSTORE PUSH32 0x0 AND GAS STATICCALL SWAP1 DUP2 ISZERO PUSH2 0x6EA JUMPI PUSH1 0x0 SWAP2 PUSH2 0x6B5 JUMPI JUMPDEST POP DUP3 PUSH2 0x651 PUSH1 0x20 PUSH2 0x623 JUMP JUMPDEST SWAP1 PUSH1 0x20 DUP3 RETURNDATASIZE DUP3 GT PUSH2 0x6E2 JUMPI JUMPDEST DUP2 PUSH2 0x6CE PUSH1 0x20 SWAP4 DUP4 PUSH2 0x1C5C JUMP JUMPDEST DUP2 ADD SUB SLT PUSH2 0x6DF JUMPI POP MLOAD PUSH1 0x20 PUSH2 0x6A9 JUMP JUMPDEST DUP1 REVERT JUMPDEST RETURNDATASIZE SWAP2 POP PUSH2 0x6C1 JUMP JUMPDEST DUP3 MLOAD RETURNDATASIZE PUSH1 0x0 DUP3 RETURNDATACOPY RETURNDATASIZE SWAP1 REVERT JUMPDEST DUP5 MLOAD PUSH4 0xBF8C13AF PUSH1 0xE0 SHL DUP2 MSTORE REVERT JUMPDEST POP POP CALLVALUE PUSH2 0x2AB JUMPI DUP2 PUSH1 0x3 NOT CALLDATASIZE ADD SLT PUSH2 0x2AB JUMPI PUSH1 0x20 SWAP1 PUSH1 0x1 SLOAD SWAP1 MLOAD SWAP1 DUP2 MSTORE RETURN JUMPDEST POP POP CALLVALUE PUSH2 0x2AB JUMPI DUP1 PUSH1 0x3 NOT CALLDATASIZE ADD SLT PUSH2 0x2AB JUMPI PUSH1 0x20 SWAP1 PUSH2 0x74B PUSH2 0x742 PUSH2 0x1B43 JUMP JUMPDEST PUSH1 0x24 CALLDATALOAD SWAP1 PUSH2 0x1DE5 JUMP JUMPDEST SWAP1 MLOAD SWAP1 ISZERO ISZERO DUP2 MSTORE RETURN JUMPDEST POP POP CALLVALUE PUSH2 0x2AB JUMPI DUP2 PUSH1 0x3 NOT CALLDATASIZE ADD SLT PUSH2 0x2AB JUMPI PUSH1 0x60 PUSH32 0x98CCEBAE89F16F152C93C6A0CDC0D99913B9E62A9FC612471C21FFC299C389FD SWAP2 PUSH32 0x0 SWAP1 PUSH1 0x1 PUSH1 0x1 PUSH1 0xA0 SHL SUB PUSH2 0x7E0 DUP2 PUSH32 0x0 AND DUP5 PUSH2 0x1F3D JUMP JUMPDEST DUP2 MLOAD SWAP3 AND DUP3 MSTORE PUSH32 0x0 PUSH1 0x20 DUP4 ADD MSTORE CALLER SWAP1 DUP3 ADD MSTORE LOG1 DUP1 RETURN JUMPDEST POP SWAP2 SWAP1 CALLVALUE PUSH2 0x2AB JUMPI PUSH1 0x60 CALLDATASIZE PUSH1 0x3 NOT ADD SLT PUSH2 0x2AB JUMPI DUP3 CALLDATALOAD SWAP2 PUSH2 0x834 PUSH2 0x1B5E JUMP JUMPDEST SWAP3 PUSH2 0x83D PUSH2 0x1B74 JUMP JUMPDEST SWAP4 PUSH1 0x1 PUSH1 0x1 PUSH1 0xA0 SHL SUB SWAP1 DUP2 DUP7 AND SWAP4 DUP5 CALLER SUB PUSH2 0x9BD JUMPI JUMPDEST PUSH2 0x864 PUSH2 0x85E PUSH2 0x1CB7 JUMP JUMPDEST DUP6 PUSH2 0x238F JUMP JUMPDEST SWAP7 DUP8 ISZERO PUSH2 0x9AD JUMPI DUP4 PUSH32 0x0 AND DUP1 EXTCODESIZE ISZERO PUSH2 0x278 JUMPI DUP3 DUP10 PUSH1 0x24 DUP13 DUP4 DUP13 MLOAD SWAP6 DUP7 SWAP5 DUP6 SWAP4 PUSH4 0x2E1A7D4D PUSH1 0xE0 SHL DUP6 MSTORE DUP5 ADD MSTORE GAS CALL DUP1 ISZERO PUSH2 0x9A3 JUMPI SWAP1 DUP4 SWAP2 PUSH2 0x98F JUMPI JUMPDEST POP POP PUSH4 0x87A211A2 PUSH1 0xC MSTORE DUP2 MSTORE PUSH1 0x20 PUSH1 0xC KECCAK256 DUP1 SLOAD SWAP9 DUP10 DUP7 GT PUSH2 0x984 JUMPI POP DUP5 PUSH1 0x20 SWAP10 SUB SWAP1 SSTORE PUSH9 0x5345CDF77EB68F44C DUP5 DUP2 SLOAD SUB SWAP1 SSTORE DUP4 DUP2 MSTORE DUP5 PUSH32 0xDDF252AD1BE2C89B69C2B068FC378DAA952BA7F163C4A11628F55A4DF523B3EF DUP10 DUP4 LOG3 PUSH2 0x945 DUP7 DUP3 PUSH32 0x0 PUSH2 0x2456 JUMP JUMPDEST DUP5 MLOAD SWAP3 DUP7 DUP5 MSTORE DUP8 DUP5 ADD MSTORE AND SWAP1 PUSH32 0xFBDE797D201C681B91056529119E0B02407C7BB96A4A2C75C01FC9667232C8DB DUP5 CALLER SWAP3 LOG4 PUSH2 0x97E PUSH2 0x226E JUMP JUMPDEST MLOAD SWAP1 DUP2 MSTORE RETURN JUMPDEST PUSH4 0xF4D678B8 DUP4 MSTORE PUSH1 0x1C REVERT JUMPDEST PUSH2 0x998 SWAP1 PUSH2 0x1C16 JUMP JUMPDEST PUSH2 0x2AB JUMPI DUP2 CODESIZE PUSH2 0x8BF JUMP JUMPDEST DUP9 MLOAD RETURNDATASIZE DUP6 DUP3 RETURNDATACOPY RETURNDATASIZE SWAP1 REVERT JUMPDEST DUP7 MLOAD PUSH4 0xE3E8D297 PUSH1 0xE0 SHL DUP2 MSTORE DUP10 SWAP1 REVERT JUMPDEST CALLER PUSH1 0x20 MSTORE PUSH4 0x7F5E9F20 PUSH1 0xC MSTORE DUP7 DUP2 MSTORE PUSH1 0x34 PUSH1 0xC KECCAK256 DUP1 SLOAD PUSH1 0x0 NOT DUP2 SUB PUSH2 0x9E4 JUMPI JUMPDEST POP POP PUSH2 0x853 JUMP JUMPDEST DUP1 DUP7 GT PUSH2 0x9F7 JUMPI DUP6 SWAP1 SUB SWAP1 SSTORE CODESIZE DUP1 PUSH2 0x9DD JUMP JUMPDEST DUP10 PUSH4 0x13BE252B DUP5 MSTORE PUSH1 0x1C REVERT JUMPDEST POP POP CALLVALUE PUSH2 0x2AB JUMPI DUP2 PUSH1 0x3 NOT CALLDATASIZE ADD SLT PUSH2 0x2AB JUMPI PUSH1 0x20 SWAP1 PUSH1 0x5 SLOAD SWAP1 MLOAD SWAP1 DUP2 MSTORE RETURN JUMPDEST POP POP CALLVALUE PUSH2 0x2AB JUMPI DUP2 PUSH1 0x3 NOT CALLDATASIZE ADD SLT PUSH2 0x2AB JUMPI PUSH1 0x1 PUSH1 0x1 PUSH1 0xA0 SHL SUB PUSH1 0x20 SWAP3 SLOAD PUSH1 0x8 SHR AND SWAP1 MLOAD SWAP1 DUP2 MSTORE RETURN JUMPDEST POP SWAP2 CALLVALUE PUSH2 0x6DF JUMPI DUP2 PUSH1 0x3 NOT CALLDATASIZE ADD SLT PUSH2 0x6DF JUMPI PUSH2 0xA65 PUSH2 0x1B43 JUMP JUMPDEST PUSH1 0x24 CALLDATALOAD SWAP2 PUSH4 0x87A211A2 PUSH1 0xC MSTORE CALLER DUP2 MSTORE PUSH1 0x20 SWAP5 DUP6 PUSH1 0xC KECCAK256 SWAP1 DUP2 SLOAD SWAP1 DUP2 DUP7 GT PUSH2 0xACB JUMPI POP DUP5 SWAP1 SUB SWAP1 SSTORE MSTORE DUP3 PUSH1 0xC KECCAK256 DUP2 DUP2 SLOAD ADD SWAP1 SSTORE DUP3 MSTORE PUSH1 0xC MLOAD PUSH1 0x60 SHR CALLER PUSH32 0xDDF252AD1BE2C89B69C2B068FC378DAA952BA7F163C4A11628F55A4DF523B3EF DUP5 DUP1 LOG3 MLOAD PUSH1 0x1 DUP2 MSTORE RETURN JUMPDEST PUSH4 0xF4D678B8 DUP5 MSTORE PUSH1 0x1C REVERT JUMPDEST POP CALLVALUE PUSH2 0x278 JUMPI PUSH1 0x20 CALLDATASIZE PUSH1 0x3 NOT ADD SLT PUSH2 0x278 JUMPI DUP1 CALLDATALOAD SWAP1 PUSH2 0xAF3 PUSH2 0x21C8 JUMP JUMPDEST PUSH8 0xDE0B6B3A7640000 DUP3 LT DUP1 ISZERO PUSH2 0xB43 JUMPI JUMPDEST PUSH2 0x26A JUMPI POP SWAP1 PUSH32 0xAEBA5A6C40A8AC138134BFF1AAA65DEBF25971188A58804BAD717F82F0EC1316 SWAP2 PUSH1 0x2 SLOAD SWAP1 DUP1 PUSH1 0x2 SSTORE DUP3 MLOAD SWAP2 DUP3 MSTORE PUSH1 0x20 DUP3 ADD MSTORE LOG1 DUP1 RETURN JUMPDEST POP PUSH8 0xFF59EE833B30000 DUP3 GT PUSH2 0xB05 JUMP JUMPDEST POP SWAP2 CALLVALUE PUSH2 0x6DF JUMPI DUP2 PUSH1 0x3 NOT CALLDATASIZE ADD SLT PUSH2 0x6DF JUMPI PUSH2 0xB6E PUSH2 0x1B43 JUMP JUMPDEST PUSH1 0x24 CALLDATALOAD SWAP1 PUSH1 0x20 MSTORE PUSH4 0x7F5E9F20 PUSH1 0xC MSTORE CALLER DUP3 MSTORE PUSH1 0x34 PUSH1 0xC KECCAK256 SWAP1 DUP2 SLOAD DUP2 DUP2 LT PUSH2 0xBCC JUMPI PUSH1 0x20 SWAP6 POP SUB DUP1 SWAP2 SSTORE DUP2 MSTORE PUSH1 0x2C MLOAD PUSH1 0x60 SHR SWAP1 PUSH32 0x8C5BE1E5EBEC7D5BD14F71427D1E84F3DD0314C0F7B2291E5B200AC8C7C3B925 DUP5 CALLER SWAP3 LOG3 MLOAD PUSH1 0x1 DUP2 MSTORE RETURN JUMPDEST DUP6 PUSH4 0x8301AB38 DUP6 MSTORE PUSH1 0x1C REVERT JUMPDEST POP POP CALLVALUE PUSH2 0x2AB JUMPI DUP2 PUSH1 0x3 NOT CALLDATASIZE ADD SLT PUSH2 0x2AB JUMPI PUSH1 0x20 SWAP1 PUSH1 0x3 SLOAD SWAP1 MLOAD SWAP1 DUP2 MSTORE RETURN JUMPDEST POP SWAP1 CALLVALUE PUSH2 0x278 JUMPI DUP3 PUSH1 0x3 NOT CALLDATASIZE ADD SLT PUSH2 0x278 JUMPI DUP1 MLOAD PUSH4 0x95D89B41 PUSH1 0xE0 SHL DUP2 MSTORE SWAP3 DUP1 DUP5 DUP5 DUP2 PUSH32 0x0 PUSH1 0x1 PUSH1 0x1 PUSH1 0xA0 SHL SUB AND GAS STATICCALL SWAP3 DUP4 ISZERO PUSH2 0xD5A JUMPI DUP2 SWAP4 PUSH2 0xCB9 JUMPI JUMPDEST PUSH2 0xCB5 DUP5 DUP5 PUSH2 0xCAB PUSH1 0x27 DUP3 MLOAD DUP1 SWAP5 PUSH32 0x4379674C503A2000000000000000000000000000000000000000000000000000 PUSH1 0x20 DUP4 ADD MSTORE PUSH2 0xC9B DUP2 MLOAD DUP1 SWAP3 PUSH1 0x20 DUP7 DUP7 ADD SWAP2 ADD PUSH2 0x1BC7 JUMP JUMPDEST DUP2 ADD SUB PUSH1 0x7 DUP2 ADD DUP6 MSTORE ADD DUP4 PUSH2 0x1C5C JUMP JUMPDEST MLOAD SWAP2 DUP3 SWAP2 DUP3 PUSH2 0x1BEA JUMP JUMPDEST SUB SWAP1 RETURN JUMPDEST SWAP1 SWAP2 SWAP3 POP RETURNDATASIZE DUP1 DUP4 DUP7 RETURNDATACOPY PUSH2 0xCCC DUP2 DUP7 PUSH2 0x1C5C JUMP JUMPDEST DUP5 ADD SWAP2 PUSH1 0x20 DUP6 DUP5 SUB SLT PUSH2 0x6DF JUMPI DUP5 MLOAD PUSH8 0xFFFFFFFFFFFFFFFF SWAP6 DUP7 DUP3 GT PUSH2 0x278 JUMPI ADD SWAP2 DUP4 PUSH1 0x1F DUP5 ADD SLT ISZERO PUSH2 0x2AB JUMPI DUP3 MLOAD SWAP6 DUP7 GT PUSH2 0xD45 JUMPI POP DUP4 MLOAD SWAP3 PUSH2 0xD1A PUSH1 0x1F DUP8 ADD PUSH1 0x1F NOT AND PUSH1 0x20 ADD DUP6 PUSH2 0x1C5C JUMP JUMPDEST DUP6 DUP5 MSTORE PUSH1 0x20 DUP7 DUP5 ADD ADD GT PUSH2 0x6DF JUMPI POP PUSH2 0xCB5 SWAP4 PUSH2 0xD3D SWAP2 PUSH1 0x20 DUP1 DUP6 ADD SWAP2 ADD PUSH2 0x1BC7 JUMP JUMPDEST SWAP1 CODESIZE DUP1 PUSH2 0xC54 JUMP JUMPDEST PUSH1 0x41 SWAP1 PUSH4 0x4E487B71 PUSH1 0xE0 SHL PUSH1 0x0 MSTORE MSTORE PUSH1 0x24 PUSH1 0x0 REVERT JUMPDEST POP SWAP1 MLOAD SWAP1 RETURNDATASIZE SWAP1 DUP3 RETURNDATACOPY RETURNDATASIZE SWAP1 REVERT JUMPDEST POP POP CALLVALUE PUSH2 0x2AB JUMPI DUP2 PUSH1 0x3 NOT CALLDATASIZE ADD SLT PUSH2 0x2AB JUMPI PUSH1 0x20 SWAP1 PUSH1 0x2 SLOAD SWAP1 MLOAD SWAP1 DUP2 MSTORE RETURN JUMPDEST POP SWAP2 SWAP1 CALLVALUE PUSH2 0x2AB JUMPI PUSH2 0x120 CALLDATASIZE PUSH1 0x3 NOT ADD SLT PUSH2 0x2AB JUMPI DUP3 CALLDATALOAD PUSH2 0xDA4 PUSH2 0x1B5E JUMP JUMPDEST SWAP4 PUSH1 0xC0 CALLDATASIZE PUSH1 0x43 NOT ADD SLT PUSH2 0x1156 JUMPI PUSH2 0x104 SWAP1 DUP2 CALLDATALOAD PUSH8 0xFFFFFFFFFFFFFFFF DUP1 DUP3 GT PUSH2 0x104A JUMPI CALLDATASIZE PUSH1 0x23 DUP4 ADD SLT ISZERO PUSH2 0x104A JUMPI DUP2 DUP4 ADD CALLDATALOAD SWAP1 DUP2 GT PUSH2 0x104A JUMPI CALLDATASIZE PUSH1 0x24 DUP3 DUP5 ADD ADD GT PUSH2 0x104A JUMPI PUSH1 0x1 PUSH1 0x1 PUSH1 0xA0 SHL SUB SWAP4 DUP5 PUSH32 0x0 AND SWAP2 PUSH2 0xE20 ADDRESS DUP5 PUSH2 0x249F JUMP JUMPDEST SWAP4 DUP2 PUSH2 0x105C JUMPI JUMPDEST POP POP POP PUSH2 0xE33 DUP6 PUSH2 0x241F JUMP JUMPDEST PUSH15 0x22D473030F116DDEE9F6B43AC78BA3 SWAP1 DUP2 EXTCODESIZE ISZERO PUSH2 0x1058 JUMPI DUP6 PUSH1 0x84 DUP11 SWAP3 DUP4 DUP12 MLOAD SWAP6 DUP7 SWAP5 DUP6 SWAP4 PUSH4 0x1B63C28B PUSH1 0xE1 SHL DUP6 MSTORE CALLER DUP13 DUP7 ADD MSTORE ADDRESS PUSH1 0x24 DUP7 ADD MSTORE AND PUSH1 0x44 DUP5 ADD MSTORE DUP11 PUSH32 0x0 AND PUSH1 0x64 DUP5 ADD MSTORE GAS CALL DUP1 ISZERO PUSH2 0x104E JUMPI SWAP1 DUP9 SWAP2 PUSH2 0x1036 JUMPI JUMPDEST POP POP PUSH2 0xEDB SWAP2 PUSH2 0xEC8 PUSH2 0xECD SWAP3 PUSH2 0xEC1 DUP9 PUSH2 0x2158 JUMP JUMPDEST ADDRESS SWAP1 PUSH2 0x249F JUMP JUMPDEST PUSH2 0x1DC2 JUMP JUMPDEST PUSH2 0xED5 PUSH2 0x1CB7 JUMP JUMPDEST SWAP1 PUSH2 0x23DC JUMP JUMPDEST SWAP5 DUP6 ISZERO PUSH2 0x1027 JUMPI PUSH9 0x5345CDF77EB68F44C SWAP1 DUP2 SLOAD SWAP1 DUP2 ISZERO PUSH2 0xF95 JUMPI JUMPDEST POP POP DUP1 SLOAD SWAP2 DUP7 DUP4 ADD SWAP3 DUP4 LT PUSH2 0xF89 JUMPI POP SSTORE PUSH4 0x87A211A2 PUSH1 0xC MSTORE DUP5 PUSH1 0x0 MSTORE PUSH1 0x20 SWAP5 DUP6 PUSH1 0xC KECCAK256 DUP6 DUP2 SLOAD ADD SWAP1 SSTORE DUP5 DUP7 MSTORE PUSH1 0xC MLOAD PUSH1 0x60 SHR PUSH1 0x0 PUSH32 0xDDF252AD1BE2C89B69C2B068FC378DAA952BA7F163C4A11628F55A4DF523B3EF DUP9 DUP1 LOG3 DUP4 MLOAD SWAP3 DUP4 MSTORE DUP5 DUP7 DUP5 ADD MSTORE AND SWAP1 PUSH32 0xDCBC1C05240F31FF3AD067EF1EE35CE4997762752E3A095284754544F4C709D7 DUP4 CALLER SWAP3 LOG3 PUSH2 0x97E PUSH2 0x226E JUMP JUMPDEST PUSH4 0xE5CFE957 PUSH1 0x0 MSTORE PUSH1 0x1C REVERT JUMPDEST SWAP1 SWAP7 PUSH2 0x3E7 NOT DUP2 ADD SWAP2 SWAP1 DUP3 GT PUSH2 0x1014 JUMPI POP SWAP6 PUSH2 0x3E8 SWAP1 DUP2 DUP2 ADD SWAP1 DUP2 LT PUSH2 0x1007 JUMPI DUP3 SSTORE PUSH4 0x87A211A2 PUSH1 0xC MSTORE PUSH2 0xDEAD PUSH1 0x0 MSTORE PUSH1 0x20 PUSH1 0xC KECCAK256 DUP2 DUP2 SLOAD ADD SWAP1 SSTORE PUSH1 0x20 MSTORE PUSH1 0xC MLOAD PUSH1 0x60 SHR PUSH1 0x0 PUSH32 0xDDF252AD1BE2C89B69C2B068FC378DAA952BA7F163C4A11628F55A4DF523B3EF PUSH1 0x20 DUP1 LOG3 CODESIZE DUP1 PUSH2 0xEF7 JUMP JUMPDEST DUP4 PUSH4 0xE5CFE957 PUSH1 0x0 MSTORE PUSH1 0x1C REVERT JUMPDEST PUSH4 0x4E487B71 PUSH1 0xE0 SHL DUP2 MSTORE PUSH1 0x11 DUP5 MSTORE PUSH1 0x24 SWAP1 REVERT JUMPDEST POP DUP4 MLOAD PUSH4 0xF1CA48B1 PUSH1 0xE0 SHL DUP2 MSTORE REVERT JUMPDEST PUSH2 0x103F SWAP1 PUSH2 0x1C16 JUMP JUMPDEST PUSH2 0x104A JUMPI DUP7 CODESIZE PUSH2 0xEAB JUMP JUMPDEST DUP7 DUP1 REVERT JUMPDEST DUP8 MLOAD RETURNDATASIZE DUP11 DUP3 RETURNDATACOPY RETURNDATASIZE SWAP1 REVERT JUMPDEST DUP9 DUP1 REVERT JUMPDEST PUSH15 0x22D473030F116DDEE9F6B43AC78BA3 SWAP2 DUP3 EXTCODESIZE ISZERO PUSH2 0x1152 JUMPI DUP10 MLOAD PUSH4 0x2B67B57 PUSH1 0xE4 SHL DUP2 MSTORE CALLER DUP9 DUP3 ADD MSTORE SWAP4 DUP9 PUSH2 0x108F PUSH2 0x1B74 JUMP JUMPDEST AND PUSH1 0x24 DUP7 ADD MSTORE PUSH1 0x64 CALLDATALOAD DUP10 DUP2 AND DUP1 SWAP2 SUB PUSH2 0x114A JUMPI PUSH1 0x44 DUP7 ADD MSTORE PUSH1 0x84 CALLDATALOAD PUSH6 0xFFFFFFFFFFFF SWAP1 DUP2 DUP2 AND DUP1 SWAP2 SUB PUSH2 0x114E JUMPI PUSH1 0x64 DUP8 ADD MSTORE PUSH1 0xA4 CALLDATALOAD SWAP1 DUP2 AND DUP1 SWAP2 SUB PUSH2 0x114A JUMPI PUSH1 0x84 DUP7 ADD MSTORE PUSH1 0xC4 CALLDATALOAD DUP10 DUP2 AND DUP1 SWAP2 SUB PUSH2 0x114A JUMPI DUP6 SWAP4 DUP5 DUP5 DUP16 SWAP8 SWAP6 DUP3 SWAP6 DUP10 SWAP6 PUSH1 0xA4 DUP6 ADD MSTORE PUSH1 0xE4 CALLDATALOAD PUSH1 0xC4 DUP6 ADD MSTORE PUSH2 0x100 PUSH1 0xE4 DUP6 ADD MSTORE DUP4 ADD MSTORE DUP1 PUSH1 0x24 PUSH2 0x124 SWAP5 ADD DUP5 DUP5 ADD CALLDATACOPY DUP2 DUP2 ADD DUP4 ADD DUP5 SWAP1 MSTORE PUSH1 0x1F ADD PUSH1 0x1F NOT AND DUP2 ADD SUB ADD SWAP3 GAS CALL DUP1 ISZERO PUSH2 0x104E JUMPI PUSH2 0x1137 JUMPI JUMPDEST DUP1 DUP1 PUSH2 0xE27 JUMP JUMPDEST PUSH2 0x1143 SWAP1 SWAP8 SWAP2 SWAP8 PUSH2 0x1C16 JUMP JUMPDEST SWAP6 CODESIZE PUSH2 0x1130 JUMP JUMPDEST DUP13 DUP1 REVERT JUMPDEST DUP14 DUP1 REVERT JUMPDEST DUP11 DUP1 REVERT JUMPDEST DUP4 DUP1 REVERT JUMPDEST POP SWAP1 CALLVALUE PUSH2 0x278 JUMPI PUSH1 0x20 CALLDATASIZE PUSH1 0x3 NOT ADD SLT PUSH2 0x278 JUMPI DUP2 CALLDATALOAD SWAP2 PUSH1 0x1 PUSH1 0x1 PUSH1 0xA0 SHL SUB DUP2 SLOAD AND CALLER SUB PUSH2 0x11CA JUMPI POP PUSH32 0xC63644116F6EF474FE595238489F3D0D31A12C55BE3A748D72269A62882B04C9 SWAP1 PUSH2 0x11AD DUP4 PUSH2 0x2158 JUMP JUMPDEST TIMESTAMP PUSH1 0x5 SSTORE DUP1 MLOAD SWAP3 DUP4 MSTORE TIMESTAMP PUSH1 0x20 DUP5 ADD MSTORE CALLER SWAP3 LOG2 PUSH2 0x11C7 PUSH2 0x226E JUMP JUMPDEST DUP1 RETURN JUMPDEST SWAP1 MLOAD PUSH4 0x9F91A891 PUSH1 0xE0 SHL DUP2 MSTORE REVERT JUMPDEST POP POP CALLVALUE PUSH2 0x2AB JUMPI PUSH1 0x20 CALLDATASIZE PUSH1 0x3 NOT ADD SLT PUSH2 0x2AB JUMPI PUSH1 0x20 SWAP2 PUSH2 0x11F6 PUSH2 0x1B43 JUMP JUMPDEST SWAP1 PUSH4 0x38377508 PUSH1 0xC MSTORE MSTORE DUP2 PUSH1 0xC KECCAK256 SLOAD SWAP1 MLOAD SWAP1 DUP2 MSTORE RETURN JUMPDEST POP POP CALLVALUE PUSH2 0x2AB JUMPI PUSH1 0x20 CALLDATASIZE PUSH1 0x3 NOT ADD SLT PUSH2 0x2AB JUMPI PUSH1 0x20 SWAP2 PUSH2 0x122A PUSH2 0x1B43 JUMP JUMPDEST SWAP1 PUSH4 0x87A211A2 PUSH1 0xC MSTORE MSTORE DUP2 PUSH1 0xC KECCAK256 SLOAD SWAP1 MLOAD SWAP1 DUP2 MSTORE RETURN JUMPDEST POP POP CALLVALUE PUSH2 0x2AB JUMPI DUP2 PUSH1 0x3 NOT CALLDATASIZE ADD SLT PUSH2 0x2AB JUMPI PUSH1 0x20 SWAP1 MLOAD PUSH1 0x1 PUSH1 0x1 PUSH1 0xA0 SHL SUB PUSH32 0x0 AND DUP2 MSTORE RETURN JUMPDEST POP POP CALLVALUE PUSH2 0x2AB JUMPI DUP2 PUSH1 0x3 NOT CALLDATASIZE ADD SLT PUSH2 0x2AB JUMPI PUSH1 0x20 SWAP1 MLOAD PUSH15 0x22D473030F116DDEE9F6B43AC78BA3 DUP2 MSTORE RETURN JUMPDEST POP POP CALLVALUE PUSH2 0x2AB JUMPI DUP2 PUSH1 0x3 NOT CALLDATASIZE ADD SLT PUSH2 0x2AB JUMPI PUSH1 0x20 SWAP1 MLOAD PUSH32 0x0 DUP2 MSTORE RETURN JUMPDEST POP SWAP2 CALLVALUE PUSH2 0x6DF JUMPI PUSH1 0x20 SWAP1 DUP2 PUSH1 0x3 NOT CALLDATASIZE ADD SLT PUSH2 0x6DF JUMPI PUSH2 0x1306 PUSH2 0x1B43 JUMP JUMPDEST PUSH1 0x1 PUSH1 0x1 PUSH1 0xA0 SHL SUB SWAP1 DUP1 DUP3 AND DUP1 PUSH2 0x1327 JUMPI DUP6 MLOAD PUSH4 0x6E7AC57D PUSH1 0xE1 SHL DUP2 MSTORE DUP8 SWAP1 REVERT JUMPDEST DUP7 ADDRESS DUP3 EQ PUSH2 0x13DF JUMPI SWAP1 PUSH1 0x24 DUP7 SWAP3 DUP9 MLOAD SWAP6 DUP7 SWAP4 DUP5 SWAP3 PUSH4 0x7D6AF079 PUSH1 0xE0 SHL DUP5 MSTORE DUP4 ADD MSTORE PUSH32 0x0 AND GAS STATICCALL SWAP2 DUP3 ISZERO PUSH2 0x13D5 JUMPI DUP4 SWAP3 PUSH2 0x13A4 JUMPI JUMPDEST POP PUSH2 0x1398 SWAP3 PUSH4 0x87A211A2 PUSH1 0xC MSTORE MSTORE PUSH2 0x64C DUP4 PUSH1 0xC KECCAK256 SLOAD PUSH2 0x646 PUSH2 0x1CB7 JUMP JUMPDEST SWAP1 SWAP2 DUP4 MLOAD SWAP3 DUP4 MSTORE DUP3 ADD MSTORE RETURN JUMPDEST SWAP1 SWAP2 POP DUP4 DUP2 DUP2 RETURNDATASIZE DUP4 GT PUSH2 0x13CE JUMPI JUMPDEST PUSH2 0x13BC DUP2 DUP4 PUSH2 0x1C5C JUMP JUMPDEST DUP2 ADD SUB SLT PUSH2 0x278 JUMPI MLOAD SWAP1 PUSH2 0x1398 PUSH2 0x137A JUMP JUMPDEST POP RETURNDATASIZE PUSH2 0x13B2 JUMP JUMPDEST DUP6 MLOAD RETURNDATASIZE DUP6 DUP3 RETURNDATACOPY RETURNDATASIZE SWAP1 REVERT JUMPDEST DUP7 MLOAD PUSH4 0xBF8C13AF PUSH1 0xE0 SHL DUP2 MSTORE REVERT JUMPDEST POP POP CALLVALUE PUSH2 0x2AB JUMPI DUP2 PUSH1 0x3 NOT CALLDATASIZE ADD SLT PUSH2 0x2AB JUMPI PUSH1 0x20 SWAP1 PUSH2 0x140A PUSH2 0x1CF1 JUMP JUMPDEST SWAP1 MLOAD SWAP1 DUP2 MSTORE RETURN JUMPDEST POP SWAP2 CALLVALUE PUSH2 0x6DF JUMPI DUP1 PUSH1 0x3 NOT CALLDATASIZE ADD SLT PUSH2 0x6DF JUMPI POP PUSH1 0x1 PUSH1 0x1 PUSH1 0xA0 SHL SUB PUSH1 0x20 SWAP3 SLOAD AND SWAP1 MLOAD SWAP1 DUP2 MSTORE RETURN JUMPDEST POP POP CALLVALUE PUSH2 0x2AB JUMPI DUP2 PUSH1 0x3 NOT CALLDATASIZE ADD SLT PUSH2 0x2AB JUMPI PUSH1 0x20 SWAP1 PUSH2 0x140A PUSH2 0x1CB7 JUMP JUMPDEST POP SWAP2 CALLVALUE PUSH2 0x6DF JUMPI DUP2 PUSH1 0x3 NOT CALLDATASIZE ADD SLT PUSH2 0x6DF JUMPI PUSH2 0x146F PUSH2 0x1B43 JUMP JUMPDEST PUSH1 0x20 MSTORE PUSH4 0x7F5E9F20 PUSH1 0xC MSTORE CALLER DUP2 MSTORE PUSH1 0x34 PUSH1 0xC KECCAK256 SWAP3 DUP4 SLOAD SWAP1 PUSH1 0x24 CALLDATALOAD DUP3 ADD SWAP2 DUP3 LT PUSH2 0x14CD JUMPI POP DUP1 PUSH1 0x20 SWAP5 SSTORE DUP2 MSTORE PUSH1 0x2C MLOAD PUSH1 0x60 SHR SWAP1 PUSH32 0x8C5BE1E5EBEC7D5BD14F71427D1E84F3DD0314C0F7B2291E5B200AC8C7C3B925 DUP5 CALLER SWAP3 LOG3 MLOAD PUSH1 0x1 DUP2 MSTORE RETURN JUMPDEST PUSH4 0xF9067066 DUP4 MSTORE PUSH1 0x1C REVERT JUMPDEST POP POP CALLVALUE PUSH2 0x2AB JUMPI DUP2 PUSH1 0x3 NOT CALLDATASIZE ADD SLT PUSH2 0x2AB JUMPI PUSH1 0x20 SWAP1 PUSH2 0x140A PUSH2 0x231D JUMP JUMPDEST POP SWAP2 CALLVALUE PUSH2 0x6DF JUMPI DUP1 PUSH1 0x3 NOT CALLDATASIZE ADD SLT PUSH2 0x6DF JUMPI PUSH1 0x20 DUP3 MLOAD DUP1 SWAP5 PUSH4 0x313CE567 PUSH1 0xE0 SHL DUP3 MSTORE DUP2 PUSH1 0x1 PUSH1 0x1 PUSH1 0xA0 SHL SUB PUSH32 0x0 AND GAS STATICCALL SWAP3 DUP4 ISZERO PUSH2 0xD5A JUMPI DUP2 SWAP4 PUSH2 0x155F JUMPI JUMPDEST PUSH1 0x20 DUP5 PUSH1 0xFF DUP6 MLOAD SWAP2 AND DUP2 MSTORE RETURN JUMPDEST SWAP1 SWAP3 POP PUSH1 0x20 DUP2 RETURNDATASIZE DUP3 GT PUSH2 0x1598 JUMPI JUMPDEST DUP2 PUSH2 0x157A PUSH1 0x20 SWAP4 DUP4 PUSH2 0x1C5C JUMP JUMPDEST DUP2 ADD SUB SLT PUSH2 0x278 JUMPI MLOAD SWAP2 PUSH1 0xFF DUP4 AND DUP4 SUB PUSH2 0x6DF JUMPI POP PUSH1 0xFF PUSH1 0x20 PUSH2 0x1552 JUMP JUMPDEST RETURNDATASIZE SWAP2 POP PUSH2 0x156D JUMP JUMPDEST POP SWAP2 SWAP1 CALLVALUE PUSH2 0x2AB JUMPI PUSH1 0x60 CALLDATASIZE PUSH1 0x3 NOT ADD SLT PUSH2 0x2AB JUMPI PUSH2 0x15BC PUSH2 0x1B43 JUMP JUMPDEST PUSH2 0x15C4 PUSH2 0x1B5E JUMP JUMPDEST PUSH1 0x44 CALLDATALOAD DUP3 PUSH1 0x60 SHL SWAP2 PUSH1 0x20 SWAP6 CALLER DUP8 MSTORE PUSH1 0xC SWAP4 PUSH4 0x7F5E9F20 DUP2 OR DUP6 MSTORE PUSH1 0x34 DUP6 KECCAK256 DUP1 SLOAD PUSH1 0x0 NOT DUP2 SUB PUSH2 0x1653 JUMPI JUMPDEST POP POP PUSH4 0x87A211A2 OR DUP5 MSTORE DUP7 DUP5 KECCAK256 DUP1 SLOAD SWAP9 DUP10 DUP6 GT PUSH2 0x984 JUMPI POP DUP4 PUSH1 0x1 PUSH1 0x1 PUSH1 0xA0 SHL SUB SWAP7 SWAP8 SWAP9 SWAP10 SUB SWAP1 SSTORE MSTORE DUP6 DUP3 KECCAK256 DUP2 DUP2 SLOAD ADD SWAP1 SSTORE DUP6 MSTORE MLOAD PUSH1 0x60 SHR SWAP2 AND PUSH32 0xDDF252AD1BE2C89B69C2B068FC378DAA952BA7F163C4A11628F55A4DF523B3EF DUP5 DUP1 LOG3 MLOAD PUSH1 0x1 DUP2 MSTORE RETURN JUMPDEST DUP1 DUP7 GT PUSH2 0x166A JUMPI DUP6 SWAP1 SUB SWAP1 SSTORE PUSH4 0x87A211A2 CODESIZE PUSH2 0x15EE JUMP JUMPDEST DUP11 PUSH4 0x13BE252B DUP6 MSTORE PUSH1 0x1C REVERT JUMPDEST POP SWAP2 SWAP1 CALLVALUE PUSH2 0x2AB JUMPI PUSH1 0x20 CALLDATASIZE PUSH1 0x3 NOT ADD SLT PUSH2 0x2AB JUMPI PUSH2 0x1692 PUSH2 0x1B43 JUMP JUMPDEST SWAP1 DUP3 SLOAD SWAP2 PUSH1 0xFF DUP4 AND ISZERO PUSH2 0x1741 JUMPI PUSH1 0xFF NOT SWAP3 DUP4 AND DUP5 SSTORE PUSH2 0x16AF PUSH2 0x21C8 JUMP JUMPDEST PUSH1 0x1 PUSH1 0x1 PUSH1 0xA0 SHL SUB SWAP2 DUP3 DUP3 AND SWAP3 PUSH32 0x0 AND DUP4 EQ PUSH2 0x1732 JUMPI PUSH1 0x1 SWAP5 SWAP6 POP PUSH2 0x16FF PUSH2 0x16F6 ADDRESS DUP5 PUSH2 0x249F JUMP JUMPDEST DUP1 SWAP4 CALLER SWAP1 PUSH2 0x2456 JUMP JUMPDEST MLOAD SWAP1 DUP2 MSTORE PUSH32 0x6D25BE279134F4ECAA4770AFF0C3D916D9E7C5EF37B65ED95DBDBA411F5D54D5 PUSH1 0x20 CALLER SWAP3 LOG3 DUP3 SLOAD AND OR DUP2 SSTORE DUP1 RETURN JUMPDEST MLOAD PUSH4 0xB5D8F391 PUSH1 0xE0 SHL DUP2 MSTORE DUP6 SWAP1 REVERT JUMPDEST DUP2 MLOAD PUSH4 0x6FDA65D PUSH1 0xE3 SHL DUP2 MSTORE DUP6 SWAP1 REVERT JUMPDEST POP POP CALLVALUE PUSH2 0x2AB JUMPI DUP2 PUSH1 0x3 NOT CALLDATASIZE ADD SLT PUSH2 0x2AB JUMPI PUSH1 0x20 SWAP1 PUSH9 0x5345CDF77EB68F44C SLOAD SWAP1 MLOAD SWAP1 DUP2 MSTORE RETURN JUMPDEST POP DUP3 SWAP1 CALLVALUE PUSH2 0x2AB JUMPI PUSH1 0x20 SWAP3 DUP4 PUSH1 0x3 NOT CALLDATASIZE ADD SLT PUSH2 0x278 JUMPI DUP2 CALLDATALOAD SWAP1 PUSH1 0x1 PUSH1 0x1 PUSH1 0xA0 SHL SUB SWAP1 DUP2 DUP4 AND DUP1 SWAP4 SUB PUSH2 0x190A JUMPI PUSH2 0x17AC PUSH2 0x21C8 JUMP JUMPDEST DUP4 SLOAD SWAP6 DUP4 PUSH32 0xFFFFFFFFFFFFFFFFFFFFFFFF0000000000000000000000000000000000000000 DUP9 AND OR DUP6 SSTORE PUSH2 0x17DE PUSH2 0x203C JUMP JUMPDEST POP SWAP2 PUSH32 0x0 DUP5 AND DUP8 JUMPDEST DUP5 MLOAD DUP2 LT ISZERO PUSH2 0x18D6 JUMPI DUP2 DUP7 PUSH2 0x181A DUP4 DUP9 PUSH2 0x2028 JUMP JUMPDEST MLOAD AND SUB PUSH2 0x1846 JUMPI JUMPDEST PUSH1 0x0 NOT DUP2 EQ PUSH2 0x1833 JUMPI PUSH1 0x1 ADD PUSH2 0x1805 JUMP JUMPDEST PUSH4 0x4E487B71 PUSH1 0xE0 SHL DUP10 MSTORE PUSH1 0x11 DUP9 MSTORE PUSH1 0x24 DUP10 REVERT JUMPDEST DUP6 PUSH2 0x1851 DUP3 DUP8 PUSH2 0x2028 JUMP JUMPDEST MLOAD AND DUP5 DUP8 DUP11 SLOAD AND PUSH1 0x44 DUP12 DUP8 MLOAD SWAP5 DUP6 SWAP4 DUP5 SWAP3 PUSH4 0x6EB1769F PUSH1 0xE1 SHL DUP5 MSTORE ADDRESS SWAP1 DUP5 ADD MSTORE PUSH1 0x24 DUP4 ADD MSTORE GAS STATICCALL DUP1 ISZERO PUSH2 0x18CC JUMPI SWAP1 DUP6 SWAP2 PUSH2 0x18A3 JUMPI JUMPDEST POP POP PUSH2 0x189E DUP8 DUP8 PUSH2 0x1897 DUP5 DUP10 PUSH2 0x2028 JUMP JUMPDEST MLOAD AND PUSH2 0x1F3D JUMP JUMPDEST PUSH2 0x1822 JUMP JUMPDEST DUP2 RETURNDATASIZE DUP4 GT PUSH2 0x18C5 JUMPI JUMPDEST PUSH2 0x18B6 DUP2 DUP4 PUSH2 0x1C5C JUMP JUMPDEST DUP2 ADD SUB SLT PUSH2 0x1058 JUMPI DUP4 DUP12 PUSH2 0x1886 JUMP JUMPDEST POP RETURNDATASIZE PUSH2 0x18AC JUMP JUMPDEST DUP5 MLOAD RETURNDATASIZE DUP13 DUP3 RETURNDATACOPY RETURNDATASIZE SWAP1 REVERT JUMPDEST DUP9 PUSH32 0x6A97A9E954AE4EF4C8ECC6C7DD8A1CBE668254132294CEB515DB9A2E4FAAD7F5 DUP5 DUP13 DUP11 DUP9 DUP12 DUP5 MLOAD SWAP4 AND DUP4 MSTORE DUP3 ADD MSTORE LOG1 DUP1 RETURN JUMPDEST DUP5 DUP1 REVERT JUMPDEST POP POP CALLVALUE PUSH2 0x2AB JUMPI DUP1 PUSH1 0x3 NOT CALLDATASIZE ADD SLT PUSH2 0x2AB JUMPI PUSH1 0x20 SWAP2 PUSH2 0x192B PUSH2 0x1B43 JUMP JUMPDEST PUSH1 0x24 CALLDATALOAD SWAP1 DUP5 MSTORE PUSH4 0x7F5E9F20 PUSH1 0xC MSTORE CALLER DUP3 MSTORE DUP1 PUSH1 0x34 PUSH1 0xC KECCAK256 SSTORE DUP2 MSTORE PUSH1 0x2C MLOAD PUSH1 0x60 SHR SWAP1 PUSH32 0x8C5BE1E5EBEC7D5BD14F71427D1E84F3DD0314C0F7B2291E5B200AC8C7C3B925 DUP5 CALLER SWAP3 LOG3 MLOAD PUSH1 0x1 DUP2 MSTORE RETURN JUMPDEST POP POP CALLVALUE PUSH2 0x2AB JUMPI DUP2 PUSH1 0x3 NOT CALLDATASIZE ADD SLT PUSH2 0x2AB JUMPI PUSH2 0xCB5 SWAP1 PUSH2 0x1996 PUSH2 0x1C7E JUMP JUMPDEST SWAP1 MLOAD SWAP2 DUP3 SWAP2 DUP3 PUSH2 0x1BEA JUMP JUMPDEST POP SWAP2 CALLVALUE PUSH2 0x6DF JUMPI DUP1 PUSH1 0x3 NOT CALLDATASIZE ADD SLT PUSH2 0x6DF JUMPI DUP1 SLOAD SWAP3 PUSH1 0xFF DUP5 AND ISZERO PUSH2 0x1A25 JUMPI POP PUSH1 0xFF NOT SWAP3 DUP4 AND DUP2 SSTORE PUSH2 0x19EF SWAP3 SWAP1 PUSH2 0x19D5 PUSH2 0x203C JUMP JUMPDEST SWAP5 SWAP1 PUSH1 0x1 DUP1 SWAP5 DUP5 SLOAD AND OR DUP4 SSTORE DUP5 MLOAD SWAP5 DUP1 DUP7 MSTORE DUP6 ADD SWAP1 PUSH2 0x1B8A JUMP JUMPDEST PUSH1 0x20 DUP5 DUP3 SUB DUP2 DUP7 ADD MSTORE DUP1 DUP1 DUP8 MLOAD SWAP4 DUP5 DUP2 MSTORE ADD SWAP7 ADD SWAP3 JUMPDEST DUP3 DUP2 LT PUSH2 0x1A12 JUMPI DUP6 DUP8 SUB DUP7 RETURN JUMPDEST DUP4 MLOAD DUP8 MSTORE SWAP6 DUP2 ADD SWAP6 SWAP3 DUP2 ADD SWAP3 DUP5 ADD PUSH2 0x1A05 JUMP JUMPDEST DUP3 MLOAD PUSH4 0x6FDA65D PUSH1 0xE3 SHL DUP2 MSTORE REVERT JUMPDEST POP SWAP2 CALLVALUE PUSH2 0x6DF JUMPI PUSH1 0x20 SWAP3 DUP4 PUSH1 0x3 NOT CALLDATASIZE ADD SLT PUSH2 0x2AB JUMPI PUSH2 0x1A50 PUSH2 0x1B43 JUMP JUMPDEST PUSH4 0x87A211A2 PUSH1 0xC MSTORE DUP1 DUP4 MSTORE DUP5 PUSH2 0x1A77 PUSH2 0x1A6F DUP3 PUSH1 0xC KECCAK256 SLOAD PUSH2 0x646 PUSH2 0x1CB7 JUMP JUMPDEST PUSH2 0x646 PUSH2 0x1CF1 JUMP JUMPDEST SWAP3 PUSH1 0x24 DUP7 MLOAD DUP1 SWAP5 DUP2 SWAP4 PUSH4 0x7D6AF079 PUSH1 0xE0 SHL DUP4 MSTORE PUSH1 0x1 PUSH1 0x1 PUSH1 0xA0 SHL SUB DUP1 SWAP3 AND SWAP1 DUP4 ADD MSTORE PUSH32 0x0 AND GAS STATICCALL DUP1 ISZERO PUSH2 0x1B39 JUMPI DUP4 SWAP1 PUSH2 0x1B0A JUMPI JUMPDEST PUSH2 0x1AE4 SWAP2 POP PUSH2 0x1ADE PUSH1 0x2 SLOAD PUSH1 0x3 SLOAD SWAP1 PUSH2 0x1ECD JUMP JUMPDEST SWAP1 PUSH2 0x23BA JUMP JUMPDEST SWAP1 DUP1 PUSH2 0x1AF3 JUMPI POP POP SWAP1 MLOAD SWAP1 DUP2 MSTORE RETURN JUMPDEST PUSH1 0x1 SLOAD PUSH2 0x1B04 SWAP4 POP PUSH2 0xED5 SWAP2 PUSH2 0x238F JUMP JUMPDEST SWAP1 PUSH2 0x97E JUMP JUMPDEST POP DUP5 DUP2 DUP2 RETURNDATASIZE DUP4 GT PUSH2 0x1B32 JUMPI JUMPDEST PUSH2 0x1B20 DUP2 DUP4 PUSH2 0x1C5C JUMP JUMPDEST DUP2 ADD SUB SLT PUSH2 0x278 JUMPI PUSH2 0x1AE4 SWAP1 MLOAD PUSH2 0x1ACA JUMP JUMPDEST POP RETURNDATASIZE PUSH2 0x1B16 JUMP JUMPDEST DUP5 MLOAD RETURNDATASIZE DUP6 DUP3 RETURNDATACOPY RETURNDATASIZE SWAP1 REVERT JUMPDEST PUSH1 0x4 CALLDATALOAD SWAP1 PUSH1 0x1 PUSH1 0x1 PUSH1 0xA0 SHL SUB DUP3 AND DUP3 SUB PUSH2 0x1B59 JUMPI JUMP JUMPDEST PUSH1 0x0 DUP1 REVERT JUMPDEST PUSH1 0x24 CALLDATALOAD SWAP1 PUSH1 0x1 PUSH1 0x1 PUSH1 0xA0 SHL SUB DUP3 AND DUP3 SUB PUSH2 0x1B59 JUMPI JUMP JUMPDEST PUSH1 0x44 CALLDATALOAD SWAP1 PUSH1 0x1 PUSH1 0x1 PUSH1 0xA0 SHL SUB DUP3 AND DUP3 SUB PUSH2 0x1B59 JUMPI JUMP JUMPDEST SWAP1 DUP2 MLOAD DUP1 DUP3 MSTORE PUSH1 0x20 DUP1 DUP1 SWAP4 ADD SWAP4 ADD SWAP2 PUSH1 0x0 JUMPDEST DUP3 DUP2 LT PUSH2 0x1BAA JUMPI POP POP POP POP SWAP1 JUMP JUMPDEST DUP4 MLOAD PUSH1 0x1 PUSH1 0x1 PUSH1 0xA0 SHL SUB AND DUP6 MSTORE SWAP4 DUP2 ADD SWAP4 SWAP3 DUP2 ADD SWAP3 PUSH1 0x1 ADD PUSH2 0x1B9C JUMP JUMPDEST PUSH1 0x0 JUMPDEST DUP4 DUP2 LT PUSH2 0x1BDA JUMPI POP POP PUSH1 0x0 SWAP2 ADD MSTORE JUMP JUMPDEST DUP2 DUP2 ADD MLOAD DUP4 DUP3 ADD MSTORE PUSH1 0x20 ADD PUSH2 0x1BCA JUMP JUMPDEST PUSH1 0x40 SWAP2 PUSH1 0x20 DUP3 MSTORE PUSH2 0x1C0A DUP2 MLOAD DUP1 SWAP3 DUP2 PUSH1 0x20 DUP7 ADD MSTORE PUSH1 0x20 DUP7 DUP7 ADD SWAP2 ADD PUSH2 0x1BC7 JUMP JUMPDEST PUSH1 0x1F ADD PUSH1 0x1F NOT AND ADD ADD SWAP1 JUMP JUMPDEST PUSH8 0xFFFFFFFFFFFFFFFF DUP2 GT PUSH2 0x1C2A JUMPI PUSH1 0x40 MSTORE JUMP JUMPDEST PUSH4 0x4E487B71 PUSH1 0xE0 SHL PUSH1 0x0 MSTORE PUSH1 0x41 PUSH1 0x4 MSTORE PUSH1 0x24 PUSH1 0x0 REVERT JUMPDEST PUSH1 0x40 DUP2 ADD SWAP1 DUP2 LT PUSH8 0xFFFFFFFFFFFFFFFF DUP3 GT OR PUSH2 0x1C2A JUMPI PUSH1 0x40 MSTORE JUMP JUMPDEST SWAP1 PUSH1 0x1F DUP1 NOT SWAP2 ADD AND DUP2 ADD SWAP1 DUP2 LT PUSH8 0xFFFFFFFFFFFFFFFF DUP3 GT OR PUSH2 0x1C2A JUMPI PUSH1 0x40 MSTORE JUMP JUMPDEST PUSH1 0x40 MLOAD SWAP1 PUSH2 0x1C8B DUP3 PUSH2 0x1C40 JUMP JUMPDEST PUSH1 0x12 DUP3 MSTORE PUSH32 0x4379676E75733A20436F6C6C61746572616C0000000000000000000000000000 PUSH1 0x20 DUP4 ADD MSTORE JUMP JUMPDEST PUSH9 0x5345CDF77EB68F44C SLOAD PUSH1 0x0 SWAP1 DUP1 PUSH2 0x1CD8 JUMPI POP POP PUSH8 0xDE0B6B3A7640000 SWAP1 JUMP JUMPDEST PUSH1 0x1 PUSH1 0x1 PUSH1 0xA0 SHL SUB PUSH2 0x1CEE SWAP3 SLOAD PUSH1 0x8 SHR AND PUSH2 0x23DC JUMP JUMPDEST SWAP1 JUMP JUMPDEST PUSH1 0x40 MLOAD SWAP1 PUSH4 0x17E5A1A1 PUSH1 0xE0 SHL DUP3 MSTORE PUSH1 0x20 DUP3 PUSH1 0x24 DUP2 PUSH1 0x1 PUSH1 0x1 PUSH1 0xA0 SHL SUB DUP1 PUSH32 0x0 AND PUSH1 0x4 DUP4 ADD MSTORE PUSH32 0x0 AND GAS STATICCALL SWAP2 DUP3 ISZERO PUSH2 0x1DB6 JUMPI PUSH1 0x0 SWAP3 PUSH2 0x1D83 JUMPI JUMPDEST POP DUP2 ISZERO PUSH2 0x1D71 JUMPI JUMP JUMPDEST PUSH1 0x40 MLOAD PUSH4 0x586AD3B9 PUSH1 0xE1 SHL DUP2 MSTORE PUSH1 0x4 SWAP1 REVERT JUMPDEST SWAP1 SWAP2 PUSH1 0x20 DUP3 RETURNDATASIZE DUP3 GT PUSH2 0x1DAE JUMPI JUMPDEST DUP2 PUSH2 0x1D9D PUSH1 0x20 SWAP4 DUP4 PUSH2 0x1C5C JUMP JUMPDEST DUP2 ADD SUB SLT PUSH2 0x6DF JUMPI POP MLOAD SWAP1 CODESIZE PUSH2 0x1D68 JUMP JUMPDEST RETURNDATASIZE SWAP2 POP PUSH2 0x1D90 JUMP JUMPDEST PUSH1 0x40 MLOAD RETURNDATASIZE PUSH1 0x0 DUP3 RETURNDATACOPY RETURNDATASIZE SWAP1 REVERT JUMPDEST SWAP2 SWAP1 DUP3 SUB SWAP2 DUP3 GT PUSH2 0x1DCF JUMPI JUMP JUMPDEST PUSH4 0x4E487B71 PUSH1 0xE0 SHL PUSH1 0x0 MSTORE PUSH1 0x11 PUSH1 0x4 MSTORE PUSH1 0x24 PUSH1 0x0 REVERT JUMPDEST SWAP2 SWAP1 SWAP2 PUSH4 0x87A211A2 PUSH1 0xC MSTORE PUSH1 0x0 SWAP3 DUP2 DUP5 MSTORE PUSH1 0x20 PUSH1 0xC KECCAK256 SLOAD DUP1 DUP3 GT PUSH2 0x1EC8 JUMPI PUSH2 0x1E1D PUSH2 0x1E15 PUSH1 0x24 SWAP5 SWAP4 PUSH1 0x20 SWAP4 PUSH2 0x1DC2 JUMP JUMPDEST PUSH2 0x646 PUSH2 0x1CB7 JUMP JUMPDEST SWAP2 PUSH1 0x40 MLOAD SWAP4 DUP5 DUP1 SWAP3 PUSH4 0x7D6AF079 PUSH1 0xE0 SHL DUP3 MSTORE PUSH1 0x1 PUSH1 0x1 PUSH1 0xA0 SHL SUB DUP1 SWAP2 AND PUSH1 0x4 DUP4 ADD MSTORE PUSH32 0x0 AND GAS STATICCALL SWAP2 DUP3 ISZERO PUSH2 0x1EBD JUMPI DUP5 SWAP3 PUSH2 0x1E83 JUMPI JUMPDEST POP PUSH2 0x1E7D SWAP3 SWAP4 POP PUSH2 0x1EDA JUMP JUMPDEST SWAP1 POP ISZERO SWAP1 JUMP JUMPDEST SWAP1 SWAP2 POP PUSH1 0x20 DUP2 RETURNDATASIZE DUP3 GT PUSH2 0x1EB5 JUMPI JUMPDEST DUP2 PUSH2 0x1E9E PUSH1 0x20 SWAP4 DUP4 PUSH2 0x1C5C JUMP JUMPDEST DUP2 ADD SUB SLT PUSH2 0x1156 JUMPI PUSH2 0x1E7D SWAP3 SWAP4 POP MLOAD SWAP1 DUP4 SWAP3 PUSH2 0x1E71 JUMP JUMPDEST RETURNDATASIZE SWAP2 POP PUSH2 0x1E91 JUMP JUMPDEST PUSH1 0x40 MLOAD RETURNDATASIZE DUP7 DUP3 RETURNDATACOPY RETURNDATASIZE SWAP1 REVERT JUMPDEST POP POP POP JUMP JUMPDEST SWAP2 SWAP1 DUP3 ADD DUP1 SWAP3 GT PUSH2 0x1DCF JUMPI JUMP JUMPDEST PUSH2 0x1EE9 PUSH2 0x1EF2 SWAP2 PUSH2 0x646 PUSH2 0x1CF1 JUMP JUMPDEST PUSH1 0x1 SLOAD SWAP1 PUSH2 0x238F JUMP JUMPDEST SWAP1 DUP1 ISZERO PUSH2 0x1F23 JUMPI PUSH2 0x1F0C SWAP1 PUSH2 0x1ADE PUSH1 0x2 SLOAD PUSH1 0x3 SLOAD SWAP1 PUSH2 0x1ECD JUMP JUMPDEST SWAP1 DUP2 DUP2 LT PUSH2 0x1F1B JUMPI SUB SWAP1 PUSH1 0x0 SWAP1 JUMP JUMPDEST PUSH1 0x0 SWAP3 SWAP2 SUB SWAP1 JUMP JUMPDEST POP PUSH2 0x1F37 SWAP1 PUSH2 0xED5 PUSH1 0x2 SLOAD PUSH1 0x3 SLOAD SWAP1 PUSH2 0x1ECD JUMP JUMPDEST SWAP1 PUSH1 0x0 SWAP1 JUMP JUMPDEST SWAP1 PUSH1 0x40 MLOAD SWAP2 PUSH4 0x6EB1769F PUSH1 0xE1 SHL DUP4 MSTORE ADDRESS PUSH1 0x4 DUP5 ADD MSTORE PUSH1 0x20 DUP4 PUSH1 0x44 DUP2 PUSH1 0x1 PUSH1 0x1 PUSH1 0xA0 SHL SUB DUP1 DUP8 AND PUSH1 0x24 DUP4 ADD MSTORE DUP6 AND GAS STATICCALL SWAP3 DUP4 ISZERO PUSH2 0x1DB6 JUMPI PUSH1 0x0 SWAP4 PUSH2 0x1FD2 JUMPI JUMPDEST POP PUSH1 0x0 NOT DUP1 SWAP4 LT ISZERO PUSH2 0x1EC8 JUMPI PUSH1 0x10 PUSH1 0x0 PUSH1 0x44 SWAP3 PUSH1 0x20 SWAP6 DUP3 SWAP6 PUSH1 0x14 MSTORE PUSH1 0x34 MSTORE PUSH16 0x95EA7B3000000000000000000000000 DUP3 MSTORE GAS CALL RETURNDATASIZE ISZERO PUSH1 0x1 PUSH1 0x0 MLOAD EQ OR AND ISZERO PUSH2 0x1FC4 JUMPI PUSH1 0x0 PUSH1 0x34 MSTORE JUMP JUMPDEST PUSH4 0x3E3F8F73 PUSH1 0x0 MSTORE PUSH1 0x4 PUSH1 0x1C REVERT JUMPDEST SWAP1 SWAP3 PUSH1 0x20 DUP3 RETURNDATASIZE DUP3 GT PUSH2 0x1FFD JUMPI JUMPDEST DUP2 PUSH2 0x1FEC PUSH1 0x20 SWAP4 DUP4 PUSH2 0x1C5C JUMP JUMPDEST DUP2 ADD SUB SLT PUSH2 0x6DF JUMPI POP MLOAD SWAP2 CODESIZE PUSH2 0x1F7B JUMP JUMPDEST RETURNDATASIZE SWAP2 POP PUSH2 0x1FDF JUMP JUMPDEST DUP1 MLOAD ISZERO PUSH2 0x2012 JUMPI PUSH1 0x20 ADD SWAP1 JUMP JUMPDEST PUSH4 0x4E487B71 PUSH1 0xE0 SHL PUSH1 0x0 MSTORE PUSH1 0x32 PUSH1 0x4 MSTORE PUSH1 0x24 PUSH1 0x0 REVERT JUMPDEST DUP1 MLOAD DUP3 LT ISZERO PUSH2 0x2012 JUMPI PUSH1 0x20 SWAP2 PUSH1 0x5 SHL ADD ADD SWAP1 JUMP JUMPDEST PUSH1 0x0 PUSH1 0x40 MLOAD SWAP2 PUSH2 0x204B DUP4 PUSH2 0x1C40 JUMP JUMPDEST PUSH1 0x1 DUP4 MSTORE PUSH1 0x20 SWAP3 DUP4 CALLDATASIZE DUP2 DUP4 ADD CALLDATACOPY DUP1 SWAP4 PUSH1 0x40 MLOAD SWAP2 PUSH2 0x2067 DUP4 PUSH2 0x1C40 JUMP JUMPDEST PUSH1 0x1 DUP4 MSTORE DUP2 CALLDATASIZE DUP2 DUP6 ADD CALLDATACOPY DUP3 SWAP5 PUSH20 0x3C8B650257CFB5F272F799F5E2B4E65093A11A05 SWAP2 DUP3 PUSH2 0x2093 DUP3 PUSH2 0x2005 JUMP JUMPDEST MSTORE PUSH1 0x1 PUSH1 0x1 PUSH1 0xA0 SHL SUB PUSH32 0x0 AND SWAP1 DUP2 EXTCODESIZE ISZERO PUSH2 0x278 JUMPI PUSH2 0x20F7 DUP4 SWAP3 DUP4 SWAP3 PUSH1 0x40 MLOAD SWAP5 DUP6 DUP1 SWAP5 DUP2 SWAP4 PUSH4 0x31279D3D PUSH1 0xE0 SHL DUP4 MSTORE ADDRESS PUSH1 0x4 DUP5 ADD MSTORE PUSH1 0x40 PUSH1 0x24 DUP5 ADD MSTORE PUSH1 0x44 DUP4 ADD SWAP1 PUSH2 0x1B8A JUMP JUMPDEST SUB SWAP3 GAS CALL DUP1 ISZERO PUSH2 0x214D JUMPI PUSH1 0x10 DUP6 SWAP5 PUSH16 0x70A08231000000000000000000000000 DUP7 SWAP6 PUSH2 0x213B SWAP9 SWAP6 PUSH1 0x24 SWAP6 PUSH2 0x213E JUMPI JUMPDEST POP ADDRESS PUSH1 0x14 MSTORE MSTORE GAS STATICCALL PUSH1 0x1F RETURNDATASIZE GT AND SWAP1 MLOAD MUL SWAP2 PUSH2 0x2005 JUMP JUMPDEST MSTORE JUMP JUMPDEST PUSH2 0x2147 SWAP1 PUSH2 0x1C16 JUMP JUMPDEST CODESIZE PUSH2 0x2125 JUMP JUMPDEST PUSH1 0x40 MLOAD RETURNDATASIZE DUP5 DUP3 RETURNDATACOPY RETURNDATASIZE SWAP1 REVERT JUMPDEST PUSH1 0x1 PUSH1 0x1 PUSH1 0xA0 SHL SUB PUSH32 0x0 AND SWAP1 DUP2 EXTCODESIZE ISZERO PUSH2 0x1B59 JUMPI PUSH1 0x0 SWAP2 PUSH1 0x44 DUP4 SWAP3 PUSH1 0x40 MLOAD SWAP5 DUP6 SWAP4 DUP5 SWAP3 PUSH4 0x1C57762B PUSH1 0xE3 SHL DUP5 MSTORE PUSH1 0x4 DUP5 ADD MSTORE DUP2 PUSH1 0x24 DUP5 ADD MSTORE GAS CALL DUP1 ISZERO PUSH2 0x1DB6 JUMPI PUSH2 0x21BD JUMPI POP JUMP JUMPDEST PUSH2 0x21C6 SWAP1 PUSH2 0x1C16 JUMP JUMPDEST JUMP JUMPDEST PUSH1 0x40 MLOAD PUSH4 0x3E14691 PUSH1 0xE6 SHL DUP2 MSTORE PUSH1 0x1 PUSH1 0x1 PUSH1 0xA0 SHL SUB SWAP1 PUSH1 0x20 DUP2 PUSH1 0x4 DUP2 PUSH32 0x0 DUP7 AND GAS STATICCALL SWAP1 DUP2 ISZERO PUSH2 0x1DB6 JUMPI PUSH1 0x0 SWAP2 PUSH2 0x2234 JUMPI JUMPDEST POP AND CALLER SUB PUSH2 0x2222 JUMPI JUMP JUMPDEST PUSH1 0x40 MLOAD PUSH4 0x31D63AD1 PUSH1 0xE1 SHL DUP2 MSTORE PUSH1 0x4 SWAP1 REVERT JUMPDEST PUSH1 0x20 DUP2 RETURNDATASIZE DUP3 GT PUSH2 0x2266 JUMPI JUMPDEST DUP2 PUSH2 0x224C PUSH1 0x20 SWAP4 DUP4 PUSH2 0x1C5C JUMP JUMPDEST DUP2 ADD SUB SLT PUSH2 0x2AB JUMPI MLOAD SWAP1 DUP3 DUP3 AND DUP3 SUB PUSH2 0x6DF JUMPI POP CODESIZE PUSH2 0x2218 JUMP JUMPDEST RETURNDATASIZE SWAP2 POP PUSH2 0x223F JUMP JUMPDEST PUSH32 0x3145C2B643834867F2C0A8CAC8A48218307687911615C0ED01412A09DD163B66 PUSH1 0x20 PUSH1 0x1 PUSH1 0x1 PUSH1 0xA0 SHL SUB PUSH2 0x22CD PUSH2 0x22C8 ADDRESS DUP4 PUSH32 0x0 AND PUSH2 0x249F JUMP JUMPDEST PUSH2 0x241F JUMP JUMPDEST SWAP1 PUSH1 0x0 SLOAD PUSH32 0xFFFFFFFFFFFFFFFFFFFFFF0000000000000000000000000000000000000000FF PUSH21 0xFFFFFFFFFFFFFFFFFFFFFFFFFFFFFFFFFFFFFFFF00 DUP5 PUSH1 0x8 SHL AND SWAP2 AND OR PUSH1 0x0 SSTORE PUSH1 0x40 MLOAD SWAP2 AND DUP2 MSTORE LOG1 JUMP JUMPDEST PUSH1 0xA0 PUSH1 0x40 MLOAD PUSH2 0x232A PUSH2 0x1C7E JUMP JUMPDEST PUSH1 0x20 DUP2 MLOAD SWAP2 ADD KECCAK256 PUSH32 0x8B73C3C69BB8FE3D512ECC4CF759CC79239F7B179B0FFACAA9A75D522B39400F DUP3 MSTORE PUSH1 0x20 DUP3 ADD MSTORE PUSH32 0xC89EFDAA54C0F20C7ADF612882DF0950F5A951637E0307CDCB4C672F298B8BC6 PUSH1 0x40 DUP3 ADD MSTORE CHAINID PUSH1 0x60 DUP3 ADD MSTORE ADDRESS PUSH1 0x80 DUP3 ADD MSTORE KECCAK256 SWAP1 JUMP JUMPDEST SWAP1 DUP1 PUSH1 0x0 NOT DIV DUP3 GT DUP2 MUL PUSH2 0x23AC JUMPI PUSH8 0xDE0B6B3A7640000 SWAP2 MUL DIV SWAP1 JUMP JUMPDEST PUSH4 0xBAC65E5B PUSH1 0x0 MSTORE PUSH1 0x4 PUSH1 0x1C REVERT JUMPDEST DUP2 PUSH1 0x0 NOT DIV DUP2 GT DUP3 MUL PUSH2 0x23AC JUMPI MUL PUSH8 0xDE0B6B3A7640000 DUP1 DUP3 DIV SWAP2 MOD ISZERO ISZERO ADD SWAP1 JUMP JUMPDEST PUSH8 0xDE0B6B3A7640000 SWAP1 PUSH25 0x12725DD1D243ABA0E75FE645CC4873F9E65AFE688C928E1F21 DUP2 GT DUP3 MUL ISZERO DUP4 MUL ISZERO PUSH2 0x2411 JUMPI MUL DIV SWAP1 JUMP JUMPDEST PUSH4 0x7C5F487D PUSH1 0x0 MSTORE PUSH1 0x4 PUSH1 0x1C REVERT JUMPDEST PUSH21 0x10000000000000000000000000000000000000000 DUP2 LT ISZERO PUSH2 0x2448 JUMPI PUSH1 0x1 PUSH1 0x1 PUSH1 0xA0 SHL SUB AND SWAP1 JUMP JUMPDEST PUSH4 0x35278D12 PUSH1 0x0 MSTORE PUSH1 0x4 PUSH1 0x1C REVERT JUMPDEST PUSH1 0x10 SWAP3 PUSH1 0x20 SWAP3 PUSH1 0x14 MSTORE PUSH1 0x34 MSTORE PUSH1 0x44 PUSH1 0x0 SWAP4 DUP5 DUP1 SWAP4 PUSH16 0xA9059CBB000000000000000000000000 DUP3 MSTORE GAS CALL RETURNDATASIZE ISZERO PUSH1 0x1 DUP4 MLOAD EQ OR AND ISZERO PUSH2 0x2492 JUMPI PUSH1 0x34 MSTORE JUMP JUMPDEST PUSH4 0x90B8EC18 SWAP1 MSTORE PUSH1 0x4 PUSH1 0x1C REVERT JUMPDEST PUSH1 0x24 PUSH1 0x10 PUSH1 0x20 SWAP4 SWAP3 DUP5 SWAP4 PUSH1 0x14 MSTORE PUSH16 0x70A08231000000000000000000000000 PUSH1 0x0 MSTORE GAS STATICCALL PUSH1 0x1F RETURNDATASIZE GT AND PUSH1 0x20 MLOAD MUL SWAP1 JUMP INVALID LOG2 PUSH5 0x6970667358 0x22 SLT KECCAK256 PUSH1 0xE3 SDIV 0xC2 LOG4 0x1F GAS 0xE1 PUSH9 0xE4F86C3D11A86571CB SWAP1 SGT 0x21 0x5F 0xA7 EXP DUP15 0x26 CREATE2 0xC4 EXTCODECOPY PUSH18 0xDD8A64736F6C634300081100330000000000 "},"methodIdentifiers":{"DOMAIN_SEPARATOR()":"3644e515","PERMIT2()":"6afdd850","allowance(address,address)":"dd62ed3e","approve(address,uint256)":"095ea7b3","balanceOf(address)":"70a08231","borrowable()":"e99a6ac7","canBorrow(address,uint256)":"cf8c8c44","canRedeem(address,uint256)":"cc1f8ffa","chargeVoid()":"bcbc3320","cygnusNebulaOracle()":"d935bd92","debtRatio()":"cea55f57","decimals()":"313ce567","decreaseAllowance(address,uint256)":"a457c2d7","deposit(uint256,address,((address,uint160,uint48,uint48),address,uint256),bytes)":"8808e71c","exchangeRate()":"3ba0b9a9","getAccountLiquidity(address)":"5ec88c79","getDebtRatio(address)":"031a5c82","getLPTokenPrice()":"51303622","getRewards()":"0572b0cc","hangar18()":"e8a24e1d","harvester()":"4bdaeac1","increaseAllowance(address,uint256)":"39509351","lastReinvest()":"b5f3c95b","liquidationFee()":"a36a3630","liquidationIncentive()":"8c765e94","name()":"06fdde03","nonces(address)":"7ecebe00","permit(address,address,uint256,uint256,uint8,bytes32,bytes32)":"d505accf","redeem(uint256,address,address)":"ba087652","reinvestRewards_y7b(uint256)":"81f5b6f4","rewardToken()":"f7c618c1","rewarder()":"dcc3e06e","setDebtRatio(uint256)":"eb6a887d","setHarvester(address)":"15de1daa","setLiquidationFee(uint256)":"fef0bec8","setLiquidationIncentive(uint256)":"a8431081","shuttleId()":"5f77f891","sweepToken(address)":"1be19560","symbol()":"95d89b41","totalBalance()":"ad7a672f","totalSupply()":"18160ddd","transfer(address,uint256)":"a9059cbb","transferFrom(address,address,uint256)":"23b872dd","underlying()":"6f307dc3"}}}}}