{"contracts/cygnus-core/CygnusCollateralControl.sol":{"CygnusCollateralControl":{"abi":[{"inputs":[],"stateMutability":"nonpayable","type":"constructor"},{"inputs":[],"name":"AllowanceOverflow","type":"error"},{"inputs":[],"name":"AllowanceUnderflow","type":"error"},{"inputs":[],"name":"CygnusCollateralControl__ParameterNotInRange","type":"error"},{"inputs":[],"name":"CygnusTerminal__CantMintZeroShares","type":"error"},{"inputs":[],"name":"CygnusTerminal__CantRedeemZeroAssets","type":"error"},{"inputs":[],"name":"CygnusTerminal__CantSweepUnderlying","type":"error"},{"inputs":[],"name":"CygnusTerminal__MsgSenderNotAdmin","type":"error"},{"inputs":[],"name":"InsufficientAllowance","type":"error"},{"inputs":[],"name":"InsufficientBalance","type":"error"},{"inputs":[],"name":"InvalidPermit","type":"error"},{"inputs":[],"name":"PermitExpired","type":"error"},{"inputs":[],"name":"ReentrantCall","type":"error"},{"inputs":[],"name":"TotalSupplyOverflow","type":"error"},{"anonymous":false,"inputs":[{"indexed":true,"internalType":"address","name":"owner","type":"address"},{"indexed":true,"internalType":"address","name":"spender","type":"address"},{"indexed":false,"internalType":"uint256","name":"amount","type":"uint256"}],"name":"Approval","type":"event"},{"anonymous":false,"inputs":[{"indexed":true,"internalType":"address","name":"sender","type":"address"},{"indexed":true,"internalType":"address","name":"recipient","type":"address"},{"indexed":false,"internalType":"uint256","name":"assets","type":"uint256"},{"indexed":false,"internalType":"uint256","name":"shares","type":"uint256"}],"name":"Deposit","type":"event"},{"anonymous":false,"inputs":[{"indexed":false,"internalType":"uint256","name":"oldDebtRatio","type":"uint256"},{"indexed":false,"internalType":"uint256","name":"newDebtRatio","type":"uint256"}],"name":"NewDebtRatio","type":"event"},{"anonymous":false,"inputs":[{"indexed":false,"internalType":"uint256","name":"oldLiquidationFee","type":"uint256"},{"indexed":false,"internalType":"uint256","name":"newLiquidationFee","type":"uint256"}],"name":"NewLiquidationFee","type":"event"},{"anonymous":false,"inputs":[{"indexed":false,"internalType":"uint256","name":"oldLiquidationIncentive","type":"uint256"},{"indexed":false,"internalType":"uint256","name":"newLiquidationIncentive","type":"uint256"}],"name":"NewLiquidationIncentive","type":"event"},{"anonymous":false,"inputs":[{"indexed":true,"internalType":"address","name":"sender","type":"address"},{"indexed":true,"internalType":"address","name":"token","type":"address"},{"indexed":false,"internalType":"uint256","name":"balance","type":"uint256"}],"name":"SweepToken","type":"event"},{"anonymous":false,"inputs":[{"indexed":false,"internalType":"uint160","name":"totalBalance","type":"uint160"}],"name":"Sync","type":"event"},{"anonymous":false,"inputs":[{"indexed":true,"internalType":"address","name":"from","type":"address"},{"indexed":true,"internalType":"address","name":"to","type":"address"},{"indexed":false,"internalType":"uint256","name":"amount","type":"uint256"}],"name":"Transfer","type":"event"},{"anonymous":false,"inputs":[{"indexed":true,"internalType":"address","name":"sender","type":"address"},{"indexed":true,"internalType":"address","name":"recipient","type":"address"},{"indexed":true,"internalType":"address","name":"owner","type":"address"},{"indexed":false,"internalType":"uint256","name":"assets","type":"uint256"},{"indexed":false,"internalType":"uint256","name":"shares","type":"uint256"}],"name":"Withdraw","type":"event"},{"inputs":[],"name":"DOMAIN_SEPARATOR","outputs":[{"internalType":"bytes32","name":"result","type":"bytes32"}],"stateMutability":"view","type":"function"},{"inputs":[],"name":"PERMIT2","outputs":[{"internalType":"contract IAllowanceTransfer","name":"","type":"address"}],"stateMutability":"view","type":"function"},{"inputs":[{"internalType":"address","name":"owner","type":"address"},{"internalType":"address","name":"spender","type":"address"}],"name":"allowance","outputs":[{"internalType":"uint256","name":"result","type":"uint256"}],"stateMutability":"view","type":"function"},{"inputs":[{"internalType":"address","name":"spender","type":"address"},{"internalType":"uint256","name":"amount","type":"uint256"}],"name":"approve","outputs":[{"internalType":"bool","name":"","type":"bool"}],"stateMutability":"nonpayable","type":"function"},{"inputs":[{"internalType":"address","name":"owner","type":"address"}],"name":"balanceOf","outputs":[{"internalType":"uint256","name":"result","type":"uint256"}],"stateMutability":"view","type":"function"},{"inputs":[],"name":"borrowable","outputs":[{"internalType":"address","name":"","type":"address"}],"stateMutability":"view","type":"function"},{"inputs":[],"name":"cygnusNebulaOracle","outputs":[{"internalType":"contract ICygnusNebulaOracle","name":"","type":"address"}],"stateMutability":"view","type":"function"},{"inputs":[],"name":"debtRatio","outputs":[{"internalType":"uint256","name":"","type":"uint256"}],"stateMutability":"view","type":"function"},{"inputs":[],"name":"decimals","outputs":[{"internalType":"uint8","name":"","type":"uint8"}],"stateMutability":"view","type":"function"},{"inputs":[{"internalType":"address","name":"spender","type":"address"},{"internalType":"uint256","name":"difference","type":"uint256"}],"name":"decreaseAllowance","outputs":[{"internalType":"bool","name":"","type":"bool"}],"stateMutability":"nonpayable","type":"function"},{"inputs":[{"internalType":"uint256","name":"assets","type":"uint256"},{"internalType":"address","name":"recipient","type":"address"},{"components":[{"components":[{"internalType":"address","name":"token","type":"address"},{"internalType":"uint160","name":"amount","type":"uint160"},{"internalType":"uint48","name":"expiration","type":"uint48"},{"internalType":"uint48","name":"nonce","type":"uint48"}],"internalType":"struct IAllowanceTransfer.PermitDetails","name":"details","type":"tuple"},{"internalType":"address","name":"spender","type":"address"},{"internalType":"uint256","name":"sigDeadline","type":"uint256"}],"internalType":"struct IAllowanceTransfer.PermitSingle","name":"_permit","type":"tuple"},{"internalType":"bytes","name":"signature","type":"bytes"}],"name":"deposit","outputs":[{"internalType":"uint256","name":"shares","type":"uint256"}],"stateMutability":"nonpayable","type":"function"},{"inputs":[],"name":"exchangeRate","outputs":[{"internalType":"uint256","name":"","type":"uint256"}],"stateMutability":"view","type":"function"},{"inputs":[],"name":"hangar18","outputs":[{"internalType":"contract IHangar18","name":"","type":"address"}],"stateMutability":"view","type":"function"},{"inputs":[{"internalType":"address","name":"spender","type":"address"},{"internalType":"uint256","name":"difference","type":"uint256"}],"name":"increaseAllowance","outputs":[{"internalType":"bool","name":"","type":"bool"}],"stateMutability":"nonpayable","type":"function"},{"inputs":[],"name":"liquidationFee","outputs":[{"internalType":"uint256","name":"","type":"uint256"}],"stateMutability":"view","type":"function"},{"inputs":[],"name":"liquidationIncentive","outputs":[{"internalType":"uint256","name":"","type":"uint256"}],"stateMutability":"view","type":"function"},{"inputs":[],"name":"name","outputs":[{"internalType":"string","name":"","type":"string"}],"stateMutability":"pure","type":"function"},{"inputs":[{"internalType":"address","name":"owner","type":"address"}],"name":"nonces","outputs":[{"internalType":"uint256","name":"result","type":"uint256"}],"stateMutability":"view","type":"function"},{"inputs":[{"internalType":"address","name":"owner","type":"address"},{"internalType":"address","name":"spender","type":"address"},{"internalType":"uint256","name":"value","type":"uint256"},{"internalType":"uint256","name":"deadline","type":"uint256"},{"internalType":"uint8","name":"v","type":"uint8"},{"internalType":"bytes32","name":"r","type":"bytes32"},{"internalType":"bytes32","name":"s","type":"bytes32"}],"name":"permit","outputs":[],"stateMutability":"nonpayable","type":"function"},{"inputs":[{"internalType":"uint256","name":"shares","type":"uint256"},{"internalType":"address","name":"recipient","type":"address"},{"internalType":"address","name":"owner","type":"address"}],"name":"redeem","outputs":[{"internalType":"uint256","name":"assets","type":"uint256"}],"stateMutability":"nonpayable","type":"function"},{"inputs":[{"internalType":"uint256","name":"newDebtRatio","type":"uint256"}],"name":"setDebtRatio","outputs":[],"stateMutability":"nonpayable","type":"function"},{"inputs":[{"internalType":"uint256","name":"newLiquidationFee","type":"uint256"}],"name":"setLiquidationFee","outputs":[],"stateMutability":"nonpayable","type":"function"},{"inputs":[{"internalType":"uint256","name":"newLiquidationIncentive","type":"uint256"}],"name":"setLiquidationIncentive","outputs":[],"stateMutability":"nonpayable","type":"function"},{"inputs":[],"name":"shuttleId","outputs":[{"internalType":"uint256","name":"","type":"uint256"}],"stateMutability":"view","type":"function"},{"inputs":[{"internalType":"address","name":"token","type":"address"}],"name":"sweepToken","outputs":[],"stateMutability":"nonpayable","type":"function"},{"inputs":[],"name":"symbol","outputs":[{"internalType":"string","name":"","type":"string"}],"stateMutability":"view","type":"function"},{"inputs":[],"name":"totalBalance","outputs":[{"internalType":"uint160","name":"","type":"uint160"}],"stateMutability":"view","type":"function"},{"inputs":[],"name":"totalSupply","outputs":[{"internalType":"uint256","name":"result","type":"uint256"}],"stateMutability":"view","type":"function"},{"inputs":[{"internalType":"address","name":"to","type":"address"},{"internalType":"uint256","name":"amount","type":"uint256"}],"name":"transfer","outputs":[{"internalType":"bool","name":"","type":"bool"}],"stateMutability":"nonpayable","type":"function"},{"inputs":[{"internalType":"address","name":"from","type":"address"},{"internalType":"address","name":"to","type":"address"},{"internalType":"uint256","name":"amount","type":"uint256"}],"name":"transferFrom","outputs":[{"internalType":"bool","name":"","type":"bool"}],"stateMutability":"nonpayable","type":"function"},{"inputs":[],"name":"underlying","outputs":[{"internalType":"address","name":"","type":"address"}],"stateMutability":"view","type":"function"}],"evm":{"bytecode":{"linkReferences":{},"object":"610120806040523462000172576000805460ff19166001178155635a412e5360e01b80835260a092838160048186335af18015620001675783918491859186916200013e575b5060e052855260c052608052670d2f13f7789f0000600155670e5d0f042e878000600255604051908152828160048185335af1918215620001325791620000f9575b506101009081526040519061170892836200022084396080518381816102d3015261142e01525182610355015260c0518281816105b40152818161088101528181610a5201528181610e4701528181610fc10152818161115d01526114ee015260e05182610ead0152518161028b0152f35b6200011e9150823d84116200012a575b62000115818362000177565b810190620001c6565b50509150503862000087565b503d62000109565b604051903d90823e3d90fd5b925050506200015d9150843d86116200012a5762000115818362000177565b9150903862000045565b6040513d85823e3d90fd5b600080fd5b601f909101601f19168101906001600160401b038211908210176200019b57604052565b634e487b7160e01b600052604160045260246000fd5b51906001600160a01b03821682036200017257565b91908260a0910312620001725781516001600160a01b03908181168103620001725792620001f760208201620001b1565b926200020660408301620001b1565b926060830151908116810362000172576080909201519056fe6040608081526004908136101561001557600080fd5b600091823560e01c806306fdde0314611281578063095ea7b31461121757806318160ddd146111f05780631be195601461111557806323b872dd1461103f578063313ce56714610f945780633644e51514610f775780633950935114610ef45780633ba0b9a914610ed05780635f77f89114610e955780636afdd85014610e6b5780636f307dc314610e2757806370a0823114610df35780637ecebe0014610dbf5780638808e71c146109ea5780638c765e94146109cb57806395d89b411461085c578063a36a36301461083d578063a457c2d7146107b9578063a84310811461073b578063a9059cbb146106ad578063ad7a672f14610684578063ba087652146104ed578063cea55f57146104ce578063d505accf14610379578063d935bd9214610335578063dd62ed3e146102f7578063e8a24e1d146102b3578063e99a6ac71461026b578063eb6a887d146101ed5763fef0bec81461017657600080fd5b346101e95760203660031901126101e957803590610192611410565b67016345785d8a000082116101db5750907f87272249f1056ec16a68dd9255101358246dd26a796e2f0bc6b3a0ad02f2de4191600354908060035582519182526020820152a180f35b825163058b4cb360e11b8152fd5b8280fd5b50346101e95760203660031901126101e95780359061020a611410565b670b1a2bc2ec5000008210801561025a575b6101db5750907ff25d2243e4128e51523d8537f04f18c3e6390bbfc6323390a9a8e59b921ce04691600154908060015582519182526020820152a180f35b50670de0b6b3a7640000821161021c565b5050346102af57816003193601126102af57602090516001600160a01b037f0000000000000000000000000000000000000000000000000000000000000000168152f35b5080fd5b5050346102af57816003193601126102af57602090516001600160a01b037f0000000000000000000000000000000000000000000000000000000000000000168152f35b5050346102af57806003193601126102af576020916103146112f9565b9061031d611314565b8452637f5e9f20600c52526034600c20549051908152f35b5050346102af57816003193601126102af57602090516001600160a01b037f0000000000000000000000000000000000000000000000000000000000000000168152f35b5090346101e95760e03660031901126101e9576103946112f9565b9161039d611314565b6084359160643560443560ff851685036104ca576103b961156e565b928651978342116104be576001600160a01b038091169516956338377508600c52858a5260209485600c20948554956001870190557f6e71edae12b1b97f4d1f60370fef10105fa2faae0126114a169c64845d6126c98b5287878c0152888a8c015260608b019585875260808c015260a08b01526119018b52855260c0892088526042601e208a5260ff16845260a435875260c435606052838060808b60015afa50843d51036104b35750777f5e9f200000000000000000000000000000000000000000851786526034602c20557f8c5be1e5ebec7d5bd14f71427d1e84f3dd0314c0f7b2291e5b200ac8c7c3b9259190a3528060605280f35b63ddafbaef8952601cfd5b50631a15a3cc8952601cfd5b8780fd5b5050346102af57816003193601126102af576020906001549051908152f35b509190346102af5760603660031901126102af5782359161050c611314565b9261051561132a565b936001600160a01b03908186169384330361063e575b6105336113d6565b80600019048511810261063257670de0b6b3a764000090850204968715610622576387a211a2600c5281526020600c208054988986116106175750846020990390556805345cdf77eb68f44c848154039055838152847fddf252ad1be2c89b69c2b068fc378daa952ba7f163c4a11628f55a4df523b3ef8983a36105d886827f000000000000000000000000000000000000000000000000000000000000000061165a565b8451928684528784015216907ffbde797d201c681b91056529119e0b02407c7bb96a4a2c75c01fc9667232c8db843392a46106116114c2565b51908152f35b63f4d678b88352601cfd5b865163e3e8d29760e01b81528990fd5b8863bac65e5b8352601cfd5b33602052637f5e9f20600c528681526034600c2080546000198103610665575b505061052b565b808611610678578590039055388061065e565b896313be252b8452601cfd5b5050346102af57816003193601126102af576001600160a01b036020925460081c169051908152f35b5091346107385781600319360112610738576106c76112f9565b602435916387a211a2600c5233815260209485600c209081549081861161072d575084900390555282600c208181540190558252600c5160601c337fddf252ad1be2c89b69c2b068fc378daa952ba7f163c4a11628f55a4df523b3ef8480a35160018152f35b63f4d678b88452601cfd5b80fd5b50346101e95760203660031901126101e957803590610758611410565b670de0b6b3a7640000821080156107a8575b6101db5750907faeba5a6c40a8ac138134bff1aaa65debf25971188a58804bad717f82f0ec131691600254908060025582519182526020820152a180f35b50670ff59ee833b30000821161076a565b5091346107385781600319360112610738576107d36112f9565b60243590602052637f5e9f20600c523382526034600c209081548181106108315760209550038091558152602c5160601c907f8c5be1e5ebec7d5bd14f71427d1e84f3dd0314c0f7b2291e5b200ac8c7c3b925843392a35160018152f35b85638301ab388552601cfd5b5050346102af57816003193601126102af576020906003549051908152f35b5090346101e957826003193601126101e95780516395d89b4160e01b815292808484817f00000000000000000000000000000000000000000000000000000000000000006001600160a01b03165afa9283156109bf57819361091e575b61091a84846109106027825180947f4379674c503a2000000000000000000000000000000000000000000000000000602083015261090081518092602086860191016112aa565b810103600781018552018361136a565b51918291826112cd565b0390f35b909192503d8083863e610931818661136a565b84019160208584031261073857845167ffffffffffffffff958682116101e957019183601f840112156102af5782519586116109aa575083519261097f601f8701601f19166020018561136a565b85845260208684010111610738575061091a936109a291602080850191016112aa565b9038806108b9565b604190634e487b7160e01b6000525260246000fd5b509051903d90823e3d90fd5b5050346102af57816003193601126102af576020906002549051908152f35b509190346102af576101203660031901126102af578235610a09611314565b9360c0366043190112610dbb5767ffffffffffffffff906101048035838111610db75736602382011215610db75780830135938411610db757602491368386840101116104ca577f000000000000000000000000000000000000000000000000000000000000000094610a7c30876116a3565b9281610ca9575b505050610a8f85611623565b936e22d473030f116ddee9f6b43ac78ba3803b15610ca55788809160848a5180948193631b63c28b60e11b8352338b840152308a8401526001600160a01b03809c1660448401528b881660648401525af18015610c9b57908991610c87575b5050610afb9030906116a3565b908103908111610c7357610b1790610b116113d6565b906115e0565b958615610c63576805345cdf77eb68f44c918254918215610bd2575b505050805491868301928310610bc65750556387a211a2600c528460005260209485600c20858154019055848652600c5160601c60007fddf252ad1be2c89b69c2b068fc378daa952ba7f163c4a11628f55a4df523b3ef8880a38351928352848684015216907fdcbc1c05240f31ff3ad067ef1ee35ce4997762752e3a095284754544f4c709d7833392a36106116114c2565b63e5cfe957600052601cfd5b91976103e719810192908311610c53575050956103e890818101908110610c465782556387a211a2600c5261dead6000526020600c20818154019055602052600c5160601c60007fddf252ad1be2c89b69c2b068fc378daa952ba7f163c4a11628f55a4df523b3ef602080a3388080610b33565b8363e5cfe957600052601cfd5b634e487b7160e01b815260118552fd5b855163f1ca48b160e01b81528390fd5b50634e487b7160e01b600090815260118352fd5b610c9090611340565b6104ca578738610aee565b88513d8b823e3d90fd5b8880fd5b6e22d473030f116ddee9f6b43ac78ba391823b15610db35789516302b67b5760e41b81523388820152936001600160a01b0380610ce461132a565b1688870152606435818116809103610dab57604487015260843565ffffffffffff90818116809103610daf57606488015260a435908116809103610dab57608487015260c435908116809103610da757859384848f97958295899560a485015260e43560c485015261010060e4850152830152808b6101249401848401378181018301849052601f01601f191681010301925af18015610d9d57610d8a575b8080610a83565b610d9690979197611340565b9538610d83565b87513d8a823e3d90fd5b8c80fd5b8d80fd5b8e80fd5b8a80fd5b8680fd5b8380fd5b5050346102af5760203660031901126102af57602091610ddd6112f9565b906338377508600c525281600c20549051908152f35b5050346102af5760203660031901126102af57602091610e116112f9565b906387a211a2600c525281600c20549051908152f35b5050346102af57816003193601126102af57602090516001600160a01b037f0000000000000000000000000000000000000000000000000000000000000000168152f35b5050346102af57816003193601126102af57602090516e22d473030f116ddee9f6b43ac78ba38152f35b5050346102af57816003193601126102af57602090517f00000000000000000000000000000000000000000000000000000000000000008152f35b5050346102af57816003193601126102af57602090610eed6113d6565b9051908152f35b509134610738578160031936011261073857610f0e6112f9565b602052637f5e9f20600c523381526034600c20928354906024358201918210610f6c575080602094558152602c5160601c907f8c5be1e5ebec7d5bd14f71427d1e84f3dd0314c0f7b2291e5b200ac8c7c3b925843392a35160018152f35b63f90670668352601cfd5b5050346102af57816003193601126102af57602090610eed61156e565b50913461073857806003193601126107385760208251809463313ce56760e01b8252816001600160a01b037f0000000000000000000000000000000000000000000000000000000000000000165afa9283156109bf578193610ffe575b60208460ff855191168152f35b9092506020813d8211611037575b816110196020938361136a565b810103126101e957519160ff83168303610738575060ff6020610ff1565b3d915061100c565b509190346102af5760603660031901126102af5761105b6112f9565b611063611314565b6044358260601b91602095338752600c93637f5e9f208117855260348520805460001981036110f2575b50506387a211a21784528684208054988985116106175750836001600160a01b03969798990390555285822081815401905585525160601c91167fddf252ad1be2c89b69c2b068fc378daa952ba7f163c4a11628f55a4df523b3ef8480a35160018152f35b8086116111095785900390556387a211a23861108d565b8a6313be252b8552601cfd5b509190346102af5760203660031901126102af576111316112f9565b9082549160ff8316156111e05760ff19928316845561114e611410565b6001600160a01b0391828216927f00000000000000000000000000000000000000000000000000000000000000001683146111d157600194955061119e61119530846116a3565b8093339061165a565b519081527f6d25be279134f4ecaa4770aff0c3d916d9e7c5ef37b65ed95dbdba411f5d54d560203392a382541617815580f35b5163b5d8f39160e01b81528590fd5b81516306fda65d60e31b81528590fd5b5050346102af57816003193601126102af576020906805345cdf77eb68f44c549051908152f35b5050346102af57806003193601126102af576020916112346112f9565b602435908452637f5e9f20600c52338252806034600c20558152602c5160601c907f8c5be1e5ebec7d5bd14f71427d1e84f3dd0314c0f7b2291e5b200ac8c7c3b925843392a35160018152f35b5050346102af57816003193601126102af5761091a9061129f61138c565b9051918291826112cd565b60005b8381106112bd5750506000910152565b81810151838201526020016112ad565b604091602082526112ed81518092816020860152602086860191016112aa565b601f01601f1916010190565b600435906001600160a01b038216820361130f57565b600080fd5b602435906001600160a01b038216820361130f57565b604435906001600160a01b038216820361130f57565b67ffffffffffffffff811161135457604052565b634e487b7160e01b600052604160045260246000fd5b90601f8019910116810190811067ffffffffffffffff82111761135457604052565b604051906040820182811067ffffffffffffffff82111761135457604052601282527f4379676e75733a20436f6c6c61746572616c00000000000000000000000000006020830152565b6805345cdf77eb68f44c54600090806113f7575050670de0b6b3a764000090565b6001600160a01b0361140d925460081c166115e0565b90565b6040516303e1469160e61b81526001600160a01b03906020816004817f000000000000000000000000000000000000000000000000000000000000000086165afa9081156114b65760009161147c575b5016330361146a57565b6040516331d63ad160e11b8152600490fd5b6020813d82116114ae575b816114946020938361136a565b810103126102af5751908282168203610738575038611460565b3d9150611487565b6040513d6000823e3d90fd5b7f3145c2b643834867f2c0a8cac8a48218307687911615c0ed01412a09dd163b666020611517611512307f00000000000000000000000000000000000000000000000000000000000000006116a3565b611623565b6000547fffffffffffffffffffffff0000000000000000000000000000000000000000ff74ffffffffffffffffffffffffffffffffffffffff008360081b169116176000556001600160a01b0360405191168152a1565b60a060405161157b61138c565b602081519101207f8b73c3c69bb8fe3d512ecc4cf759cc79239f7b179b0ffacaa9a75d522b39400f825260208201527fc89efdaa54c0f20c7adf612882df0950f5a951637e0307cdcb4c672f298b8bc660408201524660608201523060808201522090565b670de0b6b3a7640000907812725dd1d243aba0e75fe645cc4873f9e65afe688c928e1f21811182021583021561161557020490565b637c5f487d6000526004601cfd5b7401000000000000000000000000000000000000000081101561164c576001600160a01b031690565b6335278d126000526004601cfd5b60109260209260145260345260446000938480936fa9059cbb00000000000000000000000082525af13d15600183511417161561169657603452565b6390b8ec1890526004601cfd5b602460106020939284936014526f70a082310000000000000000000000006000525afa601f3d1116602051029056fea26469706673582212200151d70baf43a432cfae8ec327860f303d3a2ec657745fbdef3cd37c60ffc64e64736f6c63430008110033","opcodes":"PUSH2 0x120 DUP1 PUSH1 0x40 MSTORE CALLVALUE PUSH3 0x172 JUMPI PUSH1 0x0 DUP1 SLOAD PUSH1 0xFF NOT AND PUSH1 0x1 OR DUP2 SSTORE PUSH4 0x5A412E53 PUSH1 0xE0 SHL DUP1 DUP4 MSTORE PUSH1 0xA0 SWAP3 DUP4 DUP2 PUSH1 0x4 DUP2 DUP7 CALLER GAS CALL DUP1 ISZERO PUSH3 0x167 JUMPI DUP4 SWAP2 DUP5 SWAP2 DUP6 SWAP2 DUP7 SWAP2 PUSH3 0x13E JUMPI JUMPDEST POP PUSH1 0xE0 MSTORE DUP6 MSTORE PUSH1 0xC0 MSTORE PUSH1 0x80 MSTORE PUSH8 0xD2F13F7789F0000 PUSH1 0x1 SSTORE PUSH8 0xE5D0F042E878000 PUSH1 0x2 SSTORE PUSH1 0x40 MLOAD SWAP1 DUP2 MSTORE DUP3 DUP2 PUSH1 0x4 DUP2 DUP6 CALLER GAS CALL SWAP2 DUP3 ISZERO PUSH3 0x132 JUMPI SWAP2 PUSH3 0xF9 JUMPI JUMPDEST POP PUSH2 0x100 SWAP1 DUP2 MSTORE PUSH1 0x40 MLOAD SWAP1 PUSH2 0x1708 SWAP3 DUP4 PUSH3 0x220 DUP5 CODECOPY PUSH1 0x80 MLOAD DUP4 DUP2 DUP2 PUSH2 0x2D3 ADD MSTORE PUSH2 0x142E ADD MSTORE MLOAD DUP3 PUSH2 0x355 ADD MSTORE PUSH1 0xC0 MLOAD DUP3 DUP2 DUP2 PUSH2 0x5B4 ADD MSTORE DUP2 DUP2 PUSH2 0x881 ADD MSTORE DUP2 DUP2 PUSH2 0xA52 ADD MSTORE DUP2 DUP2 PUSH2 0xE47 ADD MSTORE DUP2 DUP2 PUSH2 0xFC1 ADD MSTORE DUP2 DUP2 PUSH2 0x115D ADD MSTORE PUSH2 0x14EE ADD MSTORE PUSH1 0xE0 MLOAD DUP3 PUSH2 0xEAD ADD MSTORE MLOAD DUP2 PUSH2 0x28B ADD MSTORE RETURN JUMPDEST PUSH3 0x11E SWAP2 POP DUP3 RETURNDATASIZE DUP5 GT PUSH3 0x12A JUMPI JUMPDEST PUSH3 0x115 DUP2 DUP4 PUSH3 0x177 JUMP JUMPDEST DUP2 ADD SWAP1 PUSH3 0x1C6 JUMP JUMPDEST POP POP SWAP2 POP POP CODESIZE PUSH3 0x87 JUMP JUMPDEST POP RETURNDATASIZE PUSH3 0x109 JUMP JUMPDEST PUSH1 0x40 MLOAD SWAP1 RETURNDATASIZE SWAP1 DUP3 RETURNDATACOPY RETURNDATASIZE SWAP1 REVERT JUMPDEST SWAP3 POP POP POP PUSH3 0x15D SWAP2 POP DUP5 RETURNDATASIZE DUP7 GT PUSH3 0x12A JUMPI PUSH3 0x115 DUP2 DUP4 PUSH3 0x177 JUMP JUMPDEST SWAP2 POP SWAP1 CODESIZE PUSH3 0x45 JUMP JUMPDEST PUSH1 0x40 MLOAD RETURNDATASIZE DUP6 DUP3 RETURNDATACOPY RETURNDATASIZE SWAP1 REVERT JUMPDEST PUSH1 0x0 DUP1 REVERT JUMPDEST PUSH1 0x1F SWAP1 SWAP2 ADD PUSH1 0x1F NOT AND DUP2 ADD SWAP1 PUSH1 0x1 PUSH1 0x1 PUSH1 0x40 SHL SUB DUP3 GT SWAP1 DUP3 LT OR PUSH3 0x19B JUMPI PUSH1 0x40 MSTORE JUMP JUMPDEST PUSH4 0x4E487B71 PUSH1 0xE0 SHL PUSH1 0x0 MSTORE PUSH1 0x41 PUSH1 0x4 MSTORE PUSH1 0x24 PUSH1 0x0 REVERT JUMPDEST MLOAD SWAP1 PUSH1 0x1 PUSH1 0x1 PUSH1 0xA0 SHL SUB DUP3 AND DUP3 SUB PUSH3 0x172 JUMPI JUMP JUMPDEST SWAP2 SWAP1 DUP3 PUSH1 0xA0 SWAP2 SUB SLT PUSH3 0x172 JUMPI DUP2 MLOAD PUSH1 0x1 PUSH1 0x1 PUSH1 0xA0 SHL SUB SWAP1 DUP2 DUP2 AND DUP2 SUB PUSH3 0x172 JUMPI SWAP3 PUSH3 0x1F7 PUSH1 0x20 DUP3 ADD PUSH3 0x1B1 JUMP JUMPDEST SWAP3 PUSH3 0x206 PUSH1 0x40 DUP4 ADD PUSH3 0x1B1 JUMP JUMPDEST SWAP3 PUSH1 0x60 DUP4 ADD MLOAD SWAP1 DUP2 AND DUP2 SUB PUSH3 0x172 JUMPI PUSH1 0x80 SWAP1 SWAP3 ADD MLOAD SWAP1 JUMP INVALID PUSH1 0x40 PUSH1 0x80 DUP2 MSTORE PUSH1 0x4 SWAP1 DUP2 CALLDATASIZE LT ISZERO PUSH2 0x15 JUMPI PUSH1 0x0 DUP1 REVERT JUMPDEST PUSH1 0x0 SWAP2 DUP3 CALLDATALOAD PUSH1 0xE0 SHR DUP1 PUSH4 0x6FDDE03 EQ PUSH2 0x1281 JUMPI DUP1 PUSH4 0x95EA7B3 EQ PUSH2 0x1217 JUMPI DUP1 PUSH4 0x18160DDD EQ PUSH2 0x11F0 JUMPI DUP1 PUSH4 0x1BE19560 EQ PUSH2 0x1115 JUMPI DUP1 PUSH4 0x23B872DD EQ PUSH2 0x103F JUMPI DUP1 PUSH4 0x313CE567 EQ PUSH2 0xF94 JUMPI DUP1 PUSH4 0x3644E515 EQ PUSH2 0xF77 JUMPI DUP1 PUSH4 0x39509351 EQ PUSH2 0xEF4 JUMPI DUP1 PUSH4 0x3BA0B9A9 EQ PUSH2 0xED0 JUMPI DUP1 PUSH4 0x5F77F891 EQ PUSH2 0xE95 JUMPI DUP1 PUSH4 0x6AFDD850 EQ PUSH2 0xE6B JUMPI DUP1 PUSH4 0x6F307DC3 EQ PUSH2 0xE27 JUMPI DUP1 PUSH4 0x70A08231 EQ PUSH2 0xDF3 JUMPI DUP1 PUSH4 0x7ECEBE00 EQ PUSH2 0xDBF JUMPI DUP1 PUSH4 0x8808E71C EQ PUSH2 0x9EA JUMPI DUP1 PUSH4 0x8C765E94 EQ PUSH2 0x9CB JUMPI DUP1 PUSH4 0x95D89B41 EQ PUSH2 0x85C JUMPI DUP1 PUSH4 0xA36A3630 EQ PUSH2 0x83D JUMPI DUP1 PUSH4 0xA457C2D7 EQ PUSH2 0x7B9 JUMPI DUP1 PUSH4 0xA8431081 EQ PUSH2 0x73B JUMPI DUP1 PUSH4 0xA9059CBB EQ PUSH2 0x6AD JUMPI DUP1 PUSH4 0xAD7A672F EQ PUSH2 0x684 JUMPI DUP1 PUSH4 0xBA087652 EQ PUSH2 0x4ED JUMPI DUP1 PUSH4 0xCEA55F57 EQ PUSH2 0x4CE JUMPI DUP1 PUSH4 0xD505ACCF EQ PUSH2 0x379 JUMPI DUP1 PUSH4 0xD935BD92 EQ PUSH2 0x335 JUMPI DUP1 PUSH4 0xDD62ED3E EQ PUSH2 0x2F7 JUMPI DUP1 PUSH4 0xE8A24E1D EQ PUSH2 0x2B3 JUMPI DUP1 PUSH4 0xE99A6AC7 EQ PUSH2 0x26B JUMPI DUP1 PUSH4 0xEB6A887D EQ PUSH2 0x1ED JUMPI PUSH4 0xFEF0BEC8 EQ PUSH2 0x176 JUMPI PUSH1 0x0 DUP1 REVERT JUMPDEST CALLVALUE PUSH2 0x1E9 JUMPI PUSH1 0x20 CALLDATASIZE PUSH1 0x3 NOT ADD SLT PUSH2 0x1E9 JUMPI DUP1 CALLDATALOAD SWAP1 PUSH2 0x192 PUSH2 0x1410 JUMP JUMPDEST PUSH8 0x16345785D8A0000 DUP3 GT PUSH2 0x1DB JUMPI POP SWAP1 PUSH32 0x87272249F1056EC16A68DD9255101358246DD26A796E2F0BC6B3A0AD02F2DE41 SWAP2 PUSH1 0x3 SLOAD SWAP1 DUP1 PUSH1 0x3 SSTORE DUP3 MLOAD SWAP2 DUP3 MSTORE PUSH1 0x20 DUP3 ADD MSTORE LOG1 DUP1 RETURN JUMPDEST DUP3 MLOAD PUSH4 0x58B4CB3 PUSH1 0xE1 SHL DUP2 MSTORE REVERT JUMPDEST DUP3 DUP1 REVERT JUMPDEST POP CALLVALUE PUSH2 0x1E9 JUMPI PUSH1 0x20 CALLDATASIZE PUSH1 0x3 NOT ADD SLT PUSH2 0x1E9 JUMPI DUP1 CALLDATALOAD SWAP1 PUSH2 0x20A PUSH2 0x1410 JUMP JUMPDEST PUSH8 0xB1A2BC2EC500000 DUP3 LT DUP1 ISZERO PUSH2 0x25A JUMPI JUMPDEST PUSH2 0x1DB JUMPI POP SWAP1 PUSH32 0xF25D2243E4128E51523D8537F04F18C3E6390BBFC6323390A9A8E59B921CE046 SWAP2 PUSH1 0x1 SLOAD SWAP1 DUP1 PUSH1 0x1 SSTORE DUP3 MLOAD SWAP2 DUP3 MSTORE PUSH1 0x20 DUP3 ADD MSTORE LOG1 DUP1 RETURN JUMPDEST POP PUSH8 0xDE0B6B3A7640000 DUP3 GT PUSH2 0x21C JUMP JUMPDEST POP POP CALLVALUE PUSH2 0x2AF JUMPI DUP2 PUSH1 0x3 NOT CALLDATASIZE ADD SLT PUSH2 0x2AF JUMPI PUSH1 0x20 SWAP1 MLOAD PUSH1 0x1 PUSH1 0x1 PUSH1 0xA0 SHL SUB PUSH32 0x0 AND DUP2 MSTORE RETURN JUMPDEST POP DUP1 REVERT JUMPDEST POP POP CALLVALUE PUSH2 0x2AF JUMPI DUP2 PUSH1 0x3 NOT CALLDATASIZE ADD SLT PUSH2 0x2AF JUMPI PUSH1 0x20 SWAP1 MLOAD PUSH1 0x1 PUSH1 0x1 PUSH1 0xA0 SHL SUB PUSH32 0x0 AND DUP2 MSTORE RETURN JUMPDEST POP POP CALLVALUE PUSH2 0x2AF JUMPI DUP1 PUSH1 0x3 NOT CALLDATASIZE ADD SLT PUSH2 0x2AF JUMPI PUSH1 0x20 SWAP2 PUSH2 0x314 PUSH2 0x12F9 JUMP JUMPDEST SWAP1 PUSH2 0x31D PUSH2 0x1314 JUMP JUMPDEST DUP5 MSTORE PUSH4 0x7F5E9F20 PUSH1 0xC MSTORE MSTORE PUSH1 0x34 PUSH1 0xC KECCAK256 SLOAD SWAP1 MLOAD SWAP1 DUP2 MSTORE RETURN JUMPDEST POP POP CALLVALUE PUSH2 0x2AF JUMPI DUP2 PUSH1 0x3 NOT CALLDATASIZE ADD SLT PUSH2 0x2AF JUMPI PUSH1 0x20 SWAP1 MLOAD PUSH1 0x1 PUSH1 0x1 PUSH1 0xA0 SHL SUB PUSH32 0x0 AND DUP2 MSTORE RETURN JUMPDEST POP SWAP1 CALLVALUE PUSH2 0x1E9 JUMPI PUSH1 0xE0 CALLDATASIZE PUSH1 0x3 NOT ADD SLT PUSH2 0x1E9 JUMPI PUSH2 0x394 PUSH2 0x12F9 JUMP JUMPDEST SWAP2 PUSH2 0x39D PUSH2 0x1314 JUMP JUMPDEST PUSH1 0x84 CALLDATALOAD SWAP2 PUSH1 0x64 CALLDATALOAD PUSH1 0x44 CALLDATALOAD PUSH1 0xFF DUP6 AND DUP6 SUB PUSH2 0x4CA JUMPI PUSH2 0x3B9 PUSH2 0x156E JUMP JUMPDEST SWAP3 DUP7 MLOAD SWAP8 DUP4 TIMESTAMP GT PUSH2 0x4BE JUMPI PUSH1 0x1 PUSH1 0x1 PUSH1 0xA0 SHL SUB DUP1 SWAP2 AND SWAP6 AND SWAP6 PUSH4 0x38377508 PUSH1 0xC MSTORE DUP6 DUP11 MSTORE PUSH1 0x20 SWAP5 DUP6 PUSH1 0xC KECCAK256 SWAP5 DUP6 SLOAD SWAP6 PUSH1 0x1 DUP8 ADD SWAP1 SSTORE PUSH32 0x6E71EDAE12B1B97F4D1F60370FEF10105FA2FAAE0126114A169C64845D6126C9 DUP12 MSTORE DUP8 DUP8 DUP13 ADD MSTORE DUP9 DUP11 DUP13 ADD MSTORE PUSH1 0x60 DUP12 ADD SWAP6 DUP6 DUP8 MSTORE PUSH1 0x80 DUP13 ADD MSTORE PUSH1 0xA0 DUP12 ADD MSTORE PUSH2 0x1901 DUP12 MSTORE DUP6 MSTORE PUSH1 0xC0 DUP10 KECCAK256 DUP9 MSTORE PUSH1 0x42 PUSH1 0x1E KECCAK256 DUP11 MSTORE PUSH1 0xFF AND DUP5 MSTORE PUSH1 0xA4 CALLDATALOAD DUP8 MSTORE PUSH1 0xC4 CALLDATALOAD PUSH1 0x60 MSTORE DUP4 DUP1 PUSH1 0x80 DUP12 PUSH1 0x1 GAS STATICCALL POP DUP5 RETURNDATASIZE MLOAD SUB PUSH2 0x4B3 JUMPI POP PUSH24 0x7F5E9F200000000000000000000000000000000000000000 DUP6 OR DUP7 MSTORE PUSH1 0x34 PUSH1 0x2C KECCAK256 SSTORE PUSH32 0x8C5BE1E5EBEC7D5BD14F71427D1E84F3DD0314C0F7B2291E5B200AC8C7C3B925 SWAP2 SWAP1 LOG3 MSTORE DUP1 PUSH1 0x60 MSTORE DUP1 RETURN JUMPDEST PUSH4 0xDDAFBAEF DUP10 MSTORE PUSH1 0x1C REVERT JUMPDEST POP PUSH4 0x1A15A3CC DUP10 MSTORE PUSH1 0x1C REVERT JUMPDEST DUP8 DUP1 REVERT JUMPDEST POP POP CALLVALUE PUSH2 0x2AF JUMPI DUP2 PUSH1 0x3 NOT CALLDATASIZE ADD SLT PUSH2 0x2AF JUMPI PUSH1 0x20 SWAP1 PUSH1 0x1 SLOAD SWAP1 MLOAD SWAP1 DUP2 MSTORE RETURN JUMPDEST POP SWAP2 SWAP1 CALLVALUE PUSH2 0x2AF JUMPI PUSH1 0x60 CALLDATASIZE PUSH1 0x3 NOT ADD SLT PUSH2 0x2AF JUMPI DUP3 CALLDATALOAD SWAP2 PUSH2 0x50C PUSH2 0x1314 JUMP JUMPDEST SWAP3 PUSH2 0x515 PUSH2 0x132A JUMP JUMPDEST SWAP4 PUSH1 0x1 PUSH1 0x1 PUSH1 0xA0 SHL SUB SWAP1 DUP2 DUP7 AND SWAP4 DUP5 CALLER SUB PUSH2 0x63E JUMPI JUMPDEST PUSH2 0x533 PUSH2 0x13D6 JUMP JUMPDEST DUP1 PUSH1 0x0 NOT DIV DUP6 GT DUP2 MUL PUSH2 0x632 JUMPI PUSH8 0xDE0B6B3A7640000 SWAP1 DUP6 MUL DIV SWAP7 DUP8 ISZERO PUSH2 0x622 JUMPI PUSH4 0x87A211A2 PUSH1 0xC MSTORE DUP2 MSTORE PUSH1 0x20 PUSH1 0xC KECCAK256 DUP1 SLOAD SWAP9 DUP10 DUP7 GT PUSH2 0x617 JUMPI POP DUP5 PUSH1 0x20 SWAP10 SUB SWAP1 SSTORE PUSH9 0x5345CDF77EB68F44C DUP5 DUP2 SLOAD SUB SWAP1 SSTORE DUP4 DUP2 MSTORE DUP5 PUSH32 0xDDF252AD1BE2C89B69C2B068FC378DAA952BA7F163C4A11628F55A4DF523B3EF DUP10 DUP4 LOG3 PUSH2 0x5D8 DUP7 DUP3 PUSH32 0x0 PUSH2 0x165A JUMP JUMPDEST DUP5 MLOAD SWAP3 DUP7 DUP5 MSTORE DUP8 DUP5 ADD MSTORE AND SWAP1 PUSH32 0xFBDE797D201C681B91056529119E0B02407C7BB96A4A2C75C01FC9667232C8DB DUP5 CALLER SWAP3 LOG4 PUSH2 0x611 PUSH2 0x14C2 JUMP JUMPDEST MLOAD SWAP1 DUP2 MSTORE RETURN JUMPDEST PUSH4 0xF4D678B8 DUP4 MSTORE PUSH1 0x1C REVERT JUMPDEST DUP7 MLOAD PUSH4 0xE3E8D297 PUSH1 0xE0 SHL DUP2 MSTORE DUP10 SWAP1 REVERT JUMPDEST DUP9 PUSH4 0xBAC65E5B DUP4 MSTORE PUSH1 0x1C REVERT JUMPDEST CALLER PUSH1 0x20 MSTORE PUSH4 0x7F5E9F20 PUSH1 0xC MSTORE DUP7 DUP2 MSTORE PUSH1 0x34 PUSH1 0xC KECCAK256 DUP1 SLOAD PUSH1 0x0 NOT DUP2 SUB PUSH2 0x665 JUMPI JUMPDEST POP POP PUSH2 0x52B JUMP JUMPDEST DUP1 DUP7 GT PUSH2 0x678 JUMPI DUP6 SWAP1 SUB SWAP1 SSTORE CODESIZE DUP1 PUSH2 0x65E JUMP JUMPDEST DUP10 PUSH4 0x13BE252B DUP5 MSTORE PUSH1 0x1C REVERT JUMPDEST POP POP CALLVALUE PUSH2 0x2AF JUMPI DUP2 PUSH1 0x3 NOT CALLDATASIZE ADD SLT PUSH2 0x2AF JUMPI PUSH1 0x1 PUSH1 0x1 PUSH1 0xA0 SHL SUB PUSH1 0x20 SWAP3 SLOAD PUSH1 0x8 SHR AND SWAP1 MLOAD SWAP1 DUP2 MSTORE RETURN JUMPDEST POP SWAP2 CALLVALUE PUSH2 0x738 JUMPI DUP2 PUSH1 0x3 NOT CALLDATASIZE ADD SLT PUSH2 0x738 JUMPI PUSH2 0x6C7 PUSH2 0x12F9 JUMP JUMPDEST PUSH1 0x24 CALLDATALOAD SWAP2 PUSH4 0x87A211A2 PUSH1 0xC MSTORE CALLER DUP2 MSTORE PUSH1 0x20 SWAP5 DUP6 PUSH1 0xC KECCAK256 SWAP1 DUP2 SLOAD SWAP1 DUP2 DUP7 GT PUSH2 0x72D JUMPI POP DUP5 SWAP1 SUB SWAP1 SSTORE MSTORE DUP3 PUSH1 0xC KECCAK256 DUP2 DUP2 SLOAD ADD SWAP1 SSTORE DUP3 MSTORE PUSH1 0xC MLOAD PUSH1 0x60 SHR CALLER PUSH32 0xDDF252AD1BE2C89B69C2B068FC378DAA952BA7F163C4A11628F55A4DF523B3EF DUP5 DUP1 LOG3 MLOAD PUSH1 0x1 DUP2 MSTORE RETURN JUMPDEST PUSH4 0xF4D678B8 DUP5 MSTORE PUSH1 0x1C REVERT JUMPDEST DUP1 REVERT JUMPDEST POP CALLVALUE PUSH2 0x1E9 JUMPI PUSH1 0x20 CALLDATASIZE PUSH1 0x3 NOT ADD SLT PUSH2 0x1E9 JUMPI DUP1 CALLDATALOAD SWAP1 PUSH2 0x758 PUSH2 0x1410 JUMP JUMPDEST PUSH8 0xDE0B6B3A7640000 DUP3 LT DUP1 ISZERO PUSH2 0x7A8 JUMPI JUMPDEST PUSH2 0x1DB JUMPI POP SWAP1 PUSH32 0xAEBA5A6C40A8AC138134BFF1AAA65DEBF25971188A58804BAD717F82F0EC1316 SWAP2 PUSH1 0x2 SLOAD SWAP1 DUP1 PUSH1 0x2 SSTORE DUP3 MLOAD SWAP2 DUP3 MSTORE PUSH1 0x20 DUP3 ADD MSTORE LOG1 DUP1 RETURN JUMPDEST POP PUSH8 0xFF59EE833B30000 DUP3 GT PUSH2 0x76A JUMP JUMPDEST POP SWAP2 CALLVALUE PUSH2 0x738 JUMPI DUP2 PUSH1 0x3 NOT CALLDATASIZE ADD SLT PUSH2 0x738 JUMPI PUSH2 0x7D3 PUSH2 0x12F9 JUMP JUMPDEST PUSH1 0x24 CALLDATALOAD SWAP1 PUSH1 0x20 MSTORE PUSH4 0x7F5E9F20 PUSH1 0xC MSTORE CALLER DUP3 MSTORE PUSH1 0x34 PUSH1 0xC KECCAK256 SWAP1 DUP2 SLOAD DUP2 DUP2 LT PUSH2 0x831 JUMPI PUSH1 0x20 SWAP6 POP SUB DUP1 SWAP2 SSTORE DUP2 MSTORE PUSH1 0x2C MLOAD PUSH1 0x60 SHR SWAP1 PUSH32 0x8C5BE1E5EBEC7D5BD14F71427D1E84F3DD0314C0F7B2291E5B200AC8C7C3B925 DUP5 CALLER SWAP3 LOG3 MLOAD PUSH1 0x1 DUP2 MSTORE RETURN JUMPDEST DUP6 PUSH4 0x8301AB38 DUP6 MSTORE PUSH1 0x1C REVERT JUMPDEST POP POP CALLVALUE PUSH2 0x2AF JUMPI DUP2 PUSH1 0x3 NOT CALLDATASIZE ADD SLT PUSH2 0x2AF JUMPI PUSH1 0x20 SWAP1 PUSH1 0x3 SLOAD SWAP1 MLOAD SWAP1 DUP2 MSTORE RETURN JUMPDEST POP SWAP1 CALLVALUE PUSH2 0x1E9 JUMPI DUP3 PUSH1 0x3 NOT CALLDATASIZE ADD SLT PUSH2 0x1E9 JUMPI DUP1 MLOAD PUSH4 0x95D89B41 PUSH1 0xE0 SHL DUP2 MSTORE SWAP3 DUP1 DUP5 DUP5 DUP2 PUSH32 0x0 PUSH1 0x1 PUSH1 0x1 PUSH1 0xA0 SHL SUB AND GAS STATICCALL SWAP3 DUP4 ISZERO PUSH2 0x9BF JUMPI DUP2 SWAP4 PUSH2 0x91E JUMPI JUMPDEST PUSH2 0x91A DUP5 DUP5 PUSH2 0x910 PUSH1 0x27 DUP3 MLOAD DUP1 SWAP5 PUSH32 0x4379674C503A2000000000000000000000000000000000000000000000000000 PUSH1 0x20 DUP4 ADD MSTORE PUSH2 0x900 DUP2 MLOAD DUP1 SWAP3 PUSH1 0x20 DUP7 DUP7 ADD SWAP2 ADD PUSH2 0x12AA JUMP JUMPDEST DUP2 ADD SUB PUSH1 0x7 DUP2 ADD DUP6 MSTORE ADD DUP4 PUSH2 0x136A JUMP JUMPDEST MLOAD SWAP2 DUP3 SWAP2 DUP3 PUSH2 0x12CD JUMP JUMPDEST SUB SWAP1 RETURN JUMPDEST SWAP1 SWAP2 SWAP3 POP RETURNDATASIZE DUP1 DUP4 DUP7 RETURNDATACOPY PUSH2 0x931 DUP2 DUP7 PUSH2 0x136A JUMP JUMPDEST DUP5 ADD SWAP2 PUSH1 0x20 DUP6 DUP5 SUB SLT PUSH2 0x738 JUMPI DUP5 MLOAD PUSH8 0xFFFFFFFFFFFFFFFF SWAP6 DUP7 DUP3 GT PUSH2 0x1E9 JUMPI ADD SWAP2 DUP4 PUSH1 0x1F DUP5 ADD SLT ISZERO PUSH2 0x2AF JUMPI DUP3 MLOAD SWAP6 DUP7 GT PUSH2 0x9AA JUMPI POP DUP4 MLOAD SWAP3 PUSH2 0x97F PUSH1 0x1F DUP8 ADD PUSH1 0x1F NOT AND PUSH1 0x20 ADD DUP6 PUSH2 0x136A JUMP JUMPDEST DUP6 DUP5 MSTORE PUSH1 0x20 DUP7 DUP5 ADD ADD GT PUSH2 0x738 JUMPI POP PUSH2 0x91A SWAP4 PUSH2 0x9A2 SWAP2 PUSH1 0x20 DUP1 DUP6 ADD SWAP2 ADD PUSH2 0x12AA JUMP JUMPDEST SWAP1 CODESIZE DUP1 PUSH2 0x8B9 JUMP JUMPDEST PUSH1 0x41 SWAP1 PUSH4 0x4E487B71 PUSH1 0xE0 SHL PUSH1 0x0 MSTORE MSTORE PUSH1 0x24 PUSH1 0x0 REVERT JUMPDEST POP SWAP1 MLOAD SWAP1 RETURNDATASIZE SWAP1 DUP3 RETURNDATACOPY RETURNDATASIZE SWAP1 REVERT JUMPDEST POP POP CALLVALUE PUSH2 0x2AF JUMPI DUP2 PUSH1 0x3 NOT CALLDATASIZE ADD SLT PUSH2 0x2AF JUMPI PUSH1 0x20 SWAP1 PUSH1 0x2 SLOAD SWAP1 MLOAD SWAP1 DUP2 MSTORE RETURN JUMPDEST POP SWAP2 SWAP1 CALLVALUE PUSH2 0x2AF JUMPI PUSH2 0x120 CALLDATASIZE PUSH1 0x3 NOT ADD SLT PUSH2 0x2AF JUMPI DUP3 CALLDATALOAD PUSH2 0xA09 PUSH2 0x1314 JUMP JUMPDEST SWAP4 PUSH1 0xC0 CALLDATASIZE PUSH1 0x43 NOT ADD SLT PUSH2 0xDBB JUMPI PUSH8 0xFFFFFFFFFFFFFFFF SWAP1 PUSH2 0x104 DUP1 CALLDATALOAD DUP4 DUP2 GT PUSH2 0xDB7 JUMPI CALLDATASIZE PUSH1 0x23 DUP3 ADD SLT ISZERO PUSH2 0xDB7 JUMPI DUP1 DUP4 ADD CALLDATALOAD SWAP4 DUP5 GT PUSH2 0xDB7 JUMPI PUSH1 0x24 SWAP2 CALLDATASIZE DUP4 DUP7 DUP5 ADD ADD GT PUSH2 0x4CA JUMPI PUSH32 0x0 SWAP5 PUSH2 0xA7C ADDRESS DUP8 PUSH2 0x16A3 JUMP JUMPDEST SWAP3 DUP2 PUSH2 0xCA9 JUMPI JUMPDEST POP POP POP PUSH2 0xA8F DUP6 PUSH2 0x1623 JUMP JUMPDEST SWAP4 PUSH15 0x22D473030F116DDEE9F6B43AC78BA3 DUP1 EXTCODESIZE ISZERO PUSH2 0xCA5 JUMPI DUP9 DUP1 SWAP2 PUSH1 0x84 DUP11 MLOAD DUP1 SWAP5 DUP2 SWAP4 PUSH4 0x1B63C28B PUSH1 0xE1 SHL DUP4 MSTORE CALLER DUP12 DUP5 ADD MSTORE ADDRESS DUP11 DUP5 ADD MSTORE PUSH1 0x1 PUSH1 0x1 PUSH1 0xA0 SHL SUB DUP1 SWAP13 AND PUSH1 0x44 DUP5 ADD MSTORE DUP12 DUP9 AND PUSH1 0x64 DUP5 ADD MSTORE GAS CALL DUP1 ISZERO PUSH2 0xC9B JUMPI SWAP1 DUP10 SWAP2 PUSH2 0xC87 JUMPI JUMPDEST POP POP PUSH2 0xAFB SWAP1 ADDRESS SWAP1 PUSH2 0x16A3 JUMP JUMPDEST SWAP1 DUP2 SUB SWAP1 DUP2 GT PUSH2 0xC73 JUMPI PUSH2 0xB17 SWAP1 PUSH2 0xB11 PUSH2 0x13D6 JUMP JUMPDEST SWAP1 PUSH2 0x15E0 JUMP JUMPDEST SWAP6 DUP7 ISZERO PUSH2 0xC63 JUMPI PUSH9 0x5345CDF77EB68F44C SWAP2 DUP3 SLOAD SWAP2 DUP3 ISZERO PUSH2 0xBD2 JUMPI JUMPDEST POP POP POP DUP1 SLOAD SWAP2 DUP7 DUP4 ADD SWAP3 DUP4 LT PUSH2 0xBC6 JUMPI POP SSTORE PUSH4 0x87A211A2 PUSH1 0xC MSTORE DUP5 PUSH1 0x0 MSTORE PUSH1 0x20 SWAP5 DUP6 PUSH1 0xC KECCAK256 DUP6 DUP2 SLOAD ADD SWAP1 SSTORE DUP5 DUP7 MSTORE PUSH1 0xC MLOAD PUSH1 0x60 SHR PUSH1 0x0 PUSH32 0xDDF252AD1BE2C89B69C2B068FC378DAA952BA7F163C4A11628F55A4DF523B3EF DUP9 DUP1 LOG3 DUP4 MLOAD SWAP3 DUP4 MSTORE DUP5 DUP7 DUP5 ADD MSTORE AND SWAP1 PUSH32 0xDCBC1C05240F31FF3AD067EF1EE35CE4997762752E3A095284754544F4C709D7 DUP4 CALLER SWAP3 LOG3 PUSH2 0x611 PUSH2 0x14C2 JUMP JUMPDEST PUSH4 0xE5CFE957 PUSH1 0x0 MSTORE PUSH1 0x1C REVERT JUMPDEST SWAP2 SWAP8 PUSH2 0x3E7 NOT DUP2 ADD SWAP3 SWAP1 DUP4 GT PUSH2 0xC53 JUMPI POP POP SWAP6 PUSH2 0x3E8 SWAP1 DUP2 DUP2 ADD SWAP1 DUP2 LT PUSH2 0xC46 JUMPI DUP3 SSTORE PUSH4 0x87A211A2 PUSH1 0xC MSTORE PUSH2 0xDEAD PUSH1 0x0 MSTORE PUSH1 0x20 PUSH1 0xC KECCAK256 DUP2 DUP2 SLOAD ADD SWAP1 SSTORE PUSH1 0x20 MSTORE PUSH1 0xC MLOAD PUSH1 0x60 SHR PUSH1 0x0 PUSH32 0xDDF252AD1BE2C89B69C2B068FC378DAA952BA7F163C4A11628F55A4DF523B3EF PUSH1 0x20 DUP1 LOG3 CODESIZE DUP1 DUP1 PUSH2 0xB33 JUMP JUMPDEST DUP4 PUSH4 0xE5CFE957 PUSH1 0x0 MSTORE PUSH1 0x1C REVERT JUMPDEST PUSH4 0x4E487B71 PUSH1 0xE0 SHL DUP2 MSTORE PUSH1 0x11 DUP6 MSTORE REVERT JUMPDEST DUP6 MLOAD PUSH4 0xF1CA48B1 PUSH1 0xE0 SHL DUP2 MSTORE DUP4 SWAP1 REVERT JUMPDEST POP PUSH4 0x4E487B71 PUSH1 0xE0 SHL PUSH1 0x0 SWAP1 DUP2 MSTORE PUSH1 0x11 DUP4 MSTORE REVERT JUMPDEST PUSH2 0xC90 SWAP1 PUSH2 0x1340 JUMP JUMPDEST PUSH2 0x4CA JUMPI DUP8 CODESIZE PUSH2 0xAEE JUMP JUMPDEST DUP9 MLOAD RETURNDATASIZE DUP12 DUP3 RETURNDATACOPY RETURNDATASIZE SWAP1 REVERT JUMPDEST DUP9 DUP1 REVERT JUMPDEST PUSH15 0x22D473030F116DDEE9F6B43AC78BA3 SWAP2 DUP3 EXTCODESIZE ISZERO PUSH2 0xDB3 JUMPI DUP10 MLOAD PUSH4 0x2B67B57 PUSH1 0xE4 SHL DUP2 MSTORE CALLER DUP9 DUP3 ADD MSTORE SWAP4 PUSH1 0x1 PUSH1 0x1 PUSH1 0xA0 SHL SUB DUP1 PUSH2 0xCE4 PUSH2 0x132A JUMP JUMPDEST AND DUP9 DUP8 ADD MSTORE PUSH1 0x64 CALLDATALOAD DUP2 DUP2 AND DUP1 SWAP2 SUB PUSH2 0xDAB JUMPI PUSH1 0x44 DUP8 ADD MSTORE PUSH1 0x84 CALLDATALOAD PUSH6 0xFFFFFFFFFFFF SWAP1 DUP2 DUP2 AND DUP1 SWAP2 SUB PUSH2 0xDAF JUMPI PUSH1 0x64 DUP9 ADD MSTORE PUSH1 0xA4 CALLDATALOAD SWAP1 DUP2 AND DUP1 SWAP2 SUB PUSH2 0xDAB JUMPI PUSH1 0x84 DUP8 ADD MSTORE PUSH1 0xC4 CALLDATALOAD SWAP1 DUP2 AND DUP1 SWAP2 SUB PUSH2 0xDA7 JUMPI DUP6 SWAP4 DUP5 DUP5 DUP16 SWAP8 SWAP6 DUP3 SWAP6 DUP10 SWAP6 PUSH1 0xA4 DUP6 ADD MSTORE PUSH1 0xE4 CALLDATALOAD PUSH1 0xC4 DUP6 ADD MSTORE PUSH2 0x100 PUSH1 0xE4 DUP6 ADD MSTORE DUP4 ADD MSTORE DUP1 DUP12 PUSH2 0x124 SWAP5 ADD DUP5 DUP5 ADD CALLDATACOPY DUP2 DUP2 ADD DUP4 ADD DUP5 SWAP1 MSTORE PUSH1 0x1F ADD PUSH1 0x1F NOT AND DUP2 ADD SUB ADD SWAP3 GAS CALL DUP1 ISZERO PUSH2 0xD9D JUMPI PUSH2 0xD8A JUMPI JUMPDEST DUP1 DUP1 PUSH2 0xA83 JUMP JUMPDEST PUSH2 0xD96 SWAP1 SWAP8 SWAP2 SWAP8 PUSH2 0x1340 JUMP JUMPDEST SWAP6 CODESIZE PUSH2 0xD83 JUMP JUMPDEST DUP8 MLOAD RETURNDATASIZE DUP11 DUP3 RETURNDATACOPY RETURNDATASIZE SWAP1 REVERT JUMPDEST DUP13 DUP1 REVERT JUMPDEST DUP14 DUP1 REVERT JUMPDEST DUP15 DUP1 REVERT JUMPDEST DUP11 DUP1 REVERT JUMPDEST DUP7 DUP1 REVERT JUMPDEST DUP4 DUP1 REVERT JUMPDEST POP POP CALLVALUE PUSH2 0x2AF JUMPI PUSH1 0x20 CALLDATASIZE PUSH1 0x3 NOT ADD SLT PUSH2 0x2AF JUMPI PUSH1 0x20 SWAP2 PUSH2 0xDDD PUSH2 0x12F9 JUMP JUMPDEST SWAP1 PUSH4 0x38377508 PUSH1 0xC MSTORE MSTORE DUP2 PUSH1 0xC KECCAK256 SLOAD SWAP1 MLOAD SWAP1 DUP2 MSTORE RETURN JUMPDEST POP POP CALLVALUE PUSH2 0x2AF JUMPI PUSH1 0x20 CALLDATASIZE PUSH1 0x3 NOT ADD SLT PUSH2 0x2AF JUMPI PUSH1 0x20 SWAP2 PUSH2 0xE11 PUSH2 0x12F9 JUMP JUMPDEST SWAP1 PUSH4 0x87A211A2 PUSH1 0xC MSTORE MSTORE DUP2 PUSH1 0xC KECCAK256 SLOAD SWAP1 MLOAD SWAP1 DUP2 MSTORE RETURN JUMPDEST POP POP CALLVALUE PUSH2 0x2AF JUMPI DUP2 PUSH1 0x3 NOT CALLDATASIZE ADD SLT PUSH2 0x2AF JUMPI PUSH1 0x20 SWAP1 MLOAD PUSH1 0x1 PUSH1 0x1 PUSH1 0xA0 SHL SUB PUSH32 0x0 AND DUP2 MSTORE RETURN JUMPDEST POP POP CALLVALUE PUSH2 0x2AF JUMPI DUP2 PUSH1 0x3 NOT CALLDATASIZE ADD SLT PUSH2 0x2AF JUMPI PUSH1 0x20 SWAP1 MLOAD PUSH15 0x22D473030F116DDEE9F6B43AC78BA3 DUP2 MSTORE RETURN JUMPDEST POP POP CALLVALUE PUSH2 0x2AF JUMPI DUP2 PUSH1 0x3 NOT CALLDATASIZE ADD SLT PUSH2 0x2AF JUMPI PUSH1 0x20 SWAP1 MLOAD PUSH32 0x0 DUP2 MSTORE RETURN JUMPDEST POP POP CALLVALUE PUSH2 0x2AF JUMPI DUP2 PUSH1 0x3 NOT CALLDATASIZE ADD SLT PUSH2 0x2AF JUMPI PUSH1 0x20 SWAP1 PUSH2 0xEED PUSH2 0x13D6 JUMP JUMPDEST SWAP1 MLOAD SWAP1 DUP2 MSTORE RETURN JUMPDEST POP SWAP2 CALLVALUE PUSH2 0x738 JUMPI DUP2 PUSH1 0x3 NOT CALLDATASIZE ADD SLT PUSH2 0x738 JUMPI PUSH2 0xF0E PUSH2 0x12F9 JUMP JUMPDEST PUSH1 0x20 MSTORE PUSH4 0x7F5E9F20 PUSH1 0xC MSTORE CALLER DUP2 MSTORE PUSH1 0x34 PUSH1 0xC KECCAK256 SWAP3 DUP4 SLOAD SWAP1 PUSH1 0x24 CALLDATALOAD DUP3 ADD SWAP2 DUP3 LT PUSH2 0xF6C JUMPI POP DUP1 PUSH1 0x20 SWAP5 SSTORE DUP2 MSTORE PUSH1 0x2C MLOAD PUSH1 0x60 SHR SWAP1 PUSH32 0x8C5BE1E5EBEC7D5BD14F71427D1E84F3DD0314C0F7B2291E5B200AC8C7C3B925 DUP5 CALLER SWAP3 LOG3 MLOAD PUSH1 0x1 DUP2 MSTORE RETURN JUMPDEST PUSH4 0xF9067066 DUP4 MSTORE PUSH1 0x1C REVERT JUMPDEST POP POP CALLVALUE PUSH2 0x2AF JUMPI DUP2 PUSH1 0x3 NOT CALLDATASIZE ADD SLT PUSH2 0x2AF JUMPI PUSH1 0x20 SWAP1 PUSH2 0xEED PUSH2 0x156E JUMP JUMPDEST POP SWAP2 CALLVALUE PUSH2 0x738 JUMPI DUP1 PUSH1 0x3 NOT CALLDATASIZE ADD SLT PUSH2 0x738 JUMPI PUSH1 0x20 DUP3 MLOAD DUP1 SWAP5 PUSH4 0x313CE567 PUSH1 0xE0 SHL DUP3 MSTORE DUP2 PUSH1 0x1 PUSH1 0x1 PUSH1 0xA0 SHL SUB PUSH32 0x0 AND GAS STATICCALL SWAP3 DUP4 ISZERO PUSH2 0x9BF JUMPI DUP2 SWAP4 PUSH2 0xFFE JUMPI JUMPDEST PUSH1 0x20 DUP5 PUSH1 0xFF DUP6 MLOAD SWAP2 AND DUP2 MSTORE RETURN JUMPDEST SWAP1 SWAP3 POP PUSH1 0x20 DUP2 RETURNDATASIZE DUP3 GT PUSH2 0x1037 JUMPI JUMPDEST DUP2 PUSH2 0x1019 PUSH1 0x20 SWAP4 DUP4 PUSH2 0x136A JUMP JUMPDEST DUP2 ADD SUB SLT PUSH2 0x1E9 JUMPI MLOAD SWAP2 PUSH1 0xFF DUP4 AND DUP4 SUB PUSH2 0x738 JUMPI POP PUSH1 0xFF PUSH1 0x20 PUSH2 0xFF1 JUMP JUMPDEST RETURNDATASIZE SWAP2 POP PUSH2 0x100C JUMP JUMPDEST POP SWAP2 SWAP1 CALLVALUE PUSH2 0x2AF JUMPI PUSH1 0x60 CALLDATASIZE PUSH1 0x3 NOT ADD SLT PUSH2 0x2AF JUMPI PUSH2 0x105B PUSH2 0x12F9 JUMP JUMPDEST PUSH2 0x1063 PUSH2 0x1314 JUMP JUMPDEST PUSH1 0x44 CALLDATALOAD DUP3 PUSH1 0x60 SHL SWAP2 PUSH1 0x20 SWAP6 CALLER DUP8 MSTORE PUSH1 0xC SWAP4 PUSH4 0x7F5E9F20 DUP2 OR DUP6 MSTORE PUSH1 0x34 DUP6 KECCAK256 DUP1 SLOAD PUSH1 0x0 NOT DUP2 SUB PUSH2 0x10F2 JUMPI JUMPDEST POP POP PUSH4 0x87A211A2 OR DUP5 MSTORE DUP7 DUP5 KECCAK256 DUP1 SLOAD SWAP9 DUP10 DUP6 GT PUSH2 0x617 JUMPI POP DUP4 PUSH1 0x1 PUSH1 0x1 PUSH1 0xA0 SHL SUB SWAP7 SWAP8 SWAP9 SWAP10 SUB SWAP1 SSTORE MSTORE DUP6 DUP3 KECCAK256 DUP2 DUP2 SLOAD ADD SWAP1 SSTORE DUP6 MSTORE MLOAD PUSH1 0x60 SHR SWAP2 AND PUSH32 0xDDF252AD1BE2C89B69C2B068FC378DAA952BA7F163C4A11628F55A4DF523B3EF DUP5 DUP1 LOG3 MLOAD PUSH1 0x1 DUP2 MSTORE RETURN JUMPDEST DUP1 DUP7 GT PUSH2 0x1109 JUMPI DUP6 SWAP1 SUB SWAP1 SSTORE PUSH4 0x87A211A2 CODESIZE PUSH2 0x108D JUMP JUMPDEST DUP11 PUSH4 0x13BE252B DUP6 MSTORE PUSH1 0x1C REVERT JUMPDEST POP SWAP2 SWAP1 CALLVALUE PUSH2 0x2AF JUMPI PUSH1 0x20 CALLDATASIZE PUSH1 0x3 NOT ADD SLT PUSH2 0x2AF JUMPI PUSH2 0x1131 PUSH2 0x12F9 JUMP JUMPDEST SWAP1 DUP3 SLOAD SWAP2 PUSH1 0xFF DUP4 AND ISZERO PUSH2 0x11E0 JUMPI PUSH1 0xFF NOT SWAP3 DUP4 AND DUP5 SSTORE PUSH2 0x114E PUSH2 0x1410 JUMP JUMPDEST PUSH1 0x1 PUSH1 0x1 PUSH1 0xA0 SHL SUB SWAP2 DUP3 DUP3 AND SWAP3 PUSH32 0x0 AND DUP4 EQ PUSH2 0x11D1 JUMPI PUSH1 0x1 SWAP5 SWAP6 POP PUSH2 0x119E PUSH2 0x1195 ADDRESS DUP5 PUSH2 0x16A3 JUMP JUMPDEST DUP1 SWAP4 CALLER SWAP1 PUSH2 0x165A JUMP JUMPDEST MLOAD SWAP1 DUP2 MSTORE PUSH32 0x6D25BE279134F4ECAA4770AFF0C3D916D9E7C5EF37B65ED95DBDBA411F5D54D5 PUSH1 0x20 CALLER SWAP3 LOG3 DUP3 SLOAD AND OR DUP2 SSTORE DUP1 RETURN JUMPDEST MLOAD PUSH4 0xB5D8F391 PUSH1 0xE0 SHL DUP2 MSTORE DUP6 SWAP1 REVERT JUMPDEST DUP2 MLOAD PUSH4 0x6FDA65D PUSH1 0xE3 SHL DUP2 MSTORE DUP6 SWAP1 REVERT JUMPDEST POP POP CALLVALUE PUSH2 0x2AF JUMPI DUP2 PUSH1 0x3 NOT CALLDATASIZE ADD SLT PUSH2 0x2AF JUMPI PUSH1 0x20 SWAP1 PUSH9 0x5345CDF77EB68F44C SLOAD SWAP1 MLOAD SWAP1 DUP2 MSTORE RETURN JUMPDEST POP POP CALLVALUE PUSH2 0x2AF JUMPI DUP1 PUSH1 0x3 NOT CALLDATASIZE ADD SLT PUSH2 0x2AF JUMPI PUSH1 0x20 SWAP2 PUSH2 0x1234 PUSH2 0x12F9 JUMP JUMPDEST PUSH1 0x24 CALLDATALOAD SWAP1 DUP5 MSTORE PUSH4 0x7F5E9F20 PUSH1 0xC MSTORE CALLER DUP3 MSTORE DUP1 PUSH1 0x34 PUSH1 0xC KECCAK256 SSTORE DUP2 MSTORE PUSH1 0x2C MLOAD PUSH1 0x60 SHR SWAP1 PUSH32 0x8C5BE1E5EBEC7D5BD14F71427D1E84F3DD0314C0F7B2291E5B200AC8C7C3B925 DUP5 CALLER SWAP3 LOG3 MLOAD PUSH1 0x1 DUP2 MSTORE RETURN JUMPDEST POP POP CALLVALUE PUSH2 0x2AF JUMPI DUP2 PUSH1 0x3 NOT CALLDATASIZE ADD SLT PUSH2 0x2AF JUMPI PUSH2 0x91A SWAP1 PUSH2 0x129F PUSH2 0x138C JUMP JUMPDEST SWAP1 MLOAD SWAP2 DUP3 SWAP2 DUP3 PUSH2 0x12CD JUMP JUMPDEST PUSH1 0x0 JUMPDEST DUP4 DUP2 LT PUSH2 0x12BD JUMPI POP POP PUSH1 0x0 SWAP2 ADD MSTORE JUMP JUMPDEST DUP2 DUP2 ADD MLOAD DUP4 DUP3 ADD MSTORE PUSH1 0x20 ADD PUSH2 0x12AD JUMP JUMPDEST PUSH1 0x40 SWAP2 PUSH1 0x20 DUP3 MSTORE PUSH2 0x12ED DUP2 MLOAD DUP1 SWAP3 DUP2 PUSH1 0x20 DUP7 ADD MSTORE PUSH1 0x20 DUP7 DUP7 ADD SWAP2 ADD PUSH2 0x12AA JUMP JUMPDEST PUSH1 0x1F ADD PUSH1 0x1F NOT AND ADD ADD SWAP1 JUMP JUMPDEST PUSH1 0x4 CALLDATALOAD SWAP1 PUSH1 0x1 PUSH1 0x1 PUSH1 0xA0 SHL SUB DUP3 AND DUP3 SUB PUSH2 0x130F JUMPI JUMP JUMPDEST PUSH1 0x0 DUP1 REVERT JUMPDEST PUSH1 0x24 CALLDATALOAD SWAP1 PUSH1 0x1 PUSH1 0x1 PUSH1 0xA0 SHL SUB DUP3 AND DUP3 SUB PUSH2 0x130F JUMPI JUMP JUMPDEST PUSH1 0x44 CALLDATALOAD SWAP1 PUSH1 0x1 PUSH1 0x1 PUSH1 0xA0 SHL SUB DUP3 AND DUP3 SUB PUSH2 0x130F JUMPI JUMP JUMPDEST PUSH8 0xFFFFFFFFFFFFFFFF DUP2 GT PUSH2 0x1354 JUMPI PUSH1 0x40 MSTORE JUMP JUMPDEST PUSH4 0x4E487B71 PUSH1 0xE0 SHL PUSH1 0x0 MSTORE PUSH1 0x41 PUSH1 0x4 MSTORE PUSH1 0x24 PUSH1 0x0 REVERT JUMPDEST SWAP1 PUSH1 0x1F DUP1 NOT SWAP2 ADD AND DUP2 ADD SWAP1 DUP2 LT PUSH8 0xFFFFFFFFFFFFFFFF DUP3 GT OR PUSH2 0x1354 JUMPI PUSH1 0x40 MSTORE JUMP JUMPDEST PUSH1 0x40 MLOAD SWAP1 PUSH1 0x40 DUP3 ADD DUP3 DUP2 LT PUSH8 0xFFFFFFFFFFFFFFFF DUP3 GT OR PUSH2 0x1354 JUMPI PUSH1 0x40 MSTORE PUSH1 0x12 DUP3 MSTORE PUSH32 0x4379676E75733A20436F6C6C61746572616C0000000000000000000000000000 PUSH1 0x20 DUP4 ADD MSTORE JUMP JUMPDEST PUSH9 0x5345CDF77EB68F44C SLOAD PUSH1 0x0 SWAP1 DUP1 PUSH2 0x13F7 JUMPI POP POP PUSH8 0xDE0B6B3A7640000 SWAP1 JUMP JUMPDEST PUSH1 0x1 PUSH1 0x1 PUSH1 0xA0 SHL SUB PUSH2 0x140D SWAP3 SLOAD PUSH1 0x8 SHR AND PUSH2 0x15E0 JUMP JUMPDEST SWAP1 JUMP JUMPDEST PUSH1 0x40 MLOAD PUSH4 0x3E14691 PUSH1 0xE6 SHL DUP2 MSTORE PUSH1 0x1 PUSH1 0x1 PUSH1 0xA0 SHL SUB SWAP1 PUSH1 0x20 DUP2 PUSH1 0x4 DUP2 PUSH32 0x0 DUP7 AND GAS STATICCALL SWAP1 DUP2 ISZERO PUSH2 0x14B6 JUMPI PUSH1 0x0 SWAP2 PUSH2 0x147C JUMPI JUMPDEST POP AND CALLER SUB PUSH2 0x146A JUMPI JUMP JUMPDEST PUSH1 0x40 MLOAD PUSH4 0x31D63AD1 PUSH1 0xE1 SHL DUP2 MSTORE PUSH1 0x4 SWAP1 REVERT JUMPDEST PUSH1 0x20 DUP2 RETURNDATASIZE DUP3 GT PUSH2 0x14AE JUMPI JUMPDEST DUP2 PUSH2 0x1494 PUSH1 0x20 SWAP4 DUP4 PUSH2 0x136A JUMP JUMPDEST DUP2 ADD SUB SLT PUSH2 0x2AF JUMPI MLOAD SWAP1 DUP3 DUP3 AND DUP3 SUB PUSH2 0x738 JUMPI POP CODESIZE PUSH2 0x1460 JUMP JUMPDEST RETURNDATASIZE SWAP2 POP PUSH2 0x1487 JUMP JUMPDEST PUSH1 0x40 MLOAD RETURNDATASIZE PUSH1 0x0 DUP3 RETURNDATACOPY RETURNDATASIZE SWAP1 REVERT JUMPDEST PUSH32 0x3145C2B643834867F2C0A8CAC8A48218307687911615C0ED01412A09DD163B66 PUSH1 0x20 PUSH2 0x1517 PUSH2 0x1512 ADDRESS PUSH32 0x0 PUSH2 0x16A3 JUMP JUMPDEST PUSH2 0x1623 JUMP JUMPDEST PUSH1 0x0 SLOAD PUSH32 0xFFFFFFFFFFFFFFFFFFFFFF0000000000000000000000000000000000000000FF PUSH21 0xFFFFFFFFFFFFFFFFFFFFFFFFFFFFFFFFFFFFFFFF00 DUP4 PUSH1 0x8 SHL AND SWAP2 AND OR PUSH1 0x0 SSTORE PUSH1 0x1 PUSH1 0x1 PUSH1 0xA0 SHL SUB PUSH1 0x40 MLOAD SWAP2 AND DUP2 MSTORE LOG1 JUMP JUMPDEST PUSH1 0xA0 PUSH1 0x40 MLOAD PUSH2 0x157B PUSH2 0x138C JUMP JUMPDEST PUSH1 0x20 DUP2 MLOAD SWAP2 ADD KECCAK256 PUSH32 0x8B73C3C69BB8FE3D512ECC4CF759CC79239F7B179B0FFACAA9A75D522B39400F DUP3 MSTORE PUSH1 0x20 DUP3 ADD MSTORE PUSH32 0xC89EFDAA54C0F20C7ADF612882DF0950F5A951637E0307CDCB4C672F298B8BC6 PUSH1 0x40 DUP3 ADD MSTORE CHAINID PUSH1 0x60 DUP3 ADD MSTORE ADDRESS PUSH1 0x80 DUP3 ADD MSTORE KECCAK256 SWAP1 JUMP JUMPDEST PUSH8 0xDE0B6B3A7640000 SWAP1 PUSH25 0x12725DD1D243ABA0E75FE645CC4873F9E65AFE688C928E1F21 DUP2 GT DUP3 MUL ISZERO DUP4 MUL ISZERO PUSH2 0x1615 JUMPI MUL DIV SWAP1 JUMP JUMPDEST PUSH4 0x7C5F487D PUSH1 0x0 MSTORE PUSH1 0x4 PUSH1 0x1C REVERT JUMPDEST PUSH21 0x10000000000000000000000000000000000000000 DUP2 LT ISZERO PUSH2 0x164C JUMPI PUSH1 0x1 PUSH1 0x1 PUSH1 0xA0 SHL SUB AND SWAP1 JUMP JUMPDEST PUSH4 0x35278D12 PUSH1 0x0 MSTORE PUSH1 0x4 PUSH1 0x1C REVERT JUMPDEST PUSH1 0x10 SWAP3 PUSH1 0x20 SWAP3 PUSH1 0x14 MSTORE PUSH1 0x34 MSTORE PUSH1 0x44 PUSH1 0x0 SWAP4 DUP5 DUP1 SWAP4 PUSH16 0xA9059CBB000000000000000000000000 DUP3 MSTORE GAS CALL RETURNDATASIZE ISZERO PUSH1 0x1 DUP4 MLOAD EQ OR AND ISZERO PUSH2 0x1696 JUMPI PUSH1 0x34 MSTORE JUMP JUMPDEST PUSH4 0x90B8EC18 SWAP1 MSTORE PUSH1 0x4 PUSH1 0x1C REVERT JUMPDEST PUSH1 0x24 PUSH1 0x10 PUSH1 0x20 SWAP4 SWAP3 DUP5 SWAP4 PUSH1 0x14 MSTORE PUSH16 0x70A08231000000000000000000000000 PUSH1 0x0 MSTORE GAS STATICCALL PUSH1 0x1F RETURNDATASIZE GT AND PUSH1 0x20 MLOAD MUL SWAP1 JUMP INVALID LOG2 PUSH5 0x6970667358 0x22 SLT KECCAK256 ADD MLOAD 0xD7 SIGNEXTEND 0xAF NUMBER LOG4 ORIGIN 0xCF 0xAE DUP15 0xC3 0x27 DUP7 0xF ADDRESS RETURNDATASIZE GASPRICE 0x2E 0xC6 JUMPI PUSH21 0x5FBDEF3CD37C60FFC64E64736F6C63430008110033 "},"methodIdentifiers":{"DOMAIN_SEPARATOR()":"3644e515","PERMIT2()":"6afdd850","allowance(address,address)":"dd62ed3e","approve(address,uint256)":"095ea7b3","balanceOf(address)":"70a08231","borrowable()":"e99a6ac7","cygnusNebulaOracle()":"d935bd92","debtRatio()":"cea55f57","decimals()":"313ce567","decreaseAllowance(address,uint256)":"a457c2d7","deposit(uint256,address,((address,uint160,uint48,uint48),address,uint256),bytes)":"8808e71c","exchangeRate()":"3ba0b9a9","hangar18()":"e8a24e1d","increaseAllowance(address,uint256)":"39509351","liquidationFee()":"a36a3630","liquidationIncentive()":"8c765e94","name()":"06fdde03","nonces(address)":"7ecebe00","permit(address,address,uint256,uint256,uint8,bytes32,bytes32)":"d505accf","redeem(uint256,address,address)":"ba087652","setDebtRatio(uint256)":"eb6a887d","setLiquidationFee(uint256)":"fef0bec8","setLiquidationIncentive(uint256)":"a8431081","shuttleId()":"5f77f891","sweepToken(address)":"1be19560","symbol()":"95d89b41","totalBalance()":"ad7a672f","totalSupply()":"18160ddd","transfer(address,uint256)":"a9059cbb","transferFrom(address,address,uint256)":"23b872dd","underlying()":"6f307dc3"}}}}}