{"contracts/cygnus-core/ERC20Permit.sol":{"ERC20Permit":{"abi":[{"inputs":[],"stateMutability":"nonpayable","type":"constructor"},{"inputs":[{"internalType":"address","name":"owner","type":"address"},{"internalType":"uint8","name":"v","type":"uint8"},{"internalType":"bytes32","name":"r","type":"bytes32"},{"internalType":"bytes32","name":"s","type":"bytes32"}],"name":"ERC20Permit_InvalidSignature","type":"error"},{"inputs":[],"name":"ERC20Permit_OwnerZeroAddress","type":"error"},{"inputs":[{"internalType":"uint256","name":"currentTime","type":"uint256"},{"internalType":"uint256","name":"deadline","type":"uint256"}],"name":"ERC20Permit_PermitExpired","type":"error"},{"inputs":[],"name":"ERC20Permit_RecoveredOwnerZeroAddress","type":"error"},{"inputs":[],"name":"ERC20Permit_SpenderZeroAddress","type":"error"},{"inputs":[],"name":"ERC20_ApproveOwnerZeroAddress","type":"error"},{"inputs":[],"name":"ERC20_ApproveSpenderZeroAddress","type":"error"},{"inputs":[],"name":"ERC20_BurnHolderZeroAddress","type":"error"},{"inputs":[{"internalType":"uint256","name":"senderBalance","type":"uint256"},{"internalType":"uint256","name":"transferAmount","type":"uint256"}],"name":"ERC20_FromInsufficientBalance","type":"error"},{"inputs":[{"internalType":"address","name":"owner","type":"address"},{"internalType":"address","name":"spender","type":"address"},{"internalType":"uint256","name":"allowance","type":"uint256"},{"internalType":"uint256","name":"transferAmount","type":"uint256"}],"name":"ERC20_InsufficientAllowance","type":"error"},{"inputs":[],"name":"ERC20_MintBeneficiaryZeroAddress","type":"error"},{"inputs":[],"name":"ERC20_TransferFromZeroAddress","type":"error"},{"inputs":[],"name":"ERC20_TransferToZeroAddress","type":"error"},{"anonymous":false,"inputs":[{"indexed":true,"internalType":"address","name":"owner","type":"address"},{"indexed":true,"internalType":"address","name":"spender","type":"address"},{"indexed":false,"internalType":"uint256","name":"value","type":"uint256"}],"name":"Approval","type":"event"},{"anonymous":false,"inputs":[{"indexed":true,"internalType":"address","name":"from","type":"address"},{"indexed":true,"internalType":"address","name":"to","type":"address"},{"indexed":false,"internalType":"uint256","name":"amount","type":"uint256"}],"name":"Transfer","type":"event"},{"inputs":[],"name":"DOMAIN_SEPARATOR","outputs":[{"internalType":"bytes32","name":"","type":"bytes32"}],"stateMutability":"view","type":"function"},{"inputs":[],"name":"PERMIT_TYPEHASH","outputs":[{"internalType":"bytes32","name":"","type":"bytes32"}],"stateMutability":"view","type":"function"},{"inputs":[{"internalType":"address","name":"owner","type":"address"},{"internalType":"address","name":"spender","type":"address"}],"name":"allowance","outputs":[{"internalType":"uint256","name":"","type":"uint256"}],"stateMutability":"view","type":"function"},{"inputs":[{"internalType":"address","name":"spender","type":"address"},{"internalType":"uint256","name":"value","type":"uint256"}],"name":"approve","outputs":[{"internalType":"bool","name":"","type":"bool"}],"stateMutability":"nonpayable","type":"function"},{"inputs":[{"internalType":"address","name":"account","type":"address"}],"name":"balanceOf","outputs":[{"internalType":"uint256","name":"","type":"uint256"}],"stateMutability":"view","type":"function"},{"inputs":[],"name":"decimals","outputs":[{"internalType":"uint8","name":"","type":"uint8"}],"stateMutability":"view","type":"function"},{"inputs":[{"internalType":"address","name":"spender","type":"address"},{"internalType":"uint256","name":"value","type":"uint256"}],"name":"decreaseAllowance","outputs":[{"internalType":"bool","name":"","type":"bool"}],"stateMutability":"nonpayable","type":"function"},{"inputs":[{"internalType":"address","name":"spender","type":"address"},{"internalType":"uint256","name":"value","type":"uint256"}],"name":"increaseAllowance","outputs":[{"internalType":"bool","name":"","type":"bool"}],"stateMutability":"nonpayable","type":"function"},{"inputs":[],"name":"name","outputs":[{"internalType":"string","name":"","type":"string"}],"stateMutability":"view","type":"function"},{"inputs":[{"internalType":"address","name":"","type":"address"}],"name":"nonces","outputs":[{"internalType":"uint256","name":"","type":"uint256"}],"stateMutability":"view","type":"function"},{"inputs":[{"internalType":"address","name":"owner","type":"address"},{"internalType":"address","name":"spender","type":"address"},{"internalType":"uint256","name":"value","type":"uint256"},{"internalType":"uint256","name":"deadline","type":"uint256"},{"internalType":"uint8","name":"v","type":"uint8"},{"internalType":"bytes32","name":"r","type":"bytes32"},{"internalType":"bytes32","name":"s","type":"bytes32"}],"name":"permit","outputs":[],"stateMutability":"nonpayable","type":"function"},{"inputs":[],"name":"symbol","outputs":[{"internalType":"string","name":"","type":"string"}],"stateMutability":"view","type":"function"},{"inputs":[],"name":"totalSupply","outputs":[{"internalType":"uint256","name":"","type":"uint256"}],"stateMutability":"view","type":"function"},{"inputs":[{"internalType":"address","name":"to","type":"address"},{"internalType":"uint256","name":"amount","type":"uint256"}],"name":"transfer","outputs":[{"internalType":"bool","name":"","type":"bool"}],"stateMutability":"nonpayable","type":"function"},{"inputs":[{"internalType":"address","name":"from","type":"address"},{"internalType":"address","name":"to","type":"address"},{"internalType":"uint256","name":"amount","type":"uint256"}],"name":"transferFrom","outputs":[{"internalType":"bool","name":"","type":"bool"}],"stateMutability":"nonpayable","type":"function"},{"inputs":[],"name":"version","outputs":[{"internalType":"string","name":"","type":"string"}],"stateMutability":"view","type":"function"}],"evm":{"bytecode":{"linkReferences":{},"object":"60a03461018b5760008054600180821693909282841c8515610183575b602093848210871461016f578184528480850197918260001461015757505060011461011d575b506001600160401b039490829003601f01601f1916820193908585118386101761010757604092858452519020938281019080821087831117610107578491845282815201603160f81b8152208151928301937f8b73c3c69bb8fe3d512ecc4cf759cc79239f7b179b0ffacaa9a75d522b39400f85528284015260608301524660808301523060a083015260a0825260c08201938285109085111761010757839052519020608052610f059081610191823960805181818161028401526108ec0152f35b634e487b7160e01b600052604160045260246000fd5b839150600080528160002090856000925b8284106101415750505082010138610043565b805484870186015286949093019287910161012e565b9150925060ff19168652151560051b82010138610043565b634e487b7160e01b83526022600452602483fd5b607f1661001c565b600080fdfe6080604081815260048036101561001557600080fd5b600092833560e01c90816306fdde0314610b0057508063095ea7b314610ab857806318160ddd14610a7b57806323b872dd146109a857806330adf81f1461094f578063313ce5671461090f5780633644e515146108b6578063395093511461083957806354fd4d501461078657806370a08231146107245780637ecebe00146106c257806395d89b411461056e578063a457c2d7146104c2578063a9059cbb14610473578063d505accf146101495763dd62ed3e146100d357600080fd5b3461014557817ffffffffffffffffffffffffffffffffffffffffffffffffffffffffffffffffc36011261014557602092829161010e610cb2565b610116610cda565b9173ffffffffffffffffffffffffffffffffffffffff8092168452865283832091168252845220549051908152f35b8280fd5b5091903461046f5760e07ffffffffffffffffffffffffffffffffffffffffffffffffffffffffffffffffc36011261046f57610183610cb2565b9061018c610cda565b906044356064359160843560ff811680910361046b5760a43560c4359173ffffffffffffffffffffffffffffffffffffffff80981696871561044357881697881561041b574287106103e557878a5260209660068852858b2090815491600183019055865190898201927f6e71edae12b1b97f4d1f60370fef10105fa2faae0126114a169c64845d6126c984528b898401528c606084015289608084015260a083015260c082015260c0815260e0810167ffffffffffffffff92828210848311176103b75781895282519020906101008301917f190100000000000000000000000000000000000000000000000000000000000083527f000000000000000000000000000000000000000000000000000000000000000061010285015261012284015260428152610160830193818510908511176103b75792876101c08f946080948e97858e52519020845288610180820152896101a0820152015282805260015afa156103ad578951168015610385578703610345575050508596847f8c5be1e5ebec7d5bd14f71427d1e84f3dd0314c0f7b2291e5b200ac8c7c3b9259596975283528087208688528352818188205551908152a380f35b60849450868a9451947f3460790b000000000000000000000000000000000000000000000000000000008652850152602484015260448301526064820152fd5b8a85517fd147d0e3000000000000000000000000000000000000000000000000000000008152fd5b84513d8b823e3d90fd5b505060248c60418f7f4e487b7100000000000000000000000000000000000000000000000000000000835252fd5b60448b888751917f3288645900000000000000000000000000000000000000000000000000000000835242908301526024820152fd5b8a85517f7b4813dd000000000000000000000000000000000000000000000000000000008152fd5b8a85517f6f5b87d2000000000000000000000000000000000000000000000000000000008152fd5b8680fd5b5080fd5b50503461046f57807ffffffffffffffffffffffffffffffffffffffffffffffffffffffffffffffffc36011261046f576020906104bb6104b1610cb2565b6024359033610dbf565b5160018152f35b50913461056b57817ffffffffffffffffffffffffffffffffffffffffffffffffffffffffffffffffc36011261056b576104fa610cb2565b3382528360205282822073ffffffffffffffffffffffffffffffffffffffff821683526020528282205491602435830392831161053f576020846104bb858533610cfd565b806011867f4e487b71000000000000000000000000000000000000000000000000000000006024945252fd5b80fd5b50903461014557827ffffffffffffffffffffffffffffffffffffffffffffffffffffffffffffffffc3601126101455780519183600180549182821c9282811680156106b8575b602095868610821461068c575084885290811561064c57506001146105f4575b6105f086866105e6828b0383610bdc565b5191829182610c4c565b0390f35b9295508083527fb10e2d527612073b26eecdfd717e6a320cf44b4afac2b0732d9fcbe2b7fa0cf65b82841061063957505050826105f0946105e69282010194386105d5565b805486850188015292860192810161061c565b7fffffffffffffffffffffffffffffffffffffffffffffffffffffffffffffff001687860152505050151560051b83010192506105e6826105f0386105d5565b8360226024927f4e487b7100000000000000000000000000000000000000000000000000000000835252fd5b93607f16936105b5565b50503461046f5760207ffffffffffffffffffffffffffffffffffffffffffffffffffffffffffffffffc36011261046f578060209273ffffffffffffffffffffffffffffffffffffffff610714610cb2565b1681526006845220549051908152f35b50503461046f5760207ffffffffffffffffffffffffffffffffffffffffffffffffffffffffffffffffc36011261046f578060209273ffffffffffffffffffffffffffffffffffffffff610776610cb2565b1681526005845220549051908152f35b5091903461046f57817ffffffffffffffffffffffffffffffffffffffffffffffffffffffffffffffffc36011261046f578051918183019083821067ffffffffffffffff83111761080d57506105f093508152600182527f310000000000000000000000000000000000000000000000000000000000000060208301525191829182610c4c565b806041867f4e487b71000000000000000000000000000000000000000000000000000000006024945252fd5b50913461056b57817ffffffffffffffffffffffffffffffffffffffffffffffffffffffffffffffffc36011261056b57610871610cb2565b3382528360205282822073ffffffffffffffffffffffffffffffffffffffff821683526020528282205491602435830180931161053f576020846104bb858533610cfd565b50503461046f57817ffffffffffffffffffffffffffffffffffffffffffffffffffffffffffffffffc36011261046f57602090517f00000000000000000000000000000000000000000000000000000000000000008152f35b50503461046f57817ffffffffffffffffffffffffffffffffffffffffffffffffffffffffffffffffc36011261046f5760209060ff600254169051908152f35b50503461046f57817ffffffffffffffffffffffffffffffffffffffffffffffffffffffffffffffffc36011261046f57602090517f6e71edae12b1b97f4d1f60370fef10105fa2faae0126114a169c64845d6126c98152f35b50346101455760607ffffffffffffffffffffffffffffffffffffffffffffffffffffffffffffffffc360112610145576109e0610cb2565b6109e8610cda565b93604435928473ffffffffffffffffffffffffffffffffffffffff84169283815282602052818120338252602052205491848310610a3b576020866104bb878a88610a36838a033383610cfd565b610dbf565b60849285918751937fc92e267600000000000000000000000000000000000000000000000000000000855284015233602484015260448301526064820152fd5b50503461046f57817ffffffffffffffffffffffffffffffffffffffffffffffffffffffffffffffffc36011261046f576020906003549051908152f35b50503461046f57807ffffffffffffffffffffffffffffffffffffffffffffffffffffffffffffffffc36011261046f576020906104bb610af6610cb2565b6024359033610cfd565b9291905034610bd857837ffffffffffffffffffffffffffffffffffffffffffffffffffffffffffffffffc360112610bd8578354600181811c9186908281168015610bce575b602095868610821461068c575084885290811561064c5750600114610b76576105f086866105e6828b0383610bdc565b8080949750527f290decd9548b62a8d60345a988386fc84ba6bc95484008f6362f93160ef3e5635b828410610bbb57505050826105f0946105e69282010194386105d5565b8054868501880152928601928101610b9e565b93607f1693610b46565b8380fd5b90601f7fffffffffffffffffffffffffffffffffffffffffffffffffffffffffffffffe0910116810190811067ffffffffffffffff821117610c1d57604052565b7f4e487b7100000000000000000000000000000000000000000000000000000000600052604160045260246000fd5b60208082528251818301819052939260005b858110610c9e575050507fffffffffffffffffffffffffffffffffffffffffffffffffffffffffffffffe0601f8460006040809697860101520116010190565b818101830151848201604001528201610c5e565b6004359073ffffffffffffffffffffffffffffffffffffffff82168203610cd557565b600080fd5b6024359073ffffffffffffffffffffffffffffffffffffffff82168203610cd557565b73ffffffffffffffffffffffffffffffffffffffff809116918215610d955716918215610d6b5760207f8c5be1e5ebec7d5bd14f71427d1e84f3dd0314c0f7b2291e5b200ac8c7c3b925918360005260048252604060002085600052825280604060002055604051908152a3565b60046040517fada6435c000000000000000000000000000000000000000000000000000000008152fd5b60046040517f8c6c6874000000000000000000000000000000000000000000000000000000008152fd5b73ffffffffffffffffffffffffffffffffffffffff809116918215610ea55716918215610e7b57600082815260056020526040812054828110610e445791604082827fddf252ad1be2c89b69c2b068fc378daa952ba7f163c4a11628f55a4df523b3ef95876020965260058652038282205586815220818154019055604051908152a3565b60449083604051917f8619ea9200000000000000000000000000000000000000000000000000000000835260048301526024820152fd5b60046040517f30b4b580000000000000000000000000000000000000000000000000000000008152fd5b60046040517f6fbb7817000000000000000000000000000000000000000000000000000000008152fdfea26469706673582212201c0437527c3f698cd339f6676b79189a6c2509a81abf42302bd3ddb54cf6040064736f6c63430008110033","opcodes":"PUSH1 0xA0 CALLVALUE PUSH2 0x18B JUMPI PUSH1 0x0 DUP1 SLOAD PUSH1 0x1 DUP1 DUP3 AND SWAP4 SWAP1 SWAP3 DUP3 DUP5 SHR DUP6 ISZERO PUSH2 0x183 JUMPI JUMPDEST PUSH1 0x20 SWAP4 DUP5 DUP3 LT DUP8 EQ PUSH2 0x16F JUMPI DUP2 DUP5 MSTORE DUP5 DUP1 DUP6 ADD SWAP8 SWAP2 DUP3 PUSH1 0x0 EQ PUSH2 0x157 JUMPI POP POP PUSH1 0x1 EQ PUSH2 0x11D JUMPI JUMPDEST POP PUSH1 0x1 PUSH1 0x1 PUSH1 0x40 SHL SUB SWAP5 SWAP1 DUP3 SWAP1 SUB PUSH1 0x1F ADD PUSH1 0x1F NOT AND DUP3 ADD SWAP4 SWAP1 DUP6 DUP6 GT DUP4 DUP7 LT OR PUSH2 0x107 JUMPI PUSH1 0x40 SWAP3 DUP6 DUP5 MSTORE MLOAD SWAP1 KECCAK256 SWAP4 DUP3 DUP2 ADD SWAP1 DUP1 DUP3 LT DUP8 DUP4 GT OR PUSH2 0x107 JUMPI DUP5 SWAP2 DUP5 MSTORE DUP3 DUP2 MSTORE ADD PUSH1 0x31 PUSH1 0xF8 SHL DUP2 MSTORE KECCAK256 DUP2 MLOAD SWAP3 DUP4 ADD SWAP4 PUSH32 0x8B73C3C69BB8FE3D512ECC4CF759CC79239F7B179B0FFACAA9A75D522B39400F DUP6 MSTORE DUP3 DUP5 ADD MSTORE PUSH1 0x60 DUP4 ADD MSTORE CHAINID PUSH1 0x80 DUP4 ADD MSTORE ADDRESS PUSH1 0xA0 DUP4 ADD MSTORE PUSH1 0xA0 DUP3 MSTORE PUSH1 0xC0 DUP3 ADD SWAP4 DUP3 DUP6 LT SWAP1 DUP6 GT OR PUSH2 0x107 JUMPI DUP4 SWAP1 MSTORE MLOAD SWAP1 KECCAK256 PUSH1 0x80 MSTORE PUSH2 0xF05 SWAP1 DUP2 PUSH2 0x191 DUP3 CODECOPY PUSH1 0x80 MLOAD DUP2 DUP2 DUP2 PUSH2 0x284 ADD MSTORE PUSH2 0x8EC ADD MSTORE RETURN JUMPDEST PUSH4 0x4E487B71 PUSH1 0xE0 SHL PUSH1 0x0 MSTORE PUSH1 0x41 PUSH1 0x4 MSTORE PUSH1 0x24 PUSH1 0x0 REVERT JUMPDEST DUP4 SWAP2 POP PUSH1 0x0 DUP1 MSTORE DUP2 PUSH1 0x0 KECCAK256 SWAP1 DUP6 PUSH1 0x0 SWAP3 JUMPDEST DUP3 DUP5 LT PUSH2 0x141 JUMPI POP POP POP DUP3 ADD ADD CODESIZE PUSH2 0x43 JUMP JUMPDEST DUP1 SLOAD DUP5 DUP8 ADD DUP7 ADD MSTORE DUP7 SWAP5 SWAP1 SWAP4 ADD SWAP3 DUP8 SWAP2 ADD PUSH2 0x12E JUMP JUMPDEST SWAP2 POP SWAP3 POP PUSH1 0xFF NOT AND DUP7 MSTORE ISZERO ISZERO PUSH1 0x5 SHL DUP3 ADD ADD CODESIZE PUSH2 0x43 JUMP JUMPDEST PUSH4 0x4E487B71 PUSH1 0xE0 SHL DUP4 MSTORE PUSH1 0x22 PUSH1 0x4 MSTORE PUSH1 0x24 DUP4 REVERT JUMPDEST PUSH1 0x7F AND PUSH2 0x1C JUMP JUMPDEST PUSH1 0x0 DUP1 REVERT INVALID PUSH1 0x80 PUSH1 0x40 DUP2 DUP2 MSTORE PUSH1 0x4 DUP1 CALLDATASIZE LT ISZERO PUSH2 0x15 JUMPI PUSH1 0x0 DUP1 REVERT JUMPDEST PUSH1 0x0 SWAP3 DUP4 CALLDATALOAD PUSH1 0xE0 SHR SWAP1 DUP2 PUSH4 0x6FDDE03 EQ PUSH2 0xB00 JUMPI POP DUP1 PUSH4 0x95EA7B3 EQ PUSH2 0xAB8 JUMPI DUP1 PUSH4 0x18160DDD EQ PUSH2 0xA7B JUMPI DUP1 PUSH4 0x23B872DD EQ PUSH2 0x9A8 JUMPI DUP1 PUSH4 0x30ADF81F EQ PUSH2 0x94F JUMPI DUP1 PUSH4 0x313CE567 EQ PUSH2 0x90F JUMPI DUP1 PUSH4 0x3644E515 EQ PUSH2 0x8B6 JUMPI DUP1 PUSH4 0x39509351 EQ PUSH2 0x839 JUMPI DUP1 PUSH4 0x54FD4D50 EQ PUSH2 0x786 JUMPI DUP1 PUSH4 0x70A08231 EQ PUSH2 0x724 JUMPI DUP1 PUSH4 0x7ECEBE00 EQ PUSH2 0x6C2 JUMPI DUP1 PUSH4 0x95D89B41 EQ PUSH2 0x56E JUMPI DUP1 PUSH4 0xA457C2D7 EQ PUSH2 0x4C2 JUMPI DUP1 PUSH4 0xA9059CBB EQ PUSH2 0x473 JUMPI DUP1 PUSH4 0xD505ACCF EQ PUSH2 0x149 JUMPI PUSH4 0xDD62ED3E EQ PUSH2 0xD3 JUMPI PUSH1 0x0 DUP1 REVERT JUMPDEST CALLVALUE PUSH2 0x145 JUMPI DUP2 PUSH32 0xFFFFFFFFFFFFFFFFFFFFFFFFFFFFFFFFFFFFFFFFFFFFFFFFFFFFFFFFFFFFFFFC CALLDATASIZE ADD SLT PUSH2 0x145 JUMPI PUSH1 0x20 SWAP3 DUP3 SWAP2 PUSH2 0x10E PUSH2 0xCB2 JUMP JUMPDEST PUSH2 0x116 PUSH2 0xCDA JUMP JUMPDEST SWAP2 PUSH20 0xFFFFFFFFFFFFFFFFFFFFFFFFFFFFFFFFFFFFFFFF DUP1 SWAP3 AND DUP5 MSTORE DUP7 MSTORE DUP4 DUP4 KECCAK256 SWAP2 AND DUP3 MSTORE DUP5 MSTORE KECCAK256 SLOAD SWAP1 MLOAD SWAP1 DUP2 MSTORE RETURN JUMPDEST DUP3 DUP1 REVERT JUMPDEST POP SWAP2 SWAP1 CALLVALUE PUSH2 0x46F JUMPI PUSH1 0xE0 PUSH32 0xFFFFFFFFFFFFFFFFFFFFFFFFFFFFFFFFFFFFFFFFFFFFFFFFFFFFFFFFFFFFFFFC CALLDATASIZE ADD SLT PUSH2 0x46F JUMPI PUSH2 0x183 PUSH2 0xCB2 JUMP JUMPDEST SWAP1 PUSH2 0x18C PUSH2 0xCDA JUMP JUMPDEST SWAP1 PUSH1 0x44 CALLDATALOAD PUSH1 0x64 CALLDATALOAD SWAP2 PUSH1 0x84 CALLDATALOAD PUSH1 0xFF DUP2 AND DUP1 SWAP2 SUB PUSH2 0x46B JUMPI PUSH1 0xA4 CALLDATALOAD PUSH1 0xC4 CALLDATALOAD SWAP2 PUSH20 0xFFFFFFFFFFFFFFFFFFFFFFFFFFFFFFFFFFFFFFFF DUP1 SWAP9 AND SWAP7 DUP8 ISZERO PUSH2 0x443 JUMPI DUP9 AND SWAP8 DUP9 ISZERO PUSH2 0x41B JUMPI TIMESTAMP DUP8 LT PUSH2 0x3E5 JUMPI DUP8 DUP11 MSTORE PUSH1 0x20 SWAP7 PUSH1 0x6 DUP9 MSTORE DUP6 DUP12 KECCAK256 SWAP1 DUP2 SLOAD SWAP2 PUSH1 0x1 DUP4 ADD SWAP1 SSTORE DUP7 MLOAD SWAP1 DUP10 DUP3 ADD SWAP3 PUSH32 0x6E71EDAE12B1B97F4D1F60370FEF10105FA2FAAE0126114A169C64845D6126C9 DUP5 MSTORE DUP12 DUP10 DUP5 ADD MSTORE DUP13 PUSH1 0x60 DUP5 ADD MSTORE DUP10 PUSH1 0x80 DUP5 ADD MSTORE PUSH1 0xA0 DUP4 ADD MSTORE PUSH1 0xC0 DUP3 ADD MSTORE PUSH1 0xC0 DUP2 MSTORE PUSH1 0xE0 DUP2 ADD PUSH8 0xFFFFFFFFFFFFFFFF SWAP3 DUP3 DUP3 LT DUP5 DUP4 GT OR PUSH2 0x3B7 JUMPI DUP2 DUP10 MSTORE DUP3 MLOAD SWAP1 KECCAK256 SWAP1 PUSH2 0x100 DUP4 ADD SWAP2 PUSH32 0x1901000000000000000000000000000000000000000000000000000000000000 DUP4 MSTORE PUSH32 0x0 PUSH2 0x102 DUP6 ADD MSTORE PUSH2 0x122 DUP5 ADD MSTORE PUSH1 0x42 DUP2 MSTORE PUSH2 0x160 DUP4 ADD SWAP4 DUP2 DUP6 LT SWAP1 DUP6 GT OR PUSH2 0x3B7 JUMPI SWAP3 DUP8 PUSH2 0x1C0 DUP16 SWAP5 PUSH1 0x80 SWAP5 DUP15 SWAP8 DUP6 DUP15 MSTORE MLOAD SWAP1 KECCAK256 DUP5 MSTORE DUP9 PUSH2 0x180 DUP3 ADD MSTORE DUP10 PUSH2 0x1A0 DUP3 ADD MSTORE ADD MSTORE DUP3 DUP1 MSTORE PUSH1 0x1 GAS STATICCALL ISZERO PUSH2 0x3AD JUMPI DUP10 MLOAD AND DUP1 ISZERO PUSH2 0x385 JUMPI DUP8 SUB PUSH2 0x345 JUMPI POP POP POP DUP6 SWAP7 DUP5 PUSH32 0x8C5BE1E5EBEC7D5BD14F71427D1E84F3DD0314C0F7B2291E5B200AC8C7C3B925 SWAP6 SWAP7 SWAP8 MSTORE DUP4 MSTORE DUP1 DUP8 KECCAK256 DUP7 DUP9 MSTORE DUP4 MSTORE DUP2 DUP2 DUP9 KECCAK256 SSTORE MLOAD SWAP1 DUP2 MSTORE LOG3 DUP1 RETURN JUMPDEST PUSH1 0x84 SWAP5 POP DUP7 DUP11 SWAP5 MLOAD SWAP5 PUSH32 0x3460790B00000000000000000000000000000000000000000000000000000000 DUP7 MSTORE DUP6 ADD MSTORE PUSH1 0x24 DUP5 ADD MSTORE PUSH1 0x44 DUP4 ADD MSTORE PUSH1 0x64 DUP3 ADD MSTORE REVERT JUMPDEST DUP11 DUP6 MLOAD PUSH32 0xD147D0E300000000000000000000000000000000000000000000000000000000 DUP2 MSTORE REVERT JUMPDEST DUP5 MLOAD RETURNDATASIZE DUP12 DUP3 RETURNDATACOPY RETURNDATASIZE SWAP1 REVERT JUMPDEST POP POP PUSH1 0x24 DUP13 PUSH1 0x41 DUP16 PUSH32 0x4E487B7100000000000000000000000000000000000000000000000000000000 DUP4 MSTORE MSTORE REVERT JUMPDEST PUSH1 0x44 DUP12 DUP9 DUP8 MLOAD SWAP2 PUSH32 0x3288645900000000000000000000000000000000000000000000000000000000 DUP4 MSTORE TIMESTAMP SWAP1 DUP4 ADD MSTORE PUSH1 0x24 DUP3 ADD MSTORE REVERT JUMPDEST DUP11 DUP6 MLOAD PUSH32 0x7B4813DD00000000000000000000000000000000000000000000000000000000 DUP2 MSTORE REVERT JUMPDEST DUP11 DUP6 MLOAD PUSH32 0x6F5B87D200000000000000000000000000000000000000000000000000000000 DUP2 MSTORE REVERT JUMPDEST DUP7 DUP1 REVERT JUMPDEST POP DUP1 REVERT JUMPDEST POP POP CALLVALUE PUSH2 0x46F JUMPI DUP1 PUSH32 0xFFFFFFFFFFFFFFFFFFFFFFFFFFFFFFFFFFFFFFFFFFFFFFFFFFFFFFFFFFFFFFFC CALLDATASIZE ADD SLT PUSH2 0x46F JUMPI PUSH1 0x20 SWAP1 PUSH2 0x4BB PUSH2 0x4B1 PUSH2 0xCB2 JUMP JUMPDEST PUSH1 0x24 CALLDATALOAD SWAP1 CALLER PUSH2 0xDBF JUMP JUMPDEST MLOAD PUSH1 0x1 DUP2 MSTORE RETURN JUMPDEST POP SWAP2 CALLVALUE PUSH2 0x56B JUMPI DUP2 PUSH32 0xFFFFFFFFFFFFFFFFFFFFFFFFFFFFFFFFFFFFFFFFFFFFFFFFFFFFFFFFFFFFFFFC CALLDATASIZE ADD SLT PUSH2 0x56B JUMPI PUSH2 0x4FA PUSH2 0xCB2 JUMP JUMPDEST CALLER DUP3 MSTORE DUP4 PUSH1 0x20 MSTORE DUP3 DUP3 KECCAK256 PUSH20 0xFFFFFFFFFFFFFFFFFFFFFFFFFFFFFFFFFFFFFFFF DUP3 AND DUP4 MSTORE PUSH1 0x20 MSTORE DUP3 DUP3 KECCAK256 SLOAD SWAP2 PUSH1 0x24 CALLDATALOAD DUP4 SUB SWAP3 DUP4 GT PUSH2 0x53F JUMPI PUSH1 0x20 DUP5 PUSH2 0x4BB DUP6 DUP6 CALLER PUSH2 0xCFD JUMP JUMPDEST DUP1 PUSH1 0x11 DUP7 PUSH32 0x4E487B7100000000000000000000000000000000000000000000000000000000 PUSH1 0x24 SWAP5 MSTORE MSTORE REVERT JUMPDEST DUP1 REVERT JUMPDEST POP SWAP1 CALLVALUE PUSH2 0x145 JUMPI DUP3 PUSH32 0xFFFFFFFFFFFFFFFFFFFFFFFFFFFFFFFFFFFFFFFFFFFFFFFFFFFFFFFFFFFFFFFC CALLDATASIZE ADD SLT PUSH2 0x145 JUMPI DUP1 MLOAD SWAP2 DUP4 PUSH1 0x1 DUP1 SLOAD SWAP2 DUP3 DUP3 SHR SWAP3 DUP3 DUP2 AND DUP1 ISZERO PUSH2 0x6B8 JUMPI JUMPDEST PUSH1 0x20 SWAP6 DUP7 DUP7 LT DUP3 EQ PUSH2 0x68C JUMPI POP DUP5 DUP9 MSTORE SWAP1 DUP2 ISZERO PUSH2 0x64C JUMPI POP PUSH1 0x1 EQ PUSH2 0x5F4 JUMPI JUMPDEST PUSH2 0x5F0 DUP7 DUP7 PUSH2 0x5E6 DUP3 DUP12 SUB DUP4 PUSH2 0xBDC JUMP JUMPDEST MLOAD SWAP2 DUP3 SWAP2 DUP3 PUSH2 0xC4C JUMP JUMPDEST SUB SWAP1 RETURN JUMPDEST SWAP3 SWAP6 POP DUP1 DUP4 MSTORE PUSH32 0xB10E2D527612073B26EECDFD717E6A320CF44B4AFAC2B0732D9FCBE2B7FA0CF6 JUMPDEST DUP3 DUP5 LT PUSH2 0x639 JUMPI POP POP POP DUP3 PUSH2 0x5F0 SWAP5 PUSH2 0x5E6 SWAP3 DUP3 ADD ADD SWAP5 CODESIZE PUSH2 0x5D5 JUMP JUMPDEST DUP1 SLOAD DUP7 DUP6 ADD DUP9 ADD MSTORE SWAP3 DUP7 ADD SWAP3 DUP2 ADD PUSH2 0x61C JUMP JUMPDEST PUSH32 0xFFFFFFFFFFFFFFFFFFFFFFFFFFFFFFFFFFFFFFFFFFFFFFFFFFFFFFFFFFFFFF00 AND DUP8 DUP7 ADD MSTORE POP POP POP ISZERO ISZERO PUSH1 0x5 SHL DUP4 ADD ADD SWAP3 POP PUSH2 0x5E6 DUP3 PUSH2 0x5F0 CODESIZE PUSH2 0x5D5 JUMP JUMPDEST DUP4 PUSH1 0x22 PUSH1 0x24 SWAP3 PUSH32 0x4E487B7100000000000000000000000000000000000000000000000000000000 DUP4 MSTORE MSTORE REVERT JUMPDEST SWAP4 PUSH1 0x7F AND SWAP4 PUSH2 0x5B5 JUMP JUMPDEST POP POP CALLVALUE PUSH2 0x46F JUMPI PUSH1 0x20 PUSH32 0xFFFFFFFFFFFFFFFFFFFFFFFFFFFFFFFFFFFFFFFFFFFFFFFFFFFFFFFFFFFFFFFC CALLDATASIZE ADD SLT PUSH2 0x46F JUMPI DUP1 PUSH1 0x20 SWAP3 PUSH20 0xFFFFFFFFFFFFFFFFFFFFFFFFFFFFFFFFFFFFFFFF PUSH2 0x714 PUSH2 0xCB2 JUMP JUMPDEST AND DUP2 MSTORE PUSH1 0x6 DUP5 MSTORE KECCAK256 SLOAD SWAP1 MLOAD SWAP1 DUP2 MSTORE RETURN JUMPDEST POP POP CALLVALUE PUSH2 0x46F JUMPI PUSH1 0x20 PUSH32 0xFFFFFFFFFFFFFFFFFFFFFFFFFFFFFFFFFFFFFFFFFFFFFFFFFFFFFFFFFFFFFFFC CALLDATASIZE ADD SLT PUSH2 0x46F JUMPI DUP1 PUSH1 0x20 SWAP3 PUSH20 0xFFFFFFFFFFFFFFFFFFFFFFFFFFFFFFFFFFFFFFFF PUSH2 0x776 PUSH2 0xCB2 JUMP JUMPDEST AND DUP2 MSTORE PUSH1 0x5 DUP5 MSTORE KECCAK256 SLOAD SWAP1 MLOAD SWAP1 DUP2 MSTORE RETURN JUMPDEST POP SWAP2 SWAP1 CALLVALUE PUSH2 0x46F JUMPI DUP2 PUSH32 0xFFFFFFFFFFFFFFFFFFFFFFFFFFFFFFFFFFFFFFFFFFFFFFFFFFFFFFFFFFFFFFFC CALLDATASIZE ADD SLT PUSH2 0x46F JUMPI DUP1 MLOAD SWAP2 DUP2 DUP4 ADD SWAP1 DUP4 DUP3 LT PUSH8 0xFFFFFFFFFFFFFFFF DUP4 GT OR PUSH2 0x80D JUMPI POP PUSH2 0x5F0 SWAP4 POP DUP2 MSTORE PUSH1 0x1 DUP3 MSTORE PUSH32 0x3100000000000000000000000000000000000000000000000000000000000000 PUSH1 0x20 DUP4 ADD MSTORE MLOAD SWAP2 DUP3 SWAP2 DUP3 PUSH2 0xC4C JUMP JUMPDEST DUP1 PUSH1 0x41 DUP7 PUSH32 0x4E487B7100000000000000000000000000000000000000000000000000000000 PUSH1 0x24 SWAP5 MSTORE MSTORE REVERT JUMPDEST POP SWAP2 CALLVALUE PUSH2 0x56B JUMPI DUP2 PUSH32 0xFFFFFFFFFFFFFFFFFFFFFFFFFFFFFFFFFFFFFFFFFFFFFFFFFFFFFFFFFFFFFFFC CALLDATASIZE ADD SLT PUSH2 0x56B JUMPI PUSH2 0x871 PUSH2 0xCB2 JUMP JUMPDEST CALLER DUP3 MSTORE DUP4 PUSH1 0x20 MSTORE DUP3 DUP3 KECCAK256 PUSH20 0xFFFFFFFFFFFFFFFFFFFFFFFFFFFFFFFFFFFFFFFF DUP3 AND DUP4 MSTORE PUSH1 0x20 MSTORE DUP3 DUP3 KECCAK256 SLOAD SWAP2 PUSH1 0x24 CALLDATALOAD DUP4 ADD DUP1 SWAP4 GT PUSH2 0x53F JUMPI PUSH1 0x20 DUP5 PUSH2 0x4BB DUP6 DUP6 CALLER PUSH2 0xCFD JUMP JUMPDEST POP POP CALLVALUE PUSH2 0x46F JUMPI DUP2 PUSH32 0xFFFFFFFFFFFFFFFFFFFFFFFFFFFFFFFFFFFFFFFFFFFFFFFFFFFFFFFFFFFFFFFC CALLDATASIZE ADD SLT PUSH2 0x46F JUMPI PUSH1 0x20 SWAP1 MLOAD PUSH32 0x0 DUP2 MSTORE RETURN JUMPDEST POP POP CALLVALUE PUSH2 0x46F JUMPI DUP2 PUSH32 0xFFFFFFFFFFFFFFFFFFFFFFFFFFFFFFFFFFFFFFFFFFFFFFFFFFFFFFFFFFFFFFFC CALLDATASIZE ADD SLT PUSH2 0x46F JUMPI PUSH1 0x20 SWAP1 PUSH1 0xFF PUSH1 0x2 SLOAD AND SWAP1 MLOAD SWAP1 DUP2 MSTORE RETURN JUMPDEST POP POP CALLVALUE PUSH2 0x46F JUMPI DUP2 PUSH32 0xFFFFFFFFFFFFFFFFFFFFFFFFFFFFFFFFFFFFFFFFFFFFFFFFFFFFFFFFFFFFFFFC CALLDATASIZE ADD SLT PUSH2 0x46F JUMPI PUSH1 0x20 SWAP1 MLOAD PUSH32 0x6E71EDAE12B1B97F4D1F60370FEF10105FA2FAAE0126114A169C64845D6126C9 DUP2 MSTORE RETURN JUMPDEST POP CALLVALUE PUSH2 0x145 JUMPI PUSH1 0x60 PUSH32 0xFFFFFFFFFFFFFFFFFFFFFFFFFFFFFFFFFFFFFFFFFFFFFFFFFFFFFFFFFFFFFFFC CALLDATASIZE ADD SLT PUSH2 0x145 JUMPI PUSH2 0x9E0 PUSH2 0xCB2 JUMP JUMPDEST PUSH2 0x9E8 PUSH2 0xCDA JUMP JUMPDEST SWAP4 PUSH1 0x44 CALLDATALOAD SWAP3 DUP5 PUSH20 0xFFFFFFFFFFFFFFFFFFFFFFFFFFFFFFFFFFFFFFFF DUP5 AND SWAP3 DUP4 DUP2 MSTORE DUP3 PUSH1 0x20 MSTORE DUP2 DUP2 KECCAK256 CALLER DUP3 MSTORE PUSH1 0x20 MSTORE KECCAK256 SLOAD SWAP2 DUP5 DUP4 LT PUSH2 0xA3B JUMPI PUSH1 0x20 DUP7 PUSH2 0x4BB DUP8 DUP11 DUP9 PUSH2 0xA36 DUP4 DUP11 SUB CALLER DUP4 PUSH2 0xCFD JUMP JUMPDEST PUSH2 0xDBF JUMP JUMPDEST PUSH1 0x84 SWAP3 DUP6 SWAP2 DUP8 MLOAD SWAP4 PUSH32 0xC92E267600000000000000000000000000000000000000000000000000000000 DUP6 MSTORE DUP5 ADD MSTORE CALLER PUSH1 0x24 DUP5 ADD MSTORE PUSH1 0x44 DUP4 ADD MSTORE PUSH1 0x64 DUP3 ADD MSTORE REVERT JUMPDEST POP POP CALLVALUE PUSH2 0x46F JUMPI DUP2 PUSH32 0xFFFFFFFFFFFFFFFFFFFFFFFFFFFFFFFFFFFFFFFFFFFFFFFFFFFFFFFFFFFFFFFC CALLDATASIZE ADD SLT PUSH2 0x46F JUMPI PUSH1 0x20 SWAP1 PUSH1 0x3 SLOAD SWAP1 MLOAD SWAP1 DUP2 MSTORE RETURN JUMPDEST POP POP CALLVALUE PUSH2 0x46F JUMPI DUP1 PUSH32 0xFFFFFFFFFFFFFFFFFFFFFFFFFFFFFFFFFFFFFFFFFFFFFFFFFFFFFFFFFFFFFFFC CALLDATASIZE ADD SLT PUSH2 0x46F JUMPI PUSH1 0x20 SWAP1 PUSH2 0x4BB PUSH2 0xAF6 PUSH2 0xCB2 JUMP JUMPDEST PUSH1 0x24 CALLDATALOAD SWAP1 CALLER PUSH2 0xCFD JUMP JUMPDEST SWAP3 SWAP2 SWAP1 POP CALLVALUE PUSH2 0xBD8 JUMPI DUP4 PUSH32 0xFFFFFFFFFFFFFFFFFFFFFFFFFFFFFFFFFFFFFFFFFFFFFFFFFFFFFFFFFFFFFFFC CALLDATASIZE ADD SLT PUSH2 0xBD8 JUMPI DUP4 SLOAD PUSH1 0x1 DUP2 DUP2 SHR SWAP2 DUP7 SWAP1 DUP3 DUP2 AND DUP1 ISZERO PUSH2 0xBCE JUMPI JUMPDEST PUSH1 0x20 SWAP6 DUP7 DUP7 LT DUP3 EQ PUSH2 0x68C JUMPI POP DUP5 DUP9 MSTORE SWAP1 DUP2 ISZERO PUSH2 0x64C JUMPI POP PUSH1 0x1 EQ PUSH2 0xB76 JUMPI PUSH2 0x5F0 DUP7 DUP7 PUSH2 0x5E6 DUP3 DUP12 SUB DUP4 PUSH2 0xBDC JUMP JUMPDEST DUP1 DUP1 SWAP5 SWAP8 POP MSTORE PUSH32 0x290DECD9548B62A8D60345A988386FC84BA6BC95484008F6362F93160EF3E563 JUMPDEST DUP3 DUP5 LT PUSH2 0xBBB JUMPI POP POP POP DUP3 PUSH2 0x5F0 SWAP5 PUSH2 0x5E6 SWAP3 DUP3 ADD ADD SWAP5 CODESIZE PUSH2 0x5D5 JUMP JUMPDEST DUP1 SLOAD DUP7 DUP6 ADD DUP9 ADD MSTORE SWAP3 DUP7 ADD SWAP3 DUP2 ADD PUSH2 0xB9E JUMP JUMPDEST SWAP4 PUSH1 0x7F AND SWAP4 PUSH2 0xB46 JUMP JUMPDEST DUP4 DUP1 REVERT JUMPDEST SWAP1 PUSH1 0x1F PUSH32 0xFFFFFFFFFFFFFFFFFFFFFFFFFFFFFFFFFFFFFFFFFFFFFFFFFFFFFFFFFFFFFFE0 SWAP2 ADD AND DUP2 ADD SWAP1 DUP2 LT PUSH8 0xFFFFFFFFFFFFFFFF DUP3 GT OR PUSH2 0xC1D JUMPI PUSH1 0x40 MSTORE JUMP JUMPDEST PUSH32 0x4E487B7100000000000000000000000000000000000000000000000000000000 PUSH1 0x0 MSTORE PUSH1 0x41 PUSH1 0x4 MSTORE PUSH1 0x24 PUSH1 0x0 REVERT JUMPDEST PUSH1 0x20 DUP1 DUP3 MSTORE DUP3 MLOAD DUP2 DUP4 ADD DUP2 SWAP1 MSTORE SWAP4 SWAP3 PUSH1 0x0 JUMPDEST DUP6 DUP2 LT PUSH2 0xC9E JUMPI POP POP POP PUSH32 0xFFFFFFFFFFFFFFFFFFFFFFFFFFFFFFFFFFFFFFFFFFFFFFFFFFFFFFFFFFFFFFE0 PUSH1 0x1F DUP5 PUSH1 0x0 PUSH1 0x40 DUP1 SWAP7 SWAP8 DUP7 ADD ADD MSTORE ADD AND ADD ADD SWAP1 JUMP JUMPDEST DUP2 DUP2 ADD DUP4 ADD MLOAD DUP5 DUP3 ADD PUSH1 0x40 ADD MSTORE DUP3 ADD PUSH2 0xC5E JUMP JUMPDEST PUSH1 0x4 CALLDATALOAD SWAP1 PUSH20 0xFFFFFFFFFFFFFFFFFFFFFFFFFFFFFFFFFFFFFFFF DUP3 AND DUP3 SUB PUSH2 0xCD5 JUMPI JUMP JUMPDEST PUSH1 0x0 DUP1 REVERT JUMPDEST PUSH1 0x24 CALLDATALOAD SWAP1 PUSH20 0xFFFFFFFFFFFFFFFFFFFFFFFFFFFFFFFFFFFFFFFF DUP3 AND DUP3 SUB PUSH2 0xCD5 JUMPI JUMP JUMPDEST PUSH20 0xFFFFFFFFFFFFFFFFFFFFFFFFFFFFFFFFFFFFFFFF DUP1 SWAP2 AND SWAP2 DUP3 ISZERO PUSH2 0xD95 JUMPI AND SWAP2 DUP3 ISZERO PUSH2 0xD6B JUMPI PUSH1 0x20 PUSH32 0x8C5BE1E5EBEC7D5BD14F71427D1E84F3DD0314C0F7B2291E5B200AC8C7C3B925 SWAP2 DUP4 PUSH1 0x0 MSTORE PUSH1 0x4 DUP3 MSTORE PUSH1 0x40 PUSH1 0x0 KECCAK256 DUP6 PUSH1 0x0 MSTORE DUP3 MSTORE DUP1 PUSH1 0x40 PUSH1 0x0 KECCAK256 SSTORE PUSH1 0x40 MLOAD SWAP1 DUP2 MSTORE LOG3 JUMP JUMPDEST PUSH1 0x4 PUSH1 0x40 MLOAD PUSH32 0xADA6435C00000000000000000000000000000000000000000000000000000000 DUP2 MSTORE REVERT JUMPDEST PUSH1 0x4 PUSH1 0x40 MLOAD PUSH32 0x8C6C687400000000000000000000000000000000000000000000000000000000 DUP2 MSTORE REVERT JUMPDEST PUSH20 0xFFFFFFFFFFFFFFFFFFFFFFFFFFFFFFFFFFFFFFFF DUP1 SWAP2 AND SWAP2 DUP3 ISZERO PUSH2 0xEA5 JUMPI AND SWAP2 DUP3 ISZERO PUSH2 0xE7B JUMPI PUSH1 0x0 DUP3 DUP2 MSTORE PUSH1 0x5 PUSH1 0x20 MSTORE PUSH1 0x40 DUP2 KECCAK256 SLOAD DUP3 DUP2 LT PUSH2 0xE44 JUMPI SWAP2 PUSH1 0x40 DUP3 DUP3 PUSH32 0xDDF252AD1BE2C89B69C2B068FC378DAA952BA7F163C4A11628F55A4DF523B3EF SWAP6 DUP8 PUSH1 0x20 SWAP7 MSTORE PUSH1 0x5 DUP7 MSTORE SUB DUP3 DUP3 KECCAK256 SSTORE DUP7 DUP2 MSTORE KECCAK256 DUP2 DUP2 SLOAD ADD SWAP1 SSTORE PUSH1 0x40 MLOAD SWAP1 DUP2 MSTORE LOG3 JUMP JUMPDEST PUSH1 0x44 SWAP1 DUP4 PUSH1 0x40 MLOAD SWAP2 PUSH32 0x8619EA9200000000000000000000000000000000000000000000000000000000 DUP4 MSTORE PUSH1 0x4 DUP4 ADD MSTORE PUSH1 0x24 DUP3 ADD MSTORE REVERT JUMPDEST PUSH1 0x4 PUSH1 0x40 MLOAD PUSH32 0x30B4B58000000000000000000000000000000000000000000000000000000000 DUP2 MSTORE REVERT JUMPDEST PUSH1 0x4 PUSH1 0x40 MLOAD PUSH32 0x6FBB781700000000000000000000000000000000000000000000000000000000 DUP2 MSTORE REVERT INVALID LOG2 PUSH5 0x6970667358 0x22 SLT KECCAK256 SHR DIV CALLDATACOPY MSTORE PUSH29 0x3F698CD339F6676B79189A6C2509A81ABF42302BD3DDB54CF604006473 PUSH16 0x6C634300081100330000000000000000 "},"methodIdentifiers":{"DOMAIN_SEPARATOR()":"3644e515","PERMIT_TYPEHASH()":"30adf81f","allowance(address,address)":"dd62ed3e","approve(address,uint256)":"095ea7b3","balanceOf(address)":"70a08231","decimals()":"313ce567","decreaseAllowance(address,uint256)":"a457c2d7","increaseAllowance(address,uint256)":"39509351","name()":"06fdde03","nonces(address)":"7ecebe00","permit(address,address,uint256,uint256,uint8,bytes32,bytes32)":"d505accf","symbol()":"95d89b41","totalSupply()":"18160ddd","transfer(address,uint256)":"a9059cbb","transferFrom(address,address,uint256)":"23b872dd","version()":"54fd4d50"}}}}}