{"contracts/cygnus-core/CygnusTerminal.sol":{"CygnusTerminal":{"abi":[{"inputs":[],"stateMutability":"nonpayable","type":"constructor"},{"inputs":[],"name":"CygnusTerminal__CantMintZeroShares","type":"error"},{"inputs":[],"name":"CygnusTerminal__CantRedeemZeroAssets","type":"error"},{"inputs":[],"name":"CygnusTerminal__CantSweepUnderlying","type":"error"},{"inputs":[],"name":"CygnusTerminal__MsgSenderNotAdmin","type":"error"},{"inputs":[{"internalType":"address","name":"owner","type":"address"},{"internalType":"uint8","name":"v","type":"uint8"},{"internalType":"bytes32","name":"r","type":"bytes32"},{"internalType":"bytes32","name":"s","type":"bytes32"}],"name":"ERC20Permit_InvalidSignature","type":"error"},{"inputs":[],"name":"ERC20Permit_OwnerZeroAddress","type":"error"},{"inputs":[{"internalType":"uint256","name":"currentTime","type":"uint256"},{"internalType":"uint256","name":"deadline","type":"uint256"}],"name":"ERC20Permit_PermitExpired","type":"error"},{"inputs":[],"name":"ERC20Permit_RecoveredOwnerZeroAddress","type":"error"},{"inputs":[],"name":"ERC20Permit_SpenderZeroAddress","type":"error"},{"inputs":[],"name":"ERC20_ApproveOwnerZeroAddress","type":"error"},{"inputs":[],"name":"ERC20_ApproveSpenderZeroAddress","type":"error"},{"inputs":[],"name":"ERC20_BurnHolderZeroAddress","type":"error"},{"inputs":[{"internalType":"uint256","name":"senderBalance","type":"uint256"},{"internalType":"uint256","name":"transferAmount","type":"uint256"}],"name":"ERC20_FromInsufficientBalance","type":"error"},{"inputs":[{"internalType":"address","name":"owner","type":"address"},{"internalType":"address","name":"spender","type":"address"},{"internalType":"uint256","name":"allowance","type":"uint256"},{"internalType":"uint256","name":"transferAmount","type":"uint256"}],"name":"ERC20_InsufficientAllowance","type":"error"},{"inputs":[],"name":"ERC20_MintBeneficiaryZeroAddress","type":"error"},{"inputs":[],"name":"ERC20_TransferFromZeroAddress","type":"error"},{"inputs":[],"name":"ERC20_TransferToZeroAddress","type":"error"},{"inputs":[],"name":"ReentrantCall","type":"error"},{"anonymous":false,"inputs":[{"indexed":true,"internalType":"address","name":"owner","type":"address"},{"indexed":true,"internalType":"address","name":"spender","type":"address"},{"indexed":false,"internalType":"uint256","name":"value","type":"uint256"}],"name":"Approval","type":"event"},{"anonymous":false,"inputs":[{"indexed":true,"internalType":"address","name":"sender","type":"address"},{"indexed":true,"internalType":"address","name":"recipient","type":"address"},{"indexed":false,"internalType":"uint256","name":"assets","type":"uint256"},{"indexed":false,"internalType":"uint256","name":"shares","type":"uint256"}],"name":"Deposit","type":"event"},{"anonymous":false,"inputs":[{"indexed":false,"internalType":"uint160","name":"totalBalance","type":"uint160"}],"name":"Sync","type":"event"},{"anonymous":false,"inputs":[{"indexed":true,"internalType":"address","name":"from","type":"address"},{"indexed":true,"internalType":"address","name":"to","type":"address"},{"indexed":false,"internalType":"uint256","name":"amount","type":"uint256"}],"name":"Transfer","type":"event"},{"anonymous":false,"inputs":[{"indexed":true,"internalType":"address","name":"sender","type":"address"},{"indexed":true,"internalType":"address","name":"recipient","type":"address"},{"indexed":true,"internalType":"address","name":"owner","type":"address"},{"indexed":false,"internalType":"uint256","name":"assets","type":"uint256"},{"indexed":false,"internalType":"uint256","name":"shares","type":"uint256"}],"name":"Withdraw","type":"event"},{"inputs":[],"name":"DOMAIN_SEPARATOR","outputs":[{"internalType":"bytes32","name":"","type":"bytes32"}],"stateMutability":"view","type":"function"},{"inputs":[],"name":"PERMIT2","outputs":[{"internalType":"contract IAllowanceTransfer","name":"","type":"address"}],"stateMutability":"view","type":"function"},{"inputs":[],"name":"PERMIT_TYPEHASH","outputs":[{"internalType":"bytes32","name":"","type":"bytes32"}],"stateMutability":"view","type":"function"},{"inputs":[{"internalType":"address","name":"owner","type":"address"},{"internalType":"address","name":"spender","type":"address"}],"name":"allowance","outputs":[{"internalType":"uint256","name":"","type":"uint256"}],"stateMutability":"view","type":"function"},{"inputs":[{"internalType":"address","name":"spender","type":"address"},{"internalType":"uint256","name":"value","type":"uint256"}],"name":"approve","outputs":[{"internalType":"bool","name":"","type":"bool"}],"stateMutability":"nonpayable","type":"function"},{"inputs":[{"internalType":"address","name":"account","type":"address"}],"name":"balanceOf","outputs":[{"internalType":"uint256","name":"","type":"uint256"}],"stateMutability":"view","type":"function"},{"inputs":[],"name":"cygnusNebulaOracle","outputs":[{"internalType":"contract ICygnusNebulaOracle","name":"","type":"address"}],"stateMutability":"view","type":"function"},{"inputs":[],"name":"decimals","outputs":[{"internalType":"uint8","name":"","type":"uint8"}],"stateMutability":"view","type":"function"},{"inputs":[{"internalType":"address","name":"spender","type":"address"},{"internalType":"uint256","name":"value","type":"uint256"}],"name":"decreaseAllowance","outputs":[{"internalType":"bool","name":"","type":"bool"}],"stateMutability":"nonpayable","type":"function"},{"inputs":[{"internalType":"uint256","name":"assets","type":"uint256"},{"internalType":"address","name":"recipient","type":"address"},{"components":[{"components":[{"internalType":"address","name":"token","type":"address"},{"internalType":"uint160","name":"amount","type":"uint160"},{"internalType":"uint48","name":"expiration","type":"uint48"},{"internalType":"uint48","name":"nonce","type":"uint48"}],"internalType":"struct IAllowanceTransfer.PermitDetails","name":"details","type":"tuple"},{"internalType":"address","name":"spender","type":"address"},{"internalType":"uint256","name":"sigDeadline","type":"uint256"}],"internalType":"struct IAllowanceTransfer.PermitSingle","name":"_permit","type":"tuple"},{"internalType":"bytes","name":"signature","type":"bytes"}],"name":"deposit","outputs":[{"internalType":"uint256","name":"shares","type":"uint256"}],"stateMutability":"nonpayable","type":"function"},{"inputs":[],"name":"exchangeRate","outputs":[{"internalType":"uint256","name":"","type":"uint256"}],"stateMutability":"nonpayable","type":"function"},{"inputs":[],"name":"hangar18","outputs":[{"internalType":"contract IHangar18","name":"","type":"address"}],"stateMutability":"view","type":"function"},{"inputs":[{"internalType":"address","name":"spender","type":"address"},{"internalType":"uint256","name":"value","type":"uint256"}],"name":"increaseAllowance","outputs":[{"internalType":"bool","name":"","type":"bool"}],"stateMutability":"nonpayable","type":"function"},{"inputs":[],"name":"name","outputs":[{"internalType":"string","name":"","type":"string"}],"stateMutability":"view","type":"function"},{"inputs":[{"internalType":"address","name":"","type":"address"}],"name":"nonces","outputs":[{"internalType":"uint256","name":"","type":"uint256"}],"stateMutability":"view","type":"function"},{"inputs":[{"internalType":"address","name":"owner","type":"address"},{"internalType":"address","name":"spender","type":"address"},{"internalType":"uint256","name":"value","type":"uint256"},{"internalType":"uint256","name":"deadline","type":"uint256"},{"internalType":"uint8","name":"v","type":"uint8"},{"internalType":"bytes32","name":"r","type":"bytes32"},{"internalType":"bytes32","name":"s","type":"bytes32"}],"name":"permit","outputs":[],"stateMutability":"nonpayable","type":"function"},{"inputs":[{"internalType":"uint256","name":"shares","type":"uint256"},{"internalType":"address","name":"recipient","type":"address"},{"internalType":"address","name":"owner","type":"address"}],"name":"redeem","outputs":[{"internalType":"uint256","name":"assets","type":"uint256"}],"stateMutability":"nonpayable","type":"function"},{"inputs":[],"name":"shuttleId","outputs":[{"internalType":"uint256","name":"","type":"uint256"}],"stateMutability":"view","type":"function"},{"inputs":[{"internalType":"address","name":"token","type":"address"}],"name":"sweepToken","outputs":[],"stateMutability":"nonpayable","type":"function"},{"inputs":[],"name":"symbol","outputs":[{"internalType":"string","name":"","type":"string"}],"stateMutability":"view","type":"function"},{"inputs":[],"name":"totalBalance","outputs":[{"internalType":"uint160","name":"","type":"uint160"}],"stateMutability":"view","type":"function"},{"inputs":[],"name":"totalSupply","outputs":[{"internalType":"uint256","name":"","type":"uint256"}],"stateMutability":"view","type":"function"},{"inputs":[{"internalType":"address","name":"to","type":"address"},{"internalType":"uint256","name":"amount","type":"uint256"}],"name":"transfer","outputs":[{"internalType":"bool","name":"","type":"bool"}],"stateMutability":"nonpayable","type":"function"},{"inputs":[{"internalType":"address","name":"from","type":"address"},{"internalType":"address","name":"to","type":"address"},{"internalType":"uint256","name":"amount","type":"uint256"}],"name":"transferFrom","outputs":[{"internalType":"bool","name":"","type":"bool"}],"stateMutability":"nonpayable","type":"function"},{"inputs":[],"name":"underlying","outputs":[{"internalType":"address","name":"","type":"address"}],"stateMutability":"view","type":"function"},{"inputs":[],"name":"version","outputs":[{"internalType":"string","name":"","type":"string"}],"stateMutability":"view","type":"function"}],"evm":{"bytecode":{"linkReferences":{},"object":"610120604081815234620002c55760009081549160019383851c858516928315620002ba575b6020958683108514620002a65782845286840194849291889082156200028957505060011462000245575b6200005e92500382620002ca565b519020815190936001600160401b0391808401838111828210176200022f5782918691865282815201603160f81b8152208351948501957f8b73c3c69bb8fe3d512ecc4cf759cc79239f7b179b0ffacaa9a75d522b39400f875284860152606085015246608085015260a094308686015285855260c0850192858410908411176200022f578284528451902060805260ff196007541617600755635a412e5360e01b815283816004816000335af1928315620002245760009182918391849662000195575b505061010094855260c05260e05283525190611e6592836200030484396080518381816103d7015261137801525182818161018c01526115b9015260c05182610279015260e05182818161070601528181610bb101528181611117015281816115f70152611ac4015251816111b90152f35b9250809550868092503d83116200021c575b620001b38185620002ca565b81010312620002185751926001600160a01b039081851685036200021457620001df60e08201620002ee565b92620001ef6101008301620002ee565b5061012082015192831683036200021157506101400151939190388062000123565b80fd5b8280fd5b5080fd5b503d620001a7565b82513d6000823e3d90fd5b634e487b7160e01b600052604160045260246000fd5b505060008052818580600020886000915b8583106200026f5750506200005e935082010162000050565b809192945054838588010152019101869088859362000256565b60ff191687526200005e94151560051b8401019150620000509050565b634e487b7160e01b82526022600452602482fd5b90607f169062000025565b600080fd5b601f909101601f19168101906001600160401b038211908210176200022f57604052565b51906001600160a01b0382168203620002c55756fe608060408181526004918236101561001657600080fd5b600092833560e01c91826306fdde031461178357508163095ea7b31461173b57816318160ddd146116fe5781631be195601461150857816323b872dd1461143457816330adf81f146113db578163313ce5671461139b5781633644e5151461134257816339509351146112d05781633ba0b9a91461128e57816354fd4d50146111dc5781635f77f891146111835781636afdd8501461113b5781636f307dc3146110cc57816370a082311461106a5781637ecebe00146110085781638808e71c14610ad857816395d89b411461097e578163a457c2d714610904578163a9059cbb146108b5578163ad7a672f1461085f578163ba087652146105c4578163d505accf1461029d578163d935bd921461022e578163dd62ed3e146101b4575063e8a24e1d1461014357600080fd5b346101b057817ffffffffffffffffffffffffffffffffffffffffffffffffffffffffffffffffc3601126101b0576020905173ffffffffffffffffffffffffffffffffffffffff7f0000000000000000000000000000000000000000000000000000000000000000168152f35b5080fd5b90503461022a57817ffffffffffffffffffffffffffffffffffffffffffffffffffffffffffffffffc36011261022a57602092826101f06119b1565b916101f96119d9565b9373ffffffffffffffffffffffffffffffffffffffff80941682528652209116600052825280600020549051908152f35b8280fd5b5050346101b057817ffffffffffffffffffffffffffffffffffffffffffffffffffffffffffffffffc3601126101b0576020905173ffffffffffffffffffffffffffffffffffffffff7f0000000000000000000000000000000000000000000000000000000000000000168152f35b8383346101b05760e07ffffffffffffffffffffffffffffffffffffffffffffffffffffffffffffffffc3601126101b0576102d66119b1565b906102df6119d9565b906044356064359160843560ff81168091036105c05760a43560c4359173ffffffffffffffffffffffffffffffffffffffff8098169687156105985788169788156105705742871061053a57878a5260209660068852858b2090815491600183019055865190898201927f6e71edae12b1b97f4d1f60370fef10105fa2faae0126114a169c64845d6126c984528b898401528c606084015289608084015260a083015260c082015260c0815260e0810167ffffffffffffffff928282108483111761050c5781895282519020906101008301917f190100000000000000000000000000000000000000000000000000000000000083527f0000000000000000000000000000000000000000000000000000000000000000610102850152610122840152604281526101608301938185109085111761050c5792876101c08f946080948e97858e52519020845288610180820152896101a0820152015282805260015afa156105025789511680156104da57870361049a575050508596847f8c5be1e5ebec7d5bd14f71427d1e84f3dd0314c0f7b2291e5b200ac8c7c3b92595969752835280872086600052835281816000205551908152a380f35b60849450868a9451947f3460790b000000000000000000000000000000000000000000000000000000008652850152602484015260448301526064820152fd5b8a85517fd147d0e3000000000000000000000000000000000000000000000000000000008152fd5b84513d8b823e3d90fd5b60418f7f4e487b71000000000000000000000000000000000000000000000000000000006000525260246000fd5b60448b888751917f3288645900000000000000000000000000000000000000000000000000000000835242908301526024820152fd5b8a85517f7b4813dd000000000000000000000000000000000000000000000000000000008152fd5b8a85517f6f5b87d2000000000000000000000000000000000000000000000000000000008152fd5b8680fd5b9190503461022a5760607ffffffffffffffffffffffffffffffffffffffffffffffffffffffffffffffffc36011261022a578135926106016119d9565b9361060a6119fc565b6007549560ff871615610837577fffffffffffffffffffffffffffffffffffffffffffffffffffffffffffffff0080971660075573ffffffffffffffffffffffffffffffffffffffff809216938433036107cb575b610667611a1f565b807fffffffffffffffffffffffffffffffffffffffffffffffffffffffffffffffff04851181026107bf57670de0b6b3a76400009085020496871561079857851561077157509160209793918386600197955260058a528781206106cc858254611a5c565b90558360035403600355847fddf252ad1be2c89b69c2b068fc378daa952ba7f163c4a11628f55a4df523b3ef8b8a51878152a361072a88827f0000000000000000000000000000000000000000000000000000000000000000611db7565b8651928884528984015216907ffbde797d201c681b91056529119e0b02407c7bb96a4a2c75c01fc9667232c8db863392a4610763611a98565b600754161760075551908152f35b86517f3eedce07000000000000000000000000000000000000000000000000000000008152fd5b86517fe3e8d297000000000000000000000000000000000000000000000000000000008152fd5b8763bac65e5b8352601cfd5b84815286602052858120336000526020528560002054847fffffffffffffffffffffffffffffffffffffffffffffffffffffffffffffffff8203610811575b505061065f565b61081a91611a5c565b85825287602052868220336000526020528660002055388461080a565b8585517f37ed32e8000000000000000000000000000000000000000000000000000000008152fd5b5050346101b057817ffffffffffffffffffffffffffffffffffffffffffffffffffffffffffffffffc3601126101b05760209073ffffffffffffffffffffffffffffffffffffffff60075460081c169051908152f35b5050346101b057807ffffffffffffffffffffffffffffffffffffffffffffffffffffffffffffffffc3601126101b0576020906108fd6108f36119b1565b6024359033611c20565b5160018152f35b90503461022a57817ffffffffffffffffffffffffffffffffffffffffffffffffffffffffffffffffc36011261022a576108fd90826020946109446119b1565b9233825286522073ffffffffffffffffffffffffffffffffffffffff821660005284526109776024358460002054611a5c565b9033611b5e565b828434610ad557807ffffffffffffffffffffffffffffffffffffffffffffffffffffffffffffffffc360112610ad55750805190600092600180549081811c918181168015610acb575b6020948585108214610a9f5750838752908115610a615750600114610a08575b5050506109fa82610a0494038361190a565b519182918261194b565b0390f35b60008181529295507fb10e2d527612073b26eecdfd717e6a320cf44b4afac2b0732d9fcbe2b7fa0cf65b828410610a4e5750505082610a04946109fa92820101946109e8565b8054868501880152928601928101610a32565b7fffffffffffffffffffffffffffffffffffffffffffffffffffffffffffffff0016868501525050151560051b83010192506109fa82610a046109e8565b8860226024927f4e487b7100000000000000000000000000000000000000000000000000000000835252fd5b92607f16926109c8565b80fd5b8383346101b0576101207ffffffffffffffffffffffffffffffffffffffffffffffffffffffffffffffffc3601126101b057823592610b156119d9565b9360c07fffffffffffffffffffffffffffffffffffffffffffffffffffffffffffffffbc360112610e91576101049467ffffffffffffffff9086358281116105c057366023820112156105c057808501359283116105c05760249636888584010111610ad5576007549860ff8a1615610fe0577fffffffffffffffffffffffffffffffffffffffffffffffffffffffffffffff00809a166007557f000000000000000000000000000000000000000000000000000000000000000094610bdb3087611e00565b9381610e95575b50505090610bef85611d73565b936e22d473030f116ddee9f6b43ac78ba3803b15610e9157838a60848a838d5195869485937f36c785160000000000000000000000000000000000000000000000000000000085523390850152309084015273ffffffffffffffffffffffffffffffffffffffff809c1660448401528b881660648401525af18015610e8757908491610e73575b5050610c9d91610c8a610c8f923090611e00565b611a5c565b610c97611a1f565b90611d30565b968715610e4b57600354918215610d6c575b50505016918215610d45575093600191602095610cce86600354611b51565b6003558160005260058752846000208681540190558160007fddf252ad1be2c89b69c2b068fc378daa952ba7f163c4a11628f55a4df523b3ef8988518a8152a3845190815285878201527fdcbc1c05240f31ff3ad067ef1ee35ce4997762752e3a095284754544f4c709d7853392a3610763611a98565b83517fdf3dc1c9000000000000000000000000000000000000000000000000000000008152fd5b7ffffffffffffffffffffffffffffffffffffffffffffffffffffffffffffffc188992939901918211610e205750966103e891828201809211610df4575060035560007fddf252ad1be2c89b69c2b068fc378daa952ba7f163c4a11628f55a4df523b3ef602061dead93848452600582528984208181540190558951908152a3878080610caf565b6011877f4e487b7100000000000000000000000000000000000000000000000000000000600052526000fd5b90506011867f4e487b7100000000000000000000000000000000000000000000000000000000835252fd5b8587517ff1ca48b1000000000000000000000000000000000000000000000000000000008152fd5b610e7c906118c7565b61022a57828b610c76565b89513d86823e3d90fd5b8380fd5b6e22d473030f116ddee9f6b43ac78ba391823b15610fdc578a51937f2b67b570000000000000000000000000000000000000000000000000000000008552338b86015273ffffffffffffffffffffffffffffffffffffffff8d81610ef76119fc565b1690870152606435818116809103610fd457604487015260843565ffffffffffff90818116809103610fd857606488015260a435908116809103610fd457608487015260c4359081168091036105c0578593848f601f86807fffffffffffffffffffffffffffffffffffffffffffffffffffffffffffffffe0938d9b9986998d9960a489015260e43560c489015261010060e489015287015261012496018686013785858286010152011681010301925af18015610fca57610fbb575b8080610be2565b610fc4906118c7565b89610fb4565b88513d84823e3d90fd5b8780fd5b8880fd5b8480fd5b8688517f37ed32e8000000000000000000000000000000000000000000000000000000008152fd5b5050346101b05760207ffffffffffffffffffffffffffffffffffffffffffffffffffffffffffffffffc3601126101b0578060209273ffffffffffffffffffffffffffffffffffffffff61105a6119b1565b1681526006845220549051908152f35b5050346101b05760207ffffffffffffffffffffffffffffffffffffffffffffffffffffffffffffffffc3601126101b0578060209273ffffffffffffffffffffffffffffffffffffffff6110bc6119b1565b1681526005845220549051908152f35b5050346101b057817ffffffffffffffffffffffffffffffffffffffffffffffffffffffffffffffffc3601126101b0576020905173ffffffffffffffffffffffffffffffffffffffff7f0000000000000000000000000000000000000000000000000000000000000000168152f35b5050346101b057817ffffffffffffffffffffffffffffffffffffffffffffffffffffffffffffffffc3601126101b057602090516e22d473030f116ddee9f6b43ac78ba38152f35b5050346101b057817ffffffffffffffffffffffffffffffffffffffffffffffffffffffffffffffffc3601126101b057602090517f00000000000000000000000000000000000000000000000000000000000000008152f35b8383346101b057817ffffffffffffffffffffffffffffffffffffffffffffffffffffffffffffffffc3601126101b0578051918183019083821067ffffffffffffffff8311176112625750610a0493508152600182527f31000000000000000000000000000000000000000000000000000000000000006020830152519182918261194b565b806041867f4e487b71000000000000000000000000000000000000000000000000000000006024945252fd5b5050346101b057817ffffffffffffffffffffffffffffffffffffffffffffffffffffffffffffffffc3601126101b0576020906112c9611a1f565b9051908152f35b90503461022a57817ffffffffffffffffffffffffffffffffffffffffffffffffffffffffffffffffc36011261022a576108fd906109776020946113126119b1565b92338252865284812073ffffffffffffffffffffffffffffffffffffffff84168252865284602435912054611b51565b5050346101b057817ffffffffffffffffffffffffffffffffffffffffffffffffffffffffffffffffc3601126101b057602090517f00000000000000000000000000000000000000000000000000000000000000008152f35b5050346101b057817ffffffffffffffffffffffffffffffffffffffffffffffffffffffffffffffffc3601126101b05760209060ff600254169051908152f35b5050346101b057817ffffffffffffffffffffffffffffffffffffffffffffffffffffffffffffffffc3601126101b057602090517f6e71edae12b1b97f4d1f60370fef10105fa2faae0126114a169c64845d6126c98152f35b90503461022a5760607ffffffffffffffffffffffffffffffffffffffffffffffffffffffffffffffffc36011261022a5761146d6119b1565b6114756119d9565b93604435928473ffffffffffffffffffffffffffffffffffffffff841692838152826020528181203382526020522054918483106114c8576020866108fd878a886114c3838a033383611b5e565b611c20565b60849285918751937fc92e267600000000000000000000000000000000000000000000000000000000855284015233602484015260448301526064820152fd5b90503461022a5760207ffffffffffffffffffffffffffffffffffffffffffffffffffffffffffffffffc36011261022a576115416119b1565b906007549260ff8416156116d8577fffffffffffffffffffffffffffffffffffffffffffffffffffffffffffffff0080941660075580517ff851a44000000000000000000000000000000000000000000000000000000000815273ffffffffffffffffffffffffffffffffffffffff906020818581857f0000000000000000000000000000000000000000000000000000000000000000165afa9081156116ce579082918891611691575b5016330361166a57807f000000000000000000000000000000000000000000000000000000000000000016908416146116445784600185611639866116313082611e00565b903390611db7565b600754161760075580f35b517fb5d8f391000000000000000000000000000000000000000000000000000000008152fd5b50517f63ac75a2000000000000000000000000000000000000000000000000000000008152fd5b9150506020813d82116116c6575b816116ac6020938361190a565b810103126105c0575181811681036105c0578190386115ec565b3d915061169f565b83513d89823e3d90fd5b517f37ed32e8000000000000000000000000000000000000000000000000000000008152fd5b5050346101b057817ffffffffffffffffffffffffffffffffffffffffffffffffffffffffffffffffc3601126101b0576020906003549051908152f35b5050346101b057807ffffffffffffffffffffffffffffffffffffffffffffffffffffffffffffffffc3601126101b0576020906108fd6117796119b1565b6024359033611b5e565b92915034610e9157837ffffffffffffffffffffffffffffffffffffffffffffffffffffffffffffffffc360112610e91578354600181811c91869082811680156118bd575b6020958686108214611891575084885290811561185157506001146117f9575b610a0486866109fa828b038361190a565b8080949750527f290decd9548b62a8d60345a988386fc84ba6bc95484008f6362f93160ef3e5635b82841061183e5750505082610a04946109fa9282010194386117e8565b8054868501880152928601928101611821565b7fffffffffffffffffffffffffffffffffffffffffffffffffffffffffffffff001687860152505050151560051b83010192506109fa82610a04386117e8565b8360226024927f4e487b7100000000000000000000000000000000000000000000000000000000835252fd5b93607f16936117c8565b67ffffffffffffffff81116118db57604052565b7f4e487b7100000000000000000000000000000000000000000000000000000000600052604160045260246000fd5b90601f7fffffffffffffffffffffffffffffffffffffffffffffffffffffffffffffffe0910116810190811067ffffffffffffffff8211176118db57604052565b60208082528251818301819052939260005b85811061199d575050507fffffffffffffffffffffffffffffffffffffffffffffffffffffffffffffffe0601f8460006040809697860101520116010190565b81810183015184820160400152820161195d565b6004359073ffffffffffffffffffffffffffffffffffffffff821682036119d457565b600080fd5b6024359073ffffffffffffffffffffffffffffffffffffffff821682036119d457565b6044359073ffffffffffffffffffffffffffffffffffffffff821682036119d457565b60035480611a345750670de0b6b3a764000090565b611a599073ffffffffffffffffffffffffffffffffffffffff60075460081c16611d30565b90565b91908203918211611a6957565b7f4e487b7100000000000000000000000000000000000000000000000000000000600052601160045260246000fd5b7f3145c2b643834867f2c0a8cac8a48218307687911615c0ed01412a09dd163b666020611aed611ae8307f0000000000000000000000000000000000000000000000000000000000000000611e00565b611d73565b6007547fffffffffffffffffffffff0000000000000000000000000000000000000000ff74ffffffffffffffffffffffffffffffffffffffff008360081b1691161760075573ffffffffffffffffffffffffffffffffffffffff60405191168152a1565b91908201809211611a6957565b73ffffffffffffffffffffffffffffffffffffffff809116918215611bf65716918215611bcc5760207f8c5be1e5ebec7d5bd14f71427d1e84f3dd0314c0f7b2291e5b200ac8c7c3b925918360005260048252604060002085600052825280604060002055604051908152a3565b60046040517fada6435c000000000000000000000000000000000000000000000000000000008152fd5b60046040517f8c6c6874000000000000000000000000000000000000000000000000000000008152fd5b73ffffffffffffffffffffffffffffffffffffffff809116918215611d065716918215611cdc57600082815260056020526040812054828110611ca55791604082827fddf252ad1be2c89b69c2b068fc378daa952ba7f163c4a11628f55a4df523b3ef95876020965260058652038282205586815220818154019055604051908152a3565b60449083604051917f8619ea9200000000000000000000000000000000000000000000000000000000835260048301526024820152fd5b60046040517f30b4b580000000000000000000000000000000000000000000000000000000008152fd5b60046040517f6fbb7817000000000000000000000000000000000000000000000000000000008152fd5b670de0b6b3a7640000907812725dd1d243aba0e75fe645cc4873f9e65afe688c928e1f218111820215830215611d6557020490565b637c5f487d6000526004601cfd5b74010000000000000000000000000000000000000000811015611da95773ffffffffffffffffffffffffffffffffffffffff1690565b6335278d126000526004601cfd5b60109260209260145260345260446000938480936fa9059cbb00000000000000000000000082525af13d156001835114171615611df357603452565b6390b8ec1890526004601cfd5b602460106020939284936014526f70a082310000000000000000000000006000525afa601f3d1116602051029056fea264697066735822122017b4f7f00f16c24ba00690f3189a5c55acb86e3a85f25f0c897b84f443d9053f64736f6c63430008110033","opcodes":"PUSH2 0x120 PUSH1 0x40 DUP2 DUP2 MSTORE CALLVALUE PUSH3 0x2C5 JUMPI PUSH1 0x0 SWAP1 DUP2 SLOAD SWAP2 PUSH1 0x1 SWAP4 DUP4 DUP6 SHR DUP6 DUP6 AND SWAP3 DUP4 ISZERO PUSH3 0x2BA JUMPI JUMPDEST PUSH1 0x20 SWAP6 DUP7 DUP4 LT DUP6 EQ PUSH3 0x2A6 JUMPI DUP3 DUP5 MSTORE DUP7 DUP5 ADD SWAP5 DUP5 SWAP3 SWAP2 DUP9 SWAP1 DUP3 ISZERO PUSH3 0x289 JUMPI POP POP PUSH1 0x1 EQ PUSH3 0x245 JUMPI JUMPDEST PUSH3 0x5E SWAP3 POP SUB DUP3 PUSH3 0x2CA JUMP JUMPDEST MLOAD SWAP1 KECCAK256 DUP2 MLOAD SWAP1 SWAP4 PUSH1 0x1 PUSH1 0x1 PUSH1 0x40 SHL SUB SWAP2 DUP1 DUP5 ADD DUP4 DUP2 GT DUP3 DUP3 LT OR PUSH3 0x22F JUMPI DUP3 SWAP2 DUP7 SWAP2 DUP7 MSTORE DUP3 DUP2 MSTORE ADD PUSH1 0x31 PUSH1 0xF8 SHL DUP2 MSTORE KECCAK256 DUP4 MLOAD SWAP5 DUP6 ADD SWAP6 PUSH32 0x8B73C3C69BB8FE3D512ECC4CF759CC79239F7B179B0FFACAA9A75D522B39400F DUP8 MSTORE DUP5 DUP7 ADD MSTORE PUSH1 0x60 DUP6 ADD MSTORE CHAINID PUSH1 0x80 DUP6 ADD MSTORE PUSH1 0xA0 SWAP5 ADDRESS DUP7 DUP7 ADD MSTORE DUP6 DUP6 MSTORE PUSH1 0xC0 DUP6 ADD SWAP3 DUP6 DUP5 LT SWAP1 DUP5 GT OR PUSH3 0x22F JUMPI DUP3 DUP5 MSTORE DUP5 MLOAD SWAP1 KECCAK256 PUSH1 0x80 MSTORE PUSH1 0xFF NOT PUSH1 0x7 SLOAD AND OR PUSH1 0x7 SSTORE PUSH4 0x5A412E53 PUSH1 0xE0 SHL DUP2 MSTORE DUP4 DUP2 PUSH1 0x4 DUP2 PUSH1 0x0 CALLER GAS CALL SWAP3 DUP4 ISZERO PUSH3 0x224 JUMPI PUSH1 0x0 SWAP2 DUP3 SWAP2 DUP4 SWAP2 DUP5 SWAP7 PUSH3 0x195 JUMPI JUMPDEST POP POP PUSH2 0x100 SWAP5 DUP6 MSTORE PUSH1 0xC0 MSTORE PUSH1 0xE0 MSTORE DUP4 MSTORE MLOAD SWAP1 PUSH2 0x1E65 SWAP3 DUP4 PUSH3 0x304 DUP5 CODECOPY PUSH1 0x80 MLOAD DUP4 DUP2 DUP2 PUSH2 0x3D7 ADD MSTORE PUSH2 0x1378 ADD MSTORE MLOAD DUP3 DUP2 DUP2 PUSH2 0x18C ADD MSTORE PUSH2 0x15B9 ADD MSTORE PUSH1 0xC0 MLOAD DUP3 PUSH2 0x279 ADD MSTORE PUSH1 0xE0 MLOAD DUP3 DUP2 DUP2 PUSH2 0x706 ADD MSTORE DUP2 DUP2 PUSH2 0xBB1 ADD MSTORE DUP2 DUP2 PUSH2 0x1117 ADD MSTORE DUP2 DUP2 PUSH2 0x15F7 ADD MSTORE PUSH2 0x1AC4 ADD MSTORE MLOAD DUP2 PUSH2 0x11B9 ADD MSTORE RETURN JUMPDEST SWAP3 POP DUP1 SWAP6 POP DUP7 DUP1 SWAP3 POP RETURNDATASIZE DUP4 GT PUSH3 0x21C JUMPI JUMPDEST PUSH3 0x1B3 DUP2 DUP6 PUSH3 0x2CA JUMP JUMPDEST DUP2 ADD SUB SLT PUSH3 0x218 JUMPI MLOAD SWAP3 PUSH1 0x1 PUSH1 0x1 PUSH1 0xA0 SHL SUB SWAP1 DUP2 DUP6 AND DUP6 SUB PUSH3 0x214 JUMPI PUSH3 0x1DF PUSH1 0xE0 DUP3 ADD PUSH3 0x2EE JUMP JUMPDEST SWAP3 PUSH3 0x1EF PUSH2 0x100 DUP4 ADD PUSH3 0x2EE JUMP JUMPDEST POP PUSH2 0x120 DUP3 ADD MLOAD SWAP3 DUP4 AND DUP4 SUB PUSH3 0x211 JUMPI POP PUSH2 0x140 ADD MLOAD SWAP4 SWAP2 SWAP1 CODESIZE DUP1 PUSH3 0x123 JUMP JUMPDEST DUP1 REVERT JUMPDEST DUP3 DUP1 REVERT JUMPDEST POP DUP1 REVERT JUMPDEST POP RETURNDATASIZE PUSH3 0x1A7 JUMP JUMPDEST DUP3 MLOAD RETURNDATASIZE PUSH1 0x0 DUP3 RETURNDATACOPY RETURNDATASIZE SWAP1 REVERT JUMPDEST PUSH4 0x4E487B71 PUSH1 0xE0 SHL PUSH1 0x0 MSTORE PUSH1 0x41 PUSH1 0x4 MSTORE PUSH1 0x24 PUSH1 0x0 REVERT JUMPDEST POP POP PUSH1 0x0 DUP1 MSTORE DUP2 DUP6 DUP1 PUSH1 0x0 KECCAK256 DUP9 PUSH1 0x0 SWAP2 JUMPDEST DUP6 DUP4 LT PUSH3 0x26F JUMPI POP POP PUSH3 0x5E SWAP4 POP DUP3 ADD ADD PUSH3 0x50 JUMP JUMPDEST DUP1 SWAP2 SWAP3 SWAP5 POP SLOAD DUP4 DUP6 DUP9 ADD ADD MSTORE ADD SWAP2 ADD DUP7 SWAP1 DUP9 DUP6 SWAP4 PUSH3 0x256 JUMP JUMPDEST PUSH1 0xFF NOT AND DUP8 MSTORE PUSH3 0x5E SWAP5 ISZERO ISZERO PUSH1 0x5 SHL DUP5 ADD ADD SWAP2 POP PUSH3 0x50 SWAP1 POP JUMP JUMPDEST PUSH4 0x4E487B71 PUSH1 0xE0 SHL DUP3 MSTORE PUSH1 0x22 PUSH1 0x4 MSTORE PUSH1 0x24 DUP3 REVERT JUMPDEST SWAP1 PUSH1 0x7F AND SWAP1 PUSH3 0x25 JUMP JUMPDEST PUSH1 0x0 DUP1 REVERT JUMPDEST PUSH1 0x1F SWAP1 SWAP2 ADD PUSH1 0x1F NOT AND DUP2 ADD SWAP1 PUSH1 0x1 PUSH1 0x1 PUSH1 0x40 SHL SUB DUP3 GT SWAP1 DUP3 LT OR PUSH3 0x22F JUMPI PUSH1 0x40 MSTORE JUMP JUMPDEST MLOAD SWAP1 PUSH1 0x1 PUSH1 0x1 PUSH1 0xA0 SHL SUB DUP3 AND DUP3 SUB PUSH3 0x2C5 JUMPI JUMP INVALID PUSH1 0x80 PUSH1 0x40 DUP2 DUP2 MSTORE PUSH1 0x4 SWAP2 DUP3 CALLDATASIZE LT ISZERO PUSH2 0x16 JUMPI PUSH1 0x0 DUP1 REVERT JUMPDEST PUSH1 0x0 SWAP3 DUP4 CALLDATALOAD PUSH1 0xE0 SHR SWAP2 DUP3 PUSH4 0x6FDDE03 EQ PUSH2 0x1783 JUMPI POP DUP2 PUSH4 0x95EA7B3 EQ PUSH2 0x173B JUMPI DUP2 PUSH4 0x18160DDD EQ PUSH2 0x16FE JUMPI DUP2 PUSH4 0x1BE19560 EQ PUSH2 0x1508 JUMPI DUP2 PUSH4 0x23B872DD EQ PUSH2 0x1434 JUMPI DUP2 PUSH4 0x30ADF81F EQ PUSH2 0x13DB JUMPI DUP2 PUSH4 0x313CE567 EQ PUSH2 0x139B JUMPI DUP2 PUSH4 0x3644E515 EQ PUSH2 0x1342 JUMPI DUP2 PUSH4 0x39509351 EQ PUSH2 0x12D0 JUMPI DUP2 PUSH4 0x3BA0B9A9 EQ PUSH2 0x128E JUMPI DUP2 PUSH4 0x54FD4D50 EQ PUSH2 0x11DC JUMPI DUP2 PUSH4 0x5F77F891 EQ PUSH2 0x1183 JUMPI DUP2 PUSH4 0x6AFDD850 EQ PUSH2 0x113B JUMPI DUP2 PUSH4 0x6F307DC3 EQ PUSH2 0x10CC JUMPI DUP2 PUSH4 0x70A08231 EQ PUSH2 0x106A JUMPI DUP2 PUSH4 0x7ECEBE00 EQ PUSH2 0x1008 JUMPI DUP2 PUSH4 0x8808E71C EQ PUSH2 0xAD8 JUMPI DUP2 PUSH4 0x95D89B41 EQ PUSH2 0x97E JUMPI DUP2 PUSH4 0xA457C2D7 EQ PUSH2 0x904 JUMPI DUP2 PUSH4 0xA9059CBB EQ PUSH2 0x8B5 JUMPI DUP2 PUSH4 0xAD7A672F EQ PUSH2 0x85F JUMPI DUP2 PUSH4 0xBA087652 EQ PUSH2 0x5C4 JUMPI DUP2 PUSH4 0xD505ACCF EQ PUSH2 0x29D JUMPI DUP2 PUSH4 0xD935BD92 EQ PUSH2 0x22E JUMPI DUP2 PUSH4 0xDD62ED3E EQ PUSH2 0x1B4 JUMPI POP PUSH4 0xE8A24E1D EQ PUSH2 0x143 JUMPI PUSH1 0x0 DUP1 REVERT JUMPDEST CALLVALUE PUSH2 0x1B0 JUMPI DUP2 PUSH32 0xFFFFFFFFFFFFFFFFFFFFFFFFFFFFFFFFFFFFFFFFFFFFFFFFFFFFFFFFFFFFFFFC CALLDATASIZE ADD SLT PUSH2 0x1B0 JUMPI PUSH1 0x20 SWAP1 MLOAD PUSH20 0xFFFFFFFFFFFFFFFFFFFFFFFFFFFFFFFFFFFFFFFF PUSH32 0x0 AND DUP2 MSTORE RETURN JUMPDEST POP DUP1 REVERT JUMPDEST SWAP1 POP CALLVALUE PUSH2 0x22A JUMPI DUP2 PUSH32 0xFFFFFFFFFFFFFFFFFFFFFFFFFFFFFFFFFFFFFFFFFFFFFFFFFFFFFFFFFFFFFFFC CALLDATASIZE ADD SLT PUSH2 0x22A JUMPI PUSH1 0x20 SWAP3 DUP3 PUSH2 0x1F0 PUSH2 0x19B1 JUMP JUMPDEST SWAP2 PUSH2 0x1F9 PUSH2 0x19D9 JUMP JUMPDEST SWAP4 PUSH20 0xFFFFFFFFFFFFFFFFFFFFFFFFFFFFFFFFFFFFFFFF DUP1 SWAP5 AND DUP3 MSTORE DUP7 MSTORE KECCAK256 SWAP2 AND PUSH1 0x0 MSTORE DUP3 MSTORE DUP1 PUSH1 0x0 KECCAK256 SLOAD SWAP1 MLOAD SWAP1 DUP2 MSTORE RETURN JUMPDEST DUP3 DUP1 REVERT JUMPDEST POP POP CALLVALUE PUSH2 0x1B0 JUMPI DUP2 PUSH32 0xFFFFFFFFFFFFFFFFFFFFFFFFFFFFFFFFFFFFFFFFFFFFFFFFFFFFFFFFFFFFFFFC CALLDATASIZE ADD SLT PUSH2 0x1B0 JUMPI PUSH1 0x20 SWAP1 MLOAD PUSH20 0xFFFFFFFFFFFFFFFFFFFFFFFFFFFFFFFFFFFFFFFF PUSH32 0x0 AND DUP2 MSTORE RETURN JUMPDEST DUP4 DUP4 CALLVALUE PUSH2 0x1B0 JUMPI PUSH1 0xE0 PUSH32 0xFFFFFFFFFFFFFFFFFFFFFFFFFFFFFFFFFFFFFFFFFFFFFFFFFFFFFFFFFFFFFFFC CALLDATASIZE ADD SLT PUSH2 0x1B0 JUMPI PUSH2 0x2D6 PUSH2 0x19B1 JUMP JUMPDEST SWAP1 PUSH2 0x2DF PUSH2 0x19D9 JUMP JUMPDEST SWAP1 PUSH1 0x44 CALLDATALOAD PUSH1 0x64 CALLDATALOAD SWAP2 PUSH1 0x84 CALLDATALOAD PUSH1 0xFF DUP2 AND DUP1 SWAP2 SUB PUSH2 0x5C0 JUMPI PUSH1 0xA4 CALLDATALOAD PUSH1 0xC4 CALLDATALOAD SWAP2 PUSH20 0xFFFFFFFFFFFFFFFFFFFFFFFFFFFFFFFFFFFFFFFF DUP1 SWAP9 AND SWAP7 DUP8 ISZERO PUSH2 0x598 JUMPI DUP9 AND SWAP8 DUP9 ISZERO PUSH2 0x570 JUMPI TIMESTAMP DUP8 LT PUSH2 0x53A JUMPI DUP8 DUP11 MSTORE PUSH1 0x20 SWAP7 PUSH1 0x6 DUP9 MSTORE DUP6 DUP12 KECCAK256 SWAP1 DUP2 SLOAD SWAP2 PUSH1 0x1 DUP4 ADD SWAP1 SSTORE DUP7 MLOAD SWAP1 DUP10 DUP3 ADD SWAP3 PUSH32 0x6E71EDAE12B1B97F4D1F60370FEF10105FA2FAAE0126114A169C64845D6126C9 DUP5 MSTORE DUP12 DUP10 DUP5 ADD MSTORE DUP13 PUSH1 0x60 DUP5 ADD MSTORE DUP10 PUSH1 0x80 DUP5 ADD MSTORE PUSH1 0xA0 DUP4 ADD MSTORE PUSH1 0xC0 DUP3 ADD MSTORE PUSH1 0xC0 DUP2 MSTORE PUSH1 0xE0 DUP2 ADD PUSH8 0xFFFFFFFFFFFFFFFF SWAP3 DUP3 DUP3 LT DUP5 DUP4 GT OR PUSH2 0x50C JUMPI DUP2 DUP10 MSTORE DUP3 MLOAD SWAP1 KECCAK256 SWAP1 PUSH2 0x100 DUP4 ADD SWAP2 PUSH32 0x1901000000000000000000000000000000000000000000000000000000000000 DUP4 MSTORE PUSH32 0x0 PUSH2 0x102 DUP6 ADD MSTORE PUSH2 0x122 DUP5 ADD MSTORE PUSH1 0x42 DUP2 MSTORE PUSH2 0x160 DUP4 ADD SWAP4 DUP2 DUP6 LT SWAP1 DUP6 GT OR PUSH2 0x50C JUMPI SWAP3 DUP8 PUSH2 0x1C0 DUP16 SWAP5 PUSH1 0x80 SWAP5 DUP15 SWAP8 DUP6 DUP15 MSTORE MLOAD SWAP1 KECCAK256 DUP5 MSTORE DUP9 PUSH2 0x180 DUP3 ADD MSTORE DUP10 PUSH2 0x1A0 DUP3 ADD MSTORE ADD MSTORE DUP3 DUP1 MSTORE PUSH1 0x1 GAS STATICCALL ISZERO PUSH2 0x502 JUMPI DUP10 MLOAD AND DUP1 ISZERO PUSH2 0x4DA JUMPI DUP8 SUB PUSH2 0x49A JUMPI POP POP POP DUP6 SWAP7 DUP5 PUSH32 0x8C5BE1E5EBEC7D5BD14F71427D1E84F3DD0314C0F7B2291E5B200AC8C7C3B925 SWAP6 SWAP7 SWAP8 MSTORE DUP4 MSTORE DUP1 DUP8 KECCAK256 DUP7 PUSH1 0x0 MSTORE DUP4 MSTORE DUP2 DUP2 PUSH1 0x0 KECCAK256 SSTORE MLOAD SWAP1 DUP2 MSTORE LOG3 DUP1 RETURN JUMPDEST PUSH1 0x84 SWAP5 POP DUP7 DUP11 SWAP5 MLOAD SWAP5 PUSH32 0x3460790B00000000000000000000000000000000000000000000000000000000 DUP7 MSTORE DUP6 ADD MSTORE PUSH1 0x24 DUP5 ADD MSTORE PUSH1 0x44 DUP4 ADD MSTORE PUSH1 0x64 DUP3 ADD MSTORE REVERT JUMPDEST DUP11 DUP6 MLOAD PUSH32 0xD147D0E300000000000000000000000000000000000000000000000000000000 DUP2 MSTORE REVERT JUMPDEST DUP5 MLOAD RETURNDATASIZE DUP12 DUP3 RETURNDATACOPY RETURNDATASIZE SWAP1 REVERT JUMPDEST PUSH1 0x41 DUP16 PUSH32 0x4E487B7100000000000000000000000000000000000000000000000000000000 PUSH1 0x0 MSTORE MSTORE PUSH1 0x24 PUSH1 0x0 REVERT JUMPDEST PUSH1 0x44 DUP12 DUP9 DUP8 MLOAD SWAP2 PUSH32 0x3288645900000000000000000000000000000000000000000000000000000000 DUP4 MSTORE TIMESTAMP SWAP1 DUP4 ADD MSTORE PUSH1 0x24 DUP3 ADD MSTORE REVERT JUMPDEST DUP11 DUP6 MLOAD PUSH32 0x7B4813DD00000000000000000000000000000000000000000000000000000000 DUP2 MSTORE REVERT JUMPDEST DUP11 DUP6 MLOAD PUSH32 0x6F5B87D200000000000000000000000000000000000000000000000000000000 DUP2 MSTORE REVERT JUMPDEST DUP7 DUP1 REVERT JUMPDEST SWAP2 SWAP1 POP CALLVALUE PUSH2 0x22A JUMPI PUSH1 0x60 PUSH32 0xFFFFFFFFFFFFFFFFFFFFFFFFFFFFFFFFFFFFFFFFFFFFFFFFFFFFFFFFFFFFFFFC CALLDATASIZE ADD SLT PUSH2 0x22A JUMPI DUP2 CALLDATALOAD SWAP3 PUSH2 0x601 PUSH2 0x19D9 JUMP JUMPDEST SWAP4 PUSH2 0x60A PUSH2 0x19FC JUMP JUMPDEST PUSH1 0x7 SLOAD SWAP6 PUSH1 0xFF DUP8 AND ISZERO PUSH2 0x837 JUMPI PUSH32 0xFFFFFFFFFFFFFFFFFFFFFFFFFFFFFFFFFFFFFFFFFFFFFFFFFFFFFFFFFFFFFF00 DUP1 SWAP8 AND PUSH1 0x7 SSTORE PUSH20 0xFFFFFFFFFFFFFFFFFFFFFFFFFFFFFFFFFFFFFFFF DUP1 SWAP3 AND SWAP4 DUP5 CALLER SUB PUSH2 0x7CB JUMPI JUMPDEST PUSH2 0x667 PUSH2 0x1A1F JUMP JUMPDEST DUP1 PUSH32 0xFFFFFFFFFFFFFFFFFFFFFFFFFFFFFFFFFFFFFFFFFFFFFFFFFFFFFFFFFFFFFFFF DIV DUP6 GT DUP2 MUL PUSH2 0x7BF JUMPI PUSH8 0xDE0B6B3A7640000 SWAP1 DUP6 MUL DIV SWAP7 DUP8 ISZERO PUSH2 0x798 JUMPI DUP6 ISZERO PUSH2 0x771 JUMPI POP SWAP2 PUSH1 0x20 SWAP8 SWAP4 SWAP2 DUP4 DUP7 PUSH1 0x1 SWAP8 SWAP6 MSTORE PUSH1 0x5 DUP11 MSTORE DUP8 DUP2 KECCAK256 PUSH2 0x6CC DUP6 DUP3 SLOAD PUSH2 0x1A5C JUMP JUMPDEST SWAP1 SSTORE DUP4 PUSH1 0x3 SLOAD SUB PUSH1 0x3 SSTORE DUP5 PUSH32 0xDDF252AD1BE2C89B69C2B068FC378DAA952BA7F163C4A11628F55A4DF523B3EF DUP12 DUP11 MLOAD DUP8 DUP2 MSTORE LOG3 PUSH2 0x72A DUP9 DUP3 PUSH32 0x0 PUSH2 0x1DB7 JUMP JUMPDEST DUP7 MLOAD SWAP3 DUP9 DUP5 MSTORE DUP10 DUP5 ADD MSTORE AND SWAP1 PUSH32 0xFBDE797D201C681B91056529119E0B02407C7BB96A4A2C75C01FC9667232C8DB DUP7 CALLER SWAP3 LOG4 PUSH2 0x763 PUSH2 0x1A98 JUMP JUMPDEST PUSH1 0x7 SLOAD AND OR PUSH1 0x7 SSTORE MLOAD SWAP1 DUP2 MSTORE RETURN JUMPDEST DUP7 MLOAD PUSH32 0x3EEDCE0700000000000000000000000000000000000000000000000000000000 DUP2 MSTORE REVERT JUMPDEST DUP7 MLOAD PUSH32 0xE3E8D29700000000000000000000000000000000000000000000000000000000 DUP2 MSTORE REVERT JUMPDEST DUP8 PUSH4 0xBAC65E5B DUP4 MSTORE PUSH1 0x1C REVERT JUMPDEST DUP5 DUP2 MSTORE DUP7 PUSH1 0x20 MSTORE DUP6 DUP2 KECCAK256 CALLER PUSH1 0x0 MSTORE PUSH1 0x20 MSTORE DUP6 PUSH1 0x0 KECCAK256 SLOAD DUP5 PUSH32 0xFFFFFFFFFFFFFFFFFFFFFFFFFFFFFFFFFFFFFFFFFFFFFFFFFFFFFFFFFFFFFFFF DUP3 SUB PUSH2 0x811 JUMPI JUMPDEST POP POP PUSH2 0x65F JUMP JUMPDEST PUSH2 0x81A SWAP2 PUSH2 0x1A5C JUMP JUMPDEST DUP6 DUP3 MSTORE DUP8 PUSH1 0x20 MSTORE DUP7 DUP3 KECCAK256 CALLER PUSH1 0x0 MSTORE PUSH1 0x20 MSTORE DUP7 PUSH1 0x0 KECCAK256 SSTORE CODESIZE DUP5 PUSH2 0x80A JUMP JUMPDEST DUP6 DUP6 MLOAD PUSH32 0x37ED32E800000000000000000000000000000000000000000000000000000000 DUP2 MSTORE REVERT JUMPDEST POP POP CALLVALUE PUSH2 0x1B0 JUMPI DUP2 PUSH32 0xFFFFFFFFFFFFFFFFFFFFFFFFFFFFFFFFFFFFFFFFFFFFFFFFFFFFFFFFFFFFFFFC CALLDATASIZE ADD SLT PUSH2 0x1B0 JUMPI PUSH1 0x20 SWAP1 PUSH20 0xFFFFFFFFFFFFFFFFFFFFFFFFFFFFFFFFFFFFFFFF PUSH1 0x7 SLOAD PUSH1 0x8 SHR AND SWAP1 MLOAD SWAP1 DUP2 MSTORE RETURN JUMPDEST POP POP CALLVALUE PUSH2 0x1B0 JUMPI DUP1 PUSH32 0xFFFFFFFFFFFFFFFFFFFFFFFFFFFFFFFFFFFFFFFFFFFFFFFFFFFFFFFFFFFFFFFC CALLDATASIZE ADD SLT PUSH2 0x1B0 JUMPI PUSH1 0x20 SWAP1 PUSH2 0x8FD PUSH2 0x8F3 PUSH2 0x19B1 JUMP JUMPDEST PUSH1 0x24 CALLDATALOAD SWAP1 CALLER PUSH2 0x1C20 JUMP JUMPDEST MLOAD PUSH1 0x1 DUP2 MSTORE RETURN JUMPDEST SWAP1 POP CALLVALUE PUSH2 0x22A JUMPI DUP2 PUSH32 0xFFFFFFFFFFFFFFFFFFFFFFFFFFFFFFFFFFFFFFFFFFFFFFFFFFFFFFFFFFFFFFFC CALLDATASIZE ADD SLT PUSH2 0x22A JUMPI PUSH2 0x8FD SWAP1 DUP3 PUSH1 0x20 SWAP5 PUSH2 0x944 PUSH2 0x19B1 JUMP JUMPDEST SWAP3 CALLER DUP3 MSTORE DUP7 MSTORE KECCAK256 PUSH20 0xFFFFFFFFFFFFFFFFFFFFFFFFFFFFFFFFFFFFFFFF DUP3 AND PUSH1 0x0 MSTORE DUP5 MSTORE PUSH2 0x977 PUSH1 0x24 CALLDATALOAD DUP5 PUSH1 0x0 KECCAK256 SLOAD PUSH2 0x1A5C JUMP JUMPDEST SWAP1 CALLER PUSH2 0x1B5E JUMP JUMPDEST DUP3 DUP5 CALLVALUE PUSH2 0xAD5 JUMPI DUP1 PUSH32 0xFFFFFFFFFFFFFFFFFFFFFFFFFFFFFFFFFFFFFFFFFFFFFFFFFFFFFFFFFFFFFFFC CALLDATASIZE ADD SLT PUSH2 0xAD5 JUMPI POP DUP1 MLOAD SWAP1 PUSH1 0x0 SWAP3 PUSH1 0x1 DUP1 SLOAD SWAP1 DUP2 DUP2 SHR SWAP2 DUP2 DUP2 AND DUP1 ISZERO PUSH2 0xACB JUMPI JUMPDEST PUSH1 0x20 SWAP5 DUP6 DUP6 LT DUP3 EQ PUSH2 0xA9F JUMPI POP DUP4 DUP8 MSTORE SWAP1 DUP2 ISZERO PUSH2 0xA61 JUMPI POP PUSH1 0x1 EQ PUSH2 0xA08 JUMPI JUMPDEST POP POP POP PUSH2 0x9FA DUP3 PUSH2 0xA04 SWAP5 SUB DUP4 PUSH2 0x190A JUMP JUMPDEST MLOAD SWAP2 DUP3 SWAP2 DUP3 PUSH2 0x194B JUMP JUMPDEST SUB SWAP1 RETURN JUMPDEST PUSH1 0x0 DUP2 DUP2 MSTORE SWAP3 SWAP6 POP PUSH32 0xB10E2D527612073B26EECDFD717E6A320CF44B4AFAC2B0732D9FCBE2B7FA0CF6 JUMPDEST DUP3 DUP5 LT PUSH2 0xA4E JUMPI POP POP POP DUP3 PUSH2 0xA04 SWAP5 PUSH2 0x9FA SWAP3 DUP3 ADD ADD SWAP5 PUSH2 0x9E8 JUMP JUMPDEST DUP1 SLOAD DUP7 DUP6 ADD DUP9 ADD MSTORE SWAP3 DUP7 ADD SWAP3 DUP2 ADD PUSH2 0xA32 JUMP JUMPDEST PUSH32 0xFFFFFFFFFFFFFFFFFFFFFFFFFFFFFFFFFFFFFFFFFFFFFFFFFFFFFFFFFFFFFF00 AND DUP7 DUP6 ADD MSTORE POP POP ISZERO ISZERO PUSH1 0x5 SHL DUP4 ADD ADD SWAP3 POP PUSH2 0x9FA DUP3 PUSH2 0xA04 PUSH2 0x9E8 JUMP JUMPDEST DUP9 PUSH1 0x22 PUSH1 0x24 SWAP3 PUSH32 0x4E487B7100000000000000000000000000000000000000000000000000000000 DUP4 MSTORE MSTORE REVERT JUMPDEST SWAP3 PUSH1 0x7F AND SWAP3 PUSH2 0x9C8 JUMP JUMPDEST DUP1 REVERT JUMPDEST DUP4 DUP4 CALLVALUE PUSH2 0x1B0 JUMPI PUSH2 0x120 PUSH32 0xFFFFFFFFFFFFFFFFFFFFFFFFFFFFFFFFFFFFFFFFFFFFFFFFFFFFFFFFFFFFFFFC CALLDATASIZE ADD SLT PUSH2 0x1B0 JUMPI DUP3 CALLDATALOAD SWAP3 PUSH2 0xB15 PUSH2 0x19D9 JUMP JUMPDEST SWAP4 PUSH1 0xC0 PUSH32 0xFFFFFFFFFFFFFFFFFFFFFFFFFFFFFFFFFFFFFFFFFFFFFFFFFFFFFFFFFFFFFFBC CALLDATASIZE ADD SLT PUSH2 0xE91 JUMPI PUSH2 0x104 SWAP5 PUSH8 0xFFFFFFFFFFFFFFFF SWAP1 DUP7 CALLDATALOAD DUP3 DUP2 GT PUSH2 0x5C0 JUMPI CALLDATASIZE PUSH1 0x23 DUP3 ADD SLT ISZERO PUSH2 0x5C0 JUMPI DUP1 DUP6 ADD CALLDATALOAD SWAP3 DUP4 GT PUSH2 0x5C0 JUMPI PUSH1 0x24 SWAP7 CALLDATASIZE DUP9 DUP6 DUP5 ADD ADD GT PUSH2 0xAD5 JUMPI PUSH1 0x7 SLOAD SWAP9 PUSH1 0xFF DUP11 AND ISZERO PUSH2 0xFE0 JUMPI PUSH32 0xFFFFFFFFFFFFFFFFFFFFFFFFFFFFFFFFFFFFFFFFFFFFFFFFFFFFFFFFFFFFFF00 DUP1 SWAP11 AND PUSH1 0x7 SSTORE PUSH32 0x0 SWAP5 PUSH2 0xBDB ADDRESS DUP8 PUSH2 0x1E00 JUMP JUMPDEST SWAP4 DUP2 PUSH2 0xE95 JUMPI JUMPDEST POP POP POP SWAP1 PUSH2 0xBEF DUP6 PUSH2 0x1D73 JUMP JUMPDEST SWAP4 PUSH15 0x22D473030F116DDEE9F6B43AC78BA3 DUP1 EXTCODESIZE ISZERO PUSH2 0xE91 JUMPI DUP4 DUP11 PUSH1 0x84 DUP11 DUP4 DUP14 MLOAD SWAP6 DUP7 SWAP5 DUP6 SWAP4 PUSH32 0x36C7851600000000000000000000000000000000000000000000000000000000 DUP6 MSTORE CALLER SWAP1 DUP6 ADD MSTORE ADDRESS SWAP1 DUP5 ADD MSTORE PUSH20 0xFFFFFFFFFFFFFFFFFFFFFFFFFFFFFFFFFFFFFFFF DUP1 SWAP13 AND PUSH1 0x44 DUP5 ADD MSTORE DUP12 DUP9 AND PUSH1 0x64 DUP5 ADD MSTORE GAS CALL DUP1 ISZERO PUSH2 0xE87 JUMPI SWAP1 DUP5 SWAP2 PUSH2 0xE73 JUMPI JUMPDEST POP POP PUSH2 0xC9D SWAP2 PUSH2 0xC8A PUSH2 0xC8F SWAP3 ADDRESS SWAP1 PUSH2 0x1E00 JUMP JUMPDEST PUSH2 0x1A5C JUMP JUMPDEST PUSH2 0xC97 PUSH2 0x1A1F JUMP JUMPDEST SWAP1 PUSH2 0x1D30 JUMP JUMPDEST SWAP7 DUP8 ISZERO PUSH2 0xE4B JUMPI PUSH1 0x3 SLOAD SWAP2 DUP3 ISZERO PUSH2 0xD6C JUMPI JUMPDEST POP POP POP AND SWAP2 DUP3 ISZERO PUSH2 0xD45 JUMPI POP SWAP4 PUSH1 0x1 SWAP2 PUSH1 0x20 SWAP6 PUSH2 0xCCE DUP7 PUSH1 0x3 SLOAD PUSH2 0x1B51 JUMP JUMPDEST PUSH1 0x3 SSTORE DUP2 PUSH1 0x0 MSTORE PUSH1 0x5 DUP8 MSTORE DUP5 PUSH1 0x0 KECCAK256 DUP7 DUP2 SLOAD ADD SWAP1 SSTORE DUP2 PUSH1 0x0 PUSH32 0xDDF252AD1BE2C89B69C2B068FC378DAA952BA7F163C4A11628F55A4DF523B3EF DUP10 DUP9 MLOAD DUP11 DUP2 MSTORE LOG3 DUP5 MLOAD SWAP1 DUP2 MSTORE DUP6 DUP8 DUP3 ADD MSTORE PUSH32 0xDCBC1C05240F31FF3AD067EF1EE35CE4997762752E3A095284754544F4C709D7 DUP6 CALLER SWAP3 LOG3 PUSH2 0x763 PUSH2 0x1A98 JUMP JUMPDEST DUP4 MLOAD PUSH32 0xDF3DC1C900000000000000000000000000000000000000000000000000000000 DUP2 MSTORE REVERT JUMPDEST PUSH32 0xFFFFFFFFFFFFFFFFFFFFFFFFFFFFFFFFFFFFFFFFFFFFFFFFFFFFFFFFFFFFFC18 DUP10 SWAP3 SWAP4 SWAP10 ADD SWAP2 DUP3 GT PUSH2 0xE20 JUMPI POP SWAP7 PUSH2 0x3E8 SWAP2 DUP3 DUP3 ADD DUP1 SWAP3 GT PUSH2 0xDF4 JUMPI POP PUSH1 0x3 SSTORE PUSH1 0x0 PUSH32 0xDDF252AD1BE2C89B69C2B068FC378DAA952BA7F163C4A11628F55A4DF523B3EF PUSH1 0x20 PUSH2 0xDEAD SWAP4 DUP5 DUP5 MSTORE PUSH1 0x5 DUP3 MSTORE DUP10 DUP5 KECCAK256 DUP2 DUP2 SLOAD ADD SWAP1 SSTORE DUP10 MLOAD SWAP1 DUP2 MSTORE LOG3 DUP8 DUP1 DUP1 PUSH2 0xCAF JUMP JUMPDEST PUSH1 0x11 DUP8 PUSH32 0x4E487B7100000000000000000000000000000000000000000000000000000000 PUSH1 0x0 MSTORE MSTORE PUSH1 0x0 REVERT JUMPDEST SWAP1 POP PUSH1 0x11 DUP7 PUSH32 0x4E487B7100000000000000000000000000000000000000000000000000000000 DUP4 MSTORE MSTORE REVERT JUMPDEST DUP6 DUP8 MLOAD PUSH32 0xF1CA48B100000000000000000000000000000000000000000000000000000000 DUP2 MSTORE REVERT JUMPDEST PUSH2 0xE7C SWAP1 PUSH2 0x18C7 JUMP JUMPDEST PUSH2 0x22A JUMPI DUP3 DUP12 PUSH2 0xC76 JUMP JUMPDEST DUP10 MLOAD RETURNDATASIZE DUP7 DUP3 RETURNDATACOPY RETURNDATASIZE SWAP1 REVERT JUMPDEST DUP4 DUP1 REVERT JUMPDEST PUSH15 0x22D473030F116DDEE9F6B43AC78BA3 SWAP2 DUP3 EXTCODESIZE ISZERO PUSH2 0xFDC JUMPI DUP11 MLOAD SWAP4 PUSH32 0x2B67B57000000000000000000000000000000000000000000000000000000000 DUP6 MSTORE CALLER DUP12 DUP7 ADD MSTORE PUSH20 0xFFFFFFFFFFFFFFFFFFFFFFFFFFFFFFFFFFFFFFFF DUP14 DUP2 PUSH2 0xEF7 PUSH2 0x19FC JUMP JUMPDEST AND SWAP1 DUP8 ADD MSTORE PUSH1 0x64 CALLDATALOAD DUP2 DUP2 AND DUP1 SWAP2 SUB PUSH2 0xFD4 JUMPI PUSH1 0x44 DUP8 ADD MSTORE PUSH1 0x84 CALLDATALOAD PUSH6 0xFFFFFFFFFFFF SWAP1 DUP2 DUP2 AND DUP1 SWAP2 SUB PUSH2 0xFD8 JUMPI PUSH1 0x64 DUP9 ADD MSTORE PUSH1 0xA4 CALLDATALOAD SWAP1 DUP2 AND DUP1 SWAP2 SUB PUSH2 0xFD4 JUMPI PUSH1 0x84 DUP8 ADD MSTORE PUSH1 0xC4 CALLDATALOAD SWAP1 DUP2 AND DUP1 SWAP2 SUB PUSH2 0x5C0 JUMPI DUP6 SWAP4 DUP5 DUP16 PUSH1 0x1F DUP7 DUP1 PUSH32 0xFFFFFFFFFFFFFFFFFFFFFFFFFFFFFFFFFFFFFFFFFFFFFFFFFFFFFFFFFFFFFFE0 SWAP4 DUP14 SWAP12 SWAP10 DUP7 SWAP10 DUP14 SWAP10 PUSH1 0xA4 DUP10 ADD MSTORE PUSH1 0xE4 CALLDATALOAD PUSH1 0xC4 DUP10 ADD MSTORE PUSH2 0x100 PUSH1 0xE4 DUP10 ADD MSTORE DUP8 ADD MSTORE PUSH2 0x124 SWAP7 ADD DUP7 DUP7 ADD CALLDATACOPY DUP6 DUP6 DUP3 DUP7 ADD ADD MSTORE ADD AND DUP2 ADD SUB ADD SWAP3 GAS CALL DUP1 ISZERO PUSH2 0xFCA JUMPI PUSH2 0xFBB JUMPI JUMPDEST DUP1 DUP1 PUSH2 0xBE2 JUMP JUMPDEST PUSH2 0xFC4 SWAP1 PUSH2 0x18C7 JUMP JUMPDEST DUP10 PUSH2 0xFB4 JUMP JUMPDEST DUP9 MLOAD RETURNDATASIZE DUP5 DUP3 RETURNDATACOPY RETURNDATASIZE SWAP1 REVERT JUMPDEST DUP8 DUP1 REVERT JUMPDEST DUP9 DUP1 REVERT JUMPDEST DUP5 DUP1 REVERT JUMPDEST DUP7 DUP9 MLOAD PUSH32 0x37ED32E800000000000000000000000000000000000000000000000000000000 DUP2 MSTORE REVERT JUMPDEST POP POP CALLVALUE PUSH2 0x1B0 JUMPI PUSH1 0x20 PUSH32 0xFFFFFFFFFFFFFFFFFFFFFFFFFFFFFFFFFFFFFFFFFFFFFFFFFFFFFFFFFFFFFFFC CALLDATASIZE ADD SLT PUSH2 0x1B0 JUMPI DUP1 PUSH1 0x20 SWAP3 PUSH20 0xFFFFFFFFFFFFFFFFFFFFFFFFFFFFFFFFFFFFFFFF PUSH2 0x105A PUSH2 0x19B1 JUMP JUMPDEST AND DUP2 MSTORE PUSH1 0x6 DUP5 MSTORE KECCAK256 SLOAD SWAP1 MLOAD SWAP1 DUP2 MSTORE RETURN JUMPDEST POP POP CALLVALUE PUSH2 0x1B0 JUMPI PUSH1 0x20 PUSH32 0xFFFFFFFFFFFFFFFFFFFFFFFFFFFFFFFFFFFFFFFFFFFFFFFFFFFFFFFFFFFFFFFC CALLDATASIZE ADD SLT PUSH2 0x1B0 JUMPI DUP1 PUSH1 0x20 SWAP3 PUSH20 0xFFFFFFFFFFFFFFFFFFFFFFFFFFFFFFFFFFFFFFFF PUSH2 0x10BC PUSH2 0x19B1 JUMP JUMPDEST AND DUP2 MSTORE PUSH1 0x5 DUP5 MSTORE KECCAK256 SLOAD SWAP1 MLOAD SWAP1 DUP2 MSTORE RETURN JUMPDEST POP POP CALLVALUE PUSH2 0x1B0 JUMPI DUP2 PUSH32 0xFFFFFFFFFFFFFFFFFFFFFFFFFFFFFFFFFFFFFFFFFFFFFFFFFFFFFFFFFFFFFFFC CALLDATASIZE ADD SLT PUSH2 0x1B0 JUMPI PUSH1 0x20 SWAP1 MLOAD PUSH20 0xFFFFFFFFFFFFFFFFFFFFFFFFFFFFFFFFFFFFFFFF PUSH32 0x0 AND DUP2 MSTORE RETURN JUMPDEST POP POP CALLVALUE PUSH2 0x1B0 JUMPI DUP2 PUSH32 0xFFFFFFFFFFFFFFFFFFFFFFFFFFFFFFFFFFFFFFFFFFFFFFFFFFFFFFFFFFFFFFFC CALLDATASIZE ADD SLT PUSH2 0x1B0 JUMPI PUSH1 0x20 SWAP1 MLOAD PUSH15 0x22D473030F116DDEE9F6B43AC78BA3 DUP2 MSTORE RETURN JUMPDEST POP POP CALLVALUE PUSH2 0x1B0 JUMPI DUP2 PUSH32 0xFFFFFFFFFFFFFFFFFFFFFFFFFFFFFFFFFFFFFFFFFFFFFFFFFFFFFFFFFFFFFFFC CALLDATASIZE ADD SLT PUSH2 0x1B0 JUMPI PUSH1 0x20 SWAP1 MLOAD PUSH32 0x0 DUP2 MSTORE RETURN JUMPDEST DUP4 DUP4 CALLVALUE PUSH2 0x1B0 JUMPI DUP2 PUSH32 0xFFFFFFFFFFFFFFFFFFFFFFFFFFFFFFFFFFFFFFFFFFFFFFFFFFFFFFFFFFFFFFFC CALLDATASIZE ADD SLT PUSH2 0x1B0 JUMPI DUP1 MLOAD SWAP2 DUP2 DUP4 ADD SWAP1 DUP4 DUP3 LT PUSH8 0xFFFFFFFFFFFFFFFF DUP4 GT OR PUSH2 0x1262 JUMPI POP PUSH2 0xA04 SWAP4 POP DUP2 MSTORE PUSH1 0x1 DUP3 MSTORE PUSH32 0x3100000000000000000000000000000000000000000000000000000000000000 PUSH1 0x20 DUP4 ADD MSTORE MLOAD SWAP2 DUP3 SWAP2 DUP3 PUSH2 0x194B JUMP JUMPDEST DUP1 PUSH1 0x41 DUP7 PUSH32 0x4E487B7100000000000000000000000000000000000000000000000000000000 PUSH1 0x24 SWAP5 MSTORE MSTORE REVERT JUMPDEST POP POP CALLVALUE PUSH2 0x1B0 JUMPI DUP2 PUSH32 0xFFFFFFFFFFFFFFFFFFFFFFFFFFFFFFFFFFFFFFFFFFFFFFFFFFFFFFFFFFFFFFFC CALLDATASIZE ADD SLT PUSH2 0x1B0 JUMPI PUSH1 0x20 SWAP1 PUSH2 0x12C9 PUSH2 0x1A1F JUMP JUMPDEST SWAP1 MLOAD SWAP1 DUP2 MSTORE RETURN JUMPDEST SWAP1 POP CALLVALUE PUSH2 0x22A JUMPI DUP2 PUSH32 0xFFFFFFFFFFFFFFFFFFFFFFFFFFFFFFFFFFFFFFFFFFFFFFFFFFFFFFFFFFFFFFFC CALLDATASIZE ADD SLT PUSH2 0x22A JUMPI PUSH2 0x8FD SWAP1 PUSH2 0x977 PUSH1 0x20 SWAP5 PUSH2 0x1312 PUSH2 0x19B1 JUMP JUMPDEST SWAP3 CALLER DUP3 MSTORE DUP7 MSTORE DUP5 DUP2 KECCAK256 PUSH20 0xFFFFFFFFFFFFFFFFFFFFFFFFFFFFFFFFFFFFFFFF DUP5 AND DUP3 MSTORE DUP7 MSTORE DUP5 PUSH1 0x24 CALLDATALOAD SWAP2 KECCAK256 SLOAD PUSH2 0x1B51 JUMP JUMPDEST POP POP CALLVALUE PUSH2 0x1B0 JUMPI DUP2 PUSH32 0xFFFFFFFFFFFFFFFFFFFFFFFFFFFFFFFFFFFFFFFFFFFFFFFFFFFFFFFFFFFFFFFC CALLDATASIZE ADD SLT PUSH2 0x1B0 JUMPI PUSH1 0x20 SWAP1 MLOAD PUSH32 0x0 DUP2 MSTORE RETURN JUMPDEST POP POP CALLVALUE PUSH2 0x1B0 JUMPI DUP2 PUSH32 0xFFFFFFFFFFFFFFFFFFFFFFFFFFFFFFFFFFFFFFFFFFFFFFFFFFFFFFFFFFFFFFFC CALLDATASIZE ADD SLT PUSH2 0x1B0 JUMPI PUSH1 0x20 SWAP1 PUSH1 0xFF PUSH1 0x2 SLOAD AND SWAP1 MLOAD SWAP1 DUP2 MSTORE RETURN JUMPDEST POP POP CALLVALUE PUSH2 0x1B0 JUMPI DUP2 PUSH32 0xFFFFFFFFFFFFFFFFFFFFFFFFFFFFFFFFFFFFFFFFFFFFFFFFFFFFFFFFFFFFFFFC CALLDATASIZE ADD SLT PUSH2 0x1B0 JUMPI PUSH1 0x20 SWAP1 MLOAD PUSH32 0x6E71EDAE12B1B97F4D1F60370FEF10105FA2FAAE0126114A169C64845D6126C9 DUP2 MSTORE RETURN JUMPDEST SWAP1 POP CALLVALUE PUSH2 0x22A JUMPI PUSH1 0x60 PUSH32 0xFFFFFFFFFFFFFFFFFFFFFFFFFFFFFFFFFFFFFFFFFFFFFFFFFFFFFFFFFFFFFFFC CALLDATASIZE ADD SLT PUSH2 0x22A JUMPI PUSH2 0x146D PUSH2 0x19B1 JUMP JUMPDEST PUSH2 0x1475 PUSH2 0x19D9 JUMP JUMPDEST SWAP4 PUSH1 0x44 CALLDATALOAD SWAP3 DUP5 PUSH20 0xFFFFFFFFFFFFFFFFFFFFFFFFFFFFFFFFFFFFFFFF DUP5 AND SWAP3 DUP4 DUP2 MSTORE DUP3 PUSH1 0x20 MSTORE DUP2 DUP2 KECCAK256 CALLER DUP3 MSTORE PUSH1 0x20 MSTORE KECCAK256 SLOAD SWAP2 DUP5 DUP4 LT PUSH2 0x14C8 JUMPI PUSH1 0x20 DUP7 PUSH2 0x8FD DUP8 DUP11 DUP9 PUSH2 0x14C3 DUP4 DUP11 SUB CALLER DUP4 PUSH2 0x1B5E JUMP JUMPDEST PUSH2 0x1C20 JUMP JUMPDEST PUSH1 0x84 SWAP3 DUP6 SWAP2 DUP8 MLOAD SWAP4 PUSH32 0xC92E267600000000000000000000000000000000000000000000000000000000 DUP6 MSTORE DUP5 ADD MSTORE CALLER PUSH1 0x24 DUP5 ADD MSTORE PUSH1 0x44 DUP4 ADD MSTORE PUSH1 0x64 DUP3 ADD MSTORE REVERT JUMPDEST SWAP1 POP CALLVALUE PUSH2 0x22A JUMPI PUSH1 0x20 PUSH32 0xFFFFFFFFFFFFFFFFFFFFFFFFFFFFFFFFFFFFFFFFFFFFFFFFFFFFFFFFFFFFFFFC CALLDATASIZE ADD SLT PUSH2 0x22A JUMPI PUSH2 0x1541 PUSH2 0x19B1 JUMP JUMPDEST SWAP1 PUSH1 0x7 SLOAD SWAP3 PUSH1 0xFF DUP5 AND ISZERO PUSH2 0x16D8 JUMPI PUSH32 0xFFFFFFFFFFFFFFFFFFFFFFFFFFFFFFFFFFFFFFFFFFFFFFFFFFFFFFFFFFFFFF00 DUP1 SWAP5 AND PUSH1 0x7 SSTORE DUP1 MLOAD PUSH32 0xF851A44000000000000000000000000000000000000000000000000000000000 DUP2 MSTORE PUSH20 0xFFFFFFFFFFFFFFFFFFFFFFFFFFFFFFFFFFFFFFFF SWAP1 PUSH1 0x20 DUP2 DUP6 DUP2 DUP6 PUSH32 0x0 AND GAS STATICCALL SWAP1 DUP2 ISZERO PUSH2 0x16CE JUMPI SWAP1 DUP3 SWAP2 DUP9 SWAP2 PUSH2 0x1691 JUMPI JUMPDEST POP AND CALLER SUB PUSH2 0x166A JUMPI DUP1 PUSH32 0x0 AND SWAP1 DUP5 AND EQ PUSH2 0x1644 JUMPI DUP5 PUSH1 0x1 DUP6 PUSH2 0x1639 DUP7 PUSH2 0x1631 ADDRESS DUP3 PUSH2 0x1E00 JUMP JUMPDEST SWAP1 CALLER SWAP1 PUSH2 0x1DB7 JUMP JUMPDEST PUSH1 0x7 SLOAD AND OR PUSH1 0x7 SSTORE DUP1 RETURN JUMPDEST MLOAD PUSH32 0xB5D8F39100000000000000000000000000000000000000000000000000000000 DUP2 MSTORE REVERT JUMPDEST POP MLOAD PUSH32 0x63AC75A200000000000000000000000000000000000000000000000000000000 DUP2 MSTORE REVERT JUMPDEST SWAP2 POP POP PUSH1 0x20 DUP2 RETURNDATASIZE DUP3 GT PUSH2 0x16C6 JUMPI JUMPDEST DUP2 PUSH2 0x16AC PUSH1 0x20 SWAP4 DUP4 PUSH2 0x190A JUMP JUMPDEST DUP2 ADD SUB SLT PUSH2 0x5C0 JUMPI MLOAD DUP2 DUP2 AND DUP2 SUB PUSH2 0x5C0 JUMPI DUP2 SWAP1 CODESIZE PUSH2 0x15EC JUMP JUMPDEST RETURNDATASIZE SWAP2 POP PUSH2 0x169F JUMP JUMPDEST DUP4 MLOAD RETURNDATASIZE DUP10 DUP3 RETURNDATACOPY RETURNDATASIZE SWAP1 REVERT JUMPDEST MLOAD PUSH32 0x37ED32E800000000000000000000000000000000000000000000000000000000 DUP2 MSTORE REVERT JUMPDEST POP POP CALLVALUE PUSH2 0x1B0 JUMPI DUP2 PUSH32 0xFFFFFFFFFFFFFFFFFFFFFFFFFFFFFFFFFFFFFFFFFFFFFFFFFFFFFFFFFFFFFFFC CALLDATASIZE ADD SLT PUSH2 0x1B0 JUMPI PUSH1 0x20 SWAP1 PUSH1 0x3 SLOAD SWAP1 MLOAD SWAP1 DUP2 MSTORE RETURN JUMPDEST POP POP CALLVALUE PUSH2 0x1B0 JUMPI DUP1 PUSH32 0xFFFFFFFFFFFFFFFFFFFFFFFFFFFFFFFFFFFFFFFFFFFFFFFFFFFFFFFFFFFFFFFC CALLDATASIZE ADD SLT PUSH2 0x1B0 JUMPI PUSH1 0x20 SWAP1 PUSH2 0x8FD PUSH2 0x1779 PUSH2 0x19B1 JUMP JUMPDEST PUSH1 0x24 CALLDATALOAD SWAP1 CALLER PUSH2 0x1B5E JUMP JUMPDEST SWAP3 SWAP2 POP CALLVALUE PUSH2 0xE91 JUMPI DUP4 PUSH32 0xFFFFFFFFFFFFFFFFFFFFFFFFFFFFFFFFFFFFFFFFFFFFFFFFFFFFFFFFFFFFFFFC CALLDATASIZE ADD SLT PUSH2 0xE91 JUMPI DUP4 SLOAD PUSH1 0x1 DUP2 DUP2 SHR SWAP2 DUP7 SWAP1 DUP3 DUP2 AND DUP1 ISZERO PUSH2 0x18BD JUMPI JUMPDEST PUSH1 0x20 SWAP6 DUP7 DUP7 LT DUP3 EQ PUSH2 0x1891 JUMPI POP DUP5 DUP9 MSTORE SWAP1 DUP2 ISZERO PUSH2 0x1851 JUMPI POP PUSH1 0x1 EQ PUSH2 0x17F9 JUMPI JUMPDEST PUSH2 0xA04 DUP7 DUP7 PUSH2 0x9FA DUP3 DUP12 SUB DUP4 PUSH2 0x190A JUMP JUMPDEST DUP1 DUP1 SWAP5 SWAP8 POP MSTORE PUSH32 0x290DECD9548B62A8D60345A988386FC84BA6BC95484008F6362F93160EF3E563 JUMPDEST DUP3 DUP5 LT PUSH2 0x183E JUMPI POP POP POP DUP3 PUSH2 0xA04 SWAP5 PUSH2 0x9FA SWAP3 DUP3 ADD ADD SWAP5 CODESIZE PUSH2 0x17E8 JUMP JUMPDEST DUP1 SLOAD DUP7 DUP6 ADD DUP9 ADD MSTORE SWAP3 DUP7 ADD SWAP3 DUP2 ADD PUSH2 0x1821 JUMP JUMPDEST PUSH32 0xFFFFFFFFFFFFFFFFFFFFFFFFFFFFFFFFFFFFFFFFFFFFFFFFFFFFFFFFFFFFFF00 AND DUP8 DUP7 ADD MSTORE POP POP POP ISZERO ISZERO PUSH1 0x5 SHL DUP4 ADD ADD SWAP3 POP PUSH2 0x9FA DUP3 PUSH2 0xA04 CODESIZE PUSH2 0x17E8 JUMP JUMPDEST DUP4 PUSH1 0x22 PUSH1 0x24 SWAP3 PUSH32 0x4E487B7100000000000000000000000000000000000000000000000000000000 DUP4 MSTORE MSTORE REVERT JUMPDEST SWAP4 PUSH1 0x7F AND SWAP4 PUSH2 0x17C8 JUMP JUMPDEST PUSH8 0xFFFFFFFFFFFFFFFF DUP2 GT PUSH2 0x18DB JUMPI PUSH1 0x40 MSTORE JUMP JUMPDEST PUSH32 0x4E487B7100000000000000000000000000000000000000000000000000000000 PUSH1 0x0 MSTORE PUSH1 0x41 PUSH1 0x4 MSTORE PUSH1 0x24 PUSH1 0x0 REVERT JUMPDEST SWAP1 PUSH1 0x1F PUSH32 0xFFFFFFFFFFFFFFFFFFFFFFFFFFFFFFFFFFFFFFFFFFFFFFFFFFFFFFFFFFFFFFE0 SWAP2 ADD AND DUP2 ADD SWAP1 DUP2 LT PUSH8 0xFFFFFFFFFFFFFFFF DUP3 GT OR PUSH2 0x18DB JUMPI PUSH1 0x40 MSTORE JUMP JUMPDEST PUSH1 0x20 DUP1 DUP3 MSTORE DUP3 MLOAD DUP2 DUP4 ADD DUP2 SWAP1 MSTORE SWAP4 SWAP3 PUSH1 0x0 JUMPDEST DUP6 DUP2 LT PUSH2 0x199D JUMPI POP POP POP PUSH32 0xFFFFFFFFFFFFFFFFFFFFFFFFFFFFFFFFFFFFFFFFFFFFFFFFFFFFFFFFFFFFFFE0 PUSH1 0x1F DUP5 PUSH1 0x0 PUSH1 0x40 DUP1 SWAP7 SWAP8 DUP7 ADD ADD MSTORE ADD AND ADD ADD SWAP1 JUMP JUMPDEST DUP2 DUP2 ADD DUP4 ADD MLOAD DUP5 DUP3 ADD PUSH1 0x40 ADD MSTORE DUP3 ADD PUSH2 0x195D JUMP JUMPDEST PUSH1 0x4 CALLDATALOAD SWAP1 PUSH20 0xFFFFFFFFFFFFFFFFFFFFFFFFFFFFFFFFFFFFFFFF DUP3 AND DUP3 SUB PUSH2 0x19D4 JUMPI JUMP JUMPDEST PUSH1 0x0 DUP1 REVERT JUMPDEST PUSH1 0x24 CALLDATALOAD SWAP1 PUSH20 0xFFFFFFFFFFFFFFFFFFFFFFFFFFFFFFFFFFFFFFFF DUP3 AND DUP3 SUB PUSH2 0x19D4 JUMPI JUMP JUMPDEST PUSH1 0x44 CALLDATALOAD SWAP1 PUSH20 0xFFFFFFFFFFFFFFFFFFFFFFFFFFFFFFFFFFFFFFFF DUP3 AND DUP3 SUB PUSH2 0x19D4 JUMPI JUMP JUMPDEST PUSH1 0x3 SLOAD DUP1 PUSH2 0x1A34 JUMPI POP PUSH8 0xDE0B6B3A7640000 SWAP1 JUMP JUMPDEST PUSH2 0x1A59 SWAP1 PUSH20 0xFFFFFFFFFFFFFFFFFFFFFFFFFFFFFFFFFFFFFFFF PUSH1 0x7 SLOAD PUSH1 0x8 SHR AND PUSH2 0x1D30 JUMP JUMPDEST SWAP1 JUMP JUMPDEST SWAP2 SWAP1 DUP3 SUB SWAP2 DUP3 GT PUSH2 0x1A69 JUMPI JUMP JUMPDEST PUSH32 0x4E487B7100000000000000000000000000000000000000000000000000000000 PUSH1 0x0 MSTORE PUSH1 0x11 PUSH1 0x4 MSTORE PUSH1 0x24 PUSH1 0x0 REVERT JUMPDEST PUSH32 0x3145C2B643834867F2C0A8CAC8A48218307687911615C0ED01412A09DD163B66 PUSH1 0x20 PUSH2 0x1AED PUSH2 0x1AE8 ADDRESS PUSH32 0x0 PUSH2 0x1E00 JUMP JUMPDEST PUSH2 0x1D73 JUMP JUMPDEST PUSH1 0x7 SLOAD PUSH32 0xFFFFFFFFFFFFFFFFFFFFFF0000000000000000000000000000000000000000FF PUSH21 0xFFFFFFFFFFFFFFFFFFFFFFFFFFFFFFFFFFFFFFFF00 DUP4 PUSH1 0x8 SHL AND SWAP2 AND OR PUSH1 0x7 SSTORE PUSH20 0xFFFFFFFFFFFFFFFFFFFFFFFFFFFFFFFFFFFFFFFF PUSH1 0x40 MLOAD SWAP2 AND DUP2 MSTORE LOG1 JUMP JUMPDEST SWAP2 SWAP1 DUP3 ADD DUP1 SWAP3 GT PUSH2 0x1A69 JUMPI JUMP JUMPDEST PUSH20 0xFFFFFFFFFFFFFFFFFFFFFFFFFFFFFFFFFFFFFFFF DUP1 SWAP2 AND SWAP2 DUP3 ISZERO PUSH2 0x1BF6 JUMPI AND SWAP2 DUP3 ISZERO PUSH2 0x1BCC JUMPI PUSH1 0x20 PUSH32 0x8C5BE1E5EBEC7D5BD14F71427D1E84F3DD0314C0F7B2291E5B200AC8C7C3B925 SWAP2 DUP4 PUSH1 0x0 MSTORE PUSH1 0x4 DUP3 MSTORE PUSH1 0x40 PUSH1 0x0 KECCAK256 DUP6 PUSH1 0x0 MSTORE DUP3 MSTORE DUP1 PUSH1 0x40 PUSH1 0x0 KECCAK256 SSTORE PUSH1 0x40 MLOAD SWAP1 DUP2 MSTORE LOG3 JUMP JUMPDEST PUSH1 0x4 PUSH1 0x40 MLOAD PUSH32 0xADA6435C00000000000000000000000000000000000000000000000000000000 DUP2 MSTORE REVERT JUMPDEST PUSH1 0x4 PUSH1 0x40 MLOAD PUSH32 0x8C6C687400000000000000000000000000000000000000000000000000000000 DUP2 MSTORE REVERT JUMPDEST PUSH20 0xFFFFFFFFFFFFFFFFFFFFFFFFFFFFFFFFFFFFFFFF DUP1 SWAP2 AND SWAP2 DUP3 ISZERO PUSH2 0x1D06 JUMPI AND SWAP2 DUP3 ISZERO PUSH2 0x1CDC JUMPI PUSH1 0x0 DUP3 DUP2 MSTORE PUSH1 0x5 PUSH1 0x20 MSTORE PUSH1 0x40 DUP2 KECCAK256 SLOAD DUP3 DUP2 LT PUSH2 0x1CA5 JUMPI SWAP2 PUSH1 0x40 DUP3 DUP3 PUSH32 0xDDF252AD1BE2C89B69C2B068FC378DAA952BA7F163C4A11628F55A4DF523B3EF SWAP6 DUP8 PUSH1 0x20 SWAP7 MSTORE PUSH1 0x5 DUP7 MSTORE SUB DUP3 DUP3 KECCAK256 SSTORE DUP7 DUP2 MSTORE KECCAK256 DUP2 DUP2 SLOAD ADD SWAP1 SSTORE PUSH1 0x40 MLOAD SWAP1 DUP2 MSTORE LOG3 JUMP JUMPDEST PUSH1 0x44 SWAP1 DUP4 PUSH1 0x40 MLOAD SWAP2 PUSH32 0x8619EA9200000000000000000000000000000000000000000000000000000000 DUP4 MSTORE PUSH1 0x4 DUP4 ADD MSTORE PUSH1 0x24 DUP3 ADD MSTORE REVERT JUMPDEST PUSH1 0x4 PUSH1 0x40 MLOAD PUSH32 0x30B4B58000000000000000000000000000000000000000000000000000000000 DUP2 MSTORE REVERT JUMPDEST PUSH1 0x4 PUSH1 0x40 MLOAD PUSH32 0x6FBB781700000000000000000000000000000000000000000000000000000000 DUP2 MSTORE REVERT JUMPDEST PUSH8 0xDE0B6B3A7640000 SWAP1 PUSH25 0x12725DD1D243ABA0E75FE645CC4873F9E65AFE688C928E1F21 DUP2 GT DUP3 MUL ISZERO DUP4 MUL ISZERO PUSH2 0x1D65 JUMPI MUL DIV SWAP1 JUMP JUMPDEST PUSH4 0x7C5F487D PUSH1 0x0 MSTORE PUSH1 0x4 PUSH1 0x1C REVERT JUMPDEST PUSH21 0x10000000000000000000000000000000000000000 DUP2 LT ISZERO PUSH2 0x1DA9 JUMPI PUSH20 0xFFFFFFFFFFFFFFFFFFFFFFFFFFFFFFFFFFFFFFFF AND SWAP1 JUMP JUMPDEST PUSH4 0x35278D12 PUSH1 0x0 MSTORE PUSH1 0x4 PUSH1 0x1C REVERT JUMPDEST PUSH1 0x10 SWAP3 PUSH1 0x20 SWAP3 PUSH1 0x14 MSTORE PUSH1 0x34 MSTORE PUSH1 0x44 PUSH1 0x0 SWAP4 DUP5 DUP1 SWAP4 PUSH16 0xA9059CBB000000000000000000000000 DUP3 MSTORE GAS CALL RETURNDATASIZE ISZERO PUSH1 0x1 DUP4 MLOAD EQ OR AND ISZERO PUSH2 0x1DF3 JUMPI PUSH1 0x34 MSTORE JUMP JUMPDEST PUSH4 0x90B8EC18 SWAP1 MSTORE PUSH1 0x4 PUSH1 0x1C REVERT JUMPDEST PUSH1 0x24 PUSH1 0x10 PUSH1 0x20 SWAP4 SWAP3 DUP5 SWAP4 PUSH1 0x14 MSTORE PUSH16 0x70A08231000000000000000000000000 PUSH1 0x0 MSTORE GAS STATICCALL PUSH1 0x1F RETURNDATASIZE GT AND PUSH1 0x20 MLOAD MUL SWAP1 JUMP INVALID LOG2 PUSH5 0x6970667358 0x22 SLT KECCAK256 OR 0xB4 0xF7 CREATE 0xF AND 0xC2 0x4B LOG0 MOD SWAP1 RETURN XOR SWAP11 0x5C SSTORE 0xAC 0xB8 PUSH15 0x3A85F25F0C897B84F443D9053F6473 PUSH16 0x6C634300081100330000000000000000 "},"methodIdentifiers":{"DOMAIN_SEPARATOR()":"3644e515","PERMIT2()":"6afdd850","PERMIT_TYPEHASH()":"30adf81f","allowance(address,address)":"dd62ed3e","approve(address,uint256)":"095ea7b3","balanceOf(address)":"70a08231","cygnusNebulaOracle()":"d935bd92","decimals()":"313ce567","decreaseAllowance(address,uint256)":"a457c2d7","deposit(uint256,address,((address,uint160,uint48,uint48),address,uint256),bytes)":"8808e71c","exchangeRate()":"3ba0b9a9","hangar18()":"e8a24e1d","increaseAllowance(address,uint256)":"39509351","name()":"06fdde03","nonces(address)":"7ecebe00","permit(address,address,uint256,uint256,uint8,bytes32,bytes32)":"d505accf","redeem(uint256,address,address)":"ba087652","shuttleId()":"5f77f891","sweepToken(address)":"1be19560","symbol()":"95d89b41","totalBalance()":"ad7a672f","totalSupply()":"18160ddd","transfer(address,uint256)":"a9059cbb","transferFrom(address,address,uint256)":"23b872dd","underlying()":"6f307dc3","version()":"54fd4d50"}}}}}