{"contracts/cygnus-core/Hangar18.sol":{"Hangar18":{"abi":[{"inputs":[{"internalType":"address","name":"_admin","type":"address"},{"internalType":"address","name":"_daoReserves","type":"address"},{"internalType":"address","name":"_usd","type":"address"},{"internalType":"address","name":"_nativeToken","type":"address"}],"stateMutability":"nonpayable","type":"constructor"},{"inputs":[{"internalType":"address","name":"newPendingAdmin","type":"address"},{"internalType":"address","name":"admin","type":"address"}],"name":"Hangar18__AdminAlreadySet","type":"error"},{"inputs":[{"internalType":"address","name":"create2Collateral","type":"address"},{"internalType":"address","name":"collateral","type":"address"}],"name":"Hangar18__CollateralAddressMismatch","type":"error"},{"inputs":[{"internalType":"address","name":"sender","type":"address"},{"internalType":"address","name":"admin","type":"address"}],"name":"Hangar18__CygnusAdminOnly","type":"error"},{"inputs":[{"internalType":"address","name":"priceOracle","type":"address"},{"internalType":"address","name":"newPriceOracle","type":"address"}],"name":"Hangar18__CygnusNebulaAlreadySet","type":"error"},{"inputs":[],"name":"Hangar18__CygnusNebulaCantBeZero","type":"error"},{"inputs":[{"internalType":"address","name":"newPendingDaoReserves","type":"address"},{"internalType":"address","name":"daoReserves","type":"address"}],"name":"Hangar18__DaoReservesAlreadySet","type":"error"},{"inputs":[],"name":"Hangar18__DaoReservesCantBeZero","type":"error"},{"inputs":[{"internalType":"address","name":"lpTokenPair","type":"address"}],"name":"Hangar18__LPTokenPairNotSupported","type":"error"},{"inputs":[{"components":[{"internalType":"bool","name":"status","type":"bool"},{"internalType":"uint88","name":"orbiterId","type":"uint88"},{"internalType":"contract IAlbireoOrbiter","name":"albireoOrbiter","type":"address"},{"internalType":"contract IDenebOrbiter","name":"denebOrbiter","type":"address"},{"internalType":"bytes32","name":"borrowableInitCodeHash","type":"bytes32"},{"internalType":"bytes32","name":"collateralInitCodeHash","type":"bytes32"},{"internalType":"contract ICygnusNebulaOracle","name":"nebulaOracle","type":"address"},{"internalType":"bytes32","name":"uniqueHash","type":"bytes32"},{"internalType":"string","name":"orbiterName","type":"string"}],"internalType":"struct IHangar18.Orbiter","name":"orbiter","type":"tuple"}],"name":"Hangar18__OrbiterAlreadySet","type":"error"},{"inputs":[{"components":[{"internalType":"bool","name":"status","type":"bool"},{"internalType":"uint88","name":"orbiterId","type":"uint88"},{"internalType":"contract IAlbireoOrbiter","name":"albireoOrbiter","type":"address"},{"internalType":"contract IDenebOrbiter","name":"denebOrbiter","type":"address"},{"internalType":"bytes32","name":"borrowableInitCodeHash","type":"bytes32"},{"internalType":"bytes32","name":"collateralInitCodeHash","type":"bytes32"},{"internalType":"contract ICygnusNebulaOracle","name":"nebulaOracle","type":"address"},{"internalType":"bytes32","name":"uniqueHash","type":"bytes32"},{"internalType":"string","name":"orbiterName","type":"string"}],"internalType":"struct IHangar18.Orbiter","name":"orbiter","type":"tuple"}],"name":"Hangar18__OrbitersAreInactive","type":"error"},{"inputs":[{"internalType":"uint256","name":"orbiterId","type":"uint256"}],"name":"Hangar18__OrbitersNotSet","type":"error"},{"inputs":[{"internalType":"address","name":"newPendingAdmin","type":"address"},{"internalType":"address","name":"pendingAdmin","type":"address"}],"name":"Hangar18__PendingAdminAlreadySet","type":"error"},{"inputs":[],"name":"Hangar18__PendingAdminCantBeZero","type":"error"},{"inputs":[{"internalType":"address","name":"newPendingDaoReserves","type":"address"},{"internalType":"address","name":"pendingDaoReserves","type":"address"}],"name":"Hangar18__PendingDaoReservesAlreadySet","type":"error"},{"inputs":[{"internalType":"address","name":"lpTokenPair","type":"address"},{"internalType":"uint256","name":"orbiterId","type":"uint256"}],"name":"Hangar18__ShuttleAlreadyDeployed","type":"error"},{"inputs":[],"name":"Hangar18__X1VaultCantBeZero","type":"error"},{"inputs":[],"name":"ReentrantCall","type":"error"},{"anonymous":false,"inputs":[{"indexed":false,"internalType":"bool","name":"status","type":"bool"},{"indexed":false,"internalType":"uint256","name":"orbitersLength","type":"uint256"},{"indexed":false,"internalType":"contract IAlbireoOrbiter","name":"borrowOrbiter","type":"address"},{"indexed":false,"internalType":"contract IDenebOrbiter","name":"denebOrbiter","type":"address"},{"indexed":false,"internalType":"contract ICygnusNebulaOracle","name":"nebulaOracle","type":"address"},{"indexed":false,"internalType":"bytes32","name":"uniqueHash","type":"bytes32"},{"indexed":false,"internalType":"string","name":"orbitersName","type":"string"}],"name":"InitializeOrbiters","type":"event"},{"anonymous":false,"inputs":[{"indexed":false,"internalType":"address","name":"oldAdmin","type":"address"},{"indexed":false,"internalType":"address","name":"newAdmin","type":"address"}],"name":"NewCygnusAdmin","type":"event"},{"anonymous":false,"inputs":[{"indexed":false,"internalType":"contract ICygnusNebulaOracle","name":"oldCygnusNebula","type":"address"},{"indexed":false,"internalType":"contract ICygnusNebulaOracle","name":"newCygnusNebula","type":"address"}],"name":"NewCygnusNebulaOracle","type":"event"},{"anonymous":false,"inputs":[{"indexed":false,"internalType":"address","name":"oldDaoReserves","type":"address"},{"indexed":false,"internalType":"address","name":"daoReserves","type":"address"}],"name":"NewDaoReserves","type":"event"},{"anonymous":false,"inputs":[{"indexed":false,"internalType":"address","name":"owner","type":"address"},{"indexed":false,"internalType":"address","name":"spender","type":"address"},{"indexed":false,"internalType":"bool","name":"status","type":"bool"}],"name":"NewMasterBorrowApproval","type":"event"},{"anonymous":false,"inputs":[{"indexed":false,"internalType":"address","name":"pendingAdmin","type":"address"},{"indexed":false,"internalType":"address","name":"_admin","type":"address"}],"name":"NewPendingCygnusAdmin","type":"event"},{"anonymous":false,"inputs":[{"indexed":false,"internalType":"address","name":"oldPendingdaoReservesContract","type":"address"},{"indexed":false,"internalType":"address","name":"newPendingdaoReservesContract","type":"address"}],"name":"NewPendingDaoReserves","type":"event"},{"anonymous":false,"inputs":[{"indexed":true,"internalType":"address","name":"lpTokenPair","type":"address"},{"indexed":true,"internalType":"uint256","name":"shuttleId","type":"uint256"},{"indexed":false,"internalType":"uint256","name":"orbiterId","type":"uint256"},{"indexed":false,"internalType":"address","name":"borrowable","type":"address"},{"indexed":false,"internalType":"address","name":"collateral","type":"address"}],"name":"NewShuttle","type":"event"},{"anonymous":false,"inputs":[{"indexed":false,"internalType":"address","name":"oldVault","type":"address"},{"indexed":false,"internalType":"address","name":"newVault","type":"address"}],"name":"NewX1Vault","type":"event"},{"anonymous":false,"inputs":[{"indexed":false,"internalType":"bool","name":"status","type":"bool"},{"indexed":false,"internalType":"uint256","name":"orbiterId","type":"uint256"},{"indexed":false,"internalType":"contract IAlbireoOrbiter","name":"albireoOrbiter","type":"address"},{"indexed":false,"internalType":"contract IDenebOrbiter","name":"denebOrbiter","type":"address"},{"indexed":false,"internalType":"string","name":"orbiterName","type":"string"}],"name":"SwitchOrbiterStatus","type":"event"},{"inputs":[],"name":"AGGREGATION_ROUTER_V5","outputs":[{"internalType":"contract IAggregationRouterV5","name":"","type":"address"}],"stateMutability":"view","type":"function"},{"inputs":[],"name":"admin","outputs":[{"internalType":"address","name":"","type":"address"}],"stateMutability":"view","type":"function"},{"inputs":[{"internalType":"uint256","name":"","type":"uint256"}],"name":"allNebulas","outputs":[{"internalType":"contract ICygnusNebulaOracle","name":"","type":"address"}],"stateMutability":"view","type":"function"},{"inputs":[{"internalType":"uint256","name":"","type":"uint256"}],"name":"allOrbiters","outputs":[{"internalType":"bool","name":"status","type":"bool"},{"internalType":"uint88","name":"orbiterId","type":"uint88"},{"internalType":"contract IAlbireoOrbiter","name":"albireoOrbiter","type":"address"},{"internalType":"contract IDenebOrbiter","name":"denebOrbiter","type":"address"},{"internalType":"bytes32","name":"borrowableInitCodeHash","type":"bytes32"},{"internalType":"bytes32","name":"collateralInitCodeHash","type":"bytes32"},{"internalType":"contract ICygnusNebulaOracle","name":"nebulaOracle","type":"address"},{"internalType":"bytes32","name":"uniqueHash","type":"bytes32"},{"internalType":"string","name":"orbiterName","type":"string"}],"stateMutability":"view","type":"function"},{"inputs":[{"internalType":"uint256","name":"","type":"uint256"}],"name":"allShuttles","outputs":[{"internalType":"bool","name":"launched","type":"bool"},{"internalType":"uint88","name":"shuttleId","type":"uint88"},{"internalType":"address","name":"borrowable","type":"address"},{"internalType":"address","name":"collateral","type":"address"},{"internalType":"uint96","name":"orbiterId","type":"uint96"}],"stateMutability":"view","type":"function"},{"inputs":[],"name":"cygnusX1Vault","outputs":[{"internalType":"address","name":"","type":"address"}],"stateMutability":"view","type":"function"},{"inputs":[],"name":"daoReserves","outputs":[{"internalType":"address","name":"","type":"address"}],"stateMutability":"view","type":"function"},{"inputs":[{"internalType":"address","name":"lpTokenPair","type":"address"},{"internalType":"uint256","name":"orbiterId","type":"uint256"}],"name":"deployShuttle","outputs":[{"internalType":"address","name":"borrowable","type":"address"},{"internalType":"address","name":"collateral","type":"address"}],"stateMutability":"nonpayable","type":"function"},{"inputs":[{"internalType":"uint256","name":"","type":"uint256"}],"name":"getOrbiters","outputs":[{"internalType":"bool","name":"status","type":"bool"},{"internalType":"uint88","name":"orbiterId","type":"uint88"},{"internalType":"contract IAlbireoOrbiter","name":"albireoOrbiter","type":"address"},{"internalType":"contract IDenebOrbiter","name":"denebOrbiter","type":"address"},{"internalType":"bytes32","name":"borrowableInitCodeHash","type":"bytes32"},{"internalType":"bytes32","name":"collateralInitCodeHash","type":"bytes32"},{"internalType":"contract ICygnusNebulaOracle","name":"nebulaOracle","type":"address"},{"internalType":"bytes32","name":"uniqueHash","type":"bytes32"},{"internalType":"string","name":"orbiterName","type":"string"}],"stateMutability":"view","type":"function"},{"inputs":[{"internalType":"address","name":"","type":"address"},{"internalType":"uint256","name":"","type":"uint256"}],"name":"getShuttles","outputs":[{"internalType":"bool","name":"launched","type":"bool"},{"internalType":"uint88","name":"shuttleId","type":"uint88"},{"internalType":"address","name":"borrowable","type":"address"},{"internalType":"address","name":"collateral","type":"address"},{"internalType":"uint96","name":"orbiterId","type":"uint96"}],"stateMutability":"view","type":"function"},{"inputs":[{"internalType":"string","name":"orbiterName","type":"string"},{"internalType":"contract IAlbireoOrbiter","name":"albireoOrbiter","type":"address"},{"internalType":"contract IDenebOrbiter","name":"denebOrbiter","type":"address"},{"internalType":"contract ICygnusNebulaOracle","name":"nebulaOracle","type":"address"}],"name":"initializeOrbiter","outputs":[],"stateMutability":"nonpayable","type":"function"},{"inputs":[{"internalType":"address","name":"","type":"address"},{"internalType":"address","name":"","type":"address"}],"name":"masterBorrowApproval","outputs":[{"internalType":"bool","name":"","type":"bool"}],"stateMutability":"view","type":"function"},{"inputs":[],"name":"nativeToken","outputs":[{"internalType":"address","name":"","type":"address"}],"stateMutability":"view","type":"function"},{"inputs":[],"name":"nebulasDeployed","outputs":[{"internalType":"uint256","name":"","type":"uint256"}],"stateMutability":"view","type":"function"},{"inputs":[],"name":"orbitersDeployed","outputs":[{"internalType":"uint256","name":"","type":"uint256"}],"stateMutability":"view","type":"function"},{"inputs":[],"name":"pendingAdmin","outputs":[{"internalType":"address","name":"","type":"address"}],"stateMutability":"view","type":"function"},{"inputs":[],"name":"pendingDaoReserves","outputs":[{"internalType":"address","name":"","type":"address"}],"stateMutability":"view","type":"function"},{"inputs":[{"internalType":"address","name":"newX1Vault","type":"address"}],"name":"setCygnusX1Vault","outputs":[],"stateMutability":"nonpayable","type":"function"},{"inputs":[{"internalType":"address","name":"spender","type":"address"}],"name":"setMasterBorrowApproval","outputs":[],"stateMutability":"nonpayable","type":"function"},{"inputs":[],"name":"setNewCygnusAdmin","outputs":[],"stateMutability":"nonpayable","type":"function"},{"inputs":[],"name":"setNewDaoReserves","outputs":[],"stateMutability":"nonpayable","type":"function"},{"inputs":[{"internalType":"address","name":"newPendingAdmin","type":"address"}],"name":"setPendingAdmin","outputs":[],"stateMutability":"nonpayable","type":"function"},{"inputs":[{"internalType":"address","name":"newPendingDaoReserves","type":"address"}],"name":"setPendingDaoReserves","outputs":[],"stateMutability":"nonpayable","type":"function"},{"inputs":[],"name":"shuttlesDeployed","outputs":[{"internalType":"uint256","name":"","type":"uint256"}],"stateMutability":"view","type":"function"},{"inputs":[{"internalType":"uint256","name":"orbiterId","type":"uint256"}],"name":"switchOrbiterStatus","outputs":[],"stateMutability":"nonpayable","type":"function"},{"inputs":[],"name":"usd","outputs":[{"internalType":"address","name":"","type":"address"}],"stateMutability":"view","type":"function"}],"evm":{"bytecode":{"linkReferences":{},"object":"60c0346200016f57601f620032c338819003918201601f19168301916001600160401b0383118484101762000174578084926080946040528339810103126200016f5762000143817fa6fd993b45f105f3b99176403c23f4df5f10600b416795ff8223ff7ad9efb4f96200011f620000987fdc45b28468284159445ec8588dd4c555fc01ed3c9e7b3b6fd371be486f77913b956200018a565b620000a6602085016200018a565b93620000c36060620000bb604084016200018a565b92016200018a565b600160ff19600054161760005560018060a01b0360018060a01b031990808516826007541617600755871690600954161760095560a05260805260405191829182919091602060408201936000835260018060a01b0316910152565b0390a160408051600081526001600160a01b03909216602083015290918291820190565b0390a16040516131239081620001a082396080518181816106d1015261197f015260a051816104380152f35b600080fd5b634e487b7160e01b600052604160045260246000fd5b51906001600160a01b03821682036200016f5756fe6080604052600436101561001257600080fd5b60003560e01c8063088906101461276b5780630f768151146126e65780631ad4c8c3146125ff5780631f5b8f92146125c35780632678224714612571578063269a2ce41461240a5780632f94f7bf146123005780634d06fcd4146115c85780634dd18bf51461148e578063502b512e146113e25780635b068af8146113905780636f40b0c714610aac57806380ffbb8814610a70578063883fd1c9146109665780639861a14f14610914578063a5d2931814610819578063b11de7e3146107cc578063c73ef9e81461077a578063d02c70e8146106f5578063d63a6ccd14610686578063da519bbd14610596578063daa3bc011461045c578063e1758bd8146103ed578063ea191e9f146103b1578063ec84a5cb146101915763f851a4401461013a57600080fd5b3461018c5760007ffffffffffffffffffffffffffffffffffffffffffffffffffffffffffffffffc36011261018c57602073ffffffffffffffffffffffffffffffffffffffff60075416604051908152f35b600080fd5b3461018c576020807ffffffffffffffffffffffffffffffffffffffffffffffffffffffffffffffffc36011261018c57600435906101cd612cd0565b6101d682612899565b50916005830154156103805750815460ff81811615167fffffffffffffffffffffffffffffffffffffffffffffffffffffffffffffff00909116178255815491600191600673ffffffffffffffffffffffffffffffffffffffff84840154169201916040519460ff8116151586526affffffffffffffffffffff8160081c168387015260601c6040860152606085015260a0608085015260009282549261027c846128d4565b938460a0880152828116908160001461031957506001146102c0575b7f3a23a6fdafdcd184715cc363b2dcefad97be8b3a659d21faa90068b3b4d5c74986860387a1005b60009081528281209094505b8385106103055750505050810160c001817f3a23a6fdafdcd184715cc363b2dcefad97be8b3a659d21faa90068b3b4d5c7498480610298565b805486860160c001529382019381016102cc565b905086955060c093507f3a23a6fdafdcd184715cc363b2dcefad97be8b3a659d21faa90068b3b4d5c749969492507fffffffffffffffffffffffffffffffffffffffffffffffffffffffffffffff0091501682840152151560051b82010191928480610298565b602490604051907f0b6d2e750000000000000000000000000000000000000000000000000000000082526004820152fd5b3461018c5760007ffffffffffffffffffffffffffffffffffffffffffffffffffffffffffffffffc36011261018c576020600154604051908152f35b3461018c5760007ffffffffffffffffffffffffffffffffffffffffffffffffffffffffffffffffc36011261018c57602060405173ffffffffffffffffffffffffffffffffffffffff7f0000000000000000000000000000000000000000000000000000000000000000168152f35b3461018c5760207ffffffffffffffffffffffffffffffffffffffffffffffffffffffffffffffffc36011261018c57610493612876565b61049b612cd0565b73ffffffffffffffffffffffffffffffffffffffff8060095416918181169083821461054257600a80547fffffffffffffffffffffffff0000000000000000000000000000000000000000811684179091556040805173ffffffffffffffffffffffffffffffffffffffff9286168316815291841660208301527f3af6d72823f6692d6673266dabbf4e3165600dcf901b0188c596fe7dad74caf39190819081015b0390a1005b6040517f2496ad5a00000000000000000000000000000000000000000000000000000000815273ffffffffffffffffffffffffffffffffffffffff91821660048201529084166024820152604490fd5b0390fd5b3461018c576020807ffffffffffffffffffffffffffffffffffffffffffffffffffffffffffffffffc36011261018c5760607fa2693b7f43e86af72bf876f9ba36ae57f2cff4df75d6a4f2325fba5b5baed41e916105f2612876565b336000526005825273ffffffffffffffffffffffffffffffffffffffff604060002091169081600052825260ff604060002054161590336000526005835260406000208160005283526106748260406000209060ff7fffffffffffffffffffffffffffffffffffffffffffffffffffffffffffffff0083541691151516179055565b604051923384528301526040820152a1005b3461018c5760007ffffffffffffffffffffffffffffffffffffffffffffffffffffffffffffffffc36011261018c57602060405173ffffffffffffffffffffffffffffffffffffffff7f0000000000000000000000000000000000000000000000000000000000000000168152f35b3461018c5760207ffffffffffffffffffffffffffffffffffffffffffffffffffffffffffffffffc36011261018c5760043560065481101561018c5773ffffffffffffffffffffffffffffffffffffffff60209160066000527ff652222313e28459528d920b65115c16c04f3efc82aaedc97be59f3f377c0d3f015416604051908152f35b3461018c5760007ffffffffffffffffffffffffffffffffffffffffffffffffffffffffffffffffc36011261018c57602073ffffffffffffffffffffffffffffffffffffffff600b5416604051908152f35b3461018c5760007ffffffffffffffffffffffffffffffffffffffffffffffffffffffffffffffffc36011261018c576020604051731111111254eeb25477b68fb85ed929f73a9605828152f35b3461018c5760407ffffffffffffffffffffffffffffffffffffffffffffffffffffffffffffffffc36011261018c5773ffffffffffffffffffffffffffffffffffffffff80610866612876565b1660005260046020526040600020602435600052602052604060002090610910600183549301546040519384938260a01c9216908060601c9060ff6affffffffffffffffffffff8260081c1691168693926080936affffffffffffffffffffff6bffffffffffffffffffffffff949897939860a08801991515885216602087015273ffffffffffffffffffffffffffffffffffffffff809216604087015216606085015216910152565b0390f35b3461018c5760007ffffffffffffffffffffffffffffffffffffffffffffffffffffffffffffffffc36011261018c57602073ffffffffffffffffffffffffffffffffffffffff600a5416604051908152f35b3461018c5760007ffffffffffffffffffffffffffffffffffffffffffffffffffffffffffffffffc36011261018c5761099d612cd0565b60085473ffffffffffffffffffffffffffffffffffffffff808216918215610a4657600780547fffffffffffffffffffffffff000000000000000000000000000000000000000080821686179092559116600855604080519290911673ffffffffffffffffffffffffffffffffffffffff908116835290921660208201527fa6fd993b45f105f3b99176403c23f4df5f10600b416795ff8223ff7ad9efb4f9918190810161053d565b60046040517fd88ccfdc000000000000000000000000000000000000000000000000000000008152fd5b3461018c5760007ffffffffffffffffffffffffffffffffffffffffffffffffffffffffffffffffc36011261018c576020600254604051908152f35b3461018c5760807ffffffffffffffffffffffffffffffffffffffffffffffffffffffffffffffffc36011261018c5760043567ffffffffffffffff811161018c573660238201121561018c578060040135610b0681612b21565b91610b146040519384612943565b818352366024838301011161018c5781600092602460209301838601378301015273ffffffffffffffffffffffffffffffffffffffff602435166024350361018c5760443573ffffffffffffffffffffffffffffffffffffffff8116810361018c5773ffffffffffffffffffffffffffffffffffffffff606435166064350361018c5760005460ff811615611366577fffffffffffffffffffffffffffffffffffffffffffffffffffffffffffffff0016600055610bd0612cd0565b600154604051927f10df4f5200000000000000000000000000000000000000000000000000000000845260208460048173ffffffffffffffffffffffffffffffffffffffff87165afa93841561132657600094611332575b50604051907f870ad7fa00000000000000000000000000000000000000000000000000000000825260208260048173ffffffffffffffffffffffffffffffffffffffff602435165afa918215611326576000926112f2575b50604051602081019086825283604082015273ffffffffffffffffffffffffffffffffffffffff60643516606082015260608152610cbd81612927565b51902091610cca84612cb8565b610cd76040519182612943565b8481526020810160016000527fb10e2d527612073b26eecdfd717e6a320cf44b4afac2b0732d9fcbe2b7fa0cf6906000905b8782106112d45750505060005b858110611272575050600084815260036020526040902080547fffffffffffffffffffffffffffffffffffffffff0000000000000000000000ff16600886901b6bffffffffffffffffffffff001617815595825167ffffffffffffffff811161117157610d9381610d8a60068b01546128d4565b60068b01612d42565b806020601f82116001146111ab576000916111a0575b507fffffffffffffffffffffffffffffffffffffffffffffffffffffffffffffffff8260011b9260031b1c19161760068801555b6001870180547fffffffffffffffffffffffff00000000000000000000000000000000000000001673ffffffffffffffffffffffffffffffffffffffff881617905586546bffffffffffffffffffffffff1660243560601b7fffffffffffffffffffffffffffffffffffffffff0000000000000000000000001617875573ffffffffffffffffffffffffffffffffffffffff606435167fffffffffffffffffffffffff00000000000000000000000000000000000000006004890154161760048801556003870155600286015581600586015560017fffffffffffffffffffffffffffffffffffffffffffffffffffffffffffffff008654161785556001546801000000000000000081101561117157806001610efd9201600155612899565b9290926111425785837fa7e99fcdd4ebcda1e96dd79db97b7b405991bff749f000898cc69d5ede019d4597610fa79503610fd7575b5050610f3f606435612f3e565b73ffffffffffffffffffffffffffffffffffffffff6040519586956001875260208701528160243516604087015216606085015273ffffffffffffffffffffffffffffffffffffffff60643516608085015260a084015260e060c084015260e0830190612a6c565b0390a1600080547fffffffffffffffffffffffffffffffffffffffffffffffffffffffffffffff00166001179055005b6006808361101760ff61113b965416859060ff7fffffffffffffffffffffffffffffffffffffffffffffffffffffffffffffff0083541691151516179055565b805484547fffffffffffffffffffffffffffffffffffffffff0000000000000000000000ff166bffffffffffffffffffffff00909116178455805484546bffffffffffffffffffffffff167fffffffffffffffffffffffffffffffffffffffff0000000000000000000000009091161784556001840173ffffffffffffffffffffffffffffffffffffffff6001830154167fffffffffffffffffffffffff000000000000000000000000000000000000000082541617905560028101546002850155600381015460038501556004840173ffffffffffffffffffffffffffffffffffffffff6004830154167fffffffffffffffffffffffff000000000000000000000000000000000000000082541617905560058101546005850155019101612d96565b8680610f32565b7f4e487b7100000000000000000000000000000000000000000000000000000000600052600060045260246000fd5b7f4e487b7100000000000000000000000000000000000000000000000000000000600052604160045260246000fd5b905084015189610da9565b91506006890160005260206000206000925b7fffffffffffffffffffffffffffffffffffffffffffffffffffffffffffffffe08316841061125a5760019350827fffffffffffffffffffffffffffffffffffffffffffffffffffffffffffffffe0811610611223575b5050811b016006880155610ddd565b8601517fffffffffffffffffffffffffffffffffffffffffffffffffffffffffffffffff60f88460031b161c191690558980611214565b868101518255602093840193600190920191016111bd565b60e061127e8284612f2a565b51015185146112955761129090612ece565b610d16565b6112a29061059292612f2a565b516040519182917ee9217c00000000000000000000000000000000000000000000000000000000835260048301612c01565b600760206001926112e486612b5b565b815201930191019091610d09565b9091506020813d60201161131e575b8161130e60209383612943565b8101031261018c57519085610c80565b3d9150611301565b6040513d6000823e3d90fd5b9093506020813d60201161135e575b8161134e60209383612943565b8101031261018c57519284610c28565b3d9150611341565b60046040517f37ed32e8000000000000000000000000000000000000000000000000000000008152fd5b3461018c5760007ffffffffffffffffffffffffffffffffffffffffffffffffffffffffffffffffc36011261018c57602073ffffffffffffffffffffffffffffffffffffffff60095416604051908152f35b3461018c5760207ffffffffffffffffffffffffffffffffffffffffffffffffffffffffffffffffc36011261018c5760043560005260036020526040600020805461091073ffffffffffffffffffffffffffffffffffffffff806001850154169360028101549160038201549060048301541690611467600660058501549401612984565b936040519787899860601c9060ff6affffffffffffffffffffff8260081c1691168a612aaf565b3461018c5760207ffffffffffffffffffffffffffffffffffffffffffffffffffffffffffffffffc36011261018c576114c5612876565b6114cd612cd0565b73ffffffffffffffffffffffffffffffffffffffff806007541681831690808214611577575061053d7f2df3edf32bd243b7fb5e2d31673b2c1e842eff07d227e05d34b5135021a1683893600854927fffffffffffffffffffffffff0000000000000000000000000000000000000000841617600855604051938493168390602090939293604083019473ffffffffffffffffffffffffffffffffffffffff809216845216910152565b6040517f681dd83c00000000000000000000000000000000000000000000000000000000815273ffffffffffffffffffffffffffffffffffffffff8581166004830152919091166024820152604490fd5b3461018c5760407ffffffffffffffffffffffffffffffffffffffffffffffffffffffffffffffffc36011261018c576115ff612876565b60005460ff811615611366577fffffffffffffffffffffffffffffffffffffffffffffffffffffffffffffff0016600055611638612cd0565b60243560005260036020526116506040600020612b5b565b8051156122ca576affffffffffffffffffffff6020820151169173ffffffffffffffffffffffffffffffffffffffff81166000526004602052604060002083600052602052600160ff6040600020541615151461227d576affffffffffffffffffffff6002541692604051908160a081011067ffffffffffffffff60a084011117611171576119e99460a08301604052600083526020830152600060408301526000606083015280608083015273ffffffffffffffffffffffffffffffffffffffff8316600052600460205260406000209060005260205261184a6bffffffffffffffffffffffff608060406000209361177881511515869060ff7fffffffffffffffffffffffffffffffffffffffffffffffffffffffffffffff0083541691151516179055565b602081015185547fffffffffffffffffffffffffffffffffffffffff0000000000000000000000ff1660089190911b6bffffffffffffffffffffff0016178555604081015185546bffffffffffffffffffffffff1660609190911b7fffffffffffffffffffffffffffffffffffffffff0000000000000000000000001617855560608101519101519190911660a01b7fffffffffffffffffffffffff00000000000000000000000000000000000000001673ffffffffffffffffffffffffffffffffffffffff91909116176001830155565b60608381015160a08501516040805173ffffffffffffffffffffffffffffffffffffffff8781166020830190815230838501529282529461188b9082612943565b51902090604051917fffffffffffffffffffffffffffffffffffffffff00000000000000000000000060208401947fff00000000000000000000000000000000000000000000000000000000000000865260601b16602184015260358301526055820152605581526118fc81612927565b5190201692602073ffffffffffffffffffffffffffffffffffffffff60408301511673ffffffffffffffffffffffffffffffffffffffff60c084015116906affffffffffffffffffffff600086546040519a8b95869485937f9ba991f800000000000000000000000000000000000000000000000000000000855260081c16908c7f00000000000000000000000000000000000000000000000000000000000000006004860192936060926affffffffffffffffffffff929695608086019773ffffffffffffffffffffffffffffffffffffffff9283809216885216602087015216604085015216910152565b03925af193841561132657600094612240575b606082015160c083015184546040517f1b2b71e400000000000000000000000000000000000000000000000000000000815273ffffffffffffffffffffffffffffffffffffffff88811660048301528981166024830152928316604482015260089190911c6affffffffffffffffffffff166064820152975060209188911681600081608481015b03925af195861561132657600096612204575b508073ffffffffffffffffffffffffffffffffffffffff8716036121b45750600073ffffffffffffffffffffffffffffffffffffffff60c0602493015116604051928380927ff0ac40c400000000000000000000000000000000000000000000000000000000825273ffffffffffffffffffffffffffffffffffffffff881660048301525afa90811561132657600091611ec1575b505115611e7a5780546bffffffffffffffffffffff0016606084901b7fffffffffffffffffffffffffffffffffffffffff000000000000000000000000161760011781556001810180547fffffffffffffffffffffffff00000000000000000000000000000000000000001673ffffffffffffffffffffffffffffffffffffffff861617905560025468010000000000000000811015611171576001810180600255811015611e4b57600260005260011b807f405787fa12a823e0f2b7631cc41b3ba8828b3321ca811111fa75cd3aa3bb5ace01828103611cdf575b505073ffffffffffffffffffffffffffffffffffffffff6001825492015416604051916affffffffffffffffffffff8160081c16835260601c602083015260408201527f87cc75e536ac0074a48c024a0a07dc0b5a1025f2ad992f76125df37add2c068f606073ffffffffffffffffffffffffffffffffffffffff602435941692a3600080547fffffffffffffffffffffffffffffffffffffffffffffffffffffffffffffff001660011790556040805173ffffffffffffffffffffffffffffffffffffffff928316815292909116602083015290f35b611e4491611db57f405787fa12a823e0f2b7631cc41b3ba8828b3321ca811111fa75cd3aa3bb5acf92611d4160ff875416829060ff7fffffffffffffffffffffffffffffffffffffffffffffffffffffffffffffff0083541691151516179055565b855481547fffffffffffffffffffffffffffffffffffffffff0000000000000000000000ff166bffffffffffffffffffffff00909116178155855481546bffffffffffffffffffffffff167fffffffffffffffffffffffffffffffffffffffff000000000000000000000000909116179055565b0173ffffffffffffffffffffffffffffffffffffffff6001840154167fffffffffffffffffffffffff0000000000000000000000000000000000000000825416178155600183015460a01c73ffffffffffffffffffffffffffffffffffffffff7fffffffffffffffffffffffff000000000000000000000000000000000000000083549260a01b169116179055565b8480611c08565b7f4e487b7100000000000000000000000000000000000000000000000000000000600052603260045260246000fd5b60248273ffffffffffffffffffffffffffffffffffffffff604051917f32556ecc000000000000000000000000000000000000000000000000000000008352166004820152fd5b3d9150816000823e611ed38282612943565b602081838101031261018c5780519067ffffffffffffffff821161018c5760e0828201848301031261018c57604051928360e081011067ffffffffffffffff60e0860111176111715760e0840160405282820151801515810361018c578452602083830101516affffffffffffffffffffff8116810361018c5760208501526040838301015167ffffffffffffffff811161018c57818301601f828686010101121561018c5780848401015190611f8982612b21565b91611f976040519384612943565b808352838501602082848989010101011161018c57611fc0916020808501918888010101612a49565b6040850152611fd3606084840101612c97565b60608501526080838301015167ffffffffffffffff811161018c57818301601f828686010101121561018c5780848401015161200e81612cb8565b9161201c6040519384612943565b81835260208084019260051b8288880101010190848601821161018c5785870101602001915b81831061218757505050608085015260a0838301015167ffffffffffffffff811161018c57818301601f828686010101121561018c578084840101519061208882612cb8565b916120966040519384612943565b80835260208084019160051b8388880101010191848601831161018c5785870101602001905b8282106121775750505060a085015260c083830101519167ffffffffffffffff831161018c57818101601f848684010101121561018c578284820101519261210384612cb8565b946121116040519687612943565b84865260208087019560051b83838601010101938301841161018c57602092010101915b81831061214a5750505060c082015285611b2c565b825173ffffffffffffffffffffffffffffffffffffffff8116810361018c57815260209283019201612135565b81518152602091820191016120bc565b825173ffffffffffffffffffffffffffffffffffffffff8116810361018c57815260209283019201612042565b6040517f7bb3880700000000000000000000000000000000000000000000000000000000815273ffffffffffffffffffffffffffffffffffffffff91821660048201529086166024820152604490fd5b9095506020813d602011612238575b8161222060209383612943565b8101031261018c5761223190612c97565b9486611a97565b3d9150612213565b93506020853d602011612275575b8161225b60209383612943565b8101031261018c5761226f611a8495612c97565b936119fc565b3d915061224e565b6044908373ffffffffffffffffffffffffffffffffffffffff604051927f998d5f700000000000000000000000000000000000000000000000000000000084521660048301526024820152fd5b610592906040519182917f020b624100000000000000000000000000000000000000000000000000000000835260048301612c01565b3461018c5760007ffffffffffffffffffffffffffffffffffffffffffffffffffffffffffffffffc36011261018c57612337612cd0565b600a5473ffffffffffffffffffffffffffffffffffffffff8082169182156123e057600980547fffffffffffffffffffffffff000000000000000000000000000000000000000080821686179092559116600a55604080519290911673ffffffffffffffffffffffffffffffffffffffff908116835290921660208201527fdc45b28468284159445ec8588dd4c555fc01ed3c9e7b3b6fd371be486f77913b918190810161053d565b60046040517fd45740f5000000000000000000000000000000000000000000000000000000008152fd5b3461018c5760207ffffffffffffffffffffffffffffffffffffffffffffffffffffffffffffffffc36011261018c5760043560015481101561018c57600790600160005202807fb10e2d527612073b26eecdfd717e6a320cf44b4afac2b0732d9fcbe2b7fa0cf6015461091073ffffffffffffffffffffffffffffffffffffffff807fb10e2d527612073b26eecdfd717e6a320cf44b4afac2b0732d9fcbe2b7fa0cf785015416937fb10e2d527612073b26eecdfd717e6a320cf44b4afac2b0732d9fcbe2b7fa0cf8810154917fb10e2d527612073b26eecdfd717e6a320cf44b4afac2b0732d9fcbe2b7fa0cf9820154907fb10e2d527612073b26eecdfd717e6a320cf44b4afac2b0732d9fcbe2b7fa0cfa83015416906114677fb10e2d527612073b26eecdfd717e6a320cf44b4afac2b0732d9fcbe2b7fa0cfc7fb10e2d527612073b26eecdfd717e6a320cf44b4afac2b0732d9fcbe2b7fa0cfb8501549401612984565b3461018c5760007ffffffffffffffffffffffffffffffffffffffffffffffffffffffffffffffffc36011261018c57602073ffffffffffffffffffffffffffffffffffffffff60085416604051908152f35b3461018c5760007ffffffffffffffffffffffffffffffffffffffffffffffffffffffffffffffffc36011261018c576020600654604051908152f35b3461018c5760207ffffffffffffffffffffffffffffffffffffffffffffffffffffffffffffffffc36011261018c5760043560025481101561018c57600260005260011b7f405787fa12a823e0f2b7631cc41b3ba8828b3321ca811111fa75cd3aa3bb5ace8101547f405787fa12a823e0f2b7631cc41b3ba8828b3321ca811111fa75cd3aa3bb5acf909101546040805160ff8416151581526affffffffffffffffffffff600885901c166020820152606093841c9181019190915273ffffffffffffffffffffffffffffffffffffffff82169281019290925260a090811c608083015290f35b3461018c5760407ffffffffffffffffffffffffffffffffffffffffffffffffffffffffffffffffc36011261018c5761271d612876565b6024359073ffffffffffffffffffffffffffffffffffffffff9081831680930361018c57166000526005602052604060002090600052602052602060ff604060002054166040519015158152f35b3461018c5760207ffffffffffffffffffffffffffffffffffffffffffffffffffffffffffffffffc36011261018c576127a2612876565b6127aa612cd0565b73ffffffffffffffffffffffffffffffffffffffff808216801561284c5761053d7fee536cbb080de2a8340fafaee947799b653dff18ad502b7f85dec917aa90dd8893600b54927fffffffffffffffffffffffff0000000000000000000000000000000000000000841617600b55604051938493168390602090939293604083019473ffffffffffffffffffffffffffffffffffffffff809216845216910152565b60046040517f2d2aaf4c000000000000000000000000000000000000000000000000000000008152fd5b6004359073ffffffffffffffffffffffffffffffffffffffff8216820361018c57565b600154811015611e4b576007906001600052027fb10e2d527612073b26eecdfd717e6a320cf44b4afac2b0732d9fcbe2b7fa0cf60190600090565b90600182811c9216801561291d575b60208310146128ee57565b7f4e487b7100000000000000000000000000000000000000000000000000000000600052602260045260246000fd5b91607f16916128e3565b6080810190811067ffffffffffffffff82111761117157604052565b90601f7fffffffffffffffffffffffffffffffffffffffffffffffffffffffffffffffe0910116810190811067ffffffffffffffff82111761117157604052565b9060405191826000825492612998846128d4565b908184526001948581169081600014612a0757506001146129c4575b50506129c292500383612943565b565b9093915060005260209081600020936000915b8183106129ef5750506129c2935082010138806129b4565b855488840185015294850194879450918301916129d7565b90506129c29550602093507fffffffffffffffffffffffffffffffffffffffffffffffffffffffffffffff0091501682840152151560051b82010138806129b4565b60005b838110612a5c5750506000910152565b8181015183820152602001612a4c565b907fffffffffffffffffffffffffffffffffffffffffffffffffffffffffffffffe0601f602093612aa881518092818752878088019101612a49565b0116010190565b969394916affffffffffffffffffffff90612b1e9a999794921515895216602088015273ffffffffffffffffffffffffffffffffffffffff94858092166040890152166060870152608086015260a08501521660c083015260e082015261012090816101008201520190612a6c565b90565b67ffffffffffffffff811161117157601f017fffffffffffffffffffffffffffffffffffffffffffffffffffffffffffffffe01660200190565b90604051610120810181811067ffffffffffffffff82111761117157604052610100612bfc60068395805460ff8116151586526affffffffffffffffffffff8160081c16602087015260601c604086015273ffffffffffffffffffffffffffffffffffffffff80600183015416606087015260028201546080870152600382015460a087015260048201541660c0860152600581015460e086015201612984565b910152565b610140612b1e92602083528051151560208401526affffffffffffffffffffff602082015116604084015273ffffffffffffffffffffffffffffffffffffffff806040830151166060850152806060830151166080850152608082015160a085015260a082015160c085015260c08201511660e084015260e0810151906101009182850152015191610120808201520190612a6c565b519073ffffffffffffffffffffffffffffffffffffffff8216820361018c57565b67ffffffffffffffff81116111715760051b60200190565b73ffffffffffffffffffffffffffffffffffffffff60075416803303612cf35750565b6040517f44c74fbb00000000000000000000000000000000000000000000000000000000815233600482015273ffffffffffffffffffffffffffffffffffffffff919091166024820152604490fd5b90601f8111612d5057505050565b600091825260208220906020601f850160051c83019410612d8c575b601f0160051c01915b828110612d8157505050565b818155600101612d75565b9092508290612d6c565b90808214612eca57612da881546128d4565b9067ffffffffffffffff8211611171578190612dce82612dc886546128d4565b86612d42565b600090601f8311600114612e2257600092612e17575b50507fffffffffffffffffffffffffffffffffffffffffffffffffffffffffffffffff8260011b9260031b1c1916179055565b015490503880612de4565b917fffffffffffffffffffffffffffffffffffffffffffffffffffffffffffffffe016918152602091828220908583528383209383905b828210612eb1575050908460019594939210612e7a575b505050811b019055565b01547fffffffffffffffffffffffffffffffffffffffffffffffffffffffffffffffff60f88460031b161c19169055388080612e70565b8495819295850154815560018091019601940190612e59565b5050565b7fffffffffffffffffffffffffffffffffffffffffffffffffffffffffffffffff8114612efb5760010190565b7f4e487b7100000000000000000000000000000000000000000000000000000000600052601160045260246000fd5b8051821015611e4b5760209160051b010190565b604051908160065480845260208094019382600095600687527ff652222313e28459528d920b65115c16c04f3efc82aaedc97be59f3f377c0d3f92875b8581106130c0575050612f9092500383612943565b835b8251811015612fda5773ffffffffffffffffffffffffffffffffffffffff80612fbb8386612f2a565b511690851614612fd357612fce90612ece565b612f92565b5050505050565b5091929050680100000000000000008210156130935760018201806006558210156130665790600673ffffffffffffffffffffffffffffffffffffffff92527ff652222313e28459528d920b65115c16c04f3efc82aaedc97be59f3f377c0d3f0191167fffffffffffffffffffffffff0000000000000000000000000000000000000000825416179055565b807f4e487b7100000000000000000000000000000000000000000000000000000000602492526032600452fd5b807f4e487b7100000000000000000000000000000000000000000000000000000000602492526041600452fd5b845473ffffffffffffffffffffffffffffffffffffffff1683526001948501948794509282019201612f7b56fea264697066735822122057317273d24f3558936a873993d61381a3af1abed7bb50ae2036fbe2d4e1673764736f6c63430008110033","opcodes":"PUSH1 0xC0 CALLVALUE PUSH3 0x16F JUMPI PUSH1 0x1F PUSH3 0x32C3 CODESIZE DUP2 SWAP1 SUB SWAP2 DUP3 ADD PUSH1 0x1F NOT AND DUP4 ADD SWAP2 PUSH1 0x1 PUSH1 0x1 PUSH1 0x40 SHL SUB DUP4 GT DUP5 DUP5 LT OR PUSH3 0x174 JUMPI DUP1 DUP5 SWAP3 PUSH1 0x80 SWAP5 PUSH1 0x40 MSTORE DUP4 CODECOPY DUP2 ADD SUB SLT PUSH3 0x16F JUMPI PUSH3 0x143 DUP2 PUSH32 0xA6FD993B45F105F3B99176403C23F4DF5F10600B416795FF8223FF7AD9EFB4F9 PUSH3 0x11F PUSH3 0x98 PUSH32 0xDC45B28468284159445EC8588DD4C555FC01ED3C9E7B3B6FD371BE486F77913B SWAP6 PUSH3 0x18A JUMP JUMPDEST PUSH3 0xA6 PUSH1 0x20 DUP6 ADD PUSH3 0x18A JUMP JUMPDEST SWAP4 PUSH3 0xC3 PUSH1 0x60 PUSH3 0xBB PUSH1 0x40 DUP5 ADD PUSH3 0x18A JUMP JUMPDEST SWAP3 ADD PUSH3 0x18A JUMP JUMPDEST PUSH1 0x1 PUSH1 0xFF NOT PUSH1 0x0 SLOAD AND OR PUSH1 0x0 SSTORE PUSH1 0x1 DUP1 PUSH1 0xA0 SHL SUB PUSH1 0x1 DUP1 PUSH1 0xA0 SHL SUB NOT SWAP1 DUP1 DUP6 AND DUP3 PUSH1 0x7 SLOAD AND OR PUSH1 0x7 SSTORE DUP8 AND SWAP1 PUSH1 0x9 SLOAD AND OR PUSH1 0x9 SSTORE PUSH1 0xA0 MSTORE PUSH1 0x80 MSTORE PUSH1 0x40 MLOAD SWAP2 DUP3 SWAP2 DUP3 SWAP2 SWAP1 SWAP2 PUSH1 0x20 PUSH1 0x40 DUP3 ADD SWAP4 PUSH1 0x0 DUP4 MSTORE PUSH1 0x1 DUP1 PUSH1 0xA0 SHL SUB AND SWAP2 ADD MSTORE JUMP JUMPDEST SUB SWAP1 LOG1 PUSH1 0x40 DUP1 MLOAD PUSH1 0x0 DUP2 MSTORE PUSH1 0x1 PUSH1 0x1 PUSH1 0xA0 SHL SUB SWAP1 SWAP3 AND PUSH1 0x20 DUP4 ADD MSTORE SWAP1 SWAP2 DUP3 SWAP2 DUP3 ADD SWAP1 JUMP JUMPDEST SUB SWAP1 LOG1 PUSH1 0x40 MLOAD PUSH2 0x3123 SWAP1 DUP2 PUSH3 0x1A0 DUP3 CODECOPY PUSH1 0x80 MLOAD DUP2 DUP2 DUP2 PUSH2 0x6D1 ADD MSTORE PUSH2 0x197F ADD MSTORE PUSH1 0xA0 MLOAD DUP2 PUSH2 0x438 ADD MSTORE RETURN JUMPDEST PUSH1 0x0 DUP1 REVERT JUMPDEST PUSH4 0x4E487B71 PUSH1 0xE0 SHL PUSH1 0x0 MSTORE PUSH1 0x41 PUSH1 0x4 MSTORE PUSH1 0x24 PUSH1 0x0 REVERT JUMPDEST MLOAD SWAP1 PUSH1 0x1 PUSH1 0x1 PUSH1 0xA0 SHL SUB DUP3 AND DUP3 SUB PUSH3 0x16F JUMPI JUMP INVALID PUSH1 0x80 PUSH1 0x40 MSTORE PUSH1 0x4 CALLDATASIZE LT ISZERO PUSH2 0x12 JUMPI PUSH1 0x0 DUP1 REVERT JUMPDEST PUSH1 0x0 CALLDATALOAD PUSH1 0xE0 SHR DUP1 PUSH4 0x8890610 EQ PUSH2 0x276B JUMPI DUP1 PUSH4 0xF768151 EQ PUSH2 0x26E6 JUMPI DUP1 PUSH4 0x1AD4C8C3 EQ PUSH2 0x25FF JUMPI DUP1 PUSH4 0x1F5B8F92 EQ PUSH2 0x25C3 JUMPI DUP1 PUSH4 0x26782247 EQ PUSH2 0x2571 JUMPI DUP1 PUSH4 0x269A2CE4 EQ PUSH2 0x240A JUMPI DUP1 PUSH4 0x2F94F7BF EQ PUSH2 0x2300 JUMPI DUP1 PUSH4 0x4D06FCD4 EQ PUSH2 0x15C8 JUMPI DUP1 PUSH4 0x4DD18BF5 EQ PUSH2 0x148E JUMPI DUP1 PUSH4 0x502B512E EQ PUSH2 0x13E2 JUMPI DUP1 PUSH4 0x5B068AF8 EQ PUSH2 0x1390 JUMPI DUP1 PUSH4 0x6F40B0C7 EQ PUSH2 0xAAC JUMPI DUP1 PUSH4 0x80FFBB88 EQ PUSH2 0xA70 JUMPI DUP1 PUSH4 0x883FD1C9 EQ PUSH2 0x966 JUMPI DUP1 PUSH4 0x9861A14F EQ PUSH2 0x914 JUMPI DUP1 PUSH4 0xA5D29318 EQ PUSH2 0x819 JUMPI DUP1 PUSH4 0xB11DE7E3 EQ PUSH2 0x7CC JUMPI DUP1 PUSH4 0xC73EF9E8 EQ PUSH2 0x77A JUMPI DUP1 PUSH4 0xD02C70E8 EQ PUSH2 0x6F5 JUMPI DUP1 PUSH4 0xD63A6CCD EQ PUSH2 0x686 JUMPI DUP1 PUSH4 0xDA519BBD EQ PUSH2 0x596 JUMPI DUP1 PUSH4 0xDAA3BC01 EQ PUSH2 0x45C JUMPI DUP1 PUSH4 0xE1758BD8 EQ PUSH2 0x3ED JUMPI DUP1 PUSH4 0xEA191E9F EQ PUSH2 0x3B1 JUMPI DUP1 PUSH4 0xEC84A5CB EQ PUSH2 0x191 JUMPI PUSH4 0xF851A440 EQ PUSH2 0x13A JUMPI PUSH1 0x0 DUP1 REVERT JUMPDEST CALLVALUE PUSH2 0x18C JUMPI PUSH1 0x0 PUSH32 0xFFFFFFFFFFFFFFFFFFFFFFFFFFFFFFFFFFFFFFFFFFFFFFFFFFFFFFFFFFFFFFFC CALLDATASIZE ADD SLT PUSH2 0x18C JUMPI PUSH1 0x20 PUSH20 0xFFFFFFFFFFFFFFFFFFFFFFFFFFFFFFFFFFFFFFFF PUSH1 0x7 SLOAD AND PUSH1 0x40 MLOAD SWAP1 DUP2 MSTORE RETURN JUMPDEST PUSH1 0x0 DUP1 REVERT JUMPDEST CALLVALUE PUSH2 0x18C JUMPI PUSH1 0x20 DUP1 PUSH32 0xFFFFFFFFFFFFFFFFFFFFFFFFFFFFFFFFFFFFFFFFFFFFFFFFFFFFFFFFFFFFFFFC CALLDATASIZE ADD SLT PUSH2 0x18C JUMPI PUSH1 0x4 CALLDATALOAD SWAP1 PUSH2 0x1CD PUSH2 0x2CD0 JUMP JUMPDEST PUSH2 0x1D6 DUP3 PUSH2 0x2899 JUMP JUMPDEST POP SWAP2 PUSH1 0x5 DUP4 ADD SLOAD ISZERO PUSH2 0x380 JUMPI POP DUP2 SLOAD PUSH1 0xFF DUP2 DUP2 AND ISZERO AND PUSH32 0xFFFFFFFFFFFFFFFFFFFFFFFFFFFFFFFFFFFFFFFFFFFFFFFFFFFFFFFFFFFFFF00 SWAP1 SWAP2 AND OR DUP3 SSTORE DUP2 SLOAD SWAP2 PUSH1 0x1 SWAP2 PUSH1 0x6 PUSH20 0xFFFFFFFFFFFFFFFFFFFFFFFFFFFFFFFFFFFFFFFF DUP5 DUP5 ADD SLOAD AND SWAP3 ADD SWAP2 PUSH1 0x40 MLOAD SWAP5 PUSH1 0xFF DUP2 AND ISZERO ISZERO DUP7 MSTORE PUSH11 0xFFFFFFFFFFFFFFFFFFFFFF DUP2 PUSH1 0x8 SHR AND DUP4 DUP8 ADD MSTORE PUSH1 0x60 SHR PUSH1 0x40 DUP7 ADD MSTORE PUSH1 0x60 DUP6 ADD MSTORE PUSH1 0xA0 PUSH1 0x80 DUP6 ADD MSTORE PUSH1 0x0 SWAP3 DUP3 SLOAD SWAP3 PUSH2 0x27C DUP5 PUSH2 0x28D4 JUMP JUMPDEST SWAP4 DUP5 PUSH1 0xA0 DUP9 ADD MSTORE DUP3 DUP2 AND SWAP1 DUP2 PUSH1 0x0 EQ PUSH2 0x319 JUMPI POP PUSH1 0x1 EQ PUSH2 0x2C0 JUMPI JUMPDEST PUSH32 0x3A23A6FDAFDCD184715CC363B2DCEFAD97BE8B3A659D21FAA90068B3B4D5C749 DUP7 DUP7 SUB DUP8 LOG1 STOP JUMPDEST PUSH1 0x0 SWAP1 DUP2 MSTORE DUP3 DUP2 KECCAK256 SWAP1 SWAP5 POP JUMPDEST DUP4 DUP6 LT PUSH2 0x305 JUMPI POP POP POP POP DUP2 ADD PUSH1 0xC0 ADD DUP2 PUSH32 0x3A23A6FDAFDCD184715CC363B2DCEFAD97BE8B3A659D21FAA90068B3B4D5C749 DUP5 DUP1 PUSH2 0x298 JUMP JUMPDEST DUP1 SLOAD DUP7 DUP7 ADD PUSH1 0xC0 ADD MSTORE SWAP4 DUP3 ADD SWAP4 DUP2 ADD PUSH2 0x2CC JUMP JUMPDEST SWAP1 POP DUP7 SWAP6 POP PUSH1 0xC0 SWAP4 POP PUSH32 0x3A23A6FDAFDCD184715CC363B2DCEFAD97BE8B3A659D21FAA90068B3B4D5C749 SWAP7 SWAP5 SWAP3 POP PUSH32 0xFFFFFFFFFFFFFFFFFFFFFFFFFFFFFFFFFFFFFFFFFFFFFFFFFFFFFFFFFFFFFF00 SWAP2 POP AND DUP3 DUP5 ADD MSTORE ISZERO ISZERO PUSH1 0x5 SHL DUP3 ADD ADD SWAP2 SWAP3 DUP5 DUP1 PUSH2 0x298 JUMP JUMPDEST PUSH1 0x24 SWAP1 PUSH1 0x40 MLOAD SWAP1 PUSH32 0xB6D2E7500000000000000000000000000000000000000000000000000000000 DUP3 MSTORE PUSH1 0x4 DUP3 ADD MSTORE REVERT JUMPDEST CALLVALUE PUSH2 0x18C JUMPI PUSH1 0x0 PUSH32 0xFFFFFFFFFFFFFFFFFFFFFFFFFFFFFFFFFFFFFFFFFFFFFFFFFFFFFFFFFFFFFFFC CALLDATASIZE ADD SLT PUSH2 0x18C JUMPI PUSH1 0x20 PUSH1 0x1 SLOAD PUSH1 0x40 MLOAD SWAP1 DUP2 MSTORE RETURN JUMPDEST CALLVALUE PUSH2 0x18C JUMPI PUSH1 0x0 PUSH32 0xFFFFFFFFFFFFFFFFFFFFFFFFFFFFFFFFFFFFFFFFFFFFFFFFFFFFFFFFFFFFFFFC CALLDATASIZE ADD SLT PUSH2 0x18C JUMPI PUSH1 0x20 PUSH1 0x40 MLOAD PUSH20 0xFFFFFFFFFFFFFFFFFFFFFFFFFFFFFFFFFFFFFFFF PUSH32 0x0 AND DUP2 MSTORE RETURN JUMPDEST CALLVALUE PUSH2 0x18C JUMPI PUSH1 0x20 PUSH32 0xFFFFFFFFFFFFFFFFFFFFFFFFFFFFFFFFFFFFFFFFFFFFFFFFFFFFFFFFFFFFFFFC CALLDATASIZE ADD SLT PUSH2 0x18C JUMPI PUSH2 0x493 PUSH2 0x2876 JUMP JUMPDEST PUSH2 0x49B PUSH2 0x2CD0 JUMP JUMPDEST PUSH20 0xFFFFFFFFFFFFFFFFFFFFFFFFFFFFFFFFFFFFFFFF DUP1 PUSH1 0x9 SLOAD AND SWAP2 DUP2 DUP2 AND SWAP1 DUP4 DUP3 EQ PUSH2 0x542 JUMPI PUSH1 0xA DUP1 SLOAD PUSH32 0xFFFFFFFFFFFFFFFFFFFFFFFF0000000000000000000000000000000000000000 DUP2 AND DUP5 OR SWAP1 SWAP2 SSTORE PUSH1 0x40 DUP1 MLOAD PUSH20 0xFFFFFFFFFFFFFFFFFFFFFFFFFFFFFFFFFFFFFFFF SWAP3 DUP7 AND DUP4 AND DUP2 MSTORE SWAP2 DUP5 AND PUSH1 0x20 DUP4 ADD MSTORE PUSH32 0x3AF6D72823F6692D6673266DABBF4E3165600DCF901B0188C596FE7DAD74CAF3 SWAP2 SWAP1 DUP2 SWAP1 DUP2 ADD JUMPDEST SUB SWAP1 LOG1 STOP JUMPDEST PUSH1 0x40 MLOAD PUSH32 0x2496AD5A00000000000000000000000000000000000000000000000000000000 DUP2 MSTORE PUSH20 0xFFFFFFFFFFFFFFFFFFFFFFFFFFFFFFFFFFFFFFFF SWAP2 DUP3 AND PUSH1 0x4 DUP3 ADD MSTORE SWAP1 DUP5 AND PUSH1 0x24 DUP3 ADD MSTORE PUSH1 0x44 SWAP1 REVERT JUMPDEST SUB SWAP1 REVERT JUMPDEST CALLVALUE PUSH2 0x18C JUMPI PUSH1 0x20 DUP1 PUSH32 0xFFFFFFFFFFFFFFFFFFFFFFFFFFFFFFFFFFFFFFFFFFFFFFFFFFFFFFFFFFFFFFFC CALLDATASIZE ADD SLT PUSH2 0x18C JUMPI PUSH1 0x60 PUSH32 0xA2693B7F43E86AF72BF876F9BA36AE57F2CFF4DF75D6A4F2325FBA5B5BAED41E SWAP2 PUSH2 0x5F2 PUSH2 0x2876 JUMP JUMPDEST CALLER PUSH1 0x0 MSTORE PUSH1 0x5 DUP3 MSTORE PUSH20 0xFFFFFFFFFFFFFFFFFFFFFFFFFFFFFFFFFFFFFFFF PUSH1 0x40 PUSH1 0x0 KECCAK256 SWAP2 AND SWAP1 DUP2 PUSH1 0x0 MSTORE DUP3 MSTORE PUSH1 0xFF PUSH1 0x40 PUSH1 0x0 KECCAK256 SLOAD AND ISZERO SWAP1 CALLER PUSH1 0x0 MSTORE PUSH1 0x5 DUP4 MSTORE PUSH1 0x40 PUSH1 0x0 KECCAK256 DUP2 PUSH1 0x0 MSTORE DUP4 MSTORE PUSH2 0x674 DUP3 PUSH1 0x40 PUSH1 0x0 KECCAK256 SWAP1 PUSH1 0xFF PUSH32 0xFFFFFFFFFFFFFFFFFFFFFFFFFFFFFFFFFFFFFFFFFFFFFFFFFFFFFFFFFFFFFF00 DUP4 SLOAD AND SWAP2 ISZERO ISZERO AND OR SWAP1 SSTORE JUMP JUMPDEST PUSH1 0x40 MLOAD SWAP3 CALLER DUP5 MSTORE DUP4 ADD MSTORE PUSH1 0x40 DUP3 ADD MSTORE LOG1 STOP JUMPDEST CALLVALUE PUSH2 0x18C JUMPI PUSH1 0x0 PUSH32 0xFFFFFFFFFFFFFFFFFFFFFFFFFFFFFFFFFFFFFFFFFFFFFFFFFFFFFFFFFFFFFFFC CALLDATASIZE ADD SLT PUSH2 0x18C JUMPI PUSH1 0x20 PUSH1 0x40 MLOAD PUSH20 0xFFFFFFFFFFFFFFFFFFFFFFFFFFFFFFFFFFFFFFFF PUSH32 0x0 AND DUP2 MSTORE RETURN JUMPDEST CALLVALUE PUSH2 0x18C JUMPI PUSH1 0x20 PUSH32 0xFFFFFFFFFFFFFFFFFFFFFFFFFFFFFFFFFFFFFFFFFFFFFFFFFFFFFFFFFFFFFFFC CALLDATASIZE ADD SLT PUSH2 0x18C JUMPI PUSH1 0x4 CALLDATALOAD PUSH1 0x6 SLOAD DUP2 LT ISZERO PUSH2 0x18C JUMPI PUSH20 0xFFFFFFFFFFFFFFFFFFFFFFFFFFFFFFFFFFFFFFFF PUSH1 0x20 SWAP2 PUSH1 0x6 PUSH1 0x0 MSTORE PUSH32 0xF652222313E28459528D920B65115C16C04F3EFC82AAEDC97BE59F3F377C0D3F ADD SLOAD AND PUSH1 0x40 MLOAD SWAP1 DUP2 MSTORE RETURN JUMPDEST CALLVALUE PUSH2 0x18C JUMPI PUSH1 0x0 PUSH32 0xFFFFFFFFFFFFFFFFFFFFFFFFFFFFFFFFFFFFFFFFFFFFFFFFFFFFFFFFFFFFFFFC CALLDATASIZE ADD SLT PUSH2 0x18C JUMPI PUSH1 0x20 PUSH20 0xFFFFFFFFFFFFFFFFFFFFFFFFFFFFFFFFFFFFFFFF PUSH1 0xB SLOAD AND PUSH1 0x40 MLOAD SWAP1 DUP2 MSTORE RETURN JUMPDEST CALLVALUE PUSH2 0x18C JUMPI PUSH1 0x0 PUSH32 0xFFFFFFFFFFFFFFFFFFFFFFFFFFFFFFFFFFFFFFFFFFFFFFFFFFFFFFFFFFFFFFFC CALLDATASIZE ADD SLT PUSH2 0x18C JUMPI PUSH1 0x20 PUSH1 0x40 MLOAD PUSH20 0x1111111254EEB25477B68FB85ED929F73A960582 DUP2 MSTORE RETURN JUMPDEST CALLVALUE PUSH2 0x18C JUMPI PUSH1 0x40 PUSH32 0xFFFFFFFFFFFFFFFFFFFFFFFFFFFFFFFFFFFFFFFFFFFFFFFFFFFFFFFFFFFFFFFC CALLDATASIZE ADD SLT PUSH2 0x18C JUMPI PUSH20 0xFFFFFFFFFFFFFFFFFFFFFFFFFFFFFFFFFFFFFFFF DUP1 PUSH2 0x866 PUSH2 0x2876 JUMP JUMPDEST AND PUSH1 0x0 MSTORE PUSH1 0x4 PUSH1 0x20 MSTORE PUSH1 0x40 PUSH1 0x0 KECCAK256 PUSH1 0x24 CALLDATALOAD PUSH1 0x0 MSTORE PUSH1 0x20 MSTORE PUSH1 0x40 PUSH1 0x0 KECCAK256 SWAP1 PUSH2 0x910 PUSH1 0x1 DUP4 SLOAD SWAP4 ADD SLOAD PUSH1 0x40 MLOAD SWAP4 DUP5 SWAP4 DUP3 PUSH1 0xA0 SHR SWAP3 AND SWAP1 DUP1 PUSH1 0x60 SHR SWAP1 PUSH1 0xFF PUSH11 0xFFFFFFFFFFFFFFFFFFFFFF DUP3 PUSH1 0x8 SHR AND SWAP2 AND DUP7 SWAP4 SWAP3 PUSH1 0x80 SWAP4 PUSH11 0xFFFFFFFFFFFFFFFFFFFFFF PUSH12 0xFFFFFFFFFFFFFFFFFFFFFFFF SWAP5 SWAP9 SWAP8 SWAP4 SWAP9 PUSH1 0xA0 DUP9 ADD SWAP10 ISZERO ISZERO DUP9 MSTORE AND PUSH1 0x20 DUP8 ADD MSTORE PUSH20 0xFFFFFFFFFFFFFFFFFFFFFFFFFFFFFFFFFFFFFFFF DUP1 SWAP3 AND PUSH1 0x40 DUP8 ADD MSTORE AND PUSH1 0x60 DUP6 ADD MSTORE AND SWAP2 ADD MSTORE JUMP JUMPDEST SUB SWAP1 RETURN JUMPDEST CALLVALUE PUSH2 0x18C JUMPI PUSH1 0x0 PUSH32 0xFFFFFFFFFFFFFFFFFFFFFFFFFFFFFFFFFFFFFFFFFFFFFFFFFFFFFFFFFFFFFFFC CALLDATASIZE ADD SLT PUSH2 0x18C JUMPI PUSH1 0x20 PUSH20 0xFFFFFFFFFFFFFFFFFFFFFFFFFFFFFFFFFFFFFFFF PUSH1 0xA SLOAD AND PUSH1 0x40 MLOAD SWAP1 DUP2 MSTORE RETURN JUMPDEST CALLVALUE PUSH2 0x18C JUMPI PUSH1 0x0 PUSH32 0xFFFFFFFFFFFFFFFFFFFFFFFFFFFFFFFFFFFFFFFFFFFFFFFFFFFFFFFFFFFFFFFC CALLDATASIZE ADD SLT PUSH2 0x18C JUMPI PUSH2 0x99D PUSH2 0x2CD0 JUMP JUMPDEST PUSH1 0x8 SLOAD PUSH20 0xFFFFFFFFFFFFFFFFFFFFFFFFFFFFFFFFFFFFFFFF DUP1 DUP3 AND SWAP2 DUP3 ISZERO PUSH2 0xA46 JUMPI PUSH1 0x7 DUP1 SLOAD PUSH32 0xFFFFFFFFFFFFFFFFFFFFFFFF0000000000000000000000000000000000000000 DUP1 DUP3 AND DUP7 OR SWAP1 SWAP3 SSTORE SWAP2 AND PUSH1 0x8 SSTORE PUSH1 0x40 DUP1 MLOAD SWAP3 SWAP1 SWAP2 AND PUSH20 0xFFFFFFFFFFFFFFFFFFFFFFFFFFFFFFFFFFFFFFFF SWAP1 DUP2 AND DUP4 MSTORE SWAP1 SWAP3 AND PUSH1 0x20 DUP3 ADD MSTORE PUSH32 0xA6FD993B45F105F3B99176403C23F4DF5F10600B416795FF8223FF7AD9EFB4F9 SWAP2 DUP2 SWAP1 DUP2 ADD PUSH2 0x53D JUMP JUMPDEST PUSH1 0x4 PUSH1 0x40 MLOAD PUSH32 0xD88CCFDC00000000000000000000000000000000000000000000000000000000 DUP2 MSTORE REVERT JUMPDEST CALLVALUE PUSH2 0x18C JUMPI PUSH1 0x0 PUSH32 0xFFFFFFFFFFFFFFFFFFFFFFFFFFFFFFFFFFFFFFFFFFFFFFFFFFFFFFFFFFFFFFFC CALLDATASIZE ADD SLT PUSH2 0x18C JUMPI PUSH1 0x20 PUSH1 0x2 SLOAD PUSH1 0x40 MLOAD SWAP1 DUP2 MSTORE RETURN JUMPDEST CALLVALUE PUSH2 0x18C JUMPI PUSH1 0x80 PUSH32 0xFFFFFFFFFFFFFFFFFFFFFFFFFFFFFFFFFFFFFFFFFFFFFFFFFFFFFFFFFFFFFFFC CALLDATASIZE ADD SLT PUSH2 0x18C JUMPI PUSH1 0x4 CALLDATALOAD PUSH8 0xFFFFFFFFFFFFFFFF DUP2 GT PUSH2 0x18C JUMPI CALLDATASIZE PUSH1 0x23 DUP3 ADD SLT ISZERO PUSH2 0x18C JUMPI DUP1 PUSH1 0x4 ADD CALLDATALOAD PUSH2 0xB06 DUP2 PUSH2 0x2B21 JUMP JUMPDEST SWAP2 PUSH2 0xB14 PUSH1 0x40 MLOAD SWAP4 DUP5 PUSH2 0x2943 JUMP JUMPDEST DUP2 DUP4 MSTORE CALLDATASIZE PUSH1 0x24 DUP4 DUP4 ADD ADD GT PUSH2 0x18C JUMPI DUP2 PUSH1 0x0 SWAP3 PUSH1 0x24 PUSH1 0x20 SWAP4 ADD DUP4 DUP7 ADD CALLDATACOPY DUP4 ADD ADD MSTORE PUSH20 0xFFFFFFFFFFFFFFFFFFFFFFFFFFFFFFFFFFFFFFFF PUSH1 0x24 CALLDATALOAD AND PUSH1 0x24 CALLDATALOAD SUB PUSH2 0x18C JUMPI PUSH1 0x44 CALLDATALOAD PUSH20 0xFFFFFFFFFFFFFFFFFFFFFFFFFFFFFFFFFFFFFFFF DUP2 AND DUP2 SUB PUSH2 0x18C JUMPI PUSH20 0xFFFFFFFFFFFFFFFFFFFFFFFFFFFFFFFFFFFFFFFF PUSH1 0x64 CALLDATALOAD AND PUSH1 0x64 CALLDATALOAD SUB PUSH2 0x18C JUMPI PUSH1 0x0 SLOAD PUSH1 0xFF DUP2 AND ISZERO PUSH2 0x1366 JUMPI PUSH32 0xFFFFFFFFFFFFFFFFFFFFFFFFFFFFFFFFFFFFFFFFFFFFFFFFFFFFFFFFFFFFFF00 AND PUSH1 0x0 SSTORE PUSH2 0xBD0 PUSH2 0x2CD0 JUMP JUMPDEST PUSH1 0x1 SLOAD PUSH1 0x40 MLOAD SWAP3 PUSH32 0x10DF4F5200000000000000000000000000000000000000000000000000000000 DUP5 MSTORE PUSH1 0x20 DUP5 PUSH1 0x4 DUP2 PUSH20 0xFFFFFFFFFFFFFFFFFFFFFFFFFFFFFFFFFFFFFFFF DUP8 AND GAS STATICCALL SWAP4 DUP5 ISZERO PUSH2 0x1326 JUMPI PUSH1 0x0 SWAP5 PUSH2 0x1332 JUMPI JUMPDEST POP PUSH1 0x40 MLOAD SWAP1 PUSH32 0x870AD7FA00000000000000000000000000000000000000000000000000000000 DUP3 MSTORE PUSH1 0x20 DUP3 PUSH1 0x4 DUP2 PUSH20 0xFFFFFFFFFFFFFFFFFFFFFFFFFFFFFFFFFFFFFFFF PUSH1 0x24 CALLDATALOAD AND GAS STATICCALL SWAP2 DUP3 ISZERO PUSH2 0x1326 JUMPI PUSH1 0x0 SWAP3 PUSH2 0x12F2 JUMPI JUMPDEST POP PUSH1 0x40 MLOAD PUSH1 0x20 DUP2 ADD SWAP1 DUP7 DUP3 MSTORE DUP4 PUSH1 0x40 DUP3 ADD MSTORE PUSH20 0xFFFFFFFFFFFFFFFFFFFFFFFFFFFFFFFFFFFFFFFF PUSH1 0x64 CALLDATALOAD AND PUSH1 0x60 DUP3 ADD MSTORE PUSH1 0x60 DUP2 MSTORE PUSH2 0xCBD DUP2 PUSH2 0x2927 JUMP JUMPDEST MLOAD SWAP1 KECCAK256 SWAP2 PUSH2 0xCCA DUP5 PUSH2 0x2CB8 JUMP JUMPDEST PUSH2 0xCD7 PUSH1 0x40 MLOAD SWAP2 DUP3 PUSH2 0x2943 JUMP JUMPDEST DUP5 DUP2 MSTORE PUSH1 0x20 DUP2 ADD PUSH1 0x1 PUSH1 0x0 MSTORE PUSH32 0xB10E2D527612073B26EECDFD717E6A320CF44B4AFAC2B0732D9FCBE2B7FA0CF6 SWAP1 PUSH1 0x0 SWAP1 JUMPDEST DUP8 DUP3 LT PUSH2 0x12D4 JUMPI POP POP POP PUSH1 0x0 JUMPDEST DUP6 DUP2 LT PUSH2 0x1272 JUMPI POP POP PUSH1 0x0 DUP5 DUP2 MSTORE PUSH1 0x3 PUSH1 0x20 MSTORE PUSH1 0x40 SWAP1 KECCAK256 DUP1 SLOAD PUSH32 0xFFFFFFFFFFFFFFFFFFFFFFFFFFFFFFFFFFFFFFFF0000000000000000000000FF AND PUSH1 0x8 DUP7 SWAP1 SHL PUSH12 0xFFFFFFFFFFFFFFFFFFFFFF00 AND OR DUP2 SSTORE SWAP6 DUP3 MLOAD PUSH8 0xFFFFFFFFFFFFFFFF DUP2 GT PUSH2 0x1171 JUMPI PUSH2 0xD93 DUP2 PUSH2 0xD8A PUSH1 0x6 DUP12 ADD SLOAD PUSH2 0x28D4 JUMP JUMPDEST PUSH1 0x6 DUP12 ADD PUSH2 0x2D42 JUMP JUMPDEST DUP1 PUSH1 0x20 PUSH1 0x1F DUP3 GT PUSH1 0x1 EQ PUSH2 0x11AB JUMPI PUSH1 0x0 SWAP2 PUSH2 0x11A0 JUMPI JUMPDEST POP PUSH32 0xFFFFFFFFFFFFFFFFFFFFFFFFFFFFFFFFFFFFFFFFFFFFFFFFFFFFFFFFFFFFFFFF DUP3 PUSH1 0x1 SHL SWAP3 PUSH1 0x3 SHL SHR NOT AND OR PUSH1 0x6 DUP9 ADD SSTORE JUMPDEST PUSH1 0x1 DUP8 ADD DUP1 SLOAD PUSH32 0xFFFFFFFFFFFFFFFFFFFFFFFF0000000000000000000000000000000000000000 AND PUSH20 0xFFFFFFFFFFFFFFFFFFFFFFFFFFFFFFFFFFFFFFFF DUP9 AND OR SWAP1 SSTORE DUP7 SLOAD PUSH12 0xFFFFFFFFFFFFFFFFFFFFFFFF AND PUSH1 0x24 CALLDATALOAD PUSH1 0x60 SHL PUSH32 0xFFFFFFFFFFFFFFFFFFFFFFFFFFFFFFFFFFFFFFFF000000000000000000000000 AND OR DUP8 SSTORE PUSH20 0xFFFFFFFFFFFFFFFFFFFFFFFFFFFFFFFFFFFFFFFF PUSH1 0x64 CALLDATALOAD AND PUSH32 0xFFFFFFFFFFFFFFFFFFFFFFFF0000000000000000000000000000000000000000 PUSH1 0x4 DUP10 ADD SLOAD AND OR PUSH1 0x4 DUP9 ADD SSTORE PUSH1 0x3 DUP8 ADD SSTORE PUSH1 0x2 DUP7 ADD SSTORE DUP2 PUSH1 0x5 DUP7 ADD SSTORE PUSH1 0x1 PUSH32 0xFFFFFFFFFFFFFFFFFFFFFFFFFFFFFFFFFFFFFFFFFFFFFFFFFFFFFFFFFFFFFF00 DUP7 SLOAD AND OR DUP6 SSTORE PUSH1 0x1 SLOAD PUSH9 0x10000000000000000 DUP2 LT ISZERO PUSH2 0x1171 JUMPI DUP1 PUSH1 0x1 PUSH2 0xEFD SWAP3 ADD PUSH1 0x1 SSTORE PUSH2 0x2899 JUMP JUMPDEST SWAP3 SWAP1 SWAP3 PUSH2 0x1142 JUMPI DUP6 DUP4 PUSH32 0xA7E99FCDD4EBCDA1E96DD79DB97B7B405991BFF749F000898CC69D5EDE019D45 SWAP8 PUSH2 0xFA7 SWAP6 SUB PUSH2 0xFD7 JUMPI JUMPDEST POP POP PUSH2 0xF3F PUSH1 0x64 CALLDATALOAD PUSH2 0x2F3E JUMP JUMPDEST PUSH20 0xFFFFFFFFFFFFFFFFFFFFFFFFFFFFFFFFFFFFFFFF PUSH1 0x40 MLOAD SWAP6 DUP7 SWAP6 PUSH1 0x1 DUP8 MSTORE PUSH1 0x20 DUP8 ADD MSTORE DUP2 PUSH1 0x24 CALLDATALOAD AND PUSH1 0x40 DUP8 ADD MSTORE AND PUSH1 0x60 DUP6 ADD MSTORE PUSH20 0xFFFFFFFFFFFFFFFFFFFFFFFFFFFFFFFFFFFFFFFF PUSH1 0x64 CALLDATALOAD AND PUSH1 0x80 DUP6 ADD MSTORE PUSH1 0xA0 DUP5 ADD MSTORE PUSH1 0xE0 PUSH1 0xC0 DUP5 ADD MSTORE PUSH1 0xE0 DUP4 ADD SWAP1 PUSH2 0x2A6C JUMP JUMPDEST SUB SWAP1 LOG1 PUSH1 0x0 DUP1 SLOAD PUSH32 0xFFFFFFFFFFFFFFFFFFFFFFFFFFFFFFFFFFFFFFFFFFFFFFFFFFFFFFFFFFFFFF00 AND PUSH1 0x1 OR SWAP1 SSTORE STOP JUMPDEST PUSH1 0x6 DUP1 DUP4 PUSH2 0x1017 PUSH1 0xFF PUSH2 0x113B SWAP7 SLOAD AND DUP6 SWAP1 PUSH1 0xFF PUSH32 0xFFFFFFFFFFFFFFFFFFFFFFFFFFFFFFFFFFFFFFFFFFFFFFFFFFFFFFFFFFFFFF00 DUP4 SLOAD AND SWAP2 ISZERO ISZERO AND OR SWAP1 SSTORE JUMP JUMPDEST DUP1 SLOAD DUP5 SLOAD PUSH32 0xFFFFFFFFFFFFFFFFFFFFFFFFFFFFFFFFFFFFFFFF0000000000000000000000FF AND PUSH12 0xFFFFFFFFFFFFFFFFFFFFFF00 SWAP1 SWAP2 AND OR DUP5 SSTORE DUP1 SLOAD DUP5 SLOAD PUSH12 0xFFFFFFFFFFFFFFFFFFFFFFFF AND PUSH32 0xFFFFFFFFFFFFFFFFFFFFFFFFFFFFFFFFFFFFFFFF000000000000000000000000 SWAP1 SWAP2 AND OR DUP5 SSTORE PUSH1 0x1 DUP5 ADD PUSH20 0xFFFFFFFFFFFFFFFFFFFFFFFFFFFFFFFFFFFFFFFF PUSH1 0x1 DUP4 ADD SLOAD AND PUSH32 0xFFFFFFFFFFFFFFFFFFFFFFFF0000000000000000000000000000000000000000 DUP3 SLOAD AND OR SWAP1 SSTORE PUSH1 0x2 DUP2 ADD SLOAD PUSH1 0x2 DUP6 ADD SSTORE PUSH1 0x3 DUP2 ADD SLOAD PUSH1 0x3 DUP6 ADD SSTORE PUSH1 0x4 DUP5 ADD PUSH20 0xFFFFFFFFFFFFFFFFFFFFFFFFFFFFFFFFFFFFFFFF PUSH1 0x4 DUP4 ADD SLOAD AND PUSH32 0xFFFFFFFFFFFFFFFFFFFFFFFF0000000000000000000000000000000000000000 DUP3 SLOAD AND OR SWAP1 SSTORE PUSH1 0x5 DUP2 ADD SLOAD PUSH1 0x5 DUP6 ADD SSTORE ADD SWAP2 ADD PUSH2 0x2D96 JUMP JUMPDEST DUP7 DUP1 PUSH2 0xF32 JUMP JUMPDEST PUSH32 0x4E487B7100000000000000000000000000000000000000000000000000000000 PUSH1 0x0 MSTORE PUSH1 0x0 PUSH1 0x4 MSTORE PUSH1 0x24 PUSH1 0x0 REVERT JUMPDEST PUSH32 0x4E487B7100000000000000000000000000000000000000000000000000000000 PUSH1 0x0 MSTORE PUSH1 0x41 PUSH1 0x4 MSTORE PUSH1 0x24 PUSH1 0x0 REVERT JUMPDEST SWAP1 POP DUP5 ADD MLOAD DUP10 PUSH2 0xDA9 JUMP JUMPDEST SWAP2 POP PUSH1 0x6 DUP10 ADD PUSH1 0x0 MSTORE PUSH1 0x20 PUSH1 0x0 KECCAK256 PUSH1 0x0 SWAP3 JUMPDEST PUSH32 0xFFFFFFFFFFFFFFFFFFFFFFFFFFFFFFFFFFFFFFFFFFFFFFFFFFFFFFFFFFFFFFE0 DUP4 AND DUP5 LT PUSH2 0x125A JUMPI PUSH1 0x1 SWAP4 POP DUP3 PUSH32 0xFFFFFFFFFFFFFFFFFFFFFFFFFFFFFFFFFFFFFFFFFFFFFFFFFFFFFFFFFFFFFFE0 DUP2 AND LT PUSH2 0x1223 JUMPI JUMPDEST POP POP DUP2 SHL ADD PUSH1 0x6 DUP9 ADD SSTORE PUSH2 0xDDD JUMP JUMPDEST DUP7 ADD MLOAD PUSH32 0xFFFFFFFFFFFFFFFFFFFFFFFFFFFFFFFFFFFFFFFFFFFFFFFFFFFFFFFFFFFFFFFF PUSH1 0xF8 DUP5 PUSH1 0x3 SHL AND SHR NOT AND SWAP1 SSTORE DUP10 DUP1 PUSH2 0x1214 JUMP JUMPDEST DUP7 DUP2 ADD MLOAD DUP3 SSTORE PUSH1 0x20 SWAP4 DUP5 ADD SWAP4 PUSH1 0x1 SWAP1 SWAP3 ADD SWAP2 ADD PUSH2 0x11BD JUMP JUMPDEST PUSH1 0xE0 PUSH2 0x127E DUP3 DUP5 PUSH2 0x2F2A JUMP JUMPDEST MLOAD ADD MLOAD DUP6 EQ PUSH2 0x1295 JUMPI PUSH2 0x1290 SWAP1 PUSH2 0x2ECE JUMP JUMPDEST PUSH2 0xD16 JUMP JUMPDEST PUSH2 0x12A2 SWAP1 PUSH2 0x592 SWAP3 PUSH2 0x2F2A JUMP JUMPDEST MLOAD PUSH1 0x40 MLOAD SWAP2 DUP3 SWAP2 PUSH31 0xE9217C00000000000000000000000000000000000000000000000000000000 DUP4 MSTORE PUSH1 0x4 DUP4 ADD PUSH2 0x2C01 JUMP JUMPDEST PUSH1 0x7 PUSH1 0x20 PUSH1 0x1 SWAP3 PUSH2 0x12E4 DUP7 PUSH2 0x2B5B JUMP JUMPDEST DUP2 MSTORE ADD SWAP4 ADD SWAP2 ADD SWAP1 SWAP2 PUSH2 0xD09 JUMP JUMPDEST SWAP1 SWAP2 POP PUSH1 0x20 DUP2 RETURNDATASIZE PUSH1 0x20 GT PUSH2 0x131E JUMPI JUMPDEST DUP2 PUSH2 0x130E PUSH1 0x20 SWAP4 DUP4 PUSH2 0x2943 JUMP JUMPDEST DUP2 ADD SUB SLT PUSH2 0x18C JUMPI MLOAD SWAP1 DUP6 PUSH2 0xC80 JUMP JUMPDEST RETURNDATASIZE SWAP2 POP PUSH2 0x1301 JUMP JUMPDEST PUSH1 0x40 MLOAD RETURNDATASIZE PUSH1 0x0 DUP3 RETURNDATACOPY RETURNDATASIZE SWAP1 REVERT JUMPDEST SWAP1 SWAP4 POP PUSH1 0x20 DUP2 RETURNDATASIZE PUSH1 0x20 GT PUSH2 0x135E JUMPI JUMPDEST DUP2 PUSH2 0x134E PUSH1 0x20 SWAP4 DUP4 PUSH2 0x2943 JUMP JUMPDEST DUP2 ADD SUB SLT PUSH2 0x18C JUMPI MLOAD SWAP3 DUP5 PUSH2 0xC28 JUMP JUMPDEST RETURNDATASIZE SWAP2 POP PUSH2 0x1341 JUMP JUMPDEST PUSH1 0x4 PUSH1 0x40 MLOAD PUSH32 0x37ED32E800000000000000000000000000000000000000000000000000000000 DUP2 MSTORE REVERT JUMPDEST CALLVALUE PUSH2 0x18C JUMPI PUSH1 0x0 PUSH32 0xFFFFFFFFFFFFFFFFFFFFFFFFFFFFFFFFFFFFFFFFFFFFFFFFFFFFFFFFFFFFFFFC CALLDATASIZE ADD SLT PUSH2 0x18C JUMPI PUSH1 0x20 PUSH20 0xFFFFFFFFFFFFFFFFFFFFFFFFFFFFFFFFFFFFFFFF PUSH1 0x9 SLOAD AND PUSH1 0x40 MLOAD SWAP1 DUP2 MSTORE RETURN JUMPDEST CALLVALUE PUSH2 0x18C JUMPI PUSH1 0x20 PUSH32 0xFFFFFFFFFFFFFFFFFFFFFFFFFFFFFFFFFFFFFFFFFFFFFFFFFFFFFFFFFFFFFFFC CALLDATASIZE ADD SLT PUSH2 0x18C JUMPI PUSH1 0x4 CALLDATALOAD PUSH1 0x0 MSTORE PUSH1 0x3 PUSH1 0x20 MSTORE PUSH1 0x40 PUSH1 0x0 KECCAK256 DUP1 SLOAD PUSH2 0x910 PUSH20 0xFFFFFFFFFFFFFFFFFFFFFFFFFFFFFFFFFFFFFFFF DUP1 PUSH1 0x1 DUP6 ADD SLOAD AND SWAP4 PUSH1 0x2 DUP2 ADD SLOAD SWAP2 PUSH1 0x3 DUP3 ADD SLOAD SWAP1 PUSH1 0x4 DUP4 ADD SLOAD AND SWAP1 PUSH2 0x1467 PUSH1 0x6 PUSH1 0x5 DUP6 ADD SLOAD SWAP5 ADD PUSH2 0x2984 JUMP JUMPDEST SWAP4 PUSH1 0x40 MLOAD SWAP8 DUP8 DUP10 SWAP9 PUSH1 0x60 SHR SWAP1 PUSH1 0xFF PUSH11 0xFFFFFFFFFFFFFFFFFFFFFF DUP3 PUSH1 0x8 SHR AND SWAP2 AND DUP11 PUSH2 0x2AAF JUMP JUMPDEST CALLVALUE PUSH2 0x18C JUMPI PUSH1 0x20 PUSH32 0xFFFFFFFFFFFFFFFFFFFFFFFFFFFFFFFFFFFFFFFFFFFFFFFFFFFFFFFFFFFFFFFC CALLDATASIZE ADD SLT PUSH2 0x18C JUMPI PUSH2 0x14C5 PUSH2 0x2876 JUMP JUMPDEST PUSH2 0x14CD PUSH2 0x2CD0 JUMP JUMPDEST PUSH20 0xFFFFFFFFFFFFFFFFFFFFFFFFFFFFFFFFFFFFFFFF DUP1 PUSH1 0x7 SLOAD AND DUP2 DUP4 AND SWAP1 DUP1 DUP3 EQ PUSH2 0x1577 JUMPI POP PUSH2 0x53D PUSH32 0x2DF3EDF32BD243B7FB5E2D31673B2C1E842EFF07D227E05D34B5135021A16838 SWAP4 PUSH1 0x8 SLOAD SWAP3 PUSH32 0xFFFFFFFFFFFFFFFFFFFFFFFF0000000000000000000000000000000000000000 DUP5 AND OR PUSH1 0x8 SSTORE PUSH1 0x40 MLOAD SWAP4 DUP5 SWAP4 AND DUP4 SWAP1 PUSH1 0x20 SWAP1 SWAP4 SWAP3 SWAP4 PUSH1 0x40 DUP4 ADD SWAP5 PUSH20 0xFFFFFFFFFFFFFFFFFFFFFFFFFFFFFFFFFFFFFFFF DUP1 SWAP3 AND DUP5 MSTORE AND SWAP2 ADD MSTORE JUMP JUMPDEST PUSH1 0x40 MLOAD PUSH32 0x681DD83C00000000000000000000000000000000000000000000000000000000 DUP2 MSTORE PUSH20 0xFFFFFFFFFFFFFFFFFFFFFFFFFFFFFFFFFFFFFFFF DUP6 DUP2 AND PUSH1 0x4 DUP4 ADD MSTORE SWAP2 SWAP1 SWAP2 AND PUSH1 0x24 DUP3 ADD MSTORE PUSH1 0x44 SWAP1 REVERT JUMPDEST CALLVALUE PUSH2 0x18C JUMPI PUSH1 0x40 PUSH32 0xFFFFFFFFFFFFFFFFFFFFFFFFFFFFFFFFFFFFFFFFFFFFFFFFFFFFFFFFFFFFFFFC CALLDATASIZE ADD SLT PUSH2 0x18C JUMPI PUSH2 0x15FF PUSH2 0x2876 JUMP JUMPDEST PUSH1 0x0 SLOAD PUSH1 0xFF DUP2 AND ISZERO PUSH2 0x1366 JUMPI PUSH32 0xFFFFFFFFFFFFFFFFFFFFFFFFFFFFFFFFFFFFFFFFFFFFFFFFFFFFFFFFFFFFFF00 AND PUSH1 0x0 SSTORE PUSH2 0x1638 PUSH2 0x2CD0 JUMP JUMPDEST PUSH1 0x24 CALLDATALOAD PUSH1 0x0 MSTORE PUSH1 0x3 PUSH1 0x20 MSTORE PUSH2 0x1650 PUSH1 0x40 PUSH1 0x0 KECCAK256 PUSH2 0x2B5B JUMP JUMPDEST DUP1 MLOAD ISZERO PUSH2 0x22CA JUMPI PUSH11 0xFFFFFFFFFFFFFFFFFFFFFF PUSH1 0x20 DUP3 ADD MLOAD AND SWAP2 PUSH20 0xFFFFFFFFFFFFFFFFFFFFFFFFFFFFFFFFFFFFFFFF DUP2 AND PUSH1 0x0 MSTORE PUSH1 0x4 PUSH1 0x20 MSTORE PUSH1 0x40 PUSH1 0x0 KECCAK256 DUP4 PUSH1 0x0 MSTORE PUSH1 0x20 MSTORE PUSH1 0x1 PUSH1 0xFF PUSH1 0x40 PUSH1 0x0 KECCAK256 SLOAD AND ISZERO ISZERO EQ PUSH2 0x227D JUMPI PUSH11 0xFFFFFFFFFFFFFFFFFFFFFF PUSH1 0x2 SLOAD AND SWAP3 PUSH1 0x40 MLOAD SWAP1 DUP2 PUSH1 0xA0 DUP2 ADD LT PUSH8 0xFFFFFFFFFFFFFFFF PUSH1 0xA0 DUP5 ADD GT OR PUSH2 0x1171 JUMPI PUSH2 0x19E9 SWAP5 PUSH1 0xA0 DUP4 ADD PUSH1 0x40 MSTORE PUSH1 0x0 DUP4 MSTORE PUSH1 0x20 DUP4 ADD MSTORE PUSH1 0x0 PUSH1 0x40 DUP4 ADD MSTORE PUSH1 0x0 PUSH1 0x60 DUP4 ADD MSTORE DUP1 PUSH1 0x80 DUP4 ADD MSTORE PUSH20 0xFFFFFFFFFFFFFFFFFFFFFFFFFFFFFFFFFFFFFFFF DUP4 AND PUSH1 0x0 MSTORE PUSH1 0x4 PUSH1 0x20 MSTORE PUSH1 0x40 PUSH1 0x0 KECCAK256 SWAP1 PUSH1 0x0 MSTORE PUSH1 0x20 MSTORE PUSH2 0x184A PUSH12 0xFFFFFFFFFFFFFFFFFFFFFFFF PUSH1 0x80 PUSH1 0x40 PUSH1 0x0 KECCAK256 SWAP4 PUSH2 0x1778 DUP2 MLOAD ISZERO ISZERO DUP7 SWAP1 PUSH1 0xFF PUSH32 0xFFFFFFFFFFFFFFFFFFFFFFFFFFFFFFFFFFFFFFFFFFFFFFFFFFFFFFFFFFFFFF00 DUP4 SLOAD AND SWAP2 ISZERO ISZERO AND OR SWAP1 SSTORE JUMP JUMPDEST PUSH1 0x20 DUP2 ADD MLOAD DUP6 SLOAD PUSH32 0xFFFFFFFFFFFFFFFFFFFFFFFFFFFFFFFFFFFFFFFF0000000000000000000000FF AND PUSH1 0x8 SWAP2 SWAP1 SWAP2 SHL PUSH12 0xFFFFFFFFFFFFFFFFFFFFFF00 AND OR DUP6 SSTORE PUSH1 0x40 DUP2 ADD MLOAD DUP6 SLOAD PUSH12 0xFFFFFFFFFFFFFFFFFFFFFFFF AND PUSH1 0x60 SWAP2 SWAP1 SWAP2 SHL PUSH32 0xFFFFFFFFFFFFFFFFFFFFFFFFFFFFFFFFFFFFFFFF000000000000000000000000 AND OR DUP6 SSTORE PUSH1 0x60 DUP2 ADD MLOAD SWAP2 ADD MLOAD SWAP2 SWAP1 SWAP2 AND PUSH1 0xA0 SHL PUSH32 0xFFFFFFFFFFFFFFFFFFFFFFFF0000000000000000000000000000000000000000 AND PUSH20 0xFFFFFFFFFFFFFFFFFFFFFFFFFFFFFFFFFFFFFFFF SWAP2 SWAP1 SWAP2 AND OR PUSH1 0x1 DUP4 ADD SSTORE JUMP JUMPDEST PUSH1 0x60 DUP4 DUP2 ADD MLOAD PUSH1 0xA0 DUP6 ADD MLOAD PUSH1 0x40 DUP1 MLOAD PUSH20 0xFFFFFFFFFFFFFFFFFFFFFFFFFFFFFFFFFFFFFFFF DUP8 DUP2 AND PUSH1 0x20 DUP4 ADD SWAP1 DUP2 MSTORE ADDRESS DUP4 DUP6 ADD MSTORE SWAP3 DUP3 MSTORE SWAP5 PUSH2 0x188B SWAP1 DUP3 PUSH2 0x2943 JUMP JUMPDEST MLOAD SWAP1 KECCAK256 SWAP1 PUSH1 0x40 MLOAD SWAP2 PUSH32 0xFFFFFFFFFFFFFFFFFFFFFFFFFFFFFFFFFFFFFFFF000000000000000000000000 PUSH1 0x20 DUP5 ADD SWAP5 PUSH32 0xFF00000000000000000000000000000000000000000000000000000000000000 DUP7 MSTORE PUSH1 0x60 SHL AND PUSH1 0x21 DUP5 ADD MSTORE PUSH1 0x35 DUP4 ADD MSTORE PUSH1 0x55 DUP3 ADD MSTORE PUSH1 0x55 DUP2 MSTORE PUSH2 0x18FC DUP2 PUSH2 0x2927 JUMP JUMPDEST MLOAD SWAP1 KECCAK256 AND SWAP3 PUSH1 0x20 PUSH20 0xFFFFFFFFFFFFFFFFFFFFFFFFFFFFFFFFFFFFFFFF PUSH1 0x40 DUP4 ADD MLOAD AND PUSH20 0xFFFFFFFFFFFFFFFFFFFFFFFFFFFFFFFFFFFFFFFF PUSH1 0xC0 DUP5 ADD MLOAD AND SWAP1 PUSH11 0xFFFFFFFFFFFFFFFFFFFFFF PUSH1 0x0 DUP7 SLOAD PUSH1 0x40 MLOAD SWAP11 DUP12 SWAP6 DUP7 SWAP5 DUP6 SWAP4 PUSH32 0x9BA991F800000000000000000000000000000000000000000000000000000000 DUP6 MSTORE PUSH1 0x8 SHR AND SWAP1 DUP13 PUSH32 0x0 PUSH1 0x4 DUP7 ADD SWAP3 SWAP4 PUSH1 0x60 SWAP3 PUSH11 0xFFFFFFFFFFFFFFFFFFFFFF SWAP3 SWAP7 SWAP6 PUSH1 0x80 DUP7 ADD SWAP8 PUSH20 0xFFFFFFFFFFFFFFFFFFFFFFFFFFFFFFFFFFFFFFFF SWAP3 DUP4 DUP1 SWAP3 AND DUP9 MSTORE AND PUSH1 0x20 DUP8 ADD MSTORE AND PUSH1 0x40 DUP6 ADD MSTORE AND SWAP2 ADD MSTORE JUMP JUMPDEST SUB SWAP3 GAS CALL SWAP4 DUP5 ISZERO PUSH2 0x1326 JUMPI PUSH1 0x0 SWAP5 PUSH2 0x2240 JUMPI JUMPDEST PUSH1 0x60 DUP3 ADD MLOAD PUSH1 0xC0 DUP4 ADD MLOAD DUP5 SLOAD PUSH1 0x40 MLOAD PUSH32 0x1B2B71E400000000000000000000000000000000000000000000000000000000 DUP2 MSTORE PUSH20 0xFFFFFFFFFFFFFFFFFFFFFFFFFFFFFFFFFFFFFFFF DUP9 DUP2 AND PUSH1 0x4 DUP4 ADD MSTORE DUP10 DUP2 AND PUSH1 0x24 DUP4 ADD MSTORE SWAP3 DUP4 AND PUSH1 0x44 DUP3 ADD MSTORE PUSH1 0x8 SWAP2 SWAP1 SWAP2 SHR PUSH11 0xFFFFFFFFFFFFFFFFFFFFFF AND PUSH1 0x64 DUP3 ADD MSTORE SWAP8 POP PUSH1 0x20 SWAP2 DUP9 SWAP2 AND DUP2 PUSH1 0x0 DUP2 PUSH1 0x84 DUP2 ADD JUMPDEST SUB SWAP3 GAS CALL SWAP6 DUP7 ISZERO PUSH2 0x1326 JUMPI PUSH1 0x0 SWAP7 PUSH2 0x2204 JUMPI JUMPDEST POP DUP1 PUSH20 0xFFFFFFFFFFFFFFFFFFFFFFFFFFFFFFFFFFFFFFFF DUP8 AND SUB PUSH2 0x21B4 JUMPI POP PUSH1 0x0 PUSH20 0xFFFFFFFFFFFFFFFFFFFFFFFFFFFFFFFFFFFFFFFF PUSH1 0xC0 PUSH1 0x24 SWAP4 ADD MLOAD AND PUSH1 0x40 MLOAD SWAP3 DUP4 DUP1 SWAP3 PUSH32 0xF0AC40C400000000000000000000000000000000000000000000000000000000 DUP3 MSTORE PUSH20 0xFFFFFFFFFFFFFFFFFFFFFFFFFFFFFFFFFFFFFFFF DUP9 AND PUSH1 0x4 DUP4 ADD MSTORE GAS STATICCALL SWAP1 DUP2 ISZERO PUSH2 0x1326 JUMPI PUSH1 0x0 SWAP2 PUSH2 0x1EC1 JUMPI JUMPDEST POP MLOAD ISZERO PUSH2 0x1E7A JUMPI DUP1 SLOAD PUSH12 0xFFFFFFFFFFFFFFFFFFFFFF00 AND PUSH1 0x60 DUP5 SWAP1 SHL PUSH32 0xFFFFFFFFFFFFFFFFFFFFFFFFFFFFFFFFFFFFFFFF000000000000000000000000 AND OR PUSH1 0x1 OR DUP2 SSTORE PUSH1 0x1 DUP2 ADD DUP1 SLOAD PUSH32 0xFFFFFFFFFFFFFFFFFFFFFFFF0000000000000000000000000000000000000000 AND PUSH20 0xFFFFFFFFFFFFFFFFFFFFFFFFFFFFFFFFFFFFFFFF DUP7 AND OR SWAP1 SSTORE PUSH1 0x2 SLOAD PUSH9 0x10000000000000000 DUP2 LT ISZERO PUSH2 0x1171 JUMPI PUSH1 0x1 DUP2 ADD DUP1 PUSH1 0x2 SSTORE DUP2 LT ISZERO PUSH2 0x1E4B JUMPI PUSH1 0x2 PUSH1 0x0 MSTORE PUSH1 0x1 SHL DUP1 PUSH32 0x405787FA12A823E0F2B7631CC41B3BA8828B3321CA811111FA75CD3AA3BB5ACE ADD DUP3 DUP2 SUB PUSH2 0x1CDF JUMPI JUMPDEST POP POP PUSH20 0xFFFFFFFFFFFFFFFFFFFFFFFFFFFFFFFFFFFFFFFF PUSH1 0x1 DUP3 SLOAD SWAP3 ADD SLOAD AND PUSH1 0x40 MLOAD SWAP2 PUSH11 0xFFFFFFFFFFFFFFFFFFFFFF DUP2 PUSH1 0x8 SHR AND DUP4 MSTORE PUSH1 0x60 SHR PUSH1 0x20 DUP4 ADD MSTORE PUSH1 0x40 DUP3 ADD MSTORE PUSH32 0x87CC75E536AC0074A48C024A0A07DC0B5A1025F2AD992F76125DF37ADD2C068F PUSH1 0x60 PUSH20 0xFFFFFFFFFFFFFFFFFFFFFFFFFFFFFFFFFFFFFFFF PUSH1 0x24 CALLDATALOAD SWAP5 AND SWAP3 LOG3 PUSH1 0x0 DUP1 SLOAD PUSH32 0xFFFFFFFFFFFFFFFFFFFFFFFFFFFFFFFFFFFFFFFFFFFFFFFFFFFFFFFFFFFFFF00 AND PUSH1 0x1 OR SWAP1 SSTORE PUSH1 0x40 DUP1 MLOAD PUSH20 0xFFFFFFFFFFFFFFFFFFFFFFFFFFFFFFFFFFFFFFFF SWAP3 DUP4 AND DUP2 MSTORE SWAP3 SWAP1 SWAP2 AND PUSH1 0x20 DUP4 ADD MSTORE SWAP1 RETURN JUMPDEST PUSH2 0x1E44 SWAP2 PUSH2 0x1DB5 PUSH32 0x405787FA12A823E0F2B7631CC41B3BA8828B3321CA811111FA75CD3AA3BB5ACF SWAP3 PUSH2 0x1D41 PUSH1 0xFF DUP8 SLOAD AND DUP3 SWAP1 PUSH1 0xFF PUSH32 0xFFFFFFFFFFFFFFFFFFFFFFFFFFFFFFFFFFFFFFFFFFFFFFFFFFFFFFFFFFFFFF00 DUP4 SLOAD AND SWAP2 ISZERO ISZERO AND OR SWAP1 SSTORE JUMP JUMPDEST DUP6 SLOAD DUP2 SLOAD PUSH32 0xFFFFFFFFFFFFFFFFFFFFFFFFFFFFFFFFFFFFFFFF0000000000000000000000FF AND PUSH12 0xFFFFFFFFFFFFFFFFFFFFFF00 SWAP1 SWAP2 AND OR DUP2 SSTORE DUP6 SLOAD DUP2 SLOAD PUSH12 0xFFFFFFFFFFFFFFFFFFFFFFFF AND PUSH32 0xFFFFFFFFFFFFFFFFFFFFFFFFFFFFFFFFFFFFFFFF000000000000000000000000 SWAP1 SWAP2 AND OR SWAP1 SSTORE JUMP JUMPDEST ADD PUSH20 0xFFFFFFFFFFFFFFFFFFFFFFFFFFFFFFFFFFFFFFFF PUSH1 0x1 DUP5 ADD SLOAD AND PUSH32 0xFFFFFFFFFFFFFFFFFFFFFFFF0000000000000000000000000000000000000000 DUP3 SLOAD AND OR DUP2 SSTORE PUSH1 0x1 DUP4 ADD SLOAD PUSH1 0xA0 SHR PUSH20 0xFFFFFFFFFFFFFFFFFFFFFFFFFFFFFFFFFFFFFFFF PUSH32 0xFFFFFFFFFFFFFFFFFFFFFFFF0000000000000000000000000000000000000000 DUP4 SLOAD SWAP3 PUSH1 0xA0 SHL AND SWAP2 AND OR SWAP1 SSTORE JUMP JUMPDEST DUP5 DUP1 PUSH2 0x1C08 JUMP JUMPDEST PUSH32 0x4E487B7100000000000000000000000000000000000000000000000000000000 PUSH1 0x0 MSTORE PUSH1 0x32 PUSH1 0x4 MSTORE PUSH1 0x24 PUSH1 0x0 REVERT JUMPDEST PUSH1 0x24 DUP3 PUSH20 0xFFFFFFFFFFFFFFFFFFFFFFFFFFFFFFFFFFFFFFFF PUSH1 0x40 MLOAD SWAP2 PUSH32 0x32556ECC00000000000000000000000000000000000000000000000000000000 DUP4 MSTORE AND PUSH1 0x4 DUP3 ADD MSTORE REVERT JUMPDEST RETURNDATASIZE SWAP2 POP DUP2 PUSH1 0x0 DUP3 RETURNDATACOPY PUSH2 0x1ED3 DUP3 DUP3 PUSH2 0x2943 JUMP JUMPDEST PUSH1 0x20 DUP2 DUP4 DUP2 ADD SUB SLT PUSH2 0x18C JUMPI DUP1 MLOAD SWAP1 PUSH8 0xFFFFFFFFFFFFFFFF DUP3 GT PUSH2 0x18C JUMPI PUSH1 0xE0 DUP3 DUP3 ADD DUP5 DUP4 ADD SUB SLT PUSH2 0x18C JUMPI PUSH1 0x40 MLOAD SWAP3 DUP4 PUSH1 0xE0 DUP2 ADD LT PUSH8 0xFFFFFFFFFFFFFFFF PUSH1 0xE0 DUP7 ADD GT OR PUSH2 0x1171 JUMPI PUSH1 0xE0 DUP5 ADD PUSH1 0x40 MSTORE DUP3 DUP3 ADD MLOAD DUP1 ISZERO ISZERO DUP2 SUB PUSH2 0x18C JUMPI DUP5 MSTORE PUSH1 0x20 DUP4 DUP4 ADD ADD MLOAD PUSH11 0xFFFFFFFFFFFFFFFFFFFFFF DUP2 AND DUP2 SUB PUSH2 0x18C JUMPI PUSH1 0x20 DUP6 ADD MSTORE PUSH1 0x40 DUP4 DUP4 ADD ADD MLOAD PUSH8 0xFFFFFFFFFFFFFFFF DUP2 GT PUSH2 0x18C JUMPI DUP2 DUP4 ADD PUSH1 0x1F DUP3 DUP7 DUP7 ADD ADD ADD SLT ISZERO PUSH2 0x18C JUMPI DUP1 DUP5 DUP5 ADD ADD MLOAD SWAP1 PUSH2 0x1F89 DUP3 PUSH2 0x2B21 JUMP JUMPDEST SWAP2 PUSH2 0x1F97 PUSH1 0x40 MLOAD SWAP4 DUP5 PUSH2 0x2943 JUMP JUMPDEST DUP1 DUP4 MSTORE DUP4 DUP6 ADD PUSH1 0x20 DUP3 DUP5 DUP10 DUP10 ADD ADD ADD ADD GT PUSH2 0x18C JUMPI PUSH2 0x1FC0 SWAP2 PUSH1 0x20 DUP1 DUP6 ADD SWAP2 DUP9 DUP9 ADD ADD ADD PUSH2 0x2A49 JUMP JUMPDEST PUSH1 0x40 DUP6 ADD MSTORE PUSH2 0x1FD3 PUSH1 0x60 DUP5 DUP5 ADD ADD PUSH2 0x2C97 JUMP JUMPDEST PUSH1 0x60 DUP6 ADD MSTORE PUSH1 0x80 DUP4 DUP4 ADD ADD MLOAD PUSH8 0xFFFFFFFFFFFFFFFF DUP2 GT PUSH2 0x18C JUMPI DUP2 DUP4 ADD PUSH1 0x1F DUP3 DUP7 DUP7 ADD ADD ADD SLT ISZERO PUSH2 0x18C JUMPI DUP1 DUP5 DUP5 ADD ADD MLOAD PUSH2 0x200E DUP2 PUSH2 0x2CB8 JUMP JUMPDEST SWAP2 PUSH2 0x201C PUSH1 0x40 MLOAD SWAP4 DUP5 PUSH2 0x2943 JUMP JUMPDEST DUP2 DUP4 MSTORE PUSH1 0x20 DUP1 DUP5 ADD SWAP3 PUSH1 0x5 SHL DUP3 DUP9 DUP9 ADD ADD ADD ADD SWAP1 DUP5 DUP7 ADD DUP3 GT PUSH2 0x18C JUMPI DUP6 DUP8 ADD ADD PUSH1 0x20 ADD SWAP2 JUMPDEST DUP2 DUP4 LT PUSH2 0x2187 JUMPI POP POP POP PUSH1 0x80 DUP6 ADD MSTORE PUSH1 0xA0 DUP4 DUP4 ADD ADD MLOAD PUSH8 0xFFFFFFFFFFFFFFFF DUP2 GT PUSH2 0x18C JUMPI DUP2 DUP4 ADD PUSH1 0x1F DUP3 DUP7 DUP7 ADD ADD ADD SLT ISZERO PUSH2 0x18C JUMPI DUP1 DUP5 DUP5 ADD ADD MLOAD SWAP1 PUSH2 0x2088 DUP3 PUSH2 0x2CB8 JUMP JUMPDEST SWAP2 PUSH2 0x2096 PUSH1 0x40 MLOAD SWAP4 DUP5 PUSH2 0x2943 JUMP JUMPDEST DUP1 DUP4 MSTORE PUSH1 0x20 DUP1 DUP5 ADD SWAP2 PUSH1 0x5 SHL DUP4 DUP9 DUP9 ADD ADD ADD ADD SWAP2 DUP5 DUP7 ADD DUP4 GT PUSH2 0x18C JUMPI DUP6 DUP8 ADD ADD PUSH1 0x20 ADD SWAP1 JUMPDEST DUP3 DUP3 LT PUSH2 0x2177 JUMPI POP POP POP PUSH1 0xA0 DUP6 ADD MSTORE PUSH1 0xC0 DUP4 DUP4 ADD ADD MLOAD SWAP2 PUSH8 0xFFFFFFFFFFFFFFFF DUP4 GT PUSH2 0x18C JUMPI DUP2 DUP2 ADD PUSH1 0x1F DUP5 DUP7 DUP5 ADD ADD ADD SLT ISZERO PUSH2 0x18C JUMPI DUP3 DUP5 DUP3 ADD ADD MLOAD SWAP3 PUSH2 0x2103 DUP5 PUSH2 0x2CB8 JUMP JUMPDEST SWAP5 PUSH2 0x2111 PUSH1 0x40 MLOAD SWAP7 DUP8 PUSH2 0x2943 JUMP JUMPDEST DUP5 DUP7 MSTORE PUSH1 0x20 DUP1 DUP8 ADD SWAP6 PUSH1 0x5 SHL DUP4 DUP4 DUP7 ADD ADD ADD ADD SWAP4 DUP4 ADD DUP5 GT PUSH2 0x18C JUMPI PUSH1 0x20 SWAP3 ADD ADD ADD SWAP2 JUMPDEST DUP2 DUP4 LT PUSH2 0x214A JUMPI POP POP POP PUSH1 0xC0 DUP3 ADD MSTORE DUP6 PUSH2 0x1B2C JUMP JUMPDEST DUP3 MLOAD PUSH20 0xFFFFFFFFFFFFFFFFFFFFFFFFFFFFFFFFFFFFFFFF DUP2 AND DUP2 SUB PUSH2 0x18C JUMPI DUP2 MSTORE PUSH1 0x20 SWAP3 DUP4 ADD SWAP3 ADD PUSH2 0x2135 JUMP JUMPDEST DUP2 MLOAD DUP2 MSTORE PUSH1 0x20 SWAP2 DUP3 ADD SWAP2 ADD PUSH2 0x20BC JUMP JUMPDEST DUP3 MLOAD PUSH20 0xFFFFFFFFFFFFFFFFFFFFFFFFFFFFFFFFFFFFFFFF DUP2 AND DUP2 SUB PUSH2 0x18C JUMPI DUP2 MSTORE PUSH1 0x20 SWAP3 DUP4 ADD SWAP3 ADD PUSH2 0x2042 JUMP JUMPDEST PUSH1 0x40 MLOAD PUSH32 0x7BB3880700000000000000000000000000000000000000000000000000000000 DUP2 MSTORE PUSH20 0xFFFFFFFFFFFFFFFFFFFFFFFFFFFFFFFFFFFFFFFF SWAP2 DUP3 AND PUSH1 0x4 DUP3 ADD MSTORE SWAP1 DUP7 AND PUSH1 0x24 DUP3 ADD MSTORE PUSH1 0x44 SWAP1 REVERT JUMPDEST SWAP1 SWAP6 POP PUSH1 0x20 DUP2 RETURNDATASIZE PUSH1 0x20 GT PUSH2 0x2238 JUMPI JUMPDEST DUP2 PUSH2 0x2220 PUSH1 0x20 SWAP4 DUP4 PUSH2 0x2943 JUMP JUMPDEST DUP2 ADD SUB SLT PUSH2 0x18C JUMPI PUSH2 0x2231 SWAP1 PUSH2 0x2C97 JUMP JUMPDEST SWAP5 DUP7 PUSH2 0x1A97 JUMP JUMPDEST RETURNDATASIZE SWAP2 POP PUSH2 0x2213 JUMP JUMPDEST SWAP4 POP PUSH1 0x20 DUP6 RETURNDATASIZE PUSH1 0x20 GT PUSH2 0x2275 JUMPI JUMPDEST DUP2 PUSH2 0x225B PUSH1 0x20 SWAP4 DUP4 PUSH2 0x2943 JUMP JUMPDEST DUP2 ADD SUB SLT PUSH2 0x18C JUMPI PUSH2 0x226F PUSH2 0x1A84 SWAP6 PUSH2 0x2C97 JUMP JUMPDEST SWAP4 PUSH2 0x19FC JUMP JUMPDEST RETURNDATASIZE SWAP2 POP PUSH2 0x224E JUMP JUMPDEST PUSH1 0x44 SWAP1 DUP4 PUSH20 0xFFFFFFFFFFFFFFFFFFFFFFFFFFFFFFFFFFFFFFFF PUSH1 0x40 MLOAD SWAP3 PUSH32 0x998D5F7000000000000000000000000000000000000000000000000000000000 DUP5 MSTORE AND PUSH1 0x4 DUP4 ADD MSTORE PUSH1 0x24 DUP3 ADD MSTORE REVERT JUMPDEST PUSH2 0x592 SWAP1 PUSH1 0x40 MLOAD SWAP2 DUP3 SWAP2 PUSH32 0x20B624100000000000000000000000000000000000000000000000000000000 DUP4 MSTORE PUSH1 0x4 DUP4 ADD PUSH2 0x2C01 JUMP JUMPDEST CALLVALUE PUSH2 0x18C JUMPI PUSH1 0x0 PUSH32 0xFFFFFFFFFFFFFFFFFFFFFFFFFFFFFFFFFFFFFFFFFFFFFFFFFFFFFFFFFFFFFFFC CALLDATASIZE ADD SLT PUSH2 0x18C JUMPI PUSH2 0x2337 PUSH2 0x2CD0 JUMP JUMPDEST PUSH1 0xA SLOAD PUSH20 0xFFFFFFFFFFFFFFFFFFFFFFFFFFFFFFFFFFFFFFFF DUP1 DUP3 AND SWAP2 DUP3 ISZERO PUSH2 0x23E0 JUMPI PUSH1 0x9 DUP1 SLOAD PUSH32 0xFFFFFFFFFFFFFFFFFFFFFFFF0000000000000000000000000000000000000000 DUP1 DUP3 AND DUP7 OR SWAP1 SWAP3 SSTORE SWAP2 AND PUSH1 0xA SSTORE PUSH1 0x40 DUP1 MLOAD SWAP3 SWAP1 SWAP2 AND PUSH20 0xFFFFFFFFFFFFFFFFFFFFFFFFFFFFFFFFFFFFFFFF SWAP1 DUP2 AND DUP4 MSTORE SWAP1 SWAP3 AND PUSH1 0x20 DUP3 ADD MSTORE PUSH32 0xDC45B28468284159445EC8588DD4C555FC01ED3C9E7B3B6FD371BE486F77913B SWAP2 DUP2 SWAP1 DUP2 ADD PUSH2 0x53D JUMP JUMPDEST PUSH1 0x4 PUSH1 0x40 MLOAD PUSH32 0xD45740F500000000000000000000000000000000000000000000000000000000 DUP2 MSTORE REVERT JUMPDEST CALLVALUE PUSH2 0x18C JUMPI PUSH1 0x20 PUSH32 0xFFFFFFFFFFFFFFFFFFFFFFFFFFFFFFFFFFFFFFFFFFFFFFFFFFFFFFFFFFFFFFFC CALLDATASIZE ADD SLT PUSH2 0x18C JUMPI PUSH1 0x4 CALLDATALOAD PUSH1 0x1 SLOAD DUP2 LT ISZERO PUSH2 0x18C JUMPI PUSH1 0x7 SWAP1 PUSH1 0x1 PUSH1 0x0 MSTORE MUL DUP1 PUSH32 0xB10E2D527612073B26EECDFD717E6A320CF44B4AFAC2B0732D9FCBE2B7FA0CF6 ADD SLOAD PUSH2 0x910 PUSH20 0xFFFFFFFFFFFFFFFFFFFFFFFFFFFFFFFFFFFFFFFF DUP1 PUSH32 0xB10E2D527612073B26EECDFD717E6A320CF44B4AFAC2B0732D9FCBE2B7FA0CF7 DUP6 ADD SLOAD AND SWAP4 PUSH32 0xB10E2D527612073B26EECDFD717E6A320CF44B4AFAC2B0732D9FCBE2B7FA0CF8 DUP2 ADD SLOAD SWAP2 PUSH32 0xB10E2D527612073B26EECDFD717E6A320CF44B4AFAC2B0732D9FCBE2B7FA0CF9 DUP3 ADD SLOAD SWAP1 PUSH32 0xB10E2D527612073B26EECDFD717E6A320CF44B4AFAC2B0732D9FCBE2B7FA0CFA DUP4 ADD SLOAD AND SWAP1 PUSH2 0x1467 PUSH32 0xB10E2D527612073B26EECDFD717E6A320CF44B4AFAC2B0732D9FCBE2B7FA0CFC PUSH32 0xB10E2D527612073B26EECDFD717E6A320CF44B4AFAC2B0732D9FCBE2B7FA0CFB DUP6 ADD SLOAD SWAP5 ADD PUSH2 0x2984 JUMP JUMPDEST CALLVALUE PUSH2 0x18C JUMPI PUSH1 0x0 PUSH32 0xFFFFFFFFFFFFFFFFFFFFFFFFFFFFFFFFFFFFFFFFFFFFFFFFFFFFFFFFFFFFFFFC CALLDATASIZE ADD SLT PUSH2 0x18C JUMPI PUSH1 0x20 PUSH20 0xFFFFFFFFFFFFFFFFFFFFFFFFFFFFFFFFFFFFFFFF PUSH1 0x8 SLOAD AND PUSH1 0x40 MLOAD SWAP1 DUP2 MSTORE RETURN JUMPDEST CALLVALUE PUSH2 0x18C JUMPI PUSH1 0x0 PUSH32 0xFFFFFFFFFFFFFFFFFFFFFFFFFFFFFFFFFFFFFFFFFFFFFFFFFFFFFFFFFFFFFFFC CALLDATASIZE ADD SLT PUSH2 0x18C JUMPI PUSH1 0x20 PUSH1 0x6 SLOAD PUSH1 0x40 MLOAD SWAP1 DUP2 MSTORE RETURN JUMPDEST CALLVALUE PUSH2 0x18C JUMPI PUSH1 0x20 PUSH32 0xFFFFFFFFFFFFFFFFFFFFFFFFFFFFFFFFFFFFFFFFFFFFFFFFFFFFFFFFFFFFFFFC CALLDATASIZE ADD SLT PUSH2 0x18C JUMPI PUSH1 0x4 CALLDATALOAD PUSH1 0x2 SLOAD DUP2 LT ISZERO PUSH2 0x18C JUMPI PUSH1 0x2 PUSH1 0x0 MSTORE PUSH1 0x1 SHL PUSH32 0x405787FA12A823E0F2B7631CC41B3BA8828B3321CA811111FA75CD3AA3BB5ACE DUP2 ADD SLOAD PUSH32 0x405787FA12A823E0F2B7631CC41B3BA8828B3321CA811111FA75CD3AA3BB5ACF SWAP1 SWAP2 ADD SLOAD PUSH1 0x40 DUP1 MLOAD PUSH1 0xFF DUP5 AND ISZERO ISZERO DUP2 MSTORE PUSH11 0xFFFFFFFFFFFFFFFFFFFFFF PUSH1 0x8 DUP6 SWAP1 SHR AND PUSH1 0x20 DUP3 ADD MSTORE PUSH1 0x60 SWAP4 DUP5 SHR SWAP2 DUP2 ADD SWAP2 SWAP1 SWAP2 MSTORE PUSH20 0xFFFFFFFFFFFFFFFFFFFFFFFFFFFFFFFFFFFFFFFF DUP3 AND SWAP3 DUP2 ADD SWAP3 SWAP1 SWAP3 MSTORE PUSH1 0xA0 SWAP1 DUP2 SHR PUSH1 0x80 DUP4 ADD MSTORE SWAP1 RETURN JUMPDEST CALLVALUE PUSH2 0x18C JUMPI PUSH1 0x40 PUSH32 0xFFFFFFFFFFFFFFFFFFFFFFFFFFFFFFFFFFFFFFFFFFFFFFFFFFFFFFFFFFFFFFFC CALLDATASIZE ADD SLT PUSH2 0x18C JUMPI PUSH2 0x271D PUSH2 0x2876 JUMP JUMPDEST PUSH1 0x24 CALLDATALOAD SWAP1 PUSH20 0xFFFFFFFFFFFFFFFFFFFFFFFFFFFFFFFFFFFFFFFF SWAP1 DUP2 DUP4 AND DUP1 SWAP4 SUB PUSH2 0x18C JUMPI AND PUSH1 0x0 MSTORE PUSH1 0x5 PUSH1 0x20 MSTORE PUSH1 0x40 PUSH1 0x0 KECCAK256 SWAP1 PUSH1 0x0 MSTORE PUSH1 0x20 MSTORE PUSH1 0x20 PUSH1 0xFF PUSH1 0x40 PUSH1 0x0 KECCAK256 SLOAD AND PUSH1 0x40 MLOAD SWAP1 ISZERO ISZERO DUP2 MSTORE RETURN JUMPDEST CALLVALUE PUSH2 0x18C JUMPI PUSH1 0x20 PUSH32 0xFFFFFFFFFFFFFFFFFFFFFFFFFFFFFFFFFFFFFFFFFFFFFFFFFFFFFFFFFFFFFFFC CALLDATASIZE ADD SLT PUSH2 0x18C JUMPI PUSH2 0x27A2 PUSH2 0x2876 JUMP JUMPDEST PUSH2 0x27AA PUSH2 0x2CD0 JUMP JUMPDEST PUSH20 0xFFFFFFFFFFFFFFFFFFFFFFFFFFFFFFFFFFFFFFFF DUP1 DUP3 AND DUP1 ISZERO PUSH2 0x284C JUMPI PUSH2 0x53D PUSH32 0xEE536CBB080DE2A8340FAFAEE947799B653DFF18AD502B7F85DEC917AA90DD88 SWAP4 PUSH1 0xB SLOAD SWAP3 PUSH32 0xFFFFFFFFFFFFFFFFFFFFFFFF0000000000000000000000000000000000000000 DUP5 AND OR PUSH1 0xB SSTORE PUSH1 0x40 MLOAD SWAP4 DUP5 SWAP4 AND DUP4 SWAP1 PUSH1 0x20 SWAP1 SWAP4 SWAP3 SWAP4 PUSH1 0x40 DUP4 ADD SWAP5 PUSH20 0xFFFFFFFFFFFFFFFFFFFFFFFFFFFFFFFFFFFFFFFF DUP1 SWAP3 AND DUP5 MSTORE AND SWAP2 ADD MSTORE JUMP JUMPDEST PUSH1 0x4 PUSH1 0x40 MLOAD PUSH32 0x2D2AAF4C00000000000000000000000000000000000000000000000000000000 DUP2 MSTORE REVERT JUMPDEST PUSH1 0x4 CALLDATALOAD SWAP1 PUSH20 0xFFFFFFFFFFFFFFFFFFFFFFFFFFFFFFFFFFFFFFFF DUP3 AND DUP3 SUB PUSH2 0x18C JUMPI JUMP JUMPDEST PUSH1 0x1 SLOAD DUP2 LT ISZERO PUSH2 0x1E4B JUMPI PUSH1 0x7 SWAP1 PUSH1 0x1 PUSH1 0x0 MSTORE MUL PUSH32 0xB10E2D527612073B26EECDFD717E6A320CF44B4AFAC2B0732D9FCBE2B7FA0CF6 ADD SWAP1 PUSH1 0x0 SWAP1 JUMP JUMPDEST SWAP1 PUSH1 0x1 DUP3 DUP2 SHR SWAP3 AND DUP1 ISZERO PUSH2 0x291D JUMPI JUMPDEST PUSH1 0x20 DUP4 LT EQ PUSH2 0x28EE JUMPI JUMP JUMPDEST PUSH32 0x4E487B7100000000000000000000000000000000000000000000000000000000 PUSH1 0x0 MSTORE PUSH1 0x22 PUSH1 0x4 MSTORE PUSH1 0x24 PUSH1 0x0 REVERT JUMPDEST SWAP2 PUSH1 0x7F AND SWAP2 PUSH2 0x28E3 JUMP JUMPDEST PUSH1 0x80 DUP2 ADD SWAP1 DUP2 LT PUSH8 0xFFFFFFFFFFFFFFFF DUP3 GT OR PUSH2 0x1171 JUMPI PUSH1 0x40 MSTORE JUMP JUMPDEST SWAP1 PUSH1 0x1F PUSH32 0xFFFFFFFFFFFFFFFFFFFFFFFFFFFFFFFFFFFFFFFFFFFFFFFFFFFFFFFFFFFFFFE0 SWAP2 ADD AND DUP2 ADD SWAP1 DUP2 LT PUSH8 0xFFFFFFFFFFFFFFFF DUP3 GT OR PUSH2 0x1171 JUMPI PUSH1 0x40 MSTORE JUMP JUMPDEST SWAP1 PUSH1 0x40 MLOAD SWAP2 DUP3 PUSH1 0x0 DUP3 SLOAD SWAP3 PUSH2 0x2998 DUP5 PUSH2 0x28D4 JUMP JUMPDEST SWAP1 DUP2 DUP5 MSTORE PUSH1 0x1 SWAP5 DUP6 DUP2 AND SWAP1 DUP2 PUSH1 0x0 EQ PUSH2 0x2A07 JUMPI POP PUSH1 0x1 EQ PUSH2 0x29C4 JUMPI JUMPDEST POP POP PUSH2 0x29C2 SWAP3 POP SUB DUP4 PUSH2 0x2943 JUMP JUMPDEST JUMP JUMPDEST SWAP1 SWAP4 SWAP2 POP PUSH1 0x0 MSTORE PUSH1 0x20 SWAP1 DUP2 PUSH1 0x0 KECCAK256 SWAP4 PUSH1 0x0 SWAP2 JUMPDEST DUP2 DUP4 LT PUSH2 0x29EF JUMPI POP POP PUSH2 0x29C2 SWAP4 POP DUP3 ADD ADD CODESIZE DUP1 PUSH2 0x29B4 JUMP JUMPDEST DUP6 SLOAD DUP9 DUP5 ADD DUP6 ADD MSTORE SWAP5 DUP6 ADD SWAP5 DUP8 SWAP5 POP SWAP2 DUP4 ADD SWAP2 PUSH2 0x29D7 JUMP JUMPDEST SWAP1 POP PUSH2 0x29C2 SWAP6 POP PUSH1 0x20 SWAP4 POP PUSH32 0xFFFFFFFFFFFFFFFFFFFFFFFFFFFFFFFFFFFFFFFFFFFFFFFFFFFFFFFFFFFFFF00 SWAP2 POP AND DUP3 DUP5 ADD MSTORE ISZERO ISZERO PUSH1 0x5 SHL DUP3 ADD ADD CODESIZE DUP1 PUSH2 0x29B4 JUMP JUMPDEST PUSH1 0x0 JUMPDEST DUP4 DUP2 LT PUSH2 0x2A5C JUMPI POP POP PUSH1 0x0 SWAP2 ADD MSTORE JUMP JUMPDEST DUP2 DUP2 ADD MLOAD DUP4 DUP3 ADD MSTORE PUSH1 0x20 ADD PUSH2 0x2A4C JUMP JUMPDEST SWAP1 PUSH32 0xFFFFFFFFFFFFFFFFFFFFFFFFFFFFFFFFFFFFFFFFFFFFFFFFFFFFFFFFFFFFFFE0 PUSH1 0x1F PUSH1 0x20 SWAP4 PUSH2 0x2AA8 DUP2 MLOAD DUP1 SWAP3 DUP2 DUP8 MSTORE DUP8 DUP1 DUP9 ADD SWAP2 ADD PUSH2 0x2A49 JUMP JUMPDEST ADD AND ADD ADD SWAP1 JUMP JUMPDEST SWAP7 SWAP4 SWAP5 SWAP2 PUSH11 0xFFFFFFFFFFFFFFFFFFFFFF SWAP1 PUSH2 0x2B1E SWAP11 SWAP10 SWAP8 SWAP5 SWAP3 ISZERO ISZERO DUP10 MSTORE AND PUSH1 0x20 DUP9 ADD MSTORE PUSH20 0xFFFFFFFFFFFFFFFFFFFFFFFFFFFFFFFFFFFFFFFF SWAP5 DUP6 DUP1 SWAP3 AND PUSH1 0x40 DUP10 ADD MSTORE AND PUSH1 0x60 DUP8 ADD MSTORE PUSH1 0x80 DUP7 ADD MSTORE PUSH1 0xA0 DUP6 ADD MSTORE AND PUSH1 0xC0 DUP4 ADD MSTORE PUSH1 0xE0 DUP3 ADD MSTORE PUSH2 0x120 SWAP1 DUP2 PUSH2 0x100 DUP3 ADD MSTORE ADD SWAP1 PUSH2 0x2A6C JUMP JUMPDEST SWAP1 JUMP JUMPDEST PUSH8 0xFFFFFFFFFFFFFFFF DUP2 GT PUSH2 0x1171 JUMPI PUSH1 0x1F ADD PUSH32 0xFFFFFFFFFFFFFFFFFFFFFFFFFFFFFFFFFFFFFFFFFFFFFFFFFFFFFFFFFFFFFFE0 AND PUSH1 0x20 ADD SWAP1 JUMP JUMPDEST SWAP1 PUSH1 0x40 MLOAD PUSH2 0x120 DUP2 ADD DUP2 DUP2 LT PUSH8 0xFFFFFFFFFFFFFFFF DUP3 GT OR PUSH2 0x1171 JUMPI PUSH1 0x40 MSTORE PUSH2 0x100 PUSH2 0x2BFC PUSH1 0x6 DUP4 SWAP6 DUP1 SLOAD PUSH1 0xFF DUP2 AND ISZERO ISZERO DUP7 MSTORE PUSH11 0xFFFFFFFFFFFFFFFFFFFFFF DUP2 PUSH1 0x8 SHR AND PUSH1 0x20 DUP8 ADD MSTORE PUSH1 0x60 SHR PUSH1 0x40 DUP7 ADD MSTORE PUSH20 0xFFFFFFFFFFFFFFFFFFFFFFFFFFFFFFFFFFFFFFFF DUP1 PUSH1 0x1 DUP4 ADD SLOAD AND PUSH1 0x60 DUP8 ADD MSTORE PUSH1 0x2 DUP3 ADD SLOAD PUSH1 0x80 DUP8 ADD MSTORE PUSH1 0x3 DUP3 ADD SLOAD PUSH1 0xA0 DUP8 ADD MSTORE PUSH1 0x4 DUP3 ADD SLOAD AND PUSH1 0xC0 DUP7 ADD MSTORE PUSH1 0x5 DUP2 ADD SLOAD PUSH1 0xE0 DUP7 ADD MSTORE ADD PUSH2 0x2984 JUMP JUMPDEST SWAP2 ADD MSTORE JUMP JUMPDEST PUSH2 0x140 PUSH2 0x2B1E SWAP3 PUSH1 0x20 DUP4 MSTORE DUP1 MLOAD ISZERO ISZERO PUSH1 0x20 DUP5 ADD MSTORE PUSH11 0xFFFFFFFFFFFFFFFFFFFFFF PUSH1 0x20 DUP3 ADD MLOAD AND PUSH1 0x40 DUP5 ADD MSTORE PUSH20 0xFFFFFFFFFFFFFFFFFFFFFFFFFFFFFFFFFFFFFFFF DUP1 PUSH1 0x40 DUP4 ADD MLOAD AND PUSH1 0x60 DUP6 ADD MSTORE DUP1 PUSH1 0x60 DUP4 ADD MLOAD AND PUSH1 0x80 DUP6 ADD MSTORE PUSH1 0x80 DUP3 ADD MLOAD PUSH1 0xA0 DUP6 ADD MSTORE PUSH1 0xA0 DUP3 ADD MLOAD PUSH1 0xC0 DUP6 ADD MSTORE PUSH1 0xC0 DUP3 ADD MLOAD AND PUSH1 0xE0 DUP5 ADD MSTORE PUSH1 0xE0 DUP2 ADD MLOAD SWAP1 PUSH2 0x100 SWAP2 DUP3 DUP6 ADD MSTORE ADD MLOAD SWAP2 PUSH2 0x120 DUP1 DUP3 ADD MSTORE ADD SWAP1 PUSH2 0x2A6C JUMP JUMPDEST MLOAD SWAP1 PUSH20 0xFFFFFFFFFFFFFFFFFFFFFFFFFFFFFFFFFFFFFFFF DUP3 AND DUP3 SUB PUSH2 0x18C JUMPI JUMP JUMPDEST PUSH8 0xFFFFFFFFFFFFFFFF DUP2 GT PUSH2 0x1171 JUMPI PUSH1 0x5 SHL PUSH1 0x20 ADD SWAP1 JUMP JUMPDEST PUSH20 0xFFFFFFFFFFFFFFFFFFFFFFFFFFFFFFFFFFFFFFFF PUSH1 0x7 SLOAD AND DUP1 CALLER SUB PUSH2 0x2CF3 JUMPI POP JUMP JUMPDEST PUSH1 0x40 MLOAD PUSH32 0x44C74FBB00000000000000000000000000000000000000000000000000000000 DUP2 MSTORE CALLER PUSH1 0x4 DUP3 ADD MSTORE PUSH20 0xFFFFFFFFFFFFFFFFFFFFFFFFFFFFFFFFFFFFFFFF SWAP2 SWAP1 SWAP2 AND PUSH1 0x24 DUP3 ADD MSTORE PUSH1 0x44 SWAP1 REVERT JUMPDEST SWAP1 PUSH1 0x1F DUP2 GT PUSH2 0x2D50 JUMPI POP POP POP JUMP JUMPDEST PUSH1 0x0 SWAP2 DUP3 MSTORE PUSH1 0x20 DUP3 KECCAK256 SWAP1 PUSH1 0x20 PUSH1 0x1F DUP6 ADD PUSH1 0x5 SHR DUP4 ADD SWAP5 LT PUSH2 0x2D8C JUMPI JUMPDEST PUSH1 0x1F ADD PUSH1 0x5 SHR ADD SWAP2 JUMPDEST DUP3 DUP2 LT PUSH2 0x2D81 JUMPI POP POP POP JUMP JUMPDEST DUP2 DUP2 SSTORE PUSH1 0x1 ADD PUSH2 0x2D75 JUMP JUMPDEST SWAP1 SWAP3 POP DUP3 SWAP1 PUSH2 0x2D6C JUMP JUMPDEST SWAP1 DUP1 DUP3 EQ PUSH2 0x2ECA JUMPI PUSH2 0x2DA8 DUP2 SLOAD PUSH2 0x28D4 JUMP JUMPDEST SWAP1 PUSH8 0xFFFFFFFFFFFFFFFF DUP3 GT PUSH2 0x1171 JUMPI DUP2 SWAP1 PUSH2 0x2DCE DUP3 PUSH2 0x2DC8 DUP7 SLOAD PUSH2 0x28D4 JUMP JUMPDEST DUP7 PUSH2 0x2D42 JUMP JUMPDEST PUSH1 0x0 SWAP1 PUSH1 0x1F DUP4 GT PUSH1 0x1 EQ PUSH2 0x2E22 JUMPI PUSH1 0x0 SWAP3 PUSH2 0x2E17 JUMPI JUMPDEST POP POP PUSH32 0xFFFFFFFFFFFFFFFFFFFFFFFFFFFFFFFFFFFFFFFFFFFFFFFFFFFFFFFFFFFFFFFF DUP3 PUSH1 0x1 SHL SWAP3 PUSH1 0x3 SHL SHR NOT AND OR SWAP1 SSTORE JUMP JUMPDEST ADD SLOAD SWAP1 POP CODESIZE DUP1 PUSH2 0x2DE4 JUMP JUMPDEST SWAP2 PUSH32 0xFFFFFFFFFFFFFFFFFFFFFFFFFFFFFFFFFFFFFFFFFFFFFFFFFFFFFFFFFFFFFFE0 AND SWAP2 DUP2 MSTORE PUSH1 0x20 SWAP2 DUP3 DUP3 KECCAK256 SWAP1 DUP6 DUP4 MSTORE DUP4 DUP4 KECCAK256 SWAP4 DUP4 SWAP1 JUMPDEST DUP3 DUP3 LT PUSH2 0x2EB1 JUMPI POP POP SWAP1 DUP5 PUSH1 0x1 SWAP6 SWAP5 SWAP4 SWAP3 LT PUSH2 0x2E7A JUMPI JUMPDEST POP POP POP DUP2 SHL ADD SWAP1 SSTORE JUMP JUMPDEST ADD SLOAD PUSH32 0xFFFFFFFFFFFFFFFFFFFFFFFFFFFFFFFFFFFFFFFFFFFFFFFFFFFFFFFFFFFFFFFF PUSH1 0xF8 DUP5 PUSH1 0x3 SHL AND SHR NOT AND SWAP1 SSTORE CODESIZE DUP1 DUP1 PUSH2 0x2E70 JUMP JUMPDEST DUP5 SWAP6 DUP2 SWAP3 SWAP6 DUP6 ADD SLOAD DUP2 SSTORE PUSH1 0x1 DUP1 SWAP2 ADD SWAP7 ADD SWAP5 ADD SWAP1 PUSH2 0x2E59 JUMP JUMPDEST POP POP JUMP JUMPDEST PUSH32 0xFFFFFFFFFFFFFFFFFFFFFFFFFFFFFFFFFFFFFFFFFFFFFFFFFFFFFFFFFFFFFFFF DUP2 EQ PUSH2 0x2EFB JUMPI PUSH1 0x1 ADD SWAP1 JUMP JUMPDEST PUSH32 0x4E487B7100000000000000000000000000000000000000000000000000000000 PUSH1 0x0 MSTORE PUSH1 0x11 PUSH1 0x4 MSTORE PUSH1 0x24 PUSH1 0x0 REVERT JUMPDEST DUP1 MLOAD DUP3 LT ISZERO PUSH2 0x1E4B JUMPI PUSH1 0x20 SWAP2 PUSH1 0x5 SHL ADD ADD SWAP1 JUMP JUMPDEST PUSH1 0x40 MLOAD SWAP1 DUP2 PUSH1 0x6 SLOAD DUP1 DUP5 MSTORE PUSH1 0x20 DUP1 SWAP5 ADD SWAP4 DUP3 PUSH1 0x0 SWAP6 PUSH1 0x6 DUP8 MSTORE PUSH32 0xF652222313E28459528D920B65115C16C04F3EFC82AAEDC97BE59F3F377C0D3F SWAP3 DUP8 JUMPDEST DUP6 DUP2 LT PUSH2 0x30C0 JUMPI POP POP PUSH2 0x2F90 SWAP3 POP SUB DUP4 PUSH2 0x2943 JUMP JUMPDEST DUP4 JUMPDEST DUP3 MLOAD DUP2 LT ISZERO PUSH2 0x2FDA JUMPI PUSH20 0xFFFFFFFFFFFFFFFFFFFFFFFFFFFFFFFFFFFFFFFF DUP1 PUSH2 0x2FBB DUP4 DUP7 PUSH2 0x2F2A JUMP JUMPDEST MLOAD AND SWAP1 DUP6 AND EQ PUSH2 0x2FD3 JUMPI PUSH2 0x2FCE SWAP1 PUSH2 0x2ECE JUMP JUMPDEST PUSH2 0x2F92 JUMP JUMPDEST POP POP POP POP POP JUMP JUMPDEST POP SWAP2 SWAP3 SWAP1 POP PUSH9 0x10000000000000000 DUP3 LT ISZERO PUSH2 0x3093 JUMPI PUSH1 0x1 DUP3 ADD DUP1 PUSH1 0x6 SSTORE DUP3 LT ISZERO PUSH2 0x3066 JUMPI SWAP1 PUSH1 0x6 PUSH20 0xFFFFFFFFFFFFFFFFFFFFFFFFFFFFFFFFFFFFFFFF SWAP3 MSTORE PUSH32 0xF652222313E28459528D920B65115C16C04F3EFC82AAEDC97BE59F3F377C0D3F ADD SWAP2 AND PUSH32 0xFFFFFFFFFFFFFFFFFFFFFFFF0000000000000000000000000000000000000000 DUP3 SLOAD AND OR SWAP1 SSTORE JUMP JUMPDEST DUP1 PUSH32 0x4E487B7100000000000000000000000000000000000000000000000000000000 PUSH1 0x24 SWAP3 MSTORE PUSH1 0x32 PUSH1 0x4 MSTORE REVERT JUMPDEST DUP1 PUSH32 0x4E487B7100000000000000000000000000000000000000000000000000000000 PUSH1 0x24 SWAP3 MSTORE PUSH1 0x41 PUSH1 0x4 MSTORE REVERT JUMPDEST DUP5 SLOAD PUSH20 0xFFFFFFFFFFFFFFFFFFFFFFFFFFFFFFFFFFFFFFFF AND DUP4 MSTORE PUSH1 0x1 SWAP5 DUP6 ADD SWAP5 DUP8 SWAP5 POP SWAP3 DUP3 ADD SWAP3 ADD PUSH2 0x2F7B JUMP INVALID LOG2 PUSH5 0x6970667358 0x22 SLT KECCAK256 JUMPI BALANCE PUSH19 0x73D24F3558936A873993D61381A3AF1ABED7BB POP 0xAE KECCAK256 CALLDATASIZE 0xFB 0xE2 0xD4 0xE1 PUSH8 0x3764736F6C634300 ADDMOD GT STOP CALLER "},"methodIdentifiers":{"AGGREGATION_ROUTER_V5()":"b11de7e3","admin()":"f851a440","allNebulas(uint256)":"d02c70e8","allOrbiters(uint256)":"269a2ce4","allShuttles(uint256)":"1ad4c8c3","cygnusX1Vault()":"c73ef9e8","daoReserves()":"5b068af8","deployShuttle(address,uint256)":"4d06fcd4","getOrbiters(uint256)":"502b512e","getShuttles(address,uint256)":"a5d29318","initializeOrbiter(string,address,address,address)":"6f40b0c7","masterBorrowApproval(address,address)":"0f768151","nativeToken()":"e1758bd8","nebulasDeployed()":"1f5b8f92","orbitersDeployed()":"ea191e9f","pendingAdmin()":"26782247","pendingDaoReserves()":"9861a14f","setCygnusX1Vault(address)":"08890610","setMasterBorrowApproval(address)":"da519bbd","setNewCygnusAdmin()":"883fd1c9","setNewDaoReserves()":"2f94f7bf","setPendingAdmin(address)":"4dd18bf5","setPendingDaoReserves(address)":"daa3bc01","shuttlesDeployed()":"80ffbb88","switchOrbiterStatus(uint256)":"ec84a5cb","usd()":"d63a6ccd"}}}}}