{
  "_format": "hh-sol-artifact-1",
  "contractName": "CygnusCollateralModel",
  "sourceName": "contracts/cygnus-core/CygnusCollateralModel.sol",
  "abi": [
    {
      "inputs": [],
      "name": "CygnusCollateralControl__ParameterNotInRange",
      "type": "error"
    },
    {
      "inputs": [
        {
          "internalType": "address",
          "name": "sender",
          "type": "address"
        },
        {
          "internalType": "address",
          "name": "origin",
          "type": "address"
        }
      ],
      "name": "CygnusCollateralModel__BorrowerCantBeAddressZero",
      "type": "error"
    },
    {
      "inputs": [],
      "name": "CygnusCollateralModel__PriceCantBeZero",
      "type": "error"
    },
    {
      "inputs": [],
      "name": "CygnusTerminal__CantMintZeroShares",
      "type": "error"
    },
    {
      "inputs": [],
      "name": "CygnusTerminal__CantRedeemZeroAssets",
      "type": "error"
    },
    {
      "inputs": [],
      "name": "CygnusTerminal__CantSweepUnderlying",
      "type": "error"
    },
    {
      "inputs": [],
      "name": "CygnusTerminal__MsgSenderNotAdmin",
      "type": "error"
    },
    {
      "inputs": [
        {
          "internalType": "address",
          "name": "owner",
          "type": "address"
        },
        {
          "internalType": "uint8",
          "name": "v",
          "type": "uint8"
        },
        {
          "internalType": "bytes32",
          "name": "r",
          "type": "bytes32"
        },
        {
          "internalType": "bytes32",
          "name": "s",
          "type": "bytes32"
        }
      ],
      "name": "ERC20Permit_InvalidSignature",
      "type": "error"
    },
    {
      "inputs": [],
      "name": "ERC20Permit_OwnerZeroAddress",
      "type": "error"
    },
    {
      "inputs": [
        {
          "internalType": "uint256",
          "name": "currentTime",
          "type": "uint256"
        },
        {
          "internalType": "uint256",
          "name": "deadline",
          "type": "uint256"
        }
      ],
      "name": "ERC20Permit_PermitExpired",
      "type": "error"
    },
    {
      "inputs": [],
      "name": "ERC20Permit_RecoveredOwnerZeroAddress",
      "type": "error"
    },
    {
      "inputs": [],
      "name": "ERC20Permit_SpenderZeroAddress",
      "type": "error"
    },
    {
      "inputs": [],
      "name": "ERC20_ApproveOwnerZeroAddress",
      "type": "error"
    },
    {
      "inputs": [],
      "name": "ERC20_ApproveSpenderZeroAddress",
      "type": "error"
    },
    {
      "inputs": [],
      "name": "ERC20_BurnHolderZeroAddress",
      "type": "error"
    },
    {
      "inputs": [
        {
          "internalType": "uint256",
          "name": "senderBalance",
          "type": "uint256"
        },
        {
          "internalType": "uint256",
          "name": "transferAmount",
          "type": "uint256"
        }
      ],
      "name": "ERC20_FromInsufficientBalance",
      "type": "error"
    },
    {
      "inputs": [
        {
          "internalType": "address",
          "name": "owner",
          "type": "address"
        },
        {
          "internalType": "address",
          "name": "spender",
          "type": "address"
        },
        {
          "internalType": "uint256",
          "name": "allowance",
          "type": "uint256"
        },
        {
          "internalType": "uint256",
          "name": "transferAmount",
          "type": "uint256"
        }
      ],
      "name": "ERC20_InsufficientAllowance",
      "type": "error"
    },
    {
      "inputs": [],
      "name": "ERC20_MintBeneficiaryZeroAddress",
      "type": "error"
    },
    {
      "inputs": [],
      "name": "ERC20_TransferFromZeroAddress",
      "type": "error"
    },
    {
      "inputs": [],
      "name": "ERC20_TransferToZeroAddress",
      "type": "error"
    },
    {
      "inputs": [],
      "name": "ReentrantCall",
      "type": "error"
    },
    {
      "anonymous": false,
      "inputs": [
        {
          "indexed": true,
          "internalType": "address",
          "name": "owner",
          "type": "address"
        },
        {
          "indexed": true,
          "internalType": "address",
          "name": "spender",
          "type": "address"
        },
        {
          "indexed": false,
          "internalType": "uint256",
          "name": "value",
          "type": "uint256"
        }
      ],
      "name": "Approval",
      "type": "event"
    },
    {
      "anonymous": false,
      "inputs": [
        {
          "indexed": true,
          "internalType": "address",
          "name": "sender",
          "type": "address"
        },
        {
          "indexed": true,
          "internalType": "address",
          "name": "recipient",
          "type": "address"
        },
        {
          "indexed": false,
          "internalType": "uint256",
          "name": "assets",
          "type": "uint256"
        },
        {
          "indexed": false,
          "internalType": "uint256",
          "name": "shares",
          "type": "uint256"
        }
      ],
      "name": "Deposit",
      "type": "event"
    },
    {
      "anonymous": false,
      "inputs": [
        {
          "indexed": false,
          "internalType": "uint256",
          "name": "oldDebtRatio",
          "type": "uint256"
        },
        {
          "indexed": false,
          "internalType": "uint256",
          "name": "newDebtRatio",
          "type": "uint256"
        }
      ],
      "name": "NewDebtRatio",
      "type": "event"
    },
    {
      "anonymous": false,
      "inputs": [
        {
          "indexed": false,
          "internalType": "uint256",
          "name": "oldLiquidationFee",
          "type": "uint256"
        },
        {
          "indexed": false,
          "internalType": "uint256",
          "name": "newLiquidationFee",
          "type": "uint256"
        }
      ],
      "name": "NewLiquidationFee",
      "type": "event"
    },
    {
      "anonymous": false,
      "inputs": [
        {
          "indexed": false,
          "internalType": "uint256",
          "name": "oldLiquidationIncentive",
          "type": "uint256"
        },
        {
          "indexed": false,
          "internalType": "uint256",
          "name": "newLiquidationIncentive",
          "type": "uint256"
        }
      ],
      "name": "NewLiquidationIncentive",
      "type": "event"
    },
    {
      "anonymous": false,
      "inputs": [
        {
          "indexed": false,
          "internalType": "uint160",
          "name": "totalBalance",
          "type": "uint160"
        }
      ],
      "name": "Sync",
      "type": "event"
    },
    {
      "anonymous": false,
      "inputs": [
        {
          "indexed": true,
          "internalType": "address",
          "name": "from",
          "type": "address"
        },
        {
          "indexed": true,
          "internalType": "address",
          "name": "to",
          "type": "address"
        },
        {
          "indexed": false,
          "internalType": "uint256",
          "name": "amount",
          "type": "uint256"
        }
      ],
      "name": "Transfer",
      "type": "event"
    },
    {
      "anonymous": false,
      "inputs": [
        {
          "indexed": true,
          "internalType": "address",
          "name": "sender",
          "type": "address"
        },
        {
          "indexed": true,
          "internalType": "address",
          "name": "recipient",
          "type": "address"
        },
        {
          "indexed": true,
          "internalType": "address",
          "name": "owner",
          "type": "address"
        },
        {
          "indexed": false,
          "internalType": "uint256",
          "name": "assets",
          "type": "uint256"
        },
        {
          "indexed": false,
          "internalType": "uint256",
          "name": "shares",
          "type": "uint256"
        }
      ],
      "name": "Withdraw",
      "type": "event"
    },
    {
      "inputs": [],
      "name": "DOMAIN_SEPARATOR",
      "outputs": [
        {
          "internalType": "bytes32",
          "name": "",
          "type": "bytes32"
        }
      ],
      "stateMutability": "view",
      "type": "function"
    },
    {
      "inputs": [],
      "name": "PERMIT2",
      "outputs": [
        {
          "internalType": "contract IAllowanceTransfer",
          "name": "",
          "type": "address"
        }
      ],
      "stateMutability": "view",
      "type": "function"
    },
    {
      "inputs": [],
      "name": "PERMIT_TYPEHASH",
      "outputs": [
        {
          "internalType": "bytes32",
          "name": "",
          "type": "bytes32"
        }
      ],
      "stateMutability": "view",
      "type": "function"
    },
    {
      "inputs": [
        {
          "internalType": "address",
          "name": "owner",
          "type": "address"
        },
        {
          "internalType": "address",
          "name": "spender",
          "type": "address"
        }
      ],
      "name": "allowance",
      "outputs": [
        {
          "internalType": "uint256",
          "name": "",
          "type": "uint256"
        }
      ],
      "stateMutability": "view",
      "type": "function"
    },
    {
      "inputs": [
        {
          "internalType": "address",
          "name": "spender",
          "type": "address"
        },
        {
          "internalType": "uint256",
          "name": "value",
          "type": "uint256"
        }
      ],
      "name": "approve",
      "outputs": [
        {
          "internalType": "bool",
          "name": "",
          "type": "bool"
        }
      ],
      "stateMutability": "nonpayable",
      "type": "function"
    },
    {
      "inputs": [
        {
          "internalType": "address",
          "name": "account",
          "type": "address"
        }
      ],
      "name": "balanceOf",
      "outputs": [
        {
          "internalType": "uint256",
          "name": "",
          "type": "uint256"
        }
      ],
      "stateMutability": "view",
      "type": "function"
    },
    {
      "inputs": [],
      "name": "borrowable",
      "outputs": [
        {
          "internalType": "address",
          "name": "",
          "type": "address"
        }
      ],
      "stateMutability": "view",
      "type": "function"
    },
    {
      "inputs": [
        {
          "internalType": "address",
          "name": "borrower",
          "type": "address"
        },
        {
          "internalType": "uint256",
          "name": "borrowAmount",
          "type": "uint256"
        }
      ],
      "name": "canBorrow",
      "outputs": [
        {
          "internalType": "bool",
          "name": "",
          "type": "bool"
        }
      ],
      "stateMutability": "view",
      "type": "function"
    },
    {
      "inputs": [
        {
          "internalType": "address",
          "name": "borrower",
          "type": "address"
        },
        {
          "internalType": "uint256",
          "name": "redeemAmount",
          "type": "uint256"
        }
      ],
      "name": "canRedeem",
      "outputs": [
        {
          "internalType": "bool",
          "name": "",
          "type": "bool"
        }
      ],
      "stateMutability": "view",
      "type": "function"
    },
    {
      "inputs": [],
      "name": "cygnusNebulaOracle",
      "outputs": [
        {
          "internalType": "contract ICygnusNebulaOracle",
          "name": "",
          "type": "address"
        }
      ],
      "stateMutability": "view",
      "type": "function"
    },
    {
      "inputs": [],
      "name": "debtRatio",
      "outputs": [
        {
          "internalType": "uint256",
          "name": "",
          "type": "uint256"
        }
      ],
      "stateMutability": "view",
      "type": "function"
    },
    {
      "inputs": [],
      "name": "decimals",
      "outputs": [
        {
          "internalType": "uint8",
          "name": "",
          "type": "uint8"
        }
      ],
      "stateMutability": "view",
      "type": "function"
    },
    {
      "inputs": [
        {
          "internalType": "address",
          "name": "spender",
          "type": "address"
        },
        {
          "internalType": "uint256",
          "name": "value",
          "type": "uint256"
        }
      ],
      "name": "decreaseAllowance",
      "outputs": [
        {
          "internalType": "bool",
          "name": "",
          "type": "bool"
        }
      ],
      "stateMutability": "nonpayable",
      "type": "function"
    },
    {
      "inputs": [
        {
          "internalType": "uint256",
          "name": "assets",
          "type": "uint256"
        },
        {
          "internalType": "address",
          "name": "recipient",
          "type": "address"
        },
        {
          "components": [
            {
              "components": [
                {
                  "internalType": "address",
                  "name": "token",
                  "type": "address"
                },
                {
                  "internalType": "uint160",
                  "name": "amount",
                  "type": "uint160"
                },
                {
                  "internalType": "uint48",
                  "name": "expiration",
                  "type": "uint48"
                },
                {
                  "internalType": "uint48",
                  "name": "nonce",
                  "type": "uint48"
                }
              ],
              "internalType": "struct IAllowanceTransfer.PermitDetails",
              "name": "details",
              "type": "tuple"
            },
            {
              "internalType": "address",
              "name": "spender",
              "type": "address"
            },
            {
              "internalType": "uint256",
              "name": "sigDeadline",
              "type": "uint256"
            }
          ],
          "internalType": "struct IAllowanceTransfer.PermitSingle",
          "name": "_permit",
          "type": "tuple"
        },
        {
          "internalType": "bytes",
          "name": "signature",
          "type": "bytes"
        }
      ],
      "name": "deposit",
      "outputs": [
        {
          "internalType": "uint256",
          "name": "shares",
          "type": "uint256"
        }
      ],
      "stateMutability": "nonpayable",
      "type": "function"
    },
    {
      "inputs": [],
      "name": "exchangeRate",
      "outputs": [
        {
          "internalType": "uint256",
          "name": "",
          "type": "uint256"
        }
      ],
      "stateMutability": "view",
      "type": "function"
    },
    {
      "inputs": [
        {
          "internalType": "address",
          "name": "borrower",
          "type": "address"
        }
      ],
      "name": "getAccountLiquidity",
      "outputs": [
        {
          "internalType": "uint256",
          "name": "liquidity",
          "type": "uint256"
        },
        {
          "internalType": "uint256",
          "name": "shortfall",
          "type": "uint256"
        }
      ],
      "stateMutability": "view",
      "type": "function"
    },
    {
      "inputs": [
        {
          "internalType": "address",
          "name": "borrower",
          "type": "address"
        }
      ],
      "name": "getDebtRatio",
      "outputs": [
        {
          "internalType": "uint256",
          "name": "",
          "type": "uint256"
        }
      ],
      "stateMutability": "view",
      "type": "function"
    },
    {
      "inputs": [],
      "name": "getLPTokenPrice",
      "outputs": [
        {
          "internalType": "uint256",
          "name": "price",
          "type": "uint256"
        }
      ],
      "stateMutability": "view",
      "type": "function"
    },
    {
      "inputs": [],
      "name": "hangar18",
      "outputs": [
        {
          "internalType": "contract IHangar18",
          "name": "",
          "type": "address"
        }
      ],
      "stateMutability": "view",
      "type": "function"
    },
    {
      "inputs": [
        {
          "internalType": "address",
          "name": "spender",
          "type": "address"
        },
        {
          "internalType": "uint256",
          "name": "value",
          "type": "uint256"
        }
      ],
      "name": "increaseAllowance",
      "outputs": [
        {
          "internalType": "bool",
          "name": "",
          "type": "bool"
        }
      ],
      "stateMutability": "nonpayable",
      "type": "function"
    },
    {
      "inputs": [],
      "name": "liquidationFee",
      "outputs": [
        {
          "internalType": "uint256",
          "name": "",
          "type": "uint256"
        }
      ],
      "stateMutability": "view",
      "type": "function"
    },
    {
      "inputs": [],
      "name": "liquidationIncentive",
      "outputs": [
        {
          "internalType": "uint256",
          "name": "",
          "type": "uint256"
        }
      ],
      "stateMutability": "view",
      "type": "function"
    },
    {
      "inputs": [],
      "name": "name",
      "outputs": [
        {
          "internalType": "string",
          "name": "",
          "type": "string"
        }
      ],
      "stateMutability": "view",
      "type": "function"
    },
    {
      "inputs": [
        {
          "internalType": "address",
          "name": "",
          "type": "address"
        }
      ],
      "name": "nonces",
      "outputs": [
        {
          "internalType": "uint256",
          "name": "",
          "type": "uint256"
        }
      ],
      "stateMutability": "view",
      "type": "function"
    },
    {
      "inputs": [
        {
          "internalType": "address",
          "name": "owner",
          "type": "address"
        },
        {
          "internalType": "address",
          "name": "spender",
          "type": "address"
        },
        {
          "internalType": "uint256",
          "name": "value",
          "type": "uint256"
        },
        {
          "internalType": "uint256",
          "name": "deadline",
          "type": "uint256"
        },
        {
          "internalType": "uint8",
          "name": "v",
          "type": "uint8"
        },
        {
          "internalType": "bytes32",
          "name": "r",
          "type": "bytes32"
        },
        {
          "internalType": "bytes32",
          "name": "s",
          "type": "bytes32"
        }
      ],
      "name": "permit",
      "outputs": [],
      "stateMutability": "nonpayable",
      "type": "function"
    },
    {
      "inputs": [
        {
          "internalType": "uint256",
          "name": "shares",
          "type": "uint256"
        },
        {
          "internalType": "address",
          "name": "recipient",
          "type": "address"
        },
        {
          "internalType": "address",
          "name": "owner",
          "type": "address"
        }
      ],
      "name": "redeem",
      "outputs": [
        {
          "internalType": "uint256",
          "name": "assets",
          "type": "uint256"
        }
      ],
      "stateMutability": "nonpayable",
      "type": "function"
    },
    {
      "inputs": [
        {
          "internalType": "uint256",
          "name": "newDebtRatio",
          "type": "uint256"
        }
      ],
      "name": "setDebtRatio",
      "outputs": [],
      "stateMutability": "nonpayable",
      "type": "function"
    },
    {
      "inputs": [
        {
          "internalType": "uint256",
          "name": "newLiquidationFee",
          "type": "uint256"
        }
      ],
      "name": "setLiquidationFee",
      "outputs": [],
      "stateMutability": "nonpayable",
      "type": "function"
    },
    {
      "inputs": [
        {
          "internalType": "uint256",
          "name": "newLiquidationIncentive",
          "type": "uint256"
        }
      ],
      "name": "setLiquidationIncentive",
      "outputs": [],
      "stateMutability": "nonpayable",
      "type": "function"
    },
    {
      "inputs": [],
      "name": "shuttleId",
      "outputs": [
        {
          "internalType": "uint256",
          "name": "",
          "type": "uint256"
        }
      ],
      "stateMutability": "view",
      "type": "function"
    },
    {
      "inputs": [
        {
          "internalType": "address",
          "name": "token",
          "type": "address"
        }
      ],
      "name": "sweepToken",
      "outputs": [],
      "stateMutability": "nonpayable",
      "type": "function"
    },
    {
      "inputs": [],
      "name": "symbol",
      "outputs": [
        {
          "internalType": "string",
          "name": "",
          "type": "string"
        }
      ],
      "stateMutability": "view",
      "type": "function"
    },
    {
      "inputs": [],
      "name": "totalBalance",
      "outputs": [
        {
          "internalType": "uint160",
          "name": "",
          "type": "uint160"
        }
      ],
      "stateMutability": "view",
      "type": "function"
    },
    {
      "inputs": [],
      "name": "totalSupply",
      "outputs": [
        {
          "internalType": "uint256",
          "name": "",
          "type": "uint256"
        }
      ],
      "stateMutability": "view",
      "type": "function"
    },
    {
      "inputs": [
        {
          "internalType": "address",
          "name": "to",
          "type": "address"
        },
        {
          "internalType": "uint256",
          "name": "amount",
          "type": "uint256"
        }
      ],
      "name": "transfer",
      "outputs": [
        {
          "internalType": "bool",
          "name": "",
          "type": "bool"
        }
      ],
      "stateMutability": "nonpayable",
      "type": "function"
    },
    {
      "inputs": [
        {
          "internalType": "address",
          "name": "from",
          "type": "address"
        },
        {
          "internalType": "address",
          "name": "to",
          "type": "address"
        },
        {
          "internalType": "uint256",
          "name": "amount",
          "type": "uint256"
        }
      ],
      "name": "transferFrom",
      "outputs": [
        {
          "internalType": "bool",
          "name": "",
          "type": "bool"
        }
      ],
      "stateMutability": "nonpayable",
      "type": "function"
    },
    {
      "inputs": [],
      "name": "underlying",
      "outputs": [
        {
          "internalType": "address",
          "name": "",
          "type": "address"
        }
      ],
      "stateMutability": "view",
      "type": "function"
    },
    {
      "inputs": [],
      "name": "version",
      "outputs": [
        {
          "internalType": "string",
          "name": "",
          "type": "string"
        }
      ],
      "stateMutability": "view",
      "type": "function"
    }
  ],
  "bytecode": "0x610140604052670d2f13f7789f0000600855670e5d0f042e8780006009553480156200002a57600080fd5b5060405146907f8b73c3c69bb8fe3d512ecc4cf759cc79239f7b179b0ffacaa9a75d522b39400f9062000060906000906200037f565b60408051918290038220828201825260018352603160f81b6020938401528151928301939093528101919091527fc89efdaa54c0f20c7adf612882df0950f5a951637e0307cdcb4c672f298b8bc66060820152608081018290523060a082015260c00160408051601f1981840301815282825280516020909101206080526007805460ff19166001179055635a412e5360e01b825251339250635a412e539160048082019260a09290919082900301816000875af115801562000127573d6000803e3d6000fd5b505050506040513d601f19601f820116820180604052508101906200014d919062000416565b610100526001600160a01b0390811660c05291821660e052501660a090815260408051635a412e5360e01b8152905160009283923392635a412e5392600480840193919291829003018187875af1158015620001ad573d6000803e3d6000fd5b505050506040513d601f19601f82011682018060405250810190620001d3919062000416565b505092509250506040518060400160405280601281526020017110de59db9d5cce8810dbdb1b185d195c985b60721b81525060009081620002159190620004f3565b50816001600160a01b03166395d89b416040518163ffffffff1660e01b8152600401600060405180830381865afa15801562000255573d6000803e3d6000fd5b505050506040513d6000823e601f3d908101601f191682016040526200027f9190810190620005e5565b6040516020016200029191906200069d565b60405160208183030381529060405260019081620002b09190620004f3565b50816001600160a01b031663313ce5676040518163ffffffff1660e01b8152600401602060405180830381865afa158015620002f0573d6000803e3d6000fd5b505050506040513d601f19601f82011682018060405250810190620003169190620006ce565b6002805460ff191660ff929092169190911790556001600160a01b031661012052506000600355620006fa565b600181811c908216806200035857607f821691505b6020821081036200037957634e487b7160e01b600052602260045260246000fd5b50919050565b60008083546200038f8162000343565b60018281168015620003aa5760018114620003c057620003f1565b60ff1984168752821515830287019450620003f1565b8760005260208060002060005b85811015620003e85781548a820152908401908201620003cd565b50505082870194505b50929695505050505050565b6001600160a01b03811681146200041357600080fd5b50565b600080600080600060a086880312156200042f57600080fd5b85516200043c81620003fd565b60208701519095506200044f81620003fd565b60408701519094506200046281620003fd565b60608701519093506200047581620003fd565b80925050608086015190509295509295909350565b634e487b7160e01b600052604160045260246000fd5b601f821115620004ee57600081815260208120601f850160051c81016020861015620004c95750805b601f850160051c820191505b81811015620004ea57828155600101620004d5565b5050505b505050565b81516001600160401b038111156200050f576200050f6200048a565b620005278162000520845462000343565b84620004a0565b602080601f8311600181146200055f5760008415620005465750858301515b600019600386901b1c1916600185901b178555620004ea565b600085815260208120601f198616915b8281101562000590578886015182559484019460019091019084016200056f565b5085821015620005af5787850151600019600388901b60f8161c191681555b5050505050600190811b01905550565b60005b83811015620005dc578181015183820152602001620005c2565b50506000910152565b600060208284031215620005f857600080fd5b81516001600160401b03808211156200061057600080fd5b818401915084601f8301126200062557600080fd5b8151818111156200063a576200063a6200048a565b604051601f8201601f19908116603f011681019083821181831017156200066557620006656200048a565b816040528281528760208487010111156200067f57600080fd5b62000692836020830160208801620005bf565b979650505050505050565b66021bcb3a6281d160cd1b815260008251620006c1816007850160208701620005bf565b9190910160070192915050565b600060208284031215620006e157600080fd5b815160ff81168114620006f357600080fd5b9392505050565b60805160a05160c05160e05161010051610120516120016200079760003960008181610622015281816106d201528181610fdf01526117b5015260006104030152600081816104580152818161087001528181610a1c01528181610c0c01528181610ee6015261186f01526000818161059b0152610a470152600081816105fb0152611541015260008181610371015261118c01526120016000f3fe608060405234801561001057600080fd5b50600436106102925760003560e01c80638808e71c11610160578063cc1f8ffa116100d8578063dd62ed3e1161008c578063e99a6ac711610071578063e99a6ac71461061d578063eb6a887d14610644578063fef0bec81461065757600080fd5b8063dd62ed3e146105bd578063e8a24e1d146105f657600080fd5b8063cf8c8c44116100bd578063cf8c8c4414610570578063d505accf14610583578063d935bd921461059657600080fd5b8063cc1f8ffa14610554578063cea55f571461056757600080fd5b8063a457c2d71161012f578063a9059cbb11610114578063a9059cbb14610516578063ad7a672f14610529578063ba0876521461054157600080fd5b8063a457c2d7146104f0578063a84310811461050357600080fd5b80638808e71c146104c35780638c765e94146104d657806395d89b41146104df578063a36a3630146104e757600080fd5b8063395093511161020e5780635f77f891116101c25780636f307dc3116101a75780636f307dc31461045357806370a082311461047a5780637ecebe00146104a357600080fd5b80635f77f891146103fe5780636afdd8501461042557600080fd5b806351303622116101f357806351303622146103ae57806354fd4d50146103b65780635ec88c79146103d657600080fd5b806339509351146103935780633ba0b9a9146103a657600080fd5b80631be195601161026557806330adf81f1161024a57806330adf81f14610326578063313ce5671461034d5780633644e5151461036c57600080fd5b80631be19560146102fe57806323b872dd1461031357600080fd5b8063031a5c821461029757806306fdde03146102bd578063095ea7b3146102d257806318160ddd146102f5575b600080fd5b6102aa6102a5366004611b99565b61066a565b6040519081526020015b60405180910390f35b6102c5610794565b6040516102b49190611bbd565b6102e56102e0366004611c0b565b610822565b60405190151581526020016102b4565b6102aa60035481565b61031161030c366004611b99565b610839565b005b6102e5610321366004611c37565b6108f2565b6102aa7f6e71edae12b1b97f4d1f60370fef10105fa2faae0126114a169c64845d6126c981565b60025461035a9060ff1681565b60405160ff90911681526020016102b4565b6102aa7f000000000000000000000000000000000000000000000000000000000000000081565b6102e56103a1366004611c0b565b610981565b6102aa6109c9565b6102aa610a05565b6102c5604051806040016040528060018152602001603160f81b81525081565b6103e96103e4366004611b99565b610ada565b604080519283526020830191909152016102b4565b6102aa7f000000000000000000000000000000000000000000000000000000000000000081565b61043b6e22d473030f116ddee9f6b43ac78ba381565b6040516001600160a01b0390911681526020016102b4565b61043b7f000000000000000000000000000000000000000000000000000000000000000081565b6102aa610488366004611b99565b6001600160a01b031660009081526005602052604090205490565b6102aa6104b1366004611b99565b60066020526000908152604090205481565b6102aa6104d1366004611c78565b610af2565b6102aa60095481565b6102c5610d48565b6102aa600a5481565b6102e56104fe366004611c0b565b610d55565b610311610511366004611d23565b610d86565b6102e5610524366004611c0b565b610def565b60075461043b9061010090046001600160a01b031681565b6102aa61054f366004611d3c565b610dfc565b6102e5610562366004611c0b565b610f74565b6102aa60085481565b6102e561057e366004611c0b565b611066565b610311610591366004611d7e565b61107d565b61043b7f000000000000000000000000000000000000000000000000000000000000000081565b6102aa6105cb366004611df5565b6001600160a01b03918216600090815260046020908152604080832093909416825291909152205490565b61043b7f000000000000000000000000000000000000000000000000000000000000000081565b61043b7f000000000000000000000000000000000000000000000000000000000000000081565b610311610652366004611d23565b611320565b610311610665366004611d23565b611381565b6000806106976106786109c9565b6001600160a01b038516600090815260056020526040902054906113db565b905060006106ad6106a6610a05565b83906113db565b604051637d6af07960e01b81526001600160a01b0386811660048301529192506000917f00000000000000000000000000000000000000000000000000000000000000001690637d6af07990602401602060405180830381865afa158015610719573d6000803e3d6000fd5b505050506040513d601f19601f8201168201806040525081019061073d9190611e2e565b9050600061075b600a546009546107549190611e5d565b8390611409565b905082156107875761078261077b600854856113db90919063ffffffff16565b829061143f565b61078a565b60005b9695505050505050565b600080546107a190611e70565b80601f01602080910402602001604051908101604052809291908181526020018280546107cd90611e70565b801561081a5780601f106107ef5761010080835404028352916020019161081a565b820191906000526020600020905b8154815290600101906020018083116107fd57829003601f168201915b505050505081565b600061082f33848461148e565b5060015b92915050565b60075460ff1661085c576040516306fda65d60e31b815260040160405180910390fd5b6007805460ff1916905561086e61153d565b7f00000000000000000000000000000000000000000000000000000000000000006001600160a01b0316816001600160a01b0316036108c05760405163b5d8f39160e01b815260040160405180910390fd5b60006108cb826115ef565b90506108e16001600160a01b0383163383611604565b50506007805460ff19166001179055565b6001600160a01b03831660009081526004602090815260408083203380855292528220548381101561095d57604051636497133b60e11b81526001600160a01b0380881660048301528316602482015260448101829052606481018590526084015b60405180910390fd5b61096a868386840361148e565b610975868686611653565b50600195945050505050565b3360009081526004602090815260408083206001600160a01b038616845290915281205481906109b2908490611e5d565b90506109bf33858361148e565b5060019392505050565b60035460009080156109f5576007546109f09061010090046001600160a01b03168261143f565b6109ff565b670de0b6b3a76400005b91505090565b6040516317e5a1a160e01b81526001600160a01b037f0000000000000000000000000000000000000000000000000000000000000000811660048301526000917f0000000000000000000000000000000000000000000000000000000000000000909116906317e5a1a190602401602060405180830381865afa158015610a90573d6000803e3d6000fd5b505050506040513d601f19601f82011682018060405250810190610ab49190611e2e565b905080600003610ad75760405163586ad3b960e11b815260040160405180910390fd5b90565b600080610ae983600019611752565b91509150915091565b60075460009060ff16610b18576040516306fda65d60e31b815260040160405180910390fd5b6007805460ff191690556000610b2c611868565b90508215610b9f576040516302b67b5760e41b81526e22d473030f116ddee9f6b43ac78ba390632b67b57090610b6c903390899089908990600401611eee565b600060405180830381600087803b158015610b8657600080fd5b505af1158015610b9a573d6000803e3d6000fd5b505050505b6e22d473030f116ddee9f6b43ac78ba36336c785163330610bbf8b611898565b60405160e085901b7fffffffff000000000000000000000000000000000000000000000000000000001681526001600160a01b0393841660048201529183166024830152821660448201527f00000000000000000000000000000000000000000000000000000000000000009091166064820152608401600060405180830381600087803b158015610c5057600080fd5b505af1158015610c64573d6000803e3d6000fd5b505050506000610c72611868565b9050610c8f610c7f6109c9565b610c898484611f9b565b9061143f565b925082600003610cb25760405163f1ca48b160e01b815260040160405180910390fd5b600354600003610cd857610cc86103e884611f9b565b9250610cd861dead6103e86118c2565b610ce287846118c2565b60408051898152602081018590526001600160a01b0389169133917fdcbc1c05240f31ff3ad067ef1ee35ce4997762752e3a095284754544f4c709d7910160405180910390a35050610d32611955565b6007805460ff1916600117905595945050505050565b600180546107a190611e70565b3360009081526004602090815260408083206001600160a01b038616845290915281205481906109b2908490611f9b565b610d8e61153d565b610da9670de0b6b3a7640000670ff59ee833b30000836119da565b600980549082905560408051828152602081018490527faeba5a6c40a8ac138134bff1aaa65debf25971188a58804bad717f82f0ec131691015b60405180910390a15050565b600061082f338484611653565b60075460009060ff16610e22576040516306fda65d60e31b815260040160405180910390fd5b6007805460ff19169055336001600160a01b03831614610e9a576001600160a01b03821660009081526004602090815260408083203384529091529020546000198114610e9857610e738582611f9b565b6001600160a01b03841660009081526004602090815260408083203384529091529020555b505b610eac610ea56109c9565b85906113db565b905060008111610ecf5760405163e3e8d29760e01b815260040160405180910390fd5b610ed98285611a0a565b610f0d6001600160a01b037f0000000000000000000000000000000000000000000000000000000000000000168483611604565b60408051828152602081018690526001600160a01b03808516929086169133917ffbde797d201c681b91056529119e0b02407c7bb96a4a2c75c01fc9667232c8db910160405180910390a4610f60611955565b6007805460ff191660011790559392505050565b6001600160a01b03821660009081526005602052604081205480831115610f9f576000915050610833565b6000610fab8483611f9b565b90506000610fba6106a66109c9565b604051637d6af07960e01b81526001600160a01b0388811660048301529192506000917f00000000000000000000000000000000000000000000000000000000000000001690637d6af07990602401602060405180830381865afa158015611026573d6000803e3d6000fd5b505050506040513d601f19601f8201168201806040525081019061104a9190611e2e565b905060006110588383611aa5565b159998505050505050505050565b6000806110738484611752565b1595945050505050565b6001600160a01b0387166110a4576040516337adc3e960e11b815260040160405180910390fd5b6001600160a01b0386166110cb57604051637b4813dd60e01b815260040160405180910390fd5b428410156110f557604051633288645960e01b815242600482015260248101859052604401610954565b6001600160a01b0387811660008181526006602090815260408083208054600180820190925582517f6e71edae12b1b97f4d1f60370fef10105fa2faae0126114a169c64845d6126c98186015280840196909652958c166060860152608085018b905260a085019590955260c08085018a90528151808603909101815260e08501825280519083012061190160f01b6101008601527f000000000000000000000000000000000000000000000000000000000000000061010286015261012280860182905282518087039091018152610142860180845281519185019190912090859052610162860180845281905260ff8a166101828701526101a286018990526101c2860188905291519095919491926101e2808401939192601f1981019281900390910190855afa158015611230573d6000803e3d6000fd5b5050604051601f1901519150506001600160a01b0381166112645760405163d147d0e360e01b815260040160405180910390fd5b896001600160a01b0316816001600160a01b0316146112b857604051633460790b60e01b81526001600160a01b038b16600482015260ff871660248201526044810186905260648101859052608401610954565b6001600160a01b038a81166000818152600460209081526040808320948e16808452948252918290208c905590518b81527f8c5be1e5ebec7d5bd14f71427d1e84f3dd0314c0f7b2291e5b200ac8c7c3b925910160405180910390a350505050505050505050565b61132861153d565b611343670b1a2bc2ec500000670de0b6b3a7640000836119da565b600880549082905560408051828152602081018490527ff25d2243e4128e51523d8537f04f18c3e6390bbfc6323390a9a8e59b921ce0469101610de3565b61138961153d565b61139d600067016345785d8a0000836119da565b600a80549082905560408051828152602081018490527f87272249f1056ec16a68dd9255101358246dd26a796e2f0bc6b3a0ad02f2de419101610de3565b6000816000190483118202156113f95763bac65e5b6000526004601cfd5b50670de0b6b3a764000091020490565b6000816000190483118202156114275763bac65e5b6000526004601cfd5b50670de0b6b3a7640000910281810615159190040190565b60007812725dd1d243aba0e75fe645cc4873f9e65afe688c928e1f218311670de0b6b3a76400000215820261147c57637c5f487d6000526004601cfd5b50670de0b6b3a7640000919091020490565b6001600160a01b0383166114b55760405163231b1a1d60e21b815260040160405180910390fd5b6001600160a01b0382166114dc57604051632b6990d760e21b815260040160405180910390fd5b6001600160a01b0383811660008181526004602090815260408083209487168084529482529182902085905590518481527f8c5be1e5ebec7d5bd14f71427d1e84f3dd0314c0f7b2291e5b200ac8c7c3b925910160405180910390a3505050565b60007f00000000000000000000000000000000000000000000000000000000000000006001600160a01b031663f851a4406040518163ffffffff1660e01b8152600401602060405180830381865afa15801561159d573d6000803e3d6000fd5b505050506040513d601f19601f820116820180604052508101906115c19190611fae565b9050336001600160a01b038216146115ec576040516331d63ad160e11b815260040160405180910390fd5b50565b60006108336001600160a01b03831630611b41565b81601452806034526fa9059cbb00000000000000000000000060005260206000604460106000875af13d156001600051141716611649576390b8ec186000526004601cfd5b6000603452505050565b6001600160a01b03831661167a57604051636fbb781760e01b815260040160405180910390fd5b6001600160a01b0382166116a0576040516261696b60e71b815260040160405180910390fd5b6001600160a01b038316600090815260056020526040902054818110156116e45760405163430cf54960e11b81526004810182905260248101839052604401610954565b6001600160a01b0380851660008181526005602052604080822086860390559286168082529083902080548601905591517fddf252ad1be2c89b69c2b068fc378daa952ba7f163c4a11628f55a4df523b3ef906117449086815260200190565b60405180910390a350505050565b6000806001600160a01b03841661178d5760405163a5075cd160e01b81526001600160a01b0385166004820152326024820152604401610954565b600019830361182357604051637d6af07960e01b81526001600160a01b0385811660048301527f00000000000000000000000000000000000000000000000000000000000000001690637d6af07990602401602060405180830381865afa1580156117fc573d6000803e3d6000fd5b505050506040513d601f19601f820116820180604052508101906118209190611e2e565b92505b600061184f6118306109c9565b6001600160a01b038716600090815260056020526040902054906113db565b905061185b8185611aa5565b92509250505b9250929050565b60006118937f00000000000000000000000000000000000000000000000000000000000000006115ef565b905090565b60007401000000000000000000000000000000000000000082106118be576118be611b76565b5090565b6001600160a01b0382166118e95760405163df3dc1c960e01b815260040160405180910390fd5b80600360008282546118fb9190611e5d565b90915550506001600160a01b0382166000818152600560209081526040808320805486019055518481527fddf252ad1be2c89b69c2b068fc378daa952ba7f163c4a11628f55a4df523b3ef91015b60405180910390a35050565b600061195f611868565b90507f3145c2b643834867f2c0a8cac8a48218307687911615c0ed01412a09dd163b6661198b82611898565b600780547fffffffffffffffffffffff0000000000000000000000000000000000000000ff166101006001600160a01b039390931692830217905560405190815260200160405180910390a150565b828110806119e757508181115b15611a055760405163058b4cb360e11b815260040160405180910390fd5b505050565b6001600160a01b038216611a3157604051633eedce0760e01b815260040160405180910390fd5b6001600160a01b03821660009081526005602052604081208054839290611a59908490611f9b565b90915550506003805482900390556040518181526000906001600160a01b038416907fddf252ad1be2c89b69c2b068fc378daa952ba7f163c4a11628f55a4df523b3ef90602001611949565b6000806000611abc611ab5610a05565b86906113db565b90506000611ad5600854836113db90919063ffffffff16565b905084600003611aff57611af2600a5460095461077b9190611e5d565b6000935093505050611861565b6000611b1b600a54600954611b149190611e5d565b8790611409565b9050808210611b335790039250600091506118619050565b600094500391506118619050565b6000816014526f70a0823100000000000000000000000060005260208060246010865afa601f3d111660205102905092915050565b6335278d126000526004601cfd5b6001600160a01b03811681146115ec57600080fd5b600060208284031215611bab57600080fd5b8135611bb681611b84565b9392505050565b600060208083528351808285015260005b81811015611bea57858101830151858201604001528201611bce565b506000604082860101526040601f19601f8301168501019250505092915050565b60008060408385031215611c1e57600080fd5b8235611c2981611b84565b946020939093013593505050565b600080600060608486031215611c4c57600080fd5b8335611c5781611b84565b92506020840135611c6781611b84565b929592945050506040919091013590565b6000806000806000858703610120811215611c9257600080fd5b863595506020870135611ca481611b84565b945060c0603f1982011215611cb857600080fd5b5060408601925061010086013567ffffffffffffffff80821115611cdb57600080fd5b818801915088601f830112611cef57600080fd5b813581811115611cfe57600080fd5b896020828501011115611d1057600080fd5b9699959850939650602001949392505050565b600060208284031215611d3557600080fd5b5035919050565b600080600060608486031215611d5157600080fd5b833592506020840135611d6381611b84565b91506040840135611d7381611b84565b809150509250925092565b600080600080600080600060e0888a031215611d9957600080fd5b8735611da481611b84565b96506020880135611db481611b84565b95506040880135945060608801359350608088013560ff81168114611dd857600080fd5b9699959850939692959460a0840135945060c09093013592915050565b60008060408385031215611e0857600080fd5b8235611e1381611b84565b91506020830135611e2381611b84565b809150509250929050565b600060208284031215611e4057600080fd5b5051919050565b634e487b7160e01b600052601160045260246000fd5b8082018082111561083357610833611e47565b600181811c90821680611e8457607f821691505b602082108103611ea457634e487b7160e01b600052602260045260246000fd5b50919050565b803565ffffffffffff81168114611ec057600080fd5b919050565b81835281816020850137506000828201602090810191909152601f909101601f19169091010190565b60006101006001600160a01b0380881684528635611f0b81611b84565b8181166020860152506020870135611f2281611b84565b818116604086015250611f3760408801611eaa565b65ffffffffffff808216606087015280611f5360608b01611eaa565b16608087015250506080870135611f6981611b84565b81811660a0860152505060a086013560c08401528060e0840152611f908184018587611ec5565b979650505050505050565b8181038181111561083357610833611e47565b600060208284031215611fc057600080fd5b8151611bb681611b8456fea2646970667358221220abaaef412b8c1816bdf63a7a685c151b702270bd9c53670be1b68abdf597bd2264736f6c63430008110033",
  "linkReferences": {},
  "deployedLinkReferences": {}
}