{
  "_format": "hh-sol-artifact-1",
  "contractName": "CygnusCollateralModel",
  "sourceName": "contracts/cygnus-core/CygnusCollateralModel.sol",
  "abi": [
    {
      "inputs": [
        {
          "internalType": "address",
          "name": "sender",
          "type": "address"
        },
        {
          "internalType": "address",
          "name": "origin",
          "type": "address"
        }
      ],
      "name": "CygnusCollateralChef__OnlyEOAAllowed",
      "type": "error"
    },
    {
      "inputs": [
        {
          "internalType": "address",
          "name": "tokenReward",
          "type": "address"
        }
      ],
      "name": "CygnusCollateralChef__VoidAlreadyInitialized",
      "type": "error"
    },
    {
      "inputs": [
        {
          "internalType": "address",
          "name": "currentOracle",
          "type": "address"
        },
        {
          "internalType": "address",
          "name": "newOracle",
          "type": "address"
        }
      ],
      "name": "CygnusCollateralControl__CygnusOracleAlreadySet",
      "type": "error"
    },
    {
      "inputs": [
        {
          "internalType": "uint256",
          "name": "minRange",
          "type": "uint256"
        },
        {
          "internalType": "uint256",
          "name": "maxRange",
          "type": "uint256"
        },
        {
          "internalType": "uint256",
          "name": "value",
          "type": "uint256"
        }
      ],
      "name": "CygnusCollateralControl__ParameterNotInRange",
      "type": "error"
    },
    {
      "inputs": [],
      "name": "CygnusCollateralControl__VoidCantBeZero",
      "type": "error"
    },
    {
      "inputs": [
        {
          "internalType": "address",
          "name": "invalidBorrowable",
          "type": "address"
        },
        {
          "internalType": "address",
          "name": "validBorrowable",
          "type": "address"
        }
      ],
      "name": "CygnusCollateralModel__BorrowableInvalid",
      "type": "error"
    },
    {
      "inputs": [
        {
          "internalType": "address",
          "name": "sender",
          "type": "address"
        },
        {
          "internalType": "address",
          "name": "origin",
          "type": "address"
        }
      ],
      "name": "CygnusCollateralModel__BorrowerCantBeAddressZero",
      "type": "error"
    },
    {
      "inputs": [
        {
          "internalType": "address",
          "name": "sender",
          "type": "address"
        },
        {
          "internalType": "address",
          "name": "origin",
          "type": "address"
        }
      ],
      "name": "CygnusCollateralVoid__NotNativeTokenSender",
      "type": "error"
    },
    {
      "inputs": [
        {
          "internalType": "uint256",
          "name": "",
          "type": "uint256"
        }
      ],
      "name": "CygnusTerminal__CantMintZero",
      "type": "error"
    },
    {
      "inputs": [
        {
          "internalType": "uint256",
          "name": "",
          "type": "uint256"
        }
      ],
      "name": "CygnusTerminal__CantRedeemZero",
      "type": "error"
    },
    {
      "inputs": [
        {
          "internalType": "address",
          "name": "caller",
          "type": "address"
        },
        {
          "internalType": "address",
          "name": "factoryAdmin",
          "type": "address"
        }
      ],
      "name": "CygnusTerminal__MsgSenderNotAdmin",
      "type": "error"
    },
    {
      "inputs": [
        {
          "internalType": "address",
          "name": "",
          "type": "address"
        }
      ],
      "name": "CygnusTerminal__MsgSenderNotFactory",
      "type": "error"
    },
    {
      "inputs": [
        {
          "internalType": "uint256",
          "name": "invalidAmount",
          "type": "uint256"
        },
        {
          "internalType": "uint256",
          "name": "contractBalance",
          "type": "uint256"
        }
      ],
      "name": "CygnusTerminal__RedeemAmountInvalid",
      "type": "error"
    },
    {
      "inputs": [
        {
          "internalType": "uint8",
          "name": "v",
          "type": "uint8"
        },
        {
          "internalType": "bytes32",
          "name": "r",
          "type": "bytes32"
        },
        {
          "internalType": "bytes32",
          "name": "s",
          "type": "bytes32"
        }
      ],
      "name": "Erc20Permit__InvalidSignature",
      "type": "error"
    },
    {
      "inputs": [],
      "name": "Erc20Permit__OwnerZeroAddress",
      "type": "error"
    },
    {
      "inputs": [
        {
          "internalType": "uint256",
          "name": "deadline",
          "type": "uint256"
        }
      ],
      "name": "Erc20Permit__PermitExpired",
      "type": "error"
    },
    {
      "inputs": [],
      "name": "Erc20Permit__RecoveredOwnerZeroAddress",
      "type": "error"
    },
    {
      "inputs": [],
      "name": "Erc20Permit__SpenderZeroAddress",
      "type": "error"
    },
    {
      "inputs": [],
      "name": "Erc20__ApproveOwnerZeroAddress",
      "type": "error"
    },
    {
      "inputs": [],
      "name": "Erc20__ApproveSpenderZeroAddress",
      "type": "error"
    },
    {
      "inputs": [
        {
          "internalType": "uint256",
          "name": "accountBalance",
          "type": "uint256"
        },
        {
          "internalType": "uint256",
          "name": "burnAmount",
          "type": "uint256"
        }
      ],
      "name": "Erc20__BurnUnderflow",
      "type": "error"
    },
    {
      "inputs": [],
      "name": "Erc20__BurnZeroAddress",
      "type": "error"
    },
    {
      "inputs": [
        {
          "internalType": "uint256",
          "name": "allowance",
          "type": "uint256"
        },
        {
          "internalType": "uint256",
          "name": "amount",
          "type": "uint256"
        }
      ],
      "name": "Erc20__InsufficientAllowance",
      "type": "error"
    },
    {
      "inputs": [
        {
          "internalType": "uint256",
          "name": "senderBalance",
          "type": "uint256"
        },
        {
          "internalType": "uint256",
          "name": "amount",
          "type": "uint256"
        }
      ],
      "name": "Erc20__InsufficientBalance",
      "type": "error"
    },
    {
      "inputs": [],
      "name": "Erc20__MintZeroAddress",
      "type": "error"
    },
    {
      "inputs": [],
      "name": "Erc20__TransferRecipientZeroAddress",
      "type": "error"
    },
    {
      "inputs": [],
      "name": "Erc20__TransferSenderZeroAddress",
      "type": "error"
    },
    {
      "inputs": [
        {
          "internalType": "uint256",
          "name": "prod1",
          "type": "uint256"
        }
      ],
      "name": "PRBMath__MulDivFixedPointOverflow",
      "type": "error"
    },
    {
      "inputs": [
        {
          "internalType": "uint256",
          "name": "prod1",
          "type": "uint256"
        },
        {
          "internalType": "uint256",
          "name": "denominator",
          "type": "uint256"
        }
      ],
      "name": "PRBMath__MulDivOverflow",
      "type": "error"
    },
    {
      "inputs": [],
      "name": "ReentrantCall",
      "type": "error"
    },
    {
      "inputs": [
        {
          "internalType": "address",
          "name": "target",
          "type": "address"
        }
      ],
      "name": "SafeErc20__CallToNonContract",
      "type": "error"
    },
    {
      "inputs": [],
      "name": "SafeErc20__NoReturnData",
      "type": "error"
    },
    {
      "anonymous": false,
      "inputs": [
        {
          "indexed": true,
          "internalType": "address",
          "name": "owner",
          "type": "address"
        },
        {
          "indexed": true,
          "internalType": "address",
          "name": "spender",
          "type": "address"
        },
        {
          "indexed": false,
          "internalType": "uint256",
          "name": "amount",
          "type": "uint256"
        }
      ],
      "name": "Approval",
      "type": "event"
    },
    {
      "anonymous": false,
      "inputs": [
        {
          "indexed": false,
          "internalType": "contract IDexRouter02",
          "name": "_dexRouter",
          "type": "address"
        },
        {
          "indexed": false,
          "internalType": "contract IMiniChef",
          "name": "_rewarder",
          "type": "address"
        },
        {
          "indexed": false,
          "internalType": "address",
          "name": "_rewardsToken",
          "type": "address"
        },
        {
          "indexed": false,
          "internalType": "uint256",
          "name": "_pid",
          "type": "uint256"
        },
        {
          "indexed": false,
          "internalType": "uint256",
          "name": "_swapFeeFactor",
          "type": "uint256"
        }
      ],
      "name": "ChargeVoid",
      "type": "event"
    },
    {
      "anonymous": false,
      "inputs": [
        {
          "indexed": true,
          "internalType": "address",
          "name": "sender",
          "type": "address"
        },
        {
          "indexed": true,
          "internalType": "address",
          "name": "minter",
          "type": "address"
        },
        {
          "indexed": false,
          "internalType": "uint256",
          "name": "mintAmount",
          "type": "uint256"
        },
        {
          "indexed": false,
          "internalType": "uint256",
          "name": "poolTokens",
          "type": "uint256"
        }
      ],
      "name": "Mint",
      "type": "event"
    },
    {
      "anonymous": false,
      "inputs": [
        {
          "indexed": false,
          "internalType": "address",
          "name": "oldVoid",
          "type": "address"
        },
        {
          "indexed": false,
          "internalType": "address",
          "name": "newVoid",
          "type": "address"
        }
      ],
      "name": "NewCygnusVoid",
      "type": "event"
    },
    {
      "anonymous": false,
      "inputs": [
        {
          "indexed": false,
          "internalType": "uint256",
          "name": "oldDebtRatio",
          "type": "uint256"
        },
        {
          "indexed": false,
          "internalType": "uint256",
          "name": "newDebtRatio",
          "type": "uint256"
        }
      ],
      "name": "NewDebtRatio",
      "type": "event"
    },
    {
      "anonymous": false,
      "inputs": [
        {
          "indexed": false,
          "internalType": "uint256",
          "name": "oldLiquidationFee",
          "type": "uint256"
        },
        {
          "indexed": false,
          "internalType": "uint256",
          "name": "newLiquidationFee",
          "type": "uint256"
        }
      ],
      "name": "NewLiquidationFee",
      "type": "event"
    },
    {
      "anonymous": false,
      "inputs": [
        {
          "indexed": false,
          "internalType": "uint256",
          "name": "oldLiquidationIncentive",
          "type": "uint256"
        },
        {
          "indexed": false,
          "internalType": "uint256",
          "name": "newLiquidationIncentive",
          "type": "uint256"
        }
      ],
      "name": "NewLiquidationIncentive",
      "type": "event"
    },
    {
      "anonymous": false,
      "inputs": [
        {
          "indexed": false,
          "internalType": "contract IChainlinkNebulaOracle",
          "name": "oldPriceOracle",
          "type": "address"
        },
        {
          "indexed": false,
          "internalType": "contract IChainlinkNebulaOracle",
          "name": "newPriceOracle",
          "type": "address"
        }
      ],
      "name": "NewPriceOracle",
      "type": "event"
    },
    {
      "anonymous": false,
      "inputs": [
        {
          "indexed": true,
          "internalType": "address",
          "name": "shuttle",
          "type": "address"
        },
        {
          "indexed": false,
          "internalType": "address",
          "name": "reinvestor",
          "type": "address"
        },
        {
          "indexed": false,
          "internalType": "uint256",
          "name": "rewardBalance",
          "type": "uint256"
        },
        {
          "indexed": false,
          "internalType": "uint256",
          "name": "reinvestReward",
          "type": "uint256"
        }
      ],
      "name": "RechargeVoid",
      "type": "event"
    },
    {
      "anonymous": false,
      "inputs": [
        {
          "indexed": true,
          "internalType": "address",
          "name": "sender",
          "type": "address"
        },
        {
          "indexed": true,
          "internalType": "address",
          "name": "redeemer",
          "type": "address"
        },
        {
          "indexed": false,
          "internalType": "uint256",
          "name": "redeemAmount",
          "type": "uint256"
        },
        {
          "indexed": false,
          "internalType": "uint256",
          "name": "poolTokens",
          "type": "uint256"
        }
      ],
      "name": "Redeem",
      "type": "event"
    },
    {
      "anonymous": false,
      "inputs": [
        {
          "indexed": false,
          "internalType": "uint256",
          "name": "totalBalance",
          "type": "uint256"
        }
      ],
      "name": "Sync",
      "type": "event"
    },
    {
      "anonymous": false,
      "inputs": [
        {
          "indexed": true,
          "internalType": "address",
          "name": "from",
          "type": "address"
        },
        {
          "indexed": true,
          "internalType": "address",
          "name": "to",
          "type": "address"
        },
        {
          "indexed": false,
          "internalType": "uint256",
          "name": "amount",
          "type": "uint256"
        }
      ],
      "name": "Transfer",
      "type": "event"
    },
    {
      "inputs": [],
      "name": "DEBT_RATIO_MAX",
      "outputs": [
        {
          "internalType": "uint256",
          "name": "",
          "type": "uint256"
        }
      ],
      "stateMutability": "view",
      "type": "function"
    },
    {
      "inputs": [],
      "name": "DEBT_RATIO_MIN",
      "outputs": [
        {
          "internalType": "uint256",
          "name": "",
          "type": "uint256"
        }
      ],
      "stateMutability": "view",
      "type": "function"
    },
    {
      "inputs": [],
      "name": "DOMAIN_SEPARATOR",
      "outputs": [
        {
          "internalType": "bytes32",
          "name": "",
          "type": "bytes32"
        }
      ],
      "stateMutability": "view",
      "type": "function"
    },
    {
      "inputs": [],
      "name": "LIQUIDATION_FEE_MAX",
      "outputs": [
        {
          "internalType": "uint256",
          "name": "",
          "type": "uint256"
        }
      ],
      "stateMutability": "view",
      "type": "function"
    },
    {
      "inputs": [],
      "name": "LIQUIDATION_INCENTIVE_MAX",
      "outputs": [
        {
          "internalType": "uint256",
          "name": "",
          "type": "uint256"
        }
      ],
      "stateMutability": "view",
      "type": "function"
    },
    {
      "inputs": [],
      "name": "LIQUIDATION_INCENTIVE_MIN",
      "outputs": [
        {
          "internalType": "uint256",
          "name": "",
          "type": "uint256"
        }
      ],
      "stateMutability": "view",
      "type": "function"
    },
    {
      "inputs": [],
      "name": "PERMIT_TYPEHASH",
      "outputs": [
        {
          "internalType": "bytes32",
          "name": "",
          "type": "bytes32"
        }
      ],
      "stateMutability": "view",
      "type": "function"
    },
    {
      "inputs": [],
      "name": "REINVEST_REWARD",
      "outputs": [
        {
          "internalType": "uint256",
          "name": "",
          "type": "uint256"
        }
      ],
      "stateMutability": "view",
      "type": "function"
    },
    {
      "inputs": [
        {
          "internalType": "address",
          "name": "owner",
          "type": "address"
        },
        {
          "internalType": "address",
          "name": "spender",
          "type": "address"
        }
      ],
      "name": "allowance",
      "outputs": [
        {
          "internalType": "uint256",
          "name": "",
          "type": "uint256"
        }
      ],
      "stateMutability": "view",
      "type": "function"
    },
    {
      "inputs": [
        {
          "internalType": "address",
          "name": "spender",
          "type": "address"
        },
        {
          "internalType": "uint256",
          "name": "amount",
          "type": "uint256"
        }
      ],
      "name": "approve",
      "outputs": [
        {
          "internalType": "bool",
          "name": "",
          "type": "bool"
        }
      ],
      "stateMutability": "nonpayable",
      "type": "function"
    },
    {
      "inputs": [
        {
          "internalType": "address",
          "name": "account",
          "type": "address"
        }
      ],
      "name": "balanceOf",
      "outputs": [
        {
          "internalType": "uint256",
          "name": "",
          "type": "uint256"
        }
      ],
      "stateMutability": "view",
      "type": "function"
    },
    {
      "inputs": [
        {
          "internalType": "address",
          "name": "borrower",
          "type": "address"
        },
        {
          "internalType": "address",
          "name": "borrowableToken",
          "type": "address"
        },
        {
          "internalType": "uint256",
          "name": "accountBorrows",
          "type": "uint256"
        }
      ],
      "name": "canBorrow_J2u",
      "outputs": [
        {
          "internalType": "bool",
          "name": "",
          "type": "bool"
        }
      ],
      "stateMutability": "view",
      "type": "function"
    },
    {
      "inputs": [],
      "name": "chainId",
      "outputs": [
        {
          "internalType": "uint256",
          "name": "",
          "type": "uint256"
        }
      ],
      "stateMutability": "view",
      "type": "function"
    },
    {
      "inputs": [],
      "name": "cygnusDai",
      "outputs": [
        {
          "internalType": "address",
          "name": "",
          "type": "address"
        }
      ],
      "stateMutability": "view",
      "type": "function"
    },
    {
      "inputs": [],
      "name": "cygnusNebulaOracle",
      "outputs": [
        {
          "internalType": "contract IChainlinkNebulaOracle",
          "name": "",
          "type": "address"
        }
      ],
      "stateMutability": "view",
      "type": "function"
    },
    {
      "inputs": [],
      "name": "debtRatio",
      "outputs": [
        {
          "internalType": "uint256",
          "name": "",
          "type": "uint256"
        }
      ],
      "stateMutability": "view",
      "type": "function"
    },
    {
      "inputs": [],
      "name": "decimals",
      "outputs": [
        {
          "internalType": "uint8",
          "name": "",
          "type": "uint8"
        }
      ],
      "stateMutability": "view",
      "type": "function"
    },
    {
      "inputs": [
        {
          "internalType": "address",
          "name": "spender",
          "type": "address"
        },
        {
          "internalType": "uint256",
          "name": "subtractedAmount",
          "type": "uint256"
        }
      ],
      "name": "decreaseAllowance",
      "outputs": [
        {
          "internalType": "bool",
          "name": "",
          "type": "bool"
        }
      ],
      "stateMutability": "nonpayable",
      "type": "function"
    },
    {
      "inputs": [],
      "name": "exchangeRate",
      "outputs": [
        {
          "internalType": "uint256",
          "name": "",
          "type": "uint256"
        }
      ],
      "stateMutability": "view",
      "type": "function"
    },
    {
      "inputs": [
        {
          "internalType": "address",
          "name": "borrower",
          "type": "address"
        }
      ],
      "name": "getAccountLiquidity",
      "outputs": [
        {
          "internalType": "uint256",
          "name": "liquidity",
          "type": "uint256"
        },
        {
          "internalType": "uint256",
          "name": "shortfall",
          "type": "uint256"
        }
      ],
      "stateMutability": "view",
      "type": "function"
    },
    {
      "inputs": [],
      "name": "getCygnusVoid",
      "outputs": [
        {
          "internalType": "contract IMiniChef",
          "name": "rewarder_",
          "type": "address"
        },
        {
          "internalType": "uint256",
          "name": "pid_",
          "type": "uint256"
        },
        {
          "internalType": "bool",
          "name": "voidActivated_",
          "type": "bool"
        },
        {
          "internalType": "address",
          "name": "rewardsToken_",
          "type": "address"
        },
        {
          "internalType": "uint256",
          "name": "dexSwapFee_",
          "type": "uint256"
        },
        {
          "internalType": "contract IDexRouter02",
          "name": "dexRouter_",
          "type": "address"
        }
      ],
      "stateMutability": "view",
      "type": "function"
    },
    {
      "inputs": [
        {
          "internalType": "address",
          "name": "borrower",
          "type": "address"
        }
      ],
      "name": "getDebtRatio",
      "outputs": [
        {
          "internalType": "uint256",
          "name": "",
          "type": "uint256"
        }
      ],
      "stateMutability": "view",
      "type": "function"
    },
    {
      "inputs": [],
      "name": "getLPTokenPrice",
      "outputs": [
        {
          "internalType": "uint256",
          "name": "",
          "type": "uint256"
        }
      ],
      "stateMutability": "view",
      "type": "function"
    },
    {
      "inputs": [],
      "name": "hangar18",
      "outputs": [
        {
          "internalType": "address",
          "name": "",
          "type": "address"
        }
      ],
      "stateMutability": "view",
      "type": "function"
    },
    {
      "inputs": [
        {
          "internalType": "address",
          "name": "spender",
          "type": "address"
        },
        {
          "internalType": "uint256",
          "name": "addedAmount",
          "type": "uint256"
        }
      ],
      "name": "increaseAllowance",
      "outputs": [
        {
          "internalType": "bool",
          "name": "",
          "type": "bool"
        }
      ],
      "stateMutability": "nonpayable",
      "type": "function"
    },
    {
      "inputs": [
        {
          "internalType": "contract IDexRouter02",
          "name": "dexRouterVoid",
          "type": "address"
        },
        {
          "internalType": "contract IMiniChef",
          "name": "rewarderVoid",
          "type": "address"
        },
        {
          "internalType": "address",
          "name": "rewardsTokenVoid",
          "type": "address"
        },
        {
          "internalType": "uint256",
          "name": "pidVoid",
          "type": "uint256"
        },
        {
          "internalType": "uint256",
          "name": "dexSwapFeeVoid",
          "type": "uint256"
        }
      ],
      "name": "initializeVoid",
      "outputs": [],
      "stateMutability": "nonpayable",
      "type": "function"
    },
    {
      "inputs": [],
      "name": "liquidationFee",
      "outputs": [
        {
          "internalType": "uint256",
          "name": "",
          "type": "uint256"
        }
      ],
      "stateMutability": "view",
      "type": "function"
    },
    {
      "inputs": [],
      "name": "liquidationIncentive",
      "outputs": [
        {
          "internalType": "uint256",
          "name": "",
          "type": "uint256"
        }
      ],
      "stateMutability": "view",
      "type": "function"
    },
    {
      "inputs": [
        {
          "internalType": "address",
          "name": "minter",
          "type": "address"
        }
      ],
      "name": "mint",
      "outputs": [
        {
          "internalType": "uint256",
          "name": "cygnusMintTokens",
          "type": "uint256"
        }
      ],
      "stateMutability": "nonpayable",
      "type": "function"
    },
    {
      "inputs": [],
      "name": "name",
      "outputs": [
        {
          "internalType": "string",
          "name": "",
          "type": "string"
        }
      ],
      "stateMutability": "view",
      "type": "function"
    },
    {
      "inputs": [
        {
          "internalType": "address",
          "name": "",
          "type": "address"
        }
      ],
      "name": "nonces",
      "outputs": [
        {
          "internalType": "uint256",
          "name": "",
          "type": "uint256"
        }
      ],
      "stateMutability": "view",
      "type": "function"
    },
    {
      "inputs": [
        {
          "internalType": "address",
          "name": "owner",
          "type": "address"
        },
        {
          "internalType": "address",
          "name": "spender",
          "type": "address"
        },
        {
          "internalType": "uint256",
          "name": "value",
          "type": "uint256"
        },
        {
          "internalType": "uint256",
          "name": "deadline",
          "type": "uint256"
        },
        {
          "internalType": "uint8",
          "name": "v",
          "type": "uint8"
        },
        {
          "internalType": "bytes32",
          "name": "r",
          "type": "bytes32"
        },
        {
          "internalType": "bytes32",
          "name": "s",
          "type": "bytes32"
        }
      ],
      "name": "permit",
      "outputs": [],
      "stateMutability": "nonpayable",
      "type": "function"
    },
    {
      "inputs": [
        {
          "internalType": "address",
          "name": "holder",
          "type": "address"
        }
      ],
      "name": "redeem",
      "outputs": [
        {
          "internalType": "uint256",
          "name": "redeemAmount",
          "type": "uint256"
        }
      ],
      "stateMutability": "nonpayable",
      "type": "function"
    },
    {
      "inputs": [],
      "name": "reinvestRewards",
      "outputs": [],
      "stateMutability": "nonpayable",
      "type": "function"
    },
    {
      "inputs": [
        {
          "internalType": "uint256",
          "name": "newDebtRatio",
          "type": "uint256"
        }
      ],
      "name": "setDebtRatio",
      "outputs": [],
      "stateMutability": "nonpayable",
      "type": "function"
    },
    {
      "inputs": [
        {
          "internalType": "uint256",
          "name": "newLiquidationFee",
          "type": "uint256"
        }
      ],
      "name": "setLiquidationFee",
      "outputs": [],
      "stateMutability": "nonpayable",
      "type": "function"
    },
    {
      "inputs": [
        {
          "internalType": "uint256",
          "name": "newLiquidationIncentive",
          "type": "uint256"
        }
      ],
      "name": "setLiquidationIncentive",
      "outputs": [],
      "stateMutability": "nonpayable",
      "type": "function"
    },
    {
      "inputs": [],
      "name": "setNebulaOracle",
      "outputs": [],
      "stateMutability": "nonpayable",
      "type": "function"
    },
    {
      "inputs": [
        {
          "internalType": "address",
          "name": "recipient",
          "type": "address"
        }
      ],
      "name": "skim",
      "outputs": [],
      "stateMutability": "nonpayable",
      "type": "function"
    },
    {
      "inputs": [],
      "name": "symbol",
      "outputs": [
        {
          "internalType": "string",
          "name": "",
          "type": "string"
        }
      ],
      "stateMutability": "view",
      "type": "function"
    },
    {
      "inputs": [],
      "name": "sync",
      "outputs": [],
      "stateMutability": "nonpayable",
      "type": "function"
    },
    {
      "inputs": [],
      "name": "totalBalance",
      "outputs": [
        {
          "internalType": "uint256",
          "name": "",
          "type": "uint256"
        }
      ],
      "stateMutability": "view",
      "type": "function"
    },
    {
      "inputs": [],
      "name": "totalSupply",
      "outputs": [
        {
          "internalType": "uint256",
          "name": "",
          "type": "uint256"
        }
      ],
      "stateMutability": "view",
      "type": "function"
    },
    {
      "inputs": [
        {
          "internalType": "address",
          "name": "recipient",
          "type": "address"
        },
        {
          "internalType": "uint256",
          "name": "amount",
          "type": "uint256"
        }
      ],
      "name": "transfer",
      "outputs": [
        {
          "internalType": "bool",
          "name": "",
          "type": "bool"
        }
      ],
      "stateMutability": "nonpayable",
      "type": "function"
    },
    {
      "inputs": [
        {
          "internalType": "address",
          "name": "sender",
          "type": "address"
        },
        {
          "internalType": "address",
          "name": "recipient",
          "type": "address"
        },
        {
          "internalType": "uint256",
          "name": "amount",
          "type": "uint256"
        }
      ],
      "name": "transferFrom",
      "outputs": [
        {
          "internalType": "bool",
          "name": "",
          "type": "bool"
        }
      ],
      "stateMutability": "nonpayable",
      "type": "function"
    },
    {
      "inputs": [],
      "name": "underlying",
      "outputs": [
        {
          "internalType": "address",
          "name": "",
          "type": "address"
        }
      ],
      "stateMutability": "view",
      "type": "function"
    },
    {
      "inputs": [],
      "name": "version",
      "outputs": [
        {
          "internalType": "string",
          "name": "",
          "type": "string"
        }
      ],
      "stateMutability": "view",
      "type": "function"
    },
    {
      "stateMutability": "payable",
      "type": "receive"
    }
  ],
  "bytecode": "0x61014060405246600755670c7d713b49da0000600f55670e92596fd62900006010553480156200002e57600080fd5b5060408051808201825260128082527110de59db9d5cce8810dbdb1b185d195c985b60721b60208084019182528451808601909552600585526404379674c560dc1b908501526000805460ff191660019081179091558351939493859285928592859285928592620000a19290620006f1565b508151620000b7906002906020850190620006f1565b5060f81b7fff000000000000000000000000000000000000000000000000000000000000001660805250506040517f8b73c3c69bb8fe3d512ecc4cf759cc79239f7b179b0ffacaa9a75d522b39400f906200011590600190620008c4565b60408051918290038220828201825260018352603160f81b602093840152600754825193840194909452908201527fc89efdaa54c0f20c7adf612882df0950f5a951637e0307cdcb4c672f298b8bc6606082015260808101919091523060a082015260c00160408051601f19818403018152919052805160209091012060a05250620001a7945050620004dc92505050565b6001600160a01b031663c3bc64ea6040518163ffffffff1660e01b8152600401606060405180830381600087803b158015620001e257600080fd5b505af1158015620001f7573d6000803e3d6000fd5b505050506040513d601f19601f820116820180604052508101906200021d9190620007bd565b60601b6001600160601b03191660c052600c80546001600160a01b03199081166001600160a01b0393841617909155600d805490911692909116918217905560408051636c9adec960e11b8152905163d935bd9291600480820192602092909190829003018186803b1580156200029357600080fd5b505afa158015620002a8573d6000803e3d6000fd5b505050506040513d601f19601f82011682018060405250810190620002ce919062000797565b600e80546001600160a01b0319166001600160a01b03928316179055600c54620003059116620004e0602090811b620020c017901c565b80516200031b91600291602090910190620006f1565b506000600355600c5460408051630dfe168160e01b815290516001600160a01b0390921691630dfe168191600480820192602092909190829003018186803b1580156200036757600080fd5b505afa1580156200037c573d6000803e3d6000fd5b505050506040513d601f19601f82011682018060405250810190620003a2919062000797565b60601b6001600160601b03191661010052600c546040805163d21220a760e01b815290516001600160a01b039092169163d21220a791600480820192602092909190829003018186803b158015620003f957600080fd5b505afa1580156200040e573d6000803e3d6000fd5b505050506040513d601f19601f8201168201806040525081019062000434919062000797565b60601b6001600160601b03191661012052600d5460408051631c2eb17b60e31b815290516001600160a01b039092169163e1758bd891600480820192602092909190829003018186803b1580156200048b57600080fd5b505afa158015620004a0573d6000803e3d6000fd5b505050506040513d601f19601f82011682018060405250810190620004c6919062000797565b60601b6001600160601b03191660e05262000a58565b3390565b60606000826001600160a01b0316630dfe16816040518163ffffffff1660e01b815260040160206040518083038186803b1580156200051e57600080fd5b505afa15801562000533573d6000803e3d6000fd5b505050506040513d601f19601f8201168201806040525081019062000559919062000797565b6001600160a01b03166395d89b416040518163ffffffff1660e01b815260040160006040518083038186803b1580156200059257600080fd5b505afa158015620005a7573d6000803e3d6000fd5b505050506040513d6000823e601f3d908101601f19168201604052620005d1919081019062000810565b90506000836001600160a01b031663d21220a76040518163ffffffff1660e01b815260040160206040518083038186803b1580156200060f57600080fd5b505afa15801562000624573d6000803e3d6000fd5b505050506040513d601f19601f820116820180604052508101906200064a919062000797565b6001600160a01b03166395d89b416040518163ffffffff1660e01b815260040160006040518083038186803b1580156200068357600080fd5b505afa15801562000698573d6000803e3d6000fd5b505050506040513d6000823e601f3d908101601f19168201604052620006c2919081019062000810565b90508181604051602001620006d992919062000967565b60405160208183030381529060405292505050919050565b828054620006ff90620009ec565b90600052602060002090601f0160209004810192826200072357600085556200076e565b82601f106200073e57805160ff19168380011785556200076e565b828001600101855582156200076e579182015b828111156200076e57825182559160200191906001019062000751565b506200077c92915062000780565b5090565b5b808211156200077c576000815560010162000781565b600060208284031215620007a9578081fd5b8151620007b68162000a3f565b9392505050565b600080600060608486031215620007d2578182fd5b8351620007df8162000a3f565b6020850151909350620007f28162000a3f565b6040850151909250620008058162000a3f565b809150509250925092565b60006020828403121562000822578081fd5b81516001600160401b038082111562000839578283fd5b818401915084601f8301126200084d578283fd5b81518181111562000862576200086262000a29565b604051601f8201601f19908116603f011681019083821181831017156200088d576200088d62000a29565b81604052828152876020848701011115620008a6578586fd5b620008b9836020830160208801620009b9565b979650505050505050565b600080835482600182811c915080831680620008e157607f831692505b60208084108214156200090257634e487b7160e01b87526022600452602487fd5b8180156200091957600181146200092b5762000959565b60ff1986168952848901965062000959565b60008a815260209020885b86811015620009515781548b82015290850190830162000936565b505084890196505b509498975050505050505050565b65021bcb3a628160d51b8152600083516200098a816006850160208801620009b9565b602f60f81b6006918401918201528351620009ad816007840160208801620009b9565b01600701949350505050565b60005b83811015620009d6578181015183820152602001620009bc565b83811115620009e6576000848401525b50505050565b600181811c9082168062000a0157607f821691505b6020821081141562000a2357634e487b7160e01b600052602260045260246000fd5b50919050565b634e487b7160e01b600052604160045260246000fd5b6001600160a01b038116811462000a5557600080fd5b50565b60805160f81c60a05160c05160601c60e05160601c6101005160601c6101205160601c613d8b62000b7460003960008181611746015281816117b1015281816118190152818161190a015281816119940152611a7601526000818161170e0152818161177e015281816117d2015281816117f8015281816118af01528181611965015281816119b5015281816119ff01528181611a530152611b5e01526000818161031301528181610cb40152818161185501528181611885015281816118e00152818161193b015281816119de01528181611a230152612c9901526000818161086901528181610a7201528181611061015281816110b201526126ed0152600081816105900152611e430152600061052e0152613d8b6000f3fe60806040526004361061030c5760003560e01c80637ecebe001161019a578063b5f4d38c116100e1578063d935bd921161008a578063eb6a887d11610064578063eb6a887d146109b4578063fef0bec8146109d4578063fff6cae9146109f457600080fd5b8063d935bd921461092e578063dd62ed3e1461094e578063e8a24e1d1461099457600080fd5b8063cea55f57116100bb578063cea55f57146108f8578063cf85c882146108dc578063d505accf1461090e57600080fd5b8063b5f4d38c146108a7578063bc25cf77146108bc578063bc9bd12a146108dc57600080fd5b8063a457c2d711610143578063ad7a672f1161011d578063ad7a672f14610841578063adbb259714610857578063afc8276c1461088b57600080fd5b8063a457c2d7146107e1578063a843108114610801578063a9059cbb1461082157600080fd5b806395d89b411161017457806395d89b41146107a05780639a8a0592146107b5578063a36a3630146107cb57600080fd5b80637ecebe001461073d5780638c765e941461076a57806395a2251f1461078057600080fd5b80633644e5151161025e57806358654e0f116102075780636a627842116101e15780636a627842146106af5780636f307dc3146106cf57806370a082311461070757600080fd5b806358654e0f1461063e5780635ec88c791461065e578063643211f21461069357600080fd5b8063421f0fcc11610238578063421f0fcc146105e757806351303622146105fc57806354fd4d501461061157600080fd5b80633644e5151461057e57806339509351146105b25780633ba0b9a9146105d257600080fd5b80631995bc1a116102c057806330adf81f1161029a57806330adf81f146104e8578063313ce5671461051c57806333fabfd11461056257600080fd5b80631995bc1a146104495780631c198188146104ad57806323b872dd146104c857600080fd5b8063095ea7b3116102f1578063095ea7b3146103e157806315b02cf51461041157806318160ddd1461043357600080fd5b8063031a5c821461038c57806306fdde03146103bf57600080fd5b36610387577f00000000000000000000000000000000000000000000000000000000000000006001600160a01b031663d0e30db0346040518263ffffffff1660e01b81526004016000604051808303818588803b15801561036c57600080fd5b505af1158015610380573d6000803e3d6000fd5b5050505050005b600080fd5b34801561039857600080fd5b506103ac6103a7366004613689565b610a09565b6040519081526020015b60405180910390f35b3480156103cb57600080fd5b506103d4610b34565b6040516103b69190613b67565b3480156103ed57600080fd5b506104016103fc3660046137ae565b610bc2565b60405190151581526020016103b6565b34801561041d57600080fd5b5061043161042c366004613951565b610bd9565b005b34801561043f57600080fd5b506103ac60035481565b34801561045557600080fd5b50600854600954600a54601254601454601354604080516001600160a01b039788168152602081019690965260ff909416151593850193909352908416606084015260808301529190911660a082015260c0016103b6565b3480156104b957600080fd5b506103ac6658d15e1762800081565b3480156104d457600080fd5b506104016104e33660046136f9565b610d71565b3480156104f457600080fd5b506103ac7f6e71edae12b1b97f4d1f60370fef10105fa2faae0126114a169c64845d6126c981565b34801561052857600080fd5b506105507f000000000000000000000000000000000000000000000000000000000000000081565b60405160ff90911681526020016103b6565b34801561056e57600080fd5b506103ac67016345785d8a000081565b34801561058a57600080fd5b506103ac7f000000000000000000000000000000000000000000000000000000000000000081565b3480156105be57600080fd5b506104016105cd3660046137ae565b610de7565b3480156105de57600080fd5b506103ac610e2f565b3480156105f357600080fd5b50610431610e5d565b34801561060857600080fd5b506103ac610fd4565b34801561061d57600080fd5b506103d4604051806040016040528060018152602001603160f81b81525081565b34801561064a57600080fd5b506104016106593660046136f9565b61105d565b34801561066a57600080fd5b5061067e610679366004613689565b61111f565b604080519283526020830191909152016103b6565b34801561069f57600080fd5b506103ac6706f05b59d3b2000081565b3480156106bb57600080fd5b506103ac6106ca366004613689565b611137565b3480156106db57600080fd5b50600c546106ef906001600160a01b031681565b6040516001600160a01b0390911681526020016103b6565b34801561071357600080fd5b506103ac610722366004613689565b6001600160a01b031660009081526004602052604090205490565b34801561074957600080fd5b506103ac610758366004613689565b60066020526000908152604090205481565b34801561077657600080fd5b506103ac60105481565b34801561078c57600080fd5b506103ac61079b366004613689565b611431565b3480156107ac57600080fd5b506103d46115b3565b3480156107c157600080fd5b506103ac60075481565b3480156107d757600080fd5b506103ac60115481565b3480156107ed57600080fd5b506104016107fc3660046137ae565b6115c0565b34801561080d57600080fd5b5061043161081c366004613a7d565b6115f1565b34801561082d57600080fd5b5061040161083c3660046137ae565b61167f565b34801561084d57600080fd5b506103ac600b5481565b34801561086357600080fd5b506106ef7f000000000000000000000000000000000000000000000000000000000000000081565b34801561089757600080fd5b506103ac6710a741a46278000081565b3480156108b357600080fd5b5061043161168c565b3480156108c857600080fd5b506104316108d7366004613689565b611cc9565b3480156108e857600080fd5b506103ac670de0b6b3a764000081565b34801561090457600080fd5b506103ac600f5481565b34801561091a57600080fd5b50610431610929366004613739565b611d3a565b34801561093a57600080fd5b50600e546106ef906001600160a01b031681565b34801561095a57600080fd5b506103ac6109693660046136c1565b6001600160a01b03918216600090815260056020908152604080832093909416825291909152205490565b3480156109a057600080fd5b50600d546106ef906001600160a01b031681565b3480156109c057600080fd5b506104316109cf366004613a7d565b611f77565b3480156109e057600080fd5b506104316109ef366004613a7d565b612005565b348015610a0057600080fd5b5061043161208b565b600080610a37610a17610e2f565b6001600160a01b0385166000908152600460205260409020545b906122bf565b90506000610a4d610a46610fd4565b83906122bf565b604051637d6af07960e01b81526001600160a01b0386811660048301529192506000917f00000000000000000000000000000000000000000000000000000000000000001690637d6af0799060240160206040518083038186803b158015610ab457600080fd5b505afa158015610ac8573d6000803e3d6000fd5b505050506040513d601f19601f82011682018060405250810190610aec9190613a95565b90506000610b03601154601054610a469190613c3b565b90508215610b2757600f54610b2290610b1c83866122cb565b906122cb565b610b2a565b60005b9695505050505050565b60018054610b4190613cd9565b80601f0160208091040260200160405190810160405280929190818152602001828054610b6d90613cd9565b8015610bba5780601f10610b8f57610100808354040283529160200191610bba565b820191906000526020600020905b815481529060010190602001808311610b9d57829003601f168201915b505050505081565b6000610bcf3384846122e0565b5060015b92915050565b60005460ff16610bfc576040516306fda65d60e31b815260040160405180910390fd5b6000805460ff19169055610c0e61238f565b6012546001600160a01b031615610c48576040516327d04a1160e01b81526001600160a01b03841660048201526024015b60405180910390fd5b601380546001600160a01b0380881673ffffffffffffffffffffffffffffffffffffffff19928316179092556008805487841690831617905560098490556012805492861692909116821790556014829055610ca7908660001961244b565b610cdd6001600160a01b037f0000000000000000000000000000000000000000000000000000000000000000168660001961244b565b600c54610cf6906001600160a01b03168560001961244b565b600a805460ff19166001179055604080516001600160a01b0387811682528681166020830152851681830152606081018490526080810183905290517fd11ba4f3abfc78cb044532e87016a0c93a03fbbb5049a35d53fb1238d9ac66529160a0908290030190a150506000805460ff19166001179055505050565b6000610d7e848484612566565b6001600160a01b038416600090815260056020908152604080832033845290915290205482811015610dcd57604051632b3ca6f360e11b81526004810182905260248101849052604401610c3f565b610dda85338584036122e0565b60019150505b9392505050565b3360009081526005602090815260408083206001600160a01b03861684529091528120548190610e18908490613c3b565b9050610e253385836122e0565b5060019392505050565b6003546000908015610e4d57600b54610e4890826122cb565b610e57565b670de0b6b3a76400005b91505090565b610e6561238f565b60005460ff16610e88576040516306fda65d60e31b815260040160405180910390fd5b6000805460ff19168155600d5460408051636c9adec960e11b815290516001600160a01b039092169163d935bd9291600480820192602092909190829003018186803b158015610ed757600080fd5b505afa158015610eeb573d6000803e3d6000fd5b505050506040513d601f19601f82011682018060405250810190610f0f91906136a5565b600e549091506001600160a01b0380831691161415610f5857600e54604051637a4ec46360e01b81526001600160a01b0391821660048201529082166024820152604401610c3f565b600e80546001600160a01b0383811673ffffffffffffffffffffffffffffffffffffffff1983168117909355604080519190921680825260208201939093527fd52b2b9b7e9ee655fcb95d2e5b9e0c9f69e7ef2b8e9d2d0ea78402d576d22e2291015b60405180910390a150506000805460ff19166001179055565b600e54600c54604051633a08ab8b60e01b81526001600160a01b0391821660048201526000929190911690633a08ab8b9060240160206040518083038186803b15801561102057600080fd5b505afa158015611034573d6000803e3d6000fd5b505050506040513d601f19601f820116820180604052508101906110589190613a95565b905090565b60007f00000000000000000000000000000000000000000000000000000000000000006001600160a01b03848116908216146110df5760405163d06d9b9360e01b81526001600160a01b0380861660048301527f0000000000000000000000000000000000000000000000000000000000000000166024820152604401610c3f565b6000816001600160a01b0316856001600160a01b03161461110257600019611104565b835b905060006111128783612689565b1598975050505050505050565b60008061112e83600019612689565b91509150915091565b6000805460ff1661115b576040516306fda65d60e31b815260040160405180910390fd5b6000805460ff19168155600c546040516370a0823160e01b81523060048201526001600160a01b03909116906370a082319060240160206040518083038186803b1580156111a857600080fd5b505afa1580156111bc573d6000803e3d6000fd5b505050506040513d601f19601f820116820180604052508101906111e09190613a95565b600a5490915060ff161561137d576008546009546040516393f1a40b60e01b815260048101919091523060248201526000916001600160a01b0316906393f1a40b90604401604080518083038186803b15801561123c57600080fd5b505afa158015611250573d6000803e3d6000fd5b505050506040513d601f19601f820116820180604052508101906112749190613aad565b50600854600954604051631c57762b60e31b81526004810191909152602481018590529192506001600160a01b03169063e2bbb15890604401600060405180830381600087803b1580156112c757600080fd5b505af11580156112db573d6000803e3d6000fd5b50506008546009546040516393f1a40b60e01b81526004810191909152306024820152600093506001600160a01b0390911691506393f1a40b90604401604080518083038186803b15801561132f57600080fd5b505afa158015611343573d6000803e3d6000fd5b505050506040513d601f19601f820116820180604052508101906113679190613aad565b5090506113748282613c92565b9250505061138d565b600b5461138a9082613c92565b90505b61139f611398610e2f565b82906122cb565b9150600082116113c55760405163cd698f4d60e01b815260048101839052602401610c3f565b6113cf83836127ae565b60408051828152602081018490526001600160a01b0385169133917f2f00e3cdd69a77be7ed215ec7b2a36784dd158f921fca79ac29deffa353fe6ee91015b60405180910390a35061141f612861565b6000805460ff19166001179055919050565b6000805460ff16611455576040516306fda65d60e31b815260040160405180910390fd5b6000805460ff191681553081526004602052604090205461147e611477610e2f565b82906122bf565b9150600082116114a4576040516319f4fb4360e31b815260048101839052602401610c3f565b600b548211156114d557600b546040516339eff09f60e11b8152610c3f918491600401918252602082015260400190565b6114df308261292e565b600a5460ff161561155957600854600954604051630441a3e760e41b81526001600160a01b039092169163441a3e7091611526918690600401918252602082015260400190565b600060405180830381600087803b15801561154057600080fd5b505af1158015611554573d6000803e3d6000fd5b505050505b600c54611570906001600160a01b031684846129d9565b60408051838152602081018390526001600160a01b0385169133917f3f693fff038bb8a046aa76d9516190ac7444f7d69cf952c4cbdc086fdef2d6fc910161140e565b60028054610b4190613cd9565b3360009081526005602090815260408083206001600160a01b03861684529091528120548190610e18908490613c92565b6115f961238f565b60005460ff1661161c576040516306fda65d60e31b815260040160405180910390fd5b6000805460ff19169055611641670de0b6b3a76400006710a741a46278000083612a30565b601080549082905560408051828152602081018490527faeba5a6c40a8ac138134bff1aaa65debf25971188a58804bad717f82f0ec13169101610fbb565b6000610bcf338484612566565b60005460ff166116af576040516306fda65d60e31b815260040160405180910390fd5b6000805460ff191690556116c1612a6b565b60006116cb612a93565b9050806116d85750611cb2565b60006116eb826658d15e176280006122bf565b9050611704336012546001600160a01b031690836129d9565b60125460009081907f00000000000000000000000000000000000000000000000000000000000000006001600160a01b039081169116148061177457506012547f00000000000000000000000000000000000000000000000000000000000000006001600160a01b039081169116145b15611843576012547f00000000000000000000000000000000000000000000000000000000000000006001600160a01b039081169116146117f6577f00000000000000000000000000000000000000000000000000000000000000007f0000000000000000000000000000000000000000000000000000000000000000611839565b7f00000000000000000000000000000000000000000000000000000000000000007f00000000000000000000000000000000000000000000000000000000000000005b9092509050611a96565b601254611883906001600160a01b03167f000000000000000000000000000000000000000000000000000000000000000061187e8688613c92565b612d08565b7f00000000000000000000000000000000000000000000000000000000000000006001600160a01b03167f00000000000000000000000000000000000000000000000000000000000000006001600160a01b0316148061193457507f00000000000000000000000000000000000000000000000000000000000000006001600160a01b03167f00000000000000000000000000000000000000000000000000000000000000006001600160a01b0316145b156119d9577f00000000000000000000000000000000000000000000000000000000000000006001600160a01b03167f00000000000000000000000000000000000000000000000000000000000000006001600160a01b0316146117f6577f00000000000000000000000000000000000000000000000000000000000000007f0000000000000000000000000000000000000000000000000000000000000000611839565b611a507f00000000000000000000000000000000000000000000000000000000000000007f000000000000000000000000000000000000000000000000000000000000000061187e7f00000000000000000000000000000000000000000000000000000000000000006001600160a01b0316612e46565b507f000000000000000000000000000000000000000000000000000000000000000090507f00000000000000000000000000000000000000000000000000000000000000005b6000611aaa836001600160a01b0316612e46565b9050600080600c60009054906101000a90046001600160a01b03166001600160a01b0316630902f1ac6040518163ffffffff1660e01b815260040160606040518083038186803b158015611afd57600080fd5b505afa158015611b11573d6000803e3d6000fd5b505050506040513d601f19601f82011682018060405250810190611b359190613a3b565b506dffffffffffffffffffffffffffff1691506dffffffffffffffffffffffffffff16915060007f00000000000000000000000000000000000000000000000000000000000000006001600160a01b0316866001600160a01b031614611b9b5781611b9d565b825b90506000611bae8583601454612ec0565b9050611bbb878783612d08565b6000611be38888611bcc858a613c92565b611bde8b6001600160a01b0316612e46565b612f5e565b600854600954604051631c57762b60e31b81526004810191909152602481018390529192506001600160a01b03169063e2bbb15890604401600060405180830381600087803b158015611c3557600080fd5b505af1158015611c49573d6000803e3d6000fd5b50505050306001600160a01b03167f6ac14c64e9542da5b5d0624113aec83684dd471c3d8c61022ae5d78fa1523792611c7f3390565b604080516001600160a01b039092168252602082018e905281018c905260600160405180910390a2505050505050505050505b611cba612861565b6000805460ff19166001179055565b60005460ff16611cec576040516306fda65d60e31b815260040160405180910390fd5b6000805460ff19168155600b543082526004602052604090912054611d2a918391611d179190613c92565b600c546001600160a01b031691906129d9565b506000805460ff19166001179055565b6001600160a01b038716611d615760405163bc622b6360e01b815260040160405180910390fd5b6001600160a01b038616611d8857604051632853494b60e11b815260040160405180910390fd5b42841015611dac5760405163212ed8bb60e11b815260048101859052602401610c3f565b6001600160a01b0387811660008181526006602090815260408083208054600180820190925582517f6e71edae12b1b97f4d1f60370fef10105fa2faae0126114a169c64845d6126c98186015280840196909652958c166060860152608085018b905260a085019590955260c08085018a90528151808603909101815260e08501825280519083012061190160f01b6101008601527f000000000000000000000000000000000000000000000000000000000000000061010286015261012280860182905282518087039091018152610142860180845281519185019190912090859052610162860180845281905260ff8a166101828701526101a286018990526101c2860188905291519095919491926101e2808401939192601f1981019281900390910190855afa158015611ee7573d6000803e3d6000fd5b5050604051601f1901519150506001600160a01b038116611f1b57604051630f81234f60e31b815260040160405180910390fd5b896001600160a01b0316816001600160a01b031614611f6057604051630b76193960e31b815260ff871660048201526024810186905260448101859052606401610c3f565b611f6b8a8a8a6122e0565b50505050505050505050565b611f7f61238f565b60005460ff16611fa2576040516306fda65d60e31b815260040160405180910390fd5b6000805460ff19169055611fc76706f05b59d3b20000670de0b6b3a764000083612a30565b600f80549082905560408051828152602081018490527ff25d2243e4128e51523d8537f04f18c3e6390bbfc6323390a9a8e59b921ce0469101610fbb565b61200d61238f565b60005460ff16612030576040516306fda65d60e31b815260040160405180910390fd5b6000805460ff1916815561204d9067016345785d8a000083612a30565b601180549082905560408051828152602081018490527f87272249f1056ec16a68dd9255101358246dd26a796e2f0bc6b3a0ad02f2de419101610fbb565b60005460ff166120ae576040516306fda65d60e31b815260040160405180910390fd5b6000805460ff19169055611cba612861565b60606000826001600160a01b0316630dfe16816040518163ffffffff1660e01b815260040160206040518083038186803b1580156120fd57600080fd5b505afa158015612111573d6000803e3d6000fd5b505050506040513d601f19601f8201168201806040525081019061213591906136a5565b6001600160a01b03166395d89b416040518163ffffffff1660e01b815260040160006040518083038186803b15801561216d57600080fd5b505afa158015612181573d6000803e3d6000fd5b505050506040513d6000823e601f3d908101601f191682016040526121a991908101906139ab565b90506000836001600160a01b031663d21220a76040518163ffffffff1660e01b815260040160206040518083038186803b1580156121e657600080fd5b505afa1580156121fa573d6000803e3d6000fd5b505050506040513d601f19601f8201168201806040525081019061221e91906136a5565b6001600160a01b03166395d89b416040518163ffffffff1660e01b815260040160006040518083038186803b15801561225657600080fd5b505afa15801561226a573d6000803e3d6000fd5b505050506040513d6000823e601f3d908101601f1916820160405261229291908101906139ab565b905081816040516020016122a7929190613b19565b60405160208183030381529060405292505050919050565b6000610de08383613051565b6000610de083670de0b6b3a764000084613113565b6001600160a01b0383166123075760405163230326bf60e11b815260040160405180910390fd5b6001600160a01b03821661232e57604051630b39ecd960e21b815260040160405180910390fd5b6001600160a01b0383811660008181526005602090815260408083209487168084529482529182902085905590518481527f8c5be1e5ebec7d5bd14f71427d1e84f3dd0314c0f7b2291e5b200ac8c7c3b925910160405180910390a3505050565b600d54604080516303e1469160e61b815290516000926001600160a01b03169163f851a440916004808301926020929190829003018186803b1580156123d457600080fd5b505afa1580156123e8573d6000803e3d6000fd5b505050506040513d601f19601f8201168201806040525081019061240c91906136a5565b9050336001600160a01b0382161461244857604051633e7c764160e21b81523360048201526001600160a01b0382166024820152604401610c3f565b50565b604080516001600160a01b038481166024830152604480830185905283518084039091018152606490920183526020820180516001600160e01b031663095ea7b360e01b17905291516000928392908716916124a79190613afd565b6000604051808303816000865af19150503d80600081146124e4576040519150601f19603f3d011682016040523d82523d6000602084013e6124e9565b606091505b50915091508180156125135750805115806125135750808060200190518101906125139190613931565b61255f5760405162461bcd60e51b815260206004820152600c60248201527f2173616665417070726f766500000000000000000000000000000000000000006044820152606401610c3f565b5050505050565b6001600160a01b03831661258d5760405163907bfbd760e01b815260040160405180910390fd5b6001600160a01b0382166125b457604051637184c13f60e01b815260040160405180910390fd5b6001600160a01b038316600090815260046020526040902054818110156125f857604051632dcf2e2160e21b81526004810182905260248101839052604401610c3f565b6001600160a01b0380851660009081526004602052604080822085850390559185168152908120805484929061262f908490613c3b565b92505081905550826001600160a01b0316846001600160a01b03167fddf252ad1be2c89b69c2b068fc378daa952ba7f163c4a11628f55a4df523b3ef8460405161267b91815260200190565b60405180910390a350505050565b6000806001600160a01b0384166126c45760405163a5075cd160e01b81526001600160a01b0385166004820152326024820152604401610c3f565b60001983141561276a57604051637d6af07960e01b81526001600160a01b0385811660048301527f00000000000000000000000000000000000000000000000000000000000000001690637d6af0799060240160206040518083038186803b15801561272f57600080fd5b505afa158015612743573d6000803e3d6000fd5b505050506040513d601f19601f820116820180604052508101906127679190613a95565b92505b6000612795612777610e2f565b6001600160a01b038716600090815260046020526040902054610a31565b90506127a181856131ef565b92509250505b9250929050565b6001600160a01b0382166127d55760405163139241eb60e01b815260040160405180910390fd5b6001600160a01b038216600090815260046020526040812080548392906127fd908490613c3b565b9250508190555080600360008282546128169190613c3b565b90915550506040518181526001600160a01b038316906000907fddf252ad1be2c89b69c2b068fc378daa952ba7f163c4a11628f55a4df523b3ef906020015b60405180910390a35050565b600a5460ff1661286d57565b6008546009546040516393f1a40b60e01b815260048101919091523060248201526001600160a01b03909116906393f1a40b90604401604080518083038186803b1580156128ba57600080fd5b505afa1580156128ce573d6000803e3d6000fd5b505050506040513d601f19601f820116820180604052508101906128f29190613aad565b50600b8190556040519081527f8a0df8ef054fae2c3d2d19a7b322e864870cc9fd3cb07fb9526309c596244bf49060200160405180910390a15b565b6001600160a01b03821661295557604051638e35e80360e01b815260040160405180910390fd5b6001600160a01b0382166000908152600460205260408120805483929061297d908490613c92565b9250508190555080600360008282546129969190613c92565b90915550506040518181526000906001600160a01b038416907fddf252ad1be2c89b69c2b068fc378daa952ba7f163c4a11628f55a4df523b3ef90602001612855565b604080516001600160a01b038416602482015260448082018490528251808303909101815260649091019091526020810180516001600160e01b031663a9059cbb60e01b179052612a2b908490613269565b505050565b82811080612a3d57508181115b15612a2b5760405162ccc44d60e41b8152600481018490526024810183905260448101829052606401610c3f565b33321461292c57604051631fec819f60e21b8152336004820152326024820152604401610c3f565b600854600954604051630441a3e760e41b81526004810191909152600060248201819052916001600160a01b03169063441a3e7090604401600060405180830381600087803b158015612ae557600080fd5b505af1158015612af9573d6000803e3d6000fd5b5050600854600954604051631526fe2760e01b81526004810191909152600093506001600160a01b039091169150631526fe27906024016101206040518083038186803b158015612b4957600080fd5b505afa158015612b5d573d6000803e3d6000fd5b505050506040513d601f19601f82011682018060405250810190612b8191906137d9565b5050509550505050505060006001600160a01b0316816001600160a01b031614612cf3576000816001600160a01b03166373cfc6b26040518163ffffffff1660e01b815260040160206040518083038186803b158015612be057600080fd5b505afa158015612bf4573d6000803e3d6000fd5b505050506040513d601f19601f82011682018060405250810190612c189190613931565b9050600081612c9757826001600160a01b031663f7c618c16040518163ffffffff1660e01b815260040160206040518083038186803b158015612c5a57600080fd5b505afa158015612c6e573d6000803e3d6000fd5b505050506040513d601f19601f82011682018060405250810190612c9291906136a5565b612cb9565b7f00000000000000000000000000000000000000000000000000000000000000005b90506000612ccf826001600160a01b0316612e46565b90508015612cef57601254612cef9083906001600160a01b031683612d08565b5050505b601254610e57906001600160a01b0316612e46565b6040805160028082526060820183526000926020830190803683370190505090508381600081518110612d4b57634e487b7160e01b600052603260045260246000fd5b60200260200101906001600160a01b031690816001600160a01b0316815250508281600181518110612d8d57634e487b7160e01b600052603260045260246000fd5b6001600160a01b039283166020918202929092010152601354612db5918681169116846132e6565b6013546040516338ed173960e01b81526001600160a01b03909116906338ed173990612df09085906000908690309060001990600401613b9a565b600060405180830381600087803b158015612e0a57600080fd5b505af1158015612e1e573d6000803e3d6000fd5b505050506040513d6000823e601f3d908101601f1916820160405261255f9190810190613889565b6040516370a0823160e01b81523060048201526000906001600160a01b038316906370a082319060240160206040518083038186803b158015612e8857600080fd5b505afa158015612e9c573d6000803e3d6000fd5b505050506040513d601f19601f82011682018060405250810190610bd39190613a95565b60008083612ed0846103e8613c3b565b612eda9190613c73565b905060008385612eec886103e8613c73565b612ef69190613c73565b612f01906004613c73565b612f0b9190613c73565b90506000612f2c82612f1d8580613c73565b612f279190613c3b565b61337f565b90506000612f3b866002613c73565b905080612f488584613c92565b612f529190613c53565b98975050505050505050565b601354600090612f7b906001600160a01b038781169116856132e6565b601354612f95906001600160a01b038681169116846132e6565b60135460405162e8e33760e81b81526001600160a01b0387811660048301528681166024830152604482018690526064820185905260006084830181905260a48301523060c483015260001960e48301529091169063e8e337009061010401606060405180830381600087803b15801561300e57600080fd5b505af1158015613022573d6000803e3d6000fd5b505050506040513d601f19601f820116820180604052508101906130469190613ad0565b979650505050505050565b60008080600019848609848602925082811083820303915050670de0b6b3a764000081106130955760405163698d9a0160e11b815260048101829052602401610c3f565b600080670de0b6b3a76400008688099150506706f05b59d3b1ffff8111826130cf5780670de0b6b3a7640000850401945050505050610bd3565b620400008285030493909111909103600160ee1b02919091177faccb18165bd6fe31ae1cf318dc5b51eee0e1ba569b88cd74c1773b91fac106690201905092915050565b60008080600019858709858702925082811083820303915050806000141561315c5783828161315257634e487b7160e01b600052601260045260246000fd5b0492505050610de0565b83811061318657604051631dcf306360e21b81526004810182905260248101859052604401610c3f565b60008486880960026001871981018816978890046003810283188082028403028082028403028082028403028082028403028082028403029081029092039091026000889003889004909101858311909403939093029303949094049190911702949350505050565b60008060006131fc610fd4565b9050600061320a86836122bf565b90506000613223600f54836122bf90919063ffffffff16565b9050600061324160115460105461323a9190613c3b565b88906122bf565b905080821061325a5790039350600092506127a7915050565b600095500392506127a7915050565b60006132ab83836040518060400160405280601581526020017f5361666545726332304c6f774c6576656c43616c6c0000000000000000000000815250613577565b805190915015612a2b57808060200190518101906132c99190613931565b612a2b576040516364d6fc4d60e01b815260040160405180910390fd5b604051636eb1769f60e11b81523060048201526001600160a01b03838116602483015282919085169063dd62ed3e9060440160206040518083038186803b15801561333057600080fd5b505afa158015613344573d6000803e3d6000fd5b505050506040513d601f19601f820116820180604052508101906133689190613a95565b1061337257505050565b612a2b838360001961244b565b60008161338e57506000919050565b5060018170010000000000000000000000000000000081106133b55760409190911b9060801c5b6801000000000000000081106133d05760209190911b9060401c5b64010000000081106133e75760109190911b9060201c5b6201000081106133fc5760089190911b9060101c5b61010081106134105760049190911b9060081c5b601081106134235760029190911b9060041c5b6008811061343357600182901b91505b600182848161345257634e487b7160e01b600052601260045260246000fd5b048301901c9150600182848161347857634e487b7160e01b600052601260045260246000fd5b048301901c9150600182848161349e57634e487b7160e01b600052601260045260246000fd5b048301901c915060018284816134c457634e487b7160e01b600052601260045260246000fd5b048301901c915060018284816134ea57634e487b7160e01b600052601260045260246000fd5b048301901c9150600182848161351057634e487b7160e01b600052601260045260246000fd5b048301901c9150600182848161353657634e487b7160e01b600052601260045260246000fd5b048301901c9150600082848161355c57634e487b7160e01b600052601260045260246000fd5b0490508083101561356d578261356f565b805b949350505050565b60606001600160a01b0384163b6135ac57604051638201cc0560e01b81526001600160a01b0385166004820152602401610c3f565b600080856001600160a01b0316856040516135c79190613afd565b6000604051808303816000865af19150503d8060008114613604576040519150601f19603f3d011682016040523d82523d6000602084013e613609565b606091505b5091509150811561361d579150610de09050565b80511561362d5780518082602001fd5b8360405162461bcd60e51b8152600401610c3f9190613b67565b805161365281613d40565b919050565b80516dffffffffffffffffffffffffffff8116811461365257600080fd5b805163ffffffff8116811461365257600080fd5b60006020828403121561369a578081fd5b8135610de081613d40565b6000602082840312156136b6578081fd5b8151610de081613d40565b600080604083850312156136d3578081fd5b82356136de81613d40565b915060208301356136ee81613d40565b809150509250929050565b60008060006060848603121561370d578081fd5b833561371881613d40565b9250602084013561372881613d40565b929592945050506040919091013590565b600080600080600080600060e0888a031215613753578283fd5b873561375e81613d40565b9650602088013561376e81613d40565b95506040880135945060608801359350608088013560ff81168114613791578384fd5b9699959850939692959460a0840135945060c09093013592915050565b600080604083850312156137c0578182fd5b82356137cb81613d40565b946020939093013593505050565b60008060008060008060008060006101208a8c0312156137f7578283fd5b895161380281613d40565b60208b01519099506bffffffffffffffffffffffff81168114613823578384fd5b8098505060408a0151965060608a0151955060808a015167ffffffffffffffff8116811461384f578384fd5b945061385d60a08b01613647565b935061386b60c08b01613675565b925060e08a015191506101008a015190509295985092959850929598565b6000602080838503121561389b578182fd5b825167ffffffffffffffff808211156138b2578384fd5b818501915085601f8301126138c5578384fd5b8151818111156138d7576138d7613d2a565b8060051b91506138e8848301613c0a565b8181528481019084860184860187018a1015613902578788fd5b8795505b83861015613924578051835260019590950194918601918601613906565b5098975050505050505050565b600060208284031215613942578081fd5b81518015158114610de0578182fd5b600080600080600060a08688031215613968578283fd5b853561397381613d40565b9450602086013561398381613d40565b9350604086013561399381613d40565b94979396509394606081013594506080013592915050565b6000602082840312156139bc578081fd5b815167ffffffffffffffff808211156139d3578283fd5b818401915084601f8301126139e6578283fd5b8151818111156139f8576139f8613d2a565b613a0b601f8201601f1916602001613c0a565b9150808252856020828501011115613a21578384fd5b613a32816020840160208601613ca9565b50949350505050565b600080600060608486031215613a4f578081fd5b613a5884613657565b9250613a6660208501613657565b9150613a7460408501613675565b90509250925092565b600060208284031215613a8e578081fd5b5035919050565b600060208284031215613aa6578081fd5b5051919050565b60008060408385031215613abf578182fd5b505080516020909101519092909150565b600080600060608486031215613ae4578081fd5b8351925060208401519150604084015190509250925092565b60008251613b0f818460208701613ca9565b9190910192915050565b65021bcb3a628160d51b815260008351613b3a816006850160208801613ca9565b602f60f81b6006918401918201528351613b5b816007840160208801613ca9565b01600701949350505050565b6020815260008251806020840152613b86816040850160208701613ca9565b601f01601f19169190910160400192915050565b600060a082018783526020878185015260a0604085015281875180845260c0860191508289019350845b81811015613be95784516001600160a01b031683529383019391830191600101613bc4565b50506001600160a01b03969096166060850152505050608001529392505050565b604051601f8201601f1916810167ffffffffffffffff81118282101715613c3357613c33613d2a565b604052919050565b60008219821115613c4e57613c4e613d14565b500190565b600082613c6e57634e487b7160e01b81526012600452602481fd5b500490565b6000816000190483118215151615613c8d57613c8d613d14565b500290565b600082821015613ca457613ca4613d14565b500390565b60005b83811015613cc4578181015183820152602001613cac565b83811115613cd3576000848401525b50505050565b600181811c90821680613ced57607f821691505b60208210811415613d0e57634e487b7160e01b600052602260045260246000fd5b50919050565b634e487b7160e01b600052601160045260246000fd5b634e487b7160e01b600052604160045260246000fd5b6001600160a01b038116811461244857600080fdfea26469706673582212206775f6b467d5b0035b79e872764fa32c25e09e1ee52510bd8368dcc6272637a864736f6c63430008040033",
  "linkReferences": {},
  "deployedLinkReferences": {}
}