{
  "_format": "hh-sol-artifact-1",
  "contractName": "CygnusCollateralModel",
  "sourceName": "contracts/cygnus-core/CygnusCollateralModel.sol",
  "abi": [
    {
      "inputs": [
        {
          "internalType": "uint256",
          "name": "min",
          "type": "uint256"
        },
        {
          "internalType": "uint256",
          "name": "max",
          "type": "uint256"
        },
        {
          "internalType": "uint256",
          "name": "value",
          "type": "uint256"
        }
      ],
      "name": "CygnusCollateralControl__ParameterNotInRange",
      "type": "error"
    },
    {
      "inputs": [
        {
          "internalType": "address",
          "name": "invalidBorrowable",
          "type": "address"
        },
        {
          "internalType": "address",
          "name": "validBorrowable",
          "type": "address"
        }
      ],
      "name": "CygnusCollateralModel__BorrowableInvalid",
      "type": "error"
    },
    {
      "inputs": [
        {
          "internalType": "address",
          "name": "sender",
          "type": "address"
        },
        {
          "internalType": "address",
          "name": "origin",
          "type": "address"
        }
      ],
      "name": "CygnusCollateralModel__BorrowerCantBeAddressZero",
      "type": "error"
    },
    {
      "inputs": [],
      "name": "CygnusTerminal__CantMintZeroShares",
      "type": "error"
    },
    {
      "inputs": [],
      "name": "CygnusTerminal__CantRedeemZeroAssets",
      "type": "error"
    },
    {
      "inputs": [
        {
          "internalType": "address",
          "name": "token",
          "type": "address"
        },
        {
          "internalType": "address",
          "name": "underlying",
          "type": "address"
        }
      ],
      "name": "CygnusTerminal__CantSweepUnderlying",
      "type": "error"
    },
    {
      "inputs": [
        {
          "internalType": "address",
          "name": "sender",
          "type": "address"
        },
        {
          "internalType": "address",
          "name": "admin",
          "type": "address"
        }
      ],
      "name": "CygnusTerminal__MsgSenderNotAdmin",
      "type": "error"
    },
    {
      "inputs": [
        {
          "internalType": "address",
          "name": "owner",
          "type": "address"
        },
        {
          "internalType": "uint8",
          "name": "v",
          "type": "uint8"
        },
        {
          "internalType": "bytes32",
          "name": "r",
          "type": "bytes32"
        },
        {
          "internalType": "bytes32",
          "name": "s",
          "type": "bytes32"
        }
      ],
      "name": "ERC20Permit__InvalidSignature",
      "type": "error"
    },
    {
      "inputs": [],
      "name": "ERC20Permit__OwnerZeroAddress",
      "type": "error"
    },
    {
      "inputs": [
        {
          "internalType": "uint256",
          "name": "currentTime",
          "type": "uint256"
        },
        {
          "internalType": "uint256",
          "name": "deadline",
          "type": "uint256"
        }
      ],
      "name": "ERC20Permit__PermitExpired",
      "type": "error"
    },
    {
      "inputs": [],
      "name": "ERC20Permit__RecoveredOwnerZeroAddress",
      "type": "error"
    },
    {
      "inputs": [],
      "name": "ERC20Permit__SpenderZeroAddress",
      "type": "error"
    },
    {
      "inputs": [],
      "name": "ERC20__ApproveOwnerZeroAddress",
      "type": "error"
    },
    {
      "inputs": [],
      "name": "ERC20__ApproveSpenderZeroAddress",
      "type": "error"
    },
    {
      "inputs": [
        {
          "internalType": "uint256",
          "name": "accountBalance",
          "type": "uint256"
        },
        {
          "internalType": "uint256",
          "name": "burnAmount",
          "type": "uint256"
        }
      ],
      "name": "ERC20__BurnUnderflow",
      "type": "error"
    },
    {
      "inputs": [],
      "name": "ERC20__BurnZeroAddress",
      "type": "error"
    },
    {
      "inputs": [
        {
          "internalType": "uint256",
          "name": "allowance",
          "type": "uint256"
        },
        {
          "internalType": "uint256",
          "name": "amount",
          "type": "uint256"
        }
      ],
      "name": "ERC20__InsufficientAllowance",
      "type": "error"
    },
    {
      "inputs": [
        {
          "internalType": "uint256",
          "name": "senderBalance",
          "type": "uint256"
        },
        {
          "internalType": "uint256",
          "name": "amount",
          "type": "uint256"
        }
      ],
      "name": "ERC20__InsufficientBalance",
      "type": "error"
    },
    {
      "inputs": [],
      "name": "ERC20__MintZeroAddress",
      "type": "error"
    },
    {
      "inputs": [],
      "name": "ERC20__TransferRecipientZeroAddress",
      "type": "error"
    },
    {
      "inputs": [],
      "name": "ERC20__TransferSenderZeroAddress",
      "type": "error"
    },
    {
      "inputs": [],
      "name": "ReentrantCall",
      "type": "error"
    },
    {
      "anonymous": false,
      "inputs": [
        {
          "indexed": true,
          "internalType": "address",
          "name": "owner",
          "type": "address"
        },
        {
          "indexed": true,
          "internalType": "address",
          "name": "spender",
          "type": "address"
        },
        {
          "indexed": false,
          "internalType": "uint256",
          "name": "amount",
          "type": "uint256"
        }
      ],
      "name": "Approval",
      "type": "event"
    },
    {
      "anonymous": false,
      "inputs": [
        {
          "indexed": true,
          "internalType": "address",
          "name": "sender",
          "type": "address"
        },
        {
          "indexed": true,
          "internalType": "address",
          "name": "recipient",
          "type": "address"
        },
        {
          "indexed": false,
          "internalType": "uint256",
          "name": "assets",
          "type": "uint256"
        },
        {
          "indexed": false,
          "internalType": "uint256",
          "name": "shares",
          "type": "uint256"
        }
      ],
      "name": "Deposit",
      "type": "event"
    },
    {
      "anonymous": false,
      "inputs": [
        {
          "indexed": false,
          "internalType": "uint256",
          "name": "oldDebtRatio",
          "type": "uint256"
        },
        {
          "indexed": false,
          "internalType": "uint256",
          "name": "newDebtRatio",
          "type": "uint256"
        }
      ],
      "name": "NewDebtRatio",
      "type": "event"
    },
    {
      "anonymous": false,
      "inputs": [
        {
          "indexed": false,
          "internalType": "uint256",
          "name": "oldLiquidationFee",
          "type": "uint256"
        },
        {
          "indexed": false,
          "internalType": "uint256",
          "name": "newLiquidationFee",
          "type": "uint256"
        }
      ],
      "name": "NewLiquidationFee",
      "type": "event"
    },
    {
      "anonymous": false,
      "inputs": [
        {
          "indexed": false,
          "internalType": "uint256",
          "name": "oldLiquidationIncentive",
          "type": "uint256"
        },
        {
          "indexed": false,
          "internalType": "uint256",
          "name": "newLiquidationIncentive",
          "type": "uint256"
        }
      ],
      "name": "NewLiquidationIncentive",
      "type": "event"
    },
    {
      "anonymous": false,
      "inputs": [
        {
          "indexed": false,
          "internalType": "uint256",
          "name": "totalBalance",
          "type": "uint256"
        }
      ],
      "name": "Sync",
      "type": "event"
    },
    {
      "anonymous": false,
      "inputs": [
        {
          "indexed": true,
          "internalType": "address",
          "name": "from",
          "type": "address"
        },
        {
          "indexed": true,
          "internalType": "address",
          "name": "to",
          "type": "address"
        },
        {
          "indexed": false,
          "internalType": "uint256",
          "name": "amount",
          "type": "uint256"
        }
      ],
      "name": "Transfer",
      "type": "event"
    },
    {
      "anonymous": false,
      "inputs": [
        {
          "indexed": true,
          "internalType": "address",
          "name": "sender",
          "type": "address"
        },
        {
          "indexed": true,
          "internalType": "address",
          "name": "recipient",
          "type": "address"
        },
        {
          "indexed": true,
          "internalType": "address",
          "name": "owner",
          "type": "address"
        },
        {
          "indexed": false,
          "internalType": "uint256",
          "name": "assets",
          "type": "uint256"
        },
        {
          "indexed": false,
          "internalType": "uint256",
          "name": "shares",
          "type": "uint256"
        }
      ],
      "name": "Withdraw",
      "type": "event"
    },
    {
      "inputs": [],
      "name": "DOMAIN_SEPARATOR",
      "outputs": [
        {
          "internalType": "bytes32",
          "name": "",
          "type": "bytes32"
        }
      ],
      "stateMutability": "view",
      "type": "function"
    },
    {
      "inputs": [],
      "name": "PERMIT_TYPEHASH",
      "outputs": [
        {
          "internalType": "bytes32",
          "name": "",
          "type": "bytes32"
        }
      ],
      "stateMutability": "view",
      "type": "function"
    },
    {
      "inputs": [
        {
          "internalType": "address",
          "name": "owner",
          "type": "address"
        },
        {
          "internalType": "address",
          "name": "spender",
          "type": "address"
        }
      ],
      "name": "allowance",
      "outputs": [
        {
          "internalType": "uint256",
          "name": "",
          "type": "uint256"
        }
      ],
      "stateMutability": "view",
      "type": "function"
    },
    {
      "inputs": [
        {
          "internalType": "address",
          "name": "spender",
          "type": "address"
        },
        {
          "internalType": "uint256",
          "name": "amount",
          "type": "uint256"
        }
      ],
      "name": "approve",
      "outputs": [
        {
          "internalType": "bool",
          "name": "",
          "type": "bool"
        }
      ],
      "stateMutability": "nonpayable",
      "type": "function"
    },
    {
      "inputs": [
        {
          "internalType": "address",
          "name": "account",
          "type": "address"
        }
      ],
      "name": "balanceOf",
      "outputs": [
        {
          "internalType": "uint256",
          "name": "",
          "type": "uint256"
        }
      ],
      "stateMutability": "view",
      "type": "function"
    },
    {
      "inputs": [],
      "name": "borrowable",
      "outputs": [
        {
          "internalType": "address",
          "name": "",
          "type": "address"
        }
      ],
      "stateMutability": "view",
      "type": "function"
    },
    {
      "inputs": [
        {
          "internalType": "address",
          "name": "borrower",
          "type": "address"
        },
        {
          "internalType": "address",
          "name": "borrowableToken",
          "type": "address"
        },
        {
          "internalType": "uint256",
          "name": "borrowAmount",
          "type": "uint256"
        }
      ],
      "name": "canBorrow",
      "outputs": [
        {
          "internalType": "bool",
          "name": "",
          "type": "bool"
        }
      ],
      "stateMutability": "view",
      "type": "function"
    },
    {
      "inputs": [
        {
          "internalType": "address",
          "name": "borrower",
          "type": "address"
        },
        {
          "internalType": "uint256",
          "name": "redeemAmount",
          "type": "uint256"
        }
      ],
      "name": "canRedeem",
      "outputs": [
        {
          "internalType": "bool",
          "name": "",
          "type": "bool"
        }
      ],
      "stateMutability": "view",
      "type": "function"
    },
    {
      "inputs": [],
      "name": "cygnusNebulaOracle",
      "outputs": [
        {
          "internalType": "contract ICygnusNebulaOracle",
          "name": "",
          "type": "address"
        }
      ],
      "stateMutability": "view",
      "type": "function"
    },
    {
      "inputs": [],
      "name": "debtRatio",
      "outputs": [
        {
          "internalType": "uint256",
          "name": "",
          "type": "uint256"
        }
      ],
      "stateMutability": "view",
      "type": "function"
    },
    {
      "inputs": [],
      "name": "decimals",
      "outputs": [
        {
          "internalType": "uint8",
          "name": "",
          "type": "uint8"
        }
      ],
      "stateMutability": "view",
      "type": "function"
    },
    {
      "inputs": [
        {
          "internalType": "uint256",
          "name": "assets",
          "type": "uint256"
        },
        {
          "internalType": "address",
          "name": "recipient",
          "type": "address"
        }
      ],
      "name": "deposit",
      "outputs": [
        {
          "internalType": "uint256",
          "name": "shares",
          "type": "uint256"
        }
      ],
      "stateMutability": "nonpayable",
      "type": "function"
    },
    {
      "inputs": [],
      "name": "exchangeRate",
      "outputs": [
        {
          "internalType": "uint256",
          "name": "",
          "type": "uint256"
        }
      ],
      "stateMutability": "view",
      "type": "function"
    },
    {
      "inputs": [
        {
          "internalType": "address",
          "name": "borrower",
          "type": "address"
        }
      ],
      "name": "getAccountLiquidity",
      "outputs": [
        {
          "internalType": "uint256",
          "name": "liquidity",
          "type": "uint256"
        },
        {
          "internalType": "uint256",
          "name": "shortfall",
          "type": "uint256"
        }
      ],
      "stateMutability": "view",
      "type": "function"
    },
    {
      "inputs": [
        {
          "internalType": "address",
          "name": "borrower",
          "type": "address"
        }
      ],
      "name": "getDebtRatio",
      "outputs": [
        {
          "internalType": "uint256",
          "name": "",
          "type": "uint256"
        }
      ],
      "stateMutability": "view",
      "type": "function"
    },
    {
      "inputs": [],
      "name": "getLPTokenPrice",
      "outputs": [
        {
          "internalType": "uint256",
          "name": "",
          "type": "uint256"
        }
      ],
      "stateMutability": "view",
      "type": "function"
    },
    {
      "inputs": [],
      "name": "hangar18",
      "outputs": [
        {
          "internalType": "contract IHangar18",
          "name": "",
          "type": "address"
        }
      ],
      "stateMutability": "view",
      "type": "function"
    },
    {
      "inputs": [],
      "name": "liquidationFee",
      "outputs": [
        {
          "internalType": "uint256",
          "name": "",
          "type": "uint256"
        }
      ],
      "stateMutability": "view",
      "type": "function"
    },
    {
      "inputs": [],
      "name": "liquidationIncentive",
      "outputs": [
        {
          "internalType": "uint256",
          "name": "",
          "type": "uint256"
        }
      ],
      "stateMutability": "view",
      "type": "function"
    },
    {
      "inputs": [],
      "name": "name",
      "outputs": [
        {
          "internalType": "string",
          "name": "",
          "type": "string"
        }
      ],
      "stateMutability": "view",
      "type": "function"
    },
    {
      "inputs": [
        {
          "internalType": "address",
          "name": "",
          "type": "address"
        }
      ],
      "name": "nonces",
      "outputs": [
        {
          "internalType": "uint256",
          "name": "",
          "type": "uint256"
        }
      ],
      "stateMutability": "view",
      "type": "function"
    },
    {
      "inputs": [
        {
          "internalType": "address",
          "name": "owner",
          "type": "address"
        },
        {
          "internalType": "address",
          "name": "spender",
          "type": "address"
        },
        {
          "internalType": "uint256",
          "name": "value",
          "type": "uint256"
        },
        {
          "internalType": "uint256",
          "name": "deadline",
          "type": "uint256"
        },
        {
          "internalType": "uint8",
          "name": "v",
          "type": "uint8"
        },
        {
          "internalType": "bytes32",
          "name": "r",
          "type": "bytes32"
        },
        {
          "internalType": "bytes32",
          "name": "s",
          "type": "bytes32"
        }
      ],
      "name": "permit",
      "outputs": [],
      "stateMutability": "nonpayable",
      "type": "function"
    },
    {
      "inputs": [
        {
          "internalType": "uint256",
          "name": "shares",
          "type": "uint256"
        },
        {
          "internalType": "address",
          "name": "recipient",
          "type": "address"
        },
        {
          "internalType": "address",
          "name": "owner",
          "type": "address"
        }
      ],
      "name": "redeem",
      "outputs": [
        {
          "internalType": "uint256",
          "name": "assets",
          "type": "uint256"
        }
      ],
      "stateMutability": "nonpayable",
      "type": "function"
    },
    {
      "inputs": [
        {
          "internalType": "uint256",
          "name": "newDebtRatio",
          "type": "uint256"
        }
      ],
      "name": "setDebtRatio",
      "outputs": [],
      "stateMutability": "nonpayable",
      "type": "function"
    },
    {
      "inputs": [
        {
          "internalType": "uint256",
          "name": "newLiquidationFee",
          "type": "uint256"
        }
      ],
      "name": "setLiquidationFee",
      "outputs": [],
      "stateMutability": "nonpayable",
      "type": "function"
    },
    {
      "inputs": [
        {
          "internalType": "uint256",
          "name": "newLiquidationIncentive",
          "type": "uint256"
        }
      ],
      "name": "setLiquidationIncentive",
      "outputs": [],
      "stateMutability": "nonpayable",
      "type": "function"
    },
    {
      "inputs": [],
      "name": "shuttleId",
      "outputs": [
        {
          "internalType": "uint256",
          "name": "",
          "type": "uint256"
        }
      ],
      "stateMutability": "view",
      "type": "function"
    },
    {
      "inputs": [
        {
          "internalType": "address",
          "name": "token",
          "type": "address"
        }
      ],
      "name": "sweepToken",
      "outputs": [],
      "stateMutability": "nonpayable",
      "type": "function"
    },
    {
      "inputs": [],
      "name": "symbol",
      "outputs": [
        {
          "internalType": "string",
          "name": "",
          "type": "string"
        }
      ],
      "stateMutability": "view",
      "type": "function"
    },
    {
      "inputs": [],
      "name": "totalBalance",
      "outputs": [
        {
          "internalType": "uint256",
          "name": "",
          "type": "uint256"
        }
      ],
      "stateMutability": "view",
      "type": "function"
    },
    {
      "inputs": [],
      "name": "totalSupply",
      "outputs": [
        {
          "internalType": "uint256",
          "name": "",
          "type": "uint256"
        }
      ],
      "stateMutability": "view",
      "type": "function"
    },
    {
      "inputs": [
        {
          "internalType": "address",
          "name": "recipient",
          "type": "address"
        },
        {
          "internalType": "uint256",
          "name": "amount",
          "type": "uint256"
        }
      ],
      "name": "transfer",
      "outputs": [
        {
          "internalType": "bool",
          "name": "",
          "type": "bool"
        }
      ],
      "stateMutability": "nonpayable",
      "type": "function"
    },
    {
      "inputs": [
        {
          "internalType": "address",
          "name": "sender",
          "type": "address"
        },
        {
          "internalType": "address",
          "name": "recipient",
          "type": "address"
        },
        {
          "internalType": "uint256",
          "name": "amount",
          "type": "uint256"
        }
      ],
      "name": "transferFrom",
      "outputs": [
        {
          "internalType": "bool",
          "name": "",
          "type": "bool"
        }
      ],
      "stateMutability": "nonpayable",
      "type": "function"
    },
    {
      "inputs": [],
      "name": "underlying",
      "outputs": [
        {
          "internalType": "address",
          "name": "",
          "type": "address"
        }
      ],
      "stateMutability": "view",
      "type": "function"
    },
    {
      "inputs": [],
      "name": "version",
      "outputs": [
        {
          "internalType": "string",
          "name": "",
          "type": "string"
        }
      ],
      "stateMutability": "view",
      "type": "function"
    }
  ],
  "bytecode": "0x610140604052670d2f13f7789f0000600955670e398811bec68000600a553480156200002a57600080fd5b50604080518082018252601281527110de59db9d5cce8810dbdb1b185d195c985b60721b602080830191825283519081019093526000808452805460ff191660019081178255835193949391928592859285928592859285926200008e926200040a565b508151620000a49060029060208501906200040a565b506003805460ff191660ff92909216919091179055505060405146907f8b73c3c69bb8fe3d512ecc4cf759cc79239f7b179b0ffacaa9a75d522b39400f90620000f09060019062000601565b60408051918290038220828201825260058352640312e302e360dc1b6020938401528151928301939093528101919091527f06c015bd22b4c69690933c1058878ebdfef31f9aaae40bbe86d8a09fe1b2972c6060820152608081018290523060a082015260c00160408051601f1981840301815291905280516020909101206080525062000182925050620004069050565b6001600160a01b0316635a412e536040518163ffffffff1660e01b815260040160a060405180830381600087803b158015620001bd57600080fd5b505af1158015620001d2573d6000803e3d6000fd5b505050506040513d601f19601f82011682018060405250810190620001f89190620004b0565b610100526001600160601b0319606091821b811660e05292811b831660c0529290921b1660a05250600092508291506200023190503390565b6001600160a01b0316635a412e536040518163ffffffff1660e01b815260040160a060405180830381600087803b1580156200026c57600080fd5b505af115801562000281573d6000803e3d6000fd5b505050506040513d601f19601f82011682018060405250810190620002a79190620004b0565b50509250925050816001600160a01b03166395d89b416040518163ffffffff1660e01b815260040160006040518083038186803b158015620002e857600080fd5b505afa158015620002fd573d6000803e3d6000fd5b505050506040513d6000823e601f3d908101601f1916820160405262000327919081019062000523565b604051602001620003399190620006a4565b604051602081830303815290604052600290805190602001906200035f9291906200040a565b50816001600160a01b031663313ce5676040518163ffffffff1660e01b815260040160206040518083038186803b1580156200039a57600080fd5b505afa158015620003af573d6000803e3d6000fd5b505050506040513d601f19601f82011682018060405250810190620003d59190620005d7565b6003805460ff191660ff9290921691909117905560601b6001600160601b0319166101205250600060045562000774565b3390565b828054620004189062000708565b90600052602060002090601f0160209004810192826200043c576000855562000487565b82601f106200045757805160ff191683800117855562000487565b8280016001018555821562000487579182015b82811115620004875782518255916020019190600101906200046a565b506200049592915062000499565b5090565b5b808211156200049557600081556001016200049a565b600080600080600060a08688031215620004c8578081fd5b8551620004d5816200075b565b6020870151909550620004e8816200075b565b6040870151909450620004fb816200075b565b60608701519093506200050e816200075b565b80925050608086015190509295509295909350565b60006020828403121562000535578081fd5b81516001600160401b03808211156200054c578283fd5b818401915084601f83011262000560578283fd5b81518181111562000575576200057562000745565b604051601f8201601f19908116603f01168101908382118183101715620005a057620005a062000745565b81604052828152876020848701011115620005b9578586fd5b620005cc836020830160208801620006d5565b979650505050505050565b600060208284031215620005e9578081fd5b815160ff81168114620005fa578182fd5b9392505050565b600080835482600182811c9150808316806200061e57607f831692505b60208084108214156200063f57634e487b7160e01b87526022600452602487fd5b818015620006565760018114620006685762000696565b60ff1986168952848901965062000696565b60008a815260209020885b868110156200068e5781548b82015290850190830162000673565b505084890196505b509498975050505050505050565b66021bcb3a6281d160cd1b815260008251620006c8816007850160208701620006d5565b9190910160070192915050565b60005b83811015620006f2578181015183820152602001620006d8565b8381111562000702576000848401525b50505050565b600181811c908216806200071d57607f821691505b602082108114156200073f57634e487b7160e01b600052602260045260246000fd5b50919050565b634e487b7160e01b600052604160045260246000fd5b6001600160a01b03811681146200077157600080fd5b50565b60805160a05160601c60c05160601c60e05160601c610100516101205160601c611da362000832600039600081816105a20152818161065201528181610b6801528181610bbe01528181610eae01526116df015260006103bb01526000818161051b015261098f0152600081816103f5015281816107f0015281816108470152818161096401528181610a5b01528181610d9a01526118a901526000818161057b015261142c01526000818161032001526110530152611da36000f3fe608060405234801561001057600080fd5b50600436106102415760003560e01c80637ecebe0011610145578063cc1f8ffa116100bd578063dd62ed3e1161008c578063e99a6ac711610071578063e99a6ac71461059d578063eb6a887d146105c4578063fef0bec8146105d757600080fd5b8063dd62ed3e1461053d578063e8a24e1d1461057657600080fd5b8063cc1f8ffa146104e7578063cea55f57146104fa578063d505accf14610503578063d935bd921461051657600080fd5b8063a36a363011610114578063a9059cbb116100f9578063a9059cbb146104b8578063ad7a672f146104cb578063ba087652146104d457600080fd5b8063a36a36301461049c578063a8431081146104a557600080fd5b80637ecebe00146104585780638c765e941461047857806395d89b41146104815780639aac2c531461048957600080fd5b80633644e515116101d85780635ec88c79116101a75780636e553f651161018c5780636e553f65146103dd5780636f307dc3146103f057806370a082311461042f57600080fd5b80635ec88c791461038e5780635f77f891146103b657600080fd5b80633644e5151461031b5780633ba0b9a914610342578063513036221461034a57806354fd4d501461035257600080fd5b80631be19560116102145780631be19560146102ad57806323b872dd146102c257806330adf81f146102d5578063313ce567146102fc57600080fd5b8063031a5c821461024657806306fdde031461026c578063095ea7b31461028157806318160ddd146102a4575b600080fd5b610259610254366004611a99565b6105ea565b6040519081526020015b60405180910390f35b610274610714565b6040516102639190611c85565b61029461028f366004611bc5565b6107a2565b6040519015158152602001610263565b61025960045481565b6102c06102bb366004611a99565b6107b9565b005b6102946102d0366004611b10565b6108ab565b6102597f6e71edae12b1b97f4d1f60370fef10105fa2faae0126114a169c64845d6126c981565b6003546103099060ff1681565b60405160ff9091168152602001610263565b6102597f000000000000000000000000000000000000000000000000000000000000000081565b61025961091f565b61025961094d565b6102746040518060400160405280600581526020017f312e302e3000000000000000000000000000000000000000000000000000000081525081565b6103a161039c366004611a99565b610a10565b60408051928352602083019190915201610263565b6102597f000000000000000000000000000000000000000000000000000000000000000081565b6102596103eb366004611c20565b610a28565b6104177f000000000000000000000000000000000000000000000000000000000000000081565b6040516001600160a01b039091168152602001610263565b61025961043d366004611a99565b6001600160a01b031660009081526005602052604090205490565b610259610466366004611a99565b60076020526000908152604090205481565b610259600a5481565b610274610b57565b610294610497366004611b10565b610b64565b610259600b5481565b6102c06104b3366004611bf0565b610c02565b6102946104c6366004611bc5565b610ca5565b61025960085481565b6102596104e2366004611c44565b610cb2565b6102946104f5366004611bc5565b610e43565b61025960095481565b6102c0610511366004611b50565b610f44565b6104177f000000000000000000000000000000000000000000000000000000000000000081565b61025961054b366004611ad8565b6001600160a01b03918216600090815260066020908152604080832093909416825291909152205490565b6104177f000000000000000000000000000000000000000000000000000000000000000081565b6104177f000000000000000000000000000000000000000000000000000000000000000081565b6102c06105d2366004611bf0565b6111e7565b6102c06105e5366004611bf0565b611275565b6000806106176105f861091f565b6001600160a01b038516600090815260056020526040902054906112fc565b9050600061062d61062661094d565b83906112fc565b604051637d6af07960e01b81526001600160a01b0386811660048301529192506000917f00000000000000000000000000000000000000000000000000000000000000001690637d6af0799060240160206040518083038186803b15801561069457600080fd5b505afa1580156106a8573d6000803e3d6000fd5b505050506040513d601f19601f820116820180604052508101906106cc9190611c08565b905060006106e3600b54600a546106269190611cd8565b9050811561070757600954610702906106fc838661132a565b9061132a565b61070a565b60005b9695505050505050565b6001805461072190611d07565b80601f016020809104026020016040519081016040528092919081815260200182805461074d90611d07565b801561079a5780601f1061076f5761010080835404028352916020019161079a565b820191906000526020600020905b81548152906001019060200180831161077d57829003601f168201915b505050505081565b60006107af338484611379565b5060015b92915050565b60005460ff166107dc576040516306fda65d60e31b815260040160405180910390fd5b6000805460ff191690556107ee611428565b7f00000000000000000000000000000000000000000000000000000000000000006001600160a01b0316816001600160a01b03161415610879576040516303b91a9160e31b81526001600160a01b0380831660048301527f00000000000000000000000000000000000000000000000000000000000000001660248201526044015b60405180910390fd5b6000610884826114fa565b905061089a6001600160a01b038316338361150f565b50506000805460ff19166001179055565b60006108b8848484611558565b6001600160a01b038416600090815260066020908152604080832033845290915290205482811015610907576040516310c6013560e31b81526004810182905260248101849052604401610870565b6109148533858403611379565b506001949350505050565b600454600090801561093d57600854610938908261132a565b610947565b670de0b6b3a76400005b91505090565b6040516317e5a1a160e01b81526001600160a01b037f0000000000000000000000000000000000000000000000000000000000000000811660048301526000917f0000000000000000000000000000000000000000000000000000000000000000909116906317e5a1a19060240160206040518083038186803b1580156109d357600080fd5b505afa1580156109e7573d6000803e3d6000fd5b505050506040513d601f19601f82011682018060405250810190610a0b9190611c08565b905090565b600080610a1f8360001961167b565b91509150915091565b6000805460ff16610a4c576040516306fda65d60e31b815260040160405180910390fd5b6000805460ff19169055610a8b7f00000000000000000000000000000000000000000000000000000000000000006001600160a01b03163330866117a1565b600080610aa3610a9961091f565b6106fc8484611cf0565b925060008311610ac65760405163f1ca48b160e01b815260040160405180910390fd5b600454610aea57610adb61dead6103e86117ef565b610ae76103e884611cf0565b92505b610af484846117ef565b60408051868152602081018590526001600160a01b0386169133917fdcbc1c05240f31ff3ad067ef1ee35ce4997762752e3a095284754544f4c709d7910160405180910390a35050610b446118a2565b6000805460ff1916600117905592915050565b6002805461072190611d07565b60007f00000000000000000000000000000000000000000000000000000000000000006001600160a01b0316836001600160a01b031614610beb5760405163d06d9b9360e01b81526001600160a01b0380851660048301527f0000000000000000000000000000000000000000000000000000000000000000166024820152604401610870565b6000610bf7858461167b565b159695505050505050565b60005460ff16610c25576040516306fda65d60e31b815260040160405180910390fd5b6000805460ff19169055610c37611428565b610c52670de0b6b3a7640000670f43fc2c04ee00008361190b565b600a80549082905560408051828152602081018490527faeba5a6c40a8ac138134bff1aaa65debf25971188a58804bad717f82f0ec131691015b60405180910390a150506000805460ff19166001179055565b60006107af338484611558565b6000805460ff16610cd6576040516306fda65d60e31b815260040160405180910390fd5b6000805460ff19169055336001600160a01b03831614610d4e576001600160a01b03821660009081526006602090815260408083203384529091529020546000198114610d4c57610d278582611cf0565b6001600160a01b03841660009081526006602090815260408083203384529091529020555b505b610d60610d5961091f565b85906112fc565b905060008111610d835760405163e3e8d29760e01b815260040160405180910390fd5b610d8d828561194b565b610dc16001600160a01b037f000000000000000000000000000000000000000000000000000000000000000016848361150f565b816001600160a01b0316836001600160a01b0316610ddc3390565b6001600160a01b03167ffbde797d201c681b91056529119e0b02407c7bb96a4a2c75c01fc9667232c8db8488604051610e1f929190918252602082015260400190565b60405180910390a4610e2f6118a2565b6000805460ff191660011790559392505050565b6001600160a01b03821660009081526005602052604081205480831115610e6e5760009150506107b3565b6000610e7a8483611cf0565b90506000610e8961062661091f565b604051637d6af07960e01b81526001600160a01b0388811660048301529192506000917f00000000000000000000000000000000000000000000000000000000000000001690637d6af0799060240160206040518083038186803b158015610ef057600080fd5b505afa158015610f04573d6000803e3d6000fd5b505050506040513d601f19601f82011682018060405250810190610f289190611c08565b90506000610f3683836119f6565b159998505050505050505050565b6001600160a01b038716610f6b57604051639a321bc760e01b815260040160405180910390fd5b6001600160a01b038616610f92576040516353fbd1d760e01b815260040160405180910390fd5b42841015610fbc5760405163075dd20f60e41b815242600482015260248101859052604401610870565b6001600160a01b0387811660008181526007602090815260408083208054600180820190925582517f6e71edae12b1b97f4d1f60370fef10105fa2faae0126114a169c64845d6126c98186015280840196909652958c166060860152608085018b905260a085019590955260c08085018a90528151808603909101815260e08501825280519083012061190160f01b6101008601527f000000000000000000000000000000000000000000000000000000000000000061010286015261012280860182905282518087039091018152610142860180845281519185019190912090859052610162860180845281905260ff8a166101828701526101a286018990526101c2860188905291519095919491926101e2808401939192601f1981019281900390910190855afa1580156110f7573d6000803e3d6000fd5b5050604051601f1901519150506001600160a01b03811661112b57604051637386dbbb60e11b815260040160405180910390fd5b896001600160a01b0316816001600160a01b03161461117f5760405163a1d5f2ed60e01b81526001600160a01b038b16600482015260ff871660248201526044810186905260648101859052608401610870565b6001600160a01b038a81166000818152600660209081526040808320948e16808452948252918290208c905590518b81527f8c5be1e5ebec7d5bd14f71427d1e84f3dd0314c0f7b2291e5b200ac8c7c3b925910160405180910390a350505050505050505050565b60005460ff1661120a576040516306fda65d60e31b815260040160405180910390fd5b6000805460ff1916905561121c611428565b611237670b1a2bc2ec500000670de0b6b3a76400008361190b565b600980549082905560408051828152602081018490527ff25d2243e4128e51523d8537f04f18c3e6390bbfc6323390a9a8e59b921ce0469101610c8c565b60005460ff16611298576040516306fda65d60e31b815260040160405180910390fd5b6000805460ff191690556112aa611428565b6112be600067016345785d8a00008361190b565b600b80549082905560408051828152602081018490527f87272249f1056ec16a68dd9255101358246dd26a796e2f0bc6b3a0ad02f2de419101610c8c565b60008160001904831182021561131a5763bac65e5b6000526004601cfd5b50670de0b6b3a764000091020490565b60007812725dd1d243aba0e75fe645cc4873f9e65afe688c928e1f218311670de0b6b3a76400000215820261136757637c5f487d6000526004601cfd5b50670de0b6b3a7640000919091020490565b6001600160a01b0383166113a0576040516317ba2d8b60e11b815260040160405180910390fd5b6001600160a01b0382166113c757604051632cc8a69760e11b815260040160405180910390fd5b6001600160a01b0383811660008181526006602090815260408083209487168084529482529182902085905590518481527f8c5be1e5ebec7d5bd14f71427d1e84f3dd0314c0f7b2291e5b200ac8c7c3b925910160405180910390a3505050565b60007f00000000000000000000000000000000000000000000000000000000000000006001600160a01b031663f851a4406040518163ffffffff1660e01b815260040160206040518083038186803b15801561148357600080fd5b505afa158015611497573d6000803e3d6000fd5b505050506040513d601f19601f820116820180604052508101906114bb9190611abc565b9050336001600160a01b038216146114f757604051633e7c764160e21b81523360048201526001600160a01b0382166024820152604401610870565b50565b60006107b36001600160a01b03831630611a70565b81601a5280603a5269a9059cbb00000000000060005260206000604460166000875af13d15600160005114171661154e576390b8ec186000526004601cfd5b6000603a52505050565b6001600160a01b03831661157f5760405163618a6e7d60e11b815260040160405180910390fd5b6001600160a01b0382166115a65760405163446ebce960e01b815260040160405180910390fd5b6001600160a01b038316600090815260056020526040902054818110156115ea5760405163355a868d60e01b81526004810182905260248101839052604401610870565b6001600160a01b03808516600090815260056020526040808220858503905591851681529081208054849290611621908490611cd8565b92505081905550826001600160a01b0316846001600160a01b03167fddf252ad1be2c89b69c2b068fc378daa952ba7f163c4a11628f55a4df523b3ef8460405161166d91815260200190565b60405180910390a350505050565b6000806001600160a01b0384166116b65760405163a5075cd160e01b81526001600160a01b0385166004820152326024820152604401610870565b60001983141561175c57604051637d6af07960e01b81526001600160a01b0385811660048301527f00000000000000000000000000000000000000000000000000000000000000001690637d6af0799060240160206040518083038186803b15801561172157600080fd5b505afa158015611735573d6000803e3d6000fd5b505050506040513d601f19601f820116820180604052508101906117599190611c08565b92505b600061178861176961091f565b6001600160a01b038716600090815260056020526040902054906112fc565b905061179481856119f6565b92509250505b9250929050565b6040516323b872dd600052836020528260405281606052602060006064601c6000895af13d1560016000511417166117e157637939f4246000526004601cfd5b600060605260405250505050565b6001600160a01b0382166118165760405163237813dd60e01b815260040160405180910390fd5b6001600160a01b0382166000908152600560205260408120805483929061183e908490611cd8565b9250508190555080600460008282546118579190611cd8565b90915550506040518181526001600160a01b038316906000907fddf252ad1be2c89b69c2b068fc378daa952ba7f163c4a11628f55a4df523b3ef906020015b60405180910390a35050565b60006118cd7f00000000000000000000000000000000000000000000000000000000000000006114fa565b60088190556040518181529091507f8a0df8ef054fae2c3d2d19a7b322e864870cc9fd3cb07fb9526309c596244bf49060200160405180910390a150565b8281108061191857508181115b156119465760405162ccc44d60e41b8152600481018490526024810183905260448101829052606401610870565b505050565b6001600160a01b03821661197257604051630b5da42b60e01b815260040160405180910390fd5b6001600160a01b0382166000908152600560205260408120805483929061199a908490611cf0565b9250508190555080600460008282546119b39190611cf0565b90915550506040518181526000906001600160a01b038416907fddf252ad1be2c89b69c2b068fc378daa952ba7f163c4a11628f55a4df523b3ef90602001611896565b6000806000611a0361094d565b90506000611a1186836112fc565b90506000611a2a600954836112fc90919063ffffffff16565b90506000611a48600b54600a54611a419190611cd8565b88906112fc565b9050808210611a6157900393506000925061179a915050565b6000955003925061179a915050565b60006370a08231600052816020526020806024601c865afa601f3d111660205102905092915050565b600060208284031215611aaa578081fd5b8135611ab581611d58565b9392505050565b600060208284031215611acd578081fd5b8151611ab581611d58565b60008060408385031215611aea578081fd5b8235611af581611d58565b91506020830135611b0581611d58565b809150509250929050565b600080600060608486031215611b24578081fd5b8335611b2f81611d58565b92506020840135611b3f81611d58565b929592945050506040919091013590565b600080600080600080600060e0888a031215611b6a578283fd5b8735611b7581611d58565b96506020880135611b8581611d58565b95506040880135945060608801359350608088013560ff81168114611ba8578384fd5b9699959850939692959460a0840135945060c09093013592915050565b60008060408385031215611bd7578182fd5b8235611be281611d58565b946020939093013593505050565b600060208284031215611c01578081fd5b5035919050565b600060208284031215611c19578081fd5b5051919050565b60008060408385031215611c32578182fd5b823591506020830135611b0581611d58565b600080600060608486031215611c58578283fd5b833592506020840135611c6a81611d58565b91506040840135611c7a81611d58565b809150509250925092565b6000602080835283518082850152825b81811015611cb157858101830151858201604001528201611c95565b81811115611cc25783604083870101525b50601f01601f1916929092016040019392505050565b60008219821115611ceb57611ceb611d42565b500190565b600082821015611d0257611d02611d42565b500390565b600181811c90821680611d1b57607f821691505b60208210811415611d3c57634e487b7160e01b600052602260045260246000fd5b50919050565b634e487b7160e01b600052601160045260246000fd5b6001600160a01b03811681146114f757600080fdfea264697066735822122095c31e6c642beb4ccd63ea5fef8a9b9171916f5f8ff3a03cd4661b5dd397bf1f64736f6c63430008040033",
  "linkReferences": {},
  "deployedLinkReferences": {}
}