{
  "_format": "hh-sol-artifact-1",
  "contractName": "CygnusCollateralModel",
  "sourceName": "contracts/cygnus-core/CygnusCollateralModel.sol",
  "abi": [
    {
      "inputs": [
        {
          "internalType": "address",
          "name": "sender",
          "type": "address"
        },
        {
          "internalType": "address",
          "name": "origin",
          "type": "address"
        }
      ],
      "name": "CygnusCollateralChef__OnlyEOAAllowed",
      "type": "error"
    },
    {
      "inputs": [
        {
          "internalType": "address",
          "name": "tokenReward",
          "type": "address"
        }
      ],
      "name": "CygnusCollateralChef__VoidAlreadyInitialized",
      "type": "error"
    },
    {
      "inputs": [
        {
          "internalType": "uint256",
          "name": "min",
          "type": "uint256"
        },
        {
          "internalType": "uint256",
          "name": "max",
          "type": "uint256"
        },
        {
          "internalType": "uint256",
          "name": "value",
          "type": "uint256"
        }
      ],
      "name": "CygnusCollateralControl__ParameterNotInRange",
      "type": "error"
    },
    {
      "inputs": [
        {
          "internalType": "address",
          "name": "invalidBorrowable",
          "type": "address"
        },
        {
          "internalType": "address",
          "name": "validBorrowable",
          "type": "address"
        }
      ],
      "name": "CygnusCollateralModel__BorrowableInvalid",
      "type": "error"
    },
    {
      "inputs": [
        {
          "internalType": "address",
          "name": "sender",
          "type": "address"
        },
        {
          "internalType": "address",
          "name": "origin",
          "type": "address"
        }
      ],
      "name": "CygnusCollateralModel__BorrowerCantBeAddressZero",
      "type": "error"
    },
    {
      "inputs": [],
      "name": "CygnusTerminal__CantMintZeroShares",
      "type": "error"
    },
    {
      "inputs": [],
      "name": "CygnusTerminal__CantRedeemZeroAssets",
      "type": "error"
    },
    {
      "inputs": [
        {
          "internalType": "address",
          "name": "token",
          "type": "address"
        },
        {
          "internalType": "address",
          "name": "underlying",
          "type": "address"
        }
      ],
      "name": "CygnusTerminal__CantSweepUnderlying",
      "type": "error"
    },
    {
      "inputs": [
        {
          "internalType": "address",
          "name": "sender",
          "type": "address"
        },
        {
          "internalType": "address",
          "name": "factoryAdmin",
          "type": "address"
        }
      ],
      "name": "CygnusTerminal__MsgSenderNotAdmin",
      "type": "error"
    },
    {
      "inputs": [
        {
          "internalType": "uint256",
          "name": "assets",
          "type": "uint256"
        },
        {
          "internalType": "uint256",
          "name": "totalBalance",
          "type": "uint256"
        }
      ],
      "name": "CygnusTerminal__RedeemAmountInvalid",
      "type": "error"
    },
    {
      "inputs": [],
      "name": "ERC20__ApproveOwnerZeroAddress",
      "type": "error"
    },
    {
      "inputs": [],
      "name": "ERC20__ApproveSpenderZeroAddress",
      "type": "error"
    },
    {
      "inputs": [
        {
          "internalType": "uint256",
          "name": "accountBalance",
          "type": "uint256"
        },
        {
          "internalType": "uint256",
          "name": "burnAmount",
          "type": "uint256"
        }
      ],
      "name": "ERC20__BurnUnderflow",
      "type": "error"
    },
    {
      "inputs": [],
      "name": "ERC20__BurnZeroAddress",
      "type": "error"
    },
    {
      "inputs": [
        {
          "internalType": "uint256",
          "name": "allowance",
          "type": "uint256"
        },
        {
          "internalType": "uint256",
          "name": "amount",
          "type": "uint256"
        }
      ],
      "name": "ERC20__InsufficientAllowance",
      "type": "error"
    },
    {
      "inputs": [
        {
          "internalType": "uint256",
          "name": "senderBalance",
          "type": "uint256"
        },
        {
          "internalType": "uint256",
          "name": "amount",
          "type": "uint256"
        }
      ],
      "name": "ERC20__InsufficientBalance",
      "type": "error"
    },
    {
      "inputs": [],
      "name": "ERC20__MintZeroAddress",
      "type": "error"
    },
    {
      "inputs": [],
      "name": "ERC20__TransferRecipientZeroAddress",
      "type": "error"
    },
    {
      "inputs": [],
      "name": "ERC20__TransferSenderZeroAddress",
      "type": "error"
    },
    {
      "inputs": [
        {
          "internalType": "uint256",
          "name": "prod1",
          "type": "uint256"
        }
      ],
      "name": "PRBMath__MulDivFixedPointOverflow",
      "type": "error"
    },
    {
      "inputs": [
        {
          "internalType": "uint256",
          "name": "prod1",
          "type": "uint256"
        },
        {
          "internalType": "uint256",
          "name": "denominator",
          "type": "uint256"
        }
      ],
      "name": "PRBMath__MulDivOverflow",
      "type": "error"
    },
    {
      "inputs": [],
      "name": "ReentrantCall",
      "type": "error"
    },
    {
      "anonymous": false,
      "inputs": [
        {
          "indexed": true,
          "internalType": "address",
          "name": "owner",
          "type": "address"
        },
        {
          "indexed": true,
          "internalType": "address",
          "name": "spender",
          "type": "address"
        },
        {
          "indexed": false,
          "internalType": "uint256",
          "name": "amount",
          "type": "uint256"
        }
      ],
      "name": "Approval",
      "type": "event"
    },
    {
      "anonymous": false,
      "inputs": [
        {
          "indexed": false,
          "internalType": "contract IDexRouter02",
          "name": "_dexRouter",
          "type": "address"
        },
        {
          "indexed": false,
          "internalType": "contract IMiniChef",
          "name": "_rewarder",
          "type": "address"
        },
        {
          "indexed": false,
          "internalType": "address",
          "name": "_rewardsToken",
          "type": "address"
        },
        {
          "indexed": false,
          "internalType": "uint256",
          "name": "_pid",
          "type": "uint256"
        }
      ],
      "name": "ChargeVoid",
      "type": "event"
    },
    {
      "anonymous": false,
      "inputs": [
        {
          "indexed": true,
          "internalType": "address",
          "name": "sender",
          "type": "address"
        },
        {
          "indexed": true,
          "internalType": "address",
          "name": "recipient",
          "type": "address"
        },
        {
          "indexed": false,
          "internalType": "uint256",
          "name": "assets",
          "type": "uint256"
        },
        {
          "indexed": false,
          "internalType": "uint256",
          "name": "shares",
          "type": "uint256"
        }
      ],
      "name": "Deposit",
      "type": "event"
    },
    {
      "anonymous": false,
      "inputs": [
        {
          "indexed": false,
          "internalType": "uint256",
          "name": "oldDebtRatio",
          "type": "uint256"
        },
        {
          "indexed": false,
          "internalType": "uint256",
          "name": "newDebtRatio",
          "type": "uint256"
        }
      ],
      "name": "NewDebtRatio",
      "type": "event"
    },
    {
      "anonymous": false,
      "inputs": [
        {
          "indexed": false,
          "internalType": "uint256",
          "name": "oldLiquidationFee",
          "type": "uint256"
        },
        {
          "indexed": false,
          "internalType": "uint256",
          "name": "newLiquidationFee",
          "type": "uint256"
        }
      ],
      "name": "NewLiquidationFee",
      "type": "event"
    },
    {
      "anonymous": false,
      "inputs": [
        {
          "indexed": false,
          "internalType": "uint256",
          "name": "oldLiquidationIncentive",
          "type": "uint256"
        },
        {
          "indexed": false,
          "internalType": "uint256",
          "name": "newLiquidationIncentive",
          "type": "uint256"
        }
      ],
      "name": "NewLiquidationIncentive",
      "type": "event"
    },
    {
      "anonymous": false,
      "inputs": [
        {
          "indexed": true,
          "internalType": "address",
          "name": "shuttle",
          "type": "address"
        },
        {
          "indexed": false,
          "internalType": "address",
          "name": "reinvestor",
          "type": "address"
        },
        {
          "indexed": false,
          "internalType": "uint256",
          "name": "rewardBalance",
          "type": "uint256"
        },
        {
          "indexed": false,
          "internalType": "uint256",
          "name": "reinvestReward",
          "type": "uint256"
        },
        {
          "indexed": false,
          "internalType": "uint256",
          "name": "daoReward",
          "type": "uint256"
        }
      ],
      "name": "RechargeVoid",
      "type": "event"
    },
    {
      "anonymous": false,
      "inputs": [
        {
          "indexed": false,
          "internalType": "uint256",
          "name": "totalBalance",
          "type": "uint256"
        }
      ],
      "name": "Sync",
      "type": "event"
    },
    {
      "anonymous": false,
      "inputs": [
        {
          "indexed": true,
          "internalType": "address",
          "name": "from",
          "type": "address"
        },
        {
          "indexed": true,
          "internalType": "address",
          "name": "to",
          "type": "address"
        },
        {
          "indexed": false,
          "internalType": "uint256",
          "name": "amount",
          "type": "uint256"
        }
      ],
      "name": "Transfer",
      "type": "event"
    },
    {
      "anonymous": false,
      "inputs": [
        {
          "indexed": true,
          "internalType": "address",
          "name": "sender",
          "type": "address"
        },
        {
          "indexed": true,
          "internalType": "address",
          "name": "recipient",
          "type": "address"
        },
        {
          "indexed": true,
          "internalType": "address",
          "name": "owner",
          "type": "address"
        },
        {
          "indexed": false,
          "internalType": "uint256",
          "name": "assets",
          "type": "uint256"
        },
        {
          "indexed": false,
          "internalType": "uint256",
          "name": "shares",
          "type": "uint256"
        }
      ],
      "name": "Withdraw",
      "type": "event"
    },
    {
      "inputs": [],
      "name": "DAO_REWARD",
      "outputs": [
        {
          "internalType": "uint256",
          "name": "",
          "type": "uint256"
        }
      ],
      "stateMutability": "view",
      "type": "function"
    },
    {
      "inputs": [],
      "name": "REINVEST_REWARD",
      "outputs": [
        {
          "internalType": "uint256",
          "name": "",
          "type": "uint256"
        }
      ],
      "stateMutability": "view",
      "type": "function"
    },
    {
      "inputs": [
        {
          "internalType": "address",
          "name": "owner",
          "type": "address"
        },
        {
          "internalType": "address",
          "name": "spender",
          "type": "address"
        }
      ],
      "name": "allowance",
      "outputs": [
        {
          "internalType": "uint256",
          "name": "",
          "type": "uint256"
        }
      ],
      "stateMutability": "view",
      "type": "function"
    },
    {
      "inputs": [
        {
          "internalType": "address",
          "name": "spender",
          "type": "address"
        },
        {
          "internalType": "uint256",
          "name": "amount",
          "type": "uint256"
        }
      ],
      "name": "approve",
      "outputs": [
        {
          "internalType": "bool",
          "name": "",
          "type": "bool"
        }
      ],
      "stateMutability": "nonpayable",
      "type": "function"
    },
    {
      "inputs": [
        {
          "internalType": "address",
          "name": "account",
          "type": "address"
        }
      ],
      "name": "balanceOf",
      "outputs": [
        {
          "internalType": "uint256",
          "name": "",
          "type": "uint256"
        }
      ],
      "stateMutability": "view",
      "type": "function"
    },
    {
      "inputs": [],
      "name": "borrowable",
      "outputs": [
        {
          "internalType": "address",
          "name": "",
          "type": "address"
        }
      ],
      "stateMutability": "view",
      "type": "function"
    },
    {
      "inputs": [
        {
          "internalType": "address",
          "name": "borrower",
          "type": "address"
        },
        {
          "internalType": "address",
          "name": "borrowableToken",
          "type": "address"
        },
        {
          "internalType": "uint256",
          "name": "borrowAmount",
          "type": "uint256"
        }
      ],
      "name": "canBorrow",
      "outputs": [
        {
          "internalType": "bool",
          "name": "",
          "type": "bool"
        }
      ],
      "stateMutability": "view",
      "type": "function"
    },
    {
      "inputs": [
        {
          "internalType": "address",
          "name": "borrower",
          "type": "address"
        },
        {
          "internalType": "uint256",
          "name": "redeemAmount",
          "type": "uint256"
        }
      ],
      "name": "canRedeem",
      "outputs": [
        {
          "internalType": "bool",
          "name": "",
          "type": "bool"
        }
      ],
      "stateMutability": "view",
      "type": "function"
    },
    {
      "inputs": [
        {
          "internalType": "contract IDexRouter02",
          "name": "dexRouterVoid",
          "type": "address"
        },
        {
          "internalType": "contract IMiniChef",
          "name": "rewarderVoid",
          "type": "address"
        },
        {
          "internalType": "address",
          "name": "rewardsTokenVoid",
          "type": "address"
        },
        {
          "internalType": "uint256",
          "name": "pidVoid",
          "type": "uint256"
        }
      ],
      "name": "chargeVoid",
      "outputs": [],
      "stateMutability": "nonpayable",
      "type": "function"
    },
    {
      "inputs": [],
      "name": "cygnusNebulaOracle",
      "outputs": [
        {
          "internalType": "contract IChainlinkNebulaOracle",
          "name": "",
          "type": "address"
        }
      ],
      "stateMutability": "view",
      "type": "function"
    },
    {
      "inputs": [],
      "name": "debtRatio",
      "outputs": [
        {
          "internalType": "uint256",
          "name": "",
          "type": "uint256"
        }
      ],
      "stateMutability": "view",
      "type": "function"
    },
    {
      "inputs": [],
      "name": "decimals",
      "outputs": [
        {
          "internalType": "uint8",
          "name": "",
          "type": "uint8"
        }
      ],
      "stateMutability": "view",
      "type": "function"
    },
    {
      "inputs": [
        {
          "internalType": "uint256",
          "name": "assets",
          "type": "uint256"
        },
        {
          "internalType": "address",
          "name": "recipient",
          "type": "address"
        }
      ],
      "name": "deposit",
      "outputs": [
        {
          "internalType": "uint256",
          "name": "shares",
          "type": "uint256"
        }
      ],
      "stateMutability": "nonpayable",
      "type": "function"
    },
    {
      "inputs": [],
      "name": "exchangeRate",
      "outputs": [
        {
          "internalType": "uint256",
          "name": "",
          "type": "uint256"
        }
      ],
      "stateMutability": "view",
      "type": "function"
    },
    {
      "inputs": [
        {
          "internalType": "address",
          "name": "borrower",
          "type": "address"
        }
      ],
      "name": "getAccountLiquidity",
      "outputs": [
        {
          "internalType": "uint256",
          "name": "liquidity",
          "type": "uint256"
        },
        {
          "internalType": "uint256",
          "name": "shortfall",
          "type": "uint256"
        }
      ],
      "stateMutability": "view",
      "type": "function"
    },
    {
      "inputs": [],
      "name": "getCygnusVoid",
      "outputs": [
        {
          "internalType": "contract IMiniChef",
          "name": "",
          "type": "address"
        },
        {
          "internalType": "contract IDexRouter02",
          "name": "",
          "type": "address"
        },
        {
          "internalType": "address",
          "name": "",
          "type": "address"
        },
        {
          "internalType": "uint256",
          "name": "",
          "type": "uint256"
        }
      ],
      "stateMutability": "view",
      "type": "function"
    },
    {
      "inputs": [
        {
          "internalType": "address",
          "name": "borrower",
          "type": "address"
        }
      ],
      "name": "getDebtRatio",
      "outputs": [
        {
          "internalType": "uint256",
          "name": "",
          "type": "uint256"
        }
      ],
      "stateMutability": "view",
      "type": "function"
    },
    {
      "inputs": [],
      "name": "getLPTokenPrice",
      "outputs": [
        {
          "internalType": "uint256",
          "name": "",
          "type": "uint256"
        }
      ],
      "stateMutability": "view",
      "type": "function"
    },
    {
      "inputs": [],
      "name": "hangar18",
      "outputs": [
        {
          "internalType": "address",
          "name": "",
          "type": "address"
        }
      ],
      "stateMutability": "view",
      "type": "function"
    },
    {
      "inputs": [],
      "name": "liquidationFee",
      "outputs": [
        {
          "internalType": "uint256",
          "name": "",
          "type": "uint256"
        }
      ],
      "stateMutability": "view",
      "type": "function"
    },
    {
      "inputs": [],
      "name": "liquidationIncentive",
      "outputs": [
        {
          "internalType": "uint256",
          "name": "",
          "type": "uint256"
        }
      ],
      "stateMutability": "view",
      "type": "function"
    },
    {
      "inputs": [],
      "name": "name",
      "outputs": [
        {
          "internalType": "string",
          "name": "",
          "type": "string"
        }
      ],
      "stateMutability": "view",
      "type": "function"
    },
    {
      "inputs": [],
      "name": "orbiterName",
      "outputs": [
        {
          "internalType": "string",
          "name": "",
          "type": "string"
        }
      ],
      "stateMutability": "view",
      "type": "function"
    },
    {
      "inputs": [
        {
          "internalType": "uint256",
          "name": "shares",
          "type": "uint256"
        },
        {
          "internalType": "address",
          "name": "recipient",
          "type": "address"
        },
        {
          "internalType": "address",
          "name": "owner",
          "type": "address"
        }
      ],
      "name": "redeem",
      "outputs": [
        {
          "internalType": "uint256",
          "name": "assets",
          "type": "uint256"
        }
      ],
      "stateMutability": "nonpayable",
      "type": "function"
    },
    {
      "inputs": [],
      "name": "reinvestRewards_y7b",
      "outputs": [],
      "stateMutability": "nonpayable",
      "type": "function"
    },
    {
      "inputs": [
        {
          "internalType": "uint256",
          "name": "newDebtRatio",
          "type": "uint256"
        }
      ],
      "name": "setDebtRatio",
      "outputs": [],
      "stateMutability": "nonpayable",
      "type": "function"
    },
    {
      "inputs": [
        {
          "internalType": "uint256",
          "name": "newLiquidationFee",
          "type": "uint256"
        }
      ],
      "name": "setLiquidationFee",
      "outputs": [],
      "stateMutability": "nonpayable",
      "type": "function"
    },
    {
      "inputs": [
        {
          "internalType": "uint256",
          "name": "newLiquidationIncentive",
          "type": "uint256"
        }
      ],
      "name": "setLiquidationIncentive",
      "outputs": [],
      "stateMutability": "nonpayable",
      "type": "function"
    },
    {
      "inputs": [],
      "name": "shuttleId",
      "outputs": [
        {
          "internalType": "uint256",
          "name": "",
          "type": "uint256"
        }
      ],
      "stateMutability": "view",
      "type": "function"
    },
    {
      "inputs": [
        {
          "internalType": "address",
          "name": "token",
          "type": "address"
        }
      ],
      "name": "sweepToken",
      "outputs": [],
      "stateMutability": "nonpayable",
      "type": "function"
    },
    {
      "inputs": [],
      "name": "symbol",
      "outputs": [
        {
          "internalType": "string",
          "name": "",
          "type": "string"
        }
      ],
      "stateMutability": "view",
      "type": "function"
    },
    {
      "inputs": [],
      "name": "totalBalance",
      "outputs": [
        {
          "internalType": "uint256",
          "name": "",
          "type": "uint256"
        }
      ],
      "stateMutability": "view",
      "type": "function"
    },
    {
      "inputs": [],
      "name": "totalSupply",
      "outputs": [
        {
          "internalType": "uint256",
          "name": "",
          "type": "uint256"
        }
      ],
      "stateMutability": "view",
      "type": "function"
    },
    {
      "inputs": [
        {
          "internalType": "address",
          "name": "recipient",
          "type": "address"
        },
        {
          "internalType": "uint256",
          "name": "amount",
          "type": "uint256"
        }
      ],
      "name": "transfer",
      "outputs": [
        {
          "internalType": "bool",
          "name": "",
          "type": "bool"
        }
      ],
      "stateMutability": "nonpayable",
      "type": "function"
    },
    {
      "inputs": [
        {
          "internalType": "address",
          "name": "sender",
          "type": "address"
        },
        {
          "internalType": "address",
          "name": "recipient",
          "type": "address"
        },
        {
          "internalType": "uint256",
          "name": "amount",
          "type": "uint256"
        }
      ],
      "name": "transferFrom",
      "outputs": [
        {
          "internalType": "bool",
          "name": "",
          "type": "bool"
        }
      ],
      "stateMutability": "nonpayable",
      "type": "function"
    },
    {
      "inputs": [],
      "name": "underlying",
      "outputs": [
        {
          "internalType": "address",
          "name": "",
          "type": "address"
        }
      ],
      "stateMutability": "view",
      "type": "function"
    },
    {
      "stateMutability": "payable",
      "type": "receive"
    }
  ],
  "bytecode": "0x6101a0604052670d2f13f7789f0000600855670e398811bec680006009553480156200002a57600080fd5b5060408051808201825260128082527110de59db9d5cce8810dbdb1b185d195c985b60721b602080840191825284519081019094526000808552805460ff1916600190811790915583519394938592859285926200008992906200067a565b5081516200009f9060029060208501906200067a565b5060f81b7fff000000000000000000000000000000000000000000000000000000000000001660805250600090508080620000d73390565b6001600160a01b031663c3bc64ea6040518163ffffffff1660e01b8152600401608060405180830381600087803b1580156200011257600080fd5b505af192505050801562000145575060408051601f3d908101601f19168201909252620001429181019062000746565b60015b620001d457336001600160a01b0316639a9862366040518163ffffffff1660e01b815260040160c060405180830381600087803b1580156200018657600080fd5b505af11580156200019b573d6000803e3d6000fd5b505050506040513d601f19601f82011682018060405250810190620001c191906200079f565b50939650919450909250620001df915050565b929550909350909150505b6001600160601b0319606093841b811660a0529190921b1660e05260c05250600091506200020c90503390565b6001600160a01b031663c3bc64ea6040518163ffffffff1660e01b8152600401608060405180830381600087803b1580156200024757600080fd5b505af11580156200025c573d6000803e3d6000fd5b505050506040513d601f19601f8201168201806040525081019062000282919062000746565b90915050806001600160a01b0316610100906001600160a01b031660601b8152508192505050806001600160a01b031663d935bd926040518163ffffffff1660e01b815260040160206040518083038186803b158015620002e257600080fd5b505afa158015620002f7573d6000803e3d6000fd5b505050506040513d601f19601f820116820180604052508101906200031d919062000720565b60601b6001600160601b031916610120525060006003819055806200033f3390565b6001600160a01b031663c3bc64ea6040518163ffffffff1660e01b8152600401608060405180830381600087803b1580156200037a57600080fd5b505af11580156200038f573d6000803e3d6000fd5b505050506040513d601f19601f82011682018060405250810190620003b5919062000746565b5050915091506000816001600160a01b0316630dfe16816040518163ffffffff1660e01b815260040160206040518083038186803b158015620003f757600080fd5b505afa1580156200040c573d6000803e3d6000fd5b505050506040513d601f19601f8201168201806040525081019062000432919062000720565b90506000826001600160a01b031663d21220a76040518163ffffffff1660e01b815260040160206040518083038186803b1580156200047057600080fd5b505afa15801562000485573d6000803e3d6000fd5b505050506040513d601f19601f82011682018060405250810190620004ab919062000720565b9050816001600160a01b03166395d89b416040518163ffffffff1660e01b815260040160006040518083038186803b158015620004e757600080fd5b505afa158015620004fc573d6000803e3d6000fd5b505050506040513d6000823e601f3d908101601f191682016040526200052691908101906200080e565b816001600160a01b03166395d89b416040518163ffffffff1660e01b815260040160006040518083038186803b1580156200056057600080fd5b505afa15801562000575573d6000803e3d6000fd5b505050506040513d6000823e601f3d908101601f191682016040526200059f91908101906200080e565b604051602001620005b2929190620008c2565b60405160208183030381529060405260029080519060200190620005d89291906200067a565b50836001600160a01b031663e1758bd86040518163ffffffff1660e01b815260040160206040518083038186803b1580156200061357600080fd5b505afa15801562000628573d6000803e3d6000fd5b505050506040513d601f19601f820116820180604052508101906200064e919062000720565b6001600160601b0319606091821b81166101405292811b8316610160521b166101805250620009b39050565b828054620006889062000947565b90600052602060002090601f016020900481019282620006ac5760008555620006f7565b82601f10620006c757805160ff1916838001178555620006f7565b82800160010185558215620006f7579182015b82811115620006f7578251825591602001919060010190620006da565b506200070592915062000709565b5090565b5b808211156200070557600081556001016200070a565b60006020828403121562000732578081fd5b81516200073f816200099a565b9392505050565b600080600080608085870312156200075c578283fd5b845162000769816200099a565b60208601519094506200077c816200099a565b60408601519093506200078f816200099a565b6060959095015193969295505050565b60008060008060008060c08789031215620007b8578182fd5b8651620007c5816200099a565b6020880151909650620007d8816200099a565b6040880151909550620007eb816200099a565b80945050606087015192506080870151915060a087015190509295509295509295565b60006020828403121562000820578081fd5b81516001600160401b038082111562000837578283fd5b818401915084601f8301126200084b578283fd5b81518181111562000860576200086062000984565b604051601f8201601f19908116603f011681019083821181831017156200088b576200088b62000984565b81604052828152876020848701011115620008a4578586fd5b620008b783602083016020880162000914565b979650505050505050565b65021bcb3a628160d51b815260008351620008e581600685016020880162000914565b602f60f81b60069184019182015283516200090881600784016020880162000914565b01600701949350505050565b60005b838110156200093157818101518382015260200162000917565b8381111562000941576000848401525b50505050565b600181811c908216806200095c57607f821691505b602082108114156200097e57634e487b7160e01b600052602260045260246000fd5b50919050565b634e487b7160e01b600052604160045260246000fd5b6001600160a01b0381168114620009b057600080fd5b50565b60805160f81c60a05160601c60c05160e05160601c6101005160601c6101205160601c6101405160601c6101605160601c6101805160601c6133b762000b546000396000818161097b015281816109e601528181610a4e01528181610b3e01528181610bc80152610ca1015260008181610943015281816109b301528181610a0701528181610a2d01528181610ae301528181610b9901528181610be901528181610c3301528181610c7e0152610d8b01526000818161021801528181610a8a01528181610ab901528181610b1401528181610b6f01528181610c1201528181610c57015281816114cf0152611de40152600081816106da015261132501526000818161079d01528181610f680152818161167b015281816116d1015281816119fc01526125a001526000818161054b01528181610cd3015281816111060152818161115d015281816112f301528181611483015281816115c5015281816118e8015281816120c3015281816120f70152612131015260006104d701526000818161076901528181610890015261234b0152600061041701526133b76000f3fe6080604052600436106102115760003560e01c806370a0823111610118578063cc1f8ffa116100a0578063dd62ed3e1161006f578063dd62ed3e14610711578063e8a24e1d14610757578063e99a6ac71461078b578063eb6a887d146107bf578063fef0bec8146107df57600080fd5b8063cc1f8ffa14610692578063cea55f57146106b2578063d935bd92146106c8578063da7a2f74146106fc57600080fd5b8063a36a3630116100e7578063a36a363014610606578063a84310811461061c578063a9059cbb1461063c578063ad7a672f1461065c578063ba0876521461067257600080fd5b806370a08231146105855780638c765e94146105bb57806395d89b41146105d15780639aac2c53146105e657600080fd5b8063313ce5671161019b5780635ec88c791161016a5780635ec88c79146104905780635f77f891146104c557806361a2ff34146104f95780636e553f65146105195780636f307dc31461053957600080fd5b8063313ce567146104055780633ba0b9a91461044b578063513036221461046057806359b0bc2a1461047557600080fd5b806318160ddd116101e257806318160ddd1461032d5780631995bc1a146103435780631be19560146103aa5780631c198188146103ca57806323b872dd146103e557600080fd5b8061e18a14610291578063031a5c82146102a857806306fdde03146102db578063095ea7b3146102fd57600080fd5b3661028c577f00000000000000000000000000000000000000000000000000000000000000006001600160a01b031663d0e30db0346040518263ffffffff1660e01b81526004016000604051808303818588803b15801561027157600080fd5b505af1158015610285573d6000803e3d6000fd5b5050505050005b600080fd5b34801561029d57600080fd5b506102a66107ff565b005b3480156102b457600080fd5b506102c86102c3366004612e1f565b610f00565b6040519081526020015b60405180910390f35b3480156102e757600080fd5b506102f061102a565b6040516102d291906131d4565b34801561030957600080fd5b5061031d610318366004612ecf565b6110b8565b60405190151581526020016102d2565b34801561033957600080fd5b506102c860035481565b34801561034f57600080fd5b50610375600d54600c54600b54600e546001600160a01b03938416949284169390911691565b6040516102d294939291906001600160a01b039485168152928416602084015292166040820152606081019190915260800190565b3480156103b657600080fd5b506102a66103c5366004612e1f565b6110cf565b3480156103d657600080fd5b506102c866470de4df82000081565b3480156103f157600080fd5b5061031d610400366004612e8f565b611238565b34801561041157600080fd5b506104397f000000000000000000000000000000000000000000000000000000000000000081565b60405160ff90911681526020016102d2565b34801561045757600080fd5b506102c86112ae565b34801561046c57600080fd5b506102c86112dc565b34801561048157600080fd5b506102c8662386f26fc1000081565b34801561049c57600080fd5b506104b06104ab366004612e1f565b6113ae565b604080519283526020830191909152016102d2565b3480156104d157600080fd5b506102c87f000000000000000000000000000000000000000000000000000000000000000081565b34801561050557600080fd5b506102a661051436600461308a565b6113c6565b34801561052557600080fd5b506102c861053436600461314c565b61155d565b34801561054557600080fd5b5061056d7f000000000000000000000000000000000000000000000000000000000000000081565b6040516001600160a01b0390911681526020016102d2565b34801561059157600080fd5b506102c86105a0366004612e1f565b6001600160a01b031660009081526004602052604090205490565b3480156105c757600080fd5b506102c860095481565b3480156105dd57600080fd5b506102f061166a565b3480156105f257600080fd5b5061031d610601366004612e8f565b611677565b34801561061257600080fd5b506102c8600a5481565b34801561062857600080fd5b506102a661063736600461311c565b611715565b34801561064857600080fd5b5061031d610657366004612ecf565b6117b8565b34801561066857600080fd5b506102c860065481565b34801561067e57600080fd5b506102c861068d366004613170565b6117c5565b34801561069e57600080fd5b5061031d6106ad366004612ecf565b611991565b3480156106be57600080fd5b506102c860085481565b3480156106d457600080fd5b5061056d7f000000000000000000000000000000000000000000000000000000000000000081565b34801561070857600080fd5b506102f0611a92565b34801561071d57600080fd5b506102c861072c366004612e57565b6001600160a01b03918216600090815260056020908152604080832093909416825291909152205490565b34801561076357600080fd5b5061056d7f000000000000000000000000000000000000000000000000000000000000000081565b34801561079757600080fd5b5061056d7f000000000000000000000000000000000000000000000000000000000000000081565b3480156107cb57600080fd5b506102a66107da36600461311c565b611a9f565b3480156107eb57600080fd5b506102a66107fa36600461311c565b611b2d565b60005460ff16610822576040516306fda65d60e31b815260040160405180910390fd5b6000805460ff19169055610834611bb4565b600061083e611bde565b90508061084b5750610ee9565b600061085e8266470de4df820000611e4a565b905061087733600b546001600160a01b03169083611e56565b600061088a83662386f26fc10000611e4a565b905060007f00000000000000000000000000000000000000000000000000000000000000006001600160a01b0316635b068af86040518163ffffffff1660e01b815260040160206040518083038186803b1580156108e757600080fd5b505afa1580156108fb573d6000803e3d6000fd5b505050506040513d601f19601f8201168201806040525081019061091f9190612e3b565b600b54909150610939906001600160a01b03168284611e56565b600b5460009081907f00000000000000000000000000000000000000000000000000000000000000006001600160a01b03908116911614806109a95750600b547f00000000000000000000000000000000000000000000000000000000000000006001600160a01b039081169116145b15610a7857600b547f00000000000000000000000000000000000000000000000000000000000000006001600160a01b03908116911614610a2b577f00000000000000000000000000000000000000000000000000000000000000007f0000000000000000000000000000000000000000000000000000000000000000610a6e565b7f00000000000000000000000000000000000000000000000000000000000000007f00000000000000000000000000000000000000000000000000000000000000005b9092509050610cc1565b600b54610ab7906001600160a01b03167f0000000000000000000000000000000000000000000000000000000000000000610ab282611e9a565b611f14565b7f00000000000000000000000000000000000000000000000000000000000000006001600160a01b03167f00000000000000000000000000000000000000000000000000000000000000006001600160a01b03161480610b6857507f00000000000000000000000000000000000000000000000000000000000000006001600160a01b03167f00000000000000000000000000000000000000000000000000000000000000006001600160a01b0316145b15610c0d577f00000000000000000000000000000000000000000000000000000000000000006001600160a01b03167f00000000000000000000000000000000000000000000000000000000000000006001600160a01b031614610a2b577f00000000000000000000000000000000000000000000000000000000000000007f0000000000000000000000000000000000000000000000000000000000000000610a6e565b610c7b7f00000000000000000000000000000000000000000000000000000000000000007f0000000000000000000000000000000000000000000000000000000000000000610ab27f0000000000000000000000000000000000000000000000000000000000000000611e9a565b507f000000000000000000000000000000000000000000000000000000000000000090507f00000000000000000000000000000000000000000000000000000000000000005b6000610ccc83611e9a565b90506000807f00000000000000000000000000000000000000000000000000000000000000006001600160a01b0316630902f1ac6040518163ffffffff1660e01b815260040160606040518083038186803b158015610d2a57600080fd5b505afa158015610d3e573d6000803e3d6000fd5b505050506040513d601f19601f82011682018060405250810190610d6291906130da565b506dffffffffffffffffffffffffffff1691506dffffffffffffffffffffffffffff16915060007f00000000000000000000000000000000000000000000000000000000000000006001600160a01b0316866001600160a01b031614610dc85781610dca565b825b90506000610dd88583612042565b9050610de5878783611f14565b6000610e048888610df6858a6132ee565b610dff8b611e9a565b6120b2565b600d54600e54604051631c57762b60e31b81526004810191909152602481018390529192506001600160a01b03169063e2bbb15890604401600060405180830381600087803b158015610e5657600080fd5b505af1158015610e6a573d6000803e3d6000fd5b50505050306001600160a01b03167f7939504e0d173f269dabb97feceec8ad244dcdb64e12dd74ce21a2841e4f4b11610ea03390565b8e8e8e604051610ed494939291906001600160a01b0394909416845260208401929092526040830152606082015260800190565b60405180910390a25050505050505050505050505b610ef16121be565b6000805460ff19166001179055565b600080610f2d610f0e6112ae565b6001600160a01b03851660009081526004602052604090205490611e4a565b90506000610f43610f3c6112dc565b8390611e4a565b604051637d6af07960e01b81526001600160a01b0386811660048301529192506000917f00000000000000000000000000000000000000000000000000000000000000001690637d6af0799060240160206040518083038186803b158015610faa57600080fd5b505afa158015610fbe573d6000803e3d6000fd5b505050506040513d601f19601f82011682018060405250810190610fe29190613134565b90506000610ff9600a54600954610f3c9190613297565b9050811561101d57600854611018906110128386612283565b90612283565b611020565b60005b9695505050505050565b6001805461103790613305565b80601f016020809104026020016040519081016040528092919081815260200182805461106390613305565b80156110b05780601f10611085576101008083540402835291602001916110b0565b820191906000526020600020905b81548152906001019060200180831161109357829003601f168201915b505050505081565b60006110c5338484612298565b5060015b92915050565b60005460ff166110f2576040516306fda65d60e31b815260040160405180910390fd5b6000805460ff19169055611104612347565b7f00000000000000000000000000000000000000000000000000000000000000006001600160a01b0316816001600160a01b0316141561118f576040516303b91a9160e31b81526001600160a01b0380831660048301527f00000000000000000000000000000000000000000000000000000000000000001660248201526044015b60405180910390fd5b6040516370a0823160e01b81523060048201526000906001600160a01b038316906370a082319060240160206040518083038186803b1580156111d157600080fd5b505afa1580156111e5573d6000803e3d6000fd5b505050506040513d601f19601f820116820180604052508101906112099190613134565b905061121f6001600160a01b0383163383611e56565b506112286121be565b506000805460ff19166001179055565b6000611245848484612419565b6001600160a01b038416600090815260056020908152604080832033845290915290205482811015611294576040516310c6013560e31b81526004810182905260248101849052604401611186565b6112a18533858403612298565b60019150505b9392505050565b60035460009080156112cc576006546112c79082612283565b6112d6565b670de0b6b3a76400005b91505090565b604051638c5a6f8160e01b81526001600160a01b037f00000000000000000000000000000000000000000000000000000000000000008116600483015260009164e8d4a51000917f00000000000000000000000000000000000000000000000000000000000000001690638c5a6f819060240160206040518083038186803b15801561136757600080fd5b505afa15801561137b573d6000803e3d6000fd5b505050506040513d601f19601f8201168201806040525081019061139f9190613134565b6113a991906132af565b905090565b6000806113bd8360001961253c565b91509150915091565b60005460ff166113e9576040516306fda65d60e31b815260040160405180910390fd5b6000805460ff191690556113fb612347565b600b546001600160a01b031615611430576040516327d04a1160e01b81526001600160a01b0383166004820152602401611186565b600c80546001600160a01b0380871673ffffffffffffffffffffffffffffffffffffffff1992831617909255600d8054868416908316179055600e839055600b805485841692169190911790556114ac907f00000000000000000000000000000000000000000000000000000000000000001684600019612662565b6114c26001600160a01b03831685600019612662565b6114f86001600160a01b037f00000000000000000000000000000000000000000000000000000000000000001685600019612662565b604080516001600160a01b03868116825285811660208301528416818301526060810183905290517fe234c6c9454cb0f87bb2181442b710c70556afa8f1a5033e2e1553ec18f3603c9181900360800190a150506000805460ff191660011790555050565b6000805460ff16611581576040516306fda65d60e31b815260040160405180910390fd5b6000805460ff1916905561159d6115966112ae565b8490612283565b9050600081116115c05760405163f1ca48b160e01b815260040160405180910390fd5b6115f57f00000000000000000000000000000000000000000000000000000000000000006001600160a01b031633308661269e565b6115ff82826126ec565b611609838261279f565b60408051848152602081018390526001600160a01b0384169133917fdcbc1c05240f31ff3ad067ef1ee35ce4997762752e3a095284754544f4c709d7910160405180910390a36116576121be565b6000805460ff1916600117905592915050565b6002805461103790613305565b60007f00000000000000000000000000000000000000000000000000000000000000006001600160a01b0316836001600160a01b0316146116fe5760405163d06d9b9360e01b81526001600160a01b0380851660048301527f0000000000000000000000000000000000000000000000000000000000000000166024820152604401611186565b600061170a858461253c565b159695505050505050565b60005460ff16611738576040516306fda65d60e31b815260040160405180910390fd5b6000805460ff1916905561174a612347565b611765670de0b6b3a7640000670f43fc2c04ee000083612811565b600980549082905560408051828152602081018490527faeba5a6c40a8ac138134bff1aaa65debf25971188a58804bad717f82f0ec131691015b60405180910390a150506000805460ff19166001179055565b60006110c5338484612419565b6000805460ff166117e9576040516306fda65d60e31b815260040160405180910390fd5b6000805460ff19169055336001600160a01b03831614611861576001600160a01b0382166000908152600560209081526040808320338452909152902054600019811461185f5761183a85826132ee565b6001600160a01b03841660009081526005602090815260408083203384529091529020555b505b61187361186c6112ae565b8590611e4a565b9050600081116118965760405163e3e8d29760e01b815260040160405180910390fd5b6006548111156118c7576006546040516339eff09f60e11b8152611186918391600401918252602082015260400190565b6118d18185612851565b6118db828561288d565b61190f6001600160a01b037f0000000000000000000000000000000000000000000000000000000000000000168483611e56565b816001600160a01b0316836001600160a01b031661192a3390565b6001600160a01b03167ffbde797d201c681b91056529119e0b02407c7bb96a4a2c75c01fc9667232c8db848860405161196d929190918252602082015260400190565b60405180910390a461197d6121be565b6000805460ff191660011790559392505050565b6001600160a01b038216600090815260046020526040812054808311156119bc5760009150506110c9565b60006119c884836132ee565b905060006119d7610f3c6112ae565b604051637d6af07960e01b81526001600160a01b0388811660048301529192506000917f00000000000000000000000000000000000000000000000000000000000000001690637d6af0799060240160206040518083038186803b158015611a3e57600080fd5b505afa158015611a52573d6000803e3d6000fd5b505050506040513d601f19601f82011682018060405250810190611a769190613134565b90506000611a848383612938565b159998505050505050505050565b6007805461103790613305565b60005460ff16611ac2576040516306fda65d60e31b815260040160405180910390fd5b6000805460ff19169055611ad4612347565b611aef670b1a2bc2ec500000670de0b6b3a764000083612811565b600880549082905560408051828152602081018490527ff25d2243e4128e51523d8537f04f18c3e6390bbfc6323390a9a8e59b921ce046910161179f565b60005460ff16611b50576040516306fda65d60e31b815260040160405180910390fd5b6000805460ff19169055611b62612347565b611b76600067016345785d8a000083612811565b600a80549082905560408051828152602081018490527f87272249f1056ec16a68dd9255101358246dd26a796e2f0bc6b3a0ad02f2de41910161179f565b333214611bdc57604051631fec819f60e21b8152336004820152326024820152604401611186565b565b600d54600e54604051630441a3e760e41b81526004810191909152600060248201819052916001600160a01b03169063441a3e7090604401600060405180830381600087803b158015611c3057600080fd5b505af1158015611c44573d6000803e3d6000fd5b5050600d54600e54604051631526fe2760e01b81526004810191909152600093506001600160a01b039091169150631526fe27906024016101206040518083038186803b158015611c9457600080fd5b505afa158015611ca8573d6000803e3d6000fd5b505050506040513d601f19601f82011682018060405250810190611ccc9190612efa565b5050509550505050505060006001600160a01b0316816001600160a01b031614611e35576000816001600160a01b03166373cfc6b26040518163ffffffff1660e01b815260040160206040518083038186803b158015611d2b57600080fd5b505afa158015611d3f573d6000803e3d6000fd5b505050506040513d601f19601f82011682018060405250810190611d63919061306a565b9050600081611de257826001600160a01b031663f7c618c16040518163ffffffff1660e01b815260040160206040518083038186803b158015611da557600080fd5b505afa158015611db9573d6000803e3d6000fd5b505050506040513d601f19601f82011682018060405250810190611ddd9190612e3b565b611e04565b7f00000000000000000000000000000000000000000000000000000000000000005b90506000611e1182611e9a565b90508015611e3157600b54611e319083906001600160a01b031683611f14565b5050505b600b546112d6906001600160a01b0316611e9a565b60006112a783836129b2565b60405163a9059cbb6000528260205281604052602060006044601c6000885af13d156001600051141716611e92576390b8ec186000526004601cfd5b604052505050565b6040516370a0823160e01b81523060048201526000906001600160a01b038316906370a082319060240160206040518083038186803b158015611edc57600080fd5b505afa158015611ef0573d6000803e3d6000fd5b505050506040513d601f19601f820116820180604052508101906110c99190613134565b604080516002808252606082018352600092602083019080368337019050509050838382600081518110611f5857634e487b7160e01b600052603260045260246000fd5b6020026020010183600181518110611f8057634e487b7160e01b600052603260045260246000fd5b6001600160a01b039384166020918202929092010152918116909152600c54611fac9186911684612a74565b600c546040516338ed173960e01b81526001600160a01b03909116906338ed173990611fe5908590600090869030904290600401613227565b600060405180830381600087803b158015611fff57600080fd5b505af1158015612013573d6000803e3d6000fd5b505050506040513d6000823e601f3d908101601f1916820160405261203b9190810190612faa565b5050505050565b600080612051836107cd6132cf565b9050600083612062866103e86132cf565b61206c91906132cf565b61207890610f946132cf565b905060006120998261208a85806132cf565b6120949190613297565b612b16565b90506107ca6120a884836132ee565b61102091906132af565b60006120e86001600160a01b0386167f000000000000000000000000000000000000000000000000000000000000000085611e56565b61211c6001600160a01b0385167f000000000000000000000000000000000000000000000000000000000000000084611e56565b6040516335313c2160e11b81523060048201527f00000000000000000000000000000000000000000000000000000000000000006001600160a01b031690636a62784290602401602060405180830381600087803b15801561217d57600080fd5b505af1158015612191573d6000803e3d6000fd5b505050506040513d601f19601f820116820180604052508101906121b59190613134565b95945050505050565b600d54600e546040516393f1a40b60e01b815260048101919091523060248201526000916001600160a01b0316906393f1a40b90604401604080518083038186803b15801561220c57600080fd5b505afa158015612220573d6000803e3d6000fd5b505050506040513d601f19601f8201168201806040525081019061224491906131b1565b5060068190556040518181529091507f8a0df8ef054fae2c3d2d19a7b322e864870cc9fd3cb07fb9526309c596244bf49060200160405180910390a150565b60006112a783670de0b6b3a764000084612d01565b6001600160a01b0383166122bf576040516317ba2d8b60e11b815260040160405180910390fd5b6001600160a01b0382166122e657604051632cc8a69760e11b815260040160405180910390fd5b6001600160a01b0383811660008181526005602090815260408083209487168084529482529182902085905590518481527f8c5be1e5ebec7d5bd14f71427d1e84f3dd0314c0f7b2291e5b200ac8c7c3b925910160405180910390a3505050565b60007f00000000000000000000000000000000000000000000000000000000000000006001600160a01b031663f851a4406040518163ffffffff1660e01b815260040160206040518083038186803b1580156123a257600080fd5b505afa1580156123b6573d6000803e3d6000fd5b505050506040513d601f19601f820116820180604052508101906123da9190612e3b565b9050336001600160a01b0382161461241657604051633e7c764160e21b81523360048201526001600160a01b0382166024820152604401611186565b50565b6001600160a01b0383166124405760405163618a6e7d60e11b815260040160405180910390fd5b6001600160a01b0382166124675760405163446ebce960e01b815260040160405180910390fd5b6001600160a01b038316600090815260046020526040902054818110156124ab5760405163355a868d60e01b81526004810182905260248101839052604401611186565b6001600160a01b038085166000908152600460205260408082208585039055918516815290812080548492906124e2908490613297565b92505081905550826001600160a01b0316846001600160a01b03167fddf252ad1be2c89b69c2b068fc378daa952ba7f163c4a11628f55a4df523b3ef8460405161252e91815260200190565b60405180910390a350505050565b6000806001600160a01b0384166125775760405163a5075cd160e01b81526001600160a01b0385166004820152326024820152604401611186565b60001983141561261d57604051637d6af07960e01b81526001600160a01b0385811660048301527f00000000000000000000000000000000000000000000000000000000000000001690637d6af0799060240160206040518083038186803b1580156125e257600080fd5b505afa1580156125f6573d6000803e3d6000fd5b505050506040513d601f19601f8201168201806040525081019061261a9190613134565b92505b600061264961262a6112ae565b6001600160a01b03871660009081526004602052604090205490611e4a565b90506126558185612938565b92509250505b9250929050565b60405163095ea7b36000528260205281604052602060006044601c6000885af13d156001600051141716611e9257633e3f8f736000526004601cfd5b6040516323b872dd600052836020528260405281606052602060006064601c6000895af13d1560016000511417166126de57637939f4246000526004601cfd5b600060605260405250505050565b6001600160a01b0382166127135760405163237813dd60e01b815260040160405180910390fd5b6001600160a01b0382166000908152600460205260408120805483929061273b908490613297565b9250508190555080600360008282546127549190613297565b90915550506040518181526001600160a01b038316906000907fddf252ad1be2c89b69c2b068fc378daa952ba7f163c4a11628f55a4df523b3ef906020015b60405180910390a35050565b600d54600e54604051631c57762b60e31b81526001600160a01b039092169163e2bbb158916127db918690600401918252602082015260400190565b600060405180830381600087803b1580156127f557600080fd5b505af1158015612809573d6000803e3d6000fd5b505050505050565b8281108061281e57508181115b1561284c5760405162ccc44d60e41b8152600481018490526024810183905260448101829052606401611186565b505050565b600d54600e54604051630441a3e760e41b81526001600160a01b039092169163441a3e70916127db918690600401918252602082015260400190565b6001600160a01b0382166128b457604051630b5da42b60e01b815260040160405180910390fd5b6001600160a01b038216600090815260046020526040812080548392906128dc9084906132ee565b9250508190555080600360008282546128f591906132ee565b90915550506040518181526000906001600160a01b038416907fddf252ad1be2c89b69c2b068fc378daa952ba7f163c4a11628f55a4df523b3ef90602001612793565b60008060006129456112dc565b905060006129538683611e4a565b9050600061296c60085483611e4a90919063ffffffff16565b9050600061298a600a546009546129839190613297565b8890611e4a565b90508082106129a357900393506000925061265b915050565b6000955003925061265b915050565b60008080600019848609848602925082811083820303915050670de0b6b3a764000081106129f65760405163698d9a0160e11b815260048101829052602401611186565b600080670de0b6b3a76400008688099150506706f05b59d3b1ffff811182612a305780670de0b6b3a76400008504019450505050506110c9565b620400008285030493909111909103600160ee1b02919091177faccb18165bd6fe31ae1cf318dc5b51eee0e1ba569b88cd74c1773b91fac106690201905092915050565b604051636eb1769f60e11b81523060048201526001600160a01b03838116602483015282919085169063dd62ed3e9060440160206040518083038186803b158015612abe57600080fd5b505afa158015612ad2573d6000803e3d6000fd5b505050506040513d601f19601f82011682018060405250810190612af69190613134565b10612b0057505050565b61284c6001600160a01b03841683600019612662565b600081612b2557506000919050565b50600181600160801b8110612b3f5760409190911b9060801c5b680100000000000000008110612b5a5760209190911b9060401c5b6401000000008110612b715760109190911b9060201c5b620100008110612b865760089190911b9060101c5b6101008110612b9a5760049190911b9060081c5b60108110612bad5760029190911b9060041c5b60088110612bbd57600182901b91505b6001828481612bdc57634e487b7160e01b600052601260045260246000fd5b048301901c91506001828481612c0257634e487b7160e01b600052601260045260246000fd5b048301901c91506001828481612c2857634e487b7160e01b600052601260045260246000fd5b048301901c91506001828481612c4e57634e487b7160e01b600052601260045260246000fd5b048301901c91506001828481612c7457634e487b7160e01b600052601260045260246000fd5b048301901c91506001828481612c9a57634e487b7160e01b600052601260045260246000fd5b048301901c91506001828481612cc057634e487b7160e01b600052601260045260246000fd5b048301901c91506000828481612ce657634e487b7160e01b600052601260045260246000fd5b04905080831015612cf75782612cf9565b805b949350505050565b600080806000198587098587029250828110838203039150508060001415612d4a57838281612d4057634e487b7160e01b600052601260045260246000fd5b04925050506112a7565b838110612d7457604051631dcf306360e21b81526004810182905260248101859052604401611186565b60008486880960026001871981018816978890046003810283188082028403028082028403028082028403028082028403028082028403029081029092039091026000889003889004909101858311909403939093029303949094049190911702949350505050565b8051612de88161336c565b919050565b80516dffffffffffffffffffffffffffff81168114612de857600080fd5b805163ffffffff81168114612de857600080fd5b600060208284031215612e30578081fd5b81356112a78161336c565b600060208284031215612e4c578081fd5b81516112a78161336c565b60008060408385031215612e69578081fd5b8235612e748161336c565b91506020830135612e848161336c565b809150509250929050565b600080600060608486031215612ea3578081fd5b8335612eae8161336c565b92506020840135612ebe8161336c565b929592945050506040919091013590565b60008060408385031215612ee1578182fd5b8235612eec8161336c565b946020939093013593505050565b60008060008060008060008060006101208a8c031215612f18578485fd5b8951612f238161336c565b60208b01519099506bffffffffffffffffffffffff81168114612f44578586fd5b8098505060408a0151965060608a0151955060808a015167ffffffffffffffff81168114612f70578586fd5b9450612f7e60a08b01612ddd565b9350612f8c60c08b01612e0b565b925060e08a015191506101008a015190509295985092959850929598565b60006020808385031215612fbc578182fd5b825167ffffffffffffffff80821115612fd3578384fd5b818501915085601f830112612fe6578384fd5b815181811115612ff857612ff8613356565b8060051b604051601f19603f8301168101818110858211171561301d5761301d613356565b604052828152858101935084860182860187018a101561303b578788fd5b8795505b8386101561305d57805185526001959095019493860193860161303f565b5098975050505050505050565b60006020828403121561307b578081fd5b815180151581146112a7578182fd5b6000806000806080858703121561309f578384fd5b84356130aa8161336c565b935060208501356130ba8161336c565b925060408501356130ca8161336c565b9396929550929360600135925050565b6000806000606084860312156130ee578081fd5b6130f784612ded565b925061310560208501612ded565b915061311360408501612e0b565b90509250925092565b60006020828403121561312d578081fd5b5035919050565b600060208284031215613145578081fd5b5051919050565b6000806040838503121561315e578182fd5b823591506020830135612e848161336c565b600080600060608486031215613184578081fd5b8335925060208401356131968161336c565b915060408401356131a68161336c565b809150509250925092565b600080604083850312156131c3578182fd5b505080516020909101519092909150565b6000602080835283518082850152825b81811015613200578581018301518582016040015282016131e4565b818111156132115783604083870101525b50601f01601f1916929092016040019392505050565b600060a082018783526020878185015260a0604085015281875180845260c0860191508289019350845b818110156132765784516001600160a01b031683529383019391830191600101613251565b50506001600160a01b03969096166060850152505050608001529392505050565b600082198211156132aa576132aa613340565b500190565b6000826132ca57634e487b7160e01b81526012600452602481fd5b500490565b60008160001904831182151516156132e9576132e9613340565b500290565b60008282101561330057613300613340565b500390565b600181811c9082168061331957607f821691505b6020821081141561333a57634e487b7160e01b600052602260045260246000fd5b50919050565b634e487b7160e01b600052601160045260246000fd5b634e487b7160e01b600052604160045260246000fd5b6001600160a01b038116811461241657600080fdfea26469706673582212206619812aa050a38f9a85f6ebc94850672cdceda3fece4713e6ce78849e2ddbc064736f6c63430008040033",
  "linkReferences": {},
  "deployedLinkReferences": {}
}