{
  "_format": "hh-sol-artifact-1",
  "contractName": "CygnusCollateralModel",
  "sourceName": "contracts/cygnus-core/CygnusCollateralModel.sol",
  "abi": [
    {
      "inputs": [
        {
          "internalType": "address",
          "name": "sender",
          "type": "address"
        },
        {
          "internalType": "address",
          "name": "origin",
          "type": "address"
        }
      ],
      "name": "CygnusCollateralChef__OnlyEOAAllowed",
      "type": "error"
    },
    {
      "inputs": [
        {
          "internalType": "address",
          "name": "tokenReward",
          "type": "address"
        }
      ],
      "name": "CygnusCollateralChef__VoidAlreadyInitialized",
      "type": "error"
    },
    {
      "inputs": [
        {
          "internalType": "address",
          "name": "currentOracle",
          "type": "address"
        },
        {
          "internalType": "address",
          "name": "newOracle",
          "type": "address"
        }
      ],
      "name": "CygnusCollateralControl__CygnusOracleAlreadySet",
      "type": "error"
    },
    {
      "inputs": [
        {
          "internalType": "uint256",
          "name": "minRange",
          "type": "uint256"
        },
        {
          "internalType": "uint256",
          "name": "maxRange",
          "type": "uint256"
        },
        {
          "internalType": "uint256",
          "name": "value",
          "type": "uint256"
        }
      ],
      "name": "CygnusCollateralControl__ParameterNotInRange",
      "type": "error"
    },
    {
      "inputs": [],
      "name": "CygnusCollateralControl__VoidCantBeZero",
      "type": "error"
    },
    {
      "inputs": [
        {
          "internalType": "address",
          "name": "invalidBorrowable",
          "type": "address"
        },
        {
          "internalType": "address",
          "name": "validBorrowable",
          "type": "address"
        }
      ],
      "name": "CygnusCollateralModel__BorrowableInvalid",
      "type": "error"
    },
    {
      "inputs": [
        {
          "internalType": "address",
          "name": "sender",
          "type": "address"
        },
        {
          "internalType": "address",
          "name": "origin",
          "type": "address"
        }
      ],
      "name": "CygnusCollateralModel__BorrowerCantBeAddressZero",
      "type": "error"
    },
    {
      "inputs": [
        {
          "internalType": "address",
          "name": "sender",
          "type": "address"
        },
        {
          "internalType": "address",
          "name": "origin",
          "type": "address"
        }
      ],
      "name": "CygnusCollateralVoid__NotNativeTokenSender",
      "type": "error"
    },
    {
      "inputs": [
        {
          "internalType": "uint256",
          "name": "",
          "type": "uint256"
        }
      ],
      "name": "CygnusTerminal__CantMintZero",
      "type": "error"
    },
    {
      "inputs": [
        {
          "internalType": "uint256",
          "name": "",
          "type": "uint256"
        }
      ],
      "name": "CygnusTerminal__CantRedeemZero",
      "type": "error"
    },
    {
      "inputs": [
        {
          "internalType": "address",
          "name": "caller",
          "type": "address"
        },
        {
          "internalType": "address",
          "name": "factoryAdmin",
          "type": "address"
        }
      ],
      "name": "CygnusTerminal__MsgSenderNotAdmin",
      "type": "error"
    },
    {
      "inputs": [
        {
          "internalType": "address",
          "name": "",
          "type": "address"
        }
      ],
      "name": "CygnusTerminal__MsgSenderNotFactory",
      "type": "error"
    },
    {
      "inputs": [
        {
          "internalType": "uint256",
          "name": "invalidAmount",
          "type": "uint256"
        },
        {
          "internalType": "uint256",
          "name": "contractBalance",
          "type": "uint256"
        }
      ],
      "name": "CygnusTerminal__RedeemAmountInvalid",
      "type": "error"
    },
    {
      "inputs": [
        {
          "internalType": "uint8",
          "name": "v",
          "type": "uint8"
        },
        {
          "internalType": "bytes32",
          "name": "r",
          "type": "bytes32"
        },
        {
          "internalType": "bytes32",
          "name": "s",
          "type": "bytes32"
        }
      ],
      "name": "Erc20Permit__InvalidSignature",
      "type": "error"
    },
    {
      "inputs": [],
      "name": "Erc20Permit__OwnerZeroAddress",
      "type": "error"
    },
    {
      "inputs": [
        {
          "internalType": "uint256",
          "name": "deadline",
          "type": "uint256"
        }
      ],
      "name": "Erc20Permit__PermitExpired",
      "type": "error"
    },
    {
      "inputs": [],
      "name": "Erc20Permit__RecoveredOwnerZeroAddress",
      "type": "error"
    },
    {
      "inputs": [],
      "name": "Erc20Permit__SpenderZeroAddress",
      "type": "error"
    },
    {
      "inputs": [],
      "name": "Erc20__ApproveOwnerZeroAddress",
      "type": "error"
    },
    {
      "inputs": [],
      "name": "Erc20__ApproveSpenderZeroAddress",
      "type": "error"
    },
    {
      "inputs": [
        {
          "internalType": "uint256",
          "name": "accountBalance",
          "type": "uint256"
        },
        {
          "internalType": "uint256",
          "name": "burnAmount",
          "type": "uint256"
        }
      ],
      "name": "Erc20__BurnUnderflow",
      "type": "error"
    },
    {
      "inputs": [],
      "name": "Erc20__BurnZeroAddress",
      "type": "error"
    },
    {
      "inputs": [
        {
          "internalType": "uint256",
          "name": "allowance",
          "type": "uint256"
        },
        {
          "internalType": "uint256",
          "name": "amount",
          "type": "uint256"
        }
      ],
      "name": "Erc20__InsufficientAllowance",
      "type": "error"
    },
    {
      "inputs": [
        {
          "internalType": "uint256",
          "name": "senderBalance",
          "type": "uint256"
        },
        {
          "internalType": "uint256",
          "name": "amount",
          "type": "uint256"
        }
      ],
      "name": "Erc20__InsufficientBalance",
      "type": "error"
    },
    {
      "inputs": [],
      "name": "Erc20__MintZeroAddress",
      "type": "error"
    },
    {
      "inputs": [],
      "name": "Erc20__TransferRecipientZeroAddress",
      "type": "error"
    },
    {
      "inputs": [],
      "name": "Erc20__TransferSenderZeroAddress",
      "type": "error"
    },
    {
      "inputs": [
        {
          "internalType": "uint256",
          "name": "prod1",
          "type": "uint256"
        }
      ],
      "name": "PRBMath__MulDivFixedPointOverflow",
      "type": "error"
    },
    {
      "inputs": [
        {
          "internalType": "uint256",
          "name": "prod1",
          "type": "uint256"
        },
        {
          "internalType": "uint256",
          "name": "denominator",
          "type": "uint256"
        }
      ],
      "name": "PRBMath__MulDivOverflow",
      "type": "error"
    },
    {
      "inputs": [],
      "name": "ReentrantCall",
      "type": "error"
    },
    {
      "inputs": [
        {
          "internalType": "address",
          "name": "target",
          "type": "address"
        }
      ],
      "name": "SafeErc20__CallToNonContract",
      "type": "error"
    },
    {
      "inputs": [],
      "name": "SafeErc20__NoReturnData",
      "type": "error"
    },
    {
      "anonymous": false,
      "inputs": [
        {
          "indexed": true,
          "internalType": "address",
          "name": "owner",
          "type": "address"
        },
        {
          "indexed": true,
          "internalType": "address",
          "name": "spender",
          "type": "address"
        },
        {
          "indexed": false,
          "internalType": "uint256",
          "name": "amount",
          "type": "uint256"
        }
      ],
      "name": "Approval",
      "type": "event"
    },
    {
      "anonymous": false,
      "inputs": [
        {
          "indexed": false,
          "internalType": "contract IDexRouter02",
          "name": "_dexRouter",
          "type": "address"
        },
        {
          "indexed": false,
          "internalType": "contract IMiniChef",
          "name": "_rewarder",
          "type": "address"
        },
        {
          "indexed": false,
          "internalType": "address",
          "name": "_rewardsToken",
          "type": "address"
        },
        {
          "indexed": false,
          "internalType": "uint256",
          "name": "_pid",
          "type": "uint256"
        },
        {
          "indexed": false,
          "internalType": "uint256",
          "name": "_swapFeeFactor",
          "type": "uint256"
        }
      ],
      "name": "ChargeVoid",
      "type": "event"
    },
    {
      "anonymous": false,
      "inputs": [
        {
          "indexed": true,
          "internalType": "address",
          "name": "sender",
          "type": "address"
        },
        {
          "indexed": true,
          "internalType": "address",
          "name": "minter",
          "type": "address"
        },
        {
          "indexed": false,
          "internalType": "uint256",
          "name": "mintAmount",
          "type": "uint256"
        },
        {
          "indexed": false,
          "internalType": "uint256",
          "name": "poolTokens",
          "type": "uint256"
        }
      ],
      "name": "Mint",
      "type": "event"
    },
    {
      "anonymous": false,
      "inputs": [
        {
          "indexed": false,
          "internalType": "address",
          "name": "oldVoid",
          "type": "address"
        },
        {
          "indexed": false,
          "internalType": "address",
          "name": "newVoid",
          "type": "address"
        }
      ],
      "name": "NewCygnusVoid",
      "type": "event"
    },
    {
      "anonymous": false,
      "inputs": [
        {
          "indexed": false,
          "internalType": "uint256",
          "name": "oldDebtRatio",
          "type": "uint256"
        },
        {
          "indexed": false,
          "internalType": "uint256",
          "name": "newDebtRatio",
          "type": "uint256"
        }
      ],
      "name": "NewDebtRatio",
      "type": "event"
    },
    {
      "anonymous": false,
      "inputs": [
        {
          "indexed": false,
          "internalType": "uint256",
          "name": "oldLiquidationFee",
          "type": "uint256"
        },
        {
          "indexed": false,
          "internalType": "uint256",
          "name": "newLiquidationFee",
          "type": "uint256"
        }
      ],
      "name": "NewLiquidationFee",
      "type": "event"
    },
    {
      "anonymous": false,
      "inputs": [
        {
          "indexed": false,
          "internalType": "uint256",
          "name": "oldLiquidationIncentive",
          "type": "uint256"
        },
        {
          "indexed": false,
          "internalType": "uint256",
          "name": "newLiquidationIncentive",
          "type": "uint256"
        }
      ],
      "name": "NewLiquidationIncentive",
      "type": "event"
    },
    {
      "anonymous": false,
      "inputs": [
        {
          "indexed": false,
          "internalType": "contract IChainlinkNebulaOracle",
          "name": "oldPriceOracle",
          "type": "address"
        },
        {
          "indexed": false,
          "internalType": "contract IChainlinkNebulaOracle",
          "name": "newPriceOracle",
          "type": "address"
        }
      ],
      "name": "NewPriceOracle",
      "type": "event"
    },
    {
      "anonymous": false,
      "inputs": [
        {
          "indexed": true,
          "internalType": "address",
          "name": "shuttle",
          "type": "address"
        },
        {
          "indexed": false,
          "internalType": "address",
          "name": "reinvestor",
          "type": "address"
        },
        {
          "indexed": false,
          "internalType": "uint256",
          "name": "rewardBalance",
          "type": "uint256"
        },
        {
          "indexed": false,
          "internalType": "uint256",
          "name": "reinvestReward",
          "type": "uint256"
        }
      ],
      "name": "RechargeVoid",
      "type": "event"
    },
    {
      "anonymous": false,
      "inputs": [
        {
          "indexed": true,
          "internalType": "address",
          "name": "sender",
          "type": "address"
        },
        {
          "indexed": true,
          "internalType": "address",
          "name": "redeemer",
          "type": "address"
        },
        {
          "indexed": false,
          "internalType": "uint256",
          "name": "redeemAmount",
          "type": "uint256"
        },
        {
          "indexed": false,
          "internalType": "uint256",
          "name": "poolTokens",
          "type": "uint256"
        }
      ],
      "name": "Redeem",
      "type": "event"
    },
    {
      "anonymous": false,
      "inputs": [
        {
          "indexed": false,
          "internalType": "uint256",
          "name": "totalBalance",
          "type": "uint256"
        }
      ],
      "name": "Sync",
      "type": "event"
    },
    {
      "anonymous": false,
      "inputs": [
        {
          "indexed": true,
          "internalType": "address",
          "name": "from",
          "type": "address"
        },
        {
          "indexed": true,
          "internalType": "address",
          "name": "to",
          "type": "address"
        },
        {
          "indexed": false,
          "internalType": "uint256",
          "name": "amount",
          "type": "uint256"
        }
      ],
      "name": "Transfer",
      "type": "event"
    },
    {
      "inputs": [],
      "name": "DEBT_RATIO_MAX",
      "outputs": [
        {
          "internalType": "uint256",
          "name": "",
          "type": "uint256"
        }
      ],
      "stateMutability": "view",
      "type": "function"
    },
    {
      "inputs": [],
      "name": "DEBT_RATIO_MIN",
      "outputs": [
        {
          "internalType": "uint256",
          "name": "",
          "type": "uint256"
        }
      ],
      "stateMutability": "view",
      "type": "function"
    },
    {
      "inputs": [],
      "name": "DOMAIN_SEPARATOR",
      "outputs": [
        {
          "internalType": "bytes32",
          "name": "",
          "type": "bytes32"
        }
      ],
      "stateMutability": "view",
      "type": "function"
    },
    {
      "inputs": [],
      "name": "LIQUIDATION_FEE_MAX",
      "outputs": [
        {
          "internalType": "uint256",
          "name": "",
          "type": "uint256"
        }
      ],
      "stateMutability": "view",
      "type": "function"
    },
    {
      "inputs": [],
      "name": "LIQUIDATION_INCENTIVE_MAX",
      "outputs": [
        {
          "internalType": "uint256",
          "name": "",
          "type": "uint256"
        }
      ],
      "stateMutability": "view",
      "type": "function"
    },
    {
      "inputs": [],
      "name": "LIQUIDATION_INCENTIVE_MIN",
      "outputs": [
        {
          "internalType": "uint256",
          "name": "",
          "type": "uint256"
        }
      ],
      "stateMutability": "view",
      "type": "function"
    },
    {
      "inputs": [],
      "name": "PERMIT_TYPEHASH",
      "outputs": [
        {
          "internalType": "bytes32",
          "name": "",
          "type": "bytes32"
        }
      ],
      "stateMutability": "view",
      "type": "function"
    },
    {
      "inputs": [],
      "name": "REINVEST_REWARD",
      "outputs": [
        {
          "internalType": "uint256",
          "name": "",
          "type": "uint256"
        }
      ],
      "stateMutability": "view",
      "type": "function"
    },
    {
      "inputs": [
        {
          "internalType": "address",
          "name": "owner",
          "type": "address"
        },
        {
          "internalType": "address",
          "name": "spender",
          "type": "address"
        }
      ],
      "name": "allowance",
      "outputs": [
        {
          "internalType": "uint256",
          "name": "",
          "type": "uint256"
        }
      ],
      "stateMutability": "view",
      "type": "function"
    },
    {
      "inputs": [
        {
          "internalType": "address",
          "name": "spender",
          "type": "address"
        },
        {
          "internalType": "uint256",
          "name": "amount",
          "type": "uint256"
        }
      ],
      "name": "approve",
      "outputs": [
        {
          "internalType": "bool",
          "name": "",
          "type": "bool"
        }
      ],
      "stateMutability": "nonpayable",
      "type": "function"
    },
    {
      "inputs": [
        {
          "internalType": "address",
          "name": "account",
          "type": "address"
        }
      ],
      "name": "balanceOf",
      "outputs": [
        {
          "internalType": "uint256",
          "name": "",
          "type": "uint256"
        }
      ],
      "stateMutability": "view",
      "type": "function"
    },
    {
      "inputs": [
        {
          "internalType": "address",
          "name": "borrower",
          "type": "address"
        },
        {
          "internalType": "address",
          "name": "borrowableToken",
          "type": "address"
        },
        {
          "internalType": "uint256",
          "name": "accountBorrows",
          "type": "uint256"
        }
      ],
      "name": "canBorrow",
      "outputs": [
        {
          "internalType": "bool",
          "name": "",
          "type": "bool"
        }
      ],
      "stateMutability": "view",
      "type": "function"
    },
    {
      "inputs": [],
      "name": "chainId",
      "outputs": [
        {
          "internalType": "uint256",
          "name": "",
          "type": "uint256"
        }
      ],
      "stateMutability": "view",
      "type": "function"
    },
    {
      "inputs": [],
      "name": "cygnusDai",
      "outputs": [
        {
          "internalType": "address",
          "name": "",
          "type": "address"
        }
      ],
      "stateMutability": "view",
      "type": "function"
    },
    {
      "inputs": [],
      "name": "cygnusNebulaOracle",
      "outputs": [
        {
          "internalType": "contract IChainlinkNebulaOracle",
          "name": "",
          "type": "address"
        }
      ],
      "stateMutability": "view",
      "type": "function"
    },
    {
      "inputs": [],
      "name": "debtRatio",
      "outputs": [
        {
          "internalType": "uint256",
          "name": "",
          "type": "uint256"
        }
      ],
      "stateMutability": "view",
      "type": "function"
    },
    {
      "inputs": [],
      "name": "decimals",
      "outputs": [
        {
          "internalType": "uint8",
          "name": "",
          "type": "uint8"
        }
      ],
      "stateMutability": "view",
      "type": "function"
    },
    {
      "inputs": [
        {
          "internalType": "address",
          "name": "spender",
          "type": "address"
        },
        {
          "internalType": "uint256",
          "name": "subtractedAmount",
          "type": "uint256"
        }
      ],
      "name": "decreaseAllowance",
      "outputs": [
        {
          "internalType": "bool",
          "name": "",
          "type": "bool"
        }
      ],
      "stateMutability": "nonpayable",
      "type": "function"
    },
    {
      "inputs": [],
      "name": "exchangeRate",
      "outputs": [
        {
          "internalType": "uint256",
          "name": "",
          "type": "uint256"
        }
      ],
      "stateMutability": "view",
      "type": "function"
    },
    {
      "inputs": [
        {
          "internalType": "address",
          "name": "borrower",
          "type": "address"
        }
      ],
      "name": "getAccountLiquidity",
      "outputs": [
        {
          "internalType": "uint256",
          "name": "liquidity",
          "type": "uint256"
        },
        {
          "internalType": "uint256",
          "name": "shortfall",
          "type": "uint256"
        }
      ],
      "stateMutability": "view",
      "type": "function"
    },
    {
      "inputs": [
        {
          "internalType": "address",
          "name": "borrower",
          "type": "address"
        }
      ],
      "name": "getDebtRatio",
      "outputs": [
        {
          "internalType": "uint256",
          "name": "",
          "type": "uint256"
        }
      ],
      "stateMutability": "view",
      "type": "function"
    },
    {
      "inputs": [],
      "name": "getLPTokenPrice",
      "outputs": [
        {
          "internalType": "uint256",
          "name": "",
          "type": "uint256"
        }
      ],
      "stateMutability": "view",
      "type": "function"
    },
    {
      "inputs": [],
      "name": "hangar18",
      "outputs": [
        {
          "internalType": "address",
          "name": "",
          "type": "address"
        }
      ],
      "stateMutability": "view",
      "type": "function"
    },
    {
      "inputs": [
        {
          "internalType": "address",
          "name": "spender",
          "type": "address"
        },
        {
          "internalType": "uint256",
          "name": "addedAmount",
          "type": "uint256"
        }
      ],
      "name": "increaseAllowance",
      "outputs": [
        {
          "internalType": "bool",
          "name": "",
          "type": "bool"
        }
      ],
      "stateMutability": "nonpayable",
      "type": "function"
    },
    {
      "inputs": [
        {
          "internalType": "contract IDexRouter02",
          "name": "dexRouterVoid",
          "type": "address"
        },
        {
          "internalType": "contract IMiniChef",
          "name": "rewarderVoid",
          "type": "address"
        },
        {
          "internalType": "address",
          "name": "rewardsTokenVoid",
          "type": "address"
        },
        {
          "internalType": "uint256",
          "name": "pidVoid",
          "type": "uint256"
        },
        {
          "internalType": "uint256",
          "name": "dexSwapFeeVoid",
          "type": "uint256"
        }
      ],
      "name": "initializeVoid",
      "outputs": [],
      "stateMutability": "nonpayable",
      "type": "function"
    },
    {
      "inputs": [],
      "name": "liquidationFee",
      "outputs": [
        {
          "internalType": "uint256",
          "name": "",
          "type": "uint256"
        }
      ],
      "stateMutability": "view",
      "type": "function"
    },
    {
      "inputs": [],
      "name": "liquidationIncentive",
      "outputs": [
        {
          "internalType": "uint256",
          "name": "",
          "type": "uint256"
        }
      ],
      "stateMutability": "view",
      "type": "function"
    },
    {
      "inputs": [
        {
          "internalType": "address",
          "name": "minter",
          "type": "address"
        }
      ],
      "name": "mint",
      "outputs": [
        {
          "internalType": "uint256",
          "name": "cygnusMintTokens",
          "type": "uint256"
        }
      ],
      "stateMutability": "nonpayable",
      "type": "function"
    },
    {
      "inputs": [],
      "name": "name",
      "outputs": [
        {
          "internalType": "string",
          "name": "",
          "type": "string"
        }
      ],
      "stateMutability": "view",
      "type": "function"
    },
    {
      "inputs": [
        {
          "internalType": "address",
          "name": "",
          "type": "address"
        }
      ],
      "name": "nonces",
      "outputs": [
        {
          "internalType": "uint256",
          "name": "",
          "type": "uint256"
        }
      ],
      "stateMutability": "view",
      "type": "function"
    },
    {
      "inputs": [
        {
          "internalType": "address",
          "name": "owner",
          "type": "address"
        },
        {
          "internalType": "address",
          "name": "spender",
          "type": "address"
        },
        {
          "internalType": "uint256",
          "name": "value",
          "type": "uint256"
        },
        {
          "internalType": "uint256",
          "name": "deadline",
          "type": "uint256"
        },
        {
          "internalType": "uint8",
          "name": "v",
          "type": "uint8"
        },
        {
          "internalType": "bytes32",
          "name": "r",
          "type": "bytes32"
        },
        {
          "internalType": "bytes32",
          "name": "s",
          "type": "bytes32"
        }
      ],
      "name": "permit",
      "outputs": [],
      "stateMutability": "nonpayable",
      "type": "function"
    },
    {
      "inputs": [
        {
          "internalType": "address",
          "name": "holder",
          "type": "address"
        }
      ],
      "name": "redeem",
      "outputs": [
        {
          "internalType": "uint256",
          "name": "redeemAmount",
          "type": "uint256"
        }
      ],
      "stateMutability": "nonpayable",
      "type": "function"
    },
    {
      "inputs": [],
      "name": "reinvestRewards_y7b",
      "outputs": [],
      "stateMutability": "nonpayable",
      "type": "function"
    },
    {
      "inputs": [
        {
          "internalType": "uint256",
          "name": "newDebtRatio",
          "type": "uint256"
        }
      ],
      "name": "setDebtRatio",
      "outputs": [],
      "stateMutability": "nonpayable",
      "type": "function"
    },
    {
      "inputs": [
        {
          "internalType": "uint256",
          "name": "newLiquidationFee",
          "type": "uint256"
        }
      ],
      "name": "setLiquidationFee",
      "outputs": [],
      "stateMutability": "nonpayable",
      "type": "function"
    },
    {
      "inputs": [
        {
          "internalType": "uint256",
          "name": "newLiquidationIncentive",
          "type": "uint256"
        }
      ],
      "name": "setLiquidationIncentive",
      "outputs": [],
      "stateMutability": "nonpayable",
      "type": "function"
    },
    {
      "inputs": [],
      "name": "setNebulaOracle",
      "outputs": [],
      "stateMutability": "nonpayable",
      "type": "function"
    },
    {
      "inputs": [
        {
          "internalType": "address",
          "name": "recipient",
          "type": "address"
        }
      ],
      "name": "skim",
      "outputs": [],
      "stateMutability": "nonpayable",
      "type": "function"
    },
    {
      "inputs": [],
      "name": "symbol",
      "outputs": [
        {
          "internalType": "string",
          "name": "",
          "type": "string"
        }
      ],
      "stateMutability": "view",
      "type": "function"
    },
    {
      "inputs": [],
      "name": "sync",
      "outputs": [],
      "stateMutability": "nonpayable",
      "type": "function"
    },
    {
      "inputs": [],
      "name": "totalBalance",
      "outputs": [
        {
          "internalType": "uint256",
          "name": "",
          "type": "uint256"
        }
      ],
      "stateMutability": "view",
      "type": "function"
    },
    {
      "inputs": [],
      "name": "totalSupply",
      "outputs": [
        {
          "internalType": "uint256",
          "name": "",
          "type": "uint256"
        }
      ],
      "stateMutability": "view",
      "type": "function"
    },
    {
      "inputs": [
        {
          "internalType": "address",
          "name": "recipient",
          "type": "address"
        },
        {
          "internalType": "uint256",
          "name": "amount",
          "type": "uint256"
        }
      ],
      "name": "transfer",
      "outputs": [
        {
          "internalType": "bool",
          "name": "",
          "type": "bool"
        }
      ],
      "stateMutability": "nonpayable",
      "type": "function"
    },
    {
      "inputs": [
        {
          "internalType": "address",
          "name": "sender",
          "type": "address"
        },
        {
          "internalType": "address",
          "name": "recipient",
          "type": "address"
        },
        {
          "internalType": "uint256",
          "name": "amount",
          "type": "uint256"
        }
      ],
      "name": "transferFrom",
      "outputs": [
        {
          "internalType": "bool",
          "name": "",
          "type": "bool"
        }
      ],
      "stateMutability": "nonpayable",
      "type": "function"
    },
    {
      "inputs": [],
      "name": "underlying",
      "outputs": [
        {
          "internalType": "address",
          "name": "",
          "type": "address"
        }
      ],
      "stateMutability": "view",
      "type": "function"
    },
    {
      "inputs": [],
      "name": "version",
      "outputs": [
        {
          "internalType": "string",
          "name": "",
          "type": "string"
        }
      ],
      "stateMutability": "view",
      "type": "function"
    },
    {
      "inputs": [],
      "name": "voidInfo",
      "outputs": [
        {
          "internalType": "contract IMiniChef",
          "name": "rewarder_",
          "type": "address"
        },
        {
          "internalType": "uint256",
          "name": "pid_",
          "type": "uint256"
        },
        {
          "internalType": "bool",
          "name": "voidActivated_",
          "type": "bool"
        },
        {
          "internalType": "address",
          "name": "rewardsToken_",
          "type": "address"
        },
        {
          "internalType": "uint256",
          "name": "dexSwapFee_",
          "type": "uint256"
        },
        {
          "internalType": "contract IDexRouter02",
          "name": "dexRouter_",
          "type": "address"
        }
      ],
      "stateMutability": "view",
      "type": "function"
    },
    {
      "stateMutability": "payable",
      "type": "receive"
    }
  ],
  "bytecode": "0x61014060405246600755670c7d713b49da0000600f55670e92596fd62900006010553480156200002e57600080fd5b5060408051808201825260128082527110de59db9d5cce8810dbdb1b185d195c985b60721b60208084019182528451808601909552600585526404379674c560dc1b908501526000805460ff191660019081179091558351939493859285928592859285928592620000a19290620006f1565b508151620000b7906002906020850190620006f1565b5060f81b7fff000000000000000000000000000000000000000000000000000000000000001660805250506040517f8b73c3c69bb8fe3d512ecc4cf759cc79239f7b179b0ffacaa9a75d522b39400f906200011590600190620008c4565b60408051918290038220828201825260018352603160f81b602093840152600754825193840194909452908201527fc89efdaa54c0f20c7adf612882df0950f5a951637e0307cdcb4c672f298b8bc6606082015260808101919091523060a082015260c00160408051601f19818403018152919052805160209091012060a05250620001a7945050620004dc92505050565b6001600160a01b031663c3bc64ea6040518163ffffffff1660e01b8152600401606060405180830381600087803b158015620001e257600080fd5b505af1158015620001f7573d6000803e3d6000fd5b505050506040513d601f19601f820116820180604052508101906200021d9190620007bd565b60601b6001600160601b03191660c052600c80546001600160a01b03199081166001600160a01b0393841617909155600d805490911692909116918217905560408051636c9adec960e11b8152905163d935bd9291600480820192602092909190829003018186803b1580156200029357600080fd5b505afa158015620002a8573d6000803e3d6000fd5b505050506040513d601f19601f82011682018060405250810190620002ce919062000797565b600e80546001600160a01b0319166001600160a01b03928316179055600c54620003059116620004e0602090811b620020be17901c565b80516200031b91600291602090910190620006f1565b506000600355600c5460408051630dfe168160e01b815290516001600160a01b0390921691630dfe168191600480820192602092909190829003018186803b1580156200036757600080fd5b505afa1580156200037c573d6000803e3d6000fd5b505050506040513d601f19601f82011682018060405250810190620003a2919062000797565b60601b6001600160601b03191661010052600c546040805163d21220a760e01b815290516001600160a01b039092169163d21220a791600480820192602092909190829003018186803b158015620003f957600080fd5b505afa1580156200040e573d6000803e3d6000fd5b505050506040513d601f19601f8201168201806040525081019062000434919062000797565b60601b6001600160601b03191661012052600d5460408051631c2eb17b60e31b815290516001600160a01b039092169163e1758bd891600480820192602092909190829003018186803b1580156200048b57600080fd5b505afa158015620004a0573d6000803e3d6000fd5b505050506040513d601f19601f82011682018060405250810190620004c6919062000797565b60601b6001600160601b03191660e05262000a58565b3390565b60606000826001600160a01b0316630dfe16816040518163ffffffff1660e01b815260040160206040518083038186803b1580156200051e57600080fd5b505afa15801562000533573d6000803e3d6000fd5b505050506040513d601f19601f8201168201806040525081019062000559919062000797565b6001600160a01b03166395d89b416040518163ffffffff1660e01b815260040160006040518083038186803b1580156200059257600080fd5b505afa158015620005a7573d6000803e3d6000fd5b505050506040513d6000823e601f3d908101601f19168201604052620005d1919081019062000810565b90506000836001600160a01b031663d21220a76040518163ffffffff1660e01b815260040160206040518083038186803b1580156200060f57600080fd5b505afa15801562000624573d6000803e3d6000fd5b505050506040513d601f19601f820116820180604052508101906200064a919062000797565b6001600160a01b03166395d89b416040518163ffffffff1660e01b815260040160006040518083038186803b1580156200068357600080fd5b505afa15801562000698573d6000803e3d6000fd5b505050506040513d6000823e601f3d908101601f19168201604052620006c2919081019062000810565b90508181604051602001620006d992919062000967565b60405160208183030381529060405292505050919050565b828054620006ff90620009ec565b90600052602060002090601f0160209004810192826200072357600085556200076e565b82601f106200073e57805160ff19168380011785556200076e565b828001600101855582156200076e579182015b828111156200076e57825182559160200191906001019062000751565b506200077c92915062000780565b5090565b5b808211156200077c576000815560010162000781565b600060208284031215620007a9578081fd5b8151620007b68162000a3f565b9392505050565b600080600060608486031215620007d2578182fd5b8351620007df8162000a3f565b6020850151909350620007f28162000a3f565b6040850151909250620008058162000a3f565b809150509250925092565b60006020828403121562000822578081fd5b81516001600160401b038082111562000839578283fd5b818401915084601f8301126200084d578283fd5b81518181111562000862576200086262000a29565b604051601f8201601f19908116603f011681019083821181831017156200088d576200088d62000a29565b81604052828152876020848701011115620008a6578586fd5b620008b9836020830160208801620009b9565b979650505050505050565b600080835482600182811c915080831680620008e157607f831692505b60208084108214156200090257634e487b7160e01b87526022600452602487fd5b8180156200091957600181146200092b5762000959565b60ff1986168952848901965062000959565b60008a815260209020885b86811015620009515781548b82015290850190830162000936565b505084890196505b509498975050505050505050565b65021bcb3a628160d51b8152600083516200098a816006850160208801620009b9565b602f60f81b6006918401918201528351620009ad816007840160208801620009b9565b01600701949350505050565b60005b83811015620009d6578181015183820152602001620009bc565b83811115620009e6576000848401525b50505050565b600181811c9082168062000a0157607f821691505b6020821081141562000a2357634e487b7160e01b600052602260045260246000fd5b50919050565b634e487b7160e01b600052604160045260246000fd5b6001600160a01b038116811462000a5557600080fd5b50565b60805160f81c60a05160c05160601c60e05160601c6101005160601c6101205160601c613e8262000b7460003960008181610ac101528181610b2c01528181610b9401528181610c8501528181610d0f0152610df1015260008181610a8901528181610af901528181610b4d01528181610b7301528181610c2a01528181610ce001528181610d3001528181610d7a01528181610dce0152610ed901526000818161031101528181610bd001528181610c0001528181610c5b01528181610cb601528181610d5901528181610d9e015281816112ef01526124ed01526000818161087c015281816110ad01528181611b3d01528181611b8e0152612e2701526000818161053f0152611e41015260006104dd0152613e826000f3fe60806040526004361061030a5760003560e01c80638c3b76a81161019a578063afc8276c116100e1578063d935bd921161008a578063eb6a887d11610064578063eb6a887d146109b2578063fef0bec8146109d2578063fff6cae9146109f257600080fd5b8063d935bd921461092c578063dd62ed3e1461094c578063e8a24e1d1461099257600080fd5b8063cea55f57116100bb578063cea55f57146108f6578063cf85c882146108da578063d505accf1461090c57600080fd5b8063afc8276c1461089e578063bc25cf77146108ba578063bc9bd12a146108da57600080fd5b8063a36a363011610143578063a9059cbb1161011d578063a9059cbb14610834578063ad7a672f14610854578063adbb25971461086a57600080fd5b8063a36a3630146107de578063a457c2d7146107f4578063a84310811461081457600080fd5b806395d89b411161017457806395d89b41146107935780639a8a0592146107a85780639aac2c53146107be57600080fd5b80638c3b76a8146106f95780638c765e941461075d57806395a2251f1461077357600080fd5b80633644e5151161025e5780635ec88c79116102075780636f307dc3116101e15780636f307dc31461065e57806370a08231146106965780637ecebe00146106cc57600080fd5b80635ec88c79146105ed578063643211f2146106225780636a6278421461063e57600080fd5b8063421f0fcc11610238578063421f0fcc1461059657806351303622146105ab57806354fd4d50146105c057600080fd5b80633644e5151461052d57806339509351146105615780633ba0b9a91461058157600080fd5b806318160ddd116102c057806330adf81f1161029a57806330adf81f14610497578063313ce567146104cb57806333fabfd11461051157600080fd5b806318160ddd146104465780631c1981881461045c57806323b872dd1461047757600080fd5b806306fdde03116102f157806306fdde03146103d4578063095ea7b3146103f657806315b02cf51461042657600080fd5b8061e18a1461038a578063031a5c82146103a157600080fd5b36610385577f00000000000000000000000000000000000000000000000000000000000000006001600160a01b031663d0e30db0346040518263ffffffff1660e01b81526004016000604051808303818588803b15801561036a57600080fd5b505af115801561037e573d6000803e3d6000fd5b5050505050005b600080fd5b34801561039657600080fd5b5061039f610a07565b005b3480156103ad57600080fd5b506103c16103bc366004613769565b611044565b6040519081526020015b60405180910390f35b3480156103e057600080fd5b506103e961116f565b6040516103cb9190613c5e565b34801561040257600080fd5b5061041661041136600461388e565b6111fd565b60405190151581526020016103cb565b34801561043257600080fd5b5061039f610441366004613a31565b611214565b34801561045257600080fd5b506103c160035481565b34801561046857600080fd5b506103c16658d15e1762800081565b34801561048357600080fd5b506104166104923660046137d9565b6113ac565b3480156104a357600080fd5b506103c17f6e71edae12b1b97f4d1f60370fef10105fa2faae0126114a169c64845d6126c981565b3480156104d757600080fd5b506104ff7f000000000000000000000000000000000000000000000000000000000000000081565b60405160ff90911681526020016103cb565b34801561051d57600080fd5b506103c167016345785d8a000081565b34801561053957600080fd5b506103c17f000000000000000000000000000000000000000000000000000000000000000081565b34801561056d57600080fd5b5061041661057c36600461388e565b611422565b34801561058d57600080fd5b506103c161146a565b3480156105a257600080fd5b5061039f611498565b3480156105b757600080fd5b506103c161160f565b3480156105cc57600080fd5b506103e9604051806040016040528060018152602001603160f81b81525081565b3480156105f957600080fd5b5061060d610608366004613769565b611698565b604080519283526020830191909152016103cb565b34801561062e57600080fd5b506103c16706f05b59d3b2000081565b34801561064a57600080fd5b506103c1610659366004613769565b6116b0565b34801561066a57600080fd5b50600c5461067e906001600160a01b031681565b6040516001600160a01b0390911681526020016103cb565b3480156106a257600080fd5b506103c16106b1366004613769565b6001600160a01b031660009081526004602052604090205490565b3480156106d857600080fd5b506103c16106e7366004613769565b60066020526000908152604090205481565b34801561070557600080fd5b50600854600954600a54601254601454601354604080516001600160a01b039788168152602081019690965260ff909416151593850193909352908416606084015260808301529190911660a082015260c0016103cb565b34801561076957600080fd5b506103c160105481565b34801561077f57600080fd5b506103c161078e366004613769565b6119aa565b34801561079f57600080fd5b506103e9611b2c565b3480156107b457600080fd5b506103c160075481565b3480156107ca57600080fd5b506104166107d93660046137d9565b611b39565b3480156107ea57600080fd5b506103c160115481565b34801561080057600080fd5b5061041661080f36600461388e565b611bfb565b34801561082057600080fd5b5061039f61082f366004613b5d565b611c2c565b34801561084057600080fd5b5061041661084f36600461388e565b611cba565b34801561086057600080fd5b506103c1600b5481565b34801561087657600080fd5b5061067e7f000000000000000000000000000000000000000000000000000000000000000081565b3480156108aa57600080fd5b506103c16710a741a46278000081565b3480156108c657600080fd5b5061039f6108d5366004613769565b611cc7565b3480156108e657600080fd5b506103c1670de0b6b3a764000081565b34801561090257600080fd5b506103c1600f5481565b34801561091857600080fd5b5061039f610927366004613819565b611d38565b34801561093857600080fd5b50600e5461067e906001600160a01b031681565b34801561095857600080fd5b506103c16109673660046137a1565b6001600160a01b03918216600090815260056020908152604080832093909416825291909152205490565b34801561099e57600080fd5b50600d5461067e906001600160a01b031681565b3480156109be57600080fd5b5061039f6109cd366004613b5d565b611f75565b3480156109de57600080fd5b5061039f6109ed366004613b5d565b612003565b3480156109fe57600080fd5b5061039f612089565b60005460ff16610a2a576040516306fda65d60e31b815260040160405180910390fd5b6000805460ff19169055610a3c6122bd565b6000610a466122e7565b905080610a53575061102d565b6000610a66826658d15e1762800061255c565b9050610a7f336012546001600160a01b03169083612568565b60125460009081907f00000000000000000000000000000000000000000000000000000000000000006001600160a01b0390811691161480610aef57506012547f00000000000000000000000000000000000000000000000000000000000000006001600160a01b039081169116145b15610bbe576012547f00000000000000000000000000000000000000000000000000000000000000006001600160a01b03908116911614610b71577f00000000000000000000000000000000000000000000000000000000000000007f0000000000000000000000000000000000000000000000000000000000000000610bb4565b7f00000000000000000000000000000000000000000000000000000000000000007f00000000000000000000000000000000000000000000000000000000000000005b9092509050610e11565b601254610bfe906001600160a01b03167f0000000000000000000000000000000000000000000000000000000000000000610bf98688613d89565b6125d4565b7f00000000000000000000000000000000000000000000000000000000000000006001600160a01b03167f00000000000000000000000000000000000000000000000000000000000000006001600160a01b03161480610caf57507f00000000000000000000000000000000000000000000000000000000000000006001600160a01b03167f00000000000000000000000000000000000000000000000000000000000000006001600160a01b0316145b15610d54577f00000000000000000000000000000000000000000000000000000000000000006001600160a01b03167f00000000000000000000000000000000000000000000000000000000000000006001600160a01b031614610b71577f00000000000000000000000000000000000000000000000000000000000000007f0000000000000000000000000000000000000000000000000000000000000000610bb4565b610dcb7f00000000000000000000000000000000000000000000000000000000000000007f0000000000000000000000000000000000000000000000000000000000000000610bf97f00000000000000000000000000000000000000000000000000000000000000006001600160a01b0316612719565b507f000000000000000000000000000000000000000000000000000000000000000090507f00000000000000000000000000000000000000000000000000000000000000005b6000610e25836001600160a01b0316612719565b9050600080600c60009054906101000a90046001600160a01b03166001600160a01b0316630902f1ac6040518163ffffffff1660e01b815260040160606040518083038186803b158015610e7857600080fd5b505afa158015610e8c573d6000803e3d6000fd5b505050506040513d601f19601f82011682018060405250810190610eb09190613b1b565b506dffffffffffffffffffffffffffff1691506dffffffffffffffffffffffffffff16915060007f00000000000000000000000000000000000000000000000000000000000000006001600160a01b0316866001600160a01b031614610f165781610f18565b825b90506000610f298583601454612793565b9050610f368787836125d4565b6000610f5e8888610f47858a613d89565b610f598b6001600160a01b0316612719565b612831565b600854600954604051631c57762b60e31b81526004810191909152602481018390529192506001600160a01b03169063e2bbb15890604401600060405180830381600087803b158015610fb057600080fd5b505af1158015610fc4573d6000803e3d6000fd5b50505050306001600160a01b03167f6ac14c64e9542da5b5d0624113aec83684dd471c3d8c61022ae5d78fa1523792610ffa3390565b604080516001600160a01b039092168252602082018e905281018c905260600160405180910390a2505050505050505050505b611035612924565b6000805460ff19166001179055565b60008061107261105261146a565b6001600160a01b0385166000908152600460205260409020545b9061255c565b9050600061108861108161160f565b839061255c565b604051637d6af07960e01b81526001600160a01b0386811660048301529192506000917f00000000000000000000000000000000000000000000000000000000000000001690637d6af0799060240160206040518083038186803b1580156110ef57600080fd5b505afa158015611103573d6000803e3d6000fd5b505050506040513d601f19601f820116820180604052508101906111279190613b75565b9050600061113e6011546010546110819190613d32565b9050821561116257600f5461115d9061115783866129f7565b906129f7565b611165565b60005b9695505050505050565b6001805461117c90613dd0565b80601f01602080910402602001604051908101604052809291908181526020018280546111a890613dd0565b80156111f55780601f106111ca576101008083540402835291602001916111f5565b820191906000526020600020905b8154815290600101906020018083116111d857829003601f168201915b505050505081565b600061120a338484612a0c565b5060015b92915050565b60005460ff16611237576040516306fda65d60e31b815260040160405180910390fd5b6000805460ff19169055611249612abb565b6012546001600160a01b031615611283576040516327d04a1160e01b81526001600160a01b03841660048201526024015b60405180910390fd5b601380546001600160a01b0380881673ffffffffffffffffffffffffffffffffffffffff199283161790925560088054878416908316179055600984905560128054928616929091168217905560148290556112e29086600019612b77565b6113186001600160a01b037f00000000000000000000000000000000000000000000000000000000000000001686600019612b77565b600c54611331906001600160a01b031685600019612b77565b600a805460ff19166001179055604080516001600160a01b0387811682528681166020830152851681830152606081018490526080810183905290517fd11ba4f3abfc78cb044532e87016a0c93a03fbbb5049a35d53fb1238d9ac66529160a0908290030190a150506000805460ff19166001179055505050565b60006113b9848484612ca0565b6001600160a01b03841660009081526005602090815260408083203384529091529020548281101561140857604051632b3ca6f360e11b8152600481018290526024810184905260440161127a565b6114158533858403612a0c565b60019150505b9392505050565b3360009081526005602090815260408083206001600160a01b03861684529091528120548190611453908490613d32565b9050611460338583612a0c565b5060019392505050565b600354600090801561148857600b5461148390826129f7565b611492565b670de0b6b3a76400005b91505090565b6114a0612abb565b60005460ff166114c3576040516306fda65d60e31b815260040160405180910390fd5b6000805460ff19168155600d5460408051636c9adec960e11b815290516001600160a01b039092169163d935bd9291600480820192602092909190829003018186803b15801561151257600080fd5b505afa158015611526573d6000803e3d6000fd5b505050506040513d601f19601f8201168201806040525081019061154a9190613785565b600e549091506001600160a01b038083169116141561159357600e54604051637a4ec46360e01b81526001600160a01b039182166004820152908216602482015260440161127a565b600e80546001600160a01b0383811673ffffffffffffffffffffffffffffffffffffffff1983168117909355604080519190921680825260208201939093527fd52b2b9b7e9ee655fcb95d2e5b9e0c9f69e7ef2b8e9d2d0ea78402d576d22e2291015b60405180910390a150506000805460ff19166001179055565b600e54600c54604051633a08ab8b60e01b81526001600160a01b0391821660048201526000929190911690633a08ab8b9060240160206040518083038186803b15801561165b57600080fd5b505afa15801561166f573d6000803e3d6000fd5b505050506040513d601f19601f820116820180604052508101906116939190613b75565b905090565b6000806116a783600019612dc3565b91509150915091565b6000805460ff166116d4576040516306fda65d60e31b815260040160405180910390fd5b6000805460ff19168155600c546040516370a0823160e01b81523060048201526001600160a01b03909116906370a082319060240160206040518083038186803b15801561172157600080fd5b505afa158015611735573d6000803e3d6000fd5b505050506040513d601f19601f820116820180604052508101906117599190613b75565b600a5490915060ff16156118f6576008546009546040516393f1a40b60e01b815260048101919091523060248201526000916001600160a01b0316906393f1a40b90604401604080518083038186803b1580156117b557600080fd5b505afa1580156117c9573d6000803e3d6000fd5b505050506040513d601f19601f820116820180604052508101906117ed9190613b8d565b50600854600954604051631c57762b60e31b81526004810191909152602481018590529192506001600160a01b03169063e2bbb15890604401600060405180830381600087803b15801561184057600080fd5b505af1158015611854573d6000803e3d6000fd5b50506008546009546040516393f1a40b60e01b81526004810191909152306024820152600093506001600160a01b0390911691506393f1a40b90604401604080518083038186803b1580156118a857600080fd5b505afa1580156118bc573d6000803e3d6000fd5b505050506040513d601f19601f820116820180604052508101906118e09190613b8d565b5090506118ed8282613d89565b92505050611906565b600b546119039082613d89565b90505b61191861191161146a565b82906129f7565b91506000821161193e5760405163cd698f4d60e01b81526004810183905260240161127a565b6119488383612ee8565b60408051828152602081018490526001600160a01b0385169133917f2f00e3cdd69a77be7ed215ec7b2a36784dd158f921fca79ac29deffa353fe6ee91015b60405180910390a350611998612924565b6000805460ff19166001179055919050565b6000805460ff166119ce576040516306fda65d60e31b815260040160405180910390fd5b6000805460ff19168155308152600460205260409020546119f76119f061146a565b829061255c565b915060008211611a1d576040516319f4fb4360e31b81526004810183905260240161127a565b600b54821115611a4e57600b546040516339eff09f60e11b815261127a918491600401918252602082015260400190565b611a583082612f9b565b600a5460ff1615611ad257600854600954604051630441a3e760e41b81526001600160a01b039092169163441a3e7091611a9f918690600401918252602082015260400190565b600060405180830381600087803b158015611ab957600080fd5b505af1158015611acd573d6000803e3d6000fd5b505050505b600c54611ae9906001600160a01b03168484612568565b60408051838152602081018390526001600160a01b0385169133917f3f693fff038bb8a046aa76d9516190ac7444f7d69cf952c4cbdc086fdef2d6fc9101611987565b6002805461117c90613dd0565b60007f00000000000000000000000000000000000000000000000000000000000000006001600160a01b0384811690821614611bbb5760405163d06d9b9360e01b81526001600160a01b0380861660048301527f000000000000000000000000000000000000000000000000000000000000000016602482015260440161127a565b6000816001600160a01b0316856001600160a01b031614611bde57600019611be0565b835b90506000611bee8783612dc3565b1598975050505050505050565b3360009081526005602090815260408083206001600160a01b03861684529091528120548190611453908490613d89565b611c34612abb565b60005460ff16611c57576040516306fda65d60e31b815260040160405180910390fd5b6000805460ff19169055611c7c670de0b6b3a76400006710a741a46278000083613046565b601080549082905560408051828152602081018490527faeba5a6c40a8ac138134bff1aaa65debf25971188a58804bad717f82f0ec131691016115f6565b600061120a338484612ca0565b60005460ff16611cea576040516306fda65d60e31b815260040160405180910390fd5b6000805460ff19168155600b543082526004602052604090912054611d28918391611d159190613d89565b600c546001600160a01b03169190612568565b506000805460ff19166001179055565b6001600160a01b038716611d5f5760405163bc622b6360e01b815260040160405180910390fd5b6001600160a01b038616611d8657604051632853494b60e11b815260040160405180910390fd5b42841015611daa5760405163212ed8bb60e11b81526004810185905260240161127a565b6001600160a01b0387811660008181526006602090815260408083208054600180820190925582517f6e71edae12b1b97f4d1f60370fef10105fa2faae0126114a169c64845d6126c98186015280840196909652958c166060860152608085018b905260a085019590955260c08085018a90528151808603909101815260e08501825280519083012061190160f01b6101008601527f000000000000000000000000000000000000000000000000000000000000000061010286015261012280860182905282518087039091018152610142860180845281519185019190912090859052610162860180845281905260ff8a166101828701526101a286018990526101c2860188905291519095919491926101e2808401939192601f1981019281900390910190855afa158015611ee5573d6000803e3d6000fd5b5050604051601f1901519150506001600160a01b038116611f1957604051630f81234f60e31b815260040160405180910390fd5b896001600160a01b0316816001600160a01b031614611f5e57604051630b76193960e31b815260ff87166004820152602481018690526044810185905260640161127a565b611f698a8a8a612a0c565b50505050505050505050565b611f7d612abb565b60005460ff16611fa0576040516306fda65d60e31b815260040160405180910390fd5b6000805460ff19169055611fc56706f05b59d3b20000670de0b6b3a764000083613046565b600f80549082905560408051828152602081018490527ff25d2243e4128e51523d8537f04f18c3e6390bbfc6323390a9a8e59b921ce04691016115f6565b61200b612abb565b60005460ff1661202e576040516306fda65d60e31b815260040160405180910390fd5b6000805460ff1916815561204b9067016345785d8a000083613046565b601180549082905560408051828152602081018490527f87272249f1056ec16a68dd9255101358246dd26a796e2f0bc6b3a0ad02f2de4191016115f6565b60005460ff166120ac576040516306fda65d60e31b815260040160405180910390fd5b6000805460ff19169055611035612924565b60606000826001600160a01b0316630dfe16816040518163ffffffff1660e01b815260040160206040518083038186803b1580156120fb57600080fd5b505afa15801561210f573d6000803e3d6000fd5b505050506040513d601f19601f820116820180604052508101906121339190613785565b6001600160a01b03166395d89b416040518163ffffffff1660e01b815260040160006040518083038186803b15801561216b57600080fd5b505afa15801561217f573d6000803e3d6000fd5b505050506040513d6000823e601f3d908101601f191682016040526121a79190810190613a8b565b90506000836001600160a01b031663d21220a76040518163ffffffff1660e01b815260040160206040518083038186803b1580156121e457600080fd5b505afa1580156121f8573d6000803e3d6000fd5b505050506040513d601f19601f8201168201806040525081019061221c9190613785565b6001600160a01b03166395d89b416040518163ffffffff1660e01b815260040160006040518083038186803b15801561225457600080fd5b505afa158015612268573d6000803e3d6000fd5b505050506040513d6000823e601f3d908101601f191682016040526122909190810190613a8b565b905081816040516020016122a5929190613bf9565b60405160208183030381529060405292505050919050565b3332146122e557604051631fec819f60e21b815233600482015232602482015260440161127a565b565b600854600954604051630441a3e760e41b81526004810191909152600060248201819052916001600160a01b03169063441a3e7090604401600060405180830381600087803b15801561233957600080fd5b505af115801561234d573d6000803e3d6000fd5b5050600854600954604051631526fe2760e01b81526004810191909152600093506001600160a01b039091169150631526fe27906024016101206040518083038186803b15801561239d57600080fd5b505afa1580156123b1573d6000803e3d6000fd5b505050506040513d601f19601f820116820180604052508101906123d591906138b9565b5050509550505050505060006001600160a01b0316816001600160a01b031614612547576000816001600160a01b03166373cfc6b26040518163ffffffff1660e01b815260040160206040518083038186803b15801561243457600080fd5b505afa158015612448573d6000803e3d6000fd5b505050506040513d601f19601f8201168201806040525081019061246c9190613a11565b90506000816124eb57826001600160a01b031663f7c618c16040518163ffffffff1660e01b815260040160206040518083038186803b1580156124ae57600080fd5b505afa1580156124c2573d6000803e3d6000fd5b505050506040513d601f19601f820116820180604052508101906124e69190613785565b61250d565b7f00000000000000000000000000000000000000000000000000000000000000005b90506000612523826001600160a01b0316612719565b90508015612543576012546125439083906001600160a01b0316836125d4565b5050505b601254611492906001600160a01b0316612719565b600061141b8383613081565b604080516001600160a01b038416602482015260448082018490528251808303909101815260649091019091526020810180517bffffffffffffffffffffffffffffffffffffffffffffffffffffffff1663a9059cbb60e01b1790526125cf908490613143565b505050565b604080516002808252606082018352600092602083019080368337019050509050838160008151811061261757634e487b7160e01b600052603260045260246000fd5b60200260200101906001600160a01b031690816001600160a01b031681525050828160018151811061265957634e487b7160e01b600052603260045260246000fd5b6001600160a01b039283166020918202929092010152601354612681918681169116846131c0565b6013546040516338ed173960e01b81526001600160a01b03909116906338ed1739906126bc9085906000908690309060001990600401613c91565b600060405180830381600087803b1580156126d657600080fd5b505af11580156126ea573d6000803e3d6000fd5b505050506040513d6000823e601f3d908101601f191682016040526127129190810190613969565b5050505050565b6040516370a0823160e01b81523060048201526000906001600160a01b038316906370a082319060240160206040518083038186803b15801561275b57600080fd5b505afa15801561276f573d6000803e3d6000fd5b505050506040513d601f19601f8201168201806040525081019061120e9190613b75565b600080836127a3846103e8613d32565b6127ad9190613d6a565b9050600083856127bf886103e8613d6a565b6127c99190613d6a565b6127d4906004613d6a565b6127de9190613d6a565b905060006127ff826127f08580613d6a565b6127fa9190613d32565b613259565b9050600061280e866002613d6a565b90508061281b8584613d89565b6128259190613d4a565b98975050505050505050565b60135460009061284e906001600160a01b038781169116856131c0565b601354612868906001600160a01b038681169116846131c0565b60135460405162e8e33760e81b81526001600160a01b0387811660048301528681166024830152604482018690526064820185905260006084830181905260a48301523060c483015260001960e48301529091169063e8e337009061010401606060405180830381600087803b1580156128e157600080fd5b505af11580156128f5573d6000803e3d6000fd5b505050506040513d601f19601f820116820180604052508101906129199190613bb0565b979650505050505050565b600a5460ff16612936576122e5613451565b6008546009546040516393f1a40b60e01b815260048101919091523060248201526001600160a01b03909116906393f1a40b90604401604080518083038186803b15801561298357600080fd5b505afa158015612997573d6000803e3d6000fd5b505050506040513d601f19601f820116820180604052508101906129bb9190613b8d565b50600b8190556040519081527f8a0df8ef054fae2c3d2d19a7b322e864870cc9fd3cb07fb9526309c596244bf4906020015b60405180910390a1565b600061141b83670de0b6b3a764000084613501565b6001600160a01b038316612a335760405163230326bf60e11b815260040160405180910390fd5b6001600160a01b038216612a5a57604051630b39ecd960e21b815260040160405180910390fd5b6001600160a01b0383811660008181526005602090815260408083209487168084529482529182902085905590518481527f8c5be1e5ebec7d5bd14f71427d1e84f3dd0314c0f7b2291e5b200ac8c7c3b925910160405180910390a3505050565b600d54604080516303e1469160e61b815290516000926001600160a01b03169163f851a440916004808301926020929190829003018186803b158015612b0057600080fd5b505afa158015612b14573d6000803e3d6000fd5b505050506040513d601f19601f82011682018060405250810190612b389190613785565b9050336001600160a01b03821614612b7457604051633e7c764160e21b81523360048201526001600160a01b038216602482015260440161127a565b50565b604080516001600160a01b038481166024830152604480830185905283518084039091018152606490920183526020820180517bffffffffffffffffffffffffffffffffffffffffffffffffffffffff1663095ea7b360e01b1790529151600092839290871691612be89190613bdd565b6000604051808303816000865af19150503d8060008114612c25576040519150601f19603f3d011682016040523d82523d6000602084013e612c2a565b606091505b5091509150818015612c54575080511580612c54575080806020019051810190612c549190613a11565b6127125760405162461bcd60e51b815260206004820152600c60248201527f2173616665417070726f76650000000000000000000000000000000000000000604482015260640161127a565b6001600160a01b038316612cc75760405163907bfbd760e01b815260040160405180910390fd5b6001600160a01b038216612cee57604051637184c13f60e01b815260040160405180910390fd5b6001600160a01b03831660009081526004602052604090205481811015612d3257604051632dcf2e2160e21b8152600481018290526024810183905260440161127a565b6001600160a01b03808516600090815260046020526040808220858503905591851681529081208054849290612d69908490613d32565b92505081905550826001600160a01b0316846001600160a01b03167fddf252ad1be2c89b69c2b068fc378daa952ba7f163c4a11628f55a4df523b3ef84604051612db591815260200190565b60405180910390a350505050565b6000806001600160a01b038416612dfe5760405163a5075cd160e01b81526001600160a01b038516600482015232602482015260440161127a565b600019831415612ea457604051637d6af07960e01b81526001600160a01b0385811660048301527f00000000000000000000000000000000000000000000000000000000000000001690637d6af0799060240160206040518083038186803b158015612e6957600080fd5b505afa158015612e7d573d6000803e3d6000fd5b505050506040513d601f19601f82011682018060405250810190612ea19190613b75565b92505b6000612ecf612eb161146a565b6001600160a01b03871660009081526004602052604090205461106c565b9050612edb81856135dd565b92509250505b9250929050565b6001600160a01b038216612f0f5760405163139241eb60e01b815260040160405180910390fd5b6001600160a01b03821660009081526004602052604081208054839290612f37908490613d32565b925050819055508060036000828254612f509190613d32565b90915550506040518181526001600160a01b038316906000907fddf252ad1be2c89b69c2b068fc378daa952ba7f163c4a11628f55a4df523b3ef906020015b60405180910390a35050565b6001600160a01b038216612fc257604051638e35e80360e01b815260040160405180910390fd5b6001600160a01b03821660009081526004602052604081208054839290612fea908490613d89565b9250508190555080600360008282546130039190613d89565b90915550506040518181526000906001600160a01b038416907fddf252ad1be2c89b69c2b068fc378daa952ba7f163c4a11628f55a4df523b3ef90602001612f8f565b8281108061305357508181115b156125cf5760405162ccc44d60e41b815260048101849052602481018390526044810182905260640161127a565b60008080600019848609848602925082811083820303915050670de0b6b3a764000081106130c55760405163698d9a0160e11b81526004810182905260240161127a565b600080670de0b6b3a76400008688099150506706f05b59d3b1ffff8111826130ff5780670de0b6b3a764000085040194505050505061120e565b620400008285030493909111909103600160ee1b02919091177faccb18165bd6fe31ae1cf318dc5b51eee0e1ba569b88cd74c1773b91fac106690201905092915050565b600061318583836040518060400160405280601581526020017f5361666545726332304c6f774c6576656c43616c6c0000000000000000000000815250613657565b8051909150156125cf57808060200190518101906131a39190613a11565b6125cf576040516364d6fc4d60e01b815260040160405180910390fd5b604051636eb1769f60e11b81523060048201526001600160a01b03838116602483015282919085169063dd62ed3e9060440160206040518083038186803b15801561320a57600080fd5b505afa15801561321e573d6000803e3d6000fd5b505050506040513d601f19601f820116820180604052508101906132429190613b75565b1061324c57505050565b6125cf8383600019612b77565b60008161326857506000919050565b50600181700100000000000000000000000000000000811061328f5760409190911b9060801c5b6801000000000000000081106132aa5760209190911b9060401c5b64010000000081106132c15760109190911b9060201c5b6201000081106132d65760089190911b9060101c5b61010081106132ea5760049190911b9060081c5b601081106132fd5760029190911b9060041c5b6008811061330d57600182901b91505b600182848161332c57634e487b7160e01b600052601260045260246000fd5b048301901c9150600182848161335257634e487b7160e01b600052601260045260246000fd5b048301901c9150600182848161337857634e487b7160e01b600052601260045260246000fd5b048301901c9150600182848161339e57634e487b7160e01b600052601260045260246000fd5b048301901c915060018284816133c457634e487b7160e01b600052601260045260246000fd5b048301901c915060018284816133ea57634e487b7160e01b600052601260045260246000fd5b048301901c9150600182848161341057634e487b7160e01b600052601260045260246000fd5b048301901c9150600082848161343657634e487b7160e01b600052601260045260246000fd5b049050808310156134475782613449565b805b949350505050565b600c546040516370a0823160e01b81523060048201526001600160a01b03909116906370a082319060240160206040518083038186803b15801561349457600080fd5b505afa1580156134a8573d6000803e3d6000fd5b505050506040513d601f19601f820116820180604052508101906134cc9190613b75565b600b8190556040519081527f8a0df8ef054fae2c3d2d19a7b322e864870cc9fd3cb07fb9526309c596244bf4906020016129ed565b60008080600019858709858702925082811083820303915050806000141561354a5783828161354057634e487b7160e01b600052601260045260246000fd5b049250505061141b565b83811061357457604051631dcf306360e21b8152600481018290526024810185905260440161127a565b60008486880960026001871981018816978890046003810283188082028403028082028403028082028403028082028403028082028403029081029092039091026000889003889004909101858311909403939093029303949094049190911702949350505050565b60008060006135ea61160f565b905060006135f8868361255c565b90506000613611600f548361255c90919063ffffffff16565b9050600061362f6011546010546136289190613d32565b889061255c565b9050808210613648579003935060009250612ee1915050565b60009550039250612ee1915050565b60606001600160a01b0384163b61368c57604051638201cc0560e01b81526001600160a01b038516600482015260240161127a565b600080856001600160a01b0316856040516136a79190613bdd565b6000604051808303816000865af19150503d80600081146136e4576040519150601f19603f3d011682016040523d82523d6000602084013e6136e9565b606091505b509150915081156136fd57915061141b9050565b80511561370d5780518082602001fd5b8360405162461bcd60e51b815260040161127a9190613c5e565b805161373281613e37565b919050565b80516dffffffffffffffffffffffffffff8116811461373257600080fd5b805163ffffffff8116811461373257600080fd5b60006020828403121561377a578081fd5b813561141b81613e37565b600060208284031215613796578081fd5b815161141b81613e37565b600080604083850312156137b3578081fd5b82356137be81613e37565b915060208301356137ce81613e37565b809150509250929050565b6000806000606084860312156137ed578081fd5b83356137f881613e37565b9250602084013561380881613e37565b929592945050506040919091013590565b600080600080600080600060e0888a031215613833578283fd5b873561383e81613e37565b9650602088013561384e81613e37565b95506040880135945060608801359350608088013560ff81168114613871578384fd5b9699959850939692959460a0840135945060c09093013592915050565b600080604083850312156138a0578182fd5b82356138ab81613e37565b946020939093013593505050565b60008060008060008060008060006101208a8c0312156138d7578283fd5b89516138e281613e37565b60208b01519099506bffffffffffffffffffffffff81168114613903578384fd5b8098505060408a0151965060608a0151955060808a015167ffffffffffffffff8116811461392f578384fd5b945061393d60a08b01613727565b935061394b60c08b01613755565b925060e08a015191506101008a015190509295985092959850929598565b6000602080838503121561397b578182fd5b825167ffffffffffffffff80821115613992578384fd5b818501915085601f8301126139a5578384fd5b8151818111156139b7576139b7613e21565b8060051b91506139c8848301613d01565b8181528481019084860184860187018a10156139e2578788fd5b8795505b83861015613a045780518352600195909501949186019186016139e6565b5098975050505050505050565b600060208284031215613a22578081fd5b8151801515811461141b578182fd5b600080600080600060a08688031215613a48578283fd5b8535613a5381613e37565b94506020860135613a6381613e37565b93506040860135613a7381613e37565b94979396509394606081013594506080013592915050565b600060208284031215613a9c578081fd5b815167ffffffffffffffff80821115613ab3578283fd5b818401915084601f830112613ac6578283fd5b815181811115613ad857613ad8613e21565b613aeb601f8201601f1916602001613d01565b9150808252856020828501011115613b01578384fd5b613b12816020840160208601613da0565b50949350505050565b600080600060608486031215613b2f578081fd5b613b3884613737565b9250613b4660208501613737565b9150613b5460408501613755565b90509250925092565b600060208284031215613b6e578081fd5b5035919050565b600060208284031215613b86578081fd5b5051919050565b60008060408385031215613b9f578182fd5b505080516020909101519092909150565b600080600060608486031215613bc4578081fd5b8351925060208401519150604084015190509250925092565b60008251613bef818460208701613da0565b9190910192915050565b7f4379674c50200000000000000000000000000000000000000000000000000000815260008351613c31816006850160208801613da0565b602f60f81b6006918401918201528351613c52816007840160208801613da0565b01600701949350505050565b6020815260008251806020840152613c7d816040850160208701613da0565b601f01601f19169190910160400192915050565b600060a082018783526020878185015260a0604085015281875180845260c0860191508289019350845b81811015613ce05784516001600160a01b031683529383019391830191600101613cbb565b50506001600160a01b03969096166060850152505050608001529392505050565b604051601f8201601f1916810167ffffffffffffffff81118282101715613d2a57613d2a613e21565b604052919050565b60008219821115613d4557613d45613e0b565b500190565b600082613d6557634e487b7160e01b81526012600452602481fd5b500490565b6000816000190483118215151615613d8457613d84613e0b565b500290565b600082821015613d9b57613d9b613e0b565b500390565b60005b83811015613dbb578181015183820152602001613da3565b83811115613dca576000848401525b50505050565b600181811c90821680613de457607f821691505b60208210811415613e0557634e487b7160e01b600052602260045260246000fd5b50919050565b634e487b7160e01b600052601160045260246000fd5b634e487b7160e01b600052604160045260246000fd5b6001600160a01b0381168114612b7457600080fdfea264697066735822122040d29ca4c189902500243e8ced5af8765a03e2effe45fcc3b97dba4c617002eb64736f6c63430008040033",
  "linkReferences": {},
  "deployedLinkReferences": {}
}