{
  "_format": "hh-sol-artifact-1",
  "contractName": "CygnusCollateralModel",
  "sourceName": "contracts/cygnus-core/CygnusCollateralModel.sol",
  "abi": [
    {
      "inputs": [],
      "name": "AllowanceOverflow",
      "type": "error"
    },
    {
      "inputs": [],
      "name": "AllowanceUnderflow",
      "type": "error"
    },
    {
      "inputs": [],
      "name": "CygnusCollateralControl__ParameterNotInRange",
      "type": "error"
    },
    {
      "inputs": [],
      "name": "CygnusCollateralModel__BorrowerCantBeAddressZero",
      "type": "error"
    },
    {
      "inputs": [],
      "name": "CygnusCollateralModel__BorrowerCantBeCollateral",
      "type": "error"
    },
    {
      "inputs": [],
      "name": "CygnusCollateralModel__PriceCantBeZero",
      "type": "error"
    },
    {
      "inputs": [],
      "name": "CygnusTerminal__CantMintZeroShares",
      "type": "error"
    },
    {
      "inputs": [],
      "name": "CygnusTerminal__CantRedeemZeroAssets",
      "type": "error"
    },
    {
      "inputs": [],
      "name": "CygnusTerminal__CantSweepUnderlying",
      "type": "error"
    },
    {
      "inputs": [],
      "name": "CygnusTerminal__MsgSenderNotAdmin",
      "type": "error"
    },
    {
      "inputs": [],
      "name": "InsufficientAllowance",
      "type": "error"
    },
    {
      "inputs": [],
      "name": "InsufficientBalance",
      "type": "error"
    },
    {
      "inputs": [],
      "name": "InvalidPermit",
      "type": "error"
    },
    {
      "inputs": [],
      "name": "PermitExpired",
      "type": "error"
    },
    {
      "inputs": [],
      "name": "ReentrantCall",
      "type": "error"
    },
    {
      "inputs": [],
      "name": "TotalSupplyOverflow",
      "type": "error"
    },
    {
      "anonymous": false,
      "inputs": [
        {
          "indexed": true,
          "internalType": "address",
          "name": "owner",
          "type": "address"
        },
        {
          "indexed": true,
          "internalType": "address",
          "name": "spender",
          "type": "address"
        },
        {
          "indexed": false,
          "internalType": "uint256",
          "name": "amount",
          "type": "uint256"
        }
      ],
      "name": "Approval",
      "type": "event"
    },
    {
      "anonymous": false,
      "inputs": [
        {
          "indexed": true,
          "internalType": "address",
          "name": "sender",
          "type": "address"
        },
        {
          "indexed": true,
          "internalType": "address",
          "name": "recipient",
          "type": "address"
        },
        {
          "indexed": false,
          "internalType": "uint256",
          "name": "assets",
          "type": "uint256"
        },
        {
          "indexed": false,
          "internalType": "uint256",
          "name": "shares",
          "type": "uint256"
        }
      ],
      "name": "Deposit",
      "type": "event"
    },
    {
      "anonymous": false,
      "inputs": [
        {
          "indexed": false,
          "internalType": "uint256",
          "name": "oldDebtRatio",
          "type": "uint256"
        },
        {
          "indexed": false,
          "internalType": "uint256",
          "name": "newDebtRatio",
          "type": "uint256"
        }
      ],
      "name": "NewDebtRatio",
      "type": "event"
    },
    {
      "anonymous": false,
      "inputs": [
        {
          "indexed": false,
          "internalType": "uint256",
          "name": "oldLiquidationFee",
          "type": "uint256"
        },
        {
          "indexed": false,
          "internalType": "uint256",
          "name": "newLiquidationFee",
          "type": "uint256"
        }
      ],
      "name": "NewLiquidationFee",
      "type": "event"
    },
    {
      "anonymous": false,
      "inputs": [
        {
          "indexed": false,
          "internalType": "uint256",
          "name": "oldLiquidationIncentive",
          "type": "uint256"
        },
        {
          "indexed": false,
          "internalType": "uint256",
          "name": "newLiquidationIncentive",
          "type": "uint256"
        }
      ],
      "name": "NewLiquidationIncentive",
      "type": "event"
    },
    {
      "anonymous": false,
      "inputs": [
        {
          "indexed": true,
          "internalType": "address",
          "name": "sender",
          "type": "address"
        },
        {
          "indexed": true,
          "internalType": "address",
          "name": "token",
          "type": "address"
        },
        {
          "indexed": false,
          "internalType": "uint256",
          "name": "balance",
          "type": "uint256"
        }
      ],
      "name": "SweepToken",
      "type": "event"
    },
    {
      "anonymous": false,
      "inputs": [
        {
          "indexed": false,
          "internalType": "uint160",
          "name": "totalBalance",
          "type": "uint160"
        }
      ],
      "name": "Sync",
      "type": "event"
    },
    {
      "anonymous": false,
      "inputs": [
        {
          "indexed": true,
          "internalType": "address",
          "name": "from",
          "type": "address"
        },
        {
          "indexed": true,
          "internalType": "address",
          "name": "to",
          "type": "address"
        },
        {
          "indexed": false,
          "internalType": "uint256",
          "name": "amount",
          "type": "uint256"
        }
      ],
      "name": "Transfer",
      "type": "event"
    },
    {
      "anonymous": false,
      "inputs": [
        {
          "indexed": true,
          "internalType": "address",
          "name": "sender",
          "type": "address"
        },
        {
          "indexed": true,
          "internalType": "address",
          "name": "recipient",
          "type": "address"
        },
        {
          "indexed": true,
          "internalType": "address",
          "name": "owner",
          "type": "address"
        },
        {
          "indexed": false,
          "internalType": "uint256",
          "name": "assets",
          "type": "uint256"
        },
        {
          "indexed": false,
          "internalType": "uint256",
          "name": "shares",
          "type": "uint256"
        }
      ],
      "name": "Withdraw",
      "type": "event"
    },
    {
      "inputs": [],
      "name": "DOMAIN_SEPARATOR",
      "outputs": [
        {
          "internalType": "bytes32",
          "name": "result",
          "type": "bytes32"
        }
      ],
      "stateMutability": "view",
      "type": "function"
    },
    {
      "inputs": [],
      "name": "PERMIT2",
      "outputs": [
        {
          "internalType": "contract IAllowanceTransfer",
          "name": "",
          "type": "address"
        }
      ],
      "stateMutability": "view",
      "type": "function"
    },
    {
      "inputs": [
        {
          "internalType": "address",
          "name": "owner",
          "type": "address"
        },
        {
          "internalType": "address",
          "name": "spender",
          "type": "address"
        }
      ],
      "name": "allowance",
      "outputs": [
        {
          "internalType": "uint256",
          "name": "result",
          "type": "uint256"
        }
      ],
      "stateMutability": "view",
      "type": "function"
    },
    {
      "inputs": [
        {
          "internalType": "address",
          "name": "spender",
          "type": "address"
        },
        {
          "internalType": "uint256",
          "name": "amount",
          "type": "uint256"
        }
      ],
      "name": "approve",
      "outputs": [
        {
          "internalType": "bool",
          "name": "",
          "type": "bool"
        }
      ],
      "stateMutability": "nonpayable",
      "type": "function"
    },
    {
      "inputs": [
        {
          "internalType": "address",
          "name": "owner",
          "type": "address"
        }
      ],
      "name": "balanceOf",
      "outputs": [
        {
          "internalType": "uint256",
          "name": "result",
          "type": "uint256"
        }
      ],
      "stateMutability": "view",
      "type": "function"
    },
    {
      "inputs": [],
      "name": "borrowable",
      "outputs": [
        {
          "internalType": "address",
          "name": "",
          "type": "address"
        }
      ],
      "stateMutability": "view",
      "type": "function"
    },
    {
      "inputs": [
        {
          "internalType": "address",
          "name": "borrower",
          "type": "address"
        },
        {
          "internalType": "uint256",
          "name": "borrowAmount",
          "type": "uint256"
        }
      ],
      "name": "canBorrow",
      "outputs": [
        {
          "internalType": "bool",
          "name": "",
          "type": "bool"
        }
      ],
      "stateMutability": "view",
      "type": "function"
    },
    {
      "inputs": [
        {
          "internalType": "address",
          "name": "borrower",
          "type": "address"
        },
        {
          "internalType": "uint256",
          "name": "redeemAmount",
          "type": "uint256"
        }
      ],
      "name": "canRedeem",
      "outputs": [
        {
          "internalType": "bool",
          "name": "",
          "type": "bool"
        }
      ],
      "stateMutability": "view",
      "type": "function"
    },
    {
      "inputs": [],
      "name": "cygnusNebulaOracle",
      "outputs": [
        {
          "internalType": "contract ICygnusNebulaOracle",
          "name": "",
          "type": "address"
        }
      ],
      "stateMutability": "view",
      "type": "function"
    },
    {
      "inputs": [],
      "name": "debtRatio",
      "outputs": [
        {
          "internalType": "uint256",
          "name": "",
          "type": "uint256"
        }
      ],
      "stateMutability": "view",
      "type": "function"
    },
    {
      "inputs": [],
      "name": "decimals",
      "outputs": [
        {
          "internalType": "uint8",
          "name": "",
          "type": "uint8"
        }
      ],
      "stateMutability": "view",
      "type": "function"
    },
    {
      "inputs": [
        {
          "internalType": "address",
          "name": "spender",
          "type": "address"
        },
        {
          "internalType": "uint256",
          "name": "difference",
          "type": "uint256"
        }
      ],
      "name": "decreaseAllowance",
      "outputs": [
        {
          "internalType": "bool",
          "name": "",
          "type": "bool"
        }
      ],
      "stateMutability": "nonpayable",
      "type": "function"
    },
    {
      "inputs": [
        {
          "internalType": "uint256",
          "name": "assets",
          "type": "uint256"
        },
        {
          "internalType": "address",
          "name": "recipient",
          "type": "address"
        },
        {
          "components": [
            {
              "components": [
                {
                  "internalType": "address",
                  "name": "token",
                  "type": "address"
                },
                {
                  "internalType": "uint160",
                  "name": "amount",
                  "type": "uint160"
                },
                {
                  "internalType": "uint48",
                  "name": "expiration",
                  "type": "uint48"
                },
                {
                  "internalType": "uint48",
                  "name": "nonce",
                  "type": "uint48"
                }
              ],
              "internalType": "struct IAllowanceTransfer.PermitDetails",
              "name": "details",
              "type": "tuple"
            },
            {
              "internalType": "address",
              "name": "spender",
              "type": "address"
            },
            {
              "internalType": "uint256",
              "name": "sigDeadline",
              "type": "uint256"
            }
          ],
          "internalType": "struct IAllowanceTransfer.PermitSingle",
          "name": "_permit",
          "type": "tuple"
        },
        {
          "internalType": "bytes",
          "name": "signature",
          "type": "bytes"
        }
      ],
      "name": "deposit",
      "outputs": [
        {
          "internalType": "uint256",
          "name": "shares",
          "type": "uint256"
        }
      ],
      "stateMutability": "nonpayable",
      "type": "function"
    },
    {
      "inputs": [],
      "name": "exchangeRate",
      "outputs": [
        {
          "internalType": "uint256",
          "name": "",
          "type": "uint256"
        }
      ],
      "stateMutability": "view",
      "type": "function"
    },
    {
      "inputs": [
        {
          "internalType": "address",
          "name": "borrower",
          "type": "address"
        }
      ],
      "name": "getAccountLiquidity",
      "outputs": [
        {
          "internalType": "uint256",
          "name": "liquidity",
          "type": "uint256"
        },
        {
          "internalType": "uint256",
          "name": "shortfall",
          "type": "uint256"
        }
      ],
      "stateMutability": "view",
      "type": "function"
    },
    {
      "inputs": [
        {
          "internalType": "address",
          "name": "borrower",
          "type": "address"
        }
      ],
      "name": "getDebtRatio",
      "outputs": [
        {
          "internalType": "uint256",
          "name": "",
          "type": "uint256"
        }
      ],
      "stateMutability": "view",
      "type": "function"
    },
    {
      "inputs": [],
      "name": "getLPTokenPrice",
      "outputs": [
        {
          "internalType": "uint256",
          "name": "price",
          "type": "uint256"
        }
      ],
      "stateMutability": "view",
      "type": "function"
    },
    {
      "inputs": [],
      "name": "hangar18",
      "outputs": [
        {
          "internalType": "contract IHangar18",
          "name": "",
          "type": "address"
        }
      ],
      "stateMutability": "view",
      "type": "function"
    },
    {
      "inputs": [
        {
          "internalType": "address",
          "name": "spender",
          "type": "address"
        },
        {
          "internalType": "uint256",
          "name": "difference",
          "type": "uint256"
        }
      ],
      "name": "increaseAllowance",
      "outputs": [
        {
          "internalType": "bool",
          "name": "",
          "type": "bool"
        }
      ],
      "stateMutability": "nonpayable",
      "type": "function"
    },
    {
      "inputs": [],
      "name": "liquidationFee",
      "outputs": [
        {
          "internalType": "uint256",
          "name": "",
          "type": "uint256"
        }
      ],
      "stateMutability": "view",
      "type": "function"
    },
    {
      "inputs": [],
      "name": "liquidationIncentive",
      "outputs": [
        {
          "internalType": "uint256",
          "name": "",
          "type": "uint256"
        }
      ],
      "stateMutability": "view",
      "type": "function"
    },
    {
      "inputs": [],
      "name": "name",
      "outputs": [
        {
          "internalType": "string",
          "name": "",
          "type": "string"
        }
      ],
      "stateMutability": "pure",
      "type": "function"
    },
    {
      "inputs": [
        {
          "internalType": "address",
          "name": "owner",
          "type": "address"
        }
      ],
      "name": "nonces",
      "outputs": [
        {
          "internalType": "uint256",
          "name": "result",
          "type": "uint256"
        }
      ],
      "stateMutability": "view",
      "type": "function"
    },
    {
      "inputs": [
        {
          "internalType": "address",
          "name": "owner",
          "type": "address"
        },
        {
          "internalType": "address",
          "name": "spender",
          "type": "address"
        },
        {
          "internalType": "uint256",
          "name": "value",
          "type": "uint256"
        },
        {
          "internalType": "uint256",
          "name": "deadline",
          "type": "uint256"
        },
        {
          "internalType": "uint8",
          "name": "v",
          "type": "uint8"
        },
        {
          "internalType": "bytes32",
          "name": "r",
          "type": "bytes32"
        },
        {
          "internalType": "bytes32",
          "name": "s",
          "type": "bytes32"
        }
      ],
      "name": "permit",
      "outputs": [],
      "stateMutability": "nonpayable",
      "type": "function"
    },
    {
      "inputs": [
        {
          "internalType": "uint256",
          "name": "shares",
          "type": "uint256"
        },
        {
          "internalType": "address",
          "name": "recipient",
          "type": "address"
        },
        {
          "internalType": "address",
          "name": "owner",
          "type": "address"
        }
      ],
      "name": "redeem",
      "outputs": [
        {
          "internalType": "uint256",
          "name": "assets",
          "type": "uint256"
        }
      ],
      "stateMutability": "nonpayable",
      "type": "function"
    },
    {
      "inputs": [
        {
          "internalType": "uint256",
          "name": "newDebtRatio",
          "type": "uint256"
        }
      ],
      "name": "setDebtRatio",
      "outputs": [],
      "stateMutability": "nonpayable",
      "type": "function"
    },
    {
      "inputs": [
        {
          "internalType": "uint256",
          "name": "newLiquidationFee",
          "type": "uint256"
        }
      ],
      "name": "setLiquidationFee",
      "outputs": [],
      "stateMutability": "nonpayable",
      "type": "function"
    },
    {
      "inputs": [
        {
          "internalType": "uint256",
          "name": "newLiquidationIncentive",
          "type": "uint256"
        }
      ],
      "name": "setLiquidationIncentive",
      "outputs": [],
      "stateMutability": "nonpayable",
      "type": "function"
    },
    {
      "inputs": [],
      "name": "shuttleId",
      "outputs": [
        {
          "internalType": "uint256",
          "name": "",
          "type": "uint256"
        }
      ],
      "stateMutability": "view",
      "type": "function"
    },
    {
      "inputs": [
        {
          "internalType": "address",
          "name": "token",
          "type": "address"
        }
      ],
      "name": "sweepToken",
      "outputs": [],
      "stateMutability": "nonpayable",
      "type": "function"
    },
    {
      "inputs": [],
      "name": "symbol",
      "outputs": [
        {
          "internalType": "string",
          "name": "",
          "type": "string"
        }
      ],
      "stateMutability": "view",
      "type": "function"
    },
    {
      "inputs": [],
      "name": "totalBalance",
      "outputs": [
        {
          "internalType": "uint160",
          "name": "",
          "type": "uint160"
        }
      ],
      "stateMutability": "view",
      "type": "function"
    },
    {
      "inputs": [],
      "name": "totalSupply",
      "outputs": [
        {
          "internalType": "uint256",
          "name": "result",
          "type": "uint256"
        }
      ],
      "stateMutability": "view",
      "type": "function"
    },
    {
      "inputs": [
        {
          "internalType": "address",
          "name": "to",
          "type": "address"
        },
        {
          "internalType": "uint256",
          "name": "amount",
          "type": "uint256"
        }
      ],
      "name": "transfer",
      "outputs": [
        {
          "internalType": "bool",
          "name": "",
          "type": "bool"
        }
      ],
      "stateMutability": "nonpayable",
      "type": "function"
    },
    {
      "inputs": [
        {
          "internalType": "address",
          "name": "from",
          "type": "address"
        },
        {
          "internalType": "address",
          "name": "to",
          "type": "address"
        },
        {
          "internalType": "uint256",
          "name": "amount",
          "type": "uint256"
        }
      ],
      "name": "transferFrom",
      "outputs": [
        {
          "internalType": "bool",
          "name": "",
          "type": "bool"
        }
      ],
      "stateMutability": "nonpayable",
      "type": "function"
    },
    {
      "inputs": [],
      "name": "underlying",
      "outputs": [
        {
          "internalType": "address",
          "name": "",
          "type": "address"
        }
      ],
      "stateMutability": "view",
      "type": "function"
    }
  ],
  "bytecode": "0x610120806040523462000195576000805460ff19166001178155635a412e5360e01b80835260a092838160048186335af180156200018a57839184918591869162000161575b5060e052855260c052608052670d2f13f7789f0000600155670e5d0f042e878000600255604051908152828160048185335af19182156200015557916200011c575b506101009081526040519061255692836200024384396080518381816103b5015261218901525182818161049f0152611d6f015260c05182818161084001528181610c4301528181610e67015281816112a8015281816115d60152818161181601528181611d480152612254015260e0518261134a01525181818161034201528181611ab901528181611ed001526120a90152f35b620001419150823d84116200014d575b6200013881836200019a565b810190620001e9565b50509150503862000087565b503d6200012c565b604051903d90823e3d90fd5b92505050620001809150843d86116200014d576200013881836200019a565b9150903862000045565b6040513d85823e3d90fd5b600080fd5b601f909101601f19168101906001600160401b03821190821017620001be57604052565b634e487b7160e01b600052604160045260246000fd5b51906001600160a01b03821682036200019557565b91908260a0910312620001955781516001600160a01b039081811681036200019557926200021a60208201620001d4565b926200022960408301620001d4565b926060830151908116810362000195576080909201519056fe6040608081526004908136101561001557600080fd5b600091823560e01c8063031a5c8214611a0457806306fdde03146119bd578063095ea7b31461191f57806318160ddd146118da5780631be195601461178557806323b872dd14611660578063313ce567146115655780633644e5151461152a57806339509351146114725780633ba0b9a91461143757806351303622146113f55780635ec88c791461136d5780635f77f891146113145780636afdd850146112cc5780636f307dc31461125d57806370a08231146111f75780637ecebe00146111915780638808e71c14610da75780638c765e9414610d6a57806395d89b4114610bd3578063a36a363014610b96578063a457c2d714610add578063a843108114610a41578063a9059cbb1461098c578063ad7a672f14610938578063ba08765214610756578063cc1f8ffa146106ee578063cea55f57146106b1578063cf8c8c4414610646578063d505accf146104c3578063d935bd9214610454578063dd62ed3e146103d9578063e8a24e1d1461036a578063e99a6ac7146102f7578063eb6a887d1461025b5763fef0bec8146101ad57600080fd5b346102575760207ffffffffffffffffffffffffffffffffffffffffffffffffffffffffffffffffc360112610257578035906101e7612144565b67016345785d8a000082116102305750907f87272249f1056ec16a68dd9255101358246dd26a796e2f0bc6b3a0ad02f2de4191600354908060035582519182526020820152a180f35b82517f0b169966000000000000000000000000000000000000000000000000000000008152fd5b8280fd5b50346102575760207ffffffffffffffffffffffffffffffffffffffffffffffffffffffffffffffffc36011261025757803590610296612144565b670b1a2bc2ec500000821080156102e6575b6102305750907ff25d2243e4128e51523d8537f04f18c3e6390bbfc6323390a9a8e59b921ce04691600154908060015582519182526020820152a180f35b50670de0b6b3a764000082116102a8565b50503461036657817ffffffffffffffffffffffffffffffffffffffffffffffffffffffffffffffffc360112610366576020905173ffffffffffffffffffffffffffffffffffffffff7f0000000000000000000000000000000000000000000000000000000000000000168152f35b5080fd5b50503461036657817ffffffffffffffffffffffffffffffffffffffffffffffffffffffffffffffffc360112610366576020905173ffffffffffffffffffffffffffffffffffffffff7f0000000000000000000000000000000000000000000000000000000000000000168152f35b503461025757817ffffffffffffffffffffffffffffffffffffffffffffffffffffffffffffffffc360112610257573573ffffffffffffffffffffffffffffffffffffffff92838216820361044f57602435938416840361044f576020938452637f5e9f20600c52526034600c20549051908152f35b600080fd5b50503461036657817ffffffffffffffffffffffffffffffffffffffffffffffffffffffffffffffffc360112610366576020905173ffffffffffffffffffffffffffffffffffffffff7f0000000000000000000000000000000000000000000000000000000000000000168152f35b5090346102575760e07ffffffffffffffffffffffffffffffffffffffffffffffffffffffffffffffffc36011261025757813573ffffffffffffffffffffffffffffffffffffffff9081811680910361044f5760243591821680920361044f576084359360643560443560ff871687036106425761053f6122e1565b92865197834211610636576338377508600c52858a5260209485600c20948554956001870190557f6e71edae12b1b97f4d1f60370fef10105fa2faae0126114a169c64845d6126c98b5287878c0152888a8c015260608b019585875260808c015260a08b01526119018b52855260c0892088526042601e208a5260ff16845260a435875260c435606052838060808b60015afa50843d510361062b5750777f5e9f200000000000000000000000000000000000000000851786526034602c20557f8c5be1e5ebec7d5bd14f71427d1e84f3dd0314c0f7b2291e5b200ac8c7c3b9259190a3528060605280f35b63ddafbaef8952601cfd5b50631a15a3cc8952601cfd5b8780fd5b5082346106ae57827ffffffffffffffffffffffffffffffffffffffffffffffffffffffffffffffffc3601126106ae5750359073ffffffffffffffffffffffffffffffffffffffff8216820361044f576106a560209260243590611fcc565b91519115825250f35b80fd5b50503461036657817ffffffffffffffffffffffffffffffffffffffffffffffffffffffffffffffffc360112610366576020906001549051908152f35b5082346106ae57827ffffffffffffffffffffffffffffffffffffffffffffffffffffffffffffffffc3601126106ae5750359073ffffffffffffffffffffffffffffffffffffffff8216820361044f5761074d60209260243590611e4e565b90519015158152f35b5090346102575760607ffffffffffffffffffffffffffffffffffffffffffffffffffffffffffffffffc360112610257578135916024359373ffffffffffffffffffffffffffffffffffffffff938486169182870361044f576044359586169384870361044f578433036108d4575b6107d66107d0611cbc565b846123c1565b9687156108ac576387a211a2600c5282526020600c20908154908185116108a15750976108649288928560209b0390556805345cdf77eb68f44c858154039055848152867fddf252ad1be2c89b69c2b068fc378daa952ba7f163c4a11628f55a4df523b3ef8b83a37f00000000000000000000000000000000000000000000000000000000000000006124d1565b835190858252868201527ffbde797d201c681b91056529119e0b02407c7bb96a4a2c75c01fc9667232c8db843392a461089b612228565b51908152f35b63f4d678b88452601cfd5b5085517fe3e8d297000000000000000000000000000000000000000000000000000000008152fd5b33602052637f5e9f20600c528682526034600c2080547fffffffffffffffffffffffffffffffffffffffffffffffffffffffffffffffff8103610919575b50506107c5565b80851161092c5784900390553880610912565b826313be252b8552601cfd5b50503461036657817ffffffffffffffffffffffffffffffffffffffffffffffffffffffffffffffffc3601126103665773ffffffffffffffffffffffffffffffffffffffff6020925460081c169051908152f35b5091346106ae57817ffffffffffffffffffffffffffffffffffffffffffffffffffffffffffffffffc3601126106ae57823573ffffffffffffffffffffffffffffffffffffffff8116810361044f57602435916387a211a2600c5233815260209485600c20908154908186116108a1575084900390555282600c208181540190558252600c5160601c337fddf252ad1be2c89b69c2b068fc378daa952ba7f163c4a11628f55a4df523b3ef8480a35160018152f35b50346102575760207ffffffffffffffffffffffffffffffffffffffffffffffffffffffffffffffffc36011261025757803590610a7c612144565b670de0b6b3a764000082108015610acc575b6102305750907faeba5a6c40a8ac138134bff1aaa65debf25971188a58804bad717f82f0ec131691600254908060025582519182526020820152a180f35b50670ff59ee833b300008211610a8e565b5091346106ae57817ffffffffffffffffffffffffffffffffffffffffffffffffffffffffffffffffc3601126106ae57823573ffffffffffffffffffffffffffffffffffffffff8116810361044f5760243590602052637f5e9f20600c523382526034600c20908154818110610b8a5760209550038091558152602c5160601c907f8c5be1e5ebec7d5bd14f71427d1e84f3dd0314c0f7b2291e5b200ac8c7c3b925843392a35160018152f35b85638301ab388552601cfd5b50503461036657817ffffffffffffffffffffffffffffffffffffffffffffffffffffffffffffffffc360112610366576020906003549051908152f35b50903461025757827ffffffffffffffffffffffffffffffffffffffffffffffffffffffffffffffffc3601126102575782815180937f95d89b410000000000000000000000000000000000000000000000000000000082528173ffffffffffffffffffffffffffffffffffffffff7f0000000000000000000000000000000000000000000000000000000000000000165afa918215610d60578392610cd8575b610cd48383610cca6027825180947f4379674c503a20000000000000000000000000000000000000000000000000006020830152610cba8151809260208686019101611b61565b8101036007810185520183611bce565b5191829182611b84565b0390f35b9091503d8084833e610cea8183611bce565b810190602081830312610d585780519067ffffffffffffffff8211610d5c570181601f82011215610d5857805193610d2185611c3e565b92610d2e85519485611bce565b858452602086840101116106ae5750610cd493610d519160208085019101611b61565b9038610c73565b8380fd5b8480fd5b81513d85823e3d90fd5b50503461036657817ffffffffffffffffffffffffffffffffffffffffffffffffffffffffffffffffc360112610366576020906002549051908152f35b509034610257576101207ffffffffffffffffffffffffffffffffffffffffffffffffffffffffffffffffc3601126102575781359260249384359473ffffffffffffffffffffffffffffffffffffffff92838716938488036103665760c07fffffffffffffffffffffffffffffffffffffffffffffffffffffffffffffffbc3601126103665761010480359167ffffffffffffffff91828411610d5c5736602385011215610d5c57838a0135928311610d5c5736868486010111610d5c577f000000000000000000000000000000000000000000000000000000000000000092610e91308561251a565b9481611057575b505050610ea48661248d565b6e22d473030f116ddee9f6b43ac78ba3803b15611053579060848b878094868e5197889687957f36c7851600000000000000000000000000000000000000000000000000000000875233908701528d3090870152166044850152881660648401525af1801561104957908491611034575b5050610f3c91610f29610f2e92309061251a565b611e12565b610f36611cbc565b9061244a565b95861561100d576805345cdf77eb68f44c5415610f9a575b505050610f6384602096612353565b825190815283858201527fdcbc1c05240f31ff3ad067ef1ee35ce4997762752e3a095284754544f4c709d7833392a361089b612228565b7ffffffffffffffffffffffffffffffffffffffffffffffffffffffffffffffc18870197968811610fe457505050610f636020958095610fde6103e861dead612353565b96610f54565b6011907f4e487b7100000000000000000000000000000000000000000000000000000000835252fd5b85517ff1ca48b1000000000000000000000000000000000000000000000000000000008152fd5b8161103e91611bce565b610257578238610f15565b88513d86823e3d90fd5b8580fd5b6e22d473030f116ddee9f6b43ac78ba391823b15610642578b51937f2b67b5700000000000000000000000000000000000000000000000000000000085528d3390860152604435868116809103611189578a86015260643586811680910361118957604486015260843565ffffffffffff9081811680910361118d57606487015260a43590811680910361118957608486015260c435868116809103611189578593847fffffffffffffffffffffffffffffffffffffffffffffffffffffffffffffffe0601f868f978f9a988186998d9960a489015260e43560c489015261010060e489015287015261012496018686013785858286010152011681010301925af1801561117f5761116b575b8080610e98565b8461117891959295611bce565b9238611164565b89513d87823e3d90fd5b8980fd5b8a80fd5b50346102575760207ffffffffffffffffffffffffffffffffffffffffffffffffffffffffffffffffc360112610257573573ffffffffffffffffffffffffffffffffffffffff81168103610257576020926338377508600c525281600c20549051908152f35b50346102575760207ffffffffffffffffffffffffffffffffffffffffffffffffffffffffffffffffc360112610257573573ffffffffffffffffffffffffffffffffffffffff81168103610257576020926387a211a2600c525281600c20549051908152f35b50503461036657817ffffffffffffffffffffffffffffffffffffffffffffffffffffffffffffffffc360112610366576020905173ffffffffffffffffffffffffffffffffffffffff7f0000000000000000000000000000000000000000000000000000000000000000168152f35b50503461036657817ffffffffffffffffffffffffffffffffffffffffffffffffffffffffffffffffc36011261036657602090516e22d473030f116ddee9f6b43ac78ba38152f35b50503461036657817ffffffffffffffffffffffffffffffffffffffffffffffffffffffffffffffffc36011261036657602090517f00000000000000000000000000000000000000000000000000000000000000008152f35b508290346103665760207ffffffffffffffffffffffffffffffffffffffffffffffffffffffffffffffffc36011261036657359073ffffffffffffffffffffffffffffffffffffffff821682036106ae57507fffffffffffffffffffffffffffffffffffffffffffffffffffffffffffffffff6113e991611fcc565b82519182526020820152f35b50503461036657817ffffffffffffffffffffffffffffffffffffffffffffffffffffffffffffffffc36011261036657602090611430611d03565b9051908152f35b50503461036657817ffffffffffffffffffffffffffffffffffffffffffffffffffffffffffffffffc36011261036657602090611430611cbc565b5091346106ae57817ffffffffffffffffffffffffffffffffffffffffffffffffffffffffffffffffc3601126106ae57823573ffffffffffffffffffffffffffffffffffffffff8116810361036657602052637f5e9f20600c523381526034600c2092835490602435820191821061151f575080602094558152602c5160601c907f8c5be1e5ebec7d5bd14f71427d1e84f3dd0314c0f7b2291e5b200ac8c7c3b925843392a35160018152f35b63f90670668352601cfd5b50503461036657817ffffffffffffffffffffffffffffffffffffffffffffffffffffffffffffffffc360112610366576020906114306122e1565b5091346106ae57807ffffffffffffffffffffffffffffffffffffffffffffffffffffffffffffffffc3601126106ae576020825180947f313ce5670000000000000000000000000000000000000000000000000000000082528173ffffffffffffffffffffffffffffffffffffffff7f0000000000000000000000000000000000000000000000000000000000000000165afa928315611654578193611613575b60208460ff855191168152f35b9092506020813d821161164c575b8161162e60209383611bce565b8101031261025757519160ff831683036106ae575060ff6020611606565b3d9150611621565b509051903d90823e3d90fd5b5091346106ae5760607ffffffffffffffffffffffffffffffffffffffffffffffffffffffffffffffffc3601126106ae5773ffffffffffffffffffffffffffffffffffffffff83358181169291838203610257576024359081168103610257576044359160601b92602096338852600c94637f5e9f20811786526034862080547fffffffffffffffffffffffffffffffffffffffffffffffffffffffffffffffff8103611762575b50506387a211a2178552878520908154908186116108a1575084900390555284822081815401905584525160601c907fddf252ad1be2c89b69c2b068fc378daa952ba7f163c4a11628f55a4df523b3ef8480a35160018152f35b8087116117795786900390556387a211a238611708565b836313be252b8652601cfd5b509190346103665760207ffffffffffffffffffffffffffffffffffffffffffffffffffffffffffffffffc3601126103665773ffffffffffffffffffffffffffffffffffffffff90833582811691828203610d5c5784549360ff8516156118b2577fffffffffffffffffffffffffffffffffffffffffffffffffffffffffffffff008095168655611814612144565b7f000000000000000000000000000000000000000000000000000000000000000016831461188a57600194955061185761184e308461251a565b809333906124d1565b519081527f6d25be279134f4ecaa4770aff0c3d916d9e7c5ef37b65ed95dbdba411f5d54d560203392a382541617815580f35b8590517fb5d8f391000000000000000000000000000000000000000000000000000000008152fd5b8682517f37ed32e8000000000000000000000000000000000000000000000000000000008152fd5b50503461036657817ffffffffffffffffffffffffffffffffffffffffffffffffffffffffffffffffc360112610366576020906805345cdf77eb68f44c549051908152f35b503461025757817ffffffffffffffffffffffffffffffffffffffffffffffffffffffffffffffffc360112610257573573ffffffffffffffffffffffffffffffffffffffff811681036102575791602092602435908452637f5e9f20600c52338252806034600c20558152602c5160601c907f8c5be1e5ebec7d5bd14f71427d1e84f3dd0314c0f7b2291e5b200ac8c7c3b925843392a35160018152f35b50503461036657817ffffffffffffffffffffffffffffffffffffffffffffffffffffffffffffffffc36011261036657610cd4906119f9611c78565b905191829182611b84565b5091346106ae57602092837ffffffffffffffffffffffffffffffffffffffffffffffffffffffffffffffffc3601126103665773ffffffffffffffffffffffffffffffffffffffff813581811690818103610d5c579086916387a211a2600c5285526024611a89611a8184600c2054611a7b611cbc565b906123c1565b611a7b611d03565b94875194859384927f7d6af0790000000000000000000000000000000000000000000000000000000084528301527f0000000000000000000000000000000000000000000000000000000000000000165afa8015611b57578390611b28575b611b029150611afc60025460035490611f5c565b9061240a565b9080611b115750509051908152f35b600154611b229350610f36916123c1565b9061089b565b508481813d8311611b50575b611b3e8183611bce565b8101031261025757611b029051611ae8565b503d611b34565b84513d85823e3d90fd5b60005b838110611b745750506000910152565b8181015183820152602001611b64565b7fffffffffffffffffffffffffffffffffffffffffffffffffffffffffffffffe0601f60409360208452611bc78151809281602088015260208888019101611b61565b0116010190565b90601f7fffffffffffffffffffffffffffffffffffffffffffffffffffffffffffffffe0910116810190811067ffffffffffffffff821117611c0f57604052565b7f4e487b7100000000000000000000000000000000000000000000000000000000600052604160045260246000fd5b67ffffffffffffffff8111611c0f57601f017fffffffffffffffffffffffffffffffffffffffffffffffffffffffffffffffe01660200190565b611c826012611c3e565b90611c906040519283611bce565b601282527f4379676e75733a20436f6c6c61746572616c00000000000000000000000000006020830152565b6805345cdf77eb68f44c5460009080611cdd575050670de0b6b3a764000090565b73ffffffffffffffffffffffffffffffffffffffff611d00925460081c1661244a565b90565b604051907f17e5a1a100000000000000000000000000000000000000000000000000000000825260208260248173ffffffffffffffffffffffffffffffffffffffff807f00000000000000000000000000000000000000000000000000000000000000001660048301527f0000000000000000000000000000000000000000000000000000000000000000165afa918215611e0657600092611dd3575b508115611da957565b60046040517fb0d5a772000000000000000000000000000000000000000000000000000000008152fd5b90916020823d8211611dfe575b81611ded60209383611bce565b810103126106ae5750519038611da0565b3d9150611de0565b6040513d6000823e3d90fd5b91908203918211611e1f57565b7f4e487b7100000000000000000000000000000000000000000000000000000000600052601160045260246000fd5b9190916387a211a2600c526000928184526020600c2054808211611f5757611e86611e7e60249493602093611e12565b611a7b611cbc565b91604051938480927f7d6af07900000000000000000000000000000000000000000000000000000000825273ffffffffffffffffffffffffffffffffffffffff80911660048301527f0000000000000000000000000000000000000000000000000000000000000000165afa918215611f4c578492611f12575b50611f0c929350611f69565b90501590565b9091506020813d8211611f44575b81611f2d60209383611bce565b81010312610d5857611f0c92935051908392611f00565b3d9150611f20565b6040513d86823e3d90fd5b505050565b91908201809211611e1f57565b611f78611f8191611a7b611d03565b600154906123c1565b908015611fb257611f9b90611afc60025460035490611f5c565b90818110611faa570390600090565b600092910390565b50611fc690610f3660025460035490611f5c565b90600090565b73ffffffffffffffffffffffffffffffffffffffff929190838116806120165760046040517fdcf58afa000000000000000000000000000000000000000000000000000000008152fd5b30811461211a577fffffffffffffffffffffffffffffffffffffffffffffffffffffffffffffffff8314612071575b5061206d9293506387a211a2600c526000526120686020600c2054611a7b611cbc565b611f69565b9091565b60209192506024604051809681937f7d6af07900000000000000000000000000000000000000000000000000000000835260048301527f0000000000000000000000000000000000000000000000000000000000000000165afa928315611e06576000936120e7575b509091829161206d612045565b6020813d8211612112575b816120ff60209383611bce565b81010312610d585751925061206d6120da565b3d91506120f2565b60046040517fbf8c13af000000000000000000000000000000000000000000000000000000008152fd5b6040517ff851a44000000000000000000000000000000000000000000000000000000000815273ffffffffffffffffffffffffffffffffffffffff90602081600481857f0000000000000000000000000000000000000000000000000000000000000000165afa908115611e06576000916121ee575b501633036121c457565b60046040517f63ac75a2000000000000000000000000000000000000000000000000000000008152fd5b6020813d8211612220575b8161220660209383611bce565b8101031261036657519082821682036106ae5750386121ba565b3d91506121f9565b7f3145c2b643834867f2c0a8cac8a48218307687911615c0ed01412a09dd163b66602061227d612278307f000000000000000000000000000000000000000000000000000000000000000061251a565b61248d565b6000547fffffffffffffffffffffff0000000000000000000000000000000000000000ff74ffffffffffffffffffffffffffffffffffffffff008360081b1691161760005573ffffffffffffffffffffffffffffffffffffffff60405191168152a1565b60a06040516122ee611c78565b602081519101207f8b73c3c69bb8fe3d512ecc4cf759cc79239f7b179b0ffacaa9a75d522b39400f825260208201527fc89efdaa54c0f20c7adf612882df0950f5a951637e0307cdcb4c672f298b8bc660408201524660608201523060808201522090565b6805345cdf77eb68f44c8054908382019182106123b357556387a211a2600c526000526020600c20818154019055602052600c5160601c60007fddf252ad1be2c89b69c2b068fc378daa952ba7f163c4a11628f55a4df523b3ef602080a3565b63e5cfe9576000526004601cfd5b90807fffffffffffffffffffffffffffffffffffffffffffffffffffffffffffffffff04821181026123fc57670de0b6b3a764000091020490565b63bac65e5b6000526004601cfd5b817fffffffffffffffffffffffffffffffffffffffffffffffffffffffffffffffff04811182026123fc5702670de0b6b3a7640000808204910615150190565b670de0b6b3a7640000907812725dd1d243aba0e75fe645cc4873f9e65afe688c928e1f21811182021583021561247f57020490565b637c5f487d6000526004601cfd5b740100000000000000000000000000000000000000008110156124c35773ffffffffffffffffffffffffffffffffffffffff1690565b6335278d126000526004601cfd5b60109260209260145260345260446000938480936fa9059cbb00000000000000000000000082525af13d15600183511417161561250d57603452565b6390b8ec1890526004601cfd5b602460106020939284936014526f70a082310000000000000000000000006000525afa601f3d1116602051029056fea164736f6c6343000811000a",
  "linkReferences": {},
  "deployedLinkReferences": {}
}