{
  "_format": "hh-sol-artifact-1",
  "contractName": "CygnusCollateralModel",
  "sourceName": "contracts/cygnus-core/CygnusCollateralModel.sol",
  "abi": [
    {
      "inputs": [
        {
          "internalType": "address",
          "name": "sender",
          "type": "address"
        },
        {
          "internalType": "address",
          "name": "origin",
          "type": "address"
        }
      ],
      "name": "CygnusCollateralChef__OnlyEOAAllowed",
      "type": "error"
    },
    {
      "inputs": [
        {
          "internalType": "address",
          "name": "tokenReward",
          "type": "address"
        }
      ],
      "name": "CygnusCollateralChef__VoidAlreadyInitialized",
      "type": "error"
    },
    {
      "inputs": [
        {
          "internalType": "address",
          "name": "currentOracle",
          "type": "address"
        },
        {
          "internalType": "address",
          "name": "newOracle",
          "type": "address"
        }
      ],
      "name": "CygnusCollateralControl__CygnusOracleAlreadySet",
      "type": "error"
    },
    {
      "inputs": [
        {
          "internalType": "uint256",
          "name": "minRange",
          "type": "uint256"
        },
        {
          "internalType": "uint256",
          "name": "maxRange",
          "type": "uint256"
        },
        {
          "internalType": "uint256",
          "name": "value",
          "type": "uint256"
        }
      ],
      "name": "CygnusCollateralControl__ParameterNotInRange",
      "type": "error"
    },
    {
      "inputs": [],
      "name": "CygnusCollateralControl__VoidCantBeZero",
      "type": "error"
    },
    {
      "inputs": [
        {
          "internalType": "address",
          "name": "invalidBorrowable",
          "type": "address"
        },
        {
          "internalType": "address",
          "name": "validBorrowable",
          "type": "address"
        }
      ],
      "name": "CygnusCollateralModel__BorrowableInvalid",
      "type": "error"
    },
    {
      "inputs": [
        {
          "internalType": "address",
          "name": "sender",
          "type": "address"
        },
        {
          "internalType": "address",
          "name": "origin",
          "type": "address"
        }
      ],
      "name": "CygnusCollateralModel__BorrowerCantBeAddressZero",
      "type": "error"
    },
    {
      "inputs": [
        {
          "internalType": "address",
          "name": "sender",
          "type": "address"
        },
        {
          "internalType": "address",
          "name": "origin",
          "type": "address"
        }
      ],
      "name": "CygnusCollateralVoid__NotNativeTokenSender",
      "type": "error"
    },
    {
      "inputs": [
        {
          "internalType": "uint256",
          "name": "",
          "type": "uint256"
        }
      ],
      "name": "CygnusTerminal__CantMintZero",
      "type": "error"
    },
    {
      "inputs": [
        {
          "internalType": "uint256",
          "name": "",
          "type": "uint256"
        }
      ],
      "name": "CygnusTerminal__CantRedeemZero",
      "type": "error"
    },
    {
      "inputs": [
        {
          "internalType": "address",
          "name": "caller",
          "type": "address"
        },
        {
          "internalType": "address",
          "name": "factoryAdmin",
          "type": "address"
        }
      ],
      "name": "CygnusTerminal__MsgSenderNotAdmin",
      "type": "error"
    },
    {
      "inputs": [
        {
          "internalType": "address",
          "name": "",
          "type": "address"
        }
      ],
      "name": "CygnusTerminal__MsgSenderNotFactory",
      "type": "error"
    },
    {
      "inputs": [
        {
          "internalType": "uint256",
          "name": "invalidAmount",
          "type": "uint256"
        },
        {
          "internalType": "uint256",
          "name": "contractBalance",
          "type": "uint256"
        }
      ],
      "name": "CygnusTerminal__RedeemAmountInvalid",
      "type": "error"
    },
    {
      "inputs": [
        {
          "internalType": "uint8",
          "name": "v",
          "type": "uint8"
        },
        {
          "internalType": "bytes32",
          "name": "r",
          "type": "bytes32"
        },
        {
          "internalType": "bytes32",
          "name": "s",
          "type": "bytes32"
        }
      ],
      "name": "Erc20Permit__InvalidSignature",
      "type": "error"
    },
    {
      "inputs": [],
      "name": "Erc20Permit__OwnerZeroAddress",
      "type": "error"
    },
    {
      "inputs": [
        {
          "internalType": "uint256",
          "name": "deadline",
          "type": "uint256"
        }
      ],
      "name": "Erc20Permit__PermitExpired",
      "type": "error"
    },
    {
      "inputs": [],
      "name": "Erc20Permit__RecoveredOwnerZeroAddress",
      "type": "error"
    },
    {
      "inputs": [],
      "name": "Erc20Permit__SpenderZeroAddress",
      "type": "error"
    },
    {
      "inputs": [],
      "name": "Erc20__ApproveOwnerZeroAddress",
      "type": "error"
    },
    {
      "inputs": [],
      "name": "Erc20__ApproveSpenderZeroAddress",
      "type": "error"
    },
    {
      "inputs": [
        {
          "internalType": "uint256",
          "name": "accountBalance",
          "type": "uint256"
        },
        {
          "internalType": "uint256",
          "name": "burnAmount",
          "type": "uint256"
        }
      ],
      "name": "Erc20__BurnUnderflow",
      "type": "error"
    },
    {
      "inputs": [],
      "name": "Erc20__BurnZeroAddress",
      "type": "error"
    },
    {
      "inputs": [
        {
          "internalType": "uint256",
          "name": "allowance",
          "type": "uint256"
        },
        {
          "internalType": "uint256",
          "name": "amount",
          "type": "uint256"
        }
      ],
      "name": "Erc20__InsufficientAllowance",
      "type": "error"
    },
    {
      "inputs": [
        {
          "internalType": "uint256",
          "name": "senderBalance",
          "type": "uint256"
        },
        {
          "internalType": "uint256",
          "name": "amount",
          "type": "uint256"
        }
      ],
      "name": "Erc20__InsufficientBalance",
      "type": "error"
    },
    {
      "inputs": [],
      "name": "Erc20__MintZeroAddress",
      "type": "error"
    },
    {
      "inputs": [],
      "name": "Erc20__TransferRecipientZeroAddress",
      "type": "error"
    },
    {
      "inputs": [],
      "name": "Erc20__TransferSenderZeroAddress",
      "type": "error"
    },
    {
      "inputs": [
        {
          "internalType": "uint256",
          "name": "prod1",
          "type": "uint256"
        }
      ],
      "name": "PRBMath__MulDivFixedPointOverflow",
      "type": "error"
    },
    {
      "inputs": [
        {
          "internalType": "uint256",
          "name": "prod1",
          "type": "uint256"
        },
        {
          "internalType": "uint256",
          "name": "denominator",
          "type": "uint256"
        }
      ],
      "name": "PRBMath__MulDivOverflow",
      "type": "error"
    },
    {
      "inputs": [],
      "name": "ReentrantCall",
      "type": "error"
    },
    {
      "inputs": [
        {
          "internalType": "address",
          "name": "target",
          "type": "address"
        }
      ],
      "name": "SafeErc20__CallToNonContract",
      "type": "error"
    },
    {
      "inputs": [],
      "name": "SafeErc20__NoReturnData",
      "type": "error"
    },
    {
      "anonymous": false,
      "inputs": [
        {
          "indexed": true,
          "internalType": "address",
          "name": "owner",
          "type": "address"
        },
        {
          "indexed": true,
          "internalType": "address",
          "name": "spender",
          "type": "address"
        },
        {
          "indexed": false,
          "internalType": "uint256",
          "name": "amount",
          "type": "uint256"
        }
      ],
      "name": "Approval",
      "type": "event"
    },
    {
      "anonymous": false,
      "inputs": [
        {
          "indexed": false,
          "internalType": "contract IDexRouter02",
          "name": "_dexRouter",
          "type": "address"
        },
        {
          "indexed": false,
          "internalType": "contract IMiniChef",
          "name": "_rewarder",
          "type": "address"
        },
        {
          "indexed": false,
          "internalType": "address",
          "name": "_rewardsToken",
          "type": "address"
        },
        {
          "indexed": false,
          "internalType": "uint256",
          "name": "_pid",
          "type": "uint256"
        },
        {
          "indexed": false,
          "internalType": "uint256",
          "name": "_swapFeeFactor",
          "type": "uint256"
        }
      ],
      "name": "ChargeVoid",
      "type": "event"
    },
    {
      "anonymous": false,
      "inputs": [
        {
          "indexed": true,
          "internalType": "address",
          "name": "sender",
          "type": "address"
        },
        {
          "indexed": true,
          "internalType": "address",
          "name": "minter",
          "type": "address"
        },
        {
          "indexed": false,
          "internalType": "uint256",
          "name": "mintAmount",
          "type": "uint256"
        },
        {
          "indexed": false,
          "internalType": "uint256",
          "name": "poolTokens",
          "type": "uint256"
        }
      ],
      "name": "Mint",
      "type": "event"
    },
    {
      "anonymous": false,
      "inputs": [
        {
          "indexed": false,
          "internalType": "address",
          "name": "oldVoid",
          "type": "address"
        },
        {
          "indexed": false,
          "internalType": "address",
          "name": "newVoid",
          "type": "address"
        }
      ],
      "name": "NewCygnusVoid",
      "type": "event"
    },
    {
      "anonymous": false,
      "inputs": [
        {
          "indexed": false,
          "internalType": "uint256",
          "name": "oldDebtRatio",
          "type": "uint256"
        },
        {
          "indexed": false,
          "internalType": "uint256",
          "name": "newDebtRatio",
          "type": "uint256"
        }
      ],
      "name": "NewDebtRatio",
      "type": "event"
    },
    {
      "anonymous": false,
      "inputs": [
        {
          "indexed": false,
          "internalType": "uint256",
          "name": "oldLiquidationFee",
          "type": "uint256"
        },
        {
          "indexed": false,
          "internalType": "uint256",
          "name": "newLiquidationFee",
          "type": "uint256"
        }
      ],
      "name": "NewLiquidationFee",
      "type": "event"
    },
    {
      "anonymous": false,
      "inputs": [
        {
          "indexed": false,
          "internalType": "uint256",
          "name": "oldLiquidationIncentive",
          "type": "uint256"
        },
        {
          "indexed": false,
          "internalType": "uint256",
          "name": "newLiquidationIncentive",
          "type": "uint256"
        }
      ],
      "name": "NewLiquidationIncentive",
      "type": "event"
    },
    {
      "anonymous": false,
      "inputs": [
        {
          "indexed": false,
          "internalType": "contract IChainlinkNebulaOracle",
          "name": "oldPriceOracle",
          "type": "address"
        },
        {
          "indexed": false,
          "internalType": "contract IChainlinkNebulaOracle",
          "name": "newPriceOracle",
          "type": "address"
        }
      ],
      "name": "NewPriceOracle",
      "type": "event"
    },
    {
      "anonymous": false,
      "inputs": [
        {
          "indexed": true,
          "internalType": "address",
          "name": "shuttle",
          "type": "address"
        },
        {
          "indexed": false,
          "internalType": "address",
          "name": "reinvestor",
          "type": "address"
        },
        {
          "indexed": false,
          "internalType": "uint256",
          "name": "rewardBalance",
          "type": "uint256"
        },
        {
          "indexed": false,
          "internalType": "uint256",
          "name": "reinvestReward",
          "type": "uint256"
        }
      ],
      "name": "RechargeVoid",
      "type": "event"
    },
    {
      "anonymous": false,
      "inputs": [
        {
          "indexed": true,
          "internalType": "address",
          "name": "sender",
          "type": "address"
        },
        {
          "indexed": true,
          "internalType": "address",
          "name": "redeemer",
          "type": "address"
        },
        {
          "indexed": false,
          "internalType": "uint256",
          "name": "redeemAmount",
          "type": "uint256"
        },
        {
          "indexed": false,
          "internalType": "uint256",
          "name": "poolTokens",
          "type": "uint256"
        }
      ],
      "name": "Redeem",
      "type": "event"
    },
    {
      "anonymous": false,
      "inputs": [
        {
          "indexed": false,
          "internalType": "uint256",
          "name": "totalBalance",
          "type": "uint256"
        }
      ],
      "name": "Sync",
      "type": "event"
    },
    {
      "anonymous": false,
      "inputs": [
        {
          "indexed": true,
          "internalType": "address",
          "name": "from",
          "type": "address"
        },
        {
          "indexed": true,
          "internalType": "address",
          "name": "to",
          "type": "address"
        },
        {
          "indexed": false,
          "internalType": "uint256",
          "name": "amount",
          "type": "uint256"
        }
      ],
      "name": "Transfer",
      "type": "event"
    },
    {
      "inputs": [],
      "name": "DEBT_RATIO_MAX",
      "outputs": [
        {
          "internalType": "uint256",
          "name": "",
          "type": "uint256"
        }
      ],
      "stateMutability": "view",
      "type": "function"
    },
    {
      "inputs": [],
      "name": "DEBT_RATIO_MIN",
      "outputs": [
        {
          "internalType": "uint256",
          "name": "",
          "type": "uint256"
        }
      ],
      "stateMutability": "view",
      "type": "function"
    },
    {
      "inputs": [],
      "name": "DOMAIN_SEPARATOR",
      "outputs": [
        {
          "internalType": "bytes32",
          "name": "",
          "type": "bytes32"
        }
      ],
      "stateMutability": "view",
      "type": "function"
    },
    {
      "inputs": [],
      "name": "LIQUIDATION_FEE_MAX",
      "outputs": [
        {
          "internalType": "uint256",
          "name": "",
          "type": "uint256"
        }
      ],
      "stateMutability": "view",
      "type": "function"
    },
    {
      "inputs": [],
      "name": "LIQUIDATION_INCENTIVE_MAX",
      "outputs": [
        {
          "internalType": "uint256",
          "name": "",
          "type": "uint256"
        }
      ],
      "stateMutability": "view",
      "type": "function"
    },
    {
      "inputs": [],
      "name": "LIQUIDATION_INCENTIVE_MIN",
      "outputs": [
        {
          "internalType": "uint256",
          "name": "",
          "type": "uint256"
        }
      ],
      "stateMutability": "view",
      "type": "function"
    },
    {
      "inputs": [],
      "name": "PERMIT_TYPEHASH",
      "outputs": [
        {
          "internalType": "bytes32",
          "name": "",
          "type": "bytes32"
        }
      ],
      "stateMutability": "view",
      "type": "function"
    },
    {
      "inputs": [],
      "name": "REINVEST_REWARD",
      "outputs": [
        {
          "internalType": "uint256",
          "name": "",
          "type": "uint256"
        }
      ],
      "stateMutability": "view",
      "type": "function"
    },
    {
      "inputs": [
        {
          "internalType": "address",
          "name": "owner",
          "type": "address"
        },
        {
          "internalType": "address",
          "name": "spender",
          "type": "address"
        }
      ],
      "name": "allowance",
      "outputs": [
        {
          "internalType": "uint256",
          "name": "",
          "type": "uint256"
        }
      ],
      "stateMutability": "view",
      "type": "function"
    },
    {
      "inputs": [
        {
          "internalType": "address",
          "name": "spender",
          "type": "address"
        },
        {
          "internalType": "uint256",
          "name": "amount",
          "type": "uint256"
        }
      ],
      "name": "approve",
      "outputs": [
        {
          "internalType": "bool",
          "name": "",
          "type": "bool"
        }
      ],
      "stateMutability": "nonpayable",
      "type": "function"
    },
    {
      "inputs": [
        {
          "internalType": "address",
          "name": "account",
          "type": "address"
        }
      ],
      "name": "balanceOf",
      "outputs": [
        {
          "internalType": "uint256",
          "name": "",
          "type": "uint256"
        }
      ],
      "stateMutability": "view",
      "type": "function"
    },
    {
      "inputs": [
        {
          "internalType": "address",
          "name": "borrower",
          "type": "address"
        },
        {
          "internalType": "address",
          "name": "borrowableToken",
          "type": "address"
        },
        {
          "internalType": "uint256",
          "name": "accountBorrows",
          "type": "uint256"
        }
      ],
      "name": "canBorrow_J2u",
      "outputs": [
        {
          "internalType": "bool",
          "name": "",
          "type": "bool"
        }
      ],
      "stateMutability": "view",
      "type": "function"
    },
    {
      "inputs": [],
      "name": "chainId",
      "outputs": [
        {
          "internalType": "uint256",
          "name": "",
          "type": "uint256"
        }
      ],
      "stateMutability": "view",
      "type": "function"
    },
    {
      "inputs": [],
      "name": "cygnusDai",
      "outputs": [
        {
          "internalType": "address",
          "name": "",
          "type": "address"
        }
      ],
      "stateMutability": "view",
      "type": "function"
    },
    {
      "inputs": [],
      "name": "cygnusNebulaOracle",
      "outputs": [
        {
          "internalType": "contract IChainlinkNebulaOracle",
          "name": "",
          "type": "address"
        }
      ],
      "stateMutability": "view",
      "type": "function"
    },
    {
      "inputs": [],
      "name": "debtRatio",
      "outputs": [
        {
          "internalType": "uint256",
          "name": "",
          "type": "uint256"
        }
      ],
      "stateMutability": "view",
      "type": "function"
    },
    {
      "inputs": [],
      "name": "decimals",
      "outputs": [
        {
          "internalType": "uint8",
          "name": "",
          "type": "uint8"
        }
      ],
      "stateMutability": "view",
      "type": "function"
    },
    {
      "inputs": [
        {
          "internalType": "address",
          "name": "spender",
          "type": "address"
        },
        {
          "internalType": "uint256",
          "name": "subtractedAmount",
          "type": "uint256"
        }
      ],
      "name": "decreaseAllowance",
      "outputs": [
        {
          "internalType": "bool",
          "name": "",
          "type": "bool"
        }
      ],
      "stateMutability": "nonpayable",
      "type": "function"
    },
    {
      "inputs": [],
      "name": "exchangeRate",
      "outputs": [
        {
          "internalType": "uint256",
          "name": "",
          "type": "uint256"
        }
      ],
      "stateMutability": "view",
      "type": "function"
    },
    {
      "inputs": [
        {
          "internalType": "address",
          "name": "borrower",
          "type": "address"
        }
      ],
      "name": "getAccountLiquidity",
      "outputs": [
        {
          "internalType": "uint256",
          "name": "liquidity",
          "type": "uint256"
        },
        {
          "internalType": "uint256",
          "name": "shortfall",
          "type": "uint256"
        }
      ],
      "stateMutability": "view",
      "type": "function"
    },
    {
      "inputs": [],
      "name": "getCygnusVoid",
      "outputs": [
        {
          "internalType": "contract IMiniChef",
          "name": "rewarder_",
          "type": "address"
        },
        {
          "internalType": "uint256",
          "name": "pid_",
          "type": "uint256"
        },
        {
          "internalType": "bool",
          "name": "voidActivated_",
          "type": "bool"
        },
        {
          "internalType": "address",
          "name": "rewardsToken_",
          "type": "address"
        },
        {
          "internalType": "uint256",
          "name": "dexSwapFee_",
          "type": "uint256"
        },
        {
          "internalType": "contract IDexRouter02",
          "name": "dexRouter_",
          "type": "address"
        }
      ],
      "stateMutability": "view",
      "type": "function"
    },
    {
      "inputs": [
        {
          "internalType": "address",
          "name": "borrower",
          "type": "address"
        }
      ],
      "name": "getDebtRatio",
      "outputs": [
        {
          "internalType": "uint256",
          "name": "",
          "type": "uint256"
        }
      ],
      "stateMutability": "view",
      "type": "function"
    },
    {
      "inputs": [],
      "name": "getLPTokenPrice",
      "outputs": [
        {
          "internalType": "uint256",
          "name": "",
          "type": "uint256"
        }
      ],
      "stateMutability": "view",
      "type": "function"
    },
    {
      "inputs": [],
      "name": "hangar18",
      "outputs": [
        {
          "internalType": "address",
          "name": "",
          "type": "address"
        }
      ],
      "stateMutability": "view",
      "type": "function"
    },
    {
      "inputs": [
        {
          "internalType": "address",
          "name": "spender",
          "type": "address"
        },
        {
          "internalType": "uint256",
          "name": "addedAmount",
          "type": "uint256"
        }
      ],
      "name": "increaseAllowance",
      "outputs": [
        {
          "internalType": "bool",
          "name": "",
          "type": "bool"
        }
      ],
      "stateMutability": "nonpayable",
      "type": "function"
    },
    {
      "inputs": [
        {
          "internalType": "contract IDexRouter02",
          "name": "dexRouterVoid",
          "type": "address"
        },
        {
          "internalType": "contract IMiniChef",
          "name": "rewarderVoid",
          "type": "address"
        },
        {
          "internalType": "address",
          "name": "rewardsTokenVoid",
          "type": "address"
        },
        {
          "internalType": "uint256",
          "name": "pidVoid",
          "type": "uint256"
        },
        {
          "internalType": "uint256",
          "name": "dexSwapFeeVoid",
          "type": "uint256"
        }
      ],
      "name": "initializeVoid",
      "outputs": [],
      "stateMutability": "nonpayable",
      "type": "function"
    },
    {
      "inputs": [],
      "name": "liquidationFee",
      "outputs": [
        {
          "internalType": "uint256",
          "name": "",
          "type": "uint256"
        }
      ],
      "stateMutability": "view",
      "type": "function"
    },
    {
      "inputs": [],
      "name": "liquidationIncentive",
      "outputs": [
        {
          "internalType": "uint256",
          "name": "",
          "type": "uint256"
        }
      ],
      "stateMutability": "view",
      "type": "function"
    },
    {
      "inputs": [
        {
          "internalType": "address",
          "name": "minter",
          "type": "address"
        }
      ],
      "name": "mint",
      "outputs": [
        {
          "internalType": "uint256",
          "name": "cygnusMintTokens",
          "type": "uint256"
        }
      ],
      "stateMutability": "nonpayable",
      "type": "function"
    },
    {
      "inputs": [],
      "name": "name",
      "outputs": [
        {
          "internalType": "string",
          "name": "",
          "type": "string"
        }
      ],
      "stateMutability": "view",
      "type": "function"
    },
    {
      "inputs": [
        {
          "internalType": "address",
          "name": "",
          "type": "address"
        }
      ],
      "name": "nonces",
      "outputs": [
        {
          "internalType": "uint256",
          "name": "",
          "type": "uint256"
        }
      ],
      "stateMutability": "view",
      "type": "function"
    },
    {
      "inputs": [
        {
          "internalType": "address",
          "name": "owner",
          "type": "address"
        },
        {
          "internalType": "address",
          "name": "spender",
          "type": "address"
        },
        {
          "internalType": "uint256",
          "name": "value",
          "type": "uint256"
        },
        {
          "internalType": "uint256",
          "name": "deadline",
          "type": "uint256"
        },
        {
          "internalType": "uint8",
          "name": "v",
          "type": "uint8"
        },
        {
          "internalType": "bytes32",
          "name": "r",
          "type": "bytes32"
        },
        {
          "internalType": "bytes32",
          "name": "s",
          "type": "bytes32"
        }
      ],
      "name": "permit",
      "outputs": [],
      "stateMutability": "nonpayable",
      "type": "function"
    },
    {
      "inputs": [
        {
          "internalType": "address",
          "name": "holder",
          "type": "address"
        }
      ],
      "name": "redeem",
      "outputs": [
        {
          "internalType": "uint256",
          "name": "redeemAmount",
          "type": "uint256"
        }
      ],
      "stateMutability": "nonpayable",
      "type": "function"
    },
    {
      "inputs": [],
      "name": "reinvestRewards",
      "outputs": [],
      "stateMutability": "nonpayable",
      "type": "function"
    },
    {
      "inputs": [
        {
          "internalType": "uint256",
          "name": "newDebtRatio",
          "type": "uint256"
        }
      ],
      "name": "setDebtRatio",
      "outputs": [],
      "stateMutability": "nonpayable",
      "type": "function"
    },
    {
      "inputs": [
        {
          "internalType": "uint256",
          "name": "newLiquidationFee",
          "type": "uint256"
        }
      ],
      "name": "setLiquidationFee",
      "outputs": [],
      "stateMutability": "nonpayable",
      "type": "function"
    },
    {
      "inputs": [
        {
          "internalType": "uint256",
          "name": "newLiquidationIncentive",
          "type": "uint256"
        }
      ],
      "name": "setLiquidationIncentive",
      "outputs": [],
      "stateMutability": "nonpayable",
      "type": "function"
    },
    {
      "inputs": [],
      "name": "setNebulaOracle",
      "outputs": [],
      "stateMutability": "nonpayable",
      "type": "function"
    },
    {
      "inputs": [
        {
          "internalType": "address",
          "name": "recipient",
          "type": "address"
        }
      ],
      "name": "skim",
      "outputs": [],
      "stateMutability": "nonpayable",
      "type": "function"
    },
    {
      "inputs": [],
      "name": "symbol",
      "outputs": [
        {
          "internalType": "string",
          "name": "",
          "type": "string"
        }
      ],
      "stateMutability": "view",
      "type": "function"
    },
    {
      "inputs": [],
      "name": "sync",
      "outputs": [],
      "stateMutability": "nonpayable",
      "type": "function"
    },
    {
      "inputs": [],
      "name": "totalBalance",
      "outputs": [
        {
          "internalType": "uint256",
          "name": "",
          "type": "uint256"
        }
      ],
      "stateMutability": "view",
      "type": "function"
    },
    {
      "inputs": [],
      "name": "totalSupply",
      "outputs": [
        {
          "internalType": "uint256",
          "name": "",
          "type": "uint256"
        }
      ],
      "stateMutability": "view",
      "type": "function"
    },
    {
      "inputs": [
        {
          "internalType": "address",
          "name": "recipient",
          "type": "address"
        },
        {
          "internalType": "uint256",
          "name": "amount",
          "type": "uint256"
        }
      ],
      "name": "transfer",
      "outputs": [
        {
          "internalType": "bool",
          "name": "",
          "type": "bool"
        }
      ],
      "stateMutability": "nonpayable",
      "type": "function"
    },
    {
      "inputs": [
        {
          "internalType": "address",
          "name": "sender",
          "type": "address"
        },
        {
          "internalType": "address",
          "name": "recipient",
          "type": "address"
        },
        {
          "internalType": "uint256",
          "name": "amount",
          "type": "uint256"
        }
      ],
      "name": "transferFrom",
      "outputs": [
        {
          "internalType": "bool",
          "name": "",
          "type": "bool"
        }
      ],
      "stateMutability": "nonpayable",
      "type": "function"
    },
    {
      "inputs": [],
      "name": "underlying",
      "outputs": [
        {
          "internalType": "address",
          "name": "",
          "type": "address"
        }
      ],
      "stateMutability": "view",
      "type": "function"
    },
    {
      "inputs": [],
      "name": "version",
      "outputs": [
        {
          "internalType": "string",
          "name": "",
          "type": "string"
        }
      ],
      "stateMutability": "view",
      "type": "function"
    },
    {
      "stateMutability": "payable",
      "type": "receive"
    }
  ],
  "bytecode": "0x61014060405246600755670c7d713b49da0000600f55670e92596fd62900006010553480156200002e57600080fd5b5060408051808201825260128082527110de59db9d5cce8810dbdb1b185d195c985b60721b60208084019182528451808601909552600585526404379674c560dc1b908501526000805460ff191660019081179091558351939493859285928592859285928592620000a19290620006f1565b508151620000b7906002906020850190620006f1565b5060f81b7fff000000000000000000000000000000000000000000000000000000000000001660805250506040517f8b73c3c69bb8fe3d512ecc4cf759cc79239f7b179b0ffacaa9a75d522b39400f906200011590600190620008c4565b60408051918290038220828201825260018352603160f81b602093840152600754825193840194909452908201527fc89efdaa54c0f20c7adf612882df0950f5a951637e0307cdcb4c672f298b8bc6606082015260808101919091523060a082015260c00160408051601f19818403018152919052805160209091012060a05250620001a7945050620004dc92505050565b6001600160a01b031663c3bc64ea6040518163ffffffff1660e01b8152600401606060405180830381600087803b158015620001e257600080fd5b505af1158015620001f7573d6000803e3d6000fd5b505050506040513d601f19601f820116820180604052508101906200021d9190620007bd565b60601b6001600160601b03191660c052600c80546001600160a01b03199081166001600160a01b0393841617909155600d805490911692909116918217905560408051636c9adec960e11b8152905163d935bd9291600480820192602092909190829003018186803b1580156200029357600080fd5b505afa158015620002a8573d6000803e3d6000fd5b505050506040513d601f19601f82011682018060405250810190620002ce919062000797565b600e80546001600160a01b0319166001600160a01b03928316179055600c54620003059116620004e0602090811b6200201817901c565b80516200031b91600291602090910190620006f1565b506000600355600c5460408051630dfe168160e01b815290516001600160a01b0390921691630dfe168191600480820192602092909190829003018186803b1580156200036757600080fd5b505afa1580156200037c573d6000803e3d6000fd5b505050506040513d601f19601f82011682018060405250810190620003a2919062000797565b60601b6001600160601b03191661010052600c546040805163d21220a760e01b815290516001600160a01b039092169163d21220a791600480820192602092909190829003018186803b158015620003f957600080fd5b505afa1580156200040e573d6000803e3d6000fd5b505050506040513d601f19601f8201168201806040525081019062000434919062000797565b60601b6001600160601b03191661012052600d5460408051631c2eb17b60e31b815290516001600160a01b039092169163e1758bd891600480820192602092909190829003018186803b1580156200048b57600080fd5b505afa158015620004a0573d6000803e3d6000fd5b505050506040513d601f19601f82011682018060405250810190620004c6919062000797565b60601b6001600160601b03191660e05262000a58565b3390565b60606000826001600160a01b0316630dfe16816040518163ffffffff1660e01b815260040160206040518083038186803b1580156200051e57600080fd5b505afa15801562000533573d6000803e3d6000fd5b505050506040513d601f19601f8201168201806040525081019062000559919062000797565b6001600160a01b03166395d89b416040518163ffffffff1660e01b815260040160006040518083038186803b1580156200059257600080fd5b505afa158015620005a7573d6000803e3d6000fd5b505050506040513d6000823e601f3d908101601f19168201604052620005d1919081019062000810565b90506000836001600160a01b031663d21220a76040518163ffffffff1660e01b815260040160206040518083038186803b1580156200060f57600080fd5b505afa15801562000624573d6000803e3d6000fd5b505050506040513d601f19601f820116820180604052508101906200064a919062000797565b6001600160a01b03166395d89b416040518163ffffffff1660e01b815260040160006040518083038186803b1580156200068357600080fd5b505afa15801562000698573d6000803e3d6000fd5b505050506040513d6000823e601f3d908101601f19168201604052620006c2919081019062000810565b90508181604051602001620006d992919062000967565b60405160208183030381529060405292505050919050565b828054620006ff90620009ec565b90600052602060002090601f0160209004810192826200072357600085556200076e565b82601f106200073e57805160ff19168380011785556200076e565b828001600101855582156200076e579182015b828111156200076e57825182559160200191906001019062000751565b506200077c92915062000780565b5090565b5b808211156200077c576000815560010162000781565b600060208284031215620007a9578081fd5b8151620007b68162000a3f565b9392505050565b600080600060608486031215620007d2578182fd5b8351620007df8162000a3f565b6020850151909350620007f28162000a3f565b6040850151909250620008058162000a3f565b809150509250925092565b60006020828403121562000822578081fd5b81516001600160401b038082111562000839578283fd5b818401915084601f8301126200084d578283fd5b81518181111562000862576200086262000a29565b604051601f8201601f19908116603f011681019083821181831017156200088d576200088d62000a29565b81604052828152876020848701011115620008a6578586fd5b620008b9836020830160208801620009b9565b979650505050505050565b600080835482600182811c915080831680620008e157607f831692505b60208084108214156200090257634e487b7160e01b87526022600452602487fd5b8180156200091957600181146200092b5762000959565b60ff1986168952848901965062000959565b60008a815260209020885b86811015620009515781548b82015290850190830162000936565b505084890196505b509498975050505050505050565b65021bcb3a628160d51b8152600083516200098a816006850160208801620009b9565b602f60f81b6006918401918201528351620009ad816007840160208801620009b9565b01600701949350505050565b60005b83811015620009d6578181015183820152602001620009bc565b83811115620009e6576000848401525b50505050565b600181811c9082168062000a0157607f821691505b6020821081141562000a2357634e487b7160e01b600052602260045260246000fd5b50919050565b634e487b7160e01b600052604160045260246000fd5b6001600160a01b038116811462000a5557600080fd5b50565b60805160f81c60a05160c05160601c60e05160601c6101005160601c6101205160601c613d6e62000b74600039600081816116ac015281816117170152818161177f01528181611870015281816118fa01526119dc015260008181611674015281816116e4015281816117380152818161175e01528181611815015281816118cb0152818161191b01528181611965015281816119b90152611ab601526000818161029301528181610c27015281816117bb015281816117eb01528181611846015281816118a101528181611944015281816119890152612be80152600081816107e9015281816109f201528181610fc70152818161101801526126340152600081816105100152611d9b015260006104ae0152613d6e6000f3fe60806040526004361061028c5760003560e01c80637ecebe001161015a578063b5f4d38c116100c1578063d935bd921161007a578063d935bd92146108ae578063dd62ed3e146108ce578063e8a24e1d14610914578063eb6a887d14610934578063fef0bec814610954578063fff6cae91461097457600080fd5b8063b5f4d38c14610827578063bc25cf771461083c578063bc9bd12a1461085c578063cea55f5714610878578063cf85c8821461085c578063d505accf1461088e57600080fd5b8063a457c2d711610113578063a457c2d714610761578063a843108114610781578063a9059cbb146107a1578063ad7a672f146107c1578063adbb2597146107d7578063afc8276c1461080b57600080fd5b80637ecebe00146106bd5780638c765e94146106ea57806395a2251f1461070057806395d89b41146107205780639a8a059214610735578063a36a36301461074b57600080fd5b80633644e515116101fe57806358654e0f116101b757806358654e0f146105be5780635ec88c79146105de578063643211f2146106135780636a6278421461062f5780636f307dc31461064f57806370a082311461068757600080fd5b80633644e515146104fe57806339509351146105325780633ba0b9a914610552578063421f0fcc14610567578063513036221461057c57806354fd4d501461059157600080fd5b80631995bc1a116102505780631995bc1a146103c95780631c1981881461042d57806323b872dd1461044857806330adf81f14610468578063313ce5671461049c57806333fabfd1146104e257600080fd5b8063031a5c821461030c57806306fdde031461033f578063095ea7b31461036157806315b02cf51461039157806318160ddd146103b357600080fd5b36610307577f00000000000000000000000000000000000000000000000000000000000000006001600160a01b031663d0e30db0346040518263ffffffff1660e01b81526004016000604051808303818588803b1580156102ec57600080fd5b505af1158015610300573d6000803e3d6000fd5b5050505050005b600080fd5b34801561031857600080fd5b5061032c61032736600461366c565b610989565b6040519081526020015b60405180910390f35b34801561034b57600080fd5b50610354610ab4565b6040516103369190613b4a565b34801561036d57600080fd5b5061038161037c366004613791565b610b42565b6040519015158152602001610336565b34801561039d57600080fd5b506103b16103ac366004613934565b610b59565b005b3480156103bf57600080fd5b5061032c60035481565b3480156103d557600080fd5b50600854600954600a54601254601454601354604080516001600160a01b039788168152602081019690965260ff909416151593850193909352908416606084015260808301529190911660a082015260c001610336565b34801561043957600080fd5b5061032c6658d15e1762800081565b34801561045457600080fd5b506103816104633660046136dc565b610ce4565b34801561047457600080fd5b5061032c7f6e71edae12b1b97f4d1f60370fef10105fa2faae0126114a169c64845d6126c981565b3480156104a857600080fd5b506104d07f000000000000000000000000000000000000000000000000000000000000000081565b60405160ff9091168152602001610336565b3480156104ee57600080fd5b5061032c67016345785d8a000081565b34801561050a57600080fd5b5061032c7f000000000000000000000000000000000000000000000000000000000000000081565b34801561053e57600080fd5b5061038161054d366004613791565b610d5a565b34801561055e57600080fd5b5061032c610da2565b34801561057357600080fd5b506103b1610dd0565b34801561058857600080fd5b5061032c610f3a565b34801561059d57600080fd5b50610354604051806040016040528060018152602001603160f81b81525081565b3480156105ca57600080fd5b506103816105d93660046136dc565b610fc3565b3480156105ea57600080fd5b506105fe6105f936600461366c565b611085565b60408051928352602083019190915201610336565b34801561061f57600080fd5b5061032c6706f05b59d3b2000081565b34801561063b57600080fd5b5061032c61064a36600461366c565b61109d565b34801561065b57600080fd5b50600c5461066f906001600160a01b031681565b6040516001600160a01b039091168152602001610336565b34801561069357600080fd5b5061032c6106a236600461366c565b6001600160a01b031660009081526004602052604090205490565b3480156106c957600080fd5b5061032c6106d836600461366c565b60066020526000908152604090205481565b3480156106f657600080fd5b5061032c60105481565b34801561070c57600080fd5b5061032c61071b36600461366c565b611397565b34801561072c57600080fd5b50610354611519565b34801561074157600080fd5b5061032c60075481565b34801561075757600080fd5b5061032c60115481565b34801561076d57600080fd5b5061038161077c366004613791565b611526565b34801561078d57600080fd5b506103b161079c366004613a60565b611557565b3480156107ad57600080fd5b506103816107bc366004613791565b6115e5565b3480156107cd57600080fd5b5061032c600b5481565b3480156107e357600080fd5b5061066f7f000000000000000000000000000000000000000000000000000000000000000081565b34801561081757600080fd5b5061032c6710a741a46278000081565b34801561083357600080fd5b506103b16115f2565b34801561084857600080fd5b506103b161085736600461366c565b611c21565b34801561086857600080fd5b5061032c670de0b6b3a764000081565b34801561088457600080fd5b5061032c600f5481565b34801561089a57600080fd5b506103b16108a936600461371c565b611c92565b3480156108ba57600080fd5b50600e5461066f906001600160a01b031681565b3480156108da57600080fd5b5061032c6108e93660046136a4565b6001600160a01b03918216600090815260056020908152604080832093909416825291909152205490565b34801561092057600080fd5b50600d5461066f906001600160a01b031681565b34801561094057600080fd5b506103b161094f366004613a60565b611ecf565b34801561096057600080fd5b506103b161096f366004613a60565b611f5d565b34801561098057600080fd5b506103b1611fe3565b6000806109b7610997610da2565b6001600160a01b0385166000908152600460205260409020545b90612217565b905060006109cd6109c6610f3a565b8390612217565b604051637d6af07960e01b81526001600160a01b0386811660048301529192506000917f00000000000000000000000000000000000000000000000000000000000000001690637d6af0799060240160206040518083038186803b158015610a3457600080fd5b505afa158015610a48573d6000803e3d6000fd5b505050506040513d601f19601f82011682018060405250810190610a6c9190613a78565b90506000610a836011546010546109c69190613c1e565b90508215610aa757600f54610aa290610a9c8386612223565b90612223565b610aaa565b60005b9695505050505050565b60018054610ac190613cbc565b80601f0160208091040260200160405190810160405280929190818152602001828054610aed90613cbc565b8015610b3a5780601f10610b0f57610100808354040283529160200191610b3a565b820191906000526020600020905b815481529060010190602001808311610b1d57829003601f168201915b505050505081565b6000610b4f338484612238565b5060015b92915050565b60005460ff16610b7c576040516306fda65d60e31b815260040160405180910390fd5b6000805460ff19169055610b8e6122e7565b6012546001600160a01b031615610bc8576040516327d04a1160e01b81526001600160a01b03841660048201526024015b60405180910390fd5b601380546001600160a01b038088166001600160a01b0319928316179092556008805487841690831617905560098490556012805492861692909116821790556014829055610c1a90866000196123a3565b610c506001600160a01b037f000000000000000000000000000000000000000000000000000000000000000016866000196123a3565b600c54610c69906001600160a01b0316856000196123a3565b600a805460ff19166001179055604080516001600160a01b0387811682528681166020830152851681830152606081018490526080810183905290517fd11ba4f3abfc78cb044532e87016a0c93a03fbbb5049a35d53fb1238d9ac66529160a0908290030190a150506000805460ff19166001179055505050565b6000610cf18484846124ad565b6001600160a01b038416600090815260056020908152604080832033845290915290205482811015610d4057604051632b3ca6f360e11b81526004810182905260248101849052604401610bbf565b610d4d8533858403612238565b60019150505b9392505050565b3360009081526005602090815260408083206001600160a01b03861684529091528120548190610d8b908490613c1e565b9050610d98338583612238565b5060019392505050565b6003546000908015610dc057600b54610dbb9082612223565b610dca565b670de0b6b3a76400005b91505090565b610dd86122e7565b60005460ff16610dfb576040516306fda65d60e31b815260040160405180910390fd5b6000805460ff19168155600d5460408051636c9adec960e11b815290516001600160a01b039092169163d935bd9291600480820192602092909190829003018186803b158015610e4a57600080fd5b505afa158015610e5e573d6000803e3d6000fd5b505050506040513d601f19601f82011682018060405250810190610e829190613688565b600e549091506001600160a01b0380831691161415610ecb57600e54604051637a4ec46360e01b81526001600160a01b0391821660048201529082166024820152604401610bbf565b600e80546001600160a01b038381166001600160a01b031983168117909355604080519190921680825260208201939093527fd52b2b9b7e9ee655fcb95d2e5b9e0c9f69e7ef2b8e9d2d0ea78402d576d22e2291015b60405180910390a150506000805460ff19166001179055565b600e54600c54604051633a08ab8b60e01b81526001600160a01b0391821660048201526000929190911690633a08ab8b9060240160206040518083038186803b158015610f8657600080fd5b505afa158015610f9a573d6000803e3d6000fd5b505050506040513d601f19601f82011682018060405250810190610fbe9190613a78565b905090565b60007f00000000000000000000000000000000000000000000000000000000000000006001600160a01b03848116908216146110455760405163d06d9b9360e01b81526001600160a01b0380861660048301527f0000000000000000000000000000000000000000000000000000000000000000166024820152604401610bbf565b6000816001600160a01b0316856001600160a01b0316146110685760001961106a565b835b9050600061107887836125d0565b1598975050505050505050565b600080611094836000196125d0565b91509150915091565b6000805460ff166110c1576040516306fda65d60e31b815260040160405180910390fd5b6000805460ff19168155600c546040516370a0823160e01b81523060048201526001600160a01b03909116906370a082319060240160206040518083038186803b15801561110e57600080fd5b505afa158015611122573d6000803e3d6000fd5b505050506040513d601f19601f820116820180604052508101906111469190613a78565b600a5490915060ff16156112e3576008546009546040516393f1a40b60e01b815260048101919091523060248201526000916001600160a01b0316906393f1a40b90604401604080518083038186803b1580156111a257600080fd5b505afa1580156111b6573d6000803e3d6000fd5b505050506040513d601f19601f820116820180604052508101906111da9190613a90565b50600854600954604051631c57762b60e31b81526004810191909152602481018590529192506001600160a01b03169063e2bbb15890604401600060405180830381600087803b15801561122d57600080fd5b505af1158015611241573d6000803e3d6000fd5b50506008546009546040516393f1a40b60e01b81526004810191909152306024820152600093506001600160a01b0390911691506393f1a40b90604401604080518083038186803b15801561129557600080fd5b505afa1580156112a9573d6000803e3d6000fd5b505050506040513d601f19601f820116820180604052508101906112cd9190613a90565b5090506112da8282613c75565b925050506112f3565b600b546112f09082613c75565b90505b6113056112fe610da2565b8290612223565b91506000821161132b5760405163cd698f4d60e01b815260048101839052602401610bbf565b61133583836126f5565b60408051828152602081018490526001600160a01b0385169133917f2f00e3cdd69a77be7ed215ec7b2a36784dd158f921fca79ac29deffa353fe6ee91015b60405180910390a3506113856127a8565b6000805460ff19166001179055919050565b6000805460ff166113bb576040516306fda65d60e31b815260040160405180910390fd5b6000805460ff19168155308152600460205260409020546113e46113dd610da2565b8290612217565b91506000821161140a576040516319f4fb4360e31b815260048101839052602401610bbf565b600b5482111561143b57600b546040516339eff09f60e11b8152610bbf918491600401918252602082015260400190565b611445308261287d565b600a5460ff16156114bf57600854600954604051630441a3e760e41b81526001600160a01b039092169163441a3e709161148c918690600401918252602082015260400190565b600060405180830381600087803b1580156114a657600080fd5b505af11580156114ba573d6000803e3d6000fd5b505050505b600c546114d6906001600160a01b03168484612928565b60408051838152602081018390526001600160a01b0385169133917f3f693fff038bb8a046aa76d9516190ac7444f7d69cf952c4cbdc086fdef2d6fc9101611374565b60028054610ac190613cbc565b3360009081526005602090815260408083206001600160a01b03861684529091528120548190610d8b908490613c75565b61155f6122e7565b60005460ff16611582576040516306fda65d60e31b815260040160405180910390fd5b6000805460ff191690556115a7670de0b6b3a76400006710a741a4627800008361297f565b601080549082905560408051828152602081018490527faeba5a6c40a8ac138134bff1aaa65debf25971188a58804bad717f82f0ec13169101610f21565b6000610b4f3384846124ad565b60005460ff16611615576040516306fda65d60e31b815260040160405180910390fd5b6000805460ff191690556116276129ba565b60006116316129e2565b90508061163e5750611c0a565b6000611651826658d15e17628000612217565b905061166a336012546001600160a01b03169083612928565b60125460009081907f00000000000000000000000000000000000000000000000000000000000000006001600160a01b03908116911614806116da57506012547f00000000000000000000000000000000000000000000000000000000000000006001600160a01b039081169116145b156117a9576012547f00000000000000000000000000000000000000000000000000000000000000006001600160a01b0390811691161461175c577f00000000000000000000000000000000000000000000000000000000000000007f000000000000000000000000000000000000000000000000000000000000000061179f565b7f00000000000000000000000000000000000000000000000000000000000000007f00000000000000000000000000000000000000000000000000000000000000005b90925090506119fc565b6012546117e9906001600160a01b03167f00000000000000000000000000000000000000000000000000000000000000006117e48688613c75565b612c57565b7f00000000000000000000000000000000000000000000000000000000000000006001600160a01b03167f00000000000000000000000000000000000000000000000000000000000000006001600160a01b0316148061189a57507f00000000000000000000000000000000000000000000000000000000000000006001600160a01b03167f00000000000000000000000000000000000000000000000000000000000000006001600160a01b0316145b1561193f577f00000000000000000000000000000000000000000000000000000000000000006001600160a01b03167f00000000000000000000000000000000000000000000000000000000000000006001600160a01b03161461175c577f00000000000000000000000000000000000000000000000000000000000000007f000000000000000000000000000000000000000000000000000000000000000061179f565b6119b67f00000000000000000000000000000000000000000000000000000000000000007f00000000000000000000000000000000000000000000000000000000000000006117e47f00000000000000000000000000000000000000000000000000000000000000006001600160a01b0316612d95565b507f000000000000000000000000000000000000000000000000000000000000000090507f00000000000000000000000000000000000000000000000000000000000000005b6000611a10836001600160a01b0316612d95565b9050600080600c60009054906101000a90046001600160a01b03166001600160a01b0316630902f1ac6040518163ffffffff1660e01b815260040160606040518083038186803b158015611a6357600080fd5b505afa158015611a77573d6000803e3d6000fd5b505050506040513d601f19601f82011682018060405250810190611a9b9190613a1e565b506001600160701b031691506001600160701b0316915060007f00000000000000000000000000000000000000000000000000000000000000006001600160a01b0316866001600160a01b031614611af35781611af5565b825b90506000611b068583601454612e0f565b9050611b13878783612c57565b6000611b3b8888611b24858a613c75565b611b368b6001600160a01b0316612d95565b612ead565b600854600954604051631c57762b60e31b81526004810191909152602481018390529192506001600160a01b03169063e2bbb15890604401600060405180830381600087803b158015611b8d57600080fd5b505af1158015611ba1573d6000803e3d6000fd5b50505050306001600160a01b03167f6ac14c64e9542da5b5d0624113aec83684dd471c3d8c61022ae5d78fa1523792611bd73390565b604080516001600160a01b039092168252602082018e905281018c905260600160405180910390a2505050505050505050505b611c126127a8565b6000805460ff19166001179055565b60005460ff16611c44576040516306fda65d60e31b815260040160405180910390fd5b6000805460ff19168155600b543082526004602052604090912054611c82918391611c6f9190613c75565b600c546001600160a01b03169190612928565b506000805460ff19166001179055565b6001600160a01b038716611cb95760405163bc622b6360e01b815260040160405180910390fd5b6001600160a01b038616611ce057604051632853494b60e11b815260040160405180910390fd5b42841015611d045760405163212ed8bb60e11b815260048101859052602401610bbf565b6001600160a01b0387811660008181526006602090815260408083208054600180820190925582517f6e71edae12b1b97f4d1f60370fef10105fa2faae0126114a169c64845d6126c98186015280840196909652958c166060860152608085018b905260a085019590955260c08085018a90528151808603909101815260e08501825280519083012061190160f01b6101008601527f000000000000000000000000000000000000000000000000000000000000000061010286015261012280860182905282518087039091018152610142860180845281519185019190912090859052610162860180845281905260ff8a166101828701526101a286018990526101c2860188905291519095919491926101e2808401939192601f1981019281900390910190855afa158015611e3f573d6000803e3d6000fd5b5050604051601f1901519150506001600160a01b038116611e7357604051630f81234f60e31b815260040160405180910390fd5b896001600160a01b0316816001600160a01b031614611eb857604051630b76193960e31b815260ff871660048201526024810186905260448101859052606401610bbf565b611ec38a8a8a612238565b50505050505050505050565b611ed76122e7565b60005460ff16611efa576040516306fda65d60e31b815260040160405180910390fd5b6000805460ff19169055611f1f6706f05b59d3b20000670de0b6b3a76400008361297f565b600f80549082905560408051828152602081018490527ff25d2243e4128e51523d8537f04f18c3e6390bbfc6323390a9a8e59b921ce0469101610f21565b611f656122e7565b60005460ff16611f88576040516306fda65d60e31b815260040160405180910390fd5b6000805460ff19168155611fa59067016345785d8a00008361297f565b601180549082905560408051828152602081018490527f87272249f1056ec16a68dd9255101358246dd26a796e2f0bc6b3a0ad02f2de419101610f21565b60005460ff16612006576040516306fda65d60e31b815260040160405180910390fd5b6000805460ff19169055611c126127a8565b60606000826001600160a01b0316630dfe16816040518163ffffffff1660e01b815260040160206040518083038186803b15801561205557600080fd5b505afa158015612069573d6000803e3d6000fd5b505050506040513d601f19601f8201168201806040525081019061208d9190613688565b6001600160a01b03166395d89b416040518163ffffffff1660e01b815260040160006040518083038186803b1580156120c557600080fd5b505afa1580156120d9573d6000803e3d6000fd5b505050506040513d6000823e601f3d908101601f19168201604052612101919081019061398e565b90506000836001600160a01b031663d21220a76040518163ffffffff1660e01b815260040160206040518083038186803b15801561213e57600080fd5b505afa158015612152573d6000803e3d6000fd5b505050506040513d601f19601f820116820180604052508101906121769190613688565b6001600160a01b03166395d89b416040518163ffffffff1660e01b815260040160006040518083038186803b1580156121ae57600080fd5b505afa1580156121c2573d6000803e3d6000fd5b505050506040513d6000823e601f3d908101601f191682016040526121ea919081019061398e565b905081816040516020016121ff929190613afc565b60405160208183030381529060405292505050919050565b6000610d538383612fa0565b6000610d5383670de0b6b3a764000084613062565b6001600160a01b03831661225f5760405163230326bf60e11b815260040160405180910390fd5b6001600160a01b03821661228657604051630b39ecd960e21b815260040160405180910390fd5b6001600160a01b0383811660008181526005602090815260408083209487168084529482529182902085905590518481527f8c5be1e5ebec7d5bd14f71427d1e84f3dd0314c0f7b2291e5b200ac8c7c3b925910160405180910390a3505050565b600d54604080516303e1469160e61b815290516000926001600160a01b03169163f851a440916004808301926020929190829003018186803b15801561232c57600080fd5b505afa158015612340573d6000803e3d6000fd5b505050506040513d601f19601f820116820180604052508101906123649190613688565b9050336001600160a01b038216146123a057604051633e7c764160e21b81523360048201526001600160a01b0382166024820152604401610bbf565b50565b604080516001600160a01b038481166024830152604480830185905283518084039091018152606490920183526020820180516001600160e01b031663095ea7b360e01b17905291516000928392908716916123ff9190613ae0565b6000604051808303816000865af19150503d806000811461243c576040519150601f19603f3d011682016040523d82523d6000602084013e612441565b606091505b509150915081801561246b57508051158061246b57508080602001905181019061246b9190613914565b6124a65760405162461bcd60e51b815260206004820152600c60248201526b2173616665417070726f766560a01b6044820152606401610bbf565b5050505050565b6001600160a01b0383166124d45760405163907bfbd760e01b815260040160405180910390fd5b6001600160a01b0382166124fb57604051637184c13f60e01b815260040160405180910390fd5b6001600160a01b0383166000908152600460205260409020548181101561253f57604051632dcf2e2160e21b81526004810182905260248101839052604401610bbf565b6001600160a01b03808516600090815260046020526040808220858503905591851681529081208054849290612576908490613c1e565b92505081905550826001600160a01b0316846001600160a01b03167fddf252ad1be2c89b69c2b068fc378daa952ba7f163c4a11628f55a4df523b3ef846040516125c291815260200190565b60405180910390a350505050565b6000806001600160a01b03841661260b5760405163a5075cd160e01b81526001600160a01b0385166004820152326024820152604401610bbf565b6000198314156126b157604051637d6af07960e01b81526001600160a01b0385811660048301527f00000000000000000000000000000000000000000000000000000000000000001690637d6af0799060240160206040518083038186803b15801561267657600080fd5b505afa15801561268a573d6000803e3d6000fd5b505050506040513d601f19601f820116820180604052508101906126ae9190613a78565b92505b60006126dc6126be610da2565b6001600160a01b0387166000908152600460205260409020546109b1565b90506126e8818561313e565b92509250505b9250929050565b6001600160a01b03821661271c5760405163139241eb60e01b815260040160405180910390fd5b6001600160a01b03821660009081526004602052604081208054839290612744908490613c1e565b92505081905550806003600082825461275d9190613c1e565b90915550506040518181526001600160a01b038316906000907fddf252ad1be2c89b69c2b068fc378daa952ba7f163c4a11628f55a4df523b3ef906020015b60405180910390a35050565b600a5460ff166127bc576127ba6131b8565b565b6008546009546040516393f1a40b60e01b815260048101919091523060248201526001600160a01b03909116906393f1a40b90604401604080518083038186803b15801561280957600080fd5b505afa15801561281d573d6000803e3d6000fd5b505050506040513d601f19601f820116820180604052508101906128419190613a90565b50600b8190556040519081527f8a0df8ef054fae2c3d2d19a7b322e864870cc9fd3cb07fb9526309c596244bf4906020015b60405180910390a1565b6001600160a01b0382166128a457604051638e35e80360e01b815260040160405180910390fd5b6001600160a01b038216600090815260046020526040812080548392906128cc908490613c75565b9250508190555080600360008282546128e59190613c75565b90915550506040518181526000906001600160a01b038416907fddf252ad1be2c89b69c2b068fc378daa952ba7f163c4a11628f55a4df523b3ef9060200161279c565b604080516001600160a01b038416602482015260448082018490528251808303909101815260649091019091526020810180516001600160e01b031663a9059cbb60e01b17905261297a908490613268565b505050565b8281108061298c57508181115b1561297a5760405162ccc44d60e41b8152600481018490526024810183905260448101829052606401610bbf565b3332146127ba57604051631fec819f60e21b8152336004820152326024820152604401610bbf565b600854600954604051630441a3e760e41b81526004810191909152600060248201819052916001600160a01b03169063441a3e7090604401600060405180830381600087803b158015612a3457600080fd5b505af1158015612a48573d6000803e3d6000fd5b5050600854600954604051631526fe2760e01b81526004810191909152600093506001600160a01b039091169150631526fe27906024016101206040518083038186803b158015612a9857600080fd5b505afa158015612aac573d6000803e3d6000fd5b505050506040513d601f19601f82011682018060405250810190612ad091906137bc565b5050509550505050505060006001600160a01b0316816001600160a01b031614612c42576000816001600160a01b03166373cfc6b26040518163ffffffff1660e01b815260040160206040518083038186803b158015612b2f57600080fd5b505afa158015612b43573d6000803e3d6000fd5b505050506040513d601f19601f82011682018060405250810190612b679190613914565b9050600081612be657826001600160a01b031663f7c618c16040518163ffffffff1660e01b815260040160206040518083038186803b158015612ba957600080fd5b505afa158015612bbd573d6000803e3d6000fd5b505050506040513d601f19601f82011682018060405250810190612be19190613688565b612c08565b7f00000000000000000000000000000000000000000000000000000000000000005b90506000612c1e826001600160a01b0316612d95565b90508015612c3e57601254612c3e9083906001600160a01b031683612c57565b5050505b601254610dca906001600160a01b0316612d95565b6040805160028082526060820183526000926020830190803683370190505090508381600081518110612c9a57634e487b7160e01b600052603260045260246000fd5b60200260200101906001600160a01b031690816001600160a01b0316815250508281600181518110612cdc57634e487b7160e01b600052603260045260246000fd5b6001600160a01b039283166020918202929092010152601354612d04918681169116846132dd565b6013546040516338ed173960e01b81526001600160a01b03909116906338ed173990612d3f9085906000908690309060001990600401613b7d565b600060405180830381600087803b158015612d5957600080fd5b505af1158015612d6d573d6000803e3d6000fd5b505050506040513d6000823e601f3d908101601f191682016040526124a6919081019061386c565b6040516370a0823160e01b81523060048201526000906001600160a01b038316906370a082319060240160206040518083038186803b158015612dd757600080fd5b505afa158015612deb573d6000803e3d6000fd5b505050506040513d601f19601f82011682018060405250810190610b539190613a78565b60008083612e1f846103e8613c1e565b612e299190613c56565b905060008385612e3b886103e8613c56565b612e459190613c56565b612e50906004613c56565b612e5a9190613c56565b90506000612e7b82612e6c8580613c56565b612e769190613c1e565b613376565b90506000612e8a866002613c56565b905080612e978584613c75565b612ea19190613c36565b98975050505050505050565b601354600090612eca906001600160a01b038781169116856132dd565b601354612ee4906001600160a01b038681169116846132dd565b60135460405162e8e33760e81b81526001600160a01b0387811660048301528681166024830152604482018690526064820185905260006084830181905260a48301523060c483015260001960e48301529091169063e8e337009061010401606060405180830381600087803b158015612f5d57600080fd5b505af1158015612f71573d6000803e3d6000fd5b505050506040513d601f19601f82011682018060405250810190612f959190613ab3565b979650505050505050565b60008080600019848609848602925082811083820303915050670de0b6b3a76400008110612fe45760405163698d9a0160e11b815260048101829052602401610bbf565b600080670de0b6b3a76400008688099150506706f05b59d3b1ffff81118261301e5780670de0b6b3a7640000850401945050505050610b53565b620400008285030493909111909103600160ee1b02919091177faccb18165bd6fe31ae1cf318dc5b51eee0e1ba569b88cd74c1773b91fac106690201905092915050565b6000808060001985870985870292508281108382030391505080600014156130ab578382816130a157634e487b7160e01b600052601260045260246000fd5b0492505050610d53565b8381106130d557604051631dcf306360e21b81526004810182905260248101859052604401610bbf565b60008486880960026001871981018816978890046003810283188082028403028082028403028082028403028082028403028082028403029081029092039091026000889003889004909101858311909403939093029303949094049190911702949350505050565b600080600061314b610f3a565b905060006131598683612217565b90506000613172600f548361221790919063ffffffff16565b905060006131906011546010546131899190613c1e565b8890612217565b90508082106131a95790039350600092506126ee915050565b600095500392506126ee915050565b600c546040516370a0823160e01b81523060048201526001600160a01b03909116906370a082319060240160206040518083038186803b1580156131fb57600080fd5b505afa15801561320f573d6000803e3d6000fd5b505050506040513d601f19601f820116820180604052508101906132339190613a78565b600b8190556040519081527f8a0df8ef054fae2c3d2d19a7b322e864870cc9fd3cb07fb9526309c596244bf490602001612873565b60006132a283836040518060400160405280601581526020017414d85999515c98cc8c131bddd3195d995b10d85b1b605a1b815250613561565b80519091501561297a57808060200190518101906132c09190613914565b61297a576040516364d6fc4d60e01b815260040160405180910390fd5b604051636eb1769f60e11b81523060048201526001600160a01b03838116602483015282919085169063dd62ed3e9060440160206040518083038186803b15801561332757600080fd5b505afa15801561333b573d6000803e3d6000fd5b505050506040513d601f19601f8201168201806040525081019061335f9190613a78565b1061336957505050565b61297a83836000196123a3565b60008161338557506000919050565b50600181600160801b811061339f5760409190911b9060801c5b6801000000000000000081106133ba5760209190911b9060401c5b64010000000081106133d15760109190911b9060201c5b6201000081106133e65760089190911b9060101c5b61010081106133fa5760049190911b9060081c5b6010811061340d5760029190911b9060041c5b6008811061341d57600182901b91505b600182848161343c57634e487b7160e01b600052601260045260246000fd5b048301901c9150600182848161346257634e487b7160e01b600052601260045260246000fd5b048301901c9150600182848161348857634e487b7160e01b600052601260045260246000fd5b048301901c915060018284816134ae57634e487b7160e01b600052601260045260246000fd5b048301901c915060018284816134d457634e487b7160e01b600052601260045260246000fd5b048301901c915060018284816134fa57634e487b7160e01b600052601260045260246000fd5b048301901c9150600182848161352057634e487b7160e01b600052601260045260246000fd5b048301901c9150600082848161354657634e487b7160e01b600052601260045260246000fd5b049050808310156135575782613559565b805b949350505050565b60606001600160a01b0384163b61359657604051638201cc0560e01b81526001600160a01b0385166004820152602401610bbf565b600080856001600160a01b0316856040516135b19190613ae0565b6000604051808303816000865af19150503d80600081146135ee576040519150601f19603f3d011682016040523d82523d6000602084013e6135f3565b606091505b50915091508115613607579150610d539050565b8051156136175780518082602001fd5b8360405162461bcd60e51b8152600401610bbf9190613b4a565b805161363c81613d23565b919050565b80516001600160701b038116811461363c57600080fd5b805163ffffffff8116811461363c57600080fd5b60006020828403121561367d578081fd5b8135610d5381613d23565b600060208284031215613699578081fd5b8151610d5381613d23565b600080604083850312156136b6578081fd5b82356136c181613d23565b915060208301356136d181613d23565b809150509250929050565b6000806000606084860312156136f0578081fd5b83356136fb81613d23565b9250602084013561370b81613d23565b929592945050506040919091013590565b600080600080600080600060e0888a031215613736578283fd5b873561374181613d23565b9650602088013561375181613d23565b95506040880135945060608801359350608088013560ff81168114613774578384fd5b9699959850939692959460a0840135945060c09093013592915050565b600080604083850312156137a3578182fd5b82356137ae81613d23565b946020939093013593505050565b60008060008060008060008060006101208a8c0312156137da578283fd5b89516137e581613d23565b60208b01519099506bffffffffffffffffffffffff81168114613806578384fd5b8098505060408a0151965060608a0151955060808a015167ffffffffffffffff81168114613832578384fd5b945061384060a08b01613631565b935061384e60c08b01613658565b925060e08a015191506101008a015190509295985092959850929598565b6000602080838503121561387e578182fd5b825167ffffffffffffffff80821115613895578384fd5b818501915085601f8301126138a8578384fd5b8151818111156138ba576138ba613d0d565b8060051b91506138cb848301613bed565b8181528481019084860184860187018a10156138e5578788fd5b8795505b838610156139075780518352600195909501949186019186016138e9565b5098975050505050505050565b600060208284031215613925578081fd5b81518015158114610d53578182fd5b600080600080600060a0868803121561394b578283fd5b853561395681613d23565b9450602086013561396681613d23565b9350604086013561397681613d23565b94979396509394606081013594506080013592915050565b60006020828403121561399f578081fd5b815167ffffffffffffffff808211156139b6578283fd5b818401915084601f8301126139c9578283fd5b8151818111156139db576139db613d0d565b6139ee601f8201601f1916602001613bed565b9150808252856020828501011115613a04578384fd5b613a15816020840160208601613c8c565b50949350505050565b600080600060608486031215613a32578081fd5b613a3b84613641565b9250613a4960208501613641565b9150613a5760408501613658565b90509250925092565b600060208284031215613a71578081fd5b5035919050565b600060208284031215613a89578081fd5b5051919050565b60008060408385031215613aa2578182fd5b505080516020909101519092909150565b600080600060608486031215613ac7578081fd5b8351925060208401519150604084015190509250925092565b60008251613af2818460208701613c8c565b9190910192915050565b65021bcb3a628160d51b815260008351613b1d816006850160208801613c8c565b602f60f81b6006918401918201528351613b3e816007840160208801613c8c565b01600701949350505050565b6020815260008251806020840152613b69816040850160208701613c8c565b601f01601f19169190910160400192915050565b600060a082018783526020878185015260a0604085015281875180845260c0860191508289019350845b81811015613bcc5784516001600160a01b031683529383019391830191600101613ba7565b50506001600160a01b03969096166060850152505050608001529392505050565b604051601f8201601f1916810167ffffffffffffffff81118282101715613c1657613c16613d0d565b604052919050565b60008219821115613c3157613c31613cf7565b500190565b600082613c5157634e487b7160e01b81526012600452602481fd5b500490565b6000816000190483118215151615613c7057613c70613cf7565b500290565b600082821015613c8757613c87613cf7565b500390565b60005b83811015613ca7578181015183820152602001613c8f565b83811115613cb6576000848401525b50505050565b600181811c90821680613cd057607f821691505b60208210811415613cf157634e487b7160e01b600052602260045260246000fd5b50919050565b634e487b7160e01b600052601160045260246000fd5b634e487b7160e01b600052604160045260246000fd5b6001600160a01b03811681146123a057600080fdfea264697066735822122057afbb782c384e201cfd805d8b27060bde6272abf1f26be0e329a97dc51416ef64736f6c63430008040033",
  "linkReferences": {},
  "deployedLinkReferences": {}
}