{
  "_format": "hh-sol-artifact-1",
  "contractName": "CygnusFactory",
  "sourceName": "contracts/cygnus-core/CygnusFactory.sol",
  "abi": [
    {
      "inputs": [
        {
          "internalType": "address",
          "name": "_admin",
          "type": "address"
        },
        {
          "internalType": "address",
          "name": "_vegaTokenManager",
          "type": "address"
        },
        {
          "internalType": "address",
          "name": "_dai",
          "type": "address"
        },
        {
          "internalType": "address",
          "name": "_nativeToken",
          "type": "address"
        },
        {
          "internalType": "contract IChainlinkNebulaOracle",
          "name": "_cygnusNebulaOracle",
          "type": "address"
        }
      ],
      "stateMutability": "nonpayable",
      "type": "constructor"
    },
    {
      "inputs": [
        {
          "internalType": "contract ICygnusAlbireo",
          "name": "cygnusAlbireo",
          "type": "address"
        },
        {
          "internalType": "contract ICygnusAlbireo",
          "name": "newCygnusAlbireo",
          "type": "address"
        }
      ],
      "name": "CygnusFactory__BorrowOrbiterAlreadySet",
      "type": "error"
    },
    {
      "inputs": [
        {
          "internalType": "address",
          "name": "calculatedCollateral",
          "type": "address"
        },
        {
          "internalType": "address",
          "name": "deployedCollateral",
          "type": "address"
        }
      ],
      "name": "CygnusFactory__CollateralAddressMismatch",
      "type": "error"
    },
    {
      "inputs": [
        {
          "internalType": "contract ICygnusDeneb",
          "name": "cygnusDeneb",
          "type": "address"
        },
        {
          "internalType": "contract ICygnusDeneb",
          "name": "newCygnusDeneb",
          "type": "address"
        }
      ],
      "name": "CygnusFactory__CollateralOrbiterAlreadySet",
      "type": "error"
    },
    {
      "inputs": [
        {
          "internalType": "address",
          "name": "currentAdmin",
          "type": "address"
        },
        {
          "internalType": "address",
          "name": "newPendingAdmin",
          "type": "address"
        }
      ],
      "name": "CygnusFactory__CygnusAdminAlreadySet",
      "type": "error"
    },
    {
      "inputs": [
        {
          "internalType": "address",
          "name": "sender",
          "type": "address"
        },
        {
          "internalType": "address",
          "name": "admin",
          "type": "address"
        }
      ],
      "name": "CygnusFactory__CygnusAdminOnly",
      "type": "error"
    },
    {
      "inputs": [
        {
          "internalType": "address",
          "name": "priceOracle",
          "type": "address"
        },
        {
          "internalType": "address",
          "name": "newPriceOracle",
          "type": "address"
        }
      ],
      "name": "CygnusFactory__CygnusNebulaAlreadySet",
      "type": "error"
    },
    {
      "inputs": [
        {
          "internalType": "address",
          "name": "priceOracle",
          "type": "address"
        }
      ],
      "name": "CygnusFactory__CygnusNebulaCantBeZero",
      "type": "error"
    },
    {
      "inputs": [
        {
          "internalType": "address",
          "name": "currentVegaTokenManager",
          "type": "address"
        },
        {
          "internalType": "address",
          "name": "newVegaTokenManager",
          "type": "address"
        }
      ],
      "name": "CygnusFactory__CygnusVegaAlreadySet",
      "type": "error"
    },
    {
      "inputs": [
        {
          "internalType": "address",
          "name": "lpTokenPair",
          "type": "address"
        }
      ],
      "name": "CygnusFactory__LPTokenPairNotSupported",
      "type": "error"
    },
    {
      "inputs": [
        {
          "internalType": "uint24",
          "name": "id",
          "type": "uint24"
        },
        {
          "internalType": "contract ICygnusDeneb",
          "name": "cygnusDeneb",
          "type": "address"
        },
        {
          "internalType": "contract ICygnusAlbireo",
          "name": "cygnusAlbireo",
          "type": "address"
        }
      ],
      "name": "CygnusFactory__OrbitersAreInactive",
      "type": "error"
    },
    {
      "inputs": [
        {
          "internalType": "uint256",
          "name": "orbiterId",
          "type": "uint256"
        }
      ],
      "name": "CygnusFactory__OrbitersNotSet",
      "type": "error"
    },
    {
      "inputs": [
        {
          "internalType": "address",
          "name": "pending",
          "type": "address"
        },
        {
          "internalType": "address",
          "name": "sender",
          "type": "address"
        }
      ],
      "name": "CygnusFactory__PendingAdminCantBeZero",
      "type": "error"
    },
    {
      "inputs": [
        {
          "internalType": "address",
          "name": "pending",
          "type": "address"
        },
        {
          "internalType": "address",
          "name": "sender",
          "type": "address"
        }
      ],
      "name": "CygnusFactory__PendingVegaCantBeZero",
      "type": "error"
    },
    {
      "inputs": [
        {
          "internalType": "uint24",
          "name": "id",
          "type": "uint24"
        },
        {
          "internalType": "address",
          "name": "lpTokenPair",
          "type": "address"
        }
      ],
      "name": "CygnusFactory__ShuttleAlreadyDeployed",
      "type": "error"
    },
    {
      "inputs": [],
      "name": "ReentrantCall",
      "type": "error"
    },
    {
      "anonymous": false,
      "inputs": [
        {
          "indexed": false,
          "internalType": "bool",
          "name": "active",
          "type": "bool"
        },
        {
          "indexed": false,
          "internalType": "uint256",
          "name": "orbitersLength",
          "type": "uint256"
        },
        {
          "indexed": false,
          "internalType": "string",
          "name": "orbitersName",
          "type": "string"
        },
        {
          "indexed": false,
          "internalType": "contract ICygnusDeneb",
          "name": "collateralOrbiter",
          "type": "address"
        },
        {
          "indexed": false,
          "internalType": "contract ICygnusAlbireo",
          "name": "borrowOrbiter",
          "type": "address"
        }
      ],
      "name": "InitializeOrbiters",
      "type": "event"
    },
    {
      "anonymous": false,
      "inputs": [
        {
          "indexed": false,
          "internalType": "address",
          "name": "oldAdmin",
          "type": "address"
        },
        {
          "indexed": false,
          "internalType": "address",
          "name": "newAdmin",
          "type": "address"
        }
      ],
      "name": "NewCygnusAdmin",
      "type": "event"
    },
    {
      "anonymous": false,
      "inputs": [
        {
          "indexed": false,
          "internalType": "contract IChainlinkNebulaOracle",
          "name": "oldCygnusNebula",
          "type": "address"
        },
        {
          "indexed": false,
          "internalType": "contract IChainlinkNebulaOracle",
          "name": "newCygnusNebula",
          "type": "address"
        }
      ],
      "name": "NewCygnusNebulaOracle",
      "type": "event"
    },
    {
      "anonymous": false,
      "inputs": [
        {
          "indexed": true,
          "internalType": "address",
          "name": "lpTokenPair",
          "type": "address"
        },
        {
          "indexed": false,
          "internalType": "uint256",
          "name": "shuttleId",
          "type": "uint256"
        },
        {
          "indexed": false,
          "internalType": "address",
          "name": "collateral",
          "type": "address"
        },
        {
          "indexed": false,
          "internalType": "address",
          "name": "cygnusDai",
          "type": "address"
        },
        {
          "indexed": false,
          "internalType": "address",
          "name": "dai",
          "type": "address"
        }
      ],
      "name": "NewShuttleLaunched",
      "type": "event"
    },
    {
      "anonymous": false,
      "inputs": [
        {
          "indexed": false,
          "internalType": "address",
          "name": "oldVegaTokenManager",
          "type": "address"
        },
        {
          "indexed": false,
          "internalType": "address",
          "name": "vegaTokenManager",
          "type": "address"
        }
      ],
      "name": "NewVegaTokenManager",
      "type": "event"
    },
    {
      "anonymous": false,
      "inputs": [
        {
          "indexed": false,
          "internalType": "address",
          "name": "pendingAdmin",
          "type": "address"
        },
        {
          "indexed": false,
          "internalType": "address",
          "name": "_admin",
          "type": "address"
        }
      ],
      "name": "PendingCygnusAdmin",
      "type": "event"
    },
    {
      "anonymous": false,
      "inputs": [
        {
          "indexed": false,
          "internalType": "address",
          "name": "oldPendingVegaContract",
          "type": "address"
        },
        {
          "indexed": false,
          "internalType": "address",
          "name": "newPendingVegaContract",
          "type": "address"
        }
      ],
      "name": "PendingVegaTokenManager",
      "type": "event"
    },
    {
      "anonymous": false,
      "inputs": [
        {
          "indexed": false,
          "internalType": "bool",
          "name": "active",
          "type": "bool"
        },
        {
          "indexed": false,
          "internalType": "uint256",
          "name": "orbiterId",
          "type": "uint256"
        },
        {
          "indexed": false,
          "internalType": "string",
          "name": "orbiterName",
          "type": "string"
        },
        {
          "indexed": false,
          "internalType": "contract ICygnusDeneb",
          "name": "cygnusDeneb",
          "type": "address"
        },
        {
          "indexed": false,
          "internalType": "contract ICygnusAlbireo",
          "name": "cygnusAlbireo",
          "type": "address"
        }
      ],
      "name": "SwitchOrbiterStatus",
      "type": "event"
    },
    {
      "inputs": [],
      "name": "admin",
      "outputs": [
        {
          "internalType": "address",
          "name": "",
          "type": "address"
        }
      ],
      "stateMutability": "view",
      "type": "function"
    },
    {
      "inputs": [
        {
          "internalType": "uint256",
          "name": "",
          "type": "uint256"
        }
      ],
      "name": "allOrbiters",
      "outputs": [
        {
          "internalType": "bool",
          "name": "active",
          "type": "bool"
        },
        {
          "internalType": "uint24",
          "name": "orbiterId",
          "type": "uint24"
        },
        {
          "internalType": "string",
          "name": "orbiterName",
          "type": "string"
        },
        {
          "internalType": "contract ICygnusDeneb",
          "name": "cygnusDeneb",
          "type": "address"
        },
        {
          "internalType": "contract ICygnusAlbireo",
          "name": "cygnusAlbireo",
          "type": "address"
        }
      ],
      "stateMutability": "view",
      "type": "function"
    },
    {
      "inputs": [
        {
          "internalType": "uint256",
          "name": "",
          "type": "uint256"
        }
      ],
      "name": "allShuttles",
      "outputs": [
        {
          "internalType": "address",
          "name": "",
          "type": "address"
        }
      ],
      "stateMutability": "view",
      "type": "function"
    },
    {
      "inputs": [],
      "name": "cygnusNebulaOracle",
      "outputs": [
        {
          "internalType": "contract IChainlinkNebulaOracle",
          "name": "",
          "type": "address"
        }
      ],
      "stateMutability": "view",
      "type": "function"
    },
    {
      "inputs": [],
      "name": "dai",
      "outputs": [
        {
          "internalType": "address",
          "name": "",
          "type": "address"
        }
      ],
      "stateMutability": "view",
      "type": "function"
    },
    {
      "inputs": [
        {
          "internalType": "uint256",
          "name": "orbiterId",
          "type": "uint256"
        },
        {
          "internalType": "address",
          "name": "lpTokenPair",
          "type": "address"
        },
        {
          "internalType": "uint256",
          "name": "baseRate",
          "type": "uint256"
        },
        {
          "internalType": "uint256",
          "name": "multiplier",
          "type": "uint256"
        },
        {
          "internalType": "uint256",
          "name": "kinkMultiplier",
          "type": "uint256"
        }
      ],
      "name": "deployShuttle",
      "outputs": [
        {
          "internalType": "address",
          "name": "cygnusDai",
          "type": "address"
        },
        {
          "internalType": "address",
          "name": "collateral",
          "type": "address"
        }
      ],
      "stateMutability": "nonpayable",
      "type": "function"
    },
    {
      "inputs": [
        {
          "internalType": "uint256",
          "name": "",
          "type": "uint256"
        }
      ],
      "name": "getOrbiters",
      "outputs": [
        {
          "internalType": "bool",
          "name": "active",
          "type": "bool"
        },
        {
          "internalType": "uint24",
          "name": "orbiterId",
          "type": "uint24"
        },
        {
          "internalType": "string",
          "name": "orbiterName",
          "type": "string"
        },
        {
          "internalType": "contract ICygnusDeneb",
          "name": "cygnusDeneb",
          "type": "address"
        },
        {
          "internalType": "contract ICygnusAlbireo",
          "name": "cygnusAlbireo",
          "type": "address"
        }
      ],
      "stateMutability": "view",
      "type": "function"
    },
    {
      "inputs": [
        {
          "internalType": "address",
          "name": "",
          "type": "address"
        }
      ],
      "name": "getShuttles",
      "outputs": [
        {
          "internalType": "bool",
          "name": "launched",
          "type": "bool"
        },
        {
          "internalType": "uint24",
          "name": "shuttleId",
          "type": "uint24"
        },
        {
          "internalType": "address",
          "name": "collateral",
          "type": "address"
        },
        {
          "internalType": "address",
          "name": "cygnusDai",
          "type": "address"
        },
        {
          "internalType": "address",
          "name": "lpTokenPair",
          "type": "address"
        },
        {
          "internalType": "address",
          "name": "borrowToken",
          "type": "address"
        },
        {
          "components": [
            {
              "internalType": "bool",
              "name": "active",
              "type": "bool"
            },
            {
              "internalType": "uint24",
              "name": "orbiterId",
              "type": "uint24"
            },
            {
              "internalType": "string",
              "name": "orbiterName",
              "type": "string"
            },
            {
              "internalType": "contract ICygnusDeneb",
              "name": "cygnusDeneb",
              "type": "address"
            },
            {
              "internalType": "contract ICygnusAlbireo",
              "name": "cygnusAlbireo",
              "type": "address"
            }
          ],
          "internalType": "struct ICygnusFactory.Orbiter",
          "name": "orbiter",
          "type": "tuple"
        }
      ],
      "stateMutability": "view",
      "type": "function"
    },
    {
      "inputs": [],
      "name": "nativeToken",
      "outputs": [
        {
          "internalType": "address",
          "name": "",
          "type": "address"
        }
      ],
      "stateMutability": "view",
      "type": "function"
    },
    {
      "inputs": [],
      "name": "orbitersDeployed",
      "outputs": [
        {
          "internalType": "uint256",
          "name": "",
          "type": "uint256"
        }
      ],
      "stateMutability": "view",
      "type": "function"
    },
    {
      "inputs": [],
      "name": "pendingNewAdmin",
      "outputs": [
        {
          "internalType": "address",
          "name": "",
          "type": "address"
        }
      ],
      "stateMutability": "view",
      "type": "function"
    },
    {
      "inputs": [],
      "name": "pendingVegaTokenManager",
      "outputs": [
        {
          "internalType": "address",
          "name": "",
          "type": "address"
        }
      ],
      "stateMutability": "view",
      "type": "function"
    },
    {
      "inputs": [],
      "name": "setNewCygnusAdmin",
      "outputs": [],
      "stateMutability": "nonpayable",
      "type": "function"
    },
    {
      "inputs": [
        {
          "internalType": "address",
          "name": "newPriceOracle",
          "type": "address"
        }
      ],
      "name": "setNewNebulaOracle",
      "outputs": [],
      "stateMutability": "nonpayable",
      "type": "function"
    },
    {
      "inputs": [
        {
          "internalType": "string",
          "name": "orbiterName",
          "type": "string"
        },
        {
          "internalType": "contract ICygnusDeneb",
          "name": "_cygnusDeneb",
          "type": "address"
        },
        {
          "internalType": "contract ICygnusAlbireo",
          "name": "_cygnusAlbireo",
          "type": "address"
        }
      ],
      "name": "setNewOrbiter",
      "outputs": [],
      "stateMutability": "nonpayable",
      "type": "function"
    },
    {
      "inputs": [],
      "name": "setNewVegaTokenManager",
      "outputs": [],
      "stateMutability": "nonpayable",
      "type": "function"
    },
    {
      "inputs": [
        {
          "internalType": "uint256",
          "name": "orbiterId",
          "type": "uint256"
        }
      ],
      "name": "setOrbiterStatus",
      "outputs": [],
      "stateMutability": "nonpayable",
      "type": "function"
    },
    {
      "inputs": [
        {
          "internalType": "address",
          "name": "newCygnusAdmin",
          "type": "address"
        }
      ],
      "name": "setPendingAdmin",
      "outputs": [],
      "stateMutability": "nonpayable",
      "type": "function"
    },
    {
      "inputs": [
        {
          "internalType": "address",
          "name": "newVegaTokenManager",
          "type": "address"
        }
      ],
      "name": "setPendingVegaTokenManager",
      "outputs": [],
      "stateMutability": "nonpayable",
      "type": "function"
    },
    {
      "inputs": [],
      "name": "shuttlesDeployed",
      "outputs": [
        {
          "internalType": "uint256",
          "name": "",
          "type": "uint256"
        }
      ],
      "stateMutability": "view",
      "type": "function"
    },
    {
      "inputs": [],
      "name": "vegaTokenManager",
      "outputs": [
        {
          "internalType": "address",
          "name": "",
          "type": "address"
        }
      ],
      "stateMutability": "view",
      "type": "function"
    }
  ],
  "bytecode": "0x60c06040523480156200001157600080fd5b50604051620020a3380380620020a383398101604081905262000034916200011d565b6000805460ff19166001178155600580546001600160a01b038881166001600160a01b03199283168117909355600780548983169084161790556001600160601b0319606087811b821660a05288901b1660805260098054918616919092161790556040805192835260208301919091527fa6fd993b45f105f3b99176403c23f4df5f10600b416795ff8223ff7ad9efb4f9910160405180910390a160408051600081526001600160a01b03861660208201527f871904eeda044f91747a91f5aa3c1d26835718ade915020449e03e0829d050a8910160405180910390a15050505050620001b5565b600080600080600060a0868803121562000135578081fd5b855162000142816200019c565b602087015190955062000155816200019c565b604087015190945062000168816200019c565b60608701519093506200017b816200019c565b60808701519092506200018e816200019c565b809150509295509295909350565b6001600160a01b0381168114620001b257600080fd5b50565b60805160601c60a05160601c611ead620001f6600039600061031001526000818161033f0152818161085401528181610aee0152610be60152611ead6000f3fe608060405234801561001057600080fd5b50600436106101775760003560e01c806380ffbb88116100d8578063bce1323b1161008c578063ea191e9f11610066578063ea191e9f14610332578063f4b9fa751461033a578063f851a4401461036157600080fd5b8063bce1323b146102e5578063d935bd92146102f8578063e1758bd81461030b57600080fd5b806392d334c6116100bd57806392d334c614610299578063a8dc6974146102ac578063bb2d603f146102bf57600080fd5b806380ffbb881461027f578063883fd1c91461029157600080fd5b80634a8d6b161161012f578063502b512e11610114578063502b512e146102515780636611e47a1461026457806366ecc5671461026c57600080fd5b80634a8d6b161461022b5780634dd18bf51461023e57600080fd5b80632ba3c5c0116101605780632ba3c5c0146101d05780632ff0325f146101e35780633ddc2010146101f857600080fd5b80631ad4c8c31461017c578063269a2ce4146101ac575b600080fd5b61018f61018a366004611b50565b610374565b6040516001600160a01b0390911681526020015b60405180910390f35b6101bf6101ba366004611b50565b61039e565b6040516101a3959493929190611c9a565b60085461018f906001600160a01b031681565b6101f66101f1366004611b50565b61047e565b005b61020b610206366004611b68565b610591565b604080516001600160a01b039384168152929091166020830152016101a3565b6101f66102393660046119ad565b610c57565b6101f661024c3660046119ad565b610d5d565b6101bf61025f366004611b50565b610e48565b6101f6610e7a565b6101f661027a366004611a83565b610f53565b6002545b6040519081526020016101a3565b6101f6611159565b60065461018f906001600160a01b031681565b60075461018f906001600160a01b031681565b6102d26102cd3660046119ad565b611232565b6040516101a39796959493929190611bfa565b6101f66102f33660046119ad565b611368565b60095461018f906001600160a01b031681565b61018f7f000000000000000000000000000000000000000000000000000000000000000081565b600454610283565b61018f7f000000000000000000000000000000000000000000000000000000000000000081565b60055461018f906001600160a01b031681565b6002818154811061038457600080fd5b6000918252602090912001546001600160a01b0316905081565b600481815481106103ae57600080fd5b60009182526020909120600490910201805460018201805460ff8316945061010090920462ffffff1692916103e290611de7565b80601f016020809104026020016040519081016040528092919081815260200182805461040e90611de7565b801561045b5780601f106104305761010080835404028352916020019161045b565b820191906000526020600020905b81548152906001019060200180831161043e57829003601f168201915b50505050600283015460039093015491926001600160a01b039081169216905085565b60005460ff166104a1576040516306fda65d60e31b815260040160405180910390fd5b6000805460ff191690556104b361143f565b600081815260036020526040902060028101546001600160a01b031615806104e6575060038101546001600160a01b0316155b1561050c576040516308e1f4c960e01b8152600481018390526024015b60405180910390fd5b805460ff8082161560ff199092168217808455600284015460038501546040517f6f550007bd4f620c965be68f1f3187e69f93b133fc72c3b97efe160cac70f60e95610578951693610100900462ffffff169260018801926001600160a01b0391821692911690611ce2565b60405180910390a150506000805460ff19166001179055565b60008054819060ff166105b7576040516306fda65d60e31b815260040160405180910390fd5b6000805460ff191690556105c961143f565b6105d28661148a565b6000878152600360209081526040808320815160a081018352815460ff811615158252610100900462ffffff1693810193909352600181018054919284019161061a90611de7565b80601f016020809104026020016040519081016040528092919081815260200182805461064690611de7565b80156106935780601f1061066857610100808354040283529160200191610693565b820191906000526020600020905b81548152906001019060200180831161067657829003601f168201915b505050918352505060028201546001600160a01b039081166020830152600390920154909116604090910152805190915061070e5760208101516060820151608083015160405163a6ebc14d60e01b815262ffffff90931660048401526001600160a01b039182166024840152166044820152606401610503565b60006108388830846060015185606001516001600160a01b03166310df4f526040518163ffffffff1660e01b815260040160206040518083038186803b15801561075757600080fd5b505afa15801561076b573d6000803e3d6000fd5b505050506040513d601f19601f8201168201806040525081019061078f9190611a6b565b604080516001600160a01b0386811660208084019190915290861682840152825180830384018152606080840190945280519101207fff0000000000000000000000000000000000000000000000000000000000000060808301529184901b6bffffffffffffffffffffffff19166081820152609581019190915260b5810182905260009060d50160408051601f19818403018152919052805160209091012095945050505050565b6080830151604051630f0699ab60e21b81526001600160a01b037f0000000000000000000000000000000000000000000000000000000000000000811660048301528381166024830152604482018b9052606482018a905260848201899052929350911690633c1a66ac9060a401602060405180830381600087803b1580156108c057600080fd5b505af11580156108d4573d6000803e3d6000fd5b505050506040513d601f19601f820116820180604052508101906108f891906119d0565b6060830151604051632e5e9b4560e01b81526001600160a01b038b811660048301528084166024830152929650911690632e5e9b4590604401602060405180830381600087803b15801561094b57600080fd5b505af115801561095f573d6000803e3d6000fd5b505050506040513d601f19601f8201168201806040525081019061098391906119d0565b9250806001600160a01b0316836001600160a01b0316146109ca576040516305048e8760e11b81526001600160a01b03808316600483015284166024820152604401610503565b600954604051633c2b103160e21b81526001600160a01b038a81166004830152600092169063f0ac40c49060240160a06040518083038186803b158015610a1057600080fd5b505afa158015610a24573d6000803e3d6000fd5b505050506040513d601f19601f82011682018060405250810190610a4891906119ec565b50505050905080610a7757604051633c56810b60e21b81526001600160a01b038a166004820152602401610503565b6001600160a01b03808a166000818152600160208181526040928390208054868b166401000000000277ffffffffffffffffffffffffffffffffffffffff000000001990911617815591820180548b87166001600160a01b03199182161790915560028301805482169095179094556003820180547f0000000000000000000000000000000000000000000000000000000000000000909616959094169490941790925585516004830180548886015162ffffff166101000263ffffff00199315159390931663ffffffff199091161791909117815590860151805187949293610b68936005909101920190611889565b50606082810151600283810180546001600160a01b03199081166001600160a01b039485161790915560809586015160039095018054909116948316949094179093558c8116600081815260016020818152604092839020805460ff1916909217909155945481519081528a8416958101959095528a8316908501527f000000000000000000000000000000000000000000000000000000000000000090911691830191909152917f558761602c19afd85ca0068375f8d01eabfc160dcc185ba37ef9317a2a350c3c910160405180910390a250506000805460ff191660011790555090969095509350505050565b60005460ff16610c7a576040516306fda65d60e31b815260040160405180910390fd5b6000805460ff19169055610c8c61143f565b6001600160a01b038116610cbe5760405163075cc9e560e31b81526001600160a01b0382166004820152602401610503565b6009546001600160a01b0382811691161415610d0357600954604051620977bb60eb1b81526001600160a01b0391821660048201529082166024820152604401610503565b600980546001600160a01b038381166001600160a01b031983168117909355604080519190921680825260208201939093527f284cdaacb3a25e3bd44bd42bd75506b1828e6b1228159e572b638cfa9e4e8f2a9101610578565b60005460ff16610d80576040516306fda65d60e31b815260040160405180910390fd5b6000805460ff19169055610d9261143f565b6005546001600160a01b0382811691161415610dd8576005546040516319fbd9bb60e21b81526001600160a01b0391821660048201529082166024820152604401610503565b600680546001600160a01b0319166001600160a01b038381169182179092556005546040805191909316815260208101919091527fc6caf65bdfca91a680a30376182ec2391a8922ced3eff3b177e658cd0163795291015b60405180910390a1506000805460ff19166001179055565b6003602052600090815260409020805460018201805460ff83169361010090930462ffffff169291906103e290611de7565b60005460ff16610e9d576040516306fda65d60e31b815260040160405180910390fd5b6000805460ff19169055610eaf61143f565b6008546001600160a01b0316610eed57600854604051631668f89f60e31b81526001600160a01b039091166004820152336024820152604401610503565b60078054600880546001600160a01b038082166001600160a01b0319808616821790965594909116909155604080519190921680825260208201939093527f871904eeda044f91747a91f5aa3c1d26835718ade915020449e03e0829d050a89101610e30565b60005460ff16610f76576040516306fda65d60e31b815260040160405180910390fd5b6000805460ff19169055610f8861143f565b600454610f968383836116c8565b6000818152600360209081526040909120805463ffffff00191661010062ffffff85160217815585519091610fd2916001840191880190611889565b506002810180546001600160a01b038087166001600160a01b03199283161790925560038301805492861692909116919091179055805460ff19908116600190811783556004805480830182556000829052845491027f8a35acfbc15ff81a39ae7d344fd709f28e8600b4aa8c65c6b64bfe7fe36bd19b8101805460ff93909316151594831685178155855462ffffff61010091829004160263ffffff001990951663ffffffff1990931692909217939093178155908301805484937f8a35acfbc15ff81a39ae7d344fd709f28e8600b4aa8c65c6b64bfe7fe36bd19c0191906110bb90611de7565b6110c692919061190d565b5060028281015490820180546001600160a01b03199081166001600160a01b039384161790915560039384015493909201805490921692169190911790556040517ff453e064514364794ac325c56a50eb89bced7b408b5d2b047c093623e4ab253f9061113d906001908590899089908990611dc6565b60405180910390a150506000805460ff19166001179055505050565b60005460ff1661117c576040516306fda65d60e31b815260040160405180910390fd5b6000805460ff1916905561118e61143f565b6006546001600160a01b03166111cc57600654604051633e8f6f0560e01b81526001600160a01b039091166004820152336024820152604401610503565b60058054600680546001600160a01b038082166001600160a01b0319808616821790965594909116909155604080519190921680825260208201939093527fa6fd993b45f105f3b99176403c23f4df5f10600b416795ff8223ff7ad9efb4f99101610e30565b60016020818152600092835260409283902080549281015460028201546003830154865160a08101885260048501805460ff8082161515845262ffffff61010092839004811699850199909952600588018054918b169b928b049099169964010000000090046001600160a01b039081169997811698968116979516959491840191906112be90611de7565b80601f01602080910402602001604051908101604052809291908181526020018280546112ea90611de7565b80156113375780601f1061130c57610100808354040283529160200191611337565b820191906000526020600020905b81548152906001019060200180831161131a57829003601f168201915b505050918352505060028201546001600160a01b039081166020830152600390920154909116604090910152905087565b60005460ff1661138b576040516306fda65d60e31b815260040160405180910390fd5b6000805460ff1916905561139d61143f565b6007546001600160a01b03828116911614156113e35760075460405163488bf91160e01b81526001600160a01b0391821660048201529082166024820152604401610503565b600880546001600160a01b0319166001600160a01b038381169182179092556007546040805191909316815260208101919091527fab52896c865f866b2d14c9976f24fbe2d01ae3b75b6c7ab768a740edb0e22c649101610e30565b6005546001600160a01b0316336001600160a01b0316146114885760055460405163431c27f560e01b81523360048201526001600160a01b039091166024820152604401610503565b565b6001600160a01b038116600090815260016020526040902054610100900462ffffff1680156114e25760405163d1ac957b60e01b815262ffffff821660048201526001600160a01b0383166024820152604401610503565b6040805160e08101825260008082526002805462ffffff908116602080860191825285870185815260608088018781526080808a0189815260a0808c018b81528d519182018e528b82528188018c90528d518089018f528c8152828f01529481018b90529182018a905260c08b019182526001600160a01b038e81168b5260018088529a8d90208c5181549951975183166401000000000277ffffffffffffffffffffffffffffffffffffffff0000000019988c1661010090810263ffffff0019931515841663ffffffff199d8e1617179990991617825594519b810180549c83166001600160a01b03199d8e16179055915199820180549a82169a8c169a909a179099559251600384018054919099169916989098179096559551805160048801805483860151909716909302901515909616949093169390931793909317825594850151805194959394919261164292600587019290910190611889565b506060820151600282810180546001600160a01b03199081166001600160a01b03948516179091556080909401516003909301805485169383169390931790925581546001810183556000929092527f405787fa12a823e0f2b7631cc41b3ba8828b3321ca811111fa75cd3aa3bb5ace9091018054909216951694909417909355505050565b60005b81811015611883576000818152600360209081526040808320815160a081018352815460ff811615158252610100900462ffffff1693810193909352600181018054919284019161171b90611de7565b80601f016020809104026020016040519081016040528092919081815260200182805461174790611de7565b80156117945780601f1061176957610100808354040283529160200191611794565b820191906000526020600020905b81548152906001019060200180831161177757829003601f168201915b505050918352505060028201546001600160a01b0390811660208301526003909201548216604090910152606082015191925086811691161415611812576000828152600360205260409081902060020154905163b0ed3ee360e01b81526001600160a01b0391821660048201529086166024820152604401610503565b836001600160a01b031681608001516001600160a01b03161415611870576000828152600360208190526040918290200154905163056b479760e41b81526001600160a01b0391821660048201529085166024820152604401610503565b508061187b81611e22565b9150506116cb565b50505050565b82805461189590611de7565b90600052602060002090601f0160209004810192826118b757600085556118fd565b82601f106118d057805160ff19168380011785556118fd565b828001600101855582156118fd579182015b828111156118fd5782518255916020019190600101906118e2565b50611909929150611988565b5090565b82805461191990611de7565b90600052602060002090601f01602090048101928261193b57600085556118fd565b82601f1061194c57805485556118fd565b828001600101855582156118fd57600052602060002091601f016020900482015b828111156118fd57825482559160010191906001019061196d565b5b808211156119095760008155600101611989565b80356119a881611e5f565b919050565b6000602082840312156119be578081fd5b81356119c981611e5f565b9392505050565b6000602082840312156119e1578081fd5b81516119c981611e5f565b600080600080600060a08688031215611a03578081fd5b85518015158114611a12578182fd5b602087015190955062ffffff81168114611a2a578182fd5b6040870151909450611a3b81611e5f565b6060870151909350611a4c81611e5f565b6080870151909250611a5d81611e5f565b809150509295509295909350565b600060208284031215611a7c578081fd5b5051919050565b600080600060608486031215611a97578283fd5b833567ffffffffffffffff80821115611aae578485fd5b818601915086601f830112611ac1578485fd5b813581811115611ad357611ad3611e49565b604051601f8201601f19908116603f01168101908382118183101715611afb57611afb611e49565b81604052828152896020848701011115611b13578788fd5b8260208601602083013787602084830101528097505050505050611b396020850161199d565b9150611b476040850161199d565b90509250925092565b600060208284031215611b61578081fd5b5035919050565b600080600080600060a08688031215611b7f578081fd5b853594506020860135611b9181611e5f565b94979496505050506040830135926060810135926080909101359150565b60008151808452815b81811015611bd457602081850181015186830182015201611bb8565b81811115611be55782602083870101525b50601f01601f19169290920160200192915050565b8715158152600062ffffff80891660208401526001600160a01b0380891660408501528088166060850152808716608085015280861660a085015260e060c08501528451151560e0850152816020860151166101008501526040850151915060a0610120850152611c6f610180850183611baf565b6060860151821661014086015260809095015116610160909301929092525090979650505050505050565b851515815262ffffff8516602082015260a060408201526000611cc060a0830186611baf565b6001600160a01b03948516606084015292909316608090910152949350505050565b85151581526000602062ffffff87168184015260a0604084015281865483600182811c915080831680611d1657607f831692505b858310811415611d3457634e487b7160e01b87526022600452602487fd5b60a0880183905260c08801818015611d535760018114611d6457611d8e565b60ff19861682528782019650611d8e565b60008d815260209020895b86811015611d8857815484820152908501908901611d6f565b83019750505b5050506001600160a01b038916606088015250919350611dad92505050565b6001600160a01b03831660808301529695505050505050565b851515815284602082015260a060408201526000611cc060a0830186611baf565b600181811c90821680611dfb57607f821691505b60208210811415611e1c57634e487b7160e01b600052602260045260246000fd5b50919050565b6000600019821415611e4257634e487b7160e01b81526011600452602481fd5b5060010190565b634e487b7160e01b600052604160045260246000fd5b6001600160a01b0381168114611e7457600080fd5b5056fea26469706673582212201aade068fc097343b6f6104829c96248b9152bd33a34970fcf8e1f68e7b28ede64736f6c63430008040033",
  "linkReferences": {},
  "deployedLinkReferences": {}
}