{
  "_format": "hh-sol-artifact-1",
  "contractName": "CygnusFactory",
  "sourceName": "contracts/cygnus-core/CygnusFactory.sol",
  "abi": [
    {
      "inputs": [
        {
          "internalType": "address",
          "name": "_admin",
          "type": "address"
        },
        {
          "internalType": "address",
          "name": "_daoReserves",
          "type": "address"
        },
        {
          "internalType": "address",
          "name": "_usdc",
          "type": "address"
        },
        {
          "internalType": "address",
          "name": "_nativeToken",
          "type": "address"
        },
        {
          "internalType": "contract IChainlinkNebulaOracle",
          "name": "_cygnusNebulaOracle",
          "type": "address"
        }
      ],
      "stateMutability": "nonpayable",
      "type": "constructor"
    },
    {
      "inputs": [
        {
          "internalType": "address",
          "name": "newPendingAdmin",
          "type": "address"
        },
        {
          "internalType": "address",
          "name": "admin",
          "type": "address"
        }
      ],
      "name": "CygnusFactory__AdminAlreadySet",
      "type": "error"
    },
    {
      "inputs": [
        {
          "internalType": "address",
          "name": "calculatedCollateral",
          "type": "address"
        },
        {
          "internalType": "address",
          "name": "deployedCollateral",
          "type": "address"
        }
      ],
      "name": "CygnusFactory__CollateralAddressMismatch",
      "type": "error"
    },
    {
      "inputs": [
        {
          "internalType": "address",
          "name": "sender",
          "type": "address"
        },
        {
          "internalType": "address",
          "name": "admin",
          "type": "address"
        }
      ],
      "name": "CygnusFactory__CygnusAdminOnly",
      "type": "error"
    },
    {
      "inputs": [
        {
          "internalType": "address",
          "name": "priceOracle",
          "type": "address"
        },
        {
          "internalType": "address",
          "name": "newPriceOracle",
          "type": "address"
        }
      ],
      "name": "CygnusFactory__CygnusNebulaAlreadySet",
      "type": "error"
    },
    {
      "inputs": [],
      "name": "CygnusFactory__CygnusNebulaCantBeZero",
      "type": "error"
    },
    {
      "inputs": [
        {
          "internalType": "address",
          "name": "newPendingDaoReserves",
          "type": "address"
        },
        {
          "internalType": "address",
          "name": "daoReserves",
          "type": "address"
        }
      ],
      "name": "CygnusFactory__DaoReservesAlreadySet",
      "type": "error"
    },
    {
      "inputs": [],
      "name": "CygnusFactory__DaoReservesCantBeZero",
      "type": "error"
    },
    {
      "inputs": [
        {
          "internalType": "address",
          "name": "lpTokenPair",
          "type": "address"
        }
      ],
      "name": "CygnusFactory__LPTokenPairNotSupported",
      "type": "error"
    },
    {
      "inputs": [
        {
          "components": [
            {
              "internalType": "bool",
              "name": "status",
              "type": "bool"
            },
            {
              "internalType": "uint88",
              "name": "orbiterId",
              "type": "uint88"
            },
            {
              "internalType": "contract IAlbireoOrbiter",
              "name": "albireoOrbiter",
              "type": "address"
            },
            {
              "internalType": "contract IDenebOrbiter",
              "name": "denebOrbiter",
              "type": "address"
            },
            {
              "internalType": "string",
              "name": "orbiterName",
              "type": "string"
            }
          ],
          "internalType": "struct ICygnusFactory.Orbiter",
          "name": "orbiter",
          "type": "tuple"
        }
      ],
      "name": "CygnusFactory__OrbiterAlreadySet",
      "type": "error"
    },
    {
      "inputs": [
        {
          "components": [
            {
              "internalType": "bool",
              "name": "status",
              "type": "bool"
            },
            {
              "internalType": "uint88",
              "name": "orbiterId",
              "type": "uint88"
            },
            {
              "internalType": "contract IAlbireoOrbiter",
              "name": "albireoOrbiter",
              "type": "address"
            },
            {
              "internalType": "contract IDenebOrbiter",
              "name": "denebOrbiter",
              "type": "address"
            },
            {
              "internalType": "string",
              "name": "orbiterName",
              "type": "string"
            }
          ],
          "internalType": "struct ICygnusFactory.Orbiter",
          "name": "orbiter",
          "type": "tuple"
        }
      ],
      "name": "CygnusFactory__OrbitersAreInactive",
      "type": "error"
    },
    {
      "inputs": [
        {
          "internalType": "uint256",
          "name": "orbiterId",
          "type": "uint256"
        }
      ],
      "name": "CygnusFactory__OrbitersNotSet",
      "type": "error"
    },
    {
      "inputs": [
        {
          "internalType": "address",
          "name": "newPendingAdmin",
          "type": "address"
        },
        {
          "internalType": "address",
          "name": "pendingAdmin",
          "type": "address"
        }
      ],
      "name": "CygnusFactory__PendingAdminAlreadySet",
      "type": "error"
    },
    {
      "inputs": [],
      "name": "CygnusFactory__PendingAdminCantBeZero",
      "type": "error"
    },
    {
      "inputs": [
        {
          "internalType": "address",
          "name": "newPendingDaoReserves",
          "type": "address"
        },
        {
          "internalType": "address",
          "name": "pendingDaoReserves",
          "type": "address"
        }
      ],
      "name": "CygnusFactory__PendingDaoReservesAlreadySet",
      "type": "error"
    },
    {
      "inputs": [
        {
          "internalType": "uint256",
          "name": "id",
          "type": "uint256"
        },
        {
          "internalType": "address",
          "name": "lpTokenPair",
          "type": "address"
        }
      ],
      "name": "CygnusFactory__ShuttleAlreadyDeployed",
      "type": "error"
    },
    {
      "inputs": [],
      "name": "ReentrantCall",
      "type": "error"
    },
    {
      "anonymous": false,
      "inputs": [
        {
          "indexed": false,
          "internalType": "bool",
          "name": "status",
          "type": "bool"
        },
        {
          "indexed": false,
          "internalType": "uint256",
          "name": "orbitersLength",
          "type": "uint256"
        },
        {
          "indexed": false,
          "internalType": "contract IAlbireoOrbiter",
          "name": "borrowOrbiter",
          "type": "address"
        },
        {
          "indexed": false,
          "internalType": "contract IDenebOrbiter",
          "name": "denebOrbiter",
          "type": "address"
        },
        {
          "indexed": false,
          "internalType": "string",
          "name": "orbitersName",
          "type": "string"
        }
      ],
      "name": "InitializeOrbiters",
      "type": "event"
    },
    {
      "anonymous": false,
      "inputs": [
        {
          "indexed": false,
          "internalType": "address",
          "name": "oldAdmin",
          "type": "address"
        },
        {
          "indexed": false,
          "internalType": "address",
          "name": "newAdmin",
          "type": "address"
        }
      ],
      "name": "NewCygnusAdmin",
      "type": "event"
    },
    {
      "anonymous": false,
      "inputs": [
        {
          "indexed": false,
          "internalType": "contract IChainlinkNebulaOracle",
          "name": "oldCygnusNebula",
          "type": "address"
        },
        {
          "indexed": false,
          "internalType": "contract IChainlinkNebulaOracle",
          "name": "newCygnusNebula",
          "type": "address"
        }
      ],
      "name": "NewCygnusNebulaOracle",
      "type": "event"
    },
    {
      "anonymous": false,
      "inputs": [
        {
          "indexed": false,
          "internalType": "address",
          "name": "oldDaoReserves",
          "type": "address"
        },
        {
          "indexed": false,
          "internalType": "address",
          "name": "daoReserves",
          "type": "address"
        }
      ],
      "name": "NewDaoReserves",
      "type": "event"
    },
    {
      "anonymous": false,
      "inputs": [
        {
          "indexed": false,
          "internalType": "address",
          "name": "pendingAdmin",
          "type": "address"
        },
        {
          "indexed": false,
          "internalType": "address",
          "name": "_admin",
          "type": "address"
        }
      ],
      "name": "NewPendingCygnusAdmin",
      "type": "event"
    },
    {
      "anonymous": false,
      "inputs": [
        {
          "indexed": false,
          "internalType": "address",
          "name": "oldPendingdaoReservesContract",
          "type": "address"
        },
        {
          "indexed": false,
          "internalType": "address",
          "name": "newPendingdaoReservesContract",
          "type": "address"
        }
      ],
      "name": "NewPendingDaoReserves",
      "type": "event"
    },
    {
      "anonymous": false,
      "inputs": [
        {
          "indexed": true,
          "internalType": "address",
          "name": "lpTokenPair",
          "type": "address"
        },
        {
          "indexed": true,
          "internalType": "uint256",
          "name": "shuttleId",
          "type": "uint256"
        },
        {
          "indexed": false,
          "internalType": "uint256",
          "name": "orbiterId",
          "type": "uint256"
        },
        {
          "indexed": false,
          "internalType": "address",
          "name": "borrowable",
          "type": "address"
        },
        {
          "indexed": false,
          "internalType": "address",
          "name": "collateral",
          "type": "address"
        }
      ],
      "name": "NewShuttleLaunched",
      "type": "event"
    },
    {
      "anonymous": false,
      "inputs": [
        {
          "indexed": false,
          "internalType": "bool",
          "name": "status",
          "type": "bool"
        },
        {
          "indexed": false,
          "internalType": "uint256",
          "name": "orbiterId",
          "type": "uint256"
        },
        {
          "indexed": false,
          "internalType": "contract IAlbireoOrbiter",
          "name": "albireoOrbiter",
          "type": "address"
        },
        {
          "indexed": false,
          "internalType": "contract IDenebOrbiter",
          "name": "denebOrbiter",
          "type": "address"
        },
        {
          "indexed": false,
          "internalType": "string",
          "name": "orbiterName",
          "type": "string"
        }
      ],
      "name": "SwitchOrbiterStatus",
      "type": "event"
    },
    {
      "inputs": [],
      "name": "admin",
      "outputs": [
        {
          "internalType": "address",
          "name": "",
          "type": "address"
        }
      ],
      "stateMutability": "view",
      "type": "function"
    },
    {
      "inputs": [
        {
          "internalType": "uint256",
          "name": "",
          "type": "uint256"
        }
      ],
      "name": "allOrbiters",
      "outputs": [
        {
          "internalType": "bool",
          "name": "status",
          "type": "bool"
        },
        {
          "internalType": "uint88",
          "name": "orbiterId",
          "type": "uint88"
        },
        {
          "internalType": "contract IAlbireoOrbiter",
          "name": "albireoOrbiter",
          "type": "address"
        },
        {
          "internalType": "contract IDenebOrbiter",
          "name": "denebOrbiter",
          "type": "address"
        },
        {
          "internalType": "string",
          "name": "orbiterName",
          "type": "string"
        }
      ],
      "stateMutability": "view",
      "type": "function"
    },
    {
      "inputs": [
        {
          "internalType": "uint256",
          "name": "",
          "type": "uint256"
        }
      ],
      "name": "allShuttles",
      "outputs": [
        {
          "internalType": "bool",
          "name": "launched",
          "type": "bool"
        },
        {
          "internalType": "uint88",
          "name": "shuttleId",
          "type": "uint88"
        },
        {
          "internalType": "address",
          "name": "borrowable",
          "type": "address"
        },
        {
          "internalType": "address",
          "name": "collateral",
          "type": "address"
        },
        {
          "internalType": "uint96",
          "name": "orbiterId",
          "type": "uint96"
        }
      ],
      "stateMutability": "view",
      "type": "function"
    },
    {
      "inputs": [],
      "name": "cygnusNebulaOracle",
      "outputs": [
        {
          "internalType": "contract IChainlinkNebulaOracle",
          "name": "",
          "type": "address"
        }
      ],
      "stateMutability": "view",
      "type": "function"
    },
    {
      "inputs": [],
      "name": "daoReserves",
      "outputs": [
        {
          "internalType": "address",
          "name": "",
          "type": "address"
        }
      ],
      "stateMutability": "view",
      "type": "function"
    },
    {
      "inputs": [
        {
          "internalType": "address",
          "name": "lpTokenPair",
          "type": "address"
        },
        {
          "internalType": "uint256",
          "name": "orbiterId",
          "type": "uint256"
        },
        {
          "internalType": "uint256",
          "name": "baseRate",
          "type": "uint256"
        },
        {
          "internalType": "uint256",
          "name": "multiplier",
          "type": "uint256"
        }
      ],
      "name": "deployShuttle",
      "outputs": [
        {
          "internalType": "address",
          "name": "borrowable",
          "type": "address"
        },
        {
          "internalType": "address",
          "name": "collateral",
          "type": "address"
        }
      ],
      "stateMutability": "nonpayable",
      "type": "function"
    },
    {
      "inputs": [
        {
          "internalType": "uint256",
          "name": "",
          "type": "uint256"
        }
      ],
      "name": "getOrbiters",
      "outputs": [
        {
          "internalType": "bool",
          "name": "status",
          "type": "bool"
        },
        {
          "internalType": "uint88",
          "name": "orbiterId",
          "type": "uint88"
        },
        {
          "internalType": "contract IAlbireoOrbiter",
          "name": "albireoOrbiter",
          "type": "address"
        },
        {
          "internalType": "contract IDenebOrbiter",
          "name": "denebOrbiter",
          "type": "address"
        },
        {
          "internalType": "string",
          "name": "orbiterName",
          "type": "string"
        }
      ],
      "stateMutability": "view",
      "type": "function"
    },
    {
      "inputs": [
        {
          "internalType": "address",
          "name": "",
          "type": "address"
        },
        {
          "internalType": "uint256",
          "name": "",
          "type": "uint256"
        }
      ],
      "name": "getShuttles",
      "outputs": [
        {
          "internalType": "bool",
          "name": "launched",
          "type": "bool"
        },
        {
          "internalType": "uint88",
          "name": "shuttleId",
          "type": "uint88"
        },
        {
          "internalType": "address",
          "name": "borrowable",
          "type": "address"
        },
        {
          "internalType": "address",
          "name": "collateral",
          "type": "address"
        },
        {
          "internalType": "uint96",
          "name": "orbiterId",
          "type": "uint96"
        }
      ],
      "stateMutability": "view",
      "type": "function"
    },
    {
      "inputs": [
        {
          "internalType": "string",
          "name": "orbiterName",
          "type": "string"
        },
        {
          "internalType": "contract IAlbireoOrbiter",
          "name": "albireoOrbiter",
          "type": "address"
        },
        {
          "internalType": "contract IDenebOrbiter",
          "name": "denebOrbiter",
          "type": "address"
        }
      ],
      "name": "initializeOrbiter",
      "outputs": [],
      "stateMutability": "nonpayable",
      "type": "function"
    },
    {
      "inputs": [],
      "name": "nativeToken",
      "outputs": [
        {
          "internalType": "address",
          "name": "",
          "type": "address"
        }
      ],
      "stateMutability": "view",
      "type": "function"
    },
    {
      "inputs": [],
      "name": "orbitersDeployed",
      "outputs": [
        {
          "internalType": "uint256",
          "name": "",
          "type": "uint256"
        }
      ],
      "stateMutability": "view",
      "type": "function"
    },
    {
      "inputs": [],
      "name": "pendingAdmin",
      "outputs": [
        {
          "internalType": "address",
          "name": "",
          "type": "address"
        }
      ],
      "stateMutability": "view",
      "type": "function"
    },
    {
      "inputs": [],
      "name": "pendingDaoReserves",
      "outputs": [
        {
          "internalType": "address",
          "name": "",
          "type": "address"
        }
      ],
      "stateMutability": "view",
      "type": "function"
    },
    {
      "inputs": [],
      "name": "setNewCygnusAdmin",
      "outputs": [],
      "stateMutability": "nonpayable",
      "type": "function"
    },
    {
      "inputs": [],
      "name": "setNewDaoReserves",
      "outputs": [],
      "stateMutability": "nonpayable",
      "type": "function"
    },
    {
      "inputs": [
        {
          "internalType": "address",
          "name": "newPriceOracle",
          "type": "address"
        }
      ],
      "name": "setNewNebulaOracle",
      "outputs": [],
      "stateMutability": "nonpayable",
      "type": "function"
    },
    {
      "inputs": [
        {
          "internalType": "address",
          "name": "newPendingAdmin",
          "type": "address"
        }
      ],
      "name": "setPendingAdmin",
      "outputs": [],
      "stateMutability": "nonpayable",
      "type": "function"
    },
    {
      "inputs": [
        {
          "internalType": "address",
          "name": "newPendingDaoReserves",
          "type": "address"
        }
      ],
      "name": "setPendingDaoReserves",
      "outputs": [],
      "stateMutability": "nonpayable",
      "type": "function"
    },
    {
      "inputs": [],
      "name": "shuttlesDeployed",
      "outputs": [
        {
          "internalType": "uint256",
          "name": "",
          "type": "uint256"
        }
      ],
      "stateMutability": "view",
      "type": "function"
    },
    {
      "inputs": [
        {
          "internalType": "uint256",
          "name": "orbiterId",
          "type": "uint256"
        }
      ],
      "name": "switchOrbiterStatus",
      "outputs": [],
      "stateMutability": "nonpayable",
      "type": "function"
    },
    {
      "inputs": [],
      "name": "usdc",
      "outputs": [
        {
          "internalType": "address",
          "name": "",
          "type": "address"
        }
      ],
      "stateMutability": "view",
      "type": "function"
    }
  ],
  "bytecode": "0x60c06040523480156200001157600080fd5b5060405162001ebb38038062001ebb83398101604081905262000034916200015f565b6000805460ff19166001178155600580546001600160a01b038881166001600160a01b03199283168117909355600780548983169084161790556001600160601b0319606087811b821660a05288901b1660805260098054918616919092161790556040805192835260208301919091527fa6fd993b45f105f3b99176403c23f4df5f10600b416795ff8223ff7ad9efb4f9910160405180910390a160408051600081526001600160a01b03861660208201527fdc45b28468284159445ec8588dd4c555fc01ed3c9e7b3b6fd371be486f77913b910160405180910390a160408051600081526001600160a01b03831660208201527f284cdaacb3a25e3bd44bd42bd75506b1828e6b1228159e572b638cfa9e4e8f2a910160405180910390a15050505050620001f7565b600080600080600060a0868803121562000177578081fd5b85516200018481620001de565b60208701519095506200019781620001de565b6040870151909450620001aa81620001de565b6060870151909350620001bd81620001de565b6080870151909250620001d081620001de565b809150509295509295909350565b6001600160a01b0381168114620001f457600080fd5b50565b60805160601c60a05160601c611c916200022a600039600061038201526000818161021c0152610d040152611c916000f3fe608060405234801561001057600080fd5b50600436106101475760003560e01c806380ffbb88116100c8578063d935bd921161008c578063ea191e9f11610066578063ea191e9f146103a4578063ec84a5cb146103ac578063f851a440146103bf57600080fd5b8063d935bd9214610357578063daa3bc011461036a578063e1758bd81461037d57600080fd5b806380ffbb881461028a578063883fd1c91461029c5780639861a14f146102a4578063a5d29318146102b7578063c40d26101461032457600080fd5b80633e413bee1161010f5780633e413bee146102175780634a8d6b161461023e5780634dd18bf514610251578063502b512e146102645780635b068af81461027757600080fd5b80631ad4c8c31461014c5780631c629f9a146101ab57806326782247146101c0578063269a2ce4146101eb5780632f94f7bf1461020f575b600080fd5b61015f61015a36600461199f565b6103d2565b6040805195151586526001600160581b0390941660208601526001600160a01b03928316938501939093521660608301526001600160601b0316608082015260a0015b60405180910390f35b6101be6101b93660046118d2565b610439565b005b6006546101d3906001600160a01b031681565b6040516001600160a01b0390911681526020016101a2565b6101fe6101f936600461199f565b610635565b6040516101a2959493929190611a47565b6101be61071c565b6101d37f000000000000000000000000000000000000000000000000000000000000000081565b6101be61024c366004611797565b6107ba565b6101be61025f366004611797565b610895565b6101fe61027236600461199f565b610983565b6007546101d3906001600160a01b031681565b6004545b6040519081526020016101a2565b6101be6109d5565b6008546101d3906001600160a01b031681565b61015f6102c53660046117d6565b60036020908152600092835260408084209091529082529020805460019091015460ff8216916001600160581b03610100820416916001600160a01b03600160601b9092048216918116906001600160601b03600160a01b9091041685565b610337610332366004611801565b610a6c565b604080516001600160a01b039384168152929091166020830152016101a2565b6009546101d3906001600160a01b031681565b6101be610378366004611797565b6110f7565b6101d37f000000000000000000000000000000000000000000000000000000000000000081565b60025461028e565b6101be6103ba36600461199f565b6111e5565b6005546101d3906001600160a01b031681565b600481815481106103e257600080fd5b60009182526020909120600290910201805460019091015460ff8216925061010082046001600160581b031691600160601b90046001600160a01b039081169190811690600160a01b90046001600160601b031685565b6002546104478383836112b9565b600081815260016020908152604090912080546bffffffffffffffffffffff00191662ffffff8416610100021781558551909161048b916002840191880190611673565b508054600180830180546001600160a01b038781166001600160a01b031992831617835560ff19818a16600160601b90810282166bffffffffffffffffffffff0090971696909617851787556002805495860181556000819052875460039096027f405787fa12a823e0f2b7631cc41b3ba8828b3321ca811111fa75cd3aa3bb5ace8101805460ff9890981615159388168417815589546001600160581b036101009182900416026bffffffffffffffffffffff00199094166bffffffffffffffffffffffff19989098169790971792909217808755885488900484169097026001600160601b039790971696909617855592547f405787fa12a823e0f2b7631cc41b3ba8828b3321ca811111fa75cd3aa3bb5acf840180549093169116179055918301805484937f405787fa12a823e0f2b7631cc41b3ba8828b3321ca811111fa75cd3aa3bb5ad00191906105e090611bcb565b6105eb9291906116f7565b5050507fa562695ada2033583e79c83cd7b03be58d941e5d8998aa63a6751cf09370f983600183868689604051610626959493929190611a02565b60405180910390a15050505050565b6002818154811061064557600080fd5b600091825260209091206003909102018054600182015460028301805460ff8416955061010084046001600160581b031694600160601b9094046001600160a01b0390811694931692919061069990611bcb565b80601f01602080910402602001604051908101604052809291908181526020018280546106c590611bcb565b80156107125780601f106106e757610100808354040283529160200191610712565b820191906000526020600020905b8154815290600101906020018083116106f557829003601f168201915b5050505050905085565b6107246114e7565b6008546001600160a01b031661074d5760405163bb2a93a160e01b815260040160405180910390fd5b60078054600880546001600160a01b038082166001600160a01b0319808616821790965594909116909155604080519190921680825260208201939093527fdc45b28468284159445ec8588dd4c555fc01ed3c9e7b3b6fd371be486f77913b91015b60405180910390a150565b6107c26114e7565b6001600160a01b0381166107e957604051630a17bbd160e01b815260040160405180910390fd5b6009546001600160a01b038281169116141561083357600954604051620977bb60eb1b81526001600160a01b03918216600482015290821660248201526044015b60405180910390fd5b600980546001600160a01b038381166001600160a01b031983168117909355604080519190921680825260208201939093527f284cdaacb3a25e3bd44bd42bd75506b1828e6b1228159e572b638cfa9e4e8f2a91015b60405180910390a15050565b61089d6114e7565b6005546001600160a01b03828116911614156108e35760055460405163c3226b7360e01b81526001600160a01b038084166004830152909116602482015260440161082a565b6006546001600160a01b038281169116141561092957600654604051636a2c5aeb60e01b81526001600160a01b038084166004830152909116602482015260440161082a565b600680546001600160a01b038381166001600160a01b031983168117909355604080519190921680825260208201939093527f2df3edf32bd243b7fb5e2d31673b2c1e842eff07d227e05d34b5135021a168389101610889565b600160208190526000918252604090912080549181015460028201805460ff85169461010081046001600160581b031694600160601b9091046001600160a01b03908116941692909161069990611bcb565b6109dd6114e7565b6006546001600160a01b0316610a0657604051633e2b53a560e01b815260040160405180910390fd5b60058054600680546001600160a01b038082166001600160a01b0319808616821790965594909116909155604080519190921680825260208201939093527fa6fd993b45f105f3b99176403c23f4df5f10600b416795ff8223ff7ad9efb4f991016107af565b60008054819060ff16610a92576040516306fda65d60e31b815260040160405180910390fd5b6000805460ff19168155858152600160208181526040808420815160a081018352815460ff81161515825261010081046001600160581b031694820194909452600160601b9093046001600160a01b039081169284019290925292830154166060820152600282018054919291608084019190610b0e90611bcb565b80601f0160208091040260200160405190810160405280929190818152602001828054610b3a90611bcb565b8015610b875780601f10610b5c57610100808354040283529160200191610b87565b820191906000526020600020905b815481529060010190602001808311610b6a57829003601f168201915b50505050508152505090508060000151610bb6578060405163c6bb66bb60e01b815260040161082a9190611b66565b6000610bc28883611532565b90506000610cee8930856060015186606001516001600160a01b03166310df4f526040518163ffffffff1660e01b815260040160206040518083038186803b158015610c0d57600080fd5b505afa158015610c21573d6000803e3d6000fd5b505050506040513d601f19601f82011682018060405250810190610c4591906118ba565b604080516001600160a01b0386811660208084019190915290861682840152825180830384018152606080840190945280519101207fff0000000000000000000000000000000000000000000000000000000000000060808301529184901b6bffffffffffffffffffffffff19166081820152609581019190915260b5810182905260009060d50160408051601f19818403018152919052805160209091012095945050505050565b60408481015184549151630f0699ab60e21b81527f00000000000000000000000000000000000000000000000000000000000000006001600160a01b03908116600483015280851660248301526101009093046001600160581b03166044820152606481018b9052608481018a90529293501690633c1a66ac9060a401602060405180830381600087803b158015610d8557600080fd5b505af1158015610d99573d6000803e3d6000fd5b505050506040513d601f19601f82011682018060405250810190610dbd91906117ba565b60608401518354604051637705e69f60e01b81526001600160a01b038d8116600483015280851660248301526101009092046001600160581b031660448201529297501690637705e69f90606401602060405180830381600087803b158015610e2557600080fd5b505af1158015610e39573d6000803e3d6000fd5b505050506040513d601f19601f82011682018060405250810190610e5d91906117ba565b9350806001600160a01b0316846001600160a01b031614610ea4576040516305048e8760e11b81526001600160a01b0380831660048301528516602482015260440161082a565b600954604051633c2b103160e21b81526001600160a01b038b81166004830152600092169063f0ac40c49060240160a06040518083038186803b158015610eea57600080fd5b505afa158015610efe573d6000803e3d6000fd5b505050506040513d601f19601f82011682018060405250810190610f22919061183b565b50505050905080610f5157604051633c56810b60e21b81526001600160a01b038b16600482015260240161082a565b82546001600160a01b03808816600160601b9081026bffffffffffffffffffffff00909316929092176001908117865585810180548984166001600160a01b0319918216178255600480549384018155600052875460029093027f8a35acfbc15ff81a39ae7d344fd709f28e8600b4aa8c65c6b64bfe7fe36bd19b8101805460ff95909516151560ff198616811782558a546001600160581b0361010091829004811682026bffffffffffffffffffffff00199093166bffffffffffffffffffffffff199890981697909717919091178083558b54899004881689026001600160601b039182161790925584547f8a35acfbc15ff81a39ae7d344fd709f28e8600b4aa8c65c6b64bfe7fe36bd19c909301805490941692871692831784558454600160a01b90819004909216909102909117909155875491546040805192840490941682529490910483166020820152928216908301528a91908c16907f4394226f473746a35ef04ab867e6204c0e1510ef4c40c079a2e8061415269f999060600160405180910390a350506000805460ff191660011790555091969095509350505050565b6110ff6114e7565b6007546001600160a01b038281169116141561114557600754604051630a502a8f60e21b81526001600160a01b038084166004830152909116602482015260440161082a565b6008546001600160a01b038281169116141561118b5760085460405163a056f77f60e01b81526001600160a01b038084166004830152909116602482015260440161082a565b600880546001600160a01b038381166001600160a01b031983168117909355604080519190921680825260208201939093527f3af6d72823f6692d6673266dabbf4e3165600dcf901b0188c596fe7dad74caf39101610889565b6111ed6114e7565b6000818152600160208190526040909120908101546001600160a01b0316158061122657508054600160601b90046001600160a01b0316155b15611247576040516308e1f4c960e01b81526004810183905260240161082a565b805460ff19811660ff9182161590811780845560018401546040517f3a23a6fdafdcd184715cc363b2dcefad97be8b3a659d21faa90068b3b4d5c749946108899416926001600160581b03610100820416926001600160a01b03600160601b9092048216929116906002880190611a8a565b60006002805480602002602001604051908101604052809291908181526020016000905b828210156113ee5760008481526020908190206040805160a08101825260038602909201805460ff81161515845261010081046001600160581b031694840194909452600160601b9093046001600160a01b0390811691830191909152600183015416606082015260028201805491929160808401919061135d90611bcb565b80601f016020809104026020016040519081016040528092919081815260200182805461138990611bcb565b80156113d65780601f106113ab576101008083540402835291602001916113d6565b820191906000526020600020905b8154815290600101906020018083116113b957829003601f168201915b505050505081525050815260200190600101906112dd565b50505050905060005b828110156114e057836001600160a01b031682828151811061142957634e487b7160e01b600052603260045260246000fd5b6020026020010151606001516001600160a01b03161480156114875750846001600160a01b031682828151811061147057634e487b7160e01b600052603260045260246000fd5b6020026020010151604001516001600160a01b0316145b156114ce578181815181106114ac57634e487b7160e01b600052603260045260246000fd5b6020026020010151604051633d43c5c760e01b815260040161082a9190611b66565b806114d881611c06565b9150506113f7565b5050505050565b6005546001600160a01b0316336001600160a01b0316146115305760055460405163431c27f560e01b81523360048201526001600160a01b03909116602482015260440161082a565b565b6001600160a01b0382166000908152600360209081526040808320848301516001600160581b0390811685529252822054610100900416801561159a576040516308ed2bfd60e11b8152600481018290526001600160a01b038516602482015260440161082a565b50506040805160a08101825260008082526004546001600160581b0390811660208085019182528486018481526060860185815288830180518616608089019081526001600160a01b038c81168952600386528a8920925188168952919094529790952095518654935191518816600160601b0291909416610100026bffffffffffffffffffffff0019941515949094166bffffffffffffffffffffffff1990931692909217929092176001600160601b0390811691909117845591519051909116600160a01b02921691909117600182015592915050565b82805461167f90611bcb565b90600052602060002090601f0160209004810192826116a157600085556116e7565b82601f106116ba57805160ff19168380011785556116e7565b828001600101855582156116e7579182015b828111156116e75782518255916020019190600101906116cc565b506116f3929150611772565b5090565b82805461170390611bcb565b90600052602060002090601f01602090048101928261172557600085556116e7565b82601f1061173657805485556116e7565b828001600101855582156116e757600052602060002091601f016020900482015b828111156116e7578254825591600101919060010190611757565b5b808211156116f35760008155600101611773565b803561179281611c43565b919050565b6000602082840312156117a8578081fd5b81356117b381611c43565b9392505050565b6000602082840312156117cb578081fd5b81516117b381611c43565b600080604083850312156117e8578081fd5b82356117f381611c43565b946020939093013593505050565b60008060008060808587031215611816578182fd5b843561182181611c43565b966020860135965060408601359560600135945092505050565b600080600080600060a08688031215611852578081fd5b85518015158114611861578182fd5b602087015190955062ffffff81168114611879578182fd5b604087015190945061188a81611c43565b606087015190935061189b81611c43565b60808701519092506118ac81611c43565b809150509295509295909350565b6000602082840312156118cb578081fd5b5051919050565b6000806000606084860312156118e6578283fd5b833567ffffffffffffffff808211156118fd578485fd5b818601915086601f830112611910578485fd5b81358181111561192257611922611c2d565b604051601f8201601f19908116603f0116810190838211818310171561194a5761194a611c2d565b81604052828152896020848701011115611962578788fd5b826020860160208301378760208483010152809750505050505061198860208501611787565b915061199660408501611787565b90509250925092565b6000602082840312156119b0578081fd5b5035919050565b60008151808452815b818110156119dc576020818501810151868301820152016119c0565b818111156119ed5782602083870101525b50601f01601f19169290920160200192915050565b851515815284602082015260006001600160a01b03808616604084015280851660608401525060a06080830152611a3c60a08301846119b7565b979650505050505050565b85151581526001600160581b038516602082015260006001600160a01b03808616604084015280851660608401525060a06080830152611a3c60a08301846119b7565b8515158152600060206001600160581b038716818401526001600160a01b03808716604085015280861660608501525060a0608084015281845483600182811c915080831680611adb57607f831692505b858310811415611af957634e487b7160e01b87526022600452602487fd5b60a0880183905260c08801818015611b185760018114611b2957611b53565b60ff19861682528782019650611b53565b60008b815260209020895b86811015611b4d57815484820152908501908901611b34565b83019750505b50949d9c50505050505050505050505050565b602081528151151560208201526001600160581b036020830151166040820152600060408301516001600160a01b0380821660608501528060608601511660808501525050608083015160a080840152611bc360c08401826119b7565b949350505050565b600181811c90821680611bdf57607f821691505b60208210811415611c0057634e487b7160e01b600052602260045260246000fd5b50919050565b6000600019821415611c2657634e487b7160e01b81526011600452602481fd5b5060010190565b634e487b7160e01b600052604160045260246000fd5b6001600160a01b0381168114611c5857600080fd5b5056fea264697066735822122043c794e558f2858f073d1fed787ff3fc3d656e04d1d6cbfe511d22071d75637064736f6c63430008040033",
  "linkReferences": {},
  "deployedLinkReferences": {}
}