{
  "_format": "hh-sol-artifact-1",
  "contractName": "CygnusCollateralVoid",
  "sourceName": "contracts/cygnus-core/CygnusCollateralVoid.sol",
  "abi": [
    {
      "inputs": [],
      "stateMutability": "nonpayable",
      "type": "constructor"
    },
    {
      "inputs": [
        {
          "internalType": "address",
          "name": "sender",
          "type": "address"
        },
        {
          "internalType": "address",
          "name": "origin",
          "type": "address"
        }
      ],
      "name": "CygnusCollateralChef__OnlyEOAAllowed",
      "type": "error"
    },
    {
      "inputs": [
        {
          "internalType": "address",
          "name": "tokenReward",
          "type": "address"
        }
      ],
      "name": "CygnusCollateralChef__VoidAlreadyInitialized",
      "type": "error"
    },
    {
      "inputs": [
        {
          "internalType": "address",
          "name": "currentOracle",
          "type": "address"
        },
        {
          "internalType": "address",
          "name": "newOracle",
          "type": "address"
        }
      ],
      "name": "CygnusCollateralControl__CygnusOracleAlreadySet",
      "type": "error"
    },
    {
      "inputs": [
        {
          "internalType": "uint256",
          "name": "minRange",
          "type": "uint256"
        },
        {
          "internalType": "uint256",
          "name": "maxRange",
          "type": "uint256"
        },
        {
          "internalType": "uint256",
          "name": "value",
          "type": "uint256"
        }
      ],
      "name": "CygnusCollateralControl__ParameterNotInRange",
      "type": "error"
    },
    {
      "inputs": [],
      "name": "CygnusCollateralControl__VoidCantBeZero",
      "type": "error"
    },
    {
      "inputs": [
        {
          "internalType": "address",
          "name": "sender",
          "type": "address"
        },
        {
          "internalType": "address",
          "name": "origin",
          "type": "address"
        }
      ],
      "name": "CygnusCollateralVoid__NotNativeTokenSender",
      "type": "error"
    },
    {
      "inputs": [
        {
          "internalType": "uint256",
          "name": "",
          "type": "uint256"
        }
      ],
      "name": "CygnusTerminal__CantMintZero",
      "type": "error"
    },
    {
      "inputs": [
        {
          "internalType": "uint256",
          "name": "",
          "type": "uint256"
        }
      ],
      "name": "CygnusTerminal__CantRedeemZero",
      "type": "error"
    },
    {
      "inputs": [
        {
          "internalType": "address",
          "name": "caller",
          "type": "address"
        },
        {
          "internalType": "address",
          "name": "factoryAdmin",
          "type": "address"
        }
      ],
      "name": "CygnusTerminal__MsgSenderNotAdmin",
      "type": "error"
    },
    {
      "inputs": [
        {
          "internalType": "address",
          "name": "",
          "type": "address"
        }
      ],
      "name": "CygnusTerminal__MsgSenderNotFactory",
      "type": "error"
    },
    {
      "inputs": [
        {
          "internalType": "uint256",
          "name": "invalidAmount",
          "type": "uint256"
        },
        {
          "internalType": "uint256",
          "name": "contractBalance",
          "type": "uint256"
        }
      ],
      "name": "CygnusTerminal__RedeemAmountInvalid",
      "type": "error"
    },
    {
      "inputs": [
        {
          "internalType": "uint8",
          "name": "v",
          "type": "uint8"
        },
        {
          "internalType": "bytes32",
          "name": "r",
          "type": "bytes32"
        },
        {
          "internalType": "bytes32",
          "name": "s",
          "type": "bytes32"
        }
      ],
      "name": "Erc20Permit__InvalidSignature",
      "type": "error"
    },
    {
      "inputs": [],
      "name": "Erc20Permit__OwnerZeroAddress",
      "type": "error"
    },
    {
      "inputs": [
        {
          "internalType": "uint256",
          "name": "deadline",
          "type": "uint256"
        }
      ],
      "name": "Erc20Permit__PermitExpired",
      "type": "error"
    },
    {
      "inputs": [],
      "name": "Erc20Permit__RecoveredOwnerZeroAddress",
      "type": "error"
    },
    {
      "inputs": [],
      "name": "Erc20Permit__SpenderZeroAddress",
      "type": "error"
    },
    {
      "inputs": [],
      "name": "Erc20__ApproveOwnerZeroAddress",
      "type": "error"
    },
    {
      "inputs": [],
      "name": "Erc20__ApproveSpenderZeroAddress",
      "type": "error"
    },
    {
      "inputs": [
        {
          "internalType": "uint256",
          "name": "accountBalance",
          "type": "uint256"
        },
        {
          "internalType": "uint256",
          "name": "burnAmount",
          "type": "uint256"
        }
      ],
      "name": "Erc20__BurnUnderflow",
      "type": "error"
    },
    {
      "inputs": [],
      "name": "Erc20__BurnZeroAddress",
      "type": "error"
    },
    {
      "inputs": [
        {
          "internalType": "uint256",
          "name": "allowance",
          "type": "uint256"
        },
        {
          "internalType": "uint256",
          "name": "amount",
          "type": "uint256"
        }
      ],
      "name": "Erc20__InsufficientAllowance",
      "type": "error"
    },
    {
      "inputs": [
        {
          "internalType": "uint256",
          "name": "senderBalance",
          "type": "uint256"
        },
        {
          "internalType": "uint256",
          "name": "amount",
          "type": "uint256"
        }
      ],
      "name": "Erc20__InsufficientBalance",
      "type": "error"
    },
    {
      "inputs": [],
      "name": "Erc20__MintZeroAddress",
      "type": "error"
    },
    {
      "inputs": [],
      "name": "Erc20__TransferRecipientZeroAddress",
      "type": "error"
    },
    {
      "inputs": [],
      "name": "Erc20__TransferSenderZeroAddress",
      "type": "error"
    },
    {
      "inputs": [
        {
          "internalType": "uint256",
          "name": "prod1",
          "type": "uint256"
        }
      ],
      "name": "PRBMath__MulDivFixedPointOverflow",
      "type": "error"
    },
    {
      "inputs": [
        {
          "internalType": "uint256",
          "name": "prod1",
          "type": "uint256"
        },
        {
          "internalType": "uint256",
          "name": "denominator",
          "type": "uint256"
        }
      ],
      "name": "PRBMath__MulDivOverflow",
      "type": "error"
    },
    {
      "inputs": [],
      "name": "ReentrantCall",
      "type": "error"
    },
    {
      "inputs": [
        {
          "internalType": "address",
          "name": "target",
          "type": "address"
        }
      ],
      "name": "SafeErc20__CallToNonContract",
      "type": "error"
    },
    {
      "inputs": [],
      "name": "SafeErc20__NoReturnData",
      "type": "error"
    },
    {
      "anonymous": false,
      "inputs": [
        {
          "indexed": true,
          "internalType": "address",
          "name": "owner",
          "type": "address"
        },
        {
          "indexed": true,
          "internalType": "address",
          "name": "spender",
          "type": "address"
        },
        {
          "indexed": false,
          "internalType": "uint256",
          "name": "amount",
          "type": "uint256"
        }
      ],
      "name": "Approval",
      "type": "event"
    },
    {
      "anonymous": false,
      "inputs": [
        {
          "indexed": false,
          "internalType": "contract IDexRouter02",
          "name": "_dexRouter",
          "type": "address"
        },
        {
          "indexed": false,
          "internalType": "contract IMiniChef",
          "name": "_rewarder",
          "type": "address"
        },
        {
          "indexed": false,
          "internalType": "address",
          "name": "_rewardsToken",
          "type": "address"
        },
        {
          "indexed": false,
          "internalType": "uint256",
          "name": "_pid",
          "type": "uint256"
        },
        {
          "indexed": false,
          "internalType": "uint256",
          "name": "_swapFeeFactor",
          "type": "uint256"
        }
      ],
      "name": "ChargeVoid",
      "type": "event"
    },
    {
      "anonymous": false,
      "inputs": [
        {
          "indexed": true,
          "internalType": "address",
          "name": "sender",
          "type": "address"
        },
        {
          "indexed": true,
          "internalType": "address",
          "name": "minter",
          "type": "address"
        },
        {
          "indexed": false,
          "internalType": "uint256",
          "name": "mintAmount",
          "type": "uint256"
        },
        {
          "indexed": false,
          "internalType": "uint256",
          "name": "poolTokens",
          "type": "uint256"
        }
      ],
      "name": "Mint",
      "type": "event"
    },
    {
      "anonymous": false,
      "inputs": [
        {
          "indexed": false,
          "internalType": "address",
          "name": "oldVoid",
          "type": "address"
        },
        {
          "indexed": false,
          "internalType": "address",
          "name": "newVoid",
          "type": "address"
        }
      ],
      "name": "NewCygnusVoid",
      "type": "event"
    },
    {
      "anonymous": false,
      "inputs": [
        {
          "indexed": false,
          "internalType": "uint256",
          "name": "oldDebtRatio",
          "type": "uint256"
        },
        {
          "indexed": false,
          "internalType": "uint256",
          "name": "newDebtRatio",
          "type": "uint256"
        }
      ],
      "name": "NewDebtRatio",
      "type": "event"
    },
    {
      "anonymous": false,
      "inputs": [
        {
          "indexed": false,
          "internalType": "uint256",
          "name": "oldLiquidationFee",
          "type": "uint256"
        },
        {
          "indexed": false,
          "internalType": "uint256",
          "name": "newLiquidationFee",
          "type": "uint256"
        }
      ],
      "name": "NewLiquidationFee",
      "type": "event"
    },
    {
      "anonymous": false,
      "inputs": [
        {
          "indexed": false,
          "internalType": "uint256",
          "name": "oldLiquidationIncentive",
          "type": "uint256"
        },
        {
          "indexed": false,
          "internalType": "uint256",
          "name": "newLiquidationIncentive",
          "type": "uint256"
        }
      ],
      "name": "NewLiquidationIncentive",
      "type": "event"
    },
    {
      "anonymous": false,
      "inputs": [
        {
          "indexed": false,
          "internalType": "contract IChainlinkNebulaOracle",
          "name": "oldPriceOracle",
          "type": "address"
        },
        {
          "indexed": false,
          "internalType": "contract IChainlinkNebulaOracle",
          "name": "newPriceOracle",
          "type": "address"
        }
      ],
      "name": "NewPriceOracle",
      "type": "event"
    },
    {
      "anonymous": false,
      "inputs": [
        {
          "indexed": true,
          "internalType": "address",
          "name": "shuttle",
          "type": "address"
        },
        {
          "indexed": false,
          "internalType": "address",
          "name": "reinvestor",
          "type": "address"
        },
        {
          "indexed": false,
          "internalType": "uint256",
          "name": "rewardBalance",
          "type": "uint256"
        },
        {
          "indexed": false,
          "internalType": "uint256",
          "name": "reinvestReward",
          "type": "uint256"
        }
      ],
      "name": "RechargeVoid",
      "type": "event"
    },
    {
      "anonymous": false,
      "inputs": [
        {
          "indexed": true,
          "internalType": "address",
          "name": "sender",
          "type": "address"
        },
        {
          "indexed": true,
          "internalType": "address",
          "name": "redeemer",
          "type": "address"
        },
        {
          "indexed": false,
          "internalType": "uint256",
          "name": "redeemAmount",
          "type": "uint256"
        },
        {
          "indexed": false,
          "internalType": "uint256",
          "name": "poolTokens",
          "type": "uint256"
        }
      ],
      "name": "Redeem",
      "type": "event"
    },
    {
      "anonymous": false,
      "inputs": [
        {
          "indexed": false,
          "internalType": "uint256",
          "name": "totalBalance",
          "type": "uint256"
        }
      ],
      "name": "Sync",
      "type": "event"
    },
    {
      "anonymous": false,
      "inputs": [
        {
          "indexed": true,
          "internalType": "address",
          "name": "from",
          "type": "address"
        },
        {
          "indexed": true,
          "internalType": "address",
          "name": "to",
          "type": "address"
        },
        {
          "indexed": false,
          "internalType": "uint256",
          "name": "amount",
          "type": "uint256"
        }
      ],
      "name": "Transfer",
      "type": "event"
    },
    {
      "inputs": [],
      "name": "DEBT_RATIO_MAX",
      "outputs": [
        {
          "internalType": "uint256",
          "name": "",
          "type": "uint256"
        }
      ],
      "stateMutability": "view",
      "type": "function"
    },
    {
      "inputs": [],
      "name": "DEBT_RATIO_MIN",
      "outputs": [
        {
          "internalType": "uint256",
          "name": "",
          "type": "uint256"
        }
      ],
      "stateMutability": "view",
      "type": "function"
    },
    {
      "inputs": [],
      "name": "DOMAIN_SEPARATOR",
      "outputs": [
        {
          "internalType": "bytes32",
          "name": "",
          "type": "bytes32"
        }
      ],
      "stateMutability": "view",
      "type": "function"
    },
    {
      "inputs": [],
      "name": "LIQUIDATION_FEE_MAX",
      "outputs": [
        {
          "internalType": "uint256",
          "name": "",
          "type": "uint256"
        }
      ],
      "stateMutability": "view",
      "type": "function"
    },
    {
      "inputs": [],
      "name": "LIQUIDATION_INCENTIVE_MAX",
      "outputs": [
        {
          "internalType": "uint256",
          "name": "",
          "type": "uint256"
        }
      ],
      "stateMutability": "view",
      "type": "function"
    },
    {
      "inputs": [],
      "name": "LIQUIDATION_INCENTIVE_MIN",
      "outputs": [
        {
          "internalType": "uint256",
          "name": "",
          "type": "uint256"
        }
      ],
      "stateMutability": "view",
      "type": "function"
    },
    {
      "inputs": [],
      "name": "PERMIT_TYPEHASH",
      "outputs": [
        {
          "internalType": "bytes32",
          "name": "",
          "type": "bytes32"
        }
      ],
      "stateMutability": "view",
      "type": "function"
    },
    {
      "inputs": [],
      "name": "REINVEST_REWARD",
      "outputs": [
        {
          "internalType": "uint256",
          "name": "",
          "type": "uint256"
        }
      ],
      "stateMutability": "view",
      "type": "function"
    },
    {
      "inputs": [
        {
          "internalType": "address",
          "name": "owner",
          "type": "address"
        },
        {
          "internalType": "address",
          "name": "spender",
          "type": "address"
        }
      ],
      "name": "allowance",
      "outputs": [
        {
          "internalType": "uint256",
          "name": "",
          "type": "uint256"
        }
      ],
      "stateMutability": "view",
      "type": "function"
    },
    {
      "inputs": [
        {
          "internalType": "address",
          "name": "spender",
          "type": "address"
        },
        {
          "internalType": "uint256",
          "name": "amount",
          "type": "uint256"
        }
      ],
      "name": "approve",
      "outputs": [
        {
          "internalType": "bool",
          "name": "",
          "type": "bool"
        }
      ],
      "stateMutability": "nonpayable",
      "type": "function"
    },
    {
      "inputs": [
        {
          "internalType": "address",
          "name": "account",
          "type": "address"
        }
      ],
      "name": "balanceOf",
      "outputs": [
        {
          "internalType": "uint256",
          "name": "",
          "type": "uint256"
        }
      ],
      "stateMutability": "view",
      "type": "function"
    },
    {
      "inputs": [],
      "name": "chainId",
      "outputs": [
        {
          "internalType": "uint256",
          "name": "",
          "type": "uint256"
        }
      ],
      "stateMutability": "view",
      "type": "function"
    },
    {
      "inputs": [],
      "name": "cygnusDai",
      "outputs": [
        {
          "internalType": "address",
          "name": "",
          "type": "address"
        }
      ],
      "stateMutability": "view",
      "type": "function"
    },
    {
      "inputs": [],
      "name": "cygnusNebulaOracle",
      "outputs": [
        {
          "internalType": "contract IChainlinkNebulaOracle",
          "name": "",
          "type": "address"
        }
      ],
      "stateMutability": "view",
      "type": "function"
    },
    {
      "inputs": [],
      "name": "debtRatio",
      "outputs": [
        {
          "internalType": "uint256",
          "name": "",
          "type": "uint256"
        }
      ],
      "stateMutability": "view",
      "type": "function"
    },
    {
      "inputs": [],
      "name": "decimals",
      "outputs": [
        {
          "internalType": "uint8",
          "name": "",
          "type": "uint8"
        }
      ],
      "stateMutability": "view",
      "type": "function"
    },
    {
      "inputs": [
        {
          "internalType": "address",
          "name": "spender",
          "type": "address"
        },
        {
          "internalType": "uint256",
          "name": "subtractedAmount",
          "type": "uint256"
        }
      ],
      "name": "decreaseAllowance",
      "outputs": [
        {
          "internalType": "bool",
          "name": "",
          "type": "bool"
        }
      ],
      "stateMutability": "nonpayable",
      "type": "function"
    },
    {
      "inputs": [],
      "name": "exchangeRate",
      "outputs": [
        {
          "internalType": "uint256",
          "name": "",
          "type": "uint256"
        }
      ],
      "stateMutability": "view",
      "type": "function"
    },
    {
      "inputs": [],
      "name": "getCygnusVoid",
      "outputs": [
        {
          "internalType": "contract IMiniChef",
          "name": "rewarder_",
          "type": "address"
        },
        {
          "internalType": "uint256",
          "name": "pid_",
          "type": "uint256"
        },
        {
          "internalType": "bool",
          "name": "voidActivated_",
          "type": "bool"
        },
        {
          "internalType": "address",
          "name": "rewardsToken_",
          "type": "address"
        },
        {
          "internalType": "uint256",
          "name": "dexSwapFee_",
          "type": "uint256"
        },
        {
          "internalType": "contract IDexRouter02",
          "name": "dexRouter_",
          "type": "address"
        }
      ],
      "stateMutability": "view",
      "type": "function"
    },
    {
      "inputs": [],
      "name": "hangar18",
      "outputs": [
        {
          "internalType": "address",
          "name": "",
          "type": "address"
        }
      ],
      "stateMutability": "view",
      "type": "function"
    },
    {
      "inputs": [
        {
          "internalType": "address",
          "name": "spender",
          "type": "address"
        },
        {
          "internalType": "uint256",
          "name": "addedAmount",
          "type": "uint256"
        }
      ],
      "name": "increaseAllowance",
      "outputs": [
        {
          "internalType": "bool",
          "name": "",
          "type": "bool"
        }
      ],
      "stateMutability": "nonpayable",
      "type": "function"
    },
    {
      "inputs": [
        {
          "internalType": "contract IDexRouter02",
          "name": "dexRouterVoid",
          "type": "address"
        },
        {
          "internalType": "contract IMiniChef",
          "name": "rewarderVoid",
          "type": "address"
        },
        {
          "internalType": "address",
          "name": "rewardsTokenVoid",
          "type": "address"
        },
        {
          "internalType": "uint256",
          "name": "pidVoid",
          "type": "uint256"
        },
        {
          "internalType": "uint256",
          "name": "dexSwapFeeVoid",
          "type": "uint256"
        }
      ],
      "name": "initializeVoid",
      "outputs": [],
      "stateMutability": "nonpayable",
      "type": "function"
    },
    {
      "inputs": [],
      "name": "liquidationFee",
      "outputs": [
        {
          "internalType": "uint256",
          "name": "",
          "type": "uint256"
        }
      ],
      "stateMutability": "view",
      "type": "function"
    },
    {
      "inputs": [],
      "name": "liquidationIncentive",
      "outputs": [
        {
          "internalType": "uint256",
          "name": "",
          "type": "uint256"
        }
      ],
      "stateMutability": "view",
      "type": "function"
    },
    {
      "inputs": [
        {
          "internalType": "address",
          "name": "minter",
          "type": "address"
        }
      ],
      "name": "mint",
      "outputs": [
        {
          "internalType": "uint256",
          "name": "cygnusMintTokens",
          "type": "uint256"
        }
      ],
      "stateMutability": "nonpayable",
      "type": "function"
    },
    {
      "inputs": [],
      "name": "name",
      "outputs": [
        {
          "internalType": "string",
          "name": "",
          "type": "string"
        }
      ],
      "stateMutability": "view",
      "type": "function"
    },
    {
      "inputs": [
        {
          "internalType": "address",
          "name": "",
          "type": "address"
        }
      ],
      "name": "nonces",
      "outputs": [
        {
          "internalType": "uint256",
          "name": "",
          "type": "uint256"
        }
      ],
      "stateMutability": "view",
      "type": "function"
    },
    {
      "inputs": [
        {
          "internalType": "address",
          "name": "owner",
          "type": "address"
        },
        {
          "internalType": "address",
          "name": "spender",
          "type": "address"
        },
        {
          "internalType": "uint256",
          "name": "value",
          "type": "uint256"
        },
        {
          "internalType": "uint256",
          "name": "deadline",
          "type": "uint256"
        },
        {
          "internalType": "uint8",
          "name": "v",
          "type": "uint8"
        },
        {
          "internalType": "bytes32",
          "name": "r",
          "type": "bytes32"
        },
        {
          "internalType": "bytes32",
          "name": "s",
          "type": "bytes32"
        }
      ],
      "name": "permit",
      "outputs": [],
      "stateMutability": "nonpayable",
      "type": "function"
    },
    {
      "inputs": [
        {
          "internalType": "address",
          "name": "holder",
          "type": "address"
        }
      ],
      "name": "redeem",
      "outputs": [
        {
          "internalType": "uint256",
          "name": "redeemAmount",
          "type": "uint256"
        }
      ],
      "stateMutability": "nonpayable",
      "type": "function"
    },
    {
      "inputs": [],
      "name": "reinvestRewards",
      "outputs": [],
      "stateMutability": "nonpayable",
      "type": "function"
    },
    {
      "inputs": [
        {
          "internalType": "uint256",
          "name": "newDebtRatio",
          "type": "uint256"
        }
      ],
      "name": "setDebtRatio",
      "outputs": [],
      "stateMutability": "nonpayable",
      "type": "function"
    },
    {
      "inputs": [
        {
          "internalType": "uint256",
          "name": "newLiquidationFee",
          "type": "uint256"
        }
      ],
      "name": "setLiquidationFee",
      "outputs": [],
      "stateMutability": "nonpayable",
      "type": "function"
    },
    {
      "inputs": [
        {
          "internalType": "uint256",
          "name": "newLiquidationIncentive",
          "type": "uint256"
        }
      ],
      "name": "setLiquidationIncentive",
      "outputs": [],
      "stateMutability": "nonpayable",
      "type": "function"
    },
    {
      "inputs": [],
      "name": "setNebulaOracle",
      "outputs": [],
      "stateMutability": "nonpayable",
      "type": "function"
    },
    {
      "inputs": [
        {
          "internalType": "address",
          "name": "recipient",
          "type": "address"
        }
      ],
      "name": "skim",
      "outputs": [],
      "stateMutability": "nonpayable",
      "type": "function"
    },
    {
      "inputs": [],
      "name": "symbol",
      "outputs": [
        {
          "internalType": "string",
          "name": "",
          "type": "string"
        }
      ],
      "stateMutability": "view",
      "type": "function"
    },
    {
      "inputs": [],
      "name": "sync",
      "outputs": [],
      "stateMutability": "nonpayable",
      "type": "function"
    },
    {
      "inputs": [],
      "name": "totalBalance",
      "outputs": [
        {
          "internalType": "uint256",
          "name": "",
          "type": "uint256"
        }
      ],
      "stateMutability": "view",
      "type": "function"
    },
    {
      "inputs": [],
      "name": "totalSupply",
      "outputs": [
        {
          "internalType": "uint256",
          "name": "",
          "type": "uint256"
        }
      ],
      "stateMutability": "view",
      "type": "function"
    },
    {
      "inputs": [
        {
          "internalType": "address",
          "name": "recipient",
          "type": "address"
        },
        {
          "internalType": "uint256",
          "name": "amount",
          "type": "uint256"
        }
      ],
      "name": "transfer",
      "outputs": [
        {
          "internalType": "bool",
          "name": "",
          "type": "bool"
        }
      ],
      "stateMutability": "nonpayable",
      "type": "function"
    },
    {
      "inputs": [
        {
          "internalType": "address",
          "name": "sender",
          "type": "address"
        },
        {
          "internalType": "address",
          "name": "recipient",
          "type": "address"
        },
        {
          "internalType": "uint256",
          "name": "amount",
          "type": "uint256"
        }
      ],
      "name": "transferFrom",
      "outputs": [
        {
          "internalType": "bool",
          "name": "",
          "type": "bool"
        }
      ],
      "stateMutability": "nonpayable",
      "type": "function"
    },
    {
      "inputs": [],
      "name": "underlying",
      "outputs": [
        {
          "internalType": "address",
          "name": "",
          "type": "address"
        }
      ],
      "stateMutability": "view",
      "type": "function"
    },
    {
      "inputs": [],
      "name": "version",
      "outputs": [
        {
          "internalType": "string",
          "name": "",
          "type": "string"
        }
      ],
      "stateMutability": "view",
      "type": "function"
    },
    {
      "stateMutability": "payable",
      "type": "receive"
    }
  ],
  "bytecode": "0x61014060405246600755670c7d713b49da0000600f55670e92596fd62900006010553480156200002e57600080fd5b5060408051808201825260128082527110de59db9d5cce8810dbdb1b185d195c985b60721b60208084019182528451808601909552600585526404379674c560dc1b908501526000805460ff191660019081179091558351939493859285928592859285928592620000a19290620006f1565b508151620000b7906002906020850190620006f1565b5060f81b7fff000000000000000000000000000000000000000000000000000000000000001660805250506040517f8b73c3c69bb8fe3d512ecc4cf759cc79239f7b179b0ffacaa9a75d522b39400f906200011590600190620008c4565b60408051918290038220828201825260018352603160f81b602093840152600754825193840194909452908201527fc89efdaa54c0f20c7adf612882df0950f5a951637e0307cdcb4c672f298b8bc6606082015260808101919091523060a082015260c00160408051601f19818403018152919052805160209091012060a05250620001a7945050620004dc92505050565b6001600160a01b031663c3bc64ea6040518163ffffffff1660e01b8152600401606060405180830381600087803b158015620001e257600080fd5b505af1158015620001f7573d6000803e3d6000fd5b505050506040513d601f19601f820116820180604052508101906200021d9190620007bd565b60601b6001600160601b03191660c052600c80546001600160a01b03199081166001600160a01b0393841617909155600d805490911692909116918217905560408051636c9adec960e11b8152905163d935bd9291600480820192602092909190829003018186803b1580156200029357600080fd5b505afa158015620002a8573d6000803e3d6000fd5b505050506040513d601f19601f82011682018060405250810190620002ce919062000797565b600e80546001600160a01b0319166001600160a01b03928316179055600c54620003059116620004e0602090811b62001d8017901c565b80516200031b91600291602090910190620006f1565b506000600355600c5460408051630dfe168160e01b815290516001600160a01b0390921691630dfe168191600480820192602092909190829003018186803b1580156200036757600080fd5b505afa1580156200037c573d6000803e3d6000fd5b505050506040513d601f19601f82011682018060405250810190620003a2919062000797565b60601b6001600160601b03191661010052600c546040805163d21220a760e01b815290516001600160a01b039092169163d21220a791600480820192602092909190829003018186803b158015620003f957600080fd5b505afa1580156200040e573d6000803e3d6000fd5b505050506040513d601f19601f8201168201806040525081019062000434919062000797565b60601b6001600160601b03191661012052600d5460408051631c2eb17b60e31b815290516001600160a01b039092169163e1758bd891600480820192602092909190829003018186803b1580156200048b57600080fd5b505afa158015620004a0573d6000803e3d6000fd5b505050506040513d601f19601f82011682018060405250810190620004c6919062000797565b60601b6001600160601b03191660e05262000a58565b3390565b60606000826001600160a01b0316630dfe16816040518163ffffffff1660e01b815260040160206040518083038186803b1580156200051e57600080fd5b505afa15801562000533573d6000803e3d6000fd5b505050506040513d601f19601f8201168201806040525081019062000559919062000797565b6001600160a01b03166395d89b416040518163ffffffff1660e01b815260040160006040518083038186803b1580156200059257600080fd5b505afa158015620005a7573d6000803e3d6000fd5b505050506040513d6000823e601f3d908101601f19168201604052620005d1919081019062000810565b90506000836001600160a01b031663d21220a76040518163ffffffff1660e01b815260040160206040518083038186803b1580156200060f57600080fd5b505afa15801562000624573d6000803e3d6000fd5b505050506040513d601f19601f820116820180604052508101906200064a919062000797565b6001600160a01b03166395d89b416040518163ffffffff1660e01b815260040160006040518083038186803b1580156200068357600080fd5b505afa15801562000698573d6000803e3d6000fd5b505050506040513d6000823e601f3d908101601f19168201604052620006c2919081019062000810565b90508181604051602001620006d992919062000967565b60405160208183030381529060405292505050919050565b828054620006ff90620009ec565b90600052602060002090601f0160209004810192826200072357600085556200076e565b82601f106200073e57805160ff19168380011785556200076e565b828001600101855582156200076e579182015b828111156200076e57825182559160200191906001019062000751565b506200077c92915062000780565b5090565b5b808211156200077c576000815560010162000781565b600060208284031215620007a9578081fd5b8151620007b68162000a3f565b9392505050565b600080600060608486031215620007d2578182fd5b8351620007df8162000a3f565b6020850151909350620007f28162000a3f565b6040850151909250620008058162000a3f565b809150509250925092565b60006020828403121562000822578081fd5b81516001600160401b038082111562000839578283fd5b818401915084601f8301126200084d578283fd5b81518181111562000862576200086262000a29565b604051601f8201601f19908116603f011681019083821181831017156200088d576200088d62000a29565b81604052828152876020848701011115620008a6578586fd5b620008b9836020830160208801620009b9565b979650505050505050565b600080835482600182811c915080831680620008e157607f831692505b60208084108214156200090257634e487b7160e01b87526022600452602487fd5b8180156200091957600181146200092b5762000959565b60ff1986168952848901965062000959565b60008a815260209020885b86811015620009515781548b82015290850190830162000936565b505084890196505b509498975050505050505050565b65021bcb3a628160d51b8152600083516200098a816006850160208801620009b9565b602f60f81b6006918401918201528351620009ad816007840160208801620009b9565b01600701949350505050565b60005b83811015620009d6578181015183820152602001620009bc565b83811115620009e6576000848401525b50505050565b600181811c9082168062000a0157607f821691505b6020821081141562000a2357634e487b7160e01b600052602260045260246000fd5b50919050565b634e487b7160e01b600052604160045260246000fd5b6001600160a01b038116811462000a5557600080fd5b50565b60805160f81c60a05160c05160601c60e05160601c6101005160601c6101205160601c6138ac62000b586000396000818161140601528181611471015281816114d9015281816115ca0152818161165401526117360152600081816113ce0152818161143e01528181611492015281816114b80152818161156f0152818161162501528181611675015281816116bf01528181611713015261181e0152600081816102e701528181610ad70152818161151501528181611545015281816115a0015281816115fb0152818161169e015281816116e30152612834015260006107b70152600081816105480152611b03015260006104e601526138ac6000f3fe6080604052600436106102e05760003560e01c806395a2251f11610184578063bc25cf77116100d6578063d935bd921161008a578063eb6a887d11610064578063eb6a887d14610902578063fef0bec814610922578063fff6cae91461094257600080fd5b8063d935bd921461087c578063dd62ed3e1461089c578063e8a24e1d146108e257600080fd5b8063cea55f57116100bb578063cea55f5714610846578063cf85c8821461082a578063d505accf1461085c57600080fd5b8063bc25cf771461080a578063bc9bd12a1461082a57600080fd5b8063a843108111610138578063adbb259711610112578063adbb2597146107a5578063afc8276c146107d9578063b5f4d38c146107f557600080fd5b8063a84310811461074f578063a9059cbb1461076f578063ad7a672f1461078f57600080fd5b80639a8a0592116101695780639a8a059214610703578063a36a363014610719578063a457c2d71461072f57600080fd5b806395a2251f146106ce57806395d89b41146106ee57600080fd5b80633644e5151161023d578063643211f2116101f157806370a08231116101cb57806370a08231146106555780637ecebe001461068b5780638c765e94146106b857600080fd5b8063643211f2146105e15780636a627842146105fd5780636f307dc31461061d57600080fd5b80633ba0b9a9116102225780633ba0b9a91461058a578063421f0fcc1461059f57806354fd4d50146105b457600080fd5b80633644e51514610536578063395093511461056a57600080fd5b80631c1981881161029457806330adf81f1161027957806330adf81f146104a0578063313ce567146104d457806333fabfd11461051a57600080fd5b80631c1981881461046557806323b872dd1461048057600080fd5b806315b02cf5116102c557806315b02cf5146103bb57806318160ddd146103dd5780631995bc1a1461040157600080fd5b806306fdde0314610360578063095ea7b31461038b57600080fd5b3661035b577f00000000000000000000000000000000000000000000000000000000000000006001600160a01b031663d0e30db0346040518263ffffffff1660e01b81526004016000604051808303818588803b15801561034057600080fd5b505af1158015610354573d6000803e3d6000fd5b5050505050005b600080fd5b34801561036c57600080fd5b50610375610957565b6040516103829190613688565b60405180910390f35b34801561039757600080fd5b506103ab6103a63660046132cf565b6109e5565b6040519015158152602001610382565b3480156103c757600080fd5b506103db6103d6366004613472565b6109fc565b005b3480156103e957600080fd5b506103f360035481565b604051908152602001610382565b34801561040d57600080fd5b50600854600954600a54601254601454601354604080516001600160a01b039788168152602081019690965260ff909416151593850193909352908416606084015260808301529190911660a082015260c001610382565b34801561047157600080fd5b506103f36658d15e1762800081565b34801561048c57600080fd5b506103ab61049b36600461321a565b610b94565b3480156104ac57600080fd5b506103f37f6e71edae12b1b97f4d1f60370fef10105fa2faae0126114a169c64845d6126c981565b3480156104e057600080fd5b506105087f000000000000000000000000000000000000000000000000000000000000000081565b60405160ff9091168152602001610382565b34801561052657600080fd5b506103f367016345785d8a000081565b34801561054257600080fd5b506103f37f000000000000000000000000000000000000000000000000000000000000000081565b34801561057657600080fd5b506103ab6105853660046132cf565b610c0a565b34801561059657600080fd5b506103f3610c52565b3480156105ab57600080fd5b506103db610c80565b3480156105c057600080fd5b50610375604051806040016040528060018152602001603160f81b81525081565b3480156105ed57600080fd5b506103f36706f05b59d3b2000081565b34801561060957600080fd5b506103f36106183660046131aa565b610df7565b34801561062957600080fd5b50600c5461063d906001600160a01b031681565b6040516001600160a01b039091168152602001610382565b34801561066157600080fd5b506103f36106703660046131aa565b6001600160a01b031660009081526004602052604090205490565b34801561069757600080fd5b506103f36106a63660046131aa565b60066020526000908152604090205481565b3480156106c457600080fd5b506103f360105481565b3480156106da57600080fd5b506103f36106e93660046131aa565b6110f1565b3480156106fa57600080fd5b50610375611273565b34801561070f57600080fd5b506103f360075481565b34801561072557600080fd5b506103f360115481565b34801561073b57600080fd5b506103ab61074a3660046132cf565b611280565b34801561075b57600080fd5b506103db61076a36600461359e565b6112b1565b34801561077b57600080fd5b506103ab61078a3660046132cf565b61133f565b34801561079b57600080fd5b506103f3600b5481565b3480156107b157600080fd5b5061063d7f000000000000000000000000000000000000000000000000000000000000000081565b3480156107e557600080fd5b506103f36710a741a46278000081565b34801561080157600080fd5b506103db61134c565b34801561081657600080fd5b506103db6108253660046131aa565b611989565b34801561083657600080fd5b506103f3670de0b6b3a764000081565b34801561085257600080fd5b506103f3600f5481565b34801561086857600080fd5b506103db61087736600461325a565b6119fa565b34801561088857600080fd5b50600e5461063d906001600160a01b031681565b3480156108a857600080fd5b506103f36108b73660046131e2565b6001600160a01b03918216600090815260056020908152604080832093909416825291909152205490565b3480156108ee57600080fd5b50600d5461063d906001600160a01b031681565b34801561090e57600080fd5b506103db61091d36600461359e565b611c37565b34801561092e57600080fd5b506103db61093d36600461359e565b611cc5565b34801561094e57600080fd5b506103db611d4b565b60018054610964906137fa565b80601f0160208091040260200160405190810160405280929190818152602001828054610990906137fa565b80156109dd5780601f106109b2576101008083540402835291602001916109dd565b820191906000526020600020905b8154815290600101906020018083116109c057829003601f168201915b505050505081565b60006109f2338484611f7f565b5060015b92915050565b60005460ff16610a1f576040516306fda65d60e31b815260040160405180910390fd5b6000805460ff19169055610a3161202e565b6012546001600160a01b031615610a6b576040516327d04a1160e01b81526001600160a01b03841660048201526024015b60405180910390fd5b601380546001600160a01b0380881673ffffffffffffffffffffffffffffffffffffffff19928316179092556008805487841690831617905560098490556012805492861692909116821790556014829055610aca90866000196120ea565b610b006001600160a01b037f000000000000000000000000000000000000000000000000000000000000000016866000196120ea565b600c54610b19906001600160a01b0316856000196120ea565b600a805460ff19166001179055604080516001600160a01b0387811682528681166020830152851681830152606081018490526080810183905290517fd11ba4f3abfc78cb044532e87016a0c93a03fbbb5049a35d53fb1238d9ac66529160a0908290030190a150506000805460ff19166001179055505050565b6000610ba1848484612205565b6001600160a01b038416600090815260056020908152604080832033845290915290205482811015610bf057604051632b3ca6f360e11b81526004810182905260248101849052604401610a62565b610bfd8533858403611f7f565b60019150505b9392505050565b3360009081526005602090815260408083206001600160a01b03861684529091528120548190610c3b90849061375c565b9050610c48338583611f7f565b5060019392505050565b6003546000908015610c7057600b54610c6b9082612328565b610c7a565b670de0b6b3a76400005b91505090565b610c8861202e565b60005460ff16610cab576040516306fda65d60e31b815260040160405180910390fd5b6000805460ff19168155600d5460408051636c9adec960e11b815290516001600160a01b039092169163d935bd9291600480820192602092909190829003018186803b158015610cfa57600080fd5b505afa158015610d0e573d6000803e3d6000fd5b505050506040513d601f19601f82011682018060405250810190610d3291906131c6565b600e549091506001600160a01b0380831691161415610d7b57600e54604051637a4ec46360e01b81526001600160a01b0391821660048201529082166024820152604401610a62565b600e80546001600160a01b0383811673ffffffffffffffffffffffffffffffffffffffff1983168117909355604080519190921680825260208201939093527fd52b2b9b7e9ee655fcb95d2e5b9e0c9f69e7ef2b8e9d2d0ea78402d576d22e2291015b60405180910390a150506000805460ff19166001179055565b6000805460ff16610e1b576040516306fda65d60e31b815260040160405180910390fd5b6000805460ff19168155600c546040516370a0823160e01b81523060048201526001600160a01b03909116906370a082319060240160206040518083038186803b158015610e6857600080fd5b505afa158015610e7c573d6000803e3d6000fd5b505050506040513d601f19601f82011682018060405250810190610ea091906135b6565b600a5490915060ff161561103d576008546009546040516393f1a40b60e01b815260048101919091523060248201526000916001600160a01b0316906393f1a40b90604401604080518083038186803b158015610efc57600080fd5b505afa158015610f10573d6000803e3d6000fd5b505050506040513d601f19601f82011682018060405250810190610f3491906135ce565b50600854600954604051631c57762b60e31b81526004810191909152602481018590529192506001600160a01b03169063e2bbb15890604401600060405180830381600087803b158015610f8757600080fd5b505af1158015610f9b573d6000803e3d6000fd5b50506008546009546040516393f1a40b60e01b81526004810191909152306024820152600093506001600160a01b0390911691506393f1a40b90604401604080518083038186803b158015610fef57600080fd5b505afa158015611003573d6000803e3d6000fd5b505050506040513d601f19601f8201168201806040525081019061102791906135ce565b50905061103482826137b3565b9250505061104d565b600b5461104a90826137b3565b90505b61105f611058610c52565b8290612328565b9150600082116110855760405163cd698f4d60e01b815260048101839052602401610a62565b61108f838361233d565b60408051828152602081018490526001600160a01b0385169133917f2f00e3cdd69a77be7ed215ec7b2a36784dd158f921fca79ac29deffa353fe6ee91015b60405180910390a3506110df6123f0565b6000805460ff19166001179055919050565b6000805460ff16611115576040516306fda65d60e31b815260040160405180910390fd5b6000805460ff191681553081526004602052604090205461113e611137610c52565b82906124bd565b915060008211611164576040516319f4fb4360e31b815260048101839052602401610a62565b600b5482111561119557600b546040516339eff09f60e11b8152610a62918491600401918252602082015260400190565b61119f30826124c9565b600a5460ff161561121957600854600954604051630441a3e760e41b81526001600160a01b039092169163441a3e70916111e6918690600401918252602082015260400190565b600060405180830381600087803b15801561120057600080fd5b505af1158015611214573d6000803e3d6000fd5b505050505b600c54611230906001600160a01b03168484612574565b60408051838152602081018390526001600160a01b0385169133917f3f693fff038bb8a046aa76d9516190ac7444f7d69cf952c4cbdc086fdef2d6fc91016110ce565b60028054610964906137fa565b3360009081526005602090815260408083206001600160a01b03861684529091528120548190610c3b9084906137b3565b6112b961202e565b60005460ff166112dc576040516306fda65d60e31b815260040160405180910390fd5b6000805460ff19169055611301670de0b6b3a76400006710a741a462780000836125cb565b601080549082905560408051828152602081018490527faeba5a6c40a8ac138134bff1aaa65debf25971188a58804bad717f82f0ec13169101610dde565b60006109f2338484612205565b60005460ff1661136f576040516306fda65d60e31b815260040160405180910390fd5b6000805460ff19169055611381612606565b600061138b61262e565b9050806113985750611972565b60006113ab826658d15e176280006124bd565b90506113c4336012546001600160a01b03169083612574565b60125460009081907f00000000000000000000000000000000000000000000000000000000000000006001600160a01b039081169116148061143457506012547f00000000000000000000000000000000000000000000000000000000000000006001600160a01b039081169116145b15611503576012547f00000000000000000000000000000000000000000000000000000000000000006001600160a01b039081169116146114b6577f00000000000000000000000000000000000000000000000000000000000000007f00000000000000000000000000000000000000000000000000000000000000006114f9565b7f00000000000000000000000000000000000000000000000000000000000000007f00000000000000000000000000000000000000000000000000000000000000005b9092509050611756565b601254611543906001600160a01b03167f000000000000000000000000000000000000000000000000000000000000000061153e86886137b3565b6128a3565b7f00000000000000000000000000000000000000000000000000000000000000006001600160a01b03167f00000000000000000000000000000000000000000000000000000000000000006001600160a01b031614806115f457507f00000000000000000000000000000000000000000000000000000000000000006001600160a01b03167f00000000000000000000000000000000000000000000000000000000000000006001600160a01b0316145b15611699577f00000000000000000000000000000000000000000000000000000000000000006001600160a01b03167f00000000000000000000000000000000000000000000000000000000000000006001600160a01b0316146114b6577f00000000000000000000000000000000000000000000000000000000000000007f00000000000000000000000000000000000000000000000000000000000000006114f9565b6117107f00000000000000000000000000000000000000000000000000000000000000007f000000000000000000000000000000000000000000000000000000000000000061153e7f00000000000000000000000000000000000000000000000000000000000000006001600160a01b03166129e1565b507f000000000000000000000000000000000000000000000000000000000000000090507f00000000000000000000000000000000000000000000000000000000000000005b600061176a836001600160a01b03166129e1565b9050600080600c60009054906101000a90046001600160a01b03166001600160a01b0316630902f1ac6040518163ffffffff1660e01b815260040160606040518083038186803b1580156117bd57600080fd5b505afa1580156117d1573d6000803e3d6000fd5b505050506040513d601f19601f820116820180604052508101906117f5919061355c565b506dffffffffffffffffffffffffffff1691506dffffffffffffffffffffffffffff16915060007f00000000000000000000000000000000000000000000000000000000000000006001600160a01b0316866001600160a01b03161461185b578161185d565b825b9050600061186e8583601454612a5b565b905061187b8787836128a3565b60006118a3888861188c858a6137b3565b61189e8b6001600160a01b03166129e1565b612af9565b600854600954604051631c57762b60e31b81526004810191909152602481018390529192506001600160a01b03169063e2bbb15890604401600060405180830381600087803b1580156118f557600080fd5b505af1158015611909573d6000803e3d6000fd5b50505050306001600160a01b03167f6ac14c64e9542da5b5d0624113aec83684dd471c3d8c61022ae5d78fa152379261193f3390565b604080516001600160a01b039092168252602082018e905281018c905260600160405180910390a2505050505050505050505b61197a6123f0565b6000805460ff19166001179055565b60005460ff166119ac576040516306fda65d60e31b815260040160405180910390fd5b6000805460ff19168155600b5430825260046020526040909120546119ea9183916119d791906137b3565b600c546001600160a01b03169190612574565b506000805460ff19166001179055565b6001600160a01b038716611a215760405163bc622b6360e01b815260040160405180910390fd5b6001600160a01b038616611a4857604051632853494b60e11b815260040160405180910390fd5b42841015611a6c5760405163212ed8bb60e11b815260048101859052602401610a62565b6001600160a01b0387811660008181526006602090815260408083208054600180820190925582517f6e71edae12b1b97f4d1f60370fef10105fa2faae0126114a169c64845d6126c98186015280840196909652958c166060860152608085018b905260a085019590955260c08085018a90528151808603909101815260e08501825280519083012061190160f01b6101008601527f000000000000000000000000000000000000000000000000000000000000000061010286015261012280860182905282518087039091018152610142860180845281519185019190912090859052610162860180845281905260ff8a166101828701526101a286018990526101c2860188905291519095919491926101e2808401939192601f1981019281900390910190855afa158015611ba7573d6000803e3d6000fd5b5050604051601f1901519150506001600160a01b038116611bdb57604051630f81234f60e31b815260040160405180910390fd5b896001600160a01b0316816001600160a01b031614611c2057604051630b76193960e31b815260ff871660048201526024810186905260448101859052606401610a62565b611c2b8a8a8a611f7f565b50505050505050505050565b611c3f61202e565b60005460ff16611c62576040516306fda65d60e31b815260040160405180910390fd5b6000805460ff19169055611c876706f05b59d3b20000670de0b6b3a7640000836125cb565b600f80549082905560408051828152602081018490527ff25d2243e4128e51523d8537f04f18c3e6390bbfc6323390a9a8e59b921ce0469101610dde565b611ccd61202e565b60005460ff16611cf0576040516306fda65d60e31b815260040160405180910390fd5b6000805460ff19168155611d0d9067016345785d8a0000836125cb565b601180549082905560408051828152602081018490527f87272249f1056ec16a68dd9255101358246dd26a796e2f0bc6b3a0ad02f2de419101610dde565b60005460ff16611d6e576040516306fda65d60e31b815260040160405180910390fd5b6000805460ff1916905561197a6123f0565b60606000826001600160a01b0316630dfe16816040518163ffffffff1660e01b815260040160206040518083038186803b158015611dbd57600080fd5b505afa158015611dd1573d6000803e3d6000fd5b505050506040513d601f19601f82011682018060405250810190611df591906131c6565b6001600160a01b03166395d89b416040518163ffffffff1660e01b815260040160006040518083038186803b158015611e2d57600080fd5b505afa158015611e41573d6000803e3d6000fd5b505050506040513d6000823e601f3d908101601f19168201604052611e6991908101906134cc565b90506000836001600160a01b031663d21220a76040518163ffffffff1660e01b815260040160206040518083038186803b158015611ea657600080fd5b505afa158015611eba573d6000803e3d6000fd5b505050506040513d601f19601f82011682018060405250810190611ede91906131c6565b6001600160a01b03166395d89b416040518163ffffffff1660e01b815260040160006040518083038186803b158015611f1657600080fd5b505afa158015611f2a573d6000803e3d6000fd5b505050506040513d6000823e601f3d908101601f19168201604052611f5291908101906134cc565b90508181604051602001611f6792919061363a565b60405160208183030381529060405292505050919050565b6001600160a01b038316611fa65760405163230326bf60e11b815260040160405180910390fd5b6001600160a01b038216611fcd57604051630b39ecd960e21b815260040160405180910390fd5b6001600160a01b0383811660008181526005602090815260408083209487168084529482529182902085905590518481527f8c5be1e5ebec7d5bd14f71427d1e84f3dd0314c0f7b2291e5b200ac8c7c3b925910160405180910390a3505050565b600d54604080516303e1469160e61b815290516000926001600160a01b03169163f851a440916004808301926020929190829003018186803b15801561207357600080fd5b505afa158015612087573d6000803e3d6000fd5b505050506040513d601f19601f820116820180604052508101906120ab91906131c6565b9050336001600160a01b038216146120e757604051633e7c764160e21b81523360048201526001600160a01b0382166024820152604401610a62565b50565b604080516001600160a01b038481166024830152604480830185905283518084039091018152606490920183526020820180516001600160e01b031663095ea7b360e01b1790529151600092839290871691612146919061361e565b6000604051808303816000865af19150503d8060008114612183576040519150601f19603f3d011682016040523d82523d6000602084013e612188565b606091505b50915091508180156121b25750805115806121b25750808060200190518101906121b29190613452565b6121fe5760405162461bcd60e51b815260206004820152600c60248201527f2173616665417070726f766500000000000000000000000000000000000000006044820152606401610a62565b5050505050565b6001600160a01b03831661222c5760405163907bfbd760e01b815260040160405180910390fd5b6001600160a01b03821661225357604051637184c13f60e01b815260040160405180910390fd5b6001600160a01b0383166000908152600460205260409020548181101561229757604051632dcf2e2160e21b81526004810182905260248101839052604401610a62565b6001600160a01b038085166000908152600460205260408082208585039055918516815290812080548492906122ce90849061375c565b92505081905550826001600160a01b0316846001600160a01b03167fddf252ad1be2c89b69c2b068fc378daa952ba7f163c4a11628f55a4df523b3ef8460405161231a91815260200190565b60405180910390a350505050565b6000610c0383670de0b6b3a764000084612bec565b6001600160a01b0382166123645760405163139241eb60e01b815260040160405180910390fd5b6001600160a01b0382166000908152600460205260408120805483929061238c90849061375c565b9250508190555080600360008282546123a5919061375c565b90915550506040518181526001600160a01b038316906000907fddf252ad1be2c89b69c2b068fc378daa952ba7f163c4a11628f55a4df523b3ef906020015b60405180910390a35050565b600a5460ff166123fc57565b6008546009546040516393f1a40b60e01b815260048101919091523060248201526001600160a01b03909116906393f1a40b90604401604080518083038186803b15801561244957600080fd5b505afa15801561245d573d6000803e3d6000fd5b505050506040513d601f19601f8201168201806040525081019061248191906135ce565b50600b8190556040519081527f8a0df8ef054fae2c3d2d19a7b322e864870cc9fd3cb07fb9526309c596244bf49060200160405180910390a15b565b6000610c038383612cc8565b6001600160a01b0382166124f057604051638e35e80360e01b815260040160405180910390fd5b6001600160a01b038216600090815260046020526040812080548392906125189084906137b3565b92505081905550806003600082825461253191906137b3565b90915550506040518181526000906001600160a01b038416907fddf252ad1be2c89b69c2b068fc378daa952ba7f163c4a11628f55a4df523b3ef906020016123e4565b604080516001600160a01b038416602482015260448082018490528251808303909101815260649091019091526020810180516001600160e01b031663a9059cbb60e01b1790526125c6908490612d8a565b505050565b828110806125d857508181115b156125c65760405162ccc44d60e41b8152600481018490526024810183905260448101829052606401610a62565b3332146124bb57604051631fec819f60e21b8152336004820152326024820152604401610a62565b600854600954604051630441a3e760e41b81526004810191909152600060248201819052916001600160a01b03169063441a3e7090604401600060405180830381600087803b15801561268057600080fd5b505af1158015612694573d6000803e3d6000fd5b5050600854600954604051631526fe2760e01b81526004810191909152600093506001600160a01b039091169150631526fe27906024016101206040518083038186803b1580156126e457600080fd5b505afa1580156126f8573d6000803e3d6000fd5b505050506040513d601f19601f8201168201806040525081019061271c91906132fa565b5050509550505050505060006001600160a01b0316816001600160a01b03161461288e576000816001600160a01b03166373cfc6b26040518163ffffffff1660e01b815260040160206040518083038186803b15801561277b57600080fd5b505afa15801561278f573d6000803e3d6000fd5b505050506040513d601f19601f820116820180604052508101906127b39190613452565b905060008161283257826001600160a01b031663f7c618c16040518163ffffffff1660e01b815260040160206040518083038186803b1580156127f557600080fd5b505afa158015612809573d6000803e3d6000fd5b505050506040513d601f19601f8201168201806040525081019061282d91906131c6565b612854565b7f00000000000000000000000000000000000000000000000000000000000000005b9050600061286a826001600160a01b03166129e1565b9050801561288a5760125461288a9083906001600160a01b0316836128a3565b5050505b601254610c7a906001600160a01b03166129e1565b60408051600280825260608201835260009260208301908036833701905050905083816000815181106128e657634e487b7160e01b600052603260045260246000fd5b60200260200101906001600160a01b031690816001600160a01b031681525050828160018151811061292857634e487b7160e01b600052603260045260246000fd5b6001600160a01b03928316602091820292909201015260135461295091868116911684612e07565b6013546040516338ed173960e01b81526001600160a01b03909116906338ed17399061298b90859060009086903090600019906004016136bb565b600060405180830381600087803b1580156129a557600080fd5b505af11580156129b9573d6000803e3d6000fd5b505050506040513d6000823e601f3d908101601f191682016040526121fe91908101906133aa565b6040516370a0823160e01b81523060048201526000906001600160a01b038316906370a082319060240160206040518083038186803b158015612a2357600080fd5b505afa158015612a37573d6000803e3d6000fd5b505050506040513d601f19601f820116820180604052508101906109f691906135b6565b60008083612a6b846103e861375c565b612a759190613794565b905060008385612a87886103e8613794565b612a919190613794565b612a9c906004613794565b612aa69190613794565b90506000612ac782612ab88580613794565b612ac2919061375c565b612ea0565b90506000612ad6866002613794565b905080612ae385846137b3565b612aed9190613774565b98975050505050505050565b601354600090612b16906001600160a01b03878116911685612e07565b601354612b30906001600160a01b03868116911684612e07565b60135460405162e8e33760e81b81526001600160a01b0387811660048301528681166024830152604482018690526064820185905260006084830181905260a48301523060c483015260001960e48301529091169063e8e337009061010401606060405180830381600087803b158015612ba957600080fd5b505af1158015612bbd573d6000803e3d6000fd5b505050506040513d601f19601f82011682018060405250810190612be191906135f1565b979650505050505050565b600080806000198587098587029250828110838203039150508060001415612c3557838281612c2b57634e487b7160e01b600052601260045260246000fd5b0492505050610c03565b838110612c5f57604051631dcf306360e21b81526004810182905260248101859052604401610a62565b60008486880960026001871981018816978890046003810283188082028403028082028403028082028403028082028403028082028403029081029092039091026000889003889004909101858311909403939093029303949094049190911702949350505050565b60008080600019848609848602925082811083820303915050670de0b6b3a76400008110612d0c5760405163698d9a0160e11b815260048101829052602401610a62565b600080670de0b6b3a76400008688099150506706f05b59d3b1ffff811182612d465780670de0b6b3a76400008504019450505050506109f6565b620400008285030493909111909103600160ee1b02919091177faccb18165bd6fe31ae1cf318dc5b51eee0e1ba569b88cd74c1773b91fac106690201905092915050565b6000612dcc83836040518060400160405280601581526020017f5361666545726332304c6f774c6576656c43616c6c0000000000000000000000815250613098565b8051909150156125c65780806020019051810190612dea9190613452565b6125c6576040516364d6fc4d60e01b815260040160405180910390fd5b604051636eb1769f60e11b81523060048201526001600160a01b03838116602483015282919085169063dd62ed3e9060440160206040518083038186803b158015612e5157600080fd5b505afa158015612e65573d6000803e3d6000fd5b505050506040513d601f19601f82011682018060405250810190612e8991906135b6565b10612e9357505050565b6125c683836000196120ea565b600081612eaf57506000919050565b506001817001000000000000000000000000000000008110612ed65760409190911b9060801c5b680100000000000000008110612ef15760209190911b9060401c5b6401000000008110612f085760109190911b9060201c5b620100008110612f1d5760089190911b9060101c5b6101008110612f315760049190911b9060081c5b60108110612f445760029190911b9060041c5b60088110612f5457600182901b91505b6001828481612f7357634e487b7160e01b600052601260045260246000fd5b048301901c91506001828481612f9957634e487b7160e01b600052601260045260246000fd5b048301901c91506001828481612fbf57634e487b7160e01b600052601260045260246000fd5b048301901c91506001828481612fe557634e487b7160e01b600052601260045260246000fd5b048301901c9150600182848161300b57634e487b7160e01b600052601260045260246000fd5b048301901c9150600182848161303157634e487b7160e01b600052601260045260246000fd5b048301901c9150600182848161305757634e487b7160e01b600052601260045260246000fd5b048301901c9150600082848161307d57634e487b7160e01b600052601260045260246000fd5b0490508083101561308e5782613090565b805b949350505050565b60606001600160a01b0384163b6130cd57604051638201cc0560e01b81526001600160a01b0385166004820152602401610a62565b600080856001600160a01b0316856040516130e8919061361e565b6000604051808303816000865af19150503d8060008114613125576040519150601f19603f3d011682016040523d82523d6000602084013e61312a565b606091505b5091509150811561313e579150610c039050565b80511561314e5780518082602001fd5b8360405162461bcd60e51b8152600401610a629190613688565b805161317381613861565b919050565b80516dffffffffffffffffffffffffffff8116811461317357600080fd5b805163ffffffff8116811461317357600080fd5b6000602082840312156131bb578081fd5b8135610c0381613861565b6000602082840312156131d7578081fd5b8151610c0381613861565b600080604083850312156131f4578081fd5b82356131ff81613861565b9150602083013561320f81613861565b809150509250929050565b60008060006060848603121561322e578081fd5b833561323981613861565b9250602084013561324981613861565b929592945050506040919091013590565b600080600080600080600060e0888a031215613274578283fd5b873561327f81613861565b9650602088013561328f81613861565b95506040880135945060608801359350608088013560ff811681146132b2578384fd5b9699959850939692959460a0840135945060c09093013592915050565b600080604083850312156132e1578182fd5b82356132ec81613861565b946020939093013593505050565b60008060008060008060008060006101208a8c031215613318578283fd5b895161332381613861565b60208b01519099506bffffffffffffffffffffffff81168114613344578384fd5b8098505060408a0151965060608a0151955060808a015167ffffffffffffffff81168114613370578384fd5b945061337e60a08b01613168565b935061338c60c08b01613196565b925060e08a015191506101008a015190509295985092959850929598565b600060208083850312156133bc578182fd5b825167ffffffffffffffff808211156133d3578384fd5b818501915085601f8301126133e6578384fd5b8151818111156133f8576133f861384b565b8060051b915061340984830161372b565b8181528481019084860184860187018a1015613423578788fd5b8795505b83861015613445578051835260019590950194918601918601613427565b5098975050505050505050565b600060208284031215613463578081fd5b81518015158114610c03578182fd5b600080600080600060a08688031215613489578283fd5b853561349481613861565b945060208601356134a481613861565b935060408601356134b481613861565b94979396509394606081013594506080013592915050565b6000602082840312156134dd578081fd5b815167ffffffffffffffff808211156134f4578283fd5b818401915084601f830112613507578283fd5b8151818111156135195761351961384b565b61352c601f8201601f191660200161372b565b9150808252856020828501011115613542578384fd5b6135538160208401602086016137ca565b50949350505050565b600080600060608486031215613570578081fd5b61357984613178565b925061358760208501613178565b915061359560408501613196565b90509250925092565b6000602082840312156135af578081fd5b5035919050565b6000602082840312156135c7578081fd5b5051919050565b600080604083850312156135e0578182fd5b505080516020909101519092909150565b600080600060608486031215613605578081fd5b8351925060208401519150604084015190509250925092565b600082516136308184602087016137ca565b9190910192915050565b65021bcb3a628160d51b81526000835161365b8160068501602088016137ca565b602f60f81b600691840191820152835161367c8160078401602088016137ca565b01600701949350505050565b60208152600082518060208401526136a78160408501602087016137ca565b601f01601f19169190910160400192915050565b600060a082018783526020878185015260a0604085015281875180845260c0860191508289019350845b8181101561370a5784516001600160a01b0316835293830193918301916001016136e5565b50506001600160a01b03969096166060850152505050608001529392505050565b604051601f8201601f1916810167ffffffffffffffff811182821017156137545761375461384b565b604052919050565b6000821982111561376f5761376f613835565b500190565b60008261378f57634e487b7160e01b81526012600452602481fd5b500490565b60008160001904831182151516156137ae576137ae613835565b500290565b6000828210156137c5576137c5613835565b500390565b60005b838110156137e55781810151838201526020016137cd565b838111156137f4576000848401525b50505050565b600181811c9082168061380e57607f821691505b6020821081141561382f57634e487b7160e01b600052602260045260246000fd5b50919050565b634e487b7160e01b600052601160045260246000fd5b634e487b7160e01b600052604160045260246000fd5b6001600160a01b03811681146120e757600080fdfea264697066735822122026398f3a092750a084d570a0204ea3583e84f2544db8818363854cdb9e0b29c364736f6c63430008040033",
  "linkReferences": {},
  "deployedLinkReferences": {}
}