{
  "_format": "hh-sol-artifact-1",
  "contractName": "CygnusCollateralVoid",
  "sourceName": "contracts/cygnus-core/CygnusCollateralVoid.sol",
  "abi": [
    {
      "inputs": [],
      "stateMutability": "nonpayable",
      "type": "constructor"
    },
    {
      "inputs": [
        {
          "internalType": "address",
          "name": "sender",
          "type": "address"
        },
        {
          "internalType": "address",
          "name": "origin",
          "type": "address"
        }
      ],
      "name": "CygnusCollateralChef__OnlyEOAAllowed",
      "type": "error"
    },
    {
      "inputs": [
        {
          "internalType": "address",
          "name": "tokenReward",
          "type": "address"
        }
      ],
      "name": "CygnusCollateralChef__VoidAlreadyInitialized",
      "type": "error"
    },
    {
      "inputs": [
        {
          "internalType": "address",
          "name": "currentOracle",
          "type": "address"
        },
        {
          "internalType": "address",
          "name": "newOracle",
          "type": "address"
        }
      ],
      "name": "CygnusCollateralControl__CygnusOracleAlreadySet",
      "type": "error"
    },
    {
      "inputs": [
        {
          "internalType": "uint256",
          "name": "minRange",
          "type": "uint256"
        },
        {
          "internalType": "uint256",
          "name": "maxRange",
          "type": "uint256"
        },
        {
          "internalType": "uint256",
          "name": "value",
          "type": "uint256"
        }
      ],
      "name": "CygnusCollateralControl__ParameterNotInRange",
      "type": "error"
    },
    {
      "inputs": [],
      "name": "CygnusCollateralControl__VoidCantBeZero",
      "type": "error"
    },
    {
      "inputs": [
        {
          "internalType": "address",
          "name": "sender",
          "type": "address"
        },
        {
          "internalType": "address",
          "name": "origin",
          "type": "address"
        }
      ],
      "name": "CygnusCollateralVoid__NotNativeTokenSender",
      "type": "error"
    },
    {
      "inputs": [
        {
          "internalType": "uint256",
          "name": "",
          "type": "uint256"
        }
      ],
      "name": "CygnusTerminal__CantMintZero",
      "type": "error"
    },
    {
      "inputs": [
        {
          "internalType": "uint256",
          "name": "",
          "type": "uint256"
        }
      ],
      "name": "CygnusTerminal__CantRedeemZero",
      "type": "error"
    },
    {
      "inputs": [
        {
          "internalType": "address",
          "name": "caller",
          "type": "address"
        },
        {
          "internalType": "address",
          "name": "factoryAdmin",
          "type": "address"
        }
      ],
      "name": "CygnusTerminal__MsgSenderNotAdmin",
      "type": "error"
    },
    {
      "inputs": [
        {
          "internalType": "address",
          "name": "",
          "type": "address"
        }
      ],
      "name": "CygnusTerminal__MsgSenderNotFactory",
      "type": "error"
    },
    {
      "inputs": [
        {
          "internalType": "uint256",
          "name": "invalidAmount",
          "type": "uint256"
        },
        {
          "internalType": "uint256",
          "name": "contractBalance",
          "type": "uint256"
        }
      ],
      "name": "CygnusTerminal__RedeemAmountInvalid",
      "type": "error"
    },
    {
      "inputs": [
        {
          "internalType": "uint8",
          "name": "v",
          "type": "uint8"
        },
        {
          "internalType": "bytes32",
          "name": "r",
          "type": "bytes32"
        },
        {
          "internalType": "bytes32",
          "name": "s",
          "type": "bytes32"
        }
      ],
      "name": "Erc20Permit__InvalidSignature",
      "type": "error"
    },
    {
      "inputs": [],
      "name": "Erc20Permit__OwnerZeroAddress",
      "type": "error"
    },
    {
      "inputs": [
        {
          "internalType": "uint256",
          "name": "deadline",
          "type": "uint256"
        }
      ],
      "name": "Erc20Permit__PermitExpired",
      "type": "error"
    },
    {
      "inputs": [],
      "name": "Erc20Permit__RecoveredOwnerZeroAddress",
      "type": "error"
    },
    {
      "inputs": [],
      "name": "Erc20Permit__SpenderZeroAddress",
      "type": "error"
    },
    {
      "inputs": [],
      "name": "Erc20__ApproveOwnerZeroAddress",
      "type": "error"
    },
    {
      "inputs": [],
      "name": "Erc20__ApproveSpenderZeroAddress",
      "type": "error"
    },
    {
      "inputs": [
        {
          "internalType": "uint256",
          "name": "accountBalance",
          "type": "uint256"
        },
        {
          "internalType": "uint256",
          "name": "burnAmount",
          "type": "uint256"
        }
      ],
      "name": "Erc20__BurnUnderflow",
      "type": "error"
    },
    {
      "inputs": [],
      "name": "Erc20__BurnZeroAddress",
      "type": "error"
    },
    {
      "inputs": [
        {
          "internalType": "uint256",
          "name": "allowance",
          "type": "uint256"
        },
        {
          "internalType": "uint256",
          "name": "amount",
          "type": "uint256"
        }
      ],
      "name": "Erc20__InsufficientAllowance",
      "type": "error"
    },
    {
      "inputs": [
        {
          "internalType": "uint256",
          "name": "senderBalance",
          "type": "uint256"
        },
        {
          "internalType": "uint256",
          "name": "amount",
          "type": "uint256"
        }
      ],
      "name": "Erc20__InsufficientBalance",
      "type": "error"
    },
    {
      "inputs": [],
      "name": "Erc20__MintZeroAddress",
      "type": "error"
    },
    {
      "inputs": [],
      "name": "Erc20__TransferRecipientZeroAddress",
      "type": "error"
    },
    {
      "inputs": [],
      "name": "Erc20__TransferSenderZeroAddress",
      "type": "error"
    },
    {
      "inputs": [
        {
          "internalType": "uint256",
          "name": "prod1",
          "type": "uint256"
        }
      ],
      "name": "PRBMath__MulDivFixedPointOverflow",
      "type": "error"
    },
    {
      "inputs": [
        {
          "internalType": "uint256",
          "name": "prod1",
          "type": "uint256"
        },
        {
          "internalType": "uint256",
          "name": "denominator",
          "type": "uint256"
        }
      ],
      "name": "PRBMath__MulDivOverflow",
      "type": "error"
    },
    {
      "inputs": [],
      "name": "ReentrantCall",
      "type": "error"
    },
    {
      "inputs": [
        {
          "internalType": "address",
          "name": "target",
          "type": "address"
        }
      ],
      "name": "SafeErc20__CallToNonContract",
      "type": "error"
    },
    {
      "inputs": [],
      "name": "SafeErc20__NoReturnData",
      "type": "error"
    },
    {
      "anonymous": false,
      "inputs": [
        {
          "indexed": true,
          "internalType": "address",
          "name": "owner",
          "type": "address"
        },
        {
          "indexed": true,
          "internalType": "address",
          "name": "spender",
          "type": "address"
        },
        {
          "indexed": false,
          "internalType": "uint256",
          "name": "amount",
          "type": "uint256"
        }
      ],
      "name": "Approval",
      "type": "event"
    },
    {
      "anonymous": false,
      "inputs": [
        {
          "indexed": false,
          "internalType": "contract IDexRouter02",
          "name": "_dexRouter",
          "type": "address"
        },
        {
          "indexed": false,
          "internalType": "contract IMiniChef",
          "name": "_rewarder",
          "type": "address"
        },
        {
          "indexed": false,
          "internalType": "address",
          "name": "_rewardsToken",
          "type": "address"
        },
        {
          "indexed": false,
          "internalType": "uint256",
          "name": "_pid",
          "type": "uint256"
        },
        {
          "indexed": false,
          "internalType": "uint256",
          "name": "_swapFeeFactor",
          "type": "uint256"
        }
      ],
      "name": "ChargeVoid",
      "type": "event"
    },
    {
      "anonymous": false,
      "inputs": [
        {
          "indexed": true,
          "internalType": "address",
          "name": "sender",
          "type": "address"
        },
        {
          "indexed": true,
          "internalType": "address",
          "name": "minter",
          "type": "address"
        },
        {
          "indexed": false,
          "internalType": "uint256",
          "name": "mintAmount",
          "type": "uint256"
        },
        {
          "indexed": false,
          "internalType": "uint256",
          "name": "poolTokens",
          "type": "uint256"
        }
      ],
      "name": "Mint",
      "type": "event"
    },
    {
      "anonymous": false,
      "inputs": [
        {
          "indexed": false,
          "internalType": "address",
          "name": "oldVoid",
          "type": "address"
        },
        {
          "indexed": false,
          "internalType": "address",
          "name": "newVoid",
          "type": "address"
        }
      ],
      "name": "NewCygnusVoid",
      "type": "event"
    },
    {
      "anonymous": false,
      "inputs": [
        {
          "indexed": false,
          "internalType": "uint256",
          "name": "oldDebtRatio",
          "type": "uint256"
        },
        {
          "indexed": false,
          "internalType": "uint256",
          "name": "newDebtRatio",
          "type": "uint256"
        }
      ],
      "name": "NewDebtRatio",
      "type": "event"
    },
    {
      "anonymous": false,
      "inputs": [
        {
          "indexed": false,
          "internalType": "uint256",
          "name": "oldLiquidationFee",
          "type": "uint256"
        },
        {
          "indexed": false,
          "internalType": "uint256",
          "name": "newLiquidationFee",
          "type": "uint256"
        }
      ],
      "name": "NewLiquidationFee",
      "type": "event"
    },
    {
      "anonymous": false,
      "inputs": [
        {
          "indexed": false,
          "internalType": "uint256",
          "name": "oldLiquidationIncentive",
          "type": "uint256"
        },
        {
          "indexed": false,
          "internalType": "uint256",
          "name": "newLiquidationIncentive",
          "type": "uint256"
        }
      ],
      "name": "NewLiquidationIncentive",
      "type": "event"
    },
    {
      "anonymous": false,
      "inputs": [
        {
          "indexed": false,
          "internalType": "contract IChainlinkNebulaOracle",
          "name": "oldPriceOracle",
          "type": "address"
        },
        {
          "indexed": false,
          "internalType": "contract IChainlinkNebulaOracle",
          "name": "newPriceOracle",
          "type": "address"
        }
      ],
      "name": "NewPriceOracle",
      "type": "event"
    },
    {
      "anonymous": false,
      "inputs": [
        {
          "indexed": true,
          "internalType": "address",
          "name": "shuttle",
          "type": "address"
        },
        {
          "indexed": false,
          "internalType": "address",
          "name": "reinvestor",
          "type": "address"
        },
        {
          "indexed": false,
          "internalType": "uint256",
          "name": "rewardBalance",
          "type": "uint256"
        },
        {
          "indexed": false,
          "internalType": "uint256",
          "name": "reinvestReward",
          "type": "uint256"
        }
      ],
      "name": "RechargeVoid",
      "type": "event"
    },
    {
      "anonymous": false,
      "inputs": [
        {
          "indexed": true,
          "internalType": "address",
          "name": "sender",
          "type": "address"
        },
        {
          "indexed": true,
          "internalType": "address",
          "name": "redeemer",
          "type": "address"
        },
        {
          "indexed": false,
          "internalType": "uint256",
          "name": "redeemAmount",
          "type": "uint256"
        },
        {
          "indexed": false,
          "internalType": "uint256",
          "name": "poolTokens",
          "type": "uint256"
        }
      ],
      "name": "Redeem",
      "type": "event"
    },
    {
      "anonymous": false,
      "inputs": [
        {
          "indexed": false,
          "internalType": "uint256",
          "name": "totalBalance",
          "type": "uint256"
        }
      ],
      "name": "Sync",
      "type": "event"
    },
    {
      "anonymous": false,
      "inputs": [
        {
          "indexed": true,
          "internalType": "address",
          "name": "from",
          "type": "address"
        },
        {
          "indexed": true,
          "internalType": "address",
          "name": "to",
          "type": "address"
        },
        {
          "indexed": false,
          "internalType": "uint256",
          "name": "amount",
          "type": "uint256"
        }
      ],
      "name": "Transfer",
      "type": "event"
    },
    {
      "inputs": [],
      "name": "DEBT_RATIO_MAX",
      "outputs": [
        {
          "internalType": "uint256",
          "name": "",
          "type": "uint256"
        }
      ],
      "stateMutability": "view",
      "type": "function"
    },
    {
      "inputs": [],
      "name": "DEBT_RATIO_MIN",
      "outputs": [
        {
          "internalType": "uint256",
          "name": "",
          "type": "uint256"
        }
      ],
      "stateMutability": "view",
      "type": "function"
    },
    {
      "inputs": [],
      "name": "DOMAIN_SEPARATOR",
      "outputs": [
        {
          "internalType": "bytes32",
          "name": "",
          "type": "bytes32"
        }
      ],
      "stateMutability": "view",
      "type": "function"
    },
    {
      "inputs": [],
      "name": "LIQUIDATION_FEE_MAX",
      "outputs": [
        {
          "internalType": "uint256",
          "name": "",
          "type": "uint256"
        }
      ],
      "stateMutability": "view",
      "type": "function"
    },
    {
      "inputs": [],
      "name": "LIQUIDATION_INCENTIVE_MAX",
      "outputs": [
        {
          "internalType": "uint256",
          "name": "",
          "type": "uint256"
        }
      ],
      "stateMutability": "view",
      "type": "function"
    },
    {
      "inputs": [],
      "name": "LIQUIDATION_INCENTIVE_MIN",
      "outputs": [
        {
          "internalType": "uint256",
          "name": "",
          "type": "uint256"
        }
      ],
      "stateMutability": "view",
      "type": "function"
    },
    {
      "inputs": [],
      "name": "PERMIT_TYPEHASH",
      "outputs": [
        {
          "internalType": "bytes32",
          "name": "",
          "type": "bytes32"
        }
      ],
      "stateMutability": "view",
      "type": "function"
    },
    {
      "inputs": [],
      "name": "REINVEST_REWARD",
      "outputs": [
        {
          "internalType": "uint256",
          "name": "",
          "type": "uint256"
        }
      ],
      "stateMutability": "view",
      "type": "function"
    },
    {
      "inputs": [
        {
          "internalType": "address",
          "name": "owner",
          "type": "address"
        },
        {
          "internalType": "address",
          "name": "spender",
          "type": "address"
        }
      ],
      "name": "allowance",
      "outputs": [
        {
          "internalType": "uint256",
          "name": "",
          "type": "uint256"
        }
      ],
      "stateMutability": "view",
      "type": "function"
    },
    {
      "inputs": [
        {
          "internalType": "address",
          "name": "spender",
          "type": "address"
        },
        {
          "internalType": "uint256",
          "name": "amount",
          "type": "uint256"
        }
      ],
      "name": "approve",
      "outputs": [
        {
          "internalType": "bool",
          "name": "",
          "type": "bool"
        }
      ],
      "stateMutability": "nonpayable",
      "type": "function"
    },
    {
      "inputs": [
        {
          "internalType": "address",
          "name": "account",
          "type": "address"
        }
      ],
      "name": "balanceOf",
      "outputs": [
        {
          "internalType": "uint256",
          "name": "",
          "type": "uint256"
        }
      ],
      "stateMutability": "view",
      "type": "function"
    },
    {
      "inputs": [],
      "name": "chainId",
      "outputs": [
        {
          "internalType": "uint256",
          "name": "",
          "type": "uint256"
        }
      ],
      "stateMutability": "view",
      "type": "function"
    },
    {
      "inputs": [],
      "name": "cygnusDai",
      "outputs": [
        {
          "internalType": "address",
          "name": "",
          "type": "address"
        }
      ],
      "stateMutability": "view",
      "type": "function"
    },
    {
      "inputs": [],
      "name": "cygnusNebulaOracle",
      "outputs": [
        {
          "internalType": "contract IChainlinkNebulaOracle",
          "name": "",
          "type": "address"
        }
      ],
      "stateMutability": "view",
      "type": "function"
    },
    {
      "inputs": [],
      "name": "debtRatio",
      "outputs": [
        {
          "internalType": "uint256",
          "name": "",
          "type": "uint256"
        }
      ],
      "stateMutability": "view",
      "type": "function"
    },
    {
      "inputs": [],
      "name": "decimals",
      "outputs": [
        {
          "internalType": "uint8",
          "name": "",
          "type": "uint8"
        }
      ],
      "stateMutability": "view",
      "type": "function"
    },
    {
      "inputs": [
        {
          "internalType": "address",
          "name": "spender",
          "type": "address"
        },
        {
          "internalType": "uint256",
          "name": "subtractedAmount",
          "type": "uint256"
        }
      ],
      "name": "decreaseAllowance",
      "outputs": [
        {
          "internalType": "bool",
          "name": "",
          "type": "bool"
        }
      ],
      "stateMutability": "nonpayable",
      "type": "function"
    },
    {
      "inputs": [],
      "name": "exchangeRate",
      "outputs": [
        {
          "internalType": "uint256",
          "name": "",
          "type": "uint256"
        }
      ],
      "stateMutability": "view",
      "type": "function"
    },
    {
      "inputs": [],
      "name": "hangar18",
      "outputs": [
        {
          "internalType": "address",
          "name": "",
          "type": "address"
        }
      ],
      "stateMutability": "view",
      "type": "function"
    },
    {
      "inputs": [
        {
          "internalType": "address",
          "name": "spender",
          "type": "address"
        },
        {
          "internalType": "uint256",
          "name": "addedAmount",
          "type": "uint256"
        }
      ],
      "name": "increaseAllowance",
      "outputs": [
        {
          "internalType": "bool",
          "name": "",
          "type": "bool"
        }
      ],
      "stateMutability": "nonpayable",
      "type": "function"
    },
    {
      "inputs": [
        {
          "internalType": "contract IDexRouter02",
          "name": "dexRouterVoid",
          "type": "address"
        },
        {
          "internalType": "contract IMiniChef",
          "name": "rewarderVoid",
          "type": "address"
        },
        {
          "internalType": "address",
          "name": "rewardsTokenVoid",
          "type": "address"
        },
        {
          "internalType": "uint256",
          "name": "pidVoid",
          "type": "uint256"
        },
        {
          "internalType": "uint256",
          "name": "dexSwapFeeVoid",
          "type": "uint256"
        }
      ],
      "name": "initializeVoid",
      "outputs": [],
      "stateMutability": "nonpayable",
      "type": "function"
    },
    {
      "inputs": [],
      "name": "liquidationFee",
      "outputs": [
        {
          "internalType": "uint256",
          "name": "",
          "type": "uint256"
        }
      ],
      "stateMutability": "view",
      "type": "function"
    },
    {
      "inputs": [],
      "name": "liquidationIncentive",
      "outputs": [
        {
          "internalType": "uint256",
          "name": "",
          "type": "uint256"
        }
      ],
      "stateMutability": "view",
      "type": "function"
    },
    {
      "inputs": [
        {
          "internalType": "address",
          "name": "minter",
          "type": "address"
        }
      ],
      "name": "mint",
      "outputs": [
        {
          "internalType": "uint256",
          "name": "cygnusMintTokens",
          "type": "uint256"
        }
      ],
      "stateMutability": "nonpayable",
      "type": "function"
    },
    {
      "inputs": [],
      "name": "name",
      "outputs": [
        {
          "internalType": "string",
          "name": "",
          "type": "string"
        }
      ],
      "stateMutability": "view",
      "type": "function"
    },
    {
      "inputs": [
        {
          "internalType": "address",
          "name": "",
          "type": "address"
        }
      ],
      "name": "nonces",
      "outputs": [
        {
          "internalType": "uint256",
          "name": "",
          "type": "uint256"
        }
      ],
      "stateMutability": "view",
      "type": "function"
    },
    {
      "inputs": [
        {
          "internalType": "address",
          "name": "owner",
          "type": "address"
        },
        {
          "internalType": "address",
          "name": "spender",
          "type": "address"
        },
        {
          "internalType": "uint256",
          "name": "value",
          "type": "uint256"
        },
        {
          "internalType": "uint256",
          "name": "deadline",
          "type": "uint256"
        },
        {
          "internalType": "uint8",
          "name": "v",
          "type": "uint8"
        },
        {
          "internalType": "bytes32",
          "name": "r",
          "type": "bytes32"
        },
        {
          "internalType": "bytes32",
          "name": "s",
          "type": "bytes32"
        }
      ],
      "name": "permit",
      "outputs": [],
      "stateMutability": "nonpayable",
      "type": "function"
    },
    {
      "inputs": [
        {
          "internalType": "address",
          "name": "holder",
          "type": "address"
        }
      ],
      "name": "redeem",
      "outputs": [
        {
          "internalType": "uint256",
          "name": "redeemAmount",
          "type": "uint256"
        }
      ],
      "stateMutability": "nonpayable",
      "type": "function"
    },
    {
      "inputs": [],
      "name": "reinvestRewards_y7b",
      "outputs": [],
      "stateMutability": "nonpayable",
      "type": "function"
    },
    {
      "inputs": [
        {
          "internalType": "uint256",
          "name": "newDebtRatio",
          "type": "uint256"
        }
      ],
      "name": "setDebtRatio",
      "outputs": [],
      "stateMutability": "nonpayable",
      "type": "function"
    },
    {
      "inputs": [
        {
          "internalType": "uint256",
          "name": "newLiquidationFee",
          "type": "uint256"
        }
      ],
      "name": "setLiquidationFee",
      "outputs": [],
      "stateMutability": "nonpayable",
      "type": "function"
    },
    {
      "inputs": [
        {
          "internalType": "uint256",
          "name": "newLiquidationIncentive",
          "type": "uint256"
        }
      ],
      "name": "setLiquidationIncentive",
      "outputs": [],
      "stateMutability": "nonpayable",
      "type": "function"
    },
    {
      "inputs": [],
      "name": "setNebulaOracle",
      "outputs": [],
      "stateMutability": "nonpayable",
      "type": "function"
    },
    {
      "inputs": [
        {
          "internalType": "address",
          "name": "recipient",
          "type": "address"
        }
      ],
      "name": "skim",
      "outputs": [],
      "stateMutability": "nonpayable",
      "type": "function"
    },
    {
      "inputs": [],
      "name": "symbol",
      "outputs": [
        {
          "internalType": "string",
          "name": "",
          "type": "string"
        }
      ],
      "stateMutability": "view",
      "type": "function"
    },
    {
      "inputs": [],
      "name": "sync",
      "outputs": [],
      "stateMutability": "nonpayable",
      "type": "function"
    },
    {
      "inputs": [],
      "name": "totalBalance",
      "outputs": [
        {
          "internalType": "uint256",
          "name": "",
          "type": "uint256"
        }
      ],
      "stateMutability": "view",
      "type": "function"
    },
    {
      "inputs": [],
      "name": "totalSupply",
      "outputs": [
        {
          "internalType": "uint256",
          "name": "",
          "type": "uint256"
        }
      ],
      "stateMutability": "view",
      "type": "function"
    },
    {
      "inputs": [
        {
          "internalType": "address",
          "name": "recipient",
          "type": "address"
        },
        {
          "internalType": "uint256",
          "name": "amount",
          "type": "uint256"
        }
      ],
      "name": "transfer",
      "outputs": [
        {
          "internalType": "bool",
          "name": "",
          "type": "bool"
        }
      ],
      "stateMutability": "nonpayable",
      "type": "function"
    },
    {
      "inputs": [
        {
          "internalType": "address",
          "name": "sender",
          "type": "address"
        },
        {
          "internalType": "address",
          "name": "recipient",
          "type": "address"
        },
        {
          "internalType": "uint256",
          "name": "amount",
          "type": "uint256"
        }
      ],
      "name": "transferFrom",
      "outputs": [
        {
          "internalType": "bool",
          "name": "",
          "type": "bool"
        }
      ],
      "stateMutability": "nonpayable",
      "type": "function"
    },
    {
      "inputs": [],
      "name": "underlying",
      "outputs": [
        {
          "internalType": "address",
          "name": "",
          "type": "address"
        }
      ],
      "stateMutability": "view",
      "type": "function"
    },
    {
      "inputs": [],
      "name": "version",
      "outputs": [
        {
          "internalType": "string",
          "name": "",
          "type": "string"
        }
      ],
      "stateMutability": "view",
      "type": "function"
    },
    {
      "inputs": [],
      "name": "voidInfo",
      "outputs": [
        {
          "internalType": "contract IMiniChef",
          "name": "rewarder_",
          "type": "address"
        },
        {
          "internalType": "uint256",
          "name": "pid_",
          "type": "uint256"
        },
        {
          "internalType": "bool",
          "name": "voidActivated_",
          "type": "bool"
        },
        {
          "internalType": "address",
          "name": "rewardsToken_",
          "type": "address"
        },
        {
          "internalType": "uint256",
          "name": "dexSwapFee_",
          "type": "uint256"
        },
        {
          "internalType": "contract IDexRouter02",
          "name": "dexRouter_",
          "type": "address"
        }
      ],
      "stateMutability": "view",
      "type": "function"
    },
    {
      "stateMutability": "payable",
      "type": "receive"
    }
  ],
  "bytecode": "0x61014060405246600755670c7d713b49da0000600f55670e92596fd62900006010553480156200002e57600080fd5b5060408051808201825260128082527110de59db9d5cce8810dbdb1b185d195c985b60721b60208084019182528451808601909552600585526404379674c560dc1b908501526000805460ff191660019081179091558351939493859285928592859285928592620000a19290620006f1565b508151620000b7906002906020850190620006f1565b5060f81b7fff000000000000000000000000000000000000000000000000000000000000001660805250506040517f8b73c3c69bb8fe3d512ecc4cf759cc79239f7b179b0ffacaa9a75d522b39400f906200011590600190620008c4565b60408051918290038220828201825260018352603160f81b602093840152600754825193840194909452908201527fc89efdaa54c0f20c7adf612882df0950f5a951637e0307cdcb4c672f298b8bc6606082015260808101919091523060a082015260c00160408051601f19818403018152919052805160209091012060a05250620001a7945050620004dc92505050565b6001600160a01b031663c3bc64ea6040518163ffffffff1660e01b8152600401606060405180830381600087803b158015620001e257600080fd5b505af1158015620001f7573d6000803e3d6000fd5b505050506040513d601f19601f820116820180604052508101906200021d9190620007bd565b60601b6001600160601b03191660c052600c80546001600160a01b03199081166001600160a01b0393841617909155600d805490911692909116918217905560408051636c9adec960e11b8152905163d935bd9291600480820192602092909190829003018186803b1580156200029357600080fd5b505afa158015620002a8573d6000803e3d6000fd5b505050506040513d601f19601f82011682018060405250810190620002ce919062000797565b600e80546001600160a01b0319166001600160a01b03928316179055600c54620003059116620004e0602090811b62001d7e17901c565b80516200031b91600291602090910190620006f1565b506000600355600c5460408051630dfe168160e01b815290516001600160a01b0390921691630dfe168191600480820192602092909190829003018186803b1580156200036757600080fd5b505afa1580156200037c573d6000803e3d6000fd5b505050506040513d601f19601f82011682018060405250810190620003a2919062000797565b60601b6001600160601b03191661010052600c546040805163d21220a760e01b815290516001600160a01b039092169163d21220a791600480820192602092909190829003018186803b158015620003f957600080fd5b505afa1580156200040e573d6000803e3d6000fd5b505050506040513d601f19601f8201168201806040525081019062000434919062000797565b60601b6001600160601b03191661012052600d5460408051631c2eb17b60e31b815290516001600160a01b039092169163e1758bd891600480820192602092909190829003018186803b1580156200048b57600080fd5b505afa158015620004a0573d6000803e3d6000fd5b505050506040513d601f19601f82011682018060405250810190620004c6919062000797565b60601b6001600160601b03191660e05262000a58565b3390565b60606000826001600160a01b0316630dfe16816040518163ffffffff1660e01b815260040160206040518083038186803b1580156200051e57600080fd5b505afa15801562000533573d6000803e3d6000fd5b505050506040513d601f19601f8201168201806040525081019062000559919062000797565b6001600160a01b03166395d89b416040518163ffffffff1660e01b815260040160006040518083038186803b1580156200059257600080fd5b505afa158015620005a7573d6000803e3d6000fd5b505050506040513d6000823e601f3d908101601f19168201604052620005d1919081019062000810565b90506000836001600160a01b031663d21220a76040518163ffffffff1660e01b815260040160206040518083038186803b1580156200060f57600080fd5b505afa15801562000624573d6000803e3d6000fd5b505050506040513d601f19601f820116820180604052508101906200064a919062000797565b6001600160a01b03166395d89b416040518163ffffffff1660e01b815260040160006040518083038186803b1580156200068357600080fd5b505afa15801562000698573d6000803e3d6000fd5b505050506040513d6000823e601f3d908101601f19168201604052620006c2919081019062000810565b90508181604051602001620006d992919062000967565b60405160208183030381529060405292505050919050565b828054620006ff90620009ec565b90600052602060002090601f0160209004810192826200072357600085556200076e565b82601f106200073e57805160ff19168380011785556200076e565b828001600101855582156200076e579182015b828111156200076e57825182559160200191906001019062000751565b506200077c92915062000780565b5090565b5b808211156200077c576000815560010162000781565b600060208284031215620007a9578081fd5b8151620007b68162000a3f565b9392505050565b600080600060608486031215620007d2578182fd5b8351620007df8162000a3f565b6020850151909350620007f28162000a3f565b6040850151909250620008058162000a3f565b809150509250925092565b60006020828403121562000822578081fd5b81516001600160401b038082111562000839578283fd5b818401915084601f8301126200084d578283fd5b81518181111562000862576200086262000a29565b604051601f8201601f19908116603f011681019083821181831017156200088d576200088d62000a29565b81604052828152876020848701011115620008a6578586fd5b620008b9836020830160208801620009b9565b979650505050505050565b600080835482600182811c915080831680620008e157607f831692505b60208084108214156200090257634e487b7160e01b87526022600452602487fd5b8180156200091957600181146200092b5762000959565b60ff1986168952848901965062000959565b60008a815260209020885b86811015620009515781548b82015290850190830162000936565b505084890196505b509498975050505050505050565b65021bcb3a628160d51b8152600083516200098a816006850160208801620009b9565b602f60f81b6006918401918201528351620009ad816007840160208801620009b9565b01600701949350505050565b60005b83811015620009d6578181015183820152602001620009bc565b83811115620009e6576000848401525b50505050565b600181811c9082168062000a0157607f821691505b6020821081141562000a2357634e487b7160e01b600052602260045260246000fd5b50919050565b634e487b7160e01b600052604160045260246000fd5b6001600160a01b038116811462000a5557600080fd5b50565b60805160f81c60a05160c05160601c60e05160601c6101005160601c6101205160601c6139a362000b5860003960008181610a0f01528181610a7a01528181610ae201528181610bd301528181610c5d0152610d3f0152600081816109d701528181610a4701528181610a9b01528181610ac101528181610b7801528181610c2e01528181610c7e01528181610cc801528181610d1c0152610e270152600081816102e501528181610b1e01528181610b4e01528181610ba901528181610c0401528181610ca701528181610cec0152818161111201526121ad015260006107ca0152600081816104f70152611b010152600061049501526139a36000f3fe6080604052600436106102de5760003560e01c80638c765e9411610184578063bc25cf77116100d6578063d935bd921161008a578063eb6a887d11610064578063eb6a887d14610900578063fef0bec814610920578063fff6cae91461094057600080fd5b8063d935bd921461087a578063dd62ed3e1461089a578063e8a24e1d146108e057600080fd5b8063cea55f57116100bb578063cea55f5714610844578063cf85c88214610828578063d505accf1461085a57600080fd5b8063bc25cf7714610808578063bc9bd12a1461082857600080fd5b8063a457c2d711610138578063ad7a672f11610112578063ad7a672f146107a2578063adbb2597146107b8578063afc8276c146107ec57600080fd5b8063a457c2d714610742578063a843108114610762578063a9059cbb1461078257600080fd5b806395d89b411161016957806395d89b41146107015780639a8a059214610716578063a36a36301461072c57600080fd5b80638c765e94146106cb57806395a2251f146106e157600080fd5b80633644e5151161023d578063643211f2116101f157806370a08231116101cb57806370a08231146106045780637ecebe001461063a5780638c3b76a81461066757600080fd5b8063643211f2146105905780636a627842146105ac5780636f307dc3146105cc57600080fd5b80633ba0b9a9116102225780633ba0b9a914610539578063421f0fcc1461054e57806354fd4d501461056357600080fd5b80633644e515146104e5578063395093511461051957600080fd5b80631c1981881161029457806330adf81f1161027957806330adf81f1461044f578063313ce5671461048357806333fabfd1146104c957600080fd5b80631c1981881461041457806323b872dd1461042f57600080fd5b8063095ea7b3116102c5578063095ea7b3146103a057806315b02cf5146103d057806318160ddd146103f057600080fd5b8061e18a1461035e57806306fdde031461037557600080fd5b36610359577f00000000000000000000000000000000000000000000000000000000000000006001600160a01b031663d0e30db0346040518263ffffffff1660e01b81526004016000604051808303818588803b15801561033e57600080fd5b505af1158015610352573d6000803e3d6000fd5b5050505050005b600080fd5b34801561036a57600080fd5b50610373610955565b005b34801561038157600080fd5b5061038a610f92565b604051610397919061377f565b60405180910390f35b3480156103ac57600080fd5b506103c06103bb3660046133af565b611020565b6040519015158152602001610397565b3480156103dc57600080fd5b506103736103eb366004613552565b611037565b3480156103fc57600080fd5b5061040660035481565b604051908152602001610397565b34801561042057600080fd5b506104066658d15e1762800081565b34801561043b57600080fd5b506103c061044a3660046132fa565b6111cf565b34801561045b57600080fd5b506104067f6e71edae12b1b97f4d1f60370fef10105fa2faae0126114a169c64845d6126c981565b34801561048f57600080fd5b506104b77f000000000000000000000000000000000000000000000000000000000000000081565b60405160ff9091168152602001610397565b3480156104d557600080fd5b5061040667016345785d8a000081565b3480156104f157600080fd5b506104067f000000000000000000000000000000000000000000000000000000000000000081565b34801561052557600080fd5b506103c06105343660046133af565b611245565b34801561054557600080fd5b5061040661128d565b34801561055a57600080fd5b506103736112bb565b34801561056f57600080fd5b5061038a604051806040016040528060018152602001603160f81b81525081565b34801561059c57600080fd5b506104066706f05b59d3b2000081565b3480156105b857600080fd5b506104066105c736600461328a565b611432565b3480156105d857600080fd5b50600c546105ec906001600160a01b031681565b6040516001600160a01b039091168152602001610397565b34801561061057600080fd5b5061040661061f36600461328a565b6001600160a01b031660009081526004602052604090205490565b34801561064657600080fd5b5061040661065536600461328a565b60066020526000908152604090205481565b34801561067357600080fd5b50600854600954600a54601254601454601354604080516001600160a01b039788168152602081019690965260ff909416151593850193909352908416606084015260808301529190911660a082015260c001610397565b3480156106d757600080fd5b5061040660105481565b3480156106ed57600080fd5b506104066106fc36600461328a565b61172c565b34801561070d57600080fd5b5061038a6118ae565b34801561072257600080fd5b5061040660075481565b34801561073857600080fd5b5061040660115481565b34801561074e57600080fd5b506103c061075d3660046133af565b6118bb565b34801561076e57600080fd5b5061037361077d36600461367e565b6118ec565b34801561078e57600080fd5b506103c061079d3660046133af565b61197a565b3480156107ae57600080fd5b50610406600b5481565b3480156107c457600080fd5b506105ec7f000000000000000000000000000000000000000000000000000000000000000081565b3480156107f857600080fd5b506104066710a741a46278000081565b34801561081457600080fd5b5061037361082336600461328a565b611987565b34801561083457600080fd5b50610406670de0b6b3a764000081565b34801561085057600080fd5b50610406600f5481565b34801561086657600080fd5b5061037361087536600461333a565b6119f8565b34801561088657600080fd5b50600e546105ec906001600160a01b031681565b3480156108a657600080fd5b506104066108b53660046132c2565b6001600160a01b03918216600090815260056020908152604080832093909416825291909152205490565b3480156108ec57600080fd5b50600d546105ec906001600160a01b031681565b34801561090c57600080fd5b5061037361091b36600461367e565b611c35565b34801561092c57600080fd5b5061037361093b36600461367e565b611cc3565b34801561094c57600080fd5b50610373611d49565b60005460ff16610978576040516306fda65d60e31b815260040160405180910390fd5b6000805460ff1916905561098a611f7d565b6000610994611fa7565b9050806109a15750610f7b565b60006109b4826658d15e1762800061221c565b90506109cd336012546001600160a01b03169083612228565b60125460009081907f00000000000000000000000000000000000000000000000000000000000000006001600160a01b0390811691161480610a3d57506012547f00000000000000000000000000000000000000000000000000000000000000006001600160a01b039081169116145b15610b0c576012547f00000000000000000000000000000000000000000000000000000000000000006001600160a01b03908116911614610abf577f00000000000000000000000000000000000000000000000000000000000000007f0000000000000000000000000000000000000000000000000000000000000000610b02565b7f00000000000000000000000000000000000000000000000000000000000000007f00000000000000000000000000000000000000000000000000000000000000005b9092509050610d5f565b601254610b4c906001600160a01b03167f0000000000000000000000000000000000000000000000000000000000000000610b4786886138aa565b612294565b7f00000000000000000000000000000000000000000000000000000000000000006001600160a01b03167f00000000000000000000000000000000000000000000000000000000000000006001600160a01b03161480610bfd57507f00000000000000000000000000000000000000000000000000000000000000006001600160a01b03167f00000000000000000000000000000000000000000000000000000000000000006001600160a01b0316145b15610ca2577f00000000000000000000000000000000000000000000000000000000000000006001600160a01b03167f00000000000000000000000000000000000000000000000000000000000000006001600160a01b031614610abf577f00000000000000000000000000000000000000000000000000000000000000007f0000000000000000000000000000000000000000000000000000000000000000610b02565b610d197f00000000000000000000000000000000000000000000000000000000000000007f0000000000000000000000000000000000000000000000000000000000000000610b477f00000000000000000000000000000000000000000000000000000000000000006001600160a01b03166123d9565b507f000000000000000000000000000000000000000000000000000000000000000090507f00000000000000000000000000000000000000000000000000000000000000005b6000610d73836001600160a01b03166123d9565b9050600080600c60009054906101000a90046001600160a01b03166001600160a01b0316630902f1ac6040518163ffffffff1660e01b815260040160606040518083038186803b158015610dc657600080fd5b505afa158015610dda573d6000803e3d6000fd5b505050506040513d601f19601f82011682018060405250810190610dfe919061363c565b506dffffffffffffffffffffffffffff1691506dffffffffffffffffffffffffffff16915060007f00000000000000000000000000000000000000000000000000000000000000006001600160a01b0316866001600160a01b031614610e645781610e66565b825b90506000610e778583601454612453565b9050610e84878783612294565b6000610eac8888610e95858a6138aa565b610ea78b6001600160a01b03166123d9565b6124f1565b600854600954604051631c57762b60e31b81526004810191909152602481018390529192506001600160a01b03169063e2bbb15890604401600060405180830381600087803b158015610efe57600080fd5b505af1158015610f12573d6000803e3d6000fd5b50505050306001600160a01b03167f6ac14c64e9542da5b5d0624113aec83684dd471c3d8c61022ae5d78fa1523792610f483390565b604080516001600160a01b039092168252602082018e905281018c905260600160405180910390a2505050505050505050505b610f836125e4565b6000805460ff19166001179055565b60018054610f9f906138f1565b80601f0160208091040260200160405190810160405280929190818152602001828054610fcb906138f1565b80156110185780601f10610fed57610100808354040283529160200191611018565b820191906000526020600020905b815481529060010190602001808311610ffb57829003601f168201915b505050505081565b600061102d3384846126b7565b5060015b92915050565b60005460ff1661105a576040516306fda65d60e31b815260040160405180910390fd5b6000805460ff1916905561106c612766565b6012546001600160a01b0316156110a6576040516327d04a1160e01b81526001600160a01b03841660048201526024015b60405180910390fd5b601380546001600160a01b0380881673ffffffffffffffffffffffffffffffffffffffff199283161790925560088054878416908316179055600984905560128054928616929091168217905560148290556111059086600019612822565b61113b6001600160a01b037f00000000000000000000000000000000000000000000000000000000000000001686600019612822565b600c54611154906001600160a01b031685600019612822565b600a805460ff19166001179055604080516001600160a01b0387811682528681166020830152851681830152606081018490526080810183905290517fd11ba4f3abfc78cb044532e87016a0c93a03fbbb5049a35d53fb1238d9ac66529160a0908290030190a150506000805460ff19166001179055505050565b60006111dc84848461294b565b6001600160a01b03841660009081526005602090815260408083203384529091529020548281101561122b57604051632b3ca6f360e11b8152600481018290526024810184905260440161109d565b61123885338584036126b7565b60019150505b9392505050565b3360009081526005602090815260408083206001600160a01b03861684529091528120548190611276908490613853565b90506112833385836126b7565b5060019392505050565b60035460009080156112ab57600b546112a69082612a6e565b6112b5565b670de0b6b3a76400005b91505090565b6112c3612766565b60005460ff166112e6576040516306fda65d60e31b815260040160405180910390fd5b6000805460ff19168155600d5460408051636c9adec960e11b815290516001600160a01b039092169163d935bd9291600480820192602092909190829003018186803b15801561133557600080fd5b505afa158015611349573d6000803e3d6000fd5b505050506040513d601f19601f8201168201806040525081019061136d91906132a6565b600e549091506001600160a01b03808316911614156113b657600e54604051637a4ec46360e01b81526001600160a01b039182166004820152908216602482015260440161109d565b600e80546001600160a01b0383811673ffffffffffffffffffffffffffffffffffffffff1983168117909355604080519190921680825260208201939093527fd52b2b9b7e9ee655fcb95d2e5b9e0c9f69e7ef2b8e9d2d0ea78402d576d22e2291015b60405180910390a150506000805460ff19166001179055565b6000805460ff16611456576040516306fda65d60e31b815260040160405180910390fd5b6000805460ff19168155600c546040516370a0823160e01b81523060048201526001600160a01b03909116906370a082319060240160206040518083038186803b1580156114a357600080fd5b505afa1580156114b7573d6000803e3d6000fd5b505050506040513d601f19601f820116820180604052508101906114db9190613696565b600a5490915060ff1615611678576008546009546040516393f1a40b60e01b815260048101919091523060248201526000916001600160a01b0316906393f1a40b90604401604080518083038186803b15801561153757600080fd5b505afa15801561154b573d6000803e3d6000fd5b505050506040513d601f19601f8201168201806040525081019061156f91906136ae565b50600854600954604051631c57762b60e31b81526004810191909152602481018590529192506001600160a01b03169063e2bbb15890604401600060405180830381600087803b1580156115c257600080fd5b505af11580156115d6573d6000803e3d6000fd5b50506008546009546040516393f1a40b60e01b81526004810191909152306024820152600093506001600160a01b0390911691506393f1a40b90604401604080518083038186803b15801561162a57600080fd5b505afa15801561163e573d6000803e3d6000fd5b505050506040513d601f19601f8201168201806040525081019061166291906136ae565b50905061166f82826138aa565b92505050611688565b600b5461168590826138aa565b90505b61169a61169361128d565b8290612a6e565b9150600082116116c05760405163cd698f4d60e01b81526004810183905260240161109d565b6116ca8383612a83565b60408051828152602081018490526001600160a01b0385169133917f2f00e3cdd69a77be7ed215ec7b2a36784dd158f921fca79ac29deffa353fe6ee91015b60405180910390a35061171a6125e4565b6000805460ff19166001179055919050565b6000805460ff16611750576040516306fda65d60e31b815260040160405180910390fd5b6000805460ff191681553081526004602052604090205461177961177261128d565b829061221c565b91506000821161179f576040516319f4fb4360e31b81526004810183905260240161109d565b600b548211156117d057600b546040516339eff09f60e11b815261109d918491600401918252602082015260400190565b6117da3082612b36565b600a5460ff161561185457600854600954604051630441a3e760e41b81526001600160a01b039092169163441a3e7091611821918690600401918252602082015260400190565b600060405180830381600087803b15801561183b57600080fd5b505af115801561184f573d6000803e3d6000fd5b505050505b600c5461186b906001600160a01b03168484612228565b60408051838152602081018390526001600160a01b0385169133917f3f693fff038bb8a046aa76d9516190ac7444f7d69cf952c4cbdc086fdef2d6fc9101611709565b60028054610f9f906138f1565b3360009081526005602090815260408083206001600160a01b038616845290915281205481906112769084906138aa565b6118f4612766565b60005460ff16611917576040516306fda65d60e31b815260040160405180910390fd5b6000805460ff1916905561193c670de0b6b3a76400006710a741a46278000083612be1565b601080549082905560408051828152602081018490527faeba5a6c40a8ac138134bff1aaa65debf25971188a58804bad717f82f0ec13169101611419565b600061102d33848461294b565b60005460ff166119aa576040516306fda65d60e31b815260040160405180910390fd5b6000805460ff19168155600b5430825260046020526040909120546119e89183916119d591906138aa565b600c546001600160a01b03169190612228565b506000805460ff19166001179055565b6001600160a01b038716611a1f5760405163bc622b6360e01b815260040160405180910390fd5b6001600160a01b038616611a4657604051632853494b60e11b815260040160405180910390fd5b42841015611a6a5760405163212ed8bb60e11b81526004810185905260240161109d565b6001600160a01b0387811660008181526006602090815260408083208054600180820190925582517f6e71edae12b1b97f4d1f60370fef10105fa2faae0126114a169c64845d6126c98186015280840196909652958c166060860152608085018b905260a085019590955260c08085018a90528151808603909101815260e08501825280519083012061190160f01b6101008601527f000000000000000000000000000000000000000000000000000000000000000061010286015261012280860182905282518087039091018152610142860180845281519185019190912090859052610162860180845281905260ff8a166101828701526101a286018990526101c2860188905291519095919491926101e2808401939192601f1981019281900390910190855afa158015611ba5573d6000803e3d6000fd5b5050604051601f1901519150506001600160a01b038116611bd957604051630f81234f60e31b815260040160405180910390fd5b896001600160a01b0316816001600160a01b031614611c1e57604051630b76193960e31b815260ff87166004820152602481018690526044810185905260640161109d565b611c298a8a8a6126b7565b50505050505050505050565b611c3d612766565b60005460ff16611c60576040516306fda65d60e31b815260040160405180910390fd5b6000805460ff19169055611c856706f05b59d3b20000670de0b6b3a764000083612be1565b600f80549082905560408051828152602081018490527ff25d2243e4128e51523d8537f04f18c3e6390bbfc6323390a9a8e59b921ce0469101611419565b611ccb612766565b60005460ff16611cee576040516306fda65d60e31b815260040160405180910390fd5b6000805460ff19168155611d0b9067016345785d8a000083612be1565b601180549082905560408051828152602081018490527f87272249f1056ec16a68dd9255101358246dd26a796e2f0bc6b3a0ad02f2de419101611419565b60005460ff16611d6c576040516306fda65d60e31b815260040160405180910390fd5b6000805460ff19169055610f836125e4565b60606000826001600160a01b0316630dfe16816040518163ffffffff1660e01b815260040160206040518083038186803b158015611dbb57600080fd5b505afa158015611dcf573d6000803e3d6000fd5b505050506040513d601f19601f82011682018060405250810190611df391906132a6565b6001600160a01b03166395d89b416040518163ffffffff1660e01b815260040160006040518083038186803b158015611e2b57600080fd5b505afa158015611e3f573d6000803e3d6000fd5b505050506040513d6000823e601f3d908101601f19168201604052611e6791908101906135ac565b90506000836001600160a01b031663d21220a76040518163ffffffff1660e01b815260040160206040518083038186803b158015611ea457600080fd5b505afa158015611eb8573d6000803e3d6000fd5b505050506040513d601f19601f82011682018060405250810190611edc91906132a6565b6001600160a01b03166395d89b416040518163ffffffff1660e01b815260040160006040518083038186803b158015611f1457600080fd5b505afa158015611f28573d6000803e3d6000fd5b505050506040513d6000823e601f3d908101601f19168201604052611f5091908101906135ac565b90508181604051602001611f6592919061371a565b60405160208183030381529060405292505050919050565b333214611fa557604051631fec819f60e21b815233600482015232602482015260440161109d565b565b600854600954604051630441a3e760e41b81526004810191909152600060248201819052916001600160a01b03169063441a3e7090604401600060405180830381600087803b158015611ff957600080fd5b505af115801561200d573d6000803e3d6000fd5b5050600854600954604051631526fe2760e01b81526004810191909152600093506001600160a01b039091169150631526fe27906024016101206040518083038186803b15801561205d57600080fd5b505afa158015612071573d6000803e3d6000fd5b505050506040513d601f19601f8201168201806040525081019061209591906133da565b5050509550505050505060006001600160a01b0316816001600160a01b031614612207576000816001600160a01b03166373cfc6b26040518163ffffffff1660e01b815260040160206040518083038186803b1580156120f457600080fd5b505afa158015612108573d6000803e3d6000fd5b505050506040513d601f19601f8201168201806040525081019061212c9190613532565b90506000816121ab57826001600160a01b031663f7c618c16040518163ffffffff1660e01b815260040160206040518083038186803b15801561216e57600080fd5b505afa158015612182573d6000803e3d6000fd5b505050506040513d601f19601f820116820180604052508101906121a691906132a6565b6121cd565b7f00000000000000000000000000000000000000000000000000000000000000005b905060006121e3826001600160a01b03166123d9565b90508015612203576012546122039083906001600160a01b031683612294565b5050505b6012546112b5906001600160a01b03166123d9565b600061123e8383612c1c565b604080516001600160a01b038416602482015260448082018490528251808303909101815260649091019091526020810180517bffffffffffffffffffffffffffffffffffffffffffffffffffffffff1663a9059cbb60e01b17905261228f908490612cde565b505050565b60408051600280825260608201835260009260208301908036833701905050905083816000815181106122d757634e487b7160e01b600052603260045260246000fd5b60200260200101906001600160a01b031690816001600160a01b031681525050828160018151811061231957634e487b7160e01b600052603260045260246000fd5b6001600160a01b03928316602091820292909201015260135461234191868116911684612d5b565b6013546040516338ed173960e01b81526001600160a01b03909116906338ed17399061237c90859060009086903090600019906004016137b2565b600060405180830381600087803b15801561239657600080fd5b505af11580156123aa573d6000803e3d6000fd5b505050506040513d6000823e601f3d908101601f191682016040526123d2919081019061348a565b5050505050565b6040516370a0823160e01b81523060048201526000906001600160a01b038316906370a082319060240160206040518083038186803b15801561241b57600080fd5b505afa15801561242f573d6000803e3d6000fd5b505050506040513d601f19601f820116820180604052508101906110319190613696565b60008083612463846103e8613853565b61246d919061388b565b90506000838561247f886103e861388b565b612489919061388b565b61249490600461388b565b61249e919061388b565b905060006124bf826124b0858061388b565b6124ba9190613853565b612df4565b905060006124ce86600261388b565b9050806124db85846138aa565b6124e5919061386b565b98975050505050505050565b60135460009061250e906001600160a01b03878116911685612d5b565b601354612528906001600160a01b03868116911684612d5b565b60135460405162e8e33760e81b81526001600160a01b0387811660048301528681166024830152604482018690526064820185905260006084830181905260a48301523060c483015260001960e48301529091169063e8e337009061010401606060405180830381600087803b1580156125a157600080fd5b505af11580156125b5573d6000803e3d6000fd5b505050506040513d601f19601f820116820180604052508101906125d991906136d1565b979650505050505050565b600a5460ff166125f657611fa5612fec565b6008546009546040516393f1a40b60e01b815260048101919091523060248201526001600160a01b03909116906393f1a40b90604401604080518083038186803b15801561264357600080fd5b505afa158015612657573d6000803e3d6000fd5b505050506040513d601f19601f8201168201806040525081019061267b91906136ae565b50600b8190556040519081527f8a0df8ef054fae2c3d2d19a7b322e864870cc9fd3cb07fb9526309c596244bf4906020015b60405180910390a1565b6001600160a01b0383166126de5760405163230326bf60e11b815260040160405180910390fd5b6001600160a01b03821661270557604051630b39ecd960e21b815260040160405180910390fd5b6001600160a01b0383811660008181526005602090815260408083209487168084529482529182902085905590518481527f8c5be1e5ebec7d5bd14f71427d1e84f3dd0314c0f7b2291e5b200ac8c7c3b925910160405180910390a3505050565b600d54604080516303e1469160e61b815290516000926001600160a01b03169163f851a440916004808301926020929190829003018186803b1580156127ab57600080fd5b505afa1580156127bf573d6000803e3d6000fd5b505050506040513d601f19601f820116820180604052508101906127e391906132a6565b9050336001600160a01b0382161461281f57604051633e7c764160e21b81523360048201526001600160a01b038216602482015260440161109d565b50565b604080516001600160a01b038481166024830152604480830185905283518084039091018152606490920183526020820180517bffffffffffffffffffffffffffffffffffffffffffffffffffffffff1663095ea7b360e01b179052915160009283929087169161289391906136fe565b6000604051808303816000865af19150503d80600081146128d0576040519150601f19603f3d011682016040523d82523d6000602084013e6128d5565b606091505b50915091508180156128ff5750805115806128ff5750808060200190518101906128ff9190613532565b6123d25760405162461bcd60e51b815260206004820152600c60248201527f2173616665417070726f76650000000000000000000000000000000000000000604482015260640161109d565b6001600160a01b0383166129725760405163907bfbd760e01b815260040160405180910390fd5b6001600160a01b03821661299957604051637184c13f60e01b815260040160405180910390fd5b6001600160a01b038316600090815260046020526040902054818110156129dd57604051632dcf2e2160e21b8152600481018290526024810183905260440161109d565b6001600160a01b03808516600090815260046020526040808220858503905591851681529081208054849290612a14908490613853565b92505081905550826001600160a01b0316846001600160a01b03167fddf252ad1be2c89b69c2b068fc378daa952ba7f163c4a11628f55a4df523b3ef84604051612a6091815260200190565b60405180910390a350505050565b600061123e83670de0b6b3a76400008461309c565b6001600160a01b038216612aaa5760405163139241eb60e01b815260040160405180910390fd5b6001600160a01b03821660009081526004602052604081208054839290612ad2908490613853565b925050819055508060036000828254612aeb9190613853565b90915550506040518181526001600160a01b038316906000907fddf252ad1be2c89b69c2b068fc378daa952ba7f163c4a11628f55a4df523b3ef906020015b60405180910390a35050565b6001600160a01b038216612b5d57604051638e35e80360e01b815260040160405180910390fd5b6001600160a01b03821660009081526004602052604081208054839290612b859084906138aa565b925050819055508060036000828254612b9e91906138aa565b90915550506040518181526000906001600160a01b038416907fddf252ad1be2c89b69c2b068fc378daa952ba7f163c4a11628f55a4df523b3ef90602001612b2a565b82811080612bee57508181115b1561228f5760405162ccc44d60e41b815260048101849052602481018390526044810182905260640161109d565b60008080600019848609848602925082811083820303915050670de0b6b3a76400008110612c605760405163698d9a0160e11b81526004810182905260240161109d565b600080670de0b6b3a76400008688099150506706f05b59d3b1ffff811182612c9a5780670de0b6b3a7640000850401945050505050611031565b620400008285030493909111909103600160ee1b02919091177faccb18165bd6fe31ae1cf318dc5b51eee0e1ba569b88cd74c1773b91fac106690201905092915050565b6000612d2083836040518060400160405280601581526020017f5361666545726332304c6f774c6576656c43616c6c0000000000000000000000815250613178565b80519091501561228f5780806020019051810190612d3e9190613532565b61228f576040516364d6fc4d60e01b815260040160405180910390fd5b604051636eb1769f60e11b81523060048201526001600160a01b03838116602483015282919085169063dd62ed3e9060440160206040518083038186803b158015612da557600080fd5b505afa158015612db9573d6000803e3d6000fd5b505050506040513d601f19601f82011682018060405250810190612ddd9190613696565b10612de757505050565b61228f8383600019612822565b600081612e0357506000919050565b506001817001000000000000000000000000000000008110612e2a5760409190911b9060801c5b680100000000000000008110612e455760209190911b9060401c5b6401000000008110612e5c5760109190911b9060201c5b620100008110612e715760089190911b9060101c5b6101008110612e855760049190911b9060081c5b60108110612e985760029190911b9060041c5b60088110612ea857600182901b91505b6001828481612ec757634e487b7160e01b600052601260045260246000fd5b048301901c91506001828481612eed57634e487b7160e01b600052601260045260246000fd5b048301901c91506001828481612f1357634e487b7160e01b600052601260045260246000fd5b048301901c91506001828481612f3957634e487b7160e01b600052601260045260246000fd5b048301901c91506001828481612f5f57634e487b7160e01b600052601260045260246000fd5b048301901c91506001828481612f8557634e487b7160e01b600052601260045260246000fd5b048301901c91506001828481612fab57634e487b7160e01b600052601260045260246000fd5b048301901c91506000828481612fd157634e487b7160e01b600052601260045260246000fd5b04905080831015612fe25782612fe4565b805b949350505050565b600c546040516370a0823160e01b81523060048201526001600160a01b03909116906370a082319060240160206040518083038186803b15801561302f57600080fd5b505afa158015613043573d6000803e3d6000fd5b505050506040513d601f19601f820116820180604052508101906130679190613696565b600b8190556040519081527f8a0df8ef054fae2c3d2d19a7b322e864870cc9fd3cb07fb9526309c596244bf4906020016126ad565b6000808060001985870985870292508281108382030391505080600014156130e5578382816130db57634e487b7160e01b600052601260045260246000fd5b049250505061123e565b83811061310f57604051631dcf306360e21b8152600481018290526024810185905260440161109d565b60008486880960026001871981018816978890046003810283188082028403028082028403028082028403028082028403028082028403029081029092039091026000889003889004909101858311909403939093029303949094049190911702949350505050565b60606001600160a01b0384163b6131ad57604051638201cc0560e01b81526001600160a01b038516600482015260240161109d565b600080856001600160a01b0316856040516131c891906136fe565b6000604051808303816000865af19150503d8060008114613205576040519150601f19603f3d011682016040523d82523d6000602084013e61320a565b606091505b5091509150811561321e57915061123e9050565b80511561322e5780518082602001fd5b8360405162461bcd60e51b815260040161109d919061377f565b805161325381613958565b919050565b80516dffffffffffffffffffffffffffff8116811461325357600080fd5b805163ffffffff8116811461325357600080fd5b60006020828403121561329b578081fd5b813561123e81613958565b6000602082840312156132b7578081fd5b815161123e81613958565b600080604083850312156132d4578081fd5b82356132df81613958565b915060208301356132ef81613958565b809150509250929050565b60008060006060848603121561330e578081fd5b833561331981613958565b9250602084013561332981613958565b929592945050506040919091013590565b600080600080600080600060e0888a031215613354578283fd5b873561335f81613958565b9650602088013561336f81613958565b95506040880135945060608801359350608088013560ff81168114613392578384fd5b9699959850939692959460a0840135945060c09093013592915050565b600080604083850312156133c1578182fd5b82356133cc81613958565b946020939093013593505050565b60008060008060008060008060006101208a8c0312156133f8578283fd5b895161340381613958565b60208b01519099506bffffffffffffffffffffffff81168114613424578384fd5b8098505060408a0151965060608a0151955060808a015167ffffffffffffffff81168114613450578384fd5b945061345e60a08b01613248565b935061346c60c08b01613276565b925060e08a015191506101008a015190509295985092959850929598565b6000602080838503121561349c578182fd5b825167ffffffffffffffff808211156134b3578384fd5b818501915085601f8301126134c6578384fd5b8151818111156134d8576134d8613942565b8060051b91506134e9848301613822565b8181528481019084860184860187018a1015613503578788fd5b8795505b83861015613525578051835260019590950194918601918601613507565b5098975050505050505050565b600060208284031215613543578081fd5b8151801515811461123e578182fd5b600080600080600060a08688031215613569578283fd5b853561357481613958565b9450602086013561358481613958565b9350604086013561359481613958565b94979396509394606081013594506080013592915050565b6000602082840312156135bd578081fd5b815167ffffffffffffffff808211156135d4578283fd5b818401915084601f8301126135e7578283fd5b8151818111156135f9576135f9613942565b61360c601f8201601f1916602001613822565b9150808252856020828501011115613622578384fd5b6136338160208401602086016138c1565b50949350505050565b600080600060608486031215613650578081fd5b61365984613258565b925061366760208501613258565b915061367560408501613276565b90509250925092565b60006020828403121561368f578081fd5b5035919050565b6000602082840312156136a7578081fd5b5051919050565b600080604083850312156136c0578182fd5b505080516020909101519092909150565b6000806000606084860312156136e5578081fd5b8351925060208401519150604084015190509250925092565b600082516137108184602087016138c1565b9190910192915050565b7f4379674c502000000000000000000000000000000000000000000000000000008152600083516137528160068501602088016138c1565b602f60f81b60069184019182015283516137738160078401602088016138c1565b01600701949350505050565b602081526000825180602084015261379e8160408501602087016138c1565b601f01601f19169190910160400192915050565b600060a082018783526020878185015260a0604085015281875180845260c0860191508289019350845b818110156138015784516001600160a01b0316835293830193918301916001016137dc565b50506001600160a01b03969096166060850152505050608001529392505050565b604051601f8201601f1916810167ffffffffffffffff8111828210171561384b5761384b613942565b604052919050565b600082198211156138665761386661392c565b500190565b60008261388657634e487b7160e01b81526012600452602481fd5b500490565b60008160001904831182151516156138a5576138a561392c565b500290565b6000828210156138bc576138bc61392c565b500390565b60005b838110156138dc5781810151838201526020016138c4565b838111156138eb576000848401525b50505050565b600181811c9082168061390557607f821691505b6020821081141561392657634e487b7160e01b600052602260045260246000fd5b50919050565b634e487b7160e01b600052601160045260246000fd5b634e487b7160e01b600052604160045260246000fd5b6001600160a01b038116811461281f57600080fdfea26469706673582212209ea7b55fe7f09ed4cae036e9b9b49477945aa00a72d10c0bffdb4ec2ce0a98bc64736f6c63430008040033",
  "linkReferences": {},
  "deployedLinkReferences": {}
}