{
  "_format": "hh-sol-artifact-1",
  "contractName": "CygnusCollateralVoid",
  "sourceName": "contracts/cygnus-core/CygnusCollateralVoid.sol",
  "abi": [
    {
      "inputs": [],
      "stateMutability": "nonpayable",
      "type": "constructor"
    },
    {
      "inputs": [
        {
          "internalType": "uint256",
          "name": "min",
          "type": "uint256"
        },
        {
          "internalType": "uint256",
          "name": "max",
          "type": "uint256"
        },
        {
          "internalType": "uint256",
          "name": "value",
          "type": "uint256"
        }
      ],
      "name": "CygnusCollateralControl__ParameterNotInRange",
      "type": "error"
    },
    {
      "inputs": [
        {
          "internalType": "address",
          "name": "invalidBorrowable",
          "type": "address"
        },
        {
          "internalType": "address",
          "name": "validBorrowable",
          "type": "address"
        }
      ],
      "name": "CygnusCollateralModel__BorrowableInvalid",
      "type": "error"
    },
    {
      "inputs": [
        {
          "internalType": "address",
          "name": "sender",
          "type": "address"
        },
        {
          "internalType": "address",
          "name": "origin",
          "type": "address"
        }
      ],
      "name": "CygnusCollateralModel__BorrowerCantBeAddressZero",
      "type": "error"
    },
    {
      "inputs": [
        {
          "internalType": "address",
          "name": "dstReceiver",
          "type": "address"
        },
        {
          "internalType": "address",
          "name": "receiver",
          "type": "address"
        }
      ],
      "name": "CygnusCollateralVoid__DstReceiverNotValid",
      "type": "error"
    },
    {
      "inputs": [
        {
          "internalType": "address",
          "name": "dstToken",
          "type": "address"
        },
        {
          "internalType": "address",
          "name": "token",
          "type": "address"
        }
      ],
      "name": "CygnusCollateralVoid__DstTokenNotValid",
      "type": "error"
    },
    {
      "inputs": [
        {
          "internalType": "address",
          "name": "sender",
          "type": "address"
        },
        {
          "internalType": "address",
          "name": "origin",
          "type": "address"
        }
      ],
      "name": "CygnusCollateralVoid__OnlyEOAAllowed",
      "type": "error"
    },
    {
      "inputs": [
        {
          "internalType": "address",
          "name": "srcToken",
          "type": "address"
        },
        {
          "internalType": "address",
          "name": "token",
          "type": "address"
        }
      ],
      "name": "CygnusCollateralVoid__SrcTokenNotValid",
      "type": "error"
    },
    {
      "inputs": [],
      "name": "CygnusTerminal__CantMintZeroShares",
      "type": "error"
    },
    {
      "inputs": [],
      "name": "CygnusTerminal__CantRedeemZeroAssets",
      "type": "error"
    },
    {
      "inputs": [
        {
          "internalType": "address",
          "name": "token",
          "type": "address"
        },
        {
          "internalType": "address",
          "name": "underlying",
          "type": "address"
        }
      ],
      "name": "CygnusTerminal__CantSweepUnderlying",
      "type": "error"
    },
    {
      "inputs": [
        {
          "internalType": "address",
          "name": "sender",
          "type": "address"
        },
        {
          "internalType": "address",
          "name": "admin",
          "type": "address"
        }
      ],
      "name": "CygnusTerminal__MsgSenderNotAdmin",
      "type": "error"
    },
    {
      "inputs": [
        {
          "internalType": "address",
          "name": "owner",
          "type": "address"
        },
        {
          "internalType": "uint8",
          "name": "v",
          "type": "uint8"
        },
        {
          "internalType": "bytes32",
          "name": "r",
          "type": "bytes32"
        },
        {
          "internalType": "bytes32",
          "name": "s",
          "type": "bytes32"
        }
      ],
      "name": "ERC20Permit__InvalidSignature",
      "type": "error"
    },
    {
      "inputs": [],
      "name": "ERC20Permit__OwnerZeroAddress",
      "type": "error"
    },
    {
      "inputs": [
        {
          "internalType": "uint256",
          "name": "currentTime",
          "type": "uint256"
        },
        {
          "internalType": "uint256",
          "name": "deadline",
          "type": "uint256"
        }
      ],
      "name": "ERC20Permit__PermitExpired",
      "type": "error"
    },
    {
      "inputs": [],
      "name": "ERC20Permit__RecoveredOwnerZeroAddress",
      "type": "error"
    },
    {
      "inputs": [],
      "name": "ERC20Permit__SpenderZeroAddress",
      "type": "error"
    },
    {
      "inputs": [],
      "name": "ERC20__ApproveOwnerZeroAddress",
      "type": "error"
    },
    {
      "inputs": [],
      "name": "ERC20__ApproveSpenderZeroAddress",
      "type": "error"
    },
    {
      "inputs": [
        {
          "internalType": "uint256",
          "name": "accountBalance",
          "type": "uint256"
        },
        {
          "internalType": "uint256",
          "name": "burnAmount",
          "type": "uint256"
        }
      ],
      "name": "ERC20__BurnUnderflow",
      "type": "error"
    },
    {
      "inputs": [],
      "name": "ERC20__BurnZeroAddress",
      "type": "error"
    },
    {
      "inputs": [
        {
          "internalType": "uint256",
          "name": "allowance",
          "type": "uint256"
        },
        {
          "internalType": "uint256",
          "name": "amount",
          "type": "uint256"
        }
      ],
      "name": "ERC20__InsufficientAllowance",
      "type": "error"
    },
    {
      "inputs": [
        {
          "internalType": "uint256",
          "name": "senderBalance",
          "type": "uint256"
        },
        {
          "internalType": "uint256",
          "name": "amount",
          "type": "uint256"
        }
      ],
      "name": "ERC20__InsufficientBalance",
      "type": "error"
    },
    {
      "inputs": [],
      "name": "ERC20__MintZeroAddress",
      "type": "error"
    },
    {
      "inputs": [],
      "name": "ERC20__TransferRecipientZeroAddress",
      "type": "error"
    },
    {
      "inputs": [],
      "name": "ERC20__TransferSenderZeroAddress",
      "type": "error"
    },
    {
      "inputs": [],
      "name": "ReentrantCall",
      "type": "error"
    },
    {
      "anonymous": false,
      "inputs": [
        {
          "indexed": true,
          "internalType": "address",
          "name": "owner",
          "type": "address"
        },
        {
          "indexed": true,
          "internalType": "address",
          "name": "spender",
          "type": "address"
        },
        {
          "indexed": false,
          "internalType": "uint256",
          "name": "amount",
          "type": "uint256"
        }
      ],
      "name": "Approval",
      "type": "event"
    },
    {
      "anonymous": false,
      "inputs": [
        {
          "indexed": false,
          "internalType": "address",
          "name": "underlying",
          "type": "address"
        },
        {
          "indexed": false,
          "internalType": "uint256",
          "name": "shuttleId",
          "type": "uint256"
        },
        {
          "indexed": false,
          "internalType": "address",
          "name": "sender",
          "type": "address"
        }
      ],
      "name": "ChargeVoid",
      "type": "event"
    },
    {
      "anonymous": false,
      "inputs": [
        {
          "indexed": true,
          "internalType": "address",
          "name": "sender",
          "type": "address"
        },
        {
          "indexed": true,
          "internalType": "address",
          "name": "recipient",
          "type": "address"
        },
        {
          "indexed": false,
          "internalType": "uint256",
          "name": "assets",
          "type": "uint256"
        },
        {
          "indexed": false,
          "internalType": "uint256",
          "name": "shares",
          "type": "uint256"
        }
      ],
      "name": "Deposit",
      "type": "event"
    },
    {
      "anonymous": false,
      "inputs": [
        {
          "indexed": false,
          "internalType": "uint256",
          "name": "oldDebtRatio",
          "type": "uint256"
        },
        {
          "indexed": false,
          "internalType": "uint256",
          "name": "newDebtRatio",
          "type": "uint256"
        }
      ],
      "name": "NewDebtRatio",
      "type": "event"
    },
    {
      "anonymous": false,
      "inputs": [
        {
          "indexed": false,
          "internalType": "uint256",
          "name": "oldLiquidationFee",
          "type": "uint256"
        },
        {
          "indexed": false,
          "internalType": "uint256",
          "name": "newLiquidationFee",
          "type": "uint256"
        }
      ],
      "name": "NewLiquidationFee",
      "type": "event"
    },
    {
      "anonymous": false,
      "inputs": [
        {
          "indexed": false,
          "internalType": "uint256",
          "name": "oldLiquidationIncentive",
          "type": "uint256"
        },
        {
          "indexed": false,
          "internalType": "uint256",
          "name": "newLiquidationIncentive",
          "type": "uint256"
        }
      ],
      "name": "NewLiquidationIncentive",
      "type": "event"
    },
    {
      "anonymous": false,
      "inputs": [
        {
          "indexed": true,
          "internalType": "address",
          "name": "reinvestor",
          "type": "address"
        },
        {
          "indexed": false,
          "internalType": "uint256",
          "name": "rewardBalance",
          "type": "uint256"
        },
        {
          "indexed": false,
          "internalType": "uint256",
          "name": "daoReward",
          "type": "uint256"
        },
        {
          "indexed": false,
          "internalType": "uint256",
          "name": "underlyingReceived",
          "type": "uint256"
        }
      ],
      "name": "RechargeVoid",
      "type": "event"
    },
    {
      "anonymous": false,
      "inputs": [
        {
          "indexed": false,
          "internalType": "uint256",
          "name": "totalBalance",
          "type": "uint256"
        }
      ],
      "name": "Sync",
      "type": "event"
    },
    {
      "anonymous": false,
      "inputs": [
        {
          "indexed": true,
          "internalType": "address",
          "name": "from",
          "type": "address"
        },
        {
          "indexed": true,
          "internalType": "address",
          "name": "to",
          "type": "address"
        },
        {
          "indexed": false,
          "internalType": "uint256",
          "name": "amount",
          "type": "uint256"
        }
      ],
      "name": "Transfer",
      "type": "event"
    },
    {
      "anonymous": false,
      "inputs": [
        {
          "indexed": true,
          "internalType": "address",
          "name": "sender",
          "type": "address"
        },
        {
          "indexed": true,
          "internalType": "address",
          "name": "recipient",
          "type": "address"
        },
        {
          "indexed": true,
          "internalType": "address",
          "name": "owner",
          "type": "address"
        },
        {
          "indexed": false,
          "internalType": "uint256",
          "name": "assets",
          "type": "uint256"
        },
        {
          "indexed": false,
          "internalType": "uint256",
          "name": "shares",
          "type": "uint256"
        }
      ],
      "name": "Withdraw",
      "type": "event"
    },
    {
      "inputs": [],
      "name": "AGGREGATION_ROUTER_V5",
      "outputs": [
        {
          "internalType": "contract IAggregationRouterV5",
          "name": "",
          "type": "address"
        }
      ],
      "stateMutability": "view",
      "type": "function"
    },
    {
      "inputs": [],
      "name": "DAO_REWARD",
      "outputs": [
        {
          "internalType": "uint256",
          "name": "",
          "type": "uint256"
        }
      ],
      "stateMutability": "view",
      "type": "function"
    },
    {
      "inputs": [],
      "name": "DOMAIN_SEPARATOR",
      "outputs": [
        {
          "internalType": "bytes32",
          "name": "",
          "type": "bytes32"
        }
      ],
      "stateMutability": "view",
      "type": "function"
    },
    {
      "inputs": [],
      "name": "PERMIT_TYPEHASH",
      "outputs": [
        {
          "internalType": "bytes32",
          "name": "",
          "type": "bytes32"
        }
      ],
      "stateMutability": "view",
      "type": "function"
    },
    {
      "inputs": [
        {
          "internalType": "address",
          "name": "owner",
          "type": "address"
        },
        {
          "internalType": "address",
          "name": "spender",
          "type": "address"
        }
      ],
      "name": "allowance",
      "outputs": [
        {
          "internalType": "uint256",
          "name": "",
          "type": "uint256"
        }
      ],
      "stateMutability": "view",
      "type": "function"
    },
    {
      "inputs": [
        {
          "internalType": "address",
          "name": "spender",
          "type": "address"
        },
        {
          "internalType": "uint256",
          "name": "amount",
          "type": "uint256"
        }
      ],
      "name": "approve",
      "outputs": [
        {
          "internalType": "bool",
          "name": "",
          "type": "bool"
        }
      ],
      "stateMutability": "nonpayable",
      "type": "function"
    },
    {
      "inputs": [
        {
          "internalType": "address",
          "name": "account",
          "type": "address"
        }
      ],
      "name": "balanceOf",
      "outputs": [
        {
          "internalType": "uint256",
          "name": "",
          "type": "uint256"
        }
      ],
      "stateMutability": "view",
      "type": "function"
    },
    {
      "inputs": [],
      "name": "borrowable",
      "outputs": [
        {
          "internalType": "address",
          "name": "",
          "type": "address"
        }
      ],
      "stateMutability": "view",
      "type": "function"
    },
    {
      "inputs": [
        {
          "internalType": "address",
          "name": "borrower",
          "type": "address"
        },
        {
          "internalType": "address",
          "name": "borrowableToken",
          "type": "address"
        },
        {
          "internalType": "uint256",
          "name": "borrowAmount",
          "type": "uint256"
        }
      ],
      "name": "canBorrow",
      "outputs": [
        {
          "internalType": "bool",
          "name": "",
          "type": "bool"
        }
      ],
      "stateMutability": "view",
      "type": "function"
    },
    {
      "inputs": [
        {
          "internalType": "address",
          "name": "borrower",
          "type": "address"
        },
        {
          "internalType": "uint256",
          "name": "redeemAmount",
          "type": "uint256"
        }
      ],
      "name": "canRedeem",
      "outputs": [
        {
          "internalType": "bool",
          "name": "",
          "type": "bool"
        }
      ],
      "stateMutability": "view",
      "type": "function"
    },
    {
      "inputs": [
        {
          "internalType": "uint256",
          "name": "_sushiPoolId",
          "type": "uint256"
        }
      ],
      "name": "chargeVoid",
      "outputs": [],
      "stateMutability": "nonpayable",
      "type": "function"
    },
    {
      "inputs": [],
      "name": "cygnusNebulaOracle",
      "outputs": [
        {
          "internalType": "contract ICygnusNebulaOracle",
          "name": "",
          "type": "address"
        }
      ],
      "stateMutability": "view",
      "type": "function"
    },
    {
      "inputs": [],
      "name": "debtRatio",
      "outputs": [
        {
          "internalType": "uint256",
          "name": "",
          "type": "uint256"
        }
      ],
      "stateMutability": "view",
      "type": "function"
    },
    {
      "inputs": [],
      "name": "decimals",
      "outputs": [
        {
          "internalType": "uint8",
          "name": "",
          "type": "uint8"
        }
      ],
      "stateMutability": "view",
      "type": "function"
    },
    {
      "inputs": [
        {
          "internalType": "uint256",
          "name": "assets",
          "type": "uint256"
        },
        {
          "internalType": "address",
          "name": "recipient",
          "type": "address"
        }
      ],
      "name": "deposit",
      "outputs": [
        {
          "internalType": "uint256",
          "name": "shares",
          "type": "uint256"
        }
      ],
      "stateMutability": "nonpayable",
      "type": "function"
    },
    {
      "inputs": [],
      "name": "exchangeRate",
      "outputs": [
        {
          "internalType": "uint256",
          "name": "",
          "type": "uint256"
        }
      ],
      "stateMutability": "view",
      "type": "function"
    },
    {
      "inputs": [
        {
          "internalType": "address",
          "name": "borrower",
          "type": "address"
        }
      ],
      "name": "getAccountLiquidity",
      "outputs": [
        {
          "internalType": "uint256",
          "name": "liquidity",
          "type": "uint256"
        },
        {
          "internalType": "uint256",
          "name": "shortfall",
          "type": "uint256"
        }
      ],
      "stateMutability": "view",
      "type": "function"
    },
    {
      "inputs": [],
      "name": "getCygnusVoid",
      "outputs": [
        {
          "internalType": "address",
          "name": "",
          "type": "address"
        },
        {
          "internalType": "address",
          "name": "",
          "type": "address"
        },
        {
          "internalType": "address",
          "name": "",
          "type": "address"
        },
        {
          "internalType": "uint256",
          "name": "",
          "type": "uint256"
        }
      ],
      "stateMutability": "view",
      "type": "function"
    },
    {
      "inputs": [
        {
          "internalType": "address",
          "name": "borrower",
          "type": "address"
        }
      ],
      "name": "getDebtRatio",
      "outputs": [
        {
          "internalType": "uint256",
          "name": "",
          "type": "uint256"
        }
      ],
      "stateMutability": "view",
      "type": "function"
    },
    {
      "inputs": [],
      "name": "getLPTokenPrice",
      "outputs": [
        {
          "internalType": "uint256",
          "name": "",
          "type": "uint256"
        }
      ],
      "stateMutability": "view",
      "type": "function"
    },
    {
      "inputs": [],
      "name": "getRewards",
      "outputs": [
        {
          "internalType": "uint256",
          "name": "",
          "type": "uint256"
        }
      ],
      "stateMutability": "nonpayable",
      "type": "function"
    },
    {
      "inputs": [],
      "name": "hangar18",
      "outputs": [
        {
          "internalType": "contract IHangar18",
          "name": "",
          "type": "address"
        }
      ],
      "stateMutability": "view",
      "type": "function"
    },
    {
      "inputs": [],
      "name": "lastReinvest",
      "outputs": [
        {
          "internalType": "uint256",
          "name": "",
          "type": "uint256"
        }
      ],
      "stateMutability": "view",
      "type": "function"
    },
    {
      "inputs": [],
      "name": "liquidationFee",
      "outputs": [
        {
          "internalType": "uint256",
          "name": "",
          "type": "uint256"
        }
      ],
      "stateMutability": "view",
      "type": "function"
    },
    {
      "inputs": [],
      "name": "liquidationIncentive",
      "outputs": [
        {
          "internalType": "uint256",
          "name": "",
          "type": "uint256"
        }
      ],
      "stateMutability": "view",
      "type": "function"
    },
    {
      "inputs": [],
      "name": "name",
      "outputs": [
        {
          "internalType": "string",
          "name": "",
          "type": "string"
        }
      ],
      "stateMutability": "view",
      "type": "function"
    },
    {
      "inputs": [
        {
          "internalType": "address",
          "name": "",
          "type": "address"
        }
      ],
      "name": "nonces",
      "outputs": [
        {
          "internalType": "uint256",
          "name": "",
          "type": "uint256"
        }
      ],
      "stateMutability": "view",
      "type": "function"
    },
    {
      "inputs": [
        {
          "internalType": "address",
          "name": "owner",
          "type": "address"
        },
        {
          "internalType": "address",
          "name": "spender",
          "type": "address"
        },
        {
          "internalType": "uint256",
          "name": "value",
          "type": "uint256"
        },
        {
          "internalType": "uint256",
          "name": "deadline",
          "type": "uint256"
        },
        {
          "internalType": "uint8",
          "name": "v",
          "type": "uint8"
        },
        {
          "internalType": "bytes32",
          "name": "r",
          "type": "bytes32"
        },
        {
          "internalType": "bytes32",
          "name": "s",
          "type": "bytes32"
        }
      ],
      "name": "permit",
      "outputs": [],
      "stateMutability": "nonpayable",
      "type": "function"
    },
    {
      "inputs": [
        {
          "internalType": "uint256",
          "name": "shares",
          "type": "uint256"
        },
        {
          "internalType": "address",
          "name": "recipient",
          "type": "address"
        },
        {
          "internalType": "address",
          "name": "owner",
          "type": "address"
        }
      ],
      "name": "redeem",
      "outputs": [
        {
          "internalType": "uint256",
          "name": "assets",
          "type": "uint256"
        }
      ],
      "stateMutability": "nonpayable",
      "type": "function"
    },
    {
      "inputs": [
        {
          "internalType": "bytes",
          "name": "swapData",
          "type": "bytes"
        }
      ],
      "name": "reinvestRewards_y7b",
      "outputs": [],
      "stateMutability": "nonpayable",
      "type": "function"
    },
    {
      "inputs": [
        {
          "internalType": "uint256",
          "name": "newDebtRatio",
          "type": "uint256"
        }
      ],
      "name": "setDebtRatio",
      "outputs": [],
      "stateMutability": "nonpayable",
      "type": "function"
    },
    {
      "inputs": [
        {
          "internalType": "uint256",
          "name": "newLiquidationFee",
          "type": "uint256"
        }
      ],
      "name": "setLiquidationFee",
      "outputs": [],
      "stateMutability": "nonpayable",
      "type": "function"
    },
    {
      "inputs": [
        {
          "internalType": "uint256",
          "name": "newLiquidationIncentive",
          "type": "uint256"
        }
      ],
      "name": "setLiquidationIncentive",
      "outputs": [],
      "stateMutability": "nonpayable",
      "type": "function"
    },
    {
      "inputs": [],
      "name": "shuttleId",
      "outputs": [
        {
          "internalType": "uint256",
          "name": "",
          "type": "uint256"
        }
      ],
      "stateMutability": "view",
      "type": "function"
    },
    {
      "inputs": [
        {
          "internalType": "address",
          "name": "token",
          "type": "address"
        }
      ],
      "name": "sweepToken",
      "outputs": [],
      "stateMutability": "nonpayable",
      "type": "function"
    },
    {
      "inputs": [],
      "name": "symbol",
      "outputs": [
        {
          "internalType": "string",
          "name": "",
          "type": "string"
        }
      ],
      "stateMutability": "view",
      "type": "function"
    },
    {
      "inputs": [],
      "name": "totalBalance",
      "outputs": [
        {
          "internalType": "uint256",
          "name": "",
          "type": "uint256"
        }
      ],
      "stateMutability": "view",
      "type": "function"
    },
    {
      "inputs": [],
      "name": "totalSupply",
      "outputs": [
        {
          "internalType": "uint256",
          "name": "",
          "type": "uint256"
        }
      ],
      "stateMutability": "view",
      "type": "function"
    },
    {
      "inputs": [
        {
          "internalType": "address",
          "name": "recipient",
          "type": "address"
        },
        {
          "internalType": "uint256",
          "name": "amount",
          "type": "uint256"
        }
      ],
      "name": "transfer",
      "outputs": [
        {
          "internalType": "bool",
          "name": "",
          "type": "bool"
        }
      ],
      "stateMutability": "nonpayable",
      "type": "function"
    },
    {
      "inputs": [
        {
          "internalType": "address",
          "name": "sender",
          "type": "address"
        },
        {
          "internalType": "address",
          "name": "recipient",
          "type": "address"
        },
        {
          "internalType": "uint256",
          "name": "amount",
          "type": "uint256"
        }
      ],
      "name": "transferFrom",
      "outputs": [
        {
          "internalType": "bool",
          "name": "",
          "type": "bool"
        }
      ],
      "stateMutability": "nonpayable",
      "type": "function"
    },
    {
      "inputs": [],
      "name": "underlying",
      "outputs": [
        {
          "internalType": "address",
          "name": "",
          "type": "address"
        }
      ],
      "stateMutability": "view",
      "type": "function"
    },
    {
      "inputs": [],
      "name": "version",
      "outputs": [
        {
          "internalType": "string",
          "name": "",
          "type": "string"
        }
      ],
      "stateMutability": "view",
      "type": "function"
    }
  ],
  "bytecode": "0x6101a0604052670d2f13f7789f0000600955670e398811bec68000600a55600019600c553480156200003057600080fd5b50604080518082018252601281527110de59db9d5cce8810dbdb1b185d195c985b60721b602080830191825283519081019093526000808452805460ff19166001908117825583519394939192859285928592859285928592620000949262000620565b508151620000aa90600290602085019062000620565b506003805460ff191660ff92909216919091179055505060405146907f8b73c3c69bb8fe3d512ecc4cf759cc79239f7b179b0ffacaa9a75d522b39400f90620000f69060019062000836565b60408051918290038220828201825260058352640312e302e360dc1b6020938401528151928301939093528101919091527f06c015bd22b4c69690933c1058878ebdfef31f9aaae40bbe86d8a09fe1b2972c6060820152608081018290523060a082015260c00160408051601f19818403018152919052805160209091012060805250620001889250506200061c9050565b6001600160a01b0316635a412e536040518163ffffffff1660e01b815260040160a060405180830381600087803b158015620001c357600080fd5b505af1158015620001d8573d6000803e3d6000fd5b505050506040513d601f19601f82011682018060405250810190620001fe9190620006ec565b610100526001600160601b0319606091821b811660e05292811b831660c0529290921b1660a05250600092508291506200023790503390565b6001600160a01b0316635a412e536040518163ffffffff1660e01b815260040160a060405180830381600087803b1580156200027257600080fd5b505af115801562000287573d6000803e3d6000fd5b505050506040513d601f19601f82011682018060405250810190620002ad9190620006ec565b50509250925050816001600160a01b03166395d89b416040518163ffffffff1660e01b815260040160006040518083038186803b158015620002ee57600080fd5b505afa15801562000303573d6000803e3d6000fd5b505050506040513d6000823e601f3d908101601f191682016040526200032d91908101906200075f565b6040516020016200033f9190620008d9565b604051602081830303815290604052600290805190602001906200036592919062000620565b50816001600160a01b031663313ce5676040518163ffffffff1660e01b815260040160206040518083038186803b158015620003a057600080fd5b505afa158015620003b5573d6000803e3d6000fd5b505050506040513d601f19601f82011682018060405250810190620003db919062000813565b6003805460ff191660ff9290921691909117905560601b6001600160601b03191661012052506000600481905580620004113390565b6001600160a01b0316635a412e536040518163ffffffff1660e01b815260040160a060405180830381600087803b1580156200044c57600080fd5b505af115801562000461573d6000803e3d6000fd5b505050506040513d601f19601f82011682018060405250810190620004879190620006ec565b50505091509150806001600160a01b0316630dfe16816040518163ffffffff1660e01b815260040160206040518083038186803b158015620004c857600080fd5b505afa158015620004dd573d6000803e3d6000fd5b505050506040513d601f19601f82011682018060405250810190620005039190620006c6565b816001600160a01b031663d21220a76040518163ffffffff1660e01b815260040160206040518083038186803b1580156200053d57600080fd5b505afa15801562000552573d6000803e3d6000fd5b505050506040513d601f19601f82011682018060405250810190620005789190620006c6565b836001600160a01b031663e1758bd86040518163ffffffff1660e01b815260040160206040518083038186803b158015620005b257600080fd5b505afa158015620005c7573d6000803e3d6000fd5b505050506040513d601f19601f82011682018060405250810190620005ed9190620006c6565b6001600160601b0319606091821b81166101405291811b8216610180529190911b166101605250620009a99050565b3390565b8280546200062e906200093d565b90600052602060002090601f0160209004810192826200065257600085556200069d565b82601f106200066d57805160ff19168380011785556200069d565b828001600101855582156200069d579182015b828111156200069d57825182559160200191906001019062000680565b50620006ab929150620006af565b5090565b5b80821115620006ab5760008155600101620006b0565b600060208284031215620006d8578081fd5b8151620006e58162000990565b9392505050565b600080600080600060a0868803121562000704578081fd5b8551620007118162000990565b6020870151909550620007248162000990565b6040870151909450620007378162000990565b60608701519093506200074a8162000990565b80925050608086015190509295509295909350565b60006020828403121562000771578081fd5b81516001600160401b038082111562000788578283fd5b818401915084601f8301126200079c578283fd5b815181811115620007b157620007b16200097a565b604051601f8201601f19908116603f01168101908382118183101715620007dc57620007dc6200097a565b81604052828152876020848701011115620007f5578586fd5b620008088360208301602088016200090a565b979650505050505050565b60006020828403121562000825578081fd5b815160ff81168114620006e5578182fd5b600080835482600182811c9150808316806200085357607f831692505b60208084108214156200087457634e487b7160e01b87526022600452602487fd5b8180156200088b57600181146200089d57620008cb565b60ff19861689528489019650620008cb565b60008a815260209020885b86811015620008c35781548b820152908501908301620008a8565b505084890196505b509498975050505050505050565b66021bcb3a6281d160cd1b815260008251620008fd8160078501602087016200090a565b9190910160070192915050565b60005b83811015620009275781810151838201526020016200090d565b8381111562000937576000848401525b50505050565b600181811c908216806200095257607f821691505b602082108114156200097457634e487b7160e01b600052602260045260246000fd5b50919050565b634e487b7160e01b600052604160045260246000fd5b6001600160a01b0381168114620009a657600080fd5b50565b60805160a05160601c60c05160601c60e05160601c610100516101205160601c6101405160601c6101605160601c6101805160601c6138a662000b3960003960008181610d4401528181610dce01528181610e3601528181610ee701528181610f7101528181610fd90152818161102901526124d3015260008181610cfe01528181610d8a01528181610def01528181610e1501528181610e8c01528181610f4201528181610f9201528181610fb801528181611006015281816111280152612492015260008181610e6201528181610ebd0152610f1801526000818161071e015281816107ce015281816114060152818161145c0152818161175d0152612a470152600081816105000152611b850152600081816106970152610b5b01526000818161053a015281816109bc01528181610a1301528181610b3001528181611070015281816112db0152818161164901528181611ae201528181611b6101526125350152600081816106f701528181610c49015261214c015260008181610444015261190201526138a66000f3fe608060405234801561001057600080fd5b50600436106102de5760003560e01c80637ecebe0011610186578063ba087652116100e3578063d935bd9211610097578063e99a6ac711610071578063e99a6ac714610719578063eb6a887d14610740578063fef0bec81461075357600080fd5b8063d935bd9214610692578063dd62ed3e146106b9578063e8a24e1d146106f257600080fd5b8063cea55f57116100c8578063cea55f5714610663578063d505accf1461066c578063d82f897f1461067f57600080fd5b8063ba0876521461063d578063cc1f8ffa1461065057600080fd5b8063a84310811161013a578063ad7a672f1161011f578063ad7a672f14610610578063b11de7e314610619578063b5f3c95b1461063457600080fd5b8063a8431081146105ea578063a9059cbb146105fd57600080fd5b806395d89b411161016b57806395d89b41146105c65780639aac2c53146105ce578063a36a3630146105e157600080fd5b80637ecebe001461059d5780638c765e94146105bd57600080fd5b80633644e5151161023f5780635b037f1d116101f35780636e553f65116101cd5780636e553f65146105225780636f307dc31461053557806370a082311461057457600080fd5b80635b037f1d146104c05780635ec88c79146104d35780635f77f891146104fb57600080fd5b80635130362211610224578063513036221461046e57806354fd4d501461047657806359b0bc2a146104b257600080fd5b80633644e5151461043f5780633ba0b9a91461046657600080fd5b80631995bc1a1161029657806323b872dd1161027b57806323b872dd146103e657806330adf81f146103f9578063313ce5671461042057600080fd5b80631995bc1a146103525780631be19560146103d157600080fd5b806306fdde03116102c757806306fdde0314610311578063095ea7b31461032657806318160ddd1461034957600080fd5b8063031a5c82146102e35780630572b0cc14610309575b600080fd5b6102f66102f1366004613079565b610766565b6040519081526020015b60405180910390f35b6102f6610890565b6103196108e0565b6040516103009190613618565b6103396103343660046132a6565b61096e565b6040519015158152602001610300565b6102f660045481565b61039c600c5473f4d73326c13a4fc5fd7a064217e12780e9bd62c391731b02da8cb0d097eb8d57a175b88c7d8b479975069173d4d42f0b6def4ce0383636770ef773390d85c61a91565b60405161030094939291906001600160a01b039485168152928416602084015292166040820152606081019190915260800190565b6103e46103df366004613079565b610985565b005b6103396103f43660046131f1565b610a77565b6102f67f6e71edae12b1b97f4d1f60370fef10105fa2faae0126114a169c64845d6126c981565b60035461042d9060ff1681565b60405160ff9091168152602001610300565b6102f67f000000000000000000000000000000000000000000000000000000000000000081565b6102f6610aeb565b6102f6610b19565b6103196040518060400160405280600581526020017f312e302e3000000000000000000000000000000000000000000000000000000081525081565b6102f666b1a2bc2ec5000081565b6103e46104ce3660046133ca565b610bdc565b6104e66104e1366004613079565b611288565b60408051928352602083019190915201610300565b6102f67f000000000000000000000000000000000000000000000000000000000000000081565b6102f66105303660046134bc565b6112a0565b61055c7f000000000000000000000000000000000000000000000000000000000000000081565b6040516001600160a01b039091168152602001610300565b6102f6610582366004613079565b6001600160a01b031660009081526005602052604090205490565b6102f66105ab366004613079565b60076020526000908152604090205481565b6102f6600a5481565b6103196113f5565b6103396105dc3660046131f1565b611402565b6102f6600b5481565b6103e46105f836600461348c565b6114a0565b61033961060b3660046132a6565b611543565b6102f660085481565b61055c731111111254eeb25477b68fb85ed929f73a96058281565b6102f6600d5481565b6102f661064b3660046134e0565b611550565b61033961065e3660046132a6565b6116f2565b6102f660095481565b6103e461067a366004613231565b6117f3565b6103e461068d36600461348c565b611a96565b61055c7f000000000000000000000000000000000000000000000000000000000000000081565b6102f66106c73660046131b9565b6001600160a01b03918216600090815260066020908152604080832093909416825291909152205490565b61055c7f000000000000000000000000000000000000000000000000000000000000000081565b61055c7f000000000000000000000000000000000000000000000000000000000000000081565b6103e461074e36600461348c565b611bea565b6103e461076136600461348c565b611c78565b600080610793610774610aeb565b6001600160a01b03851660009081526005602052604090205490611cff565b905060006107a96107a2610b19565b8390611cff565b604051637d6af07960e01b81526001600160a01b0386811660048301529192506000917f00000000000000000000000000000000000000000000000000000000000000001690637d6af0799060240160206040518083038186803b15801561081057600080fd5b505afa158015610824573d6000803e3d6000fd5b505050506040513d601f19601f8201168201806040525081019061084891906134a4565b9050600061085f600b54600a546107a29190613741565b905081156108835760095461087e906108788386611d2d565b90611d2d565b610886565b60005b9695505050505050565b6000805460ff166108b4576040516306fda65d60e31b815260040160405180910390fd5b6000805460ff191690556108c6611d7c565b6108ce611da6565b90506000805460ff1916600117905590565b600180546108ed906137df565b80601f0160208091040260200160405190810160405280929190818152602001828054610919906137df565b80156109665780601f1061093b57610100808354040283529160200191610966565b820191906000526020600020905b81548152906001019060200180831161094957829003601f168201915b505050505081565b600061097b338484612099565b5060015b92915050565b60005460ff166109a8576040516306fda65d60e31b815260040160405180910390fd5b6000805460ff191690556109ba612148565b7f00000000000000000000000000000000000000000000000000000000000000006001600160a01b0316816001600160a01b03161415610a45576040516303b91a9160e31b81526001600160a01b0380831660048301527f00000000000000000000000000000000000000000000000000000000000000001660248201526044015b60405180910390fd5b6000610a508261221a565b9050610a666001600160a01b0383163383612242565b50506000805460ff19166001179055565b6000610a8484848461228b565b6001600160a01b038416600090815260066020908152604080832033845290915290205482811015610ad3576040516310c6013560e31b81526004810182905260248101849052604401610a3c565b610ae08533858403612099565b506001949350505050565b6004546000908015610b0957600854610b049082611d2d565b610b13565b670de0b6b3a76400005b91505090565b6040516317e5a1a160e01b81526001600160a01b037f0000000000000000000000000000000000000000000000000000000000000000811660048301526000917f0000000000000000000000000000000000000000000000000000000000000000909116906317e5a1a19060240160206040518083038186803b158015610b9f57600080fd5b505afa158015610bb3573d6000803e3d6000fd5b505050506040513d601f19601f82011682018060405250810190610bd791906134a4565b905090565b60005460ff16610bff576040516306fda65d60e31b815260040160405180910390fd5b6000805460ff19169055610c11611d7c565b610c196123ae565b6000610c23611da6565b905080610c305750611270565b6000610c438266b1a2bc2ec50000611cff565b905060007f00000000000000000000000000000000000000000000000000000000000000006001600160a01b0316635b068af86040518163ffffffff1660e01b815260040160206040518083038186803b158015610ca057600080fd5b505afa158015610cb4573d6000803e3d6000fd5b505050506040513d601f19601f82011682018060405250810190610cd8919061309c565b9050610cf973d4d42f0b6def4ce0383636770ef773390d85c61a8284612242565b6000807f00000000000000000000000000000000000000000000000000000000000000006001600160a01b031673d4d42f0b6def4ce0383636770ef773390d85c61a1480610d8357507f00000000000000000000000000000000000000000000000000000000000000006001600160a01b031673d4d42f0b6def4ce0383636770ef773390d85c61a145b15610e60577f00000000000000000000000000000000000000000000000000000000000000006001600160a01b031673d4d42f0b6def4ce0383636770ef773390d85c61a14610e13577f00000000000000000000000000000000000000000000000000000000000000007f0000000000000000000000000000000000000000000000000000000000000000610e56565b7f00000000000000000000000000000000000000000000000000000000000000007f00000000000000000000000000000000000000000000000000000000000000005b909250905061105e565b7f00000000000000000000000000000000000000000000000000000000000000006001600160a01b03167f00000000000000000000000000000000000000000000000000000000000000006001600160a01b03161480610f1157507f00000000000000000000000000000000000000000000000000000000000000006001600160a01b03167f00000000000000000000000000000000000000000000000000000000000000006001600160a01b0316145b15611003577f00000000000000000000000000000000000000000000000000000000000000006001600160a01b03167f00000000000000000000000000000000000000000000000000000000000000006001600160a01b031614610fb6577f00000000000000000000000000000000000000000000000000000000000000007f0000000000000000000000000000000000000000000000000000000000000000610ff9565b7f00000000000000000000000000000000000000000000000000000000000000007f00000000000000000000000000000000000000000000000000000000000000005b9092509050611049565b507f000000000000000000000000000000000000000000000000000000000000000090507f00000000000000000000000000000000000000000000000000000000000000005b61105c866110578688613798565b6123f6565b505b60006110698361221a565b90506000807f00000000000000000000000000000000000000000000000000000000000000006001600160a01b0316630902f1ac6040518163ffffffff1660e01b815260040160606040518083038186803b1580156110c757600080fd5b505afa1580156110db573d6000803e3d6000fd5b505050506040513d601f19601f820116820180604052508101906110ff919061343e565b506dffffffffffffffffffffffffffff1691506dffffffffffffffffffffffffffff16915060007f00000000000000000000000000000000000000000000000000000000000000006001600160a01b0316866001600160a01b0316146111655781611167565b825b9050600061117885836103e5612674565b9050611185878783612799565b60006111a48888611196858a613798565b61119f8b61221a565b6128db565b600c54604051638dbdbe6d60e01b815260048101919091526024810182905230604482015290915073f4d73326c13a4fc5fd7a064217e12780e9bd62c390638dbdbe6d90606401600060405180830381600087803b15801561120557600080fd5b505af1158015611219573d6000803e3d6000fd5b505042600d555050604080518c8152602081018c9052808201839052905133917f5cfcfddc631d4395acfe327ac7adc963e174e13aa31bf691832d3e00da432a43919081900360600190a250505050505050505050505b6112786123ae565b506000805460ff19166001179055565b600080611297836000196129e3565b91509150915091565b6000805460ff166112c4576040516306fda65d60e31b815260040160405180910390fd5b6000805460ff191690556112d66123ae565b61130b7f00000000000000000000000000000000000000000000000000000000000000006001600160a01b0316333086612b09565b6000611315612b57565b905061132084612bec565b600061132a612b57565b9050611341611337610aeb565b6108788484613798565b9250600083116113645760405163f1ca48b160e01b815260040160405180910390fd5b6004546113885761137961dead6103e8612c5f565b6113856103e884613798565b92505b6113928484612c5f565b60408051868152602081018590526001600160a01b0386169133917fdcbc1c05240f31ff3ad067ef1ee35ce4997762752e3a095284754544f4c709d7910160405180910390a350506113e26123ae565b6000805460ff1916600117905592915050565b600280546108ed906137df565b60007f00000000000000000000000000000000000000000000000000000000000000006001600160a01b0316836001600160a01b0316146114895760405163d06d9b9360e01b81526001600160a01b0380851660048301527f0000000000000000000000000000000000000000000000000000000000000000166024820152604401610a3c565b600061149585846129e3565b159695505050505050565b60005460ff166114c3576040516306fda65d60e31b815260040160405180910390fd5b6000805460ff191690556114d5612148565b6114f0670de0b6b3a7640000670f43fc2c04ee000083612d12565b600a80549082905560408051828152602081018490527faeba5a6c40a8ac138134bff1aaa65debf25971188a58804bad717f82f0ec131691015b60405180910390a150506000805460ff19166001179055565b600061097b33848461228b565b6000805460ff16611574576040516306fda65d60e31b815260040160405180910390fd5b6000805460ff191690556115866123ae565b336001600160a01b038316146115f4576001600160a01b038216600090815260066020908152604080832033845290915290205460001981146115f2576115cd8582613798565b6001600160a01b03841660009081526006602090815260408083203384529091529020555b505b6116066115ff610aeb565b8590611cff565b9050600081116116295760405163e3e8d29760e01b815260040160405180910390fd5b61163281612d52565b61163c8285612d9b565b6116706001600160a01b037f0000000000000000000000000000000000000000000000000000000000000000168483612242565b816001600160a01b0316836001600160a01b031661168b3390565b6001600160a01b03167ffbde797d201c681b91056529119e0b02407c7bb96a4a2c75c01fc9667232c8db84886040516116ce929190918252602082015260400190565b60405180910390a46116de6123ae565b6000805460ff191660011790559392505050565b6001600160a01b0382166000908152600560205260408120548083111561171d57600091505061097f565b60006117298483613798565b905060006117386107a2610aeb565b604051637d6af07960e01b81526001600160a01b0388811660048301529192506000917f00000000000000000000000000000000000000000000000000000000000000001690637d6af0799060240160206040518083038186803b15801561179f57600080fd5b505afa1580156117b3573d6000803e3d6000fd5b505050506040513d601f19601f820116820180604052508101906117d791906134a4565b905060006117e58383612e46565b159998505050505050505050565b6001600160a01b03871661181a57604051639a321bc760e01b815260040160405180910390fd5b6001600160a01b038616611841576040516353fbd1d760e01b815260040160405180910390fd5b4284101561186b5760405163075dd20f60e41b815242600482015260248101859052604401610a3c565b6001600160a01b0387811660008181526007602090815260408083208054600180820190925582517f6e71edae12b1b97f4d1f60370fef10105fa2faae0126114a169c64845d6126c98186015280840196909652958c166060860152608085018b905260a085019590955260c08085018a90528151808603909101815260e08501825280519083012061190160f01b6101008601527f000000000000000000000000000000000000000000000000000000000000000061010286015261012280860182905282518087039091018152610142860180845281519185019190912090859052610162860180845281905260ff8a166101828701526101a286018990526101c2860188905291519095919491926101e2808401939192601f1981019281900390910190855afa1580156119a6573d6000803e3d6000fd5b5050604051601f1901519150506001600160a01b0381166119da57604051637386dbbb60e11b815260040160405180910390fd5b896001600160a01b0316816001600160a01b031614611a2e5760405163a1d5f2ed60e01b81526001600160a01b038b16600482015260ff871660248201526044810186905260648101859052608401610a3c565b6001600160a01b038a81166000818152600660209081526040808320948e16808452948252918290208c905590518b81527f8c5be1e5ebec7d5bd14f71427d1e84f3dd0314c0f7b2291e5b200ac8c7c3b925910160405180910390a350505050505050505050565b60005460ff16611ab9576040516306fda65d60e31b815260040160405180910390fd5b6000805460ff19169055611acb612148565b600019600c541415611add57600c8190555b611b1e7f000000000000000000000000000000000000000000000000000000000000000073f4d73326c13a4fc5fd7a064217e12780e9bd62c3600019612ec0565b611b5373d4d42f0b6def4ce0383636770ef773390d85c61a731111111254eeb25477b68fb85ed929f73a960582600019612ec0565b604080516001600160a01b037f00000000000000000000000000000000000000000000000000000000000000001681527f00000000000000000000000000000000000000000000000000000000000000006020820152338183015290517f98ccebae89f16f152c93c6a0cdc0d99913b9e62a9fc612471c21ffc299c389fd9181900360600190a1506000805460ff19166001179055565b60005460ff16611c0d576040516306fda65d60e31b815260040160405180910390fd5b6000805460ff19169055611c1f612148565b611c3a670b1a2bc2ec500000670de0b6b3a764000083612d12565b600980549082905560408051828152602081018490527ff25d2243e4128e51523d8537f04f18c3e6390bbfc6323390a9a8e59b921ce046910161152a565b60005460ff16611c9b576040516306fda65d60e31b815260040160405180910390fd5b6000805460ff19169055611cad612148565b611cc1600067016345785d8a000083612d12565b600b80549082905560408051828152602081018490527f87272249f1056ec16a68dd9255101358246dd26a796e2f0bc6b3a0ad02f2de41910161152a565b600081600019048311820215611d1d5763bac65e5b6000526004601cfd5b50670de0b6b3a764000091020490565b60007812725dd1d243aba0e75fe645cc4873f9e65afe688c928e1f218311670de0b6b3a764000002158202611d6a57637c5f487d6000526004601cfd5b50670de0b6b3a7640000919091020490565b333214611da457604051632f7a9fa160e21b8152336004820152326024820152604401610a3c565b565b600c5460405163c346253d60e01b81526004810191909152600090819073f4d73326c13a4fc5fd7a064217e12780e9bd62c39063c346253d9060240160206040518083038186803b158015611dfa57600080fd5b505afa158015611e0e573d6000803e3d6000fd5b505050506040513d601f19601f82011682018060405250810190611e32919061309c565b90506001600160a01b0381161561200c57600c5460405163d63b3c4960e01b815260048101919091523060248201526000604482018190529081906001600160a01b0384169063d63b3c499060640160006040518083038186803b158015611e9957600080fd5b505afa158015611ead573d6000803e3d6000fd5b505050506040513d6000823e601f3d908101601f19168201604052611ed591908101906132d1565b600c54604051630c7e663b60e11b81526004810191909152306024820152919350915073f4d73326c13a4fc5fd7a064217e12780e9bd62c3906318fccc7690604401600060405180830381600087803b158015611f3157600080fd5b505af1158015611f45573d6000803e3d6000fd5b5050505060005b8251811015612004576000828281518110611f7757634e487b7160e01b600052603260045260246000fd5b60200260200101511115611ff257611ff2838281518110611fa857634e487b7160e01b600052603260045260246000fd5b602002602001015173d4d42f0b6def4ce0383636770ef773390d85c61a848481518110611fe557634e487b7160e01b600052603260045260246000fd5b6020026020010151612799565b80611ffc81613814565b915050611f4c565b50505061207c565b600c54604051630c7e663b60e11b8152600481019190915230602482015273f4d73326c13a4fc5fd7a064217e12780e9bd62c3906318fccc7690604401600060405180830381600087803b15801561206357600080fd5b505af1158015612077573d6000803e3d6000fd5b505050505b610b1373d4d42f0b6def4ce0383636770ef773390d85c61a61221a565b6001600160a01b0383166120c0576040516317ba2d8b60e11b815260040160405180910390fd5b6001600160a01b0382166120e757604051632cc8a69760e11b815260040160405180910390fd5b6001600160a01b0383811660008181526006602090815260408083209487168084529482529182902085905590518481527f8c5be1e5ebec7d5bd14f71427d1e84f3dd0314c0f7b2291e5b200ac8c7c3b925910160405180910390a3505050565b60007f00000000000000000000000000000000000000000000000000000000000000006001600160a01b031663f851a4406040518163ffffffff1660e01b815260040160206040518083038186803b1580156121a357600080fd5b505afa1580156121b7573d6000803e3d6000fd5b505050506040513d601f19601f820116820180604052508101906121db919061309c565b9050336001600160a01b0382161461221757604051633e7c764160e21b81523360048201526001600160a01b0382166024820152604401610a3c565b50565b60006370a08231600052306020526020806024601c855afa601f3d1116602051029050919050565b81601a5280603a5269a9059cbb00000000000060005260206000604460166000875af13d156001600051141716612281576390b8ec186000526004601cfd5b6000603a52505050565b6001600160a01b0383166122b25760405163618a6e7d60e11b815260040160405180910390fd5b6001600160a01b0382166122d95760405163446ebce960e01b815260040160405180910390fd5b6001600160a01b0383166000908152600560205260409020548181101561231d5760405163355a868d60e01b81526004810182905260248101839052604401610a3c565b6001600160a01b03808516600090815260056020526040808220858503905591851681529081208054849290612354908490613741565b92505081905550826001600160a01b0316846001600160a01b03167fddf252ad1be2c89b69c2b068fc378daa952ba7f163c4a11628f55a4df523b3ef846040516123a091815260200190565b60405180910390a350505050565b60006123b8612b57565b60088190556040518181529091507f8a0df8ef054fae2c3d2d19a7b322e864870cc9fd3cb07fb9526309c596244bf49060200160405180910390a150565b6000806000808580602001905181019061241091906130b8565b935050925092508482608001511461242a57608082018590525b81516001600160a01b031673d4d42f0b6def4ce0383636770ef773390d85c61a1461249057815160405163293b7e4560e11b81526001600160a01b03909116600482015273d4d42f0b6def4ce0383636770ef773390d85c61a6024820152604401610a3c565b7f00000000000000000000000000000000000000000000000000000000000000006001600160a01b031682602001516001600160a01b03161415801561250c57507f00000000000000000000000000000000000000000000000000000000000000006001600160a01b031682602001516001600160a01b031614155b15612564576020820151604051638173363560e01b81526001600160a01b0391821660048201527f00000000000000000000000000000000000000000000000000000000000000009091166024820152604401610a3c565b60608201516001600160a01b031630146125a857606082015160405163024b424960e01b81526001600160a01b039091166004820152306024820152604401610a3c565b6125cf8260000151731111111254eeb25477b68fb85ed929f73a9605828460800151612ec0565b604080516000815260208101918290526312aa3caf60e01b909152731111111254eeb25477b68fb85ed929f73a960582906312aa3caf9061261890869086908660248201613592565b6040805180830381600087803b15801561263157600080fd5b505af1158015612645573d6000803e3d6000fd5b505050506040513d601f19601f820116820180604052508101906126699190613516565b509695505050505050565b60008083612684846103e8613741565b61268e9190613779565b9050600083856126a0886103e8613779565b6126aa9190613779565b6126b5906004613779565b6126bf9190613779565b90506000612767826126d18580613779565b6126db9190613741565b70ffffffffffffffffffffffffffffffffff811160071b81811c68ffffffffffffffffff1060061b1781811c64ffffffffff1060051b1781811c62ffffff1060041b1781811c620100000160b5600192831c1b0260121c80830401811c80830401811c80830401811c80830401811c80830401811c80830401811c80830401901c908190048111900390565b90506000612776866002613779565b9050806127838584613798565b61278d9190613759565b98975050505050505050565b6040805160028082526060820183526000926020830190803683370190505090508383826000815181106127dd57634e487b7160e01b600052603260045260246000fd5b602002602001018360018151811061280557634e487b7160e01b600052603260045260246000fd5b6001600160a01b0393841660209182029290920101529116905261283e84731b02da8cb0d097eb8d57a175b88c7d8b4799750684612ec0565b6040516338ed173960e01b8152731b02da8cb0d097eb8d57a175b88c7d8b47997506906338ed17399061287e90859060009086903090429060040161362b565b600060405180830381600087803b15801561289857600080fd5b505af11580156128ac573d6000803e3d6000fd5b505050506040513d6000823e601f3d908101601f191682016040526128d49190810190613397565b5050505050565b60006128fc85731b02da8cb0d097eb8d57a175b88c7d8b4799750685612ec0565b61291b84731b02da8cb0d097eb8d57a175b88c7d8b4799750684612ec0565b60405162e8e33760e81b81526001600160a01b03808716600483015285166024820152604481018490526064810183905260006084820181905260a48201523060c48201524260e4820152731b02da8cb0d097eb8d57a175b88c7d8b479975069063e8e337009061010401606060405180830381600087803b1580156129a057600080fd5b505af11580156129b4573d6000803e3d6000fd5b505050506040513d601f19601f820116820180604052508101906129d89190613539565b979650505050505050565b6000806001600160a01b038416612a1e5760405163a5075cd160e01b81526001600160a01b0385166004820152326024820152604401610a3c565b600019831415612ac457604051637d6af07960e01b81526001600160a01b0385811660048301527f00000000000000000000000000000000000000000000000000000000000000001690637d6af0799060240160206040518083038186803b158015612a8957600080fd5b505afa158015612a9d573d6000803e3d6000fd5b505050506040513d601f19601f82011682018060405250810190612ac191906134a4565b92505b6000612af0612ad1610aeb565b6001600160a01b03871660009081526005602052604090205490611cff565b9050612afc8185612e46565b92509250505b9250929050565b6040516323b872dd600052836020528260405281606052602060006064601c6000895af13d156001600051141716612b4957637939f4246000526004601cfd5b600060605260405250505050565b600c546040516393f1a40b60e01b8152600481019190915230602482015260009073f4d73326c13a4fc5fd7a064217e12780e9bd62c3906393f1a40b90604401604080518083038186803b158015612bae57600080fd5b505afa158015612bc2573d6000803e3d6000fd5b505050506040513d601f19601f82011682018060405250810190612be69190613516565b50919050565b600c54604051638dbdbe6d60e01b815260048101919091526024810182905230604482015273f4d73326c13a4fc5fd7a064217e12780e9bd62c390638dbdbe6d906064015b600060405180830381600087803b158015612c4b57600080fd5b505af11580156128d4573d6000803e3d6000fd5b6001600160a01b038216612c865760405163237813dd60e01b815260040160405180910390fd5b6001600160a01b03821660009081526005602052604081208054839290612cae908490613741565b925050819055508060046000828254612cc79190613741565b90915550506040518181526001600160a01b038316906000907fddf252ad1be2c89b69c2b068fc378daa952ba7f163c4a11628f55a4df523b3ef906020015b60405180910390a35050565b82811080612d1f57508181115b15612d4d5760405162ccc44d60e41b8152600481018490526024810183905260448101829052606401610a3c565b505050565b600c54604051630ad58d2f60e01b815260048101919091526024810182905230604482015273f4d73326c13a4fc5fd7a064217e12780e9bd62c390630ad58d2f90606401612c31565b6001600160a01b038216612dc257604051630b5da42b60e01b815260040160405180910390fd5b6001600160a01b03821660009081526005602052604081208054839290612dea908490613798565b925050819055508060046000828254612e039190613798565b90915550506040518181526000906001600160a01b038416907fddf252ad1be2c89b69c2b068fc378daa952ba7f163c4a11628f55a4df523b3ef90602001612d06565b6000806000612e53610b19565b90506000612e618683611cff565b90506000612e7a60095483611cff90919063ffffffff16565b90506000612e98600b54600a54612e919190613741565b8890611cff565b9050808210612eb1579003935060009250612b02915050565b60009550039250612b02915050565b604051636eb1769f60e11b81523060048201526001600160a01b03838116602483015282919085169063dd62ed3e9060440160206040518083038186803b158015612f0a57600080fd5b505afa158015612f1e573d6000803e3d6000fd5b505050506040513d601f19601f82011682018060405250810190612f4291906134a4565b10612f4c57505050565b612d4d6001600160a01b0384168360001981601a5280603a5269095ea7b300000000000060005260206000604460166000875af13d15600160005114171661228157633e3f8f736000526004601cfd5b600082601f830112612fac578081fd5b81516020612fc1612fbc836136f5565b6136c4565b80838252828201915082860187848660051b8901011115612fe0578586fd5b855b85811015612ffe57815184529284019290840190600101612fe2565b5090979650505050505050565b600082601f83011261301b578081fd5b8151613029612fbc82613719565b81815284602083860101111561303d578283fd5b61304e8260208301602087016137af565b949350505050565b80516dffffffffffffffffffffffffffff8116811461307457600080fd5b919050565b60006020828403121561308a578081fd5b81356130958161385b565b9392505050565b6000602082840312156130ad578081fd5b81516130958161385b565b6000806000808486036101408112156130cf578384fd5b85516130da8161385b565b945060e0601f19820112156130ed578384fd5b506130f661369b565b60208601516131048161385b565b815260408601516131148161385b565b602082015260608601516131278161385b565b6040820152608086015161313a8161385b565b8060608301525060a0860151608082015260c086015160a082015260e086015160c08201528093505061010085015167ffffffffffffffff8082111561317e578384fd5b61318a8883890161300b565b93506101208701519150808211156131a0578283fd5b506131ad8782880161300b565b91505092959194509250565b600080604083850312156131cb578182fd5b82356131d68161385b565b915060208301356131e68161385b565b809150509250929050565b600080600060608486031215613205578283fd5b83356132108161385b565b925060208401356132208161385b565b929592945050506040919091013590565b600080600080600080600060e0888a03121561324b578485fd5b87356132568161385b565b965060208801356132668161385b565b95506040880135945060608801359350608088013560ff81168114613289578384fd5b9699959850939692959460a0840135945060c09093013592915050565b600080604083850312156132b8578182fd5b82356132c38161385b565b946020939093013593505050565b600080604083850312156132e3578182fd5b825167ffffffffffffffff808211156132fa578384fd5b818501915085601f83011261330d578384fd5b8151602061331d612fbc836136f5565b8083825282820191508286018a848660051b890101111561333c578889fd5b8896505b848710156133675780516133538161385b565b835260019690960195918301918301613340565b5091880151919650909350505080821115613380578283fd5b5061338d85828601612f9c565b9150509250929050565b6000602082840312156133a8578081fd5b815167ffffffffffffffff8111156133be578182fd5b61304e84828501612f9c565b6000602082840312156133db578081fd5b813567ffffffffffffffff8111156133f1578182fd5b8201601f81018413613401578182fd5b803561340f612fbc82613719565b818152856020838501011115613423578384fd5b81602084016020830137908101602001929092525092915050565b600080600060608486031215613452578081fd5b61345b84613056565b925061346960208501613056565b9150604084015163ffffffff81168114613481578182fd5b809150509250925092565b60006020828403121561349d578081fd5b5035919050565b6000602082840312156134b5578081fd5b5051919050565b600080604083850312156134ce578182fd5b8235915060208301356131e68161385b565b6000806000606084860312156134f4578081fd5b8335925060208401356135068161385b565b915060408401356134818161385b565b60008060408385031215613528578182fd5b505080516020909101519092909150565b60008060006060848603121561354d578081fd5b8351925060208401519150604084015190509250925092565b6000815180845261357e8160208601602086016137af565b601f01601f19169290920160200192915050565b60006101406001600160a01b03808816845280875116602085015280602088015116604085015280604088015116606085015280606088015116608085015250608086015160a084015260a086015160c084015260c086015160e08401528061010084015261360381840186613566565b90508281036101208401526129d88185613566565b6020815260006130956020830184613566565b600060a082018783526020878185015260a0604085015281875180845260c0860191508289019350845b8181101561367a5784516001600160a01b031683529383019391830191600101613655565b50506001600160a01b03969096166060850152505050608001529392505050565b60405160e0810167ffffffffffffffff811182821017156136be576136be613845565b60405290565b604051601f8201601f1916810167ffffffffffffffff811182821017156136ed576136ed613845565b604052919050565b600067ffffffffffffffff82111561370f5761370f613845565b5060051b60200190565b600067ffffffffffffffff82111561373357613733613845565b50601f01601f191660200190565b600082198211156137545761375461382f565b500190565b60008261377457634e487b7160e01b81526012600452602481fd5b500490565b60008160001904831182151516156137935761379361382f565b500290565b6000828210156137aa576137aa61382f565b500390565b60005b838110156137ca5781810151838201526020016137b2565b838111156137d9576000848401525b50505050565b600181811c908216806137f357607f821691505b60208210811415612be657634e487b7160e01b600052602260045260246000fd5b60006000198214156138285761382861382f565b5060010190565b634e487b7160e01b600052601160045260246000fd5b634e487b7160e01b600052604160045260246000fd5b6001600160a01b038116811461221757600080fdfea2646970667358221220ea7534eb048ec564506d60b21858cb1fe1982f4fb0cf1c88da8774a507f037f464736f6c63430008040033",
  "linkReferences": {},
  "deployedLinkReferences": {}
}