{
  "_format": "hh-sol-artifact-1",
  "contractName": "CygnusCollateralVoid",
  "sourceName": "contracts/cygnus-core/CygnusCollateralVoid.sol",
  "abi": [
    {
      "inputs": [],
      "stateMutability": "nonpayable",
      "type": "constructor"
    },
    {
      "inputs": [],
      "name": "CygnusCollateralControl__ParameterNotInRange",
      "type": "error"
    },
    {
      "inputs": [
        {
          "internalType": "address",
          "name": "sender",
          "type": "address"
        },
        {
          "internalType": "address",
          "name": "origin",
          "type": "address"
        }
      ],
      "name": "CygnusCollateralModel__BorrowerCantBeAddressZero",
      "type": "error"
    },
    {
      "inputs": [],
      "name": "CygnusCollateralModel__PriceCantBeZero",
      "type": "error"
    },
    {
      "inputs": [],
      "name": "CygnusCollateralVoid__OnlyHarvesterAllowed",
      "type": "error"
    },
    {
      "inputs": [],
      "name": "CygnusTerminal__CantMintZeroShares",
      "type": "error"
    },
    {
      "inputs": [],
      "name": "CygnusTerminal__CantRedeemZeroAssets",
      "type": "error"
    },
    {
      "inputs": [],
      "name": "CygnusTerminal__CantSweepUnderlying",
      "type": "error"
    },
    {
      "inputs": [],
      "name": "CygnusTerminal__MsgSenderNotAdmin",
      "type": "error"
    },
    {
      "inputs": [
        {
          "internalType": "address",
          "name": "owner",
          "type": "address"
        },
        {
          "internalType": "uint8",
          "name": "v",
          "type": "uint8"
        },
        {
          "internalType": "bytes32",
          "name": "r",
          "type": "bytes32"
        },
        {
          "internalType": "bytes32",
          "name": "s",
          "type": "bytes32"
        }
      ],
      "name": "ERC20Permit_InvalidSignature",
      "type": "error"
    },
    {
      "inputs": [],
      "name": "ERC20Permit_OwnerZeroAddress",
      "type": "error"
    },
    {
      "inputs": [
        {
          "internalType": "uint256",
          "name": "currentTime",
          "type": "uint256"
        },
        {
          "internalType": "uint256",
          "name": "deadline",
          "type": "uint256"
        }
      ],
      "name": "ERC20Permit_PermitExpired",
      "type": "error"
    },
    {
      "inputs": [],
      "name": "ERC20Permit_RecoveredOwnerZeroAddress",
      "type": "error"
    },
    {
      "inputs": [],
      "name": "ERC20Permit_SpenderZeroAddress",
      "type": "error"
    },
    {
      "inputs": [],
      "name": "ERC20_ApproveOwnerZeroAddress",
      "type": "error"
    },
    {
      "inputs": [],
      "name": "ERC20_ApproveSpenderZeroAddress",
      "type": "error"
    },
    {
      "inputs": [],
      "name": "ERC20_BurnHolderZeroAddress",
      "type": "error"
    },
    {
      "inputs": [
        {
          "internalType": "uint256",
          "name": "senderBalance",
          "type": "uint256"
        },
        {
          "internalType": "uint256",
          "name": "transferAmount",
          "type": "uint256"
        }
      ],
      "name": "ERC20_FromInsufficientBalance",
      "type": "error"
    },
    {
      "inputs": [
        {
          "internalType": "address",
          "name": "owner",
          "type": "address"
        },
        {
          "internalType": "address",
          "name": "spender",
          "type": "address"
        },
        {
          "internalType": "uint256",
          "name": "allowance",
          "type": "uint256"
        },
        {
          "internalType": "uint256",
          "name": "transferAmount",
          "type": "uint256"
        }
      ],
      "name": "ERC20_InsufficientAllowance",
      "type": "error"
    },
    {
      "inputs": [],
      "name": "ERC20_MintBeneficiaryZeroAddress",
      "type": "error"
    },
    {
      "inputs": [],
      "name": "ERC20_TransferFromZeroAddress",
      "type": "error"
    },
    {
      "inputs": [],
      "name": "ERC20_TransferToZeroAddress",
      "type": "error"
    },
    {
      "inputs": [],
      "name": "ReentrantCall",
      "type": "error"
    },
    {
      "anonymous": false,
      "inputs": [
        {
          "indexed": true,
          "internalType": "address",
          "name": "owner",
          "type": "address"
        },
        {
          "indexed": true,
          "internalType": "address",
          "name": "spender",
          "type": "address"
        },
        {
          "indexed": false,
          "internalType": "uint256",
          "name": "value",
          "type": "uint256"
        }
      ],
      "name": "Approval",
      "type": "event"
    },
    {
      "anonymous": false,
      "inputs": [
        {
          "indexed": false,
          "internalType": "address",
          "name": "underlying",
          "type": "address"
        },
        {
          "indexed": false,
          "internalType": "uint256",
          "name": "shuttleId",
          "type": "uint256"
        },
        {
          "indexed": false,
          "internalType": "address",
          "name": "sender",
          "type": "address"
        }
      ],
      "name": "ChargeVoid",
      "type": "event"
    },
    {
      "anonymous": false,
      "inputs": [
        {
          "indexed": true,
          "internalType": "address",
          "name": "sender",
          "type": "address"
        },
        {
          "indexed": true,
          "internalType": "address",
          "name": "recipient",
          "type": "address"
        },
        {
          "indexed": false,
          "internalType": "uint256",
          "name": "assets",
          "type": "uint256"
        },
        {
          "indexed": false,
          "internalType": "uint256",
          "name": "shares",
          "type": "uint256"
        }
      ],
      "name": "Deposit",
      "type": "event"
    },
    {
      "anonymous": false,
      "inputs": [
        {
          "indexed": false,
          "internalType": "uint256",
          "name": "oldDebtRatio",
          "type": "uint256"
        },
        {
          "indexed": false,
          "internalType": "uint256",
          "name": "newDebtRatio",
          "type": "uint256"
        }
      ],
      "name": "NewDebtRatio",
      "type": "event"
    },
    {
      "anonymous": false,
      "inputs": [
        {
          "indexed": false,
          "internalType": "contract ICygnusHarvester",
          "name": "oldHarvester",
          "type": "address"
        },
        {
          "indexed": false,
          "internalType": "contract ICygnusHarvester",
          "name": "newHarvester",
          "type": "address"
        }
      ],
      "name": "NewHarvester",
      "type": "event"
    },
    {
      "anonymous": false,
      "inputs": [
        {
          "indexed": false,
          "internalType": "uint256",
          "name": "oldLiquidationFee",
          "type": "uint256"
        },
        {
          "indexed": false,
          "internalType": "uint256",
          "name": "newLiquidationFee",
          "type": "uint256"
        }
      ],
      "name": "NewLiquidationFee",
      "type": "event"
    },
    {
      "anonymous": false,
      "inputs": [
        {
          "indexed": false,
          "internalType": "uint256",
          "name": "oldLiquidationIncentive",
          "type": "uint256"
        },
        {
          "indexed": false,
          "internalType": "uint256",
          "name": "newLiquidationIncentive",
          "type": "uint256"
        }
      ],
      "name": "NewLiquidationIncentive",
      "type": "event"
    },
    {
      "anonymous": false,
      "inputs": [
        {
          "indexed": true,
          "internalType": "address",
          "name": "reinvestor",
          "type": "address"
        },
        {
          "indexed": false,
          "internalType": "uint256",
          "name": "liquidity",
          "type": "uint256"
        },
        {
          "indexed": false,
          "internalType": "uint256",
          "name": "timestamp",
          "type": "uint256"
        }
      ],
      "name": "RechargeVoid",
      "type": "event"
    },
    {
      "anonymous": false,
      "inputs": [
        {
          "indexed": false,
          "internalType": "uint160",
          "name": "totalBalance",
          "type": "uint160"
        }
      ],
      "name": "Sync",
      "type": "event"
    },
    {
      "anonymous": false,
      "inputs": [
        {
          "indexed": true,
          "internalType": "address",
          "name": "from",
          "type": "address"
        },
        {
          "indexed": true,
          "internalType": "address",
          "name": "to",
          "type": "address"
        },
        {
          "indexed": false,
          "internalType": "uint256",
          "name": "amount",
          "type": "uint256"
        }
      ],
      "name": "Transfer",
      "type": "event"
    },
    {
      "anonymous": false,
      "inputs": [
        {
          "indexed": true,
          "internalType": "address",
          "name": "sender",
          "type": "address"
        },
        {
          "indexed": true,
          "internalType": "address",
          "name": "recipient",
          "type": "address"
        },
        {
          "indexed": true,
          "internalType": "address",
          "name": "owner",
          "type": "address"
        },
        {
          "indexed": false,
          "internalType": "uint256",
          "name": "assets",
          "type": "uint256"
        },
        {
          "indexed": false,
          "internalType": "uint256",
          "name": "shares",
          "type": "uint256"
        }
      ],
      "name": "Withdraw",
      "type": "event"
    },
    {
      "inputs": [],
      "name": "DOMAIN_SEPARATOR",
      "outputs": [
        {
          "internalType": "bytes32",
          "name": "",
          "type": "bytes32"
        }
      ],
      "stateMutability": "view",
      "type": "function"
    },
    {
      "inputs": [],
      "name": "PERMIT2",
      "outputs": [
        {
          "internalType": "contract IAllowanceTransfer",
          "name": "",
          "type": "address"
        }
      ],
      "stateMutability": "view",
      "type": "function"
    },
    {
      "inputs": [],
      "name": "PERMIT_TYPEHASH",
      "outputs": [
        {
          "internalType": "bytes32",
          "name": "",
          "type": "bytes32"
        }
      ],
      "stateMutability": "view",
      "type": "function"
    },
    {
      "inputs": [
        {
          "internalType": "address",
          "name": "owner",
          "type": "address"
        },
        {
          "internalType": "address",
          "name": "spender",
          "type": "address"
        }
      ],
      "name": "allowance",
      "outputs": [
        {
          "internalType": "uint256",
          "name": "",
          "type": "uint256"
        }
      ],
      "stateMutability": "view",
      "type": "function"
    },
    {
      "inputs": [
        {
          "internalType": "address",
          "name": "spender",
          "type": "address"
        },
        {
          "internalType": "uint256",
          "name": "value",
          "type": "uint256"
        }
      ],
      "name": "approve",
      "outputs": [
        {
          "internalType": "bool",
          "name": "",
          "type": "bool"
        }
      ],
      "stateMutability": "nonpayable",
      "type": "function"
    },
    {
      "inputs": [
        {
          "internalType": "address",
          "name": "account",
          "type": "address"
        }
      ],
      "name": "balanceOf",
      "outputs": [
        {
          "internalType": "uint256",
          "name": "",
          "type": "uint256"
        }
      ],
      "stateMutability": "view",
      "type": "function"
    },
    {
      "inputs": [],
      "name": "borrowable",
      "outputs": [
        {
          "internalType": "address",
          "name": "",
          "type": "address"
        }
      ],
      "stateMutability": "view",
      "type": "function"
    },
    {
      "inputs": [
        {
          "internalType": "address",
          "name": "borrower",
          "type": "address"
        },
        {
          "internalType": "uint256",
          "name": "borrowAmount",
          "type": "uint256"
        }
      ],
      "name": "canBorrow",
      "outputs": [
        {
          "internalType": "bool",
          "name": "",
          "type": "bool"
        }
      ],
      "stateMutability": "view",
      "type": "function"
    },
    {
      "inputs": [
        {
          "internalType": "address",
          "name": "borrower",
          "type": "address"
        },
        {
          "internalType": "uint256",
          "name": "redeemAmount",
          "type": "uint256"
        }
      ],
      "name": "canRedeem",
      "outputs": [
        {
          "internalType": "bool",
          "name": "",
          "type": "bool"
        }
      ],
      "stateMutability": "view",
      "type": "function"
    },
    {
      "inputs": [],
      "name": "chargeVoid",
      "outputs": [],
      "stateMutability": "nonpayable",
      "type": "function"
    },
    {
      "inputs": [],
      "name": "cygnusNebulaOracle",
      "outputs": [
        {
          "internalType": "contract ICygnusNebulaOracle",
          "name": "",
          "type": "address"
        }
      ],
      "stateMutability": "view",
      "type": "function"
    },
    {
      "inputs": [],
      "name": "debtRatio",
      "outputs": [
        {
          "internalType": "uint256",
          "name": "",
          "type": "uint256"
        }
      ],
      "stateMutability": "view",
      "type": "function"
    },
    {
      "inputs": [],
      "name": "decimals",
      "outputs": [
        {
          "internalType": "uint8",
          "name": "",
          "type": "uint8"
        }
      ],
      "stateMutability": "view",
      "type": "function"
    },
    {
      "inputs": [
        {
          "internalType": "address",
          "name": "spender",
          "type": "address"
        },
        {
          "internalType": "uint256",
          "name": "value",
          "type": "uint256"
        }
      ],
      "name": "decreaseAllowance",
      "outputs": [
        {
          "internalType": "bool",
          "name": "",
          "type": "bool"
        }
      ],
      "stateMutability": "nonpayable",
      "type": "function"
    },
    {
      "inputs": [
        {
          "internalType": "uint256",
          "name": "assets",
          "type": "uint256"
        },
        {
          "internalType": "address",
          "name": "recipient",
          "type": "address"
        },
        {
          "components": [
            {
              "components": [
                {
                  "internalType": "address",
                  "name": "token",
                  "type": "address"
                },
                {
                  "internalType": "uint160",
                  "name": "amount",
                  "type": "uint160"
                },
                {
                  "internalType": "uint48",
                  "name": "expiration",
                  "type": "uint48"
                },
                {
                  "internalType": "uint48",
                  "name": "nonce",
                  "type": "uint48"
                }
              ],
              "internalType": "struct IAllowanceTransfer.PermitDetails",
              "name": "details",
              "type": "tuple"
            },
            {
              "internalType": "address",
              "name": "spender",
              "type": "address"
            },
            {
              "internalType": "uint256",
              "name": "sigDeadline",
              "type": "uint256"
            }
          ],
          "internalType": "struct IAllowanceTransfer.PermitSingle",
          "name": "_permit",
          "type": "tuple"
        },
        {
          "internalType": "bytes",
          "name": "signature",
          "type": "bytes"
        }
      ],
      "name": "deposit",
      "outputs": [
        {
          "internalType": "uint256",
          "name": "shares",
          "type": "uint256"
        }
      ],
      "stateMutability": "nonpayable",
      "type": "function"
    },
    {
      "inputs": [],
      "name": "exchangeRate",
      "outputs": [
        {
          "internalType": "uint256",
          "name": "",
          "type": "uint256"
        }
      ],
      "stateMutability": "view",
      "type": "function"
    },
    {
      "inputs": [
        {
          "internalType": "address",
          "name": "borrower",
          "type": "address"
        }
      ],
      "name": "getAccountLiquidity",
      "outputs": [
        {
          "internalType": "uint256",
          "name": "liquidity",
          "type": "uint256"
        },
        {
          "internalType": "uint256",
          "name": "shortfall",
          "type": "uint256"
        }
      ],
      "stateMutability": "view",
      "type": "function"
    },
    {
      "inputs": [
        {
          "internalType": "address",
          "name": "borrower",
          "type": "address"
        }
      ],
      "name": "getDebtRatio",
      "outputs": [
        {
          "internalType": "uint256",
          "name": "",
          "type": "uint256"
        }
      ],
      "stateMutability": "view",
      "type": "function"
    },
    {
      "inputs": [],
      "name": "getLPTokenPrice",
      "outputs": [
        {
          "internalType": "uint256",
          "name": "price",
          "type": "uint256"
        }
      ],
      "stateMutability": "view",
      "type": "function"
    },
    {
      "inputs": [],
      "name": "getRewards",
      "outputs": [
        {
          "internalType": "address[]",
          "name": "tokens",
          "type": "address[]"
        },
        {
          "internalType": "uint256[]",
          "name": "amounts",
          "type": "uint256[]"
        }
      ],
      "stateMutability": "nonpayable",
      "type": "function"
    },
    {
      "inputs": [],
      "name": "hangar18",
      "outputs": [
        {
          "internalType": "contract IHangar18",
          "name": "",
          "type": "address"
        }
      ],
      "stateMutability": "view",
      "type": "function"
    },
    {
      "inputs": [],
      "name": "harvester",
      "outputs": [
        {
          "internalType": "contract ICygnusHarvester",
          "name": "",
          "type": "address"
        }
      ],
      "stateMutability": "view",
      "type": "function"
    },
    {
      "inputs": [
        {
          "internalType": "address",
          "name": "spender",
          "type": "address"
        },
        {
          "internalType": "uint256",
          "name": "value",
          "type": "uint256"
        }
      ],
      "name": "increaseAllowance",
      "outputs": [
        {
          "internalType": "bool",
          "name": "",
          "type": "bool"
        }
      ],
      "stateMutability": "nonpayable",
      "type": "function"
    },
    {
      "inputs": [],
      "name": "lastReinvest",
      "outputs": [
        {
          "internalType": "uint256",
          "name": "",
          "type": "uint256"
        }
      ],
      "stateMutability": "view",
      "type": "function"
    },
    {
      "inputs": [],
      "name": "liquidationFee",
      "outputs": [
        {
          "internalType": "uint256",
          "name": "",
          "type": "uint256"
        }
      ],
      "stateMutability": "view",
      "type": "function"
    },
    {
      "inputs": [],
      "name": "liquidationIncentive",
      "outputs": [
        {
          "internalType": "uint256",
          "name": "",
          "type": "uint256"
        }
      ],
      "stateMutability": "view",
      "type": "function"
    },
    {
      "inputs": [],
      "name": "name",
      "outputs": [
        {
          "internalType": "string",
          "name": "",
          "type": "string"
        }
      ],
      "stateMutability": "view",
      "type": "function"
    },
    {
      "inputs": [
        {
          "internalType": "address",
          "name": "",
          "type": "address"
        }
      ],
      "name": "nonces",
      "outputs": [
        {
          "internalType": "uint256",
          "name": "",
          "type": "uint256"
        }
      ],
      "stateMutability": "view",
      "type": "function"
    },
    {
      "inputs": [
        {
          "internalType": "address",
          "name": "owner",
          "type": "address"
        },
        {
          "internalType": "address",
          "name": "spender",
          "type": "address"
        },
        {
          "internalType": "uint256",
          "name": "value",
          "type": "uint256"
        },
        {
          "internalType": "uint256",
          "name": "deadline",
          "type": "uint256"
        },
        {
          "internalType": "uint8",
          "name": "v",
          "type": "uint8"
        },
        {
          "internalType": "bytes32",
          "name": "r",
          "type": "bytes32"
        },
        {
          "internalType": "bytes32",
          "name": "s",
          "type": "bytes32"
        }
      ],
      "name": "permit",
      "outputs": [],
      "stateMutability": "nonpayable",
      "type": "function"
    },
    {
      "inputs": [
        {
          "internalType": "uint256",
          "name": "shares",
          "type": "uint256"
        },
        {
          "internalType": "address",
          "name": "recipient",
          "type": "address"
        },
        {
          "internalType": "address",
          "name": "owner",
          "type": "address"
        }
      ],
      "name": "redeem",
      "outputs": [
        {
          "internalType": "uint256",
          "name": "assets",
          "type": "uint256"
        }
      ],
      "stateMutability": "nonpayable",
      "type": "function"
    },
    {
      "inputs": [
        {
          "internalType": "uint256",
          "name": "liquidity",
          "type": "uint256"
        }
      ],
      "name": "reinvestRewards_y7b",
      "outputs": [],
      "stateMutability": "nonpayable",
      "type": "function"
    },
    {
      "inputs": [],
      "name": "rewardToken",
      "outputs": [
        {
          "internalType": "address",
          "name": "",
          "type": "address"
        }
      ],
      "stateMutability": "pure",
      "type": "function"
    },
    {
      "inputs": [],
      "name": "rewarder",
      "outputs": [
        {
          "internalType": "address",
          "name": "",
          "type": "address"
        }
      ],
      "stateMutability": "pure",
      "type": "function"
    },
    {
      "inputs": [
        {
          "internalType": "uint256",
          "name": "newDebtRatio",
          "type": "uint256"
        }
      ],
      "name": "setDebtRatio",
      "outputs": [],
      "stateMutability": "nonpayable",
      "type": "function"
    },
    {
      "inputs": [
        {
          "internalType": "contract ICygnusHarvester",
          "name": "_harvester",
          "type": "address"
        }
      ],
      "name": "setHarvester",
      "outputs": [],
      "stateMutability": "nonpayable",
      "type": "function"
    },
    {
      "inputs": [
        {
          "internalType": "uint256",
          "name": "newLiquidationFee",
          "type": "uint256"
        }
      ],
      "name": "setLiquidationFee",
      "outputs": [],
      "stateMutability": "nonpayable",
      "type": "function"
    },
    {
      "inputs": [
        {
          "internalType": "uint256",
          "name": "newLiquidationIncentive",
          "type": "uint256"
        }
      ],
      "name": "setLiquidationIncentive",
      "outputs": [],
      "stateMutability": "nonpayable",
      "type": "function"
    },
    {
      "inputs": [],
      "name": "shuttleId",
      "outputs": [
        {
          "internalType": "uint256",
          "name": "",
          "type": "uint256"
        }
      ],
      "stateMutability": "view",
      "type": "function"
    },
    {
      "inputs": [
        {
          "internalType": "address",
          "name": "token",
          "type": "address"
        }
      ],
      "name": "sweepToken",
      "outputs": [],
      "stateMutability": "nonpayable",
      "type": "function"
    },
    {
      "inputs": [],
      "name": "symbol",
      "outputs": [
        {
          "internalType": "string",
          "name": "",
          "type": "string"
        }
      ],
      "stateMutability": "view",
      "type": "function"
    },
    {
      "inputs": [],
      "name": "totalBalance",
      "outputs": [
        {
          "internalType": "uint160",
          "name": "",
          "type": "uint160"
        }
      ],
      "stateMutability": "view",
      "type": "function"
    },
    {
      "inputs": [],
      "name": "totalSupply",
      "outputs": [
        {
          "internalType": "uint256",
          "name": "",
          "type": "uint256"
        }
      ],
      "stateMutability": "view",
      "type": "function"
    },
    {
      "inputs": [
        {
          "internalType": "address",
          "name": "to",
          "type": "address"
        },
        {
          "internalType": "uint256",
          "name": "amount",
          "type": "uint256"
        }
      ],
      "name": "transfer",
      "outputs": [
        {
          "internalType": "bool",
          "name": "",
          "type": "bool"
        }
      ],
      "stateMutability": "nonpayable",
      "type": "function"
    },
    {
      "inputs": [
        {
          "internalType": "address",
          "name": "from",
          "type": "address"
        },
        {
          "internalType": "address",
          "name": "to",
          "type": "address"
        },
        {
          "internalType": "uint256",
          "name": "amount",
          "type": "uint256"
        }
      ],
      "name": "transferFrom",
      "outputs": [
        {
          "internalType": "bool",
          "name": "",
          "type": "bool"
        }
      ],
      "stateMutability": "nonpayable",
      "type": "function"
    },
    {
      "inputs": [],
      "name": "underlying",
      "outputs": [
        {
          "internalType": "address",
          "name": "",
          "type": "address"
        }
      ],
      "stateMutability": "view",
      "type": "function"
    },
    {
      "inputs": [],
      "name": "version",
      "outputs": [
        {
          "internalType": "string",
          "name": "",
          "type": "string"
        }
      ],
      "stateMutability": "view",
      "type": "function"
    }
  ],
  "bytecode": "0x610140604052670d2f13f7789f0000600855670e5d0f042e878000600955600019600b553480156200003057600080fd5b5060405146907f8b73c3c69bb8fe3d512ecc4cf759cc79239f7b179b0ffacaa9a75d522b39400f90620000669060009062000385565b60408051918290038220828201825260018352603160f81b6020938401528151928301939093528101919091527fc89efdaa54c0f20c7adf612882df0950f5a951637e0307cdcb4c672f298b8bc66060820152608081018290523060a082015260c00160408051601f1981840301815282825280516020909101206080526007805460ff19166001179055635a412e5360e01b825251339250635a412e539160048082019260a09290919082900301816000875af11580156200012d573d6000803e3d6000fd5b505050506040513d601f19601f820116820180604052508101906200015391906200041c565b610100526001600160a01b0390811660c05291821660e052501660a090815260408051635a412e5360e01b8152905160009283923392635a412e5392600480840193919291829003018187875af1158015620001b3573d6000803e3d6000fd5b505050506040513d601f19601f82011682018060405250810190620001d991906200041c565b505092509250506040518060400160405280601281526020017110de59db9d5cce8810dbdb1b185d195c985b60721b815250600090816200021b9190620004f9565b50816001600160a01b03166395d89b416040518163ffffffff1660e01b8152600401600060405180830381865afa1580156200025b573d6000803e3d6000fd5b505050506040513d6000823e601f3d908101601f19168201604052620002859190810190620005eb565b604051602001620002979190620006a3565b60405160208183030381529060405260019081620002b69190620004f9565b50816001600160a01b031663313ce5676040518163ffffffff1660e01b8152600401602060405180830381865afa158015620002f6573d6000803e3d6000fd5b505050506040513d601f19601f820116820180604052508101906200031c9190620006d4565b6002805460ff191660ff929092169190911790556001600160a01b03166101205250600060035562000700565b600181811c908216806200035e57607f821691505b6020821081036200037f57634e487b7160e01b600052602260045260246000fd5b50919050565b6000808354620003958162000349565b60018281168015620003b05760018114620003c657620003f7565b60ff1984168752821515830287019450620003f7565b8760005260208060002060005b85811015620003ee5781548a820152908401908201620003d3565b50505082870194505b50929695505050505050565b6001600160a01b03811681146200041957600080fd5b50565b600080600080600060a086880312156200043557600080fd5b8551620004428162000403565b6020870151909550620004558162000403565b6040870151909450620004688162000403565b60608701519093506200047b8162000403565b80925050608086015190509295509295909350565b634e487b7160e01b600052604160045260246000fd5b601f821115620004f457600081815260208120601f850160051c81016020861015620004cf5750805b601f850160051c820191505b81811015620004f057828155600101620004db565b5050505b505050565b81516001600160401b0381111562000515576200051562000490565b6200052d8162000526845462000349565b84620004a6565b602080601f8311600181146200056557600084156200054c5750858301515b600019600386901b1c1916600185901b178555620004f0565b600085815260208120601f198616915b82811015620005965788860151825594840194600190910190840162000575565b5085821015620005b55787850151600019600388901b60f8161c191681555b5050505050600190811b01905550565b60005b83811015620005e2578181015183820152602001620005c8565b50506000910152565b600060208284031215620005fe57600080fd5b81516001600160401b03808211156200061657600080fd5b818401915084601f8301126200062b57600080fd5b81518181111562000640576200064062000490565b604051601f8201601f19908116603f011681019083821181831017156200066b576200066b62000490565b816040528281528760208487010111156200068557600080fd5b62000698836020830160208801620005c5565b979650505050505050565b66021bcb3a6281d160cd1b815260008251620006c7816007850160208701620005c5565b9190910160070192915050565b600060208284031215620006e757600080fd5b815160ff81168114620006f957600080fd5b9392505050565b60805160a05160c05160e0516101005161012051612dc9620007b960003960008181610714015281816107de0152818161159d01526121b80152600081816104cf01526114ce01526000818161050c015281816109ee01528181610af601528181610ca201528181610f520152818161123e015281816114030152818161146001526114a20152600081816106730152610ccd0152600081816106ed0152611eac015260008181610412015261174a0152612dc96000f3fe608060405234801561001057600080fd5b506004361061030a5760003560e01c80638808e71c1161019c578063cc1f8ffa116100ee578063dd62ed3e11610097578063eb6a887d11610071578063eb6a887d14610736578063f7c618c114610749578063fef0bec81461076357600080fd5b8063dd62ed3e146106af578063e8a24e1d146106e8578063e99a6ac71461070f57600080fd5b8063d505accf116100c8578063d505accf1461065b578063d935bd921461066e578063dcc3e06e1461069557600080fd5b8063cc1f8ffa1461062c578063cea55f571461063f578063cf8c8c441461064857600080fd5b8063a843108111610150578063b5f3c95b1161012a578063b5f3c95b14610608578063ba08765214610611578063bcbc33201461062457600080fd5b8063a8431081146105ca578063a9059cbb146105dd578063ad7a672f146105f057600080fd5b806395d89b411161018157806395d89b41146105a6578063a36a3630146105ae578063a457c2d7146105b757600080fd5b80638808e71c1461058a5780638c765e941461059d57600080fd5b806339509351116102605780635f77f8911161020957806370a08231116101e357806370a082311461052e5780637ecebe001461055757806381f5b6f41461057757600080fd5b80635f77f891146104ca5780636afdd850146104f15780636f307dc31461050757600080fd5b8063513036221161023a578063513036221461047a57806354fd4d50146104825780635ec88c79146104a257600080fd5b806339509351146104345780633ba0b9a9146104475780634bdaeac11461044f57600080fd5b806318160ddd116102c257806330adf81f1161029c57806330adf81f146103c7578063313ce567146103ee5780633644e5151461040d57600080fd5b806318160ddd146103985780631be19560146103a157806323b872dd146103b457600080fd5b806306fdde03116102f357806306fdde031461034b578063095ea7b31461036057806315de1daa1461038357600080fd5b8063031a5c821461030f5780630572b0cc14610335575b600080fd5b61032261031d3660046126f5565b610776565b6040519081526020015b60405180910390f35b61033d6108a0565b60405161032c929190612719565b6103536108ef565b60405161032c919061279d565b61037361036e3660046127eb565b61097d565b604051901515815260200161032c565b6103966103913660046126f5565b610994565b005b61032260035481565b6103966103af3660046126f5565b610abf565b6103736103c2366004612817565b610b78565b6103227f6e71edae12b1b97f4d1f60370fef10105fa2faae0126114a169c64845d6126c981565b6002546103fb9060ff1681565b60405160ff909116815260200161032c565b6103227f000000000000000000000000000000000000000000000000000000000000000081565b6103736104423660046127eb565b610c07565b610322610c4f565b600c54610462906001600160a01b031681565b6040516001600160a01b03909116815260200161032c565b610322610c8b565b610353604051806040016040528060018152602001603160f81b81525081565b6104b56104b03660046126f5565b610d60565b6040805192835260208301919091520161032c565b6103227f000000000000000000000000000000000000000000000000000000000000000081565b6104626e22d473030f116ddee9f6b43ac78ba381565b6104627f000000000000000000000000000000000000000000000000000000000000000081565b61032261053c3660046126f5565b6001600160a01b031660009081526005602052604090205490565b6103226105653660046126f5565b60066020526000908152604090205481565b610396610585366004612858565b610d78565b610322610598366004612871565b610e38565b61032260095481565b610353611097565b610322600a5481565b6103736105c53660046127eb565b6110a4565b6103966105d8366004612858565b6110d5565b6103736105eb3660046127eb565b61113e565b6007546104629061010090046001600160a01b031681565b610322600d5481565b61032261061f36600461291c565b61114b565b6103966112cc565b61037361063a3660046127eb565b611532565b61032260085481565b6103736106563660046127eb565b611624565b61039661066936600461295e565b61163b565b6104627f000000000000000000000000000000000000000000000000000000000000000081565b73b25157bf349295a7cd31d1751973f426182070d6610462565b6103226106bd3660046129d5565b6001600160a01b03918216600090815260046020908152604080832093909416825291909152205490565b6104627f000000000000000000000000000000000000000000000000000000000000000081565b6104627f000000000000000000000000000000000000000000000000000000000000000081565b610396610744366004612858565b6118de565b733eaeb77b03dbc0f6321ae1b72b2e9adb0f60112b610462565b610396610771366004612858565b61193f565b6000806107a3610784610c4f565b6001600160a01b03851660009081526005602052604090205490611999565b905060006107b96107b2610c8b565b8390611999565b604051637d6af07960e01b81526001600160a01b0386811660048301529192506000917f00000000000000000000000000000000000000000000000000000000000000001690637d6af07990602401602060405180830381865afa158015610825573d6000803e3d6000fd5b505050506040513d601f19601f820116820180604052508101906108499190612a0e565b90506000610867600a546009546108609190612a3d565b83906119c7565b905082156108935761088e6108876008548561199990919063ffffffff16565b82906119fd565b610896565b60005b9695505050505050565b600754606090819060ff166108c8576040516306fda65d60e31b815260040160405180910390fd5b6007805460ff191690556108da611a4c565b915091506007805460ff191660011790559091565b600080546108fc90612a50565b80601f016020809104026020016040519081016040528092919081815260200182805461092890612a50565b80156109755780601f1061094a57610100808354040283529160200191610975565b820191906000526020600020905b81548152906001019060200180831161095857829003601f168201915b505050505081565b600061098a338484611df9565b5060015b92915050565b61099c611ea8565b600c80546001600160a01b038381167fffffffffffffffffffffffff00000000000000000000000000000000000000008316179092551660006109dd611a4c565b50905060005b8151811015610a76577f00000000000000000000000000000000000000000000000000000000000000006001600160a01b0316828281518110610a2857610a28612a84565b60200260200101516001600160a01b031614610a6457610a64828281518110610a5357610a53612a84565b602002602001015185600019611f5a565b80610a6e81612a9a565b9150506109e3565b50604080516001600160a01b038085168252851660208201527f6a97a9e954ae4ef4c8ecc6c7dd8a1cbe668254132294ceb515db9a2e4faad7f5910160405180910390a1505050565b60075460ff16610ae2576040516306fda65d60e31b815260040160405180910390fd5b6007805460ff19169055610af4611ea8565b7f00000000000000000000000000000000000000000000000000000000000000006001600160a01b0316816001600160a01b031603610b465760405163b5d8f39160e01b815260040160405180910390fd5b6000610b5182611ff2565b9050610b676001600160a01b0383163383612007565b50506007805460ff19166001179055565b6001600160a01b038316600090815260046020908152604080832033808552925282205483811015610be357604051636497133b60e11b81526001600160a01b0380881660048301528316602482015260448101829052606481018590526084015b60405180910390fd5b610bf08683868403611df9565b610bfb868686612056565b50600195945050505050565b3360009081526004602090815260408083206001600160a01b03861684529091528120548190610c38908490612a3d565b9050610c45338583611df9565b5060019392505050565b6003546000908015610c7b57600754610c769061010090046001600160a01b0316826119fd565b610c85565b670de0b6b3a76400005b91505090565b6040516317e5a1a160e01b81526001600160a01b037f0000000000000000000000000000000000000000000000000000000000000000811660048301526000917f0000000000000000000000000000000000000000000000000000000000000000909116906317e5a1a190602401602060405180830381865afa158015610d16573d6000803e3d6000fd5b505050506040513d601f19601f82011682018060405250810190610d3a9190612a0e565b905080600003610d5d5760405163586ad3b960e11b815260040160405180910390fd5b90565b600080610d6f83600019612155565b91509150915091565b60075460ff16610d9b576040516306fda65d60e31b815260040160405180910390fd5b6007805460ff19169055600c546001600160a01b03163314610dd057604051639f91a89160e01b815260040160405180910390fd5b610dd98161226b565b42600d81905560405133917fc63644116f6ef474fe595238489f3d0d31a12c55be3a748d72269a62882b04c991610e1891858252602082015260400190565b60405180910390a2610e286122e5565b506007805460ff19166001179055565b60075460009060ff16610e5e576040516306fda65d60e31b815260040160405180910390fd5b6007805460ff191690556000610e7261236a565b90508215610ee5576040516302b67b5760e41b81526e22d473030f116ddee9f6b43ac78ba390632b67b57090610eb2903390899089908990600401612af7565b600060405180830381600087803b158015610ecc57600080fd5b505af1158015610ee0573d6000803e3d6000fd5b505050505b6e22d473030f116ddee9f6b43ac78ba36336c785163330610f058b6123f0565b60405160e085901b7fffffffff000000000000000000000000000000000000000000000000000000001681526001600160a01b0393841660048201529183166024830152821660448201527f00000000000000000000000000000000000000000000000000000000000000009091166064820152608401600060405180830381600087803b158015610f9657600080fd5b505af1158015610faa573d6000803e3d6000fd5b50505050610fb78761226b565b6000610fc161236a565b9050610fde610fce610c4f565b610fd88484612ba4565b906119fd565b9250826000036110015760405163f1ca48b160e01b815260040160405180910390fd5b600354600003611027576110176103e884612ba4565b925061102761dead6103e861241a565b611031878461241a565b60408051898152602081018590526001600160a01b0389169133917fdcbc1c05240f31ff3ad067ef1ee35ce4997762752e3a095284754544f4c709d7910160405180910390a350506110816122e5565b6007805460ff1916600117905595945050505050565b600180546108fc90612a50565b3360009081526004602090815260408083206001600160a01b03861684529091528120548190610c38908490612ba4565b6110dd611ea8565b6110f8670de0b6b3a7640000670ff59ee833b30000836124ad565b600980549082905560408051828152602081018490527faeba5a6c40a8ac138134bff1aaa65debf25971188a58804bad717f82f0ec131691015b60405180910390a15050565b600061098a338484612056565b60075460009060ff16611171576040516306fda65d60e31b815260040160405180910390fd5b6007805460ff19169055336001600160a01b038316146111e9576001600160a01b038216600090815260046020908152604080832033845290915290205460001981146111e7576111c28582612ba4565b6001600160a01b03841660009081526004602090815260408083203384529091529020555b505b6111fb6111f4610c4f565b8590611999565b90506000811161121e5760405163e3e8d29760e01b815260040160405180910390fd5b611227816124d8565b6112318285612521565b6112656001600160a01b037f0000000000000000000000000000000000000000000000000000000000000000168483612007565b60408051828152602081018690526001600160a01b03808516929086169133917ffbde797d201c681b91056529119e0b02407c7bb96a4a2c75c01fc9667232c8db910160405180910390a46112b86122e5565b6007805460ff191660011790559392505050565b60075460ff166112ef576040516306fda65d60e31b815260040160405180910390fd5b6007805460ff19169055600b5460010161145b57600073b25157bf349295a7cd31d1751973f426182070d66001600160a01b031663081e3eda6040518163ffffffff1660e01b8152600401602060405180830381865afa158015611357573d6000803e3d6000fd5b505050506040513d601f19601f8201168201806040525081019061137b9190612a0e565b905060005b81811015611458576040516378ed5d1f60e01b81526004810182905260009073b25157bf349295a7cd31d1751973f426182070d6906378ed5d1f90602401602060405180830381865afa1580156113db573d6000803e3d6000fd5b505050506040513d601f19601f820116820180604052508101906113ff9190612bb7565b90507f00000000000000000000000000000000000000000000000000000000000000006001600160a01b0316816001600160a01b0316036114455750600b819055611458565b508061145081612a9a565b915050611380565b50505b61149c7f000000000000000000000000000000000000000000000000000000000000000073b25157bf349295a7cd31d1751973f426182070d6600019611f5a565b604080517f00000000000000000000000000000000000000000000000000000000000000006001600160a01b031681527f00000000000000000000000000000000000000000000000000000000000000006020820152338183015290517f98ccebae89f16f152c93c6a0cdc0d99913b9e62a9fc612471c21ffc299c389fd9181900360600190a16007805460ff19166001179055565b6001600160a01b0382166000908152600560205260408120548083111561155d57600091505061098e565b60006115698483612ba4565b905060006115786107b2610c4f565b604051637d6af07960e01b81526001600160a01b0388811660048301529192506000917f00000000000000000000000000000000000000000000000000000000000000001690637d6af07990602401602060405180830381865afa1580156115e4573d6000803e3d6000fd5b505050506040513d601f19601f820116820180604052508101906116089190612a0e565b9050600061161683836125bc565b159998505050505050505050565b6000806116318484612155565b1595945050505050565b6001600160a01b038716611662576040516337adc3e960e11b815260040160405180910390fd5b6001600160a01b03861661168957604051637b4813dd60e01b815260040160405180910390fd5b428410156116b357604051633288645960e01b815242600482015260248101859052604401610bda565b6001600160a01b0387811660008181526006602090815260408083208054600180820190925582517f6e71edae12b1b97f4d1f60370fef10105fa2faae0126114a169c64845d6126c98186015280840196909652958c166060860152608085018b905260a085019590955260c08085018a90528151808603909101815260e08501825280519083012061190160f01b6101008601527f000000000000000000000000000000000000000000000000000000000000000061010286015261012280860182905282518087039091018152610142860180845281519185019190912090859052610162860180845281905260ff8a166101828701526101a286018990526101c2860188905291519095919491926101e2808401939192601f1981019281900390910190855afa1580156117ee573d6000803e3d6000fd5b5050604051601f1901519150506001600160a01b0381166118225760405163d147d0e360e01b815260040160405180910390fd5b896001600160a01b0316816001600160a01b03161461187657604051633460790b60e01b81526001600160a01b038b16600482015260ff871660248201526044810186905260648101859052608401610bda565b6001600160a01b038a81166000818152600460209081526040808320948e16808452948252918290208c905590518b81527f8c5be1e5ebec7d5bd14f71427d1e84f3dd0314c0f7b2291e5b200ac8c7c3b925910160405180910390a350505050505050505050565b6118e6611ea8565b611901670b1a2bc2ec500000670de0b6b3a7640000836124ad565b600880549082905560408051828152602081018490527ff25d2243e4128e51523d8537f04f18c3e6390bbfc6323390a9a8e59b921ce0469101611132565b611947611ea8565b61195b600067016345785d8a0000836124ad565b600a80549082905560408051828152602081018490527f87272249f1056ec16a68dd9255101358246dd26a796e2f0bc6b3a0ad02f2de419101611132565b6000816000190483118202156119b75763bac65e5b6000526004601cfd5b50670de0b6b3a764000091020490565b6000816000190483118202156119e55763bac65e5b6000526004601cfd5b50670de0b6b3a7640000910281810615159190040190565b60007812725dd1d243aba0e75fe645cc4873f9e65afe688c928e1f218311670de0b6b3a764000002158202611a3a57637c5f487d6000526004601cfd5b50670de0b6b3a7640000919091020490565b600b54604051630c7e663b60e11b81526004810191909152306024820152606090819073b25157bf349295a7cd31d1751973f426182070d6906318fccc7690604401600060405180830381600087803b158015611aa857600080fd5b505af1158015611abc573d6000803e3d6000fd5b5050600b5460405163c346253d60e01b81526000935073b25157bf349295a7cd31d1751973f426182070d6925063c346253d91611aff9160040190815260200190565b602060405180830381865afa158015611b1c573d6000803e3d6000fd5b505050506040513d601f19601f82011682018060405250810190611b409190612bb7565b90506001600160a01b03811615611d3057600b5460405163d63b3c4960e01b81526004810191909152306024820152600060448201819052906001600160a01b0383169063d63b3c4990606401600060405180830381865afa158015611baa573d6000803e3d6000fd5b505050506040513d6000823e601f3d908101601f19168201604052611bd29190810190612caa565b5060408051600280825260608201835292935091906020830190803683375050604080516002808252606082018352939750929150602083019080368337019050509250733eaeb77b03dbc0f6321ae1b72b2e9adb0f60112b84600081518110611c3e57611c3e612a84565b60200260200101906001600160a01b031690816001600160a01b031681525050611c7b733eaeb77b03dbc0f6321ae1b72b2e9adb0f60112b611ff2565b83600081518110611c8e57611c8e612a84565b60200260200101818152505080600081518110611cad57611cad612a84565b602002602001015184600181518110611cc857611cc8612a84565b60200260200101906001600160a01b031690816001600160a01b031681525050611d0b81600081518110611cfe57611cfe612a84565b6020026020010151611ff2565b83600181518110611d1e57611d1e612a84565b60200260200101818152505050509091565b60408051600180825281830190925290602080830190803683375050604080516001808252818301909252929550905060208083019080368337019050509150733eaeb77b03dbc0f6321ae1b72b2e9adb0f60112b83600081518110611d9857611d98612a84565b60200260200101906001600160a01b031690816001600160a01b031681525050611dd5733eaeb77b03dbc0f6321ae1b72b2e9adb0f60112b611ff2565b82600081518110611de857611de8612a84565b602002602001018181525050509091565b6001600160a01b038316611e205760405163231b1a1d60e21b815260040160405180910390fd5b6001600160a01b038216611e4757604051632b6990d760e21b815260040160405180910390fd5b6001600160a01b0383811660008181526004602090815260408083209487168084529482529182902085905590518481527f8c5be1e5ebec7d5bd14f71427d1e84f3dd0314c0f7b2291e5b200ac8c7c3b925910160405180910390a3505050565b60007f00000000000000000000000000000000000000000000000000000000000000006001600160a01b031663f851a4406040518163ffffffff1660e01b8152600401602060405180830381865afa158015611f08573d6000803e3d6000fd5b505050506040513d601f19601f82011682018060405250810190611f2c9190612bb7565b9050336001600160a01b03821614611f57576040516331d63ad160e11b815260040160405180910390fd5b50565b604051636eb1769f60e11b81523060048201526001600160a01b03838116602483015282919085169063dd62ed3e90604401602060405180830381865afa158015611fa9573d6000803e3d6000fd5b505050506040513d601f19601f82011682018060405250810190611fcd9190612a0e565b10611fd757505050565b611fed6001600160a01b03841683600019612658565b505050565b600061098e6001600160a01b0383163061269d565b81601452806034526fa9059cbb00000000000000000000000060005260206000604460106000875af13d15600160005114171661204c576390b8ec186000526004601cfd5b6000603452505050565b6001600160a01b03831661207d57604051636fbb781760e01b815260040160405180910390fd5b6001600160a01b0382166120a3576040516261696b60e71b815260040160405180910390fd5b6001600160a01b038316600090815260056020526040902054818110156120e75760405163430cf54960e11b81526004810182905260248101839052604401610bda565b6001600160a01b0380851660008181526005602052604080822086860390559286168082529083902080548601905591517fddf252ad1be2c89b69c2b068fc378daa952ba7f163c4a11628f55a4df523b3ef906121479086815260200190565b60405180910390a350505050565b6000806001600160a01b0384166121905760405163a5075cd160e01b81526001600160a01b0385166004820152326024820152604401610bda565b600019830361222657604051637d6af07960e01b81526001600160a01b0385811660048301527f00000000000000000000000000000000000000000000000000000000000000001690637d6af07990602401602060405180830381865afa1580156121ff573d6000803e3d6000fd5b505050506040513d601f19601f820116820180604052508101906122239190612a0e565b92505b6000612252612233610c4f565b6001600160a01b03871660009081526005602052604090205490611999565b905061225e81856125bc565b92509250505b9250929050565b600b54604051638dbdbe6d60e01b815260048101919091526024810182905230604482015273b25157bf349295a7cd31d1751973f426182070d690638dbdbe6d906064015b600060405180830381600087803b1580156122ca57600080fd5b505af11580156122de573d6000803e3d6000fd5b5050505050565b60006122ef61236a565b90507f3145c2b643834867f2c0a8cac8a48218307687911615c0ed01412a09dd163b6661231b826123f0565b600780547fffffffffffffffffffffff0000000000000000000000000000000000000000ff166101006001600160a01b039390931692830217905560405190815260200160405180910390a150565b600b546040516393f1a40b60e01b8152600481019190915230602482015260009073b25157bf349295a7cd31d1751973f426182070d6906393f1a40b906044016040805180830381865afa1580156123c6573d6000803e3d6000fd5b505050506040513d601f19601f820116820180604052508101906123ea9190612d6f565b50919050565b6000740100000000000000000000000000000000000000008210612416576124166126d2565b5090565b6001600160a01b0382166124415760405163df3dc1c960e01b815260040160405180910390fd5b80600360008282546124539190612a3d565b90915550506001600160a01b0382166000818152600560209081526040808320805486019055518481527fddf252ad1be2c89b69c2b068fc378daa952ba7f163c4a11628f55a4df523b3ef91015b60405180910390a35050565b828110806124ba57508181115b15611fed5760405163058b4cb360e11b815260040160405180910390fd5b600b54604051630ad58d2f60e01b815260048101919091526024810182905230604482015273b25157bf349295a7cd31d1751973f426182070d690630ad58d2f906064016122b0565b6001600160a01b03821661254857604051633eedce0760e01b815260040160405180910390fd5b6001600160a01b03821660009081526005602052604081208054839290612570908490612ba4565b90915550506003805482900390556040518181526000906001600160a01b038416907fddf252ad1be2c89b69c2b068fc378daa952ba7f163c4a11628f55a4df523b3ef906020016124a1565b60008060006125d36125cc610c8b565b8690611999565b905060006125ec6008548361199990919063ffffffff16565b90508460000361261657612609600a546009546108879190612a3d565b6000935093505050612264565b6000612632600a5460095461262b9190612a3d565b87906119c7565b905080821061264a5790039250600091506122649050565b600094500391506122649050565b81601452806034526f095ea7b300000000000000000000000060005260206000604460106000875af13d15600160005114171661204c57633e3f8f736000526004601cfd5b6000816014526f70a0823100000000000000000000000060005260208060246010865afa601f3d111660205102905092915050565b6335278d126000526004601cfd5b6001600160a01b0381168114611f5757600080fd5b60006020828403121561270757600080fd5b8135612712816126e0565b9392505050565b604080825283519082018190526000906020906060840190828701845b8281101561275b5781516001600160a01b031684529284019290840190600101612736565b5050508381038285015284518082528583019183019060005b8181101561279057835183529284019291840191600101612774565b5090979650505050505050565b600060208083528351808285015260005b818110156127ca578581018301518582016040015282016127ae565b506000604082860101526040601f19601f8301168501019250505092915050565b600080604083850312156127fe57600080fd5b8235612809816126e0565b946020939093013593505050565b60008060006060848603121561282c57600080fd5b8335612837816126e0565b92506020840135612847816126e0565b929592945050506040919091013590565b60006020828403121561286a57600080fd5b5035919050565b600080600080600085870361012081121561288b57600080fd5b86359550602087013561289d816126e0565b945060c0603f19820112156128b157600080fd5b5060408601925061010086013567ffffffffffffffff808211156128d457600080fd5b818801915088601f8301126128e857600080fd5b8135818111156128f757600080fd5b89602082850101111561290957600080fd5b9699959850939650602001949392505050565b60008060006060848603121561293157600080fd5b833592506020840135612943816126e0565b91506040840135612953816126e0565b809150509250925092565b600080600080600080600060e0888a03121561297957600080fd5b8735612984816126e0565b96506020880135612994816126e0565b95506040880135945060608801359350608088013560ff811681146129b857600080fd5b9699959850939692959460a0840135945060c09093013592915050565b600080604083850312156129e857600080fd5b82356129f3816126e0565b91506020830135612a03816126e0565b809150509250929050565b600060208284031215612a2057600080fd5b5051919050565b634e487b7160e01b600052601160045260246000fd5b8082018082111561098e5761098e612a27565b600181811c90821680612a6457607f821691505b6020821081036123ea57634e487b7160e01b600052602260045260246000fd5b634e487b7160e01b600052603260045260246000fd5b600060018201612aac57612aac612a27565b5060010190565b803565ffffffffffff81168114612ac957600080fd5b919050565b81835281816020850137506000828201602090810191909152601f909101601f19169091010190565b60006101006001600160a01b0380881684528635612b14816126e0565b8181166020860152506020870135612b2b816126e0565b818116604086015250612b4060408801612ab3565b65ffffffffffff808216606087015280612b5c60608b01612ab3565b16608087015250506080870135612b72816126e0565b81811660a0860152505060a086013560c08401528060e0840152612b998184018587612ace565b979650505050505050565b8181038181111561098e5761098e612a27565b600060208284031215612bc957600080fd5b8151612712816126e0565b634e487b7160e01b600052604160045260246000fd5b604051601f8201601f1916810167ffffffffffffffff81118282101715612c1357612c13612bd4565b604052919050565b600067ffffffffffffffff821115612c3557612c35612bd4565b5060051b60200190565b600082601f830112612c5057600080fd5b81516020612c65612c6083612c1b565b612bea565b82815260059290921b84018101918181019086841115612c8457600080fd5b8286015b84811015612c9f5780518352918301918301612c88565b509695505050505050565b60008060408385031215612cbd57600080fd5b825167ffffffffffffffff80821115612cd557600080fd5b818501915085601f830112612ce957600080fd5b81516020612cf9612c6083612c1b565b82815260059290921b84018101918181019089841115612d1857600080fd5b948201945b83861015612d3f578551612d30816126e0565b82529482019490820190612d1d565b91880151919650909350505080821115612d5857600080fd5b50612d6585828601612c3f565b9150509250929050565b60008060408385031215612d8257600080fd5b50508051602090910151909290915056fea2646970667358221220ffc803e0a34b5609dd02d040c52e110aa0aa8c8d027aebd7137eb031829e333064736f6c63430008110033",
  "linkReferences": {},
  "deployedLinkReferences": {}
}