{
  "_format": "hh-sol-artifact-1",
  "contractName": "CygnusCollateralVoid",
  "sourceName": "contracts/cygnus-core/CygnusCollateralVoid.sol",
  "abi": [
    {
      "inputs": [],
      "stateMutability": "nonpayable",
      "type": "constructor"
    },
    {
      "inputs": [
        {
          "internalType": "address",
          "name": "sender",
          "type": "address"
        },
        {
          "internalType": "address",
          "name": "origin",
          "type": "address"
        }
      ],
      "name": "CygnusCollateralChef__OnlyEOAAllowed",
      "type": "error"
    },
    {
      "inputs": [
        {
          "internalType": "address",
          "name": "tokenReward",
          "type": "address"
        }
      ],
      "name": "CygnusCollateralChef__VoidAlreadyInitialized",
      "type": "error"
    },
    {
      "inputs": [
        {
          "internalType": "uint256",
          "name": "min",
          "type": "uint256"
        },
        {
          "internalType": "uint256",
          "name": "max",
          "type": "uint256"
        },
        {
          "internalType": "uint256",
          "name": "value",
          "type": "uint256"
        }
      ],
      "name": "CygnusCollateralControl__ParameterNotInRange",
      "type": "error"
    },
    {
      "inputs": [],
      "name": "CygnusTerminal__CantMintZeroShares",
      "type": "error"
    },
    {
      "inputs": [],
      "name": "CygnusTerminal__CantRedeemZeroAssets",
      "type": "error"
    },
    {
      "inputs": [
        {
          "internalType": "address",
          "name": "token",
          "type": "address"
        },
        {
          "internalType": "address",
          "name": "underlying",
          "type": "address"
        }
      ],
      "name": "CygnusTerminal__CantSweepUnderlying",
      "type": "error"
    },
    {
      "inputs": [
        {
          "internalType": "address",
          "name": "sender",
          "type": "address"
        },
        {
          "internalType": "address",
          "name": "factoryAdmin",
          "type": "address"
        }
      ],
      "name": "CygnusTerminal__MsgSenderNotAdmin",
      "type": "error"
    },
    {
      "inputs": [
        {
          "internalType": "uint256",
          "name": "assets",
          "type": "uint256"
        },
        {
          "internalType": "uint256",
          "name": "totalBalance",
          "type": "uint256"
        }
      ],
      "name": "CygnusTerminal__RedeemAmountInvalid",
      "type": "error"
    },
    {
      "inputs": [],
      "name": "ERC20__ApproveOwnerZeroAddress",
      "type": "error"
    },
    {
      "inputs": [],
      "name": "ERC20__ApproveSpenderZeroAddress",
      "type": "error"
    },
    {
      "inputs": [
        {
          "internalType": "uint256",
          "name": "accountBalance",
          "type": "uint256"
        },
        {
          "internalType": "uint256",
          "name": "burnAmount",
          "type": "uint256"
        }
      ],
      "name": "ERC20__BurnUnderflow",
      "type": "error"
    },
    {
      "inputs": [],
      "name": "ERC20__BurnZeroAddress",
      "type": "error"
    },
    {
      "inputs": [
        {
          "internalType": "uint256",
          "name": "allowance",
          "type": "uint256"
        },
        {
          "internalType": "uint256",
          "name": "amount",
          "type": "uint256"
        }
      ],
      "name": "ERC20__InsufficientAllowance",
      "type": "error"
    },
    {
      "inputs": [
        {
          "internalType": "uint256",
          "name": "senderBalance",
          "type": "uint256"
        },
        {
          "internalType": "uint256",
          "name": "amount",
          "type": "uint256"
        }
      ],
      "name": "ERC20__InsufficientBalance",
      "type": "error"
    },
    {
      "inputs": [],
      "name": "ERC20__MintZeroAddress",
      "type": "error"
    },
    {
      "inputs": [],
      "name": "ERC20__TransferRecipientZeroAddress",
      "type": "error"
    },
    {
      "inputs": [],
      "name": "ERC20__TransferSenderZeroAddress",
      "type": "error"
    },
    {
      "inputs": [
        {
          "internalType": "uint256",
          "name": "prod1",
          "type": "uint256"
        }
      ],
      "name": "PRBMath__MulDivFixedPointOverflow",
      "type": "error"
    },
    {
      "inputs": [
        {
          "internalType": "uint256",
          "name": "prod1",
          "type": "uint256"
        },
        {
          "internalType": "uint256",
          "name": "denominator",
          "type": "uint256"
        }
      ],
      "name": "PRBMath__MulDivOverflow",
      "type": "error"
    },
    {
      "inputs": [],
      "name": "ReentrantCall",
      "type": "error"
    },
    {
      "anonymous": false,
      "inputs": [
        {
          "indexed": true,
          "internalType": "address",
          "name": "owner",
          "type": "address"
        },
        {
          "indexed": true,
          "internalType": "address",
          "name": "spender",
          "type": "address"
        },
        {
          "indexed": false,
          "internalType": "uint256",
          "name": "amount",
          "type": "uint256"
        }
      ],
      "name": "Approval",
      "type": "event"
    },
    {
      "anonymous": false,
      "inputs": [
        {
          "indexed": false,
          "internalType": "contract IDexRouter02",
          "name": "_dexRouter",
          "type": "address"
        },
        {
          "indexed": false,
          "internalType": "contract IMiniChef",
          "name": "_rewarder",
          "type": "address"
        },
        {
          "indexed": false,
          "internalType": "address",
          "name": "_rewardsToken",
          "type": "address"
        },
        {
          "indexed": false,
          "internalType": "uint256",
          "name": "_pid",
          "type": "uint256"
        }
      ],
      "name": "ChargeVoid",
      "type": "event"
    },
    {
      "anonymous": false,
      "inputs": [
        {
          "indexed": true,
          "internalType": "address",
          "name": "sender",
          "type": "address"
        },
        {
          "indexed": true,
          "internalType": "address",
          "name": "recipient",
          "type": "address"
        },
        {
          "indexed": false,
          "internalType": "uint256",
          "name": "assets",
          "type": "uint256"
        },
        {
          "indexed": false,
          "internalType": "uint256",
          "name": "shares",
          "type": "uint256"
        }
      ],
      "name": "Deposit",
      "type": "event"
    },
    {
      "anonymous": false,
      "inputs": [
        {
          "indexed": false,
          "internalType": "uint256",
          "name": "oldDebtRatio",
          "type": "uint256"
        },
        {
          "indexed": false,
          "internalType": "uint256",
          "name": "newDebtRatio",
          "type": "uint256"
        }
      ],
      "name": "NewDebtRatio",
      "type": "event"
    },
    {
      "anonymous": false,
      "inputs": [
        {
          "indexed": false,
          "internalType": "uint256",
          "name": "oldLiquidationFee",
          "type": "uint256"
        },
        {
          "indexed": false,
          "internalType": "uint256",
          "name": "newLiquidationFee",
          "type": "uint256"
        }
      ],
      "name": "NewLiquidationFee",
      "type": "event"
    },
    {
      "anonymous": false,
      "inputs": [
        {
          "indexed": false,
          "internalType": "uint256",
          "name": "oldLiquidationIncentive",
          "type": "uint256"
        },
        {
          "indexed": false,
          "internalType": "uint256",
          "name": "newLiquidationIncentive",
          "type": "uint256"
        }
      ],
      "name": "NewLiquidationIncentive",
      "type": "event"
    },
    {
      "anonymous": false,
      "inputs": [
        {
          "indexed": true,
          "internalType": "address",
          "name": "shuttle",
          "type": "address"
        },
        {
          "indexed": false,
          "internalType": "address",
          "name": "reinvestor",
          "type": "address"
        },
        {
          "indexed": false,
          "internalType": "uint256",
          "name": "rewardBalance",
          "type": "uint256"
        },
        {
          "indexed": false,
          "internalType": "uint256",
          "name": "reinvestReward",
          "type": "uint256"
        },
        {
          "indexed": false,
          "internalType": "uint256",
          "name": "daoReward",
          "type": "uint256"
        }
      ],
      "name": "RechargeVoid",
      "type": "event"
    },
    {
      "anonymous": false,
      "inputs": [
        {
          "indexed": false,
          "internalType": "uint256",
          "name": "totalBalance",
          "type": "uint256"
        }
      ],
      "name": "Sync",
      "type": "event"
    },
    {
      "anonymous": false,
      "inputs": [
        {
          "indexed": true,
          "internalType": "address",
          "name": "from",
          "type": "address"
        },
        {
          "indexed": true,
          "internalType": "address",
          "name": "to",
          "type": "address"
        },
        {
          "indexed": false,
          "internalType": "uint256",
          "name": "amount",
          "type": "uint256"
        }
      ],
      "name": "Transfer",
      "type": "event"
    },
    {
      "anonymous": false,
      "inputs": [
        {
          "indexed": true,
          "internalType": "address",
          "name": "sender",
          "type": "address"
        },
        {
          "indexed": true,
          "internalType": "address",
          "name": "recipient",
          "type": "address"
        },
        {
          "indexed": true,
          "internalType": "address",
          "name": "owner",
          "type": "address"
        },
        {
          "indexed": false,
          "internalType": "uint256",
          "name": "assets",
          "type": "uint256"
        },
        {
          "indexed": false,
          "internalType": "uint256",
          "name": "shares",
          "type": "uint256"
        }
      ],
      "name": "Withdraw",
      "type": "event"
    },
    {
      "inputs": [],
      "name": "DAO_REWARD",
      "outputs": [
        {
          "internalType": "uint256",
          "name": "",
          "type": "uint256"
        }
      ],
      "stateMutability": "view",
      "type": "function"
    },
    {
      "inputs": [],
      "name": "REINVEST_REWARD",
      "outputs": [
        {
          "internalType": "uint256",
          "name": "",
          "type": "uint256"
        }
      ],
      "stateMutability": "view",
      "type": "function"
    },
    {
      "inputs": [
        {
          "internalType": "address",
          "name": "owner",
          "type": "address"
        },
        {
          "internalType": "address",
          "name": "spender",
          "type": "address"
        }
      ],
      "name": "allowance",
      "outputs": [
        {
          "internalType": "uint256",
          "name": "",
          "type": "uint256"
        }
      ],
      "stateMutability": "view",
      "type": "function"
    },
    {
      "inputs": [
        {
          "internalType": "address",
          "name": "spender",
          "type": "address"
        },
        {
          "internalType": "uint256",
          "name": "amount",
          "type": "uint256"
        }
      ],
      "name": "approve",
      "outputs": [
        {
          "internalType": "bool",
          "name": "",
          "type": "bool"
        }
      ],
      "stateMutability": "nonpayable",
      "type": "function"
    },
    {
      "inputs": [
        {
          "internalType": "address",
          "name": "account",
          "type": "address"
        }
      ],
      "name": "balanceOf",
      "outputs": [
        {
          "internalType": "uint256",
          "name": "",
          "type": "uint256"
        }
      ],
      "stateMutability": "view",
      "type": "function"
    },
    {
      "inputs": [],
      "name": "borrowable",
      "outputs": [
        {
          "internalType": "address",
          "name": "",
          "type": "address"
        }
      ],
      "stateMutability": "view",
      "type": "function"
    },
    {
      "inputs": [
        {
          "internalType": "contract IDexRouter02",
          "name": "dexRouterVoid",
          "type": "address"
        },
        {
          "internalType": "contract IMiniChef",
          "name": "rewarderVoid",
          "type": "address"
        },
        {
          "internalType": "address",
          "name": "rewardsTokenVoid",
          "type": "address"
        },
        {
          "internalType": "uint256",
          "name": "pidVoid",
          "type": "uint256"
        }
      ],
      "name": "chargeVoid",
      "outputs": [],
      "stateMutability": "nonpayable",
      "type": "function"
    },
    {
      "inputs": [],
      "name": "cygnusNebulaOracle",
      "outputs": [
        {
          "internalType": "contract IChainlinkNebulaOracle",
          "name": "",
          "type": "address"
        }
      ],
      "stateMutability": "view",
      "type": "function"
    },
    {
      "inputs": [],
      "name": "debtRatio",
      "outputs": [
        {
          "internalType": "uint256",
          "name": "",
          "type": "uint256"
        }
      ],
      "stateMutability": "view",
      "type": "function"
    },
    {
      "inputs": [],
      "name": "decimals",
      "outputs": [
        {
          "internalType": "uint8",
          "name": "",
          "type": "uint8"
        }
      ],
      "stateMutability": "view",
      "type": "function"
    },
    {
      "inputs": [
        {
          "internalType": "uint256",
          "name": "assets",
          "type": "uint256"
        },
        {
          "internalType": "address",
          "name": "recipient",
          "type": "address"
        }
      ],
      "name": "deposit",
      "outputs": [
        {
          "internalType": "uint256",
          "name": "shares",
          "type": "uint256"
        }
      ],
      "stateMutability": "nonpayable",
      "type": "function"
    },
    {
      "inputs": [],
      "name": "exchangeRate",
      "outputs": [
        {
          "internalType": "uint256",
          "name": "",
          "type": "uint256"
        }
      ],
      "stateMutability": "view",
      "type": "function"
    },
    {
      "inputs": [],
      "name": "getCygnusVoid",
      "outputs": [
        {
          "internalType": "contract IMiniChef",
          "name": "",
          "type": "address"
        },
        {
          "internalType": "contract IDexRouter02",
          "name": "",
          "type": "address"
        },
        {
          "internalType": "address",
          "name": "",
          "type": "address"
        },
        {
          "internalType": "uint256",
          "name": "",
          "type": "uint256"
        }
      ],
      "stateMutability": "view",
      "type": "function"
    },
    {
      "inputs": [],
      "name": "hangar18",
      "outputs": [
        {
          "internalType": "address",
          "name": "",
          "type": "address"
        }
      ],
      "stateMutability": "view",
      "type": "function"
    },
    {
      "inputs": [],
      "name": "liquidationFee",
      "outputs": [
        {
          "internalType": "uint256",
          "name": "",
          "type": "uint256"
        }
      ],
      "stateMutability": "view",
      "type": "function"
    },
    {
      "inputs": [],
      "name": "liquidationIncentive",
      "outputs": [
        {
          "internalType": "uint256",
          "name": "",
          "type": "uint256"
        }
      ],
      "stateMutability": "view",
      "type": "function"
    },
    {
      "inputs": [],
      "name": "name",
      "outputs": [
        {
          "internalType": "string",
          "name": "",
          "type": "string"
        }
      ],
      "stateMutability": "view",
      "type": "function"
    },
    {
      "inputs": [],
      "name": "orbiterName",
      "outputs": [
        {
          "internalType": "string",
          "name": "",
          "type": "string"
        }
      ],
      "stateMutability": "view",
      "type": "function"
    },
    {
      "inputs": [
        {
          "internalType": "uint256",
          "name": "shares",
          "type": "uint256"
        },
        {
          "internalType": "address",
          "name": "recipient",
          "type": "address"
        },
        {
          "internalType": "address",
          "name": "owner",
          "type": "address"
        }
      ],
      "name": "redeem",
      "outputs": [
        {
          "internalType": "uint256",
          "name": "assets",
          "type": "uint256"
        }
      ],
      "stateMutability": "nonpayable",
      "type": "function"
    },
    {
      "inputs": [],
      "name": "reinvestRewards_y7b",
      "outputs": [],
      "stateMutability": "nonpayable",
      "type": "function"
    },
    {
      "inputs": [
        {
          "internalType": "uint256",
          "name": "newDebtRatio",
          "type": "uint256"
        }
      ],
      "name": "setDebtRatio",
      "outputs": [],
      "stateMutability": "nonpayable",
      "type": "function"
    },
    {
      "inputs": [
        {
          "internalType": "uint256",
          "name": "newLiquidationFee",
          "type": "uint256"
        }
      ],
      "name": "setLiquidationFee",
      "outputs": [],
      "stateMutability": "nonpayable",
      "type": "function"
    },
    {
      "inputs": [
        {
          "internalType": "uint256",
          "name": "newLiquidationIncentive",
          "type": "uint256"
        }
      ],
      "name": "setLiquidationIncentive",
      "outputs": [],
      "stateMutability": "nonpayable",
      "type": "function"
    },
    {
      "inputs": [],
      "name": "shuttleId",
      "outputs": [
        {
          "internalType": "uint256",
          "name": "",
          "type": "uint256"
        }
      ],
      "stateMutability": "view",
      "type": "function"
    },
    {
      "inputs": [
        {
          "internalType": "address",
          "name": "token",
          "type": "address"
        }
      ],
      "name": "sweepToken",
      "outputs": [],
      "stateMutability": "nonpayable",
      "type": "function"
    },
    {
      "inputs": [],
      "name": "symbol",
      "outputs": [
        {
          "internalType": "string",
          "name": "",
          "type": "string"
        }
      ],
      "stateMutability": "view",
      "type": "function"
    },
    {
      "inputs": [],
      "name": "totalBalance",
      "outputs": [
        {
          "internalType": "uint256",
          "name": "",
          "type": "uint256"
        }
      ],
      "stateMutability": "view",
      "type": "function"
    },
    {
      "inputs": [],
      "name": "totalSupply",
      "outputs": [
        {
          "internalType": "uint256",
          "name": "",
          "type": "uint256"
        }
      ],
      "stateMutability": "view",
      "type": "function"
    },
    {
      "inputs": [
        {
          "internalType": "address",
          "name": "recipient",
          "type": "address"
        },
        {
          "internalType": "uint256",
          "name": "amount",
          "type": "uint256"
        }
      ],
      "name": "transfer",
      "outputs": [
        {
          "internalType": "bool",
          "name": "",
          "type": "bool"
        }
      ],
      "stateMutability": "nonpayable",
      "type": "function"
    },
    {
      "inputs": [
        {
          "internalType": "address",
          "name": "sender",
          "type": "address"
        },
        {
          "internalType": "address",
          "name": "recipient",
          "type": "address"
        },
        {
          "internalType": "uint256",
          "name": "amount",
          "type": "uint256"
        }
      ],
      "name": "transferFrom",
      "outputs": [
        {
          "internalType": "bool",
          "name": "",
          "type": "bool"
        }
      ],
      "stateMutability": "nonpayable",
      "type": "function"
    },
    {
      "inputs": [],
      "name": "underlying",
      "outputs": [
        {
          "internalType": "address",
          "name": "",
          "type": "address"
        }
      ],
      "stateMutability": "view",
      "type": "function"
    },
    {
      "stateMutability": "payable",
      "type": "receive"
    }
  ],
  "bytecode": "0x6101a0604052670d2f13f7789f0000600855670e398811bec680006009553480156200002a57600080fd5b5060408051808201825260128082527110de59db9d5cce8810dbdb1b185d195c985b60721b602080840191825284519081019094526000808552805460ff1916600190811790915583519394938592859285926200008992906200067a565b5081516200009f9060029060208501906200067a565b5060f81b7fff000000000000000000000000000000000000000000000000000000000000001660805250600090508080620000d73390565b6001600160a01b031663c3bc64ea6040518163ffffffff1660e01b8152600401608060405180830381600087803b1580156200011257600080fd5b505af192505050801562000145575060408051601f3d908101601f19168201909252620001429181019062000746565b60015b620001d457336001600160a01b0316639a9862366040518163ffffffff1660e01b815260040160c060405180830381600087803b1580156200018657600080fd5b505af11580156200019b573d6000803e3d6000fd5b505050506040513d601f19601f82011682018060405250810190620001c191906200079f565b50939650919450909250620001df915050565b929550909350909150505b6001600160601b0319606093841b811660a0529190921b1660e05260c05250600091506200020c90503390565b6001600160a01b031663c3bc64ea6040518163ffffffff1660e01b8152600401608060405180830381600087803b1580156200024757600080fd5b505af11580156200025c573d6000803e3d6000fd5b505050506040513d601f19601f8201168201806040525081019062000282919062000746565b90915050806001600160a01b0316610100906001600160a01b031660601b8152508192505050806001600160a01b031663d935bd926040518163ffffffff1660e01b815260040160206040518083038186803b158015620002e257600080fd5b505afa158015620002f7573d6000803e3d6000fd5b505050506040513d601f19601f820116820180604052508101906200031d919062000720565b60601b6001600160601b031916610120525060006003819055806200033f3390565b6001600160a01b031663c3bc64ea6040518163ffffffff1660e01b8152600401608060405180830381600087803b1580156200037a57600080fd5b505af11580156200038f573d6000803e3d6000fd5b505050506040513d601f19601f82011682018060405250810190620003b5919062000746565b5050915091506000816001600160a01b0316630dfe16816040518163ffffffff1660e01b815260040160206040518083038186803b158015620003f757600080fd5b505afa1580156200040c573d6000803e3d6000fd5b505050506040513d601f19601f8201168201806040525081019062000432919062000720565b90506000826001600160a01b031663d21220a76040518163ffffffff1660e01b815260040160206040518083038186803b1580156200047057600080fd5b505afa15801562000485573d6000803e3d6000fd5b505050506040513d601f19601f82011682018060405250810190620004ab919062000720565b9050816001600160a01b03166395d89b416040518163ffffffff1660e01b815260040160006040518083038186803b158015620004e757600080fd5b505afa158015620004fc573d6000803e3d6000fd5b505050506040513d6000823e601f3d908101601f191682016040526200052691908101906200080e565b816001600160a01b03166395d89b416040518163ffffffff1660e01b815260040160006040518083038186803b1580156200056057600080fd5b505afa15801562000575573d6000803e3d6000fd5b505050506040513d6000823e601f3d908101601f191682016040526200059f91908101906200080e565b604051602001620005b2929190620008c2565b60405160208183030381529060405260029080519060200190620005d89291906200067a565b50836001600160a01b031663e1758bd86040518163ffffffff1660e01b815260040160206040518083038186803b1580156200061357600080fd5b505afa15801562000628573d6000803e3d6000fd5b505050506040513d601f19601f820116820180604052508101906200064e919062000720565b6001600160601b0319606091821b81166101405292811b8316610160521b166101805250620009b39050565b828054620006889062000947565b90600052602060002090601f016020900481019282620006ac5760008555620006f7565b82601f10620006c757805160ff1916838001178555620006f7565b82800160010185558215620006f7579182015b82811115620006f7578251825591602001919060010190620006da565b506200070592915062000709565b5090565b5b808211156200070557600081556001016200070a565b60006020828403121562000732578081fd5b81516200073f816200099a565b9392505050565b600080600080608085870312156200075c578283fd5b845162000769816200099a565b60208601519094506200077c816200099a565b60408601519093506200078f816200099a565b6060959095015193969295505050565b60008060008060008060c08789031215620007b8578182fd5b8651620007c5816200099a565b6020880151909650620007d8816200099a565b6040880151909550620007eb816200099a565b80945050606087015192506080870151915060a087015190509295509295509295565b60006020828403121562000820578081fd5b81516001600160401b038082111562000837578283fd5b818401915084601f8301126200084b578283fd5b81518181111562000860576200086062000984565b604051601f8201601f19908116603f011681019083821181831017156200088b576200088b62000984565b81604052828152876020848701011115620008a4578586fd5b620008b783602083016020880162000914565b979650505050505050565b65021bcb3a628160d51b815260008351620008e581600685016020880162000914565b602f60f81b60069184019182015283516200090881600784016020880162000914565b01600701949350505050565b60005b838110156200093157818101518382015260200162000917565b8381111562000941576000848401525b50505050565b600181811c908216806200095c57607f821691505b602082108114156200097e57634e487b7160e01b600052602260045260246000fd5b50919050565b634e487b7160e01b600052604160045260246000fd5b6001600160a01b0381168114620009b057600080fd5b50565b60805160f81c60a05160601c60c05160e05160601c6101005160601c6101205160601c6101405160601c6101605160601c6101805160601c612d9162000b236000396000818161089e015281816109090152818161097101528181610a6101528181610aeb0152610bc4015260008181610866015281816108d60152818161092a0152818161095001528181610a0601528181610abc01528181610b0c01528181610b5601528181610ba10152610cae0152600081816101e1015281816109ad015281816109dc01528181610a3701528181610a9201528181610b3501528181610b7a015281816111de0152611954015260006105fd015260006106c00152600081816104ae01528181610bf601528181610eff01528181610f5601528181611192015281816112d40152818161155901528181611c3d01528181611c710152611cab0152600061043a01526000818161068c015281816107b30152611eb0015260006103c40152612d916000f3fe6080604052600436106101da5760003560e01c806370a0823111610102578063cea55f5711610095578063e8a24e1d11610064578063e8a24e1d1461067a578063e99a6ac7146106ae578063eb6a887d146106e2578063fef0bec81461070257600080fd5b8063cea55f57146105d5578063d935bd92146105eb578063da7a2f741461061f578063dd62ed3e1461063457600080fd5b8063a8431081116100d1578063a84310811461055f578063a9059cbb1461057f578063ad7a672f1461059f578063ba087652146105b557600080fd5b806370a08231146104e85780638c765e941461051e57806395d89b4114610534578063a36a36301461054957600080fd5b806323b872dd1161017a5780635f77f891116101495780635f77f8911461042857806361a2ff341461045c5780636e553f651461047c5780636f307dc31461049c57600080fd5b806323b872dd14610392578063313ce567146103b25780633ba0b9a9146103f857806359b0bc2a1461040d57600080fd5b806318160ddd116101b657806318160ddd146102cc5780631995bc1a146102f05780631be19560146103575780631c1981881461037757600080fd5b8061e18a1461025a57806306fdde0314610271578063095ea7b31461029c57600080fd5b36610255577f00000000000000000000000000000000000000000000000000000000000000006001600160a01b031663d0e30db0346040518263ffffffff1660e01b81526004016000604051808303818588803b15801561023a57600080fd5b505af115801561024e573d6000803e3d6000fd5b5050505050005b600080fd5b34801561026657600080fd5b5061026f610722565b005b34801561027d57600080fd5b50610286610e23565b6040516102939190612bae565b60405180910390f35b3480156102a857600080fd5b506102bc6102b73660046128a9565b610eb1565b6040519015158152602001610293565b3480156102d857600080fd5b506102e260035481565b604051908152602001610293565b3480156102fc57600080fd5b50610322600d54600c54600b54600e546001600160a01b03938416949284169390911691565b60405161029394939291906001600160a01b039485168152928416602084015292166040820152606081019190915260800190565b34801561036357600080fd5b5061026f6103723660046127f9565b610ec8565b34801561038357600080fd5b506102e266470de4df82000081565b34801561039e57600080fd5b506102bc6103ad366004612869565b611031565b3480156103be57600080fd5b506103e67f000000000000000000000000000000000000000000000000000000000000000081565b60405160ff9091168152602001610293565b34801561040457600080fd5b506102e26110a7565b34801561041957600080fd5b506102e2662386f26fc1000081565b34801561043457600080fd5b506102e27f000000000000000000000000000000000000000000000000000000000000000081565b34801561046857600080fd5b5061026f610477366004612a64565b6110d5565b34801561048857600080fd5b506102e2610497366004612b26565b61126c565b3480156104a857600080fd5b506104d07f000000000000000000000000000000000000000000000000000000000000000081565b6040516001600160a01b039091168152602001610293565b3480156104f457600080fd5b506102e26105033660046127f9565b6001600160a01b031660009081526004602052604090205490565b34801561052a57600080fd5b506102e260095481565b34801561054057600080fd5b50610286611379565b34801561055557600080fd5b506102e2600a5481565b34801561056b57600080fd5b5061026f61057a366004612af6565b611386565b34801561058b57600080fd5b506102bc61059a3660046128a9565b611429565b3480156105ab57600080fd5b506102e260065481565b3480156105c157600080fd5b506102e26105d0366004612b4a565b611436565b3480156105e157600080fd5b506102e260085481565b3480156105f757600080fd5b506104d07f000000000000000000000000000000000000000000000000000000000000000081565b34801561062b57600080fd5b50610286611602565b34801561064057600080fd5b506102e261064f366004612831565b6001600160a01b03918216600090815260056020908152604080832093909416825291909152205490565b34801561068657600080fd5b506104d07f000000000000000000000000000000000000000000000000000000000000000081565b3480156106ba57600080fd5b506104d07f000000000000000000000000000000000000000000000000000000000000000081565b3480156106ee57600080fd5b5061026f6106fd366004612af6565b61160f565b34801561070e57600080fd5b5061026f61071d366004612af6565b61169d565b60005460ff16610745576040516306fda65d60e31b815260040160405180910390fd5b6000805460ff19169055610757611724565b600061076161174e565b90508061076e5750610e0c565b60006107818266470de4df8200006119ba565b905061079a33600b546001600160a01b031690836119c6565b60006107ad83662386f26fc100006119ba565b905060007f00000000000000000000000000000000000000000000000000000000000000006001600160a01b0316635b068af86040518163ffffffff1660e01b815260040160206040518083038186803b15801561080a57600080fd5b505afa15801561081e573d6000803e3d6000fd5b505050506040513d601f19601f820116820180604052508101906108429190612815565b600b5490915061085c906001600160a01b031682846119c6565b600b5460009081907f00000000000000000000000000000000000000000000000000000000000000006001600160a01b03908116911614806108cc5750600b547f00000000000000000000000000000000000000000000000000000000000000006001600160a01b039081169116145b1561099b57600b547f00000000000000000000000000000000000000000000000000000000000000006001600160a01b0390811691161461094e577f00000000000000000000000000000000000000000000000000000000000000007f0000000000000000000000000000000000000000000000000000000000000000610991565b7f00000000000000000000000000000000000000000000000000000000000000007f00000000000000000000000000000000000000000000000000000000000000005b9092509050610be4565b600b546109da906001600160a01b03167f00000000000000000000000000000000000000000000000000000000000000006109d582611a0a565b611a84565b7f00000000000000000000000000000000000000000000000000000000000000006001600160a01b03167f00000000000000000000000000000000000000000000000000000000000000006001600160a01b03161480610a8b57507f00000000000000000000000000000000000000000000000000000000000000006001600160a01b03167f00000000000000000000000000000000000000000000000000000000000000006001600160a01b0316145b15610b30577f00000000000000000000000000000000000000000000000000000000000000006001600160a01b03167f00000000000000000000000000000000000000000000000000000000000000006001600160a01b03161461094e577f00000000000000000000000000000000000000000000000000000000000000007f0000000000000000000000000000000000000000000000000000000000000000610991565b610b9e7f00000000000000000000000000000000000000000000000000000000000000007f00000000000000000000000000000000000000000000000000000000000000006109d57f0000000000000000000000000000000000000000000000000000000000000000611a0a565b507f000000000000000000000000000000000000000000000000000000000000000090507f00000000000000000000000000000000000000000000000000000000000000005b6000610bef83611a0a565b90506000807f00000000000000000000000000000000000000000000000000000000000000006001600160a01b0316630902f1ac6040518163ffffffff1660e01b815260040160606040518083038186803b158015610c4d57600080fd5b505afa158015610c61573d6000803e3d6000fd5b505050506040513d601f19601f82011682018060405250810190610c859190612ab4565b506dffffffffffffffffffffffffffff1691506dffffffffffffffffffffffffffff16915060007f00000000000000000000000000000000000000000000000000000000000000006001600160a01b0316866001600160a01b031614610ceb5781610ced565b825b90506000610cfb8583611bb2565b9050610d08878783611a84565b6000610d278888610d19858a612cc8565b610d228b611a0a565b611c2c565b600d54600e54604051631c57762b60e31b81526004810191909152602481018390529192506001600160a01b03169063e2bbb15890604401600060405180830381600087803b158015610d7957600080fd5b505af1158015610d8d573d6000803e3d6000fd5b50505050306001600160a01b03167f7939504e0d173f269dabb97feceec8ad244dcdb64e12dd74ce21a2841e4f4b11610dc33390565b8e8e8e604051610df794939291906001600160a01b0394909416845260208401929092526040830152606082015260800190565b60405180910390a25050505050505050505050505b610e14611d38565b6000805460ff19166001179055565b60018054610e3090612cdf565b80601f0160208091040260200160405190810160405280929190818152602001828054610e5c90612cdf565b8015610ea95780601f10610e7e57610100808354040283529160200191610ea9565b820191906000526020600020905b815481529060010190602001808311610e8c57829003601f168201915b505050505081565b6000610ebe338484611dfd565b5060015b92915050565b60005460ff16610eeb576040516306fda65d60e31b815260040160405180910390fd5b6000805460ff19169055610efd611eac565b7f00000000000000000000000000000000000000000000000000000000000000006001600160a01b0316816001600160a01b03161415610f88576040516303b91a9160e31b81526001600160a01b0380831660048301527f00000000000000000000000000000000000000000000000000000000000000001660248201526044015b60405180910390fd5b6040516370a0823160e01b81523060048201526000906001600160a01b038316906370a082319060240160206040518083038186803b158015610fca57600080fd5b505afa158015610fde573d6000803e3d6000fd5b505050506040513d601f19601f820116820180604052508101906110029190612b0e565b90506110186001600160a01b03831633836119c6565b50611021611d38565b506000805460ff19166001179055565b600061103e848484611f7e565b6001600160a01b03841660009081526005602090815260408083203384529091529020548281101561108d576040516310c6013560e31b81526004810182905260248101849052604401610f7f565b61109a8533858403611dfd565b60019150505b9392505050565b60035460009080156110c5576006546110c090826120a1565b6110cf565b670de0b6b3a76400005b91505090565b60005460ff166110f8576040516306fda65d60e31b815260040160405180910390fd5b6000805460ff1916905561110a611eac565b600b546001600160a01b03161561113f576040516327d04a1160e01b81526001600160a01b0383166004820152602401610f7f565b600c80546001600160a01b0380871673ffffffffffffffffffffffffffffffffffffffff1992831617909255600d8054868416908316179055600e839055600b805485841692169190911790556111bb907f000000000000000000000000000000000000000000000000000000000000000016846000196120b6565b6111d16001600160a01b038316856000196120b6565b6112076001600160a01b037f000000000000000000000000000000000000000000000000000000000000000016856000196120b6565b604080516001600160a01b03868116825285811660208301528416818301526060810183905290517fe234c6c9454cb0f87bb2181442b710c70556afa8f1a5033e2e1553ec18f3603c9181900360800190a150506000805460ff191660011790555050565b6000805460ff16611290576040516306fda65d60e31b815260040160405180910390fd5b6000805460ff191690556112ac6112a56110a7565b84906120a1565b9050600081116112cf5760405163f1ca48b160e01b815260040160405180910390fd5b6113047f00000000000000000000000000000000000000000000000000000000000000006001600160a01b03163330866120f2565b61130e8282612140565b61131883826121f3565b60408051848152602081018390526001600160a01b0384169133917fdcbc1c05240f31ff3ad067ef1ee35ce4997762752e3a095284754544f4c709d7910160405180910390a3611366611d38565b6000805460ff1916600117905592915050565b60028054610e3090612cdf565b60005460ff166113a9576040516306fda65d60e31b815260040160405180910390fd5b6000805460ff191690556113bb611eac565b6113d6670de0b6b3a7640000670f43fc2c04ee000083612265565b600980549082905560408051828152602081018490527faeba5a6c40a8ac138134bff1aaa65debf25971188a58804bad717f82f0ec131691015b60405180910390a150506000805460ff19166001179055565b6000610ebe338484611f7e565b6000805460ff1661145a576040516306fda65d60e31b815260040160405180910390fd5b6000805460ff19169055336001600160a01b038316146114d2576001600160a01b038216600090815260056020908152604080832033845290915290205460001981146114d0576114ab8582612cc8565b6001600160a01b03841660009081526005602090815260408083203384529091529020555b505b6114e46114dd6110a7565b85906119ba565b9050600081116115075760405163e3e8d29760e01b815260040160405180910390fd5b600654811115611538576006546040516339eff09f60e11b8152610f7f918391600401918252602082015260400190565b61154281856122a5565b61154c82856122e1565b6115806001600160a01b037f00000000000000000000000000000000000000000000000000000000000000001684836119c6565b816001600160a01b0316836001600160a01b031661159b3390565b6001600160a01b03167ffbde797d201c681b91056529119e0b02407c7bb96a4a2c75c01fc9667232c8db84886040516115de929190918252602082015260400190565b60405180910390a46115ee611d38565b6000805460ff191660011790559392505050565b60078054610e3090612cdf565b60005460ff16611632576040516306fda65d60e31b815260040160405180910390fd5b6000805460ff19169055611644611eac565b61165f670b1a2bc2ec500000670de0b6b3a764000083612265565b600880549082905560408051828152602081018490527ff25d2243e4128e51523d8537f04f18c3e6390bbfc6323390a9a8e59b921ce0469101611410565b60005460ff166116c0576040516306fda65d60e31b815260040160405180910390fd5b6000805460ff191690556116d2611eac565b6116e6600067016345785d8a000083612265565b600a80549082905560408051828152602081018490527f87272249f1056ec16a68dd9255101358246dd26a796e2f0bc6b3a0ad02f2de419101611410565b33321461174c57604051631fec819f60e21b8152336004820152326024820152604401610f7f565b565b600d54600e54604051630441a3e760e41b81526004810191909152600060248201819052916001600160a01b03169063441a3e7090604401600060405180830381600087803b1580156117a057600080fd5b505af11580156117b4573d6000803e3d6000fd5b5050600d54600e54604051631526fe2760e01b81526004810191909152600093506001600160a01b039091169150631526fe27906024016101206040518083038186803b15801561180457600080fd5b505afa158015611818573d6000803e3d6000fd5b505050506040513d601f19601f8201168201806040525081019061183c91906128d4565b5050509550505050505060006001600160a01b0316816001600160a01b0316146119a5576000816001600160a01b03166373cfc6b26040518163ffffffff1660e01b815260040160206040518083038186803b15801561189b57600080fd5b505afa1580156118af573d6000803e3d6000fd5b505050506040513d601f19601f820116820180604052508101906118d39190612a44565b905060008161195257826001600160a01b031663f7c618c16040518163ffffffff1660e01b815260040160206040518083038186803b15801561191557600080fd5b505afa158015611929573d6000803e3d6000fd5b505050506040513d601f19601f8201168201806040525081019061194d9190612815565b611974565b7f00000000000000000000000000000000000000000000000000000000000000005b9050600061198182611a0a565b905080156119a157600b546119a19083906001600160a01b031683611a84565b5050505b600b546110cf906001600160a01b0316611a0a565b60006110a0838361238c565b60405163a9059cbb6000528260205281604052602060006044601c6000885af13d156001600051141716611a02576390b8ec186000526004601cfd5b604052505050565b6040516370a0823160e01b81523060048201526000906001600160a01b038316906370a082319060240160206040518083038186803b158015611a4c57600080fd5b505afa158015611a60573d6000803e3d6000fd5b505050506040513d601f19601f82011682018060405250810190610ec29190612b0e565b604080516002808252606082018352600092602083019080368337019050509050838382600081518110611ac857634e487b7160e01b600052603260045260246000fd5b6020026020010183600181518110611af057634e487b7160e01b600052603260045260246000fd5b6001600160a01b039384166020918202929092010152918116909152600c54611b1c918691168461244e565b600c546040516338ed173960e01b81526001600160a01b03909116906338ed173990611b55908590600090869030904290600401612c01565b600060405180830381600087803b158015611b6f57600080fd5b505af1158015611b83573d6000803e3d6000fd5b505050506040513d6000823e601f3d908101601f19168201604052611bab9190810190612984565b5050505050565b600080611bc1836107cd612ca9565b9050600083611bd2866103e8612ca9565b611bdc9190612ca9565b611be890610f94612ca9565b90506000611c0982611bfa8580612ca9565b611c049190612c71565b6124f0565b90506107ca611c188483612cc8565b611c229190612c89565b9695505050505050565b6000611c626001600160a01b0386167f0000000000000000000000000000000000000000000000000000000000000000856119c6565b611c966001600160a01b0385167f0000000000000000000000000000000000000000000000000000000000000000846119c6565b6040516335313c2160e11b81523060048201527f00000000000000000000000000000000000000000000000000000000000000006001600160a01b031690636a62784290602401602060405180830381600087803b158015611cf757600080fd5b505af1158015611d0b573d6000803e3d6000fd5b505050506040513d601f19601f82011682018060405250810190611d2f9190612b0e565b95945050505050565b600d54600e546040516393f1a40b60e01b815260048101919091523060248201526000916001600160a01b0316906393f1a40b90604401604080518083038186803b158015611d8657600080fd5b505afa158015611d9a573d6000803e3d6000fd5b505050506040513d601f19601f82011682018060405250810190611dbe9190612b8b565b5060068190556040518181529091507f8a0df8ef054fae2c3d2d19a7b322e864870cc9fd3cb07fb9526309c596244bf49060200160405180910390a150565b6001600160a01b038316611e24576040516317ba2d8b60e11b815260040160405180910390fd5b6001600160a01b038216611e4b57604051632cc8a69760e11b815260040160405180910390fd5b6001600160a01b0383811660008181526005602090815260408083209487168084529482529182902085905590518481527f8c5be1e5ebec7d5bd14f71427d1e84f3dd0314c0f7b2291e5b200ac8c7c3b925910160405180910390a3505050565b60007f00000000000000000000000000000000000000000000000000000000000000006001600160a01b031663f851a4406040518163ffffffff1660e01b815260040160206040518083038186803b158015611f0757600080fd5b505afa158015611f1b573d6000803e3d6000fd5b505050506040513d601f19601f82011682018060405250810190611f3f9190612815565b9050336001600160a01b03821614611f7b57604051633e7c764160e21b81523360048201526001600160a01b0382166024820152604401610f7f565b50565b6001600160a01b038316611fa55760405163618a6e7d60e11b815260040160405180910390fd5b6001600160a01b038216611fcc5760405163446ebce960e01b815260040160405180910390fd5b6001600160a01b038316600090815260046020526040902054818110156120105760405163355a868d60e01b81526004810182905260248101839052604401610f7f565b6001600160a01b03808516600090815260046020526040808220858503905591851681529081208054849290612047908490612c71565b92505081905550826001600160a01b0316846001600160a01b03167fddf252ad1be2c89b69c2b068fc378daa952ba7f163c4a11628f55a4df523b3ef8460405161209391815260200190565b60405180910390a350505050565b60006110a083670de0b6b3a7640000846126db565b60405163095ea7b36000528260205281604052602060006044601c6000885af13d156001600051141716611a0257633e3f8f736000526004601cfd5b6040516323b872dd600052836020528260405281606052602060006064601c6000895af13d15600160005114171661213257637939f4246000526004601cfd5b600060605260405250505050565b6001600160a01b0382166121675760405163237813dd60e01b815260040160405180910390fd5b6001600160a01b0382166000908152600460205260408120805483929061218f908490612c71565b9250508190555080600360008282546121a89190612c71565b90915550506040518181526001600160a01b038316906000907fddf252ad1be2c89b69c2b068fc378daa952ba7f163c4a11628f55a4df523b3ef906020015b60405180910390a35050565b600d54600e54604051631c57762b60e31b81526001600160a01b039092169163e2bbb1589161222f918690600401918252602082015260400190565b600060405180830381600087803b15801561224957600080fd5b505af115801561225d573d6000803e3d6000fd5b505050505050565b8281108061227257508181115b156122a05760405162ccc44d60e41b8152600481018490526024810183905260448101829052606401610f7f565b505050565b600d54600e54604051630441a3e760e41b81526001600160a01b039092169163441a3e709161222f918690600401918252602082015260400190565b6001600160a01b03821661230857604051630b5da42b60e01b815260040160405180910390fd5b6001600160a01b03821660009081526004602052604081208054839290612330908490612cc8565b9250508190555080600360008282546123499190612cc8565b90915550506040518181526000906001600160a01b038416907fddf252ad1be2c89b69c2b068fc378daa952ba7f163c4a11628f55a4df523b3ef906020016121e7565b60008080600019848609848602925082811083820303915050670de0b6b3a764000081106123d05760405163698d9a0160e11b815260048101829052602401610f7f565b600080670de0b6b3a76400008688099150506706f05b59d3b1ffff81118261240a5780670de0b6b3a7640000850401945050505050610ec2565b620400008285030493909111909103600160ee1b02919091177faccb18165bd6fe31ae1cf318dc5b51eee0e1ba569b88cd74c1773b91fac106690201905092915050565b604051636eb1769f60e11b81523060048201526001600160a01b03838116602483015282919085169063dd62ed3e9060440160206040518083038186803b15801561249857600080fd5b505afa1580156124ac573d6000803e3d6000fd5b505050506040513d601f19601f820116820180604052508101906124d09190612b0e565b106124da57505050565b6122a06001600160a01b038416836000196120b6565b6000816124ff57506000919050565b50600181600160801b81106125195760409190911b9060801c5b6801000000000000000081106125345760209190911b9060401c5b640100000000811061254b5760109190911b9060201c5b6201000081106125605760089190911b9060101c5b61010081106125745760049190911b9060081c5b601081106125875760029190911b9060041c5b6008811061259757600182901b91505b60018284816125b657634e487b7160e01b600052601260045260246000fd5b048301901c915060018284816125dc57634e487b7160e01b600052601260045260246000fd5b048301901c9150600182848161260257634e487b7160e01b600052601260045260246000fd5b048301901c9150600182848161262857634e487b7160e01b600052601260045260246000fd5b048301901c9150600182848161264e57634e487b7160e01b600052601260045260246000fd5b048301901c9150600182848161267457634e487b7160e01b600052601260045260246000fd5b048301901c9150600182848161269a57634e487b7160e01b600052601260045260246000fd5b048301901c915060008284816126c057634e487b7160e01b600052601260045260246000fd5b049050808310156126d157826126d3565b805b949350505050565b6000808060001985870985870292508281108382030391505080600014156127245783828161271a57634e487b7160e01b600052601260045260246000fd5b04925050506110a0565b83811061274e57604051631dcf306360e21b81526004810182905260248101859052604401610f7f565b60008486880960026001871981018816978890046003810283188082028403028082028403028082028403028082028403028082028403029081029092039091026000889003889004909101858311909403939093029303949094049190911702949350505050565b80516127c281612d46565b919050565b80516dffffffffffffffffffffffffffff811681146127c257600080fd5b805163ffffffff811681146127c257600080fd5b60006020828403121561280a578081fd5b81356110a081612d46565b600060208284031215612826578081fd5b81516110a081612d46565b60008060408385031215612843578081fd5b823561284e81612d46565b9150602083013561285e81612d46565b809150509250929050565b60008060006060848603121561287d578081fd5b833561288881612d46565b9250602084013561289881612d46565b929592945050506040919091013590565b600080604083850312156128bb578182fd5b82356128c681612d46565b946020939093013593505050565b60008060008060008060008060006101208a8c0312156128f2578485fd5b89516128fd81612d46565b60208b01519099506bffffffffffffffffffffffff8116811461291e578586fd5b8098505060408a0151965060608a0151955060808a015167ffffffffffffffff8116811461294a578586fd5b945061295860a08b016127b7565b935061296660c08b016127e5565b925060e08a015191506101008a015190509295985092959850929598565b60006020808385031215612996578182fd5b825167ffffffffffffffff808211156129ad578384fd5b818501915085601f8301126129c0578384fd5b8151818111156129d2576129d2612d30565b8060051b604051601f19603f830116810181811085821117156129f7576129f7612d30565b604052828152858101935084860182860187018a1015612a15578788fd5b8795505b83861015612a37578051855260019590950194938601938601612a19565b5098975050505050505050565b600060208284031215612a55578081fd5b815180151581146110a0578182fd5b60008060008060808587031215612a79578384fd5b8435612a8481612d46565b93506020850135612a9481612d46565b92506040850135612aa481612d46565b9396929550929360600135925050565b600080600060608486031215612ac8578081fd5b612ad1846127c7565b9250612adf602085016127c7565b9150612aed604085016127e5565b90509250925092565b600060208284031215612b07578081fd5b5035919050565b600060208284031215612b1f578081fd5b5051919050565b60008060408385031215612b38578182fd5b82359150602083013561285e81612d46565b600080600060608486031215612b5e578081fd5b833592506020840135612b7081612d46565b91506040840135612b8081612d46565b809150509250925092565b60008060408385031215612b9d578182fd5b505080516020909101519092909150565b6000602080835283518082850152825b81811015612bda57858101830151858201604001528201612bbe565b81811115612beb5783604083870101525b50601f01601f1916929092016040019392505050565b600060a082018783526020878185015260a0604085015281875180845260c0860191508289019350845b81811015612c505784516001600160a01b031683529383019391830191600101612c2b565b50506001600160a01b03969096166060850152505050608001529392505050565b60008219821115612c8457612c84612d1a565b500190565b600082612ca457634e487b7160e01b81526012600452602481fd5b500490565b6000816000190483118215151615612cc357612cc3612d1a565b500290565b600082821015612cda57612cda612d1a565b500390565b600181811c90821680612cf357607f821691505b60208210811415612d1457634e487b7160e01b600052602260045260246000fd5b50919050565b634e487b7160e01b600052601160045260246000fd5b634e487b7160e01b600052604160045260246000fd5b6001600160a01b0381168114611f7b57600080fdfea26469706673582212201e99ac82cc6a16f121c289f4f22a1c8b38151eca25c2080d1332f665576a0d0064736f6c63430008040033",
  "linkReferences": {},
  "deployedLinkReferences": {}
}