{
  "_format": "hh-sol-artifact-1",
  "contractName": "CygnusCollateralVoid",
  "sourceName": "contracts/cygnus-core/CygnusCollateralVoid.sol",
  "abi": [
    {
      "inputs": [],
      "stateMutability": "nonpayable",
      "type": "constructor"
    },
    {
      "inputs": [
        {
          "internalType": "uint256",
          "name": "min",
          "type": "uint256"
        },
        {
          "internalType": "uint256",
          "name": "max",
          "type": "uint256"
        },
        {
          "internalType": "uint256",
          "name": "value",
          "type": "uint256"
        }
      ],
      "name": "CygnusCollateralControl__ParameterNotInRange",
      "type": "error"
    },
    {
      "inputs": [
        {
          "internalType": "address",
          "name": "invalidBorrowable",
          "type": "address"
        },
        {
          "internalType": "address",
          "name": "validBorrowable",
          "type": "address"
        }
      ],
      "name": "CygnusCollateralModel__BorrowableInvalid",
      "type": "error"
    },
    {
      "inputs": [
        {
          "internalType": "address",
          "name": "sender",
          "type": "address"
        },
        {
          "internalType": "address",
          "name": "origin",
          "type": "address"
        }
      ],
      "name": "CygnusCollateralModel__BorrowerCantBeAddressZero",
      "type": "error"
    },
    {
      "inputs": [
        {
          "internalType": "address",
          "name": "sender",
          "type": "address"
        },
        {
          "internalType": "address",
          "name": "origin",
          "type": "address"
        }
      ],
      "name": "CygnusCollateralVoid__OnlyEOAAllowed",
      "type": "error"
    },
    {
      "inputs": [
        {
          "internalType": "address",
          "name": "srcToken",
          "type": "address"
        },
        {
          "internalType": "address",
          "name": "rewardsToken",
          "type": "address"
        }
      ],
      "name": "CygnusCollateralVoid__SrcTokenNotValid",
      "type": "error"
    },
    {
      "inputs": [
        {
          "internalType": "address",
          "name": "dstReceiver",
          "type": "address"
        },
        {
          "internalType": "address",
          "name": "dstToken",
          "type": "address"
        }
      ],
      "name": "CygnusCollateralVoid__SwapNotAllowed",
      "type": "error"
    },
    {
      "inputs": [],
      "name": "CygnusTerminal__CantMintZeroShares",
      "type": "error"
    },
    {
      "inputs": [],
      "name": "CygnusTerminal__CantRedeemZeroAssets",
      "type": "error"
    },
    {
      "inputs": [
        {
          "internalType": "address",
          "name": "token",
          "type": "address"
        },
        {
          "internalType": "address",
          "name": "underlying",
          "type": "address"
        }
      ],
      "name": "CygnusTerminal__CantSweepUnderlying",
      "type": "error"
    },
    {
      "inputs": [
        {
          "internalType": "address",
          "name": "sender",
          "type": "address"
        },
        {
          "internalType": "address",
          "name": "admin",
          "type": "address"
        }
      ],
      "name": "CygnusTerminal__MsgSenderNotAdmin",
      "type": "error"
    },
    {
      "inputs": [
        {
          "internalType": "address",
          "name": "owner",
          "type": "address"
        },
        {
          "internalType": "uint8",
          "name": "v",
          "type": "uint8"
        },
        {
          "internalType": "bytes32",
          "name": "r",
          "type": "bytes32"
        },
        {
          "internalType": "bytes32",
          "name": "s",
          "type": "bytes32"
        }
      ],
      "name": "ERC20Permit__InvalidSignature",
      "type": "error"
    },
    {
      "inputs": [],
      "name": "ERC20Permit__OwnerZeroAddress",
      "type": "error"
    },
    {
      "inputs": [
        {
          "internalType": "uint256",
          "name": "currentTime",
          "type": "uint256"
        },
        {
          "internalType": "uint256",
          "name": "deadline",
          "type": "uint256"
        }
      ],
      "name": "ERC20Permit__PermitExpired",
      "type": "error"
    },
    {
      "inputs": [],
      "name": "ERC20Permit__RecoveredOwnerZeroAddress",
      "type": "error"
    },
    {
      "inputs": [],
      "name": "ERC20Permit__SpenderZeroAddress",
      "type": "error"
    },
    {
      "inputs": [],
      "name": "ERC20__ApproveOwnerZeroAddress",
      "type": "error"
    },
    {
      "inputs": [],
      "name": "ERC20__ApproveSpenderZeroAddress",
      "type": "error"
    },
    {
      "inputs": [
        {
          "internalType": "uint256",
          "name": "accountBalance",
          "type": "uint256"
        },
        {
          "internalType": "uint256",
          "name": "burnAmount",
          "type": "uint256"
        }
      ],
      "name": "ERC20__BurnUnderflow",
      "type": "error"
    },
    {
      "inputs": [],
      "name": "ERC20__BurnZeroAddress",
      "type": "error"
    },
    {
      "inputs": [
        {
          "internalType": "uint256",
          "name": "allowance",
          "type": "uint256"
        },
        {
          "internalType": "uint256",
          "name": "amount",
          "type": "uint256"
        }
      ],
      "name": "ERC20__InsufficientAllowance",
      "type": "error"
    },
    {
      "inputs": [
        {
          "internalType": "uint256",
          "name": "senderBalance",
          "type": "uint256"
        },
        {
          "internalType": "uint256",
          "name": "amount",
          "type": "uint256"
        }
      ],
      "name": "ERC20__InsufficientBalance",
      "type": "error"
    },
    {
      "inputs": [],
      "name": "ERC20__MintZeroAddress",
      "type": "error"
    },
    {
      "inputs": [],
      "name": "ERC20__TransferRecipientZeroAddress",
      "type": "error"
    },
    {
      "inputs": [],
      "name": "ERC20__TransferSenderZeroAddress",
      "type": "error"
    },
    {
      "inputs": [],
      "name": "ReentrantCall",
      "type": "error"
    },
    {
      "anonymous": false,
      "inputs": [
        {
          "indexed": true,
          "internalType": "address",
          "name": "owner",
          "type": "address"
        },
        {
          "indexed": true,
          "internalType": "address",
          "name": "spender",
          "type": "address"
        },
        {
          "indexed": false,
          "internalType": "uint256",
          "name": "amount",
          "type": "uint256"
        }
      ],
      "name": "Approval",
      "type": "event"
    },
    {
      "anonymous": false,
      "inputs": [
        {
          "indexed": false,
          "internalType": "address",
          "name": "underlying",
          "type": "address"
        },
        {
          "indexed": false,
          "internalType": "uint256",
          "name": "shuttleId",
          "type": "uint256"
        },
        {
          "indexed": false,
          "internalType": "address",
          "name": "sender",
          "type": "address"
        }
      ],
      "name": "ChargeVoid",
      "type": "event"
    },
    {
      "anonymous": false,
      "inputs": [
        {
          "indexed": true,
          "internalType": "address",
          "name": "sender",
          "type": "address"
        },
        {
          "indexed": true,
          "internalType": "address",
          "name": "recipient",
          "type": "address"
        },
        {
          "indexed": false,
          "internalType": "uint256",
          "name": "assets",
          "type": "uint256"
        },
        {
          "indexed": false,
          "internalType": "uint256",
          "name": "shares",
          "type": "uint256"
        }
      ],
      "name": "Deposit",
      "type": "event"
    },
    {
      "anonymous": false,
      "inputs": [
        {
          "indexed": false,
          "internalType": "uint256",
          "name": "oldDebtRatio",
          "type": "uint256"
        },
        {
          "indexed": false,
          "internalType": "uint256",
          "name": "newDebtRatio",
          "type": "uint256"
        }
      ],
      "name": "NewDebtRatio",
      "type": "event"
    },
    {
      "anonymous": false,
      "inputs": [
        {
          "indexed": false,
          "internalType": "uint256",
          "name": "oldLiquidationFee",
          "type": "uint256"
        },
        {
          "indexed": false,
          "internalType": "uint256",
          "name": "newLiquidationFee",
          "type": "uint256"
        }
      ],
      "name": "NewLiquidationFee",
      "type": "event"
    },
    {
      "anonymous": false,
      "inputs": [
        {
          "indexed": false,
          "internalType": "uint256",
          "name": "oldLiquidationIncentive",
          "type": "uint256"
        },
        {
          "indexed": false,
          "internalType": "uint256",
          "name": "newLiquidationIncentive",
          "type": "uint256"
        }
      ],
      "name": "NewLiquidationIncentive",
      "type": "event"
    },
    {
      "anonymous": false,
      "inputs": [
        {
          "indexed": true,
          "internalType": "address",
          "name": "reinvestor",
          "type": "address"
        },
        {
          "indexed": false,
          "internalType": "uint256",
          "name": "rewardBalance",
          "type": "uint256"
        },
        {
          "indexed": false,
          "internalType": "uint256",
          "name": "reinvestReward",
          "type": "uint256"
        },
        {
          "indexed": false,
          "internalType": "uint256",
          "name": "daoReward",
          "type": "uint256"
        },
        {
          "indexed": false,
          "internalType": "uint256",
          "name": "underlyingReceived",
          "type": "uint256"
        }
      ],
      "name": "RechargeVoid",
      "type": "event"
    },
    {
      "anonymous": false,
      "inputs": [
        {
          "indexed": false,
          "internalType": "uint256",
          "name": "totalBalance",
          "type": "uint256"
        }
      ],
      "name": "Sync",
      "type": "event"
    },
    {
      "anonymous": false,
      "inputs": [
        {
          "indexed": true,
          "internalType": "address",
          "name": "from",
          "type": "address"
        },
        {
          "indexed": true,
          "internalType": "address",
          "name": "to",
          "type": "address"
        },
        {
          "indexed": false,
          "internalType": "uint256",
          "name": "amount",
          "type": "uint256"
        }
      ],
      "name": "Transfer",
      "type": "event"
    },
    {
      "anonymous": false,
      "inputs": [
        {
          "indexed": true,
          "internalType": "address",
          "name": "sender",
          "type": "address"
        },
        {
          "indexed": true,
          "internalType": "address",
          "name": "recipient",
          "type": "address"
        },
        {
          "indexed": true,
          "internalType": "address",
          "name": "owner",
          "type": "address"
        },
        {
          "indexed": false,
          "internalType": "uint256",
          "name": "assets",
          "type": "uint256"
        },
        {
          "indexed": false,
          "internalType": "uint256",
          "name": "shares",
          "type": "uint256"
        }
      ],
      "name": "Withdraw",
      "type": "event"
    },
    {
      "inputs": [],
      "name": "DAO_REWARD",
      "outputs": [
        {
          "internalType": "uint256",
          "name": "",
          "type": "uint256"
        }
      ],
      "stateMutability": "view",
      "type": "function"
    },
    {
      "inputs": [],
      "name": "DOMAIN_SEPARATOR",
      "outputs": [
        {
          "internalType": "bytes32",
          "name": "",
          "type": "bytes32"
        }
      ],
      "stateMutability": "view",
      "type": "function"
    },
    {
      "inputs": [],
      "name": "PERMIT_TYPEHASH",
      "outputs": [
        {
          "internalType": "bytes32",
          "name": "",
          "type": "bytes32"
        }
      ],
      "stateMutability": "view",
      "type": "function"
    },
    {
      "inputs": [],
      "name": "REINVEST_REWARD",
      "outputs": [
        {
          "internalType": "uint256",
          "name": "",
          "type": "uint256"
        }
      ],
      "stateMutability": "view",
      "type": "function"
    },
    {
      "inputs": [
        {
          "internalType": "address",
          "name": "owner",
          "type": "address"
        },
        {
          "internalType": "address",
          "name": "spender",
          "type": "address"
        }
      ],
      "name": "allowance",
      "outputs": [
        {
          "internalType": "uint256",
          "name": "",
          "type": "uint256"
        }
      ],
      "stateMutability": "view",
      "type": "function"
    },
    {
      "inputs": [
        {
          "internalType": "address",
          "name": "spender",
          "type": "address"
        },
        {
          "internalType": "uint256",
          "name": "amount",
          "type": "uint256"
        }
      ],
      "name": "approve",
      "outputs": [
        {
          "internalType": "bool",
          "name": "",
          "type": "bool"
        }
      ],
      "stateMutability": "nonpayable",
      "type": "function"
    },
    {
      "inputs": [
        {
          "internalType": "address",
          "name": "account",
          "type": "address"
        }
      ],
      "name": "balanceOf",
      "outputs": [
        {
          "internalType": "uint256",
          "name": "",
          "type": "uint256"
        }
      ],
      "stateMutability": "view",
      "type": "function"
    },
    {
      "inputs": [],
      "name": "borrowable",
      "outputs": [
        {
          "internalType": "address",
          "name": "",
          "type": "address"
        }
      ],
      "stateMutability": "view",
      "type": "function"
    },
    {
      "inputs": [
        {
          "internalType": "address",
          "name": "borrower",
          "type": "address"
        },
        {
          "internalType": "address",
          "name": "borrowableToken",
          "type": "address"
        },
        {
          "internalType": "uint256",
          "name": "borrowAmount",
          "type": "uint256"
        }
      ],
      "name": "canBorrow",
      "outputs": [
        {
          "internalType": "bool",
          "name": "",
          "type": "bool"
        }
      ],
      "stateMutability": "view",
      "type": "function"
    },
    {
      "inputs": [
        {
          "internalType": "address",
          "name": "borrower",
          "type": "address"
        },
        {
          "internalType": "uint256",
          "name": "redeemAmount",
          "type": "uint256"
        }
      ],
      "name": "canRedeem",
      "outputs": [
        {
          "internalType": "bool",
          "name": "",
          "type": "bool"
        }
      ],
      "stateMutability": "view",
      "type": "function"
    },
    {
      "inputs": [
        {
          "internalType": "uint256",
          "name": "_sushiPoolId",
          "type": "uint256"
        }
      ],
      "name": "chargeVoid",
      "outputs": [],
      "stateMutability": "nonpayable",
      "type": "function"
    },
    {
      "inputs": [],
      "name": "cygnusNebulaOracle",
      "outputs": [
        {
          "internalType": "contract ICygnusNebulaOracle",
          "name": "",
          "type": "address"
        }
      ],
      "stateMutability": "view",
      "type": "function"
    },
    {
      "inputs": [],
      "name": "debtRatio",
      "outputs": [
        {
          "internalType": "uint256",
          "name": "",
          "type": "uint256"
        }
      ],
      "stateMutability": "view",
      "type": "function"
    },
    {
      "inputs": [],
      "name": "decimals",
      "outputs": [
        {
          "internalType": "uint8",
          "name": "",
          "type": "uint8"
        }
      ],
      "stateMutability": "view",
      "type": "function"
    },
    {
      "inputs": [
        {
          "internalType": "uint256",
          "name": "assets",
          "type": "uint256"
        },
        {
          "internalType": "address",
          "name": "recipient",
          "type": "address"
        }
      ],
      "name": "deposit",
      "outputs": [
        {
          "internalType": "uint256",
          "name": "shares",
          "type": "uint256"
        }
      ],
      "stateMutability": "nonpayable",
      "type": "function"
    },
    {
      "inputs": [],
      "name": "exchangeRate",
      "outputs": [
        {
          "internalType": "uint256",
          "name": "",
          "type": "uint256"
        }
      ],
      "stateMutability": "view",
      "type": "function"
    },
    {
      "inputs": [
        {
          "internalType": "address",
          "name": "borrower",
          "type": "address"
        }
      ],
      "name": "getAccountLiquidity",
      "outputs": [
        {
          "internalType": "uint256",
          "name": "liquidity",
          "type": "uint256"
        },
        {
          "internalType": "uint256",
          "name": "shortfall",
          "type": "uint256"
        }
      ],
      "stateMutability": "view",
      "type": "function"
    },
    {
      "inputs": [],
      "name": "getCygnusVoid",
      "outputs": [
        {
          "internalType": "address",
          "name": "",
          "type": "address"
        },
        {
          "internalType": "address",
          "name": "",
          "type": "address"
        },
        {
          "internalType": "address",
          "name": "",
          "type": "address"
        },
        {
          "internalType": "uint256",
          "name": "",
          "type": "uint256"
        }
      ],
      "stateMutability": "view",
      "type": "function"
    },
    {
      "inputs": [
        {
          "internalType": "address",
          "name": "borrower",
          "type": "address"
        }
      ],
      "name": "getDebtRatio",
      "outputs": [
        {
          "internalType": "uint256",
          "name": "",
          "type": "uint256"
        }
      ],
      "stateMutability": "view",
      "type": "function"
    },
    {
      "inputs": [],
      "name": "getLPTokenPrice",
      "outputs": [
        {
          "internalType": "uint256",
          "name": "",
          "type": "uint256"
        }
      ],
      "stateMutability": "view",
      "type": "function"
    },
    {
      "inputs": [],
      "name": "getRewards",
      "outputs": [
        {
          "internalType": "uint256",
          "name": "",
          "type": "uint256"
        }
      ],
      "stateMutability": "nonpayable",
      "type": "function"
    },
    {
      "inputs": [],
      "name": "hangar18",
      "outputs": [
        {
          "internalType": "contract IHangar18",
          "name": "",
          "type": "address"
        }
      ],
      "stateMutability": "view",
      "type": "function"
    },
    {
      "inputs": [],
      "name": "lastReinvest",
      "outputs": [
        {
          "internalType": "uint256",
          "name": "",
          "type": "uint256"
        }
      ],
      "stateMutability": "view",
      "type": "function"
    },
    {
      "inputs": [],
      "name": "liquidationFee",
      "outputs": [
        {
          "internalType": "uint256",
          "name": "",
          "type": "uint256"
        }
      ],
      "stateMutability": "view",
      "type": "function"
    },
    {
      "inputs": [],
      "name": "liquidationIncentive",
      "outputs": [
        {
          "internalType": "uint256",
          "name": "",
          "type": "uint256"
        }
      ],
      "stateMutability": "view",
      "type": "function"
    },
    {
      "inputs": [],
      "name": "name",
      "outputs": [
        {
          "internalType": "string",
          "name": "",
          "type": "string"
        }
      ],
      "stateMutability": "view",
      "type": "function"
    },
    {
      "inputs": [
        {
          "internalType": "address",
          "name": "",
          "type": "address"
        }
      ],
      "name": "nonces",
      "outputs": [
        {
          "internalType": "uint256",
          "name": "",
          "type": "uint256"
        }
      ],
      "stateMutability": "view",
      "type": "function"
    },
    {
      "inputs": [
        {
          "internalType": "address",
          "name": "owner",
          "type": "address"
        },
        {
          "internalType": "address",
          "name": "spender",
          "type": "address"
        },
        {
          "internalType": "uint256",
          "name": "value",
          "type": "uint256"
        },
        {
          "internalType": "uint256",
          "name": "deadline",
          "type": "uint256"
        },
        {
          "internalType": "uint8",
          "name": "v",
          "type": "uint8"
        },
        {
          "internalType": "bytes32",
          "name": "r",
          "type": "bytes32"
        },
        {
          "internalType": "bytes32",
          "name": "s",
          "type": "bytes32"
        }
      ],
      "name": "permit",
      "outputs": [],
      "stateMutability": "nonpayable",
      "type": "function"
    },
    {
      "inputs": [
        {
          "internalType": "uint256",
          "name": "shares",
          "type": "uint256"
        },
        {
          "internalType": "address",
          "name": "recipient",
          "type": "address"
        },
        {
          "internalType": "address",
          "name": "owner",
          "type": "address"
        }
      ],
      "name": "redeem",
      "outputs": [
        {
          "internalType": "uint256",
          "name": "assets",
          "type": "uint256"
        }
      ],
      "stateMutability": "nonpayable",
      "type": "function"
    },
    {
      "inputs": [],
      "name": "reinvestRewards_y7b",
      "outputs": [],
      "stateMutability": "nonpayable",
      "type": "function"
    },
    {
      "inputs": [
        {
          "internalType": "uint256",
          "name": "newDebtRatio",
          "type": "uint256"
        }
      ],
      "name": "setDebtRatio",
      "outputs": [],
      "stateMutability": "nonpayable",
      "type": "function"
    },
    {
      "inputs": [
        {
          "internalType": "uint256",
          "name": "newLiquidationFee",
          "type": "uint256"
        }
      ],
      "name": "setLiquidationFee",
      "outputs": [],
      "stateMutability": "nonpayable",
      "type": "function"
    },
    {
      "inputs": [
        {
          "internalType": "uint256",
          "name": "newLiquidationIncentive",
          "type": "uint256"
        }
      ],
      "name": "setLiquidationIncentive",
      "outputs": [],
      "stateMutability": "nonpayable",
      "type": "function"
    },
    {
      "inputs": [],
      "name": "shuttleId",
      "outputs": [
        {
          "internalType": "uint256",
          "name": "",
          "type": "uint256"
        }
      ],
      "stateMutability": "view",
      "type": "function"
    },
    {
      "inputs": [
        {
          "internalType": "address",
          "name": "token",
          "type": "address"
        }
      ],
      "name": "sweepToken",
      "outputs": [],
      "stateMutability": "nonpayable",
      "type": "function"
    },
    {
      "inputs": [],
      "name": "symbol",
      "outputs": [
        {
          "internalType": "string",
          "name": "",
          "type": "string"
        }
      ],
      "stateMutability": "view",
      "type": "function"
    },
    {
      "inputs": [],
      "name": "totalBalance",
      "outputs": [
        {
          "internalType": "uint256",
          "name": "",
          "type": "uint256"
        }
      ],
      "stateMutability": "view",
      "type": "function"
    },
    {
      "inputs": [],
      "name": "totalSupply",
      "outputs": [
        {
          "internalType": "uint256",
          "name": "",
          "type": "uint256"
        }
      ],
      "stateMutability": "view",
      "type": "function"
    },
    {
      "inputs": [
        {
          "internalType": "address",
          "name": "recipient",
          "type": "address"
        },
        {
          "internalType": "uint256",
          "name": "amount",
          "type": "uint256"
        }
      ],
      "name": "transfer",
      "outputs": [
        {
          "internalType": "bool",
          "name": "",
          "type": "bool"
        }
      ],
      "stateMutability": "nonpayable",
      "type": "function"
    },
    {
      "inputs": [
        {
          "internalType": "address",
          "name": "sender",
          "type": "address"
        },
        {
          "internalType": "address",
          "name": "recipient",
          "type": "address"
        },
        {
          "internalType": "uint256",
          "name": "amount",
          "type": "uint256"
        }
      ],
      "name": "transferFrom",
      "outputs": [
        {
          "internalType": "bool",
          "name": "",
          "type": "bool"
        }
      ],
      "stateMutability": "nonpayable",
      "type": "function"
    },
    {
      "inputs": [],
      "name": "underlying",
      "outputs": [
        {
          "internalType": "address",
          "name": "",
          "type": "address"
        }
      ],
      "stateMutability": "view",
      "type": "function"
    },
    {
      "inputs": [],
      "name": "version",
      "outputs": [
        {
          "internalType": "string",
          "name": "",
          "type": "string"
        }
      ],
      "stateMutability": "view",
      "type": "function"
    }
  ],
  "bytecode": "0x6101a0604052670d2f13f7789f0000600955670e398811bec68000600a55600019600c553480156200003057600080fd5b50604080518082018252601281527110de59db9d5cce8810dbdb1b185d195c985b60721b602080830191825283519081019093526000808452805460ff19166001908117825583519394939192859285928592859285928592620000949262000620565b508151620000aa90600290602085019062000620565b506003805460ff191660ff92909216919091179055505060405146907f8b73c3c69bb8fe3d512ecc4cf759cc79239f7b179b0ffacaa9a75d522b39400f90620000f69060019062000836565b60408051918290038220828201825260058352640312e302e360dc1b6020938401528151928301939093528101919091527f06c015bd22b4c69690933c1058878ebdfef31f9aaae40bbe86d8a09fe1b2972c6060820152608081018290523060a082015260c00160408051601f19818403018152919052805160209091012060805250620001889250506200061c9050565b6001600160a01b0316635a412e536040518163ffffffff1660e01b815260040160a060405180830381600087803b158015620001c357600080fd5b505af1158015620001d8573d6000803e3d6000fd5b505050506040513d601f19601f82011682018060405250810190620001fe9190620006ec565b610100526001600160601b0319606091821b811660e05292811b831660c0529290921b1660a05250600092508291506200023790503390565b6001600160a01b0316635a412e536040518163ffffffff1660e01b815260040160a060405180830381600087803b1580156200027257600080fd5b505af115801562000287573d6000803e3d6000fd5b505050506040513d601f19601f82011682018060405250810190620002ad9190620006ec565b50509250925050816001600160a01b03166395d89b416040518163ffffffff1660e01b815260040160006040518083038186803b158015620002ee57600080fd5b505afa15801562000303573d6000803e3d6000fd5b505050506040513d6000823e601f3d908101601f191682016040526200032d91908101906200075f565b6040516020016200033f9190620008d9565b604051602081830303815290604052600290805190602001906200036592919062000620565b50816001600160a01b031663313ce5676040518163ffffffff1660e01b815260040160206040518083038186803b158015620003a057600080fd5b505afa158015620003b5573d6000803e3d6000fd5b505050506040513d601f19601f82011682018060405250810190620003db919062000813565b6003805460ff191660ff9290921691909117905560601b6001600160601b03191661012052506000600481905580620004113390565b6001600160a01b0316635a412e536040518163ffffffff1660e01b815260040160a060405180830381600087803b1580156200044c57600080fd5b505af115801562000461573d6000803e3d6000fd5b505050506040513d601f19601f82011682018060405250810190620004879190620006ec565b50505091509150806001600160a01b0316630dfe16816040518163ffffffff1660e01b815260040160206040518083038186803b158015620004c857600080fd5b505afa158015620004dd573d6000803e3d6000fd5b505050506040513d601f19601f82011682018060405250810190620005039190620006c6565b816001600160a01b031663d21220a76040518163ffffffff1660e01b815260040160206040518083038186803b1580156200053d57600080fd5b505afa15801562000552573d6000803e3d6000fd5b505050506040513d601f19601f82011682018060405250810190620005789190620006c6565b836001600160a01b031663e1758bd86040518163ffffffff1660e01b815260040160206040518083038186803b158015620005b257600080fd5b505afa158015620005c7573d6000803e3d6000fd5b505050506040513d601f19601f82011682018060405250810190620005ed9190620006c6565b6001600160601b0319606091821b81166101405291811b8216610180529190911b166101605250620009a99050565b3390565b8280546200062e906200093d565b90600052602060002090601f0160209004810192826200065257600085556200069d565b82601f106200066d57805160ff19168380011785556200069d565b828001600101855582156200069d579182015b828111156200069d57825182559160200191906001019062000680565b50620006ab929150620006af565b5090565b5b80821115620006ab5760008155600101620006b0565b600060208284031215620006d8578081fd5b8151620006e58162000990565b9392505050565b600080600080600060a0868803121562000704578081fd5b8551620007118162000990565b6020870151909550620007248162000990565b6040870151909450620007378162000990565b60608701519093506200074a8162000990565b80925050608086015190509295509295909350565b60006020828403121562000771578081fd5b81516001600160401b038082111562000788578283fd5b818401915084601f8301126200079c578283fd5b815181811115620007b157620007b16200097a565b604051601f8201601f19908116603f01168101908382118183101715620007dc57620007dc6200097a565b81604052828152876020848701011115620007f5578586fd5b620008088360208301602088016200090a565b979650505050505050565b60006020828403121562000825578081fd5b815160ff81168114620006e5578182fd5b600080835482600182811c9150808316806200085357607f831692505b60208084108214156200087457634e487b7160e01b87526022600452602487fd5b8180156200088b57600181146200089d57620008cb565b60ff19861689528489019650620008cb565b60008a815260209020885b86811015620008c35781548b820152908501908301620008a8565b505084890196505b509498975050505050505050565b66021bcb3a6281d160cd1b815260008251620008fd8160078501602087016200090a565b9190910160070192915050565b60005b83811015620009275781810151838201526020016200090d565b8381111562000937576000848401525b50505050565b600181811c908216806200095257607f821691505b602082108114156200097457634e487b7160e01b600052602260045260246000fd5b50919050565b634e487b7160e01b600052604160045260246000fd5b6001600160a01b0381168114620009a657600080fd5b50565b60805160a05160601c60c05160601c60e05160601c610100516101205160601c6101405160601c6101605160601c6101805160601c6133dc62000b32600039600081816108e00152818161096a015281816109d201528181610ad601528181610b600152610c3901526000818161089a015281816109260152818161098b015281816109b101528181610a7b01528181610b3101528181610b8101528181610bcb01528181610c160152610d23015260008181610a1601528181610a5101528181610aac01528181610b0701528181610baa0152610bef01526000818161070401528181610ef201528181611476015281816114cc015281816117c501526127fa0152600081816105010152611bb801526000818161067d015261127f01526000818161053b01528181610c6b015281816110e001528181611137015281816112540152818161134b015281816116b101528181611b4a0152611b940152600081816106dd015281816107e501526125a5015260008181610458015261196a01526133dc6000f3fe608060405234801561001057600080fd5b50600436106102dc5760003560e01c806370a0823111610186578063ba087652116100e3578063d935bd9211610097578063e99a6ac711610071578063e99a6ac7146106ff578063eb6a887d14610726578063fef0bec81461073957600080fd5b8063d935bd9214610678578063dd62ed3e1461069f578063e8a24e1d146106d857600080fd5b8063cea55f57116100c8578063cea55f5714610649578063d505accf14610652578063d82f897f1461066557600080fd5b8063ba08765214610623578063cc1f8ffa1461063657600080fd5b8063a36a36301161013a578063a9059cbb1161011f578063a9059cbb146105fe578063ad7a672f14610611578063b5f3c95b1461061a57600080fd5b8063a36a3630146105e2578063a8431081146105eb57600080fd5b80638c765e941161016b5780638c765e94146105be57806395d89b41146105c75780639aac2c53146105cf57600080fd5b806370a08231146105755780637ecebe001461059e57600080fd5b806330adf81f1161023f57806354fd4d50116101f35780635f77f891116101cd5780635f77f891146104fc5780636e553f65146105235780636f307dc31461053657600080fd5b806354fd4d501461048a57806359b0bc2a146104c65780635ec88c79146104d457600080fd5b80633644e515116102245780633644e515146104535780633ba0b9a91461047a578063513036221461048257600080fd5b806330adf81f1461040d578063313ce5671461043457600080fd5b806318160ddd116102965780631be195601161027b5780631be19560146103d95780631c198188146103ec57806323b872dd146103fa57600080fd5b806318160ddd146103515780631995bc1a1461035a57600080fd5b80630572b0cc116102c75780630572b0cc1461031157806306fdde0314610319578063095ea7b31461032e57600080fd5b8061e18a146102e1578063031a5c82146102eb575b600080fd5b6102e961074c565b005b6102fe6102f9366004612e0f565b610e8a565b6040519081526020015b60405180910390f35b6102fe610fb4565b610321611004565b604051610308919061318f565b61034161033c366004612f3b565b611092565b6040519015158152602001610308565b6102fe60045481565b6103a4600c54730769fd68dfb93167989c6f7254cd0d766fb2841f91731b02da8cb0d097eb8d57a175b88c7d8b4799750691730b3f868e0be5597d5db7feb59e1cadbb0fdda50a91565b60405161030894939291906001600160a01b039485168152928416602084015292166040820152606081019190915260800190565b6102e96103e7366004612e0f565b6110a9565b6102fe668e1bc9bf04000081565b610341610408366004612e86565b61119b565b6102fe7f6e71edae12b1b97f4d1f60370fef10105fa2faae0126114a169c64845d6126c981565b6003546104419060ff1681565b60405160ff9091168152602001610308565b6102fe7f000000000000000000000000000000000000000000000000000000000000000081565b6102fe61120f565b6102fe61123d565b6103216040518060400160405280600581526020017f312e302e3000000000000000000000000000000000000000000000000000000081525081565b6102fe66470de4df82000081565b6104e76104e2366004612e0f565b611300565b60408051928352602083019190915201610308565b6102fe7f000000000000000000000000000000000000000000000000000000000000000081565b6102fe6105313660046130e5565b611318565b61055d7f000000000000000000000000000000000000000000000000000000000000000081565b6040516001600160a01b039091168152602001610308565b6102fe610583366004612e0f565b6001600160a01b031660009081526005602052604090205490565b6102fe6105ac366004612e0f565b60076020526000908152604090205481565b6102fe600a5481565b610321611465565b6103416105dd366004612e86565b611472565b6102fe600b5481565b6102e96105f93660046130b5565b611510565b61034161060c366004612f3b565b6115b3565b6102fe60085481565b6102fe600d5481565b6102fe610631366004613109565b6115c0565b610341610644366004612f3b565b61175a565b6102fe60095481565b6102e9610660366004612ec6565b61185b565b6102e96106733660046130b5565b611afe565b61055d7f000000000000000000000000000000000000000000000000000000000000000081565b6102fe6106ad366004612e4e565b6001600160a01b03918216600090815260066020908152604080832093909416825291909152205490565b61055d7f000000000000000000000000000000000000000000000000000000000000000081565b61055d7f000000000000000000000000000000000000000000000000000000000000000081565b6102e96107343660046130b5565b611c1d565b6102e96107473660046130b5565b611cab565b60005460ff1661076f576040516306fda65d60e31b815260040160405180910390fd5b6000805460ff19169055610781611d32565b600061078b611d5c565b9050806107985750610e73565b60006107ab82668e1bc9bf04000061204f565b90506107cc730b3f868e0be5597d5db7feb59e1cadbb0fdda50a338361207d565b60006107df8366470de4df82000061204f565b905060007f00000000000000000000000000000000000000000000000000000000000000006001600160a01b0316635b068af86040518163ffffffff1660e01b815260040160206040518083038186803b15801561083c57600080fd5b505afa158015610850573d6000803e3d6000fd5b505050506040513d601f19601f820116820180604052508101906108749190612e32565b9050610895730b3f868e0be5597d5db7feb59e1cadbb0fdda50a828461207d565b6000807f00000000000000000000000000000000000000000000000000000000000000006001600160a01b0316730b3f868e0be5597d5db7feb59e1cadbb0fdda50a148061091f57507f00000000000000000000000000000000000000000000000000000000000000006001600160a01b0316730b3f868e0be5597d5db7feb59e1cadbb0fdda50a145b156109fc577f00000000000000000000000000000000000000000000000000000000000000006001600160a01b0316730b3f868e0be5597d5db7feb59e1cadbb0fdda50a146109af577f00000000000000000000000000000000000000000000000000000000000000007f00000000000000000000000000000000000000000000000000000000000000006109f2565b7f00000000000000000000000000000000000000000000000000000000000000007f00000000000000000000000000000000000000000000000000000000000000005b9092509050610c59565b610a4f730b3f868e0be5597d5db7feb59e1cadbb0fdda50a7f000000000000000000000000000000000000000000000000000000000000000086610a40898b6132fe565b610a4a91906132fe565b6120c6565b7f00000000000000000000000000000000000000000000000000000000000000006001600160a01b03167f00000000000000000000000000000000000000000000000000000000000000006001600160a01b03161480610b0057507f00000000000000000000000000000000000000000000000000000000000000006001600160a01b03167f00000000000000000000000000000000000000000000000000000000000000006001600160a01b0316145b15610ba5577f00000000000000000000000000000000000000000000000000000000000000006001600160a01b03167f00000000000000000000000000000000000000000000000000000000000000006001600160a01b0316146109af577f00000000000000000000000000000000000000000000000000000000000000007f00000000000000000000000000000000000000000000000000000000000000006109f2565b610c137f00000000000000000000000000000000000000000000000000000000000000007f0000000000000000000000000000000000000000000000000000000000000000610a4a7f0000000000000000000000000000000000000000000000000000000000000000612208565b507f000000000000000000000000000000000000000000000000000000000000000090507f00000000000000000000000000000000000000000000000000000000000000005b6000610c6483612208565b90506000807f00000000000000000000000000000000000000000000000000000000000000006001600160a01b0316630902f1ac6040518163ffffffff1660e01b815260040160606040518083038186803b158015610cc257600080fd5b505afa158015610cd6573d6000803e3d6000fd5b505050506040513d601f19601f82011682018060405250810190610cfa9190613067565b506dffffffffffffffffffffffffffff1691506dffffffffffffffffffffffffffff16915060007f00000000000000000000000000000000000000000000000000000000000000006001600160a01b0316866001600160a01b031614610d605781610d62565b825b90506000610d7385836103e561221d565b9050610d808787836120c6565b6000610d9f8888610d91858a6132fe565b610d9a8b612208565b612353565b600c54604051638dbdbe6d60e01b8152600481019190915260248101829052306044820152909150730769fd68dfb93167989c6f7254cd0d766fb2841f90638dbdbe6d90606401600060405180830381600087803b158015610e0057600080fd5b505af1158015610e14573d6000803e3d6000fd5b505042600d555050604080518d8152602081018d90528082018c905260608101839052905133917fc3845dedfc73729f4e3f721a87d9d20faf4551971c95726cf144e087da34ef2c919081900360800190a25050505050505050505050505b610e7b61245b565b6000805460ff19166001179055565b600080610eb7610e9861120f565b6001600160a01b0385166000908152600560205260409020549061204f565b90506000610ecd610ec661123d565b839061204f565b604051637d6af07960e01b81526001600160a01b0386811660048301529192506000917f00000000000000000000000000000000000000000000000000000000000000001690637d6af0799060240160206040518083038186803b158015610f3457600080fd5b505afa158015610f48573d6000803e3d6000fd5b505050506040513d601f19601f82011682018060405250810190610f6c91906130cd565b90506000610f83600b54600a54610ec691906132a7565b90508115610fa757600954610fa290610f9c83866124a3565b906124a3565b610faa565b60005b9695505050505050565b6000805460ff16610fd8576040516306fda65d60e31b815260040160405180910390fd5b6000805460ff19169055610fea611d32565b610ff2611d5c565b90506000805460ff1916600117905590565b6001805461101190613315565b80601f016020809104026020016040519081016040528092919081815260200182805461103d90613315565b801561108a5780601f1061105f5761010080835404028352916020019161108a565b820191906000526020600020905b81548152906001019060200180831161106d57829003601f168201915b505050505081565b600061109f3384846124f2565b5060015b92915050565b60005460ff166110cc576040516306fda65d60e31b815260040160405180910390fd5b6000805460ff191690556110de6125a1565b7f00000000000000000000000000000000000000000000000000000000000000006001600160a01b0316816001600160a01b03161415611169576040516303b91a9160e31b81526001600160a01b0380831660048301527f00000000000000000000000000000000000000000000000000000000000000001660248201526044015b60405180910390fd5b600061117482612208565b905061118a6001600160a01b038316338361207d565b50506000805460ff19166001179055565b60006111a8848484612673565b6001600160a01b0384166000908152600660209081526040808320338452909152902054828110156111f7576040516310c6013560e31b81526004810182905260248101849052604401611160565b61120485338584036124f2565b506001949350505050565b600454600090801561122d5760085461122890826124a3565b611237565b670de0b6b3a76400005b91505090565b6040516317e5a1a160e01b81526001600160a01b037f0000000000000000000000000000000000000000000000000000000000000000811660048301526000917f0000000000000000000000000000000000000000000000000000000000000000909116906317e5a1a19060240160206040518083038186803b1580156112c357600080fd5b505afa1580156112d7573d6000803e3d6000fd5b505050506040513d601f19601f820116820180604052508101906112fb91906130cd565b905090565b60008061130f83600019612796565b91509150915091565b6000805460ff1661133c576040516306fda65d60e31b815260040160405180910390fd5b6000805460ff1916905561137b7f00000000000000000000000000000000000000000000000000000000000000006001600160a01b03163330866128bc565b600061138561290a565b90506113908461299f565b600061139a61290a565b90506113b16113a761120f565b610f9c84846132fe565b9250600083116113d45760405163f1ca48b160e01b815260040160405180910390fd5b6004546113f8576113e961dead6103e8612a12565b6113f56103e8846132fe565b92505b6114028484612a12565b60408051868152602081018590526001600160a01b0386169133917fdcbc1c05240f31ff3ad067ef1ee35ce4997762752e3a095284754544f4c709d7910160405180910390a3505061145261245b565b6000805460ff1916600117905592915050565b6002805461101190613315565b60007f00000000000000000000000000000000000000000000000000000000000000006001600160a01b0316836001600160a01b0316146114f95760405163d06d9b9360e01b81526001600160a01b0380851660048301527f0000000000000000000000000000000000000000000000000000000000000000166024820152604401611160565b60006115058584612796565b159695505050505050565b60005460ff16611533576040516306fda65d60e31b815260040160405180910390fd5b6000805460ff191690556115456125a1565b611560670de0b6b3a7640000670f43fc2c04ee000083612ac5565b600a80549082905560408051828152602081018490527faeba5a6c40a8ac138134bff1aaa65debf25971188a58804bad717f82f0ec131691015b60405180910390a150506000805460ff19166001179055565b600061109f338484612673565b6000805460ff166115e4576040516306fda65d60e31b815260040160405180910390fd5b6000805460ff19169055336001600160a01b0383161461165c576001600160a01b0382166000908152600660209081526040808320338452909152902054600019811461165a5761163585826132fe565b6001600160a01b03841660009081526006602090815260408083203384529091529020555b505b61166e61166761120f565b859061204f565b9050600081116116915760405163e3e8d29760e01b815260040160405180910390fd5b61169a81612b05565b6116a48285612b4e565b6116d86001600160a01b037f000000000000000000000000000000000000000000000000000000000000000016848361207d565b816001600160a01b0316836001600160a01b03166116f33390565b6001600160a01b03167ffbde797d201c681b91056529119e0b02407c7bb96a4a2c75c01fc9667232c8db8488604051611736929190918252602082015260400190565b60405180910390a461174661245b565b6000805460ff191660011790559392505050565b6001600160a01b038216600090815260056020526040812054808311156117855760009150506110a3565b600061179184836132fe565b905060006117a0610ec661120f565b604051637d6af07960e01b81526001600160a01b0388811660048301529192506000917f00000000000000000000000000000000000000000000000000000000000000001690637d6af0799060240160206040518083038186803b15801561180757600080fd5b505afa15801561181b573d6000803e3d6000fd5b505050506040513d601f19601f8201168201806040525081019061183f91906130cd565b9050600061184d8383612bf9565b159998505050505050505050565b6001600160a01b03871661188257604051639a321bc760e01b815260040160405180910390fd5b6001600160a01b0386166118a9576040516353fbd1d760e01b815260040160405180910390fd5b428410156118d35760405163075dd20f60e41b815242600482015260248101859052604401611160565b6001600160a01b0387811660008181526007602090815260408083208054600180820190925582517f6e71edae12b1b97f4d1f60370fef10105fa2faae0126114a169c64845d6126c98186015280840196909652958c166060860152608085018b905260a085019590955260c08085018a90528151808603909101815260e08501825280519083012061190160f01b6101008601527f000000000000000000000000000000000000000000000000000000000000000061010286015261012280860182905282518087039091018152610142860180845281519185019190912090859052610162860180845281905260ff8a166101828701526101a286018990526101c2860188905291519095919491926101e2808401939192601f1981019281900390910190855afa158015611a0e573d6000803e3d6000fd5b5050604051601f1901519150506001600160a01b038116611a4257604051637386dbbb60e11b815260040160405180910390fd5b896001600160a01b0316816001600160a01b031614611a965760405163a1d5f2ed60e01b81526001600160a01b038b16600482015260ff871660248201526044810186905260648101859052608401611160565b6001600160a01b038a81166000818152600660209081526040808320948e16808452948252918290208c905590518b81527f8c5be1e5ebec7d5bd14f71427d1e84f3dd0314c0f7b2291e5b200ac8c7c3b925910160405180910390a350505050505050505050565b60005460ff16611b21576040516306fda65d60e31b815260040160405180910390fd5b6000805460ff19169055611b336125a1565b600019600c541415611b4557600c8190555b611b867f0000000000000000000000000000000000000000000000000000000000000000730769fd68dfb93167989c6f7254cd0d766fb2841f600019612c73565b604080516001600160a01b037f00000000000000000000000000000000000000000000000000000000000000001681527f00000000000000000000000000000000000000000000000000000000000000006020820152338183015290517f98ccebae89f16f152c93c6a0cdc0d99913b9e62a9fc612471c21ffc299c389fd9181900360600190a1506000805460ff19166001179055565b60005460ff16611c40576040516306fda65d60e31b815260040160405180910390fd5b6000805460ff19169055611c526125a1565b611c6d670b1a2bc2ec500000670de0b6b3a764000083612ac5565b600980549082905560408051828152602081018490527ff25d2243e4128e51523d8537f04f18c3e6390bbfc6323390a9a8e59b921ce046910161159a565b60005460ff16611cce576040516306fda65d60e31b815260040160405180910390fd5b6000805460ff19169055611ce06125a1565b611cf4600067016345785d8a000083612ac5565b600b80549082905560408051828152602081018490527f87272249f1056ec16a68dd9255101358246dd26a796e2f0bc6b3a0ad02f2de41910161159a565b333214611d5a57604051632f7a9fa160e21b8152336004820152326024820152604401611160565b565b600c5460405163c346253d60e01b815260048101919091526000908190730769fd68dfb93167989c6f7254cd0d766fb2841f9063c346253d9060240160206040518083038186803b158015611db057600080fd5b505afa158015611dc4573d6000803e3d6000fd5b505050506040513d601f19601f82011682018060405250810190611de89190612e32565b90506001600160a01b03811615611fc257600c5460405163d63b3c4960e01b815260048101919091523060248201526000604482018190529081906001600160a01b0384169063d63b3c499060640160006040518083038186803b158015611e4f57600080fd5b505afa158015611e63573d6000803e3d6000fd5b505050506040513d6000823e601f3d908101601f19168201604052611e8b9190810190612f66565b600c54604051630c7e663b60e11b815260048101919091523060248201529193509150730769fd68dfb93167989c6f7254cd0d766fb2841f906318fccc7690604401600060405180830381600087803b158015611ee757600080fd5b505af1158015611efb573d6000803e3d6000fd5b5050505060005b8251811015611fba576000828281518110611f2d57634e487b7160e01b600052603260045260246000fd5b60200260200101511115611fa857611fa8838281518110611f5e57634e487b7160e01b600052603260045260246000fd5b6020026020010151730b3f868e0be5597d5db7feb59e1cadbb0fdda50a848481518110611f9b57634e487b7160e01b600052603260045260246000fd5b60200260200101516120c6565b80611fb28161334a565b915050611f02565b505050612032565b600c54604051630c7e663b60e11b81526004810191909152306024820152730769fd68dfb93167989c6f7254cd0d766fb2841f906318fccc7690604401600060405180830381600087803b15801561201957600080fd5b505af115801561202d573d6000803e3d6000fd5b505050505b611237730b3f868e0be5597d5db7feb59e1cadbb0fdda50a612208565b60008160001904831182021561206d5763bac65e5b6000526004601cfd5b50670de0b6b3a764000091020490565b81601a5280603a5269a9059cbb00000000000060005260206000604460166000875af13d1560016000511417166120bc576390b8ec186000526004601cfd5b6000603a52505050565b60408051600280825260608201835260009260208301908036833701905050905083838260008151811061210a57634e487b7160e01b600052603260045260246000fd5b602002602001018360018151811061213257634e487b7160e01b600052603260045260246000fd5b6001600160a01b0393841660209182029290920101529116905261216b84731b02da8cb0d097eb8d57a175b88c7d8b4799750684612c73565b6040516338ed173960e01b8152731b02da8cb0d097eb8d57a175b88c7d8b47997506906338ed1739906121ab9085906000908690309042906004016131e2565b600060405180830381600087803b1580156121c557600080fd5b505af11580156121d9573d6000803e3d6000fd5b505050506040513d6000823e601f3d908101601f19168201604052612201919081019061302c565b5050505050565b60006110a36001600160a01b03831630612d15565b60008061222c836127106132fe565b905060008461223d836127106132a7565b61224791906132df565b905060008286612259896127106132df565b61226391906132df565b61226e9060046132df565b61227891906132df565b905060006123208261228a85806132df565b61229491906132a7565b70ffffffffffffffffffffffffffffffffff811160071b81811c68ffffffffffffffffff1060061b1781811c64ffffffffff1060051b1781811c62ffffff1060041b1781811c620100000160b5600192831c1b0260121c80830401811c80830401811c80830401811c80830401811c80830401811c80830401811c80830401901c908190048111900390565b9050600061232f8560026132df565b90508061233c85846132fe565b61234691906132bf565b9998505050505050505050565b600061237485731b02da8cb0d097eb8d57a175b88c7d8b4799750685612c73565b61239384731b02da8cb0d097eb8d57a175b88c7d8b4799750684612c73565b60405162e8e33760e81b81526001600160a01b03808716600483015285166024820152604481018490526064810183905260006084820181905260a48201523060c48201524260e4820152731b02da8cb0d097eb8d57a175b88c7d8b479975069063e8e337009061010401606060405180830381600087803b15801561241857600080fd5b505af115801561242c573d6000803e3d6000fd5b505050506040513d601f19601f820116820180604052508101906124509190613162565b979650505050505050565b600061246561290a565b60088190556040518181529091507f8a0df8ef054fae2c3d2d19a7b322e864870cc9fd3cb07fb9526309c596244bf49060200160405180910390a150565b60007812725dd1d243aba0e75fe645cc4873f9e65afe688c928e1f218311670de0b6b3a7640000021582026124e057637c5f487d6000526004601cfd5b50670de0b6b3a7640000919091020490565b6001600160a01b038316612519576040516317ba2d8b60e11b815260040160405180910390fd5b6001600160a01b03821661254057604051632cc8a69760e11b815260040160405180910390fd5b6001600160a01b0383811660008181526006602090815260408083209487168084529482529182902085905590518481527f8c5be1e5ebec7d5bd14f71427d1e84f3dd0314c0f7b2291e5b200ac8c7c3b925910160405180910390a3505050565b60007f00000000000000000000000000000000000000000000000000000000000000006001600160a01b031663f851a4406040518163ffffffff1660e01b815260040160206040518083038186803b1580156125fc57600080fd5b505afa158015612610573d6000803e3d6000fd5b505050506040513d601f19601f820116820180604052508101906126349190612e32565b9050336001600160a01b0382161461267057604051633e7c764160e21b81523360048201526001600160a01b0382166024820152604401611160565b50565b6001600160a01b03831661269a5760405163618a6e7d60e11b815260040160405180910390fd5b6001600160a01b0382166126c15760405163446ebce960e01b815260040160405180910390fd5b6001600160a01b038316600090815260056020526040902054818110156127055760405163355a868d60e01b81526004810182905260248101839052604401611160565b6001600160a01b0380851660009081526005602052604080822085850390559185168152908120805484929061273c9084906132a7565b92505081905550826001600160a01b0316846001600160a01b03167fddf252ad1be2c89b69c2b068fc378daa952ba7f163c4a11628f55a4df523b3ef8460405161278891815260200190565b60405180910390a350505050565b6000806001600160a01b0384166127d15760405163a5075cd160e01b81526001600160a01b0385166004820152326024820152604401611160565b60001983141561287757604051637d6af07960e01b81526001600160a01b0385811660048301527f00000000000000000000000000000000000000000000000000000000000000001690637d6af0799060240160206040518083038186803b15801561283c57600080fd5b505afa158015612850573d6000803e3d6000fd5b505050506040513d601f19601f8201168201806040525081019061287491906130cd565b92505b60006128a361288461120f565b6001600160a01b0387166000908152600560205260409020549061204f565b90506128af8185612bf9565b92509250505b9250929050565b6040516323b872dd600052836020528260405281606052602060006064601c6000895af13d1560016000511417166128fc57637939f4246000526004601cfd5b600060605260405250505050565b600c546040516393f1a40b60e01b81526004810191909152306024820152600090730769fd68dfb93167989c6f7254cd0d766fb2841f906393f1a40b90604401604080518083038186803b15801561296157600080fd5b505afa158015612975573d6000803e3d6000fd5b505050506040513d601f19601f82011682018060405250810190612999919061313f565b50919050565b600c54604051638dbdbe6d60e01b8152600481019190915260248101829052306044820152730769fd68dfb93167989c6f7254cd0d766fb2841f90638dbdbe6d906064015b600060405180830381600087803b1580156129fe57600080fd5b505af1158015612201573d6000803e3d6000fd5b6001600160a01b038216612a395760405163237813dd60e01b815260040160405180910390fd5b6001600160a01b03821660009081526005602052604081208054839290612a619084906132a7565b925050819055508060046000828254612a7a91906132a7565b90915550506040518181526001600160a01b038316906000907fddf252ad1be2c89b69c2b068fc378daa952ba7f163c4a11628f55a4df523b3ef906020015b60405180910390a35050565b82811080612ad257508181115b15612b005760405162ccc44d60e41b8152600481018490526024810183905260448101829052606401611160565b505050565b600c54604051630ad58d2f60e01b8152600481019190915260248101829052306044820152730769fd68dfb93167989c6f7254cd0d766fb2841f90630ad58d2f906064016129e4565b6001600160a01b038216612b7557604051630b5da42b60e01b815260040160405180910390fd5b6001600160a01b03821660009081526005602052604081208054839290612b9d9084906132fe565b925050819055508060046000828254612bb691906132fe565b90915550506040518181526000906001600160a01b038416907fddf252ad1be2c89b69c2b068fc378daa952ba7f163c4a11628f55a4df523b3ef90602001612ab9565b6000806000612c0661123d565b90506000612c14868361204f565b90506000612c2d6009548361204f90919063ffffffff16565b90506000612c4b600b54600a54612c4491906132a7565b889061204f565b9050808210612c645790039350600092506128b5915050565b600095500392506128b5915050565b604051636eb1769f60e11b81523060048201526001600160a01b03838116602483015282919085169063dd62ed3e9060440160206040518083038186803b158015612cbd57600080fd5b505afa158015612cd1573d6000803e3d6000fd5b505050506040513d601f19601f82011682018060405250810190612cf591906130cd565b10612cff57505050565b612b006001600160a01b03841683600019612d3e565b60006370a08231600052816020526020806024601c865afa601f3d111660205102905092915050565b81601a5280603a5269095ea7b300000000000060005260206000604460166000875af13d1560016000511417166120bc57633e3f8f736000526004601cfd5b600082601f830112612d8d578081fd5b81516020612da2612d9d83613283565b613252565b80838252828201915082860187848660051b8901011115612dc1578586fd5b855b85811015612ddf57815184529284019290840190600101612dc3565b5090979650505050505050565b80516dffffffffffffffffffffffffffff81168114612e0a57600080fd5b919050565b600060208284031215612e20578081fd5b8135612e2b81613391565b9392505050565b600060208284031215612e43578081fd5b8151612e2b81613391565b60008060408385031215612e60578081fd5b8235612e6b81613391565b91506020830135612e7b81613391565b809150509250929050565b600080600060608486031215612e9a578081fd5b8335612ea581613391565b92506020840135612eb581613391565b929592945050506040919091013590565b600080600080600080600060e0888a031215612ee0578283fd5b8735612eeb81613391565b96506020880135612efb81613391565b95506040880135945060608801359350608088013560ff81168114612f1e578384fd5b9699959850939692959460a0840135945060c09093013592915050565b60008060408385031215612f4d578182fd5b8235612f5881613391565b946020939093013593505050565b60008060408385031215612f78578182fd5b825167ffffffffffffffff80821115612f8f578384fd5b818501915085601f830112612fa2578384fd5b81516020612fb2612d9d83613283565b8083825282820191508286018a848660051b8901011115612fd1578889fd5b8896505b84871015612ffc578051612fe881613391565b835260019690960195918301918301612fd5565b5091880151919650909350505080821115613015578283fd5b5061302285828601612d7d565b9150509250929050565b60006020828403121561303d578081fd5b815167ffffffffffffffff811115613053578182fd5b61305f84828501612d7d565b949350505050565b60008060006060848603121561307b578283fd5b61308484612dec565b925061309260208501612dec565b9150604084015163ffffffff811681146130aa578182fd5b809150509250925092565b6000602082840312156130c6578081fd5b5035919050565b6000602082840312156130de578081fd5b5051919050565b600080604083850312156130f7578182fd5b823591506020830135612e7b81613391565b60008060006060848603121561311d578081fd5b83359250602084013561312f81613391565b915060408401356130aa81613391565b60008060408385031215613151578182fd5b505080516020909101519092909150565b600080600060608486031215613176578081fd5b8351925060208401519150604084015190509250925092565b6000602080835283518082850152825b818110156131bb5785810183015185820160400152820161319f565b818111156131cc5783604083870101525b50601f01601f1916929092016040019392505050565b600060a082018783526020878185015260a0604085015281875180845260c0860191508289019350845b818110156132315784516001600160a01b03168352938301939183019160010161320c565b50506001600160a01b03969096166060850152505050608001529392505050565b604051601f8201601f1916810167ffffffffffffffff8111828210171561327b5761327b61337b565b604052919050565b600067ffffffffffffffff82111561329d5761329d61337b565b5060051b60200190565b600082198211156132ba576132ba613365565b500190565b6000826132da57634e487b7160e01b81526012600452602481fd5b500490565b60008160001904831182151516156132f9576132f9613365565b500290565b60008282101561331057613310613365565b500390565b600181811c9082168061332957607f821691505b6020821081141561299957634e487b7160e01b600052602260045260246000fd5b600060001982141561335e5761335e613365565b5060010190565b634e487b7160e01b600052601160045260246000fd5b634e487b7160e01b600052604160045260246000fd5b6001600160a01b038116811461267057600080fdfea2646970667358221220d22dc6ae77eeaffde4146f457f11ea60e63599c4d54a234cbcccf074c8e35c1b64736f6c63430008040033",
  "linkReferences": {},
  "deployedLinkReferences": {}
}