{
  "_format": "hh-sol-artifact-1",
  "contractName": "CygnusCollateralVoid",
  "sourceName": "contracts/cygnus-core/CygnusCollateralVoid.sol",
  "abi": [
    {
      "inputs": [],
      "stateMutability": "nonpayable",
      "type": "constructor"
    },
    {
      "inputs": [],
      "name": "AllowanceOverflow",
      "type": "error"
    },
    {
      "inputs": [],
      "name": "AllowanceUnderflow",
      "type": "error"
    },
    {
      "inputs": [],
      "name": "CygnusCollateralControl__ParameterNotInRange",
      "type": "error"
    },
    {
      "inputs": [],
      "name": "CygnusCollateralModel__BorrowerCantBeAddressZero",
      "type": "error"
    },
    {
      "inputs": [],
      "name": "CygnusCollateralModel__BorrowerCantBeCollateral",
      "type": "error"
    },
    {
      "inputs": [],
      "name": "CygnusCollateralModel__PriceCantBeZero",
      "type": "error"
    },
    {
      "inputs": [],
      "name": "CygnusCollateralVoid__OnlyHarvesterAllowed",
      "type": "error"
    },
    {
      "inputs": [],
      "name": "CygnusTerminal__CantMintZeroShares",
      "type": "error"
    },
    {
      "inputs": [],
      "name": "CygnusTerminal__CantRedeemZeroAssets",
      "type": "error"
    },
    {
      "inputs": [],
      "name": "CygnusTerminal__CantSweepUnderlying",
      "type": "error"
    },
    {
      "inputs": [],
      "name": "CygnusTerminal__MsgSenderNotAdmin",
      "type": "error"
    },
    {
      "inputs": [],
      "name": "InsufficientAllowance",
      "type": "error"
    },
    {
      "inputs": [],
      "name": "InsufficientBalance",
      "type": "error"
    },
    {
      "inputs": [],
      "name": "InvalidPermit",
      "type": "error"
    },
    {
      "inputs": [],
      "name": "PermitExpired",
      "type": "error"
    },
    {
      "inputs": [],
      "name": "ReentrantCall",
      "type": "error"
    },
    {
      "inputs": [],
      "name": "TotalSupplyOverflow",
      "type": "error"
    },
    {
      "anonymous": false,
      "inputs": [
        {
          "indexed": true,
          "internalType": "address",
          "name": "owner",
          "type": "address"
        },
        {
          "indexed": true,
          "internalType": "address",
          "name": "spender",
          "type": "address"
        },
        {
          "indexed": false,
          "internalType": "uint256",
          "name": "amount",
          "type": "uint256"
        }
      ],
      "name": "Approval",
      "type": "event"
    },
    {
      "anonymous": false,
      "inputs": [
        {
          "indexed": false,
          "internalType": "address",
          "name": "underlying",
          "type": "address"
        },
        {
          "indexed": false,
          "internalType": "uint256",
          "name": "shuttleId",
          "type": "uint256"
        },
        {
          "indexed": false,
          "internalType": "address",
          "name": "sender",
          "type": "address"
        }
      ],
      "name": "ChargeVoid",
      "type": "event"
    },
    {
      "anonymous": false,
      "inputs": [
        {
          "indexed": true,
          "internalType": "address",
          "name": "sender",
          "type": "address"
        },
        {
          "indexed": true,
          "internalType": "address",
          "name": "recipient",
          "type": "address"
        },
        {
          "indexed": false,
          "internalType": "uint256",
          "name": "assets",
          "type": "uint256"
        },
        {
          "indexed": false,
          "internalType": "uint256",
          "name": "shares",
          "type": "uint256"
        }
      ],
      "name": "Deposit",
      "type": "event"
    },
    {
      "anonymous": false,
      "inputs": [
        {
          "indexed": false,
          "internalType": "uint256",
          "name": "oldDebtRatio",
          "type": "uint256"
        },
        {
          "indexed": false,
          "internalType": "uint256",
          "name": "newDebtRatio",
          "type": "uint256"
        }
      ],
      "name": "NewDebtRatio",
      "type": "event"
    },
    {
      "anonymous": false,
      "inputs": [
        {
          "indexed": false,
          "internalType": "contract ICygnusHarvester",
          "name": "oldHarvester",
          "type": "address"
        },
        {
          "indexed": false,
          "internalType": "contract ICygnusHarvester",
          "name": "newHarvester",
          "type": "address"
        }
      ],
      "name": "NewHarvester",
      "type": "event"
    },
    {
      "anonymous": false,
      "inputs": [
        {
          "indexed": false,
          "internalType": "uint256",
          "name": "oldLiquidationFee",
          "type": "uint256"
        },
        {
          "indexed": false,
          "internalType": "uint256",
          "name": "newLiquidationFee",
          "type": "uint256"
        }
      ],
      "name": "NewLiquidationFee",
      "type": "event"
    },
    {
      "anonymous": false,
      "inputs": [
        {
          "indexed": false,
          "internalType": "uint256",
          "name": "oldLiquidationIncentive",
          "type": "uint256"
        },
        {
          "indexed": false,
          "internalType": "uint256",
          "name": "newLiquidationIncentive",
          "type": "uint256"
        }
      ],
      "name": "NewLiquidationIncentive",
      "type": "event"
    },
    {
      "anonymous": false,
      "inputs": [
        {
          "indexed": true,
          "internalType": "address",
          "name": "reinvestor",
          "type": "address"
        },
        {
          "indexed": false,
          "internalType": "uint256",
          "name": "liquidity",
          "type": "uint256"
        },
        {
          "indexed": false,
          "internalType": "uint256",
          "name": "timestamp",
          "type": "uint256"
        }
      ],
      "name": "RechargeVoid",
      "type": "event"
    },
    {
      "anonymous": false,
      "inputs": [
        {
          "indexed": true,
          "internalType": "address",
          "name": "sender",
          "type": "address"
        },
        {
          "indexed": true,
          "internalType": "address",
          "name": "token",
          "type": "address"
        },
        {
          "indexed": false,
          "internalType": "uint256",
          "name": "balance",
          "type": "uint256"
        }
      ],
      "name": "SweepToken",
      "type": "event"
    },
    {
      "anonymous": false,
      "inputs": [
        {
          "indexed": false,
          "internalType": "uint160",
          "name": "totalBalance",
          "type": "uint160"
        }
      ],
      "name": "Sync",
      "type": "event"
    },
    {
      "anonymous": false,
      "inputs": [
        {
          "indexed": true,
          "internalType": "address",
          "name": "from",
          "type": "address"
        },
        {
          "indexed": true,
          "internalType": "address",
          "name": "to",
          "type": "address"
        },
        {
          "indexed": false,
          "internalType": "uint256",
          "name": "amount",
          "type": "uint256"
        }
      ],
      "name": "Transfer",
      "type": "event"
    },
    {
      "anonymous": false,
      "inputs": [
        {
          "indexed": true,
          "internalType": "address",
          "name": "sender",
          "type": "address"
        },
        {
          "indexed": true,
          "internalType": "address",
          "name": "recipient",
          "type": "address"
        },
        {
          "indexed": true,
          "internalType": "address",
          "name": "owner",
          "type": "address"
        },
        {
          "indexed": false,
          "internalType": "uint256",
          "name": "assets",
          "type": "uint256"
        },
        {
          "indexed": false,
          "internalType": "uint256",
          "name": "shares",
          "type": "uint256"
        }
      ],
      "name": "Withdraw",
      "type": "event"
    },
    {
      "inputs": [],
      "name": "DOMAIN_SEPARATOR",
      "outputs": [
        {
          "internalType": "bytes32",
          "name": "result",
          "type": "bytes32"
        }
      ],
      "stateMutability": "view",
      "type": "function"
    },
    {
      "inputs": [],
      "name": "PERMIT2",
      "outputs": [
        {
          "internalType": "contract IAllowanceTransfer",
          "name": "",
          "type": "address"
        }
      ],
      "stateMutability": "view",
      "type": "function"
    },
    {
      "inputs": [
        {
          "internalType": "address",
          "name": "owner",
          "type": "address"
        },
        {
          "internalType": "address",
          "name": "spender",
          "type": "address"
        }
      ],
      "name": "allowance",
      "outputs": [
        {
          "internalType": "uint256",
          "name": "result",
          "type": "uint256"
        }
      ],
      "stateMutability": "view",
      "type": "function"
    },
    {
      "inputs": [
        {
          "internalType": "address",
          "name": "spender",
          "type": "address"
        },
        {
          "internalType": "uint256",
          "name": "amount",
          "type": "uint256"
        }
      ],
      "name": "approve",
      "outputs": [
        {
          "internalType": "bool",
          "name": "",
          "type": "bool"
        }
      ],
      "stateMutability": "nonpayable",
      "type": "function"
    },
    {
      "inputs": [
        {
          "internalType": "address",
          "name": "owner",
          "type": "address"
        }
      ],
      "name": "balanceOf",
      "outputs": [
        {
          "internalType": "uint256",
          "name": "result",
          "type": "uint256"
        }
      ],
      "stateMutability": "view",
      "type": "function"
    },
    {
      "inputs": [],
      "name": "borrowable",
      "outputs": [
        {
          "internalType": "address",
          "name": "",
          "type": "address"
        }
      ],
      "stateMutability": "view",
      "type": "function"
    },
    {
      "inputs": [
        {
          "internalType": "address",
          "name": "borrower",
          "type": "address"
        },
        {
          "internalType": "uint256",
          "name": "borrowAmount",
          "type": "uint256"
        }
      ],
      "name": "canBorrow",
      "outputs": [
        {
          "internalType": "bool",
          "name": "",
          "type": "bool"
        }
      ],
      "stateMutability": "view",
      "type": "function"
    },
    {
      "inputs": [
        {
          "internalType": "address",
          "name": "borrower",
          "type": "address"
        },
        {
          "internalType": "uint256",
          "name": "redeemAmount",
          "type": "uint256"
        }
      ],
      "name": "canRedeem",
      "outputs": [
        {
          "internalType": "bool",
          "name": "",
          "type": "bool"
        }
      ],
      "stateMutability": "view",
      "type": "function"
    },
    {
      "inputs": [],
      "name": "chargeVoid",
      "outputs": [],
      "stateMutability": "nonpayable",
      "type": "function"
    },
    {
      "inputs": [],
      "name": "cygnusNebulaOracle",
      "outputs": [
        {
          "internalType": "contract ICygnusNebulaOracle",
          "name": "",
          "type": "address"
        }
      ],
      "stateMutability": "view",
      "type": "function"
    },
    {
      "inputs": [],
      "name": "debtRatio",
      "outputs": [
        {
          "internalType": "uint256",
          "name": "",
          "type": "uint256"
        }
      ],
      "stateMutability": "view",
      "type": "function"
    },
    {
      "inputs": [],
      "name": "decimals",
      "outputs": [
        {
          "internalType": "uint8",
          "name": "",
          "type": "uint8"
        }
      ],
      "stateMutability": "view",
      "type": "function"
    },
    {
      "inputs": [
        {
          "internalType": "address",
          "name": "spender",
          "type": "address"
        },
        {
          "internalType": "uint256",
          "name": "difference",
          "type": "uint256"
        }
      ],
      "name": "decreaseAllowance",
      "outputs": [
        {
          "internalType": "bool",
          "name": "",
          "type": "bool"
        }
      ],
      "stateMutability": "nonpayable",
      "type": "function"
    },
    {
      "inputs": [
        {
          "internalType": "uint256",
          "name": "assets",
          "type": "uint256"
        },
        {
          "internalType": "address",
          "name": "recipient",
          "type": "address"
        },
        {
          "components": [
            {
              "components": [
                {
                  "internalType": "address",
                  "name": "token",
                  "type": "address"
                },
                {
                  "internalType": "uint160",
                  "name": "amount",
                  "type": "uint160"
                },
                {
                  "internalType": "uint48",
                  "name": "expiration",
                  "type": "uint48"
                },
                {
                  "internalType": "uint48",
                  "name": "nonce",
                  "type": "uint48"
                }
              ],
              "internalType": "struct IAllowanceTransfer.PermitDetails",
              "name": "details",
              "type": "tuple"
            },
            {
              "internalType": "address",
              "name": "spender",
              "type": "address"
            },
            {
              "internalType": "uint256",
              "name": "sigDeadline",
              "type": "uint256"
            }
          ],
          "internalType": "struct IAllowanceTransfer.PermitSingle",
          "name": "_permit",
          "type": "tuple"
        },
        {
          "internalType": "bytes",
          "name": "signature",
          "type": "bytes"
        }
      ],
      "name": "deposit",
      "outputs": [
        {
          "internalType": "uint256",
          "name": "shares",
          "type": "uint256"
        }
      ],
      "stateMutability": "nonpayable",
      "type": "function"
    },
    {
      "inputs": [],
      "name": "exchangeRate",
      "outputs": [
        {
          "internalType": "uint256",
          "name": "",
          "type": "uint256"
        }
      ],
      "stateMutability": "view",
      "type": "function"
    },
    {
      "inputs": [
        {
          "internalType": "address",
          "name": "borrower",
          "type": "address"
        }
      ],
      "name": "getAccountLiquidity",
      "outputs": [
        {
          "internalType": "uint256",
          "name": "liquidity",
          "type": "uint256"
        },
        {
          "internalType": "uint256",
          "name": "shortfall",
          "type": "uint256"
        }
      ],
      "stateMutability": "view",
      "type": "function"
    },
    {
      "inputs": [
        {
          "internalType": "address",
          "name": "borrower",
          "type": "address"
        }
      ],
      "name": "getDebtRatio",
      "outputs": [
        {
          "internalType": "uint256",
          "name": "",
          "type": "uint256"
        }
      ],
      "stateMutability": "view",
      "type": "function"
    },
    {
      "inputs": [],
      "name": "getLPTokenPrice",
      "outputs": [
        {
          "internalType": "uint256",
          "name": "price",
          "type": "uint256"
        }
      ],
      "stateMutability": "view",
      "type": "function"
    },
    {
      "inputs": [],
      "name": "getRewards",
      "outputs": [
        {
          "internalType": "address[]",
          "name": "tokens",
          "type": "address[]"
        },
        {
          "internalType": "uint256[]",
          "name": "amounts",
          "type": "uint256[]"
        }
      ],
      "stateMutability": "nonpayable",
      "type": "function"
    },
    {
      "inputs": [],
      "name": "hangar18",
      "outputs": [
        {
          "internalType": "contract IHangar18",
          "name": "",
          "type": "address"
        }
      ],
      "stateMutability": "view",
      "type": "function"
    },
    {
      "inputs": [],
      "name": "harvester",
      "outputs": [
        {
          "internalType": "contract ICygnusHarvester",
          "name": "",
          "type": "address"
        }
      ],
      "stateMutability": "view",
      "type": "function"
    },
    {
      "inputs": [
        {
          "internalType": "address",
          "name": "spender",
          "type": "address"
        },
        {
          "internalType": "uint256",
          "name": "difference",
          "type": "uint256"
        }
      ],
      "name": "increaseAllowance",
      "outputs": [
        {
          "internalType": "bool",
          "name": "",
          "type": "bool"
        }
      ],
      "stateMutability": "nonpayable",
      "type": "function"
    },
    {
      "inputs": [],
      "name": "lastReinvest",
      "outputs": [
        {
          "internalType": "uint256",
          "name": "",
          "type": "uint256"
        }
      ],
      "stateMutability": "view",
      "type": "function"
    },
    {
      "inputs": [],
      "name": "liquidationFee",
      "outputs": [
        {
          "internalType": "uint256",
          "name": "",
          "type": "uint256"
        }
      ],
      "stateMutability": "view",
      "type": "function"
    },
    {
      "inputs": [],
      "name": "liquidationIncentive",
      "outputs": [
        {
          "internalType": "uint256",
          "name": "",
          "type": "uint256"
        }
      ],
      "stateMutability": "view",
      "type": "function"
    },
    {
      "inputs": [],
      "name": "name",
      "outputs": [
        {
          "internalType": "string",
          "name": "",
          "type": "string"
        }
      ],
      "stateMutability": "pure",
      "type": "function"
    },
    {
      "inputs": [
        {
          "internalType": "address",
          "name": "owner",
          "type": "address"
        }
      ],
      "name": "nonces",
      "outputs": [
        {
          "internalType": "uint256",
          "name": "result",
          "type": "uint256"
        }
      ],
      "stateMutability": "view",
      "type": "function"
    },
    {
      "inputs": [
        {
          "internalType": "address",
          "name": "owner",
          "type": "address"
        },
        {
          "internalType": "address",
          "name": "spender",
          "type": "address"
        },
        {
          "internalType": "uint256",
          "name": "value",
          "type": "uint256"
        },
        {
          "internalType": "uint256",
          "name": "deadline",
          "type": "uint256"
        },
        {
          "internalType": "uint8",
          "name": "v",
          "type": "uint8"
        },
        {
          "internalType": "bytes32",
          "name": "r",
          "type": "bytes32"
        },
        {
          "internalType": "bytes32",
          "name": "s",
          "type": "bytes32"
        }
      ],
      "name": "permit",
      "outputs": [],
      "stateMutability": "nonpayable",
      "type": "function"
    },
    {
      "inputs": [
        {
          "internalType": "uint256",
          "name": "shares",
          "type": "uint256"
        },
        {
          "internalType": "address",
          "name": "recipient",
          "type": "address"
        },
        {
          "internalType": "address",
          "name": "owner",
          "type": "address"
        }
      ],
      "name": "redeem",
      "outputs": [
        {
          "internalType": "uint256",
          "name": "assets",
          "type": "uint256"
        }
      ],
      "stateMutability": "nonpayable",
      "type": "function"
    },
    {
      "inputs": [
        {
          "internalType": "uint256",
          "name": "liquidity",
          "type": "uint256"
        }
      ],
      "name": "reinvestRewards_y7b",
      "outputs": [],
      "stateMutability": "nonpayable",
      "type": "function"
    },
    {
      "inputs": [],
      "name": "rewardToken",
      "outputs": [
        {
          "internalType": "address",
          "name": "",
          "type": "address"
        }
      ],
      "stateMutability": "pure",
      "type": "function"
    },
    {
      "inputs": [],
      "name": "rewarder",
      "outputs": [
        {
          "internalType": "address",
          "name": "",
          "type": "address"
        }
      ],
      "stateMutability": "view",
      "type": "function"
    },
    {
      "inputs": [
        {
          "internalType": "uint256",
          "name": "newDebtRatio",
          "type": "uint256"
        }
      ],
      "name": "setDebtRatio",
      "outputs": [],
      "stateMutability": "nonpayable",
      "type": "function"
    },
    {
      "inputs": [
        {
          "internalType": "contract ICygnusHarvester",
          "name": "_harvester",
          "type": "address"
        }
      ],
      "name": "setHarvester",
      "outputs": [],
      "stateMutability": "nonpayable",
      "type": "function"
    },
    {
      "inputs": [
        {
          "internalType": "uint256",
          "name": "newLiquidationFee",
          "type": "uint256"
        }
      ],
      "name": "setLiquidationFee",
      "outputs": [],
      "stateMutability": "nonpayable",
      "type": "function"
    },
    {
      "inputs": [
        {
          "internalType": "uint256",
          "name": "newLiquidationIncentive",
          "type": "uint256"
        }
      ],
      "name": "setLiquidationIncentive",
      "outputs": [],
      "stateMutability": "nonpayable",
      "type": "function"
    },
    {
      "inputs": [],
      "name": "shuttleId",
      "outputs": [
        {
          "internalType": "uint256",
          "name": "",
          "type": "uint256"
        }
      ],
      "stateMutability": "view",
      "type": "function"
    },
    {
      "inputs": [
        {
          "internalType": "address",
          "name": "token",
          "type": "address"
        }
      ],
      "name": "sweepToken",
      "outputs": [],
      "stateMutability": "nonpayable",
      "type": "function"
    },
    {
      "inputs": [],
      "name": "symbol",
      "outputs": [
        {
          "internalType": "string",
          "name": "",
          "type": "string"
        }
      ],
      "stateMutability": "view",
      "type": "function"
    },
    {
      "inputs": [],
      "name": "totalBalance",
      "outputs": [
        {
          "internalType": "uint160",
          "name": "",
          "type": "uint160"
        }
      ],
      "stateMutability": "view",
      "type": "function"
    },
    {
      "inputs": [],
      "name": "totalSupply",
      "outputs": [
        {
          "internalType": "uint256",
          "name": "result",
          "type": "uint256"
        }
      ],
      "stateMutability": "view",
      "type": "function"
    },
    {
      "inputs": [
        {
          "internalType": "address",
          "name": "to",
          "type": "address"
        },
        {
          "internalType": "uint256",
          "name": "amount",
          "type": "uint256"
        }
      ],
      "name": "transfer",
      "outputs": [
        {
          "internalType": "bool",
          "name": "",
          "type": "bool"
        }
      ],
      "stateMutability": "nonpayable",
      "type": "function"
    },
    {
      "inputs": [
        {
          "internalType": "address",
          "name": "from",
          "type": "address"
        },
        {
          "internalType": "address",
          "name": "to",
          "type": "address"
        },
        {
          "internalType": "uint256",
          "name": "amount",
          "type": "uint256"
        }
      ],
      "name": "transferFrom",
      "outputs": [
        {
          "internalType": "bool",
          "name": "",
          "type": "bool"
        }
      ],
      "stateMutability": "nonpayable",
      "type": "function"
    },
    {
      "inputs": [],
      "name": "underlying",
      "outputs": [
        {
          "internalType": "address",
          "name": "",
          "type": "address"
        }
      ],
      "stateMutability": "view",
      "type": "function"
    }
  ],
  "bytecode": "0x610140604081815234620002ba576000805460ff19166001178155635a412e5360e01b80845260a093909290848160048186335af180156200025c57839184918591869162000291575b5060e052865260c052608052670d2f13f7789f0000600155670e5d0f042e878000600255805192808452848460048186335af19384156200025c57839462000268575b506101009384528151908152848160048186335af19081156200025c57839162000223575b50815163b9a09fd560e01b81526001600160a01b0391821660048201526020816024817309236cff45047dbee6b921e00704bed6d6b8cf7e5afa93841562000218578094620001cf575b5050610120921682525191612f98938462000368853960805184818161045a0152612bc80152518381816105b30152612473015260c0518381816108c001528181610ad101528181610f34015281816111ef01528181611678015281816119f801528181611c2c01528181611dca015261244c015260e05183818161094a015261171a0152518281816103eb01528181612173015281816125d401526127ad0152518181816105440152818161091c01528181610a010152818161115501528181612a0901528181612b020152612ca90152f35b909193506020823d82116200020f575b81620001ee60209383620002bf565b810103126200020c57506200020390620002f9565b913880620000fb565b80fd5b3d9150620001df565b8351903d90823e3d90fd5b620002489150853d871162000254575b6200023f8183620002bf565b8101906200030e565b505050905038620000b1565b503d62000233565b505051903d90823e3d90fd5b62000284919450853d871162000254576200023f8183620002bf565b505091505092386200008c565b92505050620002b09150853d871162000254576200023f8183620002bf565b9150903862000049565b600080fd5b601f909101601f19168101906001600160401b03821190821017620002e357604052565b634e487b7160e01b600052604160045260246000fd5b51906001600160a01b0382168203620002ba57565b91908260a0910312620002ba5781516001600160a01b03908181168103620002ba57926200033f60208201620002f9565b926200034e60408301620002f9565b9260608301519081168103620002ba576080909201519056fe6040608081526004908136101561001557600080fd5b600091823560e01c8063031a5c82146120be5780630572b0cc14611fd757806306fdde0314611f90578063095ea7b314611ef257806315de1daa14611d3557806318160ddd14611cf05780631be1956014611b9b57806323b872dd14611a82578063313ce567146119875780633644e5151461194c57806339509351146118945780633ba0b9a9146118595780634bdaeac11461180757806351303622146117c55780635ec88c791461173d5780635f77f891146116e45780636afdd8501461169c5780636f307dc31461162d57806370a08231146115c75780637ecebe001461156157806381f5b6f41461149f5780638808e71c146110945780638c765e941461105757806395d89b4114610ec4578063a36a363014610e87578063a457c2d714610dce578063a843108114610d32578063a9059cbb14610c7d578063ad7a672f14610c29578063b5f3c95b14610bec578063ba08765214610977578063bcbc33201461086a578063cc1f8ffa14610802578063cea55f57146107c5578063cf8c8c441461075a578063d505accf146105d7578063d935bd9214610568578063dcc3e06e146104f9578063dd62ed3e1461047e578063e8a24e1d1461040f578063e99a6ac7146103a0578063eb6a887d14610304578063f7c618c1146102b35763fef0bec81461020557600080fd5b346102af5760207ffffffffffffffffffffffffffffffffffffffffffffffffffffffffffffffffc3601126102af5780359061023f612b83565b67016345785d8a000082116102885750907f87272249f1056ec16a68dd9255101358246dd26a796e2f0bc6b3a0ad02f2de4191600354908060035582519182526020820152a180f35b82517f0b169966000000000000000000000000000000000000000000000000000000008152fd5b8280fd5b50503461030057817ffffffffffffffffffffffffffffffffffffffffffffffffffffffffffffffffc3601126103005760209051733c8b650257cfb5f272f799f5e2b4e65093a11a058152f35b5080fd5b50346102af5760207ffffffffffffffffffffffffffffffffffffffffffffffffffffffffffffffffc3601126102af5780359061033f612b83565b670b1a2bc2ec5000008210801561038f575b6102885750907ff25d2243e4128e51523d8537f04f18c3e6390bbfc6323390a9a8e59b921ce04691600154908060015582519182526020820152a180f35b50670de0b6b3a76400008211610351565b50503461030057817ffffffffffffffffffffffffffffffffffffffffffffffffffffffffffffffffc360112610300576020905173ffffffffffffffffffffffffffffffffffffffff7f0000000000000000000000000000000000000000000000000000000000000000168152f35b50503461030057817ffffffffffffffffffffffffffffffffffffffffffffffffffffffffffffffffc360112610300576020905173ffffffffffffffffffffffffffffffffffffffff7f0000000000000000000000000000000000000000000000000000000000000000168152f35b50346102af57817ffffffffffffffffffffffffffffffffffffffffffffffffffffffffffffffffc3601126102af573573ffffffffffffffffffffffffffffffffffffffff9283821682036104f45760243593841684036104f4576020938452637f5e9f20600c52526034600c20549051908152f35b600080fd5b50503461030057817ffffffffffffffffffffffffffffffffffffffffffffffffffffffffffffffffc360112610300576020905173ffffffffffffffffffffffffffffffffffffffff7f0000000000000000000000000000000000000000000000000000000000000000168152f35b50503461030057817ffffffffffffffffffffffffffffffffffffffffffffffffffffffffffffffffc360112610300576020905173ffffffffffffffffffffffffffffffffffffffff7f0000000000000000000000000000000000000000000000000000000000000000168152f35b5090346102af5760e07ffffffffffffffffffffffffffffffffffffffffffffffffffffffffffffffffc3601126102af57813573ffffffffffffffffffffffffffffffffffffffff908181168091036104f4576024359182168092036104f4576084359360643560443560ff8716870361075657610653612d23565b9286519783421161074a576338377508600c52858a5260209485600c20948554956001870190557f6e71edae12b1b97f4d1f60370fef10105fa2faae0126114a169c64845d6126c98b5287878c0152888a8c015260608b019585875260808c015260a08b01526119018b52855260c0892088526042601e208a5260ff16845260a435875260c435606052838060808b60015afa50843d510361073f5750777f5e9f200000000000000000000000000000000000000000851786526034602c20557f8c5be1e5ebec7d5bd14f71427d1e84f3dd0314c0f7b2291e5b200ac8c7c3b9259190a3528060605280f35b63ddafbaef8952601cfd5b50631a15a3cc8952601cfd5b8780fd5b5082346107c257827ffffffffffffffffffffffffffffffffffffffffffffffffffffffffffffffffc3601126107c25750359073ffffffffffffffffffffffffffffffffffffffff821682036104f4576107b9602092602435906126d0565b91519115825250f35b80fd5b50503461030057817ffffffffffffffffffffffffffffffffffffffffffffffffffffffffffffffffc360112610300576020906001549051908152f35b5082346107c257827ffffffffffffffffffffffffffffffffffffffffffffffffffffffffffffffffc3601126107c25750359073ffffffffffffffffffffffffffffffffffffffff821682036104f45761086160209260243590612552565b90519015158152f35b50503461030057817ffffffffffffffffffffffffffffffffffffffffffffffffffffffffffffffffc3601126103005760607f98ccebae89f16f152c93c6a0cdc0d99913b9e62a9fc612471c21ffc299c389fd917f00000000000000000000000000000000000000000000000000000000000000009073ffffffffffffffffffffffffffffffffffffffff6109427fffffffffffffffffffffffffffffffffffffffffffffffffffffffffffffffff827f00000000000000000000000000000000000000000000000000000000000000001685612848565b8151921682527f000000000000000000000000000000000000000000000000000000000000000060208301523390820152a180f35b5090346102af5760607ffffffffffffffffffffffffffffffffffffffffffffffffffffffffffffffffc3601126102af578135916024359373ffffffffffffffffffffffffffffffffffffffff93848616918287036104f45760443593868516948581036104f457853303610b88575b6109f86109f26123c0565b85612e03565b978815610b60577f000000000000000000000000000000000000000000000000000000000000000016803b15610b5c5783809160248b8b5194859384927f2e1a7d4d000000000000000000000000000000000000000000000000000000008452898401525af18015610b5257908491610b3d575b50506387a211a2600c5282526020600c2090815490818511610b32575097610af59288928560209b0390556805345cdf77eb68f44c858154039055848152867fddf252ad1be2c89b69c2b068fc378daa952ba7f163c4a11628f55a4df523b3ef8b83a37f0000000000000000000000000000000000000000000000000000000000000000612f13565b835190858252868201527ffbde797d201c681b91056529119e0b02407c7bb96a4a2c75c01fc9667232c8db843392a4610b2c612c67565b51908152f35b63f4d678b88452601cfd5b81610b47916122d2565b6102af578238610a6c565b88513d86823e3d90fd5b8380fd5b8288517fe3e8d297000000000000000000000000000000000000000000000000000000008152fd5b33602052637f5e9f20600c528083526034600c2080547fffffffffffffffffffffffffffffffffffffffffffffffffffffffffffffffff8103610bcd575b50506109e7565b808611610be05785900390553880610bc6565b836313be252b8652601cfd5b50503461030057817ffffffffffffffffffffffffffffffffffffffffffffffffffffffffffffffffc360112610300576020906005549051908152f35b50503461030057817ffffffffffffffffffffffffffffffffffffffffffffffffffffffffffffffffc3601126103005773ffffffffffffffffffffffffffffffffffffffff6020925460081c169051908152f35b5091346107c257817ffffffffffffffffffffffffffffffffffffffffffffffffffffffffffffffffc3601126107c257823573ffffffffffffffffffffffffffffffffffffffff811681036104f457602435916387a211a2600c5233815260209485600c2090815490818611610b32575084900390555282600c208181540190558252600c5160601c337fddf252ad1be2c89b69c2b068fc378daa952ba7f163c4a11628f55a4df523b3ef8480a35160018152f35b50346102af5760207ffffffffffffffffffffffffffffffffffffffffffffffffffffffffffffffffc3601126102af57803590610d6d612b83565b670de0b6b3a764000082108015610dbd575b6102885750907faeba5a6c40a8ac138134bff1aaa65debf25971188a58804bad717f82f0ec131691600254908060025582519182526020820152a180f35b50670ff59ee833b300008211610d7f565b5091346107c257817ffffffffffffffffffffffffffffffffffffffffffffffffffffffffffffffffc3601126107c257823573ffffffffffffffffffffffffffffffffffffffff811681036104f45760243590602052637f5e9f20600c523382526034600c20908154818110610e7b5760209550038091558152602c5160601c907f8c5be1e5ebec7d5bd14f71427d1e84f3dd0314c0f7b2291e5b200ac8c7c3b925843392a35160018152f35b85638301ab388552601cfd5b50503461030057817ffffffffffffffffffffffffffffffffffffffffffffffffffffffffffffffffc360112610300576020906003549051908152f35b5090346102af57827ffffffffffffffffffffffffffffffffffffffffffffffffffffffffffffffffc3601126102af5782815180937f95d89b410000000000000000000000000000000000000000000000000000000082528173ffffffffffffffffffffffffffffffffffffffff7f0000000000000000000000000000000000000000000000000000000000000000165afa91821561104d578392610fc9575b610fc58383610fbb6027825180947f4379674c503a20000000000000000000000000000000000000000000000000006020830152610fab8151809260208686019101612265565b81010360078101855201836122d2565b5191829182612288565b0390f35b9091503d8084833e610fdb81836122d2565b810190602081830312610b5c5780519067ffffffffffffffff8211611049570181601f82011215610b5c5780519361101285612342565b9261101f855194856122d2565b858452602086840101116107c25750610fc5936110429160208085019101612265565b9038610f64565b8480fd5b81513d85823e3d90fd5b50503461030057817ffffffffffffffffffffffffffffffffffffffffffffffffffffffffffffffffc360112610300576020906002549051908152f35b5090346102af576101207ffffffffffffffffffffffffffffffffffffffffffffffffffffffffffffffffc3601126102af5781359260249384359473ffffffffffffffffffffffffffffffffffffffff92838716938488036103005760c07fffffffffffffffffffffffffffffffffffffffffffffffffffffffffffffffbc3601126103005761010480359167ffffffffffffffff91828411611049573660238501121561104957838a0135928311611049573686848601011161104957817f000000000000000000000000000000000000000000000000000000000000000016926111803085612f5c565b9481611365575b50505061119386612ecf565b6e22d473030f116ddee9f6b43ac78ba3803b15611361579060848b878094868e5197889687957f36c7851600000000000000000000000000000000000000000000000000000000875233908701528d30908701521660448501527f00000000000000000000000000000000000000000000000000000000000000001660648401525af18015610b525790849161134c575b5050611254916112416112469261123a88612aeb565b3090612f5c565b612516565b61124e6123c0565b90612e8c565b958615611325576805345cdf77eb68f44c54156112b2575b50505061127b84602096612d95565b825190815283858201527fdcbc1c05240f31ff3ad067ef1ee35ce4997762752e3a095284754544f4c709d7833392a3610b2c612c67565b7ffffffffffffffffffffffffffffffffffffffffffffffffffffffffffffffc188701979688116112fc5750505061127b60209580956112f66103e861dead612d95565b9661126c565b6011907f4e487b7100000000000000000000000000000000000000000000000000000000835252fd5b85517ff1ca48b1000000000000000000000000000000000000000000000000000000008152fd5b81611356916122d2565b6102af578238611224565b8580fd5b6e22d473030f116ddee9f6b43ac78ba391823b15610756578b51937f2b67b5700000000000000000000000000000000000000000000000000000000085528d3390860152604435868116809103611497578a86015260643586811680910361149757604486015260843565ffffffffffff9081811680910361149b57606487015260a43590811680910361149757608486015260c435868116809103611497578593847fffffffffffffffffffffffffffffffffffffffffffffffffffffffffffffffe0601f868f978f9a988186998d9960a489015260e43560c489015261010060e489015287015261012496018686013785858286010152011681010301925af1801561148d57611479575b8080611187565b84611486919592956122d2565b9238611472565b89513d87823e3d90fd5b8980fd5b8a80fd5b5090346102af5760207ffffffffffffffffffffffffffffffffffffffffffffffffffffffffffffffffc3601126102af5781359173ffffffffffffffffffffffffffffffffffffffff815416330361153a57507fc63644116f6ef474fe595238489f3d0d31a12c55be3a748d72269a62882b04c99061151d83612aeb565b4260055580519283524260208401523392a2611537612c67565b80f35b90517f9f91a891000000000000000000000000000000000000000000000000000000008152fd5b50346102af5760207ffffffffffffffffffffffffffffffffffffffffffffffffffffffffffffffffc3601126102af573573ffffffffffffffffffffffffffffffffffffffff811681036102af576020926338377508600c525281600c20549051908152f35b50346102af5760207ffffffffffffffffffffffffffffffffffffffffffffffffffffffffffffffffc3601126102af573573ffffffffffffffffffffffffffffffffffffffff811681036102af576020926387a211a2600c525281600c20549051908152f35b50503461030057817ffffffffffffffffffffffffffffffffffffffffffffffffffffffffffffffffc360112610300576020905173ffffffffffffffffffffffffffffffffffffffff7f0000000000000000000000000000000000000000000000000000000000000000168152f35b50503461030057817ffffffffffffffffffffffffffffffffffffffffffffffffffffffffffffffffc36011261030057602090516e22d473030f116ddee9f6b43ac78ba38152f35b50503461030057817ffffffffffffffffffffffffffffffffffffffffffffffffffffffffffffffffc36011261030057602090517f00000000000000000000000000000000000000000000000000000000000000008152f35b508290346103005760207ffffffffffffffffffffffffffffffffffffffffffffffffffffffffffffffffc36011261030057359073ffffffffffffffffffffffffffffffffffffffff821682036107c257507fffffffffffffffffffffffffffffffffffffffffffffffffffffffffffffffff6117b9916126d0565b82519182526020820152f35b50503461030057817ffffffffffffffffffffffffffffffffffffffffffffffffffffffffffffffffc36011261030057602090611800612407565b9051908152f35b5091346107c257807ffffffffffffffffffffffffffffffffffffffffffffffffffffffffffffffffc3601126107c2575073ffffffffffffffffffffffffffffffffffffffff60209254169051908152f35b50503461030057817ffffffffffffffffffffffffffffffffffffffffffffffffffffffffffffffffc360112610300576020906118006123c0565b5091346107c257817ffffffffffffffffffffffffffffffffffffffffffffffffffffffffffffffffc3601126107c257823573ffffffffffffffffffffffffffffffffffffffff8116810361030057602052637f5e9f20600c523381526034600c20928354906024358201918210611941575080602094558152602c5160601c907f8c5be1e5ebec7d5bd14f71427d1e84f3dd0314c0f7b2291e5b200ac8c7c3b925843392a35160018152f35b63f90670668352601cfd5b50503461030057817ffffffffffffffffffffffffffffffffffffffffffffffffffffffffffffffffc36011261030057602090611800612d23565b5091346107c257807ffffffffffffffffffffffffffffffffffffffffffffffffffffffffffffffffc3601126107c2576020825180947f313ce5670000000000000000000000000000000000000000000000000000000082528173ffffffffffffffffffffffffffffffffffffffff7f0000000000000000000000000000000000000000000000000000000000000000165afa928315611a76578193611a35575b60208460ff855191168152f35b9092506020813d8211611a6e575b81611a50602093836122d2565b810103126102af57519160ff831683036107c2575060ff6020611a28565b3d9150611a43565b509051903d90823e3d90fd5b5091346107c25760607ffffffffffffffffffffffffffffffffffffffffffffffffffffffffffffffffc3601126107c25773ffffffffffffffffffffffffffffffffffffffff833581811692918382036102af5760243590811681036102af576044359160601b92602096338852600c94637f5e9f20811786526034862080547fffffffffffffffffffffffffffffffffffffffffffffffffffffffffffffffff8103611b84575b50506387a211a217855287852090815490818611610b32575084900390555284822081815401905584525160601c907fddf252ad1be2c89b69c2b068fc378daa952ba7f163c4a11628f55a4df523b3ef8480a35160018152f35b808711610be05786900390556387a211a238611b2a565b509190346103005760207ffffffffffffffffffffffffffffffffffffffffffffffffffffffffffffffffc3601126103005773ffffffffffffffffffffffffffffffffffffffff908335828116918282036110495784549360ff851615611cc8577fffffffffffffffffffffffffffffffffffffffffffffffffffffffffffffff008095168655611c2a612b83565b7f0000000000000000000000000000000000000000000000000000000000000000168314611ca0576001949550611c6d611c643084612f5c565b80933390612f13565b519081527f6d25be279134f4ecaa4770aff0c3d916d9e7c5ef37b65ed95dbdba411f5d54d560203392a382541617815580f35b8590517fb5d8f391000000000000000000000000000000000000000000000000000000008152fd5b8682517f37ed32e8000000000000000000000000000000000000000000000000000000008152fd5b50503461030057817ffffffffffffffffffffffffffffffffffffffffffffffffffffffffffffffffc360112610300576020906805345cdf77eb68f44c549051908152f35b508290346103005760207ffffffffffffffffffffffffffffffffffffffffffffffffffffffffffffffffc36011261030057803573ffffffffffffffffffffffffffffffffffffffff90818116809103610b5c57611d94949194612b83565b825494817fffffffffffffffffffffffff00000000000000000000000000000000000000008716178455611dc6612996565b50927f0000000000000000000000000000000000000000000000000000000000000000821690865b8551811015611ebd578284611e038389612953565b511603611e66575b7fffffffffffffffffffffffffffffffffffffffffffffffffffffffffffffffff8114611e3a57600101611dee565b6024886011897f4e487b7100000000000000000000000000000000000000000000000000000000835252fd5b611e818885611e75848a612953565b5116868a541690612848565b611eb87fffffffffffffffffffffffffffffffffffffffffffffffffffffffffffffffff8686611eb1858b612953565b5116612848565b611e0b565b877f6a97a9e954ae4ef4c8ecc6c7dd8a1cbe668254132294ceb515db9a2e4faad7f5838b88888351921682526020820152a180f35b50346102af57817ffffffffffffffffffffffffffffffffffffffffffffffffffffffffffffffffc3601126102af573573ffffffffffffffffffffffffffffffffffffffff811681036102af5791602092602435908452637f5e9f20600c52338252806034600c20558152602c5160601c907f8c5be1e5ebec7d5bd14f71427d1e84f3dd0314c0f7b2291e5b200ac8c7c3b925843392a35160018152f35b50503461030057817ffffffffffffffffffffffffffffffffffffffffffffffffffffffffffffffffc36011261030057610fc590611fcc61237c565b905191829182612288565b5091346107c257807ffffffffffffffffffffffffffffffffffffffffffffffffffffffffffffffffc3601126107c25780549260ff841615612097575091612061927fffffffffffffffffffffffffffffffffffffffffffffffffffffffffffffff008092168155612047612996565b94906001809484541617835584519480865285019061221b565b6020848203818601528080875193848152019601925b8281106120845785870386f35b8351875295810195928101928401612077565b82517f37ed32e8000000000000000000000000000000000000000000000000000000008152fd5b5091346107c257602092837ffffffffffffffffffffffffffffffffffffffffffffffffffffffffffffffffc3601126103005773ffffffffffffffffffffffffffffffffffffffff813581811690818103611049579086916387a211a2600c528552602461214361213b84600c20546121356123c0565b90612e03565b612135612407565b94875194859384927f7d6af0790000000000000000000000000000000000000000000000000000000084528301527f0000000000000000000000000000000000000000000000000000000000000000165afa80156122115783906121e2575b6121bc91506121b660025460035490612660565b90612e4c565b90806121cb5750509051908152f35b6001546121dc935061124e91612e03565b90610b2c565b508481813d831161220a575b6121f881836122d2565b810103126102af576121bc90516121a2565b503d6121ee565b84513d85823e3d90fd5b90815180825260208080930193019160005b82811061223b575050505090565b835173ffffffffffffffffffffffffffffffffffffffff168552938101939281019260010161222d565b60005b8381106122785750506000910152565b8181015183820152602001612268565b7fffffffffffffffffffffffffffffffffffffffffffffffffffffffffffffffe0601f604093602084526122cb8151809281602088015260208888019101612265565b0116010190565b90601f7fffffffffffffffffffffffffffffffffffffffffffffffffffffffffffffffe0910116810190811067ffffffffffffffff82111761231357604052565b7f4e487b7100000000000000000000000000000000000000000000000000000000600052604160045260246000fd5b67ffffffffffffffff811161231357601f017fffffffffffffffffffffffffffffffffffffffffffffffffffffffffffffffe01660200190565b6123866012612342565b9061239460405192836122d2565b601282527f4379676e75733a20436f6c6c61746572616c00000000000000000000000000006020830152565b6805345cdf77eb68f44c54600090806123e1575050670de0b6b3a764000090565b73ffffffffffffffffffffffffffffffffffffffff612404925460081c16612e8c565b90565b604051907f17e5a1a100000000000000000000000000000000000000000000000000000000825260208260248173ffffffffffffffffffffffffffffffffffffffff807f00000000000000000000000000000000000000000000000000000000000000001660048301527f0000000000000000000000000000000000000000000000000000000000000000165afa91821561250a576000926124d7575b5081156124ad57565b60046040517fb0d5a772000000000000000000000000000000000000000000000000000000008152fd5b90916020823d8211612502575b816124f1602093836122d2565b810103126107c257505190386124a4565b3d91506124e4565b6040513d6000823e3d90fd5b9190820391821161252357565b7f4e487b7100000000000000000000000000000000000000000000000000000000600052601160045260246000fd5b9190916387a211a2600c526000928184526020600c205480821161265b5761258a61258260249493602093612516565b6121356123c0565b91604051938480927f7d6af07900000000000000000000000000000000000000000000000000000000825273ffffffffffffffffffffffffffffffffffffffff80911660048301527f0000000000000000000000000000000000000000000000000000000000000000165afa918215612650578492612616575b5061261092935061266d565b90501590565b9091506020813d8211612648575b81612631602093836122d2565b81010312610b5c5761261092935051908392612604565b3d9150612624565b6040513d86823e3d90fd5b505050565b9190820180921161252357565b61267c61268591612135612407565b60015490612e03565b9080156126b65761269f906121b660025460035490612660565b908181106126ae570390600090565b600092910390565b506126ca9061124e60025460035490612660565b90600090565b73ffffffffffffffffffffffffffffffffffffffff9291908381168061271a5760046040517fdcf58afa000000000000000000000000000000000000000000000000000000008152fd5b30811461281e577fffffffffffffffffffffffffffffffffffffffffffffffffffffffffffffffff8314612775575b506127719293506387a211a2600c5260005261276c6020600c20546121356123c0565b61266d565b9091565b60209192506024604051809681937f7d6af07900000000000000000000000000000000000000000000000000000000835260048301527f0000000000000000000000000000000000000000000000000000000000000000165afa92831561250a576000936127eb575b5090918291612771612749565b6020813d8211612816575b81612803602093836122d2565b81010312610b5c575192506127716127de565b3d91506127f6565b60046040517fbf8c13af000000000000000000000000000000000000000000000000000000008152fd5b90916040517fdd62ed3e00000000000000000000000000000000000000000000000000000000815230600482015260208160448173ffffffffffffffffffffffffffffffffffffffff808916602483015287165afa90811561250a57600091612922575b50101561291e5760446010600080936020956014527fffffffffffffffffffffffffffffffffffffffffffffffffffffffffffffffff6034526f095ea7b300000000000000000000000082525af13d15600160005114171615612910576000603452565b633e3f8f736000526004601cfd5b5050565b906020823d821161294b575b8161293b602093836122d2565b810103126107c2575051386128ac565b3d915061292e565b80518210156129675760209160051b010190565b7f4e487b7100000000000000000000000000000000000000000000000000000000600052603260045260246000fd5b60009060409081516129a883826122d2565b6001815260209384368184013781948451926129c486856122d2565b600184528136818601378395733c8b650257cfb5f272f799f5e2b4e65093a11a0591826129f18683612953565b5273ffffffffffffffffffffffffffffffffffffffff7f00000000000000000000000000000000000000000000000000000000000000001690813b1561136157612a7b83928794928593519586809481937f31279d3d000000000000000000000000000000000000000000000000000000008352306004840152886024840152604483019061221b565b03925af1908115612ae2575090612ac394939291612ac6575b5081602460108293306014526f70a0823100000000000000000000000087525afa601f3d111690510292612953565b52565b6024601085612ad886959786956122d2565b9593505050612a94565b513d86823e3d90fd5b73ffffffffffffffffffffffffffffffffffffffff7f00000000000000000000000000000000000000000000000000000000000000001690813b156104f4576000916044839260405194859384927fe2bbb15800000000000000000000000000000000000000000000000000000000845260048401528160248401525af1801561250a57612b765750565b6000612b81916122d2565b565b6040517ff851a44000000000000000000000000000000000000000000000000000000000815273ffffffffffffffffffffffffffffffffffffffff90602081600481857f0000000000000000000000000000000000000000000000000000000000000000165afa90811561250a57600091612c2d575b50163303612c0357565b60046040517f63ac75a2000000000000000000000000000000000000000000000000000000008152fd5b6020813d8211612c5f575b81612c45602093836122d2565b8101031261030057519082821682036107c2575038612bf9565b3d9150612c38565b7f3145c2b643834867f2c0a8cac8a48218307687911615c0ed01412a09dd163b66602073ffffffffffffffffffffffffffffffffffffffff612cd3612cce30837f000000000000000000000000000000000000000000000000000000000000000016612f5c565b612ecf565b906000547fffffffffffffffffffffff0000000000000000000000000000000000000000ff74ffffffffffffffffffffffffffffffffffffffff008460081b1691161760005560405191168152a1565b60a0604051612d3061237c565b602081519101207f8b73c3c69bb8fe3d512ecc4cf759cc79239f7b179b0ffacaa9a75d522b39400f825260208201527fc89efdaa54c0f20c7adf612882df0950f5a951637e0307cdcb4c672f298b8bc660408201524660608201523060808201522090565b6805345cdf77eb68f44c805490838201918210612df557556387a211a2600c526000526020600c20818154019055602052600c5160601c60007fddf252ad1be2c89b69c2b068fc378daa952ba7f163c4a11628f55a4df523b3ef602080a3565b63e5cfe9576000526004601cfd5b90807fffffffffffffffffffffffffffffffffffffffffffffffffffffffffffffffff0482118102612e3e57670de0b6b3a764000091020490565b63bac65e5b6000526004601cfd5b817fffffffffffffffffffffffffffffffffffffffffffffffffffffffffffffffff0481118202612e3e5702670de0b6b3a7640000808204910615150190565b670de0b6b3a7640000907812725dd1d243aba0e75fe645cc4873f9e65afe688c928e1f218111820215830215612ec157020490565b637c5f487d6000526004601cfd5b74010000000000000000000000000000000000000000811015612f055773ffffffffffffffffffffffffffffffffffffffff1690565b6335278d126000526004601cfd5b60109260209260145260345260446000938480936fa9059cbb00000000000000000000000082525af13d156001835114171615612f4f57603452565b6390b8ec1890526004601cfd5b602460106020939284936014526f70a082310000000000000000000000006000525afa601f3d1116602051029056fea164736f6c6343000811000a",
  "linkReferences": {},
  "deployedLinkReferences": {}
}