{
  "_format": "hh-sol-artifact-1",
  "contractName": "CygnusCollateralControl",
  "sourceName": "contracts/cygnus-core/CygnusCollateralControl.sol",
  "abi": [
    {
      "inputs": [],
      "stateMutability": "nonpayable",
      "type": "constructor"
    },
    {
      "inputs": [
        {
          "internalType": "uint256",
          "name": "min",
          "type": "uint256"
        },
        {
          "internalType": "uint256",
          "name": "max",
          "type": "uint256"
        },
        {
          "internalType": "uint256",
          "name": "value",
          "type": "uint256"
        }
      ],
      "name": "CygnusCollateralControl__ParameterNotInRange",
      "type": "error"
    },
    {
      "inputs": [],
      "name": "CygnusTerminal__CantMintZeroShares",
      "type": "error"
    },
    {
      "inputs": [],
      "name": "CygnusTerminal__CantRedeemZeroAssets",
      "type": "error"
    },
    {
      "inputs": [
        {
          "internalType": "address",
          "name": "token",
          "type": "address"
        },
        {
          "internalType": "address",
          "name": "underlying",
          "type": "address"
        }
      ],
      "name": "CygnusTerminal__CantSweepUnderlying",
      "type": "error"
    },
    {
      "inputs": [
        {
          "internalType": "address",
          "name": "sender",
          "type": "address"
        },
        {
          "internalType": "address",
          "name": "admin",
          "type": "address"
        }
      ],
      "name": "CygnusTerminal__MsgSenderNotAdmin",
      "type": "error"
    },
    {
      "inputs": [
        {
          "internalType": "address",
          "name": "owner",
          "type": "address"
        },
        {
          "internalType": "uint8",
          "name": "v",
          "type": "uint8"
        },
        {
          "internalType": "bytes32",
          "name": "r",
          "type": "bytes32"
        },
        {
          "internalType": "bytes32",
          "name": "s",
          "type": "bytes32"
        }
      ],
      "name": "ERC20Permit__InvalidSignature",
      "type": "error"
    },
    {
      "inputs": [],
      "name": "ERC20Permit__OwnerZeroAddress",
      "type": "error"
    },
    {
      "inputs": [
        {
          "internalType": "uint256",
          "name": "currentTime",
          "type": "uint256"
        },
        {
          "internalType": "uint256",
          "name": "deadline",
          "type": "uint256"
        }
      ],
      "name": "ERC20Permit__PermitExpired",
      "type": "error"
    },
    {
      "inputs": [],
      "name": "ERC20Permit__RecoveredOwnerZeroAddress",
      "type": "error"
    },
    {
      "inputs": [],
      "name": "ERC20Permit__SpenderZeroAddress",
      "type": "error"
    },
    {
      "inputs": [],
      "name": "ERC20__ApproveOwnerZeroAddress",
      "type": "error"
    },
    {
      "inputs": [],
      "name": "ERC20__ApproveSpenderZeroAddress",
      "type": "error"
    },
    {
      "inputs": [
        {
          "internalType": "uint256",
          "name": "accountBalance",
          "type": "uint256"
        },
        {
          "internalType": "uint256",
          "name": "burnAmount",
          "type": "uint256"
        }
      ],
      "name": "ERC20__BurnUnderflow",
      "type": "error"
    },
    {
      "inputs": [],
      "name": "ERC20__BurnZeroAddress",
      "type": "error"
    },
    {
      "inputs": [
        {
          "internalType": "uint256",
          "name": "allowance",
          "type": "uint256"
        },
        {
          "internalType": "uint256",
          "name": "amount",
          "type": "uint256"
        }
      ],
      "name": "ERC20__InsufficientAllowance",
      "type": "error"
    },
    {
      "inputs": [
        {
          "internalType": "uint256",
          "name": "senderBalance",
          "type": "uint256"
        },
        {
          "internalType": "uint256",
          "name": "amount",
          "type": "uint256"
        }
      ],
      "name": "ERC20__InsufficientBalance",
      "type": "error"
    },
    {
      "inputs": [],
      "name": "ERC20__MintZeroAddress",
      "type": "error"
    },
    {
      "inputs": [],
      "name": "ERC20__TransferRecipientZeroAddress",
      "type": "error"
    },
    {
      "inputs": [],
      "name": "ERC20__TransferSenderZeroAddress",
      "type": "error"
    },
    {
      "inputs": [],
      "name": "ReentrantCall",
      "type": "error"
    },
    {
      "anonymous": false,
      "inputs": [
        {
          "indexed": true,
          "internalType": "address",
          "name": "owner",
          "type": "address"
        },
        {
          "indexed": true,
          "internalType": "address",
          "name": "spender",
          "type": "address"
        },
        {
          "indexed": false,
          "internalType": "uint256",
          "name": "amount",
          "type": "uint256"
        }
      ],
      "name": "Approval",
      "type": "event"
    },
    {
      "anonymous": false,
      "inputs": [
        {
          "indexed": true,
          "internalType": "address",
          "name": "sender",
          "type": "address"
        },
        {
          "indexed": true,
          "internalType": "address",
          "name": "recipient",
          "type": "address"
        },
        {
          "indexed": false,
          "internalType": "uint256",
          "name": "assets",
          "type": "uint256"
        },
        {
          "indexed": false,
          "internalType": "uint256",
          "name": "shares",
          "type": "uint256"
        }
      ],
      "name": "Deposit",
      "type": "event"
    },
    {
      "anonymous": false,
      "inputs": [
        {
          "indexed": false,
          "internalType": "uint256",
          "name": "oldDebtRatio",
          "type": "uint256"
        },
        {
          "indexed": false,
          "internalType": "uint256",
          "name": "newDebtRatio",
          "type": "uint256"
        }
      ],
      "name": "NewDebtRatio",
      "type": "event"
    },
    {
      "anonymous": false,
      "inputs": [
        {
          "indexed": false,
          "internalType": "uint256",
          "name": "oldLiquidationFee",
          "type": "uint256"
        },
        {
          "indexed": false,
          "internalType": "uint256",
          "name": "newLiquidationFee",
          "type": "uint256"
        }
      ],
      "name": "NewLiquidationFee",
      "type": "event"
    },
    {
      "anonymous": false,
      "inputs": [
        {
          "indexed": false,
          "internalType": "uint256",
          "name": "oldLiquidationIncentive",
          "type": "uint256"
        },
        {
          "indexed": false,
          "internalType": "uint256",
          "name": "newLiquidationIncentive",
          "type": "uint256"
        }
      ],
      "name": "NewLiquidationIncentive",
      "type": "event"
    },
    {
      "anonymous": false,
      "inputs": [
        {
          "indexed": false,
          "internalType": "uint256",
          "name": "totalBalance",
          "type": "uint256"
        }
      ],
      "name": "Sync",
      "type": "event"
    },
    {
      "anonymous": false,
      "inputs": [
        {
          "indexed": true,
          "internalType": "address",
          "name": "from",
          "type": "address"
        },
        {
          "indexed": true,
          "internalType": "address",
          "name": "to",
          "type": "address"
        },
        {
          "indexed": false,
          "internalType": "uint256",
          "name": "amount",
          "type": "uint256"
        }
      ],
      "name": "Transfer",
      "type": "event"
    },
    {
      "anonymous": false,
      "inputs": [
        {
          "indexed": true,
          "internalType": "address",
          "name": "sender",
          "type": "address"
        },
        {
          "indexed": true,
          "internalType": "address",
          "name": "recipient",
          "type": "address"
        },
        {
          "indexed": true,
          "internalType": "address",
          "name": "owner",
          "type": "address"
        },
        {
          "indexed": false,
          "internalType": "uint256",
          "name": "assets",
          "type": "uint256"
        },
        {
          "indexed": false,
          "internalType": "uint256",
          "name": "shares",
          "type": "uint256"
        }
      ],
      "name": "Withdraw",
      "type": "event"
    },
    {
      "inputs": [],
      "name": "DOMAIN_SEPARATOR",
      "outputs": [
        {
          "internalType": "bytes32",
          "name": "",
          "type": "bytes32"
        }
      ],
      "stateMutability": "view",
      "type": "function"
    },
    {
      "inputs": [],
      "name": "PERMIT_TYPEHASH",
      "outputs": [
        {
          "internalType": "bytes32",
          "name": "",
          "type": "bytes32"
        }
      ],
      "stateMutability": "view",
      "type": "function"
    },
    {
      "inputs": [
        {
          "internalType": "address",
          "name": "owner",
          "type": "address"
        },
        {
          "internalType": "address",
          "name": "spender",
          "type": "address"
        }
      ],
      "name": "allowance",
      "outputs": [
        {
          "internalType": "uint256",
          "name": "",
          "type": "uint256"
        }
      ],
      "stateMutability": "view",
      "type": "function"
    },
    {
      "inputs": [
        {
          "internalType": "address",
          "name": "spender",
          "type": "address"
        },
        {
          "internalType": "uint256",
          "name": "amount",
          "type": "uint256"
        }
      ],
      "name": "approve",
      "outputs": [
        {
          "internalType": "bool",
          "name": "",
          "type": "bool"
        }
      ],
      "stateMutability": "nonpayable",
      "type": "function"
    },
    {
      "inputs": [
        {
          "internalType": "address",
          "name": "account",
          "type": "address"
        }
      ],
      "name": "balanceOf",
      "outputs": [
        {
          "internalType": "uint256",
          "name": "",
          "type": "uint256"
        }
      ],
      "stateMutability": "view",
      "type": "function"
    },
    {
      "inputs": [],
      "name": "borrowable",
      "outputs": [
        {
          "internalType": "address",
          "name": "",
          "type": "address"
        }
      ],
      "stateMutability": "view",
      "type": "function"
    },
    {
      "inputs": [],
      "name": "cygnusNebulaOracle",
      "outputs": [
        {
          "internalType": "contract ICygnusNebulaOracle",
          "name": "",
          "type": "address"
        }
      ],
      "stateMutability": "view",
      "type": "function"
    },
    {
      "inputs": [],
      "name": "debtRatio",
      "outputs": [
        {
          "internalType": "uint256",
          "name": "",
          "type": "uint256"
        }
      ],
      "stateMutability": "view",
      "type": "function"
    },
    {
      "inputs": [],
      "name": "decimals",
      "outputs": [
        {
          "internalType": "uint8",
          "name": "",
          "type": "uint8"
        }
      ],
      "stateMutability": "view",
      "type": "function"
    },
    {
      "inputs": [
        {
          "internalType": "uint256",
          "name": "assets",
          "type": "uint256"
        },
        {
          "internalType": "address",
          "name": "recipient",
          "type": "address"
        }
      ],
      "name": "deposit",
      "outputs": [
        {
          "internalType": "uint256",
          "name": "shares",
          "type": "uint256"
        }
      ],
      "stateMutability": "nonpayable",
      "type": "function"
    },
    {
      "inputs": [],
      "name": "exchangeRate",
      "outputs": [
        {
          "internalType": "uint256",
          "name": "",
          "type": "uint256"
        }
      ],
      "stateMutability": "view",
      "type": "function"
    },
    {
      "inputs": [],
      "name": "hangar18",
      "outputs": [
        {
          "internalType": "contract IHangar18",
          "name": "",
          "type": "address"
        }
      ],
      "stateMutability": "view",
      "type": "function"
    },
    {
      "inputs": [],
      "name": "liquidationFee",
      "outputs": [
        {
          "internalType": "uint256",
          "name": "",
          "type": "uint256"
        }
      ],
      "stateMutability": "view",
      "type": "function"
    },
    {
      "inputs": [],
      "name": "liquidationIncentive",
      "outputs": [
        {
          "internalType": "uint256",
          "name": "",
          "type": "uint256"
        }
      ],
      "stateMutability": "view",
      "type": "function"
    },
    {
      "inputs": [],
      "name": "name",
      "outputs": [
        {
          "internalType": "string",
          "name": "",
          "type": "string"
        }
      ],
      "stateMutability": "view",
      "type": "function"
    },
    {
      "inputs": [
        {
          "internalType": "address",
          "name": "",
          "type": "address"
        }
      ],
      "name": "nonces",
      "outputs": [
        {
          "internalType": "uint256",
          "name": "",
          "type": "uint256"
        }
      ],
      "stateMutability": "view",
      "type": "function"
    },
    {
      "inputs": [
        {
          "internalType": "address",
          "name": "owner",
          "type": "address"
        },
        {
          "internalType": "address",
          "name": "spender",
          "type": "address"
        },
        {
          "internalType": "uint256",
          "name": "value",
          "type": "uint256"
        },
        {
          "internalType": "uint256",
          "name": "deadline",
          "type": "uint256"
        },
        {
          "internalType": "uint8",
          "name": "v",
          "type": "uint8"
        },
        {
          "internalType": "bytes32",
          "name": "r",
          "type": "bytes32"
        },
        {
          "internalType": "bytes32",
          "name": "s",
          "type": "bytes32"
        }
      ],
      "name": "permit",
      "outputs": [],
      "stateMutability": "nonpayable",
      "type": "function"
    },
    {
      "inputs": [
        {
          "internalType": "uint256",
          "name": "shares",
          "type": "uint256"
        },
        {
          "internalType": "address",
          "name": "recipient",
          "type": "address"
        },
        {
          "internalType": "address",
          "name": "owner",
          "type": "address"
        }
      ],
      "name": "redeem",
      "outputs": [
        {
          "internalType": "uint256",
          "name": "assets",
          "type": "uint256"
        }
      ],
      "stateMutability": "nonpayable",
      "type": "function"
    },
    {
      "inputs": [
        {
          "internalType": "uint256",
          "name": "newDebtRatio",
          "type": "uint256"
        }
      ],
      "name": "setDebtRatio",
      "outputs": [],
      "stateMutability": "nonpayable",
      "type": "function"
    },
    {
      "inputs": [
        {
          "internalType": "uint256",
          "name": "newLiquidationFee",
          "type": "uint256"
        }
      ],
      "name": "setLiquidationFee",
      "outputs": [],
      "stateMutability": "nonpayable",
      "type": "function"
    },
    {
      "inputs": [
        {
          "internalType": "uint256",
          "name": "newLiquidationIncentive",
          "type": "uint256"
        }
      ],
      "name": "setLiquidationIncentive",
      "outputs": [],
      "stateMutability": "nonpayable",
      "type": "function"
    },
    {
      "inputs": [],
      "name": "shuttleId",
      "outputs": [
        {
          "internalType": "uint256",
          "name": "",
          "type": "uint256"
        }
      ],
      "stateMutability": "view",
      "type": "function"
    },
    {
      "inputs": [
        {
          "internalType": "address",
          "name": "token",
          "type": "address"
        }
      ],
      "name": "sweepToken",
      "outputs": [],
      "stateMutability": "nonpayable",
      "type": "function"
    },
    {
      "inputs": [],
      "name": "symbol",
      "outputs": [
        {
          "internalType": "string",
          "name": "",
          "type": "string"
        }
      ],
      "stateMutability": "view",
      "type": "function"
    },
    {
      "inputs": [],
      "name": "totalBalance",
      "outputs": [
        {
          "internalType": "uint256",
          "name": "",
          "type": "uint256"
        }
      ],
      "stateMutability": "view",
      "type": "function"
    },
    {
      "inputs": [],
      "name": "totalSupply",
      "outputs": [
        {
          "internalType": "uint256",
          "name": "",
          "type": "uint256"
        }
      ],
      "stateMutability": "view",
      "type": "function"
    },
    {
      "inputs": [
        {
          "internalType": "address",
          "name": "recipient",
          "type": "address"
        },
        {
          "internalType": "uint256",
          "name": "amount",
          "type": "uint256"
        }
      ],
      "name": "transfer",
      "outputs": [
        {
          "internalType": "bool",
          "name": "",
          "type": "bool"
        }
      ],
      "stateMutability": "nonpayable",
      "type": "function"
    },
    {
      "inputs": [
        {
          "internalType": "address",
          "name": "sender",
          "type": "address"
        },
        {
          "internalType": "address",
          "name": "recipient",
          "type": "address"
        },
        {
          "internalType": "uint256",
          "name": "amount",
          "type": "uint256"
        }
      ],
      "name": "transferFrom",
      "outputs": [
        {
          "internalType": "bool",
          "name": "",
          "type": "bool"
        }
      ],
      "stateMutability": "nonpayable",
      "type": "function"
    },
    {
      "inputs": [],
      "name": "underlying",
      "outputs": [
        {
          "internalType": "address",
          "name": "",
          "type": "address"
        }
      ],
      "stateMutability": "view",
      "type": "function"
    },
    {
      "inputs": [],
      "name": "version",
      "outputs": [
        {
          "internalType": "string",
          "name": "",
          "type": "string"
        }
      ],
      "stateMutability": "view",
      "type": "function"
    }
  ],
  "bytecode": "0x610140604052670d2f13f7789f0000600955670e398811bec68000600a553480156200002a57600080fd5b50604080518082018252601281527110de59db9d5cce8810dbdb1b185d195c985b60721b602080830191825283519081019093526000808452805460ff191660019081178255835193949391928592859285928592859285926200008e926200040a565b508151620000a49060029060208501906200040a565b506003805460ff191660ff92909216919091179055505060405146907f8b73c3c69bb8fe3d512ecc4cf759cc79239f7b179b0ffacaa9a75d522b39400f90620000f09060019062000601565b60408051918290038220828201825260058352640312e302e360dc1b6020938401528151928301939093528101919091527f06c015bd22b4c69690933c1058878ebdfef31f9aaae40bbe86d8a09fe1b2972c6060820152608081018290523060a082015260c00160408051601f1981840301815291905280516020909101206080525062000182925050620004069050565b6001600160a01b0316635a412e536040518163ffffffff1660e01b815260040160a060405180830381600087803b158015620001bd57600080fd5b505af1158015620001d2573d6000803e3d6000fd5b505050506040513d601f19601f82011682018060405250810190620001f89190620004b0565b610100526001600160601b0319606091821b811660e05292811b831660c0529290921b1660a05250600092508291506200023190503390565b6001600160a01b0316635a412e536040518163ffffffff1660e01b815260040160a060405180830381600087803b1580156200026c57600080fd5b505af115801562000281573d6000803e3d6000fd5b505050506040513d601f19601f82011682018060405250810190620002a79190620004b0565b50509250925050816001600160a01b03166395d89b416040518163ffffffff1660e01b815260040160006040518083038186803b158015620002e857600080fd5b505afa158015620002fd573d6000803e3d6000fd5b505050506040513d6000823e601f3d908101601f1916820160405262000327919081019062000523565b604051602001620003399190620006a4565b604051602081830303815290604052600290805190602001906200035f9291906200040a565b50816001600160a01b031663313ce5676040518163ffffffff1660e01b815260040160206040518083038186803b1580156200039a57600080fd5b505afa158015620003af573d6000803e3d6000fd5b505050506040513d601f19601f82011682018060405250810190620003d59190620005d7565b6003805460ff191660ff9290921691909117905560601b6001600160601b0319166101205250600060045562000774565b3390565b828054620004189062000708565b90600052602060002090601f0160209004810192826200043c576000855562000487565b82601f106200045757805160ff191683800117855562000487565b8280016001018555821562000487579182015b82811115620004875782518255916020019190600101906200046a565b506200049592915062000499565b5090565b5b808211156200049557600081556001016200049a565b600080600080600060a08688031215620004c8578081fd5b8551620004d5816200075b565b6020870151909550620004e8816200075b565b6040870151909450620004fb816200075b565b60608701519093506200050e816200075b565b80925050608086015190509295509295909350565b60006020828403121562000535578081fd5b81516001600160401b03808211156200054c578283fd5b818401915084601f83011262000560578283fd5b81518181111562000575576200057562000745565b604051601f8201601f19908116603f01168101908382118183101715620005a057620005a062000745565b81604052828152876020848701011115620005b9578586fd5b620005cc836020830160208801620006d5565b979650505050505050565b600060208284031215620005e9578081fd5b815160ff81168114620005fa578182fd5b9392505050565b600080835482600182811c9150808316806200061e57607f831692505b60208084108214156200063f57634e487b7160e01b87526022600452602487fd5b818015620006565760018114620006685762000696565b60ff1986168952848901965062000696565b60008a815260209020885b868110156200068e5781548b82015290850190830162000673565b505084890196505b509498975050505050505050565b66021bcb3a6281d160cd1b815260008251620006c8816007850160208701620006d5565b9190910160070192915050565b60005b83811015620006f2578181015183820152602001620006d8565b8381111562000702576000848401525b50505050565b600181811c908216806200071d57607f821691505b602082108114156200073f57634e487b7160e01b600052602260045260246000fd5b50919050565b634e487b7160e01b600052604160045260246000fd5b6001600160a01b03811681146200077157600080fd5b50565b60805160a05160601c60c05160601c60e05160601c610100516101205160601c61177a6200080160003960006104d6015260006103150152600061044f01526000818161034f015281816105f9015281816106500152818161079101528181610a40015261120c0152600081816104af0152610f540152600081816102aa0152610bf8015261177a6000f3fe608060405234801561001057600080fd5b50600436106101da5760003560e01c80638c765e9411610104578063cea55f57116100a2578063e8a24e1d11610071578063e8a24e1d146104aa578063e99a6ac7146104d1578063eb6a887d146104f8578063fef0bec81461050b57600080fd5b8063cea55f571461042e578063d505accf14610437578063d935bd921461044a578063dd62ed3e1461047157600080fd5b8063a8431081116100de578063a8431081146103ec578063a9059cbb146103ff578063ad7a672f14610412578063ba0876521461041b57600080fd5b80638c765e94146103d257806395d89b41146103db578063a36a3630146103e357600080fd5b80633644e5151161017c5780636e553f651161014b5780636e553f65146103375780636f307dc31461034a57806370a08231146103895780637ecebe00146103b257600080fd5b80633644e515146102a55780633ba0b9a9146102cc57806354fd4d50146102d45780635f77f8911461031057600080fd5b80631be19560116101b85780631be195601461023757806323b872dd1461024c57806330adf81f1461025f578063313ce5671461028657600080fd5b806306fdde03146101df578063095ea7b3146101fd57806318160ddd14610220575b600080fd5b6101e761051e565b6040516101f4919061165c565b60405180910390f35b61021061020b3660046115b4565b6105ac565b60405190151581526020016101f4565b61022960045481565b6040519081526020016101f4565b61024a610245366004611488565b6105c2565b005b61021061025a3660046114ff565b6106b4565b6102297f6e71edae12b1b97f4d1f60370fef10105fa2faae0126114a169c64845d6126c981565b6003546102939060ff1681565b60405160ff90911681526020016101f4565b6102297f000000000000000000000000000000000000000000000000000000000000000081565b610229610728565b6101e76040518060400160405280600581526020017f312e302e3000000000000000000000000000000000000000000000000000000081525081565b6102297f000000000000000000000000000000000000000000000000000000000000000081565b6102296103453660046115f7565b610756565b6103717f000000000000000000000000000000000000000000000000000000000000000081565b6040516001600160a01b0390911681526020016101f4565b610229610397366004611488565b6001600160a01b031660009081526005602052604090205490565b6102296103c0366004611488565b60076020526000908152604090205481565b610229600a5481565b6101e7610893565b610229600b5481565b61024a6103fa3660046115df565b6108a0565b61021061040d3660046115b4565b610943565b61022960085481565b61022961042936600461161b565b610950565b61022960095481565b61024a61044536600461153f565b610ae9565b6103717f000000000000000000000000000000000000000000000000000000000000000081565b61022961047f3660046114c7565b6001600160a01b03918216600090815260066020908152604080832093909416825291909152205490565b6103717f000000000000000000000000000000000000000000000000000000000000000081565b6103717f000000000000000000000000000000000000000000000000000000000000000081565b61024a6105063660046115df565b610d8c565b61024a6105193660046115df565b610e1a565b6001805461052b906116de565b80601f0160208091040260200160405190810160405280929190818152602001828054610557906116de565b80156105a45780601f10610579576101008083540402835291602001916105a4565b820191906000526020600020905b81548152906001019060200180831161058757829003601f168201915b505050505081565b60006105b9338484610ea1565b50600192915050565b60005460ff166105e5576040516306fda65d60e31b815260040160405180910390fd5b6000805460ff191690556105f7610f50565b7f00000000000000000000000000000000000000000000000000000000000000006001600160a01b0316816001600160a01b03161415610682576040516303b91a9160e31b81526001600160a01b0380831660048301527f00000000000000000000000000000000000000000000000000000000000000001660248201526044015b60405180910390fd5b600061068d82611022565b90506106a36001600160a01b038316338361104a565b50506000805460ff19166001179055565b60006106c1848484611093565b6001600160a01b038416600090815260066020908152604080832033845290915290205482811015610710576040516310c6013560e31b81526004810182905260248101849052604401610679565b61071d8533858403610ea1565b506001949350505050565b60045460009080156107465760085461074190826111b6565b610750565b670de0b6b3a76400005b91505090565b6000805460ff1661077a576040516306fda65d60e31b815260040160405180910390fd5b6000805460ff1916905561078c611205565b6107c17f00000000000000000000000000000000000000000000000000000000000000006001600160a01b031633308661126e565b6000806107df6107cf610728565b6107d984846116c7565b906111b6565b9250600083116108025760405163f1ca48b160e01b815260040160405180910390fd5b6004546108265761081761dead6103e86112bc565b6108236103e8846116c7565b92505b61083084846112bc565b60408051868152602081018590526001600160a01b0386169133917fdcbc1c05240f31ff3ad067ef1ee35ce4997762752e3a095284754544f4c709d7910160405180910390a35050610880611205565b6000805460ff1916600117905592915050565b6002805461052b906116de565b60005460ff166108c3576040516306fda65d60e31b815260040160405180910390fd5b6000805460ff191690556108d5610f50565b6108f0670de0b6b3a7640000670f43fc2c04ee00008361136f565b600a80549082905560408051828152602081018490527faeba5a6c40a8ac138134bff1aaa65debf25971188a58804bad717f82f0ec131691015b60405180910390a150506000805460ff19166001179055565b60006105b9338484611093565b6000805460ff16610974576040516306fda65d60e31b815260040160405180910390fd5b6000805460ff19169055610986611205565b336001600160a01b038316146109f4576001600160a01b038216600090815260066020908152604080832033845290915290205460001981146109f2576109cd85826116c7565b6001600160a01b03841660009081526006602090815260408083203384529091529020555b505b610a066109ff610728565b85906113af565b905060008111610a295760405163e3e8d29760e01b815260040160405180910390fd5b610a3382856113dd565b610a676001600160a01b037f000000000000000000000000000000000000000000000000000000000000000016848361104a565b816001600160a01b0316836001600160a01b0316610a823390565b6001600160a01b03167ffbde797d201c681b91056529119e0b02407c7bb96a4a2c75c01fc9667232c8db8488604051610ac5929190918252602082015260400190565b60405180910390a4610ad5611205565b6000805460ff191660011790559392505050565b6001600160a01b038716610b1057604051639a321bc760e01b815260040160405180910390fd5b6001600160a01b038616610b37576040516353fbd1d760e01b815260040160405180910390fd5b42841015610b615760405163075dd20f60e41b815242600482015260248101859052604401610679565b6001600160a01b0387811660008181526007602090815260408083208054600180820190925582517f6e71edae12b1b97f4d1f60370fef10105fa2faae0126114a169c64845d6126c98186015280840196909652958c166060860152608085018b905260a085019590955260c08085018a90528151808603909101815260e08501825280519083012061190160f01b6101008601527f000000000000000000000000000000000000000000000000000000000000000061010286015261012280860182905282518087039091018152610142860180845281519185019190912090859052610162860180845281905260ff8a166101828701526101a286018990526101c2860188905291519095919491926101e2808401939192601f1981019281900390910190855afa158015610c9c573d6000803e3d6000fd5b5050604051601f1901519150506001600160a01b038116610cd057604051637386dbbb60e11b815260040160405180910390fd5b896001600160a01b0316816001600160a01b031614610d245760405163a1d5f2ed60e01b81526001600160a01b038b16600482015260ff871660248201526044810186905260648101859052608401610679565b6001600160a01b038a81166000818152600660209081526040808320948e16808452948252918290208c905590518b81527f8c5be1e5ebec7d5bd14f71427d1e84f3dd0314c0f7b2291e5b200ac8c7c3b925910160405180910390a350505050505050505050565b60005460ff16610daf576040516306fda65d60e31b815260040160405180910390fd5b6000805460ff19169055610dc1610f50565b610ddc670b1a2bc2ec500000670de0b6b3a76400008361136f565b600980549082905560408051828152602081018490527ff25d2243e4128e51523d8537f04f18c3e6390bbfc6323390a9a8e59b921ce046910161092a565b60005460ff16610e3d576040516306fda65d60e31b815260040160405180910390fd5b6000805460ff19169055610e4f610f50565b610e63600067016345785d8a00008361136f565b600b80549082905560408051828152602081018490527f87272249f1056ec16a68dd9255101358246dd26a796e2f0bc6b3a0ad02f2de41910161092a565b6001600160a01b038316610ec8576040516317ba2d8b60e11b815260040160405180910390fd5b6001600160a01b038216610eef57604051632cc8a69760e11b815260040160405180910390fd5b6001600160a01b0383811660008181526006602090815260408083209487168084529482529182902085905590518481527f8c5be1e5ebec7d5bd14f71427d1e84f3dd0314c0f7b2291e5b200ac8c7c3b925910160405180910390a3505050565b60007f00000000000000000000000000000000000000000000000000000000000000006001600160a01b031663f851a4406040518163ffffffff1660e01b815260040160206040518083038186803b158015610fab57600080fd5b505afa158015610fbf573d6000803e3d6000fd5b505050506040513d601f19601f82011682018060405250810190610fe391906114ab565b9050336001600160a01b0382161461101f57604051633e7c764160e21b81523360048201526001600160a01b0382166024820152604401610679565b50565b60006370a08231600052306020526020806024601c855afa601f3d1116602051029050919050565b81601a5280603a5269a9059cbb00000000000060005260206000604460166000875af13d156001600051141716611089576390b8ec186000526004601cfd5b6000603a52505050565b6001600160a01b0383166110ba5760405163618a6e7d60e11b815260040160405180910390fd5b6001600160a01b0382166110e15760405163446ebce960e01b815260040160405180910390fd5b6001600160a01b038316600090815260056020526040902054818110156111255760405163355a868d60e01b81526004810182905260248101839052604401610679565b6001600160a01b0380851660009081526005602052604080822085850390559185168152908120805484929061115c9084906116af565b92505081905550826001600160a01b0316846001600160a01b03167fddf252ad1be2c89b69c2b068fc378daa952ba7f163c4a11628f55a4df523b3ef846040516111a891815260200190565b60405180910390a350505050565b60007812725dd1d243aba0e75fe645cc4873f9e65afe688c928e1f218311670de0b6b3a7640000021582026111f357637c5f487d6000526004601cfd5b50670de0b6b3a7640000919091020490565b60006112307f0000000000000000000000000000000000000000000000000000000000000000611022565b60088190556040518181529091507f8a0df8ef054fae2c3d2d19a7b322e864870cc9fd3cb07fb9526309c596244bf49060200160405180910390a150565b6040516323b872dd600052836020528260405281606052602060006064601c6000895af13d1560016000511417166112ae57637939f4246000526004601cfd5b600060605260405250505050565b6001600160a01b0382166112e35760405163237813dd60e01b815260040160405180910390fd5b6001600160a01b0382166000908152600560205260408120805483929061130b9084906116af565b92505081905550806004600082825461132491906116af565b90915550506040518181526001600160a01b038316906000907fddf252ad1be2c89b69c2b068fc378daa952ba7f163c4a11628f55a4df523b3ef906020015b60405180910390a35050565b8281108061137c57508181115b156113aa5760405162ccc44d60e41b8152600481018490526024810183905260448101829052606401610679565b505050565b6000816000190483118202156113cd5763bac65e5b6000526004601cfd5b50670de0b6b3a764000091020490565b6001600160a01b03821661140457604051630b5da42b60e01b815260040160405180910390fd5b6001600160a01b0382166000908152600560205260408120805483929061142c9084906116c7565b92505081905550806004600082825461144591906116c7565b90915550506040518181526000906001600160a01b038416907fddf252ad1be2c89b69c2b068fc378daa952ba7f163c4a11628f55a4df523b3ef90602001611363565b600060208284031215611499578081fd5b81356114a48161172f565b9392505050565b6000602082840312156114bc578081fd5b81516114a48161172f565b600080604083850312156114d9578081fd5b82356114e48161172f565b915060208301356114f48161172f565b809150509250929050565b600080600060608486031215611513578081fd5b833561151e8161172f565b9250602084013561152e8161172f565b929592945050506040919091013590565b600080600080600080600060e0888a031215611559578283fd5b87356115648161172f565b965060208801356115748161172f565b95506040880135945060608801359350608088013560ff81168114611597578384fd5b9699959850939692959460a0840135945060c09093013592915050565b600080604083850312156115c6578182fd5b82356115d18161172f565b946020939093013593505050565b6000602082840312156115f0578081fd5b5035919050565b60008060408385031215611609578182fd5b8235915060208301356114f48161172f565b60008060006060848603121561162f578283fd5b8335925060208401356116418161172f565b915060408401356116518161172f565b809150509250925092565b6000602080835283518082850152825b818110156116885785810183015185820160400152820161166c565b818111156116995783604083870101525b50601f01601f1916929092016040019392505050565b600082198211156116c2576116c2611719565b500190565b6000828210156116d9576116d9611719565b500390565b600181811c908216806116f257607f821691505b6020821081141561171357634e487b7160e01b600052602260045260246000fd5b50919050565b634e487b7160e01b600052601160045260246000fd5b6001600160a01b038116811461101f57600080fdfea26469706673582212204e8063aa0218dc2e773ddb125a076138e5b95fa81aa2f90c9fc2355df0db4bf764736f6c63430008040033",
  "linkReferences": {},
  "deployedLinkReferences": {}
}