{
  "_format": "hh-sol-artifact-1",
  "contractName": "CygnusCollateralControl",
  "sourceName": "contracts/cygnus-core/CygnusCollateralControl.sol",
  "abi": [
    {
      "inputs": [],
      "stateMutability": "nonpayable",
      "type": "constructor"
    },
    {
      "inputs": [
        {
          "internalType": "uint256",
          "name": "min",
          "type": "uint256"
        },
        {
          "internalType": "uint256",
          "name": "max",
          "type": "uint256"
        },
        {
          "internalType": "uint256",
          "name": "value",
          "type": "uint256"
        }
      ],
      "name": "CygnusCollateralControl__ParameterNotInRange",
      "type": "error"
    },
    {
      "inputs": [],
      "name": "CygnusTerminal__CantMintZeroShares",
      "type": "error"
    },
    {
      "inputs": [],
      "name": "CygnusTerminal__CantRedeemZeroAssets",
      "type": "error"
    },
    {
      "inputs": [
        {
          "internalType": "address",
          "name": "token",
          "type": "address"
        },
        {
          "internalType": "address",
          "name": "underlying",
          "type": "address"
        }
      ],
      "name": "CygnusTerminal__CantSweepUnderlying",
      "type": "error"
    },
    {
      "inputs": [
        {
          "internalType": "address",
          "name": "sender",
          "type": "address"
        },
        {
          "internalType": "address",
          "name": "admin",
          "type": "address"
        }
      ],
      "name": "CygnusTerminal__MsgSenderNotAdmin",
      "type": "error"
    },
    {
      "inputs": [
        {
          "internalType": "address",
          "name": "owner",
          "type": "address"
        },
        {
          "internalType": "uint8",
          "name": "v",
          "type": "uint8"
        },
        {
          "internalType": "bytes32",
          "name": "r",
          "type": "bytes32"
        },
        {
          "internalType": "bytes32",
          "name": "s",
          "type": "bytes32"
        }
      ],
      "name": "ERC20Permit__InvalidSignature",
      "type": "error"
    },
    {
      "inputs": [],
      "name": "ERC20Permit__OwnerZeroAddress",
      "type": "error"
    },
    {
      "inputs": [
        {
          "internalType": "uint256",
          "name": "currentTime",
          "type": "uint256"
        },
        {
          "internalType": "uint256",
          "name": "deadline",
          "type": "uint256"
        }
      ],
      "name": "ERC20Permit__PermitExpired",
      "type": "error"
    },
    {
      "inputs": [],
      "name": "ERC20Permit__RecoveredOwnerZeroAddress",
      "type": "error"
    },
    {
      "inputs": [],
      "name": "ERC20Permit__SpenderZeroAddress",
      "type": "error"
    },
    {
      "inputs": [],
      "name": "ERC20__ApproveOwnerZeroAddress",
      "type": "error"
    },
    {
      "inputs": [],
      "name": "ERC20__ApproveSpenderZeroAddress",
      "type": "error"
    },
    {
      "inputs": [
        {
          "internalType": "uint256",
          "name": "accountBalance",
          "type": "uint256"
        },
        {
          "internalType": "uint256",
          "name": "burnAmount",
          "type": "uint256"
        }
      ],
      "name": "ERC20__BurnUnderflow",
      "type": "error"
    },
    {
      "inputs": [],
      "name": "ERC20__BurnZeroAddress",
      "type": "error"
    },
    {
      "inputs": [
        {
          "internalType": "uint256",
          "name": "allowance",
          "type": "uint256"
        },
        {
          "internalType": "uint256",
          "name": "amount",
          "type": "uint256"
        }
      ],
      "name": "ERC20__InsufficientAllowance",
      "type": "error"
    },
    {
      "inputs": [
        {
          "internalType": "uint256",
          "name": "senderBalance",
          "type": "uint256"
        },
        {
          "internalType": "uint256",
          "name": "amount",
          "type": "uint256"
        }
      ],
      "name": "ERC20__InsufficientBalance",
      "type": "error"
    },
    {
      "inputs": [],
      "name": "ERC20__MintZeroAddress",
      "type": "error"
    },
    {
      "inputs": [],
      "name": "ERC20__TransferRecipientZeroAddress",
      "type": "error"
    },
    {
      "inputs": [],
      "name": "ERC20__TransferSenderZeroAddress",
      "type": "error"
    },
    {
      "inputs": [],
      "name": "ReentrantCall",
      "type": "error"
    },
    {
      "anonymous": false,
      "inputs": [
        {
          "indexed": true,
          "internalType": "address",
          "name": "owner",
          "type": "address"
        },
        {
          "indexed": true,
          "internalType": "address",
          "name": "spender",
          "type": "address"
        },
        {
          "indexed": false,
          "internalType": "uint256",
          "name": "amount",
          "type": "uint256"
        }
      ],
      "name": "Approval",
      "type": "event"
    },
    {
      "anonymous": false,
      "inputs": [
        {
          "indexed": true,
          "internalType": "address",
          "name": "sender",
          "type": "address"
        },
        {
          "indexed": true,
          "internalType": "address",
          "name": "recipient",
          "type": "address"
        },
        {
          "indexed": false,
          "internalType": "uint256",
          "name": "assets",
          "type": "uint256"
        },
        {
          "indexed": false,
          "internalType": "uint256",
          "name": "shares",
          "type": "uint256"
        }
      ],
      "name": "Deposit",
      "type": "event"
    },
    {
      "anonymous": false,
      "inputs": [
        {
          "indexed": false,
          "internalType": "uint256",
          "name": "oldDebtRatio",
          "type": "uint256"
        },
        {
          "indexed": false,
          "internalType": "uint256",
          "name": "newDebtRatio",
          "type": "uint256"
        }
      ],
      "name": "NewDebtRatio",
      "type": "event"
    },
    {
      "anonymous": false,
      "inputs": [
        {
          "indexed": false,
          "internalType": "uint256",
          "name": "oldLiquidationFee",
          "type": "uint256"
        },
        {
          "indexed": false,
          "internalType": "uint256",
          "name": "newLiquidationFee",
          "type": "uint256"
        }
      ],
      "name": "NewLiquidationFee",
      "type": "event"
    },
    {
      "anonymous": false,
      "inputs": [
        {
          "indexed": false,
          "internalType": "uint256",
          "name": "oldLiquidationIncentive",
          "type": "uint256"
        },
        {
          "indexed": false,
          "internalType": "uint256",
          "name": "newLiquidationIncentive",
          "type": "uint256"
        }
      ],
      "name": "NewLiquidationIncentive",
      "type": "event"
    },
    {
      "anonymous": false,
      "inputs": [
        {
          "indexed": false,
          "internalType": "uint256",
          "name": "totalBalance",
          "type": "uint256"
        }
      ],
      "name": "Sync",
      "type": "event"
    },
    {
      "anonymous": false,
      "inputs": [
        {
          "indexed": true,
          "internalType": "address",
          "name": "from",
          "type": "address"
        },
        {
          "indexed": true,
          "internalType": "address",
          "name": "to",
          "type": "address"
        },
        {
          "indexed": false,
          "internalType": "uint256",
          "name": "amount",
          "type": "uint256"
        }
      ],
      "name": "Transfer",
      "type": "event"
    },
    {
      "anonymous": false,
      "inputs": [
        {
          "indexed": true,
          "internalType": "address",
          "name": "sender",
          "type": "address"
        },
        {
          "indexed": true,
          "internalType": "address",
          "name": "recipient",
          "type": "address"
        },
        {
          "indexed": true,
          "internalType": "address",
          "name": "owner",
          "type": "address"
        },
        {
          "indexed": false,
          "internalType": "uint256",
          "name": "assets",
          "type": "uint256"
        },
        {
          "indexed": false,
          "internalType": "uint256",
          "name": "shares",
          "type": "uint256"
        }
      ],
      "name": "Withdraw",
      "type": "event"
    },
    {
      "inputs": [],
      "name": "DOMAIN_SEPARATOR",
      "outputs": [
        {
          "internalType": "bytes32",
          "name": "",
          "type": "bytes32"
        }
      ],
      "stateMutability": "view",
      "type": "function"
    },
    {
      "inputs": [],
      "name": "PERMIT_TYPEHASH",
      "outputs": [
        {
          "internalType": "bytes32",
          "name": "",
          "type": "bytes32"
        }
      ],
      "stateMutability": "view",
      "type": "function"
    },
    {
      "inputs": [
        {
          "internalType": "address",
          "name": "owner",
          "type": "address"
        },
        {
          "internalType": "address",
          "name": "spender",
          "type": "address"
        }
      ],
      "name": "allowance",
      "outputs": [
        {
          "internalType": "uint256",
          "name": "",
          "type": "uint256"
        }
      ],
      "stateMutability": "view",
      "type": "function"
    },
    {
      "inputs": [
        {
          "internalType": "address",
          "name": "spender",
          "type": "address"
        },
        {
          "internalType": "uint256",
          "name": "amount",
          "type": "uint256"
        }
      ],
      "name": "approve",
      "outputs": [
        {
          "internalType": "bool",
          "name": "",
          "type": "bool"
        }
      ],
      "stateMutability": "nonpayable",
      "type": "function"
    },
    {
      "inputs": [
        {
          "internalType": "address",
          "name": "account",
          "type": "address"
        }
      ],
      "name": "balanceOf",
      "outputs": [
        {
          "internalType": "uint256",
          "name": "",
          "type": "uint256"
        }
      ],
      "stateMutability": "view",
      "type": "function"
    },
    {
      "inputs": [],
      "name": "borrowable",
      "outputs": [
        {
          "internalType": "address",
          "name": "",
          "type": "address"
        }
      ],
      "stateMutability": "view",
      "type": "function"
    },
    {
      "inputs": [],
      "name": "cygnusNebulaOracle",
      "outputs": [
        {
          "internalType": "contract ICygnusNebulaOracle",
          "name": "",
          "type": "address"
        }
      ],
      "stateMutability": "view",
      "type": "function"
    },
    {
      "inputs": [],
      "name": "debtRatio",
      "outputs": [
        {
          "internalType": "uint256",
          "name": "",
          "type": "uint256"
        }
      ],
      "stateMutability": "view",
      "type": "function"
    },
    {
      "inputs": [],
      "name": "decimals",
      "outputs": [
        {
          "internalType": "uint8",
          "name": "",
          "type": "uint8"
        }
      ],
      "stateMutability": "view",
      "type": "function"
    },
    {
      "inputs": [
        {
          "internalType": "uint256",
          "name": "assets",
          "type": "uint256"
        },
        {
          "internalType": "address",
          "name": "recipient",
          "type": "address"
        }
      ],
      "name": "deposit",
      "outputs": [
        {
          "internalType": "uint256",
          "name": "shares",
          "type": "uint256"
        }
      ],
      "stateMutability": "nonpayable",
      "type": "function"
    },
    {
      "inputs": [],
      "name": "exchangeRate",
      "outputs": [
        {
          "internalType": "uint256",
          "name": "",
          "type": "uint256"
        }
      ],
      "stateMutability": "view",
      "type": "function"
    },
    {
      "inputs": [],
      "name": "hangar18",
      "outputs": [
        {
          "internalType": "contract IHangar18",
          "name": "",
          "type": "address"
        }
      ],
      "stateMutability": "view",
      "type": "function"
    },
    {
      "inputs": [],
      "name": "liquidationFee",
      "outputs": [
        {
          "internalType": "uint256",
          "name": "",
          "type": "uint256"
        }
      ],
      "stateMutability": "view",
      "type": "function"
    },
    {
      "inputs": [],
      "name": "liquidationIncentive",
      "outputs": [
        {
          "internalType": "uint256",
          "name": "",
          "type": "uint256"
        }
      ],
      "stateMutability": "view",
      "type": "function"
    },
    {
      "inputs": [],
      "name": "name",
      "outputs": [
        {
          "internalType": "string",
          "name": "",
          "type": "string"
        }
      ],
      "stateMutability": "view",
      "type": "function"
    },
    {
      "inputs": [
        {
          "internalType": "address",
          "name": "",
          "type": "address"
        }
      ],
      "name": "nonces",
      "outputs": [
        {
          "internalType": "uint256",
          "name": "",
          "type": "uint256"
        }
      ],
      "stateMutability": "view",
      "type": "function"
    },
    {
      "inputs": [
        {
          "internalType": "address",
          "name": "owner",
          "type": "address"
        },
        {
          "internalType": "address",
          "name": "spender",
          "type": "address"
        },
        {
          "internalType": "uint256",
          "name": "value",
          "type": "uint256"
        },
        {
          "internalType": "uint256",
          "name": "deadline",
          "type": "uint256"
        },
        {
          "internalType": "uint8",
          "name": "v",
          "type": "uint8"
        },
        {
          "internalType": "bytes32",
          "name": "r",
          "type": "bytes32"
        },
        {
          "internalType": "bytes32",
          "name": "s",
          "type": "bytes32"
        }
      ],
      "name": "permit",
      "outputs": [],
      "stateMutability": "nonpayable",
      "type": "function"
    },
    {
      "inputs": [
        {
          "internalType": "uint256",
          "name": "shares",
          "type": "uint256"
        },
        {
          "internalType": "address",
          "name": "recipient",
          "type": "address"
        },
        {
          "internalType": "address",
          "name": "owner",
          "type": "address"
        }
      ],
      "name": "redeem",
      "outputs": [
        {
          "internalType": "uint256",
          "name": "assets",
          "type": "uint256"
        }
      ],
      "stateMutability": "nonpayable",
      "type": "function"
    },
    {
      "inputs": [
        {
          "internalType": "uint256",
          "name": "newDebtRatio",
          "type": "uint256"
        }
      ],
      "name": "setDebtRatio",
      "outputs": [],
      "stateMutability": "nonpayable",
      "type": "function"
    },
    {
      "inputs": [
        {
          "internalType": "uint256",
          "name": "newLiquidationFee",
          "type": "uint256"
        }
      ],
      "name": "setLiquidationFee",
      "outputs": [],
      "stateMutability": "nonpayable",
      "type": "function"
    },
    {
      "inputs": [
        {
          "internalType": "uint256",
          "name": "newLiquidationIncentive",
          "type": "uint256"
        }
      ],
      "name": "setLiquidationIncentive",
      "outputs": [],
      "stateMutability": "nonpayable",
      "type": "function"
    },
    {
      "inputs": [],
      "name": "shuttleId",
      "outputs": [
        {
          "internalType": "uint256",
          "name": "",
          "type": "uint256"
        }
      ],
      "stateMutability": "view",
      "type": "function"
    },
    {
      "inputs": [
        {
          "internalType": "address",
          "name": "token",
          "type": "address"
        }
      ],
      "name": "sweepToken",
      "outputs": [],
      "stateMutability": "nonpayable",
      "type": "function"
    },
    {
      "inputs": [],
      "name": "symbol",
      "outputs": [
        {
          "internalType": "string",
          "name": "",
          "type": "string"
        }
      ],
      "stateMutability": "view",
      "type": "function"
    },
    {
      "inputs": [],
      "name": "totalBalance",
      "outputs": [
        {
          "internalType": "uint256",
          "name": "",
          "type": "uint256"
        }
      ],
      "stateMutability": "view",
      "type": "function"
    },
    {
      "inputs": [],
      "name": "totalSupply",
      "outputs": [
        {
          "internalType": "uint256",
          "name": "",
          "type": "uint256"
        }
      ],
      "stateMutability": "view",
      "type": "function"
    },
    {
      "inputs": [
        {
          "internalType": "address",
          "name": "recipient",
          "type": "address"
        },
        {
          "internalType": "uint256",
          "name": "amount",
          "type": "uint256"
        }
      ],
      "name": "transfer",
      "outputs": [
        {
          "internalType": "bool",
          "name": "",
          "type": "bool"
        }
      ],
      "stateMutability": "nonpayable",
      "type": "function"
    },
    {
      "inputs": [
        {
          "internalType": "address",
          "name": "sender",
          "type": "address"
        },
        {
          "internalType": "address",
          "name": "recipient",
          "type": "address"
        },
        {
          "internalType": "uint256",
          "name": "amount",
          "type": "uint256"
        }
      ],
      "name": "transferFrom",
      "outputs": [
        {
          "internalType": "bool",
          "name": "",
          "type": "bool"
        }
      ],
      "stateMutability": "nonpayable",
      "type": "function"
    },
    {
      "inputs": [],
      "name": "underlying",
      "outputs": [
        {
          "internalType": "address",
          "name": "",
          "type": "address"
        }
      ],
      "stateMutability": "view",
      "type": "function"
    },
    {
      "inputs": [],
      "name": "version",
      "outputs": [
        {
          "internalType": "string",
          "name": "",
          "type": "string"
        }
      ],
      "stateMutability": "view",
      "type": "function"
    }
  ],
  "bytecode": "0x610140604052670d2f13f7789f0000600955670e398811bec68000600a553480156200002a57600080fd5b50604080518082018252601281527110de59db9d5cce8810dbdb1b185d195c985b60721b602080830191825283519081019093526000808452805460ff191660019081178255835193949391928592859285928592859285926200008e926200040a565b508151620000a49060029060208501906200040a565b506003805460ff191660ff92909216919091179055505060405146907f8b73c3c69bb8fe3d512ecc4cf759cc79239f7b179b0ffacaa9a75d522b39400f90620000f09060019062000601565b60408051918290038220828201825260058352640312e302e360dc1b6020938401528151928301939093528101919091527f06c015bd22b4c69690933c1058878ebdfef31f9aaae40bbe86d8a09fe1b2972c6060820152608081018290523060a082015260c00160408051601f1981840301815291905280516020909101206080525062000182925050620004069050565b6001600160a01b0316635a412e536040518163ffffffff1660e01b815260040160a060405180830381600087803b158015620001bd57600080fd5b505af1158015620001d2573d6000803e3d6000fd5b505050506040513d601f19601f82011682018060405250810190620001f89190620004b0565b610100526001600160601b0319606091821b811660e05292811b831660c0529290921b1660a05250600092508291506200023190503390565b6001600160a01b0316635a412e536040518163ffffffff1660e01b815260040160a060405180830381600087803b1580156200026c57600080fd5b505af115801562000281573d6000803e3d6000fd5b505050506040513d601f19601f82011682018060405250810190620002a79190620004b0565b50509250925050816001600160a01b03166395d89b416040518163ffffffff1660e01b815260040160006040518083038186803b158015620002e857600080fd5b505afa158015620002fd573d6000803e3d6000fd5b505050506040513d6000823e601f3d908101601f1916820160405262000327919081019062000523565b604051602001620003399190620006a4565b604051602081830303815290604052600290805190602001906200035f9291906200040a565b50816001600160a01b031663313ce5676040518163ffffffff1660e01b815260040160206040518083038186803b1580156200039a57600080fd5b505afa158015620003af573d6000803e3d6000fd5b505050506040513d601f19601f82011682018060405250810190620003d59190620005d7565b6003805460ff191660ff9290921691909117905560601b6001600160601b0319166101205250600060045562000774565b3390565b828054620004189062000708565b90600052602060002090601f0160209004810192826200043c576000855562000487565b82601f106200045757805160ff191683800117855562000487565b8280016001018555821562000487579182015b82811115620004875782518255916020019190600101906200046a565b506200049592915062000499565b5090565b5b808211156200049557600081556001016200049a565b600080600080600060a08688031215620004c8578081fd5b8551620004d5816200075b565b6020870151909550620004e8816200075b565b6040870151909450620004fb816200075b565b60608701519093506200050e816200075b565b80925050608086015190509295509295909350565b60006020828403121562000535578081fd5b81516001600160401b03808211156200054c578283fd5b818401915084601f83011262000560578283fd5b81518181111562000575576200057562000745565b604051601f8201601f19908116603f01168101908382118183101715620005a057620005a062000745565b81604052828152876020848701011115620005b9578586fd5b620005cc836020830160208801620006d5565b979650505050505050565b600060208284031215620005e9578081fd5b815160ff81168114620005fa578182fd5b9392505050565b600080835482600182811c9150808316806200061e57607f831692505b60208084108214156200063f57634e487b7160e01b87526022600452602487fd5b818015620006565760018114620006685762000696565b60ff1986168952848901965062000696565b60008a815260209020885b868110156200068e5781548b82015290850190830162000673565b505084890196505b509498975050505050505050565b66021bcb3a6281d160cd1b815260008251620006c8816007850160208701620006d5565b9190910160070192915050565b60005b83811015620006f2578181015183820152602001620006d8565b8381111562000702576000848401525b50505050565b600181811c908216806200071d57607f821691505b602082108114156200073f57634e487b7160e01b600052602260045260246000fd5b50919050565b634e487b7160e01b600052604160045260246000fd5b6001600160a01b03811681146200077157600080fd5b50565b60805160a05160601c60c05160601c60e05160601c610100516101205160601c6117866200080160003960006104d6015260006103150152600061044f01526000818161034f015281816105f9015281816106500152818161078901528181610a3001526112f00152600081816104af0152610f440152600081816102aa0152610be801526117866000f3fe608060405234801561001057600080fd5b50600436106101da5760003560e01c80638c765e9411610104578063cea55f57116100a2578063e8a24e1d11610071578063e8a24e1d146104aa578063e99a6ac7146104d1578063eb6a887d146104f8578063fef0bec81461050b57600080fd5b8063cea55f571461042e578063d505accf14610437578063d935bd921461044a578063dd62ed3e1461047157600080fd5b8063a8431081116100de578063a8431081146103ec578063a9059cbb146103ff578063ad7a672f14610412578063ba0876521461041b57600080fd5b80638c765e94146103d257806395d89b41146103db578063a36a3630146103e357600080fd5b80633644e5151161017c5780636e553f651161014b5780636e553f65146103375780636f307dc31461034a57806370a08231146103895780637ecebe00146103b257600080fd5b80633644e515146102a55780633ba0b9a9146102cc57806354fd4d50146102d45780635f77f8911461031057600080fd5b80631be19560116101b85780631be195601461023757806323b872dd1461024c57806330adf81f1461025f578063313ce5671461028657600080fd5b806306fdde03146101df578063095ea7b3146101fd57806318160ddd14610220575b600080fd5b6101e761051e565b6040516101f49190611668565b60405180910390f35b61021061020b3660046115c0565b6105ac565b60405190151581526020016101f4565b61022960045481565b6040519081526020016101f4565b61024a610245366004611494565b6105c2565b005b61021061025a36600461150b565b6106b4565b6102297f6e71edae12b1b97f4d1f60370fef10105fa2faae0126114a169c64845d6126c981565b6003546102939060ff1681565b60405160ff90911681526020016101f4565b6102297f000000000000000000000000000000000000000000000000000000000000000081565b610229610728565b6101e76040518060400160405280600581526020017f312e302e3000000000000000000000000000000000000000000000000000000081525081565b6102297f000000000000000000000000000000000000000000000000000000000000000081565b610229610345366004611603565b610756565b6103717f000000000000000000000000000000000000000000000000000000000000000081565b6040516001600160a01b0390911681526020016101f4565b610229610397366004611494565b6001600160a01b031660009081526005602052604090205490565b6102296103c0366004611494565b60076020526000908152604090205481565b610229600a5481565b6101e761088b565b610229600b5481565b61024a6103fa3660046115eb565b610898565b61021061040d3660046115c0565b61093b565b61022960085481565b610229610429366004611627565b610948565b61022960095481565b61024a61044536600461154b565b610ad9565b6103717f000000000000000000000000000000000000000000000000000000000000000081565b61022961047f3660046114d3565b6001600160a01b03918216600090815260066020908152604080832093909416825291909152205490565b6103717f000000000000000000000000000000000000000000000000000000000000000081565b6103717f000000000000000000000000000000000000000000000000000000000000000081565b61024a6105063660046115eb565b610d7c565b61024a6105193660046115eb565b610e0a565b6001805461052b906116ea565b80601f0160208091040260200160405190810160405280929190818152602001828054610557906116ea565b80156105a45780601f10610579576101008083540402835291602001916105a4565b820191906000526020600020905b81548152906001019060200180831161058757829003601f168201915b505050505081565b60006105b9338484610e91565b50600192915050565b60005460ff166105e5576040516306fda65d60e31b815260040160405180910390fd5b6000805460ff191690556105f7610f40565b7f00000000000000000000000000000000000000000000000000000000000000006001600160a01b0316816001600160a01b03161415610682576040516303b91a9160e31b81526001600160a01b0380831660048301527f00000000000000000000000000000000000000000000000000000000000000001660248201526044015b60405180910390fd5b600061068d82611012565b90506106a36001600160a01b038316338361102d565b50506000805460ff19166001179055565b60006106c1848484611076565b6001600160a01b038416600090815260066020908152604080832033845290915290205482811015610710576040516310c6013560e31b81526004810182905260248101849052604401610679565b61071d8533858403610e91565b506001949350505050565b6004546000908015610746576008546107419082611199565b610750565b670de0b6b3a76400005b91505090565b6000805460ff1661077a576040516306fda65d60e31b815260040160405180910390fd5b6000805460ff191690556107b97f00000000000000000000000000000000000000000000000000000000000000006001600160a01b03163330866111e8565b6000806107d76107c7610728565b6107d184846116d3565b90611199565b9250600083116107fa5760405163f1ca48b160e01b815260040160405180910390fd5b60045461081e5761080f61dead6103e8611236565b61081b6103e8846116d3565b92505b6108288484611236565b60408051868152602081018590526001600160a01b0386169133917fdcbc1c05240f31ff3ad067ef1ee35ce4997762752e3a095284754544f4c709d7910160405180910390a350506108786112e9565b6000805460ff1916600117905592915050565b6002805461052b906116ea565b60005460ff166108bb576040516306fda65d60e31b815260040160405180910390fd5b6000805460ff191690556108cd610f40565b6108e8670de0b6b3a7640000670f43fc2c04ee000083611352565b600a80549082905560408051828152602081018490527faeba5a6c40a8ac138134bff1aaa65debf25971188a58804bad717f82f0ec131691015b60405180910390a150506000805460ff19166001179055565b60006105b9338484611076565b6000805460ff1661096c576040516306fda65d60e31b815260040160405180910390fd5b6000805460ff19169055336001600160a01b038316146109e4576001600160a01b038216600090815260066020908152604080832033845290915290205460001981146109e2576109bd85826116d3565b6001600160a01b03841660009081526006602090815260408083203384529091529020555b505b6109f66109ef610728565b8590611392565b905060008111610a195760405163e3e8d29760e01b815260040160405180910390fd5b610a2382856113c0565b610a576001600160a01b037f000000000000000000000000000000000000000000000000000000000000000016848361102d565b816001600160a01b0316836001600160a01b0316610a723390565b6001600160a01b03167ffbde797d201c681b91056529119e0b02407c7bb96a4a2c75c01fc9667232c8db8488604051610ab5929190918252602082015260400190565b60405180910390a4610ac56112e9565b6000805460ff191660011790559392505050565b6001600160a01b038716610b0057604051639a321bc760e01b815260040160405180910390fd5b6001600160a01b038616610b27576040516353fbd1d760e01b815260040160405180910390fd5b42841015610b515760405163075dd20f60e41b815242600482015260248101859052604401610679565b6001600160a01b0387811660008181526007602090815260408083208054600180820190925582517f6e71edae12b1b97f4d1f60370fef10105fa2faae0126114a169c64845d6126c98186015280840196909652958c166060860152608085018b905260a085019590955260c08085018a90528151808603909101815260e08501825280519083012061190160f01b6101008601527f000000000000000000000000000000000000000000000000000000000000000061010286015261012280860182905282518087039091018152610142860180845281519185019190912090859052610162860180845281905260ff8a166101828701526101a286018990526101c2860188905291519095919491926101e2808401939192601f1981019281900390910190855afa158015610c8c573d6000803e3d6000fd5b5050604051601f1901519150506001600160a01b038116610cc057604051637386dbbb60e11b815260040160405180910390fd5b896001600160a01b0316816001600160a01b031614610d145760405163a1d5f2ed60e01b81526001600160a01b038b16600482015260ff871660248201526044810186905260648101859052608401610679565b6001600160a01b038a81166000818152600660209081526040808320948e16808452948252918290208c905590518b81527f8c5be1e5ebec7d5bd14f71427d1e84f3dd0314c0f7b2291e5b200ac8c7c3b925910160405180910390a350505050505050505050565b60005460ff16610d9f576040516306fda65d60e31b815260040160405180910390fd5b6000805460ff19169055610db1610f40565b610dcc670b1a2bc2ec500000670de0b6b3a764000083611352565b600980549082905560408051828152602081018490527ff25d2243e4128e51523d8537f04f18c3e6390bbfc6323390a9a8e59b921ce0469101610922565b60005460ff16610e2d576040516306fda65d60e31b815260040160405180910390fd5b6000805460ff19169055610e3f610f40565b610e53600067016345785d8a000083611352565b600b80549082905560408051828152602081018490527f87272249f1056ec16a68dd9255101358246dd26a796e2f0bc6b3a0ad02f2de419101610922565b6001600160a01b038316610eb8576040516317ba2d8b60e11b815260040160405180910390fd5b6001600160a01b038216610edf57604051632cc8a69760e11b815260040160405180910390fd5b6001600160a01b0383811660008181526006602090815260408083209487168084529482529182902085905590518481527f8c5be1e5ebec7d5bd14f71427d1e84f3dd0314c0f7b2291e5b200ac8c7c3b925910160405180910390a3505050565b60007f00000000000000000000000000000000000000000000000000000000000000006001600160a01b031663f851a4406040518163ffffffff1660e01b815260040160206040518083038186803b158015610f9b57600080fd5b505afa158015610faf573d6000803e3d6000fd5b505050506040513d601f19601f82011682018060405250810190610fd391906114b7565b9050336001600160a01b0382161461100f57604051633e7c764160e21b81523360048201526001600160a01b0382166024820152604401610679565b50565b60006110276001600160a01b0383163061146b565b92915050565b81601a5280603a5269a9059cbb00000000000060005260206000604460166000875af13d15600160005114171661106c576390b8ec186000526004601cfd5b6000603a52505050565b6001600160a01b03831661109d5760405163618a6e7d60e11b815260040160405180910390fd5b6001600160a01b0382166110c45760405163446ebce960e01b815260040160405180910390fd5b6001600160a01b038316600090815260056020526040902054818110156111085760405163355a868d60e01b81526004810182905260248101839052604401610679565b6001600160a01b0380851660009081526005602052604080822085850390559185168152908120805484929061113f9084906116bb565b92505081905550826001600160a01b0316846001600160a01b03167fddf252ad1be2c89b69c2b068fc378daa952ba7f163c4a11628f55a4df523b3ef8460405161118b91815260200190565b60405180910390a350505050565b60007812725dd1d243aba0e75fe645cc4873f9e65afe688c928e1f218311670de0b6b3a7640000021582026111d657637c5f487d6000526004601cfd5b50670de0b6b3a7640000919091020490565b6040516323b872dd600052836020528260405281606052602060006064601c6000895af13d15600160005114171661122857637939f4246000526004601cfd5b600060605260405250505050565b6001600160a01b03821661125d5760405163237813dd60e01b815260040160405180910390fd5b6001600160a01b038216600090815260056020526040812080548392906112859084906116bb565b92505081905550806004600082825461129e91906116bb565b90915550506040518181526001600160a01b038316906000907fddf252ad1be2c89b69c2b068fc378daa952ba7f163c4a11628f55a4df523b3ef906020015b60405180910390a35050565b60006113147f0000000000000000000000000000000000000000000000000000000000000000611012565b60088190556040518181529091507f8a0df8ef054fae2c3d2d19a7b322e864870cc9fd3cb07fb9526309c596244bf49060200160405180910390a150565b8281108061135f57508181115b1561138d5760405162ccc44d60e41b8152600481018490526024810183905260448101829052606401610679565b505050565b6000816000190483118202156113b05763bac65e5b6000526004601cfd5b50670de0b6b3a764000091020490565b6001600160a01b0382166113e757604051630b5da42b60e01b815260040160405180910390fd5b6001600160a01b0382166000908152600560205260408120805483929061140f9084906116d3565b92505081905550806004600082825461142891906116d3565b90915550506040518181526000906001600160a01b038416907fddf252ad1be2c89b69c2b068fc378daa952ba7f163c4a11628f55a4df523b3ef906020016112dd565b60006370a08231600052816020526020806024601c865afa601f3d111660205102905092915050565b6000602082840312156114a5578081fd5b81356114b08161173b565b9392505050565b6000602082840312156114c8578081fd5b81516114b08161173b565b600080604083850312156114e5578081fd5b82356114f08161173b565b915060208301356115008161173b565b809150509250929050565b60008060006060848603121561151f578081fd5b833561152a8161173b565b9250602084013561153a8161173b565b929592945050506040919091013590565b600080600080600080600060e0888a031215611565578283fd5b87356115708161173b565b965060208801356115808161173b565b95506040880135945060608801359350608088013560ff811681146115a3578384fd5b9699959850939692959460a0840135945060c09093013592915050565b600080604083850312156115d2578182fd5b82356115dd8161173b565b946020939093013593505050565b6000602082840312156115fc578081fd5b5035919050565b60008060408385031215611615578182fd5b8235915060208301356115008161173b565b60008060006060848603121561163b578283fd5b83359250602084013561164d8161173b565b9150604084013561165d8161173b565b809150509250925092565b6000602080835283518082850152825b8181101561169457858101830151858201604001528201611678565b818111156116a55783604083870101525b50601f01601f1916929092016040019392505050565b600082198211156116ce576116ce611725565b500190565b6000828210156116e5576116e5611725565b500390565b600181811c908216806116fe57607f821691505b6020821081141561171f57634e487b7160e01b600052602260045260246000fd5b50919050565b634e487b7160e01b600052601160045260246000fd5b6001600160a01b038116811461100f57600080fdfea26469706673582212203e08c455325882774868f34073ab33f06e4432df61fb30d2b951ad5f848aff0b64736f6c63430008040033",
  "linkReferences": {},
  "deployedLinkReferences": {}
}