{
  "_format": "hh-sol-artifact-1",
  "contractName": "CygnusCollateralControl",
  "sourceName": "contracts/cygnus-core/CygnusCollateralControl.sol",
  "abi": [
    {
      "inputs": [],
      "stateMutability": "nonpayable",
      "type": "constructor"
    },
    {
      "inputs": [],
      "name": "CygnusCollateralControl__ParameterNotInRange",
      "type": "error"
    },
    {
      "inputs": [],
      "name": "CygnusTerminal__CantMintZeroShares",
      "type": "error"
    },
    {
      "inputs": [],
      "name": "CygnusTerminal__CantRedeemZeroAssets",
      "type": "error"
    },
    {
      "inputs": [],
      "name": "CygnusTerminal__CantSweepUnderlying",
      "type": "error"
    },
    {
      "inputs": [],
      "name": "CygnusTerminal__MsgSenderNotAdmin",
      "type": "error"
    },
    {
      "inputs": [
        {
          "internalType": "address",
          "name": "owner",
          "type": "address"
        },
        {
          "internalType": "uint8",
          "name": "v",
          "type": "uint8"
        },
        {
          "internalType": "bytes32",
          "name": "r",
          "type": "bytes32"
        },
        {
          "internalType": "bytes32",
          "name": "s",
          "type": "bytes32"
        }
      ],
      "name": "ERC20Permit_InvalidSignature",
      "type": "error"
    },
    {
      "inputs": [],
      "name": "ERC20Permit_OwnerZeroAddress",
      "type": "error"
    },
    {
      "inputs": [
        {
          "internalType": "uint256",
          "name": "currentTime",
          "type": "uint256"
        },
        {
          "internalType": "uint256",
          "name": "deadline",
          "type": "uint256"
        }
      ],
      "name": "ERC20Permit_PermitExpired",
      "type": "error"
    },
    {
      "inputs": [],
      "name": "ERC20Permit_RecoveredOwnerZeroAddress",
      "type": "error"
    },
    {
      "inputs": [],
      "name": "ERC20Permit_SpenderZeroAddress",
      "type": "error"
    },
    {
      "inputs": [],
      "name": "ERC20_ApproveOwnerZeroAddress",
      "type": "error"
    },
    {
      "inputs": [],
      "name": "ERC20_ApproveSpenderZeroAddress",
      "type": "error"
    },
    {
      "inputs": [],
      "name": "ERC20_BurnHolderZeroAddress",
      "type": "error"
    },
    {
      "inputs": [
        {
          "internalType": "uint256",
          "name": "senderBalance",
          "type": "uint256"
        },
        {
          "internalType": "uint256",
          "name": "transferAmount",
          "type": "uint256"
        }
      ],
      "name": "ERC20_FromInsufficientBalance",
      "type": "error"
    },
    {
      "inputs": [
        {
          "internalType": "address",
          "name": "owner",
          "type": "address"
        },
        {
          "internalType": "address",
          "name": "spender",
          "type": "address"
        },
        {
          "internalType": "uint256",
          "name": "allowance",
          "type": "uint256"
        },
        {
          "internalType": "uint256",
          "name": "transferAmount",
          "type": "uint256"
        }
      ],
      "name": "ERC20_InsufficientAllowance",
      "type": "error"
    },
    {
      "inputs": [],
      "name": "ERC20_MintBeneficiaryZeroAddress",
      "type": "error"
    },
    {
      "inputs": [],
      "name": "ERC20_TransferFromZeroAddress",
      "type": "error"
    },
    {
      "inputs": [],
      "name": "ERC20_TransferToZeroAddress",
      "type": "error"
    },
    {
      "inputs": [],
      "name": "ReentrantCall",
      "type": "error"
    },
    {
      "anonymous": false,
      "inputs": [
        {
          "indexed": true,
          "internalType": "address",
          "name": "owner",
          "type": "address"
        },
        {
          "indexed": true,
          "internalType": "address",
          "name": "spender",
          "type": "address"
        },
        {
          "indexed": false,
          "internalType": "uint256",
          "name": "value",
          "type": "uint256"
        }
      ],
      "name": "Approval",
      "type": "event"
    },
    {
      "anonymous": false,
      "inputs": [
        {
          "indexed": true,
          "internalType": "address",
          "name": "sender",
          "type": "address"
        },
        {
          "indexed": true,
          "internalType": "address",
          "name": "recipient",
          "type": "address"
        },
        {
          "indexed": false,
          "internalType": "uint256",
          "name": "assets",
          "type": "uint256"
        },
        {
          "indexed": false,
          "internalType": "uint256",
          "name": "shares",
          "type": "uint256"
        }
      ],
      "name": "Deposit",
      "type": "event"
    },
    {
      "anonymous": false,
      "inputs": [
        {
          "indexed": false,
          "internalType": "uint256",
          "name": "oldDebtRatio",
          "type": "uint256"
        },
        {
          "indexed": false,
          "internalType": "uint256",
          "name": "newDebtRatio",
          "type": "uint256"
        }
      ],
      "name": "NewDebtRatio",
      "type": "event"
    },
    {
      "anonymous": false,
      "inputs": [
        {
          "indexed": false,
          "internalType": "uint256",
          "name": "oldLiquidationFee",
          "type": "uint256"
        },
        {
          "indexed": false,
          "internalType": "uint256",
          "name": "newLiquidationFee",
          "type": "uint256"
        }
      ],
      "name": "NewLiquidationFee",
      "type": "event"
    },
    {
      "anonymous": false,
      "inputs": [
        {
          "indexed": false,
          "internalType": "uint256",
          "name": "oldLiquidationIncentive",
          "type": "uint256"
        },
        {
          "indexed": false,
          "internalType": "uint256",
          "name": "newLiquidationIncentive",
          "type": "uint256"
        }
      ],
      "name": "NewLiquidationIncentive",
      "type": "event"
    },
    {
      "anonymous": false,
      "inputs": [
        {
          "indexed": false,
          "internalType": "uint160",
          "name": "totalBalance",
          "type": "uint160"
        }
      ],
      "name": "Sync",
      "type": "event"
    },
    {
      "anonymous": false,
      "inputs": [
        {
          "indexed": true,
          "internalType": "address",
          "name": "from",
          "type": "address"
        },
        {
          "indexed": true,
          "internalType": "address",
          "name": "to",
          "type": "address"
        },
        {
          "indexed": false,
          "internalType": "uint256",
          "name": "amount",
          "type": "uint256"
        }
      ],
      "name": "Transfer",
      "type": "event"
    },
    {
      "anonymous": false,
      "inputs": [
        {
          "indexed": true,
          "internalType": "address",
          "name": "sender",
          "type": "address"
        },
        {
          "indexed": true,
          "internalType": "address",
          "name": "recipient",
          "type": "address"
        },
        {
          "indexed": true,
          "internalType": "address",
          "name": "owner",
          "type": "address"
        },
        {
          "indexed": false,
          "internalType": "uint256",
          "name": "assets",
          "type": "uint256"
        },
        {
          "indexed": false,
          "internalType": "uint256",
          "name": "shares",
          "type": "uint256"
        }
      ],
      "name": "Withdraw",
      "type": "event"
    },
    {
      "inputs": [],
      "name": "DOMAIN_SEPARATOR",
      "outputs": [
        {
          "internalType": "bytes32",
          "name": "",
          "type": "bytes32"
        }
      ],
      "stateMutability": "view",
      "type": "function"
    },
    {
      "inputs": [],
      "name": "PERMIT2",
      "outputs": [
        {
          "internalType": "contract IAllowanceTransfer",
          "name": "",
          "type": "address"
        }
      ],
      "stateMutability": "view",
      "type": "function"
    },
    {
      "inputs": [],
      "name": "PERMIT_TYPEHASH",
      "outputs": [
        {
          "internalType": "bytes32",
          "name": "",
          "type": "bytes32"
        }
      ],
      "stateMutability": "view",
      "type": "function"
    },
    {
      "inputs": [
        {
          "internalType": "address",
          "name": "owner",
          "type": "address"
        },
        {
          "internalType": "address",
          "name": "spender",
          "type": "address"
        }
      ],
      "name": "allowance",
      "outputs": [
        {
          "internalType": "uint256",
          "name": "",
          "type": "uint256"
        }
      ],
      "stateMutability": "view",
      "type": "function"
    },
    {
      "inputs": [
        {
          "internalType": "address",
          "name": "spender",
          "type": "address"
        },
        {
          "internalType": "uint256",
          "name": "value",
          "type": "uint256"
        }
      ],
      "name": "approve",
      "outputs": [
        {
          "internalType": "bool",
          "name": "",
          "type": "bool"
        }
      ],
      "stateMutability": "nonpayable",
      "type": "function"
    },
    {
      "inputs": [
        {
          "internalType": "address",
          "name": "account",
          "type": "address"
        }
      ],
      "name": "balanceOf",
      "outputs": [
        {
          "internalType": "uint256",
          "name": "",
          "type": "uint256"
        }
      ],
      "stateMutability": "view",
      "type": "function"
    },
    {
      "inputs": [],
      "name": "borrowable",
      "outputs": [
        {
          "internalType": "address",
          "name": "",
          "type": "address"
        }
      ],
      "stateMutability": "view",
      "type": "function"
    },
    {
      "inputs": [],
      "name": "cygnusNebulaOracle",
      "outputs": [
        {
          "internalType": "contract ICygnusNebulaOracle",
          "name": "",
          "type": "address"
        }
      ],
      "stateMutability": "view",
      "type": "function"
    },
    {
      "inputs": [],
      "name": "debtRatio",
      "outputs": [
        {
          "internalType": "uint256",
          "name": "",
          "type": "uint256"
        }
      ],
      "stateMutability": "view",
      "type": "function"
    },
    {
      "inputs": [],
      "name": "decimals",
      "outputs": [
        {
          "internalType": "uint8",
          "name": "",
          "type": "uint8"
        }
      ],
      "stateMutability": "view",
      "type": "function"
    },
    {
      "inputs": [
        {
          "internalType": "address",
          "name": "spender",
          "type": "address"
        },
        {
          "internalType": "uint256",
          "name": "value",
          "type": "uint256"
        }
      ],
      "name": "decreaseAllowance",
      "outputs": [
        {
          "internalType": "bool",
          "name": "",
          "type": "bool"
        }
      ],
      "stateMutability": "nonpayable",
      "type": "function"
    },
    {
      "inputs": [
        {
          "internalType": "uint256",
          "name": "assets",
          "type": "uint256"
        },
        {
          "internalType": "address",
          "name": "recipient",
          "type": "address"
        },
        {
          "components": [
            {
              "components": [
                {
                  "internalType": "address",
                  "name": "token",
                  "type": "address"
                },
                {
                  "internalType": "uint160",
                  "name": "amount",
                  "type": "uint160"
                },
                {
                  "internalType": "uint48",
                  "name": "expiration",
                  "type": "uint48"
                },
                {
                  "internalType": "uint48",
                  "name": "nonce",
                  "type": "uint48"
                }
              ],
              "internalType": "struct IAllowanceTransfer.PermitDetails",
              "name": "details",
              "type": "tuple"
            },
            {
              "internalType": "address",
              "name": "spender",
              "type": "address"
            },
            {
              "internalType": "uint256",
              "name": "sigDeadline",
              "type": "uint256"
            }
          ],
          "internalType": "struct IAllowanceTransfer.PermitSingle",
          "name": "_permit",
          "type": "tuple"
        },
        {
          "internalType": "bytes",
          "name": "signature",
          "type": "bytes"
        }
      ],
      "name": "deposit",
      "outputs": [
        {
          "internalType": "uint256",
          "name": "shares",
          "type": "uint256"
        }
      ],
      "stateMutability": "nonpayable",
      "type": "function"
    },
    {
      "inputs": [],
      "name": "exchangeRate",
      "outputs": [
        {
          "internalType": "uint256",
          "name": "",
          "type": "uint256"
        }
      ],
      "stateMutability": "view",
      "type": "function"
    },
    {
      "inputs": [],
      "name": "hangar18",
      "outputs": [
        {
          "internalType": "contract IHangar18",
          "name": "",
          "type": "address"
        }
      ],
      "stateMutability": "view",
      "type": "function"
    },
    {
      "inputs": [
        {
          "internalType": "address",
          "name": "spender",
          "type": "address"
        },
        {
          "internalType": "uint256",
          "name": "value",
          "type": "uint256"
        }
      ],
      "name": "increaseAllowance",
      "outputs": [
        {
          "internalType": "bool",
          "name": "",
          "type": "bool"
        }
      ],
      "stateMutability": "nonpayable",
      "type": "function"
    },
    {
      "inputs": [],
      "name": "liquidationFee",
      "outputs": [
        {
          "internalType": "uint256",
          "name": "",
          "type": "uint256"
        }
      ],
      "stateMutability": "view",
      "type": "function"
    },
    {
      "inputs": [],
      "name": "liquidationIncentive",
      "outputs": [
        {
          "internalType": "uint256",
          "name": "",
          "type": "uint256"
        }
      ],
      "stateMutability": "view",
      "type": "function"
    },
    {
      "inputs": [],
      "name": "name",
      "outputs": [
        {
          "internalType": "string",
          "name": "",
          "type": "string"
        }
      ],
      "stateMutability": "view",
      "type": "function"
    },
    {
      "inputs": [
        {
          "internalType": "address",
          "name": "",
          "type": "address"
        }
      ],
      "name": "nonces",
      "outputs": [
        {
          "internalType": "uint256",
          "name": "",
          "type": "uint256"
        }
      ],
      "stateMutability": "view",
      "type": "function"
    },
    {
      "inputs": [
        {
          "internalType": "address",
          "name": "owner",
          "type": "address"
        },
        {
          "internalType": "address",
          "name": "spender",
          "type": "address"
        },
        {
          "internalType": "uint256",
          "name": "value",
          "type": "uint256"
        },
        {
          "internalType": "uint256",
          "name": "deadline",
          "type": "uint256"
        },
        {
          "internalType": "uint8",
          "name": "v",
          "type": "uint8"
        },
        {
          "internalType": "bytes32",
          "name": "r",
          "type": "bytes32"
        },
        {
          "internalType": "bytes32",
          "name": "s",
          "type": "bytes32"
        }
      ],
      "name": "permit",
      "outputs": [],
      "stateMutability": "nonpayable",
      "type": "function"
    },
    {
      "inputs": [
        {
          "internalType": "uint256",
          "name": "shares",
          "type": "uint256"
        },
        {
          "internalType": "address",
          "name": "recipient",
          "type": "address"
        },
        {
          "internalType": "address",
          "name": "owner",
          "type": "address"
        }
      ],
      "name": "redeem",
      "outputs": [
        {
          "internalType": "uint256",
          "name": "assets",
          "type": "uint256"
        }
      ],
      "stateMutability": "nonpayable",
      "type": "function"
    },
    {
      "inputs": [
        {
          "internalType": "uint256",
          "name": "newDebtRatio",
          "type": "uint256"
        }
      ],
      "name": "setDebtRatio",
      "outputs": [],
      "stateMutability": "nonpayable",
      "type": "function"
    },
    {
      "inputs": [
        {
          "internalType": "uint256",
          "name": "newLiquidationFee",
          "type": "uint256"
        }
      ],
      "name": "setLiquidationFee",
      "outputs": [],
      "stateMutability": "nonpayable",
      "type": "function"
    },
    {
      "inputs": [
        {
          "internalType": "uint256",
          "name": "newLiquidationIncentive",
          "type": "uint256"
        }
      ],
      "name": "setLiquidationIncentive",
      "outputs": [],
      "stateMutability": "nonpayable",
      "type": "function"
    },
    {
      "inputs": [],
      "name": "shuttleId",
      "outputs": [
        {
          "internalType": "uint256",
          "name": "",
          "type": "uint256"
        }
      ],
      "stateMutability": "view",
      "type": "function"
    },
    {
      "inputs": [
        {
          "internalType": "address",
          "name": "token",
          "type": "address"
        }
      ],
      "name": "sweepToken",
      "outputs": [],
      "stateMutability": "nonpayable",
      "type": "function"
    },
    {
      "inputs": [],
      "name": "symbol",
      "outputs": [
        {
          "internalType": "string",
          "name": "",
          "type": "string"
        }
      ],
      "stateMutability": "view",
      "type": "function"
    },
    {
      "inputs": [],
      "name": "totalBalance",
      "outputs": [
        {
          "internalType": "uint160",
          "name": "",
          "type": "uint160"
        }
      ],
      "stateMutability": "view",
      "type": "function"
    },
    {
      "inputs": [],
      "name": "totalSupply",
      "outputs": [
        {
          "internalType": "uint256",
          "name": "",
          "type": "uint256"
        }
      ],
      "stateMutability": "view",
      "type": "function"
    },
    {
      "inputs": [
        {
          "internalType": "address",
          "name": "to",
          "type": "address"
        },
        {
          "internalType": "uint256",
          "name": "amount",
          "type": "uint256"
        }
      ],
      "name": "transfer",
      "outputs": [
        {
          "internalType": "bool",
          "name": "",
          "type": "bool"
        }
      ],
      "stateMutability": "nonpayable",
      "type": "function"
    },
    {
      "inputs": [
        {
          "internalType": "address",
          "name": "from",
          "type": "address"
        },
        {
          "internalType": "address",
          "name": "to",
          "type": "address"
        },
        {
          "internalType": "uint256",
          "name": "amount",
          "type": "uint256"
        }
      ],
      "name": "transferFrom",
      "outputs": [
        {
          "internalType": "bool",
          "name": "",
          "type": "bool"
        }
      ],
      "stateMutability": "nonpayable",
      "type": "function"
    },
    {
      "inputs": [],
      "name": "underlying",
      "outputs": [
        {
          "internalType": "address",
          "name": "",
          "type": "address"
        }
      ],
      "stateMutability": "view",
      "type": "function"
    },
    {
      "inputs": [],
      "name": "version",
      "outputs": [
        {
          "internalType": "string",
          "name": "",
          "type": "string"
        }
      ],
      "stateMutability": "view",
      "type": "function"
    }
  ],
  "bytecode": "0x610140604052670d2f13f7789f0000600855670e5d0f042e8780006009553480156200002a57600080fd5b5060405146907f8b73c3c69bb8fe3d512ecc4cf759cc79239f7b179b0ffacaa9a75d522b39400f9062000060906000906200037f565b60408051918290038220828201825260018352603160f81b6020938401528151928301939093528101919091527fc89efdaa54c0f20c7adf612882df0950f5a951637e0307cdcb4c672f298b8bc66060820152608081018290523060a082015260c00160408051601f1981840301815282825280516020909101206080526007805460ff19166001179055635a412e5360e01b825251339250635a412e539160048082019260a09290919082900301816000875af115801562000127573d6000803e3d6000fd5b505050506040513d601f19601f820116820180604052508101906200014d919062000416565b610100526001600160a01b0390811660c05291821660e052501660a090815260408051635a412e5360e01b8152905160009283923392635a412e5392600480840193919291829003018187875af1158015620001ad573d6000803e3d6000fd5b505050506040513d601f19601f82011682018060405250810190620001d3919062000416565b505092509250506040518060400160405280601281526020017110de59db9d5cce8810dbdb1b185d195c985b60721b81525060009081620002159190620004f3565b50816001600160a01b03166395d89b416040518163ffffffff1660e01b8152600401600060405180830381865afa15801562000255573d6000803e3d6000fd5b505050506040513d6000823e601f3d908101601f191682016040526200027f9190810190620005e5565b6040516020016200029191906200069d565b60405160208183030381529060405260019081620002b09190620004f3565b50816001600160a01b031663313ce5676040518163ffffffff1660e01b8152600401602060405180830381865afa158015620002f0573d6000803e3d6000fd5b505050506040513d601f19601f82011682018060405250810190620003169190620006ce565b6002805460ff191660ff929092169190911790556001600160a01b031661012052506000600355620006fa565b600181811c908216806200035857607f821691505b6020821081036200037957634e487b7160e01b600052602260045260246000fd5b50919050565b60008083546200038f8162000343565b60018281168015620003aa5760018114620003c057620003f1565b60ff1984168752821515830287019450620003f1565b8760005260208060002060005b85811015620003e85781548a820152908401908201620003cd565b50505082870194505b50929695505050505050565b6001600160a01b03811681146200041357600080fd5b50565b600080600080600060a086880312156200042f57600080fd5b85516200043c81620003fd565b60208701519095506200044f81620003fd565b60408701519094506200046281620003fd565b60608701519093506200047581620003fd565b80925050608086015190509295509295909350565b634e487b7160e01b600052604160045260246000fd5b601f821115620004ee57600081815260208120601f850160051c81016020861015620004c95750805b601f850160051c820191505b81811015620004ea57828155600101620004d5565b5050505b505050565b81516001600160401b038111156200050f576200050f6200048a565b620005278162000520845462000343565b84620004a0565b602080601f8311600181146200055f5760008415620005465750858301515b600019600386901b1c1916600185901b178555620004ea565b600085815260208120601f198616915b8281101562000590578886015182559484019460019091019084016200056f565b5085821015620005af5787850151600019600388901b60f8161c191681555b5050505050600190811b01905550565b60005b83811015620005dc578181015183820152602001620005c2565b50506000910152565b600060208284031215620005f857600080fd5b81516001600160401b03808211156200061057600080fd5b818401915084601f8301126200062557600080fd5b8151818111156200063a576200063a6200048a565b604051601f8201601f19908116603f011681019083821181831017156200066557620006656200048a565b816040528281528760208487010111156200067f57600080fd5b62000692836020830160208801620005bf565b979650505050505050565b66021bcb3a6281d160cd1b815260008251620006c1816007850160208701620005bf565b9190910160070192915050565b600060208284031215620006e157600080fd5b815160ff81168114620006f357600080fd5b9392505050565b60805160a05160c05160e05161010051610120516119f46200077460003960006105360152600061033d0152600081816103920152818161065a0152818161090901528181610be301526112e9015260006104af01526000818161050f01526110820152600081816102db0152610d8001526119f46000f3fe608060405234801561001057600080fd5b506004361061020b5760003560e01c80638808e71c1161012a578063ba087652116100bd578063dd62ed3e1161008c578063e99a6ac711610071578063e99a6ac714610531578063eb6a887d14610558578063fef0bec81461056b57600080fd5b8063dd62ed3e146104d1578063e8a24e1d1461050a57600080fd5b8063ba0876521461047b578063cea55f571461048e578063d505accf14610497578063d935bd92146104aa57600080fd5b8063a457c2d7116100f9578063a457c2d71461042a578063a84310811461043d578063a9059cbb14610450578063ad7a672f1461046357600080fd5b80638808e71c146103fd5780638c765e941461041057806395d89b4114610419578063a36a36301461042157600080fd5b806339509351116101a25780636afdd850116101715780636afdd8501461035f5780636f307dc31461038d57806370a08231146103b45780637ecebe00146103dd57600080fd5b806339509351146102fd5780633ba0b9a91461031057806354fd4d50146103185780635f77f8911461033857600080fd5b806323b872dd116101de57806323b872dd1461027d57806330adf81f14610290578063313ce567146102b75780633644e515146102d657600080fd5b806306fdde0314610210578063095ea7b31461022e57806318160ddd146102515780631be1956014610268575b600080fd5b61021861057e565b6040516102259190611590565b60405180910390f35b61024161023c3660046115f3565b61060c565b6040519015158152602001610225565b61025a60035481565b604051908152602001610225565b61027b61027636600461161f565b610623565b005b61024161028b366004611643565b6106dc565b61025a7f6e71edae12b1b97f4d1f60370fef10105fa2faae0126114a169c64845d6126c981565b6002546102c49060ff1681565b60405160ff9091168152602001610225565b61025a7f000000000000000000000000000000000000000000000000000000000000000081565b61024161030b3660046115f3565b61076b565b61025a6107b3565b610218604051806040016040528060018152602001603160f81b81525081565b61025a7f000000000000000000000000000000000000000000000000000000000000000081565b6103756e22d473030f116ddee9f6b43ac78ba381565b6040516001600160a01b039091168152602001610225565b6103757f000000000000000000000000000000000000000000000000000000000000000081565b61025a6103c236600461161f565b6001600160a01b031660009081526005602052604090205490565b61025a6103eb36600461161f565b60066020526000908152604090205481565b61025a61040b366004611684565b6107ef565b61025a60095481565b610218610a45565b61025a600a5481565b6102416104383660046115f3565b610a52565b61027b61044b36600461172f565b610a83565b61024161045e3660046115f3565b610aec565b6007546103759061010090046001600160a01b031681565b61025a610489366004611748565b610af9565b61025a60085481565b61027b6104a536600461178a565b610c71565b6103757f000000000000000000000000000000000000000000000000000000000000000081565b61025a6104df366004611801565b6001600160a01b03918216600090815260046020908152604080832093909416825291909152205490565b6103757f000000000000000000000000000000000000000000000000000000000000000081565b6103757f000000000000000000000000000000000000000000000000000000000000000081565b61027b61056636600461172f565b610f14565b61027b61057936600461172f565b610f75565b6000805461058b9061183a565b80601f01602080910402602001604051908101604052809291908181526020018280546105b79061183a565b80156106045780601f106105d957610100808354040283529160200191610604565b820191906000526020600020905b8154815290600101906020018083116105e757829003601f168201915b505050505081565b6000610619338484610fcf565b5060015b92915050565b60075460ff16610646576040516306fda65d60e31b815260040160405180910390fd5b6007805460ff1916905561065861107e565b7f00000000000000000000000000000000000000000000000000000000000000006001600160a01b0316816001600160a01b0316036106aa5760405163b5d8f39160e01b815260040160405180910390fd5b60006106b582611130565b90506106cb6001600160a01b0383163383611145565b50506007805460ff19166001179055565b6001600160a01b03831660009081526004602090815260408083203380855292528220548381101561074757604051636497133b60e11b81526001600160a01b0380881660048301528316602482015260448101829052606481018590526084015b60405180910390fd5b6107548683868403610fcf565b61075f868686611194565b50600195945050505050565b3360009081526004602090815260408083206001600160a01b0386168452909152812054819061079c90849061188a565b90506107a9338583610fcf565b5060019392505050565b60035460009080156107df576007546107da9061010090046001600160a01b031682611293565b6107e9565b670de0b6b3a76400005b91505090565b60075460009060ff16610815576040516306fda65d60e31b815260040160405180910390fd5b6007805460ff1916905560006108296112e2565b9050821561089c576040516302b67b5760e41b81526e22d473030f116ddee9f6b43ac78ba390632b67b570906108699033908990899089906004016118e1565b600060405180830381600087803b15801561088357600080fd5b505af1158015610897573d6000803e3d6000fd5b505050505b6e22d473030f116ddee9f6b43ac78ba36336c7851633306108bc8b611312565b60405160e085901b7fffffffff000000000000000000000000000000000000000000000000000000001681526001600160a01b0393841660048201529183166024830152821660448201527f00000000000000000000000000000000000000000000000000000000000000009091166064820152608401600060405180830381600087803b15801561094d57600080fd5b505af1158015610961573d6000803e3d6000fd5b50505050600061096f6112e2565b905061098c61097c6107b3565b610986848461198e565b90611293565b9250826000036109af5760405163f1ca48b160e01b815260040160405180910390fd5b6003546000036109d5576109c56103e88461198e565b92506109d561dead6103e861133c565b6109df878461133c565b60408051898152602081018590526001600160a01b0389169133917fdcbc1c05240f31ff3ad067ef1ee35ce4997762752e3a095284754544f4c709d7910160405180910390a35050610a2f6113cf565b6007805460ff1916600117905595945050505050565b6001805461058b9061183a565b3360009081526004602090815260408083206001600160a01b0386168452909152812054819061079c90849061198e565b610a8b61107e565b610aa6670de0b6b3a7640000670ff59ee833b3000083611454565b600980549082905560408051828152602081018490527faeba5a6c40a8ac138134bff1aaa65debf25971188a58804bad717f82f0ec131691015b60405180910390a15050565b6000610619338484611194565b60075460009060ff16610b1f576040516306fda65d60e31b815260040160405180910390fd5b6007805460ff19169055336001600160a01b03831614610b97576001600160a01b03821660009081526004602090815260408083203384529091529020546000198114610b9557610b70858261198e565b6001600160a01b03841660009081526004602090815260408083203384529091529020555b505b610ba9610ba26107b3565b8590611484565b905060008111610bcc5760405163e3e8d29760e01b815260040160405180910390fd5b610bd682856114b2565b610c0a6001600160a01b037f0000000000000000000000000000000000000000000000000000000000000000168483611145565b60408051828152602081018690526001600160a01b03808516929086169133917ffbde797d201c681b91056529119e0b02407c7bb96a4a2c75c01fc9667232c8db910160405180910390a4610c5d6113cf565b6007805460ff191660011790559392505050565b6001600160a01b038716610c98576040516337adc3e960e11b815260040160405180910390fd5b6001600160a01b038616610cbf57604051637b4813dd60e01b815260040160405180910390fd5b42841015610ce957604051633288645960e01b81524260048201526024810185905260440161073e565b6001600160a01b0387811660008181526006602090815260408083208054600180820190925582517f6e71edae12b1b97f4d1f60370fef10105fa2faae0126114a169c64845d6126c98186015280840196909652958c166060860152608085018b905260a085019590955260c08085018a90528151808603909101815260e08501825280519083012061190160f01b6101008601527f000000000000000000000000000000000000000000000000000000000000000061010286015261012280860182905282518087039091018152610142860180845281519185019190912090859052610162860180845281905260ff8a166101828701526101a286018990526101c2860188905291519095919491926101e2808401939192601f1981019281900390910190855afa158015610e24573d6000803e3d6000fd5b5050604051601f1901519150506001600160a01b038116610e585760405163d147d0e360e01b815260040160405180910390fd5b896001600160a01b0316816001600160a01b031614610eac57604051633460790b60e01b81526001600160a01b038b16600482015260ff87166024820152604481018690526064810185905260840161073e565b6001600160a01b038a81166000818152600460209081526040808320948e16808452948252918290208c905590518b81527f8c5be1e5ebec7d5bd14f71427d1e84f3dd0314c0f7b2291e5b200ac8c7c3b925910160405180910390a350505050505050505050565b610f1c61107e565b610f37670b1a2bc2ec500000670de0b6b3a764000083611454565b600880549082905560408051828152602081018490527ff25d2243e4128e51523d8537f04f18c3e6390bbfc6323390a9a8e59b921ce0469101610ae0565b610f7d61107e565b610f91600067016345785d8a000083611454565b600a80549082905560408051828152602081018490527f87272249f1056ec16a68dd9255101358246dd26a796e2f0bc6b3a0ad02f2de419101610ae0565b6001600160a01b038316610ff65760405163231b1a1d60e21b815260040160405180910390fd5b6001600160a01b03821661101d57604051632b6990d760e21b815260040160405180910390fd5b6001600160a01b0383811660008181526004602090815260408083209487168084529482529182902085905590518481527f8c5be1e5ebec7d5bd14f71427d1e84f3dd0314c0f7b2291e5b200ac8c7c3b925910160405180910390a3505050565b60007f00000000000000000000000000000000000000000000000000000000000000006001600160a01b031663f851a4406040518163ffffffff1660e01b8152600401602060405180830381865afa1580156110de573d6000803e3d6000fd5b505050506040513d601f19601f8201168201806040525081019061110291906119a1565b9050336001600160a01b0382161461112d576040516331d63ad160e11b815260040160405180910390fd5b50565b600061061d6001600160a01b0383163061154d565b81601452806034526fa9059cbb00000000000000000000000060005260206000604460106000875af13d15600160005114171661118a576390b8ec186000526004601cfd5b6000603452505050565b6001600160a01b0383166111bb57604051636fbb781760e01b815260040160405180910390fd5b6001600160a01b0382166111e1576040516261696b60e71b815260040160405180910390fd5b6001600160a01b038316600090815260056020526040902054818110156112255760405163430cf54960e11b8152600481018290526024810183905260440161073e565b6001600160a01b0380851660008181526005602052604080822086860390559286168082529083902080548601905591517fddf252ad1be2c89b69c2b068fc378daa952ba7f163c4a11628f55a4df523b3ef906112859086815260200190565b60405180910390a350505050565b60007812725dd1d243aba0e75fe645cc4873f9e65afe688c928e1f218311670de0b6b3a7640000021582026112d057637c5f487d6000526004601cfd5b50670de0b6b3a7640000919091020490565b600061130d7f0000000000000000000000000000000000000000000000000000000000000000611130565b905090565b600074010000000000000000000000000000000000000000821061133857611338611582565b5090565b6001600160a01b0382166113635760405163df3dc1c960e01b815260040160405180910390fd5b8060036000828254611375919061188a565b90915550506001600160a01b0382166000818152600560209081526040808320805486019055518481527fddf252ad1be2c89b69c2b068fc378daa952ba7f163c4a11628f55a4df523b3ef91015b60405180910390a35050565b60006113d96112e2565b90507f3145c2b643834867f2c0a8cac8a48218307687911615c0ed01412a09dd163b6661140582611312565b600780547fffffffffffffffffffffff0000000000000000000000000000000000000000ff166101006001600160a01b039390931692830217905560405190815260200160405180910390a150565b8281108061146157508181115b1561147f5760405163058b4cb360e11b815260040160405180910390fd5b505050565b6000816000190483118202156114a25763bac65e5b6000526004601cfd5b50670de0b6b3a764000091020490565b6001600160a01b0382166114d957604051633eedce0760e01b815260040160405180910390fd5b6001600160a01b0382166000908152600560205260408120805483929061150190849061198e565b90915550506003805482900390556040518181526000906001600160a01b038416907fddf252ad1be2c89b69c2b068fc378daa952ba7f163c4a11628f55a4df523b3ef906020016113c3565b6000816014526f70a0823100000000000000000000000060005260208060246010865afa601f3d111660205102905092915050565b6335278d126000526004601cfd5b600060208083528351808285015260005b818110156115bd578581018301518582016040015282016115a1565b506000604082860101526040601f19601f8301168501019250505092915050565b6001600160a01b038116811461112d57600080fd5b6000806040838503121561160657600080fd5b8235611611816115de565b946020939093013593505050565b60006020828403121561163157600080fd5b813561163c816115de565b9392505050565b60008060006060848603121561165857600080fd5b8335611663816115de565b92506020840135611673816115de565b929592945050506040919091013590565b600080600080600085870361012081121561169e57600080fd5b8635955060208701356116b0816115de565b945060c0603f19820112156116c457600080fd5b5060408601925061010086013567ffffffffffffffff808211156116e757600080fd5b818801915088601f8301126116fb57600080fd5b81358181111561170a57600080fd5b89602082850101111561171c57600080fd5b9699959850939650602001949392505050565b60006020828403121561174157600080fd5b5035919050565b60008060006060848603121561175d57600080fd5b83359250602084013561176f816115de565b9150604084013561177f816115de565b809150509250925092565b600080600080600080600060e0888a0312156117a557600080fd5b87356117b0816115de565b965060208801356117c0816115de565b95506040880135945060608801359350608088013560ff811681146117e457600080fd5b9699959850939692959460a0840135945060c09093013592915050565b6000806040838503121561181457600080fd5b823561181f816115de565b9150602083013561182f816115de565b809150509250929050565b600181811c9082168061184e57607f821691505b60208210810361186e57634e487b7160e01b600052602260045260246000fd5b50919050565b634e487b7160e01b600052601160045260246000fd5b8082018082111561061d5761061d611874565b803565ffffffffffff811681146118b357600080fd5b919050565b81835281816020850137506000828201602090810191909152601f909101601f19169091010190565b60006101006001600160a01b03808816845286356118fe816115de565b8181166020860152506020870135611915816115de565b81811660408601525061192a6040880161189d565b65ffffffffffff80821660608701528061194660608b0161189d565b1660808701525050608087013561195c816115de565b81811660a0860152505060a086013560c08401528060e084015261198381840185876118b8565b979650505050505050565b8181038181111561061d5761061d611874565b6000602082840312156119b357600080fd5b815161163c816115de56fea2646970667358221220b8fe345e213757404327dc9a07813e1e8919116c8293c34aabca1fd395b3dd0b64736f6c63430008110033",
  "linkReferences": {},
  "deployedLinkReferences": {}
}