{
  "_format": "hh-sol-artifact-1",
  "contractName": "CygnusCollateralControl",
  "sourceName": "contracts/cygnus-core/CygnusCollateralControl.sol",
  "abi": [
    {
      "inputs": [],
      "stateMutability": "nonpayable",
      "type": "constructor"
    },
    {
      "inputs": [],
      "name": "AllowanceOverflow",
      "type": "error"
    },
    {
      "inputs": [],
      "name": "AllowanceUnderflow",
      "type": "error"
    },
    {
      "inputs": [],
      "name": "CygnusCollateralControl__ParameterNotInRange",
      "type": "error"
    },
    {
      "inputs": [],
      "name": "CygnusTerminal__CantMintZeroShares",
      "type": "error"
    },
    {
      "inputs": [],
      "name": "CygnusTerminal__CantRedeemZeroAssets",
      "type": "error"
    },
    {
      "inputs": [],
      "name": "CygnusTerminal__CantSweepUnderlying",
      "type": "error"
    },
    {
      "inputs": [],
      "name": "CygnusTerminal__MsgSenderNotAdmin",
      "type": "error"
    },
    {
      "inputs": [],
      "name": "InsufficientAllowance",
      "type": "error"
    },
    {
      "inputs": [],
      "name": "InsufficientBalance",
      "type": "error"
    },
    {
      "inputs": [],
      "name": "InvalidPermit",
      "type": "error"
    },
    {
      "inputs": [],
      "name": "PermitExpired",
      "type": "error"
    },
    {
      "inputs": [],
      "name": "ReentrantCall",
      "type": "error"
    },
    {
      "inputs": [],
      "name": "TotalSupplyOverflow",
      "type": "error"
    },
    {
      "anonymous": false,
      "inputs": [
        {
          "indexed": true,
          "internalType": "address",
          "name": "owner",
          "type": "address"
        },
        {
          "indexed": true,
          "internalType": "address",
          "name": "spender",
          "type": "address"
        },
        {
          "indexed": false,
          "internalType": "uint256",
          "name": "amount",
          "type": "uint256"
        }
      ],
      "name": "Approval",
      "type": "event"
    },
    {
      "anonymous": false,
      "inputs": [
        {
          "indexed": true,
          "internalType": "address",
          "name": "sender",
          "type": "address"
        },
        {
          "indexed": true,
          "internalType": "address",
          "name": "recipient",
          "type": "address"
        },
        {
          "indexed": false,
          "internalType": "uint256",
          "name": "assets",
          "type": "uint256"
        },
        {
          "indexed": false,
          "internalType": "uint256",
          "name": "shares",
          "type": "uint256"
        }
      ],
      "name": "Deposit",
      "type": "event"
    },
    {
      "anonymous": false,
      "inputs": [
        {
          "indexed": false,
          "internalType": "uint256",
          "name": "oldDebtRatio",
          "type": "uint256"
        },
        {
          "indexed": false,
          "internalType": "uint256",
          "name": "newDebtRatio",
          "type": "uint256"
        }
      ],
      "name": "NewDebtRatio",
      "type": "event"
    },
    {
      "anonymous": false,
      "inputs": [
        {
          "indexed": false,
          "internalType": "uint256",
          "name": "oldLiquidationFee",
          "type": "uint256"
        },
        {
          "indexed": false,
          "internalType": "uint256",
          "name": "newLiquidationFee",
          "type": "uint256"
        }
      ],
      "name": "NewLiquidationFee",
      "type": "event"
    },
    {
      "anonymous": false,
      "inputs": [
        {
          "indexed": false,
          "internalType": "uint256",
          "name": "oldLiquidationIncentive",
          "type": "uint256"
        },
        {
          "indexed": false,
          "internalType": "uint256",
          "name": "newLiquidationIncentive",
          "type": "uint256"
        }
      ],
      "name": "NewLiquidationIncentive",
      "type": "event"
    },
    {
      "anonymous": false,
      "inputs": [
        {
          "indexed": true,
          "internalType": "address",
          "name": "sender",
          "type": "address"
        },
        {
          "indexed": true,
          "internalType": "address",
          "name": "token",
          "type": "address"
        },
        {
          "indexed": false,
          "internalType": "uint256",
          "name": "balance",
          "type": "uint256"
        }
      ],
      "name": "SweepToken",
      "type": "event"
    },
    {
      "anonymous": false,
      "inputs": [
        {
          "indexed": false,
          "internalType": "uint160",
          "name": "totalBalance",
          "type": "uint160"
        }
      ],
      "name": "Sync",
      "type": "event"
    },
    {
      "anonymous": false,
      "inputs": [
        {
          "indexed": true,
          "internalType": "address",
          "name": "from",
          "type": "address"
        },
        {
          "indexed": true,
          "internalType": "address",
          "name": "to",
          "type": "address"
        },
        {
          "indexed": false,
          "internalType": "uint256",
          "name": "amount",
          "type": "uint256"
        }
      ],
      "name": "Transfer",
      "type": "event"
    },
    {
      "anonymous": false,
      "inputs": [
        {
          "indexed": true,
          "internalType": "address",
          "name": "sender",
          "type": "address"
        },
        {
          "indexed": true,
          "internalType": "address",
          "name": "recipient",
          "type": "address"
        },
        {
          "indexed": true,
          "internalType": "address",
          "name": "owner",
          "type": "address"
        },
        {
          "indexed": false,
          "internalType": "uint256",
          "name": "assets",
          "type": "uint256"
        },
        {
          "indexed": false,
          "internalType": "uint256",
          "name": "shares",
          "type": "uint256"
        }
      ],
      "name": "Withdraw",
      "type": "event"
    },
    {
      "inputs": [],
      "name": "DOMAIN_SEPARATOR",
      "outputs": [
        {
          "internalType": "bytes32",
          "name": "result",
          "type": "bytes32"
        }
      ],
      "stateMutability": "view",
      "type": "function"
    },
    {
      "inputs": [],
      "name": "PERMIT2",
      "outputs": [
        {
          "internalType": "contract IAllowanceTransfer",
          "name": "",
          "type": "address"
        }
      ],
      "stateMutability": "view",
      "type": "function"
    },
    {
      "inputs": [
        {
          "internalType": "address",
          "name": "owner",
          "type": "address"
        },
        {
          "internalType": "address",
          "name": "spender",
          "type": "address"
        }
      ],
      "name": "allowance",
      "outputs": [
        {
          "internalType": "uint256",
          "name": "result",
          "type": "uint256"
        }
      ],
      "stateMutability": "view",
      "type": "function"
    },
    {
      "inputs": [
        {
          "internalType": "address",
          "name": "spender",
          "type": "address"
        },
        {
          "internalType": "uint256",
          "name": "amount",
          "type": "uint256"
        }
      ],
      "name": "approve",
      "outputs": [
        {
          "internalType": "bool",
          "name": "",
          "type": "bool"
        }
      ],
      "stateMutability": "nonpayable",
      "type": "function"
    },
    {
      "inputs": [
        {
          "internalType": "address",
          "name": "owner",
          "type": "address"
        }
      ],
      "name": "balanceOf",
      "outputs": [
        {
          "internalType": "uint256",
          "name": "result",
          "type": "uint256"
        }
      ],
      "stateMutability": "view",
      "type": "function"
    },
    {
      "inputs": [],
      "name": "borrowable",
      "outputs": [
        {
          "internalType": "address",
          "name": "",
          "type": "address"
        }
      ],
      "stateMutability": "view",
      "type": "function"
    },
    {
      "inputs": [],
      "name": "cygnusNebulaOracle",
      "outputs": [
        {
          "internalType": "contract ICygnusNebulaOracle",
          "name": "",
          "type": "address"
        }
      ],
      "stateMutability": "view",
      "type": "function"
    },
    {
      "inputs": [],
      "name": "debtRatio",
      "outputs": [
        {
          "internalType": "uint256",
          "name": "",
          "type": "uint256"
        }
      ],
      "stateMutability": "view",
      "type": "function"
    },
    {
      "inputs": [],
      "name": "decimals",
      "outputs": [
        {
          "internalType": "uint8",
          "name": "",
          "type": "uint8"
        }
      ],
      "stateMutability": "view",
      "type": "function"
    },
    {
      "inputs": [
        {
          "internalType": "address",
          "name": "spender",
          "type": "address"
        },
        {
          "internalType": "uint256",
          "name": "difference",
          "type": "uint256"
        }
      ],
      "name": "decreaseAllowance",
      "outputs": [
        {
          "internalType": "bool",
          "name": "",
          "type": "bool"
        }
      ],
      "stateMutability": "nonpayable",
      "type": "function"
    },
    {
      "inputs": [
        {
          "internalType": "uint256",
          "name": "assets",
          "type": "uint256"
        },
        {
          "internalType": "address",
          "name": "recipient",
          "type": "address"
        },
        {
          "components": [
            {
              "components": [
                {
                  "internalType": "address",
                  "name": "token",
                  "type": "address"
                },
                {
                  "internalType": "uint160",
                  "name": "amount",
                  "type": "uint160"
                },
                {
                  "internalType": "uint48",
                  "name": "expiration",
                  "type": "uint48"
                },
                {
                  "internalType": "uint48",
                  "name": "nonce",
                  "type": "uint48"
                }
              ],
              "internalType": "struct IAllowanceTransfer.PermitDetails",
              "name": "details",
              "type": "tuple"
            },
            {
              "internalType": "address",
              "name": "spender",
              "type": "address"
            },
            {
              "internalType": "uint256",
              "name": "sigDeadline",
              "type": "uint256"
            }
          ],
          "internalType": "struct IAllowanceTransfer.PermitSingle",
          "name": "_permit",
          "type": "tuple"
        },
        {
          "internalType": "bytes",
          "name": "signature",
          "type": "bytes"
        }
      ],
      "name": "deposit",
      "outputs": [
        {
          "internalType": "uint256",
          "name": "shares",
          "type": "uint256"
        }
      ],
      "stateMutability": "nonpayable",
      "type": "function"
    },
    {
      "inputs": [],
      "name": "exchangeRate",
      "outputs": [
        {
          "internalType": "uint256",
          "name": "",
          "type": "uint256"
        }
      ],
      "stateMutability": "view",
      "type": "function"
    },
    {
      "inputs": [],
      "name": "hangar18",
      "outputs": [
        {
          "internalType": "contract IHangar18",
          "name": "",
          "type": "address"
        }
      ],
      "stateMutability": "view",
      "type": "function"
    },
    {
      "inputs": [
        {
          "internalType": "address",
          "name": "spender",
          "type": "address"
        },
        {
          "internalType": "uint256",
          "name": "difference",
          "type": "uint256"
        }
      ],
      "name": "increaseAllowance",
      "outputs": [
        {
          "internalType": "bool",
          "name": "",
          "type": "bool"
        }
      ],
      "stateMutability": "nonpayable",
      "type": "function"
    },
    {
      "inputs": [],
      "name": "liquidationFee",
      "outputs": [
        {
          "internalType": "uint256",
          "name": "",
          "type": "uint256"
        }
      ],
      "stateMutability": "view",
      "type": "function"
    },
    {
      "inputs": [],
      "name": "liquidationIncentive",
      "outputs": [
        {
          "internalType": "uint256",
          "name": "",
          "type": "uint256"
        }
      ],
      "stateMutability": "view",
      "type": "function"
    },
    {
      "inputs": [],
      "name": "name",
      "outputs": [
        {
          "internalType": "string",
          "name": "",
          "type": "string"
        }
      ],
      "stateMutability": "pure",
      "type": "function"
    },
    {
      "inputs": [
        {
          "internalType": "address",
          "name": "owner",
          "type": "address"
        }
      ],
      "name": "nonces",
      "outputs": [
        {
          "internalType": "uint256",
          "name": "result",
          "type": "uint256"
        }
      ],
      "stateMutability": "view",
      "type": "function"
    },
    {
      "inputs": [
        {
          "internalType": "address",
          "name": "owner",
          "type": "address"
        },
        {
          "internalType": "address",
          "name": "spender",
          "type": "address"
        },
        {
          "internalType": "uint256",
          "name": "value",
          "type": "uint256"
        },
        {
          "internalType": "uint256",
          "name": "deadline",
          "type": "uint256"
        },
        {
          "internalType": "uint8",
          "name": "v",
          "type": "uint8"
        },
        {
          "internalType": "bytes32",
          "name": "r",
          "type": "bytes32"
        },
        {
          "internalType": "bytes32",
          "name": "s",
          "type": "bytes32"
        }
      ],
      "name": "permit",
      "outputs": [],
      "stateMutability": "nonpayable",
      "type": "function"
    },
    {
      "inputs": [
        {
          "internalType": "uint256",
          "name": "shares",
          "type": "uint256"
        },
        {
          "internalType": "address",
          "name": "recipient",
          "type": "address"
        },
        {
          "internalType": "address",
          "name": "owner",
          "type": "address"
        }
      ],
      "name": "redeem",
      "outputs": [
        {
          "internalType": "uint256",
          "name": "assets",
          "type": "uint256"
        }
      ],
      "stateMutability": "nonpayable",
      "type": "function"
    },
    {
      "inputs": [
        {
          "internalType": "uint256",
          "name": "newDebtRatio",
          "type": "uint256"
        }
      ],
      "name": "setDebtRatio",
      "outputs": [],
      "stateMutability": "nonpayable",
      "type": "function"
    },
    {
      "inputs": [
        {
          "internalType": "uint256",
          "name": "newLiquidationFee",
          "type": "uint256"
        }
      ],
      "name": "setLiquidationFee",
      "outputs": [],
      "stateMutability": "nonpayable",
      "type": "function"
    },
    {
      "inputs": [
        {
          "internalType": "uint256",
          "name": "newLiquidationIncentive",
          "type": "uint256"
        }
      ],
      "name": "setLiquidationIncentive",
      "outputs": [],
      "stateMutability": "nonpayable",
      "type": "function"
    },
    {
      "inputs": [],
      "name": "shuttleId",
      "outputs": [
        {
          "internalType": "uint256",
          "name": "",
          "type": "uint256"
        }
      ],
      "stateMutability": "view",
      "type": "function"
    },
    {
      "inputs": [
        {
          "internalType": "address",
          "name": "token",
          "type": "address"
        }
      ],
      "name": "sweepToken",
      "outputs": [],
      "stateMutability": "nonpayable",
      "type": "function"
    },
    {
      "inputs": [],
      "name": "symbol",
      "outputs": [
        {
          "internalType": "string",
          "name": "",
          "type": "string"
        }
      ],
      "stateMutability": "view",
      "type": "function"
    },
    {
      "inputs": [],
      "name": "totalBalance",
      "outputs": [
        {
          "internalType": "uint160",
          "name": "",
          "type": "uint160"
        }
      ],
      "stateMutability": "view",
      "type": "function"
    },
    {
      "inputs": [],
      "name": "totalSupply",
      "outputs": [
        {
          "internalType": "uint256",
          "name": "result",
          "type": "uint256"
        }
      ],
      "stateMutability": "view",
      "type": "function"
    },
    {
      "inputs": [
        {
          "internalType": "address",
          "name": "to",
          "type": "address"
        },
        {
          "internalType": "uint256",
          "name": "amount",
          "type": "uint256"
        }
      ],
      "name": "transfer",
      "outputs": [
        {
          "internalType": "bool",
          "name": "",
          "type": "bool"
        }
      ],
      "stateMutability": "nonpayable",
      "type": "function"
    },
    {
      "inputs": [
        {
          "internalType": "address",
          "name": "from",
          "type": "address"
        },
        {
          "internalType": "address",
          "name": "to",
          "type": "address"
        },
        {
          "internalType": "uint256",
          "name": "amount",
          "type": "uint256"
        }
      ],
      "name": "transferFrom",
      "outputs": [
        {
          "internalType": "bool",
          "name": "",
          "type": "bool"
        }
      ],
      "stateMutability": "nonpayable",
      "type": "function"
    },
    {
      "inputs": [],
      "name": "underlying",
      "outputs": [
        {
          "internalType": "address",
          "name": "",
          "type": "address"
        }
      ],
      "stateMutability": "view",
      "type": "function"
    }
  ],
  "bytecode": "0x610120806040523462000172576000805460ff19166001178155635a412e5360e01b80835260a092838160048186335af18015620001675783918491859186916200013e575b5060e052855260c052608052670d2f13f7789f0000600155670e5d0f042e878000600255604051908152828160048185335af1918215620001325791620000f9575b5061010090815260405190611ddb928362000220843960805183818161037e0152611a8b01525182610468015260c05182818161076501528181610b7701528181610d9b0152818161120b01528181611476015281816116b60152611b62015260e051826112ad0152518161030b0152f35b6200011e9150823d84116200012a575b62000115818362000177565b810190620001c6565b50509150503862000087565b503d62000109565b604051903d90823e3d90fd5b925050506200015d9150843d86116200012a5762000115818362000177565b9150903862000045565b6040513d85823e3d90fd5b600080fd5b601f909101601f19168101906001600160401b038211908210176200019b57604052565b634e487b7160e01b600052604160045260246000fd5b51906001600160a01b03821682036200017257565b91908260a0910312620001725781516001600160a01b03908181168103620001725792620001f760208201620001b1565b926200020660408301620001b1565b926060830151908116810362000172576080909201519056fe6040608081526004908136101561001557600080fd5b600091823560e01c806306fdde031461185d578063095ea7b3146117bf57806318160ddd1461177a5780631be195601461162557806323b872dd14611500578063313ce567146114055780633644e515146113ca57806339509351146113125780633ba0b9a9146112d05780635f77f891146112775780636afdd8501461122f5780636f307dc3146111c057806370a082311461115a5780637ecebe00146110f45780638808e71c14610cdb5780638c765e9414610c9e57806395d89b4114610b07578063a36a363014610aca578063a457c2d714610a11578063a843108114610975578063a9059cbb146108bd578063ad7a672f14610869578063ba0876521461064c578063cea55f571461060f578063d505accf1461048c578063d935bd921461041d578063dd62ed3e146103a2578063e8a24e1d14610333578063e99a6ac7146102c0578063eb6a887d146102245763fef0bec81461017657600080fd5b346102205760207ffffffffffffffffffffffffffffffffffffffffffffffffffffffffffffffffc360112610220578035906101b0611a46565b67016345785d8a000082116101f95750907f87272249f1056ec16a68dd9255101358246dd26a796e2f0bc6b3a0ad02f2de4191600354908060035582519182526020820152a180f35b82517f0b169966000000000000000000000000000000000000000000000000000000008152fd5b8280fd5b50346102205760207ffffffffffffffffffffffffffffffffffffffffffffffffffffffffffffffffc3601126102205780359061025f611a46565b670b1a2bc2ec500000821080156102af575b6101f95750907ff25d2243e4128e51523d8537f04f18c3e6390bbfc6323390a9a8e59b921ce04691600154908060015582519182526020820152a180f35b50670de0b6b3a76400008211610271565b50503461032f57817ffffffffffffffffffffffffffffffffffffffffffffffffffffffffffffffffc36011261032f576020905173ffffffffffffffffffffffffffffffffffffffff7f0000000000000000000000000000000000000000000000000000000000000000168152f35b5080fd5b50503461032f57817ffffffffffffffffffffffffffffffffffffffffffffffffffffffffffffffffc36011261032f576020905173ffffffffffffffffffffffffffffffffffffffff7f0000000000000000000000000000000000000000000000000000000000000000168152f35b503461022057817ffffffffffffffffffffffffffffffffffffffffffffffffffffffffffffffffc360112610220573573ffffffffffffffffffffffffffffffffffffffff928382168203610418576024359384168403610418576020938452637f5e9f20600c52526034600c20549051908152f35b600080fd5b50503461032f57817ffffffffffffffffffffffffffffffffffffffffffffffffffffffffffffffffc36011261032f576020905173ffffffffffffffffffffffffffffffffffffffff7f0000000000000000000000000000000000000000000000000000000000000000168152f35b5090346102205760e07ffffffffffffffffffffffffffffffffffffffffffffffffffffffffffffffffc36011261022057813573ffffffffffffffffffffffffffffffffffffffff9081811680910361041857602435918216809203610418576084359360643560443560ff8716870361060b57610508611bef565b928651978342116105ff576338377508600c52858a5260209485600c20948554956001870190557f6e71edae12b1b97f4d1f60370fef10105fa2faae0126114a169c64845d6126c98b5287878c0152888a8c015260608b019585875260808c015260a08b01526119018b52855260c0892088526042601e208a5260ff16845260a435875260c435606052838060808b60015afa50843d51036105f45750777f5e9f200000000000000000000000000000000000000000851786526034602c20557f8c5be1e5ebec7d5bd14f71427d1e84f3dd0314c0f7b2291e5b200ac8c7c3b9259190a3528060605280f35b63ddafbaef8952601cfd5b50631a15a3cc8952601cfd5b8780fd5b50503461032f57817ffffffffffffffffffffffffffffffffffffffffffffffffffffffffffffffffc36011261032f576020906001549051908152f35b5090346102205760607ffffffffffffffffffffffffffffffffffffffffffffffffffffffffffffffffc360112610220578135916024359373ffffffffffffffffffffffffffffffffffffffff9384861691828703610418576044359586169384870361041857843303610805575b6106c36119ff565b807fffffffffffffffffffffffffffffffffffffffffffffffffffffffffffffffff04841181026107f957670de0b6b3a7640000908402049687156107d1576387a211a2600c5282526020600c20908154908185116107c65750976107899288928560209b0390556805345cdf77eb68f44c858154039055848152867fddf252ad1be2c89b69c2b068fc378daa952ba7f163c4a11628f55a4df523b3ef8b83a37f0000000000000000000000000000000000000000000000000000000000000000611d56565b835190858252868201527ffbde797d201c681b91056529119e0b02407c7bb96a4a2c75c01fc9667232c8db843392a46107c0611b36565b51908152f35b63f4d678b88452601cfd5b5085517fe3e8d297000000000000000000000000000000000000000000000000000000008152fd5b5063bac65e5b8252601cfd5b33602052637f5e9f20600c528682526034600c2080547fffffffffffffffffffffffffffffffffffffffffffffffffffffffffffffffff810361084a575b50506106bb565b80851161085d5784900390553880610843565b826313be252b8552601cfd5b50503461032f57817ffffffffffffffffffffffffffffffffffffffffffffffffffffffffffffffffc36011261032f5773ffffffffffffffffffffffffffffffffffffffff6020925460081c169051908152f35b50913461097257817ffffffffffffffffffffffffffffffffffffffffffffffffffffffffffffffffc36011261097257823573ffffffffffffffffffffffffffffffffffffffff8116810361041857602435916387a211a2600c5233815260209485600c20908154908186116107c6575084900390555282600c208181540190558252600c5160601c337fddf252ad1be2c89b69c2b068fc378daa952ba7f163c4a11628f55a4df523b3ef8480a35160018152f35b80fd5b50346102205760207ffffffffffffffffffffffffffffffffffffffffffffffffffffffffffffffffc360112610220578035906109b0611a46565b670de0b6b3a764000082108015610a00575b6101f95750907faeba5a6c40a8ac138134bff1aaa65debf25971188a58804bad717f82f0ec131691600254908060025582519182526020820152a180f35b50670ff59ee833b3000082116109c2565b50913461097257817ffffffffffffffffffffffffffffffffffffffffffffffffffffffffffffffffc36011261097257823573ffffffffffffffffffffffffffffffffffffffff811681036104185760243590602052637f5e9f20600c523382526034600c20908154818110610abe5760209550038091558152602c5160601c907f8c5be1e5ebec7d5bd14f71427d1e84f3dd0314c0f7b2291e5b200ac8c7c3b925843392a35160018152f35b85638301ab388552601cfd5b50503461032f57817ffffffffffffffffffffffffffffffffffffffffffffffffffffffffffffffffc36011261032f576020906003549051908152f35b50903461022057827ffffffffffffffffffffffffffffffffffffffffffffffffffffffffffffffffc3601126102205782815180937f95d89b410000000000000000000000000000000000000000000000000000000082528173ffffffffffffffffffffffffffffffffffffffff7f0000000000000000000000000000000000000000000000000000000000000000165afa918215610c94578392610c0c575b610c088383610bfe6027825180947f4379674c503a20000000000000000000000000000000000000000000000000006020830152610bee81518092602086860191016118a4565b8101036007810185520183611911565b51918291826118c7565b0390f35b9091503d8084833e610c1e8183611911565b810190602081830312610c8c5780519067ffffffffffffffff8211610c90570181601f82011215610c8c57805193610c5585611981565b92610c6285519485611911565b858452602086840101116109725750610c0893610c8591602080850191016118a4565b9038610ba7565b8380fd5b8480fd5b81513d85823e3d90fd5b50503461032f57817ffffffffffffffffffffffffffffffffffffffffffffffffffffffffffffffffc36011261032f576020906002549051908152f35b509034610220576101207ffffffffffffffffffffffffffffffffffffffffffffffffffffffffffffffffc3601126102205781359260249384359473ffffffffffffffffffffffffffffffffffffffff928387169384880361032f5760c07fffffffffffffffffffffffffffffffffffffffffffffffffffffffffffffffbc36011261032f5761010480359167ffffffffffffffff91828411610c905736602385011215610c9057838a0135928311610c905736868486010111610c90577f000000000000000000000000000000000000000000000000000000000000000092610dc53085611d9f565b9481610fba575b505050610dd886611d12565b6e22d473030f116ddee9f6b43ac78ba3803b15610fb6579060848b878094868e5197889687957f36c7851600000000000000000000000000000000000000000000000000000000875233908701528d3090870152166044850152881660648401525af18015610fac57908491610f97575b5050610e56903090611d9f565b908103908111610f6a57610e7290610e6c6119ff565b90611ccf565b958615610f43576805345cdf77eb68f44c5415610ed0575b505050610e9984602096611c61565b825190815283858201527fdcbc1c05240f31ff3ad067ef1ee35ce4997762752e3a095284754544f4c709d7833392a36107c0611b36565b7ffffffffffffffffffffffffffffffffffffffffffffffffffffffffffffffc18870197968811610f1a57505050610e996020958095610f146103e861dead611c61565b96610e8a565b6011907f4e487b7100000000000000000000000000000000000000000000000000000000835252fd5b85517ff1ca48b1000000000000000000000000000000000000000000000000000000008152fd5b826011887f4e487b7100000000000000000000000000000000000000000000000000000000600052526000fd5b81610fa191611911565b610220578238610e49565b88513d86823e3d90fd5b8580fd5b6e22d473030f116ddee9f6b43ac78ba391823b1561060b578b51937f2b67b5700000000000000000000000000000000000000000000000000000000085528d33908601526044358681168091036110ec578a8601526064358681168091036110ec57604486015260843565ffffffffffff908181168091036110f057606487015260a4359081168091036110ec57608486015260c4358681168091036110ec578593847fffffffffffffffffffffffffffffffffffffffffffffffffffffffffffffffe0601f868f978f9a988186998d9960a489015260e43560c489015261010060e489015287015261012496018686013785858286010152011681010301925af180156110e2576110ce575b8080610dcc565b846110db91959295611911565b92386110c7565b89513d87823e3d90fd5b8980fd5b8a80fd5b50346102205760207ffffffffffffffffffffffffffffffffffffffffffffffffffffffffffffffffc360112610220573573ffffffffffffffffffffffffffffffffffffffff81168103610220576020926338377508600c525281600c20549051908152f35b50346102205760207ffffffffffffffffffffffffffffffffffffffffffffffffffffffffffffffffc360112610220573573ffffffffffffffffffffffffffffffffffffffff81168103610220576020926387a211a2600c525281600c20549051908152f35b50503461032f57817ffffffffffffffffffffffffffffffffffffffffffffffffffffffffffffffffc36011261032f576020905173ffffffffffffffffffffffffffffffffffffffff7f0000000000000000000000000000000000000000000000000000000000000000168152f35b50503461032f57817ffffffffffffffffffffffffffffffffffffffffffffffffffffffffffffffffc36011261032f57602090516e22d473030f116ddee9f6b43ac78ba38152f35b50503461032f57817ffffffffffffffffffffffffffffffffffffffffffffffffffffffffffffffffc36011261032f57602090517f00000000000000000000000000000000000000000000000000000000000000008152f35b50503461032f57817ffffffffffffffffffffffffffffffffffffffffffffffffffffffffffffffffc36011261032f5760209061130b6119ff565b9051908152f35b50913461097257817ffffffffffffffffffffffffffffffffffffffffffffffffffffffffffffffffc36011261097257823573ffffffffffffffffffffffffffffffffffffffff8116810361032f57602052637f5e9f20600c523381526034600c209283549060243582019182106113bf575080602094558152602c5160601c907f8c5be1e5ebec7d5bd14f71427d1e84f3dd0314c0f7b2291e5b200ac8c7c3b925843392a35160018152f35b63f90670668352601cfd5b50503461032f57817ffffffffffffffffffffffffffffffffffffffffffffffffffffffffffffffffc36011261032f5760209061130b611bef565b50913461097257807ffffffffffffffffffffffffffffffffffffffffffffffffffffffffffffffffc360112610972576020825180947f313ce5670000000000000000000000000000000000000000000000000000000082528173ffffffffffffffffffffffffffffffffffffffff7f0000000000000000000000000000000000000000000000000000000000000000165afa9283156114f45781936114b3575b60208460ff855191168152f35b9092506020813d82116114ec575b816114ce60209383611911565b8101031261022057519160ff83168303610972575060ff60206114a6565b3d91506114c1565b509051903d90823e3d90fd5b5091346109725760607ffffffffffffffffffffffffffffffffffffffffffffffffffffffffffffffffc3601126109725773ffffffffffffffffffffffffffffffffffffffff83358181169291838203610220576024359081168103610220576044359160601b92602096338852600c94637f5e9f20811786526034862080547fffffffffffffffffffffffffffffffffffffffffffffffffffffffffffffffff8103611602575b50506387a211a2178552878520908154908186116107c6575084900390555284822081815401905584525160601c907fddf252ad1be2c89b69c2b068fc378daa952ba7f163c4a11628f55a4df523b3ef8480a35160018152f35b8087116116195786900390556387a211a2386115a8565b836313be252b8652601cfd5b5091903461032f5760207ffffffffffffffffffffffffffffffffffffffffffffffffffffffffffffffffc36011261032f5773ffffffffffffffffffffffffffffffffffffffff90833582811691828203610c905784549360ff851615611752577fffffffffffffffffffffffffffffffffffffffffffffffffffffffffffffff0080951686556116b4611a46565b7f000000000000000000000000000000000000000000000000000000000000000016831461172a5760019495506116f76116ee3084611d9f565b80933390611d56565b519081527f6d25be279134f4ecaa4770aff0c3d916d9e7c5ef37b65ed95dbdba411f5d54d560203392a382541617815580f35b8590517fb5d8f391000000000000000000000000000000000000000000000000000000008152fd5b8682517f37ed32e8000000000000000000000000000000000000000000000000000000008152fd5b50503461032f57817ffffffffffffffffffffffffffffffffffffffffffffffffffffffffffffffffc36011261032f576020906805345cdf77eb68f44c549051908152f35b503461022057817ffffffffffffffffffffffffffffffffffffffffffffffffffffffffffffffffc360112610220573573ffffffffffffffffffffffffffffffffffffffff811681036102205791602092602435908452637f5e9f20600c52338252806034600c20558152602c5160601c907f8c5be1e5ebec7d5bd14f71427d1e84f3dd0314c0f7b2291e5b200ac8c7c3b925843392a35160018152f35b50503461032f57817ffffffffffffffffffffffffffffffffffffffffffffffffffffffffffffffffc36011261032f57610c08906118996119bb565b9051918291826118c7565b60005b8381106118b75750506000910152565b81810151838201526020016118a7565b7fffffffffffffffffffffffffffffffffffffffffffffffffffffffffffffffe0601f6040936020845261190a81518092816020880152602088880191016118a4565b0116010190565b90601f7fffffffffffffffffffffffffffffffffffffffffffffffffffffffffffffffe0910116810190811067ffffffffffffffff82111761195257604052565b7f4e487b7100000000000000000000000000000000000000000000000000000000600052604160045260246000fd5b67ffffffffffffffff811161195257601f017fffffffffffffffffffffffffffffffffffffffffffffffffffffffffffffffe01660200190565b6119c56012611981565b906119d36040519283611911565b601282527f4379676e75733a20436f6c6c61746572616c00000000000000000000000000006020830152565b6805345cdf77eb68f44c5460009080611a20575050670de0b6b3a764000090565b73ffffffffffffffffffffffffffffffffffffffff611a43925460081c16611ccf565b90565b6040517ff851a44000000000000000000000000000000000000000000000000000000000815273ffffffffffffffffffffffffffffffffffffffff90602081600481857f0000000000000000000000000000000000000000000000000000000000000000165afa908115611b2a57600091611af0575b50163303611ac657565b60046040517f63ac75a2000000000000000000000000000000000000000000000000000000008152fd5b6020813d8211611b22575b81611b0860209383611911565b8101031261032f5751908282168203610972575038611abc565b3d9150611afb565b6040513d6000823e3d90fd5b7f3145c2b643834867f2c0a8cac8a48218307687911615c0ed01412a09dd163b666020611b8b611b86307f0000000000000000000000000000000000000000000000000000000000000000611d9f565b611d12565b6000547fffffffffffffffffffffff0000000000000000000000000000000000000000ff74ffffffffffffffffffffffffffffffffffffffff008360081b1691161760005573ffffffffffffffffffffffffffffffffffffffff60405191168152a1565b60a0604051611bfc6119bb565b602081519101207f8b73c3c69bb8fe3d512ecc4cf759cc79239f7b179b0ffacaa9a75d522b39400f825260208201527fc89efdaa54c0f20c7adf612882df0950f5a951637e0307cdcb4c672f298b8bc660408201524660608201523060808201522090565b6805345cdf77eb68f44c805490838201918210611cc157556387a211a2600c526000526020600c20818154019055602052600c5160601c60007fddf252ad1be2c89b69c2b068fc378daa952ba7f163c4a11628f55a4df523b3ef602080a3565b63e5cfe9576000526004601cfd5b670de0b6b3a7640000907812725dd1d243aba0e75fe645cc4873f9e65afe688c928e1f218111820215830215611d0457020490565b637c5f487d6000526004601cfd5b74010000000000000000000000000000000000000000811015611d485773ffffffffffffffffffffffffffffffffffffffff1690565b6335278d126000526004601cfd5b60109260209260145260345260446000938480936fa9059cbb00000000000000000000000082525af13d156001835114171615611d9257603452565b6390b8ec1890526004601cfd5b602460106020939284936014526f70a082310000000000000000000000006000525afa601f3d1116602051029056fea164736f6c6343000811000a",
  "linkReferences": {},
  "deployedLinkReferences": {}
}