{
  "_format": "hh-sol-artifact-1",
  "contractName": "CygnusCollateralControl",
  "sourceName": "contracts/cygnus-core/CygnusCollateralControl.sol",
  "abi": [
    {
      "inputs": [],
      "stateMutability": "nonpayable",
      "type": "constructor"
    },
    {
      "inputs": [
        {
          "internalType": "uint256",
          "name": "min",
          "type": "uint256"
        },
        {
          "internalType": "uint256",
          "name": "max",
          "type": "uint256"
        },
        {
          "internalType": "uint256",
          "name": "value",
          "type": "uint256"
        }
      ],
      "name": "CygnusCollateralControl__ParameterNotInRange",
      "type": "error"
    },
    {
      "inputs": [],
      "name": "CygnusTerminal__CantMintZeroShares",
      "type": "error"
    },
    {
      "inputs": [],
      "name": "CygnusTerminal__CantRedeemZeroAssets",
      "type": "error"
    },
    {
      "inputs": [
        {
          "internalType": "address",
          "name": "token",
          "type": "address"
        },
        {
          "internalType": "address",
          "name": "underlying",
          "type": "address"
        }
      ],
      "name": "CygnusTerminal__CantSweepUnderlying",
      "type": "error"
    },
    {
      "inputs": [
        {
          "internalType": "address",
          "name": "sender",
          "type": "address"
        },
        {
          "internalType": "address",
          "name": "factoryAdmin",
          "type": "address"
        }
      ],
      "name": "CygnusTerminal__MsgSenderNotAdmin",
      "type": "error"
    },
    {
      "inputs": [
        {
          "internalType": "uint256",
          "name": "assets",
          "type": "uint256"
        },
        {
          "internalType": "uint256",
          "name": "totalBalance",
          "type": "uint256"
        }
      ],
      "name": "CygnusTerminal__RedeemAmountInvalid",
      "type": "error"
    },
    {
      "inputs": [],
      "name": "ERC20__ApproveOwnerZeroAddress",
      "type": "error"
    },
    {
      "inputs": [],
      "name": "ERC20__ApproveSpenderZeroAddress",
      "type": "error"
    },
    {
      "inputs": [
        {
          "internalType": "uint256",
          "name": "accountBalance",
          "type": "uint256"
        },
        {
          "internalType": "uint256",
          "name": "burnAmount",
          "type": "uint256"
        }
      ],
      "name": "ERC20__BurnUnderflow",
      "type": "error"
    },
    {
      "inputs": [],
      "name": "ERC20__BurnZeroAddress",
      "type": "error"
    },
    {
      "inputs": [
        {
          "internalType": "uint256",
          "name": "allowance",
          "type": "uint256"
        },
        {
          "internalType": "uint256",
          "name": "amount",
          "type": "uint256"
        }
      ],
      "name": "ERC20__InsufficientAllowance",
      "type": "error"
    },
    {
      "inputs": [
        {
          "internalType": "uint256",
          "name": "senderBalance",
          "type": "uint256"
        },
        {
          "internalType": "uint256",
          "name": "amount",
          "type": "uint256"
        }
      ],
      "name": "ERC20__InsufficientBalance",
      "type": "error"
    },
    {
      "inputs": [],
      "name": "ERC20__MintZeroAddress",
      "type": "error"
    },
    {
      "inputs": [],
      "name": "ERC20__TransferRecipientZeroAddress",
      "type": "error"
    },
    {
      "inputs": [],
      "name": "ERC20__TransferSenderZeroAddress",
      "type": "error"
    },
    {
      "inputs": [
        {
          "internalType": "uint256",
          "name": "prod1",
          "type": "uint256"
        }
      ],
      "name": "PRBMath__MulDivFixedPointOverflow",
      "type": "error"
    },
    {
      "inputs": [
        {
          "internalType": "uint256",
          "name": "prod1",
          "type": "uint256"
        },
        {
          "internalType": "uint256",
          "name": "denominator",
          "type": "uint256"
        }
      ],
      "name": "PRBMath__MulDivOverflow",
      "type": "error"
    },
    {
      "inputs": [],
      "name": "ReentrantCall",
      "type": "error"
    },
    {
      "anonymous": false,
      "inputs": [
        {
          "indexed": true,
          "internalType": "address",
          "name": "owner",
          "type": "address"
        },
        {
          "indexed": true,
          "internalType": "address",
          "name": "spender",
          "type": "address"
        },
        {
          "indexed": false,
          "internalType": "uint256",
          "name": "amount",
          "type": "uint256"
        }
      ],
      "name": "Approval",
      "type": "event"
    },
    {
      "anonymous": false,
      "inputs": [
        {
          "indexed": true,
          "internalType": "address",
          "name": "sender",
          "type": "address"
        },
        {
          "indexed": true,
          "internalType": "address",
          "name": "recipient",
          "type": "address"
        },
        {
          "indexed": false,
          "internalType": "uint256",
          "name": "assets",
          "type": "uint256"
        },
        {
          "indexed": false,
          "internalType": "uint256",
          "name": "shares",
          "type": "uint256"
        }
      ],
      "name": "Deposit",
      "type": "event"
    },
    {
      "anonymous": false,
      "inputs": [
        {
          "indexed": false,
          "internalType": "uint256",
          "name": "oldDebtRatio",
          "type": "uint256"
        },
        {
          "indexed": false,
          "internalType": "uint256",
          "name": "newDebtRatio",
          "type": "uint256"
        }
      ],
      "name": "NewDebtRatio",
      "type": "event"
    },
    {
      "anonymous": false,
      "inputs": [
        {
          "indexed": false,
          "internalType": "uint256",
          "name": "oldLiquidationFee",
          "type": "uint256"
        },
        {
          "indexed": false,
          "internalType": "uint256",
          "name": "newLiquidationFee",
          "type": "uint256"
        }
      ],
      "name": "NewLiquidationFee",
      "type": "event"
    },
    {
      "anonymous": false,
      "inputs": [
        {
          "indexed": false,
          "internalType": "uint256",
          "name": "oldLiquidationIncentive",
          "type": "uint256"
        },
        {
          "indexed": false,
          "internalType": "uint256",
          "name": "newLiquidationIncentive",
          "type": "uint256"
        }
      ],
      "name": "NewLiquidationIncentive",
      "type": "event"
    },
    {
      "anonymous": false,
      "inputs": [
        {
          "indexed": false,
          "internalType": "uint256",
          "name": "totalBalance",
          "type": "uint256"
        }
      ],
      "name": "Sync",
      "type": "event"
    },
    {
      "anonymous": false,
      "inputs": [
        {
          "indexed": true,
          "internalType": "address",
          "name": "from",
          "type": "address"
        },
        {
          "indexed": true,
          "internalType": "address",
          "name": "to",
          "type": "address"
        },
        {
          "indexed": false,
          "internalType": "uint256",
          "name": "amount",
          "type": "uint256"
        }
      ],
      "name": "Transfer",
      "type": "event"
    },
    {
      "anonymous": false,
      "inputs": [
        {
          "indexed": true,
          "internalType": "address",
          "name": "sender",
          "type": "address"
        },
        {
          "indexed": true,
          "internalType": "address",
          "name": "recipient",
          "type": "address"
        },
        {
          "indexed": true,
          "internalType": "address",
          "name": "owner",
          "type": "address"
        },
        {
          "indexed": false,
          "internalType": "uint256",
          "name": "assets",
          "type": "uint256"
        },
        {
          "indexed": false,
          "internalType": "uint256",
          "name": "shares",
          "type": "uint256"
        }
      ],
      "name": "Withdraw",
      "type": "event"
    },
    {
      "inputs": [
        {
          "internalType": "address",
          "name": "owner",
          "type": "address"
        },
        {
          "internalType": "address",
          "name": "spender",
          "type": "address"
        }
      ],
      "name": "allowance",
      "outputs": [
        {
          "internalType": "uint256",
          "name": "",
          "type": "uint256"
        }
      ],
      "stateMutability": "view",
      "type": "function"
    },
    {
      "inputs": [
        {
          "internalType": "address",
          "name": "spender",
          "type": "address"
        },
        {
          "internalType": "uint256",
          "name": "amount",
          "type": "uint256"
        }
      ],
      "name": "approve",
      "outputs": [
        {
          "internalType": "bool",
          "name": "",
          "type": "bool"
        }
      ],
      "stateMutability": "nonpayable",
      "type": "function"
    },
    {
      "inputs": [
        {
          "internalType": "address",
          "name": "account",
          "type": "address"
        }
      ],
      "name": "balanceOf",
      "outputs": [
        {
          "internalType": "uint256",
          "name": "",
          "type": "uint256"
        }
      ],
      "stateMutability": "view",
      "type": "function"
    },
    {
      "inputs": [],
      "name": "borrowable",
      "outputs": [
        {
          "internalType": "address",
          "name": "",
          "type": "address"
        }
      ],
      "stateMutability": "view",
      "type": "function"
    },
    {
      "inputs": [],
      "name": "cygnusNebulaOracle",
      "outputs": [
        {
          "internalType": "contract IChainlinkNebulaOracle",
          "name": "",
          "type": "address"
        }
      ],
      "stateMutability": "view",
      "type": "function"
    },
    {
      "inputs": [],
      "name": "debtRatio",
      "outputs": [
        {
          "internalType": "uint256",
          "name": "",
          "type": "uint256"
        }
      ],
      "stateMutability": "view",
      "type": "function"
    },
    {
      "inputs": [],
      "name": "decimals",
      "outputs": [
        {
          "internalType": "uint8",
          "name": "",
          "type": "uint8"
        }
      ],
      "stateMutability": "view",
      "type": "function"
    },
    {
      "inputs": [
        {
          "internalType": "uint256",
          "name": "assets",
          "type": "uint256"
        },
        {
          "internalType": "address",
          "name": "recipient",
          "type": "address"
        }
      ],
      "name": "deposit",
      "outputs": [
        {
          "internalType": "uint256",
          "name": "shares",
          "type": "uint256"
        }
      ],
      "stateMutability": "nonpayable",
      "type": "function"
    },
    {
      "inputs": [],
      "name": "exchangeRate",
      "outputs": [
        {
          "internalType": "uint256",
          "name": "",
          "type": "uint256"
        }
      ],
      "stateMutability": "view",
      "type": "function"
    },
    {
      "inputs": [],
      "name": "hangar18",
      "outputs": [
        {
          "internalType": "address",
          "name": "",
          "type": "address"
        }
      ],
      "stateMutability": "view",
      "type": "function"
    },
    {
      "inputs": [],
      "name": "liquidationFee",
      "outputs": [
        {
          "internalType": "uint256",
          "name": "",
          "type": "uint256"
        }
      ],
      "stateMutability": "view",
      "type": "function"
    },
    {
      "inputs": [],
      "name": "liquidationIncentive",
      "outputs": [
        {
          "internalType": "uint256",
          "name": "",
          "type": "uint256"
        }
      ],
      "stateMutability": "view",
      "type": "function"
    },
    {
      "inputs": [],
      "name": "name",
      "outputs": [
        {
          "internalType": "string",
          "name": "",
          "type": "string"
        }
      ],
      "stateMutability": "view",
      "type": "function"
    },
    {
      "inputs": [],
      "name": "orbiterName",
      "outputs": [
        {
          "internalType": "string",
          "name": "",
          "type": "string"
        }
      ],
      "stateMutability": "view",
      "type": "function"
    },
    {
      "inputs": [
        {
          "internalType": "uint256",
          "name": "shares",
          "type": "uint256"
        },
        {
          "internalType": "address",
          "name": "recipient",
          "type": "address"
        },
        {
          "internalType": "address",
          "name": "owner",
          "type": "address"
        }
      ],
      "name": "redeem",
      "outputs": [
        {
          "internalType": "uint256",
          "name": "assets",
          "type": "uint256"
        }
      ],
      "stateMutability": "nonpayable",
      "type": "function"
    },
    {
      "inputs": [
        {
          "internalType": "uint256",
          "name": "newDebtRatio",
          "type": "uint256"
        }
      ],
      "name": "setDebtRatio",
      "outputs": [],
      "stateMutability": "nonpayable",
      "type": "function"
    },
    {
      "inputs": [
        {
          "internalType": "uint256",
          "name": "newLiquidationFee",
          "type": "uint256"
        }
      ],
      "name": "setLiquidationFee",
      "outputs": [],
      "stateMutability": "nonpayable",
      "type": "function"
    },
    {
      "inputs": [
        {
          "internalType": "uint256",
          "name": "newLiquidationIncentive",
          "type": "uint256"
        }
      ],
      "name": "setLiquidationIncentive",
      "outputs": [],
      "stateMutability": "nonpayable",
      "type": "function"
    },
    {
      "inputs": [],
      "name": "shuttleId",
      "outputs": [
        {
          "internalType": "uint256",
          "name": "",
          "type": "uint256"
        }
      ],
      "stateMutability": "view",
      "type": "function"
    },
    {
      "inputs": [
        {
          "internalType": "address",
          "name": "token",
          "type": "address"
        }
      ],
      "name": "sweepToken",
      "outputs": [],
      "stateMutability": "nonpayable",
      "type": "function"
    },
    {
      "inputs": [],
      "name": "symbol",
      "outputs": [
        {
          "internalType": "string",
          "name": "",
          "type": "string"
        }
      ],
      "stateMutability": "view",
      "type": "function"
    },
    {
      "inputs": [],
      "name": "totalBalance",
      "outputs": [
        {
          "internalType": "uint256",
          "name": "",
          "type": "uint256"
        }
      ],
      "stateMutability": "view",
      "type": "function"
    },
    {
      "inputs": [],
      "name": "totalSupply",
      "outputs": [
        {
          "internalType": "uint256",
          "name": "",
          "type": "uint256"
        }
      ],
      "stateMutability": "view",
      "type": "function"
    },
    {
      "inputs": [
        {
          "internalType": "address",
          "name": "recipient",
          "type": "address"
        },
        {
          "internalType": "uint256",
          "name": "amount",
          "type": "uint256"
        }
      ],
      "name": "transfer",
      "outputs": [
        {
          "internalType": "bool",
          "name": "",
          "type": "bool"
        }
      ],
      "stateMutability": "nonpayable",
      "type": "function"
    },
    {
      "inputs": [
        {
          "internalType": "address",
          "name": "sender",
          "type": "address"
        },
        {
          "internalType": "address",
          "name": "recipient",
          "type": "address"
        },
        {
          "internalType": "uint256",
          "name": "amount",
          "type": "uint256"
        }
      ],
      "name": "transferFrom",
      "outputs": [
        {
          "internalType": "bool",
          "name": "",
          "type": "bool"
        }
      ],
      "stateMutability": "nonpayable",
      "type": "function"
    },
    {
      "inputs": [],
      "name": "underlying",
      "outputs": [
        {
          "internalType": "address",
          "name": "",
          "type": "address"
        }
      ],
      "stateMutability": "view",
      "type": "function"
    }
  ],
  "bytecode": "0x610140604052670d2f13f7789f0000600855670e398811bec680006009553480156200002a57600080fd5b5060408051808201825260128082527110de59db9d5cce8810dbdb1b185d195c985b60721b602080840191825284519081019094526000808552805460ff1916600190811790915583519394938592859285926200008992906200033a565b5081516200009f9060029060208501906200033a565b5060f81b7fff000000000000000000000000000000000000000000000000000000000000001660805250600090508080620000d73390565b6001600160a01b031663c3bc64ea6040518163ffffffff1660e01b8152600401608060405180830381600087803b1580156200011257600080fd5b505af192505050801562000145575060408051601f3d908101601f191682019092526200014291810190620003e0565b60015b620001d457336001600160a01b0316639a9862366040518163ffffffff1660e01b815260040160c060405180830381600087803b1580156200018657600080fd5b505af11580156200019b573d6000803e3d6000fd5b505050506040513d601f19601f82011682018060405250810190620001c1919062000439565b50939650919450909250620001df915050565b929550909350909150505b6001600160601b0319606093841b811660a0529190921b1660e05260c05250600091506200020c90503390565b6001600160a01b031663c3bc64ea6040518163ffffffff1660e01b8152600401608060405180830381600087803b1580156200024757600080fd5b505af11580156200025c573d6000803e3d6000fd5b505050506040513d601f19601f82011682018060405250810190620002829190620003e0565b90915050806001600160a01b0316610100906001600160a01b031660601b8152508192505050806001600160a01b031663d935bd926040518163ffffffff1660e01b815260040160206040518083038186803b158015620002e257600080fd5b505afa158015620002f7573d6000803e3d6000fd5b505050506040513d601f19601f820116820180604052508101906200031d9190620004a8565b60601b6001600160601b0319166101205250600060035562000524565b8280546200034890620004ce565b90600052602060002090601f0160209004810192826200036c5760008555620003b7565b82601f106200038757805160ff1916838001178555620003b7565b82800160010185558215620003b7579182015b82811115620003b75782518255916020019190600101906200039a565b50620003c5929150620003c9565b5090565b5b80821115620003c55760008155600101620003ca565b60008060008060808587031215620003f6578384fd5b845162000403816200050b565b602086015190945062000416816200050b565b604086015190935062000429816200050b565b6060959095015193969295505050565b60008060008060008060c0878903121562000452578182fd5b86516200045f816200050b565b602088015190965062000472816200050b565b604088015190955062000485816200050b565b80945050606087015192506080870151915060a087015190509295509295509295565b600060208284031215620004ba578081fd5b8151620004c7816200050b565b9392505050565b600181811c90821680620004e357607f821691505b602082108114156200050557634e487b7160e01b600052602260045260246000fd5b50919050565b6001600160a01b03811681146200052157600080fd5b50565b60805160f81c60a05160601c60c05160e05160601c6101005160601c6101205160601c61159f620005ad60003960006103800152600061040f0152600081816102b3015281816105330152818161058a01528181610771015281816109e20152610d87015260006102790152600081816103e80152610c6001526000610238015261159f6000f3fe608060405234801561001057600080fd5b50600436106101ae5760003560e01c8063a36a3630116100ee578063d935bd9211610097578063e8a24e1d11610071578063e8a24e1d146103e3578063e99a6ac71461040a578063eb6a887d14610431578063fef0bec81461044457600080fd5b8063d935bd921461037b578063da7a2f74146103a2578063dd62ed3e146103aa57600080fd5b8063ad7a672f116100c8578063ad7a672f14610356578063ba0876521461035f578063cea55f571461037257600080fd5b8063a36a363014610327578063a843108114610330578063a9059cbb1461034357600080fd5b80633ba0b9a91161015b5780636f307dc3116101355780636f307dc3146102ae57806370a08231146102ed5780638c765e941461031657806395d89b411461031f57600080fd5b80633ba0b9a91461026c5780635f77f891146102745780636e553f651461029b57600080fd5b80631be195601161018c5780631be195601461020b57806323b872dd14610220578063313ce5671461023357600080fd5b806306fdde03146101b3578063095ea7b3146101d157806318160ddd146101f4575b600080fd5b6101bb610457565b6040516101c89190611481565b60405180910390f35b6101e46101df3660046113c1565b6104e5565b60405190151581526020016101c8565b6101fd60035481565b6040519081526020016101c8565b61021e610219366004611311565b6104fc565b005b6101e461022e366004611381565b610665565b61025a7f000000000000000000000000000000000000000000000000000000000000000081565b60405160ff90911681526020016101c8565b6101fd6106db565b6101fd7f000000000000000000000000000000000000000000000000000000000000000081565b6101fd6102a936600461141c565b610709565b6102d57f000000000000000000000000000000000000000000000000000000000000000081565b6040516001600160a01b0390911681526020016101c8565b6101fd6102fb366004611311565b6001600160a01b031660009081526004602052604090205490565b6101fd60095481565b6101bb61080c565b6101fd600a5481565b61021e61033e3660046113ec565b610819565b6101e46103513660046113c1565b6108bc565b6101fd60065481565b6101fd61036d366004611440565b6108c9565b6101fd60085481565b6102d57f000000000000000000000000000000000000000000000000000000000000000081565b6101bb610a8b565b6101fd6103b8366004611349565b6001600160a01b03918216600090815260056020908152604080832093909416825291909152205490565b6102d57f000000000000000000000000000000000000000000000000000000000000000081565b6102d57f000000000000000000000000000000000000000000000000000000000000000081565b61021e61043f3660046113ec565b610a98565b61021e6104523660046113ec565b610b26565b6001805461046490611503565b80601f016020809104026020016040519081016040528092919081815260200182805461049090611503565b80156104dd5780601f106104b2576101008083540402835291602001916104dd565b820191906000526020600020905b8154815290600101906020018083116104c057829003601f168201915b505050505081565b60006104f2338484610bad565b5060015b92915050565b60005460ff1661051f576040516306fda65d60e31b815260040160405180910390fd5b6000805460ff19169055610531610c5c565b7f00000000000000000000000000000000000000000000000000000000000000006001600160a01b0316816001600160a01b031614156105bc576040516303b91a9160e31b81526001600160a01b0380831660048301527f00000000000000000000000000000000000000000000000000000000000000001660248201526044015b60405180910390fd5b6040516370a0823160e01b81523060048201526000906001600160a01b038316906370a082319060240160206040518083038186803b1580156105fe57600080fd5b505afa158015610612573d6000803e3d6000fd5b505050506040513d601f19601f820116820180604052508101906106369190611404565b905061064c6001600160a01b0383163383610d2e565b50610655610d72565b506000805460ff19166001179055565b6000610672848484610e43565b6001600160a01b0384166000908152600560209081526040808320338452909152902054828110156106c1576040516310c6013560e31b815260048101829052602481018490526044016105b3565b6106ce8533858403610bad565b60019150505b9392505050565b60035460009080156106f9576006546106f49082610f66565b610703565b670de0b6b3a76400005b91505090565b6000805460ff1661072d576040516306fda65d60e31b815260040160405180910390fd5b6000805460ff191690556107496107426106db565b8490610f66565b90506000811161076c5760405163f1ca48b160e01b815260040160405180910390fd5b6107a17f00000000000000000000000000000000000000000000000000000000000000006001600160a01b0316333086610f7b565b6107ab8282610fc9565b60408051848152602081018390526001600160a01b0384169133917fdcbc1c05240f31ff3ad067ef1ee35ce4997762752e3a095284754544f4c709d7910160405180910390a36107f9610d72565b6000805460ff1916600117905592915050565b6002805461046490611503565b60005460ff1661083c576040516306fda65d60e31b815260040160405180910390fd5b6000805460ff1916905561084e610c5c565b610869670de0b6b3a7640000670f43fc2c04ee00008361107c565b600980549082905560408051828152602081018490527faeba5a6c40a8ac138134bff1aaa65debf25971188a58804bad717f82f0ec131691015b60405180910390a150506000805460ff19166001179055565b60006104f2338484610e43565b6000805460ff166108ed576040516306fda65d60e31b815260040160405180910390fd5b6000805460ff19169055336001600160a01b03831614610965576001600160a01b038216600090815260056020908152604080832033845290915290205460001981146109635761093e85826114ec565b6001600160a01b03841660009081526005602090815260408083203384529091529020555b505b6109776109706106db565b85906110bc565b90506000811161099a5760405163e3e8d29760e01b815260040160405180910390fd5b6006548111156109cb576006546040516339eff09f60e11b81526105b3918391600401918252602082015260400190565b6109d582856110c8565b610a096001600160a01b037f0000000000000000000000000000000000000000000000000000000000000000168483610d2e565b816001600160a01b0316836001600160a01b0316610a243390565b6001600160a01b03167ffbde797d201c681b91056529119e0b02407c7bb96a4a2c75c01fc9667232c8db8488604051610a67929190918252602082015260400190565b60405180910390a4610a77610d72565b6000805460ff191660011790559392505050565b6007805461046490611503565b60005460ff16610abb576040516306fda65d60e31b815260040160405180910390fd5b6000805460ff19169055610acd610c5c565b610ae8670b1a2bc2ec500000670de0b6b3a76400008361107c565b600880549082905560408051828152602081018490527ff25d2243e4128e51523d8537f04f18c3e6390bbfc6323390a9a8e59b921ce04691016108a3565b60005460ff16610b49576040516306fda65d60e31b815260040160405180910390fd5b6000805460ff19169055610b5b610c5c565b610b6f600067016345785d8a00008361107c565b600a80549082905560408051828152602081018490527f87272249f1056ec16a68dd9255101358246dd26a796e2f0bc6b3a0ad02f2de4191016108a3565b6001600160a01b038316610bd4576040516317ba2d8b60e11b815260040160405180910390fd5b6001600160a01b038216610bfb57604051632cc8a69760e11b815260040160405180910390fd5b6001600160a01b0383811660008181526005602090815260408083209487168084529482529182902085905590518481527f8c5be1e5ebec7d5bd14f71427d1e84f3dd0314c0f7b2291e5b200ac8c7c3b925910160405180910390a3505050565b60007f00000000000000000000000000000000000000000000000000000000000000006001600160a01b031663f851a4406040518163ffffffff1660e01b815260040160206040518083038186803b158015610cb757600080fd5b505afa158015610ccb573d6000803e3d6000fd5b505050506040513d601f19601f82011682018060405250810190610cef919061132d565b9050336001600160a01b03821614610d2b57604051633e7c764160e21b81523360048201526001600160a01b03821660248201526044016105b3565b50565b60405163a9059cbb6000528260205281604052602060006044601c6000885af13d156001600051141716610d6a576390b8ec186000526004601cfd5b604052505050565b6040516370a0823160e01b81523060048201527f00000000000000000000000000000000000000000000000000000000000000006001600160a01b0316906370a082319060240160206040518083038186803b158015610dd157600080fd5b505afa158015610de5573d6000803e3d6000fd5b505050506040513d601f19601f82011682018060405250810190610e099190611404565b60068190556040519081527f8a0df8ef054fae2c3d2d19a7b322e864870cc9fd3cb07fb9526309c596244bf49060200160405180910390a1565b6001600160a01b038316610e6a5760405163618a6e7d60e11b815260040160405180910390fd5b6001600160a01b038216610e915760405163446ebce960e01b815260040160405180910390fd5b6001600160a01b03831660009081526004602052604090205481811015610ed55760405163355a868d60e01b815260048101829052602481018390526044016105b3565b6001600160a01b03808516600090815260046020526040808220858503905591851681529081208054849290610f0c9084906114d4565b92505081905550826001600160a01b0316846001600160a01b03167fddf252ad1be2c89b69c2b068fc378daa952ba7f163c4a11628f55a4df523b3ef84604051610f5891815260200190565b60405180910390a350505050565b60006106d483670de0b6b3a764000084611173565b6040516323b872dd600052836020528260405281606052602060006064601c6000895af13d156001600051141716610fbb57637939f4246000526004601cfd5b600060605260405250505050565b6001600160a01b038216610ff05760405163237813dd60e01b815260040160405180910390fd5b6001600160a01b038216600090815260046020526040812080548392906110189084906114d4565b92505081905550806003600082825461103191906114d4565b90915550506040518181526001600160a01b038316906000907fddf252ad1be2c89b69c2b068fc378daa952ba7f163c4a11628f55a4df523b3ef906020015b60405180910390a35050565b8281108061108957508181115b156110b75760405162ccc44d60e41b81526004810184905260248101839052604481018290526064016105b3565b505050565b60006106d4838361124f565b6001600160a01b0382166110ef57604051630b5da42b60e01b815260040160405180910390fd5b6001600160a01b038216600090815260046020526040812080548392906111179084906114ec565b92505081905550806003600082825461113091906114ec565b90915550506040518181526000906001600160a01b038416907fddf252ad1be2c89b69c2b068fc378daa952ba7f163c4a11628f55a4df523b3ef90602001611070565b6000808060001985870985870292508281108382030391505080600014156111bc578382816111b257634e487b7160e01b600052601260045260246000fd5b04925050506106d4565b8381106111e657604051631dcf306360e21b815260048101829052602481018590526044016105b3565b60008486880960026001871981018816978890046003810283188082028403028082028403028082028403028082028403028082028403029081029092039091026000889003889004909101858311909403939093029303949094049190911702949350505050565b60008080600019848609848602925082811083820303915050670de0b6b3a764000081106112935760405163698d9a0160e11b8152600481018290526024016105b3565b600080670de0b6b3a76400008688099150506706f05b59d3b1ffff8111826112cd5780670de0b6b3a76400008504019450505050506104f6565b620400008285030493909111909103600160ee1b02919091177faccb18165bd6fe31ae1cf318dc5b51eee0e1ba569b88cd74c1773b91fac106690201905092915050565b600060208284031215611322578081fd5b81356106d481611554565b60006020828403121561133e578081fd5b81516106d481611554565b6000806040838503121561135b578081fd5b823561136681611554565b9150602083013561137681611554565b809150509250929050565b600080600060608486031215611395578081fd5b83356113a081611554565b925060208401356113b081611554565b929592945050506040919091013590565b600080604083850312156113d3578182fd5b82356113de81611554565b946020939093013593505050565b6000602082840312156113fd578081fd5b5035919050565b600060208284031215611415578081fd5b5051919050565b6000806040838503121561142e578182fd5b82359150602083013561137681611554565b600080600060608486031215611454578283fd5b83359250602084013561146681611554565b9150604084013561147681611554565b809150509250925092565b6000602080835283518082850152825b818110156114ad57858101830151858201604001528201611491565b818111156114be5783604083870101525b50601f01601f1916929092016040019392505050565b600082198211156114e7576114e761153e565b500190565b6000828210156114fe576114fe61153e565b500390565b600181811c9082168061151757607f821691505b6020821081141561153857634e487b7160e01b600052602260045260246000fd5b50919050565b634e487b7160e01b600052601160045260246000fd5b6001600160a01b0381168114610d2b57600080fdfea26469706673582212202e99894c3ff5b6c42263e86c785c0c40accdcc6497638ff9f11dfb2a2feb668a64736f6c63430008040033",
  "linkReferences": {},
  "deployedLinkReferences": {}
}