{
  "_format": "hh-sol-artifact-1",
  "contractName": "CygnusAltairX",
  "sourceName": "contracts/cygnus-periphery/CygnusAltairX.sol",
  "abi": [
    {
      "inputs": [
        {
          "internalType": "address",
          "name": "factory",
          "type": "address"
        }
      ],
      "stateMutability": "nonpayable",
      "type": "constructor"
    },
    {
      "inputs": [
        {
          "internalType": "uint256",
          "name": "amount",
          "type": "uint256"
        }
      ],
      "name": "CygnusAltair__InsufficientBurnAmountA",
      "type": "error"
    },
    {
      "inputs": [
        {
          "internalType": "uint256",
          "name": "amount",
          "type": "uint256"
        }
      ],
      "name": "CygnusAltair__InsufficientBurnAmountB",
      "type": "error"
    },
    {
      "inputs": [
        {
          "internalType": "uint256",
          "name": "reservesTokenA",
          "type": "uint256"
        },
        {
          "internalType": "uint256",
          "name": "reservesTokenB",
          "type": "uint256"
        }
      ],
      "name": "CygnusAltair__InsufficientReserves",
      "type": "error"
    },
    {
      "inputs": [
        {
          "internalType": "uint256",
          "name": "amountTokenA",
          "type": "uint256"
        }
      ],
      "name": "CygnusAltair__InsufficientTokenAAmount",
      "type": "error"
    },
    {
      "inputs": [
        {
          "internalType": "uint256",
          "name": "amountTokenA",
          "type": "uint256"
        }
      ],
      "name": "CygnusAltair__InsufficientTokenAmount",
      "type": "error"
    },
    {
      "inputs": [
        {
          "internalType": "uint256",
          "name": "amountTokenB",
          "type": "uint256"
        }
      ],
      "name": "CygnusAltair__InsufficientTokenBAmount",
      "type": "error"
    },
    {
      "inputs": [
        {
          "internalType": "address",
          "name": "redeemer",
          "type": "address"
        },
        {
          "internalType": "uint256",
          "name": "redeemTokens",
          "type": "uint256"
        }
      ],
      "name": "CygnusAltair__InvalidRedeemAmount",
      "type": "error"
    },
    {
      "inputs": [
        {
          "internalType": "address",
          "name": "sender",
          "type": "address"
        },
        {
          "internalType": "address",
          "name": "borrowable",
          "type": "address"
        }
      ],
      "name": "CygnusAltair__MsgSenderNotBorrowable",
      "type": "error"
    },
    {
      "inputs": [
        {
          "internalType": "address",
          "name": "sender",
          "type": "address"
        },
        {
          "internalType": "address",
          "name": "collateral",
          "type": "address"
        }
      ],
      "name": "CygnusAltair__MsgSenderNotCollateral",
      "type": "error"
    },
    {
      "inputs": [
        {
          "internalType": "address",
          "name": "sender",
          "type": "address"
        },
        {
          "internalType": "address",
          "name": "origin",
          "type": "address"
        },
        {
          "internalType": "address",
          "name": "borrower",
          "type": "address"
        }
      ],
      "name": "CygnusAltair__MsgSenderNotRouter",
      "type": "error"
    },
    {
      "inputs": [
        {
          "internalType": "address",
          "name": "poolToken",
          "type": "address"
        }
      ],
      "name": "CygnusAltair__NotNativeTokenSender",
      "type": "error"
    },
    {
      "inputs": [
        {
          "internalType": "uint256",
          "name": "",
          "type": "uint256"
        }
      ],
      "name": "CygnusAltair__TransactionExpired",
      "type": "error"
    },
    {
      "inputs": [
        {
          "internalType": "uint256",
          "name": "prod1",
          "type": "uint256"
        }
      ],
      "name": "PRBMath__MulDivFixedPointOverflow",
      "type": "error"
    },
    {
      "inputs": [
        {
          "internalType": "uint256",
          "name": "prod1",
          "type": "uint256"
        },
        {
          "internalType": "uint256",
          "name": "denominator",
          "type": "uint256"
        }
      ],
      "name": "PRBMath__MulDivOverflow",
      "type": "error"
    },
    {
      "inputs": [
        {
          "internalType": "address",
          "name": "target",
          "type": "address"
        }
      ],
      "name": "SafeErc20__CallToNonContract",
      "type": "error"
    },
    {
      "inputs": [],
      "name": "SafeErc20__NoReturnData",
      "type": "error"
    },
    {
      "inputs": [],
      "name": "JOE_ADAPTER",
      "outputs": [
        {
          "internalType": "contract IYakAdapter",
          "name": "",
          "type": "address"
        }
      ],
      "stateMutability": "view",
      "type": "function"
    },
    {
      "inputs": [],
      "name": "LOCAL_BYTES",
      "outputs": [
        {
          "internalType": "bytes",
          "name": "",
          "type": "bytes"
        }
      ],
      "stateMutability": "view",
      "type": "function"
    },
    {
      "inputs": [],
      "name": "PANGOLIN_ADAPTER",
      "outputs": [
        {
          "internalType": "contract IYakAdapter",
          "name": "",
          "type": "address"
        }
      ],
      "stateMutability": "view",
      "type": "function"
    },
    {
      "inputs": [],
      "name": "PLATYPUS_ADAPTER",
      "outputs": [
        {
          "internalType": "contract IYakAdapter",
          "name": "",
          "type": "address"
        }
      ],
      "stateMutability": "view",
      "type": "function"
    },
    {
      "inputs": [
        {
          "internalType": "address",
          "name": "sender",
          "type": "address"
        },
        {
          "internalType": "address",
          "name": "borrower",
          "type": "address"
        },
        {
          "internalType": "uint256",
          "name": "borrowAmount",
          "type": "uint256"
        },
        {
          "internalType": "bytes",
          "name": "data",
          "type": "bytes"
        }
      ],
      "name": "altairBorrow_O9E",
      "outputs": [],
      "stateMutability": "nonpayable",
      "type": "function"
    },
    {
      "inputs": [
        {
          "internalType": "address",
          "name": "sender",
          "type": "address"
        },
        {
          "internalType": "uint256",
          "name": "redeemAmount",
          "type": "uint256"
        },
        {
          "internalType": "bytes",
          "name": "data",
          "type": "bytes"
        }
      ],
      "name": "altairRedeem_u91A",
      "outputs": [],
      "stateMutability": "nonpayable",
      "type": "function"
    },
    {
      "inputs": [
        {
          "internalType": "address",
          "name": "cygnusDai",
          "type": "address"
        },
        {
          "internalType": "uint256",
          "name": "amount",
          "type": "uint256"
        },
        {
          "internalType": "address",
          "name": "recipient",
          "type": "address"
        },
        {
          "internalType": "uint256",
          "name": "deadline",
          "type": "uint256"
        },
        {
          "internalType": "bytes",
          "name": "permitData",
          "type": "bytes"
        }
      ],
      "name": "borrow",
      "outputs": [],
      "stateMutability": "nonpayable",
      "type": "function"
    },
    {
      "inputs": [],
      "name": "dai",
      "outputs": [
        {
          "internalType": "address",
          "name": "",
          "type": "address"
        }
      ],
      "stateMutability": "view",
      "type": "function"
    },
    {
      "inputs": [
        {
          "internalType": "address",
          "name": "collateral",
          "type": "address"
        },
        {
          "internalType": "uint256",
          "name": "redeemTokens",
          "type": "uint256"
        },
        {
          "internalType": "uint256",
          "name": "deadline",
          "type": "uint256"
        },
        {
          "internalType": "bytes",
          "name": "permitData",
          "type": "bytes"
        }
      ],
      "name": "deleverage_OM0",
      "outputs": [],
      "stateMutability": "nonpayable",
      "type": "function"
    },
    {
      "inputs": [],
      "name": "hangar18",
      "outputs": [
        {
          "internalType": "address",
          "name": "",
          "type": "address"
        }
      ],
      "stateMutability": "view",
      "type": "function"
    },
    {
      "inputs": [
        {
          "internalType": "address",
          "name": "collateral",
          "type": "address"
        },
        {
          "internalType": "uint256",
          "name": "amountDAIDesired",
          "type": "uint256"
        },
        {
          "internalType": "address",
          "name": "recipient",
          "type": "address"
        },
        {
          "internalType": "uint256",
          "name": "deadline",
          "type": "uint256"
        },
        {
          "internalType": "bytes",
          "name": "permitData",
          "type": "bytes"
        }
      ],
      "name": "leverage_adl",
      "outputs": [],
      "stateMutability": "nonpayable",
      "type": "function"
    },
    {
      "inputs": [
        {
          "internalType": "address",
          "name": "cygnusDai",
          "type": "address"
        },
        {
          "internalType": "uint256",
          "name": "amountMax",
          "type": "uint256"
        },
        {
          "internalType": "address",
          "name": "borrower",
          "type": "address"
        },
        {
          "internalType": "address",
          "name": "recipient",
          "type": "address"
        },
        {
          "internalType": "uint256",
          "name": "deadline",
          "type": "uint256"
        }
      ],
      "name": "liquidate",
      "outputs": [
        {
          "internalType": "uint256",
          "name": "amount",
          "type": "uint256"
        },
        {
          "internalType": "uint256",
          "name": "seizeTokens",
          "type": "uint256"
        }
      ],
      "stateMutability": "nonpayable",
      "type": "function"
    },
    {
      "inputs": [
        {
          "internalType": "address",
          "name": "cygnusDai",
          "type": "address"
        },
        {
          "internalType": "uint256",
          "name": "amountMax",
          "type": "uint256"
        },
        {
          "internalType": "address",
          "name": "borrower",
          "type": "address"
        },
        {
          "internalType": "address",
          "name": "recipient",
          "type": "address"
        },
        {
          "internalType": "uint256",
          "name": "deadline",
          "type": "uint256"
        }
      ],
      "name": "liquidateToDai",
      "outputs": [
        {
          "internalType": "uint256",
          "name": "amountDai",
          "type": "uint256"
        }
      ],
      "stateMutability": "nonpayable",
      "type": "function"
    },
    {
      "inputs": [
        {
          "internalType": "address",
          "name": "terminalToken",
          "type": "address"
        },
        {
          "internalType": "uint256",
          "name": "amount",
          "type": "uint256"
        },
        {
          "internalType": "address",
          "name": "recipient",
          "type": "address"
        },
        {
          "internalType": "uint256",
          "name": "deadline",
          "type": "uint256"
        }
      ],
      "name": "mint",
      "outputs": [
        {
          "internalType": "uint256",
          "name": "tokens",
          "type": "uint256"
        }
      ],
      "stateMutability": "nonpayable",
      "type": "function"
    },
    {
      "inputs": [
        {
          "internalType": "address",
          "name": "collateral",
          "type": "address"
        },
        {
          "internalType": "uint256",
          "name": "amount",
          "type": "uint256"
        },
        {
          "internalType": "address",
          "name": "recipient",
          "type": "address"
        },
        {
          "internalType": "uint256",
          "name": "deadline",
          "type": "uint256"
        },
        {
          "internalType": "bytes",
          "name": "permitData",
          "type": "bytes"
        }
      ],
      "name": "mintCollateral",
      "outputs": [
        {
          "internalType": "uint256",
          "name": "tokens",
          "type": "uint256"
        }
      ],
      "stateMutability": "nonpayable",
      "type": "function"
    },
    {
      "inputs": [],
      "name": "nativeToken",
      "outputs": [
        {
          "internalType": "address",
          "name": "",
          "type": "address"
        }
      ],
      "stateMutability": "view",
      "type": "function"
    },
    {
      "inputs": [
        {
          "internalType": "address",
          "name": "lpTokenPair",
          "type": "address"
        },
        {
          "internalType": "uint256",
          "name": "amountTokenADesired",
          "type": "uint256"
        },
        {
          "internalType": "uint256",
          "name": "amountTokenBDesired",
          "type": "uint256"
        },
        {
          "internalType": "uint256",
          "name": "amountTokenAMin",
          "type": "uint256"
        },
        {
          "internalType": "uint256",
          "name": "amountTokenBMin",
          "type": "uint256"
        }
      ],
      "name": "optimalLiquidity",
      "outputs": [
        {
          "internalType": "uint256",
          "name": "amountTokenA",
          "type": "uint256"
        },
        {
          "internalType": "uint256",
          "name": "amountTokenB",
          "type": "uint256"
        }
      ],
      "stateMutability": "view",
      "type": "function"
    },
    {
      "inputs": [
        {
          "internalType": "address",
          "name": "terminalToken",
          "type": "address"
        },
        {
          "internalType": "uint256",
          "name": "tokens",
          "type": "uint256"
        },
        {
          "internalType": "address",
          "name": "recipient",
          "type": "address"
        },
        {
          "internalType": "uint256",
          "name": "deadline",
          "type": "uint256"
        },
        {
          "internalType": "bytes",
          "name": "permitData",
          "type": "bytes"
        }
      ],
      "name": "redeem",
      "outputs": [
        {
          "internalType": "uint256",
          "name": "amount",
          "type": "uint256"
        }
      ],
      "stateMutability": "nonpayable",
      "type": "function"
    },
    {
      "inputs": [
        {
          "internalType": "address",
          "name": "cygnusDai",
          "type": "address"
        },
        {
          "internalType": "uint256",
          "name": "amountMax",
          "type": "uint256"
        },
        {
          "internalType": "address",
          "name": "borrower",
          "type": "address"
        },
        {
          "internalType": "uint256",
          "name": "deadline",
          "type": "uint256"
        }
      ],
      "name": "repay",
      "outputs": [
        {
          "internalType": "uint256",
          "name": "amount",
          "type": "uint256"
        }
      ],
      "stateMutability": "nonpayable",
      "type": "function"
    },
    {
      "stateMutability": "payable",
      "type": "receive"
    }
  ],
  "bytecode": "0x60e06040523480156200001157600080fd5b5060405162003b8538038062003b8583398101604081905262000034916200016e565b806001600160a01b03166080816001600160a01b031660601b81525050806001600160a01b031663e1758bd86040518163ffffffff1660e01b815260040160206040518083038186803b1580156200008b57600080fd5b505afa158015620000a0573d6000803e3d6000fd5b505050506040513d601f19601f82011682018060405250810190620000c691906200016e565b6001600160a01b031660a0816001600160a01b031660601b81525050806001600160a01b031663f4b9fa756040518163ffffffff1660e01b815260040160206040518083038186803b1580156200011c57600080fd5b505afa15801562000131573d6000803e3d6000fd5b505050506040513d601f19601f820116820180604052508101906200015791906200016e565b60601b6001600160601b03191660c052506200019e565b60006020828403121562000180578081fd5b81516001600160a01b038116811462000197578182fd5b9392505050565b60805160601c60a05160601c60c05160601c6138dc620002a96000396000818161046501528181610d0b01528181611b1601528181611b5101528181611b8c01528181611d7401528181611dc601528181611f6f0152818161214a01528181612185015281816121c00152612210015260008181610150015281816103fd01528181611bc901528181611bf901528181611c2001528181611c5b01528181611c9601528181611cd301528181611cfe01528181611d2901528181611d5301528181611d98015281816122310152818161225801528181612293015281816122ce015281816123110152818161233601528181612ad50152612b230152600061043101526138dc6000f3fe6080604052600436106101485760003560e01c80638316b700116100c0578063dbe5f2fb11610074578063e8a24e1d11610059578063e8a24e1d1461041f578063f4b9fa7514610453578063fff48b1f1461048757600080fd5b8063dbe5f2fb146103cb578063e1758bd8146103eb57600080fd5b8063989bebcf116100a5578063989bebcf14610363578063cd7dbbc014610383578063d496c215146103ab57600080fd5b80638316b7001461030c578063953ec6661461033457600080fd5b80633eefb379116101175780634cf75f9f116100fc5780634cf75f9f146102975780635c1e6404146102cc5780636aee7c1e146102ec57600080fd5b80633eefb3791461025757806343e264481461027757600080fd5b80631172d362146101a457806311e887ba146101e95780631f1cc5bc146102095780633c173a4f1461023757600080fd5b3661019f57337f00000000000000000000000000000000000000000000000000000000000000006001600160a01b03161461019d57604051635ac2b20b60e11b81523360048201526024015b60405180910390fd5b005b600080fd5b3480156101b057600080fd5b506101cc736da140b4004d1eccfc5fffeb010bb7a58575b44681565b6040516001600160a01b0390911681526020015b60405180910390f35b3480156101f557600080fd5b5061019d61020436600461344d565b6104a7565b34801561021557600080fd5b5061022961022436600461332b565b6107c4565b6040519081526020016101e0565b34801561024357600080fd5b5061022961025236600461326a565b6108fb565b34801561026357600080fd5b50610229610272366004613210565b610990565b34801561028357600080fd5b506102296102923660046132b1565b610d9b565b3480156102a357600080fd5b506102b76102b2366004613498565b610e74565b604080519283526020830191909152016101e0565b3480156102d857600080fd5b506102b76102e7366004613210565b610fb9565b3480156102f857600080fd5b5061022961030736600461326a565b6110a4565b34801561031857600080fd5b506101cc73db66686ac8bea67400cf9e5dd6c8849575b9014881565b34801561034057600080fd5b5061035660408051600081526020810190915281565b6040516101e09190613787565b34801561036f57600080fd5b5061019d61037e3660046133f3565b611177565b34801561038f57600080fd5b506101cc733614657edc3cb90ba420e5f4f61679777e4974e381565b3480156103b757600080fd5b5061019d6103c63660046132b1565b61123d565b3480156103d757600080fd5b5061019d6103e636600461332b565b61138d565b3480156103f757600080fd5b506101cc7f000000000000000000000000000000000000000000000000000000000000000081565b34801561042b57600080fd5b506101cc7f000000000000000000000000000000000000000000000000000000000000000081565b34801561045f57600080fd5b506101cc7f000000000000000000000000000000000000000000000000000000000000000081565b34801561049357600080fd5b5061019d6104a236600461319f565b61141c565b826104b1816116fc565b6000866001600160a01b0316636f307dc36040518163ffffffff1660e01b8152600401602060405180830381600087803b1580156104ee57600080fd5b505af1158015610502573d6000803e3d6000fd5b505050506040513d601f19601f820116820180604052508101906105269190613183565b9050600086116105515760405162c1055d60e41b815233600482015260248101879052604401610194565b6000876001600160a01b0316633ba0b9a96040518163ffffffff1660e01b8152600401602060405180830381600087803b15801561058e57600080fd5b505af11580156105a2573d6000803e3d6000fd5b505050506040513d601f19601f820116820180604052508101906105c691906136aa565b905060006105df826105d960018b613822565b90611723565b905061062389898989898080601f01602080910402602001604051908101604052809392919081815260200183838082843760009201919091525061173692505050565b60006040518060c00160405280856001600160a01b031681526020018b6001600160a01b031681526020018b6001600160a01b031663adbb25976040518163ffffffff1660e01b815260040160206040518083038186803b15801561068757600080fd5b505afa15801561069b573d6000803e3d6000fd5b505050506040513d601f19601f820116820180604052508101906106bf9190613183565b6001600160a01b03168152602001336001600160a01b031681526020018a8152602001838152506040516020016107469190600060c0820190506001600160a01b03808451168352806020850151166020840152806040850151166040840152806060850151166060840152506080830151608083015260a083015160a083015292915050565b60408051601f198184030181529082905263472e129960e11b825291506001600160a01b038b1690638e5c2532906107869030908690869060040161375f565b600060405180830381600087803b1580156107a057600080fd5b505af11580156107b4573d6000803e3d6000fd5b5050505050505050505050505050565b6000826107d0816116fc565b6107dc87878686611736565b6001600160a01b0387166323b872dd336040516001600160e01b031960e084901b1681526001600160a01b039182166004820152908a16602482015260448101899052606401602060405180830381600087803b15801561083c57600080fd5b505af1158015610850573d6000803e3d6000fd5b505050506040513d601f19601f8201168201806040525081019061087491906134db565b506040516395a2251f60e01b81526001600160a01b0386811660048301528816906395a2251f90602401602060405180830381600087803b1580156108b857600080fd5b505af11580156108cc573d6000803e3d6000fd5b505050506040513d601f19601f820116820180604052508101906108f091906136aa565b979650505050505050565b600081610907816116fc565b61098686876001600160a01b0316636f307dc36040518163ffffffff1660e01b8152600401602060405180830381600087803b15801561094657600080fd5b505af115801561095a573d6000803e3d6000fd5b505050506040513d601f19601f8201168201806040525081019061097e9190613183565b873388611817565b9695505050505050565b60008161099c816116fc565b60006109a98888886118d3565b9050610a353389838b6001600160a01b0316636f307dc36040518163ffffffff1660e01b8152600401602060405180830381600087803b1580156109ec57600080fd5b505af1158015610a00573d6000803e3d6000fd5b505050506040513d601f19601f82011682018060405250810190610a249190613183565b6001600160a01b03169291906119be565b6040516386b9d81f60e01b81526001600160a01b0387811660048301528681166024830152600091908a16906386b9d81f90604401602060405180830381600087803b158015610a8457600080fd5b505af1158015610a98573d6000803e3d6000fd5b505050506040513d601f19601f82011682018060405250810190610abc91906136aa565b90506000896001600160a01b031663d8dfeb456040518163ffffffff1660e01b815260040160206040518083038186803b158015610af957600080fd5b505afa158015610b0d573d6000803e3d6000fd5b505050506040513d601f19601f82011682018060405250810190610b319190613183565b90506000610b53828433604080516000808252602082019092528c91506107c4565b90506000826001600160a01b0316636f307dc36040518163ffffffff1660e01b8152600401602060405180830381600087803b158015610b9257600080fd5b505af1158015610ba6573d6000803e3d6000fd5b505050506040513d601f19601f82011682018060405250810190610bca9190613183565b6040516323b872dd60e01b81526001600160a01b038b81166004830152821660248201819052604482018590529192506323b872dd90606401602060405180830381600087803b158015610c1d57600080fd5b505af1158015610c31573d6000803e3d6000fd5b505050506040513d601f19601f82011682018060405250810190610c5591906134db565b5060405163226bf2d160e21b815230600482015260009081906001600160a01b038416906389afcb44906024016040805180830381600087803b158015610c9b57600080fd5b505af1158015610caf573d6000803e3d6000fd5b505050506040513d601f19601f82011682018060405250810190610cd391906136c2565b91509150610ce2828285611a29565b60405163a9059cbb60e01b81526001600160a01b038d8116600483015260248201839052919a507f00000000000000000000000000000000000000000000000000000000000000009091169063a9059cbb90604401602060405180830381600087803b158015610d5157600080fd5b505af1158015610d65573d6000803e3d6000fd5b505050506040513d601f19601f82011682018060405250810190610d8991906134db565b50505050505050505095945050505050565b600083610da7816116fc565b610de988888787878080601f01602080910402602001604051908101604052809392919081815260200183838082843760009201919091525061173692505050565b610e6888896001600160a01b0316636f307dc36040518163ffffffff1660e01b8152600401602060405180830381600087803b158015610e2857600080fd5b505af1158015610e3c573d6000803e3d6000fd5b505050506040513d601f19601f82011682018060405250810190610e609190613183565b89338a611817565b98975050505050505050565b600080600080886001600160a01b0316630902f1ac6040518163ffffffff1660e01b815260040160606040518083038186803b158015610eb357600080fd5b505afa158015610ec7573d6000803e3d6000fd5b505050506040513d601f19601f82011682018060405250810190610eeb919061365c565b506dffffffffffffffffffffffffffff1691506dffffffffffffffffffffffffffff1691506000610f1d898484611dea565b9050878111610f555785811015610f4a5760405163c652989b60e01b815260048101829052602401610194565b889450925082610fac565b6000610f62898486611dea565b905089811115610f8257634e487b7160e01b600052600160045260246000fd5b87811015610fa657604051631977165560e21b815260048101829052602401610194565b94508793505b5050509550959350505050565b60008082610fc6816116fc565b610fd18888886118d3565b92506110143389858b6001600160a01b0316636f307dc36040518163ffffffff1660e01b8152600401602060405180830381600087803b1580156109ec57600080fd5b6040516386b9d81f60e01b81526001600160a01b03878116600483015286811660248301528916906386b9d81f90604401602060405180830381600087803b15801561105f57600080fd5b505af1158015611073573d6000803e3d6000fd5b505050506040513d601f19601f8201168201806040525081019061109791906136aa565b9150509550959350505050565b6000816110b0816116fc565b6110bb8686866118d3565b91506110fe338784896001600160a01b0316636f307dc36040518163ffffffff1660e01b8152600401602060405180830381600087803b1580156109ec57600080fd5b6040805160008082526020820192839052631e7dcc0d60e01b9092526001600160a01b03881691631e7dcc0d9161113c91889181906024810161372d565b600060405180830381600087803b15801561115657600080fd5b505af115801561116a573d6000803e3d6000fd5b5050505050949350505050565b6000611185828401846135c2565b60208101519091506001600160a01b03861630146111d5576060820151604051630297f76960e51b81526001600160a01b0380891660048301523260248301529091166044820152606401610194565b336001600160a01b0382161461120f576040516372d640b360e11b81523360048201526001600160a01b0382166024820152604401610194565b611235826000015183606001518460200151856040015186608001518760a00151611e56565b505050505050565b82611247816116fc565b6000876001600160a01b0316636f307dc36040518163ffffffff1660e01b8152600401602060405180830381600087803b15801561128457600080fd5b505af1158015611298573d6000803e3d6000fd5b505050506040513d601f19601f820116820180604052508101906112bc9190613183565b90506000886001600160a01b031663adbb25976040518163ffffffff1660e01b815260040160206040518083038186803b1580156112f957600080fd5b505afa15801561130d573d6000803e3d6000fd5b505050506040513d601f19601f820116820180604052508101906113319190613183565b905061137581898888888080601f01602080910402602001604051908101604052809392919081815260200183838082843760009201919091525061201e92505050565b611382828a838b8b612073565b505050505050505050565b81611397816116fc565b6113a38686858561201e565b60408051600081526020810191829052631e7dcc0d60e01b9091526001600160a01b03871690631e7dcc0d906113e290339088908a906024810161372d565b600060405180830381600087803b1580156113fc57600080fd5b505af1158015611410573d6000803e3d6000fd5b50505050505050505050565b600061142a8284018461353e565b60408101519091506001600160a01b038716301461147457604051630297f76960e51b81526001600160a01b03808916600483015232602483015287166044820152606401610194565b336001600160a01b038216146114ae5760405163aead146760e01b81523360048201526001600160a01b0382166024820152604401610194565b600082600001516001600160a01b0316630dfe16816040518163ffffffff1660e01b815260040160206040518083038186803b1580156114ed57600080fd5b505afa158015611501573d6000803e3d6000fd5b505050506040513d601f19601f820116820180604052508101906115259190613183565b9050600083600001516001600160a01b031663d21220a76040518163ffffffff1660e01b815260040160206040518083038186803b15801561156657600080fd5b505afa15801561157a573d6000803e3d6000fd5b505050506040513d601f19601f8201168201806040525081019061159e9190613183565b90506000806115b3866000015185858c612142565b875191935091506115cf906001600160a01b0386169084612467565b85516115e6906001600160a01b0385169083612467565b855160208701516040516335313c2160e11b81526001600160a01b039182166004820152911690636a62784290602401602060405180830381600087803b15801561163057600080fd5b505af1158015611644573d6000803e3d6000fd5b505050506040513d601f19601f8201168201806040525081019061166891906136aa565b50602086015160608701516040516335313c2160e11b81526001600160a01b039182166004820152911690636a62784290602401602060405180830381600087803b1580156116b657600080fd5b505af11580156116ca573d6000803e3d6000fd5b505050506040513d601f19601f820116820180604052508101906116ee91906136aa565b505050505050505050505050565b8042111561172057604051636c5fb09360e11b815260048101829052602401610194565b50565b600061172f838361249c565b9392505050565b805161174157611811565b6000806000808480602001905181019061175b91906134f5565b93509350935093506000846117705787611774565b6000195b90506001600160a01b03891663d505accf335b6040516001600160e01b031960e084901b1681526001600160a01b03909116600482015230602482015260448101849052606481018a905260ff8716608482015260a4810186905260c4810185905260e401600060405180830381600087803b1580156117f357600080fd5b505af1158015611807573d6000803e3d6000fd5b5050505050505050505b50505050565b60006001600160a01b0383163014156118435761183e6001600160a01b0386168786612467565b611858565b6118586001600160a01b0386168488876119be565b6040516335313c2160e11b81526001600160a01b038381166004830152871690636a62784290602401602060405180830381600087803b15801561189b57600080fd5b505af11580156118af573d6000803e3d6000fd5b505050506040513d601f19601f8201168201806040525081019061098691906136aa565b6000836001600160a01b031663a6afed956040518163ffffffff1660e01b8152600401600060405180830381600087803b15801561191057600080fd5b505af1158015611924573d6000803e3d6000fd5b5050604051637d6af07960e01b81526001600160a01b0385811660048301526000935087169150637d6af0799060240160206040518083038186803b15801561196c57600080fd5b505afa158015611980573d6000803e3d6000fd5b505050506040513d601f19601f820116820180604052508101906119a491906136aa565b90508084106119b357806119b5565b835b95945050505050565b6040516001600160a01b03808516602483015283166044820152606481018290526118119085906323b872dd60e01b906084015b60408051601f198184030181529190526020810180516001600160e01b03166001600160e01b03199093169290921790915261255f565b600080826001600160a01b0316630dfe16816040518163ffffffff1660e01b815260040160206040518083038186803b158015611a6557600080fd5b505afa158015611a79573d6000803e3d6000fd5b505050506040513d601f19601f82011682018060405250810190611a9d9190613183565b90506000836001600160a01b031663d21220a76040518163ffffffff1660e01b815260040160206040518083038186803b158015611ada57600080fd5b505afa158015611aee573d6000803e3d6000fd5b505050506040513d601f19601f82011682018060405250810190611b129190613183565b90507f00000000000000000000000000000000000000000000000000000000000000006001600160a01b0316826001600160a01b03161480611b8557507f00000000000000000000000000000000000000000000000000000000000000006001600160a01b0316816001600160a01b0316145b15611c1e577f00000000000000000000000000000000000000000000000000000000000000006001600160a01b0316826001600160a01b031614611bf357611bee827f0000000000000000000000000000000000000000000000000000000000000000886125dc565b611d4e565b611bee817f0000000000000000000000000000000000000000000000000000000000000000876125dc565b7f00000000000000000000000000000000000000000000000000000000000000006001600160a01b0316826001600160a01b03161480611c8f57507f00000000000000000000000000000000000000000000000000000000000000006001600160a01b0316816001600160a01b0316145b15611cf8577f00000000000000000000000000000000000000000000000000000000000000006001600160a01b0316826001600160a01b031614611bf357611bee827f0000000000000000000000000000000000000000000000000000000000000000886125dc565b611d23827f0000000000000000000000000000000000000000000000000000000000000000886125dc565b611d4e817f0000000000000000000000000000000000000000000000000000000000000000876125dc565b611dc17f00000000000000000000000000000000000000000000000000000000000000007f0000000000000000000000000000000000000000000000000000000000000000611dbc7f00000000000000000000000000000000000000000000000000000000000000006128d5565b6125dc565b6109867f00000000000000000000000000000000000000000000000000000000000000006128d5565b6000808411611e0f57604051630748a9af60e31b815260048101859052602401610194565b82158015611e1b575081155b15611e435760405163506bf75560e01b81526004810184905260248101839052604401610194565b611e4e84838561294f565b949350505050565b60405163a9059cbb60e01b81526001600160a01b03871660048201819052602482018390529063a9059cbb90604401602060405180830381600087803b158015611e9f57600080fd5b505af1158015611eb3573d6000803e3d6000fd5b505050506040513d601f19601f82011682018060405250810190611ed791906134db565b5060405163226bf2d160e21b815230600482015260009081906001600160a01b038916906389afcb44906024016040805180830381600087803b158015611f1d57600080fd5b505af1158015611f31573d6000803e3d6000fd5b505050506040513d601f19601f82011682018060405250810190611f5591906136c2565b90925090506000611f6783838b611a29565b9050611f95867f00000000000000000000000000000000000000000000000000000000000000008a84612a2a565b6040516323b872dd60e01b81526001600160a01b03898116600483015288166024820181905260448201879052906323b872dd90606401602060405180830381600087803b158015611fe657600080fd5b505af1158015611ffa573d6000803e3d6000fd5b505050506040513d601f19601f8201168201806040525081019061141091906134db565b805161202957611811565b6000806000808480602001905181019061204391906134f5565b9350935093509350600084612058578761205c565b6000195b90506001600160a01b038916639e79b55c33611787565b60006040518060800160405280876001600160a01b03168152602001866001600160a01b03168152602001856001600160a01b03168152602001836001600160a01b0316815250604051602001612100919081516001600160a01b039081168252602080840151821690830152604080840151821690830152606092830151169181019190915260800190565b60408051601f1981840301815290829052631e7dcc0d60e01b825291506001600160a01b03851690631e7dcc0d906113e290859030908890879060040161372d565b6000806000807f00000000000000000000000000000000000000000000000000000000000000006001600160a01b0316876001600160a01b031614806121b957507f00000000000000000000000000000000000000000000000000000000000000006001600160a01b0316866001600160a01b0316145b1561220b577f00000000000000000000000000000000000000000000000000000000000000006001600160a01b0316876001600160a01b0316146121fe578587612201565b86865b9092509050612360565b6122567f00000000000000000000000000000000000000000000000000000000000000007f0000000000000000000000000000000000000000000000000000000000000000876125dc565b7f00000000000000000000000000000000000000000000000000000000000000006001600160a01b0316876001600160a01b031614806122c757507f00000000000000000000000000000000000000000000000000000000000000006001600160a01b0316866001600160a01b0316145b1561230c577f00000000000000000000000000000000000000000000000000000000000000006001600160a01b0316876001600160a01b0316146121fe578587612201565b61235a7f000000000000000000000000000000000000000000000000000000000000000088611dbc7f00000000000000000000000000000000000000000000000000000000000000006128d5565b50859050845b600080896001600160a01b0316630902f1ac6040518163ffffffff1660e01b815260040160606040518083038186803b15801561239c57600080fd5b505afa1580156123b0573d6000803e3d6000fd5b505050506040513d601f19601f820116820180604052508101906123d4919061365c565b506dffffffffffffffffffffffffffff1691506dffffffffffffffffffffffffffff1691506000896001600160a01b0316856001600160a01b03161461241a578161241c565b825b9050600061243561242c876128d5565b836103e5612bb1565b90506124428686836125dc565b61244b8b6128d5565b97506124568a6128d5565b965050505050505094509492505050565b6040516001600160a01b03831660248201526044810182905261249790849063a9059cbb60e01b906064016119f2565b505050565b60008080600019848609848602925082811083820303915050670de0b6b3a764000081106124e05760405163698d9a0160e11b815260048101829052602401610194565b600080670de0b6b3a76400008688099150506706f05b59d3b1ffff81118261251a5780670de0b6b3a7640000850401945050505050612559565b620400008285030493909111909103600160ee1b02919091177faccb18165bd6fe31ae1cf318dc5b51eee0e1ba569b88cd74c1773b91fac10669020190505b92915050565b60006125a183836040518060400160405280601581526020017f5361666545726332304c6f774c6576656c43616c6c0000000000000000000000815250612c43565b80519091501561249757808060200190518101906125bf91906134db565b612497576040516364d6fc4d60e01b815260040160405180910390fd5b6040516377ccc49d60e11b8152600481018290526001600160a01b0380851660248301528316604482015260009081908190736da140b4004d1eccfc5fffeb010bb7a58575b4469063ef99893a90606401602060405180830381600087803b15801561264757600080fd5b505af115801561265b573d6000803e3d6000fd5b505050506040513d601f19601f8201168201806040525081019061267f91906136aa565b6040516377ccc49d60e11b8152600481018690526001600160a01b0380891660248301528716604482015273db66686ac8bea67400cf9e5dd6c8849575b901489063ef99893a90606401602060405180830381600087803b1580156126e357600080fd5b505af11580156126f7573d6000803e3d6000fd5b505050506040513d601f19601f8201168201806040525081019061271b91906136aa565b6040516377ccc49d60e11b8152600481018790526001600160a01b03808a16602483015288166044820152733614657edc3cb90ba420e5f4f61679777e4974e39063ef99893a90606401602060405180830381600087803b15801561277f57600080fd5b505af1158015612793573d6000803e3d6000fd5b505050506040513d601f19601f820116820180604052508101906127b791906136aa565b925092509250600080838511612804578284116127e957733614657edc3cb90ba420e5f4f61679777e4974e38361283d565b73db66686ac8bea67400cf9e5dd6c8849575b901488461283d565b82851161282657733614657edc3cb90ba420e5f4f61679777e4974e38361283d565b736da140b4004d1eccfc5fffeb010bb7a58575b446855b9150915061284e8883600019612d13565b6128626001600160a01b0389168388612467565b60405163755c86d360e11b815260048101879052602481018290526001600160a01b038981166044830152888116606483015230608483015283169063eab90da69060a401600060405180830381600087803b1580156128c157600080fd5b505af11580156116ee573d6000803e3d6000fd5b6040516370a0823160e01b81523060048201526000906001600160a01b038316906370a082319060240160206040518083038186803b15801561291757600080fd5b505afa15801561292b573d6000803e3d6000fd5b505050506040513d601f19601f8201168201806040525081019061255991906136aa565b6000808060001985870985870292508281108382030391505080600014156129985783828161298e57634e487b7160e01b600052601260045260246000fd5b049250505061172f565b8381106129c257604051631dcf306360e21b81526004810182905260248101859052604401610194565b600084868809600260036001881981018916988990049182028318808302840302808302840302808302840302808302840302808302840302918202909203026000889003889004909101858311909403939093029303949094049190911702949350505050565b6000612a378583856118d3565b9050612a4d6001600160a01b0385168683612467565b6040805160008082526020820192839052631e7dcc0d60e01b9092526001600160a01b03871691631e7dcc0d91612a8b91879181906024810161372d565b600060405180830381600087803b158015612aa557600080fd5b505af1158015612ab9573d6000803e3d6000fd5b5050505080821115612baa576000612ad18284613822565b90507f00000000000000000000000000000000000000000000000000000000000000006001600160a01b0316856001600160a01b03161415612b9657604051632e1a7d4d60e01b8152600481018290527f00000000000000000000000000000000000000000000000000000000000000006001600160a01b031690632e1a7d4d90602401600060405180830381600087803b158015612b6f57600080fd5b505af1158015612b83573d6000803e3d6000fd5b50505050612b918482612dac565b611235565b6112356001600160a01b0386168583612467565b5050505050565b60008083612bc1846103e86137cb565b612bcb9190613803565b905060008385612bdd886103e8613803565b612be79190613803565b612bf2906004613803565b612bfc9190613803565b90506000612c1d82612c0e8580613803565b612c1891906137cb565b612e07565b90506000612c2c866002613803565b905080612c398584613822565b610e6891906137e3565b60606001600160a01b0384163b612c7857604051638201cc0560e01b81526001600160a01b0385166004820152602401610194565b600080856001600160a01b031685604051612c939190613711565b6000604051808303816000865af19150503d8060008114612cd0576040519150601f19603f3d011682016040523d82523d6000602084013e612cd5565b606091505b50915091508115612ce957915061172f9050565b805115612cf95780518082602001fd5b8360405162461bcd60e51b81526004016101949190613787565b604051636eb1769f60e11b81523060048201526001600160a01b03838116602483015282919085169063dd62ed3e9060440160206040518083038186803b158015612d5d57600080fd5b505afa158015612d71573d6000803e3d6000fd5b505050506040513d601f19601f82011682018060405250810190612d9591906136aa565b10612d9f57505050565b6124978383600019612ff5565b600080600080600085875af19050806124975760405162461bcd60e51b815260206004820152601460248201527f415641585f5452414e534645525f4641494c45440000000000000000000000006044820152606401610194565b600081612e1657506000919050565b506001817001000000000000000000000000000000008110612e3d5760409190911b9060801c5b680100000000000000008110612e585760209190911b9060401c5b6401000000008110612e6f5760109190911b9060201c5b620100008110612e845760089190911b9060101c5b6101008110612e985760049190911b9060081c5b60108110612eab5760029190911b9060041c5b60088110612ebb57600182901b91505b6001828481612eda57634e487b7160e01b600052601260045260246000fd5b048301901c91506001828481612f0057634e487b7160e01b600052601260045260246000fd5b048301901c91506001828481612f2657634e487b7160e01b600052601260045260246000fd5b048301901c91506001828481612f4c57634e487b7160e01b600052601260045260246000fd5b048301901c91506001828481612f7257634e487b7160e01b600052601260045260246000fd5b048301901c91506001828481612f9857634e487b7160e01b600052601260045260246000fd5b048301901c91506001828481612fbe57634e487b7160e01b600052601260045260246000fd5b048301901c91506000828481612fe457634e487b7160e01b600052601260045260246000fd5b0490508083101561172f5782611e4e565b604080516001600160a01b038481166024830152604480830185905283518084039091018152606490920183526020820180516001600160e01b031663095ea7b360e01b17905291516000928392908716916130519190613711565b6000604051808303816000865af19150503d806000811461308e576040519150601f19603f3d011682016040523d82523d6000602084013e613093565b606091505b50915091508180156130bd5750805115806130bd5750808060200190518101906130bd91906134db565b612baa5760405162461bcd60e51b815260206004820152600c60248201527f2173616665417070726f766500000000000000000000000000000000000000006044820152606401610194565b8051801515811461311957600080fd5b919050565b60008083601f84011261312f578182fd5b50813567ffffffffffffffff811115613146578182fd5b60208301915083602082850101111561315e57600080fd5b9250929050565b80516dffffffffffffffffffffffffffff8116811461311957600080fd5b600060208284031215613194578081fd5b815161172f81613891565b6000806000806000608086880312156131b6578081fd5b85356131c181613891565b945060208601356131d181613891565b935060408601359250606086013567ffffffffffffffff8111156131f3578182fd5b6131ff8882890161311e565b969995985093965092949392505050565b600080600080600060a08688031215613227578081fd5b853561323281613891565b945060208601359350604086013561324981613891565b9250606086013561325981613891565b949793965091946080013592915050565b6000806000806080858703121561327f578384fd5b843561328a81613891565b93506020850135925060408501356132a181613891565b9396929550929360600135925050565b60008060008060008060a087890312156132c9578081fd5b86356132d481613891565b95506020870135945060408701356132eb81613891565b935060608701359250608087013567ffffffffffffffff81111561330d578182fd5b61331989828a0161311e565b979a9699509497509295939492505050565b600080600080600060a08688031215613342578081fd5b853561334d81613891565b94506020868101359450604087013561336581613891565b935060608701359250608087013567ffffffffffffffff80821115613388578384fd5b818901915089601f83011261339b578384fd5b8135818111156133ad576133ad61387b565b6133bf601f8201601f1916850161379a565b91508082528a848285010111156133d4578485fd5b8084840185840137810190920192909252949793965091945092919050565b60008060008060608587031215613408578182fd5b843561341381613891565b935060208501359250604085013567ffffffffffffffff811115613435578283fd5b6134418782880161311e565b95989497509550505050565b600080600080600060808688031215613464578283fd5b853561346f81613891565b94506020860135935060408601359250606086013567ffffffffffffffff8111156131f3578182fd5b600080600080600060a086880312156134af578283fd5b85356134ba81613891565b97602087013597506040870135966060810135965060800135945092505050565b6000602082840312156134ec578081fd5b61172f82613109565b6000806000806080858703121561350a578182fd5b61351385613109565b9350602085015160ff81168114613528578283fd5b6040860151606090960151949790965092505050565b60006080828403121561354f578081fd5b6040516080810181811067ffffffffffffffff821117156135725761357261387b565b604052823561358081613891565b8152602083013561359081613891565b602082015260408301356135a381613891565b604082015260608301356135b681613891565b60608201529392505050565b600060c082840312156135d3578081fd5b60405160c0810181811067ffffffffffffffff821117156135f6576135f661387b565b604052823561360481613891565b8152602083013561361481613891565b6020820152604083013561362781613891565b6040820152606083013561363a81613891565b60608201526080838101359082015260a0928301359281019290925250919050565b600080600060608486031215613670578081fd5b61367984613165565b925061368760208501613165565b9150604084015163ffffffff8116811461369f578182fd5b809150509250925092565b6000602082840312156136bb578081fd5b5051919050565b600080604083850312156136d4578182fd5b505080516020909101519092909150565b600081518084526136fd816020860160208601613839565b601f01601f19169290920160200192915050565b60008251613723818460208701613839565b9190910192915050565b60006001600160a01b0380871683528086166020840152508360408301526080606083015261098660808301846136e5565b6001600160a01b03841681528260208201526060604082015260006119b560608301846136e5565b60208152600061172f60208301846136e5565b604051601f8201601f1916810167ffffffffffffffff811182821017156137c3576137c361387b565b604052919050565b600082198211156137de576137de613865565b500190565b6000826137fe57634e487b7160e01b81526012600452602481fd5b500490565b600081600019048311821515161561381d5761381d613865565b500290565b60008282101561383457613834613865565b500390565b60005b8381101561385457818101518382015260200161383c565b838111156118115750506000910152565b634e487b7160e01b600052601160045260246000fd5b634e487b7160e01b600052604160045260246000fd5b6001600160a01b038116811461172057600080fdfea264697066735822122014ad49dcc0e2a4e45a3c987801f7e7c7db59ce1d17d70515b16c8ef9f4de527b64736f6c63430008040033",
  "linkReferences": {},
  "deployedLinkReferences": {}
}