{
  "_format": "hh-sol-artifact-1",
  "contractName": "CygnusAltairX",
  "sourceName": "contracts/cygnus-periphery/CygnusAltairX.sol",
  "abi": [
    {
      "inputs": [
        {
          "internalType": "address",
          "name": "factory",
          "type": "address"
        }
      ],
      "stateMutability": "nonpayable",
      "type": "constructor"
    },
    {
      "inputs": [
        {
          "internalType": "uint256",
          "name": "amount",
          "type": "uint256"
        }
      ],
      "name": "CygnusAltair__InsufficientBurnAmountA",
      "type": "error"
    },
    {
      "inputs": [
        {
          "internalType": "uint256",
          "name": "amount",
          "type": "uint256"
        }
      ],
      "name": "CygnusAltair__InsufficientBurnAmountB",
      "type": "error"
    },
    {
      "inputs": [
        {
          "internalType": "uint256",
          "name": "reservesTokenA",
          "type": "uint256"
        },
        {
          "internalType": "uint256",
          "name": "reservesTokenB",
          "type": "uint256"
        }
      ],
      "name": "CygnusAltair__InsufficientReserves",
      "type": "error"
    },
    {
      "inputs": [
        {
          "internalType": "uint256",
          "name": "amountTokenA",
          "type": "uint256"
        }
      ],
      "name": "CygnusAltair__InsufficientTokenAAmount",
      "type": "error"
    },
    {
      "inputs": [
        {
          "internalType": "uint256",
          "name": "amountTokenA",
          "type": "uint256"
        }
      ],
      "name": "CygnusAltair__InsufficientTokenAmount",
      "type": "error"
    },
    {
      "inputs": [
        {
          "internalType": "uint256",
          "name": "amountTokenB",
          "type": "uint256"
        }
      ],
      "name": "CygnusAltair__InsufficientTokenBAmount",
      "type": "error"
    },
    {
      "inputs": [
        {
          "internalType": "address",
          "name": "redeemer",
          "type": "address"
        },
        {
          "internalType": "uint256",
          "name": "redeemTokens",
          "type": "uint256"
        }
      ],
      "name": "CygnusAltair__InvalidRedeemAmount",
      "type": "error"
    },
    {
      "inputs": [
        {
          "internalType": "address",
          "name": "sender",
          "type": "address"
        },
        {
          "internalType": "address",
          "name": "borrowable",
          "type": "address"
        }
      ],
      "name": "CygnusAltair__MsgSenderNotBorrowable",
      "type": "error"
    },
    {
      "inputs": [
        {
          "internalType": "address",
          "name": "sender",
          "type": "address"
        },
        {
          "internalType": "address",
          "name": "collateral",
          "type": "address"
        }
      ],
      "name": "CygnusAltair__MsgSenderNotCollateral",
      "type": "error"
    },
    {
      "inputs": [
        {
          "internalType": "address",
          "name": "sender",
          "type": "address"
        },
        {
          "internalType": "address",
          "name": "origin",
          "type": "address"
        },
        {
          "internalType": "address",
          "name": "borrower",
          "type": "address"
        }
      ],
      "name": "CygnusAltair__MsgSenderNotRouter",
      "type": "error"
    },
    {
      "inputs": [
        {
          "internalType": "address",
          "name": "poolToken",
          "type": "address"
        }
      ],
      "name": "CygnusAltair__NotNativeTokenSender",
      "type": "error"
    },
    {
      "inputs": [
        {
          "internalType": "uint256",
          "name": "",
          "type": "uint256"
        }
      ],
      "name": "CygnusAltair__TransactionExpired",
      "type": "error"
    },
    {
      "inputs": [
        {
          "internalType": "uint256",
          "name": "prod1",
          "type": "uint256"
        }
      ],
      "name": "PRBMath__MulDivFixedPointOverflow",
      "type": "error"
    },
    {
      "inputs": [
        {
          "internalType": "uint256",
          "name": "prod1",
          "type": "uint256"
        },
        {
          "internalType": "uint256",
          "name": "denominator",
          "type": "uint256"
        }
      ],
      "name": "PRBMath__MulDivOverflow",
      "type": "error"
    },
    {
      "inputs": [
        {
          "internalType": "address",
          "name": "target",
          "type": "address"
        }
      ],
      "name": "SafeErc20__CallToNonContract",
      "type": "error"
    },
    {
      "inputs": [],
      "name": "SafeErc20__NoReturnData",
      "type": "error"
    },
    {
      "inputs": [],
      "name": "JOE_ADAPTER",
      "outputs": [
        {
          "internalType": "contract IYakAdapter",
          "name": "",
          "type": "address"
        }
      ],
      "stateMutability": "view",
      "type": "function"
    },
    {
      "inputs": [],
      "name": "LOCAL_BYTES",
      "outputs": [
        {
          "internalType": "bytes",
          "name": "",
          "type": "bytes"
        }
      ],
      "stateMutability": "view",
      "type": "function"
    },
    {
      "inputs": [],
      "name": "PANGOLIN_ADAPTER",
      "outputs": [
        {
          "internalType": "contract IYakAdapter",
          "name": "",
          "type": "address"
        }
      ],
      "stateMutability": "view",
      "type": "function"
    },
    {
      "inputs": [],
      "name": "PLATYPUS_ADAPTER",
      "outputs": [
        {
          "internalType": "contract IYakAdapter",
          "name": "",
          "type": "address"
        }
      ],
      "stateMutability": "view",
      "type": "function"
    },
    {
      "inputs": [
        {
          "internalType": "address",
          "name": "sender",
          "type": "address"
        },
        {
          "internalType": "address",
          "name": "borrower",
          "type": "address"
        },
        {
          "internalType": "uint256",
          "name": "borrowAmount",
          "type": "uint256"
        },
        {
          "internalType": "bytes",
          "name": "data",
          "type": "bytes"
        }
      ],
      "name": "altairBorrow_O9E",
      "outputs": [],
      "stateMutability": "nonpayable",
      "type": "function"
    },
    {
      "inputs": [
        {
          "internalType": "address",
          "name": "sender",
          "type": "address"
        },
        {
          "internalType": "uint256",
          "name": "redeemAmount",
          "type": "uint256"
        },
        {
          "internalType": "bytes",
          "name": "data",
          "type": "bytes"
        }
      ],
      "name": "altairRedeem_u91A",
      "outputs": [],
      "stateMutability": "nonpayable",
      "type": "function"
    },
    {
      "inputs": [
        {
          "internalType": "address",
          "name": "cygnusDai",
          "type": "address"
        },
        {
          "internalType": "uint256",
          "name": "amount",
          "type": "uint256"
        },
        {
          "internalType": "address",
          "name": "recipient",
          "type": "address"
        },
        {
          "internalType": "uint256",
          "name": "deadline",
          "type": "uint256"
        },
        {
          "internalType": "bytes",
          "name": "permitData",
          "type": "bytes"
        }
      ],
      "name": "borrow",
      "outputs": [],
      "stateMutability": "nonpayable",
      "type": "function"
    },
    {
      "inputs": [],
      "name": "dai",
      "outputs": [
        {
          "internalType": "address",
          "name": "",
          "type": "address"
        }
      ],
      "stateMutability": "view",
      "type": "function"
    },
    {
      "inputs": [
        {
          "internalType": "address",
          "name": "collateral",
          "type": "address"
        },
        {
          "internalType": "uint256",
          "name": "redeemTokens",
          "type": "uint256"
        },
        {
          "internalType": "uint256",
          "name": "deadline",
          "type": "uint256"
        },
        {
          "internalType": "bytes",
          "name": "permitData",
          "type": "bytes"
        }
      ],
      "name": "deleverage",
      "outputs": [],
      "stateMutability": "nonpayable",
      "type": "function"
    },
    {
      "inputs": [],
      "name": "hangar18",
      "outputs": [
        {
          "internalType": "address",
          "name": "",
          "type": "address"
        }
      ],
      "stateMutability": "view",
      "type": "function"
    },
    {
      "inputs": [
        {
          "internalType": "address",
          "name": "collateral",
          "type": "address"
        },
        {
          "internalType": "uint256",
          "name": "amountDAIDesired",
          "type": "uint256"
        },
        {
          "internalType": "address",
          "name": "recipient",
          "type": "address"
        },
        {
          "internalType": "uint256",
          "name": "deadline",
          "type": "uint256"
        },
        {
          "internalType": "bytes",
          "name": "permitData",
          "type": "bytes"
        }
      ],
      "name": "leverage",
      "outputs": [],
      "stateMutability": "nonpayable",
      "type": "function"
    },
    {
      "inputs": [
        {
          "internalType": "address",
          "name": "cygnusDai",
          "type": "address"
        },
        {
          "internalType": "uint256",
          "name": "amountMax",
          "type": "uint256"
        },
        {
          "internalType": "address",
          "name": "borrower",
          "type": "address"
        },
        {
          "internalType": "address",
          "name": "recipient",
          "type": "address"
        },
        {
          "internalType": "uint256",
          "name": "deadline",
          "type": "uint256"
        }
      ],
      "name": "liquidate",
      "outputs": [
        {
          "internalType": "uint256",
          "name": "amount",
          "type": "uint256"
        },
        {
          "internalType": "uint256",
          "name": "seizeTokens",
          "type": "uint256"
        }
      ],
      "stateMutability": "nonpayable",
      "type": "function"
    },
    {
      "inputs": [
        {
          "internalType": "address",
          "name": "cygnusDai",
          "type": "address"
        },
        {
          "internalType": "uint256",
          "name": "amountMax",
          "type": "uint256"
        },
        {
          "internalType": "address",
          "name": "borrower",
          "type": "address"
        },
        {
          "internalType": "address",
          "name": "recipient",
          "type": "address"
        },
        {
          "internalType": "uint256",
          "name": "deadline",
          "type": "uint256"
        }
      ],
      "name": "liquidateToDai",
      "outputs": [
        {
          "internalType": "uint256",
          "name": "amountDai",
          "type": "uint256"
        }
      ],
      "stateMutability": "nonpayable",
      "type": "function"
    },
    {
      "inputs": [
        {
          "internalType": "address",
          "name": "terminalToken",
          "type": "address"
        },
        {
          "internalType": "uint256",
          "name": "amount",
          "type": "uint256"
        },
        {
          "internalType": "address",
          "name": "recipient",
          "type": "address"
        },
        {
          "internalType": "uint256",
          "name": "deadline",
          "type": "uint256"
        }
      ],
      "name": "mint",
      "outputs": [
        {
          "internalType": "uint256",
          "name": "tokens",
          "type": "uint256"
        }
      ],
      "stateMutability": "nonpayable",
      "type": "function"
    },
    {
      "inputs": [
        {
          "internalType": "address",
          "name": "collateral",
          "type": "address"
        },
        {
          "internalType": "uint256",
          "name": "amount",
          "type": "uint256"
        },
        {
          "internalType": "address",
          "name": "recipient",
          "type": "address"
        },
        {
          "internalType": "uint256",
          "name": "deadline",
          "type": "uint256"
        },
        {
          "internalType": "bytes",
          "name": "permitData",
          "type": "bytes"
        }
      ],
      "name": "mintCollateral",
      "outputs": [
        {
          "internalType": "uint256",
          "name": "tokens",
          "type": "uint256"
        }
      ],
      "stateMutability": "nonpayable",
      "type": "function"
    },
    {
      "inputs": [],
      "name": "nativeToken",
      "outputs": [
        {
          "internalType": "address",
          "name": "",
          "type": "address"
        }
      ],
      "stateMutability": "view",
      "type": "function"
    },
    {
      "inputs": [
        {
          "internalType": "address",
          "name": "lpTokenPair",
          "type": "address"
        },
        {
          "internalType": "uint256",
          "name": "amountTokenADesired",
          "type": "uint256"
        },
        {
          "internalType": "uint256",
          "name": "amountTokenBDesired",
          "type": "uint256"
        },
        {
          "internalType": "uint256",
          "name": "amountTokenAMin",
          "type": "uint256"
        },
        {
          "internalType": "uint256",
          "name": "amountTokenBMin",
          "type": "uint256"
        }
      ],
      "name": "optimalLiquidity",
      "outputs": [
        {
          "internalType": "uint256",
          "name": "amountTokenA",
          "type": "uint256"
        },
        {
          "internalType": "uint256",
          "name": "amountTokenB",
          "type": "uint256"
        }
      ],
      "stateMutability": "view",
      "type": "function"
    },
    {
      "inputs": [
        {
          "internalType": "address",
          "name": "terminalToken",
          "type": "address"
        },
        {
          "internalType": "uint256",
          "name": "tokens",
          "type": "uint256"
        },
        {
          "internalType": "address",
          "name": "recipient",
          "type": "address"
        },
        {
          "internalType": "uint256",
          "name": "deadline",
          "type": "uint256"
        },
        {
          "internalType": "bytes",
          "name": "permitData",
          "type": "bytes"
        }
      ],
      "name": "redeem",
      "outputs": [
        {
          "internalType": "uint256",
          "name": "amount",
          "type": "uint256"
        }
      ],
      "stateMutability": "nonpayable",
      "type": "function"
    },
    {
      "inputs": [
        {
          "internalType": "address",
          "name": "cygnusDai",
          "type": "address"
        },
        {
          "internalType": "uint256",
          "name": "amountMax",
          "type": "uint256"
        },
        {
          "internalType": "address",
          "name": "borrower",
          "type": "address"
        },
        {
          "internalType": "uint256",
          "name": "deadline",
          "type": "uint256"
        }
      ],
      "name": "repay",
      "outputs": [
        {
          "internalType": "uint256",
          "name": "amount",
          "type": "uint256"
        }
      ],
      "stateMutability": "nonpayable",
      "type": "function"
    },
    {
      "stateMutability": "payable",
      "type": "receive"
    }
  ],
  "bytecode": "0x60e06040523480156200001157600080fd5b5060405162003b8a38038062003b8a83398101604081905262000034916200016e565b806001600160a01b03166080816001600160a01b031660601b81525050806001600160a01b031663e1758bd86040518163ffffffff1660e01b815260040160206040518083038186803b1580156200008b57600080fd5b505afa158015620000a0573d6000803e3d6000fd5b505050506040513d601f19601f82011682018060405250810190620000c691906200016e565b6001600160a01b031660a0816001600160a01b031660601b81525050806001600160a01b031663f4b9fa756040518163ffffffff1660e01b815260040160206040518083038186803b1580156200011c57600080fd5b505afa15801562000131573d6000803e3d6000fd5b505050506040513d601f19601f820116820180604052508101906200015791906200016e565b60601b6001600160601b03191660c052506200019e565b60006020828403121562000180578081fd5b81516001600160a01b038116811462000197578182fd5b9392505050565b60805160601c60a05160601c60c05160601c6138e1620002a960003960008181610465015281816109ee01528181611b0301528181611b3e01528181611b7901528181611d6101528181611db301528181611f6f0152818161214a01528181612185015281816121c00152612210015260008181610150015281816103fd01528181611bb601528181611be601528181611c0d01528181611c4801528181611c8301528181611cc001528181611ceb01528181611d1601528181611d4001528181611d85015281816122310152818161225801528181612293015281816122ce015281816123110152818161233601528181612ada0152612b280152600061043101526138e16000f3fe6080604052600436106101485760003560e01c806389f9f06f116100c0578063dbe5f2fb11610074578063e8a24e1d11610059578063e8a24e1d1461041f578063f4b9fa7514610453578063fff48b1f1461048757600080fd5b8063dbe5f2fb146103cb578063e1758bd8146103eb57600080fd5b8063989bebcf116100a5578063989bebcf14610363578063cd7dbbc014610383578063d9ce75a1146103ab57600080fd5b806389f9f06f14610314578063953ec6661461033457600080fd5b806343e26448116101175780635c1e6404116100fc5780635c1e6404146102ac5780636aee7c1e146102cc5780638316b700146102ec57600080fd5b806343e26448146102575780634cf75f9f1461027757600080fd5b80631172d362146101a45780631f1cc5bc146101e95780633c173a4f146102175780633eefb3791461023757600080fd5b3661019f57337f00000000000000000000000000000000000000000000000000000000000000006001600160a01b03161461019d57604051635ac2b20b60e11b81523360048201526024015b60405180910390fd5b005b600080fd5b3480156101b057600080fd5b506101cc736da140b4004d1eccfc5fffeb010bb7a58575b44681565b6040516001600160a01b0390911681526020015b60405180910390f35b3480156101f557600080fd5b50610209610204366004613330565b6104a7565b6040519081526020016101e0565b34801561022357600080fd5b5061020961023236600461326f565b6105de565b34801561024357600080fd5b50610209610252366004613215565b610673565b34801561026357600080fd5b506102096102723660046132b6565b610a7e565b34801561028357600080fd5b5061029761029236600461349d565b610b57565b604080519283526020830191909152016101e0565b3480156102b857600080fd5b506102976102c7366004613215565b610c9c565b3480156102d857600080fd5b506102096102e736600461326f565b610d87565b3480156102f857600080fd5b506101cc73db66686ac8bea67400cf9e5dd6c8849575b9014881565b34801561032057600080fd5b5061019d61032f366004613452565b610e5a565b34801561034057600080fd5b5061035660408051600081526020810190915281565b6040516101e0919061378c565b34801561036f57600080fd5b5061019d61037e3660046133f8565b611177565b34801561038f57600080fd5b506101cc733614657edc3cb90ba420e5f4f61679777e4974e381565b3480156103b757600080fd5b5061019d6103c63660046132b6565b61123d565b3480156103d757600080fd5b5061019d6103e6366004613330565b61138d565b3480156103f757600080fd5b506101cc7f000000000000000000000000000000000000000000000000000000000000000081565b34801561042b57600080fd5b506101cc7f000000000000000000000000000000000000000000000000000000000000000081565b34801561045f57600080fd5b506101cc7f000000000000000000000000000000000000000000000000000000000000000081565b34801561049357600080fd5b5061019d6104a23660046131a4565b61141c565b6000826104b3816116fc565b6104bf87878686611723565b6001600160a01b0387166323b872dd336040516001600160e01b031960e084901b1681526001600160a01b039182166004820152908a16602482015260448101899052606401602060405180830381600087803b15801561051f57600080fd5b505af1158015610533573d6000803e3d6000fd5b505050506040513d601f19601f8201168201806040525081019061055791906134e0565b506040516395a2251f60e01b81526001600160a01b0386811660048301528816906395a2251f90602401602060405180830381600087803b15801561059b57600080fd5b505af11580156105af573d6000803e3d6000fd5b505050506040513d601f19601f820116820180604052508101906105d391906136af565b979650505050505050565b6000816105ea816116fc565b61066986876001600160a01b0316636f307dc36040518163ffffffff1660e01b8152600401602060405180830381600087803b15801561062957600080fd5b505af115801561063d573d6000803e3d6000fd5b505050506040513d601f19601f820116820180604052508101906106619190613188565b873388611804565b9695505050505050565b60008161067f816116fc565b600061068c8888886118c0565b90506107183389838b6001600160a01b0316636f307dc36040518163ffffffff1660e01b8152600401602060405180830381600087803b1580156106cf57600080fd5b505af11580156106e3573d6000803e3d6000fd5b505050506040513d601f19601f820116820180604052508101906107079190613188565b6001600160a01b03169291906119ab565b6040516386b9d81f60e01b81526001600160a01b0387811660048301528681166024830152600091908a16906386b9d81f90604401602060405180830381600087803b15801561076757600080fd5b505af115801561077b573d6000803e3d6000fd5b505050506040513d601f19601f8201168201806040525081019061079f91906136af565b90506000896001600160a01b031663d8dfeb456040518163ffffffff1660e01b815260040160206040518083038186803b1580156107dc57600080fd5b505afa1580156107f0573d6000803e3d6000fd5b505050506040513d601f19601f820116820180604052508101906108149190613188565b90506000610836828433604080516000808252602082019092528c91506104a7565b90506000826001600160a01b0316636f307dc36040518163ffffffff1660e01b8152600401602060405180830381600087803b15801561087557600080fd5b505af1158015610889573d6000803e3d6000fd5b505050506040513d601f19601f820116820180604052508101906108ad9190613188565b6040516323b872dd60e01b81526001600160a01b038b81166004830152821660248201819052604482018590529192506323b872dd90606401602060405180830381600087803b15801561090057600080fd5b505af1158015610914573d6000803e3d6000fd5b505050506040513d601f19601f8201168201806040525081019061093891906134e0565b5060405163226bf2d160e21b815230600482015260009081906001600160a01b038416906389afcb44906024016040805180830381600087803b15801561097e57600080fd5b505af1158015610992573d6000803e3d6000fd5b505050506040513d601f19601f820116820180604052508101906109b691906136c7565b915091506109c5828285611a16565b60405163a9059cbb60e01b81526001600160a01b038d8116600483015260248201839052919a507f00000000000000000000000000000000000000000000000000000000000000009091169063a9059cbb90604401602060405180830381600087803b158015610a3457600080fd5b505af1158015610a48573d6000803e3d6000fd5b505050506040513d601f19601f82011682018060405250810190610a6c91906134e0565b50505050505050505095945050505050565b600083610a8a816116fc565b610acc88888787878080601f01602080910402602001604051908101604052809392919081815260200183838082843760009201919091525061172392505050565b610b4b88896001600160a01b0316636f307dc36040518163ffffffff1660e01b8152600401602060405180830381600087803b158015610b0b57600080fd5b505af1158015610b1f573d6000803e3d6000fd5b505050506040513d601f19601f82011682018060405250810190610b439190613188565b89338a611804565b98975050505050505050565b600080600080886001600160a01b0316630902f1ac6040518163ffffffff1660e01b815260040160606040518083038186803b158015610b9657600080fd5b505afa158015610baa573d6000803e3d6000fd5b505050506040513d601f19601f82011682018060405250810190610bce9190613661565b506dffffffffffffffffffffffffffff1691506dffffffffffffffffffffffffffff1691506000610c00898484611dd7565b9050878111610c385785811015610c2d5760405163c652989b60e01b815260048101829052602401610194565b889450925082610c8f565b6000610c45898486611dd7565b905089811115610c6557634e487b7160e01b600052600160045260246000fd5b87811015610c8957604051631977165560e21b815260048101829052602401610194565b94508793505b5050509550959350505050565b60008082610ca9816116fc565b610cb48888886118c0565b9250610cf73389858b6001600160a01b0316636f307dc36040518163ffffffff1660e01b8152600401602060405180830381600087803b1580156106cf57600080fd5b6040516386b9d81f60e01b81526001600160a01b03878116600483015286811660248301528916906386b9d81f90604401602060405180830381600087803b158015610d4257600080fd5b505af1158015610d56573d6000803e3d6000fd5b505050506040513d601f19601f82011682018060405250810190610d7a91906136af565b9150509550959350505050565b600081610d93816116fc565b610d9e8686866118c0565b9150610de1338784896001600160a01b0316636f307dc36040518163ffffffff1660e01b8152600401602060405180830381600087803b1580156106cf57600080fd5b6040805160008082526020820192839052631e7dcc0d60e01b9092526001600160a01b03881691631e7dcc0d91610e1f918891819060248101613732565b600060405180830381600087803b158015610e3957600080fd5b505af1158015610e4d573d6000803e3d6000fd5b5050505050949350505050565b82610e64816116fc565b6000866001600160a01b0316636f307dc36040518163ffffffff1660e01b8152600401602060405180830381600087803b158015610ea157600080fd5b505af1158015610eb5573d6000803e3d6000fd5b505050506040513d601f19601f82011682018060405250810190610ed99190613188565b905060008611610f045760405162c1055d60e41b815233600482015260248101879052604401610194565b6000876001600160a01b0316633ba0b9a96040518163ffffffff1660e01b8152600401602060405180830381600087803b158015610f4157600080fd5b505af1158015610f55573d6000803e3d6000fd5b505050506040513d601f19601f82011682018060405250810190610f7991906136af565b90506000610f9282610f8c60018b613827565b90611e43565b9050610fd689898989898080601f01602080910402602001604051908101604052809392919081815260200183838082843760009201919091525061172392505050565b60006040518060c00160405280856001600160a01b031681526020018b6001600160a01b031681526020018b6001600160a01b031663adbb25976040518163ffffffff1660e01b815260040160206040518083038186803b15801561103a57600080fd5b505afa15801561104e573d6000803e3d6000fd5b505050506040513d601f19601f820116820180604052508101906110729190613188565b6001600160a01b03168152602001336001600160a01b031681526020018a8152602001838152506040516020016110f99190600060c0820190506001600160a01b03808451168352806020850151166020840152806040850151166040840152806060850151166060840152506080830151608083015260a083015160a083015292915050565b60408051601f198184030181529082905263472e129960e11b825291506001600160a01b038b1690638e5c25329061113990309086908690600401613764565b600060405180830381600087803b15801561115357600080fd5b505af1158015611167573d6000803e3d6000fd5b5050505050505050505050505050565b6000611185828401846135c7565b60208101519091506001600160a01b03861630146111d5576060820151604051630297f76960e51b81526001600160a01b0380891660048301523260248301529091166044820152606401610194565b336001600160a01b0382161461120f576040516372d640b360e11b81523360048201526001600160a01b0382166024820152604401610194565b611235826000015183606001518460200151856040015186608001518760a00151611e56565b505050505050565b82611247816116fc565b6000876001600160a01b0316636f307dc36040518163ffffffff1660e01b8152600401602060405180830381600087803b15801561128457600080fd5b505af1158015611298573d6000803e3d6000fd5b505050506040513d601f19601f820116820180604052508101906112bc9190613188565b90506000886001600160a01b031663adbb25976040518163ffffffff1660e01b815260040160206040518083038186803b1580156112f957600080fd5b505afa15801561130d573d6000803e3d6000fd5b505050506040513d601f19601f820116820180604052508101906113319190613188565b905061137581898888888080601f01602080910402602001604051908101604052809392919081815260200183838082843760009201919091525061201e92505050565b611382828a838b8b612073565b505050505050505050565b81611397816116fc565b6113a38686858561201e565b60408051600081526020810191829052631e7dcc0d60e01b9091526001600160a01b03871690631e7dcc0d906113e290339088908a9060248101613732565b600060405180830381600087803b1580156113fc57600080fd5b505af1158015611410573d6000803e3d6000fd5b50505050505050505050565b600061142a82840184613543565b60408101519091506001600160a01b038716301461147457604051630297f76960e51b81526001600160a01b03808916600483015232602483015287166044820152606401610194565b336001600160a01b038216146114ae5760405163aead146760e01b81523360048201526001600160a01b0382166024820152604401610194565b600082600001516001600160a01b0316630dfe16816040518163ffffffff1660e01b815260040160206040518083038186803b1580156114ed57600080fd5b505afa158015611501573d6000803e3d6000fd5b505050506040513d601f19601f820116820180604052508101906115259190613188565b9050600083600001516001600160a01b031663d21220a76040518163ffffffff1660e01b815260040160206040518083038186803b15801561156657600080fd5b505afa15801561157a573d6000803e3d6000fd5b505050506040513d601f19601f8201168201806040525081019061159e9190613188565b90506000806115b3866000015185858c612142565b875191935091506115cf906001600160a01b0386169084612467565b85516115e6906001600160a01b0385169083612467565b855160208701516040516335313c2160e11b81526001600160a01b039182166004820152911690636a62784290602401602060405180830381600087803b15801561163057600080fd5b505af1158015611644573d6000803e3d6000fd5b505050506040513d601f19601f8201168201806040525081019061166891906136af565b50602086015160608701516040516335313c2160e11b81526001600160a01b039182166004820152911690636a62784290602401602060405180830381600087803b1580156116b657600080fd5b505af11580156116ca573d6000803e3d6000fd5b505050506040513d601f19601f820116820180604052508101906116ee91906136af565b505050505050505050505050565b8042111561172057604051636c5fb09360e11b815260048101829052602401610194565b50565b805161172e576117fe565b6000806000808480602001905181019061174891906134fa565b935093509350935060008461175d5787611761565b6000195b90506001600160a01b03891663d505accf335b6040516001600160e01b031960e084901b1681526001600160a01b03909116600482015230602482015260448101849052606481018a905260ff8716608482015260a4810186905260c4810185905260e401600060405180830381600087803b1580156117e057600080fd5b505af11580156117f4573d6000803e3d6000fd5b5050505050505050505b50505050565b60006001600160a01b0383163014156118305761182b6001600160a01b0386168786612467565b611845565b6118456001600160a01b0386168488876119ab565b6040516335313c2160e11b81526001600160a01b038381166004830152871690636a62784290602401602060405180830381600087803b15801561188857600080fd5b505af115801561189c573d6000803e3d6000fd5b505050506040513d601f19601f8201168201806040525081019061066991906136af565b6000836001600160a01b031663a6afed956040518163ffffffff1660e01b8152600401600060405180830381600087803b1580156118fd57600080fd5b505af1158015611911573d6000803e3d6000fd5b5050604051637d6af07960e01b81526001600160a01b0385811660048301526000935087169150637d6af0799060240160206040518083038186803b15801561195957600080fd5b505afa15801561196d573d6000803e3d6000fd5b505050506040513d601f19601f8201168201806040525081019061199191906136af565b90508084106119a057806119a2565b835b95945050505050565b6040516001600160a01b03808516602483015283166044820152606481018290526117fe9085906323b872dd60e01b906084015b60408051601f198184030181529190526020810180516001600160e01b03166001600160e01b03199093169290921790915261249c565b600080826001600160a01b0316630dfe16816040518163ffffffff1660e01b815260040160206040518083038186803b158015611a5257600080fd5b505afa158015611a66573d6000803e3d6000fd5b505050506040513d601f19601f82011682018060405250810190611a8a9190613188565b90506000836001600160a01b031663d21220a76040518163ffffffff1660e01b815260040160206040518083038186803b158015611ac757600080fd5b505afa158015611adb573d6000803e3d6000fd5b505050506040513d601f19601f82011682018060405250810190611aff9190613188565b90507f00000000000000000000000000000000000000000000000000000000000000006001600160a01b0316826001600160a01b03161480611b7257507f00000000000000000000000000000000000000000000000000000000000000006001600160a01b0316816001600160a01b0316145b15611c0b577f00000000000000000000000000000000000000000000000000000000000000006001600160a01b0316826001600160a01b031614611be057611bdb827f000000000000000000000000000000000000000000000000000000000000000088612519565b611d3b565b611bdb817f000000000000000000000000000000000000000000000000000000000000000087612519565b7f00000000000000000000000000000000000000000000000000000000000000006001600160a01b0316826001600160a01b03161480611c7c57507f00000000000000000000000000000000000000000000000000000000000000006001600160a01b0316816001600160a01b0316145b15611ce5577f00000000000000000000000000000000000000000000000000000000000000006001600160a01b0316826001600160a01b031614611be057611bdb827f000000000000000000000000000000000000000000000000000000000000000088612519565b611d10827f000000000000000000000000000000000000000000000000000000000000000088612519565b611d3b817f000000000000000000000000000000000000000000000000000000000000000087612519565b611dae7f00000000000000000000000000000000000000000000000000000000000000007f0000000000000000000000000000000000000000000000000000000000000000611da97f0000000000000000000000000000000000000000000000000000000000000000612812565b612519565b6106697f0000000000000000000000000000000000000000000000000000000000000000612812565b6000808411611dfc57604051630748a9af60e31b815260048101859052602401610194565b82158015611e08575081155b15611e305760405163506bf75560e01b81526004810184905260248101839052604401610194565b611e3b848385612892565b949350505050565b6000611e4f838361296d565b9392505050565b60405163a9059cbb60e01b81526001600160a01b03871660048201819052602482018390529063a9059cbb90604401602060405180830381600087803b158015611e9f57600080fd5b505af1158015611eb3573d6000803e3d6000fd5b505050506040513d601f19601f82011682018060405250810190611ed791906134e0565b5060405163226bf2d160e21b815230600482015260009081906001600160a01b038916906389afcb44906024016040805180830381600087803b158015611f1d57600080fd5b505af1158015611f31573d6000803e3d6000fd5b505050506040513d601f19601f82011682018060405250810190611f5591906136c7565b90925090506000611f6783838b611a16565b9050611f95867f00000000000000000000000000000000000000000000000000000000000000008a84612a2f565b6040516323b872dd60e01b81526001600160a01b03898116600483015288166024820181905260448201879052906323b872dd90606401602060405180830381600087803b158015611fe657600080fd5b505af1158015611ffa573d6000803e3d6000fd5b505050506040513d601f19601f8201168201806040525081019061141091906134e0565b8051612029576117fe565b6000806000808480602001905181019061204391906134fa565b9350935093509350600084612058578761205c565b6000195b90506001600160a01b038916639e79b55c33611774565b60006040518060800160405280876001600160a01b03168152602001866001600160a01b03168152602001856001600160a01b03168152602001836001600160a01b0316815250604051602001612100919081516001600160a01b039081168252602080840151821690830152604080840151821690830152606092830151169181019190915260800190565b60408051601f1981840301815290829052631e7dcc0d60e01b825291506001600160a01b03851690631e7dcc0d906113e2908590309088908790600401613732565b6000806000807f00000000000000000000000000000000000000000000000000000000000000006001600160a01b0316876001600160a01b031614806121b957507f00000000000000000000000000000000000000000000000000000000000000006001600160a01b0316866001600160a01b0316145b1561220b577f00000000000000000000000000000000000000000000000000000000000000006001600160a01b0316876001600160a01b0316146121fe578587612201565b86865b9092509050612360565b6122567f00000000000000000000000000000000000000000000000000000000000000007f000000000000000000000000000000000000000000000000000000000000000087612519565b7f00000000000000000000000000000000000000000000000000000000000000006001600160a01b0316876001600160a01b031614806122c757507f00000000000000000000000000000000000000000000000000000000000000006001600160a01b0316866001600160a01b0316145b1561230c577f00000000000000000000000000000000000000000000000000000000000000006001600160a01b0316876001600160a01b0316146121fe578587612201565b61235a7f000000000000000000000000000000000000000000000000000000000000000088611da97f0000000000000000000000000000000000000000000000000000000000000000612812565b50859050845b600080896001600160a01b0316630902f1ac6040518163ffffffff1660e01b815260040160606040518083038186803b15801561239c57600080fd5b505afa1580156123b0573d6000803e3d6000fd5b505050506040513d601f19601f820116820180604052508101906123d49190613661565b506dffffffffffffffffffffffffffff1691506dffffffffffffffffffffffffffff1691506000896001600160a01b0316856001600160a01b03161461241a578161241c565b825b9050600061243561242c87612812565b836103e5612bb6565b9050612442868683612519565b61244b8b612812565b97506124568a612812565b965050505050505094509492505050565b6040516001600160a01b03831660248201526044810182905261249790849063a9059cbb60e01b906064016119df565b505050565b60006124de83836040518060400160405280601581526020017f5361666545726332304c6f774c6576656c43616c6c0000000000000000000000815250612c48565b80519091501561249757808060200190518101906124fc91906134e0565b612497576040516364d6fc4d60e01b815260040160405180910390fd5b6040516377ccc49d60e11b8152600481018290526001600160a01b0380851660248301528316604482015260009081908190736da140b4004d1eccfc5fffeb010bb7a58575b4469063ef99893a90606401602060405180830381600087803b15801561258457600080fd5b505af1158015612598573d6000803e3d6000fd5b505050506040513d601f19601f820116820180604052508101906125bc91906136af565b6040516377ccc49d60e11b8152600481018690526001600160a01b0380891660248301528716604482015273db66686ac8bea67400cf9e5dd6c8849575b901489063ef99893a90606401602060405180830381600087803b15801561262057600080fd5b505af1158015612634573d6000803e3d6000fd5b505050506040513d601f19601f8201168201806040525081019061265891906136af565b6040516377ccc49d60e11b8152600481018790526001600160a01b03808a16602483015288166044820152733614657edc3cb90ba420e5f4f61679777e4974e39063ef99893a90606401602060405180830381600087803b1580156126bc57600080fd5b505af11580156126d0573d6000803e3d6000fd5b505050506040513d601f19601f820116820180604052508101906126f491906136af565b9250925092506000808385116127415782841161272657733614657edc3cb90ba420e5f4f61679777e4974e38361277a565b73db66686ac8bea67400cf9e5dd6c8849575b901488461277a565b82851161276357733614657edc3cb90ba420e5f4f61679777e4974e38361277a565b736da140b4004d1eccfc5fffeb010bb7a58575b446855b9150915061278b8883600019612d18565b61279f6001600160a01b0389168388612467565b60405163755c86d360e11b815260048101879052602481018290526001600160a01b038981166044830152888116606483015230608483015283169063eab90da69060a401600060405180830381600087803b1580156127fe57600080fd5b505af11580156116ee573d6000803e3d6000fd5b6040516370a0823160e01b81523060048201526000906001600160a01b038316906370a082319060240160206040518083038186803b15801561285457600080fd5b505afa158015612868573d6000803e3d6000fd5b505050506040513d601f19601f8201168201806040525081019061288c91906136af565b92915050565b6000808060001985870985870292508281108382030391505080600014156128db578382816128d157634e487b7160e01b600052601260045260246000fd5b0492505050611e4f565b83811061290557604051631dcf306360e21b81526004810182905260248101859052604401610194565b600084868809600260036001881981018916988990049182028318808302840302808302840302808302840302808302840302808302840302918202909203026000889003889004909101858311909403939093029303949094049190911702949350505050565b60008080600019848609848602925082811083820303915050670de0b6b3a764000081106129b15760405163698d9a0160e11b815260048101829052602401610194565b600080670de0b6b3a76400008688099150506706f05b59d3b1ffff8111826129eb5780670de0b6b3a764000085040194505050505061288c565b620400008285030493909111909103600160ee1b02919091177faccb18165bd6fe31ae1cf318dc5b51eee0e1ba569b88cd74c1773b91fac106690201905092915050565b6000612a3c8583856118c0565b9050612a526001600160a01b0385168683612467565b6040805160008082526020820192839052631e7dcc0d60e01b9092526001600160a01b03871691631e7dcc0d91612a90918791819060248101613732565b600060405180830381600087803b158015612aaa57600080fd5b505af1158015612abe573d6000803e3d6000fd5b5050505080821115612baf576000612ad68284613827565b90507f00000000000000000000000000000000000000000000000000000000000000006001600160a01b0316856001600160a01b03161415612b9b57604051632e1a7d4d60e01b8152600481018290527f00000000000000000000000000000000000000000000000000000000000000006001600160a01b031690632e1a7d4d90602401600060405180830381600087803b158015612b7457600080fd5b505af1158015612b88573d6000803e3d6000fd5b50505050612b968482612db1565b611235565b6112356001600160a01b0386168583612467565b5050505050565b60008083612bc6846103e86137d0565b612bd09190613808565b905060008385612be2886103e8613808565b612bec9190613808565b612bf7906004613808565b612c019190613808565b90506000612c2282612c138580613808565b612c1d91906137d0565b612e0c565b90506000612c31866002613808565b905080612c3e8584613827565b610b4b91906137e8565b60606001600160a01b0384163b612c7d57604051638201cc0560e01b81526001600160a01b0385166004820152602401610194565b600080856001600160a01b031685604051612c989190613716565b6000604051808303816000865af19150503d8060008114612cd5576040519150601f19603f3d011682016040523d82523d6000602084013e612cda565b606091505b50915091508115612cee579150611e4f9050565b805115612cfe5780518082602001fd5b8360405162461bcd60e51b8152600401610194919061378c565b604051636eb1769f60e11b81523060048201526001600160a01b03838116602483015282919085169063dd62ed3e9060440160206040518083038186803b158015612d6257600080fd5b505afa158015612d76573d6000803e3d6000fd5b505050506040513d601f19601f82011682018060405250810190612d9a91906136af565b10612da457505050565b6124978383600019612ffa565b600080600080600085875af19050806124975760405162461bcd60e51b815260206004820152601460248201527f415641585f5452414e534645525f4641494c45440000000000000000000000006044820152606401610194565b600081612e1b57506000919050565b506001817001000000000000000000000000000000008110612e425760409190911b9060801c5b680100000000000000008110612e5d5760209190911b9060401c5b6401000000008110612e745760109190911b9060201c5b620100008110612e895760089190911b9060101c5b6101008110612e9d5760049190911b9060081c5b60108110612eb05760029190911b9060041c5b60088110612ec057600182901b91505b6001828481612edf57634e487b7160e01b600052601260045260246000fd5b048301901c91506001828481612f0557634e487b7160e01b600052601260045260246000fd5b048301901c91506001828481612f2b57634e487b7160e01b600052601260045260246000fd5b048301901c91506001828481612f5157634e487b7160e01b600052601260045260246000fd5b048301901c91506001828481612f7757634e487b7160e01b600052601260045260246000fd5b048301901c91506001828481612f9d57634e487b7160e01b600052601260045260246000fd5b048301901c91506001828481612fc357634e487b7160e01b600052601260045260246000fd5b048301901c91506000828481612fe957634e487b7160e01b600052601260045260246000fd5b04905080831015611e4f5782611e3b565b604080516001600160a01b038481166024830152604480830185905283518084039091018152606490920183526020820180516001600160e01b031663095ea7b360e01b17905291516000928392908716916130569190613716565b6000604051808303816000865af19150503d8060008114613093576040519150601f19603f3d011682016040523d82523d6000602084013e613098565b606091505b50915091508180156130c25750805115806130c25750808060200190518101906130c291906134e0565b612baf5760405162461bcd60e51b815260206004820152600c60248201527f2173616665417070726f766500000000000000000000000000000000000000006044820152606401610194565b8051801515811461311e57600080fd5b919050565b60008083601f840112613134578182fd5b50813567ffffffffffffffff81111561314b578182fd5b60208301915083602082850101111561316357600080fd5b9250929050565b80516dffffffffffffffffffffffffffff8116811461311e57600080fd5b600060208284031215613199578081fd5b8151611e4f81613896565b6000806000806000608086880312156131bb578081fd5b85356131c681613896565b945060208601356131d681613896565b935060408601359250606086013567ffffffffffffffff8111156131f8578182fd5b61320488828901613123565b969995985093965092949392505050565b600080600080600060a0868803121561322c578081fd5b853561323781613896565b945060208601359350604086013561324e81613896565b9250606086013561325e81613896565b949793965091946080013592915050565b60008060008060808587031215613284578384fd5b843561328f81613896565b93506020850135925060408501356132a681613896565b9396929550929360600135925050565b60008060008060008060a087890312156132ce578081fd5b86356132d981613896565b95506020870135945060408701356132f081613896565b935060608701359250608087013567ffffffffffffffff811115613312578182fd5b61331e89828a01613123565b979a9699509497509295939492505050565b600080600080600060a08688031215613347578081fd5b853561335281613896565b94506020868101359450604087013561336a81613896565b935060608701359250608087013567ffffffffffffffff8082111561338d578384fd5b818901915089601f8301126133a0578384fd5b8135818111156133b2576133b2613880565b6133c4601f8201601f1916850161379f565b91508082528a848285010111156133d9578485fd5b8084840185840137810190920192909252949793965091945092919050565b6000806000806060858703121561340d578182fd5b843561341881613896565b935060208501359250604085013567ffffffffffffffff81111561343a578283fd5b61344687828801613123565b95989497509550505050565b600080600080600060808688031215613469578283fd5b853561347481613896565b94506020860135935060408601359250606086013567ffffffffffffffff8111156131f8578182fd5b600080600080600060a086880312156134b4578283fd5b85356134bf81613896565b97602087013597506040870135966060810135965060800135945092505050565b6000602082840312156134f1578081fd5b611e4f8261310e565b6000806000806080858703121561350f578182fd5b6135188561310e565b9350602085015160ff8116811461352d578283fd5b6040860151606090960151949790965092505050565b600060808284031215613554578081fd5b6040516080810181811067ffffffffffffffff8211171561357757613577613880565b604052823561358581613896565b8152602083013561359581613896565b602082015260408301356135a881613896565b604082015260608301356135bb81613896565b60608201529392505050565b600060c082840312156135d8578081fd5b60405160c0810181811067ffffffffffffffff821117156135fb576135fb613880565b604052823561360981613896565b8152602083013561361981613896565b6020820152604083013561362c81613896565b6040820152606083013561363f81613896565b60608201526080838101359082015260a0928301359281019290925250919050565b600080600060608486031215613675578081fd5b61367e8461316a565b925061368c6020850161316a565b9150604084015163ffffffff811681146136a4578182fd5b809150509250925092565b6000602082840312156136c0578081fd5b5051919050565b600080604083850312156136d9578182fd5b505080516020909101519092909150565b6000815180845261370281602086016020860161383e565b601f01601f19169290920160200192915050565b6000825161372881846020870161383e565b9190910192915050565b60006001600160a01b0380871683528086166020840152508360408301526080606083015261066960808301846136ea565b6001600160a01b03841681528260208201526060604082015260006119a260608301846136ea565b602081526000611e4f60208301846136ea565b604051601f8201601f1916810167ffffffffffffffff811182821017156137c8576137c8613880565b604052919050565b600082198211156137e3576137e361386a565b500190565b60008261380357634e487b7160e01b81526012600452602481fd5b500490565b60008160001904831182151516156138225761382261386a565b500290565b6000828210156138395761383961386a565b500390565b60005b83811015613859578181015183820152602001613841565b838111156117fe5750506000910152565b634e487b7160e01b600052601160045260246000fd5b634e487b7160e01b600052604160045260246000fd5b6001600160a01b038116811461172057600080fdfea2646970667358221220e1e6b5a6a14ba1bc7138f562afff225d8c2a0060004e0d780aad04b94e99751b64736f6c63430008040033",
  "linkReferences": {},
  "deployedLinkReferences": {}
}