{
  "_format": "hh-sol-artifact-1",
  "contractName": "CygnusBorrowTracker",
  "sourceName": "contracts/cygnus-core/CygnusBorrowTracker.sol",
  "abi": [
    {
      "inputs": [],
      "stateMutability": "nonpayable",
      "type": "constructor"
    },
    {
      "inputs": [
        {
          "internalType": "uint256",
          "name": "borrowAllowance",
          "type": "uint256"
        },
        {
          "internalType": "uint256",
          "name": "borrowAmount",
          "type": "uint256"
        }
      ],
      "name": "CygnusBorrowApprove__BorrowNotAllowed",
      "type": "error"
    },
    {
      "inputs": [
        {
          "internalType": "address",
          "name": "owner",
          "type": "address"
        },
        {
          "internalType": "address",
          "name": "spender",
          "type": "address"
        }
      ],
      "name": "CygnusBorrowApprove__OwnerIsSpender",
      "type": "error"
    },
    {
      "inputs": [
        {
          "internalType": "address",
          "name": "owner",
          "type": "address"
        },
        {
          "internalType": "address",
          "name": "spender",
          "type": "address"
        }
      ],
      "name": "CygnusBorrowApprove__OwnerZeroAddress",
      "type": "error"
    },
    {
      "inputs": [
        {
          "internalType": "address",
          "name": "owner",
          "type": "address"
        },
        {
          "internalType": "address",
          "name": "spender",
          "type": "address"
        }
      ],
      "name": "CygnusBorrowApprove__SpenderZeroAddress",
      "type": "error"
    },
    {
      "inputs": [
        {
          "internalType": "address",
          "name": "currentTracker",
          "type": "address"
        },
        {
          "internalType": "address",
          "name": "newTracker",
          "type": "address"
        }
      ],
      "name": "CygnusBorrowControl__BorrowTrackerAlreadySet",
      "type": "error"
    },
    {
      "inputs": [
        {
          "internalType": "uint256",
          "name": "min",
          "type": "uint256"
        },
        {
          "internalType": "uint256",
          "name": "max",
          "type": "uint256"
        },
        {
          "internalType": "uint256",
          "name": "value",
          "type": "uint256"
        }
      ],
      "name": "CygnusBorrowControl__ParameterNotInRange",
      "type": "error"
    },
    {
      "inputs": [],
      "name": "CygnusTerminal__CantMintZeroShares",
      "type": "error"
    },
    {
      "inputs": [],
      "name": "CygnusTerminal__CantRedeemZeroAssets",
      "type": "error"
    },
    {
      "inputs": [
        {
          "internalType": "address",
          "name": "token",
          "type": "address"
        },
        {
          "internalType": "address",
          "name": "underlying",
          "type": "address"
        }
      ],
      "name": "CygnusTerminal__CantSweepUnderlying",
      "type": "error"
    },
    {
      "inputs": [
        {
          "internalType": "address",
          "name": "sender",
          "type": "address"
        },
        {
          "internalType": "address",
          "name": "factoryAdmin",
          "type": "address"
        }
      ],
      "name": "CygnusTerminal__MsgSenderNotAdmin",
      "type": "error"
    },
    {
      "inputs": [
        {
          "internalType": "uint256",
          "name": "assets",
          "type": "uint256"
        },
        {
          "internalType": "uint256",
          "name": "totalBalance",
          "type": "uint256"
        }
      ],
      "name": "CygnusTerminal__RedeemAmountInvalid",
      "type": "error"
    },
    {
      "inputs": [],
      "name": "ERC20__ApproveOwnerZeroAddress",
      "type": "error"
    },
    {
      "inputs": [],
      "name": "ERC20__ApproveSpenderZeroAddress",
      "type": "error"
    },
    {
      "inputs": [
        {
          "internalType": "uint256",
          "name": "accountBalance",
          "type": "uint256"
        },
        {
          "internalType": "uint256",
          "name": "burnAmount",
          "type": "uint256"
        }
      ],
      "name": "ERC20__BurnUnderflow",
      "type": "error"
    },
    {
      "inputs": [],
      "name": "ERC20__BurnZeroAddress",
      "type": "error"
    },
    {
      "inputs": [
        {
          "internalType": "uint256",
          "name": "allowance",
          "type": "uint256"
        },
        {
          "internalType": "uint256",
          "name": "amount",
          "type": "uint256"
        }
      ],
      "name": "ERC20__InsufficientAllowance",
      "type": "error"
    },
    {
      "inputs": [
        {
          "internalType": "uint256",
          "name": "senderBalance",
          "type": "uint256"
        },
        {
          "internalType": "uint256",
          "name": "amount",
          "type": "uint256"
        }
      ],
      "name": "ERC20__InsufficientBalance",
      "type": "error"
    },
    {
      "inputs": [],
      "name": "ERC20__MintZeroAddress",
      "type": "error"
    },
    {
      "inputs": [],
      "name": "ERC20__TransferRecipientZeroAddress",
      "type": "error"
    },
    {
      "inputs": [],
      "name": "ERC20__TransferSenderZeroAddress",
      "type": "error"
    },
    {
      "inputs": [
        {
          "internalType": "uint256",
          "name": "prod1",
          "type": "uint256"
        }
      ],
      "name": "PRBMath__MulDivFixedPointOverflow",
      "type": "error"
    },
    {
      "inputs": [
        {
          "internalType": "uint256",
          "name": "prod1",
          "type": "uint256"
        },
        {
          "internalType": "uint256",
          "name": "denominator",
          "type": "uint256"
        }
      ],
      "name": "PRBMath__MulDivOverflow",
      "type": "error"
    },
    {
      "inputs": [],
      "name": "ReentrantCall",
      "type": "error"
    },
    {
      "anonymous": false,
      "inputs": [
        {
          "indexed": false,
          "internalType": "uint256",
          "name": "cashStored",
          "type": "uint256"
        },
        {
          "indexed": false,
          "internalType": "uint256",
          "name": "interestAccumulated",
          "type": "uint256"
        },
        {
          "indexed": false,
          "internalType": "uint256",
          "name": "borrowIndexStored",
          "type": "uint256"
        },
        {
          "indexed": false,
          "internalType": "uint256",
          "name": "totalBorrowsStored",
          "type": "uint256"
        },
        {
          "indexed": false,
          "internalType": "uint256",
          "name": "borrowRateStored",
          "type": "uint256"
        }
      ],
      "name": "AccrueInterest",
      "type": "event"
    },
    {
      "anonymous": false,
      "inputs": [
        {
          "indexed": true,
          "internalType": "address",
          "name": "owner",
          "type": "address"
        },
        {
          "indexed": true,
          "internalType": "address",
          "name": "spender",
          "type": "address"
        },
        {
          "indexed": false,
          "internalType": "uint256",
          "name": "amount",
          "type": "uint256"
        }
      ],
      "name": "Approval",
      "type": "event"
    },
    {
      "anonymous": false,
      "inputs": [
        {
          "indexed": true,
          "internalType": "address",
          "name": "owner",
          "type": "address"
        },
        {
          "indexed": false,
          "internalType": "address",
          "name": "spender",
          "type": "address"
        },
        {
          "indexed": false,
          "internalType": "uint256",
          "name": "amount",
          "type": "uint256"
        }
      ],
      "name": "BorrowApproval",
      "type": "event"
    },
    {
      "anonymous": false,
      "inputs": [
        {
          "indexed": true,
          "internalType": "address",
          "name": "sender",
          "type": "address"
        },
        {
          "indexed": true,
          "internalType": "address",
          "name": "recipient",
          "type": "address"
        },
        {
          "indexed": false,
          "internalType": "uint256",
          "name": "assets",
          "type": "uint256"
        },
        {
          "indexed": false,
          "internalType": "uint256",
          "name": "shares",
          "type": "uint256"
        }
      ],
      "name": "Deposit",
      "type": "event"
    },
    {
      "anonymous": false,
      "inputs": [
        {
          "indexed": false,
          "internalType": "address",
          "name": "oldBorrowRewarder",
          "type": "address"
        },
        {
          "indexed": false,
          "internalType": "address",
          "name": "newBorrowRewarder",
          "type": "address"
        }
      ],
      "name": "NewCygnusBorrowRewarder",
      "type": "event"
    },
    {
      "anonymous": false,
      "inputs": [
        {
          "indexed": false,
          "internalType": "uint256",
          "name": "baseRatePerYear",
          "type": "uint256"
        },
        {
          "indexed": false,
          "internalType": "uint256",
          "name": "multiplierPerYear",
          "type": "uint256"
        },
        {
          "indexed": false,
          "internalType": "uint256",
          "name": "kinkMultiplier_",
          "type": "uint256"
        },
        {
          "indexed": false,
          "internalType": "uint256",
          "name": "kinkUtilizationRate_",
          "type": "uint256"
        }
      ],
      "name": "NewInterestRateParameters",
      "type": "event"
    },
    {
      "anonymous": false,
      "inputs": [
        {
          "indexed": false,
          "internalType": "uint256",
          "name": "oldReserveFactor",
          "type": "uint256"
        },
        {
          "indexed": false,
          "internalType": "uint256",
          "name": "newReserveFactor",
          "type": "uint256"
        }
      ],
      "name": "NewReserveFactor",
      "type": "event"
    },
    {
      "anonymous": false,
      "inputs": [
        {
          "indexed": false,
          "internalType": "uint256",
          "name": "totalBalance",
          "type": "uint256"
        }
      ],
      "name": "Sync",
      "type": "event"
    },
    {
      "anonymous": false,
      "inputs": [
        {
          "indexed": true,
          "internalType": "address",
          "name": "from",
          "type": "address"
        },
        {
          "indexed": true,
          "internalType": "address",
          "name": "to",
          "type": "address"
        },
        {
          "indexed": false,
          "internalType": "uint256",
          "name": "amount",
          "type": "uint256"
        }
      ],
      "name": "Transfer",
      "type": "event"
    },
    {
      "anonymous": false,
      "inputs": [
        {
          "indexed": true,
          "internalType": "address",
          "name": "sender",
          "type": "address"
        },
        {
          "indexed": true,
          "internalType": "address",
          "name": "recipient",
          "type": "address"
        },
        {
          "indexed": true,
          "internalType": "address",
          "name": "owner",
          "type": "address"
        },
        {
          "indexed": false,
          "internalType": "uint256",
          "name": "assets",
          "type": "uint256"
        },
        {
          "indexed": false,
          "internalType": "uint256",
          "name": "shares",
          "type": "uint256"
        }
      ],
      "name": "Withdraw",
      "type": "event"
    },
    {
      "inputs": [],
      "name": "accrueInterest",
      "outputs": [],
      "stateMutability": "nonpayable",
      "type": "function"
    },
    {
      "inputs": [
        {
          "internalType": "address",
          "name": "owner",
          "type": "address"
        },
        {
          "internalType": "address",
          "name": "spender",
          "type": "address"
        }
      ],
      "name": "allowance",
      "outputs": [
        {
          "internalType": "uint256",
          "name": "",
          "type": "uint256"
        }
      ],
      "stateMutability": "view",
      "type": "function"
    },
    {
      "inputs": [
        {
          "internalType": "address",
          "name": "spender",
          "type": "address"
        },
        {
          "internalType": "uint256",
          "name": "amount",
          "type": "uint256"
        }
      ],
      "name": "approve",
      "outputs": [
        {
          "internalType": "bool",
          "name": "",
          "type": "bool"
        }
      ],
      "stateMutability": "nonpayable",
      "type": "function"
    },
    {
      "inputs": [
        {
          "internalType": "address",
          "name": "account",
          "type": "address"
        }
      ],
      "name": "balanceOf",
      "outputs": [
        {
          "internalType": "uint256",
          "name": "",
          "type": "uint256"
        }
      ],
      "stateMutability": "view",
      "type": "function"
    },
    {
      "inputs": [],
      "name": "baseRatePerSecond",
      "outputs": [
        {
          "internalType": "uint256",
          "name": "",
          "type": "uint256"
        }
      ],
      "stateMutability": "view",
      "type": "function"
    },
    {
      "inputs": [
        {
          "internalType": "address",
          "name": "",
          "type": "address"
        },
        {
          "internalType": "address",
          "name": "",
          "type": "address"
        }
      ],
      "name": "borrowAllowances",
      "outputs": [
        {
          "internalType": "uint256",
          "name": "",
          "type": "uint256"
        }
      ],
      "stateMutability": "view",
      "type": "function"
    },
    {
      "inputs": [
        {
          "internalType": "address",
          "name": "spender",
          "type": "address"
        },
        {
          "internalType": "uint256",
          "name": "amount",
          "type": "uint256"
        }
      ],
      "name": "borrowApprove",
      "outputs": [
        {
          "internalType": "bool",
          "name": "",
          "type": "bool"
        }
      ],
      "stateMutability": "nonpayable",
      "type": "function"
    },
    {
      "inputs": [],
      "name": "borrowIndex",
      "outputs": [
        {
          "internalType": "uint112",
          "name": "",
          "type": "uint112"
        }
      ],
      "stateMutability": "view",
      "type": "function"
    },
    {
      "inputs": [],
      "name": "borrowRate",
      "outputs": [
        {
          "internalType": "uint112",
          "name": "",
          "type": "uint112"
        }
      ],
      "stateMutability": "view",
      "type": "function"
    },
    {
      "inputs": [],
      "name": "collateral",
      "outputs": [
        {
          "internalType": "address",
          "name": "",
          "type": "address"
        }
      ],
      "stateMutability": "view",
      "type": "function"
    },
    {
      "inputs": [],
      "name": "cygnusBorrowRewarder",
      "outputs": [
        {
          "internalType": "address",
          "name": "",
          "type": "address"
        }
      ],
      "stateMutability": "view",
      "type": "function"
    },
    {
      "inputs": [],
      "name": "decimals",
      "outputs": [
        {
          "internalType": "uint8",
          "name": "",
          "type": "uint8"
        }
      ],
      "stateMutability": "view",
      "type": "function"
    },
    {
      "inputs": [
        {
          "internalType": "uint256",
          "name": "assets",
          "type": "uint256"
        },
        {
          "internalType": "address",
          "name": "recipient",
          "type": "address"
        }
      ],
      "name": "deposit",
      "outputs": [
        {
          "internalType": "uint256",
          "name": "shares",
          "type": "uint256"
        }
      ],
      "stateMutability": "nonpayable",
      "type": "function"
    },
    {
      "inputs": [],
      "name": "exchangeRate",
      "outputs": [
        {
          "internalType": "uint256",
          "name": "",
          "type": "uint256"
        }
      ],
      "stateMutability": "nonpayable",
      "type": "function"
    },
    {
      "inputs": [],
      "name": "exchangeRateStored",
      "outputs": [
        {
          "internalType": "uint256",
          "name": "",
          "type": "uint256"
        }
      ],
      "stateMutability": "view",
      "type": "function"
    },
    {
      "inputs": [
        {
          "internalType": "address",
          "name": "borrower",
          "type": "address"
        }
      ],
      "name": "getBorrowBalance",
      "outputs": [
        {
          "internalType": "uint256",
          "name": "",
          "type": "uint256"
        }
      ],
      "stateMutability": "view",
      "type": "function"
    },
    {
      "inputs": [],
      "name": "hangar18",
      "outputs": [
        {
          "internalType": "address",
          "name": "",
          "type": "address"
        }
      ],
      "stateMutability": "view",
      "type": "function"
    },
    {
      "inputs": [],
      "name": "jumpMultiplierPerSecond",
      "outputs": [
        {
          "internalType": "uint256",
          "name": "",
          "type": "uint256"
        }
      ],
      "stateMutability": "view",
      "type": "function"
    },
    {
      "inputs": [],
      "name": "kinkMultiplier",
      "outputs": [
        {
          "internalType": "uint256",
          "name": "",
          "type": "uint256"
        }
      ],
      "stateMutability": "view",
      "type": "function"
    },
    {
      "inputs": [],
      "name": "kinkUtilizationRate",
      "outputs": [
        {
          "internalType": "uint256",
          "name": "",
          "type": "uint256"
        }
      ],
      "stateMutability": "view",
      "type": "function"
    },
    {
      "inputs": [],
      "name": "lastAccrualTimestamp",
      "outputs": [
        {
          "internalType": "uint32",
          "name": "",
          "type": "uint32"
        }
      ],
      "stateMutability": "view",
      "type": "function"
    },
    {
      "inputs": [],
      "name": "multiplierPerSecond",
      "outputs": [
        {
          "internalType": "uint256",
          "name": "",
          "type": "uint256"
        }
      ],
      "stateMutability": "view",
      "type": "function"
    },
    {
      "inputs": [],
      "name": "name",
      "outputs": [
        {
          "internalType": "string",
          "name": "",
          "type": "string"
        }
      ],
      "stateMutability": "view",
      "type": "function"
    },
    {
      "inputs": [],
      "name": "orbiterName",
      "outputs": [
        {
          "internalType": "string",
          "name": "",
          "type": "string"
        }
      ],
      "stateMutability": "view",
      "type": "function"
    },
    {
      "inputs": [
        {
          "internalType": "uint256",
          "name": "shares",
          "type": "uint256"
        },
        {
          "internalType": "address",
          "name": "recipient",
          "type": "address"
        },
        {
          "internalType": "address",
          "name": "owner",
          "type": "address"
        }
      ],
      "name": "redeem",
      "outputs": [
        {
          "internalType": "uint256",
          "name": "assets",
          "type": "uint256"
        }
      ],
      "stateMutability": "nonpayable",
      "type": "function"
    },
    {
      "inputs": [],
      "name": "reserveFactor",
      "outputs": [
        {
          "internalType": "uint256",
          "name": "",
          "type": "uint256"
        }
      ],
      "stateMutability": "view",
      "type": "function"
    },
    {
      "inputs": [
        {
          "internalType": "address",
          "name": "newBorrowRewarder",
          "type": "address"
        }
      ],
      "name": "setCygnusBorrowRewarder",
      "outputs": [],
      "stateMutability": "nonpayable",
      "type": "function"
    },
    {
      "inputs": [
        {
          "internalType": "uint256",
          "name": "baseRatePerYear",
          "type": "uint256"
        },
        {
          "internalType": "uint256",
          "name": "multiplierPerYear",
          "type": "uint256"
        },
        {
          "internalType": "uint256",
          "name": "kinkMultiplier_",
          "type": "uint256"
        },
        {
          "internalType": "uint256",
          "name": "kinkUtilizationRate_",
          "type": "uint256"
        }
      ],
      "name": "setInterestRateModel",
      "outputs": [],
      "stateMutability": "nonpayable",
      "type": "function"
    },
    {
      "inputs": [
        {
          "internalType": "uint256",
          "name": "newReserveFactor",
          "type": "uint256"
        }
      ],
      "name": "setReserveFactor",
      "outputs": [],
      "stateMutability": "nonpayable",
      "type": "function"
    },
    {
      "inputs": [],
      "name": "shuttleId",
      "outputs": [
        {
          "internalType": "uint256",
          "name": "",
          "type": "uint256"
        }
      ],
      "stateMutability": "view",
      "type": "function"
    },
    {
      "inputs": [],
      "name": "supplyRate",
      "outputs": [
        {
          "internalType": "uint256",
          "name": "",
          "type": "uint256"
        }
      ],
      "stateMutability": "view",
      "type": "function"
    },
    {
      "inputs": [
        {
          "internalType": "address",
          "name": "token",
          "type": "address"
        }
      ],
      "name": "sweepToken",
      "outputs": [],
      "stateMutability": "nonpayable",
      "type": "function"
    },
    {
      "inputs": [],
      "name": "symbol",
      "outputs": [
        {
          "internalType": "string",
          "name": "",
          "type": "string"
        }
      ],
      "stateMutability": "view",
      "type": "function"
    },
    {
      "inputs": [],
      "name": "totalBalance",
      "outputs": [
        {
          "internalType": "uint256",
          "name": "",
          "type": "uint256"
        }
      ],
      "stateMutability": "view",
      "type": "function"
    },
    {
      "inputs": [],
      "name": "totalBorrows",
      "outputs": [
        {
          "internalType": "uint128",
          "name": "",
          "type": "uint128"
        }
      ],
      "stateMutability": "view",
      "type": "function"
    },
    {
      "inputs": [],
      "name": "totalReserves",
      "outputs": [
        {
          "internalType": "uint128",
          "name": "",
          "type": "uint128"
        }
      ],
      "stateMutability": "view",
      "type": "function"
    },
    {
      "inputs": [],
      "name": "totalSupply",
      "outputs": [
        {
          "internalType": "uint256",
          "name": "",
          "type": "uint256"
        }
      ],
      "stateMutability": "view",
      "type": "function"
    },
    {
      "inputs": [
        {
          "internalType": "address",
          "name": "borrower",
          "type": "address"
        }
      ],
      "name": "trackBorrow",
      "outputs": [],
      "stateMutability": "nonpayable",
      "type": "function"
    },
    {
      "inputs": [
        {
          "internalType": "address",
          "name": "recipient",
          "type": "address"
        },
        {
          "internalType": "uint256",
          "name": "amount",
          "type": "uint256"
        }
      ],
      "name": "transfer",
      "outputs": [
        {
          "internalType": "bool",
          "name": "",
          "type": "bool"
        }
      ],
      "stateMutability": "nonpayable",
      "type": "function"
    },
    {
      "inputs": [
        {
          "internalType": "address",
          "name": "sender",
          "type": "address"
        },
        {
          "internalType": "address",
          "name": "recipient",
          "type": "address"
        },
        {
          "internalType": "uint256",
          "name": "amount",
          "type": "uint256"
        }
      ],
      "name": "transferFrom",
      "outputs": [
        {
          "internalType": "bool",
          "name": "",
          "type": "bool"
        }
      ],
      "stateMutability": "nonpayable",
      "type": "function"
    },
    {
      "inputs": [],
      "name": "underlying",
      "outputs": [
        {
          "internalType": "address",
          "name": "",
          "type": "address"
        }
      ],
      "stateMutability": "view",
      "type": "function"
    },
    {
      "inputs": [],
      "name": "utilizationRate",
      "outputs": [
        {
          "internalType": "uint256",
          "name": "",
          "type": "uint256"
        }
      ],
      "stateMutability": "view",
      "type": "function"
    }
  ],
  "bytecode": "0x61012060405266b1a2bc2ec50000600a55670bcbce7f1b150000600e556002600f553480156200002e57600080fd5b50604080518082018252600e81526d4379676e75733a20426f72726f7760901b6020808301918252835180850190945260068085526510de59d554d160d21b918501919091526000805460ff19166001908117909155835193949391928592859285926200009c926200056a565b508151620000b29060029060208501906200056a565b5060f81b7fff000000000000000000000000000000000000000000000000000000000000001660805250600090508080620000ea3390565b6001600160a01b031663c3bc64ea6040518163ffffffff1660e01b8152600401608060405180830381600087803b1580156200012557600080fd5b505af192505050801562000158575060408051601f3d908101601f1916820190925262000155918101906200062d565b60015b620001e757336001600160a01b0316639a9862366040518163ffffffff1660e01b815260040160c060405180830381600087803b1580156200019957600080fd5b505af1158015620001ae573d6000803e3d6000fd5b505050506040513d601f19601f82011682018060405250810190620001d491906200067e565b50939650919450909250620001f2915050565b929550909350909150505b6001600160601b0319606093841b811660a0529190921b1660e05260c0525060009150819050620002203390565b6001600160a01b0316639a9862366040518163ffffffff1660e01b815260040160c060405180830381600087803b1580156200025b57600080fd5b505af115801562000270573d6000803e3d6000fd5b505050506040513d601f19601f820116820180604052508101906200029691906200067e565b60609390931b6001600160601b03191661010052600f54600e54919750929550620002c994508693508592915062000307565b5050670de0b6b3a76400006009819055600060035560148054600160701b600160e01b0316600160e01b4263ffffffff16021790911790556200076d565b6200031d600067016345785d8a00008662000419565b6200033a6706f05b59d3b20000670d2f13f7789f00008362000419565b620003496001600a8462000419565b620003596301e1338085620006e3565b600b556200038562000370826301e1338062000704565b846200046160201b6200115c1790919060201c565b600c55600f829055600e819055620003c881620003b485856301e133806200048a602090811b6200116d17901c565b6200046160201b6200115c1790919060201c565b600d556040805185815260208101859052908101839052606081018290527ff58b8cc439edada25fd9495b7364aeb1d737dbef59be1cf62e0cc4001c44a3cd9060800160405180910390a150505050565b828110806200042757508181115b156200045c57604051639e7fe3bd60e01b81526004810184905260248101839052604481018290526064015b60405180910390fd5b505050565b60006200048383670de0b6b3a7640000846200048a60201b6200116d1760201c565b9392505050565b600080806000198587098587029250828110838203039150508060001415620004d657838281620004cb57634e487b7160e01b600052601260045260246000fd5b049250505062000483565b8381106200050257604051631dcf306360e21b8152600481018290526024810185905260440162000453565b600084868809600260036001881981018916988990049182028318808302840302808302840302808302840302808302840302808302840302918202909203026000889003889004909101858311909403939093029303949094049190911702949350505050565b828054620005789062000730565b90600052602060002090601f0160209004810192826200059c5760008555620005e7565b82601f10620005b757805160ff1916838001178555620005e7565b82800160010185558215620005e7579182015b82811115620005e7578251825591602001919060010190620005ca565b50620005f5929150620005f9565b5090565b5b80821115620005f55760008155600101620005fa565b80516001600160a01b03811681146200062857600080fd5b919050565b6000806000806080858703121562000643578384fd5b6200064e8562000610565b93506200065e6020860162000610565b92506200066e6040860162000610565b6060959095015193969295505050565b60008060008060008060c0878903121562000697578182fd5b620006a28762000610565b9550620006b26020880162000610565b9450620006c26040880162000610565b9350606087015192506080870151915060a087015190509295509295509295565b600082620006ff57634e487b7160e01b81526012600452602481fd5b500490565b60008160001904831182151516156200072b57634e487b7160e01b81526011600452602481fd5b500290565b600181811c908216806200074557607f821691505b602082108114156200076757634e487b7160e01b600052602260045260246000fd5b50919050565b60805160f81c60a05160601c60c05160e05160601c6101005160601c611e55620007e860003960006105d6015260008181610445015281816107450152818161079c01528181610bc8015281816110a601526114200152600061040301526000818161064701526112fc0152600061036b0152611e556000f3fe608060405234801561001057600080fd5b506004361061027e5760003560e01c806372cf84a711610156578063ad2961a3116100d3578063c914b43711610097578063da7a2f7411610071578063da7a2f7414610601578063dd62ed3e14610609578063e8a24e1d1461064257600080fd5b8063c914b437146105b7578063d8dfeb45146105d1578063d90e0264146105f857600080fd5b8063ad2961a314610554578063ad7a672f1461055c578063b7f1118a14610565578063ba08765214610578578063c0789dcb1461058b57600080fd5b80639b5109981161011a5780639b510998146104f2578063a6afed95146104fb578063a9059cbb14610503578063aa5af0fd14610516578063ad168c9d1461054157600080fd5b806372cf84a7146104a85780637d6af079146104b15780638f840ddd146104c4578063926d845b146104d757806395d89b41146104ea57600080fd5b8063313ce567116101ff57806347bd3718116101c35780636e553f651161019d5780636e553f651461042d5780636f307dc31461044057806370a082311461047f57600080fd5b806347bd3718146103cc5780635f77f891146103fe5780636c321c8a1461042557600080fd5b8063313ce567146103665780633ba0b9a91461039f57806342bf78af146103a75780634322b714146103ba57806346f608ff146103c357600080fd5b80631aebf12f116102465780631aebf12f1461030f5780631be19560146103185780631c4469831461032d5780631e44b7fc1461034057806323b872dd1461035357600080fd5b806306fdde0314610283578063095ea7b3146102a15780630bdfb1d8146102c457806318160ddd146102fd578063182df0f514610306575b600080fd5b61028b610669565b6040516102989190611cd3565b60405180910390f35b6102b46102af366004611be2565b6106f7565b6040519015158152602001610298565b6102ef6102d2366004611b6a565b601060209081526000928352604080842090915290825290205481565b604051908152602001610298565b6102ef60035481565b6102ef60095481565b6102ef600e5481565b61032b610326366004611b32565b61070e565b005b61032b61033b366004611c0d565b610877565b61032b61034e366004611ca2565b610913565b6102b4610361366004611ba2565b610967565b61038d7f000000000000000000000000000000000000000000000000000000000000000081565b60405160ff9091168152602001610298565b6102ef6109dd565b61032b6103b5366004611b32565b610a0b565b6102ef600a5481565b6102ef600c5481565b6013546103e690600160801b90046001600160801b031681565b6040516001600160801b039091168152602001610298565b6102ef7f000000000000000000000000000000000000000000000000000000000000000081565b6102ef610aed565b6102ef61043b366004611c3d565b610b60565b6104677f000000000000000000000000000000000000000000000000000000000000000081565b6040516001600160a01b039091168152602001610298565b6102ef61048d366004611b32565b6001600160a01b031660009081526004602052604090205490565b6102ef600d5481565b6102ef6104bf366004611b32565b610c63565b6013546103e6906001600160801b031681565b6102b46104e5366004611be2565b610cd4565b61028b610ce1565b6102ef600f5481565b61032b610cee565b6102b4610511366004611be2565b610ed1565b601454610529906001600160701b031681565b6040516001600160701b039091168152602001610298565b600854610467906001600160a01b031681565b6102ef610ede565b6102ef60065481565b61032b610573366004611b32565b610f6c565b6102ef610586366004611c61565b610f8d565b6014546105a290600160e01b900463ffffffff1681565b60405163ffffffff9091168152602001610298565b60145461052990600160701b90046001600160701b031681565b6104677f000000000000000000000000000000000000000000000000000000000000000081565b6102ef600b5481565b61028b61114f565b6102ef610617366004611b6a565b6001600160a01b03918216600090815260056020908152604080832093909416825291909152205490565b6104677f000000000000000000000000000000000000000000000000000000000000000081565b6001805461067690611db9565b80601f01602080910402602001604051908101604052809291908181526020018280546106a290611db9565b80156106ef5780601f106106c4576101008083540402835291602001916106ef565b820191906000526020600020905b8154815290600101906020018083116106d257829003601f168201915b505050505081565b6000610704338484611249565b5060015b92915050565b60005460ff16610731576040516306fda65d60e31b815260040160405180910390fd5b6000805460ff191690556107436112f8565b7f00000000000000000000000000000000000000000000000000000000000000006001600160a01b0316816001600160a01b031614156107ce576040516303b91a9160e31b81526001600160a01b0380831660048301527f00000000000000000000000000000000000000000000000000000000000000001660248201526044015b60405180910390fd5b6040516370a0823160e01b81523060048201526000906001600160a01b038316906370a082319060240160206040518083038186803b15801561081057600080fd5b505afa158015610824573d6000803e3d6000fd5b505050506040513d601f19601f820116820180604052508101906108489190611c25565b905061085e6001600160a01b03831633836113c7565b5061086761140b565b506000805460ff19166001179055565b60005460ff1661089a576040516306fda65d60e31b815260040160405180910390fd5b6000805460ff191690556108ac6112f8565b6108c060006702c68af0bb140000836114dc565b600a80549082905560408051828152602081018490527faaa68312e2ea9d50e16af5068410ab56e1a1fd06037b1a35664812c30f82146091015b60405180910390a150506000805460ff19166001179055565b60005460ff16610936576040516306fda65d60e31b815260040160405180910390fd5b6000805460ff191690556109486112f8565b6109548484848461151d565b50506000805460ff191660011790555050565b60006109748484846115f2565b6001600160a01b0384166000908152600560209081526040808320338452909152902054828110156109c3576040516310c6013560e31b815260048101829052602481018490526044016107c5565b6109d08533858403611249565b60019150505b9392505050565b60035460009080156109fb576006546109f6908261115c565b610a05565b670de0b6b3a76400005b91505090565b60005460ff16610a2e576040516306fda65d60e31b815260040160405180910390fd5b6000805460ff19169055610a406112f8565b6008546001600160a01b0382811691161415610a8657600854604051635ab3b76b60e01b81526001600160a01b03918216600482015290821660248201526044016107c5565b600880546001600160a01b0383811673ffffffffffffffffffffffffffffffffffffffff1983168117909355604080519190921680825260208201939093527f2a0d5dc7fbc8045f59cb33c736f04f9a9b565e9f425912f9cd2bafdebd50cead91016108fa565b601354600090600160801b90046001600160801b031615610b5a57601354600654610b55916001600160801b0380821692610b3292600160801b900490911690611d26565b610b3c9190611d7d565b601354600160801b90046001600160801b03169061115c565b905090565b50600090565b6000805460ff16610b84576040516306fda65d60e31b815260040160405180910390fd5b6000805460ff19169055610ba0610b996109dd565b849061115c565b905060008111610bc35760405163f1ca48b160e01b815260040160405180910390fd5b610bf87f00000000000000000000000000000000000000000000000000000000000000006001600160a01b0316333086611715565b610c028282611763565b60408051848152602081018390526001600160a01b0384169133917fdcbc1c05240f31ff3ad067ef1ee35ce4997762752e3a095284754544f4c709d7910160405180910390a3610c5061140b565b6000805460ff1916600117905592915050565b6001600160a01b03811660009081526011602090815260408083208151808301909252546001600160701b038082168352600160701b9091041691810182905290610cb15750600092915050565b805160145460208301516109d6926001600160701b03908116928116911661116d565b6000610704338484611816565b6002805461067690611db9565b6014544290600160e01b900463ffffffff908116908216811415610d10575050565b601480547bffffffffffffffffffffffffffffffffffffffffffffffffffffffff16600160e01b63ffffffff8516021790556000610d4e8284611d94565b6013546006546014549293506001600160801b03600160801b83048116939216916001600160701b031683610d865750505050505050565b6000610d9383868661187e565b90506000610da763ffffffff881683611d5e565b90506000610db58288611933565b9050610dc18188611d26565b600a54909750610dd19082611933565b610ddb9087611d26565b9550610de78285611933565b610df19085611d26565b6001600160801b03878116908916600160801b026fffffffffffffffffffffffffffffffff191617601355601480546001600160701b038381166dffffffffffffffffffffffffffff19918816600160701b02919091167fffffffff0000000000000000000000000000000000000000000000000000000090921691909117179055604080518781526020810184905290810182905260608101899052608081018590529094507f717fee053884ab1935ba6d0140f6ed225371439611d9674ff445419d6a0fa1b79060a00160405180910390a150505050505050505050565b60006107043384846115f2565b600080610f13600a54670de0b6b3a7640000610efa9190611d7d565b601454600160701b90046001600160701b031690611933565b601454909150600160701b90046001600160701b031615610f64576013546006546109f6918391610f5e916001600160801b0380821692610b3292600160801b900490911690611d26565b90611933565b600091505090565b610f8a81610f7983610c63565b6014546001600160701b031661193f565b50565b6000805460ff16610fb1576040516306fda65d60e31b815260040160405180910390fd5b6000805460ff19169055336001600160a01b03831614611029576001600160a01b03821660009081526005602090815260408083203384529091529020546000198114611027576110028582611d7d565b6001600160a01b03841660009081526005602090815260408083203384529091529020555b505b61103b6110346109dd565b8590611933565b90506000811161105e5760405163e3e8d29760e01b815260040160405180910390fd5b60065481111561108f576006546040516339eff09f60e11b81526107c5918391600401918252602082015260400190565b61109982856119c5565b6110cd6001600160a01b037f00000000000000000000000000000000000000000000000000000000000000001684836113c7565b816001600160a01b0316836001600160a01b03166110e83390565b6001600160a01b03167ffbde797d201c681b91056529119e0b02407c7bb96a4a2c75c01fc9667232c8db848860405161112b929190918252602082015260400190565b60405180910390a461113b61140b565b6000805460ff191660011790559392505050565b6007805461067690611db9565b60006109d683670de0b6b3a7640000845b6000808060001985870985870292508281108382030391505080600014156111b6578382816111ac57634e487b7160e01b600052601260045260246000fd5b04925050506109d6565b8381106111e057604051631dcf306360e21b815260048101829052602481018590526044016107c5565b60008486880960026001871981018816978890046003810283188082028403028082028403028082028403028082028403028082028403029081029092039091026000889003889004909101858311909403939093029303949094049190911702949350505050565b6001600160a01b038316611270576040516317ba2d8b60e11b815260040160405180910390fd5b6001600160a01b03821661129757604051632cc8a69760e11b815260040160405180910390fd5b6001600160a01b0383811660008181526005602090815260408083209487168084529482529182902085905590518481527f8c5be1e5ebec7d5bd14f71427d1e84f3dd0314c0f7b2291e5b200ac8c7c3b925910160405180910390a3505050565b60007f00000000000000000000000000000000000000000000000000000000000000006001600160a01b031663f851a4406040518163ffffffff1660e01b815260040160206040518083038186803b15801561135357600080fd5b505afa158015611367573d6000803e3d6000fd5b505050506040513d601f19601f8201168201806040525081019061138b9190611b4e565b9050336001600160a01b03821614610f8a57604051633e7c764160e21b81523360048201526001600160a01b03821660248201526044016107c5565b60405163a9059cbb6000528260205281604052602060006044601c6000885af13d156001600051141716611403576390b8ec186000526004601cfd5b604052505050565b6040516370a0823160e01b81523060048201527f00000000000000000000000000000000000000000000000000000000000000006001600160a01b0316906370a082319060240160206040518083038186803b15801561146a57600080fd5b505afa15801561147e573d6000803e3d6000fd5b505050506040513d601f19601f820116820180604052508101906114a29190611c25565b60068190556040519081527f8a0df8ef054fae2c3d2d19a7b322e864870cc9fd3cb07fb9526309c596244bf49060200160405180910390a1565b828110806114e957508181115b1561151857604051639e7fe3bd60e01b81526004810184905260248101839052604481018290526064016107c5565b505050565b611531600067016345785d8a0000866114dc565b61154c6706f05b59d3b20000670d2f13f7789f0000836114dc565b6115596001600a846114dc565b6115676301e1338085611d3e565b600b5561157b610b99826301e13380611d5e565b600c55600f829055600e8190556115a18161159b85856301e1338061116d565b9061115c565b600d556040805185815260208101859052908101839052606081018290527ff58b8cc439edada25fd9495b7364aeb1d737dbef59be1cf62e0cc4001c44a3cd9060800160405180910390a150505050565b6001600160a01b0383166116195760405163618a6e7d60e11b815260040160405180910390fd5b6001600160a01b0382166116405760405163446ebce960e01b815260040160405180910390fd5b6001600160a01b038316600090815260046020526040902054818110156116845760405163355a868d60e01b815260048101829052602481018390526044016107c5565b6001600160a01b038085166000908152600460205260408082208585039055918516815290812080548492906116bb908490611d26565b92505081905550826001600160a01b0316846001600160a01b03167fddf252ad1be2c89b69c2b068fc378daa952ba7f163c4a11628f55a4df523b3ef8460405161170791815260200190565b60405180910390a350505050565b6040516323b872dd600052836020528260405281606052602060006064601c6000895af13d15600160005114171661175557637939f4246000526004601cfd5b600060605260405250505050565b6001600160a01b03821661178a5760405163237813dd60e01b815260040160405180910390fd5b6001600160a01b038216600090815260046020526040812080548392906117b2908490611d26565b9250508190555080600360008282546117cb9190611d26565b90915550506040518181526001600160a01b038316906000907fddf252ad1be2c89b69c2b068fc378daa952ba7f163c4a11628f55a4df523b3ef906020015b60405180910390a35050565b6001600160a01b038381166000818152601060209081526040808320948716808452948252918290208590558151938452830184905290917fc3c1215b41d54142382d54a05fb991007165ae91bcb1879bac8b290d9111aaf4910160405180910390a2505050565b6000806118a08361188f8688611d26565b6118999190611d7d565b859061115c565b9050600e5481116118ce57600b54600c546118bc908390611933565b6118c69190611d26565b9150506109d6565b6000600b546118ea600c54600e5461193390919063ffffffff16565b6118f49190611d26565b90506000600e54836119069190611d7d565b90508161191e600d548361193390919063ffffffff16565b6119289190611d26565b979650505050505050565b60006109d68383611a70565b6008546001600160a01b0316806119565750505050565b6040516305285d7f60e01b81526001600160a01b03858116600483015260248201859052604482018490528216906305285d7f90606401600060405180830381600087803b1580156119a757600080fd5b505af11580156119bb573d6000803e3d6000fd5b5050505050505050565b6001600160a01b0382166119ec57604051630b5da42b60e01b815260040160405180910390fd5b6001600160a01b03821660009081526004602052604081208054839290611a14908490611d7d565b925050819055508060036000828254611a2d9190611d7d565b90915550506040518181526000906001600160a01b038416907fddf252ad1be2c89b69c2b068fc378daa952ba7f163c4a11628f55a4df523b3ef9060200161180a565b60008080600019848609848602925082811083820303915050670de0b6b3a76400008110611ab45760405163698d9a0160e11b8152600481018290526024016107c5565b600080670de0b6b3a76400008688099150506706f05b59d3b1ffff811182611aee5780670de0b6b3a7640000850401945050505050610708565b620400008285030493909111909103600160ee1b02919091177faccb18165bd6fe31ae1cf318dc5b51eee0e1ba569b88cd74c1773b91fac106690201905092915050565b600060208284031215611b43578081fd5b81356109d681611e0a565b600060208284031215611b5f578081fd5b81516109d681611e0a565b60008060408385031215611b7c578081fd5b8235611b8781611e0a565b91506020830135611b9781611e0a565b809150509250929050565b600080600060608486031215611bb6578081fd5b8335611bc181611e0a565b92506020840135611bd181611e0a565b929592945050506040919091013590565b60008060408385031215611bf4578182fd5b8235611bff81611e0a565b946020939093013593505050565b600060208284031215611c1e578081fd5b5035919050565b600060208284031215611c36578081fd5b5051919050565b60008060408385031215611c4f578182fd5b823591506020830135611b9781611e0a565b600080600060608486031215611c75578283fd5b833592506020840135611c8781611e0a565b91506040840135611c9781611e0a565b809150509250925092565b60008060008060808587031215611cb7578081fd5b5050823594602084013594506040840135936060013592509050565b6000602080835283518082850152825b81811015611cff57858101830151858201604001528201611ce3565b81811115611d105783604083870101525b50601f01601f1916929092016040019392505050565b60008219821115611d3957611d39611df4565b500190565b600082611d5957634e487b7160e01b81526012600452602481fd5b500490565b6000816000190483118215151615611d7857611d78611df4565b500290565b600082821015611d8f57611d8f611df4565b500390565b600063ffffffff83811690831681811015611db157611db1611df4565b039392505050565b600181811c90821680611dcd57607f821691505b60208210811415611dee57634e487b7160e01b600052602260045260246000fd5b50919050565b634e487b7160e01b600052601160045260246000fd5b6001600160a01b0381168114610f8a57600080fdfea26469706673582212208d3746379d590956add6db9e21f9e8bbac5d80c81a94928a0a0a92f9bcd2aaa864736f6c63430008040033",
  "linkReferences": {},
  "deployedLinkReferences": {}
}