{
  "_format": "hh-sol-artifact-1",
  "contractName": "CygnusBorrowTracker",
  "sourceName": "contracts/cygnus-core/CygnusBorrowTracker.sol",
  "abi": [
    {
      "inputs": [],
      "stateMutability": "nonpayable",
      "type": "constructor"
    },
    {
      "inputs": [
        {
          "internalType": "uint256",
          "name": "borrowAllowance",
          "type": "uint256"
        },
        {
          "internalType": "uint256",
          "name": "borrowAmount",
          "type": "uint256"
        }
      ],
      "name": "CygnusBorrowApprove__BorrowNotAllowed",
      "type": "error"
    },
    {
      "inputs": [
        {
          "internalType": "uint8",
          "name": "v",
          "type": "uint8"
        },
        {
          "internalType": "bytes32",
          "name": "r",
          "type": "bytes32"
        },
        {
          "internalType": "bytes32",
          "name": "s",
          "type": "bytes32"
        }
      ],
      "name": "CygnusBorrowApprove__InvalidSignature",
      "type": "error"
    },
    {
      "inputs": [
        {
          "internalType": "address",
          "name": "owner",
          "type": "address"
        },
        {
          "internalType": "address",
          "name": "spender",
          "type": "address"
        }
      ],
      "name": "CygnusBorrowApprove__OwnerIsSpender",
      "type": "error"
    },
    {
      "inputs": [
        {
          "internalType": "address",
          "name": "owner",
          "type": "address"
        },
        {
          "internalType": "address",
          "name": "spender",
          "type": "address"
        }
      ],
      "name": "CygnusBorrowApprove__OwnerZeroAddress",
      "type": "error"
    },
    {
      "inputs": [
        {
          "internalType": "uint256",
          "name": "transactDeadline",
          "type": "uint256"
        },
        {
          "internalType": "uint256",
          "name": "currentTimestamp",
          "type": "uint256"
        }
      ],
      "name": "CygnusBorrowApprove__PermitExpired",
      "type": "error"
    },
    {
      "inputs": [
        {
          "internalType": "address",
          "name": "recoveredOwner",
          "type": "address"
        }
      ],
      "name": "CygnusBorrowApprove__RecoveredOwnerZeroAddress",
      "type": "error"
    },
    {
      "inputs": [
        {
          "internalType": "address",
          "name": "owner",
          "type": "address"
        },
        {
          "internalType": "address",
          "name": "spender",
          "type": "address"
        }
      ],
      "name": "CygnusBorrowApprove__SpenderZeroAddress",
      "type": "error"
    },
    {
      "inputs": [
        {
          "internalType": "address",
          "name": "currentTracker",
          "type": "address"
        },
        {
          "internalType": "address",
          "name": "newTracker",
          "type": "address"
        }
      ],
      "name": "CygnusBorrowControl__BorrowTrackerAlreadySet",
      "type": "error"
    },
    {
      "inputs": [
        {
          "internalType": "uint256",
          "name": "minRange",
          "type": "uint256"
        },
        {
          "internalType": "uint256",
          "name": "maxRange",
          "type": "uint256"
        },
        {
          "internalType": "uint256",
          "name": "value",
          "type": "uint256"
        }
      ],
      "name": "CygnusBorrowControl__ParameterNotInRange",
      "type": "error"
    },
    {
      "inputs": [
        {
          "internalType": "uint256",
          "name": "",
          "type": "uint256"
        }
      ],
      "name": "CygnusTerminal__CantMintZero",
      "type": "error"
    },
    {
      "inputs": [
        {
          "internalType": "uint256",
          "name": "",
          "type": "uint256"
        }
      ],
      "name": "CygnusTerminal__CantRedeemZero",
      "type": "error"
    },
    {
      "inputs": [
        {
          "internalType": "address",
          "name": "caller",
          "type": "address"
        },
        {
          "internalType": "address",
          "name": "factoryAdmin",
          "type": "address"
        }
      ],
      "name": "CygnusTerminal__MsgSenderNotAdmin",
      "type": "error"
    },
    {
      "inputs": [
        {
          "internalType": "address",
          "name": "",
          "type": "address"
        }
      ],
      "name": "CygnusTerminal__MsgSenderNotFactory",
      "type": "error"
    },
    {
      "inputs": [
        {
          "internalType": "uint256",
          "name": "invalidAmount",
          "type": "uint256"
        },
        {
          "internalType": "uint256",
          "name": "contractBalance",
          "type": "uint256"
        }
      ],
      "name": "CygnusTerminal__RedeemAmountInvalid",
      "type": "error"
    },
    {
      "inputs": [
        {
          "internalType": "uint8",
          "name": "v",
          "type": "uint8"
        },
        {
          "internalType": "bytes32",
          "name": "r",
          "type": "bytes32"
        },
        {
          "internalType": "bytes32",
          "name": "s",
          "type": "bytes32"
        }
      ],
      "name": "Erc20Permit__InvalidSignature",
      "type": "error"
    },
    {
      "inputs": [],
      "name": "Erc20Permit__OwnerZeroAddress",
      "type": "error"
    },
    {
      "inputs": [
        {
          "internalType": "uint256",
          "name": "deadline",
          "type": "uint256"
        }
      ],
      "name": "Erc20Permit__PermitExpired",
      "type": "error"
    },
    {
      "inputs": [],
      "name": "Erc20Permit__RecoveredOwnerZeroAddress",
      "type": "error"
    },
    {
      "inputs": [],
      "name": "Erc20Permit__SpenderZeroAddress",
      "type": "error"
    },
    {
      "inputs": [],
      "name": "Erc20__ApproveOwnerZeroAddress",
      "type": "error"
    },
    {
      "inputs": [],
      "name": "Erc20__ApproveSpenderZeroAddress",
      "type": "error"
    },
    {
      "inputs": [
        {
          "internalType": "uint256",
          "name": "accountBalance",
          "type": "uint256"
        },
        {
          "internalType": "uint256",
          "name": "burnAmount",
          "type": "uint256"
        }
      ],
      "name": "Erc20__BurnUnderflow",
      "type": "error"
    },
    {
      "inputs": [],
      "name": "Erc20__BurnZeroAddress",
      "type": "error"
    },
    {
      "inputs": [
        {
          "internalType": "uint256",
          "name": "allowance",
          "type": "uint256"
        },
        {
          "internalType": "uint256",
          "name": "amount",
          "type": "uint256"
        }
      ],
      "name": "Erc20__InsufficientAllowance",
      "type": "error"
    },
    {
      "inputs": [
        {
          "internalType": "uint256",
          "name": "senderBalance",
          "type": "uint256"
        },
        {
          "internalType": "uint256",
          "name": "amount",
          "type": "uint256"
        }
      ],
      "name": "Erc20__InsufficientBalance",
      "type": "error"
    },
    {
      "inputs": [],
      "name": "Erc20__MintZeroAddress",
      "type": "error"
    },
    {
      "inputs": [],
      "name": "Erc20__TransferRecipientZeroAddress",
      "type": "error"
    },
    {
      "inputs": [],
      "name": "Erc20__TransferSenderZeroAddress",
      "type": "error"
    },
    {
      "inputs": [
        {
          "internalType": "uint256",
          "name": "prod1",
          "type": "uint256"
        }
      ],
      "name": "PRBMath__MulDivFixedPointOverflow",
      "type": "error"
    },
    {
      "inputs": [
        {
          "internalType": "uint256",
          "name": "prod1",
          "type": "uint256"
        },
        {
          "internalType": "uint256",
          "name": "denominator",
          "type": "uint256"
        }
      ],
      "name": "PRBMath__MulDivOverflow",
      "type": "error"
    },
    {
      "inputs": [],
      "name": "ReentrantCall",
      "type": "error"
    },
    {
      "inputs": [
        {
          "internalType": "address",
          "name": "target",
          "type": "address"
        }
      ],
      "name": "SafeErc20__CallToNonContract",
      "type": "error"
    },
    {
      "inputs": [],
      "name": "SafeErc20__NoReturnData",
      "type": "error"
    },
    {
      "anonymous": false,
      "inputs": [
        {
          "indexed": false,
          "internalType": "uint256",
          "name": "cashStored",
          "type": "uint256"
        },
        {
          "indexed": false,
          "internalType": "uint256",
          "name": "interestAccumulated",
          "type": "uint256"
        },
        {
          "indexed": false,
          "internalType": "uint256",
          "name": "borrowIndexStored",
          "type": "uint256"
        },
        {
          "indexed": false,
          "internalType": "uint256",
          "name": "totalBorrowsStored",
          "type": "uint256"
        },
        {
          "indexed": false,
          "internalType": "uint256",
          "name": "borrowRateStored",
          "type": "uint256"
        }
      ],
      "name": "AccrueInterest",
      "type": "event"
    },
    {
      "anonymous": false,
      "inputs": [
        {
          "indexed": true,
          "internalType": "address",
          "name": "owner",
          "type": "address"
        },
        {
          "indexed": true,
          "internalType": "address",
          "name": "spender",
          "type": "address"
        },
        {
          "indexed": false,
          "internalType": "uint256",
          "name": "amount",
          "type": "uint256"
        }
      ],
      "name": "Approval",
      "type": "event"
    },
    {
      "anonymous": false,
      "inputs": [
        {
          "indexed": true,
          "internalType": "address",
          "name": "owner",
          "type": "address"
        },
        {
          "indexed": false,
          "internalType": "address",
          "name": "spender",
          "type": "address"
        },
        {
          "indexed": false,
          "internalType": "uint256",
          "name": "amount",
          "type": "uint256"
        }
      ],
      "name": "BorrowApproval",
      "type": "event"
    },
    {
      "anonymous": false,
      "inputs": [
        {
          "indexed": true,
          "internalType": "address",
          "name": "sender",
          "type": "address"
        },
        {
          "indexed": true,
          "internalType": "address",
          "name": "minter",
          "type": "address"
        },
        {
          "indexed": false,
          "internalType": "uint256",
          "name": "mintAmount",
          "type": "uint256"
        },
        {
          "indexed": false,
          "internalType": "uint256",
          "name": "poolTokens",
          "type": "uint256"
        }
      ],
      "name": "Mint",
      "type": "event"
    },
    {
      "anonymous": false,
      "inputs": [
        {
          "indexed": false,
          "internalType": "uint256",
          "name": "oldBaseRatePerYear",
          "type": "uint256"
        },
        {
          "indexed": false,
          "internalType": "uint256",
          "name": "newBaseRatePerYear",
          "type": "uint256"
        }
      ],
      "name": "NewBaseRate",
      "type": "event"
    },
    {
      "anonymous": false,
      "inputs": [
        {
          "indexed": false,
          "internalType": "address",
          "name": "oldBorrowTracker",
          "type": "address"
        },
        {
          "indexed": false,
          "internalType": "address",
          "name": "newBorrowTracker",
          "type": "address"
        }
      ],
      "name": "NewCygnusBorrowTracker",
      "type": "event"
    },
    {
      "anonymous": false,
      "inputs": [
        {
          "indexed": false,
          "internalType": "uint256",
          "name": "baseRatePerYear",
          "type": "uint256"
        },
        {
          "indexed": false,
          "internalType": "uint256",
          "name": "multiplierPerYear",
          "type": "uint256"
        },
        {
          "indexed": false,
          "internalType": "uint256",
          "name": "kinkMultiplier_",
          "type": "uint256"
        }
      ],
      "name": "NewInterestRateParameters",
      "type": "event"
    },
    {
      "anonymous": false,
      "inputs": [
        {
          "indexed": false,
          "internalType": "uint256",
          "name": "oldKinkMultiplier",
          "type": "uint256"
        },
        {
          "indexed": false,
          "internalType": "uint256",
          "name": "newKinkMultiplier",
          "type": "uint256"
        }
      ],
      "name": "NewKinkMultiplier",
      "type": "event"
    },
    {
      "anonymous": false,
      "inputs": [
        {
          "indexed": false,
          "internalType": "uint256",
          "name": "oldKinkUtilizationRate",
          "type": "uint256"
        },
        {
          "indexed": false,
          "internalType": "uint256",
          "name": "newKinkUtilizationRate",
          "type": "uint256"
        }
      ],
      "name": "NewKinkUtilizationRate",
      "type": "event"
    },
    {
      "anonymous": false,
      "inputs": [
        {
          "indexed": false,
          "internalType": "uint256",
          "name": "oldReserveFactor",
          "type": "uint256"
        },
        {
          "indexed": false,
          "internalType": "uint256",
          "name": "newReserveFactor",
          "type": "uint256"
        }
      ],
      "name": "NewReserveFactor",
      "type": "event"
    },
    {
      "anonymous": false,
      "inputs": [
        {
          "indexed": true,
          "internalType": "address",
          "name": "sender",
          "type": "address"
        },
        {
          "indexed": true,
          "internalType": "address",
          "name": "redeemer",
          "type": "address"
        },
        {
          "indexed": false,
          "internalType": "uint256",
          "name": "redeemAmount",
          "type": "uint256"
        },
        {
          "indexed": false,
          "internalType": "uint256",
          "name": "poolTokens",
          "type": "uint256"
        }
      ],
      "name": "Redeem",
      "type": "event"
    },
    {
      "anonymous": false,
      "inputs": [
        {
          "indexed": false,
          "internalType": "uint256",
          "name": "totalBalance",
          "type": "uint256"
        }
      ],
      "name": "Sync",
      "type": "event"
    },
    {
      "anonymous": false,
      "inputs": [
        {
          "indexed": true,
          "internalType": "address",
          "name": "from",
          "type": "address"
        },
        {
          "indexed": true,
          "internalType": "address",
          "name": "to",
          "type": "address"
        },
        {
          "indexed": false,
          "internalType": "uint256",
          "name": "amount",
          "type": "uint256"
        }
      ],
      "name": "Transfer",
      "type": "event"
    },
    {
      "inputs": [],
      "name": "BASE_RATE_MAX",
      "outputs": [
        {
          "internalType": "uint256",
          "name": "",
          "type": "uint256"
        }
      ],
      "stateMutability": "view",
      "type": "function"
    },
    {
      "inputs": [],
      "name": "BORROW_PERMIT_TYPEHASH",
      "outputs": [
        {
          "internalType": "bytes32",
          "name": "",
          "type": "bytes32"
        }
      ],
      "stateMutability": "view",
      "type": "function"
    },
    {
      "inputs": [],
      "name": "DOMAIN_SEPARATOR",
      "outputs": [
        {
          "internalType": "bytes32",
          "name": "",
          "type": "bytes32"
        }
      ],
      "stateMutability": "view",
      "type": "function"
    },
    {
      "inputs": [],
      "name": "KINK_MULTIPLIER_MAX",
      "outputs": [
        {
          "internalType": "uint256",
          "name": "",
          "type": "uint256"
        }
      ],
      "stateMutability": "view",
      "type": "function"
    },
    {
      "inputs": [],
      "name": "KINK_UTILIZATION_RATE_MAX",
      "outputs": [
        {
          "internalType": "uint256",
          "name": "",
          "type": "uint256"
        }
      ],
      "stateMutability": "view",
      "type": "function"
    },
    {
      "inputs": [],
      "name": "KINK_UTILIZATION_RATE_MIN",
      "outputs": [
        {
          "internalType": "uint256",
          "name": "",
          "type": "uint256"
        }
      ],
      "stateMutability": "view",
      "type": "function"
    },
    {
      "inputs": [],
      "name": "PERMIT_TYPEHASH",
      "outputs": [
        {
          "internalType": "bytes32",
          "name": "",
          "type": "bytes32"
        }
      ],
      "stateMutability": "view",
      "type": "function"
    },
    {
      "inputs": [],
      "name": "RESERVE_FACTOR_MAX",
      "outputs": [
        {
          "internalType": "uint256",
          "name": "",
          "type": "uint256"
        }
      ],
      "stateMutability": "view",
      "type": "function"
    },
    {
      "inputs": [],
      "name": "SECONDS_PER_YEAR",
      "outputs": [
        {
          "internalType": "uint32",
          "name": "",
          "type": "uint32"
        }
      ],
      "stateMutability": "view",
      "type": "function"
    },
    {
      "inputs": [],
      "name": "accrueInterest",
      "outputs": [],
      "stateMutability": "nonpayable",
      "type": "function"
    },
    {
      "inputs": [
        {
          "internalType": "address",
          "name": "owner",
          "type": "address"
        },
        {
          "internalType": "address",
          "name": "spender",
          "type": "address"
        }
      ],
      "name": "allowance",
      "outputs": [
        {
          "internalType": "uint256",
          "name": "",
          "type": "uint256"
        }
      ],
      "stateMutability": "view",
      "type": "function"
    },
    {
      "inputs": [
        {
          "internalType": "address",
          "name": "spender",
          "type": "address"
        },
        {
          "internalType": "uint256",
          "name": "amount",
          "type": "uint256"
        }
      ],
      "name": "approve",
      "outputs": [
        {
          "internalType": "bool",
          "name": "",
          "type": "bool"
        }
      ],
      "stateMutability": "nonpayable",
      "type": "function"
    },
    {
      "inputs": [
        {
          "internalType": "address",
          "name": "account",
          "type": "address"
        }
      ],
      "name": "balanceOf",
      "outputs": [
        {
          "internalType": "uint256",
          "name": "",
          "type": "uint256"
        }
      ],
      "stateMutability": "view",
      "type": "function"
    },
    {
      "inputs": [],
      "name": "baseRatePerSecond",
      "outputs": [
        {
          "internalType": "uint256",
          "name": "",
          "type": "uint256"
        }
      ],
      "stateMutability": "view",
      "type": "function"
    },
    {
      "inputs": [
        {
          "internalType": "address",
          "name": "",
          "type": "address"
        },
        {
          "internalType": "address",
          "name": "",
          "type": "address"
        }
      ],
      "name": "borrowAllowances",
      "outputs": [
        {
          "internalType": "uint256",
          "name": "",
          "type": "uint256"
        }
      ],
      "stateMutability": "view",
      "type": "function"
    },
    {
      "inputs": [
        {
          "internalType": "address",
          "name": "spender",
          "type": "address"
        },
        {
          "internalType": "uint256",
          "name": "value",
          "type": "uint256"
        }
      ],
      "name": "borrowApprove",
      "outputs": [
        {
          "internalType": "bool",
          "name": "",
          "type": "bool"
        }
      ],
      "stateMutability": "nonpayable",
      "type": "function"
    },
    {
      "inputs": [],
      "name": "borrowIndex",
      "outputs": [
        {
          "internalType": "uint112",
          "name": "",
          "type": "uint112"
        }
      ],
      "stateMutability": "view",
      "type": "function"
    },
    {
      "inputs": [
        {
          "internalType": "address",
          "name": "owner",
          "type": "address"
        },
        {
          "internalType": "address",
          "name": "spender",
          "type": "address"
        },
        {
          "internalType": "uint256",
          "name": "value",
          "type": "uint256"
        },
        {
          "internalType": "uint256",
          "name": "deadline",
          "type": "uint256"
        },
        {
          "internalType": "uint8",
          "name": "v",
          "type": "uint8"
        },
        {
          "internalType": "bytes32",
          "name": "r",
          "type": "bytes32"
        },
        {
          "internalType": "bytes32",
          "name": "s",
          "type": "bytes32"
        }
      ],
      "name": "borrowPermit",
      "outputs": [],
      "stateMutability": "nonpayable",
      "type": "function"
    },
    {
      "inputs": [],
      "name": "borrowRate",
      "outputs": [
        {
          "internalType": "uint112",
          "name": "",
          "type": "uint112"
        }
      ],
      "stateMutability": "view",
      "type": "function"
    },
    {
      "inputs": [],
      "name": "chainId",
      "outputs": [
        {
          "internalType": "uint256",
          "name": "",
          "type": "uint256"
        }
      ],
      "stateMutability": "view",
      "type": "function"
    },
    {
      "inputs": [],
      "name": "collateral",
      "outputs": [
        {
          "internalType": "address",
          "name": "",
          "type": "address"
        }
      ],
      "stateMutability": "view",
      "type": "function"
    },
    {
      "inputs": [],
      "name": "cygnusBorrowTracker",
      "outputs": [
        {
          "internalType": "address",
          "name": "",
          "type": "address"
        }
      ],
      "stateMutability": "view",
      "type": "function"
    },
    {
      "inputs": [],
      "name": "decimals",
      "outputs": [
        {
          "internalType": "uint8",
          "name": "",
          "type": "uint8"
        }
      ],
      "stateMutability": "view",
      "type": "function"
    },
    {
      "inputs": [
        {
          "internalType": "address",
          "name": "spender",
          "type": "address"
        },
        {
          "internalType": "uint256",
          "name": "subtractedAmount",
          "type": "uint256"
        }
      ],
      "name": "decreaseAllowance",
      "outputs": [
        {
          "internalType": "bool",
          "name": "",
          "type": "bool"
        }
      ],
      "stateMutability": "nonpayable",
      "type": "function"
    },
    {
      "inputs": [],
      "name": "exchangeRate",
      "outputs": [
        {
          "internalType": "uint256",
          "name": "",
          "type": "uint256"
        }
      ],
      "stateMutability": "view",
      "type": "function"
    },
    {
      "inputs": [],
      "name": "exchangeRateStored",
      "outputs": [
        {
          "internalType": "uint256",
          "name": "",
          "type": "uint256"
        }
      ],
      "stateMutability": "view",
      "type": "function"
    },
    {
      "inputs": [
        {
          "internalType": "address",
          "name": "borrower",
          "type": "address"
        }
      ],
      "name": "getBorrowBalance",
      "outputs": [
        {
          "internalType": "uint256",
          "name": "",
          "type": "uint256"
        }
      ],
      "stateMutability": "view",
      "type": "function"
    },
    {
      "inputs": [],
      "name": "hangar18",
      "outputs": [
        {
          "internalType": "address",
          "name": "",
          "type": "address"
        }
      ],
      "stateMutability": "view",
      "type": "function"
    },
    {
      "inputs": [
        {
          "internalType": "address",
          "name": "spender",
          "type": "address"
        },
        {
          "internalType": "uint256",
          "name": "addedAmount",
          "type": "uint256"
        }
      ],
      "name": "increaseAllowance",
      "outputs": [
        {
          "internalType": "bool",
          "name": "",
          "type": "bool"
        }
      ],
      "stateMutability": "nonpayable",
      "type": "function"
    },
    {
      "inputs": [],
      "name": "jumpMultiplierPerSecond",
      "outputs": [
        {
          "internalType": "uint256",
          "name": "",
          "type": "uint256"
        }
      ],
      "stateMutability": "view",
      "type": "function"
    },
    {
      "inputs": [],
      "name": "kinkMultiplier",
      "outputs": [
        {
          "internalType": "uint256",
          "name": "",
          "type": "uint256"
        }
      ],
      "stateMutability": "view",
      "type": "function"
    },
    {
      "inputs": [],
      "name": "kinkUtilizationRate",
      "outputs": [
        {
          "internalType": "uint256",
          "name": "",
          "type": "uint256"
        }
      ],
      "stateMutability": "view",
      "type": "function"
    },
    {
      "inputs": [],
      "name": "lastAccrualTimestamp",
      "outputs": [
        {
          "internalType": "uint32",
          "name": "",
          "type": "uint32"
        }
      ],
      "stateMutability": "view",
      "type": "function"
    },
    {
      "inputs": [
        {
          "internalType": "address",
          "name": "minter",
          "type": "address"
        }
      ],
      "name": "mint",
      "outputs": [
        {
          "internalType": "uint256",
          "name": "cygnusMintTokens",
          "type": "uint256"
        }
      ],
      "stateMutability": "nonpayable",
      "type": "function"
    },
    {
      "inputs": [],
      "name": "multiplierPerSecond",
      "outputs": [
        {
          "internalType": "uint256",
          "name": "",
          "type": "uint256"
        }
      ],
      "stateMutability": "view",
      "type": "function"
    },
    {
      "inputs": [],
      "name": "name",
      "outputs": [
        {
          "internalType": "string",
          "name": "",
          "type": "string"
        }
      ],
      "stateMutability": "view",
      "type": "function"
    },
    {
      "inputs": [
        {
          "internalType": "address",
          "name": "",
          "type": "address"
        }
      ],
      "name": "nonces",
      "outputs": [
        {
          "internalType": "uint256",
          "name": "",
          "type": "uint256"
        }
      ],
      "stateMutability": "view",
      "type": "function"
    },
    {
      "inputs": [
        {
          "internalType": "address",
          "name": "owner",
          "type": "address"
        },
        {
          "internalType": "address",
          "name": "spender",
          "type": "address"
        },
        {
          "internalType": "uint256",
          "name": "value",
          "type": "uint256"
        },
        {
          "internalType": "uint256",
          "name": "deadline",
          "type": "uint256"
        },
        {
          "internalType": "uint8",
          "name": "v",
          "type": "uint8"
        },
        {
          "internalType": "bytes32",
          "name": "r",
          "type": "bytes32"
        },
        {
          "internalType": "bytes32",
          "name": "s",
          "type": "bytes32"
        }
      ],
      "name": "permit",
      "outputs": [],
      "stateMutability": "nonpayable",
      "type": "function"
    },
    {
      "inputs": [
        {
          "internalType": "address",
          "name": "holder",
          "type": "address"
        }
      ],
      "name": "redeem",
      "outputs": [
        {
          "internalType": "uint256",
          "name": "redeemAmount",
          "type": "uint256"
        }
      ],
      "stateMutability": "nonpayable",
      "type": "function"
    },
    {
      "inputs": [],
      "name": "reserveFactor",
      "outputs": [
        {
          "internalType": "uint256",
          "name": "",
          "type": "uint256"
        }
      ],
      "stateMutability": "view",
      "type": "function"
    },
    {
      "inputs": [
        {
          "internalType": "address",
          "name": "newBorrowTracker",
          "type": "address"
        }
      ],
      "name": "setCygnusBorrowTracker",
      "outputs": [],
      "stateMutability": "nonpayable",
      "type": "function"
    },
    {
      "inputs": [
        {
          "internalType": "uint256",
          "name": "newKinkUtilizationRate",
          "type": "uint256"
        }
      ],
      "name": "setKinkUtilizationRate",
      "outputs": [],
      "stateMutability": "nonpayable",
      "type": "function"
    },
    {
      "inputs": [
        {
          "internalType": "uint256",
          "name": "newReserveFactor",
          "type": "uint256"
        }
      ],
      "name": "setReserveFactor",
      "outputs": [],
      "stateMutability": "nonpayable",
      "type": "function"
    },
    {
      "inputs": [
        {
          "internalType": "address",
          "name": "recipient",
          "type": "address"
        }
      ],
      "name": "skim",
      "outputs": [],
      "stateMutability": "nonpayable",
      "type": "function"
    },
    {
      "inputs": [],
      "name": "symbol",
      "outputs": [
        {
          "internalType": "string",
          "name": "",
          "type": "string"
        }
      ],
      "stateMutability": "view",
      "type": "function"
    },
    {
      "inputs": [],
      "name": "sync",
      "outputs": [],
      "stateMutability": "nonpayable",
      "type": "function"
    },
    {
      "inputs": [],
      "name": "totalBalance",
      "outputs": [
        {
          "internalType": "uint256",
          "name": "",
          "type": "uint256"
        }
      ],
      "stateMutability": "view",
      "type": "function"
    },
    {
      "inputs": [],
      "name": "totalBorrows",
      "outputs": [
        {
          "internalType": "uint128",
          "name": "",
          "type": "uint128"
        }
      ],
      "stateMutability": "view",
      "type": "function"
    },
    {
      "inputs": [],
      "name": "totalReserves",
      "outputs": [
        {
          "internalType": "uint128",
          "name": "",
          "type": "uint128"
        }
      ],
      "stateMutability": "view",
      "type": "function"
    },
    {
      "inputs": [],
      "name": "totalSupply",
      "outputs": [
        {
          "internalType": "uint256",
          "name": "",
          "type": "uint256"
        }
      ],
      "stateMutability": "view",
      "type": "function"
    },
    {
      "inputs": [
        {
          "internalType": "address",
          "name": "borrower",
          "type": "address"
        }
      ],
      "name": "trackBorrow",
      "outputs": [],
      "stateMutability": "nonpayable",
      "type": "function"
    },
    {
      "inputs": [
        {
          "internalType": "address",
          "name": "recipient",
          "type": "address"
        },
        {
          "internalType": "uint256",
          "name": "amount",
          "type": "uint256"
        }
      ],
      "name": "transfer",
      "outputs": [
        {
          "internalType": "bool",
          "name": "",
          "type": "bool"
        }
      ],
      "stateMutability": "nonpayable",
      "type": "function"
    },
    {
      "inputs": [
        {
          "internalType": "address",
          "name": "sender",
          "type": "address"
        },
        {
          "internalType": "address",
          "name": "recipient",
          "type": "address"
        },
        {
          "internalType": "uint256",
          "name": "amount",
          "type": "uint256"
        }
      ],
      "name": "transferFrom",
      "outputs": [
        {
          "internalType": "bool",
          "name": "",
          "type": "bool"
        }
      ],
      "stateMutability": "nonpayable",
      "type": "function"
    },
    {
      "inputs": [],
      "name": "underlying",
      "outputs": [
        {
          "internalType": "address",
          "name": "",
          "type": "address"
        }
      ],
      "stateMutability": "view",
      "type": "function"
    },
    {
      "inputs": [
        {
          "internalType": "uint256",
          "name": "newBaseRatePerYear",
          "type": "uint256"
        },
        {
          "internalType": "uint256",
          "name": "newMultiplierPerYear",
          "type": "uint256"
        },
        {
          "internalType": "uint256",
          "name": "newKinkMultiplier",
          "type": "uint256"
        }
      ],
      "name": "updateJumpRateModel",
      "outputs": [],
      "stateMutability": "nonpayable",
      "type": "function"
    },
    {
      "inputs": [],
      "name": "version",
      "outputs": [
        {
          "internalType": "string",
          "name": "",
          "type": "string"
        }
      ],
      "stateMutability": "view",
      "type": "function"
    }
  ],
  "bytecode": "0x60e06040524660075566b1a2bc2ec50000601055670b1a2bc2ec5000006011553480156200002c57600080fd5b50604080518082018252600e81526d4379676e75733a20426f72726f7760901b60208083019182528351808501909452600684526543796744414960d01b908401526000805460ff1916600190811790915582519293926012928592859285928592859285926200009e92916200058c565b508151620000b49060029060208501906200058c565b5060f81b7fff000000000000000000000000000000000000000000000000000000000000001660805250506040517f8b73c3c69bb8fe3d512ecc4cf759cc79239f7b179b0ffacaa9a75d522b39400f906200011290600190620006b4565b60408051918290038220828201825260018352603160f81b602093840152600754825193840194909452908201527fc89efdaa54c0f20c7adf612882df0950f5a951637e0307cdcb4c672f298b8bc6606082015260808101919091523060a082015260c00160408051601f19818403018152919052805160209091012060a05250620001a49450506200034192505050565b6001600160a01b0316639a9862366040518163ffffffff1660e01b815260040160c060405180830381600087803b158015620001df57600080fd5b505af1158015620001f4573d6000803e3d6000fd5b505050506040513d601f19601f820116820180604052508101906200021a91906200064f565b50505060601b6001600160601b03191660c052600c80546001600160a01b03199081166001600160a01b0393841617909155600d805490911692909116919091179055670de0b6b3a7640000600f556000600381905580806200027a3390565b6001600160a01b0316639a9862366040518163ffffffff1660e01b815260040160c060405180830381600087803b158015620002b557600080fd5b505af1158015620002ca573d6000803e3d6000fd5b505050506040513d601f19601f82011682018060405250810190620002f091906200064f565b9550955095505050506200030c8383836200034560201b60201c565b50506019805463ffffffff4216600160e01b02600160701b600160e01b0390911617670de0b6b3a764000017905550620007e1565b3390565b6200035b60006702c68af0bb140000856200043b565b6200036a6001600a836200043b565b60128190556200037f6301e133808462000757565b601355601154620003af906200039a906301e1338062000778565b836200048360201b620019451790919060201c565b601481905550620003f2601154620003de84846301e1338063ffffffff16620004ac60201b620019561760201c565b6200048360201b620019451790919060201c565b60155560408051848152602081018490529081018290527fd5624eebb6c71dfd24920f6002bcc6e05cc1f38f7b01f209b84930586ef5bf7e9060600160405180910390a1505050565b828110806200044957508181115b156200047e57604051639e7fe3bd60e01b81526004810184905260248101839052604481018290526064015b60405180910390fd5b505050565b6000620004a583670de0b6b3a764000084620004ac60201b620019561760201c565b9392505050565b600080806000198587098587029250828110838203039150508060001415620004f857838281620004ed57634e487b7160e01b600052601260045260246000fd5b0492505050620004a5565b8381106200052457604051631dcf306360e21b8152600481018290526024810185905260440162000475565b600084868809600260036001881981018916988990049182028318808302840302808302840302808302840302808302840302808302840302918202909203026000889003889004909101858311909403939093029303949094049190911702949350505050565b8280546200059a90620007a4565b90600052602060002090601f016020900481019282620005be576000855562000609565b82601f10620005d957805160ff191683800117855562000609565b8280016001018555821562000609579182015b8281111562000609578251825591602001919060010190620005ec565b50620006179291506200061b565b5090565b5b808211156200061757600081556001016200061c565b80516001600160a01b03811681146200064a57600080fd5b919050565b60008060008060008060c0878903121562000668578182fd5b620006738762000632565b9550620006836020880162000632565b9450620006936040880162000632565b9350606087015192506080870151915060a087015190509295509295509295565b600080835482600182811c915080831680620006d157607f831692505b6020808410821415620006f257634e487b7160e01b87526022600452602487fd5b8180156200070957600181146200071b5762000749565b60ff1986168952848901965062000749565b60008a815260209020885b86811015620007415781548b82015290850190830162000726565b505084890196505b509498975050505050505050565b6000826200077357634e487b7160e01b81526012600452602481fd5b500490565b60008160001904831182151516156200079f57634e487b7160e01b81526011600452602481fd5b500290565b600181811c90821680620007b957607f821691505b60208210811415620007db57634e487b7160e01b600052602260045260246000fd5b50919050565b60805160f81c60a05160c05160601c61278d6200082560003960006107a20152600081816104c20152818161117f015261169a01526000610489015261278d6000f3fe608060405234801561001057600080fd5b50600436106103785760003560e01c8063926d845b116101d3578063c72f3fbb11610104578063dd62ed3e116100a2578063e6a69ab81161007c578063e6a69ab81461083f578063e8a24e1d1461084a578063f312b3601461085d578063fff6cae91461087057600080fd5b8063dd62ed3e146107eb578063dedffbe714610824578063e3a3d1451461083757600080fd5b8063d8dfeb45116100de578063d8dfeb451461079d578063d90e0264146107c4578063d95dc3ac146107cd578063d9a107c4146107dc57600080fd5b8063c72f3fbb1461062b578063c914b43714610770578063d505accf1461078a57600080fd5b8063a6afed9511610171578063ad7a672f1161014b578063ad7a672f14610715578063b7f1118a1461071e578063bc25cf7714610731578063c0789dcb1461074457600080fd5b8063a6afed95146106cf578063a9059cbb146106d7578063aa5af0fd146106ea57600080fd5b80639a8a0592116101ad5780639a8a0592146106975780639b510998146106a05780639e79b55c146106a9578063a457c2d7146106bc57600080fd5b8063926d845b1461066957806395a2251f1461067c57806395d89b411461068f57600080fd5b80634322b714116102ad57806370a082311161024b5780637ecebe00116102255780637ecebe001461060b57806382ef81721461062b5780638af70cfc1461063a5780638f840ddd1461064d57600080fd5b806370a08231146105c657806372cf84a7146105ef5780637d6af079146105f857600080fd5b806347bd37181161028757806347bd37181461052457806354fd4d50146105685780636a627842146105885780636f307dc31461059b57600080fd5b80634322b714146104ff5780634381b3bf1461050857806346f608ff1461051b57600080fd5b80631c4469831161031a578063313ce567116102f4578063313ce567146104845780633644e515146104bd57806339509351146104e45780633ba0b9a9146104f757600080fd5b80631c4469831461043557806323b872dd1461044a57806330adf81f1461045d57600080fd5b80630bdfb1d8116103565780630bdfb1d8146103ef57806318160ddd1461041a578063182df0f5146104235780631aebf12f1461042c57600080fd5b806301f8c1c81461037d57806306fdde03146103b7578063095ea7b3146103cc575b600080fd5b6103a47ff6d86ed606f871fa1a557ac0ba607adce07767acf53f492fb215a1a4db4aea6f81565b6040519081526020015b60405180910390f35b6103bf610878565b6040516103ae91906125fb565b6103df6103da366004612516565b610906565b60405190151581526020016103ae565b6103a46103fd366004612429565b601660209081526000928352604080842090915290825290205481565b6103a460035481565b6103a4600f5481565b6103a460115481565b610448610443366004612561565b61091d565b005b6103df610458366004612461565b6109b8565b6103a47f6e71edae12b1b97f4d1f60370fef10105fa2faae0126114a169c64845d6126c981565b6104ab7f000000000000000000000000000000000000000000000000000000000000000081565b60405160ff90911681526020016103ae565b6103a47f000000000000000000000000000000000000000000000000000000000000000081565b6103df6104f2366004612516565b610a33565b6103a4610a7b565b6103a460105481565b610448610516366004612561565b610aa9565b6103a460145481565b60185461054790600160801b90046fffffffffffffffffffffffffffffffff1681565b6040516fffffffffffffffffffffffffffffffff90911681526020016103ae565b6103bf604051806040016040528060018152602001603160f81b81525081565b6103a46105963660046123f1565b610b37565b600c546105ae906001600160a01b031681565b6040516001600160a01b0390911681526020016103ae565b6103a46105d43660046123f1565b6001600160a01b031660009081526004602052604090205490565b6103a460155481565b6103a46106063660046123f1565b610e31565b6103a46106193660046123f1565b60066020526000908152604090205481565b6103a46702c68af0bb14000081565b600e546105ae906001600160a01b031681565b601854610547906fffffffffffffffffffffffffffffffff1681565b6103df610677366004612516565b610ea2565b6103a461068a3660046123f1565b610eaf565b6103bf611031565b6103a460075481565b6103a460125481565b6104486106b73660046124a1565b61103e565b6103df6106ca366004612516565b6112be565b6104486112ef565b6103df6106e5366004612516565b6114f2565b6019546106fd906001600160701b031681565b6040516001600160701b0390911681526020016103ae565b6103a4600b5481565b61044861072c3660046123f1565b6114ff565b61044861073f3660046123f1565b611520565b60195461075b90600160e01b900463ffffffff1681565b60405163ffffffff90911681526020016103ae565b6019546106fd90600160701b90046001600160701b031681565b6104486107983660046124a1565b611591565b6105ae7f000000000000000000000000000000000000000000000000000000000000000081565b6103a460135481565b6103a46706f05b59d3b2000081565b6103a4670d2f13f7789f000081565b6103a46107f9366004612429565b6001600160a01b03918216600090815260056020908152604080832093909416825291909152205490565b6104486108323660046123f1565b6117c2565b6103a4600a81565b61075b6301e1338081565b600d546105ae906001600160a01b031681565b61044861086b3660046125b4565b6118af565b610448611901565b60018054610885906126f1565b80601f01602080910402602001604051908101604052809291908181526020018280546108b1906126f1565b80156108fe5780601f106108d3576101008083540402835291602001916108fe565b820191906000526020600020905b8154815290600101906020018083116108e157829003601f168201915b505050505081565b6000610913338484611a32565b5060015b92915050565b610925611ae1565b60005460ff16610948576040516306fda65d60e31b815260040160405180910390fd5b6000805460ff19168155610965906702c68af0bb14000083611b9a565b601080549082905560408051828152602081018490527faaa68312e2ea9d50e16af5068410ab56e1a1fd06037b1a35664812c30f82146091015b60405180910390a150506000805460ff19166001179055565b60006109c5848484611bdb565b6001600160a01b038416600090815260056020908152604080832033845290915290205482811015610a1957604051632b3ca6f360e11b815260048101829052602481018490526044015b60405180910390fd5b610a268533858403611a32565b60019150505b9392505050565b3360009081526005602090815260408083206001600160a01b03861684529091528120548190610a6490849061262e565b9050610a71338583611a32565b5060019392505050565b6003546000908015610a9957600b54610a949082611945565b610aa3565b670de0b6b3a76400005b91505090565b610ab1611ae1565b60005460ff16610ad4576040516306fda65d60e31b815260040160405180910390fd5b6000805460ff19169055610af96706f05b59d3b20000670d2f13f7789f000083611b9a565b601180549082905560408051828152602081018490527f3708b7f62cb1acca95324fe8062eaff0301e988506521a4ff0374b1e3142cd35910161099f565b6000805460ff16610b5b576040516306fda65d60e31b815260040160405180910390fd5b6000805460ff19168155600c546040516370a0823160e01b81523060048201526001600160a01b03909116906370a082319060240160206040518083038186803b158015610ba857600080fd5b505afa158015610bbc573d6000803e3d6000fd5b505050506040513d601f19601f82011682018060405250810190610be09190612579565b600a5490915060ff1615610d7d576008546009546040516393f1a40b60e01b815260048101919091523060248201526000916001600160a01b0316906393f1a40b90604401604080518083038186803b158015610c3c57600080fd5b505afa158015610c50573d6000803e3d6000fd5b505050506040513d601f19601f82011682018060405250810190610c749190612591565b50600854600954604051631c57762b60e31b81526004810191909152602481018590529192506001600160a01b03169063e2bbb15890604401600060405180830381600087803b158015610cc757600080fd5b505af1158015610cdb573d6000803e3d6000fd5b50506008546009546040516393f1a40b60e01b81526004810191909152306024820152600093506001600160a01b0390911691506393f1a40b90604401604080518083038186803b158015610d2f57600080fd5b505afa158015610d43573d6000803e3d6000fd5b505050506040513d601f19601f82011682018060405250810190610d679190612591565b509050610d748282612685565b92505050610d8d565b600b54610d8a9082612685565b90505b610d9f610d98610a7b565b8290611945565b915060008211610dc55760405163cd698f4d60e01b815260048101839052602401610a10565b610dcf8383611cfe565b60408051828152602081018490526001600160a01b0385169133917f2f00e3cdd69a77be7ed215ec7b2a36784dd158f921fca79ac29deffa353fe6ee91015b60405180910390a350610e1f611db1565b6000805460ff19166001179055919050565b6001600160a01b03811660009081526017602090815260408083208151808301909252546001600160701b038082168352600160701b9091041691810182905290610e7f5750600092915050565b80516019546020830151610a2c926001600160701b039081169281169116611956565b6000610913338484611e66565b6000805460ff16610ed3576040516306fda65d60e31b815260040160405180910390fd5b6000805460ff1916815530815260046020526040902054610efc610ef5610a7b565b8290611ece565b915060008211610f22576040516319f4fb4360e31b815260048101839052602401610a10565b600b54821115610f5357600b546040516339eff09f60e11b8152610a10918491600401918252602082015260400190565b610f5d3082611eda565b600a5460ff1615610fd757600854600954604051630441a3e760e41b81526001600160a01b039092169163441a3e7091610fa4918690600401918252602082015260400190565b600060405180830381600087803b158015610fbe57600080fd5b505af1158015610fd2573d6000803e3d6000fd5b505050505b600c54610fee906001600160a01b03168484611f85565b60408051838152602081018390526001600160a01b0385169133917f3f693fff038bb8a046aa76d9516190ac7444f7d69cf952c4cbdc086fdef2d6fc9101610e0e565b60028054610885906126f1565b6001600160a01b038716611078576040516355fb1d7d60e01b81526001600160a01b03808916600483015287166024820152604401610a10565b6001600160a01b0386166110b257604051633e09f41760e01b81526001600160a01b03808916600483015287166024820152604401610a10565b4263ffffffff168410156110e85760405163b49611d160e01b81526004810185905263ffffffff42166024820152604401610a10565b6001600160a01b0387811660008181526006602090815260408083208054600180820190925582517ff6d86ed606f871fa1a557ac0ba607adce07767acf53f492fb215a1a4db4aea6f8186015280840196909652958c166060860152608085018b905260a085019590955260c08085018a90528151808603909101815260e08501825280519083012061190160f01b6101008601527f000000000000000000000000000000000000000000000000000000000000000061010286015261012280860182905282518087039091018152610142860180845281519185019190912090859052610162860180845281905260ff8a166101828701526101a286018990526101c2860188905291519095919491926101e2808401939192601f1981019281900390910190855afa158015611223573d6000803e3d6000fd5b5050604051601f1901519150506001600160a01b038116611262576040516322b2f68d60e01b81526001600160a01b0382166004820152602401610a10565b896001600160a01b0316816001600160a01b0316146112a75760405163156a3f6960e31b815260ff871660048201526024810186905260448101859052606401610a10565b6112b28a8a8a611e66565b50505050505050505050565b3360009081526005602090815260408083206001600160a01b03861684529091528120548190610a64908490612685565b6019544290600160e01b900463ffffffff908116908216811415611311575050565b601980547bffffffffffffffffffffffffffffffffffffffffffffffffffffffff16600160e01b63ffffffff851602179055600061134f828461269c565b601854600b546019549293506fffffffffffffffffffffffffffffffff600160801b83048116939216916001600160701b0316836113905750505050505050565b600061139d838686611fec565b905060006113b163ffffffff881683612666565b905060006113bf8288611ece565b90506113cb818861262e565b6010549097506113db9082611ece565b6113e5908761262e565b6019549096506113ff9083906001600160701b0316611ece565b611409908561262e565b6fffffffffffffffffffffffffffffffff878116908916600160801b026fffffffffffffffffffffffffffffffff191617601855601980546001600160701b038381166dffffffffffffffffffffffffffff19918816600160701b02919091167fffffffff0000000000000000000000000000000000000000000000000000000090921691909117179055604080518781526020810184905290810182905260608101899052608081018590529094507f717fee053884ab1935ba6d0140f6ed225371439611d9674ff445419d6a0fa1b79060a00160405180910390a150505050505050505050565b6000610913338484611bdb565b61151d8161150c83610e31565b6019546001600160701b03166120a1565b50565b60005460ff16611543576040516306fda65d60e31b815260040160405180910390fd5b6000805460ff19168155600b54308252600460205260409091205461158191839161156e9190612685565b600c546001600160a01b03169190611f85565b506000805460ff19166001179055565b6001600160a01b0387166115b85760405163bc622b6360e01b815260040160405180910390fd5b6001600160a01b0386166115df57604051632853494b60e11b815260040160405180910390fd5b428410156116035760405163212ed8bb60e11b815260048101859052602401610a10565b6001600160a01b0387811660008181526006602090815260408083208054600180820190925582517f6e71edae12b1b97f4d1f60370fef10105fa2faae0126114a169c64845d6126c98186015280840196909652958c166060860152608085018b905260a085019590955260c08085018a90528151808603909101815260e08501825280519083012061190160f01b6101008601527f000000000000000000000000000000000000000000000000000000000000000061010286015261012280860182905282518087039091018152610142860180845281519185019190912090859052610162860180845281905260ff8a166101828701526101a286018990526101c2860188905291519095919491926101e2808401939192601f1981019281900390910190855afa15801561173e573d6000803e3d6000fd5b5050604051601f1901519150506001600160a01b03811661177257604051630f81234f60e31b815260040160405180910390fd5b896001600160a01b0316816001600160a01b0316146117b757604051630b76193960e31b815260ff871660048201526024810186905260448101859052606401610a10565b6112b28a8a8a611a32565b6117ca611ae1565b60005460ff166117ed576040516306fda65d60e31b815260040160405180910390fd5b6000805460ff19169055600e546001600160a01b038281169116141561183d57600e54604051635ab3b76b60e01b81526001600160a01b0391821660048201529082166024820152604401610a10565b600e80546001600160a01b038381167fffffffffffffffffffffffff000000000000000000000000000000000000000083168117909355604080519190921680825260208201939093527fd055869d156456dabc9c0a740d75ad5b923e2974a5cca031f7a00b3d1b0c11d8910161099f565b6118b7611ae1565b60005460ff166118da576040516306fda65d60e31b815260040160405180910390fd5b6000805460ff191690556118ef838383612127565b50506000805460ff1916600117905550565b60005460ff16611924576040516306fda65d60e31b815260040160405180910390fd5b6000805460ff19169055611936611db1565b6000805460ff19166001179055565b6000610a2c83670de0b6b3a7640000845b60008080600019858709858702925082811083820303915050806000141561199f5783828161199557634e487b7160e01b600052601260045260246000fd5b0492505050610a2c565b8381106119c957604051631dcf306360e21b81526004810182905260248101859052604401610a10565b60008486880960026001871981018816978890046003810283188082028403028082028403028082028403028082028403028082028403029081029092039091026000889003889004909101858311909403939093029303949094049190911702949350505050565b6001600160a01b038316611a595760405163230326bf60e11b815260040160405180910390fd5b6001600160a01b038216611a8057604051630b39ecd960e21b815260040160405180910390fd5b6001600160a01b0383811660008181526005602090815260408083209487168084529482529182902085905590518481527f8c5be1e5ebec7d5bd14f71427d1e84f3dd0314c0f7b2291e5b200ac8c7c3b925910160405180910390a3505050565b600d54604080516303e1469160e61b815290516000926001600160a01b03169163f851a440916004808301926020929190829003018186803b158015611b2657600080fd5b505afa158015611b3a573d6000803e3d6000fd5b505050506040513d601f19601f82011682018060405250810190611b5e919061240d565b9050336001600160a01b0382161461151d57604051633e7c764160e21b81523360048201526001600160a01b0382166024820152604401610a10565b82811080611ba757508181115b15611bd657604051639e7fe3bd60e01b8152600481018490526024810183905260448101829052606401610a10565b505050565b6001600160a01b038316611c025760405163907bfbd760e01b815260040160405180910390fd5b6001600160a01b038216611c2957604051637184c13f60e01b815260040160405180910390fd5b6001600160a01b03831660009081526004602052604090205481811015611c6d57604051632dcf2e2160e21b81526004810182905260248101839052604401610a10565b6001600160a01b03808516600090815260046020526040808220858503905591851681529081208054849290611ca490849061262e565b92505081905550826001600160a01b0316846001600160a01b03167fddf252ad1be2c89b69c2b068fc378daa952ba7f163c4a11628f55a4df523b3ef84604051611cf091815260200190565b60405180910390a350505050565b6001600160a01b038216611d255760405163139241eb60e01b815260040160405180910390fd5b6001600160a01b03821660009081526004602052604081208054839290611d4d90849061262e565b925050819055508060036000828254611d66919061262e565b90915550506040518181526001600160a01b038316906000907fddf252ad1be2c89b69c2b068fc378daa952ba7f163c4a11628f55a4df523b3ef906020015b60405180910390a35050565b600c546040516370a0823160e01b81523060048201526001600160a01b03909116906370a082319060240160206040518083038186803b158015611df457600080fd5b505afa158015611e08573d6000803e3d6000fd5b505050506040513d601f19601f82011682018060405250810190611e2c9190612579565b600b8190556040519081527f8a0df8ef054fae2c3d2d19a7b322e864870cc9fd3cb07fb9526309c596244bf49060200160405180910390a1565b6001600160a01b038381166000818152601660209081526040808320948716808452948252918290208590558151938452830184905290917fc3c1215b41d54142382d54a05fb991007165ae91bcb1879bac8b290d9111aaf4910160405180910390a2505050565b6000610a2c83836121e2565b6001600160a01b038216611f0157604051638e35e80360e01b815260040160405180910390fd5b6001600160a01b03821660009081526004602052604081208054839290611f29908490612685565b925050819055508060036000828254611f429190612685565b90915550506040518181526000906001600160a01b038416907fddf252ad1be2c89b69c2b068fc378daa952ba7f163c4a11628f55a4df523b3ef90602001611da5565b604080516001600160a01b038416602482015260448082018490528251808303909101815260649091019091526020810180517bffffffffffffffffffffffffffffffffffffffffffffffffffffffff1663a9059cbb60e01b179052611bd69084906122a4565b60008061200e83611ffd868861262e565b6120079190612685565b8590611945565b9050601154811161203c5760135460145461202a908390611ece565b612034919061262e565b915050610a2c565b6000601354612058601454601154611ece90919063ffffffff16565b612062919061262e565b90506000601154836120749190612685565b90508161208c60155483611ece90919063ffffffff16565b612096919061262e565b979650505050505050565b600e546001600160a01b0316806120b85750505050565b6040516305285d7f60e01b81526001600160a01b03858116600483015260248201859052604482018490528216906305285d7f90606401600060405180830381600087803b15801561210957600080fd5b505af115801561211d573d6000803e3d6000fd5b5050505050505050565b61213b60006702c68af0bb14000085611b9a565b6121486001600a83611b9a565b601281905561215b6301e1338084612646565b60135560115461217a90612173906301e13380612666565b8390611945565b6014556011546121999061219384846301e13380611956565b90611945565b60155560408051848152602081018490529081018290527fd5624eebb6c71dfd24920f6002bcc6e05cc1f38f7b01f209b84930586ef5bf7e9060600160405180910390a1505050565b60008080600019848609848602925082811083820303915050670de0b6b3a764000081106122265760405163698d9a0160e11b815260048101829052602401610a10565b600080670de0b6b3a76400008688099150506706f05b59d3b1ffff8111826122605780670de0b6b3a7640000850401945050505050610917565b620400008285030493909111909103600160ee1b02919091177faccb18165bd6fe31ae1cf318dc5b51eee0e1ba569b88cd74c1773b91fac106690201905092915050565b60006122e683836040518060400160405280601581526020017f5361666545726332304c6f774c6576656c43616c6c0000000000000000000000815250612321565b805190915015611bd657808060200190518101906123049190612541565b611bd6576040516364d6fc4d60e01b815260040160405180910390fd5b60606001600160a01b0384163b61235657604051638201cc0560e01b81526001600160a01b0385166004820152602401610a10565b600080856001600160a01b03168560405161237191906125df565b6000604051808303816000865af19150503d80600081146123ae576040519150601f19603f3d011682016040523d82523d6000602084013e6123b3565b606091505b509150915081156123c7579150610a2c9050565b8051156123d75780518082602001fd5b8360405162461bcd60e51b8152600401610a1091906125fb565b600060208284031215612402578081fd5b8135610a2c81612742565b60006020828403121561241e578081fd5b8151610a2c81612742565b6000806040838503121561243b578081fd5b823561244681612742565b9150602083013561245681612742565b809150509250929050565b600080600060608486031215612475578081fd5b833561248081612742565b9250602084013561249081612742565b929592945050506040919091013590565b600080600080600080600060e0888a0312156124bb578283fd5b87356124c681612742565b965060208801356124d681612742565b95506040880135945060608801359350608088013560ff811681146124f9578384fd5b9699959850939692959460a0840135945060c09093013592915050565b60008060408385031215612528578182fd5b823561253381612742565b946020939093013593505050565b600060208284031215612552578081fd5b81518015158114610a2c578182fd5b600060208284031215612572578081fd5b5035919050565b60006020828403121561258a578081fd5b5051919050565b600080604083850312156125a3578182fd5b505080516020909101519092909150565b6000806000606084860312156125c8578283fd5b505081359360208301359350604090920135919050565b600082516125f18184602087016126c1565b9190910192915050565b602081526000825180602084015261261a8160408501602087016126c1565b601f01601f19169190910160400192915050565b600082198211156126415761264161272c565b500190565b60008261266157634e487b7160e01b81526012600452602481fd5b500490565b60008160001904831182151516156126805761268061272c565b500290565b6000828210156126975761269761272c565b500390565b600063ffffffff838116908316818110156126b9576126b961272c565b039392505050565b60005b838110156126dc5781810151838201526020016126c4565b838111156126eb576000848401525b50505050565b600181811c9082168061270557607f821691505b6020821081141561272657634e487b7160e01b600052602260045260246000fd5b50919050565b634e487b7160e01b600052601160045260246000fd5b6001600160a01b038116811461151d57600080fdfea2646970667358221220232549ddee2b2be33acc043c5706f942bb438d9cc8285cdaf06af1cb3dd6c96264736f6c63430008040033",
  "linkReferences": {},
  "deployedLinkReferences": {}
}