{
  "_format": "hh-sol-artifact-1",
  "contractName": "DenebOrbiter",
  "sourceName": "contracts/cygnus-core/DenebOrbiter.sol",
  "abi": [
    {
      "inputs": [],
      "name": "collateralInitCodeHash",
      "outputs": [
        {
          "internalType": "bytes32",
          "name": "",
          "type": "bytes32"
        }
      ],
      "stateMutability": "view",
      "type": "function"
    },
    {
      "inputs": [
        {
          "internalType": "address",
          "name": "underlying",
          "type": "address"
        },
        {
          "internalType": "address",
          "name": "borrowable",
          "type": "address"
        },
        {
          "internalType": "address",
          "name": "oracle",
          "type": "address"
        },
        {
          "internalType": "uint256",
          "name": "shuttleId",
          "type": "uint256"
        }
      ],
      "name": "deployDeneb",
      "outputs": [
        {
          "internalType": "address",
          "name": "collateral",
          "type": "address"
        }
      ],
      "stateMutability": "nonpayable",
      "type": "function"
    },
    {
      "inputs": [],
      "name": "shuttleParameters",
      "outputs": [
        {
          "internalType": "address",
          "name": "factory",
          "type": "address"
        },
        {
          "internalType": "address",
          "name": "underlying",
          "type": "address"
        },
        {
          "internalType": "address",
          "name": "borrowable",
          "type": "address"
        },
        {
          "internalType": "address",
          "name": "oracle",
          "type": "address"
        },
        {
          "internalType": "uint256",
          "name": "shuttleId",
          "type": "uint256"
        }
      ],
      "stateMutability": "view",
      "type": "function"
    }
  ],
  "bytecode": "0x60a03461006957612da690603f8201601f191681016001600160401b038111828210176100535760405281815260208101916130b9833951902060805260405161304a908161006f823960805181605c0152f35b634e487b7160e01b600052604160045260246000fd5b600080fdfe608060408181526004918236101561001657600080fd5b600092833560e01c9182631b2b71e4146100de575081635a412e5314610083575063ef703c961461004657600080fd5b3461007f578160031936011261007f57602090517f00000000000000000000000000000000000000000000000000000000000000008152f35b5080fd5b83833461007f578160031936011261007f5760a09273ffffffffffffffffffffffffffffffffffffffff8093541692806001541692816002541691600354169254938151958652602086015284015260608301526080820152f35b9150913461026a57608036600319011261026a5782359173ffffffffffffffffffffffffffffffffffffffff92838116809103610266576024358481168091036102625760443585811680910361025e576064359160a085019467ffffffffffffffff958181108782111761024b5784916080918952338152866020820152838982015284606082015201527fffffffffffffffffffffffff00000000000000000000000000000000000000009033828b5416178a5584826001541617600155816002541617600255600354161760035585558251602081019182523384820152838152606081019181831084841117610238578285528151902092612da68083019160608301908582109111176102255761026f8439039086f592831561021b5793602094818055816001558160025581600355555191168152f35b81513d86823e3d90fd5b634e487b7160e01b895260418852602489fd5b634e487b7160e01b885260418752602488fd5b634e487b7160e01b8b5260418a5260248bfd5b8780fd5b8680fd5b8580fd5b8380fdfe610140604081815234620002d6576000805460ff19166001178155635a412e5360e01b80845260a093909290848160048186335af1801562000278578391849185918691620002ad575b5060e052865260c052608052670d2f13f7789f0000600155670e5d0f042e878000600255805192808452848460048186335af19384156200027857839462000284575b506101009384528151908152848160048186335af1908115620002785783916200023f575b50815163b9a09fd560e01b81526001600160a01b0391821660048201526020816024817309236cff45047dbee6b921e00704bed6d6b8cf7e5afa93841562000234578094620001eb575b5050610120921682525191612a22938462000384853960805184818161057501528181610c6d015261260001525183818161063b0152612184015260c0518381816103500152818161097001528181610a6c01528181610f5b0152818161119f0152818161156c0152818161175a015281816118f501528181611a19015261215d015260e0518381816109cc01526115d20152518281816105310152818161085c01528181610b6501528181611cce01528181612032015261226c0152518181816105f70152818161099e0152818161111e01528181612302015281816124c30152818161258701526126a10152f35b909193506020823d82116200022b575b816200020a60209383620002db565b810103126200022857506200021f9062000315565b913880620000fb565b80fd5b3d9150620001fb565b8351903d90823e3d90fd5b620002649150853d871162000270575b6200025b8183620002db565b8101906200032a565b505050905038620000b1565b503d6200024f565b505051903d90823e3d90fd5b620002a0919450853d871162000270576200025b8183620002db565b505091505092386200008c565b92505050620002cc9150853d871162000270576200025b8183620002db565b9150903862000049565b600080fd5b601f909101601f19168101906001600160401b03821190821017620002ff57604052565b634e487b7160e01b600052604160045260246000fd5b51906001600160a01b0382168203620002d657565b91908260a0910312620002d65781516001600160a01b03908181168103620002d657926200035b6020820162000315565b926200036a6040830162000315565b9260608301519081168103620002d6576080909201519056fe6040608081526004908136101561001557600080fd5b600091823560e01c8063031a5c8214611c665780630572b0cc14611bd457806306fdde0314611bab578063095ea7b314611b4157806315de1daa146119af57806318160ddd146119885780631be19560146118ad57806323b872dd146117d8578063313ce5671461172d5780633644e51514611710578063395093511461168d5780633ba0b9a9146116705780634bdaeac11461164957806351303622146116255780635ec88c79146115f55780635f77f891146115ba5780636afdd850146115905780636f307dc31461154c57806370a08231146115185780637ecebe00146114e457806381f5b6f4146114665780638808e71c146110c45780638c765e94146110a557806395d89b4114610f36578063a36a363014610f17578063a457c2d714610e93578063a843108114610e15578063a9059cbb14610d80578063ad7a672f14610d57578063b4ebbda414610b46578063b5f3c95b14610b27578063ba087652146109f9578063bcbc332014610938578063cc1f8ffa14610906578063cea55f57146108e7578063cf8c8c44146107b4578063d505accf1461065f578063d935bd921461061b578063dcc3e06e146105d7578063dd62ed3e14610599578063e8a24e1d14610555578063e99a6ac714610511578063eb6a887d14610493578063f7c618c114610460578063fa14fdc2146102e4578063fef0bec8146102705763fff6cae91461022657600080fd5b3461026c578260031936011261026c5782549160ff83161561025f578360018460ff19809116835561025661266c565b82541617815580f35b516306fda65d60e31b8152fd5b8280fd5b503461026c57602036600319011261026c5780359061028d6125e2565b67016345785d8a000082116102d65750907f87272249f1056ec16a68dd9255101358246dd26a796e2f0bc6b3a0ad02f2de4191600354908060035582519182526020820152a180f35b825163058b4cb360e11b8152fd5b50903461026c57606036600319011261026c576102ff611d76565b916024359160443567ffffffffffffffff811161045c576103239036908401611e7e565b86549560ff87161561044c5760ff199687168855851561043c57906103748689949361034e826122f8565b7f0000000000000000000000000000000000000000000000000000000000000000612974565b806103c9575b5050506387a211a2600c523085526103a06020600c20549361039a611fb0565b906128fa565b83106103bc57846001856103b486306127c4565b61025661266c565b516337eed4ab60e11b8152fd5b333b1561026c576104039183918551938492839263989bebcf60e01b8452338a8501528a6024850152606060448501526064840191611f56565b038183335af180156104325761041a575b8061037a565b61042390611eac565b61042e578438610414565b8480fd5b83513d84823e3d90fd5b50505051632a28590560e01b8152fd5b505050516306fda65d60e31b8152fd5b8580fd5b50503461048f578160031936011261048f5760209051733c8b650257cfb5f272f799f5e2b4e65093a11a058152f35b5080fd5b503461026c57602036600319011261026c578035906104b06125e2565b670b1a2bc2ec50000082108015610500575b6102d65750907ff25d2243e4128e51523d8537f04f18c3e6390bbfc6323390a9a8e59b921ce04691600154908060015582519182526020820152a180f35b50670de0b6b3a764000082116104c2565b50503461048f578160031936011261048f57602090516001600160a01b037f0000000000000000000000000000000000000000000000000000000000000000168152f35b50503461048f578160031936011261048f57602090516001600160a01b037f0000000000000000000000000000000000000000000000000000000000000000168152f35b50503461048f578060031936011261048f576020916105b6611d76565b906105bf611d91565b8452637f5e9f20600c52526034600c20549051908152f35b50503461048f578160031936011261048f57602090516001600160a01b037f0000000000000000000000000000000000000000000000000000000000000000168152f35b50503461048f578160031936011261048f57602090516001600160a01b037f0000000000000000000000000000000000000000000000000000000000000000168152f35b50903461026c5760e036600319011261026c5761067a611d76565b91610683611d91565b6084359160643560443560ff851685036107b05761069f612752565b928651978342116107a4576001600160a01b038091169516956338377508600c52858a5260209485600c20948554956001870190557f6e71edae12b1b97f4d1f60370fef10105fa2faae0126114a169c64845d6126c98b5287878c0152888a8c015260608b019585875260808c015260a08b01526119018b52855260c0892088526042601e208a5260ff16845260a435875260c435606052838060808b60015afa50843d51036107995750777f5e9f200000000000000000000000000000000000000000851786526034602c20557f8c5be1e5ebec7d5bd14f71427d1e84f3dd0314c0f7b2291e5b200ac8c7c3b9259190a3528060605280f35b63ddafbaef8952601cfd5b50631a15a3cc8952601cfd5b8780fd5b5091346108c357816003193601126108c357506107cf611d76565b6024356001600160a01b03828116806107f2578451636e7ac57d60e11b81528690fd5b909192943082146108d957600019841461083e575b60208561083586896387a211a2600c5260005261083084600c205461082a611fb0565b906128ad565b6120db565b91519115825250f35b602092935060249085519485938492637d6af07960e01b84528301527f0000000000000000000000000000000000000000000000000000000000000000165afa9081156108ce57600091610899575b50826108356020610807565b906020823d82116108c6575b816108b260209383611ef2565b810103126108c3575051602061088d565b80fd5b3d91506108a5565b82513d6000823e3d90fd5b845163bf8c13af60e01b8152fd5b50503461048f578160031936011261048f576020906001549051908152f35b50503461048f578060031936011261048f5760209061092f610926611d76565b60243590612210565b90519015158152f35b50503461048f578160031936011261048f5760607f98ccebae89f16f152c93c6a0cdc0d99913b9e62a9fc612471c21ffc299c389fd917f0000000000000000000000000000000000000000000000000000000000000000906001600160a01b036109c4817f00000000000000000000000000000000000000000000000000000000000000001684612362565b8151921682527f000000000000000000000000000000000000000000000000000000000000000060208301523390820152a180f35b50903461026c57606036600319011261026c57813592610a17611d91565b93610a20611da7565b946001600160a01b039081871693843303610add575b50610a48610a42611fb0565b846128ad565b958615610acf5750610a6583602098610a60896122f8565b6127c4565b610a9086827f0000000000000000000000000000000000000000000000000000000000000000612974565b8451928684528784015216907ffbde797d201c681b91056529119e0b02407c7bb96a4a2c75c01fc9667232c8db843392a4610ac961266c565b51908152f35b855163e3e8d29760e01b8152fd5b33602052637f5e9f20600c528781526034600c20908154906000198203610b06575b5050610a36565b818611610b1b57508490039055388080610aff565b6313be252b899152601cfd5b50503461048f578160031936011261048f576020906005549051908152f35b5091346108c357610b5636611e49565b9091906001600160a01b0390337f0000000000000000000000000000000000000000000000000000000000000000831614610b9b578551632cac670b60e21b81528790fd5b85929181889215610d4757610baf86611fea565b905015610d3757610bc29061039a61213e565b60025490818102918183041490151715610d2457610bde611fb0565b908115610d11570494610bf2868583612843565b869260035480610c4c575b505060209650817f6b078885a9e49e8cb7156c2c48a5423d666dff282bd881b6174e1379fd541c3c92606092610c33868a611f33565b8851968a88528b8801528887015216941692a351908152f35b610c58919450876128ad565b92602086518092630b60d15f60e31b825281867f0000000000000000000000000000000000000000000000000000000000000000165afa908115610d075792606092610cd28683947f6b078885a9e49e8cb7156c2c48a5423d666dff282bd881b6174e1379fd541c3c9760209d91610cda575b5083612843565b925092610bfd565b610cfa91508d3d8111610d00575b610cf28183611ef2565b810190611f14565b8d610ccb565b503d610ce8565b86513d8a823e3d90fd5b634e487b7160e01b885260128452602488fd5b634e487b7160e01b875260118352602487fd5b845163c381cd1960e01b81528390fd5b845163f3934a2360e01b81528390fd5b50503461048f578160031936011261048f576001600160a01b036020925460081c169051908152f35b5091346108c357816003193601126108c357610d9a611d76565b60243591610da8833361271b565b6387a211a2600c5233815260209485600c2090815490818611610e0a575084900390555282600c208181540190558252600c5160601c337fddf252ad1be2c89b69c2b068fc378daa952ba7f163c4a11628f55a4df523b3ef8480a35160018152f35b63f4d678b88452601cfd5b503461026c57602036600319011261026c57803590610e326125e2565b670de0b6b3a764000082108015610e82575b6102d65750907faeba5a6c40a8ac138134bff1aaa65debf25971188a58804bad717f82f0ec131691600254908060025582519182526020820152a180f35b50670ff59ee833b300008211610e44565b5091346108c357816003193601126108c357610ead611d76565b60243590602052637f5e9f20600c523382526034600c20908154818110610f0b5760209550038091558152602c5160601c907f8c5be1e5ebec7d5bd14f71427d1e84f3dd0314c0f7b2291e5b200ac8c7c3b925843392a35160018152f35b85638301ab388552601cfd5b50503461048f578160031936011261048f576020906003549051908152f35b50903461026c578260031936011261026c5780516395d89b4160e01b815292808484817f00000000000000000000000000000000000000000000000000000000000000006001600160a01b03165afa928315611099578193610ff8575b610ff48484610fea6027825180947f4379674c503a20000000000000000000000000000000000000000000000000006020830152610fda8151809260208686019101611dfa565b8101036007810185520183611ef2565b5191829182611e1d565b0390f35b909192503d8083863e61100b8186611ef2565b8401916020858403126108c357845167ffffffffffffffff9586821161026c57019183601f8401121561048f5782519586116110845750835192611059601f8701601f191660200185611ef2565b858452602086840101116108c35750610ff49361107c9160208085019101611dfa565b903880610f93565b604190634e487b7160e01b6000525260246000fd5b509051903d90823e3d90fd5b50503461048f578160031936011261048f576020906002549051908152f35b5091903461048f5761012036600319011261048f5782356110e3611d91565b9360c03660431901126114625761010490813567ffffffffffffffff811161045c576111129036908301611e7e565b6001600160a01b0393847f0000000000000000000000000000000000000000000000000000000000000000169161114930846129bd565b938161137f575b50505061115c8561293d565b6e22d473030f116ddee9f6b43ac78ba390813b1561137b578560848a92838b519586948593631b63c28b60e11b8552338c8601523060248601521660448401528a7f00000000000000000000000000000000000000000000000000000000000000001660648401525af1801561137157908891611359575b50506111fe916111f16111f6926111ea8861257d565b30906129bd565b612203565b61039a611fb0565b94851561134a576805345cdf77eb68f44c9081549081156112b8575b50508054918683019283106112ac5750556387a211a2600c528460005260209485600c20858154019055848652600c5160601c60007fddf252ad1be2c89b69c2b068fc378daa952ba7f163c4a11628f55a4df523b3ef8880a38351928352848684015216907fdcbc1c05240f31ff3ad067ef1ee35ce4997762752e3a095284754544f4c709d7833392a3610ac961266c565b63e5cfe957600052601cfd5b90966103e7198101919082116113375750956103e89081810190811061132a5782556387a211a2600c5261dead6000526020600c20818154019055602052600c5160601c60007fddf252ad1be2c89b69c2b068fc378daa952ba7f163c4a11628f55a4df523b3ef602080a3388061121a565b8363e5cfe957600052601cfd5b634e487b7160e01b815260118452602490fd5b50835163f1ca48b160e01b8152fd5b61136290611eac565b61136d5786386111d4565b8680fd5b87513d8a823e3d90fd5b8880fd5b6e22d473030f116ddee9f6b43ac78ba391823b1561145e5789516302b67b5760e41b8152338882015293886113b2611da7565b16602486015260643589811680910361145657604486015260843565ffffffffffff9081811680910361145a57606487015260a43590811680910361145657608486015260c435898116809103611456578561142d81958f97958395899560a486015260e43560c486015261010060e4860152840191611f56565b03925af1801561137157611443575b8080611150565b61144f90979197611eac565b953861143c565b8c80fd5b8d80fd5b8a80fd5b8380fd5b50903461026c57602036600319011261026c578135916001600160a01b0381541633036114d657507fc63644116f6ef474fe595238489f3d0d31a12c55be3a748d72269a62882b04c9906114b98361257d565b4260055580519283524260208401523392a26114d361266c565b80f35b9051639f91a89160e01b8152fd5b50503461048f57602036600319011261048f57602091611502611d76565b906338377508600c525281600c20549051908152f35b50503461048f57602036600319011261048f57602091611536611d76565b906387a211a2600c525281600c20549051908152f35b50503461048f578160031936011261048f57602090516001600160a01b037f0000000000000000000000000000000000000000000000000000000000000000168152f35b50503461048f578160031936011261048f57602090516e22d473030f116ddee9f6b43ac78ba38152f35b50503461048f578160031936011261048f57602090517f00000000000000000000000000000000000000000000000000000000000000008152f35b8284346108c35760203660031901126108c35750611619611614611d76565b611fea565b82519182526020820152f35b50503461048f578160031936011261048f5760209061164261213e565b9051908152f35b5091346108c357806003193601126108c357506001600160a01b0360209254169051908152f35b50503461048f578160031936011261048f57602090611642611fb0565b5091346108c357816003193601126108c3576116a7611d76565b602052637f5e9f20600c523381526034600c20928354906024358201918210611705575080602094558152602c5160601c907f8c5be1e5ebec7d5bd14f71427d1e84f3dd0314c0f7b2291e5b200ac8c7c3b925843392a35160018152f35b63f90670668352601cfd5b50503461048f578160031936011261048f57602090611642612752565b5091346108c357806003193601126108c35760208251809463313ce56760e01b8252816001600160a01b037f0000000000000000000000000000000000000000000000000000000000000000165afa928315611099578193611797575b60208460ff855191168152f35b9092506020813d82116117d0575b816117b260209383611ef2565b8101031261026c57519160ff831683036108c3575060ff602061178a565b3d91506117a5565b5091903461048f576117e936611e49565b6117f3818461271b565b8260601b91602095338752600c93637f5e9f2081178552603485208054600019810361188a575b50506387a211a217845286842080549889851161187f5750836001600160a01b03969798990390555285822081815401905585525160601c91167fddf252ad1be2c89b69c2b068fc378daa952ba7f163c4a11628f55a4df523b3ef8480a35160018152f35b63f4d678b88352601cfd5b8086116118a15785900390556387a211a23861181a565b8a6313be252b8552601cfd5b5091903461048f57602036600319011261048f576118c9611d76565b9082549160ff8316156119785760ff1992831684556118e66125e2565b6001600160a01b0391828216927f000000000000000000000000000000000000000000000000000000000000000016831461196957600194955061193661192d30846129bd565b80933390612974565b519081527f6d25be279134f4ecaa4770aff0c3d916d9e7c5ef37b65ed95dbdba411f5d54d560203392a382541617815580f35b5163b5d8f39160e01b81528590fd5b81516306fda65d60e31b81528590fd5b50503461048f578160031936011261048f576020906805345cdf77eb68f44c549051908152f35b5082903461048f576020928360031936011261026c578135906001600160a01b039081831680930361042e576119e36125e2565b835495837fffffffffffffffffffffffff00000000000000000000000000000000000000008816178555611a15612461565b50917f00000000000000000000000000000000000000000000000000000000000000008416875b8451811015611b0d578186611a51838861244d565b511603611a7d575b6000198114611a6a57600101611a3c565b634e487b7160e01b895260118852602489fd5b85611a88828761244d565b511684878a541660448b87519485938492636eb1769f60e11b8452309084015260248301525afa8015611b0357908591611ada575b5050611ad58787611ace848961244d565b5116612362565b611a59565b813d8311611afc575b611aed8183611ef2565b8101031261137b57838b611abd565b503d611ae3565b84513d8c823e3d90fd5b887f6a97a9e954ae4ef4c8ecc6c7dd8a1cbe668254132294ceb515db9a2e4faad7f5848c8a888b845193168352820152a180f35b50503461048f578060031936011261048f57602091611b5e611d76565b602435908452637f5e9f20600c52338252806034600c20558152602c5160601c907f8c5be1e5ebec7d5bd14f71427d1e84f3dd0314c0f7b2291e5b200ac8c7c3b925843392a35160018152f35b50503461048f578160031936011261048f57610ff490611bc9611f77565b905191829182611e1d565b5091346108c357806003193601126108c35780549260ff841615611c58575060ff199283168155611c229290611c08612461565b949060018094845416178355845194808652850190611dbd565b6020848203818601528080875193848152019601925b828110611c455785870386f35b8351875295810195928101928401611c38565b82516306fda65d60e31b8152fd5b5091346108c3576020928360031936011261048f57611c83611d76565b6387a211a2600c5280835284611caa611ca282600c205461082a611fb0565b61082a61213e565b926024865180948193637d6af07960e01b83526001600160a01b03809216908301527f0000000000000000000000000000000000000000000000000000000000000000165afa8015611d6c578390611d3d575b611d179150611d1160025460035490611f33565b906128d8565b9080611d265750509051908152f35b600154611d37935061039a916128ad565b90610ac9565b508481813d8311611d65575b611d538183611ef2565b8101031261026c57611d179051611cfd565b503d611d49565b84513d85823e3d90fd5b600435906001600160a01b0382168203611d8c57565b600080fd5b602435906001600160a01b0382168203611d8c57565b604435906001600160a01b0382168203611d8c57565b90815180825260208080930193019160005b828110611ddd575050505090565b83516001600160a01b031685529381019392810192600101611dcf565b60005b838110611e0d5750506000910152565b8181015183820152602001611dfd565b60409160208252611e3d8151809281602086015260208686019101611dfa565b601f01601f1916010190565b6060906003190112611d8c576001600160a01b03906004358281168103611d8c57916024359081168103611d8c579060443590565b9181601f84011215611d8c5782359167ffffffffffffffff8311611d8c5760208381860195010111611d8c57565b67ffffffffffffffff8111611ec057604052565b634e487b7160e01b600052604160045260246000fd5b6040810190811067ffffffffffffffff821117611ec057604052565b90601f8019910116810190811067ffffffffffffffff821117611ec057604052565b90816020910312611d8c57516001600160a01b0381168103611d8c5790565b91908201809211611f4057565b634e487b7160e01b600052601160045260246000fd5b908060209392818452848401376000828201840152601f01601f1916010190565b60405190611f8482611ed6565b601282527f4379676e75733a20436f6c6c61746572616c00000000000000000000000000006020830152565b6805345cdf77eb68f44c5460009080611fd1575050670de0b6b3a764000090565b6001600160a01b03611fe7925460081c166128fa565b90565b6001600160a01b0391908281168061200e57604051636e7ac57d60e11b8152600490fd5b3081146120c957602090602460405180968193637d6af07960e01b835260048301527f0000000000000000000000000000000000000000000000000000000000000000165afa9283156120bd5760009361208a575b509161208691926387a211a2600c526000526108306020600c205461082a611fb0565b9091565b6020813d82116120b5575b816120a260209383611ef2565b8101031261146257519250612086612063565b3d9150612095565b6040513d6000823e3d90fd5b60405163bf8c13af60e01b8152600490fd5b6120ea6120f39161082a61213e565b600154906128ad565b9080156121245761210d90611d1160025460035490611f33565b9081811061211c570390600090565b600092910390565b506121389061039a60025460035490611f33565b90600090565b604051906317e5a1a160e01b82526020826024816001600160a01b03807f00000000000000000000000000000000000000000000000000000000000000001660048301527f0000000000000000000000000000000000000000000000000000000000000000165afa9182156120bd576000926121d0575b5081156121be57565b60405163586ad3b960e11b8152600490fd5b90916020823d82116121fb575b816121ea60209383611ef2565b810103126108c357505190386121b5565b3d91506121dd565b91908203918211611f4057565b9190916387a211a2600c526000928184526020600c20548082116122f35761224861224060249493602093612203565b61082a611fb0565b9160405193848092637d6af07960e01b82526001600160a01b0380911660048301527f0000000000000000000000000000000000000000000000000000000000000000165afa9182156122e85784926122ae575b506122a89293506120db565b90501590565b9091506020813d82116122e0575b816122c960209383611ef2565b81010312611462576122a89293505190839261229c565b3d91506122bc565b6040513d86823e3d90fd5b505050565b6001600160a01b037f00000000000000000000000000000000000000000000000000000000000000001690813b15611d8c57600091602483926040519485938492632e1a7d4d60e01b845260048401525af180156120bd576123575750565b61236090611eac565b565b9060405191636eb1769f60e11b83523060048401526020836044816001600160a01b03808716602483015285165afa9283156120bd576000936123f7575b50600019809310156122f3576010600060449260209582956014526034526f095ea7b300000000000000000000000082525af13d156001600051141716156123e9576000603452565b633e3f8f736000526004601cfd5b90926020823d8211612422575b8161241160209383611ef2565b810103126108c357505191386123a0565b3d9150612404565b8051156124375760200190565b634e487b7160e01b600052603260045260246000fd5b80518210156124375760209160051b010190565b60006040519161247083611ed6565b6001835260209283368183013780936040519161248c83611ed6565b600183528136818501378294733c8b650257cfb5f272f799f5e2b4e65093a11a0591826124b88261242a565b526001600160a01b037f00000000000000000000000000000000000000000000000000000000000000001690813b1561026c5761251c839283926040519485809481936331279d3d60e01b8352306004840152604060248401526044830190611dbd565b03925af1801561257257601085946f70a0823100000000000000000000000086956125609895602495612563575b5030601452525afa601f3d11169051029161242a565b52565b61256c90611eac565b3861254a565b6040513d84823e3d90fd5b6001600160a01b037f00000000000000000000000000000000000000000000000000000000000000001690813b15611d8c57600091604483926040519485938492631c57762b60e31b845260048401528160248401525af180156120bd576123575750565b6040516303e1469160e61b81526001600160a01b03906020816004817f000000000000000000000000000000000000000000000000000000000000000086165afa9081156120bd5760009161264e575b5016330361263c57565b6040516331d63ad160e11b8152600490fd5b612666915060203d8111610d0057610cf28183611ef2565b38612632565b7f3145c2b643834867f2c0a8cac8a48218307687911615c0ed01412a09dd163b6660206001600160a01b036126cb6126c630837f0000000000000000000000000000000000000000000000000000000000000000166129bd565b61293d565b906000547fffffffffffffffffffffff0000000000000000000000000000000000000000ff74ffffffffffffffffffffffffffffffffffffffff008460081b1691161760005560405191168152a1565b90306001600160a01b0383161461274e5761273591612210565b1561273c57565b604051631ba566ff60e01b8152600490fd5b5050565b60a060405161275f611f77565b602081519101207f8b73c3c69bb8fe3d512ecc4cf759cc79239f7b179b0ffacaa9a75d522b39400f825260208201527fc89efdaa54c0f20c7adf612882df0950f5a951637e0307cdcb4c672f298b8bc660408201524660608201523060808201522090565b906127cf818361271b565b6387a211a2600c52816000526020600c209182549182811161283557600093816001600160a01b03940390556805345cdf77eb68f44c8181540390558352167fddf252ad1be2c89b69c2b068fc378daa952ba7f163c4a11628f55a4df523b3ef602083a3565b63f4d678b86000526004601cfd5b91906387a211a28360601b17600c526020600c2080548084116128355783900390556000526020600c208181540190556020526001600160a01b03600c5160601c91167fddf252ad1be2c89b69c2b068fc378daa952ba7f163c4a11628f55a4df523b3ef602080a3565b908060001904821181026128ca57670de0b6b3a764000091020490565b63bac65e5b6000526004601cfd5b8160001904811182026128ca5702670de0b6b3a7640000808204910615150190565b670de0b6b3a7640000907812725dd1d243aba0e75fe645cc4873f9e65afe688c928e1f21811182021583021561292f57020490565b637c5f487d6000526004601cfd5b74010000000000000000000000000000000000000000811015612966576001600160a01b031690565b6335278d126000526004601cfd5b60109260209260145260345260446000938480936fa9059cbb00000000000000000000000082525af13d1560018351141716156129b057603452565b6390b8ec1890526004601cfd5b602460106020939284936014526f70a082310000000000000000000000006000525afa601f3d1116602051029056fea2646970667358221220fe53e79e319249229641c97ebf950dd6ef200f90ae522317e978f22942fed00164736f6c63430008110033a26469706673582212202d04bfe10f57bffcce956aa7cdbee9e4ea2afa564449e7071a6f32964605e47064736f6c63430008110033610140604081815234620002d6576000805460ff19166001178155635a412e5360e01b80845260a093909290848160048186335af1801562000278578391849185918691620002ad575b5060e052865260c052608052670d2f13f7789f0000600155670e5d0f042e878000600255805192808452848460048186335af19384156200027857839462000284575b506101009384528151908152848160048186335af1908115620002785783916200023f575b50815163b9a09fd560e01b81526001600160a01b0391821660048201526020816024817309236cff45047dbee6b921e00704bed6d6b8cf7e5afa93841562000234578094620001eb575b5050610120921682525191612a22938462000384853960805184818161057501528181610c6d015261260001525183818161063b0152612184015260c0518381816103500152818161097001528181610a6c01528181610f5b0152818161119f0152818161156c0152818161175a015281816118f501528181611a19015261215d015260e0518381816109cc01526115d20152518281816105310152818161085c01528181610b6501528181611cce01528181612032015261226c0152518181816105f70152818161099e0152818161111e01528181612302015281816124c30152818161258701526126a10152f35b909193506020823d82116200022b575b816200020a60209383620002db565b810103126200022857506200021f9062000315565b913880620000fb565b80fd5b3d9150620001fb565b8351903d90823e3d90fd5b620002649150853d871162000270575b6200025b8183620002db565b8101906200032a565b505050905038620000b1565b503d6200024f565b505051903d90823e3d90fd5b620002a0919450853d871162000270576200025b8183620002db565b505091505092386200008c565b92505050620002cc9150853d871162000270576200025b8183620002db565b9150903862000049565b600080fd5b601f909101601f19168101906001600160401b03821190821017620002ff57604052565b634e487b7160e01b600052604160045260246000fd5b51906001600160a01b0382168203620002d657565b91908260a0910312620002d65781516001600160a01b03908181168103620002d657926200035b6020820162000315565b926200036a6040830162000315565b9260608301519081168103620002d6576080909201519056fe6040608081526004908136101561001557600080fd5b600091823560e01c8063031a5c8214611c665780630572b0cc14611bd457806306fdde0314611bab578063095ea7b314611b4157806315de1daa146119af57806318160ddd146119885780631be19560146118ad57806323b872dd146117d8578063313ce5671461172d5780633644e51514611710578063395093511461168d5780633ba0b9a9146116705780634bdaeac11461164957806351303622146116255780635ec88c79146115f55780635f77f891146115ba5780636afdd850146115905780636f307dc31461154c57806370a08231146115185780637ecebe00146114e457806381f5b6f4146114665780638808e71c146110c45780638c765e94146110a557806395d89b4114610f36578063a36a363014610f17578063a457c2d714610e93578063a843108114610e15578063a9059cbb14610d80578063ad7a672f14610d57578063b4ebbda414610b46578063b5f3c95b14610b27578063ba087652146109f9578063bcbc332014610938578063cc1f8ffa14610906578063cea55f57146108e7578063cf8c8c44146107b4578063d505accf1461065f578063d935bd921461061b578063dcc3e06e146105d7578063dd62ed3e14610599578063e8a24e1d14610555578063e99a6ac714610511578063eb6a887d14610493578063f7c618c114610460578063fa14fdc2146102e4578063fef0bec8146102705763fff6cae91461022657600080fd5b3461026c578260031936011261026c5782549160ff83161561025f578360018460ff19809116835561025661266c565b82541617815580f35b516306fda65d60e31b8152fd5b8280fd5b503461026c57602036600319011261026c5780359061028d6125e2565b67016345785d8a000082116102d65750907f87272249f1056ec16a68dd9255101358246dd26a796e2f0bc6b3a0ad02f2de4191600354908060035582519182526020820152a180f35b825163058b4cb360e11b8152fd5b50903461026c57606036600319011261026c576102ff611d76565b916024359160443567ffffffffffffffff811161045c576103239036908401611e7e565b86549560ff87161561044c5760ff199687168855851561043c57906103748689949361034e826122f8565b7f0000000000000000000000000000000000000000000000000000000000000000612974565b806103c9575b5050506387a211a2600c523085526103a06020600c20549361039a611fb0565b906128fa565b83106103bc57846001856103b486306127c4565b61025661266c565b516337eed4ab60e11b8152fd5b333b1561026c576104039183918551938492839263989bebcf60e01b8452338a8501528a6024850152606060448501526064840191611f56565b038183335af180156104325761041a575b8061037a565b61042390611eac565b61042e578438610414565b8480fd5b83513d84823e3d90fd5b50505051632a28590560e01b8152fd5b505050516306fda65d60e31b8152fd5b8580fd5b50503461048f578160031936011261048f5760209051733c8b650257cfb5f272f799f5e2b4e65093a11a058152f35b5080fd5b503461026c57602036600319011261026c578035906104b06125e2565b670b1a2bc2ec50000082108015610500575b6102d65750907ff25d2243e4128e51523d8537f04f18c3e6390bbfc6323390a9a8e59b921ce04691600154908060015582519182526020820152a180f35b50670de0b6b3a764000082116104c2565b50503461048f578160031936011261048f57602090516001600160a01b037f0000000000000000000000000000000000000000000000000000000000000000168152f35b50503461048f578160031936011261048f57602090516001600160a01b037f0000000000000000000000000000000000000000000000000000000000000000168152f35b50503461048f578060031936011261048f576020916105b6611d76565b906105bf611d91565b8452637f5e9f20600c52526034600c20549051908152f35b50503461048f578160031936011261048f57602090516001600160a01b037f0000000000000000000000000000000000000000000000000000000000000000168152f35b50503461048f578160031936011261048f57602090516001600160a01b037f0000000000000000000000000000000000000000000000000000000000000000168152f35b50903461026c5760e036600319011261026c5761067a611d76565b91610683611d91565b6084359160643560443560ff851685036107b05761069f612752565b928651978342116107a4576001600160a01b038091169516956338377508600c52858a5260209485600c20948554956001870190557f6e71edae12b1b97f4d1f60370fef10105fa2faae0126114a169c64845d6126c98b5287878c0152888a8c015260608b019585875260808c015260a08b01526119018b52855260c0892088526042601e208a5260ff16845260a435875260c435606052838060808b60015afa50843d51036107995750777f5e9f200000000000000000000000000000000000000000851786526034602c20557f8c5be1e5ebec7d5bd14f71427d1e84f3dd0314c0f7b2291e5b200ac8c7c3b9259190a3528060605280f35b63ddafbaef8952601cfd5b50631a15a3cc8952601cfd5b8780fd5b5091346108c357816003193601126108c357506107cf611d76565b6024356001600160a01b03828116806107f2578451636e7ac57d60e11b81528690fd5b909192943082146108d957600019841461083e575b60208561083586896387a211a2600c5260005261083084600c205461082a611fb0565b906128ad565b6120db565b91519115825250f35b602092935060249085519485938492637d6af07960e01b84528301527f0000000000000000000000000000000000000000000000000000000000000000165afa9081156108ce57600091610899575b50826108356020610807565b906020823d82116108c6575b816108b260209383611ef2565b810103126108c3575051602061088d565b80fd5b3d91506108a5565b82513d6000823e3d90fd5b845163bf8c13af60e01b8152fd5b50503461048f578160031936011261048f576020906001549051908152f35b50503461048f578060031936011261048f5760209061092f610926611d76565b60243590612210565b90519015158152f35b50503461048f578160031936011261048f5760607f98ccebae89f16f152c93c6a0cdc0d99913b9e62a9fc612471c21ffc299c389fd917f0000000000000000000000000000000000000000000000000000000000000000906001600160a01b036109c4817f00000000000000000000000000000000000000000000000000000000000000001684612362565b8151921682527f000000000000000000000000000000000000000000000000000000000000000060208301523390820152a180f35b50903461026c57606036600319011261026c57813592610a17611d91565b93610a20611da7565b946001600160a01b039081871693843303610add575b50610a48610a42611fb0565b846128ad565b958615610acf5750610a6583602098610a60896122f8565b6127c4565b610a9086827f0000000000000000000000000000000000000000000000000000000000000000612974565b8451928684528784015216907ffbde797d201c681b91056529119e0b02407c7bb96a4a2c75c01fc9667232c8db843392a4610ac961266c565b51908152f35b855163e3e8d29760e01b8152fd5b33602052637f5e9f20600c528781526034600c20908154906000198203610b06575b5050610a36565b818611610b1b57508490039055388080610aff565b6313be252b899152601cfd5b50503461048f578160031936011261048f576020906005549051908152f35b5091346108c357610b5636611e49565b9091906001600160a01b0390337f0000000000000000000000000000000000000000000000000000000000000000831614610b9b578551632cac670b60e21b81528790fd5b85929181889215610d4757610baf86611fea565b905015610d3757610bc29061039a61213e565b60025490818102918183041490151715610d2457610bde611fb0565b908115610d11570494610bf2868583612843565b869260035480610c4c575b505060209650817f6b078885a9e49e8cb7156c2c48a5423d666dff282bd881b6174e1379fd541c3c92606092610c33868a611f33565b8851968a88528b8801528887015216941692a351908152f35b610c58919450876128ad565b92602086518092630b60d15f60e31b825281867f0000000000000000000000000000000000000000000000000000000000000000165afa908115610d075792606092610cd28683947f6b078885a9e49e8cb7156c2c48a5423d666dff282bd881b6174e1379fd541c3c9760209d91610cda575b5083612843565b925092610bfd565b610cfa91508d3d8111610d00575b610cf28183611ef2565b810190611f14565b8d610ccb565b503d610ce8565b86513d8a823e3d90fd5b634e487b7160e01b885260128452602488fd5b634e487b7160e01b875260118352602487fd5b845163c381cd1960e01b81528390fd5b845163f3934a2360e01b81528390fd5b50503461048f578160031936011261048f576001600160a01b036020925460081c169051908152f35b5091346108c357816003193601126108c357610d9a611d76565b60243591610da8833361271b565b6387a211a2600c5233815260209485600c2090815490818611610e0a575084900390555282600c208181540190558252600c5160601c337fddf252ad1be2c89b69c2b068fc378daa952ba7f163c4a11628f55a4df523b3ef8480a35160018152f35b63f4d678b88452601cfd5b503461026c57602036600319011261026c57803590610e326125e2565b670de0b6b3a764000082108015610e82575b6102d65750907faeba5a6c40a8ac138134bff1aaa65debf25971188a58804bad717f82f0ec131691600254908060025582519182526020820152a180f35b50670ff59ee833b300008211610e44565b5091346108c357816003193601126108c357610ead611d76565b60243590602052637f5e9f20600c523382526034600c20908154818110610f0b5760209550038091558152602c5160601c907f8c5be1e5ebec7d5bd14f71427d1e84f3dd0314c0f7b2291e5b200ac8c7c3b925843392a35160018152f35b85638301ab388552601cfd5b50503461048f578160031936011261048f576020906003549051908152f35b50903461026c578260031936011261026c5780516395d89b4160e01b815292808484817f00000000000000000000000000000000000000000000000000000000000000006001600160a01b03165afa928315611099578193610ff8575b610ff48484610fea6027825180947f4379674c503a20000000000000000000000000000000000000000000000000006020830152610fda8151809260208686019101611dfa565b8101036007810185520183611ef2565b5191829182611e1d565b0390f35b909192503d8083863e61100b8186611ef2565b8401916020858403126108c357845167ffffffffffffffff9586821161026c57019183601f8401121561048f5782519586116110845750835192611059601f8701601f191660200185611ef2565b858452602086840101116108c35750610ff49361107c9160208085019101611dfa565b903880610f93565b604190634e487b7160e01b6000525260246000fd5b509051903d90823e3d90fd5b50503461048f578160031936011261048f576020906002549051908152f35b5091903461048f5761012036600319011261048f5782356110e3611d91565b9360c03660431901126114625761010490813567ffffffffffffffff811161045c576111129036908301611e7e565b6001600160a01b0393847f0000000000000000000000000000000000000000000000000000000000000000169161114930846129bd565b938161137f575b50505061115c8561293d565b6e22d473030f116ddee9f6b43ac78ba390813b1561137b578560848a92838b519586948593631b63c28b60e11b8552338c8601523060248601521660448401528a7f00000000000000000000000000000000000000000000000000000000000000001660648401525af1801561137157908891611359575b50506111fe916111f16111f6926111ea8861257d565b30906129bd565b612203565b61039a611fb0565b94851561134a576805345cdf77eb68f44c9081549081156112b8575b50508054918683019283106112ac5750556387a211a2600c528460005260209485600c20858154019055848652600c5160601c60007fddf252ad1be2c89b69c2b068fc378daa952ba7f163c4a11628f55a4df523b3ef8880a38351928352848684015216907fdcbc1c05240f31ff3ad067ef1ee35ce4997762752e3a095284754544f4c709d7833392a3610ac961266c565b63e5cfe957600052601cfd5b90966103e7198101919082116113375750956103e89081810190811061132a5782556387a211a2600c5261dead6000526020600c20818154019055602052600c5160601c60007fddf252ad1be2c89b69c2b068fc378daa952ba7f163c4a11628f55a4df523b3ef602080a3388061121a565b8363e5cfe957600052601cfd5b634e487b7160e01b815260118452602490fd5b50835163f1ca48b160e01b8152fd5b61136290611eac565b61136d5786386111d4565b8680fd5b87513d8a823e3d90fd5b8880fd5b6e22d473030f116ddee9f6b43ac78ba391823b1561145e5789516302b67b5760e41b8152338882015293886113b2611da7565b16602486015260643589811680910361145657604486015260843565ffffffffffff9081811680910361145a57606487015260a43590811680910361145657608486015260c435898116809103611456578561142d81958f97958395899560a486015260e43560c486015261010060e4860152840191611f56565b03925af1801561137157611443575b8080611150565b61144f90979197611eac565b953861143c565b8c80fd5b8d80fd5b8a80fd5b8380fd5b50903461026c57602036600319011261026c578135916001600160a01b0381541633036114d657507fc63644116f6ef474fe595238489f3d0d31a12c55be3a748d72269a62882b04c9906114b98361257d565b4260055580519283524260208401523392a26114d361266c565b80f35b9051639f91a89160e01b8152fd5b50503461048f57602036600319011261048f57602091611502611d76565b906338377508600c525281600c20549051908152f35b50503461048f57602036600319011261048f57602091611536611d76565b906387a211a2600c525281600c20549051908152f35b50503461048f578160031936011261048f57602090516001600160a01b037f0000000000000000000000000000000000000000000000000000000000000000168152f35b50503461048f578160031936011261048f57602090516e22d473030f116ddee9f6b43ac78ba38152f35b50503461048f578160031936011261048f57602090517f00000000000000000000000000000000000000000000000000000000000000008152f35b8284346108c35760203660031901126108c35750611619611614611d76565b611fea565b82519182526020820152f35b50503461048f578160031936011261048f5760209061164261213e565b9051908152f35b5091346108c357806003193601126108c357506001600160a01b0360209254169051908152f35b50503461048f578160031936011261048f57602090611642611fb0565b5091346108c357816003193601126108c3576116a7611d76565b602052637f5e9f20600c523381526034600c20928354906024358201918210611705575080602094558152602c5160601c907f8c5be1e5ebec7d5bd14f71427d1e84f3dd0314c0f7b2291e5b200ac8c7c3b925843392a35160018152f35b63f90670668352601cfd5b50503461048f578160031936011261048f57602090611642612752565b5091346108c357806003193601126108c35760208251809463313ce56760e01b8252816001600160a01b037f0000000000000000000000000000000000000000000000000000000000000000165afa928315611099578193611797575b60208460ff855191168152f35b9092506020813d82116117d0575b816117b260209383611ef2565b8101031261026c57519160ff831683036108c3575060ff602061178a565b3d91506117a5565b5091903461048f576117e936611e49565b6117f3818461271b565b8260601b91602095338752600c93637f5e9f2081178552603485208054600019810361188a575b50506387a211a217845286842080549889851161187f5750836001600160a01b03969798990390555285822081815401905585525160601c91167fddf252ad1be2c89b69c2b068fc378daa952ba7f163c4a11628f55a4df523b3ef8480a35160018152f35b63f4d678b88352601cfd5b8086116118a15785900390556387a211a23861181a565b8a6313be252b8552601cfd5b5091903461048f57602036600319011261048f576118c9611d76565b9082549160ff8316156119785760ff1992831684556118e66125e2565b6001600160a01b0391828216927f000000000000000000000000000000000000000000000000000000000000000016831461196957600194955061193661192d30846129bd565b80933390612974565b519081527f6d25be279134f4ecaa4770aff0c3d916d9e7c5ef37b65ed95dbdba411f5d54d560203392a382541617815580f35b5163b5d8f39160e01b81528590fd5b81516306fda65d60e31b81528590fd5b50503461048f578160031936011261048f576020906805345cdf77eb68f44c549051908152f35b5082903461048f576020928360031936011261026c578135906001600160a01b039081831680930361042e576119e36125e2565b835495837fffffffffffffffffffffffff00000000000000000000000000000000000000008816178555611a15612461565b50917f00000000000000000000000000000000000000000000000000000000000000008416875b8451811015611b0d578186611a51838861244d565b511603611a7d575b6000198114611a6a57600101611a3c565b634e487b7160e01b895260118852602489fd5b85611a88828761244d565b511684878a541660448b87519485938492636eb1769f60e11b8452309084015260248301525afa8015611b0357908591611ada575b5050611ad58787611ace848961244d565b5116612362565b611a59565b813d8311611afc575b611aed8183611ef2565b8101031261137b57838b611abd565b503d611ae3565b84513d8c823e3d90fd5b887f6a97a9e954ae4ef4c8ecc6c7dd8a1cbe668254132294ceb515db9a2e4faad7f5848c8a888b845193168352820152a180f35b50503461048f578060031936011261048f57602091611b5e611d76565b602435908452637f5e9f20600c52338252806034600c20558152602c5160601c907f8c5be1e5ebec7d5bd14f71427d1e84f3dd0314c0f7b2291e5b200ac8c7c3b925843392a35160018152f35b50503461048f578160031936011261048f57610ff490611bc9611f77565b905191829182611e1d565b5091346108c357806003193601126108c35780549260ff841615611c58575060ff199283168155611c229290611c08612461565b949060018094845416178355845194808652850190611dbd565b6020848203818601528080875193848152019601925b828110611c455785870386f35b8351875295810195928101928401611c38565b82516306fda65d60e31b8152fd5b5091346108c3576020928360031936011261048f57611c83611d76565b6387a211a2600c5280835284611caa611ca282600c205461082a611fb0565b61082a61213e565b926024865180948193637d6af07960e01b83526001600160a01b03809216908301527f0000000000000000000000000000000000000000000000000000000000000000165afa8015611d6c578390611d3d575b611d179150611d1160025460035490611f33565b906128d8565b9080611d265750509051908152f35b600154611d37935061039a916128ad565b90610ac9565b508481813d8311611d65575b611d538183611ef2565b8101031261026c57611d179051611cfd565b503d611d49565b84513d85823e3d90fd5b600435906001600160a01b0382168203611d8c57565b600080fd5b602435906001600160a01b0382168203611d8c57565b604435906001600160a01b0382168203611d8c57565b90815180825260208080930193019160005b828110611ddd575050505090565b83516001600160a01b031685529381019392810192600101611dcf565b60005b838110611e0d5750506000910152565b8181015183820152602001611dfd565b60409160208252611e3d8151809281602086015260208686019101611dfa565b601f01601f1916010190565b6060906003190112611d8c576001600160a01b03906004358281168103611d8c57916024359081168103611d8c579060443590565b9181601f84011215611d8c5782359167ffffffffffffffff8311611d8c5760208381860195010111611d8c57565b67ffffffffffffffff8111611ec057604052565b634e487b7160e01b600052604160045260246000fd5b6040810190811067ffffffffffffffff821117611ec057604052565b90601f8019910116810190811067ffffffffffffffff821117611ec057604052565b90816020910312611d8c57516001600160a01b0381168103611d8c5790565b91908201809211611f4057565b634e487b7160e01b600052601160045260246000fd5b908060209392818452848401376000828201840152601f01601f1916010190565b60405190611f8482611ed6565b601282527f4379676e75733a20436f6c6c61746572616c00000000000000000000000000006020830152565b6805345cdf77eb68f44c5460009080611fd1575050670de0b6b3a764000090565b6001600160a01b03611fe7925460081c166128fa565b90565b6001600160a01b0391908281168061200e57604051636e7ac57d60e11b8152600490fd5b3081146120c957602090602460405180968193637d6af07960e01b835260048301527f0000000000000000000000000000000000000000000000000000000000000000165afa9283156120bd5760009361208a575b509161208691926387a211a2600c526000526108306020600c205461082a611fb0565b9091565b6020813d82116120b5575b816120a260209383611ef2565b8101031261146257519250612086612063565b3d9150612095565b6040513d6000823e3d90fd5b60405163bf8c13af60e01b8152600490fd5b6120ea6120f39161082a61213e565b600154906128ad565b9080156121245761210d90611d1160025460035490611f33565b9081811061211c570390600090565b600092910390565b506121389061039a60025460035490611f33565b90600090565b604051906317e5a1a160e01b82526020826024816001600160a01b03807f00000000000000000000000000000000000000000000000000000000000000001660048301527f0000000000000000000000000000000000000000000000000000000000000000165afa9182156120bd576000926121d0575b5081156121be57565b60405163586ad3b960e11b8152600490fd5b90916020823d82116121fb575b816121ea60209383611ef2565b810103126108c357505190386121b5565b3d91506121dd565b91908203918211611f4057565b9190916387a211a2600c526000928184526020600c20548082116122f35761224861224060249493602093612203565b61082a611fb0565b9160405193848092637d6af07960e01b82526001600160a01b0380911660048301527f0000000000000000000000000000000000000000000000000000000000000000165afa9182156122e85784926122ae575b506122a89293506120db565b90501590565b9091506020813d82116122e0575b816122c960209383611ef2565b81010312611462576122a89293505190839261229c565b3d91506122bc565b6040513d86823e3d90fd5b505050565b6001600160a01b037f00000000000000000000000000000000000000000000000000000000000000001690813b15611d8c57600091602483926040519485938492632e1a7d4d60e01b845260048401525af180156120bd576123575750565b61236090611eac565b565b9060405191636eb1769f60e11b83523060048401526020836044816001600160a01b03808716602483015285165afa9283156120bd576000936123f7575b50600019809310156122f3576010600060449260209582956014526034526f095ea7b300000000000000000000000082525af13d156001600051141716156123e9576000603452565b633e3f8f736000526004601cfd5b90926020823d8211612422575b8161241160209383611ef2565b810103126108c357505191386123a0565b3d9150612404565b8051156124375760200190565b634e487b7160e01b600052603260045260246000fd5b80518210156124375760209160051b010190565b60006040519161247083611ed6565b6001835260209283368183013780936040519161248c83611ed6565b600183528136818501378294733c8b650257cfb5f272f799f5e2b4e65093a11a0591826124b88261242a565b526001600160a01b037f00000000000000000000000000000000000000000000000000000000000000001690813b1561026c5761251c839283926040519485809481936331279d3d60e01b8352306004840152604060248401526044830190611dbd565b03925af1801561257257601085946f70a0823100000000000000000000000086956125609895602495612563575b5030601452525afa601f3d11169051029161242a565b52565b61256c90611eac565b3861254a565b6040513d84823e3d90fd5b6001600160a01b037f00000000000000000000000000000000000000000000000000000000000000001690813b15611d8c57600091604483926040519485938492631c57762b60e31b845260048401528160248401525af180156120bd576123575750565b6040516303e1469160e61b81526001600160a01b03906020816004817f000000000000000000000000000000000000000000000000000000000000000086165afa9081156120bd5760009161264e575b5016330361263c57565b6040516331d63ad160e11b8152600490fd5b612666915060203d8111610d0057610cf28183611ef2565b38612632565b7f3145c2b643834867f2c0a8cac8a48218307687911615c0ed01412a09dd163b6660206001600160a01b036126cb6126c630837f0000000000000000000000000000000000000000000000000000000000000000166129bd565b61293d565b906000547fffffffffffffffffffffff0000000000000000000000000000000000000000ff74ffffffffffffffffffffffffffffffffffffffff008460081b1691161760005560405191168152a1565b90306001600160a01b0383161461274e5761273591612210565b1561273c57565b604051631ba566ff60e01b8152600490fd5b5050565b60a060405161275f611f77565b602081519101207f8b73c3c69bb8fe3d512ecc4cf759cc79239f7b179b0ffacaa9a75d522b39400f825260208201527fc89efdaa54c0f20c7adf612882df0950f5a951637e0307cdcb4c672f298b8bc660408201524660608201523060808201522090565b906127cf818361271b565b6387a211a2600c52816000526020600c209182549182811161283557600093816001600160a01b03940390556805345cdf77eb68f44c8181540390558352167fddf252ad1be2c89b69c2b068fc378daa952ba7f163c4a11628f55a4df523b3ef602083a3565b63f4d678b86000526004601cfd5b91906387a211a28360601b17600c526020600c2080548084116128355783900390556000526020600c208181540190556020526001600160a01b03600c5160601c91167fddf252ad1be2c89b69c2b068fc378daa952ba7f163c4a11628f55a4df523b3ef602080a3565b908060001904821181026128ca57670de0b6b3a764000091020490565b63bac65e5b6000526004601cfd5b8160001904811182026128ca5702670de0b6b3a7640000808204910615150190565b670de0b6b3a7640000907812725dd1d243aba0e75fe645cc4873f9e65afe688c928e1f21811182021583021561292f57020490565b637c5f487d6000526004601cfd5b74010000000000000000000000000000000000000000811015612966576001600160a01b031690565b6335278d126000526004601cfd5b60109260209260145260345260446000938480936fa9059cbb00000000000000000000000082525af13d1560018351141716156129b057603452565b6390b8ec1890526004601cfd5b602460106020939284936014526f70a082310000000000000000000000006000525afa601f3d1116602051029056fea2646970667358221220fe53e79e319249229641c97ebf950dd6ef200f90ae522317e978f22942fed00164736f6c63430008110033",
  "linkReferences": {},
  "deployedLinkReferences": {}
}