{
  "_format": "hh-sol-artifact-1",
  "contractName": "DenebOrbiter",
  "sourceName": "contracts/cygnus-core/DenebOrbiter.sol",
  "abi": [
    {
      "inputs": [],
      "name": "ReentrantCall",
      "type": "error"
    },
    {
      "inputs": [],
      "name": "COLLATERAL_INIT_CODE_HASH",
      "outputs": [
        {
          "internalType": "bytes32",
          "name": "",
          "type": "bytes32"
        }
      ],
      "stateMutability": "view",
      "type": "function"
    },
    {
      "inputs": [
        {
          "internalType": "address",
          "name": "underlying",
          "type": "address"
        },
        {
          "internalType": "address",
          "name": "borrowable",
          "type": "address"
        },
        {
          "internalType": "address",
          "name": "oracle",
          "type": "address"
        },
        {
          "internalType": "uint256",
          "name": "shuttleId",
          "type": "uint256"
        }
      ],
      "name": "deployDeneb",
      "outputs": [
        {
          "internalType": "address",
          "name": "collateral",
          "type": "address"
        }
      ],
      "stateMutability": "nonpayable",
      "type": "function"
    },
    {
      "inputs": [],
      "name": "shuttleParameters",
      "outputs": [
        {
          "internalType": "address",
          "name": "factory",
          "type": "address"
        },
        {
          "internalType": "address",
          "name": "underlying",
          "type": "address"
        },
        {
          "internalType": "address",
          "name": "borrowable",
          "type": "address"
        },
        {
          "internalType": "address",
          "name": "oracle",
          "type": "address"
        },
        {
          "internalType": "uint256",
          "name": "shuttleId",
          "type": "uint256"
        }
      ],
      "stateMutability": "view",
      "type": "function"
    }
  ],
  "bytecode": "0x608060405234801561001057600080fd5b506000805460ff19166001179055614d8e8061002d6000396000f3fe60806040523480156200001157600080fd5b5060043610620000465760003560e01c806310df4f52146200004b5780631b2b71e414620000685780635a412e531462000098575b600080fd5b62000055620000ff565b6040519081526020015b60405180910390f35b6200007f62000079366004620002b4565b6200012e565b6040516001600160a01b0390911681526020016200005f565b600154600254600354600454600554620000c3946001600160a01b0390811694811693811692169085565b604080516001600160a01b0396871681529486166020860152928516928401929092529092166060820152608081019190915260a0016200005f565b604051620001106020820162000289565b6020820181038252601f19601f820116604052508051906020012081565b6000805460ff1662000153576040516306fda65d60e31b815260040160405180910390fd5b6000805460ff191690556040805160a081018252338082526001600160a01b038881166020808501829052898316858701819052928916606080870182905260809096018990526001805473ffffffffffffffffffffffffffffffffffffffff1990811687179091556002805482168517905560038054821690951790945560048054909416179092556005879055845180830191909152808501929092528351808303850181529190920192839052805191012090620002149062000289565b8190604051809103906000f590508015801562000235573d6000803e3d6000fd5b506001805473ffffffffffffffffffffffffffffffffffffffff1990811682556002805482169055600380548216905560048054909116905560006005819055805460ff1916909117905595945050505050565b614a53806200030683390190565b80356001600160a01b0381168114620002af57600080fd5b919050565b60008060008060808587031215620002ca578384fd5b620002d58562000297565b9350620002e56020860162000297565b9250620002f56040860162000297565b939692955092936060013592505056fe6101a0604052670d2f13f7789f0000600955670e398811bec68000600a55600019600c553480156200003057600080fd5b50604080518082018252601281527110de59db9d5cce8810dbdb1b185d195c985b60721b602080830191825283519081019093526000808452805460ff19166001908117825583519394939192859285928592859285928592620000949262000620565b508151620000aa90600290602085019062000620565b506003805460ff191660ff92909216919091179055505060405146907f8b73c3c69bb8fe3d512ecc4cf759cc79239f7b179b0ffacaa9a75d522b39400f90620000f69060019062000836565b60408051918290038220828201825260058352640312e302e360dc1b6020938401528151928301939093528101919091527f06c015bd22b4c69690933c1058878ebdfef31f9aaae40bbe86d8a09fe1b2972c6060820152608081018290523060a082015260c00160408051601f19818403018152919052805160209091012060805250620001889250506200061c9050565b6001600160a01b0316635a412e536040518163ffffffff1660e01b815260040160a060405180830381600087803b158015620001c357600080fd5b505af1158015620001d8573d6000803e3d6000fd5b505050506040513d601f19601f82011682018060405250810190620001fe9190620006ec565b610100526001600160601b0319606091821b811660e05292811b831660c0529290921b1660a05250600092508291506200023790503390565b6001600160a01b0316635a412e536040518163ffffffff1660e01b815260040160a060405180830381600087803b1580156200027257600080fd5b505af115801562000287573d6000803e3d6000fd5b505050506040513d601f19601f82011682018060405250810190620002ad9190620006ec565b50509250925050816001600160a01b03166395d89b416040518163ffffffff1660e01b815260040160006040518083038186803b158015620002ee57600080fd5b505afa15801562000303573d6000803e3d6000fd5b505050506040513d6000823e601f3d908101601f191682016040526200032d91908101906200075f565b6040516020016200033f9190620008d9565b604051602081830303815290604052600290805190602001906200036592919062000620565b50816001600160a01b031663313ce5676040518163ffffffff1660e01b815260040160206040518083038186803b158015620003a057600080fd5b505afa158015620003b5573d6000803e3d6000fd5b505050506040513d601f19601f82011682018060405250810190620003db919062000813565b6003805460ff191660ff9290921691909117905560601b6001600160601b03191661012052506000600481905580620004113390565b6001600160a01b0316635a412e536040518163ffffffff1660e01b815260040160a060405180830381600087803b1580156200044c57600080fd5b505af115801562000461573d6000803e3d6000fd5b505050506040513d601f19601f82011682018060405250810190620004879190620006ec565b50505091509150806001600160a01b0316630dfe16816040518163ffffffff1660e01b815260040160206040518083038186803b158015620004c857600080fd5b505afa158015620004dd573d6000803e3d6000fd5b505050506040513d601f19601f82011682018060405250810190620005039190620006c6565b816001600160a01b031663d21220a76040518163ffffffff1660e01b815260040160206040518083038186803b1580156200053d57600080fd5b505afa15801562000552573d6000803e3d6000fd5b505050506040513d601f19601f82011682018060405250810190620005789190620006c6565b836001600160a01b031663e1758bd86040518163ffffffff1660e01b815260040160206040518083038186803b158015620005b257600080fd5b505afa158015620005c7573d6000803e3d6000fd5b505050506040513d601f19601f82011682018060405250810190620005ed9190620006c6565b6001600160601b0319606091821b81166101405291811b8216610180529190911b166101605250620009a99050565b3390565b8280546200062e906200093d565b90600052602060002090601f0160209004810192826200065257600085556200069d565b82601f106200066d57805160ff19168380011785556200069d565b828001600101855582156200069d579182015b828111156200069d57825182559160200191906001019062000680565b50620006ab929150620006af565b5090565b5b80821115620006ab5760008155600101620006b0565b600060208284031215620006d8578081fd5b8151620006e58162000990565b9392505050565b600080600080600060a0868803121562000704578081fd5b8551620007118162000990565b6020870151909550620007248162000990565b6040870151909450620007378162000990565b60608701519093506200074a8162000990565b80925050608086015190509295509295909350565b60006020828403121562000771578081fd5b81516001600160401b038082111562000788578283fd5b818401915084601f8301126200079c578283fd5b815181811115620007b157620007b16200097a565b604051601f8201601f19908116603f01168101908382118183101715620007dc57620007dc6200097a565b81604052828152876020848701011115620007f5578586fd5b620008088360208301602088016200090a565b979650505050505050565b60006020828403121562000825578081fd5b815160ff81168114620006e5578182fd5b600080835482600182811c9150808316806200085357607f831692505b60208084108214156200087457634e487b7160e01b87526022600452602487fd5b8180156200088b57600181146200089d57620008cb565b60ff19861689528489019650620008cb565b60008a815260209020885b86811015620008c35781548b820152908501908301620008a8565b505084890196505b509498975050505050505050565b66021bcb3a6281d160cd1b815260008251620008fd8160078501602087016200090a565b9190910160070192915050565b60005b83811015620009275781810151838201526020016200090d565b8381111562000937576000848401525b50505050565b600181811c908216806200095257607f821691505b602082108114156200097457634e487b7160e01b600052602260045260246000fd5b50919050565b634e487b7160e01b600052604160045260246000fd5b6001600160a01b0381168114620009a657600080fd5b50565b60805160a05160601c60c05160601c60e05160601c610100516101205160601c6101405160601c6101605160601c6101805160601c613efe62000b5560003960008181610d8001528181610e0a01528181610e7201528181610f2301528181610fad015281816110150152818161106501526128f0015260008181610d3a01528181610dc601528181610e2b01528181610e5101528181610ec801528181610f7e01528181610fce01528181610ff4015281816110420152818161116401526128af015260008181610e9e01528181610ef90152610f540152600081816107470152818161080a0152818161144201528181611498015281816115c5015281816115ff01528181611aa60152612e640152600081816105160152611ece0152600081816106c00152610b97015260008181610550015281816109f801528181610a4f01528181610b6c015281816110ac015281816113170152818161199201528181611e2b01528181611eaa0152818161205e015261295201526000818161072001528181610c8501528181611743015261263b01526000818161045a0152611c4b0152613efe6000f3fe608060405234801561001057600080fd5b50600436106102f45760003560e01c80638c765e9411610191578063cc1f8ffa116100e3578063dd62ed3e11610097578063eb6a887d11610071578063eb6a887d14610769578063fa14fdc21461077c578063fef0bec81461078f57600080fd5b8063dd62ed3e146106e2578063e8a24e1d1461071b578063e99a6ac71461074257600080fd5b8063d505accf116100c8578063d505accf14610695578063d82f897f146106a8578063d935bd92146106bb57600080fd5b8063cc1f8ffa14610679578063cea55f571461068c57600080fd5b8063a9059cbb11610145578063b4ebbda41161011f578063b4ebbda41461064a578063b5f3c95b1461065d578063ba0876521461066657600080fd5b8063a9059cbb14610613578063ad7a672f14610626578063b11de7e31461062f57600080fd5b80639aac2c53116101765780639aac2c53146105e4578063a36a3630146105f7578063a84310811461060057600080fd5b80638c765e94146105d357806395d89b41146105dc57600080fd5b80633ba0b9a91161024a5780635ec88c79116101fe5780636f307dc3116101d85780636f307dc31461054b57806370a082311461058a5780637ecebe00146105b357600080fd5b80635ec88c79146104e95780635f77f891146105115780636e553f651461053857600080fd5b806354fd4d501161022f57806354fd4d501461048c57806359b0bc2a146104c85780635b037f1d146104d657600080fd5b80633ba0b9a91461047c578063513036221461048457600080fd5b80631995bc1a116102ac57806330adf81f1161028657806330adf81f1461040f578063313ce567146104365780633644e5151461045557600080fd5b80631995bc1a146103685780631be19560146103e757806323b872dd146103fc57600080fd5b806306fdde03116102dd57806306fdde0314610327578063095ea7b31461033c57806318160ddd1461035f57600080fd5b8063031a5c82146102f95780630572b0cc1461031f575b600080fd5b61030c610307366004613607565b6107a2565b6040519081526020015b60405180910390f35b61030c6108cc565b61032f61091c565b6040516103169190613c70565b61034f61034a366004613834565b6109aa565b6040519015158152602001610316565b61030c60045481565b6103b2600c5473f4d73326c13a4fc5fd7a064217e12780e9bd62c391731b02da8cb0d097eb8d57a175b88c7d8b479975069173d4d42f0b6def4ce0383636770ef773390d85c61a91565b60405161031694939291906001600160a01b039485168152928416602084015292166040820152606081019190915260800190565b6103fa6103f5366004613607565b6109c1565b005b61034f61040a36600461377f565b610ab3565b61030c7f6e71edae12b1b97f4d1f60370fef10105fa2faae0126114a169c64845d6126c981565b6003546104439060ff1681565b60405160ff9091168152602001610316565b61030c7f000000000000000000000000000000000000000000000000000000000000000081565b61030c610b27565b61030c610b55565b61032f6040518060400160405280600581526020017f312e302e3000000000000000000000000000000000000000000000000000000081525081565b61030c66b1a2bc2ec5000081565b6103fa6104e43660046139dc565b610c18565b6104fc6104f7366004613607565b6112c4565b60408051928352602083019190915201610316565b61030c7f000000000000000000000000000000000000000000000000000000000000000081565b61030c610546366004613ace565b6112dc565b6105727f000000000000000000000000000000000000000000000000000000000000000081565b6040516001600160a01b039091168152602001610316565b61030c610598366004613607565b6001600160a01b031660009081526005602052604090205490565b61030c6105c1366004613607565b60076020526000908152604090205481565b61030c600a5481565b61032f611431565b61034f6105f236600461377f565b61143e565b61030c600b5481565b6103fa61060e366004613a9e565b6114dc565b61034f610621366004613834565b61157f565b61030c60085481565b610572731111111254eeb25477b68fb85ed929f73a96058281565b61030c61065836600461377f565b61158c565b61030c600d5481565b61030c610674366004613af2565b611899565b61034f610687366004613834565b611a3b565b61030c60095481565b6103fa6106a33660046137bf565b611b3c565b6103fa6106b6366004613a9e565b611ddf565b6105727f000000000000000000000000000000000000000000000000000000000000000081565b61030c6106f0366004613747565b6001600160a01b03918216600090815260066020908152604080832093909416825291909152205490565b6105727f000000000000000000000000000000000000000000000000000000000000000081565b6105727f000000000000000000000000000000000000000000000000000000000000000081565b6103fa610777366004613a9e565b611f33565b6103fa61078a36600461385f565b611fc1565b6103fa61079d366004613a9e565b612167565b6000806107cf6107b0610b27565b6001600160a01b038516600090815260056020526040902054906121ee565b905060006107e56107de610b55565b83906121ee565b604051637d6af07960e01b81526001600160a01b0386811660048301529192506000917f00000000000000000000000000000000000000000000000000000000000000001690637d6af0799060240160206040518083038186803b15801561084c57600080fd5b505afa158015610860573d6000803e3d6000fd5b505050506040513d601f19601f820116820180604052508101906108849190613ab6565b9050600061089b600b54600a546107de9190613d99565b905081156108bf576009546108ba906108b4838661221c565b9061221c565b6108c2565b60005b9695505050505050565b6000805460ff166108f0576040516306fda65d60e31b815260040160405180910390fd5b6000805460ff1916905561090261226b565b61090a612295565b90506000805460ff1916600117905590565b6001805461092990613e37565b80601f016020809104026020016040519081016040528092919081815260200182805461095590613e37565b80156109a25780601f10610977576101008083540402835291602001916109a2565b820191906000526020600020905b81548152906001019060200180831161098557829003601f168201915b505050505081565b60006109b7338484612588565b5060015b92915050565b60005460ff166109e4576040516306fda65d60e31b815260040160405180910390fd5b6000805460ff191690556109f6612637565b7f00000000000000000000000000000000000000000000000000000000000000006001600160a01b0316816001600160a01b03161415610a81576040516303b91a9160e31b81526001600160a01b0380831660048301527f00000000000000000000000000000000000000000000000000000000000000001660248201526044015b60405180910390fd5b6000610a8c82612709565b9050610aa26001600160a01b0383163383612731565b50506000805460ff19166001179055565b6000610ac084848461277a565b6001600160a01b038416600090815260066020908152604080832033845290915290205482811015610b0f576040516310c6013560e31b81526004810182905260248101849052604401610a78565b610b1c8533858403612588565b506001949350505050565b6004546000908015610b4557600854610b40908261221c565b610b4f565b670de0b6b3a76400005b91505090565b6040516317e5a1a160e01b81526001600160a01b037f0000000000000000000000000000000000000000000000000000000000000000811660048301526000917f0000000000000000000000000000000000000000000000000000000000000000909116906317e5a1a19060240160206040518083038186803b158015610bdb57600080fd5b505afa158015610bef573d6000803e3d6000fd5b505050506040513d601f19601f82011682018060405250810190610c139190613ab6565b905090565b60005460ff16610c3b576040516306fda65d60e31b815260040160405180910390fd5b6000805460ff19169055610c4d61226b565b610c556127cb565b6000610c5f612295565b905080610c6c57506112ac565b6000610c7f8266b1a2bc2ec500006121ee565b905060007f00000000000000000000000000000000000000000000000000000000000000006001600160a01b0316635b068af86040518163ffffffff1660e01b815260040160206040518083038186803b158015610cdc57600080fd5b505afa158015610cf0573d6000803e3d6000fd5b505050506040513d601f19601f82011682018060405250810190610d14919061362a565b9050610d3573d4d42f0b6def4ce0383636770ef773390d85c61a8284612731565b6000807f00000000000000000000000000000000000000000000000000000000000000006001600160a01b031673d4d42f0b6def4ce0383636770ef773390d85c61a1480610dbf57507f00000000000000000000000000000000000000000000000000000000000000006001600160a01b031673d4d42f0b6def4ce0383636770ef773390d85c61a145b15610e9c577f00000000000000000000000000000000000000000000000000000000000000006001600160a01b031673d4d42f0b6def4ce0383636770ef773390d85c61a14610e4f577f00000000000000000000000000000000000000000000000000000000000000007f0000000000000000000000000000000000000000000000000000000000000000610e92565b7f00000000000000000000000000000000000000000000000000000000000000007f00000000000000000000000000000000000000000000000000000000000000005b909250905061109a565b7f00000000000000000000000000000000000000000000000000000000000000006001600160a01b03167f00000000000000000000000000000000000000000000000000000000000000006001600160a01b03161480610f4d57507f00000000000000000000000000000000000000000000000000000000000000006001600160a01b03167f00000000000000000000000000000000000000000000000000000000000000006001600160a01b0316145b1561103f577f00000000000000000000000000000000000000000000000000000000000000006001600160a01b03167f00000000000000000000000000000000000000000000000000000000000000006001600160a01b031614610ff2577f00000000000000000000000000000000000000000000000000000000000000007f0000000000000000000000000000000000000000000000000000000000000000611035565b7f00000000000000000000000000000000000000000000000000000000000000007f00000000000000000000000000000000000000000000000000000000000000005b9092509050611085565b507f000000000000000000000000000000000000000000000000000000000000000090507f00000000000000000000000000000000000000000000000000000000000000005b611098866110938688613df0565b612813565b505b60006110a583612709565b90506000807f00000000000000000000000000000000000000000000000000000000000000006001600160a01b0316630902f1ac6040518163ffffffff1660e01b815260040160606040518083038186803b15801561110357600080fd5b505afa158015611117573d6000803e3d6000fd5b505050506040513d601f19601f8201168201806040525081019061113b9190613a50565b506dffffffffffffffffffffffffffff1691506dffffffffffffffffffffffffffff16915060007f00000000000000000000000000000000000000000000000000000000000000006001600160a01b0316866001600160a01b0316146111a157816111a3565b825b905060006111b485836103e5612a91565b90506111c1878783612bb6565b60006111e088886111d2858a613df0565b6111db8b612709565b612cf8565b600c54604051638dbdbe6d60e01b815260048101919091526024810182905230604482015290915073f4d73326c13a4fc5fd7a064217e12780e9bd62c390638dbdbe6d90606401600060405180830381600087803b15801561124157600080fd5b505af1158015611255573d6000803e3d6000fd5b505042600d555050604080518c8152602081018c9052808201839052905133917f5cfcfddc631d4395acfe327ac7adc963e174e13aa31bf691832d3e00da432a43919081900360600190a250505050505050505050505b6112b46127cb565b506000805460ff19166001179055565b6000806112d383600019612e00565b91509150915091565b6000805460ff16611300576040516306fda65d60e31b815260040160405180910390fd5b6000805460ff191690556113126127cb565b6113477f00000000000000000000000000000000000000000000000000000000000000006001600160a01b0316333086612f26565b6000611351612f74565b905061135c84613009565b6000611366612f74565b905061137d611373610b27565b6108b48484613df0565b9250600083116113a05760405163f1ca48b160e01b815260040160405180910390fd5b6004546113c4576113b561dead6103e861307c565b6113c16103e884613df0565b92505b6113ce848461307c565b60408051868152602081018590526001600160a01b0386169133917fdcbc1c05240f31ff3ad067ef1ee35ce4997762752e3a095284754544f4c709d7910160405180910390a3505061141e6127cb565b6000805460ff1916600117905592915050565b6002805461092990613e37565b60007f00000000000000000000000000000000000000000000000000000000000000006001600160a01b0316836001600160a01b0316146114c55760405163d06d9b9360e01b81526001600160a01b0380851660048301527f0000000000000000000000000000000000000000000000000000000000000000166024820152604401610a78565b60006114d18584612e00565b159695505050505050565b60005460ff166114ff576040516306fda65d60e31b815260040160405180910390fd5b6000805460ff19169055611511612637565b61152c670de0b6b3a7640000670f43fc2c04ee00008361312f565b600a80549082905560408051828152602081018490527faeba5a6c40a8ac138134bff1aaa65debf25971188a58804bad717f82f0ec131691015b60405180910390a150506000805460ff19166001179055565b60006109b733848461277a565b6000805460ff166115b0576040516306fda65d60e31b815260040160405180910390fd5b6000805460ff19169055336001600160a01b037f000000000000000000000000000000000000000000000000000000000000000016146116345760405163f0f84ccf60e01b81523360048201527f00000000000000000000000000000000000000000000000000000000000000006001600160a01b03166024820152604401610a78565b816116525760405163f3934a2360e01b815260040160405180910390fd5b60008061166185600019612e00565b9150915060008111611690576040516311ef27af60e31b81526004810183905260248101829052604401610a78565b600061169a610b55565b90506116a4610b27565b600a546116b1878461221c565b6116bb9190613dd1565b6116c59190613db1565b6001600160a01b0387166000908152600560205260408120805492965086929091906116f2908490613df0565b90915550506001600160a01b0387166000908152600560205260408120805486929061171f908490613d99565b9091555050600b546000901561183357600b5461173d9086906121ee565b905060007f00000000000000000000000000000000000000000000000000000000000000006001600160a01b0316635b068af86040518163ffffffff1660e01b815260040160206040518083038186803b15801561179a57600080fd5b505afa1580156117ae573d6000803e3d6000fd5b505050506040513d601f19601f820116820180604052508101906117d2919061362a565b6001600160a01b0389166000908152600560205260408120805492935084929091906117ff908490613df0565b90915550506001600160a01b0381166000908152600560205260408120805484929061182c908490613d99565b9091555050505b876001600160a01b0316876001600160a01b03167fddf252ad1be2c89b69c2b068fc378daa952ba7f163c4a11628f55a4df523b3ef8760405161187891815260200190565b60405180910390a350506000805460ff191660011790555090949350505050565b6000805460ff166118bd576040516306fda65d60e31b815260040160405180910390fd5b6000805460ff191690556118cf6127cb565b336001600160a01b0383161461193d576001600160a01b0382166000908152600660209081526040808320338452909152902054600019811461193b576119168582613df0565b6001600160a01b03841660009081526006602090815260408083203384529091529020555b505b61194f611948610b27565b85906121ee565b9050600081116119725760405163e3e8d29760e01b815260040160405180910390fd5b61197b8161316a565b61198582856131b3565b6119b96001600160a01b037f0000000000000000000000000000000000000000000000000000000000000000168483612731565b816001600160a01b0316836001600160a01b03166119d43390565b6001600160a01b03167ffbde797d201c681b91056529119e0b02407c7bb96a4a2c75c01fc9667232c8db8488604051611a17929190918252602082015260400190565b60405180910390a4611a276127cb565b6000805460ff191660011790559392505050565b6001600160a01b03821660009081526005602052604081205480831115611a665760009150506109bb565b6000611a728483613df0565b90506000611a816107de610b27565b604051637d6af07960e01b81526001600160a01b0388811660048301529192506000917f00000000000000000000000000000000000000000000000000000000000000001690637d6af0799060240160206040518083038186803b158015611ae857600080fd5b505afa158015611afc573d6000803e3d6000fd5b505050506040513d601f19601f82011682018060405250810190611b209190613ab6565b90506000611b2e8383613201565b159998505050505050505050565b6001600160a01b038716611b6357604051639a321bc760e01b815260040160405180910390fd5b6001600160a01b038616611b8a576040516353fbd1d760e01b815260040160405180910390fd5b42841015611bb45760405163075dd20f60e41b815242600482015260248101859052604401610a78565b6001600160a01b0387811660008181526007602090815260408083208054600180820190925582517f6e71edae12b1b97f4d1f60370fef10105fa2faae0126114a169c64845d6126c98186015280840196909652958c166060860152608085018b905260a085019590955260c08085018a90528151808603909101815260e08501825280519083012061190160f01b6101008601527f000000000000000000000000000000000000000000000000000000000000000061010286015261012280860182905282518087039091018152610142860180845281519185019190912090859052610162860180845281905260ff8a166101828701526101a286018990526101c2860188905291519095919491926101e2808401939192601f1981019281900390910190855afa158015611cef573d6000803e3d6000fd5b5050604051601f1901519150506001600160a01b038116611d2357604051637386dbbb60e11b815260040160405180910390fd5b896001600160a01b0316816001600160a01b031614611d775760405163a1d5f2ed60e01b81526001600160a01b038b16600482015260ff871660248201526044810186905260648101859052608401610a78565b6001600160a01b038a81166000818152600660209081526040808320948e16808452948252918290208c905590518b81527f8c5be1e5ebec7d5bd14f71427d1e84f3dd0314c0f7b2291e5b200ac8c7c3b925910160405180910390a350505050505050505050565b60005460ff16611e02576040516306fda65d60e31b815260040160405180910390fd5b6000805460ff19169055611e14612637565b600019600c541415611e2657600c8190555b611e677f000000000000000000000000000000000000000000000000000000000000000073f4d73326c13a4fc5fd7a064217e12780e9bd62c360001961327b565b611e9c73d4d42f0b6def4ce0383636770ef773390d85c61a731111111254eeb25477b68fb85ed929f73a96058260001961327b565b604080516001600160a01b037f00000000000000000000000000000000000000000000000000000000000000001681527f00000000000000000000000000000000000000000000000000000000000000006020820152338183015290517f98ccebae89f16f152c93c6a0cdc0d99913b9e62a9fc612471c21ffc299c389fd9181900360600190a1506000805460ff19166001179055565b60005460ff16611f56576040516306fda65d60e31b815260040160405180910390fd5b6000805460ff19169055611f68612637565b611f83670b1a2bc2ec500000670de0b6b3a76400008361312f565b600980549082905560408051828152602081018490527ff25d2243e4128e51523d8537f04f18c3e6390bbfc6323390a9a8e59b921ce0469101611566565b60005460ff16611fe4576040516306fda65d60e31b815260040160405180910390fd5b6000805460ff19169055611ff66127cb565b6000831161201757604051632a28590560e01b815260040160405180910390fd5b600854831115612048576008546040516345a1e23f60e11b8152610a78918591600401918252602082015260400190565b6120518361316a565b6120856001600160a01b037f0000000000000000000000000000000000000000000000000000000000000000168585612731565b80156120f05760405163989bebcf60e01b81526001600160a01b0385169063989bebcf906120bd903390879087908790600401613ba4565b600060405180830381600087803b1580156120d757600080fd5b505af11580156120eb573d6000803e3d6000fd5b505050505b306000908152600560205260408120549061211361210c610b27565b869061221c565b90508082101561214057604051633ff6a11160e01b81526004810183905260248101829052604401610a78565b61214a30836131b3565b50506121546127cb565b50506000805460ff191660011790555050565b60005460ff1661218a576040516306fda65d60e31b815260040160405180910390fd5b6000805460ff1916905561219c612637565b6121b0600067016345785d8a00008361312f565b600b80549082905560408051828152602081018490527f87272249f1056ec16a68dd9255101358246dd26a796e2f0bc6b3a0ad02f2de419101611566565b60008160001904831182021561220c5763bac65e5b6000526004601cfd5b50670de0b6b3a764000091020490565b60007812725dd1d243aba0e75fe645cc4873f9e65afe688c928e1f218311670de0b6b3a76400000215820261225957637c5f487d6000526004601cfd5b50670de0b6b3a7640000919091020490565b33321461229357604051632f7a9fa160e21b8152336004820152326024820152604401610a78565b565b600c5460405163c346253d60e01b81526004810191909152600090819073f4d73326c13a4fc5fd7a064217e12780e9bd62c39063c346253d9060240160206040518083038186803b1580156122e957600080fd5b505afa1580156122fd573d6000803e3d6000fd5b505050506040513d601f19601f82011682018060405250810190612321919061362a565b90506001600160a01b038116156124fb57600c5460405163d63b3c4960e01b815260048101919091523060248201526000604482018190529081906001600160a01b0384169063d63b3c499060640160006040518083038186803b15801561238857600080fd5b505afa15801561239c573d6000803e3d6000fd5b505050506040513d6000823e601f3d908101601f191682016040526123c491908101906138e3565b600c54604051630c7e663b60e11b81526004810191909152306024820152919350915073f4d73326c13a4fc5fd7a064217e12780e9bd62c3906318fccc7690604401600060405180830381600087803b15801561242057600080fd5b505af1158015612434573d6000803e3d6000fd5b5050505060005b82518110156124f357600082828151811061246657634e487b7160e01b600052603260045260246000fd5b602002602001015111156124e1576124e183828151811061249757634e487b7160e01b600052603260045260246000fd5b602002602001015173d4d42f0b6def4ce0383636770ef773390d85c61a8484815181106124d457634e487b7160e01b600052603260045260246000fd5b6020026020010151612bb6565b806124eb81613e6c565b91505061243b565b50505061256b565b600c54604051630c7e663b60e11b8152600481019190915230602482015273f4d73326c13a4fc5fd7a064217e12780e9bd62c3906318fccc7690604401600060405180830381600087803b15801561255257600080fd5b505af1158015612566573d6000803e3d6000fd5b505050505b610b4f73d4d42f0b6def4ce0383636770ef773390d85c61a612709565b6001600160a01b0383166125af576040516317ba2d8b60e11b815260040160405180910390fd5b6001600160a01b0382166125d657604051632cc8a69760e11b815260040160405180910390fd5b6001600160a01b0383811660008181526006602090815260408083209487168084529482529182902085905590518481527f8c5be1e5ebec7d5bd14f71427d1e84f3dd0314c0f7b2291e5b200ac8c7c3b925910160405180910390a3505050565b60007f00000000000000000000000000000000000000000000000000000000000000006001600160a01b031663f851a4406040518163ffffffff1660e01b815260040160206040518083038186803b15801561269257600080fd5b505afa1580156126a6573d6000803e3d6000fd5b505050506040513d601f19601f820116820180604052508101906126ca919061362a565b9050336001600160a01b0382161461270657604051633e7c764160e21b81523360048201526001600160a01b0382166024820152604401610a78565b50565b60006370a08231600052306020526020806024601c855afa601f3d1116602051029050919050565b81601a5280603a5269a9059cbb00000000000060005260206000604460166000875af13d156001600051141716612770576390b8ec186000526004601cfd5b6000603a52505050565b6127848382611a3b565b6127bb57604051633595d14560e21b81526001600160a01b0380851660048301528316602482015260448101829052606401610a78565b6127c683838361331d565b505050565b60006127d5612f74565b60088190556040518181529091507f8a0df8ef054fae2c3d2d19a7b322e864870cc9fd3cb07fb9526309c596244bf49060200160405180910390a150565b6000806000808580602001905181019061282d9190613646565b935050925092508482608001511461284757608082018590525b81516001600160a01b031673d4d42f0b6def4ce0383636770ef773390d85c61a146128ad57815160405163293b7e4560e11b81526001600160a01b03909116600482015273d4d42f0b6def4ce0383636770ef773390d85c61a6024820152604401610a78565b7f00000000000000000000000000000000000000000000000000000000000000006001600160a01b031682602001516001600160a01b03161415801561292957507f00000000000000000000000000000000000000000000000000000000000000006001600160a01b031682602001516001600160a01b031614155b15612981576020820151604051638173363560e01b81526001600160a01b0391821660048201527f00000000000000000000000000000000000000000000000000000000000000009091166024820152604401610a78565b60608201516001600160a01b031630146129c557606082015160405163024b424960e01b81526001600160a01b039091166004820152306024820152604401610a78565b6129ec8260000151731111111254eeb25477b68fb85ed929f73a960582846080015161327b565b604080516000815260208101918290526312aa3caf60e01b909152731111111254eeb25477b68fb85ed929f73a960582906312aa3caf90612a3590869086908660248201613bea565b6040805180830381600087803b158015612a4e57600080fd5b505af1158015612a62573d6000803e3d6000fd5b505050506040513d601f19601f82011682018060405250810190612a869190613b28565b509695505050505050565b60008083612aa1846103e8613d99565b612aab9190613dd1565b905060008385612abd886103e8613dd1565b612ac79190613dd1565b612ad2906004613dd1565b612adc9190613dd1565b90506000612b8482612aee8580613dd1565b612af89190613d99565b70ffffffffffffffffffffffffffffffffff811160071b81811c68ffffffffffffffffff1060061b1781811c64ffffffffff1060051b1781811c62ffffff1060041b1781811c620100000160b5600192831c1b0260121c80830401811c80830401811c80830401811c80830401811c80830401811c80830401811c80830401901c908190048111900390565b90506000612b93866002613dd1565b905080612ba08584613df0565b612baa9190613db1565b98975050505050505050565b604080516002808252606082018352600092602083019080368337019050509050838382600081518110612bfa57634e487b7160e01b600052603260045260246000fd5b6020026020010183600181518110612c2257634e487b7160e01b600052603260045260246000fd5b6001600160a01b03938416602091820292909201015291169052612c5b84731b02da8cb0d097eb8d57a175b88c7d8b479975068461327b565b6040516338ed173960e01b8152731b02da8cb0d097eb8d57a175b88c7d8b47997506906338ed173990612c9b908590600090869030904290600401613c83565b600060405180830381600087803b158015612cb557600080fd5b505af1158015612cc9573d6000803e3d6000fd5b505050506040513d6000823e601f3d908101601f19168201604052612cf191908101906139a9565b5050505050565b6000612d1985731b02da8cb0d097eb8d57a175b88c7d8b479975068561327b565b612d3884731b02da8cb0d097eb8d57a175b88c7d8b479975068461327b565b60405162e8e33760e81b81526001600160a01b03808716600483015285166024820152604481018490526064810183905260006084820181905260a48201523060c48201524260e4820152731b02da8cb0d097eb8d57a175b88c7d8b479975069063e8e337009061010401606060405180830381600087803b158015612dbd57600080fd5b505af1158015612dd1573d6000803e3d6000fd5b505050506040513d601f19601f82011682018060405250810190612df59190613b4b565b979650505050505050565b6000806001600160a01b038416612e3b5760405163a5075cd160e01b81526001600160a01b0385166004820152326024820152604401610a78565b600019831415612ee157604051637d6af07960e01b81526001600160a01b0385811660048301527f00000000000000000000000000000000000000000000000000000000000000001690637d6af0799060240160206040518083038186803b158015612ea657600080fd5b505afa158015612eba573d6000803e3d6000fd5b505050506040513d601f19601f82011682018060405250810190612ede9190613ab6565b92505b6000612f0d612eee610b27565b6001600160a01b038716600090815260056020526040902054906121ee565b9050612f198185613201565b92509250505b9250929050565b6040516323b872dd600052836020528260405281606052602060006064601c6000895af13d156001600051141716612f6657637939f4246000526004601cfd5b600060605260405250505050565b600c546040516393f1a40b60e01b8152600481019190915230602482015260009073f4d73326c13a4fc5fd7a064217e12780e9bd62c3906393f1a40b90604401604080518083038186803b158015612fcb57600080fd5b505afa158015612fdf573d6000803e3d6000fd5b505050506040513d601f19601f820116820180604052508101906130039190613b28565b50919050565b600c54604051638dbdbe6d60e01b815260048101919091526024810182905230604482015273f4d73326c13a4fc5fd7a064217e12780e9bd62c390638dbdbe6d906064015b600060405180830381600087803b15801561306857600080fd5b505af1158015612cf1573d6000803e3d6000fd5b6001600160a01b0382166130a35760405163237813dd60e01b815260040160405180910390fd5b6001600160a01b038216600090815260056020526040812080548392906130cb908490613d99565b9250508190555080600460008282546130e49190613d99565b90915550506040518181526001600160a01b038316906000907fddf252ad1be2c89b69c2b068fc378daa952ba7f163c4a11628f55a4df523b3ef906020015b60405180910390a35050565b8281108061313c57508181115b156127c65760405162ccc44d60e41b8152600481018490526024810183905260448101829052606401610a78565b600c54604051630ad58d2f60e01b815260048101919091526024810182905230604482015273f4d73326c13a4fc5fd7a064217e12780e9bd62c390630ad58d2f9060640161304e565b6131bd8282611a3b565b6131f357604051633595d14560e21b81526001600160a01b03831660048201526000602482015260448101829052606401610a78565b6131fd8282613440565b5050565b600080600061320e610b55565b9050600061321c86836121ee565b90506000613235600954836121ee90919063ffffffff16565b90506000613253600b54600a5461324c9190613d99565b88906121ee565b905080821061326c579003935060009250612f1f915050565b60009550039250612f1f915050565b604051636eb1769f60e11b81523060048201526001600160a01b03838116602483015282919085169063dd62ed3e9060440160206040518083038186803b1580156132c557600080fd5b505afa1580156132d9573d6000803e3d6000fd5b505050506040513d601f19601f820116820180604052508101906132fd9190613ab6565b1061330757505050565b6127c66001600160a01b038416836000196134eb565b6001600160a01b0383166133445760405163618a6e7d60e11b815260040160405180910390fd5b6001600160a01b03821661336b5760405163446ebce960e01b815260040160405180910390fd5b6001600160a01b038316600090815260056020526040902054818110156133af5760405163355a868d60e01b81526004810182905260248101839052604401610a78565b6001600160a01b038085166000908152600560205260408082208585039055918516815290812080548492906133e6908490613d99565b92505081905550826001600160a01b0316846001600160a01b03167fddf252ad1be2c89b69c2b068fc378daa952ba7f163c4a11628f55a4df523b3ef8460405161343291815260200190565b60405180910390a350505050565b6001600160a01b03821661346757604051630b5da42b60e01b815260040160405180910390fd5b6001600160a01b0382166000908152600560205260408120805483929061348f908490613df0565b9250508190555080600460008282546134a89190613df0565b90915550506040518181526000906001600160a01b038416907fddf252ad1be2c89b69c2b068fc378daa952ba7f163c4a11628f55a4df523b3ef90602001613123565b81601a5280603a5269095ea7b300000000000060005260206000604460166000875af13d15600160005114171661277057633e3f8f736000526004601cfd5b600082601f83011261353a578081fd5b8151602061354f61354a83613d4d565b613d1c565b80838252828201915082860187848660051b890101111561356e578586fd5b855b8581101561358c57815184529284019290840190600101613570565b5090979650505050505050565b600082601f8301126135a9578081fd5b81516135b761354a82613d71565b8181528460208386010111156135cb578283fd5b6135dc826020830160208701613e07565b949350505050565b80516dffffffffffffffffffffffffffff8116811461360257600080fd5b919050565b600060208284031215613618578081fd5b813561362381613eb3565b9392505050565b60006020828403121561363b578081fd5b815161362381613eb3565b60008060008084860361014081121561365d578384fd5b855161366881613eb3565b945060e0601f198201121561367b578384fd5b50613684613cf3565b602086015161369281613eb3565b815260408601516136a281613eb3565b602082015260608601516136b581613eb3565b604082015260808601516136c881613eb3565b8060608301525060a0860151608082015260c086015160a082015260e086015160c08201528093505061010085015167ffffffffffffffff8082111561370c578384fd5b61371888838901613599565b935061012087015191508082111561372e578283fd5b5061373b87828801613599565b91505092959194509250565b60008060408385031215613759578182fd5b823561376481613eb3565b9150602083013561377481613eb3565b809150509250929050565b600080600060608486031215613793578283fd5b833561379e81613eb3565b925060208401356137ae81613eb3565b929592945050506040919091013590565b600080600080600080600060e0888a0312156137d9578485fd5b87356137e481613eb3565b965060208801356137f481613eb3565b95506040880135945060608801359350608088013560ff81168114613817578384fd5b9699959850939692959460a0840135945060c09093013592915050565b60008060408385031215613846578182fd5b823561385181613eb3565b946020939093013593505050565b60008060008060608587031215613874578182fd5b843561387f81613eb3565b935060208501359250604085013567ffffffffffffffff808211156138a2578384fd5b818701915087601f8301126138b5578384fd5b8135818111156138c3578485fd5b8860208285010111156138d4578485fd5b95989497505060200194505050565b600080604083850312156138f5578182fd5b825167ffffffffffffffff8082111561390c578384fd5b818501915085601f83011261391f578384fd5b8151602061392f61354a83613d4d565b8083825282820191508286018a848660051b890101111561394e578889fd5b8896505b8487101561397957805161396581613eb3565b835260019690960195918301918301613952565b5091880151919650909350505080821115613992578283fd5b5061399f8582860161352a565b9150509250929050565b6000602082840312156139ba578081fd5b815167ffffffffffffffff8111156139d0578182fd5b6135dc8482850161352a565b6000602082840312156139ed578081fd5b813567ffffffffffffffff811115613a03578182fd5b8201601f81018413613a13578182fd5b8035613a2161354a82613d71565b818152856020838501011115613a35578384fd5b81602084016020830137908101602001929092525092915050565b600080600060608486031215613a64578081fd5b613a6d846135e4565b9250613a7b602085016135e4565b9150604084015163ffffffff81168114613a93578182fd5b809150509250925092565b600060208284031215613aaf578081fd5b5035919050565b600060208284031215613ac7578081fd5b5051919050565b60008060408385031215613ae0578182fd5b82359150602083013561377481613eb3565b600080600060608486031215613b06578081fd5b833592506020840135613b1881613eb3565b91506040840135613a9381613eb3565b60008060408385031215613b3a578182fd5b505080516020909101519092909150565b600080600060608486031215613b5f578081fd5b8351925060208401519150604084015190509250925092565b60008151808452613b90816020860160208601613e07565b601f01601f19169290920160200192915050565b6001600160a01b038516815283602082015260606040820152816060820152818360808301376000818301608090810191909152601f909201601f191601019392505050565b60006101406001600160a01b03808816845280875116602085015280602088015116604085015280604088015116606085015280606088015116608085015250608086015160a084015260a086015160c084015260c086015160e084015280610100840152613c5b81840186613b78565b9050828103610120840152612df58185613b78565b6020815260006136236020830184613b78565b600060a082018783526020878185015260a0604085015281875180845260c0860191508289019350845b81811015613cd25784516001600160a01b031683529383019391830191600101613cad565b50506001600160a01b03969096166060850152505050608001529392505050565b60405160e0810167ffffffffffffffff81118282101715613d1657613d16613e9d565b60405290565b604051601f8201601f1916810167ffffffffffffffff81118282101715613d4557613d45613e9d565b604052919050565b600067ffffffffffffffff821115613d6757613d67613e9d565b5060051b60200190565b600067ffffffffffffffff821115613d8b57613d8b613e9d565b50601f01601f191660200190565b60008219821115613dac57613dac613e87565b500190565b600082613dcc57634e487b7160e01b81526012600452602481fd5b500490565b6000816000190483118215151615613deb57613deb613e87565b500290565b600082821015613e0257613e02613e87565b500390565b60005b83811015613e22578181015183820152602001613e0a565b83811115613e31576000848401525b50505050565b600181811c90821680613e4b57607f821691505b6020821081141561300357634e487b7160e01b600052602260045260246000fd5b6000600019821415613e8057613e80613e87565b5060010190565b634e487b7160e01b600052601160045260246000fd5b634e487b7160e01b600052604160045260246000fd5b6001600160a01b038116811461270657600080fdfea2646970667358221220ce9c4f2fe07190448ff10d39110ca8b4698b136fc1f0bb6b32b861b61432534064736f6c63430008040033a264697066735822122011f374d4c53106aa937f7e4b84332699eb3bd1a3bc58ce3982a27cf8fbaef93064736f6c63430008040033",
  "linkReferences": {},
  "deployedLinkReferences": {}
}