{
  "_format": "hh-sol-artifact-1",
  "contractName": "CygnusBorrowInterest",
  "sourceName": "contracts/cygnus-core/CygnusBorrowInterest.sol",
  "abi": [
    {
      "inputs": [],
      "stateMutability": "nonpayable",
      "type": "constructor"
    },
    {
      "inputs": [
        {
          "internalType": "address",
          "name": "currentTracker",
          "type": "address"
        },
        {
          "internalType": "address",
          "name": "newTracker",
          "type": "address"
        }
      ],
      "name": "CygnusBorrowControl__BorrowTrackerAlreadySet",
      "type": "error"
    },
    {
      "inputs": [
        {
          "internalType": "uint256",
          "name": "minRange",
          "type": "uint256"
        },
        {
          "internalType": "uint256",
          "name": "maxRange",
          "type": "uint256"
        },
        {
          "internalType": "uint256",
          "name": "value",
          "type": "uint256"
        }
      ],
      "name": "CygnusBorrowControl__ParameterNotInRange",
      "type": "error"
    },
    {
      "inputs": [
        {
          "internalType": "uint256",
          "name": "",
          "type": "uint256"
        }
      ],
      "name": "CygnusTerminal__CantMintZero",
      "type": "error"
    },
    {
      "inputs": [
        {
          "internalType": "uint256",
          "name": "",
          "type": "uint256"
        }
      ],
      "name": "CygnusTerminal__CantRedeemZero",
      "type": "error"
    },
    {
      "inputs": [
        {
          "internalType": "address",
          "name": "caller",
          "type": "address"
        },
        {
          "internalType": "address",
          "name": "factoryAdmin",
          "type": "address"
        }
      ],
      "name": "CygnusTerminal__MsgSenderNotAdmin",
      "type": "error"
    },
    {
      "inputs": [
        {
          "internalType": "address",
          "name": "",
          "type": "address"
        }
      ],
      "name": "CygnusTerminal__MsgSenderNotFactory",
      "type": "error"
    },
    {
      "inputs": [
        {
          "internalType": "uint256",
          "name": "invalidAmount",
          "type": "uint256"
        },
        {
          "internalType": "uint256",
          "name": "contractBalance",
          "type": "uint256"
        }
      ],
      "name": "CygnusTerminal__RedeemAmountInvalid",
      "type": "error"
    },
    {
      "inputs": [
        {
          "internalType": "uint8",
          "name": "v",
          "type": "uint8"
        },
        {
          "internalType": "bytes32",
          "name": "r",
          "type": "bytes32"
        },
        {
          "internalType": "bytes32",
          "name": "s",
          "type": "bytes32"
        }
      ],
      "name": "Erc20Permit__InvalidSignature",
      "type": "error"
    },
    {
      "inputs": [],
      "name": "Erc20Permit__OwnerZeroAddress",
      "type": "error"
    },
    {
      "inputs": [
        {
          "internalType": "uint256",
          "name": "deadline",
          "type": "uint256"
        }
      ],
      "name": "Erc20Permit__PermitExpired",
      "type": "error"
    },
    {
      "inputs": [],
      "name": "Erc20Permit__RecoveredOwnerZeroAddress",
      "type": "error"
    },
    {
      "inputs": [],
      "name": "Erc20Permit__SpenderZeroAddress",
      "type": "error"
    },
    {
      "inputs": [],
      "name": "Erc20__ApproveOwnerZeroAddress",
      "type": "error"
    },
    {
      "inputs": [],
      "name": "Erc20__ApproveSpenderZeroAddress",
      "type": "error"
    },
    {
      "inputs": [
        {
          "internalType": "uint256",
          "name": "accountBalance",
          "type": "uint256"
        },
        {
          "internalType": "uint256",
          "name": "burnAmount",
          "type": "uint256"
        }
      ],
      "name": "Erc20__BurnUnderflow",
      "type": "error"
    },
    {
      "inputs": [],
      "name": "Erc20__BurnZeroAddress",
      "type": "error"
    },
    {
      "inputs": [
        {
          "internalType": "uint256",
          "name": "allowance",
          "type": "uint256"
        },
        {
          "internalType": "uint256",
          "name": "amount",
          "type": "uint256"
        }
      ],
      "name": "Erc20__InsufficientAllowance",
      "type": "error"
    },
    {
      "inputs": [
        {
          "internalType": "uint256",
          "name": "senderBalance",
          "type": "uint256"
        },
        {
          "internalType": "uint256",
          "name": "amount",
          "type": "uint256"
        }
      ],
      "name": "Erc20__InsufficientBalance",
      "type": "error"
    },
    {
      "inputs": [],
      "name": "Erc20__MintZeroAddress",
      "type": "error"
    },
    {
      "inputs": [],
      "name": "Erc20__TransferRecipientZeroAddress",
      "type": "error"
    },
    {
      "inputs": [],
      "name": "Erc20__TransferSenderZeroAddress",
      "type": "error"
    },
    {
      "inputs": [
        {
          "internalType": "uint256",
          "name": "prod1",
          "type": "uint256"
        }
      ],
      "name": "PRBMath__MulDivFixedPointOverflow",
      "type": "error"
    },
    {
      "inputs": [
        {
          "internalType": "uint256",
          "name": "prod1",
          "type": "uint256"
        },
        {
          "internalType": "uint256",
          "name": "denominator",
          "type": "uint256"
        }
      ],
      "name": "PRBMath__MulDivOverflow",
      "type": "error"
    },
    {
      "inputs": [],
      "name": "ReentrantCall",
      "type": "error"
    },
    {
      "inputs": [
        {
          "internalType": "address",
          "name": "target",
          "type": "address"
        }
      ],
      "name": "SafeErc20__CallToNonContract",
      "type": "error"
    },
    {
      "inputs": [],
      "name": "SafeErc20__NoReturnData",
      "type": "error"
    },
    {
      "anonymous": false,
      "inputs": [
        {
          "indexed": true,
          "internalType": "address",
          "name": "owner",
          "type": "address"
        },
        {
          "indexed": true,
          "internalType": "address",
          "name": "spender",
          "type": "address"
        },
        {
          "indexed": false,
          "internalType": "uint256",
          "name": "amount",
          "type": "uint256"
        }
      ],
      "name": "Approval",
      "type": "event"
    },
    {
      "anonymous": false,
      "inputs": [
        {
          "indexed": true,
          "internalType": "address",
          "name": "sender",
          "type": "address"
        },
        {
          "indexed": true,
          "internalType": "address",
          "name": "minter",
          "type": "address"
        },
        {
          "indexed": false,
          "internalType": "uint256",
          "name": "mintAmount",
          "type": "uint256"
        },
        {
          "indexed": false,
          "internalType": "uint256",
          "name": "poolTokens",
          "type": "uint256"
        }
      ],
      "name": "Mint",
      "type": "event"
    },
    {
      "anonymous": false,
      "inputs": [
        {
          "indexed": false,
          "internalType": "uint256",
          "name": "oldBaseRatePerYear",
          "type": "uint256"
        },
        {
          "indexed": false,
          "internalType": "uint256",
          "name": "newBaseRatePerYear",
          "type": "uint256"
        }
      ],
      "name": "NewBaseRate",
      "type": "event"
    },
    {
      "anonymous": false,
      "inputs": [
        {
          "indexed": false,
          "internalType": "address",
          "name": "oldBorrowTracker",
          "type": "address"
        },
        {
          "indexed": false,
          "internalType": "address",
          "name": "newBorrowTracker",
          "type": "address"
        }
      ],
      "name": "NewCygnusBorrowTracker",
      "type": "event"
    },
    {
      "anonymous": false,
      "inputs": [
        {
          "indexed": false,
          "internalType": "uint256",
          "name": "baseRatePerYear",
          "type": "uint256"
        },
        {
          "indexed": false,
          "internalType": "uint256",
          "name": "multiplierPerYear",
          "type": "uint256"
        },
        {
          "indexed": false,
          "internalType": "uint256",
          "name": "kinkMultiplier_",
          "type": "uint256"
        }
      ],
      "name": "NewInterestRateParameters",
      "type": "event"
    },
    {
      "anonymous": false,
      "inputs": [
        {
          "indexed": false,
          "internalType": "uint256",
          "name": "oldKinkMultiplier",
          "type": "uint256"
        },
        {
          "indexed": false,
          "internalType": "uint256",
          "name": "newKinkMultiplier",
          "type": "uint256"
        }
      ],
      "name": "NewKinkMultiplier",
      "type": "event"
    },
    {
      "anonymous": false,
      "inputs": [
        {
          "indexed": false,
          "internalType": "uint256",
          "name": "oldKinkUtilizationRate",
          "type": "uint256"
        },
        {
          "indexed": false,
          "internalType": "uint256",
          "name": "newKinkUtilizationRate",
          "type": "uint256"
        }
      ],
      "name": "NewKinkUtilizationRate",
      "type": "event"
    },
    {
      "anonymous": false,
      "inputs": [
        {
          "indexed": false,
          "internalType": "uint256",
          "name": "oldReserveFactor",
          "type": "uint256"
        },
        {
          "indexed": false,
          "internalType": "uint256",
          "name": "newReserveFactor",
          "type": "uint256"
        }
      ],
      "name": "NewReserveFactor",
      "type": "event"
    },
    {
      "anonymous": false,
      "inputs": [
        {
          "indexed": true,
          "internalType": "address",
          "name": "sender",
          "type": "address"
        },
        {
          "indexed": true,
          "internalType": "address",
          "name": "redeemer",
          "type": "address"
        },
        {
          "indexed": false,
          "internalType": "uint256",
          "name": "redeemAmount",
          "type": "uint256"
        },
        {
          "indexed": false,
          "internalType": "uint256",
          "name": "poolTokens",
          "type": "uint256"
        }
      ],
      "name": "Redeem",
      "type": "event"
    },
    {
      "anonymous": false,
      "inputs": [
        {
          "indexed": false,
          "internalType": "uint256",
          "name": "totalBalance",
          "type": "uint256"
        }
      ],
      "name": "Sync",
      "type": "event"
    },
    {
      "anonymous": false,
      "inputs": [
        {
          "indexed": true,
          "internalType": "address",
          "name": "from",
          "type": "address"
        },
        {
          "indexed": true,
          "internalType": "address",
          "name": "to",
          "type": "address"
        },
        {
          "indexed": false,
          "internalType": "uint256",
          "name": "amount",
          "type": "uint256"
        }
      ],
      "name": "Transfer",
      "type": "event"
    },
    {
      "inputs": [],
      "name": "BASE_RATE_MAX",
      "outputs": [
        {
          "internalType": "uint256",
          "name": "",
          "type": "uint256"
        }
      ],
      "stateMutability": "view",
      "type": "function"
    },
    {
      "inputs": [],
      "name": "DOMAIN_SEPARATOR",
      "outputs": [
        {
          "internalType": "bytes32",
          "name": "",
          "type": "bytes32"
        }
      ],
      "stateMutability": "view",
      "type": "function"
    },
    {
      "inputs": [],
      "name": "KINK_MULTIPLIER_MAX",
      "outputs": [
        {
          "internalType": "uint256",
          "name": "",
          "type": "uint256"
        }
      ],
      "stateMutability": "view",
      "type": "function"
    },
    {
      "inputs": [],
      "name": "KINK_UTILIZATION_RATE_MAX",
      "outputs": [
        {
          "internalType": "uint256",
          "name": "",
          "type": "uint256"
        }
      ],
      "stateMutability": "view",
      "type": "function"
    },
    {
      "inputs": [],
      "name": "KINK_UTILIZATION_RATE_MIN",
      "outputs": [
        {
          "internalType": "uint256",
          "name": "",
          "type": "uint256"
        }
      ],
      "stateMutability": "view",
      "type": "function"
    },
    {
      "inputs": [],
      "name": "PERMIT_TYPEHASH",
      "outputs": [
        {
          "internalType": "bytes32",
          "name": "",
          "type": "bytes32"
        }
      ],
      "stateMutability": "view",
      "type": "function"
    },
    {
      "inputs": [],
      "name": "RESERVE_FACTOR_MAX",
      "outputs": [
        {
          "internalType": "uint256",
          "name": "",
          "type": "uint256"
        }
      ],
      "stateMutability": "view",
      "type": "function"
    },
    {
      "inputs": [],
      "name": "SECONDS_PER_YEAR",
      "outputs": [
        {
          "internalType": "uint32",
          "name": "",
          "type": "uint32"
        }
      ],
      "stateMutability": "view",
      "type": "function"
    },
    {
      "inputs": [
        {
          "internalType": "address",
          "name": "owner",
          "type": "address"
        },
        {
          "internalType": "address",
          "name": "spender",
          "type": "address"
        }
      ],
      "name": "allowance",
      "outputs": [
        {
          "internalType": "uint256",
          "name": "",
          "type": "uint256"
        }
      ],
      "stateMutability": "view",
      "type": "function"
    },
    {
      "inputs": [
        {
          "internalType": "address",
          "name": "spender",
          "type": "address"
        },
        {
          "internalType": "uint256",
          "name": "amount",
          "type": "uint256"
        }
      ],
      "name": "approve",
      "outputs": [
        {
          "internalType": "bool",
          "name": "",
          "type": "bool"
        }
      ],
      "stateMutability": "nonpayable",
      "type": "function"
    },
    {
      "inputs": [
        {
          "internalType": "address",
          "name": "account",
          "type": "address"
        }
      ],
      "name": "balanceOf",
      "outputs": [
        {
          "internalType": "uint256",
          "name": "",
          "type": "uint256"
        }
      ],
      "stateMutability": "view",
      "type": "function"
    },
    {
      "inputs": [],
      "name": "baseRatePerSecond",
      "outputs": [
        {
          "internalType": "uint256",
          "name": "",
          "type": "uint256"
        }
      ],
      "stateMutability": "view",
      "type": "function"
    },
    {
      "inputs": [],
      "name": "chainId",
      "outputs": [
        {
          "internalType": "uint256",
          "name": "",
          "type": "uint256"
        }
      ],
      "stateMutability": "view",
      "type": "function"
    },
    {
      "inputs": [],
      "name": "collateral",
      "outputs": [
        {
          "internalType": "address",
          "name": "",
          "type": "address"
        }
      ],
      "stateMutability": "view",
      "type": "function"
    },
    {
      "inputs": [],
      "name": "cygnusBorrowTracker",
      "outputs": [
        {
          "internalType": "address",
          "name": "",
          "type": "address"
        }
      ],
      "stateMutability": "view",
      "type": "function"
    },
    {
      "inputs": [],
      "name": "decimals",
      "outputs": [
        {
          "internalType": "uint8",
          "name": "",
          "type": "uint8"
        }
      ],
      "stateMutability": "view",
      "type": "function"
    },
    {
      "inputs": [
        {
          "internalType": "address",
          "name": "spender",
          "type": "address"
        },
        {
          "internalType": "uint256",
          "name": "subtractedAmount",
          "type": "uint256"
        }
      ],
      "name": "decreaseAllowance",
      "outputs": [
        {
          "internalType": "bool",
          "name": "",
          "type": "bool"
        }
      ],
      "stateMutability": "nonpayable",
      "type": "function"
    },
    {
      "inputs": [],
      "name": "exchangeRate",
      "outputs": [
        {
          "internalType": "uint256",
          "name": "",
          "type": "uint256"
        }
      ],
      "stateMutability": "view",
      "type": "function"
    },
    {
      "inputs": [],
      "name": "exchangeRateStored",
      "outputs": [
        {
          "internalType": "uint256",
          "name": "",
          "type": "uint256"
        }
      ],
      "stateMutability": "view",
      "type": "function"
    },
    {
      "inputs": [],
      "name": "hangar18",
      "outputs": [
        {
          "internalType": "address",
          "name": "",
          "type": "address"
        }
      ],
      "stateMutability": "view",
      "type": "function"
    },
    {
      "inputs": [
        {
          "internalType": "address",
          "name": "spender",
          "type": "address"
        },
        {
          "internalType": "uint256",
          "name": "addedAmount",
          "type": "uint256"
        }
      ],
      "name": "increaseAllowance",
      "outputs": [
        {
          "internalType": "bool",
          "name": "",
          "type": "bool"
        }
      ],
      "stateMutability": "nonpayable",
      "type": "function"
    },
    {
      "inputs": [],
      "name": "jumpMultiplierPerSecond",
      "outputs": [
        {
          "internalType": "uint256",
          "name": "",
          "type": "uint256"
        }
      ],
      "stateMutability": "view",
      "type": "function"
    },
    {
      "inputs": [],
      "name": "kinkMultiplier",
      "outputs": [
        {
          "internalType": "uint256",
          "name": "",
          "type": "uint256"
        }
      ],
      "stateMutability": "view",
      "type": "function"
    },
    {
      "inputs": [],
      "name": "kinkUtilizationRate",
      "outputs": [
        {
          "internalType": "uint256",
          "name": "",
          "type": "uint256"
        }
      ],
      "stateMutability": "view",
      "type": "function"
    },
    {
      "inputs": [
        {
          "internalType": "address",
          "name": "minter",
          "type": "address"
        }
      ],
      "name": "mint",
      "outputs": [
        {
          "internalType": "uint256",
          "name": "cygnusMintTokens",
          "type": "uint256"
        }
      ],
      "stateMutability": "nonpayable",
      "type": "function"
    },
    {
      "inputs": [],
      "name": "multiplierPerSecond",
      "outputs": [
        {
          "internalType": "uint256",
          "name": "",
          "type": "uint256"
        }
      ],
      "stateMutability": "view",
      "type": "function"
    },
    {
      "inputs": [],
      "name": "name",
      "outputs": [
        {
          "internalType": "string",
          "name": "",
          "type": "string"
        }
      ],
      "stateMutability": "view",
      "type": "function"
    },
    {
      "inputs": [
        {
          "internalType": "address",
          "name": "",
          "type": "address"
        }
      ],
      "name": "nonces",
      "outputs": [
        {
          "internalType": "uint256",
          "name": "",
          "type": "uint256"
        }
      ],
      "stateMutability": "view",
      "type": "function"
    },
    {
      "inputs": [
        {
          "internalType": "address",
          "name": "owner",
          "type": "address"
        },
        {
          "internalType": "address",
          "name": "spender",
          "type": "address"
        },
        {
          "internalType": "uint256",
          "name": "value",
          "type": "uint256"
        },
        {
          "internalType": "uint256",
          "name": "deadline",
          "type": "uint256"
        },
        {
          "internalType": "uint8",
          "name": "v",
          "type": "uint8"
        },
        {
          "internalType": "bytes32",
          "name": "r",
          "type": "bytes32"
        },
        {
          "internalType": "bytes32",
          "name": "s",
          "type": "bytes32"
        }
      ],
      "name": "permit",
      "outputs": [],
      "stateMutability": "nonpayable",
      "type": "function"
    },
    {
      "inputs": [
        {
          "internalType": "address",
          "name": "holder",
          "type": "address"
        }
      ],
      "name": "redeem",
      "outputs": [
        {
          "internalType": "uint256",
          "name": "redeemAmount",
          "type": "uint256"
        }
      ],
      "stateMutability": "nonpayable",
      "type": "function"
    },
    {
      "inputs": [],
      "name": "reserveFactor",
      "outputs": [
        {
          "internalType": "uint256",
          "name": "",
          "type": "uint256"
        }
      ],
      "stateMutability": "view",
      "type": "function"
    },
    {
      "inputs": [
        {
          "internalType": "address",
          "name": "newBorrowTracker",
          "type": "address"
        }
      ],
      "name": "setCygnusBorrowTracker",
      "outputs": [],
      "stateMutability": "nonpayable",
      "type": "function"
    },
    {
      "inputs": [
        {
          "internalType": "uint256",
          "name": "newKinkUtilizationRate",
          "type": "uint256"
        }
      ],
      "name": "setKinkUtilizationRate",
      "outputs": [],
      "stateMutability": "nonpayable",
      "type": "function"
    },
    {
      "inputs": [
        {
          "internalType": "uint256",
          "name": "newReserveFactor",
          "type": "uint256"
        }
      ],
      "name": "setReserveFactor",
      "outputs": [],
      "stateMutability": "nonpayable",
      "type": "function"
    },
    {
      "inputs": [
        {
          "internalType": "address",
          "name": "recipient",
          "type": "address"
        }
      ],
      "name": "skim",
      "outputs": [],
      "stateMutability": "nonpayable",
      "type": "function"
    },
    {
      "inputs": [],
      "name": "symbol",
      "outputs": [
        {
          "internalType": "string",
          "name": "",
          "type": "string"
        }
      ],
      "stateMutability": "view",
      "type": "function"
    },
    {
      "inputs": [],
      "name": "sync",
      "outputs": [],
      "stateMutability": "nonpayable",
      "type": "function"
    },
    {
      "inputs": [],
      "name": "totalBalance",
      "outputs": [
        {
          "internalType": "uint256",
          "name": "",
          "type": "uint256"
        }
      ],
      "stateMutability": "view",
      "type": "function"
    },
    {
      "inputs": [],
      "name": "totalSupply",
      "outputs": [
        {
          "internalType": "uint256",
          "name": "",
          "type": "uint256"
        }
      ],
      "stateMutability": "view",
      "type": "function"
    },
    {
      "inputs": [
        {
          "internalType": "address",
          "name": "recipient",
          "type": "address"
        },
        {
          "internalType": "uint256",
          "name": "amount",
          "type": "uint256"
        }
      ],
      "name": "transfer",
      "outputs": [
        {
          "internalType": "bool",
          "name": "",
          "type": "bool"
        }
      ],
      "stateMutability": "nonpayable",
      "type": "function"
    },
    {
      "inputs": [
        {
          "internalType": "address",
          "name": "sender",
          "type": "address"
        },
        {
          "internalType": "address",
          "name": "recipient",
          "type": "address"
        },
        {
          "internalType": "uint256",
          "name": "amount",
          "type": "uint256"
        }
      ],
      "name": "transferFrom",
      "outputs": [
        {
          "internalType": "bool",
          "name": "",
          "type": "bool"
        }
      ],
      "stateMutability": "nonpayable",
      "type": "function"
    },
    {
      "inputs": [],
      "name": "underlying",
      "outputs": [
        {
          "internalType": "address",
          "name": "",
          "type": "address"
        }
      ],
      "stateMutability": "view",
      "type": "function"
    },
    {
      "inputs": [
        {
          "internalType": "uint256",
          "name": "newBaseRatePerYear",
          "type": "uint256"
        },
        {
          "internalType": "uint256",
          "name": "newMultiplierPerYear",
          "type": "uint256"
        },
        {
          "internalType": "uint256",
          "name": "newKinkMultiplier",
          "type": "uint256"
        }
      ],
      "name": "updateJumpRateModel",
      "outputs": [],
      "stateMutability": "nonpayable",
      "type": "function"
    },
    {
      "inputs": [],
      "name": "version",
      "outputs": [
        {
          "internalType": "string",
          "name": "",
          "type": "string"
        }
      ],
      "stateMutability": "view",
      "type": "function"
    }
  ],
  "bytecode": "0x60e06040524660075566b1a2bc2ec50000601055670b1a2bc2ec5000006011553480156200002c57600080fd5b50604080518082018252600e81526d4379676e75733a20426f72726f7760901b60208083019182528351808501909452600684526543796744414960d01b908401526000805460ff1916600190811790915582519293926012928592859285928592859285926200009e929162000560565b508151620000b490600290602085019062000560565b5060f81b7fff000000000000000000000000000000000000000000000000000000000000001660805250506040517f8b73c3c69bb8fe3d512ecc4cf759cc79239f7b179b0ffacaa9a75d522b39400f90620001129060019062000688565b60408051918290038220828201825260018352603160f81b602093840152600754825193840194909452908201527fc89efdaa54c0f20c7adf612882df0950f5a951637e0307cdcb4c672f298b8bc6606082015260808101919091523060a082015260c00160408051601f19818403018152919052805160209091012060a05250620001a49450506200031592505050565b6001600160a01b0316639a9862366040518163ffffffff1660e01b815260040160c060405180830381600087803b158015620001df57600080fd5b505af1158015620001f4573d6000803e3d6000fd5b505050506040513d601f19601f820116820180604052508101906200021a919062000623565b50505060601b6001600160601b03191660c052600c80546001600160a01b03199081166001600160a01b0393841617909155600d805490911692909116919091179055670de0b6b3a7640000600f556000600381905580806200027a3390565b6001600160a01b0316639a9862366040518163ffffffff1660e01b815260040160c060405180830381600087803b158015620002b557600080fd5b505af1158015620002ca573d6000803e3d6000fd5b505050506040513d601f19601f82011682018060405250810190620002f0919062000623565b9550955095505050506200030c8383836200031960201b60201c565b505050620007b5565b3390565b6200032f60006702c68af0bb140000856200040f565b6200033e6001600a836200040f565b6012819055620003536301e13380846200072b565b60135560115462000383906200036e906301e133806200074c565b836200045760201b620011b51790919060201c565b601481905550620003c6601154620003b284846301e1338063ffffffff166200048060201b620011c61760201c565b6200045760201b620011b51790919060201c565b60155560408051848152602081018490529081018290527fd5624eebb6c71dfd24920f6002bcc6e05cc1f38f7b01f209b84930586ef5bf7e9060600160405180910390a1505050565b828110806200041d57508181115b156200045257604051639e7fe3bd60e01b81526004810184905260248101839052604481018290526064015b60405180910390fd5b505050565b60006200047983670de0b6b3a7640000846200048060201b620011c61760201c565b9392505050565b600080806000198587098587029250828110838203039150508060001415620004cc57838281620004c157634e487b7160e01b600052601260045260246000fd5b049250505062000479565b838110620004f857604051631dcf306360e21b8152600481018290526024810185905260440162000449565b600084868809600260036001881981018916988990049182028318808302840302808302840302808302840302808302840302808302840302918202909203026000889003889004909101858311909403939093029303949094049190911702949350505050565b8280546200056e9062000778565b90600052602060002090601f016020900481019282620005925760008555620005dd565b82601f10620005ad57805160ff1916838001178555620005dd565b82800160010185558215620005dd579182015b82811115620005dd578251825591602001919060010190620005c0565b50620005eb929150620005ef565b5090565b5b80821115620005eb5760008155600101620005f0565b80516001600160a01b03811681146200061e57600080fd5b919050565b60008060008060008060c087890312156200063c578182fd5b620006478762000606565b9550620006576020880162000606565b9450620006676040880162000606565b9350606087015192506080870151915060a087015190509295509295509295565b600080835482600182811c915080831680620006a557607f831692505b6020808410821415620006c657634e487b7160e01b87526022600452602487fd5b818015620006dd5760018114620006ef576200071d565b60ff198616895284890196506200071d565b60008a815260209020885b86811015620007155781548b820152908501908301620006fa565b505084890196505b509498975050505050505050565b6000826200074757634e487b7160e01b81526012600452602481fd5b500490565b60008160001904831182151516156200077357634e487b7160e01b81526011600452602481fd5b500290565b600181811c908216806200078d57607f821691505b60208210811415620007af57634e487b7160e01b600052602260045260246000fd5b50919050565b60805160f81c60a05160c05160601c611e1b620007f2600039600061052b0152600081816103700152610f16015260006103370152611e1b6000f3fe608060405234801561001057600080fd5b50600436106102745760003560e01c80638af70cfc11610151578063d8dfeb45116100c3578063dedffbe711610087578063dedffbe7146105ad578063e3a3d145146105c0578063e6a69ab8146105c8578063e8a24e1d146105e8578063f312b360146105fb578063fff6cae91461060e57600080fd5b8063d8dfeb4514610526578063d90e02641461054d578063d95dc3ac14610556578063d9a107c414610565578063dd62ed3e1461057457600080fd5b8063a457c2d711610115578063a457c2d7146104d1578063a9059cbb146104e4578063ad7a672f146104f7578063bc25cf7714610500578063c72f3fbb14610482578063d505accf1461051357600080fd5b80638af70cfc1461049157806395a2251f146104a457806395d89b41146104b75780639a8a0592146104bf5780639b510998146104c857600080fd5b80633ba0b9a9116101ea5780636a627842116101ae5780636a627842146103f25780636f307dc31461040557806370a082311461043057806372cf84a7146104595780637ecebe001461046257806382ef81721461048257600080fd5b80633ba0b9a9146103a55780634322b714146103ad5780634381b3bf146103b657806346f608ff146103c957806354fd4d50146103d257600080fd5b80631c4469831161023c5780631c446983146102e357806323b872dd146102f857806330adf81f1461030b578063313ce567146103325780633644e5151461036b578063395093511461039257600080fd5b806306fdde0314610279578063095ea7b31461029757806318160ddd146102ba578063182df0f5146102d15780631aebf12f146102da575b600080fd5b610281610616565b60405161028e9190611cae565b60405180910390f35b6102aa6102a5366004611bc9565b6106a4565b604051901515815260200161028e565b6102c360035481565b60405190815260200161028e565b6102c3600f5481565b6102c360115481565b6102f66102f1366004611c14565b6106bb565b005b6102aa610306366004611b14565b610756565b6102c37f6e71edae12b1b97f4d1f60370fef10105fa2faae0126114a169c64845d6126c981565b6103597f000000000000000000000000000000000000000000000000000000000000000081565b60405160ff909116815260200161028e565b6102c37f000000000000000000000000000000000000000000000000000000000000000081565b6102aa6103a0366004611bc9565b6107d1565b6102c3610819565b6102c360105481565b6102f66103c4366004611c14565b610847565b6102c360145481565b610281604051806040016040528060018152602001603160f81b81525081565b6102c3610400366004611aa4565b6108d5565b600c54610418906001600160a01b031681565b6040516001600160a01b03909116815260200161028e565b6102c361043e366004611aa4565b6001600160a01b031660009081526004602052604090205490565b6102c360155481565b6102c3610470366004611aa4565b60066020526000908152604090205481565b6102c36702c68af0bb14000081565b600e54610418906001600160a01b031681565b6102c36104b2366004611aa4565b610bcf565b610281610d51565b6102c360075481565b6102c360125481565b6102aa6104df366004611bc9565b610d5e565b6102aa6104f2366004611bc9565b610d8f565b6102c3600b5481565b6102f661050e366004611aa4565b610d9c565b6102f6610521366004611b54565b610e0d565b6104187f000000000000000000000000000000000000000000000000000000000000000081565b6102c360135481565b6102c36706f05b59d3b2000081565b6102c3670d2f13f7789f000081565b6102c3610582366004611adc565b6001600160a01b03918216600090815260056020908152604080832093909416825291909152205490565b6102f66105bb366004611aa4565b61104a565b6102c3600a81565b6105d36301e1338081565b60405163ffffffff909116815260200161028e565b600d54610418906001600160a01b031681565b6102f6610609366004611c67565b61111f565b6102f6611171565b6001805461062390611d7f565b80601f016020809104026020016040519081016040528092919081815260200182805461064f90611d7f565b801561069c5780601f106106715761010080835404028352916020019161069c565b820191906000526020600020905b81548152906001019060200180831161067f57829003601f168201915b505050505081565b60006106b13384846112a2565b5060015b92915050565b6106c3611351565b60005460ff166106e6576040516306fda65d60e31b815260040160405180910390fd5b6000805460ff19168155610703906702c68af0bb1400008361140d565b601080549082905560408051828152602081018490527faaa68312e2ea9d50e16af5068410ab56e1a1fd06037b1a35664812c30f82146091015b60405180910390a150506000805460ff19166001179055565b600061076384848461144e565b6001600160a01b0384166000908152600560209081526040808320338452909152902054828110156107b757604051632b3ca6f360e11b815260048101829052602481018490526044015b60405180910390fd5b6107c485338584036112a2565b60019150505b9392505050565b3360009081526005602090815260408083206001600160a01b03861684529091528120548190610802908490611ce1565b905061080f3385836112a2565b5060019392505050565b600354600090801561083757600b5461083290826111b5565b610841565b670de0b6b3a76400005b91505090565b61084f611351565b60005460ff16610872576040516306fda65d60e31b815260040160405180910390fd5b6000805460ff191690556108976706f05b59d3b20000670d2f13f7789f00008361140d565b601180549082905560408051828152602081018490527f3708b7f62cb1acca95324fe8062eaff0301e988506521a4ff0374b1e3142cd35910161073d565b6000805460ff166108f9576040516306fda65d60e31b815260040160405180910390fd5b6000805460ff19168155600c546040516370a0823160e01b81523060048201526001600160a01b03909116906370a082319060240160206040518083038186803b15801561094657600080fd5b505afa15801561095a573d6000803e3d6000fd5b505050506040513d601f19601f8201168201806040525081019061097e9190611c2c565b600a5490915060ff1615610b1b576008546009546040516393f1a40b60e01b815260048101919091523060248201526000916001600160a01b0316906393f1a40b90604401604080518083038186803b1580156109da57600080fd5b505afa1580156109ee573d6000803e3d6000fd5b505050506040513d601f19601f82011682018060405250810190610a129190611c44565b50600854600954604051631c57762b60e31b81526004810191909152602481018590529192506001600160a01b03169063e2bbb15890604401600060405180830381600087803b158015610a6557600080fd5b505af1158015610a79573d6000803e3d6000fd5b50506008546009546040516393f1a40b60e01b81526004810191909152306024820152600093506001600160a01b0390911691506393f1a40b90604401604080518083038186803b158015610acd57600080fd5b505afa158015610ae1573d6000803e3d6000fd5b505050506040513d601f19601f82011682018060405250810190610b059190611c44565b509050610b128282611d38565b92505050610b2b565b600b54610b289082611d38565b90505b610b3d610b36610819565b82906111b5565b915060008211610b635760405163cd698f4d60e01b8152600481018390526024016107ae565b610b6d8383611571565b60408051828152602081018490526001600160a01b0385169133917f2f00e3cdd69a77be7ed215ec7b2a36784dd158f921fca79ac29deffa353fe6ee91015b60405180910390a350610bbd611624565b6000805460ff19166001179055919050565b6000805460ff16610bf3576040516306fda65d60e31b815260040160405180910390fd5b6000805460ff1916815530815260046020526040902054610c1c610c15610819565b82906116d9565b915060008211610c42576040516319f4fb4360e31b8152600481018390526024016107ae565b600b54821115610c7357600b546040516339eff09f60e11b81526107ae918491600401918252602082015260400190565b610c7d30826116e5565b600a5460ff1615610cf757600854600954604051630441a3e760e41b81526001600160a01b039092169163441a3e7091610cc4918690600401918252602082015260400190565b600060405180830381600087803b158015610cde57600080fd5b505af1158015610cf2573d6000803e3d6000fd5b505050505b600c54610d0e906001600160a01b03168484611790565b60408051838152602081018390526001600160a01b0385169133917f3f693fff038bb8a046aa76d9516190ac7444f7d69cf952c4cbdc086fdef2d6fc9101610bac565b6002805461062390611d7f565b3360009081526005602090815260408083206001600160a01b03861684529091528120548190610802908490611d38565b60006106b133848461144e565b60005460ff16610dbf576040516306fda65d60e31b815260040160405180910390fd5b6000805460ff19168155600b543082526004602052604090912054610dfd918391610dea9190611d38565b600c546001600160a01b03169190611790565b506000805460ff19166001179055565b6001600160a01b038716610e345760405163bc622b6360e01b815260040160405180910390fd5b6001600160a01b038616610e5b57604051632853494b60e11b815260040160405180910390fd5b42841015610e7f5760405163212ed8bb60e11b8152600481018590526024016107ae565b6001600160a01b0387811660008181526006602090815260408083208054600180820190925582517f6e71edae12b1b97f4d1f60370fef10105fa2faae0126114a169c64845d6126c98186015280840196909652958c166060860152608085018b905260a085019590955260c08085018a90528151808603909101815260e08501825280519083012061190160f01b6101008601527f000000000000000000000000000000000000000000000000000000000000000061010286015261012280860182905282518087039091018152610142860180845281519185019190912090859052610162860180845281905260ff8a166101828701526101a286018990526101c2860188905291519095919491926101e2808401939192601f1981019281900390910190855afa158015610fba573d6000803e3d6000fd5b5050604051601f1901519150506001600160a01b038116610fee57604051630f81234f60e31b815260040160405180910390fd5b896001600160a01b0316816001600160a01b03161461103357604051630b76193960e31b815260ff8716600482015260248101869052604481018590526064016107ae565b61103e8a8a8a6112a2565b50505050505050505050565b611052611351565b60005460ff16611075576040516306fda65d60e31b815260040160405180910390fd5b6000805460ff19169055600e546001600160a01b03828116911614156110c557600e54604051635ab3b76b60e01b81526001600160a01b03918216600482015290821660248201526044016107ae565b600e80546001600160a01b038381166001600160a01b031983168117909355604080519190921680825260208201939093527fd055869d156456dabc9c0a740d75ad5b923e2974a5cca031f7a00b3d1b0c11d8910161073d565b611127611351565b60005460ff1661114a576040516306fda65d60e31b815260040160405180910390fd5b6000805460ff1916905561115f8383836117e2565b50506000805460ff1916600117905550565b60005460ff16611194576040516306fda65d60e31b815260040160405180910390fd5b6000805460ff191690556111a6611624565b6000805460ff19166001179055565b60006107ca83670de0b6b3a7640000845b60008080600019858709858702925082811083820303915050806000141561120f5783828161120557634e487b7160e01b600052601260045260246000fd5b04925050506107ca565b83811061123957604051631dcf306360e21b815260048101829052602481018590526044016107ae565b60008486880960026001871981018816978890046003810283188082028403028082028403028082028403028082028403028082028403029081029092039091026000889003889004909101858311909403939093029303949094049190911702949350505050565b6001600160a01b0383166112c95760405163230326bf60e11b815260040160405180910390fd5b6001600160a01b0382166112f057604051630b39ecd960e21b815260040160405180910390fd5b6001600160a01b0383811660008181526005602090815260408083209487168084529482529182902085905590518481527f8c5be1e5ebec7d5bd14f71427d1e84f3dd0314c0f7b2291e5b200ac8c7c3b925910160405180910390a3505050565b600d54604080516303e1469160e61b815290516000926001600160a01b03169163f851a440916004808301926020929190829003018186803b15801561139657600080fd5b505afa1580156113aa573d6000803e3d6000fd5b505050506040513d601f19601f820116820180604052508101906113ce9190611ac0565b9050336001600160a01b0382161461140a57604051633e7c764160e21b81523360048201526001600160a01b03821660248201526044016107ae565b50565b8281108061141a57508181115b1561144957604051639e7fe3bd60e01b81526004810184905260248101839052604481018290526064016107ae565b505050565b6001600160a01b0383166114755760405163907bfbd760e01b815260040160405180910390fd5b6001600160a01b03821661149c57604051637184c13f60e01b815260040160405180910390fd5b6001600160a01b038316600090815260046020526040902054818110156114e057604051632dcf2e2160e21b815260048101829052602481018390526044016107ae565b6001600160a01b03808516600090815260046020526040808220858503905591851681529081208054849290611517908490611ce1565b92505081905550826001600160a01b0316846001600160a01b03167fddf252ad1be2c89b69c2b068fc378daa952ba7f163c4a11628f55a4df523b3ef8460405161156391815260200190565b60405180910390a350505050565b6001600160a01b0382166115985760405163139241eb60e01b815260040160405180910390fd5b6001600160a01b038216600090815260046020526040812080548392906115c0908490611ce1565b9250508190555080600360008282546115d99190611ce1565b90915550506040518181526001600160a01b038316906000907fddf252ad1be2c89b69c2b068fc378daa952ba7f163c4a11628f55a4df523b3ef906020015b60405180910390a35050565b600c546040516370a0823160e01b81523060048201526001600160a01b03909116906370a082319060240160206040518083038186803b15801561166757600080fd5b505afa15801561167b573d6000803e3d6000fd5b505050506040513d601f19601f8201168201806040525081019061169f9190611c2c565b600b8190556040519081527f8a0df8ef054fae2c3d2d19a7b322e864870cc9fd3cb07fb9526309c596244bf49060200160405180910390a1565b60006107ca838361189d565b6001600160a01b03821661170c57604051638e35e80360e01b815260040160405180910390fd5b6001600160a01b03821660009081526004602052604081208054839290611734908490611d38565b92505081905550806003600082825461174d9190611d38565b90915550506040518181526000906001600160a01b038416907fddf252ad1be2c89b69c2b068fc378daa952ba7f163c4a11628f55a4df523b3ef90602001611618565b604080516001600160a01b038416602482015260448082018490528251808303909101815260649091019091526020810180516001600160e01b031663a9059cbb60e01b17905261144990849061195f565b6117f660006702c68af0bb1400008561140d565b6118036001600a8361140d565b60128190556118166301e1338084611cf9565b6013556011546118359061182e906301e13380611d19565b83906111b5565b6014556011546118549061184e84846301e133806111c6565b906111b5565b60155560408051848152602081018490529081018290527fd5624eebb6c71dfd24920f6002bcc6e05cc1f38f7b01f209b84930586ef5bf7e9060600160405180910390a1505050565b60008080600019848609848602925082811083820303915050670de0b6b3a764000081106118e15760405163698d9a0160e11b8152600481018290526024016107ae565b600080670de0b6b3a76400008688099150506706f05b59d3b1ffff81118261191b5780670de0b6b3a76400008504019450505050506106b5565b620400008285030493909111909103600160ee1b02919091177faccb18165bd6fe31ae1cf318dc5b51eee0e1ba569b88cd74c1773b91fac106690201905092915050565b600061199983836040518060400160405280601581526020017414d85999515c98cc8c131bddd3195d995b10d85b1b605a1b8152506119d4565b80519091501561144957808060200190518101906119b79190611bf4565b611449576040516364d6fc4d60e01b815260040160405180910390fd5b60606001600160a01b0384163b611a0957604051638201cc0560e01b81526001600160a01b03851660048201526024016107ae565b600080856001600160a01b031685604051611a249190611c92565b6000604051808303816000865af19150503d8060008114611a61576040519150601f19603f3d011682016040523d82523d6000602084013e611a66565b606091505b50915091508115611a7a5791506107ca9050565b805115611a8a5780518082602001fd5b8360405162461bcd60e51b81526004016107ae9190611cae565b600060208284031215611ab5578081fd5b81356107ca81611dd0565b600060208284031215611ad1578081fd5b81516107ca81611dd0565b60008060408385031215611aee578081fd5b8235611af981611dd0565b91506020830135611b0981611dd0565b809150509250929050565b600080600060608486031215611b28578081fd5b8335611b3381611dd0565b92506020840135611b4381611dd0565b929592945050506040919091013590565b600080600080600080600060e0888a031215611b6e578283fd5b8735611b7981611dd0565b96506020880135611b8981611dd0565b95506040880135945060608801359350608088013560ff81168114611bac578384fd5b9699959850939692959460a0840135945060c09093013592915050565b60008060408385031215611bdb578182fd5b8235611be681611dd0565b946020939093013593505050565b600060208284031215611c05578081fd5b815180151581146107ca578182fd5b600060208284031215611c25578081fd5b5035919050565b600060208284031215611c3d578081fd5b5051919050565b60008060408385031215611c56578182fd5b505080516020909101519092909150565b600080600060608486031215611c7b578283fd5b505081359360208301359350604090920135919050565b60008251611ca4818460208701611d4f565b9190910192915050565b6020815260008251806020840152611ccd816040850160208701611d4f565b601f01601f19169190910160400192915050565b60008219821115611cf457611cf4611dba565b500190565b600082611d1457634e487b7160e01b81526012600452602481fd5b500490565b6000816000190483118215151615611d3357611d33611dba565b500290565b600082821015611d4a57611d4a611dba565b500390565b60005b83811015611d6a578181015183820152602001611d52565b83811115611d79576000848401525b50505050565b600181811c90821680611d9357607f821691505b60208210811415611db457634e487b7160e01b600052602260045260246000fd5b50919050565b634e487b7160e01b600052601160045260246000fd5b6001600160a01b038116811461140a57600080fdfea2646970667358221220166735c0d943026684e5433a5962a53ca3510ee396f081696fc2501e4625edaf64736f6c63430008040033",
  "linkReferences": {},
  "deployedLinkReferences": {}
}