{
  "_format": "hh-sol-artifact-1",
  "contractName": "AlbireoOrbiter",
  "sourceName": "contracts/cygnus-core/AlbireoOrbiter.sol",
  "abi": [
    {
      "inputs": [],
      "name": "ReentrantCall",
      "type": "error"
    },
    {
      "inputs": [],
      "name": "BORROWABLE_INIT_CODE_HASH",
      "outputs": [
        {
          "internalType": "bytes32",
          "name": "",
          "type": "bytes32"
        }
      ],
      "stateMutability": "view",
      "type": "function"
    },
    {
      "inputs": [
        {
          "internalType": "address",
          "name": "underlying",
          "type": "address"
        },
        {
          "internalType": "address",
          "name": "collateral",
          "type": "address"
        },
        {
          "internalType": "address",
          "name": "oracle",
          "type": "address"
        },
        {
          "internalType": "uint256",
          "name": "shuttleId",
          "type": "uint256"
        }
      ],
      "name": "deployAlbireo",
      "outputs": [
        {
          "internalType": "address",
          "name": "borrowable",
          "type": "address"
        }
      ],
      "stateMutability": "nonpayable",
      "type": "function"
    },
    {
      "inputs": [],
      "name": "shuttleParameters",
      "outputs": [
        {
          "internalType": "address",
          "name": "factory",
          "type": "address"
        },
        {
          "internalType": "address",
          "name": "underlying",
          "type": "address"
        },
        {
          "internalType": "address",
          "name": "collateral",
          "type": "address"
        },
        {
          "internalType": "address",
          "name": "oracle",
          "type": "address"
        },
        {
          "internalType": "uint256",
          "name": "shuttleId",
          "type": "uint256"
        }
      ],
      "stateMutability": "view",
      "type": "function"
    }
  ],
  "bytecode": "0x608060405234801561001057600080fd5b506000805460ff1916600117905561466b8061002d6000396000f3fe608060405234801561001057600080fd5b50600436106100415760003560e01c80635a412e5314610046578063870ad7fa146100b05780639ba991f8146100c6575b600080fd5b600154600254600354600454600554610070946001600160a01b0390811694811693811692169085565b604080516001600160a01b0396871681529486166020860152928516928401929092529092166060820152608081019190915260a0015b60405180910390f35b6100b86100f1565b6040519081526020016100a7565b6100d96100d436600461029d565b61011e565b6040516001600160a01b0390911681526020016100a7565b60405161010060208201610273565b6020820181038252601f19601f820116604052508051906020012081565b6000805460ff16610142576040516306fda65d60e31b815260040160405180910390fd5b6000805460ff191690556040805160a081018252338082526001600160a01b038881166020808501829052898316858701819052928916606080870182905260809096018990526001805473ffffffffffffffffffffffffffffffffffffffff1990811687179091556002805482169094179093556003805484168517905560048054909316179091556005879055845180820192909252818501929092528351808203850181529201928390528151910120906101ff90610273565b8190604051809103906000f590508015801561021f573d6000803e3d6000fd5b506001805473ffffffffffffffffffffffffffffffffffffffff1990811682556002805482169055600380548216905560048054909116905560006005819055805460ff1916909117905595945050505050565b61434e80620002e883390190565b80356001600160a01b038116811461029857600080fd5b919050565b600080600080608085870312156102b2578384fd5b6102bb85610281565b93506102c960208601610281565b92506102d760408601610281565b939692955092936060013592505056fe61014060405267016345785d8a0000600a55670bcbce7f1b150000600e556002600f55670de0b6b3a76400006010556000196014553480156200004157600080fd5b5060408051808201825260128152714379676e75733a20426f72726f7761626c6560701b602080830191825283519081019093526000808452805460ff19166001908117825583519394939192859285928592859285928592620000a59262000465565b508151620000bb90600290602085019062000465565b506003805460ff191660ff92909216919091179055505060405146907f8b73c3c69bb8fe3d512ecc4cf759cc79239f7b179b0ffacaa9a75d522b39400f9062000107906001906200065c565b60408051918290038220828201825260058352640312e302e360dc1b6020938401528151928301939093528101919091527f06c015bd22b4c69690933c1058878ebdfef31f9aaae40bbe86d8a09fe1b2972c6060820152608081018290523060a082015260c00160408051601f1981840301815291905280516020909101206080525062000199925050620004619050565b6001600160a01b0316635a412e536040518163ffffffff1660e01b815260040160a060405180830381600087803b158015620001d457600080fd5b505af1158015620001e9573d6000803e3d6000fd5b505050506040513d601f19601f820116820180604052508101906200020f91906200050b565b610100526001600160601b0319606091821b811660e05292811b831660c0529290921b1660a05250600092508291506200024890503390565b6001600160a01b0316635a412e536040518163ffffffff1660e01b815260040160a060405180830381600087803b1580156200028357600080fd5b505af115801562000298573d6000803e3d6000fd5b505050506040513d601f19601f82011682018060405250810190620002be91906200050b565b50509250925050816001600160a01b03166395d89b416040518163ffffffff1660e01b815260040160006040518083038186803b158015620002ff57600080fd5b505afa15801562000314573d6000803e3d6000fd5b505050506040513d6000823e601f3d908101601f191682016040526200033e91908101906200057e565b604051602001620003509190620006ff565b604051602081830303815290604052600290805190602001906200037692919062000465565b50816001600160a01b031663313ce5676040518163ffffffff1660e01b815260040160206040518083038186803b158015620003b157600080fd5b505afa158015620003c6573d6000803e3d6000fd5b505050506040513d601f19601f82011682018060405250810190620003ec919062000632565b6003805460ff191660ff9290921691909117905560601b6001600160601b0319166101205250600060045560138054670de0b6b3a76400006001600160701b03199091161790556200043b4290565b6013601c6101000a81548163ffffffff021916908363ffffffff160217905550620007d0565b3390565b828054620004739062000764565b90600052602060002090601f016020900481019282620004975760008555620004e2565b82601f10620004b257805160ff1916838001178555620004e2565b82800160010185558215620004e2579182015b82811115620004e2578251825591602001919060010190620004c5565b50620004f0929150620004f4565b5090565b5b80821115620004f05760008155600101620004f5565b600080600080600060a0868803121562000523578081fd5b85516200053081620007b7565b60208701519095506200054381620007b7565b60408701519094506200055681620007b7565b60608701519093506200056981620007b7565b80925050608086015190509295509295909350565b60006020828403121562000590578081fd5b81516001600160401b0380821115620005a7578283fd5b818401915084601f830112620005bb578283fd5b815181811115620005d057620005d0620007a1565b604051601f8201601f19908116603f01168101908382118183101715620005fb57620005fb620007a1565b8160405282815287602084870101111562000614578586fd5b6200062783602083016020880162000731565b979650505050505050565b60006020828403121562000644578081fd5b815160ff8116811462000655578182fd5b9392505050565b600080835482600182811c9150808316806200067957607f831692505b60208084108214156200069a57634e487b7160e01b87526022600452602487fd5b818015620006b15760018114620006c357620006f1565b60ff19861689528489019650620006f1565b60008a815260209020885b86811015620006e95781548b820152908501908301620006ce565b505084890196505b509498975050505050505050565b67021bcb3aaa9a21d160c51b8152600082516200072481600885016020870162000731565b9190910160080192915050565b60005b838110156200074e57818101518382015260200162000734565b838111156200075e576000848401525b50505050565b600181811c908216806200077957607f821691505b602082108114156200079b57634e487b7160e01b600052602260045260246000fd5b50919050565b634e487b7160e01b600052604160045260246000fd5b6001600160a01b0381168114620007cd57600080fd5b50565b60805160a05160601c60c05160601c60e05160601c610100516101205160601c613a96620008b8600039600081816107e701528181610d3301528181610dcd01526115cb0152600081816105d801528181611e3801526130a10152600061081701526000818161061a015281816109c501528181610a1c01528181610bef01528181610c880152818161138d01528181611556015281816119fd01528181611d9501528181611e1401528181612ae20152612b41015260008181610877015281816110b701528181612014015261296301526000818161051e0152611bb50152613a966000f3fe608060405234801561001057600080fd5b50600436106103575760003560e01c80636e553f65116101c8578063ad2961a311610104578063d505accf116100a2578063d90e02641161007c578063d90e026414610809578063d935bd9214610812578063dd62ed3e14610839578063e8a24e1d1461087257600080fd5b8063d505accf146107bc578063d82f897f146107cf578063d8dfeb45146107e257600080fd5b8063b7f1118a116100de578063b7f1118a14610750578063ba08765214610763578063c0789dcb14610776578063c914b437146107a257600080fd5b8063ad2961a314610736578063ad7a672f1461073e578063b5f3c95b1461074757600080fd5b806386b9d81f11610171578063a6afed951161014b578063a6afed95146106dd578063a9059cbb146106e5578063aa5af0fd146106f8578063ad168c9d1461072357600080fd5b806386b9d81f146106b957806395d89b41146106cc5780639b510998146106d457600080fd5b806372cf84a7116101a257806372cf84a71461067d5780637d6af079146106865780637ecebe001461069957600080fd5b80636e553f65146106025780636f307dc31461061557806370a082311461065457600080fd5b806330adf81f1161029757806346f608ff1161024057806359b0bc2a1161021a57806359b0bc2a146105b25780635b037f1d146105c05780635f77f891146105d35780636c321c8a146105fa57600080fd5b806346f608ff1461056457806347bd37181461056d57806354fd4d501461057657600080fd5b80633ba0b9a9116102715780633ba0b9a91461054057806342bf78af146105485780634322b7141461055b57600080fd5b806330adf81f146104d3578063313ce567146104fa5780633644e5151461051957600080fd5b80631aebf12f116103045780631c446983116102de5780631c446983146104875780631e44b7fc1461049a5780631e7dcc0d146104ad57806323b872dd146104c057600080fd5b80631aebf12f1461045b5780631be19560146104645780631c1981881461047957600080fd5b806318160ddd1161033557806318160ddd146103af578063182df0f5146103b85780631995bc1a146103c157600080fd5b80630572b0cc1461035c57806306fdde0314610377578063095ea7b31461038c575b600080fd5b610364610899565b6040519081526020015b60405180910390f35b61037f6108e9565b60405161036e91906138e5565b61039f61039a36600461366e565b610977565b604051901515815260200161036e565b61036460045481565b61036460105481565b6014546040805191825260016020830152731205f31718499dbf1fca446663b532ef87481fe1908201527345a01e4e04f14f7a4a6702c74187c5f6222033cd6060820152738731d54e9d02c286767d56ac03e8037c07e01e986080820152732f6f07cdcf3588944bf4c42ac74ff24bf56e759060a0820152731111111254eeb25477b68fb85ed929f73a96058260c082015260e00161036e565b610364600e5481565b6104776104723660046133d7565b61098e565b005b610364668e1bc9bf04000081565b6104776104953660046136f9565b610a80565b6104776104a83660046137b1565b610b1c565b6104776104bb366004613588565b610b70565b61039f6104ce366004613548565b610eb0565b6103647f6e71edae12b1b97f4d1f60370fef10105fa2faae0126114a169c64845d6126c981565b6003546105079060ff1681565b60405160ff909116815260200161036e565b6103647f000000000000000000000000000000000000000000000000000000000000000081565b610364610f26565b6104776105563660046133d7565b610f6f565b610364600a5481565b610364600c5481565b61036460125481565b61037f6040518060400160405280600581526020017f312e302e3000000000000000000000000000000000000000000000000000000081525081565b61036466470de4df82000081565b6104776105ce3660046136b9565b611016565b6103647f000000000000000000000000000000000000000000000000000000000000000081565b610364611329565b610364610610366004613729565b61135a565b61063c7f000000000000000000000000000000000000000000000000000000000000000081565b6040516001600160a01b03909116815260200161036e565b6103646106623660046133d7565b6001600160a01b031660009081526005602052604090205490565b610364600d5481565b6103646106943660046133d7565b6114a7565b6103646106a73660046133d7565b60076020526000908152604090205481565b6103646106c7366004613510565b611519565b61037f6116f0565b610364600f5481565b6104776116fd565b61039f6106f336600461366e565b611870565b60135461070b906001600160701b031681565b6040516001600160701b03909116815260200161036e565b60095461063c906001600160a01b031681565b61036461187d565b61036460085481565b61036460155481565b61047761075e3660046133d7565b6118eb565b61036461077136600461374d565b61190c565b60135461078d90600160e01b900463ffffffff1681565b60405163ffffffff909116815260200161036e565b60135461070b90600160701b90046001600160701b031681565b6104776107ca3660046135f9565b611aa6565b6104776107dd3660046136f9565b611d49565b61063c7f000000000000000000000000000000000000000000000000000000000000000081565b610364600b5481565b61063c7f000000000000000000000000000000000000000000000000000000000000000081565b610364610847366004613510565b6001600160a01b03918216600090815260066020908152604080832093909416825291909152205490565b61063c7f000000000000000000000000000000000000000000000000000000000000000081565b6000805460ff166108bd576040516306fda65d60e31b815260040160405180910390fd5b6000805460ff191690556108cf611e9d565b6108d7611ec7565b90506000805460ff1916600117905590565b600180546108f6906139e4565b80601f0160208091040260200160405190810160405280929190818152602001828054610922906139e4565b801561096f5780601f106109445761010080835404028352916020019161096f565b820191906000526020600020905b81548152906001019060200180831161095257829003601f168201915b505050505081565b6000610984338484611f61565b5060015b92915050565b60005460ff166109b1576040516306fda65d60e31b815260040160405180910390fd5b6000805460ff191690556109c3612010565b7f00000000000000000000000000000000000000000000000000000000000000006001600160a01b0316816001600160a01b03161415610a4e576040516303b91a9160e31b81526001600160a01b0380831660048301527f00000000000000000000000000000000000000000000000000000000000000001660248201526044015b60405180910390fd5b6000610a59826120df565b9050610a6f6001600160a01b03831633836120f4565b50506000805460ff19166001179055565b60005460ff16610aa3576040516306fda65d60e31b815260040160405180910390fd5b6000805460ff19169055610ab5612010565b610ac960006702c68af0bb1400008361213d565b600a80549082905560408051828152602081018490527faaa68312e2ea9d50e16af5068410ab56e1a1fd06037b1a35664812c30f82146091015b60405180910390a150506000805460ff19166001179055565b60005460ff16610b3f576040516306fda65d60e31b815260040160405180910390fd5b6000805460ff19169055610b51612010565b610b5d8484848461217e565b50506000805460ff191660011790555050565b60005460ff16610b93576040516306fda65d60e31b815260040160405180910390fd5b6000805460ff19169055610ba56116fd565b60085480841115610bd357604051632f997d4760e21b81526004810185905260248101829052604401610a45565b8315610c1657610be284612254565b610c166001600160a01b037f00000000000000000000000000000000000000000000000000000000000000001686866120f4565b8115610c8157604051638f53d74f60e01b81526001600160a01b03861690638f53d74f90610c4e90339088908890889060040161380e565b600060405180830381600087803b158015610c6857600080fd5b505af1158015610c7c573d6000803e3d6000fd5b505050505b6000610cac7f00000000000000000000000000000000000000000000000000000000000000006120df565b9050600085118015610cbe5750600081115b15610ce6576040516305eadb8b60e51b81526004810186905260248101829052604401610a45565b6000806000610cf68a89866124a4565b92509250925083881115610e0f57604051639aac2c5360e01b81526001600160a01b038b81166004830152306024830152604482018490526000917f000000000000000000000000000000000000000000000000000000000000000090911690639aac2c539060640160206040518083038186803b158015610d7757600080fd5b505afa158015610d8b573d6000803e3d6000fd5b505050506040513d601f19601f82011682018060405250810190610daf9190613699565b905080610e0957604051633ffe255960e11b81526001600160a01b037f0000000000000000000000000000000000000000000000000000000000000000811660048301528c16602482015260448101849052606401610a45565b50610e18565b610e1884612643565b896001600160a01b0316896001600160a01b0316610e333390565b604080518c81526020810189905290810187905260608101869052608081018590526001600160a01b0391909116907f33f3048bd4e6af45e53afb722adfd57dbde82da7e93e44db921fb4b8c6a70c4b9060a00160405180910390a45050505050610e9c612751565b50506000805460ff19166001179055505050565b6000610ebd848484612799565b6001600160a01b038416600090815260066020908152604080832033845290915290205482811015610f0c576040516310c6013560e31b81526004810182905260248101849052604401610a45565b610f198533858403611f61565b60019150505b9392505050565b6000610f306116fd565b60045480610f4057505060105490565b6000610f5c82601254600854610f569190613921565b906128bc565b9050610f68818361290b565b9250505090565b60005460ff16610f92576040516306fda65d60e31b815260040160405180910390fd5b6000805460ff19169055610fa4612010565b600980546001600160a01b038381167fffffffffffffffffffffffff000000000000000000000000000000000000000083168117909355604080519190921680825260208201939093527f2a0d5dc7fbc8045f59cb33c736f04f9a9b565e9f425912f9cd2bafdebd50cead9101610b03565b60005460ff16611039576040516306fda65d60e31b815260040160405180910390fd5b6000805460ff1916905561104b611e9d565b6110536116fd565b600061105d611ec7565b90508061106a5750611321565b600061107d82668e1bc9bf040000612a18565b905061109e732f6f07cdcf3588944bf4c42ac74ff24bf56e759033836120f4565b60006110b18366470de4df820000612a18565b905060007f00000000000000000000000000000000000000000000000000000000000000006001600160a01b0316635b068af86040518163ffffffff1660e01b815260040160206040518083038186803b15801561110e57600080fd5b505afa158015611122573d6000803e3d6000fd5b505050506040513d601f19601f8201168201806040525081019061114691906133f3565b9050611167732f6f07cdcf3588944bf4c42ac74ff24bf56e759082846120f4565b60006111bf87878080601f0160208091040260200160405190810160405280939291908181526020018383808284376000920191909152508792506111b0915088905089613978565b6111ba9190613978565b612a46565b6040516321ec87bf60e21b815260016004820152602481018290523060448201529091507345a01e4e04f14f7a4a6702c74187c5f6222033cd906387b21efc90606401600060405180830381600087803b15801561121c57600080fd5b505af1158015611230573d6000803e3d6000fd5b50505050738731d54e9d02c286767d56ac03e8037c07e01e986001600160a01b031663e2bbb158601454611277731205f31718499dbf1fca446663b532ef87481fe16120df565b6040516001600160e01b031960e085901b16815260048101929092526024820152604401600060405180830381600087803b1580156112b557600080fd5b505af11580156112c9573d6000803e3d6000fd5b5050426015555050604080518681526020810186905280820185905260608101839052905133917fc3845dedfc73729f4e3f721a87d9d20faf4551971c95726cf144e087da34ef2c919081900360800190a250505050505b610a6f612751565b6012546000908061133c57600091505090565b6113548160085461134d9190613921565b82906128bc565b91505090565b6000805460ff1661137e576040516306fda65d60e31b815260040160405180910390fd5b6000805460ff191690556113bd7f00000000000000000000000000000000000000000000000000000000000000006001600160a01b0316333086612c80565b60006113c7612cce565b90506113d284612643565b60006113dc612cce565b90506113f36113e9610f26565b610f568484613978565b9250600083116114165760405163f1ca48b160e01b815260040160405180910390fd5b60045461143a5761142b61dead6103e8612e77565b6114376103e884613978565b92505b6114448484612e77565b60408051868152602081018590526001600160a01b0386169133917fdcbc1c05240f31ff3ad067ef1ee35ce4997762752e3a095284754544f4c709d7910160405180910390a35050611494612751565b6000805460ff1916600117905592915050565b6001600160a01b03811660009081526011602090815260408083208151808301909252546001600160701b038082168352600160701b90910416918101829052906114f55750600092915050565b60135460208201518251610f1f926001600160701b03918216929082169116612f2a565b6000805460ff1661153d576040516306fda65d60e31b815260040160405180910390fd5b6000805460ff1916905561154f6116fd565b600061157a7f00000000000000000000000000000000000000000000000000000000000000006120df565b90506000611587856114a7565b90506000828210611598578261159a565b815b604051632d3aef6960e21b81526001600160a01b0387811660048301528881166024830152604482018390529192507f00000000000000000000000000000000000000000000000000000000000000009091169063b4ebbda490606401602060405180830381600087803b15801561161157600080fd5b505af1158015611625573d6000803e3d6000fd5b505050506040513d601f19601f820116820180604052508101906116499190613711565b9350600080600061165c896000886124a4565b92509250925061166b86612643565b876001600160a01b0316896001600160a01b03166116863390565b604080518b8152602081018b905290810187905260608101869052608081018590526001600160a01b0391909116907fb0dbe18c6ffdf0da655dd690e77211d379205c497be44c64447c3f5f021b51679060a00160405180910390a4505050505050611494612751565b600280546108f6906139e4565b6013544290600160e01b900463ffffffff90811690821681141561171f575050565b601380547bffffffffffffffffffffffffffffffffffffffffffffffffffffffff16600160e01b63ffffffff851602179055600061175d828461398f565b60125460085460135492935090916001600160701b03168261178157505050505050565b600061178d8385612fd9565b905060006117a163ffffffff871683613959565b905060006117af8287612a18565b90506117bb8187613921565b95506117c78285612a18565b6117d19085613921565b6012879055601380546001600160e01b031916600160701b6001600160701b03878116919091026dffffffffffffffffffffffffffff191691909117908316179055604080518781526020810184905290810182905260608101889052608081018590529094507f717fee053884ab1935ba6d0140f6ed225371439611d9674ff445419d6a0fa1b79060a00160405180910390a1505050505050505050565b6000610984338484612799565b6000806118b2600a54670de0b6b3a76400006118999190613978565b601354600160701b90046001600160701b031690612a18565b9050806118c157600091505090565b60006118df6012546008546118d69190613921565b601254906128bc565b9050610f688183612a18565b611909816118f8836114a7565b6013546001600160701b031661307b565b50565b6000805460ff16611930576040516306fda65d60e31b815260040160405180910390fd5b6000805460ff19169055336001600160a01b038316146119a8576001600160a01b038216600090815260066020908152604080832033845290915290205460001981146119a6576119818582613978565b6001600160a01b03841660009081526006602090815260408083203384529091529020555b505b6119ba6119b3610f26565b8590612a18565b9050600081116119dd5760405163e3e8d29760e01b815260040160405180910390fd5b6119e681612254565b6119f08285613127565b611a246001600160a01b037f00000000000000000000000000000000000000000000000000000000000000001684836120f4565b816001600160a01b0316836001600160a01b0316611a3f3390565b6001600160a01b03167ffbde797d201c681b91056529119e0b02407c7bb96a4a2c75c01fc9667232c8db8488604051611a82929190918252602082015260400190565b60405180910390a4611a92612751565b6000805460ff191660011790559392505050565b6001600160a01b038716611acd57604051639a321bc760e01b815260040160405180910390fd5b6001600160a01b038616611af4576040516353fbd1d760e01b815260040160405180910390fd5b42841015611b1e5760405163075dd20f60e41b815242600482015260248101859052604401610a45565b6001600160a01b0387811660008181526007602090815260408083208054600180820190925582517f6e71edae12b1b97f4d1f60370fef10105fa2faae0126114a169c64845d6126c98186015280840196909652958c166060860152608085018b905260a085019590955260c08085018a90528151808603909101815260e08501825280519083012061190160f01b6101008601527f000000000000000000000000000000000000000000000000000000000000000061010286015261012280860182905282518087039091018152610142860180845281519185019190912090859052610162860180845281905260ff8a166101828701526101a286018990526101c2860188905291519095919491926101e2808401939192601f1981019281900390910190855afa158015611c59573d6000803e3d6000fd5b5050604051601f1901519150506001600160a01b038116611c8d57604051637386dbbb60e11b815260040160405180910390fd5b896001600160a01b0316816001600160a01b031614611ce15760405163a1d5f2ed60e01b81526001600160a01b038b16600482015260ff871660248201526044810186905260648101859052608401610a45565b6001600160a01b038a81166000818152600660209081526040808320948e16808452948252918290208c905590518b81527f8c5be1e5ebec7d5bd14f71427d1e84f3dd0314c0f7b2291e5b200ac8c7c3b925910160405180910390a350505050505050505050565b60005460ff16611d6c576040516306fda65d60e31b815260040160405180910390fd5b6000805460ff19169055611d7e612010565b6000196014541415611d905760148190555b611dd17f00000000000000000000000000000000000000000000000000000000000000007345a01e4e04f14f7a4a6702c74187c5f6222033cd6000196131d2565b611e06731205f31718499dbf1fca446663b532ef87481fe1738731d54e9d02c286767d56ac03e8037c07e01e986000196131d2565b604080516001600160a01b037f00000000000000000000000000000000000000000000000000000000000000001681527f00000000000000000000000000000000000000000000000000000000000000006020820152338183015290517f98ccebae89f16f152c93c6a0cdc0d99913b9e62a9fc612471c21ffc299c389fd9181900360600190a1506000805460ff19166001179055565b333214611ec557604051633172e8e760e01b8152336004820152326024820152604401610a45565b565b601454604051631c57762b60e31b8152600091738731d54e9d02c286767d56ac03e8037c07e01e989163e2bbb15891611f0d918590600401918252602082015260400190565b600060405180830381600087803b158015611f2757600080fd5b505af1158015611f3b573d6000803e3d6000fd5b50505050611f5c732f6f07cdcf3588944bf4c42ac74ff24bf56e75906120df565b905090565b6001600160a01b038316611f88576040516317ba2d8b60e11b815260040160405180910390fd5b6001600160a01b038216611faf57604051632cc8a69760e11b815260040160405180910390fd5b6001600160a01b0383811660008181526006602090815260408083209487168084529482529182902085905590518481527f8c5be1e5ebec7d5bd14f71427d1e84f3dd0314c0f7b2291e5b200ac8c7c3b925910160405180910390a3505050565b60007f00000000000000000000000000000000000000000000000000000000000000006001600160a01b031663f851a4406040518163ffffffff1660e01b815260040160206040518083038186803b15801561206b57600080fd5b505afa15801561207f573d6000803e3d6000fd5b505050506040513d601f19601f820116820180604052508101906120a391906133f3565b9050336001600160a01b0382161461190957604051633e7c764160e21b81523360048201526001600160a01b0382166024820152604401610a45565b60006109886001600160a01b03831630613274565b81601a5280603a5269a9059cbb00000000000060005260206000604460166000875af13d156001600051141716612133576390b8ec186000526004601cfd5b6000603a52505050565b8281108061214a57508181115b1561217957604051639e7fe3bd60e01b8152600481018490526024810183905260448101829052606401610a45565b505050565b612192600067016345785d8a00008661213d565b6121ad6706f05b59d3b20000670d2f13f7789f00008361213d565b6121ba6001600a8461213d565b6121c86301e1338085613939565b600b556121e36121dc826301e13380613959565b84906128bc565b600c55600f829055600e81905561220381610f5685856301e13380612f2a565b600d556040805185815260208101859052908101839052606081018290527ff58b8cc439edada25fd9495b7364aeb1d737dbef59be1cf62e0cc4001c44a3cd9060800160405180910390a150505050565b600061236b731205f31718499dbf1fca446663b532ef87481fe16001600160a01b03166318160ddd6040518163ffffffff1660e01b815260040160206040518083038186803b1580156122a657600080fd5b505afa1580156122ba573d6000803e3d6000fd5b505050506040513d601f19601f820116820180604052508101906122de9190613711565b731205f31718499dbf1fca446663b532ef87481fe16001600160a01b03166315770f926040518163ffffffff1660e01b815260040160206040518083038186803b15801561232b57600080fd5b505afa15801561233f573d6000803e3d6000fd5b505050506040513d601f19601f820116820180604052508101906123639190613711565b84919061329d565b601454604051630441a3e760e41b8152919250738731d54e9d02c286767d56ac03e8037c07e01e989163441a3e70916123b1918590600401918252602082015260400190565b600060405180830381600087803b1580156123cb57600080fd5b505af11580156123df573d6000803e3d6000fd5b505050507345a01e4e04f14f7a4a6702c74187c5f6222033cd6001600160a01b031663c4de93a56001612425731205f31718499dbf1fca446663b532ef87481fe16120df565b6040516001600160e01b031960e085901b16815261ffff90921660048301526024820152306044820152606401602060405180830381600087803b15801561246c57600080fd5b505af1158015612480573d6000803e3d6000fd5b505050506040513d601f19601f820116820180604052508101906121799190613711565b60008060006124b2866114a7565b9250838514156124c8575050601254819061263a565b6013546001600160701b031684861115612551576001600160a01b0387166000908152601160205260408120906124ff8789613978565b905061250b8187613921565b82546001600160701b03858116600160701b026001600160e01b031990921690831617178355601254909550612542908290613921565b60128190559350612624915050565b6001600160a01b0387166000908152601160205260408120906125748888613978565b9050808611612584576000612588565b8086035b82546dffffffffffffffffffffffffffff19166001600160701b038216178355945084156125b657826125b9565b60005b82546001600160701b0391909116600160701b027fffffffff0000000000000000000000000000ffffffffffffffffffffffffffff90911617825560006126008688613978565b90506012549450808511612615576000612619565b8085035b601281905594505050505b6126388784836001600160701b031661307b565b505b93509350939050565b6040516321ec87bf60e21b815260016004820152602481018290523060448201527345a01e4e04f14f7a4a6702c74187c5f6222033cd906387b21efc90606401600060405180830381600087803b15801561269d57600080fd5b505af11580156126b1573d6000803e3d6000fd5b50505050738731d54e9d02c286767d56ac03e8037c07e01e986001600160a01b031663e2bbb1586014546126f8731205f31718499dbf1fca446663b532ef87481fe16120df565b6040516001600160e01b031960e085901b16815260048101929092526024820152604401600060405180830381600087803b15801561273657600080fd5b505af115801561274a573d6000803e3d6000fd5b5050505050565b600061275b612cce565b60088190556040518181529091507f8a0df8ef054fae2c3d2d19a7b322e864870cc9fd3cb07fb9526309c596244bf49060200160405180910390a150565b6001600160a01b0383166127c05760405163618a6e7d60e11b815260040160405180910390fd5b6001600160a01b0382166127e75760405163446ebce960e01b815260040160405180910390fd5b6001600160a01b0383166000908152600560205260409020548181101561282b5760405163355a868d60e01b81526004810182905260248101839052604401610a45565b6001600160a01b03808516600090815260056020526040808220858503905591851681529081208054849290612862908490613921565b92505081905550826001600160a01b0316846001600160a01b03167fddf252ad1be2c89b69c2b068fc378daa952ba7f163c4a11628f55a4df523b3ef846040516128ae91815260200190565b60405180910390a350505050565b60007812725dd1d243aba0e75fe645cc4873f9e65afe688c928e1f218311670de0b6b3a7640000021582026128f957637c5f487d6000526004601cfd5b50670de0b6b3a7640000919091020490565b60105460009080841115612a0f576000612933600a54838761292d9190613978565b90612a18565b61293d9086613978565b905060008461294d818885612f2a565b6129579190613978565b90508015612a005760007f00000000000000000000000000000000000000000000000000000000000000006001600160a01b0316635b068af86040518163ffffffff1660e01b815260040160206040518083038186803b1580156129ba57600080fd5b505afa1580156129ce573d6000803e3d6000fd5b505050506040513d601f19601f820116820180604052508101906129f291906133f3565b90506129fe8183612e77565b505b50601081905591506109889050565b83915050610988565b600081600019048311820215612a365763bac65e5b6000526004601cfd5b50670de0b6b3a764000091020490565b60008060008085806020019051810190612a60919061340f565b9350509250925084826080015114612a7a57608082018590525b81516001600160a01b0316732f6f07cdcf3588944bf4c42ac74ff24bf56e759014612ae05781516040516321f609b560e01b81526001600160a01b039091166004820152732f6f07cdcf3588944bf4c42ac74ff24bf56e75906024820152604401610a45565b7f00000000000000000000000000000000000000000000000000000000000000006001600160a01b031682602001516001600160a01b031614612b705760208201516040516310f88e6d60e01b81526001600160a01b0391821660048201527f00000000000000000000000000000000000000000000000000000000000000009091166024820152604401610a45565b60608201516001600160a01b03163014612bb45760608201516040516329855a9360e01b81526001600160a01b039091166004820152306024820152604401610a45565b612bdb8260000151731111111254eeb25477b68fb85ed929f73a96058284608001516131d2565b604080516000815260208101918290526312aa3caf60e01b909152731111111254eeb25477b68fb85ed929f73a960582906312aa3caf90612c2490869086908660248201613854565b6040805180830381600087803b158015612c3d57600080fd5b505af1158015612c51573d6000803e3d6000fd5b505050506040513d601f19601f82011682018060405250810190612c75919061378e565b509695505050505050565b6040516323b872dd600052836020528260405281606052602060006064601c6000895af13d156001600051141716612cc057637939f4246000526004601cfd5b600060605260405250505050565b6014546040516393f1a40b60e01b815260048101919091523060248201526000908190738731d54e9d02c286767d56ac03e8037c07e01e98906393f1a40b90604401604080518083038186803b158015612d2757600080fd5b505afa158015612d3b573d6000803e3d6000fd5b505050506040513d601f19601f82011682018060405250810190612d5f919061378e565b509050611354731205f31718499dbf1fca446663b532ef87481fe16001600160a01b03166315770f926040518163ffffffff1660e01b815260040160206040518083038186803b158015612db257600080fd5b505afa158015612dc6573d6000803e3d6000fd5b505050506040513d601f19601f82011682018060405250810190612dea9190613711565b731205f31718499dbf1fca446663b532ef87481fe16001600160a01b03166318160ddd6040518163ffffffff1660e01b815260040160206040518083038186803b158015612e3757600080fd5b505afa158015612e4b573d6000803e3d6000fd5b505050506040513d601f19601f82011682018060405250810190612e6f9190613711565b839190612f2a565b6001600160a01b038216612e9e5760405163237813dd60e01b815260040160405180910390fd5b6001600160a01b03821660009081526005602052604081208054839290612ec6908490613921565b925050819055508060046000828254612edf9190613921565b90915550506040518181526001600160a01b038316906000907fddf252ad1be2c89b69c2b068fc378daa952ba7f163c4a11628f55a4df523b3ef906020015b60405180910390a35050565b60008383026000198486098181108201900380612f5f5783612f545763ae47f7026000526004601cfd5b508290049050610f1f565b808411612f745763ae47f7026000526004601cfd5b838587096000858103861695869004956003870260029081188089028203028089028203028089028203028089028203028089028203028089029091030291819003819004600101858411909403939093029190930391909104170290509392505050565b600080612fe96121dc8486613921565b9050600e54811161301757600b54600c54613005908390612a18565b61300f9190613921565b915050610988565b6000600b54613033600c54600e54612a1890919063ffffffff16565b61303d9190613921565b90506000600e548361304f9190613978565b905081613067600d5483612a1890919063ffffffff16565b6130719190613921565b9695505050505050565b6009546001600160a01b0316806130925750505050565b604051632b7cf7cb60e11b81527f000000000000000000000000000000000000000000000000000000000000000060048201526001600160a01b03858116602483015260448201859052606482018490528216906356f9ef9690608401600060405180830381600087803b15801561310957600080fd5b505af115801561311d573d6000803e3d6000fd5b5050505050505050565b6001600160a01b03821661314e57604051630b5da42b60e01b815260040160405180910390fd5b6001600160a01b03821660009081526005602052604081208054839290613176908490613978565b92505081905550806004600082825461318f9190613978565b90915550506040518181526000906001600160a01b038416907fddf252ad1be2c89b69c2b068fc378daa952ba7f163c4a11628f55a4df523b3ef90602001612f1e565b604051636eb1769f60e11b81523060048201526001600160a01b03838116602483015282919085169063dd62ed3e9060440160206040518083038186803b15801561321c57600080fd5b505afa158015613230573d6000803e3d6000fd5b505050506040513d601f19601f820116820180604052508101906132549190613711565b1061325e57505050565b6121796001600160a01b038416836000196132d5565b60006370a08231600052816020526020806024601c865afa601f3d111660205102905092915050565b60006132aa848484612f2a565b90508183850915610f1f57600181016132cb5763ae47f7026000526004601cfd5b6001019392505050565b81601a5280603a5269095ea7b300000000000060005260206000604460166000875af13d15600160005114171661213357633e3f8f736000526004601cfd5b60008083601f840112613325578182fd5b50813567ffffffffffffffff81111561333c578182fd5b60208301915083602082850101111561335457600080fd5b9250929050565b600082601f83011261336b578081fd5b815167ffffffffffffffff8082111561338657613386613a35565b604051601f8301601f19908116603f011681019082821181831017156133ae576133ae613a35565b816040528381528660208588010111156133c6578485fd5b6130718460208301602089016139b4565b6000602082840312156133e8578081fd5b8135610f1f81613a4b565b600060208284031215613404578081fd5b8151610f1f81613a4b565b600080600080848603610140811215613426578384fd5b855161343181613a4b565b945060e0601f1982011215613444578384fd5b5061344d6138f8565b602086015161345b81613a4b565b8152604086015161346b81613a4b565b6020820152606086015161347e81613a4b565b6040820152608086015161349181613a4b565b8060608301525060a0860151608082015260c086015160a082015260e086015160c08201528093505061010085015167ffffffffffffffff808211156134d5578384fd5b6134e18883890161335b565b93506101208701519150808211156134f7578283fd5b506135048782880161335b565b91505092959194509250565b60008060408385031215613522578182fd5b823561352d81613a4b565b9150602083013561353d81613a4b565b809150509250929050565b60008060006060848603121561355c578283fd5b833561356781613a4b565b9250602084013561357781613a4b565b929592945050506040919091013590565b60008060008060006080868803121561359f578081fd5b85356135aa81613a4b565b945060208601356135ba81613a4b565b935060408601359250606086013567ffffffffffffffff8111156135dc578182fd5b6135e888828901613314565b969995985093965092949392505050565b600080600080600080600060e0888a031215613613578182fd5b873561361e81613a4b565b9650602088013561362e81613a4b565b95506040880135945060608801359350608088013560ff81168114613651578283fd5b9699959850939692959460a0840135945060c09093013592915050565b60008060408385031215613680578182fd5b823561368b81613a4b565b946020939093013593505050565b6000602082840312156136aa578081fd5b81518015158114610f1f578182fd5b600080602083850312156136cb578182fd5b823567ffffffffffffffff8111156136e1578283fd5b6136ed85828601613314565b90969095509350505050565b60006020828403121561370a578081fd5b5035919050565b600060208284031215613722578081fd5b5051919050565b6000806040838503121561373b578182fd5b82359150602083013561353d81613a4b565b600080600060608486031215613761578081fd5b83359250602084013561377381613a4b565b9150604084013561378381613a4b565b809150509250925092565b600080604083850312156137a0578182fd5b505080516020909101519092909150565b600080600080608085870312156137c6578182fd5b5050823594602084013594506040840135936060013592509050565b600081518084526137fa8160208601602086016139b4565b601f01601f19169290920160200192915050565b6001600160a01b038516815283602082015260606040820152816060820152818360808301376000818301608090810191909152601f909201601f191601019392505050565b60006101406001600160a01b03808816845280875116602085015280602088015116604085015280604088015116606085015280606088015116608085015250608086015160a084015260a086015160c084015260c086015160e0840152806101008401526138c5818401866137e2565b90508281036101208401526138da81856137e2565b979650505050505050565b602081526000610f1f60208301846137e2565b60405160e0810167ffffffffffffffff8111828210171561391b5761391b613a35565b60405290565b6000821982111561393457613934613a1f565b500190565b60008261395457634e487b7160e01b81526012600452602481fd5b500490565b600081600019048311821515161561397357613973613a1f565b500290565b60008282101561398a5761398a613a1f565b500390565b600063ffffffff838116908316818110156139ac576139ac613a1f565b039392505050565b60005b838110156139cf5781810151838201526020016139b7565b838111156139de576000848401525b50505050565b600181811c908216806139f857607f821691505b60208210811415613a1957634e487b7160e01b600052602260045260246000fd5b50919050565b634e487b7160e01b600052601160045260246000fd5b634e487b7160e01b600052604160045260246000fd5b6001600160a01b038116811461190957600080fdfea2646970667358221220a7d5e07daca4200d7e9d05b5d5c0ad79866ecf5bd9a560d85fff97f40dbf134d64736f6c63430008040033a2646970667358221220f871a93ceec12abf3ad676c7689e32cc7e6de6cbd2a37b1daf61aca7fc0ec33864736f6c63430008040033",
  "linkReferences": {},
  "deployedLinkReferences": {}
}