{
  "_format": "hh-sol-artifact-1",
  "contractName": "AlbireoOrbiter",
  "sourceName": "contracts/cygnus-core/AlbireoOrbiter.sol",
  "abi": [
    {
      "inputs": [],
      "name": "ReentrantCall",
      "type": "error"
    },
    {
      "inputs": [],
      "name": "BORROWABLE_INIT_CODE_HASH",
      "outputs": [
        {
          "internalType": "bytes32",
          "name": "",
          "type": "bytes32"
        }
      ],
      "stateMutability": "view",
      "type": "function"
    },
    {
      "inputs": [
        {
          "internalType": "address",
          "name": "underlying",
          "type": "address"
        },
        {
          "internalType": "address",
          "name": "collateral",
          "type": "address"
        },
        {
          "internalType": "address",
          "name": "oracle",
          "type": "address"
        },
        {
          "internalType": "uint256",
          "name": "shuttleId",
          "type": "uint256"
        }
      ],
      "name": "deployAlbireo",
      "outputs": [
        {
          "internalType": "address",
          "name": "borrowable",
          "type": "address"
        }
      ],
      "stateMutability": "nonpayable",
      "type": "function"
    },
    {
      "inputs": [],
      "name": "shuttleParameters",
      "outputs": [
        {
          "internalType": "address",
          "name": "factory",
          "type": "address"
        },
        {
          "internalType": "address",
          "name": "underlying",
          "type": "address"
        },
        {
          "internalType": "address",
          "name": "collateral",
          "type": "address"
        },
        {
          "internalType": "address",
          "name": "oracle",
          "type": "address"
        },
        {
          "internalType": "uint256",
          "name": "shuttleId",
          "type": "uint256"
        }
      ],
      "stateMutability": "view",
      "type": "function"
    }
  ],
  "bytecode": "0x608060405234801561001057600080fd5b506000805460ff191660011790556147a98061002d6000396000f3fe608060405234801561001057600080fd5b50600436106100415760003560e01c80635a412e5314610046578063870ad7fa146100b05780639ba991f8146100c6575b600080fd5b600154600254600354600454600554610070946001600160a01b0390811694811693811692169085565b604080516001600160a01b0396871681529486166020860152928516928401929092529092166060820152608081019190915260a0015b60405180910390f35b6100b86100f1565b6040519081526020016100a7565b6100d96100d436600461029d565b61011e565b6040516001600160a01b0390911681526020016100a7565b60405161010060208201610273565b6020820181038252601f19601f820116604052508051906020012081565b6000805460ff16610142576040516306fda65d60e31b815260040160405180910390fd5b6000805460ff191690556040805160a081018252338082526001600160a01b038881166020808501829052898316858701819052928916606080870182905260809096018990526001805473ffffffffffffffffffffffffffffffffffffffff1990811687179091556002805482169094179093556003805484168517905560048054909316179091556005879055845180820192909252818501929092528351808203850181529201928390528151910120906101ff90610273565b8190604051809103906000f590508015801561021f573d6000803e3d6000fd5b506001805473ffffffffffffffffffffffffffffffffffffffff1990811682556002805482169055600380548216905560048054909116905560006005819055805460ff1916909117905595945050505050565b61448c80620002e883390190565b80356001600160a01b038116811461029857600080fd5b919050565b600080600080608085870312156102b2578384fd5b6102bb85610281565b93506102c960208601610281565b92506102d760408601610281565b939692955092936060013592505056fe61014060405267016345785d8a0000600a55670bcbce7f1b150000600e556002600f556000196014553480156200003557600080fd5b5060408051808201825260128152714379676e75733a20426f72726f7761626c6560701b602080830191825283519081019093526000808452805460ff19166001908117825583519394939192859285928592859285928592620000999262000459565b508151620000af90600290602085019062000459565b506003805460ff191660ff92909216919091179055505060405146907f8b73c3c69bb8fe3d512ecc4cf759cc79239f7b179b0ffacaa9a75d522b39400f90620000fb9060019062000650565b60408051918290038220828201825260058352640312e302e360dc1b6020938401528151928301939093528101919091527f06c015bd22b4c69690933c1058878ebdfef31f9aaae40bbe86d8a09fe1b2972c6060820152608081018290523060a082015260c00160408051601f198184030181529190528051602090910120608052506200018d925050620004559050565b6001600160a01b0316635a412e536040518163ffffffff1660e01b815260040160a060405180830381600087803b158015620001c857600080fd5b505af1158015620001dd573d6000803e3d6000fd5b505050506040513d601f19601f82011682018060405250810190620002039190620004ff565b610100526001600160601b0319606091821b811660e05292811b831660c0529290921b1660a05250600092508291506200023c90503390565b6001600160a01b0316635a412e536040518163ffffffff1660e01b815260040160a060405180830381600087803b1580156200027757600080fd5b505af11580156200028c573d6000803e3d6000fd5b505050506040513d601f19601f82011682018060405250810190620002b29190620004ff565b50509250925050816001600160a01b03166395d89b416040518163ffffffff1660e01b815260040160006040518083038186803b158015620002f357600080fd5b505afa15801562000308573d6000803e3d6000fd5b505050506040513d6000823e601f3d908101601f1916820160405262000332919081019062000572565b604051602001620003449190620006f3565b604051602081830303815290604052600290805190602001906200036a92919062000459565b50816001600160a01b031663313ce5676040518163ffffffff1660e01b815260040160206040518083038186803b158015620003a557600080fd5b505afa158015620003ba573d6000803e3d6000fd5b505050506040513d601f19601f82011682018060405250810190620003e0919062000626565b6003805460ff191660ff9290921691909117905560601b6001600160601b0319166101205250600060045560138054670de0b6b3a76400006001600160701b03199091161790556200042f4290565b6013601c6101000a81548163ffffffff021916908363ffffffff160217905550620007c4565b3390565b828054620004679062000758565b90600052602060002090601f0160209004810192826200048b5760008555620004d6565b82601f10620004a657805160ff1916838001178555620004d6565b82800160010185558215620004d6579182015b82811115620004d6578251825591602001919060010190620004b9565b50620004e4929150620004e8565b5090565b5b80821115620004e45760008155600101620004e9565b600080600080600060a0868803121562000517578081fd5b85516200052481620007ab565b60208701519095506200053781620007ab565b60408701519094506200054a81620007ab565b60608701519093506200055d81620007ab565b80925050608086015190509295509295909350565b60006020828403121562000584578081fd5b81516001600160401b03808211156200059b578283fd5b818401915084601f830112620005af578283fd5b815181811115620005c457620005c462000795565b604051601f8201601f19908116603f01168101908382118183101715620005ef57620005ef62000795565b8160405282815287602084870101111562000608578586fd5b6200061b83602083016020880162000725565b979650505050505050565b60006020828403121562000638578081fd5b815160ff8116811462000649578182fd5b9392505050565b600080835482600182811c9150808316806200066d57607f831692505b60208084108214156200068e57634e487b7160e01b87526022600452602487fd5b818015620006a55760018114620006b757620006e5565b60ff19861689528489019650620006e5565b60008a815260209020885b86811015620006dd5781548b820152908501908301620006c2565b505084890196505b509498975050505050505050565b67021bcb3aaa9a21d160c51b8152600082516200071881600885016020870162000725565b9190910160080192915050565b60005b838110156200074257818101518382015260200162000728565b8381111562000752576000848401525b50505050565b600181811c908216806200076d57607f821691505b602082108114156200078f57634e487b7160e01b600052602260045260246000fd5b50919050565b634e487b7160e01b600052604160045260246000fd5b6001600160a01b0381168114620007c157600080fd5b50565b60805160a05160601c60c05160601c60e05160601c610100516101205160601c613be0620008ac6000396000818161081a01528181610d6501528181610dff01526116530152600081816105f801528181611f5201526131ec0152600061084a01526000818161063a015281816109f701528181610a4e01528181610c2101528181610cba01528181611415015281816115de01528181611b1701528181611eaf01528181611f2e01528181612c1a0152612c790152600081816108aa015281816111170152818161212e0152612aa30152600081816105150152611ccf0152613be06000f3fe608060405234801561001057600080fd5b50600436106103575760003560e01c80636f307dc3116101c8578063ad2961a311610104578063d505accf116100a2578063d90e02641161007c578063d90e02641461083c578063d935bd9214610845578063dd62ed3e1461086c578063e8a24e1d146108a557600080fd5b8063d505accf146107ef578063d82f897f14610802578063d8dfeb451461081557600080fd5b8063b7f1118a116100de578063b7f1118a14610783578063ba08765214610796578063c0789dcb146107a9578063c914b437146107d557600080fd5b8063ad2961a314610769578063ad7a672f14610771578063b5f3c95b1461077a57600080fd5b80638f840ddd11610171578063a6afed951161014b578063a6afed9514610710578063a9059cbb14610718578063aa5af0fd1461072b578063ad168c9d1461075657600080fd5b80638f840ddd146106ec57806395d89b41146106ff5780639b5109981461070757600080fd5b80637d6af079116101a25780637d6af079146106a65780637ecebe00146106b957806386b9d81f146106d957600080fd5b80636f307dc31461063557806370a082311461067457806372cf84a71461069d57600080fd5b8063313ce5671161029757806347bd3718116102405780635b037f1d1161021a5780635b037f1d146105e05780635f77f891146105f35780636c321c8a1461061a5780636e553f651461062257600080fd5b806347bd37181461056457806354fd4d501461059657806359b0bc2a146105d257600080fd5b806342bf78af1161027157806342bf78af1461053f5780634322b7141461055257806346f608ff1461055b57600080fd5b8063313ce567146104f15780633644e515146105105780633ba0b9a91461053757600080fd5b80631be19560116103045780631e44b7fc116102de5780631e44b7fc146104915780631e7dcc0d146104a457806323b872dd146104b757806330adf81f146104ca57600080fd5b80631be195601461045b5780631c198188146104705780631c4469831461047e57600080fd5b806318160ddd1161033557806318160ddd146103af5780631995bc1a146103b85780631aebf12f1461045257600080fd5b80630572b0cc1461035c57806306fdde0314610377578063095ea7b31461038c575b600080fd5b6103646108cc565b6040519081526020015b60405180910390f35b61037f61091c565b60405161036e9190613a2f565b61039f61039a3660046137c3565b6109aa565b604051901515815260200161036e565b61036460045481565b6014546040805191825260016020830152731205f31718499dbf1fca446663b532ef87481fe1908201527345a01e4e04f14f7a4a6702c74187c5f6222033cd6060820152738731d54e9d02c286767d56ac03e8037c07e01e986080820152732f6f07cdcf3588944bf4c42ac74ff24bf56e759060a0820152731111111254eeb25477b68fb85ed929f73a96058260c082015260e00161036e565b610364600e5481565b61046e61046936600461352c565b6109c0565b005b610364668e1bc9bf04000081565b61046e61048c36600461384e565b610ab2565b61046e61049f366004613906565b610b4e565b61046e6104b23660046136dd565b610ba2565b61039f6104c536600461369d565b610ee2565b6103647f6e71edae12b1b97f4d1f60370fef10105fa2faae0126114a169c64845d6126c981565b6003546104fe9060ff1681565b60405160ff909116815260200161036e565b6103647f000000000000000000000000000000000000000000000000000000000000000081565b610364610f58565b61046e61054d36600461352c565b610fcf565b610364600a5481565b610364600c5481565b60125461057e90600160801b90046001600160801b031681565b6040516001600160801b03909116815260200161036e565b61037f6040518060400160405280600581526020017f312e302e3000000000000000000000000000000000000000000000000000000081525081565b61036466470de4df82000081565b61046e6105ee36600461380e565b611076565b6103647f000000000000000000000000000000000000000000000000000000000000000081565b610364611389565b61036461063036600461387e565b6113e2565b61065c7f000000000000000000000000000000000000000000000000000000000000000081565b6040516001600160a01b03909116815260200161036e565b61036461068236600461352c565b6001600160a01b031660009081526005602052604090205490565b610364600d5481565b6103646106b436600461352c565b61152f565b6103646106c736600461352c565b60076020526000908152604090205481565b6103646106e7366004613665565b6115a1565b60125461057e906001600160801b031681565b61037f611778565b610364600f5481565b61046e611785565b61039f6107263660046137c3565b611950565b60135461073e906001600160701b031681565b6040516001600160701b03909116815260200161036e565b60095461065c906001600160a01b031681565b61036461195d565b61036460085481565b61036460155481565b61046e61079136600461352c565b611a05565b6103646107a43660046138a2565b611a26565b6013546107c090600160e01b900463ffffffff1681565b60405163ffffffff909116815260200161036e565b60135461073e90600160701b90046001600160701b031681565b61046e6107fd36600461374e565b611bc0565b61046e61081036600461384e565b611e63565b61065c7f000000000000000000000000000000000000000000000000000000000000000081565b610364600b5481565b61065c7f000000000000000000000000000000000000000000000000000000000000000081565b61036461087a366004613665565b6001600160a01b03918216600090815260066020908152604080832093909416825291909152205490565b61065c7f000000000000000000000000000000000000000000000000000000000000000081565b6000805460ff166108f0576040516306fda65d60e31b815260040160405180910390fd5b6000805460ff19169055610902611fb7565b61090a611fe1565b90506000805460ff1916600117905590565b6001805461092990613b2e565b80601f016020809104026020016040519081016040528092919081815260200182805461095590613b2e565b80156109a25780601f10610977576101008083540402835291602001916109a2565b820191906000526020600020905b81548152906001019060200180831161098557829003601f168201915b505050505081565b60006109b733848461207b565b50600192915050565b60005460ff166109e3576040516306fda65d60e31b815260040160405180910390fd5b6000805460ff191690556109f561212a565b7f00000000000000000000000000000000000000000000000000000000000000006001600160a01b0316816001600160a01b03161415610a80576040516303b91a9160e31b81526001600160a01b0380831660048301527f00000000000000000000000000000000000000000000000000000000000000001660248201526044015b60405180910390fd5b6000610a8b826121f9565b9050610aa16001600160a01b0383163383612214565b50506000805460ff19166001179055565b60005460ff16610ad5576040516306fda65d60e31b815260040160405180910390fd5b6000805460ff19169055610ae761212a565b610afb60006702c68af0bb1400008361225d565b600a80549082905560408051828152602081018490527faaa68312e2ea9d50e16af5068410ab56e1a1fd06037b1a35664812c30f82146091015b60405180910390a150506000805460ff19166001179055565b60005460ff16610b71576040516306fda65d60e31b815260040160405180910390fd5b6000805460ff19169055610b8361212a565b610b8f8484848461229e565b50506000805460ff191660011790555050565b60005460ff16610bc5576040516306fda65d60e31b815260040160405180910390fd5b6000805460ff19169055610bd7611785565b60085480841115610c0557604051632f997d4760e21b81526004810185905260248101829052604401610a77565b8315610c4857610c1484612374565b610c486001600160a01b037f0000000000000000000000000000000000000000000000000000000000000000168686612214565b8115610cb357604051638f53d74f60e01b81526001600160a01b03861690638f53d74f90610c80903390889088908890600401613963565b600060405180830381600087803b158015610c9a57600080fd5b505af1158015610cae573d6000803e3d6000fd5b505050505b6000610cde7f00000000000000000000000000000000000000000000000000000000000000006121f9565b9050600085118015610cf05750600081115b15610d18576040516305eadb8b60e51b81526004810186905260248101829052604401610a77565b6000806000610d288a89866125c4565b92509250925083881115610e4157604051639aac2c5360e01b81526001600160a01b038b81166004830152306024830152604482018490526000917f000000000000000000000000000000000000000000000000000000000000000090911690639aac2c539060640160206040518083038186803b158015610da957600080fd5b505afa158015610dbd573d6000803e3d6000fd5b505050506040513d601f19601f82011682018060405250810190610de191906137ee565b905080610e3b57604051633ffe255960e11b81526001600160a01b037f0000000000000000000000000000000000000000000000000000000000000000811660048301528c16602482015260448101849052606401610a77565b50610e4a565b610e4a846127be565b896001600160a01b0316896001600160a01b0316610e653390565b604080518c81526020810189905290810187905260608101869052608081018590526001600160a01b0391909116907f33f3048bd4e6af45e53afb722adfd57dbde82da7e93e44db921fb4b8c6a70c4b9060a00160405180910390a45050505050610ece6128cc565b50506000805460ff19166001179055505050565b6000610eef848484612914565b6001600160a01b038416600090815260066020908152604080832033845290915290205482811015610f3e576040516310c6013560e31b81526004810182905260248101849052604401610a77565b610f4b853385840361207b565b60019150505b9392505050565b6000610f62611785565b60045480610f7957670de0b6b3a764000091505090565b6012546008546001600160801b0380831692600092610fbb9286928692610fab92600160801b90920490911690613a6b565b610fb59190613ac2565b90612a37565b9050610fc78183612a86565b935050505090565b60005460ff16610ff2576040516306fda65d60e31b815260040160405180910390fd5b6000805460ff1916905561100461212a565b600980546001600160a01b038381167fffffffffffffffffffffffff000000000000000000000000000000000000000083168117909355604080519190921680825260208201939093527f2a0d5dc7fbc8045f59cb33c736f04f9a9b565e9f425912f9cd2bafdebd50cead9101610b35565b60005460ff16611099576040516306fda65d60e31b815260040160405180910390fd5b6000805460ff191690556110ab611fb7565b6110b3611785565b60006110bd611fe1565b9050806110ca5750611381565b60006110dd82668e1bc9bf040000612b50565b90506110fe732f6f07cdcf3588944bf4c42ac74ff24bf56e75903383612214565b60006111118366470de4df820000612b50565b905060007f00000000000000000000000000000000000000000000000000000000000000006001600160a01b0316635b068af86040518163ffffffff1660e01b815260040160206040518083038186803b15801561116e57600080fd5b505afa158015611182573d6000803e3d6000fd5b505050506040513d601f19601f820116820180604052508101906111a69190613548565b90506111c7732f6f07cdcf3588944bf4c42ac74ff24bf56e75908284612214565b600061121f87878080601f016020809104026020016040519081016040528093929190818152602001838380828437600092019190915250879250611210915088905089613ac2565b61121a9190613ac2565b612b7e565b6040516321ec87bf60e21b815260016004820152602481018290523060448201529091507345a01e4e04f14f7a4a6702c74187c5f6222033cd906387b21efc90606401600060405180830381600087803b15801561127c57600080fd5b505af1158015611290573d6000803e3d6000fd5b50505050738731d54e9d02c286767d56ac03e8037c07e01e986001600160a01b031663e2bbb1586014546112d7731205f31718499dbf1fca446663b532ef87481fe16121f9565b6040516001600160e01b031960e085901b16815260048101929092526024820152604401600060405180830381600087803b15801561131557600080fd5b505af1158015611329573d6000803e3d6000fd5b5050426015555050604080518681526020810186905280820185905260608101839052905133917fc3845dedfc73729f4e3f721a87d9d20faf4551971c95726cf144e087da34ef2c919081900360800190a250505050505b610aa16128cc565b601254600090600160801b90046001600160801b0316806113ac57600091505090565b6012546008546113dc916001600160801b0316906113cb908490613a6b565b6113d59190613ac2565b8290612a37565b91505090565b6000805460ff16611406576040516306fda65d60e31b815260040160405180910390fd5b6000805460ff191690556114457f00000000000000000000000000000000000000000000000000000000000000006001600160a01b0316333086612db8565b600061144f612e06565b905061145a846127be565b6000611464612e06565b905061147b611471610f58565b610fb58484613ac2565b92506000831161149e5760405163f1ca48b160e01b815260040160405180910390fd5b6004546114c2576114b361dead6103e8612faf565b6114bf6103e884613ac2565b92505b6114cc8484612faf565b60408051868152602081018590526001600160a01b0386169133917fdcbc1c05240f31ff3ad067ef1ee35ce4997762752e3a095284754544f4c709d7910160405180910390a3505061151c6128cc565b6000805460ff1916600117905592915050565b6001600160a01b03811660009081526010602090815260408083208151808301909252546001600160701b038082168352600160701b909104169181018290529061157d5750600092915050565b60135460208201518251610f51926001600160701b03918216929082169116613062565b6000805460ff166115c5576040516306fda65d60e31b815260040160405180910390fd5b6000805460ff191690556115d7611785565b60006116027f00000000000000000000000000000000000000000000000000000000000000006121f9565b9050600061160f8561152f565b905060008282106116205782611622565b815b604051632d3aef6960e21b81526001600160a01b0387811660048301528881166024830152604482018390529192507f00000000000000000000000000000000000000000000000000000000000000009091169063b4ebbda490606401602060405180830381600087803b15801561169957600080fd5b505af11580156116ad573d6000803e3d6000fd5b505050506040513d601f19601f820116820180604052508101906116d19190613866565b935060008060006116e4896000886125c4565b9250925092506116f3866127be565b876001600160a01b0316896001600160a01b031661170e3390565b604080518b8152602081018b905290810187905260608101869052608081018590526001600160a01b0391909116907fb0dbe18c6ffdf0da655dd690e77211d379205c497be44c64447c3f5f021b51679060a00160405180910390a450505050505061151c6128cc565b6002805461092990613b2e565b6013544290600160e01b900463ffffffff9081169082168114156117a7575050565b601380547bffffffffffffffffffffffffffffffffffffffffffffffffffffffff16600160e01b63ffffffff85160217905560006117e58284613ad9565b6012546008546013549293506001600160801b03600160801b83048116939216916001600160701b03168361181d5750505050505050565b600061182a838686613111565b9050600061183e63ffffffff881683613aa3565b9050600061184c8288612b50565b90506118588188613a6b565b600a549097506118689082612b50565b6118729087613a6b565b955061187e8285612b50565b6118889085613a6b565b6001600160801b03878116908916600160801b026fffffffffffffffffffffffffffffffff191617601255601380546001600160701b038381166dffffffffffffffffffffffffffff19918816600160701b02919091166001600160e01b031990921691909117179055604080518781526020810184905290810182905260608101899052608081018590529094507f717fee053884ab1935ba6d0140f6ed225371439611d9674ff445419d6a0fa1b79060a00160405180910390a150505050505050505050565b60006109b7338484612914565b600080611992600a54670de0b6b3a76400006119799190613ac2565b601354600160701b90046001600160701b031690612b50565b9050806119a157600091505090565b6012546008546000916119f2916001600160801b03808316926119cf92600160801b90910490911690613a6b565b6119d99190613ac2565b601254600160801b90046001600160801b031690612a37565b90506119fe8183612b50565b9250505090565b611a2381611a128361152f565b6013546001600160701b03166131c6565b50565b6000805460ff16611a4a576040516306fda65d60e31b815260040160405180910390fd5b6000805460ff19169055336001600160a01b03831614611ac2576001600160a01b03821660009081526006602090815260408083203384529091529020546000198114611ac057611a9b8582613ac2565b6001600160a01b03841660009081526006602090815260408083203384529091529020555b505b611ad4611acd610f58565b8590612b50565b905060008111611af75760405163e3e8d29760e01b815260040160405180910390fd5b611b0081612374565b611b0a8285613272565b611b3e6001600160a01b037f0000000000000000000000000000000000000000000000000000000000000000168483612214565b816001600160a01b0316836001600160a01b0316611b593390565b6001600160a01b03167ffbde797d201c681b91056529119e0b02407c7bb96a4a2c75c01fc9667232c8db8488604051611b9c929190918252602082015260400190565b60405180910390a4611bac6128cc565b6000805460ff191660011790559392505050565b6001600160a01b038716611be757604051639a321bc760e01b815260040160405180910390fd5b6001600160a01b038616611c0e576040516353fbd1d760e01b815260040160405180910390fd5b42841015611c385760405163075dd20f60e41b815242600482015260248101859052604401610a77565b6001600160a01b0387811660008181526007602090815260408083208054600180820190925582517f6e71edae12b1b97f4d1f60370fef10105fa2faae0126114a169c64845d6126c98186015280840196909652958c166060860152608085018b905260a085019590955260c08085018a90528151808603909101815260e08501825280519083012061190160f01b6101008601527f000000000000000000000000000000000000000000000000000000000000000061010286015261012280860182905282518087039091018152610142860180845281519185019190912090859052610162860180845281905260ff8a166101828701526101a286018990526101c2860188905291519095919491926101e2808401939192601f1981019281900390910190855afa158015611d73573d6000803e3d6000fd5b5050604051601f1901519150506001600160a01b038116611da757604051637386dbbb60e11b815260040160405180910390fd5b896001600160a01b0316816001600160a01b031614611dfb5760405163a1d5f2ed60e01b81526001600160a01b038b16600482015260ff871660248201526044810186905260648101859052608401610a77565b6001600160a01b038a81166000818152600660209081526040808320948e16808452948252918290208c905590518b81527f8c5be1e5ebec7d5bd14f71427d1e84f3dd0314c0f7b2291e5b200ac8c7c3b925910160405180910390a350505050505050505050565b60005460ff16611e86576040516306fda65d60e31b815260040160405180910390fd5b6000805460ff19169055611e9861212a565b6000196014541415611eaa5760148190555b611eeb7f00000000000000000000000000000000000000000000000000000000000000007345a01e4e04f14f7a4a6702c74187c5f6222033cd60001961331d565b611f20731205f31718499dbf1fca446663b532ef87481fe1738731d54e9d02c286767d56ac03e8037c07e01e9860001961331d565b604080516001600160a01b037f00000000000000000000000000000000000000000000000000000000000000001681527f00000000000000000000000000000000000000000000000000000000000000006020820152338183015290517f98ccebae89f16f152c93c6a0cdc0d99913b9e62a9fc612471c21ffc299c389fd9181900360600190a1506000805460ff19166001179055565b333214611fdf57604051633172e8e760e01b8152336004820152326024820152604401610a77565b565b601454604051631c57762b60e31b8152600091738731d54e9d02c286767d56ac03e8037c07e01e989163e2bbb15891612027918590600401918252602082015260400190565b600060405180830381600087803b15801561204157600080fd5b505af1158015612055573d6000803e3d6000fd5b50505050612076732f6f07cdcf3588944bf4c42ac74ff24bf56e75906121f9565b905090565b6001600160a01b0383166120a2576040516317ba2d8b60e11b815260040160405180910390fd5b6001600160a01b0382166120c957604051632cc8a69760e11b815260040160405180910390fd5b6001600160a01b0383811660008181526006602090815260408083209487168084529482529182902085905590518481527f8c5be1e5ebec7d5bd14f71427d1e84f3dd0314c0f7b2291e5b200ac8c7c3b925910160405180910390a3505050565b60007f00000000000000000000000000000000000000000000000000000000000000006001600160a01b031663f851a4406040518163ffffffff1660e01b815260040160206040518083038186803b15801561218557600080fd5b505afa158015612199573d6000803e3d6000fd5b505050506040513d601f19601f820116820180604052508101906121bd9190613548565b9050336001600160a01b03821614611a2357604051633e7c764160e21b81523360048201526001600160a01b0382166024820152604401610a77565b600061220e6001600160a01b038316306133bf565b92915050565b81601a5280603a5269a9059cbb00000000000060005260206000604460166000875af13d156001600051141716612253576390b8ec186000526004601cfd5b6000603a52505050565b8281108061226a57508181115b1561229957604051639e7fe3bd60e01b8152600481018490526024810183905260448101829052606401610a77565b505050565b6122b2600067016345785d8a00008661225d565b6122cd6706f05b59d3b20000670d2f13f7789f00008361225d565b6122da6001600a8461225d565b6122e86301e1338085613a83565b600b556123036122fc826301e13380613aa3565b8490612a37565b600c55600f829055600e81905561232381610fb585856301e13380613062565b600d556040805185815260208101859052908101839052606081018290527ff58b8cc439edada25fd9495b7364aeb1d737dbef59be1cf62e0cc4001c44a3cd9060800160405180910390a150505050565b600061248b731205f31718499dbf1fca446663b532ef87481fe16001600160a01b03166318160ddd6040518163ffffffff1660e01b815260040160206040518083038186803b1580156123c657600080fd5b505afa1580156123da573d6000803e3d6000fd5b505050506040513d601f19601f820116820180604052508101906123fe9190613866565b731205f31718499dbf1fca446663b532ef87481fe16001600160a01b03166315770f926040518163ffffffff1660e01b815260040160206040518083038186803b15801561244b57600080fd5b505afa15801561245f573d6000803e3d6000fd5b505050506040513d601f19601f820116820180604052508101906124839190613866565b8491906133e8565b601454604051630441a3e760e41b8152919250738731d54e9d02c286767d56ac03e8037c07e01e989163441a3e70916124d1918590600401918252602082015260400190565b600060405180830381600087803b1580156124eb57600080fd5b505af11580156124ff573d6000803e3d6000fd5b505050507345a01e4e04f14f7a4a6702c74187c5f6222033cd6001600160a01b031663c4de93a56001612545731205f31718499dbf1fca446663b532ef87481fe16121f9565b6040516001600160e01b031960e085901b16815261ffff90921660048301526024820152306044820152606401602060405180830381600087803b15801561258c57600080fd5b505af11580156125a0573d6000803e3d6000fd5b505050506040513d601f19601f820116820180604052508101906122999190613866565b60008060006125d28661152f565b9250838514156125f85750506012548190600160801b90046001600160801b03166127b5565b6013546001600160701b0316848611156126a7576001600160a01b03871660009081526010602052604081209061262f8789613ac2565b905061263b8187613a6b565b82546001600160701b03858116600160701b026001600160e01b0319909216908316171783556012549095506126839082906001600160801b03600160801b90910416613a6b565b601280546001600160801b03808416600160801b029116179055935061279f915050565b6001600160a01b0387166000908152601060205260408120906126ca8888613ac2565b90508086116126da5760006126de565b8086035b82546dffffffffffffffffffffffffffff19166001600160701b0382161783559450841561270c578261270f565b60005b82546001600160701b0391909116600160701b027fffffffff0000000000000000000000000000ffffffffffffffffffffffffffff90911617825560006127568688613ac2565b601254600160801b90046001600160801b03169550905080851161277b57600061277f565b8085035b601280546001600160801b03808416600160801b02911617905594505050505b6127b38784836001600160701b03166131c6565b505b93509350939050565b6040516321ec87bf60e21b815260016004820152602481018290523060448201527345a01e4e04f14f7a4a6702c74187c5f6222033cd906387b21efc90606401600060405180830381600087803b15801561281857600080fd5b505af115801561282c573d6000803e3d6000fd5b50505050738731d54e9d02c286767d56ac03e8037c07e01e986001600160a01b031663e2bbb158601454612873731205f31718499dbf1fca446663b532ef87481fe16121f9565b6040516001600160e01b031960e085901b16815260048101929092526024820152604401600060405180830381600087803b1580156128b157600080fd5b505af11580156128c5573d6000803e3d6000fd5b5050505050565b60006128d6612e06565b60088190556040518181529091507f8a0df8ef054fae2c3d2d19a7b322e864870cc9fd3cb07fb9526309c596244bf49060200160405180910390a150565b6001600160a01b03831661293b5760405163618a6e7d60e11b815260040160405180910390fd5b6001600160a01b0382166129625760405163446ebce960e01b815260040160405180910390fd5b6001600160a01b038316600090815260056020526040902054818110156129a65760405163355a868d60e01b81526004810182905260248101839052604401610a77565b6001600160a01b038085166000908152600560205260408082208585039055918516815290812080548492906129dd908490613a6b565b92505081905550826001600160a01b0316846001600160a01b03167fddf252ad1be2c89b69c2b068fc378daa952ba7f163c4a11628f55a4df523b3ef84604051612a2991815260200190565b60405180910390a350505050565b60007812725dd1d243aba0e75fe645cc4873f9e65afe688c928e1f218311670de0b6b3a764000002158202612a7457637c5f487d6000526004601cfd5b50670de0b6b3a7640000919091020490565b60008060115483612a979190613ac2565b90508015612b485760007f00000000000000000000000000000000000000000000000000000000000000006001600160a01b0316635b068af86040518163ffffffff1660e01b815260040160206040518083038186803b158015612afa57600080fd5b505afa158015612b0e573d6000803e3d6000fd5b505050506040513d601f19601f82011682018060405250810190612b329190613548565b9050612b3e8183612faf565b5060118054820190555b509192915050565b600081600019048311820215612b6e5763bac65e5b6000526004601cfd5b50670de0b6b3a764000091020490565b60008060008085806020019051810190612b989190613564565b9350509250925084826080015114612bb257608082018590525b81516001600160a01b0316732f6f07cdcf3588944bf4c42ac74ff24bf56e759014612c185781516040516321f609b560e01b81526001600160a01b039091166004820152732f6f07cdcf3588944bf4c42ac74ff24bf56e75906024820152604401610a77565b7f00000000000000000000000000000000000000000000000000000000000000006001600160a01b031682602001516001600160a01b031614612ca85760208201516040516310f88e6d60e01b81526001600160a01b0391821660048201527f00000000000000000000000000000000000000000000000000000000000000009091166024820152604401610a77565b60608201516001600160a01b03163014612cec5760608201516040516329855a9360e01b81526001600160a01b039091166004820152306024820152604401610a77565b612d138260000151731111111254eeb25477b68fb85ed929f73a960582846080015161331d565b604080516000815260208101918290526312aa3caf60e01b909152731111111254eeb25477b68fb85ed929f73a960582906312aa3caf90612d5c908690869086602482016139a9565b6040805180830381600087803b158015612d7557600080fd5b505af1158015612d89573d6000803e3d6000fd5b505050506040513d601f19601f82011682018060405250810190612dad91906138e3565b509695505050505050565b6040516323b872dd600052836020528260405281606052602060006064601c6000895af13d156001600051141716612df857637939f4246000526004601cfd5b600060605260405250505050565b6014546040516393f1a40b60e01b815260048101919091523060248201526000908190738731d54e9d02c286767d56ac03e8037c07e01e98906393f1a40b90604401604080518083038186803b158015612e5f57600080fd5b505afa158015612e73573d6000803e3d6000fd5b505050506040513d601f19601f82011682018060405250810190612e9791906138e3565b5090506113dc731205f31718499dbf1fca446663b532ef87481fe16001600160a01b03166315770f926040518163ffffffff1660e01b815260040160206040518083038186803b158015612eea57600080fd5b505afa158015612efe573d6000803e3d6000fd5b505050506040513d601f19601f82011682018060405250810190612f229190613866565b731205f31718499dbf1fca446663b532ef87481fe16001600160a01b03166318160ddd6040518163ffffffff1660e01b815260040160206040518083038186803b158015612f6f57600080fd5b505afa158015612f83573d6000803e3d6000fd5b505050506040513d601f19601f82011682018060405250810190612fa79190613866565b839190613062565b6001600160a01b038216612fd65760405163237813dd60e01b815260040160405180910390fd5b6001600160a01b03821660009081526005602052604081208054839290612ffe908490613a6b565b9250508190555080600460008282546130179190613a6b565b90915550506040518181526001600160a01b038316906000907fddf252ad1be2c89b69c2b068fc378daa952ba7f163c4a11628f55a4df523b3ef906020015b60405180910390a35050565b60008383026000198486098181108201900380613097578361308c5763ae47f7026000526004601cfd5b508290049050610f51565b8084116130ac5763ae47f7026000526004601cfd5b838587096000858103861695869004956003870260029081188089028203028089028203028089028203028089028203028089028203028089029091030291819003819004600101858411909403939093029190930391909104170290509392505050565b600080613133836131228688613a6b565b61312c9190613ac2565b8590612a37565b9050600e54811161316157600b54600c5461314f908390612b50565b6131599190613a6b565b915050610f51565b6000600b5461317d600c54600e54612b5090919063ffffffff16565b6131879190613a6b565b90506000600e54836131999190613ac2565b9050816131b1600d5483612b5090919063ffffffff16565b6131bb9190613a6b565b979650505050505050565b6009546001600160a01b0316806131dd5750505050565b604051632b7cf7cb60e11b81527f000000000000000000000000000000000000000000000000000000000000000060048201526001600160a01b03858116602483015260448201859052606482018490528216906356f9ef9690608401600060405180830381600087803b15801561325457600080fd5b505af1158015613268573d6000803e3d6000fd5b5050505050505050565b6001600160a01b03821661329957604051630b5da42b60e01b815260040160405180910390fd5b6001600160a01b038216600090815260056020526040812080548392906132c1908490613ac2565b9250508190555080600460008282546132da9190613ac2565b90915550506040518181526000906001600160a01b038416907fddf252ad1be2c89b69c2b068fc378daa952ba7f163c4a11628f55a4df523b3ef90602001613056565b604051636eb1769f60e11b81523060048201526001600160a01b03838116602483015282919085169063dd62ed3e9060440160206040518083038186803b15801561336757600080fd5b505afa15801561337b573d6000803e3d6000fd5b505050506040513d601f19601f8201168201806040525081019061339f9190613866565b106133a957505050565b6122996001600160a01b03841683600019613420565b60006370a08231600052816020526020806024601c865afa601f3d111660205102905092915050565b60006133f5848484613062565b90508183850915610f5157600181016134165763ae47f7026000526004601cfd5b6001019392505050565b81601a5280603a5269095ea7b300000000000060005260206000604460166000875af13d15600160005114171661225357633e3f8f736000526004601cfd5b60008083601f840112613470578182fd5b50813567ffffffffffffffff811115613487578182fd5b60208301915083602082850101111561349f57600080fd5b9250929050565b600082601f8301126134b6578081fd5b815167ffffffffffffffff808211156134d1576134d1613b7f565b604051601f8301601f19908116603f011681019082821181831017156134f9576134f9613b7f565b81604052838152866020858801011115613511578485fd5b613522846020830160208901613afe565b9695505050505050565b60006020828403121561353d578081fd5b8135610f5181613b95565b600060208284031215613559578081fd5b8151610f5181613b95565b60008060008084860361014081121561357b578384fd5b855161358681613b95565b945060e0601f1982011215613599578384fd5b506135a2613a42565b60208601516135b081613b95565b815260408601516135c081613b95565b602082015260608601516135d381613b95565b604082015260808601516135e681613b95565b8060608301525060a0860151608082015260c086015160a082015260e086015160c08201528093505061010085015167ffffffffffffffff8082111561362a578384fd5b613636888389016134a6565b935061012087015191508082111561364c578283fd5b50613659878288016134a6565b91505092959194509250565b60008060408385031215613677578182fd5b823561368281613b95565b9150602083013561369281613b95565b809150509250929050565b6000806000606084860312156136b1578283fd5b83356136bc81613b95565b925060208401356136cc81613b95565b929592945050506040919091013590565b6000806000806000608086880312156136f4578081fd5b85356136ff81613b95565b9450602086013561370f81613b95565b935060408601359250606086013567ffffffffffffffff811115613731578182fd5b61373d8882890161345f565b969995985093965092949392505050565b600080600080600080600060e0888a031215613768578182fd5b873561377381613b95565b9650602088013561378381613b95565b95506040880135945060608801359350608088013560ff811681146137a6578283fd5b9699959850939692959460a0840135945060c09093013592915050565b600080604083850312156137d5578182fd5b82356137e081613b95565b946020939093013593505050565b6000602082840312156137ff578081fd5b81518015158114610f51578182fd5b60008060208385031215613820578182fd5b823567ffffffffffffffff811115613836578283fd5b6138428582860161345f565b90969095509350505050565b60006020828403121561385f578081fd5b5035919050565b600060208284031215613877578081fd5b5051919050565b60008060408385031215613890578182fd5b82359150602083013561369281613b95565b6000806000606084860312156138b6578081fd5b8335925060208401356138c881613b95565b915060408401356138d881613b95565b809150509250925092565b600080604083850312156138f5578182fd5b505080516020909101519092909150565b6000806000806080858703121561391b578182fd5b5050823594602084013594506040840135936060013592509050565b6000815180845261394f816020860160208601613afe565b601f01601f19169290920160200192915050565b6001600160a01b038516815283602082015260606040820152816060820152818360808301376000818301608090810191909152601f909201601f191601019392505050565b60006101406001600160a01b03808816845280875116602085015280602088015116604085015280604088015116606085015280606088015116608085015250608086015160a084015260a086015160c084015260c086015160e084015280610100840152613a1a81840186613937565b90508281036101208401526131bb8185613937565b602081526000610f516020830184613937565b60405160e0810167ffffffffffffffff81118282101715613a6557613a65613b7f565b60405290565b60008219821115613a7e57613a7e613b69565b500190565b600082613a9e57634e487b7160e01b81526012600452602481fd5b500490565b6000816000190483118215151615613abd57613abd613b69565b500290565b600082821015613ad457613ad4613b69565b500390565b600063ffffffff83811690831681811015613af657613af6613b69565b039392505050565b60005b83811015613b19578181015183820152602001613b01565b83811115613b28576000848401525b50505050565b600181811c90821680613b4257607f821691505b60208210811415613b6357634e487b7160e01b600052602260045260246000fd5b50919050565b634e487b7160e01b600052601160045260246000fd5b634e487b7160e01b600052604160045260246000fd5b6001600160a01b0381168114611a2357600080fdfea2646970667358221220e3db99b98236a1e217a22c7da5c79c7fcb71d79e56ee601905321f1075d35e7a64736f6c63430008040033a2646970667358221220c4dbbc6a6f00680996b7c74655cde53089ba7cff1d1c060381aabf68b6cc1d9564736f6c63430008040033",
  "linkReferences": {},
  "deployedLinkReferences": {}
}