{
  "_format": "hh-sol-artifact-1",
  "contractName": "AlbireoOrbiter",
  "sourceName": "contracts/cygnus-core/AlbireoOrbiter.sol",
  "abi": [
    {
      "inputs": [],
      "name": "borrowableInitCodeHash",
      "outputs": [
        {
          "internalType": "bytes32",
          "name": "",
          "type": "bytes32"
        }
      ],
      "stateMutability": "view",
      "type": "function"
    },
    {
      "inputs": [
        {
          "internalType": "address",
          "name": "underlying",
          "type": "address"
        },
        {
          "internalType": "address",
          "name": "collateral",
          "type": "address"
        },
        {
          "internalType": "address",
          "name": "oracle",
          "type": "address"
        },
        {
          "internalType": "uint256",
          "name": "shuttleId",
          "type": "uint256"
        }
      ],
      "name": "deployAlbireo",
      "outputs": [
        {
          "internalType": "address",
          "name": "borrowable",
          "type": "address"
        }
      ],
      "stateMutability": "nonpayable",
      "type": "function"
    },
    {
      "inputs": [],
      "name": "shuttleParameters",
      "outputs": [
        {
          "internalType": "address",
          "name": "factory",
          "type": "address"
        },
        {
          "internalType": "address",
          "name": "underlying",
          "type": "address"
        },
        {
          "internalType": "address",
          "name": "collateral",
          "type": "address"
        },
        {
          "internalType": "address",
          "name": "oracle",
          "type": "address"
        },
        {
          "internalType": "uint256",
          "name": "shuttleId",
          "type": "uint256"
        }
      ],
      "stateMutability": "view",
      "type": "function"
    }
  ],
  "bytecode": "0x60a034610069576136ff90603f8201601f191681016001600160401b03811182821017610053576040528181526020810191613a1583395190206080526040516139a6908161006f823960805181605c0152f35b634e487b7160e01b600052604160045260246000fd5b600080fdfe608060408181526004918236101561001657600080fd5b600092833560e01c9182635a412e5314610215575081639ba991f814610083575063b3984b8d1461004657600080fd5b3461007f578160031936011261007f57602090517f00000000000000000000000000000000000000000000000000000000000000008152f35b5080fd5b919050346102115760803660031901126102115781359073ffffffffffffffffffffffffffffffffffffffff9182811680910361020d576024358381168091036102095760443584811680910361020557835167ffffffffffffffff93606435929160a08101868111828210176101f25784916080918952338152836020820152868982015284606082015201527fffffffffffffffffffffffff00000000000000000000000000000000000000009033828b5416178a55816001541617600155838160025416176002556003541617600355855582516020810191825233848201528381526060810191818310848411176101df5782855281519020926136ff8083019160608301908582109111176101cc576102728439039086f59283156101c25793602094818055816001558160025581600355555191168152f35b81513d86823e3d90fd5b634e487b7160e01b895260418852602489fd5b634e487b7160e01b885260418752602488fd5b634e487b7160e01b8b5260418a5260248bfd5b8680fd5b8580fd5b8480fd5b8280fd5b9291503461026d578360031936011261026d5760a09373ffffffffffffffffffffffffffffffffffffffff80915416928160015416826002541692600354169354948652602086015284015260608301526080820152f35b8380fdfe6101008060405234620001f3576000805460ff19166001178155635a412e5360e01b80835260a092838160048186335af18015620001e8578391849185918691620001bf575b5060e052855260c052608052670bcbce7f1b1500006006556002600755670214e8348c4f0000600855670de0b6b3a7640000600955604051908152828160048185335af1918215620001b357916200017a575b50600180546001600160a01b0319166001600160a01b0392909216919091179055600b80546001600160601b0365ffffffffffff60b01b01164260e01b6001600160e01b031916176503782dace9d960721b17905560405161345e9182620002a18339608051828181610354015281816122cd0152612fa901525181610405015260c0518181816106490152818161078601528181610a4801528181610c970152818161108b015281816113b4015281816114de0152818161178d0152818161196e01528181611c5e0152611db7015260e05181818161068a01526111480152f35b6200019f9150823d8411620001ab575b620001968183620001f8565b81019062000247565b50509150503862000098565b503d6200018a565b604051903d90823e3d90fd5b92505050620001de9150843d8611620001ab57620001968183620001f8565b9150903862000045565b6040513d85823e3d90fd5b600080fd5b601f909101601f19168101906001600160401b038211908210176200021c57604052565b634e487b7160e01b600052604160045260246000fd5b51906001600160a01b0382168203620001f357565b91908260a0910312620001f35781516001600160a01b03908181168103620001f35792620002786020820162000232565b92620002876040830162000232565b9260608301519081168103620001f3576080909201519056fe6080604081815260048036101561001557600080fd5b600092833560e01c9081630572b0cc14611f7e5750806306fdde0314611f55578063095ea7b314611eeb57806315de1daa14611d5657806318160ddd14611d2f578063182df0f514611d105780631aebf12f14611cf15780631be1956014611c165780631c44698314611bb05780631e44b7fc146119b65780631e7dcc0d1461171e57806323b872dd1461164857806327ce385414611432578063313ce567146113875780633644e5151461136a57806339509351146112e75780633ba0b9a9146112c257806342bf78af1461123a5780634322b7141461121b57806346f608ff146111fe57806347bd3718146111d15780634bdaeac1146111a95780635b322bbe1461116b5780635f77f891146111305780636afdd850146111065780636c321c8a146110af5780636f307dc31461106b57806370a082311461103757806372cf84a7146110185780637d6af07914610ff25780637ecebe0014610fbe57806381f5b6f414610f325780638808e71c14610bda57806394e1373c14610b9257806395d89b4114610a235780639b51099814610a04578063a457c2d714610980578063a6afed9514610964578063a9059cbb146108d6578063aa5af0fd146108a8578063ad168c9d14610880578063ad2961a31461085c578063ad7a672f14610833578063b5f3c95b14610814578063ba087652146106b7578063bcbc332014610611578063c0789dcb146105ef578063c914b437146105c5578063d505accf14610470578063d8dfeb4514610448578063d90e026414610429578063d935bd92146103e5578063dcc3e06e146103b6578063dd62ed3e14610378578063e8a24e1d14610334578063f7c618c1146103015763fff6cae91461029657600080fd5b346102fd57826003193601126102fd5782549160ff8316156102f0578360018460ff1980911683556102c6613015565b6102ce612712565b6102d6612712565b6102de612185565b506102e7613015565b82541617815580f35b516306fda65d60e31b8152fd5b8280fd5b50503461033057816003193601126103305760209051731db2466d9f5e10d7090e7152b68d62703a2245f08152f35b5080fd5b505034610330578160031936011261033057602090516001600160a01b037f0000000000000000000000000000000000000000000000000000000000000000168152f35b50503461033057806003193601126103305760209161039561209b565b9061039e6120b1565b8452637f5e9f20600c52526034600c20549051908152f35b505034610330578160031936011261033057602090517360cf091cd3f50420d50fd7f707414d0df4751c588152f35b505034610330578160031936011261033057602090516001600160a01b037f0000000000000000000000000000000000000000000000000000000000000000168152f35b5050346103305781600319360112610330576020906003549051908152f35b5050346103305781600319360112610330576020906001600160a01b03600154169051908152f35b5090346102fd5760e03660031901126102fd5761048b61209b565b916104946120b1565b6084359160643560443560ff851685036105c1576104b0613111565b928651978342116105b5576001600160a01b038091169516956338377508600c52858a5260209485600c20948554956001870190557f6e71edae12b1b97f4d1f60370fef10105fa2faae0126114a169c64845d6126c98b5287878c0152888a8c015260608b019585875260808c015260a08b01526119018b52855260c0892088526042601e208a5260ff16845260a435875260c435606052838060808b60015afa50843d51036105aa5750777f5e9f200000000000000000000000000000000000000000851786526034602c20557f8c5be1e5ebec7d5bd14f71427d1e84f3dd0314c0f7b2291e5b200ac8c7c3b9259190a3528060605280f35b63ddafbaef8952601cfd5b50631a15a3cc8952601cfd5b8780fd5b50503461033057816003193601126103305760209065ffffffffffff600b5460b01c169051908152f35b505034610330578160031936011261033057602090600b5460e01c9051908152f35b50503461033057816003193601126103305760607f98ccebae89f16f152c93c6a0cdc0d99913b9e62a9fc612471c21ffc299c389fd917f00000000000000000000000000000000000000000000000000000000000000009061067282612a97565b61067a612b28565b6001600160a01b038151921682527f000000000000000000000000000000000000000000000000000000000000000060208301523390820152a180f35b50919034610330576060366003190112610330578235916106d66120b1565b926106df6120c7565b936106e8613015565b6001600160a01b039081861693843303610804575b610705612712565b610716610710612185565b85613230565b9687156107f45761072688612981565b6387a211a2600c5281526020600c208054988986116107e95750846020990390556805345cdf77eb68f44c848154039055838152847fddf252ad1be2c89b69c2b068fc378daa952ba7f163c4a11628f55a4df523b3ef8983a36107aa86827f00000000000000000000000000000000000000000000000000000000000000006133b0565b8451928684528784015216907ffbde797d201c681b91056529119e0b02407c7bb96a4a2c75c01fc9667232c8db843392a46107e3613015565b51908152f35b63f4d678b88352601cfd5b865163e3e8d29760e01b81528990fd5b61080f8433896131f1565b6106fd565b505034610330578160031936011261033057602090600d549051908152f35b5050346103305781600319360112610330576001600160a01b036020925460081c169051908152f35b5050346103305781600319360112610330576020906108796123fb565b9051908152f35b5050346103305781600319360112610330576020906001600160a01b03600254169051908152f35b50503461033057816003193601126103305760209069ffffffffffffffffffff600b5460601c169051908152f35b5091346109615781600319360112610961576108f061209b565b602435916387a211a2600c5233815260209485600c2090815490818611610956575084900390555282600c208181540190558252600c5160601c337fddf252ad1be2c89b69c2b068fc378daa952ba7f163c4a11628f55a4df523b3ef8480a35160018152f35b63f4d678b88452601cfd5b80fd5b833461096157806003193601126109615761097d612712565b80f35b50913461096157816003193601126109615761099a61209b565b60243590602052637f5e9f20600c523382526034600c209081548181106109f85760209550038091558152602c5160601c907f8c5be1e5ebec7d5bd14f71427d1e84f3dd0314c0f7b2291e5b200ac8c7c3b925843392a35160018152f35b85638301ab388552601cfd5b5050346103305781600319360112610330576020906007549051908152f35b5090346102fd57826003193601126102fd5780516395d89b4160e01b815292808484817f00000000000000000000000000000000000000000000000000000000000000006001600160a01b03165afa928315610b86578193610ae5575b610ae18484610ad76028825180947f4379675553443a200000000000000000000000000000000000000000000000006020830152610ac7815180926020868601910161204c565b810103600881018552018361222e565b519182918261206f565b0390f35b909192503d8083863e610af8818661222e565b84019160208584031261096157845167ffffffffffffffff958682116102fd57019183601f84011215610330578251958611610b715750835192610b46601f8701601f19166020018561222e565b858452602086840101116109615750610ae193610b69916020808501910161204c565b903880610a80565b604190634e487b7160e01b6000525260246000fd5b509051903d90823e3d90fd5b5050346103305760203660031901126103305780916001600160a01b03610bb761209b565b168152600a60205220548151906001600160801b038116825260801c6020820152f35b5091903461033057610120366003190112610330578235610bf96120b1565b60c0366043190112610f2e5761010490813567ffffffffffffffff8111610e1e57610c2790369088016120dd565b92610c30613015565b610c3861309f565b9380610e30575b505050610c4b83613387565b916e22d473030f116ddee9f6b43ac78ba3803b15610e2c578680916084885180948193631b63c28b60e11b83528d33908401523060248401526001600160a01b03809a166044840152897f00000000000000000000000000000000000000000000000000000000000000001660648401525af18015610e2257908791610e0a575b5050610ceb610d0191610cde866128f6565b610ce661309f565b6121db565b610cf3612712565b610cfb612185565b9061325b565b948515610dfa576805345cdf77eb68f44c8054918215610d66575b50505060209550610d2d8582613183565b8351928352848684015216907fdcbc1c05240f31ff3ad067ef1ee35ce4997762752e3a095284754544f4c709d7833392a36107e3613015565b919690916103e7198201918211610de75750956103e891828201918210610dda5760209850556387a211a2600c5261dead60005286600c208181540190558652600c5160601c60007fddf252ad1be2c89b69c2b068fc378daa952ba7f163c4a11628f55a4df523b3ef8880a3388080610d1c565b8863e5cfe957600052601cfd5b634e487b7160e01b815260118952602490fd5b845163f1ca48b160e01b81528790fd5b610e13906121e8565b610e1e578538610ccc565b8580fd5b86513d89823e3d90fd5b8680fd5b6e22d473030f116ddee9f6b43ac78ba3803b15610f2a5787516302b67b5760e41b8152338b820152936001600160a01b039283610e6b6120c7565b166024870152606435848116809103610f2657604487015260843565ffffffffffff90818116809103610f2157606488015260a435908116809103610f2157608487015260c435938416809403610f215785610ee78195938d97938894849660a486015260e43560c486015261010060e4860152840191612354565b03925af18015610f1757908691610eff575b80610c3f565b610f08906121e8565b610f13578438610ef9565b8480fd5b85513d88823e3d90fd5b600080fd5b8b80fd5b8880fd5b8380fd5b5090346102fd5760203660031901126102fd57813591610f50613015565b610f58612712565b6001600160a01b03600c54163303610fb057507fc63644116f6ef474fe595238489f3d0d31a12c55be3a748d72269a62882b04c990610f96836128f6565b42600d5580519283524260208401523392a261097d613015565b9051630dd8de6360e11b8152fd5b50503461033057602036600319011261033057602091610fdc61209b565b906338377508600c525281600c20549051908152f35b5050346103305760203660031901126103305760209061087961101361209b565b6123ae565b5050346103305781600319360112610330576020906005549051908152f35b5050346103305760203660031901126103305760209161105561209b565b906387a211a2600c525281600c20549051908152f35b505034610330578160031936011261033057602090516001600160a01b037f0000000000000000000000000000000000000000000000000000000000000000168152f35b5050346103305781600319360112610330576020916bffffffffffffffffffffffff600b541680156000146110e657509051908152f35b610cfb816001600160a01b03611100945460081c16612162565b906107e3565b505034610330578160031936011261033057602090516e22d473030f116ddee9f6b43ac78ba38152f35b505034610330578160031936011261033057602090517f00000000000000000000000000000000000000000000000000000000000000008152f35b83346109615760203660031901126109615761097d61118861209b565b611191816123ae565b69ffffffffffffffffffff600b5460601c16916126ab565b5050346103305781600319360112610330576020906001600160a01b03600c54169051908152f35b5050346103305781600319360112610330576020906bffffffffffffffffffffffff600b54169051908152f35b50346102fd57826003193601126102fd5760209250549051908152f35b5050346103305781600319360112610330576020906008549051908152f35b505034610330576020366003190112610330577f2a0d5dc7fbc8045f59cb33c736f04f9a9b565e9f425912f9cd2bafdebd50cead9061127761209b565b61127f612f8b565b600280546001600160a01b0392831673ffffffffffffffffffffffffffffffffffffffff198216811790925592519190921681526020810191909152604090a180f35b5050346103305781600319360112610330576020906112df612712565b610879612185565b50913461096157816003193601126109615761130161209b565b602052637f5e9f20600c523381526034600c2092835490602435820191821061135f575080602094558152602c5160601c907f8c5be1e5ebec7d5bd14f71427d1e84f3dd0314c0f7b2291e5b200ac8c7c3b925843392a35160018152f35b63f90670668352601cfd5b505034610330578160031936011261033057602090610879613111565b50913461096157806003193601126109615760208251809463313ce56760e01b8252816001600160a01b037f0000000000000000000000000000000000000000000000000000000000000000165afa928315610b865781936113f1575b60208460ff855191168152f35b9092506020813d821161142a575b8161140c6020938361222e565b810103126102fd57519160ff83168303610961575060ff60206113e4565b3d91506113ff565b5090346102fd576114423661210b565b91969384549760ff8916156116385760ff199889168655879493929190611467613015565b61146f612712565b611478826123ae565b90808210156116305750915b6001600160a01b039360208560648160015416988b8d51998a948593632d3aef6960e21b855216809d84015288169a8b60248401528960448401525af19485156116265788956115f3575b5080611581575b5050611502307f00000000000000000000000000000000000000000000000000000000000000006133f9565b978289106115735750917fb2b14447b2fb5b250428a70cf03fd19f8ff7ee7e04a46ebe7824df2a0c91a9e38860209a95936115408260019997612474565b5061154a826128f6565b8951938452602084015260408301523391606090a4611567613015565b82541617905551908152f35b87516307b1bd6f60e21b8152fd5b333b156105c15787908a6115c18b51948593849363e95471c760e01b85523390850152896024850152886044850152608060648501526084840191612354565b038183335af180156115e957908791156114d6576115de906121e8565b610e1e5785386114d6565b88513d89823e3d90fd5b9094506020813d821161161e575b8161160e6020938361222e565b81010312610f21575193386114cf565b3d9150611601565b89513d8a823e3d90fd5b905091611484565b86516306fda65d60e31b81528890fd5b509190346103305760603660031901126103305761166461209b565b61166c6120b1565b6044358260601b91602095338752600c93637f5e9f208117855260348520805460001981036116fb575b50506387a211a21784528684208054988985116107e95750836001600160a01b03969798990390555285822081815401905585525160601c91167fddf252ad1be2c89b69c2b068fc378daa952ba7f163c4a11628f55a4df523b3ef8480a35160018152f35b8086116117125785900390556387a211a238611696565b8a6313be252b8552601cfd5b509190346103305761172f3661210b565b94939686939193549560ff8716156119a75760ff199687168855839190611754613015565b61175c612712565b6001600160a01b03998a811696338803611997575b841515928361195e575b806118d9575b50506117b9906117b1307f00000000000000000000000000000000000000000000000000000000000000006133f9565b9485916125b6565b908386111561188f575060208a600154169160448951809481936333e3231160e21b83528b8884015260248301525afa90811561188557899161184b575b501561183d5750967f96558a334f4759f0e7c423d68c84721860bd8fbf94ddc4e55158ecb125ad04b591600197985b8651948552602085015216933392a46102e7613015565b855163efd5188560e01b8152fd5b90506020813d821161187d575b816118656020938361222e565b81010312610f2a57518015158103610f2a57386117f7565b3d9150611858565b87513d8b823e3d90fd5b90506118cb5750967f96558a334f4759f0e7c423d68c84721860bd8fbf94ddc4e55158ecb125ad04b591886118c66001999a6128f6565b611826565b8551637cc109a560e11b8152fd5b909192939450333b1561195a57611919918b918a519384928392638f53d74f60e01b8452338a8501528b6024850152606060448501526064840191612354565b038183335af1801561195057611935575b908186949392611781565b85939291996119466117b9926121e8565b999192935061192a565b88513d8c823e3d90fd5b8a80fd5b61196786612981565b61199286887f00000000000000000000000000000000000000000000000000000000000000006133b0565b61177b565b6119a28533846131f1565b611771565b5084516306fda65d60e31b8152fd5b50346102fd5760803660031901126102fd578035916024359060443591606435936119df612f8b565b67016345785d8a00008611611b91576706f05b59d3b2000085108015611b9f575b611b915760018085108015611b87575b611b78576301e13380918288046003558683028381048803611b6557611a36908561325b565b8155856007558660065588928685029060001988870991808310810180840393147f98f5be4dd1e14769fbd6666224dc1eb80dd2e0a3d2c8b328f57e76b7ae1039578484111594848c8b0990848211900360f91b90840360071c170295611ae5575b508b7ff58b8cc439edada25fd9495b7364aeb1d737dbef59be1cf62e0cc4001c44a3cd60808d8d8d8d8d611acc848f61325b565b600555815194855260208501528301526060820152a180f35b90919293949550611b30575050611b25575081611acc8660807ff58b8cc439edada25fd9495b7364aeb1d737dbef59be1cf62e0cc4001c44a3cd38611a98565b63ae47f7028852601cfd5b049250839150611acc90508660807ff58b8cc439edada25fd9495b7364aeb1d737dbef59be1cf62e0cc4001c44a3cd38611a98565b634e487b7160e01b8a526011825260248afd5b508251630e49b3b360e41b8152fd5b50600a8511611a10565b8251630e49b3b360e41b8152fd5b50670d2f13f7789f00008511611a00565b50346102fd5760203660031901126102fd57803590611bcd612f8b565b6702c68af0bb1400008211611b915750907faaa68312e2ea9d50e16af5068410ab56e1a1fd06037b1a35664812c30f82146091600854908060085582519182526020820152a180f35b5091903461033057602036600319011261033057611c3261209b565b9082549160ff831615611ce15760ff199283168455611c4f612f8b565b6001600160a01b0391828216927f0000000000000000000000000000000000000000000000000000000000000000168314611cd2576001949550611c9f611c9630846133f9565b809333906133b0565b519081527f6d25be279134f4ecaa4770aff0c3d916d9e7c5ef37b65ed95dbdba411f5d54d560203392a382541617815580f35b5163b5d8f39160e01b81528590fd5b81516306fda65d60e31b81528590fd5b5050346103305781600319360112610330576020906006549051908152f35b5050346103305781600319360112610330576020906009549051908152f35b5050346103305781600319360112610330576020906805345cdf77eb68f44c549051908152f35b5090346102fd5760209081600319360112610f2e578235936001600160a01b039283861680960361033057611d89612f8b565b600c928354958773ffffffffffffffffffffffffffffffffffffffff198816178555611db3612c14565b50947f00000000000000000000000000000000000000000000000000000000000000008716855b8751811015611eb7578189611def838b612bdb565b511603611e05575b611e0090612c05565b611dda565b611e4f868a611e14848c612bdb565b51168b8654169088518080958194636eb1769f60e11b8352308c84019060209093929360408301946001600160a01b03809216845216910152565b03915afa8015611ead57908791611e84575b505080611e7d8c8b611e76611e00958d612bdb565b51166129c8565b9050611df7565b813d8311611ea6575b611e97818361222e565b81010312610e2c578538611e61565b503d611e8d565b86513d8a823e3d90fd5b867f6a97a9e954ae4ef4c8ecc6c7dd8a1cbe668254132294ceb515db9a2e4faad7f5868c8e8a8e845193168352820152a180f35b505034610330578060031936011261033057602091611f0861209b565b602435908452637f5e9f20600c52338252806034600c20558152602c5160601c907f8c5be1e5ebec7d5bd14f71427d1e84f3dd0314c0f7b2291e5b200ac8c7c3b925843392a35160018152f35b505034610330578160031936011261033057610ae190611f73612375565b90519182918261206f565b8385843461033057816003193601126103305781549360ff85161561200357611fcd84868560ff198092168155611fb3612c14565b94906001809484541617835584519480865285019061200f565b6020848203818601528080875193848152019601925b828110611ff05785870386f35b8351875295810195928101928401611fe3565b6306fda65d60e31b8152fd5b90815180825260208080930193019160005b82811061202f575050505090565b83516001600160a01b031685529381019392810192600101612021565b60005b83811061205f5750506000910152565b818101518382015260200161204f565b6040916020825261208f815180928160208601526020868601910161204c565b601f01601f1916010190565b600435906001600160a01b0382168203610f2157565b602435906001600160a01b0382168203610f2157565b604435906001600160a01b0382168203610f2157565b9181601f84011215610f215782359167ffffffffffffffff8311610f215760208381860195010111610f2157565b906080600319830112610f21576001600160a01b03916004358381168103610f2157926024359081168103610f215791604435916064359067ffffffffffffffff8211610f215761215e916004016120dd565b9091565b9190820180921161216f57565b634e487b7160e01b600052601160045260246000fd5b6805345cdf77eb68f44c5480156121d457806121cc6121d1926121c76001600160a01b0360005460081c166bffffffffffffffffffffffff600b541690612162565b61325b565b61226f565b90565b5060095490565b9190820391821161216f57565b67ffffffffffffffff81116121fc57604052565b634e487b7160e01b600052604160045260246000fd5b6040810190811067ffffffffffffffff8211176121fc57604052565b90601f8019910116810190811067ffffffffffffffff8211176121fc57604052565b90816020910312610f2157516001600160a01b0381168103610f215790565b60095490918183111561234f57610ce66122a161229b6122926122a995876121db565b60085490613230565b856121db565b80948361329e565b806122b7575b508060095590565b604051630b60d15f60e31b8152906020826004817f00000000000000000000000000000000000000000000000000000000000000006001600160a01b03165afa80156123435761230f92600091612315575b50613183565b386122af565b612336915060203d811161233c575b61232e818361222e565b810190612250565b38612309565b503d612324565b6040513d6000823e3d90fd5b505090565b908060209392818452848401376000828201840152601f01601f1916010190565b6040519061238282612212565b601282527f4379676e75733a20426f72726f7761626c6500000000000000000000000000006020830152565b6001600160a01b0316600052600a6020526040600020548060801c80156123f4576121d1916001600160801b0369ffffffffffffffffffff600b5460601c16911661329e565b5050600090565b600b54600854670de0b6b3a764000090810390811161216f576124299065ffffffffffff8360b01c16613230565b6001600160a01b036bffffffffffffffffffffffff8160005460081c16931680930181811161216f571691821561246c576121d1926124679161325b565b613230565b505050600090565b919091612480816123ae565b83156125b157906125699169ffffffffffffffffffff600b5460601c169160006001600160a01b0382168152600a60205260408120968084116000146125a55761252690840380945b610ce6829a6001600160801b036124df85613362565b82546fffffffffffffffffffffffffffffffff19169116178155836125735780546001600160801b0316608087901b6fffffffffffffffffffffffffffffffff1916179055565b600b54916bffffffffffffffffffffffff9161254f91838516908282111561256b57500361333c565b16906bffffffffffffffffffffffff191617600b556126ab565b565b91505061333c565b61257c89613362565b81546001600160801b031660809190911b6fffffffffffffffffffffffffffffffff1916179055565b506125268180946124c9565b925050565b9291926125c2816123ae565b8483146126a55769ffffffffffffffffffff600b5460601c16946000936001600160a01b0384168552600a60205260408520948282116000146126695750916126176126449794926125699694038092612162565b9687936001600160801b0361262b86613362565b166001600160801b031982541617815561257c86613362565b600b549061254f6126646bffffffffffffffffffffffff92838516612162565b61333c565b90612569959361252691610ce69996940380821160001461269d578103905b81998a966001600160801b036124df85613362565b508290612688565b93505050565b9190916001600160a01b0390816002541690811561270b57813b15610f215760006064928195604051978896879563d98320d560e01b8752166004860152602485015260448401525af18015612343576127025750565b612569906121e8565b5050505050565b63ffffffff804216600b548060e01c928383039381851161216f576bffffffffffffffffffffffff918284169169ffffffffffffffffffff6001600160a01b0360005460081c169560601c169514801561288d575b612885576127758285612895565b95169384860294868604148615171561216f57806127aa6127b0926127a461279d868a613230565b8096612162565b97613230565b90612162565b916127ba8561333c565b16916a0100000000000000000000811015612877576601000000000000861015612877577f875352fb3fadeb8c0be7cbbe8ff761b308fa7033470cd0287f02f3436fd76cb9957bffffffffffff000000000000000000000000000000000000000000006128729475ffffffffffffffffffff00000000000000000000000063ffffffff60e01b4260e01b169460601b16179160b01b161717600b55604051938493846040919493926060820195825260208201520152565b0390a1565b6335278d126000526004601cfd5b505050505050565b508115612767565b90610cfb816128a393612162565b600654808211156128e557906128e06128d76121d1936128d16128c860045483613230565b60035490612162565b936121db565b60055490613230565b612162565b506128c86121d19160045490613230565b6040519063140e25ad60e31b82526004820152602081602481600073ec8fea79026ffed168ccf5c627c7f486d77b765f5af190811561234357600091612950575b5061293e57565b6040516339d7be8d60e21b8152600490fd5b906020823d8211612979575b816129696020938361222e565b8101031261096157505138612937565b3d915061295c565b6040519063852a12e360e01b82526004820152602081602481600073ec8fea79026ffed168ccf5c627c7f486d77b765f5af190811561234357600091612950575061293e57565b604051636eb1769f60e11b81523060048201526001600160a01b03831660248201529190602083806044810103816001600160a01b0385165afa92831561234357600093612a64575b5060001980931015612a5f5760106000604492602095829560145260345263095ea7b360601b82525af13d15600160005114171615612a51576000603452565b633e3f8f736000526004601cfd5b505050565b90926020823d8211612a8f575b81612a7e6020938361222e565b810103126109615750519138612a11565b3d9150612a71565b604051636eb1769f60e11b815230600482015273ec8fea79026ffed168ccf5c627c7f486d77b765f6024820181905290916020836044816001600160a01b0385165afa92831561234357600093612a64575060001980931015612a5f5760106000604492602095829560145260345263095ea7b360601b82525af13d15600160005114171615612a51576000603452565b604051636eb1769f60e11b815230600482015273dc05d85069dc4aba65954008ff99f2d73ff1261860248201819052731db2466d9f5e10d7090e7152b68d62703a2245f0602083604481845afa92831561234357600093612a64575060001980931015612a5f5760106000604492602095829560145260345263095ea7b360601b82525af13d15600160005114171615612a51576000603452565b67ffffffffffffffff81116121fc5760051b60200190565b8051821015612bef5760209160051b010190565b634e487b7160e01b600052603260045260246000fd5b600019811461216f5760010190565b6000906040908151612c2581612212565b6001815260209283820184368237825115612f775773ec8fea79026ffed168ccf5c627c7f486d77b765f90527360cf091cd3f50420d50fd7f707414d0df4751c5891823b15610e1e57815162e1ed9760e51b815286816004953087830152818381612c9b6024988a8a840152604483019061200f565b03925af18015612f6d57612f5a575b50815163d1058e5960e01b815273dc05d85069dc4aba65954008ff99f2d73ff12618969081818681838c5af1908115612f50578291612ec0575b50306014526f70a0823100000000000000000000000082528680846010731db2466d9f5e10d7090e7152b68d62703a2245f05afa601f3d111687510280612e6e575b50519260001992838501948511612e5d57612d4085612bc3565b92612d4d8351948561222e565b858452601f199485612d5e88612bc3565b01368b870137849a612d6f88612bc3565b96612d7c8651988961222e565b888852612d8889612bc3565b01368c890137869a60015b89811115612da8575050505050505050505050565b86516327b2595f60e11b81528b81018290528281888189885af1908115612e53578691612e36575b5084820190828211612e245790612e19612e128b612e1f9594612df38583612bdb565b6001600160a01b038092169052612e0b853093612bdb565b51166133f9565b918c612bdb565b52612c05565b612d93565b634e487b7160e01b875260118d528787fd5b612e4d9150833d851161233c5761232e818361222e565b38612dd0565b88513d88823e3d90fd5b634e487b7160e01b83526011865282fd5b883b156102fd5784519063140e25ad60e31b82528682015282818581838d5af18015612eb657908391612ea2575b50612d26565b612eab906121e8565b610330578138612e9c565b85513d85823e3d90fd5b90503d8083833e612ed1818361222e565b81019087818303126102fd5780519067ffffffffffffffff8211610f2e57019080601f830112156102fd578151612f0781612bc3565b92612f148751948561222e565b818452898085019260051b820101928311610f135789809101915b838310612f40575050505038612ce4565b82518152918101918a9101612f2f565b84513d84823e3d90fd5b612f66909691966121e8565b9438612caa565b83513d89823e3d90fd5b634e487b7160e01b86526032600452602486fd5b6040516303e1469160e61b81526001600160a01b03906020816004817f000000000000000000000000000000000000000000000000000000000000000086165afa90811561234357600091612ff7575b50163303612fe557565b6040516331d63ad160e11b8152600490fd5b61300f915060203d811161233c5761232e818361222e565b38612fdb565b7f3145c2b643834867f2c0a8cac8a48218307687911615c0ed01412a09dd163b66602061304861304361309f565b613387565b6000547fffffffffffffffffffffff0000000000000000000000000000000000000000ff74ffffffffffffffffffffffffffffffffffffffff008360081b169116176000556001600160a01b0360405191168152a1565b604051633af9e66960e01b8152306004820152602081602481600073ec8fea79026ffed168ccf5c627c7f486d77b765f5af1908115612343576000916130e3575090565b906020823d8211613109575b816130fc6020938361222e565b8101031261096157505190565b3d91506130ef565b60a060405161311e612375565b602081519101207f8b73c3c69bb8fe3d512ecc4cf759cc79239f7b179b0ffacaa9a75d522b39400f825260208201527fc89efdaa54c0f20c7adf612882df0950f5a951637e0307cdcb4c672f298b8bc660408201524660608201523060808201522090565b6805345cdf77eb68f44c8054908382019182106131e357556387a211a2600c526000526020600c20818154019055602052600c5160601c60007fddf252ad1be2c89b69c2b068fc378daa952ba7f163c4a11628f55a4df523b3ef602080a3565b63e5cfe9576000526004601cfd5b90602052637f5e9f20600c526000526034600c20908154600019810361321657505050565b80821161322257039055565b6313be252b6000526004601cfd5b9080600019048211810261324d57670de0b6b3a764000091020490565b63bac65e5b6000526004601cfd5b670de0b6b3a7640000907812725dd1d243aba0e75fe645cc4873f9e65afe688c928e1f21811182021583021561329057020490565b637c5f487d6000526004601cfd5b91600092828102926000198183099184831085018084039314613320578284111561331357908391099060018386038416808080960460028082600302188083028203028083028203028083028203028083028203028083028203028092029003029703040190848311900302920304170290565b63ae47f70286526004601cfd5b50505091821561332f57500490565b63ae47f70290526004601cfd5b6c01000000000000000000000000811015612877576bffffffffffffffffffffffff1690565b700100000000000000000000000000000000811015612877576001600160801b031690565b74010000000000000000000000000000000000000000811015612877576001600160a01b031690565b60109260209260145260345260446000938480936fa9059cbb00000000000000000000000082525af13d1560018351141716156133ec57603452565b6390b8ec1890526004601cfd5b602460106020939284936014526f70a082310000000000000000000000006000525afa601f3d1116602051029056fea2646970667358221220697740a96364de7ec5f23adae046be58692b794a4d1e2d5effd364034bc4737964736f6c63430008110033a264697066735822122078363a5f4a2df12cad2b096d31478d536c554d43cfca7c5767aa5ae6cbbc2e9d64736f6c634300081100336101008060405234620001f3576000805460ff19166001178155635a412e5360e01b80835260a092838160048186335af18015620001e8578391849185918691620001bf575b5060e052855260c052608052670bcbce7f1b1500006006556002600755670214e8348c4f0000600855670de0b6b3a7640000600955604051908152828160048185335af1918215620001b357916200017a575b50600180546001600160a01b0319166001600160a01b0392909216919091179055600b80546001600160601b0365ffffffffffff60b01b01164260e01b6001600160e01b031916176503782dace9d960721b17905560405161345e9182620002a18339608051828181610354015281816122cd0152612fa901525181610405015260c0518181816106490152818161078601528181610a4801528181610c970152818161108b015281816113b4015281816114de0152818161178d0152818161196e01528181611c5e0152611db7015260e05181818161068a01526111480152f35b6200019f9150823d8411620001ab575b620001968183620001f8565b81019062000247565b50509150503862000098565b503d6200018a565b604051903d90823e3d90fd5b92505050620001de9150843d8611620001ab57620001968183620001f8565b9150903862000045565b6040513d85823e3d90fd5b600080fd5b601f909101601f19168101906001600160401b038211908210176200021c57604052565b634e487b7160e01b600052604160045260246000fd5b51906001600160a01b0382168203620001f357565b91908260a0910312620001f35781516001600160a01b03908181168103620001f35792620002786020820162000232565b92620002876040830162000232565b9260608301519081168103620001f3576080909201519056fe6080604081815260048036101561001557600080fd5b600092833560e01c9081630572b0cc14611f7e5750806306fdde0314611f55578063095ea7b314611eeb57806315de1daa14611d5657806318160ddd14611d2f578063182df0f514611d105780631aebf12f14611cf15780631be1956014611c165780631c44698314611bb05780631e44b7fc146119b65780631e7dcc0d1461171e57806323b872dd1461164857806327ce385414611432578063313ce567146113875780633644e5151461136a57806339509351146112e75780633ba0b9a9146112c257806342bf78af1461123a5780634322b7141461121b57806346f608ff146111fe57806347bd3718146111d15780634bdaeac1146111a95780635b322bbe1461116b5780635f77f891146111305780636afdd850146111065780636c321c8a146110af5780636f307dc31461106b57806370a082311461103757806372cf84a7146110185780637d6af07914610ff25780637ecebe0014610fbe57806381f5b6f414610f325780638808e71c14610bda57806394e1373c14610b9257806395d89b4114610a235780639b51099814610a04578063a457c2d714610980578063a6afed9514610964578063a9059cbb146108d6578063aa5af0fd146108a8578063ad168c9d14610880578063ad2961a31461085c578063ad7a672f14610833578063b5f3c95b14610814578063ba087652146106b7578063bcbc332014610611578063c0789dcb146105ef578063c914b437146105c5578063d505accf14610470578063d8dfeb4514610448578063d90e026414610429578063d935bd92146103e5578063dcc3e06e146103b6578063dd62ed3e14610378578063e8a24e1d14610334578063f7c618c1146103015763fff6cae91461029657600080fd5b346102fd57826003193601126102fd5782549160ff8316156102f0578360018460ff1980911683556102c6613015565b6102ce612712565b6102d6612712565b6102de612185565b506102e7613015565b82541617815580f35b516306fda65d60e31b8152fd5b8280fd5b50503461033057816003193601126103305760209051731db2466d9f5e10d7090e7152b68d62703a2245f08152f35b5080fd5b505034610330578160031936011261033057602090516001600160a01b037f0000000000000000000000000000000000000000000000000000000000000000168152f35b50503461033057806003193601126103305760209161039561209b565b9061039e6120b1565b8452637f5e9f20600c52526034600c20549051908152f35b505034610330578160031936011261033057602090517360cf091cd3f50420d50fd7f707414d0df4751c588152f35b505034610330578160031936011261033057602090516001600160a01b037f0000000000000000000000000000000000000000000000000000000000000000168152f35b5050346103305781600319360112610330576020906003549051908152f35b5050346103305781600319360112610330576020906001600160a01b03600154169051908152f35b5090346102fd5760e03660031901126102fd5761048b61209b565b916104946120b1565b6084359160643560443560ff851685036105c1576104b0613111565b928651978342116105b5576001600160a01b038091169516956338377508600c52858a5260209485600c20948554956001870190557f6e71edae12b1b97f4d1f60370fef10105fa2faae0126114a169c64845d6126c98b5287878c0152888a8c015260608b019585875260808c015260a08b01526119018b52855260c0892088526042601e208a5260ff16845260a435875260c435606052838060808b60015afa50843d51036105aa5750777f5e9f200000000000000000000000000000000000000000851786526034602c20557f8c5be1e5ebec7d5bd14f71427d1e84f3dd0314c0f7b2291e5b200ac8c7c3b9259190a3528060605280f35b63ddafbaef8952601cfd5b50631a15a3cc8952601cfd5b8780fd5b50503461033057816003193601126103305760209065ffffffffffff600b5460b01c169051908152f35b505034610330578160031936011261033057602090600b5460e01c9051908152f35b50503461033057816003193601126103305760607f98ccebae89f16f152c93c6a0cdc0d99913b9e62a9fc612471c21ffc299c389fd917f00000000000000000000000000000000000000000000000000000000000000009061067282612a97565b61067a612b28565b6001600160a01b038151921682527f000000000000000000000000000000000000000000000000000000000000000060208301523390820152a180f35b50919034610330576060366003190112610330578235916106d66120b1565b926106df6120c7565b936106e8613015565b6001600160a01b039081861693843303610804575b610705612712565b610716610710612185565b85613230565b9687156107f45761072688612981565b6387a211a2600c5281526020600c208054988986116107e95750846020990390556805345cdf77eb68f44c848154039055838152847fddf252ad1be2c89b69c2b068fc378daa952ba7f163c4a11628f55a4df523b3ef8983a36107aa86827f00000000000000000000000000000000000000000000000000000000000000006133b0565b8451928684528784015216907ffbde797d201c681b91056529119e0b02407c7bb96a4a2c75c01fc9667232c8db843392a46107e3613015565b51908152f35b63f4d678b88352601cfd5b865163e3e8d29760e01b81528990fd5b61080f8433896131f1565b6106fd565b505034610330578160031936011261033057602090600d549051908152f35b5050346103305781600319360112610330576001600160a01b036020925460081c169051908152f35b5050346103305781600319360112610330576020906108796123fb565b9051908152f35b5050346103305781600319360112610330576020906001600160a01b03600254169051908152f35b50503461033057816003193601126103305760209069ffffffffffffffffffff600b5460601c169051908152f35b5091346109615781600319360112610961576108f061209b565b602435916387a211a2600c5233815260209485600c2090815490818611610956575084900390555282600c208181540190558252600c5160601c337fddf252ad1be2c89b69c2b068fc378daa952ba7f163c4a11628f55a4df523b3ef8480a35160018152f35b63f4d678b88452601cfd5b80fd5b833461096157806003193601126109615761097d612712565b80f35b50913461096157816003193601126109615761099a61209b565b60243590602052637f5e9f20600c523382526034600c209081548181106109f85760209550038091558152602c5160601c907f8c5be1e5ebec7d5bd14f71427d1e84f3dd0314c0f7b2291e5b200ac8c7c3b925843392a35160018152f35b85638301ab388552601cfd5b5050346103305781600319360112610330576020906007549051908152f35b5090346102fd57826003193601126102fd5780516395d89b4160e01b815292808484817f00000000000000000000000000000000000000000000000000000000000000006001600160a01b03165afa928315610b86578193610ae5575b610ae18484610ad76028825180947f4379675553443a200000000000000000000000000000000000000000000000006020830152610ac7815180926020868601910161204c565b810103600881018552018361222e565b519182918261206f565b0390f35b909192503d8083863e610af8818661222e565b84019160208584031261096157845167ffffffffffffffff958682116102fd57019183601f84011215610330578251958611610b715750835192610b46601f8701601f19166020018561222e565b858452602086840101116109615750610ae193610b69916020808501910161204c565b903880610a80565b604190634e487b7160e01b6000525260246000fd5b509051903d90823e3d90fd5b5050346103305760203660031901126103305780916001600160a01b03610bb761209b565b168152600a60205220548151906001600160801b038116825260801c6020820152f35b5091903461033057610120366003190112610330578235610bf96120b1565b60c0366043190112610f2e5761010490813567ffffffffffffffff8111610e1e57610c2790369088016120dd565b92610c30613015565b610c3861309f565b9380610e30575b505050610c4b83613387565b916e22d473030f116ddee9f6b43ac78ba3803b15610e2c578680916084885180948193631b63c28b60e11b83528d33908401523060248401526001600160a01b03809a166044840152897f00000000000000000000000000000000000000000000000000000000000000001660648401525af18015610e2257908791610e0a575b5050610ceb610d0191610cde866128f6565b610ce661309f565b6121db565b610cf3612712565b610cfb612185565b9061325b565b948515610dfa576805345cdf77eb68f44c8054918215610d66575b50505060209550610d2d8582613183565b8351928352848684015216907fdcbc1c05240f31ff3ad067ef1ee35ce4997762752e3a095284754544f4c709d7833392a36107e3613015565b919690916103e7198201918211610de75750956103e891828201918210610dda5760209850556387a211a2600c5261dead60005286600c208181540190558652600c5160601c60007fddf252ad1be2c89b69c2b068fc378daa952ba7f163c4a11628f55a4df523b3ef8880a3388080610d1c565b8863e5cfe957600052601cfd5b634e487b7160e01b815260118952602490fd5b845163f1ca48b160e01b81528790fd5b610e13906121e8565b610e1e578538610ccc565b8580fd5b86513d89823e3d90fd5b8680fd5b6e22d473030f116ddee9f6b43ac78ba3803b15610f2a5787516302b67b5760e41b8152338b820152936001600160a01b039283610e6b6120c7565b166024870152606435848116809103610f2657604487015260843565ffffffffffff90818116809103610f2157606488015260a435908116809103610f2157608487015260c435938416809403610f215785610ee78195938d97938894849660a486015260e43560c486015261010060e4860152840191612354565b03925af18015610f1757908691610eff575b80610c3f565b610f08906121e8565b610f13578438610ef9565b8480fd5b85513d88823e3d90fd5b600080fd5b8b80fd5b8880fd5b8380fd5b5090346102fd5760203660031901126102fd57813591610f50613015565b610f58612712565b6001600160a01b03600c54163303610fb057507fc63644116f6ef474fe595238489f3d0d31a12c55be3a748d72269a62882b04c990610f96836128f6565b42600d5580519283524260208401523392a261097d613015565b9051630dd8de6360e11b8152fd5b50503461033057602036600319011261033057602091610fdc61209b565b906338377508600c525281600c20549051908152f35b5050346103305760203660031901126103305760209061087961101361209b565b6123ae565b5050346103305781600319360112610330576020906005549051908152f35b5050346103305760203660031901126103305760209161105561209b565b906387a211a2600c525281600c20549051908152f35b505034610330578160031936011261033057602090516001600160a01b037f0000000000000000000000000000000000000000000000000000000000000000168152f35b5050346103305781600319360112610330576020916bffffffffffffffffffffffff600b541680156000146110e657509051908152f35b610cfb816001600160a01b03611100945460081c16612162565b906107e3565b505034610330578160031936011261033057602090516e22d473030f116ddee9f6b43ac78ba38152f35b505034610330578160031936011261033057602090517f00000000000000000000000000000000000000000000000000000000000000008152f35b83346109615760203660031901126109615761097d61118861209b565b611191816123ae565b69ffffffffffffffffffff600b5460601c16916126ab565b5050346103305781600319360112610330576020906001600160a01b03600c54169051908152f35b5050346103305781600319360112610330576020906bffffffffffffffffffffffff600b54169051908152f35b50346102fd57826003193601126102fd5760209250549051908152f35b5050346103305781600319360112610330576020906008549051908152f35b505034610330576020366003190112610330577f2a0d5dc7fbc8045f59cb33c736f04f9a9b565e9f425912f9cd2bafdebd50cead9061127761209b565b61127f612f8b565b600280546001600160a01b0392831673ffffffffffffffffffffffffffffffffffffffff198216811790925592519190921681526020810191909152604090a180f35b5050346103305781600319360112610330576020906112df612712565b610879612185565b50913461096157816003193601126109615761130161209b565b602052637f5e9f20600c523381526034600c2092835490602435820191821061135f575080602094558152602c5160601c907f8c5be1e5ebec7d5bd14f71427d1e84f3dd0314c0f7b2291e5b200ac8c7c3b925843392a35160018152f35b63f90670668352601cfd5b505034610330578160031936011261033057602090610879613111565b50913461096157806003193601126109615760208251809463313ce56760e01b8252816001600160a01b037f0000000000000000000000000000000000000000000000000000000000000000165afa928315610b865781936113f1575b60208460ff855191168152f35b9092506020813d821161142a575b8161140c6020938361222e565b810103126102fd57519160ff83168303610961575060ff60206113e4565b3d91506113ff565b5090346102fd576114423661210b565b91969384549760ff8916156116385760ff199889168655879493929190611467613015565b61146f612712565b611478826123ae565b90808210156116305750915b6001600160a01b039360208560648160015416988b8d51998a948593632d3aef6960e21b855216809d84015288169a8b60248401528960448401525af19485156116265788956115f3575b5080611581575b5050611502307f00000000000000000000000000000000000000000000000000000000000000006133f9565b978289106115735750917fb2b14447b2fb5b250428a70cf03fd19f8ff7ee7e04a46ebe7824df2a0c91a9e38860209a95936115408260019997612474565b5061154a826128f6565b8951938452602084015260408301523391606090a4611567613015565b82541617905551908152f35b87516307b1bd6f60e21b8152fd5b333b156105c15787908a6115c18b51948593849363e95471c760e01b85523390850152896024850152886044850152608060648501526084840191612354565b038183335af180156115e957908791156114d6576115de906121e8565b610e1e5785386114d6565b88513d89823e3d90fd5b9094506020813d821161161e575b8161160e6020938361222e565b81010312610f21575193386114cf565b3d9150611601565b89513d8a823e3d90fd5b905091611484565b86516306fda65d60e31b81528890fd5b509190346103305760603660031901126103305761166461209b565b61166c6120b1565b6044358260601b91602095338752600c93637f5e9f208117855260348520805460001981036116fb575b50506387a211a21784528684208054988985116107e95750836001600160a01b03969798990390555285822081815401905585525160601c91167fddf252ad1be2c89b69c2b068fc378daa952ba7f163c4a11628f55a4df523b3ef8480a35160018152f35b8086116117125785900390556387a211a238611696565b8a6313be252b8552601cfd5b509190346103305761172f3661210b565b94939686939193549560ff8716156119a75760ff199687168855839190611754613015565b61175c612712565b6001600160a01b03998a811696338803611997575b841515928361195e575b806118d9575b50506117b9906117b1307f00000000000000000000000000000000000000000000000000000000000000006133f9565b9485916125b6565b908386111561188f575060208a600154169160448951809481936333e3231160e21b83528b8884015260248301525afa90811561188557899161184b575b501561183d5750967f96558a334f4759f0e7c423d68c84721860bd8fbf94ddc4e55158ecb125ad04b591600197985b8651948552602085015216933392a46102e7613015565b855163efd5188560e01b8152fd5b90506020813d821161187d575b816118656020938361222e565b81010312610f2a57518015158103610f2a57386117f7565b3d9150611858565b87513d8b823e3d90fd5b90506118cb5750967f96558a334f4759f0e7c423d68c84721860bd8fbf94ddc4e55158ecb125ad04b591886118c66001999a6128f6565b611826565b8551637cc109a560e11b8152fd5b909192939450333b1561195a57611919918b918a519384928392638f53d74f60e01b8452338a8501528b6024850152606060448501526064840191612354565b038183335af1801561195057611935575b908186949392611781565b85939291996119466117b9926121e8565b999192935061192a565b88513d8c823e3d90fd5b8a80fd5b61196786612981565b61199286887f00000000000000000000000000000000000000000000000000000000000000006133b0565b61177b565b6119a28533846131f1565b611771565b5084516306fda65d60e31b8152fd5b50346102fd5760803660031901126102fd578035916024359060443591606435936119df612f8b565b67016345785d8a00008611611b91576706f05b59d3b2000085108015611b9f575b611b915760018085108015611b87575b611b78576301e13380918288046003558683028381048803611b6557611a36908561325b565b8155856007558660065588928685029060001988870991808310810180840393147f98f5be4dd1e14769fbd6666224dc1eb80dd2e0a3d2c8b328f57e76b7ae1039578484111594848c8b0990848211900360f91b90840360071c170295611ae5575b508b7ff58b8cc439edada25fd9495b7364aeb1d737dbef59be1cf62e0cc4001c44a3cd60808d8d8d8d8d611acc848f61325b565b600555815194855260208501528301526060820152a180f35b90919293949550611b30575050611b25575081611acc8660807ff58b8cc439edada25fd9495b7364aeb1d737dbef59be1cf62e0cc4001c44a3cd38611a98565b63ae47f7028852601cfd5b049250839150611acc90508660807ff58b8cc439edada25fd9495b7364aeb1d737dbef59be1cf62e0cc4001c44a3cd38611a98565b634e487b7160e01b8a526011825260248afd5b508251630e49b3b360e41b8152fd5b50600a8511611a10565b8251630e49b3b360e41b8152fd5b50670d2f13f7789f00008511611a00565b50346102fd5760203660031901126102fd57803590611bcd612f8b565b6702c68af0bb1400008211611b915750907faaa68312e2ea9d50e16af5068410ab56e1a1fd06037b1a35664812c30f82146091600854908060085582519182526020820152a180f35b5091903461033057602036600319011261033057611c3261209b565b9082549160ff831615611ce15760ff199283168455611c4f612f8b565b6001600160a01b0391828216927f0000000000000000000000000000000000000000000000000000000000000000168314611cd2576001949550611c9f611c9630846133f9565b809333906133b0565b519081527f6d25be279134f4ecaa4770aff0c3d916d9e7c5ef37b65ed95dbdba411f5d54d560203392a382541617815580f35b5163b5d8f39160e01b81528590fd5b81516306fda65d60e31b81528590fd5b5050346103305781600319360112610330576020906006549051908152f35b5050346103305781600319360112610330576020906009549051908152f35b5050346103305781600319360112610330576020906805345cdf77eb68f44c549051908152f35b5090346102fd5760209081600319360112610f2e578235936001600160a01b039283861680960361033057611d89612f8b565b600c928354958773ffffffffffffffffffffffffffffffffffffffff198816178555611db3612c14565b50947f00000000000000000000000000000000000000000000000000000000000000008716855b8751811015611eb7578189611def838b612bdb565b511603611e05575b611e0090612c05565b611dda565b611e4f868a611e14848c612bdb565b51168b8654169088518080958194636eb1769f60e11b8352308c84019060209093929360408301946001600160a01b03809216845216910152565b03915afa8015611ead57908791611e84575b505080611e7d8c8b611e76611e00958d612bdb565b51166129c8565b9050611df7565b813d8311611ea6575b611e97818361222e565b81010312610e2c578538611e61565b503d611e8d565b86513d8a823e3d90fd5b867f6a97a9e954ae4ef4c8ecc6c7dd8a1cbe668254132294ceb515db9a2e4faad7f5868c8e8a8e845193168352820152a180f35b505034610330578060031936011261033057602091611f0861209b565b602435908452637f5e9f20600c52338252806034600c20558152602c5160601c907f8c5be1e5ebec7d5bd14f71427d1e84f3dd0314c0f7b2291e5b200ac8c7c3b925843392a35160018152f35b505034610330578160031936011261033057610ae190611f73612375565b90519182918261206f565b8385843461033057816003193601126103305781549360ff85161561200357611fcd84868560ff198092168155611fb3612c14565b94906001809484541617835584519480865285019061200f565b6020848203818601528080875193848152019601925b828110611ff05785870386f35b8351875295810195928101928401611fe3565b6306fda65d60e31b8152fd5b90815180825260208080930193019160005b82811061202f575050505090565b83516001600160a01b031685529381019392810192600101612021565b60005b83811061205f5750506000910152565b818101518382015260200161204f565b6040916020825261208f815180928160208601526020868601910161204c565b601f01601f1916010190565b600435906001600160a01b0382168203610f2157565b602435906001600160a01b0382168203610f2157565b604435906001600160a01b0382168203610f2157565b9181601f84011215610f215782359167ffffffffffffffff8311610f215760208381860195010111610f2157565b906080600319830112610f21576001600160a01b03916004358381168103610f2157926024359081168103610f215791604435916064359067ffffffffffffffff8211610f215761215e916004016120dd565b9091565b9190820180921161216f57565b634e487b7160e01b600052601160045260246000fd5b6805345cdf77eb68f44c5480156121d457806121cc6121d1926121c76001600160a01b0360005460081c166bffffffffffffffffffffffff600b541690612162565b61325b565b61226f565b90565b5060095490565b9190820391821161216f57565b67ffffffffffffffff81116121fc57604052565b634e487b7160e01b600052604160045260246000fd5b6040810190811067ffffffffffffffff8211176121fc57604052565b90601f8019910116810190811067ffffffffffffffff8211176121fc57604052565b90816020910312610f2157516001600160a01b0381168103610f215790565b60095490918183111561234f57610ce66122a161229b6122926122a995876121db565b60085490613230565b856121db565b80948361329e565b806122b7575b508060095590565b604051630b60d15f60e31b8152906020826004817f00000000000000000000000000000000000000000000000000000000000000006001600160a01b03165afa80156123435761230f92600091612315575b50613183565b386122af565b612336915060203d811161233c575b61232e818361222e565b810190612250565b38612309565b503d612324565b6040513d6000823e3d90fd5b505090565b908060209392818452848401376000828201840152601f01601f1916010190565b6040519061238282612212565b601282527f4379676e75733a20426f72726f7761626c6500000000000000000000000000006020830152565b6001600160a01b0316600052600a6020526040600020548060801c80156123f4576121d1916001600160801b0369ffffffffffffffffffff600b5460601c16911661329e565b5050600090565b600b54600854670de0b6b3a764000090810390811161216f576124299065ffffffffffff8360b01c16613230565b6001600160a01b036bffffffffffffffffffffffff8160005460081c16931680930181811161216f571691821561246c576121d1926124679161325b565b613230565b505050600090565b919091612480816123ae565b83156125b157906125699169ffffffffffffffffffff600b5460601c169160006001600160a01b0382168152600a60205260408120968084116000146125a55761252690840380945b610ce6829a6001600160801b036124df85613362565b82546fffffffffffffffffffffffffffffffff19169116178155836125735780546001600160801b0316608087901b6fffffffffffffffffffffffffffffffff1916179055565b600b54916bffffffffffffffffffffffff9161254f91838516908282111561256b57500361333c565b16906bffffffffffffffffffffffff191617600b556126ab565b565b91505061333c565b61257c89613362565b81546001600160801b031660809190911b6fffffffffffffffffffffffffffffffff1916179055565b506125268180946124c9565b925050565b9291926125c2816123ae565b8483146126a55769ffffffffffffffffffff600b5460601c16946000936001600160a01b0384168552600a60205260408520948282116000146126695750916126176126449794926125699694038092612162565b9687936001600160801b0361262b86613362565b166001600160801b031982541617815561257c86613362565b600b549061254f6126646bffffffffffffffffffffffff92838516612162565b61333c565b90612569959361252691610ce69996940380821160001461269d578103905b81998a966001600160801b036124df85613362565b508290612688565b93505050565b9190916001600160a01b0390816002541690811561270b57813b15610f215760006064928195604051978896879563d98320d560e01b8752166004860152602485015260448401525af18015612343576127025750565b612569906121e8565b5050505050565b63ffffffff804216600b548060e01c928383039381851161216f576bffffffffffffffffffffffff918284169169ffffffffffffffffffff6001600160a01b0360005460081c169560601c169514801561288d575b612885576127758285612895565b95169384860294868604148615171561216f57806127aa6127b0926127a461279d868a613230565b8096612162565b97613230565b90612162565b916127ba8561333c565b16916a0100000000000000000000811015612877576601000000000000861015612877577f875352fb3fadeb8c0be7cbbe8ff761b308fa7033470cd0287f02f3436fd76cb9957bffffffffffff000000000000000000000000000000000000000000006128729475ffffffffffffffffffff00000000000000000000000063ffffffff60e01b4260e01b169460601b16179160b01b161717600b55604051938493846040919493926060820195825260208201520152565b0390a1565b6335278d126000526004601cfd5b505050505050565b508115612767565b90610cfb816128a393612162565b600654808211156128e557906128e06128d76121d1936128d16128c860045483613230565b60035490612162565b936121db565b60055490613230565b612162565b506128c86121d19160045490613230565b6040519063140e25ad60e31b82526004820152602081602481600073ec8fea79026ffed168ccf5c627c7f486d77b765f5af190811561234357600091612950575b5061293e57565b6040516339d7be8d60e21b8152600490fd5b906020823d8211612979575b816129696020938361222e565b8101031261096157505138612937565b3d915061295c565b6040519063852a12e360e01b82526004820152602081602481600073ec8fea79026ffed168ccf5c627c7f486d77b765f5af190811561234357600091612950575061293e57565b604051636eb1769f60e11b81523060048201526001600160a01b03831660248201529190602083806044810103816001600160a01b0385165afa92831561234357600093612a64575b5060001980931015612a5f5760106000604492602095829560145260345263095ea7b360601b82525af13d15600160005114171615612a51576000603452565b633e3f8f736000526004601cfd5b505050565b90926020823d8211612a8f575b81612a7e6020938361222e565b810103126109615750519138612a11565b3d9150612a71565b604051636eb1769f60e11b815230600482015273ec8fea79026ffed168ccf5c627c7f486d77b765f6024820181905290916020836044816001600160a01b0385165afa92831561234357600093612a64575060001980931015612a5f5760106000604492602095829560145260345263095ea7b360601b82525af13d15600160005114171615612a51576000603452565b604051636eb1769f60e11b815230600482015273dc05d85069dc4aba65954008ff99f2d73ff1261860248201819052731db2466d9f5e10d7090e7152b68d62703a2245f0602083604481845afa92831561234357600093612a64575060001980931015612a5f5760106000604492602095829560145260345263095ea7b360601b82525af13d15600160005114171615612a51576000603452565b67ffffffffffffffff81116121fc5760051b60200190565b8051821015612bef5760209160051b010190565b634e487b7160e01b600052603260045260246000fd5b600019811461216f5760010190565b6000906040908151612c2581612212565b6001815260209283820184368237825115612f775773ec8fea79026ffed168ccf5c627c7f486d77b765f90527360cf091cd3f50420d50fd7f707414d0df4751c5891823b15610e1e57815162e1ed9760e51b815286816004953087830152818381612c9b6024988a8a840152604483019061200f565b03925af18015612f6d57612f5a575b50815163d1058e5960e01b815273dc05d85069dc4aba65954008ff99f2d73ff12618969081818681838c5af1908115612f50578291612ec0575b50306014526f70a0823100000000000000000000000082528680846010731db2466d9f5e10d7090e7152b68d62703a2245f05afa601f3d111687510280612e6e575b50519260001992838501948511612e5d57612d4085612bc3565b92612d4d8351948561222e565b858452601f199485612d5e88612bc3565b01368b870137849a612d6f88612bc3565b96612d7c8651988961222e565b888852612d8889612bc3565b01368c890137869a60015b89811115612da8575050505050505050505050565b86516327b2595f60e11b81528b81018290528281888189885af1908115612e53578691612e36575b5084820190828211612e245790612e19612e128b612e1f9594612df38583612bdb565b6001600160a01b038092169052612e0b853093612bdb565b51166133f9565b918c612bdb565b52612c05565b612d93565b634e487b7160e01b875260118d528787fd5b612e4d9150833d851161233c5761232e818361222e565b38612dd0565b88513d88823e3d90fd5b634e487b7160e01b83526011865282fd5b883b156102fd5784519063140e25ad60e31b82528682015282818581838d5af18015612eb657908391612ea2575b50612d26565b612eab906121e8565b610330578138612e9c565b85513d85823e3d90fd5b90503d8083833e612ed1818361222e565b81019087818303126102fd5780519067ffffffffffffffff8211610f2e57019080601f830112156102fd578151612f0781612bc3565b92612f148751948561222e565b818452898085019260051b820101928311610f135789809101915b838310612f40575050505038612ce4565b82518152918101918a9101612f2f565b84513d84823e3d90fd5b612f66909691966121e8565b9438612caa565b83513d89823e3d90fd5b634e487b7160e01b86526032600452602486fd5b6040516303e1469160e61b81526001600160a01b03906020816004817f000000000000000000000000000000000000000000000000000000000000000086165afa90811561234357600091612ff7575b50163303612fe557565b6040516331d63ad160e11b8152600490fd5b61300f915060203d811161233c5761232e818361222e565b38612fdb565b7f3145c2b643834867f2c0a8cac8a48218307687911615c0ed01412a09dd163b66602061304861304361309f565b613387565b6000547fffffffffffffffffffffff0000000000000000000000000000000000000000ff74ffffffffffffffffffffffffffffffffffffffff008360081b169116176000556001600160a01b0360405191168152a1565b604051633af9e66960e01b8152306004820152602081602481600073ec8fea79026ffed168ccf5c627c7f486d77b765f5af1908115612343576000916130e3575090565b906020823d8211613109575b816130fc6020938361222e565b8101031261096157505190565b3d91506130ef565b60a060405161311e612375565b602081519101207f8b73c3c69bb8fe3d512ecc4cf759cc79239f7b179b0ffacaa9a75d522b39400f825260208201527fc89efdaa54c0f20c7adf612882df0950f5a951637e0307cdcb4c672f298b8bc660408201524660608201523060808201522090565b6805345cdf77eb68f44c8054908382019182106131e357556387a211a2600c526000526020600c20818154019055602052600c5160601c60007fddf252ad1be2c89b69c2b068fc378daa952ba7f163c4a11628f55a4df523b3ef602080a3565b63e5cfe9576000526004601cfd5b90602052637f5e9f20600c526000526034600c20908154600019810361321657505050565b80821161322257039055565b6313be252b6000526004601cfd5b9080600019048211810261324d57670de0b6b3a764000091020490565b63bac65e5b6000526004601cfd5b670de0b6b3a7640000907812725dd1d243aba0e75fe645cc4873f9e65afe688c928e1f21811182021583021561329057020490565b637c5f487d6000526004601cfd5b91600092828102926000198183099184831085018084039314613320578284111561331357908391099060018386038416808080960460028082600302188083028203028083028203028083028203028083028203028083028203028092029003029703040190848311900302920304170290565b63ae47f70286526004601cfd5b50505091821561332f57500490565b63ae47f70290526004601cfd5b6c01000000000000000000000000811015612877576bffffffffffffffffffffffff1690565b700100000000000000000000000000000000811015612877576001600160801b031690565b74010000000000000000000000000000000000000000811015612877576001600160a01b031690565b60109260209260145260345260446000938480936fa9059cbb00000000000000000000000082525af13d1560018351141716156133ec57603452565b6390b8ec1890526004601cfd5b602460106020939284936014526f70a082310000000000000000000000006000525afa601f3d1116602051029056fea2646970667358221220697740a96364de7ec5f23adae046be58692b794a4d1e2d5effd364034bc4737964736f6c63430008110033",
  "linkReferences": {},
  "deployedLinkReferences": {}
}