{
  "_format": "hh-sol-artifact-1",
  "contractName": "ChainlinkNebulaOracle",
  "sourceName": "contracts/cygnus-oracle/ChainlinkNebulaOracle.sol",
  "abi": [
    {
      "inputs": [
        {
          "internalType": "contract AggregatorV3Interface",
          "name": "priceDenominator",
          "type": "address"
        }
      ],
      "stateMutability": "nonpayable",
      "type": "constructor"
    },
    {
      "inputs": [
        {
          "internalType": "address",
          "name": "pendingAdmin",
          "type": "address"
        }
      ],
      "name": "ChainlinkNebulaOracle__AdminCantBeZero",
      "type": "error"
    },
    {
      "inputs": [
        {
          "internalType": "address",
          "name": "msgSender",
          "type": "address"
        }
      ],
      "name": "ChainlinkNebulaOracle__MsgSenderNotAdmin",
      "type": "error"
    },
    {
      "inputs": [
        {
          "internalType": "address",
          "name": "lpTokenPair",
          "type": "address"
        }
      ],
      "name": "ChainlinkNebulaOracle__PairAlreadyInitialized",
      "type": "error"
    },
    {
      "inputs": [
        {
          "internalType": "address",
          "name": "lpTokenPair",
          "type": "address"
        }
      ],
      "name": "ChainlinkNebulaOracle__PairNotInitialized",
      "type": "error"
    },
    {
      "inputs": [
        {
          "internalType": "address",
          "name": "pendingAdmin",
          "type": "address"
        }
      ],
      "name": "ChainlinkNebulaOracle__PendingAdminAlreadySet",
      "type": "error"
    },
    {
      "inputs": [
        {
          "internalType": "uint256",
          "name": "x",
          "type": "uint256"
        },
        {
          "internalType": "uint256",
          "name": "y",
          "type": "uint256"
        }
      ],
      "name": "PRBMathUD60x18__GmOverflow",
      "type": "error"
    },
    {
      "inputs": [
        {
          "internalType": "uint256",
          "name": "prod1",
          "type": "uint256"
        },
        {
          "internalType": "uint256",
          "name": "denominator",
          "type": "uint256"
        }
      ],
      "name": "PRBMath__MulDivOverflow",
      "type": "error"
    },
    {
      "inputs": [],
      "name": "ReentrantCall",
      "type": "error"
    },
    {
      "anonymous": false,
      "inputs": [
        {
          "indexed": false,
          "internalType": "uint24",
          "name": "oracleId",
          "type": "uint24"
        },
        {
          "indexed": false,
          "internalType": "address",
          "name": "lpTokenPair",
          "type": "address"
        },
        {
          "indexed": false,
          "internalType": "contract AggregatorV3Interface",
          "name": "priceFeedA",
          "type": "address"
        },
        {
          "indexed": false,
          "internalType": "contract AggregatorV3Interface",
          "name": "priceFeedB",
          "type": "address"
        },
        {
          "indexed": false,
          "internalType": "address",
          "name": "msgSender",
          "type": "address"
        }
      ],
      "name": "DeleteChainlinkNebula",
      "type": "event"
    },
    {
      "anonymous": false,
      "inputs": [
        {
          "indexed": false,
          "internalType": "bool",
          "name": "initialized",
          "type": "bool"
        },
        {
          "indexed": false,
          "internalType": "uint24",
          "name": "oracleId",
          "type": "uint24"
        },
        {
          "indexed": false,
          "internalType": "address",
          "name": "lpTokenPair",
          "type": "address"
        },
        {
          "indexed": false,
          "internalType": "contract AggregatorV3Interface",
          "name": "priceFeedA",
          "type": "address"
        },
        {
          "indexed": false,
          "internalType": "contract AggregatorV3Interface",
          "name": "priceFeedB",
          "type": "address"
        }
      ],
      "name": "InitializeChainlinkNebula",
      "type": "event"
    },
    {
      "anonymous": false,
      "inputs": [
        {
          "indexed": false,
          "internalType": "address",
          "name": "oracleOldAdmin",
          "type": "address"
        },
        {
          "indexed": false,
          "internalType": "address",
          "name": "oracleNewAdmin",
          "type": "address"
        }
      ],
      "name": "NewOracleAdmin",
      "type": "event"
    },
    {
      "anonymous": false,
      "inputs": [
        {
          "indexed": false,
          "internalType": "address",
          "name": "oracleCurrentAdmin",
          "type": "address"
        },
        {
          "indexed": false,
          "internalType": "address",
          "name": "oraclePendingAdmin",
          "type": "address"
        }
      ],
      "name": "NewOraclePendingAdmin",
      "type": "event"
    },
    {
      "inputs": [],
      "name": "admin",
      "outputs": [
        {
          "internalType": "address",
          "name": "",
          "type": "address"
        }
      ],
      "stateMutability": "view",
      "type": "function"
    },
    {
      "inputs": [
        {
          "internalType": "uint256",
          "name": "",
          "type": "uint256"
        }
      ],
      "name": "allNebulas",
      "outputs": [
        {
          "internalType": "address",
          "name": "",
          "type": "address"
        }
      ],
      "stateMutability": "view",
      "type": "function"
    },
    {
      "inputs": [
        {
          "internalType": "address",
          "name": "lpTokenPair",
          "type": "address"
        }
      ],
      "name": "assetPricesDai",
      "outputs": [
        {
          "internalType": "uint256",
          "name": "tokenPriceA",
          "type": "uint256"
        },
        {
          "internalType": "uint256",
          "name": "tokenPriceB",
          "type": "uint256"
        }
      ],
      "stateMutability": "view",
      "type": "function"
    },
    {
      "inputs": [],
      "name": "dai",
      "outputs": [
        {
          "internalType": "contract AggregatorV3Interface",
          "name": "",
          "type": "address"
        }
      ],
      "stateMutability": "view",
      "type": "function"
    },
    {
      "inputs": [],
      "name": "daiPrice",
      "outputs": [
        {
          "internalType": "uint256",
          "name": "latestPriceDai",
          "type": "uint256"
        }
      ],
      "stateMutability": "view",
      "type": "function"
    },
    {
      "inputs": [],
      "name": "decimals",
      "outputs": [
        {
          "internalType": "uint8",
          "name": "",
          "type": "uint8"
        }
      ],
      "stateMutability": "view",
      "type": "function"
    },
    {
      "inputs": [
        {
          "internalType": "address",
          "name": "lpTokenPair",
          "type": "address"
        }
      ],
      "name": "deleteNebula",
      "outputs": [],
      "stateMutability": "nonpayable",
      "type": "function"
    },
    {
      "inputs": [
        {
          "internalType": "address",
          "name": "",
          "type": "address"
        }
      ],
      "name": "getNebula",
      "outputs": [
        {
          "internalType": "bool",
          "name": "initialized",
          "type": "bool"
        },
        {
          "internalType": "uint24",
          "name": "oracleId",
          "type": "uint24"
        },
        {
          "internalType": "address",
          "name": "underlying",
          "type": "address"
        },
        {
          "internalType": "contract AggregatorV3Interface",
          "name": "priceFeedA",
          "type": "address"
        },
        {
          "internalType": "contract AggregatorV3Interface",
          "name": "priceFeedB",
          "type": "address"
        }
      ],
      "stateMutability": "view",
      "type": "function"
    },
    {
      "inputs": [
        {
          "internalType": "address",
          "name": "lpTokenPair",
          "type": "address"
        },
        {
          "internalType": "contract AggregatorV3Interface",
          "name": "aggregatorA",
          "type": "address"
        },
        {
          "internalType": "contract AggregatorV3Interface",
          "name": "aggregatorB",
          "type": "address"
        }
      ],
      "name": "initializeNebula",
      "outputs": [],
      "stateMutability": "nonpayable",
      "type": "function"
    },
    {
      "inputs": [
        {
          "internalType": "address",
          "name": "lpTokenPair",
          "type": "address"
        }
      ],
      "name": "lpTokenPriceDai",
      "outputs": [
        {
          "internalType": "uint256",
          "name": "lpTokenPrice",
          "type": "uint256"
        }
      ],
      "stateMutability": "view",
      "type": "function"
    },
    {
      "inputs": [],
      "name": "name",
      "outputs": [
        {
          "internalType": "string",
          "name": "",
          "type": "string"
        }
      ],
      "stateMutability": "view",
      "type": "function"
    },
    {
      "inputs": [],
      "name": "nebulaSize",
      "outputs": [
        {
          "internalType": "uint24",
          "name": "",
          "type": "uint24"
        }
      ],
      "stateMutability": "view",
      "type": "function"
    },
    {
      "inputs": [],
      "name": "pendingAdmin",
      "outputs": [
        {
          "internalType": "address",
          "name": "",
          "type": "address"
        }
      ],
      "stateMutability": "view",
      "type": "function"
    },
    {
      "inputs": [],
      "name": "setOracleAdmin",
      "outputs": [],
      "stateMutability": "nonpayable",
      "type": "function"
    },
    {
      "inputs": [
        {
          "internalType": "address",
          "name": "newOracleAdmin",
          "type": "address"
        }
      ],
      "name": "setOraclePendingAdmin",
      "outputs": [],
      "stateMutability": "nonpayable",
      "type": "function"
    },
    {
      "inputs": [],
      "name": "symbol",
      "outputs": [
        {
          "internalType": "string",
          "name": "",
          "type": "string"
        }
      ],
      "stateMutability": "view",
      "type": "function"
    },
    {
      "inputs": [],
      "name": "version",
      "outputs": [
        {
          "internalType": "uint8",
          "name": "",
          "type": "uint8"
        }
      ],
      "stateMutability": "view",
      "type": "function"
    }
  ],
  "bytecode": "0x60a060405234801561001057600080fd5b5060405162001dde38038062001dde8339810160408190526100319161007a565b6000805460ff191660011790556100453390565b600380546001600160a01b0319166001600160a01b039290921691909117905560601b6001600160601b0319166080526100a8565b60006020828403121561008b578081fd5b81516001600160a01b03811681146100a1578182fd5b9392505050565b60805160601c611ced620000f1600039600081816103510152818161084301528181610a0e015281816111b70152818161138201528181611486015261151d0152611ced6000f3fe608060405234801561001057600080fd5b506004361061011b5760003560e01c80637c5e33ec116100b2578063d02c70e811610081578063f23fe4c511610066578063f23fe4c514610344578063f4b9fa751461034c578063f851a4401461037357600080fd5b8063d02c70e81461029e578063f0ac40c4146102b157600080fd5b80637c5e33ec1461021057806388d36dde1461022357806395d89b411461024b578063ba3941e71461028757600080fd5b806351fcba9d116100ee57806351fcba9d146101d857806354fd4d50146101ed57806362bbb6e0146101f557806365c9b257146101fd57600080fd5b806306fdde03146101205780632678224714610172578063313ce5671461019d5780633a08ab8b146101b7575b600080fd5b61015c6040518060400160405280601b81526020017f4379676e75732d436861696e6c696e6b3a204c50204f7261636c65000000000081525081565b6040516101699190611b06565b60405180910390f35b600454610185906001600160a01b031681565b6040516001600160a01b039091168152602001610169565b6101a5601281565b60405160ff9091168152602001610169565b6101ca6101c53660046119a1565b610386565b604051908152602001610169565b6101eb6101e63660046119d9565b610b07565b005b6101a5600181565b6101eb610cc5565b6101eb61020b3660046119a1565b610daf565b6101eb61021e3660046119a1565b610e7a565b6102366102313660046119a1565b611022565b60408051928352602083019190915201610169565b61015c6040518060400160405280600981526020017f4379674e6562756c61000000000000000000000000000000000000000000000081525081565b60025460405162ffffff9091168152602001610169565b6101856102ac366004611a66565b611457565b6103086102bf3660046119a1565b600160208190526000918252604090912080549181015460029091015460ff83169262ffffff610100820416926001600160a01b03640100000000909204821692908216911685565b60408051951515865262ffffff90941660208601526001600160a01b03928316938501939093528116606084015216608082015260a001610169565b6101ca611481565b6101857f000000000000000000000000000000000000000000000000000000000000000081565b600354610185906001600160a01b031681565b6001600160a01b038082166000908152600160208181526040808420815160a081018352815460ff8116151580835262ffffff61010083041695830195909552640100000000900487169281019290925292830154851660608201526002909201549093166080820152909161041f57604051630baeabf560e01b81526001600160a01b03841660048201526024015b60405180910390fd5b600080846001600160a01b0316630902f1ac6040518163ffffffff1660e01b815260040160606040518083038186803b15801561045b57600080fd5b505afa15801561046f573d6000803e3d6000fd5b505050506040513d601f19601f820116820180604052508101906104939190611a23565b50915091506000856001600160a01b03166318160ddd6040518163ffffffff1660e01b815260040160206040518083038186803b1580156104d357600080fd5b505afa1580156104e7573d6000803e3d6000fd5b505050506040513d601f19601f8201168201806040525081019061050b9190611a7e565b90506000866001600160a01b0316630dfe16816040518163ffffffff1660e01b815260040160206040518083038186803b15801561054857600080fd5b505afa15801561055c573d6000803e3d6000fd5b505050506040513d601f19601f8201168201806040525081019061058091906119bd565b6001600160a01b031663313ce5676040518163ffffffff1660e01b815260040160206040518083038186803b1580156105b857600080fd5b505afa1580156105cc573d6000803e3d6000fd5b505050506040513d601f19601f820116820180604052508101906105f09190611ae5565b6105fb906012611c66565b61060690600a611b9c565b610620906dffffffffffffffffffffffffffff8616611c47565b90506000876001600160a01b031663d21220a76040518163ffffffff1660e01b815260040160206040518083038186803b15801561065d57600080fd5b505afa158015610671573d6000803e3d6000fd5b505050506040513d601f19601f8201168201806040525081019061069591906119bd565b6001600160a01b031663313ce5676040518163ffffffff1660e01b815260040160206040518083038186803b1580156106cd57600080fd5b505afa1580156106e1573d6000803e3d6000fd5b505050506040513d601f19601f820116820180604052508101906107059190611ae5565b610710906012611c66565b61071b90600a611b9c565b610735906dffffffffffffffffffffffffffff8616611c47565b9050600061074383836115d2565b9050600087606001516001600160a01b031663feaf968c6040518163ffffffff1660e01b815260040160a06040518083038186803b15801561078457600080fd5b505afa158015610798573d6000803e3d6000fd5b505050506040513d601f19601f820116820180604052508101906107bc9190611a96565b505050915050600088608001516001600160a01b031663feaf968c6040518163ffffffff1660e01b815260040160a06040518083038186803b15801561080157600080fd5b505afa158015610815573d6000803e3d6000fd5b505050506040513d601f19601f820116820180604052508101906108399190611a96565b50505091505060007f00000000000000000000000000000000000000000000000000000000000000006001600160a01b031663feaf968c6040518163ffffffff1660e01b815260040160a06040518083038186803b15801561089a57600080fd5b505afa1580156108ae573d6000803e3d6000fd5b505050506040513d601f19601f820116820180604052508101906108d29190611a96565b50505091505060008a606001516001600160a01b031663313ce5676040518163ffffffff1660e01b815260040160206040518083038186803b15801561091757600080fd5b505afa15801561092b573d6000803e3d6000fd5b505050506040513d601f19601f8201168201806040525081019061094f9190611ae5565b61095a906012611c66565b61096590600a611b9c565b61096f9085611c47565b905060008b608001516001600160a01b031663313ce5676040518163ffffffff1660e01b815260040160206040518083038186803b1580156109b057600080fd5b505afa1580156109c4573d6000803e3d6000fd5b505050506040513d601f19601f820116820180604052508101906109e89190611ae5565b6109f3906012611c66565b6109fe90600a611b9c565b610a089085611c47565b905060007f00000000000000000000000000000000000000000000000000000000000000006001600160a01b031663313ce5676040518163ffffffff1660e01b815260040160206040518083038186803b158015610a6557600080fd5b505afa158015610a79573d6000803e3d6000fd5b505050506040513d601f19601f82011682018060405250810190610a9d9190611ae5565b610aa8906012611c66565b610ab390600a611b9c565b610abd9085611c47565b90506000610acb84846115d2565b90506000610ada89838e61163d565b610ae5906002611c47565b9050610af1818461171f565b9f50505050505050505050505050505050919050565b610b0f611734565b60005460ff16610b32576040516306fda65d60e31b815260040160405180910390fd5b6000805460ff191681556001600160a01b0384168152600160205260409020805460ff1615610b7f5760405163c18485bb60e01b81526001600160a01b0385166004820152602401610416565b6002548154600180840180546001600160a01b03199081166001600160a01b038981169182179093556002808801805484168a86169081179091557fffffffffffffffff0000000000000000000000000000000000000000000000ff90961661010062ffffff98891681027fffffffffffffffff0000000000000000000000000000000000000000ffffffff1691909117640100000000958d169586021760ff191686178955815480870183556000929092527f405787fa12a823e0f2b7631cc41b3ba8828b3321ca811111fa75cd3aa3bb5ace909101805490931684179092558654604080519586529290049095166020840152820152606081019290925260808201527f6359c41fbd8a4d4df067c0cd0d9cce1f3e8367dcc6b6b2bdc40f1b0bf490e05f9060a0015b60405180910390a150506000805460ff191660011790555050565b610ccd611734565b60005460ff16610cf0576040516306fda65d60e31b815260040160405180910390fd5b6000805460ff191690556004546001600160a01b0316610d3557600480546040516310710f1b60e21b81526001600160a01b0390911691810191909152602401610416565b60038054600480546001600160a01b038082166001600160a01b0319808616821790965594909116909155604080519190921680825260208201939093527f5d79527e1742e3cb9a668b777100775a1648a5a8adea9c578d164dd2d0908aac91015b60405180910390a1506000805460ff19166001179055565b610db7611734565b60005460ff16610dda576040516306fda65d60e31b815260040160405180910390fd5b6000805460ff191690556004546001600160a01b0382811691161415610e1e576040516310c7e7d960e31b81526001600160a01b0382166004820152602401610416565b600480546001600160a01b0319166001600160a01b038381169182179092556003546040805191909316815260208101919091527f0ddc205eecbcb9fd6100d787269a63285115c1e35297b5cd128aa171376b76229101610d97565b610e82611734565b60005460ff16610ea5576040516306fda65d60e31b815260040160405180910390fd5b6000805460ff191681556001600160a01b03821681526001602052604090205460ff16610ef057604051630baeabf560e01b81526001600160a01b0382166004820152602401610416565b6001600160a01b038181166000908152600160208190526040909120805491810154600291820154825461010090940462ffffff1694918216939116919084908110610f4c57634e487b7160e01b600052603260045260246000fd5b6000918252602080832090910180546001600160a01b03199081169091556001600160a01b0387168352600191829052604090922080547fffffffffffffffff000000000000000000000000000000000000000000000000168155908101805483169055600201805490911690557f4965b5ea3a4e357fa7cd4dd8a64ad4397e1c531bc1a171bbde5b1f41d6416b2483858484610fe63390565b6040805162ffffff90961686526001600160a01b039485166020870152928416928501929092528216606084015216608082015260a001610caa565b6001600160a01b038082166000908152600160208181526040808420815160a081018352815460ff8116151580835262ffffff6101008304169583019590955264010000000090048716928101929092529283015485166060820152600290920154909316608082015290918291906110b957604051630baeabf560e01b81526001600160a01b0385166004820152602401610416565b600081606001516001600160a01b031663feaf968c6040518163ffffffff1660e01b815260040160a06040518083038186803b1580156110f857600080fd5b505afa15801561110c573d6000803e3d6000fd5b505050506040513d601f19601f820116820180604052508101906111309190611a96565b505050915050600082608001516001600160a01b031663feaf968c6040518163ffffffff1660e01b815260040160a06040518083038186803b15801561117557600080fd5b505afa158015611189573d6000803e3d6000fd5b505050506040513d601f19601f820116820180604052508101906111ad9190611a96565b50505091505060007f00000000000000000000000000000000000000000000000000000000000000006001600160a01b031663feaf968c6040518163ffffffff1660e01b815260040160a06040518083038186803b15801561120e57600080fd5b505afa158015611222573d6000803e3d6000fd5b505050506040513d601f19601f820116820180604052508101906112469190611a96565b505050915050600084606001516001600160a01b031663313ce5676040518163ffffffff1660e01b815260040160206040518083038186803b15801561128b57600080fd5b505afa15801561129f573d6000803e3d6000fd5b505050506040513d601f19601f820116820180604052508101906112c39190611ae5565b6112ce906012611c66565b6112d990600a611b9c565b6112e39085611c47565b9050600085608001516001600160a01b031663313ce5676040518163ffffffff1660e01b815260040160206040518083038186803b15801561132457600080fd5b505afa158015611338573d6000803e3d6000fd5b505050506040513d601f19601f8201168201806040525081019061135c9190611ae5565b611367906012611c66565b61137290600a611b9c565b61137c9085611c47565b905060007f00000000000000000000000000000000000000000000000000000000000000006001600160a01b031663313ce5676040518163ffffffff1660e01b815260040160206040518083038186803b1580156113d957600080fd5b505afa1580156113ed573d6000803e3d6000fd5b505050506040513d601f19601f820116820180604052508101906114119190611ae5565b61141c906012611c66565b61142790600a611b9c565b6114319085611c47565b905061143d838261171f565b9850611449828261171f565b975050505050505050915091565b6002818154811061146757600080fd5b6000918252602090912001546001600160a01b0316905081565b6000807f00000000000000000000000000000000000000000000000000000000000000006001600160a01b031663feaf968c6040518163ffffffff1660e01b815260040160a06040518083038186803b1580156114dd57600080fd5b505afa1580156114f1573d6000803e3d6000fd5b505050506040513d601f19601f820116820180604052508101906115159190611a96565b5050509150507f00000000000000000000000000000000000000000000000000000000000000006001600160a01b031663313ce5676040518163ffffffff1660e01b815260040160206040518083038186803b15801561157457600080fd5b505afa158015611588573d6000803e3d6000fd5b505050506040513d601f19601f820116820180604052508101906115ac9190611ae5565b6115b7906012611c66565b6115c290600a611b9c565b6115cc9082611c47565b91505090565b6000826115e157506000611637565b8282028284828161160257634e487b7160e01b600052601260045260246000fd5b041461162a5760405162c3efdf60e01b81526004810185905260248101849052604401610416565b6116338161176c565b9150505b92915050565b6000808060001985870985870292508281108382030391505080600014156116865783828161167c57634e487b7160e01b600052601260045260246000fd5b0492505050611718565b8381106116b057604051631dcf306360e21b81526004810182905260248101859052604401610416565b600084868809851960019081018716968790049682860381900495909211909303600082900391909104909201919091029190911760038402600290811880860282030280860282030280860282030280860282030280860282030280860290910302029150505b9392505050565b600061171883670de0b6b3a76400008461163d565b6003546001600160a01b0316336001600160a01b03161461176a5760405163d04fd97d60e01b8152336004820152602401610416565b565b60008161177b57506000919050565b5060018170010000000000000000000000000000000081106117a25760409190911b9060801c5b6801000000000000000081106117bd5760209190911b9060401c5b64010000000081106117d45760109190911b9060201c5b6201000081106117e95760089190911b9060101c5b61010081106117fd5760049190911b9060081c5b601081106118105760029190911b9060041c5b6008811061182057600182901b91505b600182848161183f57634e487b7160e01b600052601260045260246000fd5b048301901c9150600182848161186557634e487b7160e01b600052601260045260246000fd5b048301901c9150600182848161188b57634e487b7160e01b600052601260045260246000fd5b048301901c915060018284816118b157634e487b7160e01b600052601260045260246000fd5b048301901c915060018284816118d757634e487b7160e01b600052601260045260246000fd5b048301901c915060018284816118fd57634e487b7160e01b600052601260045260246000fd5b048301901c9150600182848161192357634e487b7160e01b600052601260045260246000fd5b048301901c9150600082848161194957634e487b7160e01b600052601260045260246000fd5b0490508083101561195a578261195c565b805b949350505050565b80516dffffffffffffffffffffffffffff8116811461198257600080fd5b919050565b805169ffffffffffffffffffff8116811461198257600080fd5b6000602082840312156119b2578081fd5b813561171881611c9f565b6000602082840312156119ce578081fd5b815161171881611c9f565b6000806000606084860312156119ed578182fd5b83356119f881611c9f565b92506020840135611a0881611c9f565b91506040840135611a1881611c9f565b809150509250925092565b600080600060608486031215611a37578283fd5b611a4084611964565b9250611a4e60208501611964565b9150604084015163ffffffff81168114611a18578182fd5b600060208284031215611a77578081fd5b5035919050565b600060208284031215611a8f578081fd5b5051919050565b600080600080600060a08688031215611aad578081fd5b611ab686611987565b9450602086015193506040860151925060608601519150611ad960808701611987565b90509295509295909350565b600060208284031215611af6578081fd5b815160ff81168114611718578182fd5b6000602080835283518082850152825b81811015611b3257858101830151858201604001528201611b16565b81811115611b435783604083870101525b50601f01601f1916929092016040019392505050565b600181815b80851115611b94578160001904821115611b7a57611b7a611c89565b80851615611b8757918102915b93841c9390800290611b5e565b509250929050565b600061171860ff841683600082611bb557506001611637565b81611bc257506000611637565b8160018114611bd85760028114611be257611bfe565b6001915050611637565b60ff841115611bf357611bf3611c89565b50506001821b611637565b5060208310610133831016604e8410600b8410161715611c21575081810a611637565b611c2b8383611b59565b8060001904821115611c3f57611c3f611c89565b029392505050565b6000816000190483118215151615611c6157611c61611c89565b500290565b600060ff821660ff841680821015611c8057611c80611c89565b90039392505050565b634e487b7160e01b600052601160045260246000fd5b6001600160a01b0381168114611cb457600080fd5b5056fea2646970667358221220c5375733bd75046a59a8a20229af8f939bd7d83f67b24ea7aea1daaf2655671864736f6c63430008040033",
  "linkReferences": {},
  "deployedLinkReferences": {}
}