{
  "_format": "hh-sol-artifact-1",
  "contractName": "ChainlinkNebulaOracle",
  "sourceName": "contracts/cygnus-oracle/ChainlinkNebulaOracle.sol",
  "abi": [
    {
      "inputs": [
        {
          "internalType": "contract AggregatorV3Interface",
          "name": "priceDenominator",
          "type": "address"
        }
      ],
      "stateMutability": "nonpayable",
      "type": "constructor"
    },
    {
      "inputs": [
        {
          "internalType": "address",
          "name": "pendingAdmin",
          "type": "address"
        }
      ],
      "name": "ChainlinkNebulaOracle__AdminCantBeZero",
      "type": "error"
    },
    {
      "inputs": [
        {
          "internalType": "address",
          "name": "msgSender",
          "type": "address"
        }
      ],
      "name": "ChainlinkNebulaOracle__MsgSenderNotAdmin",
      "type": "error"
    },
    {
      "inputs": [
        {
          "internalType": "address",
          "name": "lpTokenPair",
          "type": "address"
        }
      ],
      "name": "ChainlinkNebulaOracle__PairAlreadyInitialized",
      "type": "error"
    },
    {
      "inputs": [
        {
          "internalType": "address",
          "name": "lpTokenPair",
          "type": "address"
        }
      ],
      "name": "ChainlinkNebulaOracle__PairNotInitialized",
      "type": "error"
    },
    {
      "inputs": [
        {
          "internalType": "address",
          "name": "pendingAdmin",
          "type": "address"
        }
      ],
      "name": "ChainlinkNebulaOracle__PendingAdminAlreadySet",
      "type": "error"
    },
    {
      "inputs": [
        {
          "internalType": "uint256",
          "name": "x",
          "type": "uint256"
        },
        {
          "internalType": "uint256",
          "name": "y",
          "type": "uint256"
        }
      ],
      "name": "PRBMathUD60x18__GmOverflow",
      "type": "error"
    },
    {
      "inputs": [
        {
          "internalType": "uint256",
          "name": "prod1",
          "type": "uint256"
        },
        {
          "internalType": "uint256",
          "name": "denominator",
          "type": "uint256"
        }
      ],
      "name": "PRBMath__MulDivOverflow",
      "type": "error"
    },
    {
      "inputs": [],
      "name": "ReentrantCall",
      "type": "error"
    },
    {
      "anonymous": false,
      "inputs": [
        {
          "indexed": false,
          "internalType": "uint24",
          "name": "oracleId",
          "type": "uint24"
        },
        {
          "indexed": false,
          "internalType": "address",
          "name": "lpTokenPair",
          "type": "address"
        },
        {
          "indexed": false,
          "internalType": "contract AggregatorV3Interface",
          "name": "priceFeedA",
          "type": "address"
        },
        {
          "indexed": false,
          "internalType": "contract AggregatorV3Interface",
          "name": "priceFeedB",
          "type": "address"
        },
        {
          "indexed": false,
          "internalType": "address",
          "name": "msgSender",
          "type": "address"
        }
      ],
      "name": "DeleteChainlinkNebula",
      "type": "event"
    },
    {
      "anonymous": false,
      "inputs": [
        {
          "indexed": false,
          "internalType": "bool",
          "name": "initialized",
          "type": "bool"
        },
        {
          "indexed": false,
          "internalType": "uint24",
          "name": "oracleId",
          "type": "uint24"
        },
        {
          "indexed": false,
          "internalType": "address",
          "name": "lpTokenPair",
          "type": "address"
        },
        {
          "indexed": false,
          "internalType": "contract AggregatorV3Interface",
          "name": "priceFeedA",
          "type": "address"
        },
        {
          "indexed": false,
          "internalType": "contract AggregatorV3Interface",
          "name": "priceFeedB",
          "type": "address"
        }
      ],
      "name": "InitializeChainlinkNebula",
      "type": "event"
    },
    {
      "anonymous": false,
      "inputs": [
        {
          "indexed": false,
          "internalType": "address",
          "name": "oracleOldAdmin",
          "type": "address"
        },
        {
          "indexed": false,
          "internalType": "address",
          "name": "oracleNewAdmin",
          "type": "address"
        }
      ],
      "name": "NewOracleAdmin",
      "type": "event"
    },
    {
      "anonymous": false,
      "inputs": [
        {
          "indexed": false,
          "internalType": "address",
          "name": "oracleCurrentAdmin",
          "type": "address"
        },
        {
          "indexed": false,
          "internalType": "address",
          "name": "oraclePendingAdmin",
          "type": "address"
        }
      ],
      "name": "NewOraclePendingAdmin",
      "type": "event"
    },
    {
      "inputs": [],
      "name": "admin",
      "outputs": [
        {
          "internalType": "address",
          "name": "",
          "type": "address"
        }
      ],
      "stateMutability": "view",
      "type": "function"
    },
    {
      "inputs": [
        {
          "internalType": "uint256",
          "name": "",
          "type": "uint256"
        }
      ],
      "name": "allNebulas",
      "outputs": [
        {
          "internalType": "address",
          "name": "",
          "type": "address"
        }
      ],
      "stateMutability": "view",
      "type": "function"
    },
    {
      "inputs": [
        {
          "internalType": "address",
          "name": "lpTokenPair",
          "type": "address"
        }
      ],
      "name": "assetPricesDai",
      "outputs": [
        {
          "internalType": "uint256",
          "name": "tokenPriceA",
          "type": "uint256"
        },
        {
          "internalType": "uint256",
          "name": "tokenPriceB",
          "type": "uint256"
        }
      ],
      "stateMutability": "view",
      "type": "function"
    },
    {
      "inputs": [],
      "name": "dai",
      "outputs": [
        {
          "internalType": "contract AggregatorV3Interface",
          "name": "",
          "type": "address"
        }
      ],
      "stateMutability": "view",
      "type": "function"
    },
    {
      "inputs": [],
      "name": "daiPrice",
      "outputs": [
        {
          "internalType": "uint256",
          "name": "latestPriceDai",
          "type": "uint256"
        }
      ],
      "stateMutability": "view",
      "type": "function"
    },
    {
      "inputs": [],
      "name": "decimals",
      "outputs": [
        {
          "internalType": "uint8",
          "name": "",
          "type": "uint8"
        }
      ],
      "stateMutability": "view",
      "type": "function"
    },
    {
      "inputs": [
        {
          "internalType": "address",
          "name": "lpTokenPair",
          "type": "address"
        }
      ],
      "name": "deleteNebula",
      "outputs": [],
      "stateMutability": "nonpayable",
      "type": "function"
    },
    {
      "inputs": [
        {
          "internalType": "address",
          "name": "",
          "type": "address"
        }
      ],
      "name": "getNebula",
      "outputs": [
        {
          "internalType": "bool",
          "name": "initialized",
          "type": "bool"
        },
        {
          "internalType": "uint24",
          "name": "oracleId",
          "type": "uint24"
        },
        {
          "internalType": "address",
          "name": "underlying",
          "type": "address"
        },
        {
          "internalType": "contract AggregatorV3Interface",
          "name": "priceFeedA",
          "type": "address"
        },
        {
          "internalType": "contract AggregatorV3Interface",
          "name": "priceFeedB",
          "type": "address"
        }
      ],
      "stateMutability": "view",
      "type": "function"
    },
    {
      "inputs": [
        {
          "internalType": "address",
          "name": "lpTokenPair",
          "type": "address"
        },
        {
          "internalType": "contract AggregatorV3Interface",
          "name": "aggregatorA",
          "type": "address"
        },
        {
          "internalType": "contract AggregatorV3Interface",
          "name": "aggregatorB",
          "type": "address"
        }
      ],
      "name": "initializeNebula",
      "outputs": [],
      "stateMutability": "nonpayable",
      "type": "function"
    },
    {
      "inputs": [
        {
          "internalType": "address",
          "name": "lpTokenPair",
          "type": "address"
        }
      ],
      "name": "lpTokenPriceDai",
      "outputs": [
        {
          "internalType": "uint256",
          "name": "lpTokenPrice",
          "type": "uint256"
        }
      ],
      "stateMutability": "view",
      "type": "function"
    },
    {
      "inputs": [],
      "name": "name",
      "outputs": [
        {
          "internalType": "string",
          "name": "",
          "type": "string"
        }
      ],
      "stateMutability": "view",
      "type": "function"
    },
    {
      "inputs": [],
      "name": "nebulaSize",
      "outputs": [
        {
          "internalType": "uint24",
          "name": "",
          "type": "uint24"
        }
      ],
      "stateMutability": "view",
      "type": "function"
    },
    {
      "inputs": [],
      "name": "pendingAdmin",
      "outputs": [
        {
          "internalType": "address",
          "name": "",
          "type": "address"
        }
      ],
      "stateMutability": "view",
      "type": "function"
    },
    {
      "inputs": [],
      "name": "setOracleAdmin",
      "outputs": [],
      "stateMutability": "nonpayable",
      "type": "function"
    },
    {
      "inputs": [
        {
          "internalType": "address",
          "name": "newOracleAdmin",
          "type": "address"
        }
      ],
      "name": "setOraclePendingAdmin",
      "outputs": [],
      "stateMutability": "nonpayable",
      "type": "function"
    },
    {
      "inputs": [],
      "name": "symbol",
      "outputs": [
        {
          "internalType": "string",
          "name": "",
          "type": "string"
        }
      ],
      "stateMutability": "view",
      "type": "function"
    },
    {
      "inputs": [],
      "name": "version",
      "outputs": [
        {
          "internalType": "uint8",
          "name": "",
          "type": "uint8"
        }
      ],
      "stateMutability": "view",
      "type": "function"
    }
  ],
  "bytecode": "0x60a060405234801561001057600080fd5b50604051611d52380380611d5283398101604081905261002f91610078565b6000805460ff191660011790556100433390565b600380546001600160a01b0319166001600160a01b039290921691909117905560601b6001600160601b0319166080526100a6565b600060208284031215610089578081fd5b81516001600160a01b038116811461009f578182fd5b9392505050565b60805160601c611c646100ee6000396000818161032d01528181610811015281816109dc015281816111420152818161130d0152818161141101526114a80152611c646000f3fe608060405234801561001057600080fd5b506004361061010b5760003560e01c80637c5e33ec116100a2578063d02c70e811610071578063d02c70e81461027a578063f0ac40c41461028d578063f23fe4c514610320578063f4b9fa7514610328578063f851a4401461034f57600080fd5b80637c5e33ec1461020057806388d36dde1461021357806395d89b411461023b578063ba3941e71461026357600080fd5b806351fcba9d116100de57806351fcba9d146101c857806354fd4d50146101dd57806362bbb6e0146101e557806365c9b257146101ed57600080fd5b806306fdde03146101105780632678224714610162578063313ce5671461018d5780633a08ab8b146101a7575b600080fd5b61014c6040518060400160405280601b81526020017f4379676e75732d436861696e6c696e6b3a204c50204f7261636c65000000000081525081565b6040516101599190611a7d565b60405180910390f35b600454610175906001600160a01b031681565b6040516001600160a01b039091168152602001610159565b610195601281565b60405160ff9091168152602001610159565b6101ba6101b5366004611918565b610362565b604051908152602001610159565b6101db6101d6366004611950565b610ad5565b005b610195600181565b6101db610c68565b6101db6101fb366004611918565b610d52565b6101db61020e366004611918565b610e1d565b610226610221366004611918565b610fad565b60408051928352602083019190915201610159565b61014c604051806040016040528060098152602001684379674e6562756c6160b81b81525081565b60025460405162ffffff9091168152602001610159565b6101756102883660046119dd565b6113e2565b6102e461029b366004611918565b600160208190526000918252604090912080549181015460029091015460ff83169262ffffff610100820416926001600160a01b03640100000000909204821692908216911685565b60408051951515865262ffffff90941660208601526001600160a01b03928316938501939093528116606084015216608082015260a001610159565b6101ba61140c565b6101757f000000000000000000000000000000000000000000000000000000000000000081565b600354610175906001600160a01b031681565b6001600160a01b038082166000908152600160208181526040808420815160a081018352815460ff8116151580835262ffffff6101008304169583019590955264010000000090048716928101929092529283015485166060820152600290920154909316608082015290916103fb57604051630baeabf560e01b81526001600160a01b03841660048201526024015b60405180910390fd5b600080846001600160a01b0316630902f1ac6040518163ffffffff1660e01b815260040160606040518083038186803b15801561043757600080fd5b505afa15801561044b573d6000803e3d6000fd5b505050506040513d601f19601f8201168201806040525081019061046f919061199a565b50915091506000856001600160a01b03166318160ddd6040518163ffffffff1660e01b815260040160206040518083038186803b1580156104af57600080fd5b505afa1580156104c3573d6000803e3d6000fd5b505050506040513d601f19601f820116820180604052508101906104e791906119f5565b90506000866001600160a01b0316630dfe16816040518163ffffffff1660e01b815260040160206040518083038186803b15801561052457600080fd5b505afa158015610538573d6000803e3d6000fd5b505050506040513d601f19601f8201168201806040525081019061055c9190611934565b6001600160a01b031663313ce5676040518163ffffffff1660e01b815260040160206040518083038186803b15801561059457600080fd5b505afa1580156105a8573d6000803e3d6000fd5b505050506040513d601f19601f820116820180604052508101906105cc9190611a5c565b6105d7906012611bdd565b6105e290600a611b13565b6105f5906001600160701b038616611bbe565b90506000876001600160a01b031663d21220a76040518163ffffffff1660e01b815260040160206040518083038186803b15801561063257600080fd5b505afa158015610646573d6000803e3d6000fd5b505050506040513d601f19601f8201168201806040525081019061066a9190611934565b6001600160a01b031663313ce5676040518163ffffffff1660e01b815260040160206040518083038186803b1580156106a257600080fd5b505afa1580156106b6573d6000803e3d6000fd5b505050506040513d601f19601f820116820180604052508101906106da9190611a5c565b6106e5906012611bdd565b6106f090600a611b13565b610703906001600160701b038616611bbe565b90506000610711838361155d565b9050600087606001516001600160a01b031663feaf968c6040518163ffffffff1660e01b815260040160a06040518083038186803b15801561075257600080fd5b505afa158015610766573d6000803e3d6000fd5b505050506040513d601f19601f8201168201806040525081019061078a9190611a0d565b505050915050600088608001516001600160a01b031663feaf968c6040518163ffffffff1660e01b815260040160a06040518083038186803b1580156107cf57600080fd5b505afa1580156107e3573d6000803e3d6000fd5b505050506040513d601f19601f820116820180604052508101906108079190611a0d565b50505091505060007f00000000000000000000000000000000000000000000000000000000000000006001600160a01b031663feaf968c6040518163ffffffff1660e01b815260040160a06040518083038186803b15801561086857600080fd5b505afa15801561087c573d6000803e3d6000fd5b505050506040513d601f19601f820116820180604052508101906108a09190611a0d565b50505091505060008a606001516001600160a01b031663313ce5676040518163ffffffff1660e01b815260040160206040518083038186803b1580156108e557600080fd5b505afa1580156108f9573d6000803e3d6000fd5b505050506040513d601f19601f8201168201806040525081019061091d9190611a5c565b610928906012611bdd565b61093390600a611b13565b61093d9085611bbe565b905060008b608001516001600160a01b031663313ce5676040518163ffffffff1660e01b815260040160206040518083038186803b15801561097e57600080fd5b505afa158015610992573d6000803e3d6000fd5b505050506040513d601f19601f820116820180604052508101906109b69190611a5c565b6109c1906012611bdd565b6109cc90600a611b13565b6109d69085611bbe565b905060007f00000000000000000000000000000000000000000000000000000000000000006001600160a01b031663313ce5676040518163ffffffff1660e01b815260040160206040518083038186803b158015610a3357600080fd5b505afa158015610a47573d6000803e3d6000fd5b505050506040513d601f19601f82011682018060405250810190610a6b9190611a5c565b610a76906012611bdd565b610a8190600a611b13565b610a8b9085611bbe565b90506000610a99848461155d565b90506000610aa889838e6115c8565b610ab3906002611bbe565b9050610abf81846116aa565b9f50505050505050505050505050505050919050565b610add6116bf565b60005460ff16610b00576040516306fda65d60e31b815260040160405180910390fd5b6000805460ff191681556001600160a01b0384168152600160205260409020805460ff1615610b4d5760405163c18485bb60e01b81526001600160a01b03851660048201526024016103f2565b6002548154600180840180546001600160a01b03199081166001600160a01b038981169182179093556002808801805484168a8616908117909155610100600160c01b031990961661010062ffffff9889168102640100000000600160c01b03191691909117640100000000958d169586021760ff191686178955815480870183556000929092527f405787fa12a823e0f2b7631cc41b3ba8828b3321ca811111fa75cd3aa3bb5ace909101805490931684179092558654604080519586529290049095166020840152820152606081019290925260808201527f6359c41fbd8a4d4df067c0cd0d9cce1f3e8367dcc6b6b2bdc40f1b0bf490e05f9060a0015b60405180910390a150506000805460ff191660011790555050565b610c706116bf565b60005460ff16610c93576040516306fda65d60e31b815260040160405180910390fd5b6000805460ff191690556004546001600160a01b0316610cd857600480546040516310710f1b60e21b81526001600160a01b03909116918101919091526024016103f2565b60038054600480546001600160a01b038082166001600160a01b0319808616821790965594909116909155604080519190921680825260208201939093527f5d79527e1742e3cb9a668b777100775a1648a5a8adea9c578d164dd2d0908aac91015b60405180910390a1506000805460ff19166001179055565b610d5a6116bf565b60005460ff16610d7d576040516306fda65d60e31b815260040160405180910390fd5b6000805460ff191690556004546001600160a01b0382811691161415610dc1576040516310c7e7d960e31b81526001600160a01b03821660048201526024016103f2565b600480546001600160a01b0319166001600160a01b038381169182179092556003546040805191909316815260208101919091527f0ddc205eecbcb9fd6100d787269a63285115c1e35297b5cd128aa171376b76229101610d3a565b610e256116bf565b60005460ff16610e48576040516306fda65d60e31b815260040160405180910390fd5b6000805460ff191681556001600160a01b03821681526001602052604090205460ff16610e9357604051630baeabf560e01b81526001600160a01b03821660048201526024016103f2565b6001600160a01b038181166000908152600160208190526040909120805491810154600291820154825461010090940462ffffff1694918216939116919084908110610eef57634e487b7160e01b600052603260045260246000fd5b6000918252602080832090910180546001600160a01b03199081169091556001600160a01b0387168352600191829052604090922080546001600160c01b0319168155908101805483169055600201805490911690557f4965b5ea3a4e357fa7cd4dd8a64ad4397e1c531bc1a171bbde5b1f41d6416b2483858484610f713390565b6040805162ffffff90961686526001600160a01b039485166020870152928416928501929092528216606084015216608082015260a001610c4d565b6001600160a01b038082166000908152600160208181526040808420815160a081018352815460ff8116151580835262ffffff61010083041695830195909552640100000000900487169281019290925292830154851660608201526002909201549093166080820152909182919061104457604051630baeabf560e01b81526001600160a01b03851660048201526024016103f2565b600081606001516001600160a01b031663feaf968c6040518163ffffffff1660e01b815260040160a06040518083038186803b15801561108357600080fd5b505afa158015611097573d6000803e3d6000fd5b505050506040513d601f19601f820116820180604052508101906110bb9190611a0d565b505050915050600082608001516001600160a01b031663feaf968c6040518163ffffffff1660e01b815260040160a06040518083038186803b15801561110057600080fd5b505afa158015611114573d6000803e3d6000fd5b505050506040513d601f19601f820116820180604052508101906111389190611a0d565b50505091505060007f00000000000000000000000000000000000000000000000000000000000000006001600160a01b031663feaf968c6040518163ffffffff1660e01b815260040160a06040518083038186803b15801561119957600080fd5b505afa1580156111ad573d6000803e3d6000fd5b505050506040513d601f19601f820116820180604052508101906111d19190611a0d565b505050915050600084606001516001600160a01b031663313ce5676040518163ffffffff1660e01b815260040160206040518083038186803b15801561121657600080fd5b505afa15801561122a573d6000803e3d6000fd5b505050506040513d601f19601f8201168201806040525081019061124e9190611a5c565b611259906012611bdd565b61126490600a611b13565b61126e9085611bbe565b9050600085608001516001600160a01b031663313ce5676040518163ffffffff1660e01b815260040160206040518083038186803b1580156112af57600080fd5b505afa1580156112c3573d6000803e3d6000fd5b505050506040513d601f19601f820116820180604052508101906112e79190611a5c565b6112f2906012611bdd565b6112fd90600a611b13565b6113079085611bbe565b905060007f00000000000000000000000000000000000000000000000000000000000000006001600160a01b031663313ce5676040518163ffffffff1660e01b815260040160206040518083038186803b15801561136457600080fd5b505afa158015611378573d6000803e3d6000fd5b505050506040513d601f19601f8201168201806040525081019061139c9190611a5c565b6113a7906012611bdd565b6113b290600a611b13565b6113bc9085611bbe565b90506113c883826116aa565b98506113d482826116aa565b975050505050505050915091565b600281815481106113f257600080fd5b6000918252602090912001546001600160a01b0316905081565b6000807f00000000000000000000000000000000000000000000000000000000000000006001600160a01b031663feaf968c6040518163ffffffff1660e01b815260040160a06040518083038186803b15801561146857600080fd5b505afa15801561147c573d6000803e3d6000fd5b505050506040513d601f19601f820116820180604052508101906114a09190611a0d565b5050509150507f00000000000000000000000000000000000000000000000000000000000000006001600160a01b031663313ce5676040518163ffffffff1660e01b815260040160206040518083038186803b1580156114ff57600080fd5b505afa158015611513573d6000803e3d6000fd5b505050506040513d601f19601f820116820180604052508101906115379190611a5c565b611542906012611bdd565b61154d90600a611b13565b6115579082611bbe565b91505090565b60008261156c575060006115c2565b8282028284828161158d57634e487b7160e01b600052601260045260246000fd5b04146115b55760405162c3efdf60e01b815260048101859052602481018490526044016103f2565b6115be816116f7565b9150505b92915050565b6000808060001985870985870292508281108382030391505080600014156116115783828161160757634e487b7160e01b600052601260045260246000fd5b04925050506116a3565b83811061163b57604051631dcf306360e21b815260048101829052602481018590526044016103f2565b600084868809851960019081018716968790049682860381900495909211909303600082900391909104909201919091029190911760038402600290811880860282030280860282030280860282030280860282030280860282030280860290910302029150505b9392505050565b60006116a383670de0b6b3a7640000846115c8565b6003546001600160a01b0316336001600160a01b0316146116f55760405163d04fd97d60e01b81523360048201526024016103f2565b565b60008161170657506000919050565b50600181600160801b81106117205760409190911b9060801c5b68010000000000000000811061173b5760209190911b9060401c5b64010000000081106117525760109190911b9060201c5b6201000081106117675760089190911b9060101c5b610100811061177b5760049190911b9060081c5b6010811061178e5760029190911b9060041c5b6008811061179e57600182901b91505b60018284816117bd57634e487b7160e01b600052601260045260246000fd5b048301901c915060018284816117e357634e487b7160e01b600052601260045260246000fd5b048301901c9150600182848161180957634e487b7160e01b600052601260045260246000fd5b048301901c9150600182848161182f57634e487b7160e01b600052601260045260246000fd5b048301901c9150600182848161185557634e487b7160e01b600052601260045260246000fd5b048301901c9150600182848161187b57634e487b7160e01b600052601260045260246000fd5b048301901c915060018284816118a157634e487b7160e01b600052601260045260246000fd5b048301901c915060008284816118c757634e487b7160e01b600052601260045260246000fd5b049050808310156118d857826118da565b805b949350505050565b80516001600160701b03811681146118f957600080fd5b919050565b805169ffffffffffffffffffff811681146118f957600080fd5b600060208284031215611929578081fd5b81356116a381611c16565b600060208284031215611945578081fd5b81516116a381611c16565b600080600060608486031215611964578182fd5b833561196f81611c16565b9250602084013561197f81611c16565b9150604084013561198f81611c16565b809150509250925092565b6000806000606084860312156119ae578283fd5b6119b7846118e2565b92506119c5602085016118e2565b9150604084015163ffffffff8116811461198f578182fd5b6000602082840312156119ee578081fd5b5035919050565b600060208284031215611a06578081fd5b5051919050565b600080600080600060a08688031215611a24578081fd5b611a2d866118fe565b9450602086015193506040860151925060608601519150611a50608087016118fe565b90509295509295909350565b600060208284031215611a6d578081fd5b815160ff811681146116a3578182fd5b6000602080835283518082850152825b81811015611aa957858101830151858201604001528201611a8d565b81811115611aba5783604083870101525b50601f01601f1916929092016040019392505050565b600181815b80851115611b0b578160001904821115611af157611af1611c00565b80851615611afe57918102915b93841c9390800290611ad5565b509250929050565b60006116a360ff841683600082611b2c575060016115c2565b81611b39575060006115c2565b8160018114611b4f5760028114611b5957611b75565b60019150506115c2565b60ff841115611b6a57611b6a611c00565b50506001821b6115c2565b5060208310610133831016604e8410600b8410161715611b98575081810a6115c2565b611ba28383611ad0565b8060001904821115611bb657611bb6611c00565b029392505050565b6000816000190483118215151615611bd857611bd8611c00565b500290565b600060ff821660ff841680821015611bf757611bf7611c00565b90039392505050565b634e487b7160e01b600052601160045260246000fd5b6001600160a01b0381168114611c2b57600080fd5b5056fea2646970667358221220e2828471365bddac96b8870c83deec9bd8b56718137cc42f6379ca6f639d754064736f6c63430008040033",
  "linkReferences": {},
  "deployedLinkReferences": {}
}