{
  "_format": "hh-sol-artifact-1",
  "contractName": "CygnusTerminal",
  "sourceName": "contracts/cygnus-core/CygnusTerminal.sol",
  "abi": [
    {
      "inputs": [
        {
          "internalType": "string",
          "name": "name_",
          "type": "string"
        },
        {
          "internalType": "string",
          "name": "symbol_",
          "type": "string"
        },
        {
          "internalType": "uint8",
          "name": "decimals_",
          "type": "uint8"
        }
      ],
      "stateMutability": "nonpayable",
      "type": "constructor"
    },
    {
      "inputs": [
        {
          "internalType": "uint256",
          "name": "",
          "type": "uint256"
        }
      ],
      "name": "CygnusTerminal__CantMintZero",
      "type": "error"
    },
    {
      "inputs": [
        {
          "internalType": "uint256",
          "name": "",
          "type": "uint256"
        }
      ],
      "name": "CygnusTerminal__CantRedeemZero",
      "type": "error"
    },
    {
      "inputs": [
        {
          "internalType": "address",
          "name": "caller",
          "type": "address"
        },
        {
          "internalType": "address",
          "name": "factoryAdmin",
          "type": "address"
        }
      ],
      "name": "CygnusTerminal__MsgSenderNotAdmin",
      "type": "error"
    },
    {
      "inputs": [
        {
          "internalType": "address",
          "name": "",
          "type": "address"
        }
      ],
      "name": "CygnusTerminal__MsgSenderNotFactory",
      "type": "error"
    },
    {
      "inputs": [
        {
          "internalType": "uint256",
          "name": "invalidAmount",
          "type": "uint256"
        },
        {
          "internalType": "uint256",
          "name": "contractBalance",
          "type": "uint256"
        }
      ],
      "name": "CygnusTerminal__RedeemAmountInvalid",
      "type": "error"
    },
    {
      "inputs": [
        {
          "internalType": "uint8",
          "name": "v",
          "type": "uint8"
        },
        {
          "internalType": "bytes32",
          "name": "r",
          "type": "bytes32"
        },
        {
          "internalType": "bytes32",
          "name": "s",
          "type": "bytes32"
        }
      ],
      "name": "Erc20Permit__InvalidSignature",
      "type": "error"
    },
    {
      "inputs": [],
      "name": "Erc20Permit__OwnerZeroAddress",
      "type": "error"
    },
    {
      "inputs": [
        {
          "internalType": "uint256",
          "name": "deadline",
          "type": "uint256"
        }
      ],
      "name": "Erc20Permit__PermitExpired",
      "type": "error"
    },
    {
      "inputs": [],
      "name": "Erc20Permit__RecoveredOwnerZeroAddress",
      "type": "error"
    },
    {
      "inputs": [],
      "name": "Erc20Permit__SpenderZeroAddress",
      "type": "error"
    },
    {
      "inputs": [],
      "name": "Erc20__ApproveOwnerZeroAddress",
      "type": "error"
    },
    {
      "inputs": [],
      "name": "Erc20__ApproveSpenderZeroAddress",
      "type": "error"
    },
    {
      "inputs": [
        {
          "internalType": "uint256",
          "name": "accountBalance",
          "type": "uint256"
        },
        {
          "internalType": "uint256",
          "name": "burnAmount",
          "type": "uint256"
        }
      ],
      "name": "Erc20__BurnUnderflow",
      "type": "error"
    },
    {
      "inputs": [],
      "name": "Erc20__BurnZeroAddress",
      "type": "error"
    },
    {
      "inputs": [
        {
          "internalType": "uint256",
          "name": "allowance",
          "type": "uint256"
        },
        {
          "internalType": "uint256",
          "name": "amount",
          "type": "uint256"
        }
      ],
      "name": "Erc20__InsufficientAllowance",
      "type": "error"
    },
    {
      "inputs": [
        {
          "internalType": "uint256",
          "name": "senderBalance",
          "type": "uint256"
        },
        {
          "internalType": "uint256",
          "name": "amount",
          "type": "uint256"
        }
      ],
      "name": "Erc20__InsufficientBalance",
      "type": "error"
    },
    {
      "inputs": [],
      "name": "Erc20__MintZeroAddress",
      "type": "error"
    },
    {
      "inputs": [],
      "name": "Erc20__TransferRecipientZeroAddress",
      "type": "error"
    },
    {
      "inputs": [],
      "name": "Erc20__TransferSenderZeroAddress",
      "type": "error"
    },
    {
      "inputs": [
        {
          "internalType": "uint256",
          "name": "prod1",
          "type": "uint256"
        }
      ],
      "name": "PRBMath__MulDivFixedPointOverflow",
      "type": "error"
    },
    {
      "inputs": [
        {
          "internalType": "uint256",
          "name": "prod1",
          "type": "uint256"
        },
        {
          "internalType": "uint256",
          "name": "denominator",
          "type": "uint256"
        }
      ],
      "name": "PRBMath__MulDivOverflow",
      "type": "error"
    },
    {
      "inputs": [],
      "name": "ReentrantCall",
      "type": "error"
    },
    {
      "inputs": [
        {
          "internalType": "address",
          "name": "target",
          "type": "address"
        }
      ],
      "name": "SafeErc20__CallToNonContract",
      "type": "error"
    },
    {
      "inputs": [],
      "name": "SafeErc20__NoReturnData",
      "type": "error"
    },
    {
      "anonymous": false,
      "inputs": [
        {
          "indexed": true,
          "internalType": "address",
          "name": "owner",
          "type": "address"
        },
        {
          "indexed": true,
          "internalType": "address",
          "name": "spender",
          "type": "address"
        },
        {
          "indexed": false,
          "internalType": "uint256",
          "name": "amount",
          "type": "uint256"
        }
      ],
      "name": "Approval",
      "type": "event"
    },
    {
      "anonymous": false,
      "inputs": [
        {
          "indexed": true,
          "internalType": "address",
          "name": "sender",
          "type": "address"
        },
        {
          "indexed": true,
          "internalType": "address",
          "name": "minter",
          "type": "address"
        },
        {
          "indexed": false,
          "internalType": "uint256",
          "name": "mintAmount",
          "type": "uint256"
        },
        {
          "indexed": false,
          "internalType": "uint256",
          "name": "poolTokens",
          "type": "uint256"
        }
      ],
      "name": "Mint",
      "type": "event"
    },
    {
      "anonymous": false,
      "inputs": [
        {
          "indexed": true,
          "internalType": "address",
          "name": "sender",
          "type": "address"
        },
        {
          "indexed": true,
          "internalType": "address",
          "name": "redeemer",
          "type": "address"
        },
        {
          "indexed": false,
          "internalType": "uint256",
          "name": "redeemAmount",
          "type": "uint256"
        },
        {
          "indexed": false,
          "internalType": "uint256",
          "name": "poolTokens",
          "type": "uint256"
        }
      ],
      "name": "Redeem",
      "type": "event"
    },
    {
      "anonymous": false,
      "inputs": [
        {
          "indexed": false,
          "internalType": "uint256",
          "name": "totalBalance",
          "type": "uint256"
        }
      ],
      "name": "Sync",
      "type": "event"
    },
    {
      "anonymous": false,
      "inputs": [
        {
          "indexed": true,
          "internalType": "address",
          "name": "from",
          "type": "address"
        },
        {
          "indexed": true,
          "internalType": "address",
          "name": "to",
          "type": "address"
        },
        {
          "indexed": false,
          "internalType": "uint256",
          "name": "amount",
          "type": "uint256"
        }
      ],
      "name": "Transfer",
      "type": "event"
    },
    {
      "inputs": [],
      "name": "DOMAIN_SEPARATOR",
      "outputs": [
        {
          "internalType": "bytes32",
          "name": "",
          "type": "bytes32"
        }
      ],
      "stateMutability": "view",
      "type": "function"
    },
    {
      "inputs": [],
      "name": "PERMIT_TYPEHASH",
      "outputs": [
        {
          "internalType": "bytes32",
          "name": "",
          "type": "bytes32"
        }
      ],
      "stateMutability": "view",
      "type": "function"
    },
    {
      "inputs": [
        {
          "internalType": "address",
          "name": "owner",
          "type": "address"
        },
        {
          "internalType": "address",
          "name": "spender",
          "type": "address"
        }
      ],
      "name": "allowance",
      "outputs": [
        {
          "internalType": "uint256",
          "name": "",
          "type": "uint256"
        }
      ],
      "stateMutability": "view",
      "type": "function"
    },
    {
      "inputs": [
        {
          "internalType": "address",
          "name": "spender",
          "type": "address"
        },
        {
          "internalType": "uint256",
          "name": "amount",
          "type": "uint256"
        }
      ],
      "name": "approve",
      "outputs": [
        {
          "internalType": "bool",
          "name": "",
          "type": "bool"
        }
      ],
      "stateMutability": "nonpayable",
      "type": "function"
    },
    {
      "inputs": [
        {
          "internalType": "address",
          "name": "account",
          "type": "address"
        }
      ],
      "name": "balanceOf",
      "outputs": [
        {
          "internalType": "uint256",
          "name": "",
          "type": "uint256"
        }
      ],
      "stateMutability": "view",
      "type": "function"
    },
    {
      "inputs": [],
      "name": "chainId",
      "outputs": [
        {
          "internalType": "uint256",
          "name": "",
          "type": "uint256"
        }
      ],
      "stateMutability": "view",
      "type": "function"
    },
    {
      "inputs": [],
      "name": "decimals",
      "outputs": [
        {
          "internalType": "uint8",
          "name": "",
          "type": "uint8"
        }
      ],
      "stateMutability": "view",
      "type": "function"
    },
    {
      "inputs": [
        {
          "internalType": "address",
          "name": "spender",
          "type": "address"
        },
        {
          "internalType": "uint256",
          "name": "subtractedAmount",
          "type": "uint256"
        }
      ],
      "name": "decreaseAllowance",
      "outputs": [
        {
          "internalType": "bool",
          "name": "",
          "type": "bool"
        }
      ],
      "stateMutability": "nonpayable",
      "type": "function"
    },
    {
      "inputs": [],
      "name": "exchangeRate",
      "outputs": [
        {
          "internalType": "uint256",
          "name": "",
          "type": "uint256"
        }
      ],
      "stateMutability": "view",
      "type": "function"
    },
    {
      "inputs": [],
      "name": "hangar18",
      "outputs": [
        {
          "internalType": "address",
          "name": "",
          "type": "address"
        }
      ],
      "stateMutability": "view",
      "type": "function"
    },
    {
      "inputs": [
        {
          "internalType": "address",
          "name": "spender",
          "type": "address"
        },
        {
          "internalType": "uint256",
          "name": "addedAmount",
          "type": "uint256"
        }
      ],
      "name": "increaseAllowance",
      "outputs": [
        {
          "internalType": "bool",
          "name": "",
          "type": "bool"
        }
      ],
      "stateMutability": "nonpayable",
      "type": "function"
    },
    {
      "inputs": [
        {
          "internalType": "address",
          "name": "minter",
          "type": "address"
        }
      ],
      "name": "mint",
      "outputs": [
        {
          "internalType": "uint256",
          "name": "cygnusMintTokens",
          "type": "uint256"
        }
      ],
      "stateMutability": "nonpayable",
      "type": "function"
    },
    {
      "inputs": [],
      "name": "name",
      "outputs": [
        {
          "internalType": "string",
          "name": "",
          "type": "string"
        }
      ],
      "stateMutability": "view",
      "type": "function"
    },
    {
      "inputs": [
        {
          "internalType": "address",
          "name": "",
          "type": "address"
        }
      ],
      "name": "nonces",
      "outputs": [
        {
          "internalType": "uint256",
          "name": "",
          "type": "uint256"
        }
      ],
      "stateMutability": "view",
      "type": "function"
    },
    {
      "inputs": [
        {
          "internalType": "address",
          "name": "owner",
          "type": "address"
        },
        {
          "internalType": "address",
          "name": "spender",
          "type": "address"
        },
        {
          "internalType": "uint256",
          "name": "value",
          "type": "uint256"
        },
        {
          "internalType": "uint256",
          "name": "deadline",
          "type": "uint256"
        },
        {
          "internalType": "uint8",
          "name": "v",
          "type": "uint8"
        },
        {
          "internalType": "bytes32",
          "name": "r",
          "type": "bytes32"
        },
        {
          "internalType": "bytes32",
          "name": "s",
          "type": "bytes32"
        }
      ],
      "name": "permit",
      "outputs": [],
      "stateMutability": "nonpayable",
      "type": "function"
    },
    {
      "inputs": [
        {
          "internalType": "address",
          "name": "holder",
          "type": "address"
        }
      ],
      "name": "redeem",
      "outputs": [
        {
          "internalType": "uint256",
          "name": "redeemAmount",
          "type": "uint256"
        }
      ],
      "stateMutability": "nonpayable",
      "type": "function"
    },
    {
      "inputs": [
        {
          "internalType": "address",
          "name": "recipient",
          "type": "address"
        }
      ],
      "name": "skim",
      "outputs": [],
      "stateMutability": "nonpayable",
      "type": "function"
    },
    {
      "inputs": [],
      "name": "symbol",
      "outputs": [
        {
          "internalType": "string",
          "name": "",
          "type": "string"
        }
      ],
      "stateMutability": "view",
      "type": "function"
    },
    {
      "inputs": [],
      "name": "sync",
      "outputs": [],
      "stateMutability": "nonpayable",
      "type": "function"
    },
    {
      "inputs": [],
      "name": "totalBalance",
      "outputs": [
        {
          "internalType": "uint256",
          "name": "",
          "type": "uint256"
        }
      ],
      "stateMutability": "view",
      "type": "function"
    },
    {
      "inputs": [],
      "name": "totalSupply",
      "outputs": [
        {
          "internalType": "uint256",
          "name": "",
          "type": "uint256"
        }
      ],
      "stateMutability": "view",
      "type": "function"
    },
    {
      "inputs": [
        {
          "internalType": "address",
          "name": "recipient",
          "type": "address"
        },
        {
          "internalType": "uint256",
          "name": "amount",
          "type": "uint256"
        }
      ],
      "name": "transfer",
      "outputs": [
        {
          "internalType": "bool",
          "name": "",
          "type": "bool"
        }
      ],
      "stateMutability": "nonpayable",
      "type": "function"
    },
    {
      "inputs": [
        {
          "internalType": "address",
          "name": "sender",
          "type": "address"
        },
        {
          "internalType": "address",
          "name": "recipient",
          "type": "address"
        },
        {
          "internalType": "uint256",
          "name": "amount",
          "type": "uint256"
        }
      ],
      "name": "transferFrom",
      "outputs": [
        {
          "internalType": "bool",
          "name": "",
          "type": "bool"
        }
      ],
      "stateMutability": "nonpayable",
      "type": "function"
    },
    {
      "inputs": [],
      "name": "underlying",
      "outputs": [
        {
          "internalType": "address",
          "name": "",
          "type": "address"
        }
      ],
      "stateMutability": "view",
      "type": "function"
    },
    {
      "inputs": [],
      "name": "version",
      "outputs": [
        {
          "internalType": "string",
          "name": "",
          "type": "string"
        }
      ],
      "stateMutability": "view",
      "type": "function"
    }
  ],
  "bytecode": "0x60c0604052466007553480156200001557600080fd5b5060405162001bbf38038062001bbf8339810160408190526200003891620002c1565b6000805460ff191660019081179091558351849184918491849184918491620000679190602086019062000168565b5081516200007d90600290602085019062000168565b5060f81b7fff000000000000000000000000000000000000000000000000000000000000001660805250506040517f8b73c3c69bb8fe3d512ecc4cf759cc79239f7b179b0ffacaa9a75d522b39400f90620000db9060019062000342565b60408051918290038220828201825260018352603160f81b602093840152600754825193840194909452908201527fc89efdaa54c0f20c7adf612882df0950f5a951637e0307cdcb4c672f298b8bc6606082015260808101919091523060a082015260c00160408051601f19818403018152919052805160209091012060a0525062000438945050505050565b8280546200017690620003e5565b90600052602060002090601f0160209004810192826200019a5760008555620001e5565b82601f10620001b557805160ff1916838001178555620001e5565b82800160010185558215620001e5579182015b82811115620001e5578251825591602001919060010190620001c8565b50620001f3929150620001f7565b5090565b5b80821115620001f35760008155600101620001f8565b600082601f8301126200021f578081fd5b81516001600160401b03808211156200023c576200023c62000422565b604051601f8301601f19908116603f0116810190828211818310171562000267576200026762000422565b8160405283815260209250868385880101111562000283578485fd5b8491505b83821015620002a6578582018301518183018401529082019062000287565b83821115620002b757848385830101525b9695505050505050565b600080600060608486031215620002d6578283fd5b83516001600160401b0380821115620002ed578485fd5b620002fb878388016200020e565b9450602086015191508082111562000311578384fd5b5062000320868287016200020e565b925050604084015160ff8116811462000337578182fd5b809150509250925092565b600080835482600182811c9150808316806200035f57607f831692505b60208084108214156200038057634e487b7160e01b87526022600452602487fd5b818015620003975760018114620003a957620003d7565b60ff19861689528489019650620003d7565b60008a815260209020885b86811015620003cf5781548b820152908501908301620003b4565b505084890196505b509498975050505050505050565b600181811c90821680620003fa57607f821691505b602082108114156200041c57634e487b7160e01b600052602260045260246000fd5b50919050565b634e487b7160e01b600052604160045260246000fd5b60805160f81c60a05161175762000468600039600081816102480152610bd20152600061020f01526117576000f3fe608060405234801561001057600080fd5b50600436106101735760003560e01c806370a08231116100de578063a9059cbb11610097578063d505accf11610071578063d505accf14610394578063dd62ed3e146103a7578063e8a24e1d146103e0578063fff6cae9146103f357600080fd5b8063a9059cbb14610363578063ad7a672f14610376578063bc25cf771461037f57600080fd5b806370a08231146102e35780637ecebe001461030c57806395a2251f1461032c57806395d89b411461033f5780639a8a059214610347578063a457c2d71461035057600080fd5b80633644e515116101305780633644e51514610243578063395093511461026a5780633ba0b9a91461027d57806354fd4d50146102855780636a627842146102a55780636f307dc3146102b857600080fd5b806306fdde0314610178578063095ea7b31461019657806318160ddd146101b957806323b872dd146101d057806330adf81f146101e3578063313ce5671461020a575b600080fd5b6101806103fb565b60405161018d919061163e565b60405180910390f35b6101a96101a436600461159e565b610489565b604051901515815260200161018d565b6101c260035481565b60405190815260200161018d565b6101a96101de3660046114f2565b6104a0565b6101c27f6e71edae12b1b97f4d1f60370fef10105fa2faae0126114a169c64845d6126c981565b6102317f000000000000000000000000000000000000000000000000000000000000000081565b60405160ff909116815260200161018d565b6101c27f000000000000000000000000000000000000000000000000000000000000000081565b6101a961027836600461159e565b61051b565b6101c2610563565b610180604051806040016040528060018152602001603160f81b81525081565b6101c26102b33660046114a6565b610591565b600c546102cb906001600160a01b031681565b6040516001600160a01b03909116815260200161018d565b6101c26102f13660046114a6565b6001600160a01b031660009081526004602052604090205490565b6101c261031a3660046114a6565b60066020526000908152604090205481565b6101c261033a3660046114a6565b61088b565b610180610a0d565b6101c260075481565b6101a961035e36600461159e565b610a1a565b6101a961037136600461159e565b610a4b565b6101c2600b5481565b61039261038d3660046114a6565b610a58565b005b6103926103a236600461152d565b610ac9565b6101c26103b53660046114c0565b6001600160a01b03918216600090815260056020908152604080832093909416825291909152205490565b600d546102cb906001600160a01b031681565b610392610d06565b60018054610408906116d0565b80601f0160208091040260200160405190810160405280929190818152602001828054610434906116d0565b80156104815780601f1061045657610100808354040283529160200191610481565b820191906000526020600020905b81548152906001019060200180831161046457829003601f168201915b505050505081565b6000610496338484610d4a565b5060015b92915050565b60006104ad848484610df9565b6001600160a01b03841660009081526005602090815260408083203384529091529020548281101561050157604051632b3ca6f360e11b815260048101829052602481018490526044015b60405180910390fd5b61050e8533858403610d4a565b60019150505b9392505050565b3360009081526005602090815260408083206001600160a01b0386168452909152812054819061054c908490611671565b9050610559338583610d4a565b5060019392505050565b600354600090801561058157600b5461057c9082610f1c565b61058b565b670de0b6b3a76400005b91505090565b6000805460ff166105b5576040516306fda65d60e31b815260040160405180910390fd5b6000805460ff19168155600c546040516370a0823160e01b81523060048201526001600160a01b03909116906370a082319060240160206040518083038186803b15801561060257600080fd5b505afa158015610616573d6000803e3d6000fd5b505050506040513d601f19601f8201168201806040525081019061063a91906115e7565b600a5490915060ff16156107d7576008546009546040516393f1a40b60e01b815260048101919091523060248201526000916001600160a01b0316906393f1a40b90604401604080518083038186803b15801561069657600080fd5b505afa1580156106aa573d6000803e3d6000fd5b505050506040513d601f19601f820116820180604052508101906106ce91906115ff565b50600854600954604051631c57762b60e31b81526004810191909152602481018590529192506001600160a01b03169063e2bbb15890604401600060405180830381600087803b15801561072157600080fd5b505af1158015610735573d6000803e3d6000fd5b50506008546009546040516393f1a40b60e01b81526004810191909152306024820152600093506001600160a01b0390911691506393f1a40b90604401604080518083038186803b15801561078957600080fd5b505afa15801561079d573d6000803e3d6000fd5b505050506040513d601f19601f820116820180604052508101906107c191906115ff565b5090506107ce8282611689565b925050506107e7565b600b546107e49082611689565b90505b6107f96107f2610563565b8290610f1c565b91506000821161081f5760405163cd698f4d60e01b8152600481018390526024016104f8565b6108298383610f31565b60408051828152602081018490526001600160a01b0385169133917f2f00e3cdd69a77be7ed215ec7b2a36784dd158f921fca79ac29deffa353fe6ee91015b60405180910390a350610879610fe4565b6000805460ff19166001179055919050565b6000805460ff166108af576040516306fda65d60e31b815260040160405180910390fd5b6000805460ff19168155308152600460205260409020546108d86108d1610563565b8290611099565b9150600082116108fe576040516319f4fb4360e31b8152600481018390526024016104f8565b600b5482111561092f57600b546040516339eff09f60e11b81526104f8918491600401918252602082015260400190565b61093930826110a5565b600a5460ff16156109b357600854600954604051630441a3e760e41b81526001600160a01b039092169163441a3e7091610980918690600401918252602082015260400190565b600060405180830381600087803b15801561099a57600080fd5b505af11580156109ae573d6000803e3d6000fd5b505050505b600c546109ca906001600160a01b03168484611150565b60408051838152602081018390526001600160a01b0385169133917f3f693fff038bb8a046aa76d9516190ac7444f7d69cf952c4cbdc086fdef2d6fc9101610868565b60028054610408906116d0565b3360009081526005602090815260408083206001600160a01b0386168452909152812054819061054c908490611689565b6000610496338484610df9565b60005460ff16610a7b576040516306fda65d60e31b815260040160405180910390fd5b6000805460ff19168155600b543082526004602052604090912054610ab9918391610aa69190611689565b600c546001600160a01b03169190611150565b506000805460ff19166001179055565b6001600160a01b038716610af05760405163bc622b6360e01b815260040160405180910390fd5b6001600160a01b038616610b1757604051632853494b60e11b815260040160405180910390fd5b42841015610b3b5760405163212ed8bb60e11b8152600481018590526024016104f8565b6001600160a01b0387811660008181526006602090815260408083208054600180820190925582517f6e71edae12b1b97f4d1f60370fef10105fa2faae0126114a169c64845d6126c98186015280840196909652958c166060860152608085018b905260a085019590955260c08085018a90528151808603909101815260e08501825280519083012061190160f01b6101008601527f000000000000000000000000000000000000000000000000000000000000000061010286015261012280860182905282518087039091018152610142860180845281519185019190912090859052610162860180845281905260ff8a166101828701526101a286018990526101c2860188905291519095919491926101e2808401939192601f1981019281900390910190855afa158015610c76573d6000803e3d6000fd5b5050604051601f1901519150506001600160a01b038116610caa57604051630f81234f60e31b815260040160405180910390fd5b896001600160a01b0316816001600160a01b031614610cef57604051630b76193960e31b815260ff8716600482015260248101869052604481018590526064016104f8565b610cfa8a8a8a610d4a565b50505050505050505050565b60005460ff16610d29576040516306fda65d60e31b815260040160405180910390fd5b6000805460ff19169055610d3b610fe4565b6000805460ff19166001179055565b6001600160a01b038316610d715760405163230326bf60e11b815260040160405180910390fd5b6001600160a01b038216610d9857604051630b39ecd960e21b815260040160405180910390fd5b6001600160a01b0383811660008181526005602090815260408083209487168084529482529182902085905590518481527f8c5be1e5ebec7d5bd14f71427d1e84f3dd0314c0f7b2291e5b200ac8c7c3b925910160405180910390a3505050565b6001600160a01b038316610e205760405163907bfbd760e01b815260040160405180910390fd5b6001600160a01b038216610e4757604051637184c13f60e01b815260040160405180910390fd5b6001600160a01b03831660009081526004602052604090205481811015610e8b57604051632dcf2e2160e21b815260048101829052602481018390526044016104f8565b6001600160a01b03808516600090815260046020526040808220858503905591851681529081208054849290610ec2908490611671565b92505081905550826001600160a01b0316846001600160a01b03167fddf252ad1be2c89b69c2b068fc378daa952ba7f163c4a11628f55a4df523b3ef84604051610f0e91815260200190565b60405180910390a350505050565b600061051483670de0b6b3a7640000846111a7565b6001600160a01b038216610f585760405163139241eb60e01b815260040160405180910390fd5b6001600160a01b03821660009081526004602052604081208054839290610f80908490611671565b925050819055508060036000828254610f999190611671565b90915550506040518181526001600160a01b038316906000907fddf252ad1be2c89b69c2b068fc378daa952ba7f163c4a11628f55a4df523b3ef906020015b60405180910390a35050565b600c546040516370a0823160e01b81523060048201526001600160a01b03909116906370a082319060240160206040518083038186803b15801561102757600080fd5b505afa15801561103b573d6000803e3d6000fd5b505050506040513d601f19601f8201168201806040525081019061105f91906115e7565b600b8190556040519081527f8a0df8ef054fae2c3d2d19a7b322e864870cc9fd3cb07fb9526309c596244bf49060200160405180910390a1565b60006105148383611283565b6001600160a01b0382166110cc57604051638e35e80360e01b815260040160405180910390fd5b6001600160a01b038216600090815260046020526040812080548392906110f4908490611689565b92505081905550806003600082825461110d9190611689565b90915550506040518181526000906001600160a01b038416907fddf252ad1be2c89b69c2b068fc378daa952ba7f163c4a11628f55a4df523b3ef90602001610fd8565b604080516001600160a01b038416602482015260448082018490528251808303909101815260649091019091526020810180516001600160e01b031663a9059cbb60e01b1790526111a2908490611345565b505050565b6000808060001985870985870292508281108382030391505080600014156111f0578382816111e657634e487b7160e01b600052601260045260246000fd5b0492505050610514565b83811061121a57604051631dcf306360e21b815260048101829052602481018590526044016104f8565b60008486880960026001871981018816978890046003810283188082028403028082028403028082028403028082028403028082028403029081029092039091026000889003889004909101858311909403939093029303949094049190911702949350505050565b60008080600019848609848602925082811083820303915050670de0b6b3a764000081106112c75760405163698d9a0160e11b8152600481018290526024016104f8565b600080670de0b6b3a76400008688099150506706f05b59d3b1ffff8111826113015780670de0b6b3a764000085040194505050505061049a565b620400008285030493909111909103600160ee1b02919091177faccb18165bd6fe31ae1cf318dc5b51eee0e1ba569b88cd74c1773b91fac106690201905092915050565b600061137f83836040518060400160405280601581526020017414d85999515c98cc8c131bddd3195d995b10d85b1b605a1b8152506113ba565b8051909150156111a2578080602001905181019061139d91906115c7565b6111a2576040516364d6fc4d60e01b815260040160405180910390fd5b60606001600160a01b0384163b6113ef57604051638201cc0560e01b81526001600160a01b03851660048201526024016104f8565b600080856001600160a01b03168560405161140a9190611622565b6000604051808303816000865af19150503d8060008114611447576040519150601f19603f3d011682016040523d82523d6000602084013e61144c565b606091505b509150915081156114605791506105149050565b8051156114705780518082602001fd5b8360405162461bcd60e51b81526004016104f8919061163e565b80356001600160a01b03811681146114a157600080fd5b919050565b6000602082840312156114b7578081fd5b6105148261148a565b600080604083850312156114d2578081fd5b6114db8361148a565b91506114e96020840161148a565b90509250929050565b600080600060608486031215611506578081fd5b61150f8461148a565b925061151d6020850161148a565b9150604084013590509250925092565b600080600080600080600060e0888a031215611547578283fd5b6115508861148a565b965061155e6020890161148a565b95506040880135945060608801359350608088013560ff81168114611581578384fd5b9699959850939692959460a0840135945060c09093013592915050565b600080604083850312156115b0578182fd5b6115b98361148a565b946020939093013593505050565b6000602082840312156115d8578081fd5b81518015158114610514578182fd5b6000602082840312156115f8578081fd5b5051919050565b60008060408385031215611611578182fd5b505080516020909101519092909150565b600082516116348184602087016116a0565b9190910192915050565b602081526000825180602084015261165d8160408501602087016116a0565b601f01601f19169190910160400192915050565b600082198211156116845761168461170b565b500190565b60008282101561169b5761169b61170b565b500390565b60005b838110156116bb5781810151838201526020016116a3565b838111156116ca576000848401525b50505050565b600181811c908216806116e457607f821691505b6020821081141561170557634e487b7160e01b600052602260045260246000fd5b50919050565b634e487b7160e01b600052601160045260246000fdfea26469706673582212207c6a5a03770bc115ab609b28b0656b8db955613d68d5b5dfc059fc99896b69d564736f6c63430008040033",
  "linkReferences": {},
  "deployedLinkReferences": {}
}