{
  "_format": "hh-sol-artifact-1",
  "contractName": "CygnusTerminal",
  "sourceName": "contracts/cygnus-core/CygnusTerminal.sol",
  "abi": [
    {
      "inputs": [
        {
          "internalType": "string",
          "name": "name_",
          "type": "string"
        },
        {
          "internalType": "string",
          "name": "symbol_",
          "type": "string"
        },
        {
          "internalType": "uint8",
          "name": "decimals_",
          "type": "uint8"
        }
      ],
      "stateMutability": "nonpayable",
      "type": "constructor"
    },
    {
      "inputs": [],
      "name": "CygnusTerminal__CantMintZeroShares",
      "type": "error"
    },
    {
      "inputs": [],
      "name": "CygnusTerminal__CantRedeemZeroAssets",
      "type": "error"
    },
    {
      "inputs": [
        {
          "internalType": "address",
          "name": "token",
          "type": "address"
        },
        {
          "internalType": "address",
          "name": "underlying",
          "type": "address"
        }
      ],
      "name": "CygnusTerminal__CantSweepUnderlying",
      "type": "error"
    },
    {
      "inputs": [
        {
          "internalType": "address",
          "name": "sender",
          "type": "address"
        },
        {
          "internalType": "address",
          "name": "factoryAdmin",
          "type": "address"
        }
      ],
      "name": "CygnusTerminal__MsgSenderNotAdmin",
      "type": "error"
    },
    {
      "inputs": [
        {
          "internalType": "uint256",
          "name": "assets",
          "type": "uint256"
        },
        {
          "internalType": "uint256",
          "name": "totalBalance",
          "type": "uint256"
        }
      ],
      "name": "CygnusTerminal__RedeemAmountInvalid",
      "type": "error"
    },
    {
      "inputs": [],
      "name": "ERC20__ApproveOwnerZeroAddress",
      "type": "error"
    },
    {
      "inputs": [],
      "name": "ERC20__ApproveSpenderZeroAddress",
      "type": "error"
    },
    {
      "inputs": [
        {
          "internalType": "uint256",
          "name": "accountBalance",
          "type": "uint256"
        },
        {
          "internalType": "uint256",
          "name": "burnAmount",
          "type": "uint256"
        }
      ],
      "name": "ERC20__BurnUnderflow",
      "type": "error"
    },
    {
      "inputs": [],
      "name": "ERC20__BurnZeroAddress",
      "type": "error"
    },
    {
      "inputs": [
        {
          "internalType": "uint256",
          "name": "allowance",
          "type": "uint256"
        },
        {
          "internalType": "uint256",
          "name": "amount",
          "type": "uint256"
        }
      ],
      "name": "ERC20__InsufficientAllowance",
      "type": "error"
    },
    {
      "inputs": [
        {
          "internalType": "uint256",
          "name": "senderBalance",
          "type": "uint256"
        },
        {
          "internalType": "uint256",
          "name": "amount",
          "type": "uint256"
        }
      ],
      "name": "ERC20__InsufficientBalance",
      "type": "error"
    },
    {
      "inputs": [],
      "name": "ERC20__MintZeroAddress",
      "type": "error"
    },
    {
      "inputs": [],
      "name": "ERC20__TransferRecipientZeroAddress",
      "type": "error"
    },
    {
      "inputs": [],
      "name": "ERC20__TransferSenderZeroAddress",
      "type": "error"
    },
    {
      "inputs": [
        {
          "internalType": "uint256",
          "name": "prod1",
          "type": "uint256"
        }
      ],
      "name": "PRBMath__MulDivFixedPointOverflow",
      "type": "error"
    },
    {
      "inputs": [
        {
          "internalType": "uint256",
          "name": "prod1",
          "type": "uint256"
        },
        {
          "internalType": "uint256",
          "name": "denominator",
          "type": "uint256"
        }
      ],
      "name": "PRBMath__MulDivOverflow",
      "type": "error"
    },
    {
      "inputs": [],
      "name": "ReentrantCall",
      "type": "error"
    },
    {
      "anonymous": false,
      "inputs": [
        {
          "indexed": true,
          "internalType": "address",
          "name": "owner",
          "type": "address"
        },
        {
          "indexed": true,
          "internalType": "address",
          "name": "spender",
          "type": "address"
        },
        {
          "indexed": false,
          "internalType": "uint256",
          "name": "amount",
          "type": "uint256"
        }
      ],
      "name": "Approval",
      "type": "event"
    },
    {
      "anonymous": false,
      "inputs": [
        {
          "indexed": true,
          "internalType": "address",
          "name": "sender",
          "type": "address"
        },
        {
          "indexed": true,
          "internalType": "address",
          "name": "recipient",
          "type": "address"
        },
        {
          "indexed": false,
          "internalType": "uint256",
          "name": "assets",
          "type": "uint256"
        },
        {
          "indexed": false,
          "internalType": "uint256",
          "name": "shares",
          "type": "uint256"
        }
      ],
      "name": "Deposit",
      "type": "event"
    },
    {
      "anonymous": false,
      "inputs": [
        {
          "indexed": false,
          "internalType": "uint256",
          "name": "totalBalance",
          "type": "uint256"
        }
      ],
      "name": "Sync",
      "type": "event"
    },
    {
      "anonymous": false,
      "inputs": [
        {
          "indexed": true,
          "internalType": "address",
          "name": "from",
          "type": "address"
        },
        {
          "indexed": true,
          "internalType": "address",
          "name": "to",
          "type": "address"
        },
        {
          "indexed": false,
          "internalType": "uint256",
          "name": "amount",
          "type": "uint256"
        }
      ],
      "name": "Transfer",
      "type": "event"
    },
    {
      "anonymous": false,
      "inputs": [
        {
          "indexed": true,
          "internalType": "address",
          "name": "sender",
          "type": "address"
        },
        {
          "indexed": true,
          "internalType": "address",
          "name": "recipient",
          "type": "address"
        },
        {
          "indexed": true,
          "internalType": "address",
          "name": "owner",
          "type": "address"
        },
        {
          "indexed": false,
          "internalType": "uint256",
          "name": "assets",
          "type": "uint256"
        },
        {
          "indexed": false,
          "internalType": "uint256",
          "name": "shares",
          "type": "uint256"
        }
      ],
      "name": "Withdraw",
      "type": "event"
    },
    {
      "inputs": [
        {
          "internalType": "address",
          "name": "owner",
          "type": "address"
        },
        {
          "internalType": "address",
          "name": "spender",
          "type": "address"
        }
      ],
      "name": "allowance",
      "outputs": [
        {
          "internalType": "uint256",
          "name": "",
          "type": "uint256"
        }
      ],
      "stateMutability": "view",
      "type": "function"
    },
    {
      "inputs": [
        {
          "internalType": "address",
          "name": "spender",
          "type": "address"
        },
        {
          "internalType": "uint256",
          "name": "amount",
          "type": "uint256"
        }
      ],
      "name": "approve",
      "outputs": [
        {
          "internalType": "bool",
          "name": "",
          "type": "bool"
        }
      ],
      "stateMutability": "nonpayable",
      "type": "function"
    },
    {
      "inputs": [
        {
          "internalType": "address",
          "name": "account",
          "type": "address"
        }
      ],
      "name": "balanceOf",
      "outputs": [
        {
          "internalType": "uint256",
          "name": "",
          "type": "uint256"
        }
      ],
      "stateMutability": "view",
      "type": "function"
    },
    {
      "inputs": [],
      "name": "decimals",
      "outputs": [
        {
          "internalType": "uint8",
          "name": "",
          "type": "uint8"
        }
      ],
      "stateMutability": "view",
      "type": "function"
    },
    {
      "inputs": [
        {
          "internalType": "uint256",
          "name": "assets",
          "type": "uint256"
        },
        {
          "internalType": "address",
          "name": "recipient",
          "type": "address"
        }
      ],
      "name": "deposit",
      "outputs": [
        {
          "internalType": "uint256",
          "name": "shares",
          "type": "uint256"
        }
      ],
      "stateMutability": "nonpayable",
      "type": "function"
    },
    {
      "inputs": [],
      "name": "exchangeRate",
      "outputs": [
        {
          "internalType": "uint256",
          "name": "",
          "type": "uint256"
        }
      ],
      "stateMutability": "nonpayable",
      "type": "function"
    },
    {
      "inputs": [],
      "name": "hangar18",
      "outputs": [
        {
          "internalType": "address",
          "name": "",
          "type": "address"
        }
      ],
      "stateMutability": "view",
      "type": "function"
    },
    {
      "inputs": [],
      "name": "name",
      "outputs": [
        {
          "internalType": "string",
          "name": "",
          "type": "string"
        }
      ],
      "stateMutability": "view",
      "type": "function"
    },
    {
      "inputs": [],
      "name": "orbiterName",
      "outputs": [
        {
          "internalType": "string",
          "name": "",
          "type": "string"
        }
      ],
      "stateMutability": "view",
      "type": "function"
    },
    {
      "inputs": [
        {
          "internalType": "uint256",
          "name": "shares",
          "type": "uint256"
        },
        {
          "internalType": "address",
          "name": "recipient",
          "type": "address"
        },
        {
          "internalType": "address",
          "name": "owner",
          "type": "address"
        }
      ],
      "name": "redeem",
      "outputs": [
        {
          "internalType": "uint256",
          "name": "assets",
          "type": "uint256"
        }
      ],
      "stateMutability": "nonpayable",
      "type": "function"
    },
    {
      "inputs": [],
      "name": "shuttleId",
      "outputs": [
        {
          "internalType": "uint256",
          "name": "",
          "type": "uint256"
        }
      ],
      "stateMutability": "view",
      "type": "function"
    },
    {
      "inputs": [
        {
          "internalType": "address",
          "name": "token",
          "type": "address"
        }
      ],
      "name": "sweepToken",
      "outputs": [],
      "stateMutability": "nonpayable",
      "type": "function"
    },
    {
      "inputs": [],
      "name": "symbol",
      "outputs": [
        {
          "internalType": "string",
          "name": "",
          "type": "string"
        }
      ],
      "stateMutability": "view",
      "type": "function"
    },
    {
      "inputs": [],
      "name": "totalBalance",
      "outputs": [
        {
          "internalType": "uint256",
          "name": "",
          "type": "uint256"
        }
      ],
      "stateMutability": "view",
      "type": "function"
    },
    {
      "inputs": [],
      "name": "totalSupply",
      "outputs": [
        {
          "internalType": "uint256",
          "name": "",
          "type": "uint256"
        }
      ],
      "stateMutability": "view",
      "type": "function"
    },
    {
      "inputs": [
        {
          "internalType": "address",
          "name": "recipient",
          "type": "address"
        },
        {
          "internalType": "uint256",
          "name": "amount",
          "type": "uint256"
        }
      ],
      "name": "transfer",
      "outputs": [
        {
          "internalType": "bool",
          "name": "",
          "type": "bool"
        }
      ],
      "stateMutability": "nonpayable",
      "type": "function"
    },
    {
      "inputs": [
        {
          "internalType": "address",
          "name": "sender",
          "type": "address"
        },
        {
          "internalType": "address",
          "name": "recipient",
          "type": "address"
        },
        {
          "internalType": "uint256",
          "name": "amount",
          "type": "uint256"
        }
      ],
      "name": "transferFrom",
      "outputs": [
        {
          "internalType": "bool",
          "name": "",
          "type": "bool"
        }
      ],
      "stateMutability": "nonpayable",
      "type": "function"
    },
    {
      "inputs": [],
      "name": "underlying",
      "outputs": [
        {
          "internalType": "address",
          "name": "",
          "type": "address"
        }
      ],
      "stateMutability": "view",
      "type": "function"
    }
  ],
  "bytecode": "0x6101006040523480156200001257600080fd5b506040516200179d3803806200179d833981016040819052620000359162000407565b6000805460ff1916600190811790915583518491849184916200005d916020860190620001db565b50815162000073906002906020850190620001db565b5060f81b7fff000000000000000000000000000000000000000000000000000000000000001660805250600090508080620000ab3390565b6001600160a01b031663c3bc64ea6040518163ffffffff1660e01b8152600401608060405180830381600087803b158015620000e657600080fd5b505af192505050801562000119575060408051601f3d908101601f19168201909252620001169181019062000351565b60015b620001a857336001600160a01b0316639a9862366040518163ffffffff1660e01b815260040160c060405180830381600087803b1580156200015a57600080fd5b505af11580156200016f573d6000803e3d6000fd5b505050506040513d601f19601f82011682018060405250810190620001959190620003a2565b50939650919450909250620001b3915050565b929550909350909150505b6001600160601b0319606093841b811660a0529190921b1660e05260c05250620004db915050565b828054620001e99062000488565b90600052602060002090601f0160209004810192826200020d576000855562000258565b82601f106200022857805160ff191683800117855562000258565b8280016001018555821562000258579182015b82811115620002585782518255916020019190600101906200023b565b50620002669291506200026a565b5090565b5b808211156200026657600081556001016200026b565b80516001600160a01b03811681146200029957600080fd5b919050565b600082601f830112620002af578081fd5b81516001600160401b0380821115620002cc57620002cc620004c5565b604051601f8301601f19908116603f01168101908282118183101715620002f757620002f7620004c5565b8160405283815260209250868385880101111562000313578485fd5b8491505b8382101562000336578582018301518183018401529082019062000317565b838211156200034757848385830101525b9695505050505050565b6000806000806080858703121562000367578384fd5b620003728562000281565b9350620003826020860162000281565b9250620003926040860162000281565b6060959095015193969295505050565b60008060008060008060c08789031215620003bb578182fd5b620003c68762000281565b9550620003d66020880162000281565b9450620003e66040880162000281565b9350606087015192506080870151915060a087015190509295509295509295565b6000806000606084860312156200041c578283fd5b83516001600160401b038082111562000433578485fd5b62000441878388016200029e565b9450602086015191508082111562000457578384fd5b5062000466868287016200029e565b925050604084015160ff811681146200047d578182fd5b809150509250925092565b600181811c908216806200049d57607f821691505b60208210811415620004bf57634e487b7160e01b600052602260045260246000fd5b50919050565b634e487b7160e01b600052604160045260246000fd5b60805160f81c60a05160601c60c05160e05160601c611255620005486000396000818161021b015281816103f90152818161045001528181610637015281816108050152610a95015260006101e10152600081816102fb015261096e015260006101a001526112556000f3fe608060405234801561001057600080fd5b50600436106101165760003560e01c80636f307dc3116100a2578063ad7a672f11610071578063ad7a672f14610299578063ba087652146102a2578063da7a2f74146102b5578063dd62ed3e146102bd578063e8a24e1d146102f657600080fd5b80636f307dc31461021657806370a082311461025557806395d89b411461027e578063a9059cbb1461028657600080fd5b806323b872dd116100e957806323b872dd14610188578063313ce5671461019b5780633ba0b9a9146101d45780635f77f891146101dc5780636e553f651461020357600080fd5b806306fdde031461011b578063095ea7b31461013957806318160ddd1461015c5780631be1956014610173575b600080fd5b61012361031d565b6040516101309190611137565b60405180910390f35b61014c61014736600461108f565b6103ab565b6040519015158152602001610130565b61016560035481565b604051908152602001610130565b610186610181366004610fdf565b6103c2565b005b61014c61019636600461104f565b61052b565b6101c27f000000000000000000000000000000000000000000000000000000000000000081565b60405160ff9091168152602001610130565b6101656105a1565b6101657f000000000000000000000000000000000000000000000000000000000000000081565b6101656102113660046110d2565b6105cf565b61023d7f000000000000000000000000000000000000000000000000000000000000000081565b6040516001600160a01b039091168152602001610130565b610165610263366004610fdf565b6001600160a01b031660009081526004602052604090205490565b6101236106d2565b61014c61029436600461108f565b6106df565b61016560065481565b6101656102b03660046110f6565b6106ec565b6101236108ae565b6101656102cb366004611017565b6001600160a01b03918216600090815260056020908152604080832093909416825291909152205490565b61023d7f000000000000000000000000000000000000000000000000000000000000000081565b6001805461032a906111b9565b80601f0160208091040260200160405190810160405280929190818152602001828054610356906111b9565b80156103a35780601f10610378576101008083540402835291602001916103a3565b820191906000526020600020905b81548152906001019060200180831161038657829003601f168201915b505050505081565b60006103b83384846108bb565b5060015b92915050565b60005460ff166103e5576040516306fda65d60e31b815260040160405180910390fd5b6000805460ff191690556103f761096a565b7f00000000000000000000000000000000000000000000000000000000000000006001600160a01b0316816001600160a01b03161415610482576040516303b91a9160e31b81526001600160a01b0380831660048301527f00000000000000000000000000000000000000000000000000000000000000001660248201526044015b60405180910390fd5b6040516370a0823160e01b81523060048201526000906001600160a01b038316906370a082319060240160206040518083038186803b1580156104c457600080fd5b505afa1580156104d8573d6000803e3d6000fd5b505050506040513d601f19601f820116820180604052508101906104fc91906110ba565b90506105126001600160a01b0383163383610a3c565b5061051b610a80565b506000805460ff19166001179055565b6000610538848484610b51565b6001600160a01b038416600090815260056020908152604080832033845290915290205482811015610587576040516310c6013560e31b81526004810182905260248101849052604401610479565b61059485338584036108bb565b60019150505b9392505050565b60035460009080156105bf576006546105ba9082610c74565b6105c9565b670de0b6b3a76400005b91505090565b6000805460ff166105f3576040516306fda65d60e31b815260040160405180910390fd5b6000805460ff1916905561060f6106086105a1565b8490610c74565b9050600081116106325760405163f1ca48b160e01b815260040160405180910390fd5b6106677f00000000000000000000000000000000000000000000000000000000000000006001600160a01b0316333086610c89565b6106718282610cd7565b60408051848152602081018390526001600160a01b0384169133917fdcbc1c05240f31ff3ad067ef1ee35ce4997762752e3a095284754544f4c709d7910160405180910390a36106bf610a80565b6000805460ff1916600117905592915050565b6002805461032a906111b9565b60006103b8338484610b51565b6000805460ff16610710576040516306fda65d60e31b815260040160405180910390fd5b6000805460ff19169055336001600160a01b03831614610788576001600160a01b038216600090815260056020908152604080832033845290915290205460001981146107865761076185826111a2565b6001600160a01b03841660009081526005602090815260408083203384529091529020555b505b61079a6107936105a1565b8590610d8a565b9050600081116107bd5760405163e3e8d29760e01b815260040160405180910390fd5b6006548111156107ee576006546040516339eff09f60e11b8152610479918391600401918252602082015260400190565b6107f88285610d96565b61082c6001600160a01b037f0000000000000000000000000000000000000000000000000000000000000000168483610a3c565b816001600160a01b0316836001600160a01b03166108473390565b6001600160a01b03167ffbde797d201c681b91056529119e0b02407c7bb96a4a2c75c01fc9667232c8db848860405161088a929190918252602082015260400190565b60405180910390a461089a610a80565b6000805460ff191660011790559392505050565b6007805461032a906111b9565b6001600160a01b0383166108e2576040516317ba2d8b60e11b815260040160405180910390fd5b6001600160a01b03821661090957604051632cc8a69760e11b815260040160405180910390fd5b6001600160a01b0383811660008181526005602090815260408083209487168084529482529182902085905590518481527f8c5be1e5ebec7d5bd14f71427d1e84f3dd0314c0f7b2291e5b200ac8c7c3b925910160405180910390a3505050565b60007f00000000000000000000000000000000000000000000000000000000000000006001600160a01b031663f851a4406040518163ffffffff1660e01b815260040160206040518083038186803b1580156109c557600080fd5b505afa1580156109d9573d6000803e3d6000fd5b505050506040513d601f19601f820116820180604052508101906109fd9190610ffb565b9050336001600160a01b03821614610a3957604051633e7c764160e21b81523360048201526001600160a01b0382166024820152604401610479565b50565b60405163a9059cbb6000528260205281604052602060006044601c6000885af13d156001600051141716610a78576390b8ec186000526004601cfd5b604052505050565b6040516370a0823160e01b81523060048201527f00000000000000000000000000000000000000000000000000000000000000006001600160a01b0316906370a082319060240160206040518083038186803b158015610adf57600080fd5b505afa158015610af3573d6000803e3d6000fd5b505050506040513d601f19601f82011682018060405250810190610b1791906110ba565b60068190556040519081527f8a0df8ef054fae2c3d2d19a7b322e864870cc9fd3cb07fb9526309c596244bf49060200160405180910390a1565b6001600160a01b038316610b785760405163618a6e7d60e11b815260040160405180910390fd5b6001600160a01b038216610b9f5760405163446ebce960e01b815260040160405180910390fd5b6001600160a01b03831660009081526004602052604090205481811015610be35760405163355a868d60e01b81526004810182905260248101839052604401610479565b6001600160a01b03808516600090815260046020526040808220858503905591851681529081208054849290610c1a90849061118a565b92505081905550826001600160a01b0316846001600160a01b03167fddf252ad1be2c89b69c2b068fc378daa952ba7f163c4a11628f55a4df523b3ef84604051610c6691815260200190565b60405180910390a350505050565b600061059a83670de0b6b3a764000084610e41565b6040516323b872dd600052836020528260405281606052602060006064601c6000895af13d156001600051141716610cc957637939f4246000526004601cfd5b600060605260405250505050565b6001600160a01b038216610cfe5760405163237813dd60e01b815260040160405180910390fd5b6001600160a01b03821660009081526004602052604081208054839290610d2690849061118a565b925050819055508060036000828254610d3f919061118a565b90915550506040518181526001600160a01b038316906000907fddf252ad1be2c89b69c2b068fc378daa952ba7f163c4a11628f55a4df523b3ef906020015b60405180910390a35050565b600061059a8383610f1d565b6001600160a01b038216610dbd57604051630b5da42b60e01b815260040160405180910390fd5b6001600160a01b03821660009081526004602052604081208054839290610de59084906111a2565b925050819055508060036000828254610dfe91906111a2565b90915550506040518181526000906001600160a01b038416907fddf252ad1be2c89b69c2b068fc378daa952ba7f163c4a11628f55a4df523b3ef90602001610d7e565b600080806000198587098587029250828110838203039150508060001415610e8a57838281610e8057634e487b7160e01b600052601260045260246000fd5b049250505061059a565b838110610eb457604051631dcf306360e21b81526004810182905260248101859052604401610479565b60008486880960026001871981018816978890046003810283188082028403028082028403028082028403028082028403028082028403029081029092039091026000889003889004909101858311909403939093029303949094049190911702949350505050565b60008080600019848609848602925082811083820303915050670de0b6b3a76400008110610f615760405163698d9a0160e11b815260048101829052602401610479565b600080670de0b6b3a76400008688099150506706f05b59d3b1ffff811182610f9b5780670de0b6b3a76400008504019450505050506103bc565b620400008285030493909111909103600160ee1b02919091177faccb18165bd6fe31ae1cf318dc5b51eee0e1ba569b88cd74c1773b91fac106690201905092915050565b600060208284031215610ff0578081fd5b813561059a8161120a565b60006020828403121561100c578081fd5b815161059a8161120a565b60008060408385031215611029578081fd5b82356110348161120a565b915060208301356110448161120a565b809150509250929050565b600080600060608486031215611063578081fd5b833561106e8161120a565b9250602084013561107e8161120a565b929592945050506040919091013590565b600080604083850312156110a1578182fd5b82356110ac8161120a565b946020939093013593505050565b6000602082840312156110cb578081fd5b5051919050565b600080604083850312156110e4578182fd5b8235915060208301356110448161120a565b60008060006060848603121561110a578283fd5b83359250602084013561111c8161120a565b9150604084013561112c8161120a565b809150509250925092565b6000602080835283518082850152825b8181101561116357858101830151858201604001528201611147565b818111156111745783604083870101525b50601f01601f1916929092016040019392505050565b6000821982111561119d5761119d6111f4565b500190565b6000828210156111b4576111b46111f4565b500390565b600181811c908216806111cd57607f821691505b602082108114156111ee57634e487b7160e01b600052602260045260246000fd5b50919050565b634e487b7160e01b600052601160045260246000fd5b6001600160a01b0381168114610a3957600080fdfea264697066735822122025c1df769cdf31ea3511a093bb880d71906229d3cef97b1c19536bf87b42e78a64736f6c63430008040033",
  "linkReferences": {},
  "deployedLinkReferences": {}
}