{
  "_format": "hh-sol-artifact-1",
  "contractName": "CygnusTerminal",
  "sourceName": "contracts/cygnus-core/CygnusTerminal.sol",
  "abi": [
    {
      "inputs": [],
      "stateMutability": "nonpayable",
      "type": "constructor"
    },
    {
      "inputs": [],
      "name": "CygnusTerminal__CantMintZeroShares",
      "type": "error"
    },
    {
      "inputs": [],
      "name": "CygnusTerminal__CantRedeemZeroAssets",
      "type": "error"
    },
    {
      "inputs": [],
      "name": "CygnusTerminal__CantSweepUnderlying",
      "type": "error"
    },
    {
      "inputs": [],
      "name": "CygnusTerminal__MsgSenderNotAdmin",
      "type": "error"
    },
    {
      "inputs": [
        {
          "internalType": "address",
          "name": "owner",
          "type": "address"
        },
        {
          "internalType": "uint8",
          "name": "v",
          "type": "uint8"
        },
        {
          "internalType": "bytes32",
          "name": "r",
          "type": "bytes32"
        },
        {
          "internalType": "bytes32",
          "name": "s",
          "type": "bytes32"
        }
      ],
      "name": "ERC20Permit_InvalidSignature",
      "type": "error"
    },
    {
      "inputs": [],
      "name": "ERC20Permit_OwnerZeroAddress",
      "type": "error"
    },
    {
      "inputs": [
        {
          "internalType": "uint256",
          "name": "currentTime",
          "type": "uint256"
        },
        {
          "internalType": "uint256",
          "name": "deadline",
          "type": "uint256"
        }
      ],
      "name": "ERC20Permit_PermitExpired",
      "type": "error"
    },
    {
      "inputs": [],
      "name": "ERC20Permit_RecoveredOwnerZeroAddress",
      "type": "error"
    },
    {
      "inputs": [],
      "name": "ERC20Permit_SpenderZeroAddress",
      "type": "error"
    },
    {
      "inputs": [],
      "name": "ERC20_ApproveOwnerZeroAddress",
      "type": "error"
    },
    {
      "inputs": [],
      "name": "ERC20_ApproveSpenderZeroAddress",
      "type": "error"
    },
    {
      "inputs": [],
      "name": "ERC20_BurnHolderZeroAddress",
      "type": "error"
    },
    {
      "inputs": [
        {
          "internalType": "uint256",
          "name": "senderBalance",
          "type": "uint256"
        },
        {
          "internalType": "uint256",
          "name": "transferAmount",
          "type": "uint256"
        }
      ],
      "name": "ERC20_FromInsufficientBalance",
      "type": "error"
    },
    {
      "inputs": [
        {
          "internalType": "address",
          "name": "owner",
          "type": "address"
        },
        {
          "internalType": "address",
          "name": "spender",
          "type": "address"
        },
        {
          "internalType": "uint256",
          "name": "allowance",
          "type": "uint256"
        },
        {
          "internalType": "uint256",
          "name": "transferAmount",
          "type": "uint256"
        }
      ],
      "name": "ERC20_InsufficientAllowance",
      "type": "error"
    },
    {
      "inputs": [],
      "name": "ERC20_MintBeneficiaryZeroAddress",
      "type": "error"
    },
    {
      "inputs": [],
      "name": "ERC20_TransferFromZeroAddress",
      "type": "error"
    },
    {
      "inputs": [],
      "name": "ERC20_TransferToZeroAddress",
      "type": "error"
    },
    {
      "inputs": [],
      "name": "ReentrantCall",
      "type": "error"
    },
    {
      "anonymous": false,
      "inputs": [
        {
          "indexed": true,
          "internalType": "address",
          "name": "owner",
          "type": "address"
        },
        {
          "indexed": true,
          "internalType": "address",
          "name": "spender",
          "type": "address"
        },
        {
          "indexed": false,
          "internalType": "uint256",
          "name": "value",
          "type": "uint256"
        }
      ],
      "name": "Approval",
      "type": "event"
    },
    {
      "anonymous": false,
      "inputs": [
        {
          "indexed": true,
          "internalType": "address",
          "name": "sender",
          "type": "address"
        },
        {
          "indexed": true,
          "internalType": "address",
          "name": "recipient",
          "type": "address"
        },
        {
          "indexed": false,
          "internalType": "uint256",
          "name": "assets",
          "type": "uint256"
        },
        {
          "indexed": false,
          "internalType": "uint256",
          "name": "shares",
          "type": "uint256"
        }
      ],
      "name": "Deposit",
      "type": "event"
    },
    {
      "anonymous": false,
      "inputs": [
        {
          "indexed": false,
          "internalType": "uint160",
          "name": "totalBalance",
          "type": "uint160"
        }
      ],
      "name": "Sync",
      "type": "event"
    },
    {
      "anonymous": false,
      "inputs": [
        {
          "indexed": true,
          "internalType": "address",
          "name": "from",
          "type": "address"
        },
        {
          "indexed": true,
          "internalType": "address",
          "name": "to",
          "type": "address"
        },
        {
          "indexed": false,
          "internalType": "uint256",
          "name": "amount",
          "type": "uint256"
        }
      ],
      "name": "Transfer",
      "type": "event"
    },
    {
      "anonymous": false,
      "inputs": [
        {
          "indexed": true,
          "internalType": "address",
          "name": "sender",
          "type": "address"
        },
        {
          "indexed": true,
          "internalType": "address",
          "name": "recipient",
          "type": "address"
        },
        {
          "indexed": true,
          "internalType": "address",
          "name": "owner",
          "type": "address"
        },
        {
          "indexed": false,
          "internalType": "uint256",
          "name": "assets",
          "type": "uint256"
        },
        {
          "indexed": false,
          "internalType": "uint256",
          "name": "shares",
          "type": "uint256"
        }
      ],
      "name": "Withdraw",
      "type": "event"
    },
    {
      "inputs": [],
      "name": "DOMAIN_SEPARATOR",
      "outputs": [
        {
          "internalType": "bytes32",
          "name": "",
          "type": "bytes32"
        }
      ],
      "stateMutability": "view",
      "type": "function"
    },
    {
      "inputs": [],
      "name": "PERMIT2",
      "outputs": [
        {
          "internalType": "contract IAllowanceTransfer",
          "name": "",
          "type": "address"
        }
      ],
      "stateMutability": "view",
      "type": "function"
    },
    {
      "inputs": [],
      "name": "PERMIT_TYPEHASH",
      "outputs": [
        {
          "internalType": "bytes32",
          "name": "",
          "type": "bytes32"
        }
      ],
      "stateMutability": "view",
      "type": "function"
    },
    {
      "inputs": [
        {
          "internalType": "address",
          "name": "owner",
          "type": "address"
        },
        {
          "internalType": "address",
          "name": "spender",
          "type": "address"
        }
      ],
      "name": "allowance",
      "outputs": [
        {
          "internalType": "uint256",
          "name": "",
          "type": "uint256"
        }
      ],
      "stateMutability": "view",
      "type": "function"
    },
    {
      "inputs": [
        {
          "internalType": "address",
          "name": "spender",
          "type": "address"
        },
        {
          "internalType": "uint256",
          "name": "value",
          "type": "uint256"
        }
      ],
      "name": "approve",
      "outputs": [
        {
          "internalType": "bool",
          "name": "",
          "type": "bool"
        }
      ],
      "stateMutability": "nonpayable",
      "type": "function"
    },
    {
      "inputs": [
        {
          "internalType": "address",
          "name": "account",
          "type": "address"
        }
      ],
      "name": "balanceOf",
      "outputs": [
        {
          "internalType": "uint256",
          "name": "",
          "type": "uint256"
        }
      ],
      "stateMutability": "view",
      "type": "function"
    },
    {
      "inputs": [],
      "name": "cygnusNebulaOracle",
      "outputs": [
        {
          "internalType": "contract ICygnusNebulaOracle",
          "name": "",
          "type": "address"
        }
      ],
      "stateMutability": "view",
      "type": "function"
    },
    {
      "inputs": [],
      "name": "decimals",
      "outputs": [
        {
          "internalType": "uint8",
          "name": "",
          "type": "uint8"
        }
      ],
      "stateMutability": "view",
      "type": "function"
    },
    {
      "inputs": [
        {
          "internalType": "address",
          "name": "spender",
          "type": "address"
        },
        {
          "internalType": "uint256",
          "name": "value",
          "type": "uint256"
        }
      ],
      "name": "decreaseAllowance",
      "outputs": [
        {
          "internalType": "bool",
          "name": "",
          "type": "bool"
        }
      ],
      "stateMutability": "nonpayable",
      "type": "function"
    },
    {
      "inputs": [
        {
          "internalType": "uint256",
          "name": "assets",
          "type": "uint256"
        },
        {
          "internalType": "address",
          "name": "recipient",
          "type": "address"
        },
        {
          "components": [
            {
              "components": [
                {
                  "internalType": "address",
                  "name": "token",
                  "type": "address"
                },
                {
                  "internalType": "uint160",
                  "name": "amount",
                  "type": "uint160"
                },
                {
                  "internalType": "uint48",
                  "name": "expiration",
                  "type": "uint48"
                },
                {
                  "internalType": "uint48",
                  "name": "nonce",
                  "type": "uint48"
                }
              ],
              "internalType": "struct IAllowanceTransfer.PermitDetails",
              "name": "details",
              "type": "tuple"
            },
            {
              "internalType": "address",
              "name": "spender",
              "type": "address"
            },
            {
              "internalType": "uint256",
              "name": "sigDeadline",
              "type": "uint256"
            }
          ],
          "internalType": "struct IAllowanceTransfer.PermitSingle",
          "name": "_permit",
          "type": "tuple"
        },
        {
          "internalType": "bytes",
          "name": "signature",
          "type": "bytes"
        }
      ],
      "name": "deposit",
      "outputs": [
        {
          "internalType": "uint256",
          "name": "shares",
          "type": "uint256"
        }
      ],
      "stateMutability": "nonpayable",
      "type": "function"
    },
    {
      "inputs": [],
      "name": "exchangeRate",
      "outputs": [
        {
          "internalType": "uint256",
          "name": "",
          "type": "uint256"
        }
      ],
      "stateMutability": "nonpayable",
      "type": "function"
    },
    {
      "inputs": [],
      "name": "hangar18",
      "outputs": [
        {
          "internalType": "contract IHangar18",
          "name": "",
          "type": "address"
        }
      ],
      "stateMutability": "view",
      "type": "function"
    },
    {
      "inputs": [
        {
          "internalType": "address",
          "name": "spender",
          "type": "address"
        },
        {
          "internalType": "uint256",
          "name": "value",
          "type": "uint256"
        }
      ],
      "name": "increaseAllowance",
      "outputs": [
        {
          "internalType": "bool",
          "name": "",
          "type": "bool"
        }
      ],
      "stateMutability": "nonpayable",
      "type": "function"
    },
    {
      "inputs": [],
      "name": "name",
      "outputs": [
        {
          "internalType": "string",
          "name": "",
          "type": "string"
        }
      ],
      "stateMutability": "view",
      "type": "function"
    },
    {
      "inputs": [
        {
          "internalType": "address",
          "name": "",
          "type": "address"
        }
      ],
      "name": "nonces",
      "outputs": [
        {
          "internalType": "uint256",
          "name": "",
          "type": "uint256"
        }
      ],
      "stateMutability": "view",
      "type": "function"
    },
    {
      "inputs": [
        {
          "internalType": "address",
          "name": "owner",
          "type": "address"
        },
        {
          "internalType": "address",
          "name": "spender",
          "type": "address"
        },
        {
          "internalType": "uint256",
          "name": "value",
          "type": "uint256"
        },
        {
          "internalType": "uint256",
          "name": "deadline",
          "type": "uint256"
        },
        {
          "internalType": "uint8",
          "name": "v",
          "type": "uint8"
        },
        {
          "internalType": "bytes32",
          "name": "r",
          "type": "bytes32"
        },
        {
          "internalType": "bytes32",
          "name": "s",
          "type": "bytes32"
        }
      ],
      "name": "permit",
      "outputs": [],
      "stateMutability": "nonpayable",
      "type": "function"
    },
    {
      "inputs": [
        {
          "internalType": "uint256",
          "name": "shares",
          "type": "uint256"
        },
        {
          "internalType": "address",
          "name": "recipient",
          "type": "address"
        },
        {
          "internalType": "address",
          "name": "owner",
          "type": "address"
        }
      ],
      "name": "redeem",
      "outputs": [
        {
          "internalType": "uint256",
          "name": "assets",
          "type": "uint256"
        }
      ],
      "stateMutability": "nonpayable",
      "type": "function"
    },
    {
      "inputs": [],
      "name": "shuttleId",
      "outputs": [
        {
          "internalType": "uint256",
          "name": "",
          "type": "uint256"
        }
      ],
      "stateMutability": "view",
      "type": "function"
    },
    {
      "inputs": [
        {
          "internalType": "address",
          "name": "token",
          "type": "address"
        }
      ],
      "name": "sweepToken",
      "outputs": [],
      "stateMutability": "nonpayable",
      "type": "function"
    },
    {
      "inputs": [],
      "name": "symbol",
      "outputs": [
        {
          "internalType": "string",
          "name": "",
          "type": "string"
        }
      ],
      "stateMutability": "view",
      "type": "function"
    },
    {
      "inputs": [],
      "name": "totalBalance",
      "outputs": [
        {
          "internalType": "uint160",
          "name": "",
          "type": "uint160"
        }
      ],
      "stateMutability": "view",
      "type": "function"
    },
    {
      "inputs": [],
      "name": "totalSupply",
      "outputs": [
        {
          "internalType": "uint256",
          "name": "",
          "type": "uint256"
        }
      ],
      "stateMutability": "view",
      "type": "function"
    },
    {
      "inputs": [
        {
          "internalType": "address",
          "name": "to",
          "type": "address"
        },
        {
          "internalType": "uint256",
          "name": "amount",
          "type": "uint256"
        }
      ],
      "name": "transfer",
      "outputs": [
        {
          "internalType": "bool",
          "name": "",
          "type": "bool"
        }
      ],
      "stateMutability": "nonpayable",
      "type": "function"
    },
    {
      "inputs": [
        {
          "internalType": "address",
          "name": "from",
          "type": "address"
        },
        {
          "internalType": "address",
          "name": "to",
          "type": "address"
        },
        {
          "internalType": "uint256",
          "name": "amount",
          "type": "uint256"
        }
      ],
      "name": "transferFrom",
      "outputs": [
        {
          "internalType": "bool",
          "name": "",
          "type": "bool"
        }
      ],
      "stateMutability": "nonpayable",
      "type": "function"
    },
    {
      "inputs": [],
      "name": "underlying",
      "outputs": [
        {
          "internalType": "address",
          "name": "",
          "type": "address"
        }
      ],
      "stateMutability": "view",
      "type": "function"
    },
    {
      "inputs": [],
      "name": "version",
      "outputs": [
        {
          "internalType": "string",
          "name": "",
          "type": "string"
        }
      ],
      "stateMutability": "view",
      "type": "function"
    }
  ],
  "bytecode": "0x610120604081815234620002c55760009081549160019383851c858516928315620002ba575b6020958683108514620002a65782845286840194849291889082156200028957505060011462000245575b6200005e92500382620002ca565b519020815190936001600160401b0391808401838111828210176200022f5782918691865282815201603160f81b8152208351948501957f8b73c3c69bb8fe3d512ecc4cf759cc79239f7b179b0ffacaa9a75d522b39400f875284860152606085015246608085015260a094308686015285855260c0850192858410908411176200022f578284528451902060805260ff196007541617600755635a412e5360e01b815283816004816000335af1928315620002245760009182918391849662000195575b505061010094855260c05260e05283525190611e6592836200030484396080518381816103d7015261137801525182818161018c01526115b9015260c05182610279015260e05182818161070601528181610bb101528181611117015281816115f70152611ac4015251816111b90152f35b9250809550868092503d83116200021c575b620001b38185620002ca565b81010312620002185751926001600160a01b039081851685036200021457620001df60e08201620002ee565b92620001ef6101008301620002ee565b5061012082015192831683036200021157506101400151939190388062000123565b80fd5b8280fd5b5080fd5b503d620001a7565b82513d6000823e3d90fd5b634e487b7160e01b600052604160045260246000fd5b505060008052818580600020886000915b8583106200026f5750506200005e935082010162000050565b809192945054838588010152019101869088859362000256565b60ff191687526200005e94151560051b8401019150620000509050565b634e487b7160e01b82526022600452602482fd5b90607f169062000025565b600080fd5b601f909101601f19168101906001600160401b038211908210176200022f57604052565b51906001600160a01b0382168203620002c55756fe608060408181526004918236101561001657600080fd5b600092833560e01c91826306fdde031461178357508163095ea7b31461173b57816318160ddd146116fe5781631be195601461150857816323b872dd1461143457816330adf81f146113db578163313ce5671461139b5781633644e5151461134257816339509351146112d05781633ba0b9a91461128e57816354fd4d50146111dc5781635f77f891146111835781636afdd8501461113b5781636f307dc3146110cc57816370a082311461106a5781637ecebe00146110085781638808e71c14610ad857816395d89b411461097e578163a457c2d714610904578163a9059cbb146108b5578163ad7a672f1461085f578163ba087652146105c4578163d505accf1461029d578163d935bd921461022e578163dd62ed3e146101b4575063e8a24e1d1461014357600080fd5b346101b057817ffffffffffffffffffffffffffffffffffffffffffffffffffffffffffffffffc3601126101b0576020905173ffffffffffffffffffffffffffffffffffffffff7f0000000000000000000000000000000000000000000000000000000000000000168152f35b5080fd5b90503461022a57817ffffffffffffffffffffffffffffffffffffffffffffffffffffffffffffffffc36011261022a57602092826101f06119b1565b916101f96119d9565b9373ffffffffffffffffffffffffffffffffffffffff80941682528652209116600052825280600020549051908152f35b8280fd5b5050346101b057817ffffffffffffffffffffffffffffffffffffffffffffffffffffffffffffffffc3601126101b0576020905173ffffffffffffffffffffffffffffffffffffffff7f0000000000000000000000000000000000000000000000000000000000000000168152f35b8383346101b05760e07ffffffffffffffffffffffffffffffffffffffffffffffffffffffffffffffffc3601126101b0576102d66119b1565b906102df6119d9565b906044356064359160843560ff81168091036105c05760a43560c4359173ffffffffffffffffffffffffffffffffffffffff8098169687156105985788169788156105705742871061053a57878a5260209660068852858b2090815491600183019055865190898201927f6e71edae12b1b97f4d1f60370fef10105fa2faae0126114a169c64845d6126c984528b898401528c606084015289608084015260a083015260c082015260c0815260e0810167ffffffffffffffff928282108483111761050c5781895282519020906101008301917f190100000000000000000000000000000000000000000000000000000000000083527f0000000000000000000000000000000000000000000000000000000000000000610102850152610122840152604281526101608301938185109085111761050c5792876101c08f946080948e97858e52519020845288610180820152896101a0820152015282805260015afa156105025789511680156104da57870361049a575050508596847f8c5be1e5ebec7d5bd14f71427d1e84f3dd0314c0f7b2291e5b200ac8c7c3b92595969752835280872086600052835281816000205551908152a380f35b60849450868a9451947f3460790b000000000000000000000000000000000000000000000000000000008652850152602484015260448301526064820152fd5b8a85517fd147d0e3000000000000000000000000000000000000000000000000000000008152fd5b84513d8b823e3d90fd5b60418f7f4e487b71000000000000000000000000000000000000000000000000000000006000525260246000fd5b60448b888751917f3288645900000000000000000000000000000000000000000000000000000000835242908301526024820152fd5b8a85517f7b4813dd000000000000000000000000000000000000000000000000000000008152fd5b8a85517f6f5b87d2000000000000000000000000000000000000000000000000000000008152fd5b8680fd5b9190503461022a5760607ffffffffffffffffffffffffffffffffffffffffffffffffffffffffffffffffc36011261022a578135926106016119d9565b9361060a6119fc565b6007549560ff871615610837577fffffffffffffffffffffffffffffffffffffffffffffffffffffffffffffff0080971660075573ffffffffffffffffffffffffffffffffffffffff809216938433036107cb575b610667611a1f565b807fffffffffffffffffffffffffffffffffffffffffffffffffffffffffffffffff04851181026107bf57670de0b6b3a76400009085020496871561079857851561077157509160209793918386600197955260058a528781206106cc858254611a5c565b90558360035403600355847fddf252ad1be2c89b69c2b068fc378daa952ba7f163c4a11628f55a4df523b3ef8b8a51878152a361072a88827f0000000000000000000000000000000000000000000000000000000000000000611db7565b8651928884528984015216907ffbde797d201c681b91056529119e0b02407c7bb96a4a2c75c01fc9667232c8db863392a4610763611a98565b600754161760075551908152f35b86517f3eedce07000000000000000000000000000000000000000000000000000000008152fd5b86517fe3e8d297000000000000000000000000000000000000000000000000000000008152fd5b8763bac65e5b8352601cfd5b84815286602052858120336000526020528560002054847fffffffffffffffffffffffffffffffffffffffffffffffffffffffffffffffff8203610811575b505061065f565b61081a91611a5c565b85825287602052868220336000526020528660002055388461080a565b8585517f37ed32e8000000000000000000000000000000000000000000000000000000008152fd5b5050346101b057817ffffffffffffffffffffffffffffffffffffffffffffffffffffffffffffffffc3601126101b05760209073ffffffffffffffffffffffffffffffffffffffff60075460081c169051908152f35b5050346101b057807ffffffffffffffffffffffffffffffffffffffffffffffffffffffffffffffffc3601126101b0576020906108fd6108f36119b1565b6024359033611c20565b5160018152f35b90503461022a57817ffffffffffffffffffffffffffffffffffffffffffffffffffffffffffffffffc36011261022a576108fd90826020946109446119b1565b9233825286522073ffffffffffffffffffffffffffffffffffffffff821660005284526109776024358460002054611a5c565b9033611b5e565b828434610ad557807ffffffffffffffffffffffffffffffffffffffffffffffffffffffffffffffffc360112610ad55750805190600092600180549081811c918181168015610acb575b6020948585108214610a9f5750838752908115610a615750600114610a08575b5050506109fa82610a0494038361190a565b519182918261194b565b0390f35b60008181529295507fb10e2d527612073b26eecdfd717e6a320cf44b4afac2b0732d9fcbe2b7fa0cf65b828410610a4e5750505082610a04946109fa92820101946109e8565b8054868501880152928601928101610a32565b7fffffffffffffffffffffffffffffffffffffffffffffffffffffffffffffff0016868501525050151560051b83010192506109fa82610a046109e8565b8860226024927f4e487b7100000000000000000000000000000000000000000000000000000000835252fd5b92607f16926109c8565b80fd5b8383346101b0576101207ffffffffffffffffffffffffffffffffffffffffffffffffffffffffffffffffc3601126101b057823592610b156119d9565b9360c07fffffffffffffffffffffffffffffffffffffffffffffffffffffffffffffffbc360112610e91576101049467ffffffffffffffff9086358281116105c057366023820112156105c057808501359283116105c05760249636888584010111610ad5576007549860ff8a1615610fe0577fffffffffffffffffffffffffffffffffffffffffffffffffffffffffffffff00809a166007557f000000000000000000000000000000000000000000000000000000000000000094610bdb3087611e00565b9381610e95575b50505090610bef85611d73565b936e22d473030f116ddee9f6b43ac78ba3803b15610e9157838a60848a838d5195869485937f36c785160000000000000000000000000000000000000000000000000000000085523390850152309084015273ffffffffffffffffffffffffffffffffffffffff809c1660448401528b881660648401525af18015610e8757908491610e73575b5050610c9d91610c8a610c8f923090611e00565b611a5c565b610c97611a1f565b90611d30565b968715610e4b57600354918215610d6c575b50505016918215610d45575093600191602095610cce86600354611b51565b6003558160005260058752846000208681540190558160007fddf252ad1be2c89b69c2b068fc378daa952ba7f163c4a11628f55a4df523b3ef8988518a8152a3845190815285878201527fdcbc1c05240f31ff3ad067ef1ee35ce4997762752e3a095284754544f4c709d7853392a3610763611a98565b83517fdf3dc1c9000000000000000000000000000000000000000000000000000000008152fd5b7ffffffffffffffffffffffffffffffffffffffffffffffffffffffffffffffc188992939901918211610e205750966103e891828201809211610df4575060035560007fddf252ad1be2c89b69c2b068fc378daa952ba7f163c4a11628f55a4df523b3ef602061dead93848452600582528984208181540190558951908152a3878080610caf565b6011877f4e487b7100000000000000000000000000000000000000000000000000000000600052526000fd5b90506011867f4e487b7100000000000000000000000000000000000000000000000000000000835252fd5b8587517ff1ca48b1000000000000000000000000000000000000000000000000000000008152fd5b610e7c906118c7565b61022a57828b610c76565b89513d86823e3d90fd5b8380fd5b6e22d473030f116ddee9f6b43ac78ba391823b15610fdc578a51937f2b67b570000000000000000000000000000000000000000000000000000000008552338b86015273ffffffffffffffffffffffffffffffffffffffff8d81610ef76119fc565b1690870152606435818116809103610fd457604487015260843565ffffffffffff90818116809103610fd857606488015260a435908116809103610fd457608487015260c4359081168091036105c0578593848f601f86807fffffffffffffffffffffffffffffffffffffffffffffffffffffffffffffffe0938d9b9986998d9960a489015260e43560c489015261010060e489015287015261012496018686013785858286010152011681010301925af18015610fca57610fbb575b8080610be2565b610fc4906118c7565b89610fb4565b88513d84823e3d90fd5b8780fd5b8880fd5b8480fd5b8688517f37ed32e8000000000000000000000000000000000000000000000000000000008152fd5b5050346101b05760207ffffffffffffffffffffffffffffffffffffffffffffffffffffffffffffffffc3601126101b0578060209273ffffffffffffffffffffffffffffffffffffffff61105a6119b1565b1681526006845220549051908152f35b5050346101b05760207ffffffffffffffffffffffffffffffffffffffffffffffffffffffffffffffffc3601126101b0578060209273ffffffffffffffffffffffffffffffffffffffff6110bc6119b1565b1681526005845220549051908152f35b5050346101b057817ffffffffffffffffffffffffffffffffffffffffffffffffffffffffffffffffc3601126101b0576020905173ffffffffffffffffffffffffffffffffffffffff7f0000000000000000000000000000000000000000000000000000000000000000168152f35b5050346101b057817ffffffffffffffffffffffffffffffffffffffffffffffffffffffffffffffffc3601126101b057602090516e22d473030f116ddee9f6b43ac78ba38152f35b5050346101b057817ffffffffffffffffffffffffffffffffffffffffffffffffffffffffffffffffc3601126101b057602090517f00000000000000000000000000000000000000000000000000000000000000008152f35b8383346101b057817ffffffffffffffffffffffffffffffffffffffffffffffffffffffffffffffffc3601126101b0578051918183019083821067ffffffffffffffff8311176112625750610a0493508152600182527f31000000000000000000000000000000000000000000000000000000000000006020830152519182918261194b565b806041867f4e487b71000000000000000000000000000000000000000000000000000000006024945252fd5b5050346101b057817ffffffffffffffffffffffffffffffffffffffffffffffffffffffffffffffffc3601126101b0576020906112c9611a1f565b9051908152f35b90503461022a57817ffffffffffffffffffffffffffffffffffffffffffffffffffffffffffffffffc36011261022a576108fd906109776020946113126119b1565b92338252865284812073ffffffffffffffffffffffffffffffffffffffff84168252865284602435912054611b51565b5050346101b057817ffffffffffffffffffffffffffffffffffffffffffffffffffffffffffffffffc3601126101b057602090517f00000000000000000000000000000000000000000000000000000000000000008152f35b5050346101b057817ffffffffffffffffffffffffffffffffffffffffffffffffffffffffffffffffc3601126101b05760209060ff600254169051908152f35b5050346101b057817ffffffffffffffffffffffffffffffffffffffffffffffffffffffffffffffffc3601126101b057602090517f6e71edae12b1b97f4d1f60370fef10105fa2faae0126114a169c64845d6126c98152f35b90503461022a5760607ffffffffffffffffffffffffffffffffffffffffffffffffffffffffffffffffc36011261022a5761146d6119b1565b6114756119d9565b93604435928473ffffffffffffffffffffffffffffffffffffffff841692838152826020528181203382526020522054918483106114c8576020866108fd878a886114c3838a033383611b5e565b611c20565b60849285918751937fc92e267600000000000000000000000000000000000000000000000000000000855284015233602484015260448301526064820152fd5b90503461022a5760207ffffffffffffffffffffffffffffffffffffffffffffffffffffffffffffffffc36011261022a576115416119b1565b906007549260ff8416156116d8577fffffffffffffffffffffffffffffffffffffffffffffffffffffffffffffff0080941660075580517ff851a44000000000000000000000000000000000000000000000000000000000815273ffffffffffffffffffffffffffffffffffffffff906020818581857f0000000000000000000000000000000000000000000000000000000000000000165afa9081156116ce579082918891611691575b5016330361166a57807f000000000000000000000000000000000000000000000000000000000000000016908416146116445784600185611639866116313082611e00565b903390611db7565b600754161760075580f35b517fb5d8f391000000000000000000000000000000000000000000000000000000008152fd5b50517f63ac75a2000000000000000000000000000000000000000000000000000000008152fd5b9150506020813d82116116c6575b816116ac6020938361190a565b810103126105c0575181811681036105c0578190386115ec565b3d915061169f565b83513d89823e3d90fd5b517f37ed32e8000000000000000000000000000000000000000000000000000000008152fd5b5050346101b057817ffffffffffffffffffffffffffffffffffffffffffffffffffffffffffffffffc3601126101b0576020906003549051908152f35b5050346101b057807ffffffffffffffffffffffffffffffffffffffffffffffffffffffffffffffffc3601126101b0576020906108fd6117796119b1565b6024359033611b5e565b92915034610e9157837ffffffffffffffffffffffffffffffffffffffffffffffffffffffffffffffffc360112610e91578354600181811c91869082811680156118bd575b6020958686108214611891575084885290811561185157506001146117f9575b610a0486866109fa828b038361190a565b8080949750527f290decd9548b62a8d60345a988386fc84ba6bc95484008f6362f93160ef3e5635b82841061183e5750505082610a04946109fa9282010194386117e8565b8054868501880152928601928101611821565b7fffffffffffffffffffffffffffffffffffffffffffffffffffffffffffffff001687860152505050151560051b83010192506109fa82610a04386117e8565b8360226024927f4e487b7100000000000000000000000000000000000000000000000000000000835252fd5b93607f16936117c8565b67ffffffffffffffff81116118db57604052565b7f4e487b7100000000000000000000000000000000000000000000000000000000600052604160045260246000fd5b90601f7fffffffffffffffffffffffffffffffffffffffffffffffffffffffffffffffe0910116810190811067ffffffffffffffff8211176118db57604052565b60208082528251818301819052939260005b85811061199d575050507fffffffffffffffffffffffffffffffffffffffffffffffffffffffffffffffe0601f8460006040809697860101520116010190565b81810183015184820160400152820161195d565b6004359073ffffffffffffffffffffffffffffffffffffffff821682036119d457565b600080fd5b6024359073ffffffffffffffffffffffffffffffffffffffff821682036119d457565b6044359073ffffffffffffffffffffffffffffffffffffffff821682036119d457565b60035480611a345750670de0b6b3a764000090565b611a599073ffffffffffffffffffffffffffffffffffffffff60075460081c16611d30565b90565b91908203918211611a6957565b7f4e487b7100000000000000000000000000000000000000000000000000000000600052601160045260246000fd5b7f3145c2b643834867f2c0a8cac8a48218307687911615c0ed01412a09dd163b666020611aed611ae8307f0000000000000000000000000000000000000000000000000000000000000000611e00565b611d73565b6007547fffffffffffffffffffffff0000000000000000000000000000000000000000ff74ffffffffffffffffffffffffffffffffffffffff008360081b1691161760075573ffffffffffffffffffffffffffffffffffffffff60405191168152a1565b91908201809211611a6957565b73ffffffffffffffffffffffffffffffffffffffff809116918215611bf65716918215611bcc5760207f8c5be1e5ebec7d5bd14f71427d1e84f3dd0314c0f7b2291e5b200ac8c7c3b925918360005260048252604060002085600052825280604060002055604051908152a3565b60046040517fada6435c000000000000000000000000000000000000000000000000000000008152fd5b60046040517f8c6c6874000000000000000000000000000000000000000000000000000000008152fd5b73ffffffffffffffffffffffffffffffffffffffff809116918215611d065716918215611cdc57600082815260056020526040812054828110611ca55791604082827fddf252ad1be2c89b69c2b068fc378daa952ba7f163c4a11628f55a4df523b3ef95876020965260058652038282205586815220818154019055604051908152a3565b60449083604051917f8619ea9200000000000000000000000000000000000000000000000000000000835260048301526024820152fd5b60046040517f30b4b580000000000000000000000000000000000000000000000000000000008152fd5b60046040517f6fbb7817000000000000000000000000000000000000000000000000000000008152fd5b670de0b6b3a7640000907812725dd1d243aba0e75fe645cc4873f9e65afe688c928e1f218111820215830215611d6557020490565b637c5f487d6000526004601cfd5b74010000000000000000000000000000000000000000811015611da95773ffffffffffffffffffffffffffffffffffffffff1690565b6335278d126000526004601cfd5b60109260209260145260345260446000938480936fa9059cbb00000000000000000000000082525af13d156001835114171615611df357603452565b6390b8ec1890526004601cfd5b602460106020939284936014526f70a082310000000000000000000000006000525afa601f3d1116602051029056fea264697066735822122028dea69e777dd4151dc2ded589fd4284152776fbbbb28c6fa499af135668b4d464736f6c63430008110033",
  "linkReferences": {},
  "deployedLinkReferences": {}
}