{
  "_format": "hh-sol-artifact-1",
  "contractName": "CygnusTerminal",
  "sourceName": "contracts/cygnus-core/CygnusTerminal.sol",
  "abi": [
    {
      "inputs": [
        {
          "internalType": "string",
          "name": "_name",
          "type": "string"
        },
        {
          "internalType": "string",
          "name": "_symbol",
          "type": "string"
        },
        {
          "internalType": "uint8",
          "name": "_decimals",
          "type": "uint8"
        }
      ],
      "stateMutability": "nonpayable",
      "type": "constructor"
    },
    {
      "inputs": [],
      "name": "CygnusTerminal__CantMintZeroShares",
      "type": "error"
    },
    {
      "inputs": [],
      "name": "CygnusTerminal__CantRedeemZeroAssets",
      "type": "error"
    },
    {
      "inputs": [
        {
          "internalType": "address",
          "name": "token",
          "type": "address"
        },
        {
          "internalType": "address",
          "name": "underlying",
          "type": "address"
        }
      ],
      "name": "CygnusTerminal__CantSweepUnderlying",
      "type": "error"
    },
    {
      "inputs": [
        {
          "internalType": "address",
          "name": "sender",
          "type": "address"
        },
        {
          "internalType": "address",
          "name": "admin",
          "type": "address"
        }
      ],
      "name": "CygnusTerminal__MsgSenderNotAdmin",
      "type": "error"
    },
    {
      "inputs": [
        {
          "internalType": "address",
          "name": "owner",
          "type": "address"
        },
        {
          "internalType": "uint8",
          "name": "v",
          "type": "uint8"
        },
        {
          "internalType": "bytes32",
          "name": "r",
          "type": "bytes32"
        },
        {
          "internalType": "bytes32",
          "name": "s",
          "type": "bytes32"
        }
      ],
      "name": "ERC20Permit__InvalidSignature",
      "type": "error"
    },
    {
      "inputs": [],
      "name": "ERC20Permit__OwnerZeroAddress",
      "type": "error"
    },
    {
      "inputs": [
        {
          "internalType": "uint256",
          "name": "currentTime",
          "type": "uint256"
        },
        {
          "internalType": "uint256",
          "name": "deadline",
          "type": "uint256"
        }
      ],
      "name": "ERC20Permit__PermitExpired",
      "type": "error"
    },
    {
      "inputs": [],
      "name": "ERC20Permit__RecoveredOwnerZeroAddress",
      "type": "error"
    },
    {
      "inputs": [],
      "name": "ERC20Permit__SpenderZeroAddress",
      "type": "error"
    },
    {
      "inputs": [],
      "name": "ERC20__ApproveOwnerZeroAddress",
      "type": "error"
    },
    {
      "inputs": [],
      "name": "ERC20__ApproveSpenderZeroAddress",
      "type": "error"
    },
    {
      "inputs": [
        {
          "internalType": "uint256",
          "name": "accountBalance",
          "type": "uint256"
        },
        {
          "internalType": "uint256",
          "name": "burnAmount",
          "type": "uint256"
        }
      ],
      "name": "ERC20__BurnUnderflow",
      "type": "error"
    },
    {
      "inputs": [],
      "name": "ERC20__BurnZeroAddress",
      "type": "error"
    },
    {
      "inputs": [
        {
          "internalType": "uint256",
          "name": "allowance",
          "type": "uint256"
        },
        {
          "internalType": "uint256",
          "name": "amount",
          "type": "uint256"
        }
      ],
      "name": "ERC20__InsufficientAllowance",
      "type": "error"
    },
    {
      "inputs": [
        {
          "internalType": "uint256",
          "name": "senderBalance",
          "type": "uint256"
        },
        {
          "internalType": "uint256",
          "name": "amount",
          "type": "uint256"
        }
      ],
      "name": "ERC20__InsufficientBalance",
      "type": "error"
    },
    {
      "inputs": [],
      "name": "ERC20__MintZeroAddress",
      "type": "error"
    },
    {
      "inputs": [],
      "name": "ERC20__TransferRecipientZeroAddress",
      "type": "error"
    },
    {
      "inputs": [],
      "name": "ERC20__TransferSenderZeroAddress",
      "type": "error"
    },
    {
      "inputs": [],
      "name": "ReentrantCall",
      "type": "error"
    },
    {
      "anonymous": false,
      "inputs": [
        {
          "indexed": true,
          "internalType": "address",
          "name": "owner",
          "type": "address"
        },
        {
          "indexed": true,
          "internalType": "address",
          "name": "spender",
          "type": "address"
        },
        {
          "indexed": false,
          "internalType": "uint256",
          "name": "amount",
          "type": "uint256"
        }
      ],
      "name": "Approval",
      "type": "event"
    },
    {
      "anonymous": false,
      "inputs": [
        {
          "indexed": true,
          "internalType": "address",
          "name": "sender",
          "type": "address"
        },
        {
          "indexed": true,
          "internalType": "address",
          "name": "recipient",
          "type": "address"
        },
        {
          "indexed": false,
          "internalType": "uint256",
          "name": "assets",
          "type": "uint256"
        },
        {
          "indexed": false,
          "internalType": "uint256",
          "name": "shares",
          "type": "uint256"
        }
      ],
      "name": "Deposit",
      "type": "event"
    },
    {
      "anonymous": false,
      "inputs": [
        {
          "indexed": false,
          "internalType": "uint256",
          "name": "totalBalance",
          "type": "uint256"
        }
      ],
      "name": "Sync",
      "type": "event"
    },
    {
      "anonymous": false,
      "inputs": [
        {
          "indexed": true,
          "internalType": "address",
          "name": "from",
          "type": "address"
        },
        {
          "indexed": true,
          "internalType": "address",
          "name": "to",
          "type": "address"
        },
        {
          "indexed": false,
          "internalType": "uint256",
          "name": "amount",
          "type": "uint256"
        }
      ],
      "name": "Transfer",
      "type": "event"
    },
    {
      "anonymous": false,
      "inputs": [
        {
          "indexed": true,
          "internalType": "address",
          "name": "sender",
          "type": "address"
        },
        {
          "indexed": true,
          "internalType": "address",
          "name": "recipient",
          "type": "address"
        },
        {
          "indexed": true,
          "internalType": "address",
          "name": "owner",
          "type": "address"
        },
        {
          "indexed": false,
          "internalType": "uint256",
          "name": "assets",
          "type": "uint256"
        },
        {
          "indexed": false,
          "internalType": "uint256",
          "name": "shares",
          "type": "uint256"
        }
      ],
      "name": "Withdraw",
      "type": "event"
    },
    {
      "inputs": [],
      "name": "DOMAIN_SEPARATOR",
      "outputs": [
        {
          "internalType": "bytes32",
          "name": "",
          "type": "bytes32"
        }
      ],
      "stateMutability": "view",
      "type": "function"
    },
    {
      "inputs": [],
      "name": "PERMIT_TYPEHASH",
      "outputs": [
        {
          "internalType": "bytes32",
          "name": "",
          "type": "bytes32"
        }
      ],
      "stateMutability": "view",
      "type": "function"
    },
    {
      "inputs": [
        {
          "internalType": "address",
          "name": "owner",
          "type": "address"
        },
        {
          "internalType": "address",
          "name": "spender",
          "type": "address"
        }
      ],
      "name": "allowance",
      "outputs": [
        {
          "internalType": "uint256",
          "name": "",
          "type": "uint256"
        }
      ],
      "stateMutability": "view",
      "type": "function"
    },
    {
      "inputs": [
        {
          "internalType": "address",
          "name": "spender",
          "type": "address"
        },
        {
          "internalType": "uint256",
          "name": "amount",
          "type": "uint256"
        }
      ],
      "name": "approve",
      "outputs": [
        {
          "internalType": "bool",
          "name": "",
          "type": "bool"
        }
      ],
      "stateMutability": "nonpayable",
      "type": "function"
    },
    {
      "inputs": [
        {
          "internalType": "address",
          "name": "account",
          "type": "address"
        }
      ],
      "name": "balanceOf",
      "outputs": [
        {
          "internalType": "uint256",
          "name": "",
          "type": "uint256"
        }
      ],
      "stateMutability": "view",
      "type": "function"
    },
    {
      "inputs": [],
      "name": "cygnusNebulaOracle",
      "outputs": [
        {
          "internalType": "contract ICygnusNebulaOracle",
          "name": "",
          "type": "address"
        }
      ],
      "stateMutability": "view",
      "type": "function"
    },
    {
      "inputs": [],
      "name": "decimals",
      "outputs": [
        {
          "internalType": "uint8",
          "name": "",
          "type": "uint8"
        }
      ],
      "stateMutability": "view",
      "type": "function"
    },
    {
      "inputs": [
        {
          "internalType": "uint256",
          "name": "assets",
          "type": "uint256"
        },
        {
          "internalType": "address",
          "name": "recipient",
          "type": "address"
        }
      ],
      "name": "deposit",
      "outputs": [
        {
          "internalType": "uint256",
          "name": "shares",
          "type": "uint256"
        }
      ],
      "stateMutability": "nonpayable",
      "type": "function"
    },
    {
      "inputs": [],
      "name": "exchangeRate",
      "outputs": [
        {
          "internalType": "uint256",
          "name": "",
          "type": "uint256"
        }
      ],
      "stateMutability": "nonpayable",
      "type": "function"
    },
    {
      "inputs": [],
      "name": "hangar18",
      "outputs": [
        {
          "internalType": "contract IHangar18",
          "name": "",
          "type": "address"
        }
      ],
      "stateMutability": "view",
      "type": "function"
    },
    {
      "inputs": [],
      "name": "name",
      "outputs": [
        {
          "internalType": "string",
          "name": "",
          "type": "string"
        }
      ],
      "stateMutability": "view",
      "type": "function"
    },
    {
      "inputs": [
        {
          "internalType": "address",
          "name": "",
          "type": "address"
        }
      ],
      "name": "nonces",
      "outputs": [
        {
          "internalType": "uint256",
          "name": "",
          "type": "uint256"
        }
      ],
      "stateMutability": "view",
      "type": "function"
    },
    {
      "inputs": [
        {
          "internalType": "address",
          "name": "owner",
          "type": "address"
        },
        {
          "internalType": "address",
          "name": "spender",
          "type": "address"
        },
        {
          "internalType": "uint256",
          "name": "value",
          "type": "uint256"
        },
        {
          "internalType": "uint256",
          "name": "deadline",
          "type": "uint256"
        },
        {
          "internalType": "uint8",
          "name": "v",
          "type": "uint8"
        },
        {
          "internalType": "bytes32",
          "name": "r",
          "type": "bytes32"
        },
        {
          "internalType": "bytes32",
          "name": "s",
          "type": "bytes32"
        }
      ],
      "name": "permit",
      "outputs": [],
      "stateMutability": "nonpayable",
      "type": "function"
    },
    {
      "inputs": [
        {
          "internalType": "uint256",
          "name": "shares",
          "type": "uint256"
        },
        {
          "internalType": "address",
          "name": "recipient",
          "type": "address"
        },
        {
          "internalType": "address",
          "name": "owner",
          "type": "address"
        }
      ],
      "name": "redeem",
      "outputs": [
        {
          "internalType": "uint256",
          "name": "assets",
          "type": "uint256"
        }
      ],
      "stateMutability": "nonpayable",
      "type": "function"
    },
    {
      "inputs": [],
      "name": "shuttleId",
      "outputs": [
        {
          "internalType": "uint256",
          "name": "",
          "type": "uint256"
        }
      ],
      "stateMutability": "view",
      "type": "function"
    },
    {
      "inputs": [
        {
          "internalType": "address",
          "name": "token",
          "type": "address"
        }
      ],
      "name": "sweepToken",
      "outputs": [],
      "stateMutability": "nonpayable",
      "type": "function"
    },
    {
      "inputs": [],
      "name": "symbol",
      "outputs": [
        {
          "internalType": "string",
          "name": "",
          "type": "string"
        }
      ],
      "stateMutability": "view",
      "type": "function"
    },
    {
      "inputs": [],
      "name": "totalBalance",
      "outputs": [
        {
          "internalType": "uint256",
          "name": "",
          "type": "uint256"
        }
      ],
      "stateMutability": "view",
      "type": "function"
    },
    {
      "inputs": [],
      "name": "totalSupply",
      "outputs": [
        {
          "internalType": "uint256",
          "name": "",
          "type": "uint256"
        }
      ],
      "stateMutability": "view",
      "type": "function"
    },
    {
      "inputs": [
        {
          "internalType": "address",
          "name": "recipient",
          "type": "address"
        },
        {
          "internalType": "uint256",
          "name": "amount",
          "type": "uint256"
        }
      ],
      "name": "transfer",
      "outputs": [
        {
          "internalType": "bool",
          "name": "",
          "type": "bool"
        }
      ],
      "stateMutability": "nonpayable",
      "type": "function"
    },
    {
      "inputs": [
        {
          "internalType": "address",
          "name": "sender",
          "type": "address"
        },
        {
          "internalType": "address",
          "name": "recipient",
          "type": "address"
        },
        {
          "internalType": "uint256",
          "name": "amount",
          "type": "uint256"
        }
      ],
      "name": "transferFrom",
      "outputs": [
        {
          "internalType": "bool",
          "name": "",
          "type": "bool"
        }
      ],
      "stateMutability": "nonpayable",
      "type": "function"
    },
    {
      "inputs": [],
      "name": "underlying",
      "outputs": [
        {
          "internalType": "address",
          "name": "",
          "type": "address"
        }
      ],
      "stateMutability": "view",
      "type": "function"
    },
    {
      "inputs": [],
      "name": "version",
      "outputs": [
        {
          "internalType": "string",
          "name": "",
          "type": "string"
        }
      ],
      "stateMutability": "view",
      "type": "function"
    }
  ],
  "bytecode": "0x6101206040523480156200001257600080fd5b5060405162001a8d38038062001a8d8339810160408190526200003591620003d0565b6000805460ff191660019081179091558351849184918491849184918491620000649190602086019062000204565b5081516200007a90600290602085019062000204565b506003805460ff191660ff92909216919091179055505060405146907f8b73c3c69bb8fe3d512ecc4cf759cc79239f7b179b0ffacaa9a75d522b39400f90620000c69060019062000451565b60408051918290038220828201825260058352640312e302e360dc1b6020938401528151928301939093528101919091527f06c015bd22b4c69690933c1058878ebdfef31f9aaae40bbe86d8a09fe1b2972c6060820152608081018290523060a082015260c00160408051601f1981840301815291905280516020909101206080525062000158925050620002009050565b6001600160a01b0316635a412e536040518163ffffffff1660e01b815260040160a060405180830381600087803b1580156200019357600080fd5b505af1158015620001a8573d6000803e3d6000fd5b505050506040513d601f19601f82011682018060405250810190620001ce91906200035d565b610100526001600160601b0319606091821b811660e05292811b831660c0529290921b1660a052506200056092505050565b3390565b8280546200021290620004f4565b90600052602060002090601f01602090048101928262000236576000855562000281565b82601f106200025157805160ff191683800117855562000281565b8280016001018555821562000281579182015b828111156200028157825182559160200191906001019062000264565b506200028f92915062000293565b5090565b5b808211156200028f576000815560010162000294565b600082601f830112620002bb578081fd5b81516001600160401b0380821115620002d857620002d862000531565b604051601f8301601f19908116603f0116810190828211818310171562000303576200030362000531565b816040528381526020925086838588010111156200031f578485fd5b8491505b8382101562000342578582018301518183018401529082019062000323565b838211156200035357848385830101525b9695505050505050565b600080600080600060a0868803121562000375578081fd5b8551620003828162000547565b6020870151909550620003958162000547565b6040870151909450620003a88162000547565b6060870151909350620003bb8162000547565b80925050608086015190509295509295909350565b600080600060608486031215620003e5578283fd5b83516001600160401b0380821115620003fc578485fd5b6200040a87838801620002aa565b9450602086015191508082111562000420578384fd5b506200042f86828701620002aa565b925050604084015160ff8116811462000446578182fd5b809150509250925092565b600080835482600182811c9150808316806200046e57607f831692505b60208084108214156200048f57634e487b7160e01b87526022600452602487fd5b818015620004a65760018114620004b857620004e6565b60ff19861689528489019650620004e6565b60008a815260209020885b86811015620004de5781548b820152908501908301620004c3565b505084890196505b509498975050505050505050565b600181811c908216806200050957607f821691505b602082108114156200052b57634e487b7160e01b600052602260045260246000fd5b50919050565b634e487b7160e01b600052604160045260246000fd5b6001600160a01b03811681146200055d57600080fd5b50565b60805160a05160601c60c05160601c60e05160601c610100516114ae620005df60003960006102c8015260006103d40152600081816103020152818161053101528181610588015281816106c1015281816108c501526110700152600081816104340152610cc401526000818161025d0152610a7d01526114ae6000f3fe608060405234801561001057600080fd5b506004361061018d5760003560e01c80636e553f65116100e3578063ad7a672f1161008c578063d935bd9211610066578063d935bd92146103cf578063dd62ed3e146103f6578063e8a24e1d1461042f57600080fd5b8063ad7a672f146103a0578063ba087652146103a9578063d505accf146103bc57600080fd5b80637ecebe00116100bd5780637ecebe001461036557806395d89b4114610385578063a9059cbb1461038d57600080fd5b80636e553f65146102ea5780636f307dc3146102fd57806370a082311461033c57600080fd5b806330adf81f116101455780633ba0b9a91161011f5780633ba0b9a91461027f57806354fd4d50146102875780635f77f891146102c357600080fd5b806330adf81f14610212578063313ce567146102395780633644e5151461025857600080fd5b806318160ddd1161017657806318160ddd146101d35780631be19560146101ea57806323b872dd146101ff57600080fd5b806306fdde0314610192578063095ea7b3146101b0575b600080fd5b61019a610456565b6040516101a79190611390565b60405180910390f35b6101c36101be366004611300565b6104e4565b60405190151581526020016101a7565b6101dc60045481565b6040519081526020016101a7565b6101fd6101f83660046111d4565b6104fa565b005b6101c361020d36600461124b565b6105ec565b6101dc7f6e71edae12b1b97f4d1f60370fef10105fa2faae0126114a169c64845d6126c981565b6003546102469060ff1681565b60405160ff90911681526020016101a7565b6101dc7f000000000000000000000000000000000000000000000000000000000000000081565b6101dc610660565b61019a6040518060400160405280600581526020017f312e302e3000000000000000000000000000000000000000000000000000000081525081565b6101dc7f000000000000000000000000000000000000000000000000000000000000000081565b6101dc6102f836600461132b565b61068e565b6103247f000000000000000000000000000000000000000000000000000000000000000081565b6040516001600160a01b0390911681526020016101a7565b6101dc61034a3660046111d4565b6001600160a01b031660009081526005602052604090205490565b6101dc6103733660046111d4565b60076020526000908152604090205481565b61019a6107c3565b6101c361039b366004611300565b6107d0565b6101dc60085481565b6101dc6103b736600461134f565b6107dd565b6101fd6103ca36600461128b565b61096e565b6103247f000000000000000000000000000000000000000000000000000000000000000081565b6101dc610404366004611213565b6001600160a01b03918216600090815260066020908152604080832093909416825291909152205490565b6103247f000000000000000000000000000000000000000000000000000000000000000081565b6001805461046390611412565b80601f016020809104026020016040519081016040528092919081815260200182805461048f90611412565b80156104dc5780601f106104b1576101008083540402835291602001916104dc565b820191906000526020600020905b8154815290600101906020018083116104bf57829003601f168201915b505050505081565b60006104f1338484610c11565b50600192915050565b60005460ff1661051d576040516306fda65d60e31b815260040160405180910390fd5b6000805460ff1916905561052f610cc0565b7f00000000000000000000000000000000000000000000000000000000000000006001600160a01b0316816001600160a01b031614156105ba576040516303b91a9160e31b81526001600160a01b0380831660048301527f00000000000000000000000000000000000000000000000000000000000000001660248201526044015b60405180910390fd5b60006105c582610d92565b90506105db6001600160a01b0383163383610dad565b50506000805460ff19166001179055565b60006105f9848484610df6565b6001600160a01b038416600090815260066020908152604080832033845290915290205482811015610648576040516310c6013560e31b815260048101829052602481018490526044016105b1565b6106558533858403610c11565b506001949350505050565b600454600090801561067e576008546106799082610f19565b610688565b670de0b6b3a76400005b91505090565b6000805460ff166106b2576040516306fda65d60e31b815260040160405180910390fd5b6000805460ff191690556106f17f00000000000000000000000000000000000000000000000000000000000000006001600160a01b0316333086610f68565b60008061070f6106ff610660565b61070984846113fb565b90610f19565b9250600083116107325760405163f1ca48b160e01b815260040160405180910390fd5b6004546107565761074761dead6103e8610fb6565b6107536103e8846113fb565b92505b6107608484610fb6565b60408051868152602081018590526001600160a01b0386169133917fdcbc1c05240f31ff3ad067ef1ee35ce4997762752e3a095284754544f4c709d7910160405180910390a350506107b0611069565b6000805460ff1916600117905592915050565b6002805461046390611412565b60006104f1338484610df6565b6000805460ff16610801576040516306fda65d60e31b815260040160405180910390fd5b6000805460ff19169055336001600160a01b03831614610879576001600160a01b038216600090815260066020908152604080832033845290915290205460001981146108775761085285826113fb565b6001600160a01b03841660009081526006602090815260408083203384529091529020555b505b61088b610884610660565b85906110d2565b9050600081116108ae5760405163e3e8d29760e01b815260040160405180910390fd5b6108b88285611100565b6108ec6001600160a01b037f0000000000000000000000000000000000000000000000000000000000000000168483610dad565b816001600160a01b0316836001600160a01b03166109073390565b6001600160a01b03167ffbde797d201c681b91056529119e0b02407c7bb96a4a2c75c01fc9667232c8db848860405161094a929190918252602082015260400190565b60405180910390a461095a611069565b6000805460ff191660011790559392505050565b6001600160a01b03871661099557604051639a321bc760e01b815260040160405180910390fd5b6001600160a01b0386166109bc576040516353fbd1d760e01b815260040160405180910390fd5b428410156109e65760405163075dd20f60e41b8152426004820152602481018590526044016105b1565b6001600160a01b0387811660008181526007602090815260408083208054600180820190925582517f6e71edae12b1b97f4d1f60370fef10105fa2faae0126114a169c64845d6126c98186015280840196909652958c166060860152608085018b905260a085019590955260c08085018a90528151808603909101815260e08501825280519083012061190160f01b6101008601527f000000000000000000000000000000000000000000000000000000000000000061010286015261012280860182905282518087039091018152610142860180845281519185019190912090859052610162860180845281905260ff8a166101828701526101a286018990526101c2860188905291519095919491926101e2808401939192601f1981019281900390910190855afa158015610b21573d6000803e3d6000fd5b5050604051601f1901519150506001600160a01b038116610b5557604051637386dbbb60e11b815260040160405180910390fd5b896001600160a01b0316816001600160a01b031614610ba95760405163a1d5f2ed60e01b81526001600160a01b038b16600482015260ff8716602482015260448101869052606481018590526084016105b1565b6001600160a01b038a81166000818152600660209081526040808320948e16808452948252918290208c905590518b81527f8c5be1e5ebec7d5bd14f71427d1e84f3dd0314c0f7b2291e5b200ac8c7c3b925910160405180910390a350505050505050505050565b6001600160a01b038316610c38576040516317ba2d8b60e11b815260040160405180910390fd5b6001600160a01b038216610c5f57604051632cc8a69760e11b815260040160405180910390fd5b6001600160a01b0383811660008181526006602090815260408083209487168084529482529182902085905590518481527f8c5be1e5ebec7d5bd14f71427d1e84f3dd0314c0f7b2291e5b200ac8c7c3b925910160405180910390a3505050565b60007f00000000000000000000000000000000000000000000000000000000000000006001600160a01b031663f851a4406040518163ffffffff1660e01b815260040160206040518083038186803b158015610d1b57600080fd5b505afa158015610d2f573d6000803e3d6000fd5b505050506040513d601f19601f82011682018060405250810190610d5391906111f7565b9050336001600160a01b03821614610d8f57604051633e7c764160e21b81523360048201526001600160a01b03821660248201526044016105b1565b50565b6000610da76001600160a01b038316306111ab565b92915050565b81601a5280603a5269a9059cbb00000000000060005260206000604460166000875af13d156001600051141716610dec576390b8ec186000526004601cfd5b6000603a52505050565b6001600160a01b038316610e1d5760405163618a6e7d60e11b815260040160405180910390fd5b6001600160a01b038216610e445760405163446ebce960e01b815260040160405180910390fd5b6001600160a01b03831660009081526005602052604090205481811015610e885760405163355a868d60e01b815260048101829052602481018390526044016105b1565b6001600160a01b03808516600090815260056020526040808220858503905591851681529081208054849290610ebf9084906113e3565b92505081905550826001600160a01b0316846001600160a01b03167fddf252ad1be2c89b69c2b068fc378daa952ba7f163c4a11628f55a4df523b3ef84604051610f0b91815260200190565b60405180910390a350505050565b60007812725dd1d243aba0e75fe645cc4873f9e65afe688c928e1f218311670de0b6b3a764000002158202610f5657637c5f487d6000526004601cfd5b50670de0b6b3a7640000919091020490565b6040516323b872dd600052836020528260405281606052602060006064601c6000895af13d156001600051141716610fa857637939f4246000526004601cfd5b600060605260405250505050565b6001600160a01b038216610fdd5760405163237813dd60e01b815260040160405180910390fd5b6001600160a01b038216600090815260056020526040812080548392906110059084906113e3565b92505081905550806004600082825461101e91906113e3565b90915550506040518181526001600160a01b038316906000907fddf252ad1be2c89b69c2b068fc378daa952ba7f163c4a11628f55a4df523b3ef906020015b60405180910390a35050565b60006110947f0000000000000000000000000000000000000000000000000000000000000000610d92565b60088190556040518181529091507f8a0df8ef054fae2c3d2d19a7b322e864870cc9fd3cb07fb9526309c596244bf49060200160405180910390a150565b6000816000190483118202156110f05763bac65e5b6000526004601cfd5b50670de0b6b3a764000091020490565b6001600160a01b03821661112757604051630b5da42b60e01b815260040160405180910390fd5b6001600160a01b0382166000908152600560205260408120805483929061114f9084906113fb565b92505081905550806004600082825461116891906113fb565b90915550506040518181526000906001600160a01b038416907fddf252ad1be2c89b69c2b068fc378daa952ba7f163c4a11628f55a4df523b3ef9060200161105d565b60006370a08231600052816020526020806024601c865afa601f3d111660205102905092915050565b6000602082840312156111e5578081fd5b81356111f081611463565b9392505050565b600060208284031215611208578081fd5b81516111f081611463565b60008060408385031215611225578081fd5b823561123081611463565b9150602083013561124081611463565b809150509250929050565b60008060006060848603121561125f578081fd5b833561126a81611463565b9250602084013561127a81611463565b929592945050506040919091013590565b600080600080600080600060e0888a0312156112a5578283fd5b87356112b081611463565b965060208801356112c081611463565b95506040880135945060608801359350608088013560ff811681146112e3578384fd5b9699959850939692959460a0840135945060c09093013592915050565b60008060408385031215611312578182fd5b823561131d81611463565b946020939093013593505050565b6000806040838503121561133d578182fd5b82359150602083013561124081611463565b600080600060608486031215611363578283fd5b83359250602084013561137581611463565b9150604084013561138581611463565b809150509250925092565b6000602080835283518082850152825b818110156113bc578581018301518582016040015282016113a0565b818111156113cd5783604083870101525b50601f01601f1916929092016040019392505050565b600082198211156113f6576113f661144d565b500190565b60008282101561140d5761140d61144d565b500390565b600181811c9082168061142657607f821691505b6020821081141561144757634e487b7160e01b600052602260045260246000fd5b50919050565b634e487b7160e01b600052601160045260246000fd5b6001600160a01b0381168114610d8f57600080fdfea2646970667358221220226a869ba8c9496b97617ce63cb69d96359b0362bafb09b3fbf5ee910a4758ec64736f6c63430008040033",
  "linkReferences": {},
  "deployedLinkReferences": {}
}