{
  "_format": "hh-sol-artifact-1",
  "contractName": "CygnusBorrowApprove",
  "sourceName": "contracts/cygnus-core/CygnusBorrowApprove.sol",
  "abi": [
    {
      "inputs": [
        {
          "internalType": "uint256",
          "name": "borrowAllowance",
          "type": "uint256"
        },
        {
          "internalType": "uint256",
          "name": "borrowAmount",
          "type": "uint256"
        }
      ],
      "name": "CygnusBorrowApprove__BorrowNotAllowed",
      "type": "error"
    },
    {
      "inputs": [
        {
          "internalType": "address",
          "name": "owner",
          "type": "address"
        },
        {
          "internalType": "address",
          "name": "spender",
          "type": "address"
        }
      ],
      "name": "CygnusBorrowApprove__OwnerIsSpender",
      "type": "error"
    },
    {
      "inputs": [
        {
          "internalType": "address",
          "name": "owner",
          "type": "address"
        },
        {
          "internalType": "address",
          "name": "spender",
          "type": "address"
        }
      ],
      "name": "CygnusBorrowApprove__OwnerZeroAddress",
      "type": "error"
    },
    {
      "inputs": [
        {
          "internalType": "address",
          "name": "owner",
          "type": "address"
        },
        {
          "internalType": "address",
          "name": "spender",
          "type": "address"
        }
      ],
      "name": "CygnusBorrowApprove__SpenderZeroAddress",
      "type": "error"
    },
    {
      "inputs": [
        {
          "internalType": "address",
          "name": "currentTracker",
          "type": "address"
        },
        {
          "internalType": "address",
          "name": "newTracker",
          "type": "address"
        }
      ],
      "name": "CygnusBorrowControl__BorrowTrackerAlreadySet",
      "type": "error"
    },
    {
      "inputs": [
        {
          "internalType": "uint256",
          "name": "min",
          "type": "uint256"
        },
        {
          "internalType": "uint256",
          "name": "max",
          "type": "uint256"
        },
        {
          "internalType": "uint256",
          "name": "value",
          "type": "uint256"
        }
      ],
      "name": "CygnusBorrowControl__ParameterNotInRange",
      "type": "error"
    },
    {
      "inputs": [],
      "name": "CygnusTerminal__CantMintZeroShares",
      "type": "error"
    },
    {
      "inputs": [],
      "name": "CygnusTerminal__CantRedeemZeroAssets",
      "type": "error"
    },
    {
      "inputs": [
        {
          "internalType": "address",
          "name": "token",
          "type": "address"
        },
        {
          "internalType": "address",
          "name": "underlying",
          "type": "address"
        }
      ],
      "name": "CygnusTerminal__CantSweepUnderlying",
      "type": "error"
    },
    {
      "inputs": [
        {
          "internalType": "address",
          "name": "sender",
          "type": "address"
        },
        {
          "internalType": "address",
          "name": "factoryAdmin",
          "type": "address"
        }
      ],
      "name": "CygnusTerminal__MsgSenderNotAdmin",
      "type": "error"
    },
    {
      "inputs": [
        {
          "internalType": "uint256",
          "name": "assets",
          "type": "uint256"
        },
        {
          "internalType": "uint256",
          "name": "totalBalance",
          "type": "uint256"
        }
      ],
      "name": "CygnusTerminal__RedeemAmountInvalid",
      "type": "error"
    },
    {
      "inputs": [],
      "name": "ERC20__ApproveOwnerZeroAddress",
      "type": "error"
    },
    {
      "inputs": [],
      "name": "ERC20__ApproveSpenderZeroAddress",
      "type": "error"
    },
    {
      "inputs": [
        {
          "internalType": "uint256",
          "name": "accountBalance",
          "type": "uint256"
        },
        {
          "internalType": "uint256",
          "name": "burnAmount",
          "type": "uint256"
        }
      ],
      "name": "ERC20__BurnUnderflow",
      "type": "error"
    },
    {
      "inputs": [],
      "name": "ERC20__BurnZeroAddress",
      "type": "error"
    },
    {
      "inputs": [
        {
          "internalType": "uint256",
          "name": "allowance",
          "type": "uint256"
        },
        {
          "internalType": "uint256",
          "name": "amount",
          "type": "uint256"
        }
      ],
      "name": "ERC20__InsufficientAllowance",
      "type": "error"
    },
    {
      "inputs": [
        {
          "internalType": "uint256",
          "name": "senderBalance",
          "type": "uint256"
        },
        {
          "internalType": "uint256",
          "name": "amount",
          "type": "uint256"
        }
      ],
      "name": "ERC20__InsufficientBalance",
      "type": "error"
    },
    {
      "inputs": [],
      "name": "ERC20__MintZeroAddress",
      "type": "error"
    },
    {
      "inputs": [],
      "name": "ERC20__TransferRecipientZeroAddress",
      "type": "error"
    },
    {
      "inputs": [],
      "name": "ERC20__TransferSenderZeroAddress",
      "type": "error"
    },
    {
      "inputs": [
        {
          "internalType": "uint256",
          "name": "prod1",
          "type": "uint256"
        }
      ],
      "name": "PRBMath__MulDivFixedPointOverflow",
      "type": "error"
    },
    {
      "inputs": [
        {
          "internalType": "uint256",
          "name": "prod1",
          "type": "uint256"
        },
        {
          "internalType": "uint256",
          "name": "denominator",
          "type": "uint256"
        }
      ],
      "name": "PRBMath__MulDivOverflow",
      "type": "error"
    },
    {
      "inputs": [],
      "name": "ReentrantCall",
      "type": "error"
    },
    {
      "anonymous": false,
      "inputs": [
        {
          "indexed": true,
          "internalType": "address",
          "name": "owner",
          "type": "address"
        },
        {
          "indexed": true,
          "internalType": "address",
          "name": "spender",
          "type": "address"
        },
        {
          "indexed": false,
          "internalType": "uint256",
          "name": "amount",
          "type": "uint256"
        }
      ],
      "name": "Approval",
      "type": "event"
    },
    {
      "anonymous": false,
      "inputs": [
        {
          "indexed": true,
          "internalType": "address",
          "name": "owner",
          "type": "address"
        },
        {
          "indexed": false,
          "internalType": "address",
          "name": "spender",
          "type": "address"
        },
        {
          "indexed": false,
          "internalType": "uint256",
          "name": "amount",
          "type": "uint256"
        }
      ],
      "name": "BorrowApproval",
      "type": "event"
    },
    {
      "anonymous": false,
      "inputs": [
        {
          "indexed": true,
          "internalType": "address",
          "name": "sender",
          "type": "address"
        },
        {
          "indexed": true,
          "internalType": "address",
          "name": "recipient",
          "type": "address"
        },
        {
          "indexed": false,
          "internalType": "uint256",
          "name": "assets",
          "type": "uint256"
        },
        {
          "indexed": false,
          "internalType": "uint256",
          "name": "shares",
          "type": "uint256"
        }
      ],
      "name": "Deposit",
      "type": "event"
    },
    {
      "anonymous": false,
      "inputs": [
        {
          "indexed": false,
          "internalType": "address",
          "name": "oldBorrowRewarder",
          "type": "address"
        },
        {
          "indexed": false,
          "internalType": "address",
          "name": "newBorrowRewarder",
          "type": "address"
        }
      ],
      "name": "NewCygnusBorrowRewarder",
      "type": "event"
    },
    {
      "anonymous": false,
      "inputs": [
        {
          "indexed": false,
          "internalType": "uint256",
          "name": "baseRatePerYear",
          "type": "uint256"
        },
        {
          "indexed": false,
          "internalType": "uint256",
          "name": "multiplierPerYear",
          "type": "uint256"
        },
        {
          "indexed": false,
          "internalType": "uint256",
          "name": "kinkMultiplier_",
          "type": "uint256"
        },
        {
          "indexed": false,
          "internalType": "uint256",
          "name": "kinkUtilizationRate_",
          "type": "uint256"
        }
      ],
      "name": "NewInterestRateParameters",
      "type": "event"
    },
    {
      "anonymous": false,
      "inputs": [
        {
          "indexed": false,
          "internalType": "uint256",
          "name": "oldReserveFactor",
          "type": "uint256"
        },
        {
          "indexed": false,
          "internalType": "uint256",
          "name": "newReserveFactor",
          "type": "uint256"
        }
      ],
      "name": "NewReserveFactor",
      "type": "event"
    },
    {
      "anonymous": false,
      "inputs": [
        {
          "indexed": false,
          "internalType": "uint256",
          "name": "totalBalance",
          "type": "uint256"
        }
      ],
      "name": "Sync",
      "type": "event"
    },
    {
      "anonymous": false,
      "inputs": [
        {
          "indexed": true,
          "internalType": "address",
          "name": "from",
          "type": "address"
        },
        {
          "indexed": true,
          "internalType": "address",
          "name": "to",
          "type": "address"
        },
        {
          "indexed": false,
          "internalType": "uint256",
          "name": "amount",
          "type": "uint256"
        }
      ],
      "name": "Transfer",
      "type": "event"
    },
    {
      "anonymous": false,
      "inputs": [
        {
          "indexed": true,
          "internalType": "address",
          "name": "sender",
          "type": "address"
        },
        {
          "indexed": true,
          "internalType": "address",
          "name": "recipient",
          "type": "address"
        },
        {
          "indexed": true,
          "internalType": "address",
          "name": "owner",
          "type": "address"
        },
        {
          "indexed": false,
          "internalType": "uint256",
          "name": "assets",
          "type": "uint256"
        },
        {
          "indexed": false,
          "internalType": "uint256",
          "name": "shares",
          "type": "uint256"
        }
      ],
      "name": "Withdraw",
      "type": "event"
    },
    {
      "inputs": [
        {
          "internalType": "address",
          "name": "owner",
          "type": "address"
        },
        {
          "internalType": "address",
          "name": "spender",
          "type": "address"
        }
      ],
      "name": "allowance",
      "outputs": [
        {
          "internalType": "uint256",
          "name": "",
          "type": "uint256"
        }
      ],
      "stateMutability": "view",
      "type": "function"
    },
    {
      "inputs": [
        {
          "internalType": "address",
          "name": "spender",
          "type": "address"
        },
        {
          "internalType": "uint256",
          "name": "amount",
          "type": "uint256"
        }
      ],
      "name": "approve",
      "outputs": [
        {
          "internalType": "bool",
          "name": "",
          "type": "bool"
        }
      ],
      "stateMutability": "nonpayable",
      "type": "function"
    },
    {
      "inputs": [
        {
          "internalType": "address",
          "name": "account",
          "type": "address"
        }
      ],
      "name": "balanceOf",
      "outputs": [
        {
          "internalType": "uint256",
          "name": "",
          "type": "uint256"
        }
      ],
      "stateMutability": "view",
      "type": "function"
    },
    {
      "inputs": [],
      "name": "baseRatePerSecond",
      "outputs": [
        {
          "internalType": "uint256",
          "name": "",
          "type": "uint256"
        }
      ],
      "stateMutability": "view",
      "type": "function"
    },
    {
      "inputs": [
        {
          "internalType": "address",
          "name": "",
          "type": "address"
        },
        {
          "internalType": "address",
          "name": "",
          "type": "address"
        }
      ],
      "name": "borrowAllowances",
      "outputs": [
        {
          "internalType": "uint256",
          "name": "",
          "type": "uint256"
        }
      ],
      "stateMutability": "view",
      "type": "function"
    },
    {
      "inputs": [
        {
          "internalType": "address",
          "name": "spender",
          "type": "address"
        },
        {
          "internalType": "uint256",
          "name": "amount",
          "type": "uint256"
        }
      ],
      "name": "borrowApprove",
      "outputs": [
        {
          "internalType": "bool",
          "name": "",
          "type": "bool"
        }
      ],
      "stateMutability": "nonpayable",
      "type": "function"
    },
    {
      "inputs": [],
      "name": "collateral",
      "outputs": [
        {
          "internalType": "address",
          "name": "",
          "type": "address"
        }
      ],
      "stateMutability": "view",
      "type": "function"
    },
    {
      "inputs": [],
      "name": "cygnusBorrowRewarder",
      "outputs": [
        {
          "internalType": "address",
          "name": "",
          "type": "address"
        }
      ],
      "stateMutability": "view",
      "type": "function"
    },
    {
      "inputs": [],
      "name": "decimals",
      "outputs": [
        {
          "internalType": "uint8",
          "name": "",
          "type": "uint8"
        }
      ],
      "stateMutability": "view",
      "type": "function"
    },
    {
      "inputs": [
        {
          "internalType": "uint256",
          "name": "assets",
          "type": "uint256"
        },
        {
          "internalType": "address",
          "name": "recipient",
          "type": "address"
        }
      ],
      "name": "deposit",
      "outputs": [
        {
          "internalType": "uint256",
          "name": "shares",
          "type": "uint256"
        }
      ],
      "stateMutability": "nonpayable",
      "type": "function"
    },
    {
      "inputs": [],
      "name": "exchangeRate",
      "outputs": [
        {
          "internalType": "uint256",
          "name": "",
          "type": "uint256"
        }
      ],
      "stateMutability": "nonpayable",
      "type": "function"
    },
    {
      "inputs": [],
      "name": "exchangeRateStored",
      "outputs": [
        {
          "internalType": "uint256",
          "name": "",
          "type": "uint256"
        }
      ],
      "stateMutability": "view",
      "type": "function"
    },
    {
      "inputs": [],
      "name": "hangar18",
      "outputs": [
        {
          "internalType": "address",
          "name": "",
          "type": "address"
        }
      ],
      "stateMutability": "view",
      "type": "function"
    },
    {
      "inputs": [],
      "name": "jumpMultiplierPerSecond",
      "outputs": [
        {
          "internalType": "uint256",
          "name": "",
          "type": "uint256"
        }
      ],
      "stateMutability": "view",
      "type": "function"
    },
    {
      "inputs": [],
      "name": "kinkMultiplier",
      "outputs": [
        {
          "internalType": "uint256",
          "name": "",
          "type": "uint256"
        }
      ],
      "stateMutability": "view",
      "type": "function"
    },
    {
      "inputs": [],
      "name": "kinkUtilizationRate",
      "outputs": [
        {
          "internalType": "uint256",
          "name": "",
          "type": "uint256"
        }
      ],
      "stateMutability": "view",
      "type": "function"
    },
    {
      "inputs": [],
      "name": "multiplierPerSecond",
      "outputs": [
        {
          "internalType": "uint256",
          "name": "",
          "type": "uint256"
        }
      ],
      "stateMutability": "view",
      "type": "function"
    },
    {
      "inputs": [],
      "name": "name",
      "outputs": [
        {
          "internalType": "string",
          "name": "",
          "type": "string"
        }
      ],
      "stateMutability": "view",
      "type": "function"
    },
    {
      "inputs": [],
      "name": "orbiterName",
      "outputs": [
        {
          "internalType": "string",
          "name": "",
          "type": "string"
        }
      ],
      "stateMutability": "view",
      "type": "function"
    },
    {
      "inputs": [
        {
          "internalType": "uint256",
          "name": "shares",
          "type": "uint256"
        },
        {
          "internalType": "address",
          "name": "recipient",
          "type": "address"
        },
        {
          "internalType": "address",
          "name": "owner",
          "type": "address"
        }
      ],
      "name": "redeem",
      "outputs": [
        {
          "internalType": "uint256",
          "name": "assets",
          "type": "uint256"
        }
      ],
      "stateMutability": "nonpayable",
      "type": "function"
    },
    {
      "inputs": [],
      "name": "reserveFactor",
      "outputs": [
        {
          "internalType": "uint256",
          "name": "",
          "type": "uint256"
        }
      ],
      "stateMutability": "view",
      "type": "function"
    },
    {
      "inputs": [
        {
          "internalType": "address",
          "name": "newBorrowRewarder",
          "type": "address"
        }
      ],
      "name": "setCygnusBorrowRewarder",
      "outputs": [],
      "stateMutability": "nonpayable",
      "type": "function"
    },
    {
      "inputs": [
        {
          "internalType": "uint256",
          "name": "baseRatePerYear",
          "type": "uint256"
        },
        {
          "internalType": "uint256",
          "name": "multiplierPerYear",
          "type": "uint256"
        },
        {
          "internalType": "uint256",
          "name": "kinkMultiplier_",
          "type": "uint256"
        },
        {
          "internalType": "uint256",
          "name": "kinkUtilizationRate_",
          "type": "uint256"
        }
      ],
      "name": "setInterestRateModel",
      "outputs": [],
      "stateMutability": "nonpayable",
      "type": "function"
    },
    {
      "inputs": [
        {
          "internalType": "uint256",
          "name": "newReserveFactor",
          "type": "uint256"
        }
      ],
      "name": "setReserveFactor",
      "outputs": [],
      "stateMutability": "nonpayable",
      "type": "function"
    },
    {
      "inputs": [],
      "name": "shuttleId",
      "outputs": [
        {
          "internalType": "uint256",
          "name": "",
          "type": "uint256"
        }
      ],
      "stateMutability": "view",
      "type": "function"
    },
    {
      "inputs": [
        {
          "internalType": "address",
          "name": "token",
          "type": "address"
        }
      ],
      "name": "sweepToken",
      "outputs": [],
      "stateMutability": "nonpayable",
      "type": "function"
    },
    {
      "inputs": [],
      "name": "symbol",
      "outputs": [
        {
          "internalType": "string",
          "name": "",
          "type": "string"
        }
      ],
      "stateMutability": "view",
      "type": "function"
    },
    {
      "inputs": [],
      "name": "totalBalance",
      "outputs": [
        {
          "internalType": "uint256",
          "name": "",
          "type": "uint256"
        }
      ],
      "stateMutability": "view",
      "type": "function"
    },
    {
      "inputs": [],
      "name": "totalSupply",
      "outputs": [
        {
          "internalType": "uint256",
          "name": "",
          "type": "uint256"
        }
      ],
      "stateMutability": "view",
      "type": "function"
    },
    {
      "inputs": [
        {
          "internalType": "address",
          "name": "recipient",
          "type": "address"
        },
        {
          "internalType": "uint256",
          "name": "amount",
          "type": "uint256"
        }
      ],
      "name": "transfer",
      "outputs": [
        {
          "internalType": "bool",
          "name": "",
          "type": "bool"
        }
      ],
      "stateMutability": "nonpayable",
      "type": "function"
    },
    {
      "inputs": [
        {
          "internalType": "address",
          "name": "sender",
          "type": "address"
        },
        {
          "internalType": "address",
          "name": "recipient",
          "type": "address"
        },
        {
          "internalType": "uint256",
          "name": "amount",
          "type": "uint256"
        }
      ],
      "name": "transferFrom",
      "outputs": [
        {
          "internalType": "bool",
          "name": "",
          "type": "bool"
        }
      ],
      "stateMutability": "nonpayable",
      "type": "function"
    },
    {
      "inputs": [],
      "name": "underlying",
      "outputs": [
        {
          "internalType": "address",
          "name": "",
          "type": "address"
        }
      ],
      "stateMutability": "view",
      "type": "function"
    }
  ],
  "bytecode": "0x61012060405266b1a2bc2ec50000600a55670bcbce7f1b150000600e556002600f553480156200002e57600080fd5b50604080518082018252600e81526d4379676e75733a20426f72726f7760901b6020808301918252835180850190945260068085526510de59d554d160d21b918501919091526000805460ff19166001908117909155835193949391928592859285926200009c9262000545565b508151620000b290600290602085019062000545565b5060f81b7fff000000000000000000000000000000000000000000000000000000000000001660805250600090508080620000ea3390565b6001600160a01b031663c3bc64ea6040518163ffffffff1660e01b8152600401608060405180830381600087803b1580156200012557600080fd5b505af192505050801562000158575060408051601f3d908101601f19168201909252620001559181019062000608565b60015b620001e757336001600160a01b0316639a9862366040518163ffffffff1660e01b815260040160c060405180830381600087803b1580156200019957600080fd5b505af1158015620001ae573d6000803e3d6000fd5b505050506040513d601f19601f82011682018060405250810190620001d4919062000659565b50939650919450909250620001f2915050565b929550909350909150505b6001600160601b0319606093841b811660a0529190921b1660e05260c0525060009150819050620002203390565b6001600160a01b0316639a9862366040518163ffffffff1660e01b815260040160c060405180830381600087803b1580156200025b57600080fd5b505af115801562000270573d6000803e3d6000fd5b505050506040513d601f19601f8201168201806040525081019062000296919062000659565b60609390931b6001600160601b03191661010052600f54600e54919750929550620002c9945086935085929150620002e2565b5050670de0b6b3a7640000600955600060035562000748565b620002f8600067016345785d8a000086620003f4565b620003156706f05b59d3b20000670d2f13f7789f000083620003f4565b620003246001600a84620003f4565b620003346301e1338085620006be565b600b55620003606200034b826301e13380620006df565b846200043c60201b62000c641790919060201c565b600c55600f829055600e819055620003a3816200038f85856301e1338062000465602090811b62000c7517901c565b6200043c60201b62000c641790919060201c565b600d556040805185815260208101859052908101839052606081018290527ff58b8cc439edada25fd9495b7364aeb1d737dbef59be1cf62e0cc4001c44a3cd9060800160405180910390a150505050565b828110806200040257508181115b156200043757604051639e7fe3bd60e01b81526004810184905260248101839052604481018290526064015b60405180910390fd5b505050565b60006200045e83670de0b6b3a7640000846200046560201b62000c751760201c565b9392505050565b600080806000198587098587029250828110838203039150508060001415620004b157838281620004a657634e487b7160e01b600052601260045260246000fd5b04925050506200045e565b838110620004dd57604051631dcf306360e21b815260048101829052602481018590526044016200042e565b600084868809600260036001881981018916988990049182028318808302840302808302840302808302840302808302840302808302840302918202909203026000889003889004909101858311909403939093029303949094049190911702949350505050565b82805462000553906200070b565b90600052602060002090601f016020900481019282620005775760008555620005c2565b82601f106200059257805160ff1916838001178555620005c2565b82800160010185558215620005c2579182015b82811115620005c2578251825591602001919060010190620005a5565b50620005d0929150620005d4565b5090565b5b80821115620005d05760008155600101620005d5565b80516001600160a01b03811681146200060357600080fd5b919050565b600080600080608085870312156200061e578384fd5b6200062985620005eb565b93506200063960208601620005eb565b92506200064960408601620005eb565b6060959095015193969295505050565b60008060008060008060c0878903121562000672578182fd5b6200067d87620005eb565b95506200068d60208801620005eb565b94506200069d60408801620005eb565b9350606087015192506080870151915060a087015190509295509295509295565b600082620006da57634e487b7160e01b81526012600452602481fd5b500490565b60008160001904831182151516156200070657634e487b7160e01b81526011600452602481fd5b500290565b600181811c908216806200072057607f821691505b602082108114156200074257634e487b7160e01b600052602260045260246000fd5b50919050565b60805160f81c60a05160601c60c05160e05160601c6101005160601c611800620007c3600039600061045401526000818161037d015281816105c30152818161061a015281816109d301528181610bae0152610f2b015260006103430152600081816104c50152610e04015260006102dd01526118006000f3fe608060405234801561001057600080fd5b50600436106101f05760003560e01c80636e553f651161010f578063ad168c9d116100a2578063d90e026411610071578063d90e026414610476578063da7a2f741461047f578063dd62ed3e14610487578063e8a24e1d146104c057600080fd5b8063ad168c9d14610420578063ad7a672f14610433578063ba0876521461043c578063d8dfeb451461044f57600080fd5b8063926d845b116100de578063926d845b146103e957806395d89b41146103fc5780639b51099814610404578063a9059cbb1461040d57600080fd5b80636e553f65146103655780636f307dc31461037857806370a08231146103b757806372cf84a7146103e057600080fd5b80631e44b7fc1161018757806342bf78af1161015657806342bf78af146103195780634322b7141461032c57806346f608ff146103355780635f77f8911461033e57600080fd5b80631e44b7fc146102b257806323b872dd146102c5578063313ce567146102d85780633ba0b9a91461031157600080fd5b8063182df0f5116101c3578063182df0f5146102785780631aebf12f146102815780631be195601461028a5780631c4469831461029f57600080fd5b806306fdde03146101f5578063095ea7b3146102135780630bdfb1d81461023657806318160ddd1461026f575b600080fd5b6101fd6104e7565b60405161020a91906116a3565b60405180910390f35b6102266102213660046115b2565b610575565b604051901515815260200161020a565b61026161024436600461153a565b601060209081526000928352604080842090915290825290205481565b60405190815260200161020a565b61026160035481565b61026160095481565b610261600e5481565b61029d610298366004611502565b61058c565b005b61029d6102ad3660046115dd565b6106f5565b61029d6102c0366004611672565b610791565b6102266102d3366004611572565b6107e5565b6102ff7f000000000000000000000000000000000000000000000000000000000000000081565b60405160ff909116815260200161020a565b61026161085b565b61029d610327366004611502565b610889565b610261600a5481565b610261600c5481565b6102617f000000000000000000000000000000000000000000000000000000000000000081565b61026161037336600461160d565b61096b565b61039f7f000000000000000000000000000000000000000000000000000000000000000081565b6040516001600160a01b03909116815260200161020a565b6102616103c5366004611502565b6001600160a01b031660009081526004602052604090205490565b610261600d5481565b6102266103f73660046115b2565b610a6e565b6101fd610a7b565b610261600f5481565b61022661041b3660046115b2565b610a88565b60085461039f906001600160a01b031681565b61026160065481565b61026161044a366004611631565b610a95565b61039f7f000000000000000000000000000000000000000000000000000000000000000081565b610261600b5481565b6101fd610c57565b61026161049536600461153a565b6001600160a01b03918216600090815260056020908152604080832093909416825291909152205490565b61039f7f000000000000000000000000000000000000000000000000000000000000000081565b600180546104f490611764565b80601f016020809104026020016040519081016040528092919081815260200182805461052090611764565b801561056d5780601f106105425761010080835404028352916020019161056d565b820191906000526020600020905b81548152906001019060200180831161055057829003601f168201915b505050505081565b6000610582338484610d51565b5060015b92915050565b60005460ff166105af576040516306fda65d60e31b815260040160405180910390fd5b6000805460ff191690556105c1610e00565b7f00000000000000000000000000000000000000000000000000000000000000006001600160a01b0316816001600160a01b0316141561064c576040516303b91a9160e31b81526001600160a01b0380831660048301527f00000000000000000000000000000000000000000000000000000000000000001660248201526044015b60405180910390fd5b6040516370a0823160e01b81523060048201526000906001600160a01b038316906370a082319060240160206040518083038186803b15801561068e57600080fd5b505afa1580156106a2573d6000803e3d6000fd5b505050506040513d601f19601f820116820180604052508101906106c691906115f5565b90506106dc6001600160a01b0383163383610ed2565b506106e5610f16565b506000805460ff19166001179055565b60005460ff16610718576040516306fda65d60e31b815260040160405180910390fd5b6000805460ff1916905561072a610e00565b61073e60006702c68af0bb14000083610fe7565b600a80549082905560408051828152602081018490527faaa68312e2ea9d50e16af5068410ab56e1a1fd06037b1a35664812c30f82146091015b60405180910390a150506000805460ff19166001179055565b60005460ff166107b4576040516306fda65d60e31b815260040160405180910390fd5b6000805460ff191690556107c6610e00565b6107d284848484611028565b50506000805460ff191660011790555050565b60006107f28484846110fd565b6001600160a01b038416600090815260056020908152604080832033845290915290205482811015610841576040516310c6013560e31b81526004810182905260248101849052604401610643565b61084e8533858403610d51565b60019150505b9392505050565b6003546000908015610879576006546108749082610c64565b610883565b670de0b6b3a76400005b91505090565b60005460ff166108ac576040516306fda65d60e31b815260040160405180910390fd5b6000805460ff191690556108be610e00565b6008546001600160a01b038281169116141561090457600854604051635ab3b76b60e01b81526001600160a01b0391821660048201529082166024820152604401610643565b600880546001600160a01b0383811673ffffffffffffffffffffffffffffffffffffffff1983168117909355604080519190921680825260208201939093527f2a0d5dc7fbc8045f59cb33c736f04f9a9b565e9f425912f9cd2bafdebd50cead9101610778565b6000805460ff1661098f576040516306fda65d60e31b815260040160405180910390fd5b6000805460ff191690556109ab6109a461085b565b8490610c64565b9050600081116109ce5760405163f1ca48b160e01b815260040160405180910390fd5b610a037f00000000000000000000000000000000000000000000000000000000000000006001600160a01b0316333086611220565b610a0d828261126e565b60408051848152602081018390526001600160a01b0384169133917fdcbc1c05240f31ff3ad067ef1ee35ce4997762752e3a095284754544f4c709d7910160405180910390a3610a5b610f16565b6000805460ff1916600117905592915050565b6000610582338484611321565b600280546104f490611764565b60006105823384846110fd565b6000805460ff16610ab9576040516306fda65d60e31b815260040160405180910390fd5b6000805460ff19169055336001600160a01b03831614610b31576001600160a01b03821660009081526005602090815260408083203384529091529020546000198114610b2f57610b0a858261174d565b6001600160a01b03841660009081526005602090815260408083203384529091529020555b505b610b43610b3c61085b565b8590611389565b905060008111610b665760405163e3e8d29760e01b815260040160405180910390fd5b600654811115610b97576006546040516339eff09f60e11b8152610643918391600401918252602082015260400190565b610ba18285611395565b610bd56001600160a01b037f0000000000000000000000000000000000000000000000000000000000000000168483610ed2565b816001600160a01b0316836001600160a01b0316610bf03390565b6001600160a01b03167ffbde797d201c681b91056529119e0b02407c7bb96a4a2c75c01fc9667232c8db8488604051610c33929190918252602082015260400190565b60405180910390a4610c43610f16565b6000805460ff191660011790559392505050565b600780546104f490611764565b600061085483670de0b6b3a7640000845b600080806000198587098587029250828110838203039150508060001415610cbe57838281610cb457634e487b7160e01b600052601260045260246000fd5b0492505050610854565b838110610ce857604051631dcf306360e21b81526004810182905260248101859052604401610643565b60008486880960026001871981018816978890046003810283188082028403028082028403028082028403028082028403028082028403029081029092039091026000889003889004909101858311909403939093029303949094049190911702949350505050565b6001600160a01b038316610d78576040516317ba2d8b60e11b815260040160405180910390fd5b6001600160a01b038216610d9f57604051632cc8a69760e11b815260040160405180910390fd5b6001600160a01b0383811660008181526005602090815260408083209487168084529482529182902085905590518481527f8c5be1e5ebec7d5bd14f71427d1e84f3dd0314c0f7b2291e5b200ac8c7c3b925910160405180910390a3505050565b60007f00000000000000000000000000000000000000000000000000000000000000006001600160a01b031663f851a4406040518163ffffffff1660e01b815260040160206040518083038186803b158015610e5b57600080fd5b505afa158015610e6f573d6000803e3d6000fd5b505050506040513d601f19601f82011682018060405250810190610e93919061151e565b9050336001600160a01b03821614610ecf57604051633e7c764160e21b81523360048201526001600160a01b0382166024820152604401610643565b50565b60405163a9059cbb6000528260205281604052602060006044601c6000885af13d156001600051141716610f0e576390b8ec186000526004601cfd5b604052505050565b6040516370a0823160e01b81523060048201527f00000000000000000000000000000000000000000000000000000000000000006001600160a01b0316906370a082319060240160206040518083038186803b158015610f7557600080fd5b505afa158015610f89573d6000803e3d6000fd5b505050506040513d601f19601f82011682018060405250810190610fad91906115f5565b60068190556040519081527f8a0df8ef054fae2c3d2d19a7b322e864870cc9fd3cb07fb9526309c596244bf49060200160405180910390a1565b82811080610ff457508181115b1561102357604051639e7fe3bd60e01b8152600481018490526024810183905260448101829052606401610643565b505050565b61103c600067016345785d8a000086610fe7565b6110576706f05b59d3b20000670d2f13f7789f000083610fe7565b6110646001600a84610fe7565b6110726301e133808561170e565b600b556110866109a4826301e1338061172e565b600c55600f829055600e8190556110ac816110a685856301e13380610c75565b90610c64565b600d556040805185815260208101859052908101839052606081018290527ff58b8cc439edada25fd9495b7364aeb1d737dbef59be1cf62e0cc4001c44a3cd9060800160405180910390a150505050565b6001600160a01b0383166111245760405163618a6e7d60e11b815260040160405180910390fd5b6001600160a01b03821661114b5760405163446ebce960e01b815260040160405180910390fd5b6001600160a01b0383166000908152600460205260409020548181101561118f5760405163355a868d60e01b81526004810182905260248101839052604401610643565b6001600160a01b038085166000908152600460205260408082208585039055918516815290812080548492906111c69084906116f6565b92505081905550826001600160a01b0316846001600160a01b03167fddf252ad1be2c89b69c2b068fc378daa952ba7f163c4a11628f55a4df523b3ef8460405161121291815260200190565b60405180910390a350505050565b6040516323b872dd600052836020528260405281606052602060006064601c6000895af13d15600160005114171661126057637939f4246000526004601cfd5b600060605260405250505050565b6001600160a01b0382166112955760405163237813dd60e01b815260040160405180910390fd5b6001600160a01b038216600090815260046020526040812080548392906112bd9084906116f6565b9250508190555080600360008282546112d691906116f6565b90915550506040518181526001600160a01b038316906000907fddf252ad1be2c89b69c2b068fc378daa952ba7f163c4a11628f55a4df523b3ef906020015b60405180910390a35050565b6001600160a01b038381166000818152601060209081526040808320948716808452948252918290208590558151938452830184905290917fc3c1215b41d54142382d54a05fb991007165ae91bcb1879bac8b290d9111aaf4910160405180910390a2505050565b60006108548383611440565b6001600160a01b0382166113bc57604051630b5da42b60e01b815260040160405180910390fd5b6001600160a01b038216600090815260046020526040812080548392906113e490849061174d565b9250508190555080600360008282546113fd919061174d565b90915550506040518181526000906001600160a01b038416907fddf252ad1be2c89b69c2b068fc378daa952ba7f163c4a11628f55a4df523b3ef90602001611315565b60008080600019848609848602925082811083820303915050670de0b6b3a764000081106114845760405163698d9a0160e11b815260048101829052602401610643565b600080670de0b6b3a76400008688099150506706f05b59d3b1ffff8111826114be5780670de0b6b3a7640000850401945050505050610586565b620400008285030493909111909103600160ee1b02919091177faccb18165bd6fe31ae1cf318dc5b51eee0e1ba569b88cd74c1773b91fac106690201905092915050565b600060208284031215611513578081fd5b8135610854816117b5565b60006020828403121561152f578081fd5b8151610854816117b5565b6000806040838503121561154c578081fd5b8235611557816117b5565b91506020830135611567816117b5565b809150509250929050565b600080600060608486031215611586578081fd5b8335611591816117b5565b925060208401356115a1816117b5565b929592945050506040919091013590565b600080604083850312156115c4578182fd5b82356115cf816117b5565b946020939093013593505050565b6000602082840312156115ee578081fd5b5035919050565b600060208284031215611606578081fd5b5051919050565b6000806040838503121561161f578182fd5b823591506020830135611567816117b5565b600080600060608486031215611645578283fd5b833592506020840135611657816117b5565b91506040840135611667816117b5565b809150509250925092565b60008060008060808587031215611687578081fd5b5050823594602084013594506040840135936060013592509050565b6000602080835283518082850152825b818110156116cf578581018301518582016040015282016116b3565b818111156116e05783604083870101525b50601f01601f1916929092016040019392505050565b600082198211156117095761170961179f565b500190565b60008261172957634e487b7160e01b81526012600452602481fd5b500490565b60008160001904831182151516156117485761174861179f565b500290565b60008282101561175f5761175f61179f565b500390565b600181811c9082168061177857607f821691505b6020821081141561179957634e487b7160e01b600052602260045260246000fd5b50919050565b634e487b7160e01b600052601160045260246000fd5b6001600160a01b0381168114610ecf57600080fdfea2646970667358221220b01a9c7e09c8b9ae0eff86e4bd2554736d26f4ae8b2ad77ea42f1e0a6f975ce564736f6c63430008040033",
  "linkReferences": {},
  "deployedLinkReferences": {}
}