{
  "_format": "hh-sol-artifact-1",
  "contractName": "CygnusCollateral",
  "sourceName": "contracts/cygnus-core/CygnusCollateral.sol",
  "abi": [
    {
      "inputs": [],
      "name": "CygnusCollateralControl__ParameterNotInRange",
      "type": "error"
    },
    {
      "inputs": [
        {
          "internalType": "address",
          "name": "sender",
          "type": "address"
        },
        {
          "internalType": "address",
          "name": "origin",
          "type": "address"
        }
      ],
      "name": "CygnusCollateralModel__BorrowerCantBeAddressZero",
      "type": "error"
    },
    {
      "inputs": [],
      "name": "CygnusCollateralModel__PriceCantBeZero",
      "type": "error"
    },
    {
      "inputs": [],
      "name": "CygnusCollateralVoid__OnlyHarvesterAllowed",
      "type": "error"
    },
    {
      "inputs": [],
      "name": "CygnusCollateral__CantLiquidateZero",
      "type": "error"
    },
    {
      "inputs": [],
      "name": "CygnusCollateral__CantRedeemZero",
      "type": "error"
    },
    {
      "inputs": [],
      "name": "CygnusCollateral__InsufficientLiquidity",
      "type": "error"
    },
    {
      "inputs": [],
      "name": "CygnusCollateral__InsufficientRedeemAmount",
      "type": "error"
    },
    {
      "inputs": [],
      "name": "CygnusCollateral__MsgSenderNotBorrowable",
      "type": "error"
    },
    {
      "inputs": [],
      "name": "CygnusCollateral__NotLiquidatable",
      "type": "error"
    },
    {
      "inputs": [],
      "name": "CygnusCollateral__RedeemAmountInvalid",
      "type": "error"
    },
    {
      "inputs": [],
      "name": "CygnusTerminal__CantMintZeroShares",
      "type": "error"
    },
    {
      "inputs": [],
      "name": "CygnusTerminal__CantRedeemZeroAssets",
      "type": "error"
    },
    {
      "inputs": [],
      "name": "CygnusTerminal__CantSweepUnderlying",
      "type": "error"
    },
    {
      "inputs": [],
      "name": "CygnusTerminal__MsgSenderNotAdmin",
      "type": "error"
    },
    {
      "inputs": [
        {
          "internalType": "address",
          "name": "owner",
          "type": "address"
        },
        {
          "internalType": "uint8",
          "name": "v",
          "type": "uint8"
        },
        {
          "internalType": "bytes32",
          "name": "r",
          "type": "bytes32"
        },
        {
          "internalType": "bytes32",
          "name": "s",
          "type": "bytes32"
        }
      ],
      "name": "ERC20Permit_InvalidSignature",
      "type": "error"
    },
    {
      "inputs": [],
      "name": "ERC20Permit_OwnerZeroAddress",
      "type": "error"
    },
    {
      "inputs": [
        {
          "internalType": "uint256",
          "name": "currentTime",
          "type": "uint256"
        },
        {
          "internalType": "uint256",
          "name": "deadline",
          "type": "uint256"
        }
      ],
      "name": "ERC20Permit_PermitExpired",
      "type": "error"
    },
    {
      "inputs": [],
      "name": "ERC20Permit_RecoveredOwnerZeroAddress",
      "type": "error"
    },
    {
      "inputs": [],
      "name": "ERC20Permit_SpenderZeroAddress",
      "type": "error"
    },
    {
      "inputs": [],
      "name": "ERC20_ApproveOwnerZeroAddress",
      "type": "error"
    },
    {
      "inputs": [],
      "name": "ERC20_ApproveSpenderZeroAddress",
      "type": "error"
    },
    {
      "inputs": [],
      "name": "ERC20_BurnHolderZeroAddress",
      "type": "error"
    },
    {
      "inputs": [
        {
          "internalType": "uint256",
          "name": "senderBalance",
          "type": "uint256"
        },
        {
          "internalType": "uint256",
          "name": "transferAmount",
          "type": "uint256"
        }
      ],
      "name": "ERC20_FromInsufficientBalance",
      "type": "error"
    },
    {
      "inputs": [
        {
          "internalType": "address",
          "name": "owner",
          "type": "address"
        },
        {
          "internalType": "address",
          "name": "spender",
          "type": "address"
        },
        {
          "internalType": "uint256",
          "name": "allowance",
          "type": "uint256"
        },
        {
          "internalType": "uint256",
          "name": "transferAmount",
          "type": "uint256"
        }
      ],
      "name": "ERC20_InsufficientAllowance",
      "type": "error"
    },
    {
      "inputs": [],
      "name": "ERC20_MintBeneficiaryZeroAddress",
      "type": "error"
    },
    {
      "inputs": [],
      "name": "ERC20_TransferFromZeroAddress",
      "type": "error"
    },
    {
      "inputs": [],
      "name": "ERC20_TransferToZeroAddress",
      "type": "error"
    },
    {
      "inputs": [],
      "name": "ReentrantCall",
      "type": "error"
    },
    {
      "anonymous": false,
      "inputs": [
        {
          "indexed": true,
          "internalType": "address",
          "name": "owner",
          "type": "address"
        },
        {
          "indexed": true,
          "internalType": "address",
          "name": "spender",
          "type": "address"
        },
        {
          "indexed": false,
          "internalType": "uint256",
          "name": "value",
          "type": "uint256"
        }
      ],
      "name": "Approval",
      "type": "event"
    },
    {
      "anonymous": false,
      "inputs": [
        {
          "indexed": false,
          "internalType": "address",
          "name": "underlying",
          "type": "address"
        },
        {
          "indexed": false,
          "internalType": "uint256",
          "name": "shuttleId",
          "type": "uint256"
        },
        {
          "indexed": false,
          "internalType": "address",
          "name": "sender",
          "type": "address"
        }
      ],
      "name": "ChargeVoid",
      "type": "event"
    },
    {
      "anonymous": false,
      "inputs": [
        {
          "indexed": true,
          "internalType": "address",
          "name": "sender",
          "type": "address"
        },
        {
          "indexed": true,
          "internalType": "address",
          "name": "recipient",
          "type": "address"
        },
        {
          "indexed": false,
          "internalType": "uint256",
          "name": "assets",
          "type": "uint256"
        },
        {
          "indexed": false,
          "internalType": "uint256",
          "name": "shares",
          "type": "uint256"
        }
      ],
      "name": "Deposit",
      "type": "event"
    },
    {
      "anonymous": false,
      "inputs": [
        {
          "indexed": false,
          "internalType": "uint256",
          "name": "oldDebtRatio",
          "type": "uint256"
        },
        {
          "indexed": false,
          "internalType": "uint256",
          "name": "newDebtRatio",
          "type": "uint256"
        }
      ],
      "name": "NewDebtRatio",
      "type": "event"
    },
    {
      "anonymous": false,
      "inputs": [
        {
          "indexed": false,
          "internalType": "contract ICygnusHarvester",
          "name": "oldHarvester",
          "type": "address"
        },
        {
          "indexed": false,
          "internalType": "contract ICygnusHarvester",
          "name": "newHarvester",
          "type": "address"
        }
      ],
      "name": "NewHarvester",
      "type": "event"
    },
    {
      "anonymous": false,
      "inputs": [
        {
          "indexed": false,
          "internalType": "uint256",
          "name": "oldLiquidationFee",
          "type": "uint256"
        },
        {
          "indexed": false,
          "internalType": "uint256",
          "name": "newLiquidationFee",
          "type": "uint256"
        }
      ],
      "name": "NewLiquidationFee",
      "type": "event"
    },
    {
      "anonymous": false,
      "inputs": [
        {
          "indexed": false,
          "internalType": "uint256",
          "name": "oldLiquidationIncentive",
          "type": "uint256"
        },
        {
          "indexed": false,
          "internalType": "uint256",
          "name": "newLiquidationIncentive",
          "type": "uint256"
        }
      ],
      "name": "NewLiquidationIncentive",
      "type": "event"
    },
    {
      "anonymous": false,
      "inputs": [
        {
          "indexed": true,
          "internalType": "address",
          "name": "reinvestor",
          "type": "address"
        },
        {
          "indexed": false,
          "internalType": "uint256",
          "name": "liquidity",
          "type": "uint256"
        },
        {
          "indexed": false,
          "internalType": "uint256",
          "name": "timestamp",
          "type": "uint256"
        }
      ],
      "name": "RechargeVoid",
      "type": "event"
    },
    {
      "anonymous": false,
      "inputs": [
        {
          "indexed": false,
          "internalType": "uint160",
          "name": "totalBalance",
          "type": "uint160"
        }
      ],
      "name": "Sync",
      "type": "event"
    },
    {
      "anonymous": false,
      "inputs": [
        {
          "indexed": true,
          "internalType": "address",
          "name": "from",
          "type": "address"
        },
        {
          "indexed": true,
          "internalType": "address",
          "name": "to",
          "type": "address"
        },
        {
          "indexed": false,
          "internalType": "uint256",
          "name": "amount",
          "type": "uint256"
        }
      ],
      "name": "Transfer",
      "type": "event"
    },
    {
      "anonymous": false,
      "inputs": [
        {
          "indexed": true,
          "internalType": "address",
          "name": "sender",
          "type": "address"
        },
        {
          "indexed": true,
          "internalType": "address",
          "name": "recipient",
          "type": "address"
        },
        {
          "indexed": true,
          "internalType": "address",
          "name": "owner",
          "type": "address"
        },
        {
          "indexed": false,
          "internalType": "uint256",
          "name": "assets",
          "type": "uint256"
        },
        {
          "indexed": false,
          "internalType": "uint256",
          "name": "shares",
          "type": "uint256"
        }
      ],
      "name": "Withdraw",
      "type": "event"
    },
    {
      "inputs": [],
      "name": "DOMAIN_SEPARATOR",
      "outputs": [
        {
          "internalType": "bytes32",
          "name": "",
          "type": "bytes32"
        }
      ],
      "stateMutability": "view",
      "type": "function"
    },
    {
      "inputs": [],
      "name": "PERMIT2",
      "outputs": [
        {
          "internalType": "contract IAllowanceTransfer",
          "name": "",
          "type": "address"
        }
      ],
      "stateMutability": "view",
      "type": "function"
    },
    {
      "inputs": [],
      "name": "PERMIT_TYPEHASH",
      "outputs": [
        {
          "internalType": "bytes32",
          "name": "",
          "type": "bytes32"
        }
      ],
      "stateMutability": "view",
      "type": "function"
    },
    {
      "inputs": [
        {
          "internalType": "address",
          "name": "owner",
          "type": "address"
        },
        {
          "internalType": "address",
          "name": "spender",
          "type": "address"
        }
      ],
      "name": "allowance",
      "outputs": [
        {
          "internalType": "uint256",
          "name": "",
          "type": "uint256"
        }
      ],
      "stateMutability": "view",
      "type": "function"
    },
    {
      "inputs": [
        {
          "internalType": "address",
          "name": "spender",
          "type": "address"
        },
        {
          "internalType": "uint256",
          "name": "value",
          "type": "uint256"
        }
      ],
      "name": "approve",
      "outputs": [
        {
          "internalType": "bool",
          "name": "",
          "type": "bool"
        }
      ],
      "stateMutability": "nonpayable",
      "type": "function"
    },
    {
      "inputs": [
        {
          "internalType": "address",
          "name": "account",
          "type": "address"
        }
      ],
      "name": "balanceOf",
      "outputs": [
        {
          "internalType": "uint256",
          "name": "",
          "type": "uint256"
        }
      ],
      "stateMutability": "view",
      "type": "function"
    },
    {
      "inputs": [],
      "name": "borrowable",
      "outputs": [
        {
          "internalType": "address",
          "name": "",
          "type": "address"
        }
      ],
      "stateMutability": "view",
      "type": "function"
    },
    {
      "inputs": [
        {
          "internalType": "address",
          "name": "borrower",
          "type": "address"
        },
        {
          "internalType": "uint256",
          "name": "borrowAmount",
          "type": "uint256"
        }
      ],
      "name": "canBorrow",
      "outputs": [
        {
          "internalType": "bool",
          "name": "",
          "type": "bool"
        }
      ],
      "stateMutability": "view",
      "type": "function"
    },
    {
      "inputs": [
        {
          "internalType": "address",
          "name": "borrower",
          "type": "address"
        },
        {
          "internalType": "uint256",
          "name": "redeemAmount",
          "type": "uint256"
        }
      ],
      "name": "canRedeem",
      "outputs": [
        {
          "internalType": "bool",
          "name": "",
          "type": "bool"
        }
      ],
      "stateMutability": "view",
      "type": "function"
    },
    {
      "inputs": [],
      "name": "chargeVoid",
      "outputs": [],
      "stateMutability": "nonpayable",
      "type": "function"
    },
    {
      "inputs": [],
      "name": "cygnusNebulaOracle",
      "outputs": [
        {
          "internalType": "contract ICygnusNebulaOracle",
          "name": "",
          "type": "address"
        }
      ],
      "stateMutability": "view",
      "type": "function"
    },
    {
      "inputs": [],
      "name": "debtRatio",
      "outputs": [
        {
          "internalType": "uint256",
          "name": "",
          "type": "uint256"
        }
      ],
      "stateMutability": "view",
      "type": "function"
    },
    {
      "inputs": [],
      "name": "decimals",
      "outputs": [
        {
          "internalType": "uint8",
          "name": "",
          "type": "uint8"
        }
      ],
      "stateMutability": "view",
      "type": "function"
    },
    {
      "inputs": [
        {
          "internalType": "address",
          "name": "spender",
          "type": "address"
        },
        {
          "internalType": "uint256",
          "name": "value",
          "type": "uint256"
        }
      ],
      "name": "decreaseAllowance",
      "outputs": [
        {
          "internalType": "bool",
          "name": "",
          "type": "bool"
        }
      ],
      "stateMutability": "nonpayable",
      "type": "function"
    },
    {
      "inputs": [
        {
          "internalType": "uint256",
          "name": "assets",
          "type": "uint256"
        },
        {
          "internalType": "address",
          "name": "recipient",
          "type": "address"
        },
        {
          "components": [
            {
              "components": [
                {
                  "internalType": "address",
                  "name": "token",
                  "type": "address"
                },
                {
                  "internalType": "uint160",
                  "name": "amount",
                  "type": "uint160"
                },
                {
                  "internalType": "uint48",
                  "name": "expiration",
                  "type": "uint48"
                },
                {
                  "internalType": "uint48",
                  "name": "nonce",
                  "type": "uint48"
                }
              ],
              "internalType": "struct IAllowanceTransfer.PermitDetails",
              "name": "details",
              "type": "tuple"
            },
            {
              "internalType": "address",
              "name": "spender",
              "type": "address"
            },
            {
              "internalType": "uint256",
              "name": "sigDeadline",
              "type": "uint256"
            }
          ],
          "internalType": "struct IAllowanceTransfer.PermitSingle",
          "name": "_permit",
          "type": "tuple"
        },
        {
          "internalType": "bytes",
          "name": "signature",
          "type": "bytes"
        }
      ],
      "name": "deposit",
      "outputs": [
        {
          "internalType": "uint256",
          "name": "shares",
          "type": "uint256"
        }
      ],
      "stateMutability": "nonpayable",
      "type": "function"
    },
    {
      "inputs": [],
      "name": "exchangeRate",
      "outputs": [
        {
          "internalType": "uint256",
          "name": "",
          "type": "uint256"
        }
      ],
      "stateMutability": "view",
      "type": "function"
    },
    {
      "inputs": [
        {
          "internalType": "address",
          "name": "redeemer",
          "type": "address"
        },
        {
          "internalType": "uint256",
          "name": "assets",
          "type": "uint256"
        },
        {
          "internalType": "bytes",
          "name": "data",
          "type": "bytes"
        }
      ],
      "name": "flashRedeemAltair",
      "outputs": [],
      "stateMutability": "nonpayable",
      "type": "function"
    },
    {
      "inputs": [
        {
          "internalType": "address",
          "name": "borrower",
          "type": "address"
        }
      ],
      "name": "getAccountLiquidity",
      "outputs": [
        {
          "internalType": "uint256",
          "name": "liquidity",
          "type": "uint256"
        },
        {
          "internalType": "uint256",
          "name": "shortfall",
          "type": "uint256"
        }
      ],
      "stateMutability": "view",
      "type": "function"
    },
    {
      "inputs": [
        {
          "internalType": "address",
          "name": "borrower",
          "type": "address"
        }
      ],
      "name": "getDebtRatio",
      "outputs": [
        {
          "internalType": "uint256",
          "name": "",
          "type": "uint256"
        }
      ],
      "stateMutability": "view",
      "type": "function"
    },
    {
      "inputs": [],
      "name": "getLPTokenPrice",
      "outputs": [
        {
          "internalType": "uint256",
          "name": "price",
          "type": "uint256"
        }
      ],
      "stateMutability": "view",
      "type": "function"
    },
    {
      "inputs": [],
      "name": "getRewards",
      "outputs": [
        {
          "internalType": "address[]",
          "name": "tokens",
          "type": "address[]"
        },
        {
          "internalType": "uint256[]",
          "name": "amounts",
          "type": "uint256[]"
        }
      ],
      "stateMutability": "nonpayable",
      "type": "function"
    },
    {
      "inputs": [],
      "name": "hangar18",
      "outputs": [
        {
          "internalType": "contract IHangar18",
          "name": "",
          "type": "address"
        }
      ],
      "stateMutability": "view",
      "type": "function"
    },
    {
      "inputs": [],
      "name": "harvester",
      "outputs": [
        {
          "internalType": "contract ICygnusHarvester",
          "name": "",
          "type": "address"
        }
      ],
      "stateMutability": "view",
      "type": "function"
    },
    {
      "inputs": [
        {
          "internalType": "address",
          "name": "spender",
          "type": "address"
        },
        {
          "internalType": "uint256",
          "name": "value",
          "type": "uint256"
        }
      ],
      "name": "increaseAllowance",
      "outputs": [
        {
          "internalType": "bool",
          "name": "",
          "type": "bool"
        }
      ],
      "stateMutability": "nonpayable",
      "type": "function"
    },
    {
      "inputs": [],
      "name": "lastReinvest",
      "outputs": [
        {
          "internalType": "uint256",
          "name": "",
          "type": "uint256"
        }
      ],
      "stateMutability": "view",
      "type": "function"
    },
    {
      "inputs": [],
      "name": "liquidationFee",
      "outputs": [
        {
          "internalType": "uint256",
          "name": "",
          "type": "uint256"
        }
      ],
      "stateMutability": "view",
      "type": "function"
    },
    {
      "inputs": [],
      "name": "liquidationIncentive",
      "outputs": [
        {
          "internalType": "uint256",
          "name": "",
          "type": "uint256"
        }
      ],
      "stateMutability": "view",
      "type": "function"
    },
    {
      "inputs": [],
      "name": "name",
      "outputs": [
        {
          "internalType": "string",
          "name": "",
          "type": "string"
        }
      ],
      "stateMutability": "view",
      "type": "function"
    },
    {
      "inputs": [
        {
          "internalType": "address",
          "name": "",
          "type": "address"
        }
      ],
      "name": "nonces",
      "outputs": [
        {
          "internalType": "uint256",
          "name": "",
          "type": "uint256"
        }
      ],
      "stateMutability": "view",
      "type": "function"
    },
    {
      "inputs": [
        {
          "internalType": "address",
          "name": "owner",
          "type": "address"
        },
        {
          "internalType": "address",
          "name": "spender",
          "type": "address"
        },
        {
          "internalType": "uint256",
          "name": "value",
          "type": "uint256"
        },
        {
          "internalType": "uint256",
          "name": "deadline",
          "type": "uint256"
        },
        {
          "internalType": "uint8",
          "name": "v",
          "type": "uint8"
        },
        {
          "internalType": "bytes32",
          "name": "r",
          "type": "bytes32"
        },
        {
          "internalType": "bytes32",
          "name": "s",
          "type": "bytes32"
        }
      ],
      "name": "permit",
      "outputs": [],
      "stateMutability": "nonpayable",
      "type": "function"
    },
    {
      "inputs": [
        {
          "internalType": "uint256",
          "name": "shares",
          "type": "uint256"
        },
        {
          "internalType": "address",
          "name": "recipient",
          "type": "address"
        },
        {
          "internalType": "address",
          "name": "owner",
          "type": "address"
        }
      ],
      "name": "redeem",
      "outputs": [
        {
          "internalType": "uint256",
          "name": "assets",
          "type": "uint256"
        }
      ],
      "stateMutability": "nonpayable",
      "type": "function"
    },
    {
      "inputs": [
        {
          "internalType": "uint256",
          "name": "liquidity",
          "type": "uint256"
        }
      ],
      "name": "reinvestRewards_y7b",
      "outputs": [],
      "stateMutability": "nonpayable",
      "type": "function"
    },
    {
      "inputs": [],
      "name": "rewardToken",
      "outputs": [
        {
          "internalType": "address",
          "name": "",
          "type": "address"
        }
      ],
      "stateMutability": "pure",
      "type": "function"
    },
    {
      "inputs": [],
      "name": "rewarder",
      "outputs": [
        {
          "internalType": "address",
          "name": "",
          "type": "address"
        }
      ],
      "stateMutability": "pure",
      "type": "function"
    },
    {
      "inputs": [
        {
          "internalType": "address",
          "name": "liquidator",
          "type": "address"
        },
        {
          "internalType": "address",
          "name": "borrower",
          "type": "address"
        },
        {
          "internalType": "uint256",
          "name": "repayAmount",
          "type": "uint256"
        }
      ],
      "name": "seizeCygLP",
      "outputs": [
        {
          "internalType": "uint256",
          "name": "cygLPAmount",
          "type": "uint256"
        }
      ],
      "stateMutability": "nonpayable",
      "type": "function"
    },
    {
      "inputs": [
        {
          "internalType": "uint256",
          "name": "newDebtRatio",
          "type": "uint256"
        }
      ],
      "name": "setDebtRatio",
      "outputs": [],
      "stateMutability": "nonpayable",
      "type": "function"
    },
    {
      "inputs": [
        {
          "internalType": "contract ICygnusHarvester",
          "name": "_harvester",
          "type": "address"
        }
      ],
      "name": "setHarvester",
      "outputs": [],
      "stateMutability": "nonpayable",
      "type": "function"
    },
    {
      "inputs": [
        {
          "internalType": "uint256",
          "name": "newLiquidationFee",
          "type": "uint256"
        }
      ],
      "name": "setLiquidationFee",
      "outputs": [],
      "stateMutability": "nonpayable",
      "type": "function"
    },
    {
      "inputs": [
        {
          "internalType": "uint256",
          "name": "newLiquidationIncentive",
          "type": "uint256"
        }
      ],
      "name": "setLiquidationIncentive",
      "outputs": [],
      "stateMutability": "nonpayable",
      "type": "function"
    },
    {
      "inputs": [],
      "name": "shuttleId",
      "outputs": [
        {
          "internalType": "uint256",
          "name": "",
          "type": "uint256"
        }
      ],
      "stateMutability": "view",
      "type": "function"
    },
    {
      "inputs": [
        {
          "internalType": "address",
          "name": "token",
          "type": "address"
        }
      ],
      "name": "sweepToken",
      "outputs": [],
      "stateMutability": "nonpayable",
      "type": "function"
    },
    {
      "inputs": [],
      "name": "symbol",
      "outputs": [
        {
          "internalType": "string",
          "name": "",
          "type": "string"
        }
      ],
      "stateMutability": "view",
      "type": "function"
    },
    {
      "inputs": [],
      "name": "sync",
      "outputs": [],
      "stateMutability": "nonpayable",
      "type": "function"
    },
    {
      "inputs": [],
      "name": "totalBalance",
      "outputs": [
        {
          "internalType": "uint160",
          "name": "",
          "type": "uint160"
        }
      ],
      "stateMutability": "view",
      "type": "function"
    },
    {
      "inputs": [],
      "name": "totalSupply",
      "outputs": [
        {
          "internalType": "uint256",
          "name": "",
          "type": "uint256"
        }
      ],
      "stateMutability": "view",
      "type": "function"
    },
    {
      "inputs": [
        {
          "internalType": "address",
          "name": "to",
          "type": "address"
        },
        {
          "internalType": "uint256",
          "name": "amount",
          "type": "uint256"
        }
      ],
      "name": "transfer",
      "outputs": [
        {
          "internalType": "bool",
          "name": "",
          "type": "bool"
        }
      ],
      "stateMutability": "nonpayable",
      "type": "function"
    },
    {
      "inputs": [
        {
          "internalType": "address",
          "name": "from",
          "type": "address"
        },
        {
          "internalType": "address",
          "name": "to",
          "type": "address"
        },
        {
          "internalType": "uint256",
          "name": "amount",
          "type": "uint256"
        }
      ],
      "name": "transferFrom",
      "outputs": [
        {
          "internalType": "bool",
          "name": "",
          "type": "bool"
        }
      ],
      "stateMutability": "nonpayable",
      "type": "function"
    },
    {
      "inputs": [],
      "name": "underlying",
      "outputs": [
        {
          "internalType": "address",
          "name": "",
          "type": "address"
        }
      ],
      "stateMutability": "view",
      "type": "function"
    },
    {
      "inputs": [],
      "name": "version",
      "outputs": [
        {
          "internalType": "string",
          "name": "",
          "type": "string"
        }
      ],
      "stateMutability": "view",
      "type": "function"
    }
  ],
  "bytecode": "0x610140604052670d2f13f7789f0000600855670e5d0f042e878000600955600019600b553480156200003057600080fd5b5060405146907f8b73c3c69bb8fe3d512ecc4cf759cc79239f7b179b0ffacaa9a75d522b39400f90620000669060009062000385565b60408051918290038220828201825260018352603160f81b6020938401528151928301939093528101919091527fc89efdaa54c0f20c7adf612882df0950f5a951637e0307cdcb4c672f298b8bc66060820152608081018290523060a082015260c00160408051601f1981840301815282825280516020909101206080526007805460ff19166001179055635a412e5360e01b825251339250635a412e539160048082019260a09290919082900301816000875af11580156200012d573d6000803e3d6000fd5b505050506040513d601f19601f820116820180604052508101906200015391906200041c565b610100526001600160a01b0390811660c05291821660e052501660a090815260408051635a412e5360e01b8152905160009283923392635a412e5392600480840193919291829003018187875af1158015620001b3573d6000803e3d6000fd5b505050506040513d601f19601f82011682018060405250810190620001d991906200041c565b505092509250506040518060400160405280601281526020017110de59db9d5cce8810dbdb1b185d195c985b60721b815250600090816200021b9190620004f9565b50816001600160a01b03166395d89b416040518163ffffffff1660e01b8152600401600060405180830381865afa1580156200025b573d6000803e3d6000fd5b505050506040513d6000823e601f3d908101601f19168201604052620002859190810190620005eb565b604051602001620002979190620006a3565b60405160208183030381529060405260019081620002b69190620004f9565b50816001600160a01b031663313ce5676040518163ffffffff1660e01b8152600401602060405180830381865afa158015620002f6573d6000803e3d6000fd5b505050506040513d601f19601f820116820180604052508101906200031c9190620006d4565b6002805460ff191660ff929092169190911790556001600160a01b03166101205250600060035562000700565b600181811c908216806200035e57607f821691505b6020821081036200037f57634e487b7160e01b600052602260045260246000fd5b50919050565b6000808354620003958162000349565b60018281168015620003b05760018114620003c657620003f7565b60ff1984168752821515830287019450620003f7565b8760005260208060002060005b85811015620003ee5781548a820152908401908201620003d3565b50505082870194505b50929695505050505050565b6001600160a01b03811681146200041957600080fd5b50565b600080600080600060a086880312156200043557600080fd5b8551620004428162000403565b6020870151909550620004558162000403565b6040870151909450620004688162000403565b60608701519093506200047b8162000403565b80925050608086015190509295509295909350565b634e487b7160e01b600052604160045260246000fd5b601f821115620004f457600081815260208120601f850160051c81016020861015620004cf5750805b601f850160051c820191505b81811015620004f057828155600101620004db565b5050505b505050565b81516001600160401b0381111562000515576200051562000490565b6200052d8162000526845462000349565b84620004a6565b602080601f8311600181146200056557600084156200054c5750858301515b600019600386901b1c1916600185901b178555620004f0565b600085815260208120601f198616915b82811015620005965788860151825594840194600190910190840162000575565b5085821015620005b55787850151600019600388901b60f8161c191681555b5050505050600190811b01905550565b60005b83811015620005e2578181015183820152602001620005c8565b50506000910152565b600060208284031215620005fe57600080fd5b81516001600160401b03808211156200061657600080fd5b818401915084601f8301126200062b57600080fd5b81518181111562000640576200064062000490565b604051601f8201601f19908116603f011681019083821181831017156200066b576200066b62000490565b816040528281528760208487010111156200068557600080fd5b62000698836020830160208801620005c5565b979650505050505050565b66021bcb3a6281d160cd1b815260008251620006c7816007850160208701620005c5565b9190910160070192915050565b600060208284031215620006e757600080fd5b815160ff81168114620006f957600080fd5b9392505050565b60805160a05160c05160e05161010051610120516133f2620007ce600039600081816107480152818161082d015281816111d5015281816118b601526125d90152600081816104f001526117e701526000818161052d01528181610a3d01528181610b4501528181610cf101528181610fa1015281816115570152818161171c01528181611779015281816117bb0152611cea0152600081816106a70152610d1c0152600081816107210152818161131f015261239a0152600081816104330152611a6301526133f26000f3fe608060405234801561001057600080fd5b506004361061032b5760003560e01c80638c765e94116101b2578063cea55f57116100f9578063e8a24e1d116100a2578063f7c618c11161007c578063f7c618c11461077d578063fa14fdc214610797578063fef0bec8146107aa578063fff6cae9146107bd57600080fd5b8063e8a24e1d1461071c578063e99a6ac714610743578063eb6a887d1461076a57600080fd5b8063d935bd92116100d3578063d935bd92146106a2578063dcc3e06e146106c9578063dd62ed3e146106e357600080fd5b8063cea55f5714610673578063cf8c8c441461067c578063d505accf1461068f57600080fd5b8063ad7a672f1161015b578063ba08765211610135578063ba08765214610645578063bcbc332014610658578063cc1f8ffa1461066057600080fd5b8063ad7a672f14610611578063b4ebbda414610629578063b5f3c95b1461063c57600080fd5b8063a457c2d71161018c578063a457c2d7146105d8578063a8431081146105eb578063a9059cbb146105fe57600080fd5b80638c765e94146105be57806395d89b41146105c7578063a36a3630146105cf57600080fd5b80633ba0b9a9116102765780636afdd8501161021f5780637ecebe00116101f95780637ecebe001461057857806381f5b6f4146105985780638808e71c146105ab57600080fd5b80636afdd850146105125780636f307dc31461052857806370a082311461054f57600080fd5b806354fd4d501161025057806354fd4d50146104a35780635ec88c79146104c35780635f77f891146104eb57600080fd5b80633ba0b9a9146104685780634bdaeac114610470578063513036221461049b57600080fd5b80631be19560116102d8578063313ce567116102b2578063313ce5671461040f5780633644e5151461042e578063395093511461045557600080fd5b80631be19560146103c257806323b872dd146103d557806330adf81f146103e857600080fd5b8063095ea7b311610309578063095ea7b31461038157806315de1daa146103a457806318160ddd146103b957600080fd5b8063031a5c82146103305780630572b0cc1461035657806306fdde031461036c575b600080fd5b61034361033e366004612c4a565b6107c5565b6040519081526020015b60405180910390f35b61035e6108ef565b60405161034d929190612c6e565b61037461093e565b60405161034d9190612cf2565b61039461038f366004612d40565b6109cc565b604051901515815260200161034d565b6103b76103b2366004612c4a565b6109e3565b005b61034360035481565b6103b76103d0366004612c4a565b610b0e565b6103946103e3366004612d6c565b610bc7565b6103437f6e71edae12b1b97f4d1f60370fef10105fa2faae0126114a169c64845d6126c981565b60025461041c9060ff1681565b60405160ff909116815260200161034d565b6103437f000000000000000000000000000000000000000000000000000000000000000081565b610394610463366004612d40565b610c56565b610343610c9e565b600c54610483906001600160a01b031681565b6040516001600160a01b03909116815260200161034d565b610343610cda565b610374604051806040016040528060018152602001603160f81b81525081565b6104d66104d1366004612c4a565b610daf565b6040805192835260208301919091520161034d565b6103437f000000000000000000000000000000000000000000000000000000000000000081565b6104836e22d473030f116ddee9f6b43ac78ba381565b6104837f000000000000000000000000000000000000000000000000000000000000000081565b61034361055d366004612c4a565b6001600160a01b031660009081526005602052604090205490565b610343610586366004612c4a565b60066020526000908152604090205481565b6103b76105a6366004612dad565b610dc7565b6103436105b9366004612e08565b610e87565b61034360095481565b6103746110e6565b610343600a5481565b6103946105e6366004612d40565b6110f3565b6103b76105f9366004612dad565b611124565b61039461060c366004612d40565b61118d565b6007546104839061010090046001600160a01b031681565b610343610637366004612d6c565b61119a565b610343600d5481565b610343610653366004612e87565b611464565b6103b76115e5565b61039461066e366004612d40565b61184b565b61034360085481565b61039461068a366004612d40565b61193d565b6103b761069d366004612ec9565b611954565b6104837f000000000000000000000000000000000000000000000000000000000000000081565b73b25157bf349295a7cd31d1751973f426182070d6610483565b6103436106f1366004612f40565b6001600160a01b03918216600090815260046020908152604080832093909416825291909152205490565b6104837f000000000000000000000000000000000000000000000000000000000000000081565b6104837f000000000000000000000000000000000000000000000000000000000000000081565b6103b7610778366004612dad565b611bf7565b733eaeb77b03dbc0f6321ae1b72b2e9adb0f60112b610483565b6103b76107a5366004612f79565b611c58565b6103b76107b8366004612dad565b611de9565b6103b7611e43565b6000806107f26107d3610c9e565b6001600160a01b03851660009081526005602052604090205490611e87565b90506000610808610801610cda565b8390611e87565b604051637d6af07960e01b81526001600160a01b0386811660048301529192506000917f00000000000000000000000000000000000000000000000000000000000000001690637d6af07990602401602060405180830381865afa158015610874573d6000803e3d6000fd5b505050506040513d601f19601f820116820180604052508101906108989190612fd5565b905060006108b6600a546009546108af9190613004565b8390611eb5565b905082156108e2576108dd6108d660085485611e8790919063ffffffff16565b8290611eeb565b6108e5565b60005b9695505050505050565b600754606090819060ff16610917576040516306fda65d60e31b815260040160405180910390fd5b6007805460ff19169055610929611f3a565b915091506007805460ff191660011790559091565b6000805461094b90613017565b80601f016020809104026020016040519081016040528092919081815260200182805461097790613017565b80156109c45780601f10610999576101008083540402835291602001916109c4565b820191906000526020600020905b8154815290600101906020018083116109a757829003601f168201915b505050505081565b60006109d93384846122e7565b5060015b92915050565b6109eb612396565b600c80546001600160a01b038381167fffffffffffffffffffffffff0000000000000000000000000000000000000000831617909255166000610a2c611f3a565b50905060005b8151811015610ac5577f00000000000000000000000000000000000000000000000000000000000000006001600160a01b0316828281518110610a7757610a7761304b565b60200260200101516001600160a01b031614610ab357610ab3828281518110610aa257610aa261304b565b602002602001015185600019612448565b80610abd81613061565b915050610a32565b50604080516001600160a01b038085168252851660208201527f6a97a9e954ae4ef4c8ecc6c7dd8a1cbe668254132294ceb515db9a2e4faad7f5910160405180910390a1505050565b60075460ff16610b31576040516306fda65d60e31b815260040160405180910390fd5b6007805460ff19169055610b43612396565b7f00000000000000000000000000000000000000000000000000000000000000006001600160a01b0316816001600160a01b031603610b955760405163b5d8f39160e01b815260040160405180910390fd5b6000610ba0826124e0565b9050610bb66001600160a01b03831633836124f5565b50506007805460ff19166001179055565b6001600160a01b038316600090815260046020908152604080832033808552925282205483811015610c3257604051636497133b60e11b81526001600160a01b0380881660048301528316602482015260448101829052606481018590526084015b60405180910390fd5b610c3f86838684036122e7565b610c4a868686612544565b50600195945050505050565b3360009081526004602090815260408083206001600160a01b03861684529091528120548190610c87908490613004565b9050610c943385836122e7565b5060019392505050565b6003546000908015610cca57600754610cc59061010090046001600160a01b031682611eeb565b610cd4565b670de0b6b3a76400005b91505090565b6040516317e5a1a160e01b81526001600160a01b037f0000000000000000000000000000000000000000000000000000000000000000811660048301526000917f0000000000000000000000000000000000000000000000000000000000000000909116906317e5a1a190602401602060405180830381865afa158015610d65573d6000803e3d6000fd5b505050506040513d601f19601f82011682018060405250810190610d899190612fd5565b905080600003610dac5760405163586ad3b960e11b815260040160405180910390fd5b90565b600080610dbe83600019612576565b91509150915091565b60075460ff16610dea576040516306fda65d60e31b815260040160405180910390fd5b6007805460ff19169055600c546001600160a01b03163314610e1f57604051639f91a89160e01b815260040160405180910390fd5b610e288161268c565b42600d81905560405133917fc63644116f6ef474fe595238489f3d0d31a12c55be3a748d72269a62882b04c991610e6791858252602082015260400190565b60405180910390a2610e77612706565b506007805460ff19166001179055565b60075460009060ff16610ead576040516306fda65d60e31b815260040160405180910390fd5b6007805460ff191690556000610ec161278b565b90508215610f34576040516302b67b5760e41b81526e22d473030f116ddee9f6b43ac78ba390632b67b57090610f019033908990899089906004016130be565b600060405180830381600087803b158015610f1b57600080fd5b505af1158015610f2f573d6000803e3d6000fd5b505050505b6e22d473030f116ddee9f6b43ac78ba36336c785163330610f548b612811565b60405160e085901b7fffffffff000000000000000000000000000000000000000000000000000000001681526001600160a01b0393841660048201529183166024830152821660448201527f00000000000000000000000000000000000000000000000000000000000000009091166064820152608401600060405180830381600087803b158015610fe557600080fd5b505af1158015610ff9573d6000803e3d6000fd5b505050506110068761268c565b600061101061278b565b905061102d61101d610c9e565b611027848461316b565b90611eeb565b9250826000036110505760405163f1ca48b160e01b815260040160405180910390fd5b600354600003611076576110666103e88461316b565b925061107661dead6103e861283b565b611080878461283b565b60408051898152602081018590526001600160a01b0389169133917fdcbc1c05240f31ff3ad067ef1ee35ce4997762752e3a095284754544f4c709d7910160405180910390a350506110d0612706565b6007805460ff1916600117905595945050505050565b6001805461094b90613017565b3360009081526004602090815260408083206001600160a01b03861684529091528120548190610c8790849061316b565b61112c612396565b611147670de0b6b3a7640000670ff59ee833b30000836128ce565b600980549082905560408051828152602081018490527faeba5a6c40a8ac138134bff1aaa65debf25971188a58804bad717f82f0ec131691015b60405180910390a15050565b60006109d9338484612544565b60075460009060ff166111c0576040516306fda65d60e31b815260040160405180910390fd5b6007805460ff19169055336001600160a01b037f0000000000000000000000000000000000000000000000000000000000000000161461121357604051632cac670b60e21b815260040160405180910390fd5b816000036112345760405163f3934a2360e01b815260040160405180910390fd5b600061124284600019612576565b915050600081116112665760405163c381cd1960e01b815260040160405180910390fd5b6000611270610cda565b905061127a610c9e565b6009546112878684611eeb565b611291919061317e565b61129b9190613195565b6001600160a01b0386166000908152600560205260408120805492955085929091906112c890849061316b565b90915550506001600160a01b038616600090815260056020526040812080548592906112f5908490613004565b9091555050600a5415611401576000611319600a5485611e8790919063ffffffff16565b905060007f00000000000000000000000000000000000000000000000000000000000000006001600160a01b0316635b068af86040518163ffffffff1660e01b8152600401602060405180830381865afa15801561137b573d6000803e3d6000fd5b505050506040513d601f19601f8201168201806040525081019061139f91906131b7565b6001600160a01b0388166000908152600560205260408120805492935084929091906113cc90849061316b565b90915550506001600160a01b038116600090815260056020526040812080548492906113f9908490613004565b909155505050505b856001600160a01b0316856001600160a01b03167fddf252ad1be2c89b69c2b068fc378daa952ba7f163c4a11628f55a4df523b3ef8560405161144691815260200190565b60405180910390a350506007805460ff191660011790559392505050565b60075460009060ff1661148a576040516306fda65d60e31b815260040160405180910390fd5b6007805460ff19169055336001600160a01b03831614611502576001600160a01b03821660009081526004602090815260408083203384529091529020546000198114611500576114db858261316b565b6001600160a01b03841660009081526004602090815260408083203384529091529020555b505b61151461150d610c9e565b8590611e87565b9050600081116115375760405163e3e8d29760e01b815260040160405180910390fd5b611540816128f9565b61154a8285612942565b61157e6001600160a01b037f00000000000000000000000000000000000000000000000000000000000000001684836124f5565b60408051828152602081018690526001600160a01b03808516929086169133917ffbde797d201c681b91056529119e0b02407c7bb96a4a2c75c01fc9667232c8db910160405180910390a46115d1612706565b6007805460ff191660011790559392505050565b60075460ff16611608576040516306fda65d60e31b815260040160405180910390fd5b6007805460ff19169055600b5460010161177457600073b25157bf349295a7cd31d1751973f426182070d66001600160a01b031663081e3eda6040518163ffffffff1660e01b8152600401602060405180830381865afa158015611670573d6000803e3d6000fd5b505050506040513d601f19601f820116820180604052508101906116949190612fd5565b905060005b81811015611771576040516378ed5d1f60e01b81526004810182905260009073b25157bf349295a7cd31d1751973f426182070d6906378ed5d1f90602401602060405180830381865afa1580156116f4573d6000803e3d6000fd5b505050506040513d601f19601f8201168201806040525081019061171891906131b7565b90507f00000000000000000000000000000000000000000000000000000000000000006001600160a01b0316816001600160a01b03160361175e5750600b819055611771565b508061176981613061565b915050611699565b50505b6117b57f000000000000000000000000000000000000000000000000000000000000000073b25157bf349295a7cd31d1751973f426182070d6600019612448565b604080517f00000000000000000000000000000000000000000000000000000000000000006001600160a01b031681527f00000000000000000000000000000000000000000000000000000000000000006020820152338183015290517f98ccebae89f16f152c93c6a0cdc0d99913b9e62a9fc612471c21ffc299c389fd9181900360600190a16007805460ff19166001179055565b6001600160a01b038216600090815260056020526040812054808311156118765760009150506109dd565b6000611882848361316b565b90506000611891610801610c9e565b604051637d6af07960e01b81526001600160a01b0388811660048301529192506000917f00000000000000000000000000000000000000000000000000000000000000001690637d6af07990602401602060405180830381865afa1580156118fd573d6000803e3d6000fd5b505050506040513d601f19601f820116820180604052508101906119219190612fd5565b9050600061192f8383612977565b159998505050505050505050565b60008061194a8484612576565b1595945050505050565b6001600160a01b03871661197b576040516337adc3e960e11b815260040160405180910390fd5b6001600160a01b0386166119a257604051637b4813dd60e01b815260040160405180910390fd5b428410156119cc57604051633288645960e01b815242600482015260248101859052604401610c29565b6001600160a01b0387811660008181526006602090815260408083208054600180820190925582517f6e71edae12b1b97f4d1f60370fef10105fa2faae0126114a169c64845d6126c98186015280840196909652958c166060860152608085018b905260a085019590955260c08085018a90528151808603909101815260e08501825280519083012061190160f01b6101008601527f000000000000000000000000000000000000000000000000000000000000000061010286015261012280860182905282518087039091018152610142860180845281519185019190912090859052610162860180845281905260ff8a166101828701526101a286018990526101c2860188905291519095919491926101e2808401939192601f1981019281900390910190855afa158015611b07573d6000803e3d6000fd5b5050604051601f1901519150506001600160a01b038116611b3b5760405163d147d0e360e01b815260040160405180910390fd5b896001600160a01b0316816001600160a01b031614611b8f57604051633460790b60e01b81526001600160a01b038b16600482015260ff871660248201526044810186905260648101859052608401610c29565b6001600160a01b038a81166000818152600460209081526040808320948e16808452948252918290208c905590518b81527f8c5be1e5ebec7d5bd14f71427d1e84f3dd0314c0f7b2291e5b200ac8c7c3b925910160405180910390a350505050505050505050565b611bff612396565b611c1a670b1a2bc2ec500000670de0b6b3a7640000836128ce565b600880549082905560408051828152602081018490527ff25d2243e4128e51523d8537f04f18c3e6390bbfc6323390a9a8e59b921ce0469101611181565b60075460ff16611c7b576040516306fda65d60e31b815260040160405180910390fd5b6007805460ff1916905582611ca357604051632a28590560e01b815260040160405180910390fd5b60075461010090046001600160a01b0316831115611cd457604051631153e4ef60e01b815260040160405180910390fd5b611cdd836128f9565b611d116001600160a01b037f00000000000000000000000000000000000000000000000000000000000000001685856124f5565b8015611d7c5760405163989bebcf60e01b81526001600160a01b0385169063989bebcf90611d499033908790879087906004016131d4565b600060405180830381600087803b158015611d6357600080fd5b505af1158015611d77573d6000803e3d6000fd5b505050505b3060009081526005602052604081205490611d9f611d98610c9e565b8690611eeb565b905080821015611dc25760405163c85cb92960e01b815260040160405180910390fd5b611dcc3083612942565b5050611dd6612706565b50506007805460ff191660011790555050565b611df1612396565b611e05600067016345785d8a0000836128ce565b600a80549082905560408051828152602081018490527f87272249f1056ec16a68dd9255101358246dd26a796e2f0bc6b3a0ad02f2de419101611181565b60075460ff16611e66576040516306fda65d60e31b815260040160405180910390fd5b6007805460ff19169055611e78612706565b6007805460ff19166001179055565b600081600019048311820215611ea55763bac65e5b6000526004601cfd5b50670de0b6b3a764000091020490565b600081600019048311820215611ed35763bac65e5b6000526004601cfd5b50670de0b6b3a7640000910281810615159190040190565b60007812725dd1d243aba0e75fe645cc4873f9e65afe688c928e1f218311670de0b6b3a764000002158202611f2857637c5f487d6000526004601cfd5b50670de0b6b3a7640000919091020490565b600b54604051630c7e663b60e11b81526004810191909152306024820152606090819073b25157bf349295a7cd31d1751973f426182070d6906318fccc7690604401600060405180830381600087803b158015611f9657600080fd5b505af1158015611faa573d6000803e3d6000fd5b5050600b5460405163c346253d60e01b81526000935073b25157bf349295a7cd31d1751973f426182070d6925063c346253d91611fed9160040190815260200190565b602060405180830381865afa15801561200a573d6000803e3d6000fd5b505050506040513d601f19601f8201168201806040525081019061202e91906131b7565b90506001600160a01b0381161561221e57600b5460405163d63b3c4960e01b81526004810191909152306024820152600060448201819052906001600160a01b0383169063d63b3c4990606401600060405180830381865afa158015612098573d6000803e3d6000fd5b505050506040513d6000823e601f3d908101601f191682016040526120c091908101906132d3565b5060408051600280825260608201835292935091906020830190803683375050604080516002808252606082018352939750929150602083019080368337019050509250733eaeb77b03dbc0f6321ae1b72b2e9adb0f60112b8460008151811061212c5761212c61304b565b60200260200101906001600160a01b031690816001600160a01b031681525050612169733eaeb77b03dbc0f6321ae1b72b2e9adb0f60112b6124e0565b8360008151811061217c5761217c61304b565b6020026020010181815250508060008151811061219b5761219b61304b565b6020026020010151846001815181106121b6576121b661304b565b60200260200101906001600160a01b031690816001600160a01b0316815250506121f9816000815181106121ec576121ec61304b565b60200260200101516124e0565b8360018151811061220c5761220c61304b565b60200260200101818152505050509091565b60408051600180825281830190925290602080830190803683375050604080516001808252818301909252929550905060208083019080368337019050509150733eaeb77b03dbc0f6321ae1b72b2e9adb0f60112b836000815181106122865761228661304b565b60200260200101906001600160a01b031690816001600160a01b0316815250506122c3733eaeb77b03dbc0f6321ae1b72b2e9adb0f60112b6124e0565b826000815181106122d6576122d661304b565b602002602001018181525050509091565b6001600160a01b03831661230e5760405163231b1a1d60e21b815260040160405180910390fd5b6001600160a01b03821661233557604051632b6990d760e21b815260040160405180910390fd5b6001600160a01b0383811660008181526004602090815260408083209487168084529482529182902085905590518481527f8c5be1e5ebec7d5bd14f71427d1e84f3dd0314c0f7b2291e5b200ac8c7c3b925910160405180910390a3505050565b60007f00000000000000000000000000000000000000000000000000000000000000006001600160a01b031663f851a4406040518163ffffffff1660e01b8152600401602060405180830381865afa1580156123f6573d6000803e3d6000fd5b505050506040513d601f19601f8201168201806040525081019061241a91906131b7565b9050336001600160a01b03821614612445576040516331d63ad160e11b815260040160405180910390fd5b50565b604051636eb1769f60e11b81523060048201526001600160a01b03838116602483015282919085169063dd62ed3e90604401602060405180830381865afa158015612497573d6000803e3d6000fd5b505050506040513d601f19601f820116820180604052508101906124bb9190612fd5565b106124c557505050565b6124db6001600160a01b03841683600019612a13565b505050565b60006109dd6001600160a01b03831630612a58565b81601452806034526fa9059cbb00000000000000000000000060005260206000604460106000875af13d15600160005114171661253a576390b8ec186000526004601cfd5b6000603452505050565b61254e838261184b565b61256b57604051631ba566ff60e01b815260040160405180910390fd5b6124db838383612a8d565b6000806001600160a01b0384166125b15760405163a5075cd160e01b81526001600160a01b0385166004820152326024820152604401610c29565b600019830361264757604051637d6af07960e01b81526001600160a01b0385811660048301527f00000000000000000000000000000000000000000000000000000000000000001690637d6af07990602401602060405180830381865afa158015612620573d6000803e3d6000fd5b505050506040513d601f19601f820116820180604052508101906126449190612fd5565b92505b6000612673612654610c9e565b6001600160a01b03871660009081526005602052604090205490611e87565b905061267f8185612977565b92509250505b9250929050565b600b54604051638dbdbe6d60e01b815260048101919091526024810182905230604482015273b25157bf349295a7cd31d1751973f426182070d690638dbdbe6d906064015b600060405180830381600087803b1580156126eb57600080fd5b505af11580156126ff573d6000803e3d6000fd5b5050505050565b600061271061278b565b90507f3145c2b643834867f2c0a8cac8a48218307687911615c0ed01412a09dd163b6661273c82612811565b600780547fffffffffffffffffffffff0000000000000000000000000000000000000000ff166101006001600160a01b039390931692830217905560405190815260200160405180910390a150565b600b546040516393f1a40b60e01b8152600481019190915230602482015260009073b25157bf349295a7cd31d1751973f426182070d6906393f1a40b906044016040805180830381865afa1580156127e7573d6000803e3d6000fd5b505050506040513d601f19601f8201168201806040525081019061280b9190613398565b50919050565b600074010000000000000000000000000000000000000000821061283757612837612b8c565b5090565b6001600160a01b0382166128625760405163df3dc1c960e01b815260040160405180910390fd5b80600360008282546128749190613004565b90915550506001600160a01b0382166000818152600560209081526040808320805486019055518481527fddf252ad1be2c89b69c2b068fc378daa952ba7f163c4a11628f55a4df523b3ef91015b60405180910390a35050565b828110806128db57508181115b156124db5760405163058b4cb360e11b815260040160405180910390fd5b600b54604051630ad58d2f60e01b815260048101919091526024810182905230604482015273b25157bf349295a7cd31d1751973f426182070d690630ad58d2f906064016126d1565b61294c828261184b565b61296957604051631ba566ff60e01b815260040160405180910390fd5b6129738282612b9a565b5050565b600080600061298e612987610cda565b8690611e87565b905060006129a760085483611e8790919063ffffffff16565b9050846000036129d1576129c4600a546009546108d69190613004565b6000935093505050612685565b60006129ed600a546009546129e69190613004565b8790611eb5565b9050808210612a055790039250600091506126859050565b600094500391506126859050565b81601452806034526f095ea7b300000000000000000000000060005260206000604460106000875af13d15600160005114171661253a57633e3f8f736000526004601cfd5b6000816014526f70a0823100000000000000000000000060005260208060246010865afa601f3d111660205102905092915050565b6001600160a01b038316612ab457604051636fbb781760e01b815260040160405180910390fd5b6001600160a01b038216612ada576040516261696b60e71b815260040160405180910390fd5b6001600160a01b03831660009081526005602052604090205481811015612b1e5760405163430cf54960e11b81526004810182905260248101839052604401610c29565b6001600160a01b0380851660008181526005602052604080822086860390559286168082529083902080548601905591517fddf252ad1be2c89b69c2b068fc378daa952ba7f163c4a11628f55a4df523b3ef90612b7e9086815260200190565b60405180910390a350505050565b6335278d126000526004601cfd5b6001600160a01b038216612bc157604051633eedce0760e01b815260040160405180910390fd5b6001600160a01b03821660009081526005602052604081208054839290612be990849061316b565b90915550506003805482900390556040518181526000906001600160a01b038416907fddf252ad1be2c89b69c2b068fc378daa952ba7f163c4a11628f55a4df523b3ef906020016128c2565b6001600160a01b038116811461244557600080fd5b600060208284031215612c5c57600080fd5b8135612c6781612c35565b9392505050565b604080825283519082018190526000906020906060840190828701845b82811015612cb05781516001600160a01b031684529284019290840190600101612c8b565b5050508381038285015284518082528583019183019060005b81811015612ce557835183529284019291840191600101612cc9565b5090979650505050505050565b600060208083528351808285015260005b81811015612d1f57858101830151858201604001528201612d03565b506000604082860101526040601f19601f8301168501019250505092915050565b60008060408385031215612d5357600080fd5b8235612d5e81612c35565b946020939093013593505050565b600080600060608486031215612d8157600080fd5b8335612d8c81612c35565b92506020840135612d9c81612c35565b929592945050506040919091013590565b600060208284031215612dbf57600080fd5b5035919050565b60008083601f840112612dd857600080fd5b50813567ffffffffffffffff811115612df057600080fd5b60208301915083602082850101111561268557600080fd5b6000806000806000858703610120811215612e2257600080fd5b863595506020870135612e3481612c35565b945060c0603f1982011215612e4857600080fd5b5060408601925061010086013567ffffffffffffffff811115612e6a57600080fd5b612e7688828901612dc6565b969995985093965092949392505050565b600080600060608486031215612e9c57600080fd5b833592506020840135612eae81612c35565b91506040840135612ebe81612c35565b809150509250925092565b600080600080600080600060e0888a031215612ee457600080fd5b8735612eef81612c35565b96506020880135612eff81612c35565b95506040880135945060608801359350608088013560ff81168114612f2357600080fd5b9699959850939692959460a0840135945060c09093013592915050565b60008060408385031215612f5357600080fd5b8235612f5e81612c35565b91506020830135612f6e81612c35565b809150509250929050565b60008060008060608587031215612f8f57600080fd5b8435612f9a81612c35565b935060208501359250604085013567ffffffffffffffff811115612fbd57600080fd5b612fc987828801612dc6565b95989497509550505050565b600060208284031215612fe757600080fd5b5051919050565b634e487b7160e01b600052601160045260246000fd5b808201808211156109dd576109dd612fee565b600181811c9082168061302b57607f821691505b60208210810361280b57634e487b7160e01b600052602260045260246000fd5b634e487b7160e01b600052603260045260246000fd5b60006001820161307357613073612fee565b5060010190565b803565ffffffffffff8116811461309057600080fd5b919050565b81835281816020850137506000828201602090810191909152601f909101601f19169091010190565b60006101006001600160a01b03808816845286356130db81612c35565b81811660208601525060208701356130f281612c35565b8181166040860152506131076040880161307a565b65ffffffffffff80821660608701528061312360608b0161307a565b1660808701525050608087013561313981612c35565b81811660a0860152505060a086013560c08401528060e08401526131608184018587613095565b979650505050505050565b818103818111156109dd576109dd612fee565b80820281158282048414176109dd576109dd612fee565b6000826131b257634e487b7160e01b600052601260045260246000fd5b500490565b6000602082840312156131c957600080fd5b8151612c6781612c35565b6001600160a01b03851681528360208201526060604082015260006108e5606083018486613095565b634e487b7160e01b600052604160045260246000fd5b604051601f8201601f1916810167ffffffffffffffff8111828210171561323c5761323c6131fd565b604052919050565b600067ffffffffffffffff82111561325e5761325e6131fd565b5060051b60200190565b600082601f83011261327957600080fd5b8151602061328e61328983613244565b613213565b82815260059290921b840181019181810190868411156132ad57600080fd5b8286015b848110156132c857805183529183019183016132b1565b509695505050505050565b600080604083850312156132e657600080fd5b825167ffffffffffffffff808211156132fe57600080fd5b818501915085601f83011261331257600080fd5b8151602061332261328983613244565b82815260059290921b8401810191818101908984111561334157600080fd5b948201945b8386101561336857855161335981612c35565b82529482019490820190613346565b9188015191965090935050508082111561338157600080fd5b5061338e85828601613268565b9150509250929050565b600080604083850312156133ab57600080fd5b50508051602090910151909290915056fea2646970667358221220334cdd432d8af4771b22d5b4f1c14a99360f60d718d174bafa391273711f1c3f64736f6c63430008110033",
  "linkReferences": {},
  "deployedLinkReferences": {}
}