{
  "_format": "hh-sol-artifact-1",
  "contractName": "CygnusCollateral",
  "sourceName": "contracts/cygnus-core/CygnusCollateral.sol",
  "abi": [
    {
      "inputs": [
        {
          "internalType": "address",
          "name": "sender",
          "type": "address"
        },
        {
          "internalType": "address",
          "name": "origin",
          "type": "address"
        }
      ],
      "name": "CygnusCollateralChef__OnlyEOAAllowed",
      "type": "error"
    },
    {
      "inputs": [
        {
          "internalType": "address",
          "name": "tokenReward",
          "type": "address"
        }
      ],
      "name": "CygnusCollateralChef__VoidAlreadyInitialized",
      "type": "error"
    },
    {
      "inputs": [
        {
          "internalType": "address",
          "name": "currentOracle",
          "type": "address"
        },
        {
          "internalType": "address",
          "name": "newOracle",
          "type": "address"
        }
      ],
      "name": "CygnusCollateralControl__CygnusOracleAlreadySet",
      "type": "error"
    },
    {
      "inputs": [
        {
          "internalType": "uint256",
          "name": "minRange",
          "type": "uint256"
        },
        {
          "internalType": "uint256",
          "name": "maxRange",
          "type": "uint256"
        },
        {
          "internalType": "uint256",
          "name": "value",
          "type": "uint256"
        }
      ],
      "name": "CygnusCollateralControl__ParameterNotInRange",
      "type": "error"
    },
    {
      "inputs": [],
      "name": "CygnusCollateralControl__VoidCantBeZero",
      "type": "error"
    },
    {
      "inputs": [
        {
          "internalType": "address",
          "name": "invalidBorrowable",
          "type": "address"
        },
        {
          "internalType": "address",
          "name": "validBorrowable",
          "type": "address"
        }
      ],
      "name": "CygnusCollateralModel__BorrowableInvalid",
      "type": "error"
    },
    {
      "inputs": [
        {
          "internalType": "address",
          "name": "sender",
          "type": "address"
        },
        {
          "internalType": "address",
          "name": "origin",
          "type": "address"
        }
      ],
      "name": "CygnusCollateralModel__BorrowerCantBeAddressZero",
      "type": "error"
    },
    {
      "inputs": [
        {
          "internalType": "address",
          "name": "sender",
          "type": "address"
        },
        {
          "internalType": "address",
          "name": "origin",
          "type": "address"
        }
      ],
      "name": "CygnusCollateralVoid__NotNativeTokenSender",
      "type": "error"
    },
    {
      "inputs": [
        {
          "internalType": "address",
          "name": "borrower",
          "type": "address"
        }
      ],
      "name": "CygnusCollateral__CantLiquidateSelf",
      "type": "error"
    },
    {
      "inputs": [
        {
          "internalType": "address",
          "name": "sender",
          "type": "address"
        },
        {
          "internalType": "address",
          "name": "origin",
          "type": "address"
        },
        {
          "internalType": "uint256",
          "name": "redeemAmount",
          "type": "uint256"
        }
      ],
      "name": "CygnusCollateral__CantRedeemZero",
      "type": "error"
    },
    {
      "inputs": [
        {
          "internalType": "address",
          "name": "from",
          "type": "address"
        },
        {
          "internalType": "address",
          "name": "to",
          "type": "address"
        },
        {
          "internalType": "uint256",
          "name": "value",
          "type": "uint256"
        }
      ],
      "name": "CygnusCollateral__InsufficientLiquidity",
      "type": "error"
    },
    {
      "inputs": [
        {
          "internalType": "uint256",
          "name": "denebTokens",
          "type": "uint256"
        },
        {
          "internalType": "uint256",
          "name": "redeemableDeneb",
          "type": "uint256"
        }
      ],
      "name": "CygnusCollateral__InsufficientRedeemAmount",
      "type": "error"
    },
    {
      "inputs": [
        {
          "internalType": "address",
          "name": "sender",
          "type": "address"
        },
        {
          "internalType": "address",
          "name": "borrowable",
          "type": "address"
        }
      ],
      "name": "CygnusCollateral__MsgSenderNotBorrowable",
      "type": "error"
    },
    {
      "inputs": [
        {
          "internalType": "uint256",
          "name": "userLiquidity",
          "type": "uint256"
        },
        {
          "internalType": "uint256",
          "name": "userShortfall",
          "type": "uint256"
        }
      ],
      "name": "CygnusCollateral__NotLiquidatable",
      "type": "error"
    },
    {
      "inputs": [
        {
          "internalType": "uint256",
          "name": "redeemAmount",
          "type": "uint256"
        },
        {
          "internalType": "uint256",
          "name": "totalBalance",
          "type": "uint256"
        }
      ],
      "name": "CygnusCollateral__RedeemAmountInvalid",
      "type": "error"
    },
    {
      "inputs": [
        {
          "internalType": "uint256",
          "name": "redeemValue",
          "type": "uint256"
        },
        {
          "internalType": "uint256",
          "name": "redeemBalance",
          "type": "uint256"
        }
      ],
      "name": "CygnusCollateral__ValueExceedsBalance",
      "type": "error"
    },
    {
      "inputs": [
        {
          "internalType": "uint256",
          "name": "",
          "type": "uint256"
        }
      ],
      "name": "CygnusTerminal__CantMintZero",
      "type": "error"
    },
    {
      "inputs": [
        {
          "internalType": "uint256",
          "name": "",
          "type": "uint256"
        }
      ],
      "name": "CygnusTerminal__CantRedeemZero",
      "type": "error"
    },
    {
      "inputs": [
        {
          "internalType": "address",
          "name": "caller",
          "type": "address"
        },
        {
          "internalType": "address",
          "name": "factoryAdmin",
          "type": "address"
        }
      ],
      "name": "CygnusTerminal__MsgSenderNotAdmin",
      "type": "error"
    },
    {
      "inputs": [
        {
          "internalType": "address",
          "name": "",
          "type": "address"
        }
      ],
      "name": "CygnusTerminal__MsgSenderNotFactory",
      "type": "error"
    },
    {
      "inputs": [
        {
          "internalType": "uint256",
          "name": "invalidAmount",
          "type": "uint256"
        },
        {
          "internalType": "uint256",
          "name": "contractBalance",
          "type": "uint256"
        }
      ],
      "name": "CygnusTerminal__RedeemAmountInvalid",
      "type": "error"
    },
    {
      "inputs": [
        {
          "internalType": "uint8",
          "name": "v",
          "type": "uint8"
        },
        {
          "internalType": "bytes32",
          "name": "r",
          "type": "bytes32"
        },
        {
          "internalType": "bytes32",
          "name": "s",
          "type": "bytes32"
        }
      ],
      "name": "Erc20Permit__InvalidSignature",
      "type": "error"
    },
    {
      "inputs": [],
      "name": "Erc20Permit__OwnerZeroAddress",
      "type": "error"
    },
    {
      "inputs": [
        {
          "internalType": "uint256",
          "name": "deadline",
          "type": "uint256"
        }
      ],
      "name": "Erc20Permit__PermitExpired",
      "type": "error"
    },
    {
      "inputs": [],
      "name": "Erc20Permit__RecoveredOwnerZeroAddress",
      "type": "error"
    },
    {
      "inputs": [],
      "name": "Erc20Permit__SpenderZeroAddress",
      "type": "error"
    },
    {
      "inputs": [],
      "name": "Erc20__ApproveOwnerZeroAddress",
      "type": "error"
    },
    {
      "inputs": [],
      "name": "Erc20__ApproveSpenderZeroAddress",
      "type": "error"
    },
    {
      "inputs": [
        {
          "internalType": "uint256",
          "name": "accountBalance",
          "type": "uint256"
        },
        {
          "internalType": "uint256",
          "name": "burnAmount",
          "type": "uint256"
        }
      ],
      "name": "Erc20__BurnUnderflow",
      "type": "error"
    },
    {
      "inputs": [],
      "name": "Erc20__BurnZeroAddress",
      "type": "error"
    },
    {
      "inputs": [
        {
          "internalType": "uint256",
          "name": "allowance",
          "type": "uint256"
        },
        {
          "internalType": "uint256",
          "name": "amount",
          "type": "uint256"
        }
      ],
      "name": "Erc20__InsufficientAllowance",
      "type": "error"
    },
    {
      "inputs": [
        {
          "internalType": "uint256",
          "name": "senderBalance",
          "type": "uint256"
        },
        {
          "internalType": "uint256",
          "name": "amount",
          "type": "uint256"
        }
      ],
      "name": "Erc20__InsufficientBalance",
      "type": "error"
    },
    {
      "inputs": [],
      "name": "Erc20__MintZeroAddress",
      "type": "error"
    },
    {
      "inputs": [],
      "name": "Erc20__TransferRecipientZeroAddress",
      "type": "error"
    },
    {
      "inputs": [],
      "name": "Erc20__TransferSenderZeroAddress",
      "type": "error"
    },
    {
      "inputs": [
        {
          "internalType": "uint256",
          "name": "prod1",
          "type": "uint256"
        }
      ],
      "name": "PRBMath__MulDivFixedPointOverflow",
      "type": "error"
    },
    {
      "inputs": [
        {
          "internalType": "uint256",
          "name": "prod1",
          "type": "uint256"
        },
        {
          "internalType": "uint256",
          "name": "denominator",
          "type": "uint256"
        }
      ],
      "name": "PRBMath__MulDivOverflow",
      "type": "error"
    },
    {
      "inputs": [],
      "name": "ReentrantCall",
      "type": "error"
    },
    {
      "inputs": [
        {
          "internalType": "address",
          "name": "target",
          "type": "address"
        }
      ],
      "name": "SafeErc20__CallToNonContract",
      "type": "error"
    },
    {
      "inputs": [],
      "name": "SafeErc20__NoReturnData",
      "type": "error"
    },
    {
      "anonymous": false,
      "inputs": [
        {
          "indexed": true,
          "internalType": "address",
          "name": "owner",
          "type": "address"
        },
        {
          "indexed": true,
          "internalType": "address",
          "name": "spender",
          "type": "address"
        },
        {
          "indexed": false,
          "internalType": "uint256",
          "name": "amount",
          "type": "uint256"
        }
      ],
      "name": "Approval",
      "type": "event"
    },
    {
      "anonymous": false,
      "inputs": [
        {
          "indexed": false,
          "internalType": "contract IDexRouter02",
          "name": "_dexRouter",
          "type": "address"
        },
        {
          "indexed": false,
          "internalType": "contract IMiniChef",
          "name": "_rewarder",
          "type": "address"
        },
        {
          "indexed": false,
          "internalType": "address",
          "name": "_rewardsToken",
          "type": "address"
        },
        {
          "indexed": false,
          "internalType": "uint256",
          "name": "_pid",
          "type": "uint256"
        },
        {
          "indexed": false,
          "internalType": "uint256",
          "name": "_swapFeeFactor",
          "type": "uint256"
        }
      ],
      "name": "ChargeVoid",
      "type": "event"
    },
    {
      "anonymous": false,
      "inputs": [
        {
          "indexed": true,
          "internalType": "address",
          "name": "sender",
          "type": "address"
        },
        {
          "indexed": true,
          "internalType": "address",
          "name": "minter",
          "type": "address"
        },
        {
          "indexed": false,
          "internalType": "uint256",
          "name": "mintAmount",
          "type": "uint256"
        },
        {
          "indexed": false,
          "internalType": "uint256",
          "name": "poolTokens",
          "type": "uint256"
        }
      ],
      "name": "Mint",
      "type": "event"
    },
    {
      "anonymous": false,
      "inputs": [
        {
          "indexed": false,
          "internalType": "address",
          "name": "oldVoid",
          "type": "address"
        },
        {
          "indexed": false,
          "internalType": "address",
          "name": "newVoid",
          "type": "address"
        }
      ],
      "name": "NewCygnusVoid",
      "type": "event"
    },
    {
      "anonymous": false,
      "inputs": [
        {
          "indexed": false,
          "internalType": "uint256",
          "name": "oldDebtRatio",
          "type": "uint256"
        },
        {
          "indexed": false,
          "internalType": "uint256",
          "name": "newDebtRatio",
          "type": "uint256"
        }
      ],
      "name": "NewDebtRatio",
      "type": "event"
    },
    {
      "anonymous": false,
      "inputs": [
        {
          "indexed": false,
          "internalType": "uint256",
          "name": "oldLiquidationFee",
          "type": "uint256"
        },
        {
          "indexed": false,
          "internalType": "uint256",
          "name": "newLiquidationFee",
          "type": "uint256"
        }
      ],
      "name": "NewLiquidationFee",
      "type": "event"
    },
    {
      "anonymous": false,
      "inputs": [
        {
          "indexed": false,
          "internalType": "uint256",
          "name": "oldLiquidationIncentive",
          "type": "uint256"
        },
        {
          "indexed": false,
          "internalType": "uint256",
          "name": "newLiquidationIncentive",
          "type": "uint256"
        }
      ],
      "name": "NewLiquidationIncentive",
      "type": "event"
    },
    {
      "anonymous": false,
      "inputs": [
        {
          "indexed": false,
          "internalType": "contract IChainlinkNebulaOracle",
          "name": "oldPriceOracle",
          "type": "address"
        },
        {
          "indexed": false,
          "internalType": "contract IChainlinkNebulaOracle",
          "name": "newPriceOracle",
          "type": "address"
        }
      ],
      "name": "NewPriceOracle",
      "type": "event"
    },
    {
      "anonymous": false,
      "inputs": [
        {
          "indexed": true,
          "internalType": "address",
          "name": "shuttle",
          "type": "address"
        },
        {
          "indexed": false,
          "internalType": "address",
          "name": "reinvestor",
          "type": "address"
        },
        {
          "indexed": false,
          "internalType": "uint256",
          "name": "rewardBalance",
          "type": "uint256"
        },
        {
          "indexed": false,
          "internalType": "uint256",
          "name": "reinvestReward",
          "type": "uint256"
        }
      ],
      "name": "RechargeVoid",
      "type": "event"
    },
    {
      "anonymous": false,
      "inputs": [
        {
          "indexed": true,
          "internalType": "address",
          "name": "sender",
          "type": "address"
        },
        {
          "indexed": true,
          "internalType": "address",
          "name": "redeemer",
          "type": "address"
        },
        {
          "indexed": false,
          "internalType": "uint256",
          "name": "redeemAmount",
          "type": "uint256"
        },
        {
          "indexed": false,
          "internalType": "uint256",
          "name": "poolTokens",
          "type": "uint256"
        }
      ],
      "name": "Redeem",
      "type": "event"
    },
    {
      "anonymous": false,
      "inputs": [
        {
          "indexed": false,
          "internalType": "address",
          "name": "sender",
          "type": "address"
        },
        {
          "indexed": false,
          "internalType": "address",
          "name": "redeemer",
          "type": "address"
        },
        {
          "indexed": false,
          "internalType": "uint256",
          "name": "redeemAmount",
          "type": "uint256"
        },
        {
          "indexed": false,
          "internalType": "uint256",
          "name": "redeemTokens",
          "type": "uint256"
        }
      ],
      "name": "RedeemCollateral",
      "type": "event"
    },
    {
      "anonymous": false,
      "inputs": [
        {
          "indexed": false,
          "internalType": "address",
          "name": "borrower",
          "type": "address"
        },
        {
          "indexed": false,
          "internalType": "address",
          "name": "liquidator",
          "type": "address"
        },
        {
          "indexed": false,
          "internalType": "uint256",
          "name": "denebAmount",
          "type": "uint256"
        },
        {
          "indexed": false,
          "internalType": "uint256",
          "name": "denebFee",
          "type": "uint256"
        }
      ],
      "name": "SeizeCollateral",
      "type": "event"
    },
    {
      "anonymous": false,
      "inputs": [
        {
          "indexed": false,
          "internalType": "uint256",
          "name": "totalBalance",
          "type": "uint256"
        }
      ],
      "name": "Sync",
      "type": "event"
    },
    {
      "anonymous": false,
      "inputs": [
        {
          "indexed": true,
          "internalType": "address",
          "name": "from",
          "type": "address"
        },
        {
          "indexed": true,
          "internalType": "address",
          "name": "to",
          "type": "address"
        },
        {
          "indexed": false,
          "internalType": "uint256",
          "name": "amount",
          "type": "uint256"
        }
      ],
      "name": "Transfer",
      "type": "event"
    },
    {
      "inputs": [],
      "name": "DEBT_RATIO_MAX",
      "outputs": [
        {
          "internalType": "uint256",
          "name": "",
          "type": "uint256"
        }
      ],
      "stateMutability": "view",
      "type": "function"
    },
    {
      "inputs": [],
      "name": "DEBT_RATIO_MIN",
      "outputs": [
        {
          "internalType": "uint256",
          "name": "",
          "type": "uint256"
        }
      ],
      "stateMutability": "view",
      "type": "function"
    },
    {
      "inputs": [],
      "name": "DOMAIN_SEPARATOR",
      "outputs": [
        {
          "internalType": "bytes32",
          "name": "",
          "type": "bytes32"
        }
      ],
      "stateMutability": "view",
      "type": "function"
    },
    {
      "inputs": [],
      "name": "LIQUIDATION_FEE_MAX",
      "outputs": [
        {
          "internalType": "uint256",
          "name": "",
          "type": "uint256"
        }
      ],
      "stateMutability": "view",
      "type": "function"
    },
    {
      "inputs": [],
      "name": "LIQUIDATION_INCENTIVE_MAX",
      "outputs": [
        {
          "internalType": "uint256",
          "name": "",
          "type": "uint256"
        }
      ],
      "stateMutability": "view",
      "type": "function"
    },
    {
      "inputs": [],
      "name": "LIQUIDATION_INCENTIVE_MIN",
      "outputs": [
        {
          "internalType": "uint256",
          "name": "",
          "type": "uint256"
        }
      ],
      "stateMutability": "view",
      "type": "function"
    },
    {
      "inputs": [],
      "name": "PERMIT_TYPEHASH",
      "outputs": [
        {
          "internalType": "bytes32",
          "name": "",
          "type": "bytes32"
        }
      ],
      "stateMutability": "view",
      "type": "function"
    },
    {
      "inputs": [],
      "name": "REINVEST_REWARD",
      "outputs": [
        {
          "internalType": "uint256",
          "name": "",
          "type": "uint256"
        }
      ],
      "stateMutability": "view",
      "type": "function"
    },
    {
      "inputs": [
        {
          "internalType": "address",
          "name": "owner",
          "type": "address"
        },
        {
          "internalType": "address",
          "name": "spender",
          "type": "address"
        }
      ],
      "name": "allowance",
      "outputs": [
        {
          "internalType": "uint256",
          "name": "",
          "type": "uint256"
        }
      ],
      "stateMutability": "view",
      "type": "function"
    },
    {
      "inputs": [
        {
          "internalType": "address",
          "name": "spender",
          "type": "address"
        },
        {
          "internalType": "uint256",
          "name": "amount",
          "type": "uint256"
        }
      ],
      "name": "approve",
      "outputs": [
        {
          "internalType": "bool",
          "name": "",
          "type": "bool"
        }
      ],
      "stateMutability": "nonpayable",
      "type": "function"
    },
    {
      "inputs": [
        {
          "internalType": "address",
          "name": "account",
          "type": "address"
        }
      ],
      "name": "balanceOf",
      "outputs": [
        {
          "internalType": "uint256",
          "name": "",
          "type": "uint256"
        }
      ],
      "stateMutability": "view",
      "type": "function"
    },
    {
      "inputs": [
        {
          "internalType": "address",
          "name": "borrower",
          "type": "address"
        },
        {
          "internalType": "address",
          "name": "borrowableToken",
          "type": "address"
        },
        {
          "internalType": "uint256",
          "name": "accountBorrows",
          "type": "uint256"
        }
      ],
      "name": "canBorrow",
      "outputs": [
        {
          "internalType": "bool",
          "name": "",
          "type": "bool"
        }
      ],
      "stateMutability": "view",
      "type": "function"
    },
    {
      "inputs": [],
      "name": "chainId",
      "outputs": [
        {
          "internalType": "uint256",
          "name": "",
          "type": "uint256"
        }
      ],
      "stateMutability": "view",
      "type": "function"
    },
    {
      "inputs": [],
      "name": "cygnusDai",
      "outputs": [
        {
          "internalType": "address",
          "name": "",
          "type": "address"
        }
      ],
      "stateMutability": "view",
      "type": "function"
    },
    {
      "inputs": [],
      "name": "cygnusNebulaOracle",
      "outputs": [
        {
          "internalType": "contract IChainlinkNebulaOracle",
          "name": "",
          "type": "address"
        }
      ],
      "stateMutability": "view",
      "type": "function"
    },
    {
      "inputs": [],
      "name": "debtRatio",
      "outputs": [
        {
          "internalType": "uint256",
          "name": "",
          "type": "uint256"
        }
      ],
      "stateMutability": "view",
      "type": "function"
    },
    {
      "inputs": [],
      "name": "decimals",
      "outputs": [
        {
          "internalType": "uint8",
          "name": "",
          "type": "uint8"
        }
      ],
      "stateMutability": "view",
      "type": "function"
    },
    {
      "inputs": [
        {
          "internalType": "address",
          "name": "spender",
          "type": "address"
        },
        {
          "internalType": "uint256",
          "name": "subtractedAmount",
          "type": "uint256"
        }
      ],
      "name": "decreaseAllowance",
      "outputs": [
        {
          "internalType": "bool",
          "name": "",
          "type": "bool"
        }
      ],
      "stateMutability": "nonpayable",
      "type": "function"
    },
    {
      "inputs": [],
      "name": "exchangeRate",
      "outputs": [
        {
          "internalType": "uint256",
          "name": "",
          "type": "uint256"
        }
      ],
      "stateMutability": "view",
      "type": "function"
    },
    {
      "inputs": [
        {
          "internalType": "address",
          "name": "borrower",
          "type": "address"
        }
      ],
      "name": "getAccountLiquidity",
      "outputs": [
        {
          "internalType": "uint256",
          "name": "liquidity",
          "type": "uint256"
        },
        {
          "internalType": "uint256",
          "name": "shortfall",
          "type": "uint256"
        }
      ],
      "stateMutability": "view",
      "type": "function"
    },
    {
      "inputs": [],
      "name": "getCygnusVoid",
      "outputs": [
        {
          "internalType": "contract IMiniChef",
          "name": "rewarder_",
          "type": "address"
        },
        {
          "internalType": "uint256",
          "name": "pid_",
          "type": "uint256"
        },
        {
          "internalType": "bool",
          "name": "voidActivated_",
          "type": "bool"
        },
        {
          "internalType": "address",
          "name": "rewardsToken_",
          "type": "address"
        },
        {
          "internalType": "uint256",
          "name": "dexSwapFee_",
          "type": "uint256"
        },
        {
          "internalType": "contract IDexRouter02",
          "name": "dexRouter_",
          "type": "address"
        }
      ],
      "stateMutability": "view",
      "type": "function"
    },
    {
      "inputs": [
        {
          "internalType": "address",
          "name": "borrower",
          "type": "address"
        }
      ],
      "name": "getDebtRatio",
      "outputs": [
        {
          "internalType": "uint256",
          "name": "",
          "type": "uint256"
        }
      ],
      "stateMutability": "view",
      "type": "function"
    },
    {
      "inputs": [],
      "name": "getLPTokenPrice",
      "outputs": [
        {
          "internalType": "uint256",
          "name": "",
          "type": "uint256"
        }
      ],
      "stateMutability": "view",
      "type": "function"
    },
    {
      "inputs": [],
      "name": "hangar18",
      "outputs": [
        {
          "internalType": "address",
          "name": "",
          "type": "address"
        }
      ],
      "stateMutability": "view",
      "type": "function"
    },
    {
      "inputs": [
        {
          "internalType": "address",
          "name": "spender",
          "type": "address"
        },
        {
          "internalType": "uint256",
          "name": "addedAmount",
          "type": "uint256"
        }
      ],
      "name": "increaseAllowance",
      "outputs": [
        {
          "internalType": "bool",
          "name": "",
          "type": "bool"
        }
      ],
      "stateMutability": "nonpayable",
      "type": "function"
    },
    {
      "inputs": [
        {
          "internalType": "contract IDexRouter02",
          "name": "dexRouterVoid",
          "type": "address"
        },
        {
          "internalType": "contract IMiniChef",
          "name": "rewarderVoid",
          "type": "address"
        },
        {
          "internalType": "address",
          "name": "rewardsTokenVoid",
          "type": "address"
        },
        {
          "internalType": "uint256",
          "name": "pidVoid",
          "type": "uint256"
        },
        {
          "internalType": "uint256",
          "name": "dexSwapFeeVoid",
          "type": "uint256"
        }
      ],
      "name": "initializeVoid",
      "outputs": [],
      "stateMutability": "nonpayable",
      "type": "function"
    },
    {
      "inputs": [],
      "name": "liquidationFee",
      "outputs": [
        {
          "internalType": "uint256",
          "name": "",
          "type": "uint256"
        }
      ],
      "stateMutability": "view",
      "type": "function"
    },
    {
      "inputs": [],
      "name": "liquidationIncentive",
      "outputs": [
        {
          "internalType": "uint256",
          "name": "",
          "type": "uint256"
        }
      ],
      "stateMutability": "view",
      "type": "function"
    },
    {
      "inputs": [
        {
          "internalType": "address",
          "name": "minter",
          "type": "address"
        }
      ],
      "name": "mint",
      "outputs": [
        {
          "internalType": "uint256",
          "name": "cygnusMintTokens",
          "type": "uint256"
        }
      ],
      "stateMutability": "nonpayable",
      "type": "function"
    },
    {
      "inputs": [],
      "name": "name",
      "outputs": [
        {
          "internalType": "string",
          "name": "",
          "type": "string"
        }
      ],
      "stateMutability": "view",
      "type": "function"
    },
    {
      "inputs": [
        {
          "internalType": "address",
          "name": "",
          "type": "address"
        }
      ],
      "name": "nonces",
      "outputs": [
        {
          "internalType": "uint256",
          "name": "",
          "type": "uint256"
        }
      ],
      "stateMutability": "view",
      "type": "function"
    },
    {
      "inputs": [
        {
          "internalType": "address",
          "name": "owner",
          "type": "address"
        },
        {
          "internalType": "address",
          "name": "spender",
          "type": "address"
        },
        {
          "internalType": "uint256",
          "name": "value",
          "type": "uint256"
        },
        {
          "internalType": "uint256",
          "name": "deadline",
          "type": "uint256"
        },
        {
          "internalType": "uint8",
          "name": "v",
          "type": "uint8"
        },
        {
          "internalType": "bytes32",
          "name": "r",
          "type": "bytes32"
        },
        {
          "internalType": "bytes32",
          "name": "s",
          "type": "bytes32"
        }
      ],
      "name": "permit",
      "outputs": [],
      "stateMutability": "nonpayable",
      "type": "function"
    },
    {
      "inputs": [
        {
          "internalType": "address",
          "name": "holder",
          "type": "address"
        }
      ],
      "name": "redeem",
      "outputs": [
        {
          "internalType": "uint256",
          "name": "redeemAmount",
          "type": "uint256"
        }
      ],
      "stateMutability": "nonpayable",
      "type": "function"
    },
    {
      "inputs": [
        {
          "internalType": "address",
          "name": "redeemer",
          "type": "address"
        },
        {
          "internalType": "uint256",
          "name": "redeemAmount",
          "type": "uint256"
        },
        {
          "internalType": "bytes",
          "name": "data",
          "type": "bytes"
        }
      ],
      "name": "redeemDeneb",
      "outputs": [],
      "stateMutability": "nonpayable",
      "type": "function"
    },
    {
      "inputs": [],
      "name": "reinvestRewards_y7b",
      "outputs": [],
      "stateMutability": "nonpayable",
      "type": "function"
    },
    {
      "inputs": [
        {
          "internalType": "address",
          "name": "liquidator",
          "type": "address"
        },
        {
          "internalType": "address",
          "name": "borrower",
          "type": "address"
        },
        {
          "internalType": "uint256",
          "name": "repayAmount",
          "type": "uint256"
        }
      ],
      "name": "seizeDeneb",
      "outputs": [
        {
          "internalType": "uint256",
          "name": "denebAmount",
          "type": "uint256"
        }
      ],
      "stateMutability": "nonpayable",
      "type": "function"
    },
    {
      "inputs": [
        {
          "internalType": "uint256",
          "name": "newDebtRatio",
          "type": "uint256"
        }
      ],
      "name": "setDebtRatio",
      "outputs": [],
      "stateMutability": "nonpayable",
      "type": "function"
    },
    {
      "inputs": [
        {
          "internalType": "uint256",
          "name": "newLiquidationFee",
          "type": "uint256"
        }
      ],
      "name": "setLiquidationFee",
      "outputs": [],
      "stateMutability": "nonpayable",
      "type": "function"
    },
    {
      "inputs": [
        {
          "internalType": "uint256",
          "name": "newLiquidationIncentive",
          "type": "uint256"
        }
      ],
      "name": "setLiquidationIncentive",
      "outputs": [],
      "stateMutability": "nonpayable",
      "type": "function"
    },
    {
      "inputs": [],
      "name": "setNebulaOracle",
      "outputs": [],
      "stateMutability": "nonpayable",
      "type": "function"
    },
    {
      "inputs": [
        {
          "internalType": "address",
          "name": "recipient",
          "type": "address"
        }
      ],
      "name": "skim",
      "outputs": [],
      "stateMutability": "nonpayable",
      "type": "function"
    },
    {
      "inputs": [],
      "name": "symbol",
      "outputs": [
        {
          "internalType": "string",
          "name": "",
          "type": "string"
        }
      ],
      "stateMutability": "view",
      "type": "function"
    },
    {
      "inputs": [],
      "name": "sync",
      "outputs": [],
      "stateMutability": "nonpayable",
      "type": "function"
    },
    {
      "inputs": [
        {
          "internalType": "address",
          "name": "from",
          "type": "address"
        },
        {
          "internalType": "uint256",
          "name": "value",
          "type": "uint256"
        }
      ],
      "name": "tokensUnlocked",
      "outputs": [
        {
          "internalType": "bool",
          "name": "",
          "type": "bool"
        }
      ],
      "stateMutability": "view",
      "type": "function"
    },
    {
      "inputs": [],
      "name": "totalBalance",
      "outputs": [
        {
          "internalType": "uint256",
          "name": "",
          "type": "uint256"
        }
      ],
      "stateMutability": "view",
      "type": "function"
    },
    {
      "inputs": [],
      "name": "totalSupply",
      "outputs": [
        {
          "internalType": "uint256",
          "name": "",
          "type": "uint256"
        }
      ],
      "stateMutability": "view",
      "type": "function"
    },
    {
      "inputs": [
        {
          "internalType": "address",
          "name": "recipient",
          "type": "address"
        },
        {
          "internalType": "uint256",
          "name": "amount",
          "type": "uint256"
        }
      ],
      "name": "transfer",
      "outputs": [
        {
          "internalType": "bool",
          "name": "",
          "type": "bool"
        }
      ],
      "stateMutability": "nonpayable",
      "type": "function"
    },
    {
      "inputs": [
        {
          "internalType": "address",
          "name": "sender",
          "type": "address"
        },
        {
          "internalType": "address",
          "name": "recipient",
          "type": "address"
        },
        {
          "internalType": "uint256",
          "name": "amount",
          "type": "uint256"
        }
      ],
      "name": "transferFrom",
      "outputs": [
        {
          "internalType": "bool",
          "name": "",
          "type": "bool"
        }
      ],
      "stateMutability": "nonpayable",
      "type": "function"
    },
    {
      "inputs": [],
      "name": "underlying",
      "outputs": [
        {
          "internalType": "address",
          "name": "",
          "type": "address"
        }
      ],
      "stateMutability": "view",
      "type": "function"
    },
    {
      "inputs": [],
      "name": "version",
      "outputs": [
        {
          "internalType": "string",
          "name": "",
          "type": "string"
        }
      ],
      "stateMutability": "view",
      "type": "function"
    },
    {
      "stateMutability": "payable",
      "type": "receive"
    }
  ],
  "bytecode": "0x61014060405246600755670c7d713b49da0000600f55670e92596fd62900006010553480156200002e57600080fd5b5060408051808201825260128082527110de59db9d5cce8810dbdb1b185d195c985b60721b60208084019182528451808601909552600585526404379674c560dc1b908501526000805460ff191660019081179091558351939493859285928592859285928592620000a19290620006f1565b508151620000b7906002906020850190620006f1565b5060f81b7fff000000000000000000000000000000000000000000000000000000000000001660805250506040517f8b73c3c69bb8fe3d512ecc4cf759cc79239f7b179b0ffacaa9a75d522b39400f906200011590600190620008c4565b60408051918290038220828201825260018352603160f81b602093840152600754825193840194909452908201527fc89efdaa54c0f20c7adf612882df0950f5a951637e0307cdcb4c672f298b8bc6606082015260808101919091523060a082015260c00160408051601f19818403018152919052805160209091012060a05250620001a7945050620004dc92505050565b6001600160a01b031663c3bc64ea6040518163ffffffff1660e01b8152600401606060405180830381600087803b158015620001e257600080fd5b505af1158015620001f7573d6000803e3d6000fd5b505050506040513d601f19601f820116820180604052508101906200021d9190620007bd565b60601b6001600160601b03191660c052600c80546001600160a01b03199081166001600160a01b0393841617909155600d805490911692909116918217905560408051636c9adec960e11b8152905163d935bd9291600480820192602092909190829003018186803b1580156200029357600080fd5b505afa158015620002a8573d6000803e3d6000fd5b505050506040513d601f19601f82011682018060405250810190620002ce919062000797565b600e80546001600160a01b0319166001600160a01b03928316179055600c54620003059116620004e0602090811b6200277c17901c565b80516200031b91600291602090910190620006f1565b506000600355600c5460408051630dfe168160e01b815290516001600160a01b0390921691630dfe168191600480820192602092909190829003018186803b1580156200036757600080fd5b505afa1580156200037c573d6000803e3d6000fd5b505050506040513d601f19601f82011682018060405250810190620003a2919062000797565b60601b6001600160601b03191661010052600c546040805163d21220a760e01b815290516001600160a01b039092169163d21220a791600480820192602092909190829003018186803b158015620003f957600080fd5b505afa1580156200040e573d6000803e3d6000fd5b505050506040513d601f19601f8201168201806040525081019062000434919062000797565b60601b6001600160601b03191661012052600d5460408051631c2eb17b60e31b815290516001600160a01b039092169163e1758bd891600480820192602092909190829003018186803b1580156200048b57600080fd5b505afa158015620004a0573d6000803e3d6000fd5b505050506040513d601f19601f82011682018060405250810190620004c6919062000797565b60601b6001600160601b03191660e05262000a58565b3390565b60606000826001600160a01b0316630dfe16816040518163ffffffff1660e01b815260040160206040518083038186803b1580156200051e57600080fd5b505afa15801562000533573d6000803e3d6000fd5b505050506040513d601f19601f8201168201806040525081019062000559919062000797565b6001600160a01b03166395d89b416040518163ffffffff1660e01b815260040160006040518083038186803b1580156200059257600080fd5b505afa158015620005a7573d6000803e3d6000fd5b505050506040513d6000823e601f3d908101601f19168201604052620005d1919081019062000810565b90506000836001600160a01b031663d21220a76040518163ffffffff1660e01b815260040160206040518083038186803b1580156200060f57600080fd5b505afa15801562000624573d6000803e3d6000fd5b505050506040513d601f19601f820116820180604052508101906200064a919062000797565b6001600160a01b03166395d89b416040518163ffffffff1660e01b815260040160006040518083038186803b1580156200068357600080fd5b505afa15801562000698573d6000803e3d6000fd5b505050506040513d6000823e601f3d908101601f19168201604052620006c2919081019062000810565b90508181604051602001620006d992919062000967565b60405160208183030381529060405292505050919050565b828054620006ff90620009ec565b90600052602060002090601f0160209004810192826200072357600085556200076e565b82601f106200073e57805160ff19168380011785556200076e565b828001600101855582156200076e579182015b828111156200076e57825182559160200191906001019062000751565b506200077c92915062000780565b5090565b5b808211156200077c576000815560010162000781565b600060208284031215620007a9578081fd5b8151620007b68162000a3f565b9392505050565b600080600060608486031215620007d2578182fd5b8351620007df8162000a3f565b6020850151909350620007f28162000a3f565b6040850151909250620008058162000a3f565b809150509250925092565b60006020828403121562000822578081fd5b81516001600160401b038082111562000839578283fd5b818401915084601f8301126200084d578283fd5b81518181111562000862576200086262000a29565b604051601f8201601f19908116603f011681019083821181831017156200088d576200088d62000a29565b81604052828152876020848701011115620008a6578586fd5b620008b9836020830160208801620009b9565b979650505050505050565b600080835482600182811c915080831680620008e157607f831692505b60208084108214156200090257634e487b7160e01b87526022600452602487fd5b8180156200091957600181146200092b5762000959565b60ff1986168952848901965062000959565b60008a815260209020885b86811015620009515781548b82015290850190830162000936565b505084890196505b509498975050505050505050565b65021bcb3a628160d51b8152600083516200098a816006850160208801620009b9565b602f60f81b6006918401918201528351620009ad816007840160208801620009b9565b01600701949350505050565b60005b83811015620009d6578181015183820152602001620009bc565b83811115620009e6576000848401525b50505050565b600181811c9082168062000a0157607f821691505b6020821081141562000a2357634e487b7160e01b600052602260045260246000fd5b50919050565b634e487b7160e01b600052604160045260246000fd5b6001600160a01b038116811462000a5557600080fd5b50565b60805160f81c60a05160c05160601c60e05160601c6101005160601c6101205160601c61461e62000b8960003960008181610b4201528181610bad01528181610c1501528181610d0601528181610d900152610e72015260008181610b0a01528181610b7a01528181610bce01528181610bf401528181610cab01528181610d6101528181610db101528181610dfb01528181610e4f0152610f5a01526000818161033201528181610c5101528181610c8101528181610cdc01528181610d3701528181610dda01528181610e1f015281816113700152612bab0152600081816108fd0152818161112e01528181611467015281816114a901528181611d7a015281816121fb0152818161224c015261339c0152600081816105e401526124ff01526000610582015261461e6000f3fe60806040526004361061032b5760003560e01c80637ecebe00116101a5578063adbb2597116100ec578063d505accf11610095578063e8a24e1d1161006f578063e8a24e1d14610a13578063eb6a887d14610a33578063fef0bec814610a53578063fff6cae914610a7357600080fd5b8063d505accf1461098d578063d935bd92146109ad578063dd62ed3e146109cd57600080fd5b8063bc9bd12a116100c6578063bc9bd12a1461095b578063cea55f5714610977578063cf85c8821461095b57600080fd5b8063adbb2597146108eb578063afc8276c1461091f578063bc25cf771461093b57600080fd5b80639aac2c531161014e578063a843108111610128578063a843108114610895578063a9059cbb146108b5578063ad7a672f146108d557600080fd5b80639aac2c531461083f578063a36a36301461085f578063a457c2d71461087557600080fd5b806395a2251f1161017f57806395a2251f146107f457806395d89b41146108145780639a8a05921461082957600080fd5b80637ecebe00146107915780638c765e94146107be5780638e5c2532146107d457600080fd5b806333fabfd11161027457806354fd4d501161021d5780636a627842116101f75780636a627842146106e35780636e01be10146107035780636f307dc31461072357806370a082311461075b57600080fd5b806354fd4d50146106655780635ec88c7914610692578063643211f2146106c757600080fd5b80633ba0b9a91161024e5780633ba0b9a914610626578063421f0fcc1461063b578063513036221461065057600080fd5b806333fabfd1146105b65780633644e515146105d2578063395093511461060657600080fd5b80631995bc1a116102d657806323b872dd116102b057806323b872dd1461051c57806330adf81f1461053c578063313ce5671461057057600080fd5b80631995bc1a1461047d5780631c198188146104e157806322610b78146104fc57600080fd5b8063095ea7b311610307578063095ea7b31461041757806315b02cf51461044757806318160ddd1461046757600080fd5b8061e18a146103ab578063031a5c82146103c257806306fdde03146103f557600080fd5b366103a6577f00000000000000000000000000000000000000000000000000000000000000006001600160a01b031663d0e30db0346040518263ffffffff1660e01b81526004016000604051808303818588803b15801561038b57600080fd5b505af115801561039f573d6000803e3d6000fd5b5050505050005b600080fd5b3480156103b757600080fd5b506103c0610a88565b005b3480156103ce57600080fd5b506103e26103dd366004613e52565b6110c5565b6040519081526020015b60405180910390f35b34801561040157600080fd5b5061040a6111f0565b6040516103ec91906143fa565b34801561042357600080fd5b50610437610432366004613f77565b61127e565b60405190151581526020016103ec565b34801561045357600080fd5b506103c061046236600461419e565b611295565b34801561047357600080fd5b506103e260035481565b34801561048957600080fd5b50600854600954600a54601254601454601354604080516001600160a01b039788168152602081019690965260ff909416151593850193909352908416606084015260808301529190911660a082015260c0016103ec565b3480156104ed57600080fd5b506103e26658d15e1762800081565b34801561050857600080fd5b506103e2610517366004613ec2565b61142d565b34801561052857600080fd5b50610437610537366004613ec2565b611711565b34801561054857600080fd5b506103e27f6e71edae12b1b97f4d1f60370fef10105fa2faae0126114a169c64845d6126c981565b34801561057c57600080fd5b506105a47f000000000000000000000000000000000000000000000000000000000000000081565b60405160ff90911681526020016103ec565b3480156105c257600080fd5b506103e267016345785d8a000081565b3480156105de57600080fd5b506103e27f000000000000000000000000000000000000000000000000000000000000000081565b34801561061257600080fd5b50610437610621366004613f77565b611787565b34801561063257600080fd5b506103e26117cf565b34801561064757600080fd5b506103c06117fd565b34801561065c57600080fd5b506103e2611974565b34801561067157600080fd5b5061040a604051806040016040528060018152602001603160f81b81525081565b34801561069e57600080fd5b506106b26106ad366004613e52565b6119fd565b604080519283526020830191909152016103ec565b3480156106d357600080fd5b506103e26706f05b59d3b2000081565b3480156106ef57600080fd5b506103e26106fe366004613e52565b611a15565b34801561070f57600080fd5b5061043761071e366004613f77565b611d0f565b34801561072f57600080fd5b50600c54610743906001600160a01b031681565b6040516001600160a01b0390911681526020016103ec565b34801561076757600080fd5b506103e2610776366004613e52565b6001600160a01b031660009081526004602052604090205490565b34801561079d57600080fd5b506103e26107ac366004613e52565b60066020526000908152604090205481565b3480156107ca57600080fd5b506103e260105481565b3480156107e057600080fd5b506103c06107ef366004613fa2565b611e10565b34801561080057600080fd5b506103e261080f366004613e52565b612068565b34801561082057600080fd5b5061040a6121ea565b34801561083557600080fd5b506103e260075481565b34801561084b57600080fd5b5061043761085a366004613ec2565b6121f7565b34801561086b57600080fd5b506103e260115481565b34801561088157600080fd5b50610437610890366004613f77565b6122b9565b3480156108a157600080fd5b506103c06108b03660046142ca565b6122ea565b3480156108c157600080fd5b506104376108d0366004613f77565b612378565b3480156108e157600080fd5b506103e2600b5481565b3480156108f757600080fd5b506107437f000000000000000000000000000000000000000000000000000000000000000081565b34801561092b57600080fd5b506103e26710a741a46278000081565b34801561094757600080fd5b506103c0610956366004613e52565b612385565b34801561096757600080fd5b506103e2670de0b6b3a764000081565b34801561098357600080fd5b506103e2600f5481565b34801561099957600080fd5b506103c06109a8366004613f02565b6123f6565b3480156109b957600080fd5b50600e54610743906001600160a01b031681565b3480156109d957600080fd5b506103e26109e8366004613e8a565b6001600160a01b03918216600090815260056020908152604080832093909416825291909152205490565b348015610a1f57600080fd5b50600d54610743906001600160a01b031681565b348015610a3f57600080fd5b506103c0610a4e3660046142ca565b612633565b348015610a5f57600080fd5b506103c0610a6e3660046142ca565b6126c1565b348015610a7f57600080fd5b506103c0612747565b60005460ff16610aab576040516306fda65d60e31b815260040160405180910390fd5b6000805460ff19169055610abd61297b565b6000610ac76129a5565b905080610ad457506110ae565b6000610ae7826658d15e17628000612c1a565b9050610b00336012546001600160a01b03169083612c26565b60125460009081907f00000000000000000000000000000000000000000000000000000000000000006001600160a01b0390811691161480610b7057506012547f00000000000000000000000000000000000000000000000000000000000000006001600160a01b039081169116145b15610c3f576012547f00000000000000000000000000000000000000000000000000000000000000006001600160a01b03908116911614610bf2577f00000000000000000000000000000000000000000000000000000000000000007f0000000000000000000000000000000000000000000000000000000000000000610c35565b7f00000000000000000000000000000000000000000000000000000000000000007f00000000000000000000000000000000000000000000000000000000000000005b9092509050610e92565b601254610c7f906001600160a01b03167f0000000000000000000000000000000000000000000000000000000000000000610c7a8688614525565b612c7d565b7f00000000000000000000000000000000000000000000000000000000000000006001600160a01b03167f00000000000000000000000000000000000000000000000000000000000000006001600160a01b03161480610d3057507f00000000000000000000000000000000000000000000000000000000000000006001600160a01b03167f00000000000000000000000000000000000000000000000000000000000000006001600160a01b0316145b15610dd5577f00000000000000000000000000000000000000000000000000000000000000006001600160a01b03167f00000000000000000000000000000000000000000000000000000000000000006001600160a01b031614610bf2577f00000000000000000000000000000000000000000000000000000000000000007f0000000000000000000000000000000000000000000000000000000000000000610c35565b610e4c7f00000000000000000000000000000000000000000000000000000000000000007f0000000000000000000000000000000000000000000000000000000000000000610c7a7f00000000000000000000000000000000000000000000000000000000000000006001600160a01b0316612dc2565b507f000000000000000000000000000000000000000000000000000000000000000090507f00000000000000000000000000000000000000000000000000000000000000005b6000610ea6836001600160a01b0316612dc2565b9050600080600c60009054906101000a90046001600160a01b03166001600160a01b0316630902f1ac6040518163ffffffff1660e01b815260040160606040518083038186803b158015610ef957600080fd5b505afa158015610f0d573d6000803e3d6000fd5b505050506040513d601f19601f82011682018060405250810190610f319190614288565b506dffffffffffffffffffffffffffff1691506dffffffffffffffffffffffffffff16915060007f00000000000000000000000000000000000000000000000000000000000000006001600160a01b0316866001600160a01b031614610f975781610f99565b825b90506000610faa8583601454612e3c565b9050610fb7878783612c7d565b6000610fdf8888610fc8858a614525565b610fda8b6001600160a01b0316612dc2565b612eda565b600854600954604051631c57762b60e31b81526004810191909152602481018390529192506001600160a01b03169063e2bbb15890604401600060405180830381600087803b15801561103157600080fd5b505af1158015611045573d6000803e3d6000fd5b50505050306001600160a01b03167f6ac14c64e9542da5b5d0624113aec83684dd471c3d8c61022ae5d78fa152379261107b3390565b604080516001600160a01b039092168252602082018e905281018c905260600160405180910390a2505050505050505050505b6110b6612fcd565b6000805460ff19166001179055565b6000806110f36110d36117cf565b6001600160a01b0385166000908152600460205260409020545b90612c1a565b90506000611109611102611974565b8390612c1a565b604051637d6af07960e01b81526001600160a01b0386811660048301529192506000917f00000000000000000000000000000000000000000000000000000000000000001690637d6af0799060240160206040518083038186803b15801561117057600080fd5b505afa158015611184573d6000803e3d6000fd5b505050506040513d601f19601f820116820180604052508101906111a891906142e2565b905060006111bf60115460105461110291906144ce565b905082156111e357600f546111de906111d883866130a4565b906130a4565b6111e6565b60005b9695505050505050565b600180546111fd9061456c565b80601f01602080910402602001604051908101604052809291908181526020018280546112299061456c565b80156112765780601f1061124b57610100808354040283529160200191611276565b820191906000526020600020905b81548152906001019060200180831161125957829003601f168201915b505050505081565b600061128b3384846130b9565b5060015b92915050565b60005460ff166112b8576040516306fda65d60e31b815260040160405180910390fd5b6000805460ff191690556112ca613168565b6012546001600160a01b031615611304576040516327d04a1160e01b81526001600160a01b03841660048201526024015b60405180910390fd5b601380546001600160a01b0380881673ffffffffffffffffffffffffffffffffffffffff199283161790925560088054878416908316179055600984905560128054928616929091168217905560148290556113639086600019613224565b6113996001600160a01b037f00000000000000000000000000000000000000000000000000000000000000001686600019613224565b600c546113b2906001600160a01b031685600019613224565b600a805460ff19166001179055604080516001600160a01b0387811682528681166020830152851681830152606081018490526080810183905290517fd11ba4f3abfc78cb044532e87016a0c93a03fbbb5049a35d53fb1238d9ac66529160a0908290030190a150506000805460ff19166001179055505050565b6000336001600160a01b03841614156114645760405163524f438760e11b81526001600160a01b03841660048201526024016112fb565b337f00000000000000000000000000000000000000000000000000000000000000006001600160a01b0316146114de5760405163f0f84ccf60e01b81523360048201527f00000000000000000000000000000000000000000000000000000000000000006001600160a01b031660248201526044016112fb565b6000806114ed85600019613338565b915091506000811161151c576040516311ef27af60e31b815260048101839052600060248201526044016112fb565b6000611526611974565b90506115306117cf565b60105461153d87846130a4565b6115479190614506565b61155191906144e6565b6001600160a01b03871660009081526004602052604081208054929650869290919061157e908490614525565b90915550506001600160a01b038716600090815260046020526040812080548692906115ab9084906144ce565b9091555050601154600090156116b4576011546115c9908690612c1a565b90506000600d60009054906101000a90046001600160a01b03166001600160a01b031663a8dc69746040518163ffffffff1660e01b815260040160206040518083038186803b15801561161b57600080fd5b505afa15801561162f573d6000803e3d6000fd5b505050506040513d601f19601f820116820180604052508101906116539190613e6e565b6001600160a01b038916600090815260046020526040812080549293508492909190611680908490614525565b90915550506001600160a01b038116600090815260046020526040812080548492906116ad9084906144ce565b9091555050505b604080516001600160a01b03808a1682528a166020820152908101869052606081018290527fe48ca9d6d45765ca2990f9866be78fb36fd23cc17e004d0a20d347ecccb745a89060800160405180910390a1505050509392505050565b600061171e84848461345d565b6001600160a01b03841660009081526005602090815260408083203384529091529020548281101561176d57604051632b3ca6f360e11b815260048101829052602481018490526044016112fb565b61177a85338584036130b9565b60019150505b9392505050565b3360009081526005602090815260408083206001600160a01b038616845290915281205481906117b89084906144ce565b90506117c53385836130b9565b5060019392505050565b60035460009080156117ed57600b546117e890826130a4565b6117f7565b670de0b6b3a76400005b91505090565b611805613168565b60005460ff16611828576040516306fda65d60e31b815260040160405180910390fd5b6000805460ff19168155600d5460408051636c9adec960e11b815290516001600160a01b039092169163d935bd9291600480820192602092909190829003018186803b15801561187757600080fd5b505afa15801561188b573d6000803e3d6000fd5b505050506040513d601f19601f820116820180604052508101906118af9190613e6e565b600e549091506001600160a01b03808316911614156118f857600e54604051637a4ec46360e01b81526001600160a01b03918216600482015290821660248201526044016112fb565b600e80546001600160a01b0383811673ffffffffffffffffffffffffffffffffffffffff1983168117909355604080519190921680825260208201939093527fd52b2b9b7e9ee655fcb95d2e5b9e0c9f69e7ef2b8e9d2d0ea78402d576d22e2291015b60405180910390a150506000805460ff19166001179055565b600e54600c54604051633a08ab8b60e01b81526001600160a01b0391821660048201526000929190911690633a08ab8b9060240160206040518083038186803b1580156119c057600080fd5b505afa1580156119d4573d6000803e3d6000fd5b505050506040513d601f19601f820116820180604052508101906119f891906142e2565b905090565b600080611a0c83600019613338565b91509150915091565b6000805460ff16611a39576040516306fda65d60e31b815260040160405180910390fd5b6000805460ff19168155600c546040516370a0823160e01b81523060048201526001600160a01b03909116906370a082319060240160206040518083038186803b158015611a8657600080fd5b505afa158015611a9a573d6000803e3d6000fd5b505050506040513d601f19601f82011682018060405250810190611abe91906142e2565b600a5490915060ff1615611c5b576008546009546040516393f1a40b60e01b815260048101919091523060248201526000916001600160a01b0316906393f1a40b90604401604080518083038186803b158015611b1a57600080fd5b505afa158015611b2e573d6000803e3d6000fd5b505050506040513d601f19601f82011682018060405250810190611b5291906142fa565b50600854600954604051631c57762b60e31b81526004810191909152602481018590529192506001600160a01b03169063e2bbb15890604401600060405180830381600087803b158015611ba557600080fd5b505af1158015611bb9573d6000803e3d6000fd5b50506008546009546040516393f1a40b60e01b81526004810191909152306024820152600093506001600160a01b0390911691506393f1a40b90604401604080518083038186803b158015611c0d57600080fd5b505afa158015611c21573d6000803e3d6000fd5b505050506040513d601f19601f82011682018060405250810190611c4591906142fa565b509050611c528282614525565b92505050611c6b565b600b54611c689082614525565b90505b611c7d611c766117cf565b82906130a4565b915060008211611ca35760405163cd698f4d60e01b8152600481018390526024016112fb565b611cad83836134a9565b60408051828152602081018490526001600160a01b0385169133917f2f00e3cdd69a77be7ed215ec7b2a36784dd158f921fca79ac29deffa353fe6ee91015b60405180910390a350611cfd612fcd565b6000805460ff19166001179055919050565b6001600160a01b03821660009081526004602052604081205480831115611d3a57600091505061128f565b6000611d468483614525565b90506000611d556111026117cf565b604051637d6af07960e01b81526001600160a01b0388811660048301529192506000917f00000000000000000000000000000000000000000000000000000000000000001690637d6af0799060240160206040518083038186803b158015611dbc57600080fd5b505afa158015611dd0573d6000803e3d6000fd5b505050506040513d601f19601f82011682018060405250810190611df491906142e2565b90506000611e02838361355c565b159998505050505050505050565b60005460ff16611e33576040516306fda65d60e31b815260040160405180910390fd5b6000805460ff1916905582611e6a57604051637476c0cb60e11b8152336004820152326024820152604481018490526064016112fb565b600b54831115611e9b57600b546040516345a1e23f60e11b81526112fb918591600401918252602082015260400190565b600a5460ff1615611f1557600854600954604051630441a3e760e41b81526001600160a01b039092169163441a3e7091611ee2918790600401918252602082015260400190565b600060405180830381600087803b158015611efc57600080fd5b505af1158015611f10573d6000803e3d6000fd5b505050505b600c54611f2c906001600160a01b03168585612c26565b8015611f975760405163989bebcf60e01b81526001600160a01b0385169063989bebcf90611f649033908790879087906004016143b4565b600060405180830381600087803b158015611f7e57600080fd5b505af1158015611f92573d6000803e3d6000fd5b505050505b3060009081526004602052604081205490611fba611fb36117cf565b86906130a4565b611fc59060016144ce565b905080821015611ff257604051633ff6a11160e01b815260048101839052602481018290526044016112fb565b611ffc30836135d6565b604080513381526001600160a01b03881660208201528082018790526060810184905290517f23cee814a3036d83a7d4ef9ef196affdcccb5fbb5e2ad7ea44df596a079987b49181900360800190a15050612055612fcd565b50506000805460ff191660011790555050565b6000805460ff1661208c576040516306fda65d60e31b815260040160405180910390fd5b6000805460ff19168155308152600460205260409020546120b56120ae6117cf565b8290612c1a565b9150600082116120db576040516319f4fb4360e31b8152600481018390526024016112fb565b600b5482111561210c57600b546040516339eff09f60e11b81526112fb918491600401918252602082015260400190565b61211630826135d6565b600a5460ff161561219057600854600954604051630441a3e760e41b81526001600160a01b039092169163441a3e709161215d918690600401918252602082015260400190565b600060405180830381600087803b15801561217757600080fd5b505af115801561218b573d6000803e3d6000fd5b505050505b600c546121a7906001600160a01b03168484612c26565b60408051838152602081018390526001600160a01b0385169133917f3f693fff038bb8a046aa76d9516190ac7444f7d69cf952c4cbdc086fdef2d6fc9101611cec565b600280546111fd9061456c565b60007f00000000000000000000000000000000000000000000000000000000000000006001600160a01b03848116908216146122795760405163d06d9b9360e01b81526001600160a01b0380861660048301527f00000000000000000000000000000000000000000000000000000000000000001660248201526044016112fb565b6000816001600160a01b0316856001600160a01b03161461229c5760001961229e565b835b905060006122ac8783613338565b1598975050505050505050565b3360009081526005602090815260408083206001600160a01b038616845290915281205481906117b8908490614525565b6122f2613168565b60005460ff16612315576040516306fda65d60e31b815260040160405180910390fd5b6000805460ff1916905561233a670de0b6b3a76400006710a741a46278000083613681565b601080549082905560408051828152602081018490527faeba5a6c40a8ac138134bff1aaa65debf25971188a58804bad717f82f0ec1316910161195b565b600061128b33848461345d565b60005460ff166123a8576040516306fda65d60e31b815260040160405180910390fd5b6000805460ff19168155600b5430825260046020526040909120546123e69183916123d39190614525565b600c546001600160a01b03169190612c26565b506000805460ff19166001179055565b6001600160a01b03871661241d5760405163bc622b6360e01b815260040160405180910390fd5b6001600160a01b03861661244457604051632853494b60e11b815260040160405180910390fd5b428410156124685760405163212ed8bb60e11b8152600481018590526024016112fb565b6001600160a01b0387811660008181526006602090815260408083208054600180820190925582517f6e71edae12b1b97f4d1f60370fef10105fa2faae0126114a169c64845d6126c98186015280840196909652958c166060860152608085018b905260a085019590955260c08085018a90528151808603909101815260e08501825280519083012061190160f01b6101008601527f000000000000000000000000000000000000000000000000000000000000000061010286015261012280860182905282518087039091018152610142860180845281519185019190912090859052610162860180845281905260ff8a166101828701526101a286018990526101c2860188905291519095919491926101e2808401939192601f1981019281900390910190855afa1580156125a3573d6000803e3d6000fd5b5050604051601f1901519150506001600160a01b0381166125d757604051630f81234f60e31b815260040160405180910390fd5b896001600160a01b0316816001600160a01b03161461261c57604051630b76193960e31b815260ff8716600482015260248101869052604481018590526064016112fb565b6126278a8a8a6130b9565b50505050505050505050565b61263b613168565b60005460ff1661265e576040516306fda65d60e31b815260040160405180910390fd5b6000805460ff191690556126836706f05b59d3b20000670de0b6b3a764000083613681565b600f80549082905560408051828152602081018490527ff25d2243e4128e51523d8537f04f18c3e6390bbfc6323390a9a8e59b921ce046910161195b565b6126c9613168565b60005460ff166126ec576040516306fda65d60e31b815260040160405180910390fd5b6000805460ff191681556127099067016345785d8a000083613681565b601180549082905560408051828152602081018490527f87272249f1056ec16a68dd9255101358246dd26a796e2f0bc6b3a0ad02f2de41910161195b565b60005460ff1661276a576040516306fda65d60e31b815260040160405180910390fd5b6000805460ff191690556110b6612fcd565b60606000826001600160a01b0316630dfe16816040518163ffffffff1660e01b815260040160206040518083038186803b1580156127b957600080fd5b505afa1580156127cd573d6000803e3d6000fd5b505050506040513d601f19601f820116820180604052508101906127f19190613e6e565b6001600160a01b03166395d89b416040518163ffffffff1660e01b815260040160006040518083038186803b15801561282957600080fd5b505afa15801561283d573d6000803e3d6000fd5b505050506040513d6000823e601f3d908101601f1916820160405261286591908101906141f8565b90506000836001600160a01b031663d21220a76040518163ffffffff1660e01b815260040160206040518083038186803b1580156128a257600080fd5b505afa1580156128b6573d6000803e3d6000fd5b505050506040513d601f19601f820116820180604052508101906128da9190613e6e565b6001600160a01b03166395d89b416040518163ffffffff1660e01b815260040160006040518083038186803b15801561291257600080fd5b505afa158015612926573d6000803e3d6000fd5b505050506040513d6000823e601f3d908101601f1916820160405261294e91908101906141f8565b90508181604051602001612963929190614366565b60405160208183030381529060405292505050919050565b3332146129a357604051631fec819f60e21b81523360048201523260248201526044016112fb565b565b600854600954604051630441a3e760e41b81526004810191909152600060248201819052916001600160a01b03169063441a3e7090604401600060405180830381600087803b1580156129f757600080fd5b505af1158015612a0b573d6000803e3d6000fd5b5050600854600954604051631526fe2760e01b81526004810191909152600093506001600160a01b039091169150631526fe27906024016101206040518083038186803b158015612a5b57600080fd5b505afa158015612a6f573d6000803e3d6000fd5b505050506040513d601f19601f82011682018060405250810190612a939190614026565b5050509550505050505060006001600160a01b0316816001600160a01b031614612c05576000816001600160a01b03166373cfc6b26040518163ffffffff1660e01b815260040160206040518083038186803b158015612af257600080fd5b505afa158015612b06573d6000803e3d6000fd5b505050506040513d601f19601f82011682018060405250810190612b2a919061417e565b9050600081612ba957826001600160a01b031663f7c618c16040518163ffffffff1660e01b815260040160206040518083038186803b158015612b6c57600080fd5b505afa158015612b80573d6000803e3d6000fd5b505050506040513d601f19601f82011682018060405250810190612ba49190613e6e565b612bcb565b7f00000000000000000000000000000000000000000000000000000000000000005b90506000612be1826001600160a01b0316612dc2565b90508015612c0157601254612c019083906001600160a01b031683612c7d565b5050505b6012546117f7906001600160a01b0316612dc2565b600061178083836136bc565b604080516001600160a01b038416602482015260448082018490528251808303909101815260649091019091526020810180516001600160e01b031663a9059cbb60e01b179052612c7890849061377e565b505050565b6040805160028082526060820183526000926020830190803683370190505090508381600081518110612cc057634e487b7160e01b600052603260045260246000fd5b60200260200101906001600160a01b031690816001600160a01b0316815250508281600181518110612d0257634e487b7160e01b600052603260045260246000fd5b6001600160a01b039283166020918202929092010152601354612d2a918681169116846137fb565b6013546040516338ed173960e01b81526001600160a01b03909116906338ed173990612d65908590600090869030906000199060040161442d565b600060405180830381600087803b158015612d7f57600080fd5b505af1158015612d93573d6000803e3d6000fd5b505050506040513d6000823e601f3d908101601f19168201604052612dbb91908101906140d6565b5050505050565b6040516370a0823160e01b81523060048201526000906001600160a01b038316906370a082319060240160206040518083038186803b158015612e0457600080fd5b505afa158015612e18573d6000803e3d6000fd5b505050506040513d601f19601f8201168201806040525081019061128f91906142e2565b60008083612e4c846103e86144ce565b612e569190614506565b905060008385612e68886103e8614506565b612e729190614506565b612e7d906004614506565b612e879190614506565b90506000612ea882612e998580614506565b612ea391906144ce565b613894565b90506000612eb7866002614506565b905080612ec48584614525565b612ece91906144e6565b98975050505050505050565b601354600090612ef7906001600160a01b038781169116856137fb565b601354612f11906001600160a01b038681169116846137fb565b60135460405162e8e33760e81b81526001600160a01b0387811660048301528681166024830152604482018690526064820185905260006084830181905260a48301523060c483015260001960e48301529091169063e8e337009061010401606060405180830381600087803b158015612f8a57600080fd5b505af1158015612f9e573d6000803e3d6000fd5b505050506040513d601f19601f82011682018060405250810190612fc2919061431d565b979650505050505050565b600a5460ff16612fdf576129a3613a8c565b6008546009546040516393f1a40b60e01b815260048101919091523060248201526000916001600160a01b0316906393f1a40b90604401604080518083038186803b15801561302d57600080fd5b505afa158015613041573d6000803e3d6000fd5b505050506040513d601f19601f8201168201806040525081019061306591906142fa565b50600b8190556040518181529091507f8a0df8ef054fae2c3d2d19a7b322e864870cc9fd3cb07fb9526309c596244bf49060200160405180910390a150565b600061178083670de0b6b3a764000084613b41565b6001600160a01b0383166130e05760405163230326bf60e11b815260040160405180910390fd5b6001600160a01b03821661310757604051630b39ecd960e21b815260040160405180910390fd5b6001600160a01b0383811660008181526005602090815260408083209487168084529482529182902085905590518481527f8c5be1e5ebec7d5bd14f71427d1e84f3dd0314c0f7b2291e5b200ac8c7c3b925910160405180910390a3505050565b600d54604080516303e1469160e61b815290516000926001600160a01b03169163f851a440916004808301926020929190829003018186803b1580156131ad57600080fd5b505afa1580156131c1573d6000803e3d6000fd5b505050506040513d601f19601f820116820180604052508101906131e59190613e6e565b9050336001600160a01b0382161461322157604051633e7c764160e21b81523360048201526001600160a01b03821660248201526044016112fb565b50565b604080516001600160a01b038481166024830152604480830185905283518084039091018152606490920183526020820180516001600160e01b031663095ea7b360e01b1790529151600092839290871691613280919061434a565b6000604051808303816000865af19150503d80600081146132bd576040519150601f19603f3d011682016040523d82523d6000602084013e6132c2565b606091505b50915091508180156132ec5750805115806132ec5750808060200190518101906132ec919061417e565b612dbb5760405162461bcd60e51b815260206004820152600c60248201527f2173616665417070726f7665000000000000000000000000000000000000000060448201526064016112fb565b6000806001600160a01b0384166133735760405163a5075cd160e01b81526001600160a01b03851660048201523260248201526044016112fb565b60001983141561341957604051637d6af07960e01b81526001600160a01b0385811660048301527f00000000000000000000000000000000000000000000000000000000000000001690637d6af0799060240160206040518083038186803b1580156133de57600080fd5b505afa1580156133f2573d6000803e3d6000fd5b505050506040513d601f19601f8201168201806040525081019061341691906142e2565b92505b60006134446134266117cf565b6001600160a01b0387166000908152600460205260409020546110ed565b9050613450818561355c565b92509250505b9250929050565b6134678382611d0f565b61349e57604051633595d14560e21b81526001600160a01b03808516600483015283166024820152604481018290526064016112fb565b612c78838383613c1d565b6001600160a01b0382166134d05760405163139241eb60e01b815260040160405180910390fd5b6001600160a01b038216600090815260046020526040812080548392906134f89084906144ce565b92505081905550806003600082825461351191906144ce565b90915550506040518181526001600160a01b038316906000907fddf252ad1be2c89b69c2b068fc378daa952ba7f163c4a11628f55a4df523b3ef906020015b60405180910390a35050565b6000806000613569611974565b905060006135778683612c1a565b90506000613590600f5483612c1a90919063ffffffff16565b905060006135ae6011546010546135a791906144ce565b8890612c1a565b90508082106135c7579003935060009250613456915050565b60009550039250613456915050565b6001600160a01b0382166135fd57604051638e35e80360e01b815260040160405180910390fd5b6001600160a01b03821660009081526004602052604081208054839290613625908490614525565b92505081905550806003600082825461363e9190614525565b90915550506040518181526000906001600160a01b038416907fddf252ad1be2c89b69c2b068fc378daa952ba7f163c4a11628f55a4df523b3ef90602001613550565b8281108061368e57508181115b15612c785760405162ccc44d60e41b81526004810184905260248101839052604481018290526064016112fb565b60008080600019848609848602925082811083820303915050670de0b6b3a764000081106137005760405163698d9a0160e11b8152600481018290526024016112fb565b600080670de0b6b3a76400008688099150506706f05b59d3b1ffff81118261373a5780670de0b6b3a764000085040194505050505061128f565b620400008285030493909111909103600160ee1b02919091177faccb18165bd6fe31ae1cf318dc5b51eee0e1ba569b88cd74c1773b91fac106690201905092915050565b60006137c083836040518060400160405280601581526020017f5361666545726332304c6f774c6576656c43616c6c0000000000000000000000815250613d40565b805190915015612c7857808060200190518101906137de919061417e565b612c78576040516364d6fc4d60e01b815260040160405180910390fd5b604051636eb1769f60e11b81523060048201526001600160a01b03838116602483015282919085169063dd62ed3e9060440160206040518083038186803b15801561384557600080fd5b505afa158015613859573d6000803e3d6000fd5b505050506040513d601f19601f8201168201806040525081019061387d91906142e2565b1061388757505050565b612c788383600019613224565b6000816138a357506000919050565b5060018170010000000000000000000000000000000081106138ca5760409190911b9060801c5b6801000000000000000081106138e55760209190911b9060401c5b64010000000081106138fc5760109190911b9060201c5b6201000081106139115760089190911b9060101c5b61010081106139255760049190911b9060081c5b601081106139385760029190911b9060041c5b6008811061394857600182901b91505b600182848161396757634e487b7160e01b600052601260045260246000fd5b048301901c9150600182848161398d57634e487b7160e01b600052601260045260246000fd5b048301901c915060018284816139b357634e487b7160e01b600052601260045260246000fd5b048301901c915060018284816139d957634e487b7160e01b600052601260045260246000fd5b048301901c915060018284816139ff57634e487b7160e01b600052601260045260246000fd5b048301901c91506001828481613a2557634e487b7160e01b600052601260045260246000fd5b048301901c91506001828481613a4b57634e487b7160e01b600052601260045260246000fd5b048301901c91506000828481613a7157634e487b7160e01b600052601260045260246000fd5b04905080831015613a825782613a84565b805b949350505050565b600c546040516370a0823160e01b81523060048201526001600160a01b03909116906370a082319060240160206040518083038186803b158015613acf57600080fd5b505afa158015613ae3573d6000803e3d6000fd5b505050506040513d601f19601f82011682018060405250810190613b0791906142e2565b600b8190556040519081527f8a0df8ef054fae2c3d2d19a7b322e864870cc9fd3cb07fb9526309c596244bf49060200160405180910390a1565b600080806000198587098587029250828110838203039150508060001415613b8a57838281613b8057634e487b7160e01b600052601260045260246000fd5b0492505050611780565b838110613bb457604051631dcf306360e21b815260048101829052602481018590526044016112fb565b60008486880960026001871981018816978890046003810283188082028403028082028403028082028403028082028403028082028403029081029092039091026000889003889004909101858311909403939093029303949094049190911702949350505050565b6001600160a01b038316613c445760405163907bfbd760e01b815260040160405180910390fd5b6001600160a01b038216613c6b57604051637184c13f60e01b815260040160405180910390fd5b6001600160a01b03831660009081526004602052604090205481811015613caf57604051632dcf2e2160e21b815260048101829052602481018390526044016112fb565b6001600160a01b03808516600090815260046020526040808220858503905591851681529081208054849290613ce69084906144ce565b92505081905550826001600160a01b0316846001600160a01b03167fddf252ad1be2c89b69c2b068fc378daa952ba7f163c4a11628f55a4df523b3ef84604051613d3291815260200190565b60405180910390a350505050565b60606001600160a01b0384163b613d7557604051638201cc0560e01b81526001600160a01b03851660048201526024016112fb565b600080856001600160a01b031685604051613d90919061434a565b6000604051808303816000865af19150503d8060008114613dcd576040519150601f19603f3d011682016040523d82523d6000602084013e613dd2565b606091505b50915091508115613de65791506117809050565b805115613df65780518082602001fd5b8360405162461bcd60e51b81526004016112fb91906143fa565b8051613e1b816145d3565b919050565b80516dffffffffffffffffffffffffffff81168114613e1b57600080fd5b805163ffffffff81168114613e1b57600080fd5b600060208284031215613e63578081fd5b8135611780816145d3565b600060208284031215613e7f578081fd5b8151611780816145d3565b60008060408385031215613e9c578081fd5b8235613ea7816145d3565b91506020830135613eb7816145d3565b809150509250929050565b600080600060608486031215613ed6578081fd5b8335613ee1816145d3565b92506020840135613ef1816145d3565b929592945050506040919091013590565b600080600080600080600060e0888a031215613f1c578283fd5b8735613f27816145d3565b96506020880135613f37816145d3565b95506040880135945060608801359350608088013560ff81168114613f5a578384fd5b9699959850939692959460a0840135945060c09093013592915050565b60008060408385031215613f89578182fd5b8235613f94816145d3565b946020939093013593505050565b60008060008060608587031215613fb7578182fd5b8435613fc2816145d3565b935060208501359250604085013567ffffffffffffffff80821115613fe5578384fd5b818701915087601f830112613ff8578384fd5b813581811115614006578485fd5b886020828501011115614017578485fd5b95989497505060200194505050565b60008060008060008060008060006101208a8c031215614044578283fd5b895161404f816145d3565b60208b01519099506bffffffffffffffffffffffff81168114614070578384fd5b8098505060408a0151965060608a0151955060808a015167ffffffffffffffff8116811461409c578384fd5b94506140aa60a08b01613e10565b93506140b860c08b01613e3e565b925060e08a015191506101008a015190509295985092959850929598565b600060208083850312156140e8578182fd5b825167ffffffffffffffff808211156140ff578384fd5b818501915085601f830112614112578384fd5b815181811115614124576141246145bd565b8060051b915061413584830161449d565b8181528481019084860184860187018a101561414f578788fd5b8795505b83861015614171578051835260019590950194918601918601614153565b5098975050505050505050565b60006020828403121561418f578081fd5b81518015158114611780578182fd5b600080600080600060a086880312156141b5578283fd5b85356141c0816145d3565b945060208601356141d0816145d3565b935060408601356141e0816145d3565b94979396509394606081013594506080013592915050565b600060208284031215614209578081fd5b815167ffffffffffffffff80821115614220578283fd5b818401915084601f830112614233578283fd5b815181811115614245576142456145bd565b614258601f8201601f191660200161449d565b915080825285602082850101111561426e578384fd5b61427f81602084016020860161453c565b50949350505050565b60008060006060848603121561429c578081fd5b6142a584613e20565b92506142b360208501613e20565b91506142c160408501613e3e565b90509250925092565b6000602082840312156142db578081fd5b5035919050565b6000602082840312156142f3578081fd5b5051919050565b6000806040838503121561430c578182fd5b505080516020909101519092909150565b600080600060608486031215614331578081fd5b8351925060208401519150604084015190509250925092565b6000825161435c81846020870161453c565b9190910192915050565b65021bcb3a628160d51b81526000835161438781600685016020880161453c565b602f60f81b60069184019182015283516143a881600784016020880161453c565b01600701949350505050565b6001600160a01b038516815283602082015260606040820152816060820152818360808301376000818301608090810191909152601f909201601f191601019392505050565b602081526000825180602084015261441981604085016020870161453c565b601f01601f19169190910160400192915050565b600060a082018783526020878185015260a0604085015281875180845260c0860191508289019350845b8181101561447c5784516001600160a01b031683529383019391830191600101614457565b50506001600160a01b03969096166060850152505050608001529392505050565b604051601f8201601f1916810167ffffffffffffffff811182821017156144c6576144c66145bd565b604052919050565b600082198211156144e1576144e16145a7565b500190565b60008261450157634e487b7160e01b81526012600452602481fd5b500490565b6000816000190483118215151615614520576145206145a7565b500290565b600082821015614537576145376145a7565b500390565b60005b8381101561455757818101518382015260200161453f565b83811115614566576000848401525b50505050565b600181811c9082168061458057607f821691505b602082108114156145a157634e487b7160e01b600052602260045260246000fd5b50919050565b634e487b7160e01b600052601160045260246000fd5b634e487b7160e01b600052604160045260246000fd5b6001600160a01b038116811461322157600080fdfea2646970667358221220653e2ebba2bb96ce175639ff737556afbdb4163d2345a29afbb5c5f5638ee8af64736f6c63430008040033",
  "linkReferences": {},
  "deployedLinkReferences": {}
}