{
  "_format": "hh-sol-artifact-1",
  "contractName": "CygnusCollateral",
  "sourceName": "contracts/cygnus-core/CygnusCollateral.sol",
  "abi": [
    {
      "inputs": [],
      "name": "AllowanceOverflow",
      "type": "error"
    },
    {
      "inputs": [],
      "name": "AllowanceUnderflow",
      "type": "error"
    },
    {
      "inputs": [],
      "name": "CygnusCollateralControl__ParameterNotInRange",
      "type": "error"
    },
    {
      "inputs": [],
      "name": "CygnusCollateralModel__BorrowerCantBeAddressZero",
      "type": "error"
    },
    {
      "inputs": [],
      "name": "CygnusCollateralModel__BorrowerCantBeCollateral",
      "type": "error"
    },
    {
      "inputs": [],
      "name": "CygnusCollateralModel__PriceCantBeZero",
      "type": "error"
    },
    {
      "inputs": [],
      "name": "CygnusCollateralVoid__OnlyHarvesterAllowed",
      "type": "error"
    },
    {
      "inputs": [],
      "name": "CygnusCollateral__CantLiquidateZero",
      "type": "error"
    },
    {
      "inputs": [],
      "name": "CygnusCollateral__CantRedeemZero",
      "type": "error"
    },
    {
      "inputs": [],
      "name": "CygnusCollateral__InsufficientCygLPReceived",
      "type": "error"
    },
    {
      "inputs": [],
      "name": "CygnusCollateral__InsufficientLiquidity",
      "type": "error"
    },
    {
      "inputs": [],
      "name": "CygnusCollateral__MsgSenderNotBorrowable",
      "type": "error"
    },
    {
      "inputs": [],
      "name": "CygnusCollateral__NotLiquidatable",
      "type": "error"
    },
    {
      "inputs": [],
      "name": "CygnusCollateral__RedeemAmountInvalid",
      "type": "error"
    },
    {
      "inputs": [],
      "name": "CygnusTerminal__CantMintZeroShares",
      "type": "error"
    },
    {
      "inputs": [],
      "name": "CygnusTerminal__CantRedeemZeroAssets",
      "type": "error"
    },
    {
      "inputs": [],
      "name": "CygnusTerminal__CantSweepUnderlying",
      "type": "error"
    },
    {
      "inputs": [],
      "name": "CygnusTerminal__MsgSenderNotAdmin",
      "type": "error"
    },
    {
      "inputs": [],
      "name": "InsufficientAllowance",
      "type": "error"
    },
    {
      "inputs": [],
      "name": "InsufficientBalance",
      "type": "error"
    },
    {
      "inputs": [],
      "name": "InvalidPermit",
      "type": "error"
    },
    {
      "inputs": [],
      "name": "PermitExpired",
      "type": "error"
    },
    {
      "inputs": [],
      "name": "ReentrantCall",
      "type": "error"
    },
    {
      "inputs": [],
      "name": "TotalSupplyOverflow",
      "type": "error"
    },
    {
      "anonymous": false,
      "inputs": [
        {
          "indexed": true,
          "internalType": "address",
          "name": "owner",
          "type": "address"
        },
        {
          "indexed": true,
          "internalType": "address",
          "name": "spender",
          "type": "address"
        },
        {
          "indexed": false,
          "internalType": "uint256",
          "name": "amount",
          "type": "uint256"
        }
      ],
      "name": "Approval",
      "type": "event"
    },
    {
      "anonymous": false,
      "inputs": [
        {
          "indexed": false,
          "internalType": "address",
          "name": "underlying",
          "type": "address"
        },
        {
          "indexed": false,
          "internalType": "uint256",
          "name": "shuttleId",
          "type": "uint256"
        },
        {
          "indexed": false,
          "internalType": "address",
          "name": "sender",
          "type": "address"
        }
      ],
      "name": "ChargeVoid",
      "type": "event"
    },
    {
      "anonymous": false,
      "inputs": [
        {
          "indexed": true,
          "internalType": "address",
          "name": "sender",
          "type": "address"
        },
        {
          "indexed": true,
          "internalType": "address",
          "name": "recipient",
          "type": "address"
        },
        {
          "indexed": false,
          "internalType": "uint256",
          "name": "assets",
          "type": "uint256"
        },
        {
          "indexed": false,
          "internalType": "uint256",
          "name": "shares",
          "type": "uint256"
        }
      ],
      "name": "Deposit",
      "type": "event"
    },
    {
      "anonymous": false,
      "inputs": [
        {
          "indexed": false,
          "internalType": "uint256",
          "name": "oldDebtRatio",
          "type": "uint256"
        },
        {
          "indexed": false,
          "internalType": "uint256",
          "name": "newDebtRatio",
          "type": "uint256"
        }
      ],
      "name": "NewDebtRatio",
      "type": "event"
    },
    {
      "anonymous": false,
      "inputs": [
        {
          "indexed": false,
          "internalType": "contract ICygnusHarvester",
          "name": "oldHarvester",
          "type": "address"
        },
        {
          "indexed": false,
          "internalType": "contract ICygnusHarvester",
          "name": "newHarvester",
          "type": "address"
        }
      ],
      "name": "NewHarvester",
      "type": "event"
    },
    {
      "anonymous": false,
      "inputs": [
        {
          "indexed": false,
          "internalType": "uint256",
          "name": "oldLiquidationFee",
          "type": "uint256"
        },
        {
          "indexed": false,
          "internalType": "uint256",
          "name": "newLiquidationFee",
          "type": "uint256"
        }
      ],
      "name": "NewLiquidationFee",
      "type": "event"
    },
    {
      "anonymous": false,
      "inputs": [
        {
          "indexed": false,
          "internalType": "uint256",
          "name": "oldLiquidationIncentive",
          "type": "uint256"
        },
        {
          "indexed": false,
          "internalType": "uint256",
          "name": "newLiquidationIncentive",
          "type": "uint256"
        }
      ],
      "name": "NewLiquidationIncentive",
      "type": "event"
    },
    {
      "anonymous": false,
      "inputs": [
        {
          "indexed": true,
          "internalType": "address",
          "name": "reinvestor",
          "type": "address"
        },
        {
          "indexed": false,
          "internalType": "uint256",
          "name": "liquidity",
          "type": "uint256"
        },
        {
          "indexed": false,
          "internalType": "uint256",
          "name": "timestamp",
          "type": "uint256"
        }
      ],
      "name": "RechargeVoid",
      "type": "event"
    },
    {
      "anonymous": false,
      "inputs": [
        {
          "indexed": true,
          "internalType": "address",
          "name": "liquidator",
          "type": "address"
        },
        {
          "indexed": true,
          "internalType": "address",
          "name": "borrower",
          "type": "address"
        },
        {
          "indexed": false,
          "internalType": "uint256",
          "name": "cygLPAmount",
          "type": "uint256"
        },
        {
          "indexed": false,
          "internalType": "uint256",
          "name": "daoFee",
          "type": "uint256"
        },
        {
          "indexed": false,
          "internalType": "uint256",
          "name": "seized",
          "type": "uint256"
        }
      ],
      "name": "SeizeCygLP",
      "type": "event"
    },
    {
      "anonymous": false,
      "inputs": [
        {
          "indexed": true,
          "internalType": "address",
          "name": "sender",
          "type": "address"
        },
        {
          "indexed": true,
          "internalType": "address",
          "name": "token",
          "type": "address"
        },
        {
          "indexed": false,
          "internalType": "uint256",
          "name": "balance",
          "type": "uint256"
        }
      ],
      "name": "SweepToken",
      "type": "event"
    },
    {
      "anonymous": false,
      "inputs": [
        {
          "indexed": false,
          "internalType": "uint160",
          "name": "totalBalance",
          "type": "uint160"
        }
      ],
      "name": "Sync",
      "type": "event"
    },
    {
      "anonymous": false,
      "inputs": [
        {
          "indexed": true,
          "internalType": "address",
          "name": "from",
          "type": "address"
        },
        {
          "indexed": true,
          "internalType": "address",
          "name": "to",
          "type": "address"
        },
        {
          "indexed": false,
          "internalType": "uint256",
          "name": "amount",
          "type": "uint256"
        }
      ],
      "name": "Transfer",
      "type": "event"
    },
    {
      "anonymous": false,
      "inputs": [
        {
          "indexed": true,
          "internalType": "address",
          "name": "sender",
          "type": "address"
        },
        {
          "indexed": true,
          "internalType": "address",
          "name": "recipient",
          "type": "address"
        },
        {
          "indexed": true,
          "internalType": "address",
          "name": "owner",
          "type": "address"
        },
        {
          "indexed": false,
          "internalType": "uint256",
          "name": "assets",
          "type": "uint256"
        },
        {
          "indexed": false,
          "internalType": "uint256",
          "name": "shares",
          "type": "uint256"
        }
      ],
      "name": "Withdraw",
      "type": "event"
    },
    {
      "inputs": [],
      "name": "DOMAIN_SEPARATOR",
      "outputs": [
        {
          "internalType": "bytes32",
          "name": "result",
          "type": "bytes32"
        }
      ],
      "stateMutability": "view",
      "type": "function"
    },
    {
      "inputs": [],
      "name": "PERMIT2",
      "outputs": [
        {
          "internalType": "contract IAllowanceTransfer",
          "name": "",
          "type": "address"
        }
      ],
      "stateMutability": "view",
      "type": "function"
    },
    {
      "inputs": [
        {
          "internalType": "address",
          "name": "owner",
          "type": "address"
        },
        {
          "internalType": "address",
          "name": "spender",
          "type": "address"
        }
      ],
      "name": "allowance",
      "outputs": [
        {
          "internalType": "uint256",
          "name": "result",
          "type": "uint256"
        }
      ],
      "stateMutability": "view",
      "type": "function"
    },
    {
      "inputs": [
        {
          "internalType": "address",
          "name": "spender",
          "type": "address"
        },
        {
          "internalType": "uint256",
          "name": "amount",
          "type": "uint256"
        }
      ],
      "name": "approve",
      "outputs": [
        {
          "internalType": "bool",
          "name": "",
          "type": "bool"
        }
      ],
      "stateMutability": "nonpayable",
      "type": "function"
    },
    {
      "inputs": [
        {
          "internalType": "address",
          "name": "owner",
          "type": "address"
        }
      ],
      "name": "balanceOf",
      "outputs": [
        {
          "internalType": "uint256",
          "name": "result",
          "type": "uint256"
        }
      ],
      "stateMutability": "view",
      "type": "function"
    },
    {
      "inputs": [],
      "name": "borrowable",
      "outputs": [
        {
          "internalType": "address",
          "name": "",
          "type": "address"
        }
      ],
      "stateMutability": "view",
      "type": "function"
    },
    {
      "inputs": [
        {
          "internalType": "address",
          "name": "borrower",
          "type": "address"
        },
        {
          "internalType": "uint256",
          "name": "borrowAmount",
          "type": "uint256"
        }
      ],
      "name": "canBorrow",
      "outputs": [
        {
          "internalType": "bool",
          "name": "",
          "type": "bool"
        }
      ],
      "stateMutability": "view",
      "type": "function"
    },
    {
      "inputs": [
        {
          "internalType": "address",
          "name": "borrower",
          "type": "address"
        },
        {
          "internalType": "uint256",
          "name": "redeemAmount",
          "type": "uint256"
        }
      ],
      "name": "canRedeem",
      "outputs": [
        {
          "internalType": "bool",
          "name": "",
          "type": "bool"
        }
      ],
      "stateMutability": "view",
      "type": "function"
    },
    {
      "inputs": [],
      "name": "chargeVoid",
      "outputs": [],
      "stateMutability": "nonpayable",
      "type": "function"
    },
    {
      "inputs": [],
      "name": "cygnusNebulaOracle",
      "outputs": [
        {
          "internalType": "contract ICygnusNebulaOracle",
          "name": "",
          "type": "address"
        }
      ],
      "stateMutability": "view",
      "type": "function"
    },
    {
      "inputs": [],
      "name": "debtRatio",
      "outputs": [
        {
          "internalType": "uint256",
          "name": "",
          "type": "uint256"
        }
      ],
      "stateMutability": "view",
      "type": "function"
    },
    {
      "inputs": [],
      "name": "decimals",
      "outputs": [
        {
          "internalType": "uint8",
          "name": "",
          "type": "uint8"
        }
      ],
      "stateMutability": "view",
      "type": "function"
    },
    {
      "inputs": [
        {
          "internalType": "address",
          "name": "spender",
          "type": "address"
        },
        {
          "internalType": "uint256",
          "name": "difference",
          "type": "uint256"
        }
      ],
      "name": "decreaseAllowance",
      "outputs": [
        {
          "internalType": "bool",
          "name": "",
          "type": "bool"
        }
      ],
      "stateMutability": "nonpayable",
      "type": "function"
    },
    {
      "inputs": [
        {
          "internalType": "uint256",
          "name": "assets",
          "type": "uint256"
        },
        {
          "internalType": "address",
          "name": "recipient",
          "type": "address"
        },
        {
          "components": [
            {
              "components": [
                {
                  "internalType": "address",
                  "name": "token",
                  "type": "address"
                },
                {
                  "internalType": "uint160",
                  "name": "amount",
                  "type": "uint160"
                },
                {
                  "internalType": "uint48",
                  "name": "expiration",
                  "type": "uint48"
                },
                {
                  "internalType": "uint48",
                  "name": "nonce",
                  "type": "uint48"
                }
              ],
              "internalType": "struct IAllowanceTransfer.PermitDetails",
              "name": "details",
              "type": "tuple"
            },
            {
              "internalType": "address",
              "name": "spender",
              "type": "address"
            },
            {
              "internalType": "uint256",
              "name": "sigDeadline",
              "type": "uint256"
            }
          ],
          "internalType": "struct IAllowanceTransfer.PermitSingle",
          "name": "_permit",
          "type": "tuple"
        },
        {
          "internalType": "bytes",
          "name": "signature",
          "type": "bytes"
        }
      ],
      "name": "deposit",
      "outputs": [
        {
          "internalType": "uint256",
          "name": "shares",
          "type": "uint256"
        }
      ],
      "stateMutability": "nonpayable",
      "type": "function"
    },
    {
      "inputs": [],
      "name": "exchangeRate",
      "outputs": [
        {
          "internalType": "uint256",
          "name": "",
          "type": "uint256"
        }
      ],
      "stateMutability": "view",
      "type": "function"
    },
    {
      "inputs": [
        {
          "internalType": "address",
          "name": "redeemer",
          "type": "address"
        },
        {
          "internalType": "uint256",
          "name": "assets",
          "type": "uint256"
        },
        {
          "internalType": "bytes",
          "name": "data",
          "type": "bytes"
        }
      ],
      "name": "flashRedeemAltair",
      "outputs": [],
      "stateMutability": "nonpayable",
      "type": "function"
    },
    {
      "inputs": [
        {
          "internalType": "address",
          "name": "borrower",
          "type": "address"
        }
      ],
      "name": "getAccountLiquidity",
      "outputs": [
        {
          "internalType": "uint256",
          "name": "liquidity",
          "type": "uint256"
        },
        {
          "internalType": "uint256",
          "name": "shortfall",
          "type": "uint256"
        }
      ],
      "stateMutability": "view",
      "type": "function"
    },
    {
      "inputs": [
        {
          "internalType": "address",
          "name": "borrower",
          "type": "address"
        }
      ],
      "name": "getDebtRatio",
      "outputs": [
        {
          "internalType": "uint256",
          "name": "",
          "type": "uint256"
        }
      ],
      "stateMutability": "view",
      "type": "function"
    },
    {
      "inputs": [],
      "name": "getLPTokenPrice",
      "outputs": [
        {
          "internalType": "uint256",
          "name": "price",
          "type": "uint256"
        }
      ],
      "stateMutability": "view",
      "type": "function"
    },
    {
      "inputs": [],
      "name": "getRewards",
      "outputs": [
        {
          "internalType": "address[]",
          "name": "tokens",
          "type": "address[]"
        },
        {
          "internalType": "uint256[]",
          "name": "amounts",
          "type": "uint256[]"
        }
      ],
      "stateMutability": "nonpayable",
      "type": "function"
    },
    {
      "inputs": [],
      "name": "hangar18",
      "outputs": [
        {
          "internalType": "contract IHangar18",
          "name": "",
          "type": "address"
        }
      ],
      "stateMutability": "view",
      "type": "function"
    },
    {
      "inputs": [],
      "name": "harvester",
      "outputs": [
        {
          "internalType": "contract ICygnusHarvester",
          "name": "",
          "type": "address"
        }
      ],
      "stateMutability": "view",
      "type": "function"
    },
    {
      "inputs": [
        {
          "internalType": "address",
          "name": "spender",
          "type": "address"
        },
        {
          "internalType": "uint256",
          "name": "difference",
          "type": "uint256"
        }
      ],
      "name": "increaseAllowance",
      "outputs": [
        {
          "internalType": "bool",
          "name": "",
          "type": "bool"
        }
      ],
      "stateMutability": "nonpayable",
      "type": "function"
    },
    {
      "inputs": [],
      "name": "lastReinvest",
      "outputs": [
        {
          "internalType": "uint256",
          "name": "",
          "type": "uint256"
        }
      ],
      "stateMutability": "view",
      "type": "function"
    },
    {
      "inputs": [],
      "name": "liquidationFee",
      "outputs": [
        {
          "internalType": "uint256",
          "name": "",
          "type": "uint256"
        }
      ],
      "stateMutability": "view",
      "type": "function"
    },
    {
      "inputs": [],
      "name": "liquidationIncentive",
      "outputs": [
        {
          "internalType": "uint256",
          "name": "",
          "type": "uint256"
        }
      ],
      "stateMutability": "view",
      "type": "function"
    },
    {
      "inputs": [],
      "name": "name",
      "outputs": [
        {
          "internalType": "string",
          "name": "",
          "type": "string"
        }
      ],
      "stateMutability": "pure",
      "type": "function"
    },
    {
      "inputs": [
        {
          "internalType": "address",
          "name": "owner",
          "type": "address"
        }
      ],
      "name": "nonces",
      "outputs": [
        {
          "internalType": "uint256",
          "name": "result",
          "type": "uint256"
        }
      ],
      "stateMutability": "view",
      "type": "function"
    },
    {
      "inputs": [
        {
          "internalType": "address",
          "name": "owner",
          "type": "address"
        },
        {
          "internalType": "address",
          "name": "spender",
          "type": "address"
        },
        {
          "internalType": "uint256",
          "name": "value",
          "type": "uint256"
        },
        {
          "internalType": "uint256",
          "name": "deadline",
          "type": "uint256"
        },
        {
          "internalType": "uint8",
          "name": "v",
          "type": "uint8"
        },
        {
          "internalType": "bytes32",
          "name": "r",
          "type": "bytes32"
        },
        {
          "internalType": "bytes32",
          "name": "s",
          "type": "bytes32"
        }
      ],
      "name": "permit",
      "outputs": [],
      "stateMutability": "nonpayable",
      "type": "function"
    },
    {
      "inputs": [
        {
          "internalType": "uint256",
          "name": "shares",
          "type": "uint256"
        },
        {
          "internalType": "address",
          "name": "recipient",
          "type": "address"
        },
        {
          "internalType": "address",
          "name": "owner",
          "type": "address"
        }
      ],
      "name": "redeem",
      "outputs": [
        {
          "internalType": "uint256",
          "name": "assets",
          "type": "uint256"
        }
      ],
      "stateMutability": "nonpayable",
      "type": "function"
    },
    {
      "inputs": [
        {
          "internalType": "uint256",
          "name": "liquidity",
          "type": "uint256"
        }
      ],
      "name": "reinvestRewards_y7b",
      "outputs": [],
      "stateMutability": "nonpayable",
      "type": "function"
    },
    {
      "inputs": [],
      "name": "rewardToken",
      "outputs": [
        {
          "internalType": "address",
          "name": "",
          "type": "address"
        }
      ],
      "stateMutability": "pure",
      "type": "function"
    },
    {
      "inputs": [],
      "name": "rewarder",
      "outputs": [
        {
          "internalType": "address",
          "name": "",
          "type": "address"
        }
      ],
      "stateMutability": "view",
      "type": "function"
    },
    {
      "inputs": [
        {
          "internalType": "address",
          "name": "liquidator",
          "type": "address"
        },
        {
          "internalType": "address",
          "name": "borrower",
          "type": "address"
        },
        {
          "internalType": "uint256",
          "name": "repayAmount",
          "type": "uint256"
        }
      ],
      "name": "seizeCygLP",
      "outputs": [
        {
          "internalType": "uint256",
          "name": "cygLPAmount",
          "type": "uint256"
        }
      ],
      "stateMutability": "nonpayable",
      "type": "function"
    },
    {
      "inputs": [
        {
          "internalType": "uint256",
          "name": "newDebtRatio",
          "type": "uint256"
        }
      ],
      "name": "setDebtRatio",
      "outputs": [],
      "stateMutability": "nonpayable",
      "type": "function"
    },
    {
      "inputs": [
        {
          "internalType": "contract ICygnusHarvester",
          "name": "_harvester",
          "type": "address"
        }
      ],
      "name": "setHarvester",
      "outputs": [],
      "stateMutability": "nonpayable",
      "type": "function"
    },
    {
      "inputs": [
        {
          "internalType": "uint256",
          "name": "newLiquidationFee",
          "type": "uint256"
        }
      ],
      "name": "setLiquidationFee",
      "outputs": [],
      "stateMutability": "nonpayable",
      "type": "function"
    },
    {
      "inputs": [
        {
          "internalType": "uint256",
          "name": "newLiquidationIncentive",
          "type": "uint256"
        }
      ],
      "name": "setLiquidationIncentive",
      "outputs": [],
      "stateMutability": "nonpayable",
      "type": "function"
    },
    {
      "inputs": [],
      "name": "shuttleId",
      "outputs": [
        {
          "internalType": "uint256",
          "name": "",
          "type": "uint256"
        }
      ],
      "stateMutability": "view",
      "type": "function"
    },
    {
      "inputs": [
        {
          "internalType": "address",
          "name": "token",
          "type": "address"
        }
      ],
      "name": "sweepToken",
      "outputs": [],
      "stateMutability": "nonpayable",
      "type": "function"
    },
    {
      "inputs": [],
      "name": "symbol",
      "outputs": [
        {
          "internalType": "string",
          "name": "",
          "type": "string"
        }
      ],
      "stateMutability": "view",
      "type": "function"
    },
    {
      "inputs": [],
      "name": "sync",
      "outputs": [],
      "stateMutability": "nonpayable",
      "type": "function"
    },
    {
      "inputs": [],
      "name": "totalBalance",
      "outputs": [
        {
          "internalType": "uint160",
          "name": "",
          "type": "uint160"
        }
      ],
      "stateMutability": "view",
      "type": "function"
    },
    {
      "inputs": [],
      "name": "totalSupply",
      "outputs": [
        {
          "internalType": "uint256",
          "name": "result",
          "type": "uint256"
        }
      ],
      "stateMutability": "view",
      "type": "function"
    },
    {
      "inputs": [
        {
          "internalType": "address",
          "name": "to",
          "type": "address"
        },
        {
          "internalType": "uint256",
          "name": "amount",
          "type": "uint256"
        }
      ],
      "name": "transfer",
      "outputs": [
        {
          "internalType": "bool",
          "name": "",
          "type": "bool"
        }
      ],
      "stateMutability": "nonpayable",
      "type": "function"
    },
    {
      "inputs": [
        {
          "internalType": "address",
          "name": "from",
          "type": "address"
        },
        {
          "internalType": "address",
          "name": "to",
          "type": "address"
        },
        {
          "internalType": "uint256",
          "name": "amount",
          "type": "uint256"
        }
      ],
      "name": "transferFrom",
      "outputs": [
        {
          "internalType": "bool",
          "name": "",
          "type": "bool"
        }
      ],
      "stateMutability": "nonpayable",
      "type": "function"
    },
    {
      "inputs": [],
      "name": "underlying",
      "outputs": [
        {
          "internalType": "address",
          "name": "",
          "type": "address"
        }
      ],
      "stateMutability": "view",
      "type": "function"
    }
  ],
  "bytecode": "0x610140604081815234620002c8576000805460ff19166001178155635a412e5360e01b80845260a093909290848160048186335af180156200026a5783918491859186916200029f575b5060e052865260c052608052670d2f13f7789f0000600155670e5d0f042e878000600255805192808452848460048186335af19384156200026a57839462000276575b506101009384528151908152848160048186335af19081156200026a57839162000231575b50815163b9a09fd560e01b81526001600160a01b0391821660048201526020816024817309236cff45047dbee6b921e00704bed6d6b8cf7e5afa93841562000226578094620001dd575b50506101209216825251916136e1938462000376853960805184818161075001528181610fd501526131d20152518381816108a40152612c1b015260c05183818161042f01528181610bb101528181611441015281816116e601528181611b4e01528181611ece01528181612118015281816122b60152612bf4015260e051838181610c3b0152611bf00152518281816106e101528181610e7a0152818161265f01528181612aa50152612d4101525181818161083501528181610c0d0152818161164d01528181612de4015281816130200152818161311901526132970152f35b909193506020823d82116200021d575b81620001fc60209383620002cd565b810103126200021a5750620002119062000307565b913880620000fb565b80fd5b3d9150620001ed565b8351903d90823e3d90fd5b620002569150853d871162000262575b6200024d8183620002cd565b8101906200031c565b505050905038620000b1565b503d62000241565b505051903d90823e3d90fd5b62000292919450853d871162000262576200024d8183620002cd565b505091505092386200008c565b92505050620002be9150853d871162000262576200024d8183620002cd565b9150903862000049565b600080fd5b601f909101601f19168101906001600160401b03821190821017620002f157604052565b634e487b7160e01b600052604160045260246000fd5b51906001600160a01b0382168203620002c857565b91908260a0910312620002c85781516001600160a01b03908181168103620002c857926200034d6020820162000307565b926200035c6040830162000307565b9260608301519081168103620002c8576080909201519056fe6040608081526004908136101561001557600080fd5b600091823560e01c8063031a5c82146125aa5780630572b0cc146124c357806306fdde031461247c578063095ea7b3146123de57806315de1daa1461222157806318160ddd146121dc5780631be195601461208757806323b872dd14611f58578063313ce56714611e5d5780633644e51514611e225780633950935114611d6a5780633ba0b9a914611d2f5780634bdaeac114611cdd5780635130362214611c9b5780635ec88c7914611c135780635f77f89114611bba5780636afdd85014611b725780636f307dc314611b0357806370a0823114611a9d5780637ecebe0014611a3757806381f5b6f4146119755780638808e71c146115a15780638c765e941461156457806395d89b41146113d1578063a36a363014611394578063a457c2d7146112db578063a84310811461123f578063a9059cbb14611175578063ad7a672f14611121578063b4ebbda414610e13578063b5f3c95b14610dd6578063ba08765214610c68578063bcbc332014610b5b578063cc1f8ffa14610af3578063cea55f5714610ab6578063cf8c8c4414610a4b578063d505accf146108c8578063d935bd9214610859578063dcc3e06e146107ea578063dd62ed3e14610774578063e8a24e1d14610705578063e99a6ac714610696578063eb6a887d146105fa578063f7c618c1146105a9578063fa14fdc214610370578063fef0bec8146102c55763fff6cae91461022657600080fd5b346102c157827ffffffffffffffffffffffffffffffffffffffffffffffffffffffffffffffffc3601126102c15782549160ff83161561029b57836001847fffffffffffffffffffffffffffffffffffffffffffffffffffffffffffffff008091168355610292613255565b82541617815580f35b517f37ed32e8000000000000000000000000000000000000000000000000000000008152fd5b8280fd5b50346102c15760207ffffffffffffffffffffffffffffffffffffffffffffffffffffffffffffffffc3601126102c15780359061030061318d565b67016345785d8a000082116103495750907f87272249f1056ec16a68dd9255101358246dd26a796e2f0bc6b3a0ad02f2de4191600354908060035582519182526020820152a180f35b82517f0b169966000000000000000000000000000000000000000000000000000000008152fd5b5090346102c15760607ffffffffffffffffffffffffffffffffffffffffffffffffffffffffffffffffc3601126102c15781359173ffffffffffffffffffffffffffffffffffffffff831683036105a4576024359160443567ffffffffffffffff81116105a0576103e490369084016127be565b86549560ff871615610577577fffffffffffffffffffffffffffffffffffffffffffffffffffffffffffffff008097168855851561054e57906104538689949361042d82612dcd565b7f000000000000000000000000000000000000000000000000000000000000000061365c565b806104c1575b5050506387a211a2600c5230855261047f6020600c205493610479612981565b906135d5565b831061049b57846001856104938630613449565b610292613255565b517f6fdda956000000000000000000000000000000000000000000000000000000008152fd5b333b156102c157610514918391855193849283927f989bebcf000000000000000000000000000000000000000000000000000000008452338a8501528a60248501526060604485015260648401916128c4565b038183335af180156105445761052b575b80610459565b81610535916127ec565b610540578438610525565b8480fd5b83513d84823e3d90fd5b505050517f2a285905000000000000000000000000000000000000000000000000000000008152fd5b505050517f37ed32e8000000000000000000000000000000000000000000000000000000008152fd5b8580fd5b600080fd5b5050346105f657817ffffffffffffffffffffffffffffffffffffffffffffffffffffffffffffffffc3601126105f65760209051733c8b650257cfb5f272f799f5e2b4e65093a11a058152f35b5080fd5b50346102c15760207ffffffffffffffffffffffffffffffffffffffffffffffffffffffffffffffffc3601126102c15780359061063561318d565b670b1a2bc2ec50000082108015610685575b6103495750907ff25d2243e4128e51523d8537f04f18c3e6390bbfc6323390a9a8e59b921ce04691600154908060015582519182526020820152a180f35b50670de0b6b3a76400008211610647565b5050346105f657817ffffffffffffffffffffffffffffffffffffffffffffffffffffffffffffffffc3601126105f6576020905173ffffffffffffffffffffffffffffffffffffffff7f0000000000000000000000000000000000000000000000000000000000000000168152f35b5050346105f657817ffffffffffffffffffffffffffffffffffffffffffffffffffffffffffffffffc3601126105f6576020905173ffffffffffffffffffffffffffffffffffffffff7f0000000000000000000000000000000000000000000000000000000000000000168152f35b50346102c157817ffffffffffffffffffffffffffffffffffffffffffffffffffffffffffffffffc3601126102c1573573ffffffffffffffffffffffffffffffffffffffff9283821682036105a45760243593841684036105a4576020938452637f5e9f20600c52526034600c20549051908152f35b5050346105f657817ffffffffffffffffffffffffffffffffffffffffffffffffffffffffffffffffc3601126105f6576020905173ffffffffffffffffffffffffffffffffffffffff7f0000000000000000000000000000000000000000000000000000000000000000168152f35b5050346105f657817ffffffffffffffffffffffffffffffffffffffffffffffffffffffffffffffffc3601126105f6576020905173ffffffffffffffffffffffffffffffffffffffff7f0000000000000000000000000000000000000000000000000000000000000000168152f35b5090346102c15760e07ffffffffffffffffffffffffffffffffffffffffffffffffffffffffffffffffc3601126102c157813573ffffffffffffffffffffffffffffffffffffffff908181168091036105a4576024359182168092036105a4576084359360643560443560ff87168703610a4757610944613369565b92865197834211610a3b576338377508600c52858a5260209485600c20948554956001870190557f6e71edae12b1b97f4d1f60370fef10105fa2faae0126114a169c64845d6126c98b5287878c0152888a8c015260608b019585875260808c015260a08b01526119018b52855260c0892088526042601e208a5260ff16845260a435875260c435606052838060808b60015afa50843d5103610a305750777f5e9f200000000000000000000000000000000000000000851786526034602c20557f8c5be1e5ebec7d5bd14f71427d1e84f3dd0314c0f7b2291e5b200ac8c7c3b9259190a3528060605280f35b63ddafbaef8952601cfd5b50631a15a3cc8952601cfd5b8780fd5b508234610ab357827ffffffffffffffffffffffffffffffffffffffffffffffffffffffffffffffffc360112610ab35750359073ffffffffffffffffffffffffffffffffffffffff821682036105a457610aaa602092602435906129c8565b91519115825250f35b80fd5b5050346105f657817ffffffffffffffffffffffffffffffffffffffffffffffffffffffffffffffffc3601126105f6576020906001549051908152f35b508234610ab357827ffffffffffffffffffffffffffffffffffffffffffffffffffffffffffffffffc360112610ab35750359073ffffffffffffffffffffffffffffffffffffffff821682036105a457610b5260209260243590612cbf565b90519015158152f35b5050346105f657817ffffffffffffffffffffffffffffffffffffffffffffffffffffffffffffffffc3601126105f65760607f98ccebae89f16f152c93c6a0cdc0d99913b9e62a9fc612471c21ffc299c389fd917f00000000000000000000000000000000000000000000000000000000000000009073ffffffffffffffffffffffffffffffffffffffff610c337fffffffffffffffffffffffffffffffffffffffffffffffffffffffffffffffff827f00000000000000000000000000000000000000000000000000000000000000001685612e5f565b8151921682527f000000000000000000000000000000000000000000000000000000000000000060208301523390820152a180f35b5090346102c15760607ffffffffffffffffffffffffffffffffffffffffffffffffffffffffffffffffc3601126102c1576024359273ffffffffffffffffffffffffffffffffffffffff808516908435908287036105a457604435908116938482036105a457843303610d6e575b50610ce8610ce2612981565b8361354c565b958615610d4757508560209761042d84610d0a94610d0585612dcd565b613449565b835190858252868201527ffbde797d201c681b91056529119e0b02407c7bb96a4a2c75c01fc9667232c8db843392a4610d41613255565b51908152f35b85517fe3e8d297000000000000000000000000000000000000000000000000000000008152fd5b33602052637f5e9f20600c528181526034600c20908154907fffffffffffffffffffffffffffffffffffffffffffffffffffffffffffffffff8203610db5575b5050610cd6565b818511610dca57508390039055388080610dae565b6313be252b899152601cfd5b5050346105f657817ffffffffffffffffffffffffffffffffffffffffffffffffffffffffffffffffc3601126105f6576020906005549051908152f35b509134610ab35760607ffffffffffffffffffffffffffffffffffffffffffffffffffffffffffffffffc3601126105a457823573ffffffffffffffffffffffffffffffffffffffff8082168083036105a45760243593828516928386036105a457604435337f0000000000000000000000000000000000000000000000000000000000000000831614610ec8578888517fb2b19c2c000000000000000000000000000000000000000000000000000000008152fd5b80899198969798156110f957610efe7fffffffffffffffffffffffffffffffffffffffffffffffffffffffffffffffff8a6129c8565b9050156110d157610f1190610479612baf565b600254908181029181830414901517156110a557610f2d612981565b9081156110795790610f42910480988a6134d5565b829760035480610f97575b50505050507f6b078885a9e49e8cb7156c2c48a5423d666dff282bd881b6174e1379fd541c3c606086610f8260209888612888565b8651918883528983015286820152a351908152f35b6020919293949950610fa9908961354c565b938751938480927f5b068af80000000000000000000000000000000000000000000000000000000082527f0000000000000000000000000000000000000000000000000000000000000000165afa91821561106f57836060937f6b078885a9e49e8cb7156c2c48a5423d666dff282bd881b6174e1379fd541c3c95936110389360209c92611040575b506134d5565b968880610f4d565b6110619192508c3d8111611068575b61105981836127ec565b81019061285c565b908c611032565b503d61104f565b86513d8a823e3d90fd5b6024856012857f4e487b7100000000000000000000000000000000000000000000000000000000835252fd5b6024846011847f4e487b7100000000000000000000000000000000000000000000000000000000835252fd5b5085517fc381cd19000000000000000000000000000000000000000000000000000000008152fd5b5085517ff3934a23000000000000000000000000000000000000000000000000000000008152fd5b5050346105f657817ffffffffffffffffffffffffffffffffffffffffffffffffffffffffffffffffc3601126105f65773ffffffffffffffffffffffffffffffffffffffff6020925460081c169051908152f35b509134610ab357817ffffffffffffffffffffffffffffffffffffffffffffffffffffffffffffffffc360112610ab357823573ffffffffffffffffffffffffffffffffffffffff811681036105a457602435916111d28333613311565b6387a211a2600c5233815260209485600c2090815490818611611234575084900390555282600c208181540190558252600c5160601c337fddf252ad1be2c89b69c2b068fc378daa952ba7f163c4a11628f55a4df523b3ef8480a35160018152f35b63f4d678b88452601cfd5b50346102c15760207ffffffffffffffffffffffffffffffffffffffffffffffffffffffffffffffffc3601126102c15780359061127a61318d565b670de0b6b3a7640000821080156112ca575b6103495750907faeba5a6c40a8ac138134bff1aaa65debf25971188a58804bad717f82f0ec131691600254908060025582519182526020820152a180f35b50670ff59ee833b30000821161128c565b509134610ab357817ffffffffffffffffffffffffffffffffffffffffffffffffffffffffffffffffc360112610ab357823573ffffffffffffffffffffffffffffffffffffffff811681036105a45760243590602052637f5e9f20600c523382526034600c209081548181106113885760209550038091558152602c5160601c907f8c5be1e5ebec7d5bd14f71427d1e84f3dd0314c0f7b2291e5b200ac8c7c3b925843392a35160018152f35b85638301ab388552601cfd5b5050346105f657817ffffffffffffffffffffffffffffffffffffffffffffffffffffffffffffffffc3601126105f6576020906003549051908152f35b5090346102c157827ffffffffffffffffffffffffffffffffffffffffffffffffffffffffffffffffc3601126102c15782815180937f95d89b410000000000000000000000000000000000000000000000000000000082528173ffffffffffffffffffffffffffffffffffffffff7f0000000000000000000000000000000000000000000000000000000000000000165afa91821561155a5783926114d6575b6114d283836114c86027825180947f4379674c503a200000000000000000000000000000000000000000000000000060208301526114b88151809260208686019101612751565b81010360078101855201836127ec565b5191829182612774565b0390f35b9091503d8084833e6114e881836127ec565b8101906020818303126115565780519067ffffffffffffffff8211610540570181601f820112156115565780519361151f85612903565b9261152c855194856127ec565b85845260208684010111610ab357506114d29361154f9160208085019101612751565b9038611471565b8380fd5b81513d85823e3d90fd5b5050346105f657817ffffffffffffffffffffffffffffffffffffffffffffffffffffffffffffffffc3601126105f6576020906002549051908152f35b509190346105f6576101207ffffffffffffffffffffffffffffffffffffffffffffffffffffffffffffffffc3601126105f6576024359273ffffffffffffffffffffffffffffffffffffffff808516918035918387036105a05760c07fffffffffffffffffffffffffffffffffffffffffffffffffffffffffffffffbc3601126105a05761010490813567ffffffffffffffff8111610a475761164790369085016127be565b919092817f0000000000000000000000000000000000000000000000000000000000000000169261167830856136a5565b948161186a575b50505061168b85613618565b6e22d473030f116ddee9f6b43ac78ba3803b156118665760848a928385938c5196879586947f36c78516000000000000000000000000000000000000000000000000000000008652338d8701523060248701521660448501527f00000000000000000000000000000000000000000000000000000000000000001660648401525af1801561185c57908891611843575b50506117459161173861173d9261173187613102565b30906136a5565b612cb2565b610479612981565b94851561181b576805345cdf77eb68f44c54156117a2575b505061176b846020966133db565b825190815283858201527fdcbc1c05240f31ff3ad067ef1ee35ce4997762752e3a095284754544f4c709d7833392a3610d41613255565b7ffffffffffffffffffffffffffffffffffffffffffffffffffffffffffffffc1886929796019182116117ef57506020955061176b9080956117e86103e861dead6133db565b965061175d565b806011887f4e487b71000000000000000000000000000000000000000000000000000000006024945252fd5b5083517ff1ca48b1000000000000000000000000000000000000000000000000000000008152fd5b8161184d916127ec565b61185857863861171b565b8680fd5b87513d8a823e3d90fd5b8980fd5b6e22d473030f116ddee9f6b43ac78ba391823b15611971578a51937f2b67b570000000000000000000000000000000000000000000000000000000008552338986015260443586811680910361196957602486015260643586811680910361196957604486015260843565ffffffffffff9081811680910361196d57606487015260a43590811680910361196957608486015260c43586811680910361196957856119358f96949582968395899560a486015260e43560c486015261010060e48601528401916128c4565b03925af1801561195f5761194b575b808061167f565b88611958919992996127ec565b9638611944565b88513d8b823e3d90fd5b8d80fd5b8e80fd5b8b80fd5b5090346102c15760207ffffffffffffffffffffffffffffffffffffffffffffffffffffffffffffffffc3601126102c15781359173ffffffffffffffffffffffffffffffffffffffff8154163303611a1057507fc63644116f6ef474fe595238489f3d0d31a12c55be3a748d72269a62882b04c9906119f383613102565b4260055580519283524260208401523392a2611a0d613255565b80f35b90517f9f91a891000000000000000000000000000000000000000000000000000000008152fd5b50346102c15760207ffffffffffffffffffffffffffffffffffffffffffffffffffffffffffffffffc3601126102c1573573ffffffffffffffffffffffffffffffffffffffff811681036102c1576020926338377508600c525281600c20549051908152f35b50346102c15760207ffffffffffffffffffffffffffffffffffffffffffffffffffffffffffffffffc3601126102c1573573ffffffffffffffffffffffffffffffffffffffff811681036102c1576020926387a211a2600c525281600c20549051908152f35b5050346105f657817ffffffffffffffffffffffffffffffffffffffffffffffffffffffffffffffffc3601126105f6576020905173ffffffffffffffffffffffffffffffffffffffff7f0000000000000000000000000000000000000000000000000000000000000000168152f35b5050346105f657817ffffffffffffffffffffffffffffffffffffffffffffffffffffffffffffffffc3601126105f657602090516e22d473030f116ddee9f6b43ac78ba38152f35b5050346105f657817ffffffffffffffffffffffffffffffffffffffffffffffffffffffffffffffffc3601126105f657602090517f00000000000000000000000000000000000000000000000000000000000000008152f35b508290346105f65760207ffffffffffffffffffffffffffffffffffffffffffffffffffffffffffffffffc3601126105f657359073ffffffffffffffffffffffffffffffffffffffff82168203610ab357507fffffffffffffffffffffffffffffffffffffffffffffffffffffffffffffffff611c8f916129c8565b82519182526020820152f35b5050346105f657817ffffffffffffffffffffffffffffffffffffffffffffffffffffffffffffffffc3601126105f657602090611cd6612baf565b9051908152f35b509134610ab357807ffffffffffffffffffffffffffffffffffffffffffffffffffffffffffffffffc360112610ab3575073ffffffffffffffffffffffffffffffffffffffff60209254169051908152f35b5050346105f657817ffffffffffffffffffffffffffffffffffffffffffffffffffffffffffffffffc3601126105f657602090611cd6612981565b509134610ab357817ffffffffffffffffffffffffffffffffffffffffffffffffffffffffffffffffc360112610ab357823573ffffffffffffffffffffffffffffffffffffffff811681036105f657602052637f5e9f20600c523381526034600c20928354906024358201918210611e17575080602094558152602c5160601c907f8c5be1e5ebec7d5bd14f71427d1e84f3dd0314c0f7b2291e5b200ac8c7c3b925843392a35160018152f35b63f90670668352601cfd5b5050346105f657817ffffffffffffffffffffffffffffffffffffffffffffffffffffffffffffffffc3601126105f657602090611cd6613369565b509134610ab357807ffffffffffffffffffffffffffffffffffffffffffffffffffffffffffffffffc360112610ab3576020825180947f313ce5670000000000000000000000000000000000000000000000000000000082528173ffffffffffffffffffffffffffffffffffffffff7f0000000000000000000000000000000000000000000000000000000000000000165afa928315611f4c578193611f0b575b60208460ff855191168152f35b9092506020813d8211611f44575b81611f26602093836127ec565b810103126102c157519160ff83168303610ab3575060ff6020611efe565b3d9150611f19565b509051903d90823e3d90fd5b509134610ab35760607ffffffffffffffffffffffffffffffffffffffffffffffffffffffffffffffffc360112610ab35773ffffffffffffffffffffffffffffffffffffffff833581811692918382036102c15760243590811681036102c15760443591611fc68382613311565b60601b92602096338852600c94637f5e9f20811786526034862080547fffffffffffffffffffffffffffffffffffffffffffffffffffffffffffffffff8103612064575b50506387a211a217855287852090815490818611611234575084900390555284822081815401905584525160601c907fddf252ad1be2c89b69c2b068fc378daa952ba7f163c4a11628f55a4df523b3ef8480a35160018152f35b80871161207b5786900390556387a211a23861200a565b836313be252b8652601cfd5b509190346105f65760207ffffffffffffffffffffffffffffffffffffffffffffffffffffffffffffffffc3601126105f65773ffffffffffffffffffffffffffffffffffffffff908335828116918282036105405784549360ff8516156121b4577fffffffffffffffffffffffffffffffffffffffffffffffffffffffffffffff00809516865561211661318d565b7f000000000000000000000000000000000000000000000000000000000000000016831461218c57600194955061215961215030846136a5565b8093339061365c565b519081527f6d25be279134f4ecaa4770aff0c3d916d9e7c5ef37b65ed95dbdba411f5d54d560203392a382541617815580f35b8590517fb5d8f391000000000000000000000000000000000000000000000000000000008152fd5b8682517f37ed32e8000000000000000000000000000000000000000000000000000000008152fd5b5050346105f657817ffffffffffffffffffffffffffffffffffffffffffffffffffffffffffffffffc3601126105f6576020906805345cdf77eb68f44c549051908152f35b508290346105f65760207ffffffffffffffffffffffffffffffffffffffffffffffffffffffffffffffffc3601126105f657803573ffffffffffffffffffffffffffffffffffffffff908181168091036115565761228094919461318d565b825494817fffffffffffffffffffffffff000000000000000000000000000000000000000087161784556122b2612fad565b50927f0000000000000000000000000000000000000000000000000000000000000000821690865b85518110156123a95782846122ef8389612f6a565b511603612352575b7fffffffffffffffffffffffffffffffffffffffffffffffffffffffffffffffff8114612326576001016122da565b6024886011897f4e487b7100000000000000000000000000000000000000000000000000000000835252fd5b61236d8885612361848a612f6a565b5116868a541690612e5f565b6123a47fffffffffffffffffffffffffffffffffffffffffffffffffffffffffffffffff868661239d858b612f6a565b5116612e5f565b6122f7565b877f6a97a9e954ae4ef4c8ecc6c7dd8a1cbe668254132294ceb515db9a2e4faad7f5838b88888351921682526020820152a180f35b50346102c157817ffffffffffffffffffffffffffffffffffffffffffffffffffffffffffffffffc3601126102c1573573ffffffffffffffffffffffffffffffffffffffff811681036102c15791602092602435908452637f5e9f20600c52338252806034600c20558152602c5160601c907f8c5be1e5ebec7d5bd14f71427d1e84f3dd0314c0f7b2291e5b200ac8c7c3b925843392a35160018152f35b5050346105f657817ffffffffffffffffffffffffffffffffffffffffffffffffffffffffffffffffc3601126105f6576114d2906124b861293d565b905191829182612774565b509134610ab357807ffffffffffffffffffffffffffffffffffffffffffffffffffffffffffffffffc360112610ab35780549260ff84161561258357509161254d927fffffffffffffffffffffffffffffffffffffffffffffffffffffffffffffff008092168155612533612fad565b949060018094845416178355845194808652850190612707565b6020848203818601528080875193848152019601925b8281106125705785870386f35b8351875295810195928101928401612563565b82517f37ed32e8000000000000000000000000000000000000000000000000000000008152fd5b509134610ab357602092837ffffffffffffffffffffffffffffffffffffffffffffffffffffffffffffffffc3601126105f65773ffffffffffffffffffffffffffffffffffffffff813581811690818103610540579086916387a211a2600c528552602461262f61262784600c2054612621612981565b9061354c565b612621612baf565b94875194859384927f7d6af0790000000000000000000000000000000000000000000000000000000084528301527f0000000000000000000000000000000000000000000000000000000000000000165afa80156126fd5783906126ce575b6126a891506126a260025460035490612888565b90613595565b90806126b75750509051908152f35b6001546126c893506104799161354c565b90610d41565b508481813d83116126f6575b6126e481836127ec565b810103126102c1576126a8905161268e565b503d6126da565b84513d85823e3d90fd5b90815180825260208080930193019160005b828110612727575050505090565b835173ffffffffffffffffffffffffffffffffffffffff1685529381019392810192600101612719565b60005b8381106127645750506000910152565b8181015183820152602001612754565b7fffffffffffffffffffffffffffffffffffffffffffffffffffffffffffffffe0601f604093602084526127b78151809281602088015260208888019101612751565b0116010190565b9181601f840112156105a45782359167ffffffffffffffff83116105a457602083818601950101116105a457565b90601f7fffffffffffffffffffffffffffffffffffffffffffffffffffffffffffffffe0910116810190811067ffffffffffffffff82111761282d57604052565b7f4e487b7100000000000000000000000000000000000000000000000000000000600052604160045260246000fd5b908160209103126105a4575173ffffffffffffffffffffffffffffffffffffffff811681036105a45790565b9190820180921161289557565b7f4e487b7100000000000000000000000000000000000000000000000000000000600052601160045260246000fd5b601f82602094937fffffffffffffffffffffffffffffffffffffffffffffffffffffffffffffffe0938186528686013760008582860101520116010190565b67ffffffffffffffff811161282d57601f017fffffffffffffffffffffffffffffffffffffffffffffffffffffffffffffffe01660200190565b6129476012612903565b9061295560405192836127ec565b601282527f4379676e75733a20436f6c6c61746572616c00000000000000000000000000006020830152565b6805345cdf77eb68f44c54600090806129a2575050670de0b6b3a764000090565b73ffffffffffffffffffffffffffffffffffffffff6129c5925460081c166135d5565b90565b73ffffffffffffffffffffffffffffffffffffffff92919083811680612a125760046040517fdcf58afa000000000000000000000000000000000000000000000000000000008152fd5b308114612b22577fffffffffffffffffffffffffffffffffffffffffffffffffffffffffffffffff8314612a6d575b50612a699293506387a211a2600c52600052612a646020600c2054612621612981565b612b4c565b9091565b60209192506024604051809681937f7d6af07900000000000000000000000000000000000000000000000000000000835260048301527f0000000000000000000000000000000000000000000000000000000000000000165afa928315612b1657600093612ae3575b5090918291612a69612a41565b6020813d8211612b0e575b81612afb602093836127ec565b8101031261155657519250612a69612ad6565b3d9150612aee565b6040513d6000823e3d90fd5b60046040517fbf8c13af000000000000000000000000000000000000000000000000000000008152fd5b612b5b612b6491612621612baf565b6001549061354c565b908015612b9557612b7e906126a260025460035490612888565b90818110612b8d570390600090565b600092910390565b50612ba99061047960025460035490612888565b90600090565b604051907f17e5a1a100000000000000000000000000000000000000000000000000000000825260208260248173ffffffffffffffffffffffffffffffffffffffff807f00000000000000000000000000000000000000000000000000000000000000001660048301527f0000000000000000000000000000000000000000000000000000000000000000165afa918215612b1657600092612c7f575b508115612c5557565b60046040517fb0d5a772000000000000000000000000000000000000000000000000000000008152fd5b90916020823d8211612caa575b81612c99602093836127ec565b81010312610ab35750519038612c4c565b3d9150612c8c565b9190820391821161289557565b9190916387a211a2600c526000928184526020600c2054808211612dc857612cf7612cef60249493602093612cb2565b612621612981565b91604051938480927f7d6af07900000000000000000000000000000000000000000000000000000000825273ffffffffffffffffffffffffffffffffffffffff80911660048301527f0000000000000000000000000000000000000000000000000000000000000000165afa918215612dbd578492612d83575b50612d7d929350612b4c565b90501590565b9091506020813d8211612db5575b81612d9e602093836127ec565b8101031261155657612d7d92935051908392612d71565b3d9150612d91565b6040513d86823e3d90fd5b505050565b73ffffffffffffffffffffffffffffffffffffffff7f00000000000000000000000000000000000000000000000000000000000000001690813b156105a4576000916024839260405194859384927f2e1a7d4d00000000000000000000000000000000000000000000000000000000845260048401525af18015612b1657612e525750565b6000612e5d916127ec565b565b90916040517fdd62ed3e00000000000000000000000000000000000000000000000000000000815230600482015260208160448173ffffffffffffffffffffffffffffffffffffffff808916602483015287165afa908115612b1657600091612f39575b501015612f355760446010600080936020956014527fffffffffffffffffffffffffffffffffffffffffffffffffffffffffffffffff6034526f095ea7b300000000000000000000000082525af13d15600160005114171615612f27576000603452565b633e3f8f736000526004601cfd5b5050565b906020823d8211612f62575b81612f52602093836127ec565b81010312610ab357505138612ec3565b3d9150612f45565b8051821015612f7e5760209160051b010190565b7f4e487b7100000000000000000000000000000000000000000000000000000000600052603260045260246000fd5b6000906040908151612fbf83826127ec565b600181526020938436818401378194845192612fdb86856127ec565b600184528136818601378395733c8b650257cfb5f272f799f5e2b4e65093a11a0591826130088683612f6a565b5273ffffffffffffffffffffffffffffffffffffffff7f00000000000000000000000000000000000000000000000000000000000000001690813b156105a05761309283928794928593519586809481937f31279d3d0000000000000000000000000000000000000000000000000000000083523060048401528860248401526044830190612707565b03925af19081156130f95750906130da949392916130dd575b5081602460108293306014526f70a0823100000000000000000000000087525afa601f3d111690510292612f6a565b52565b60246010856130ef86959786956127ec565b95935050506130ab565b513d86823e3d90fd5b73ffffffffffffffffffffffffffffffffffffffff7f00000000000000000000000000000000000000000000000000000000000000001690813b156105a4576000916044839260405194859384927fe2bbb15800000000000000000000000000000000000000000000000000000000845260048401528160248401525af18015612b1657612e525750565b6040517ff851a44000000000000000000000000000000000000000000000000000000000815273ffffffffffffffffffffffffffffffffffffffff90602081600481857f0000000000000000000000000000000000000000000000000000000000000000165afa908115612b1657600091613237575b5016330361320d57565b60046040517f63ac75a2000000000000000000000000000000000000000000000000000000008152fd5b61324f915060203d81116110685761105981836127ec565b38613203565b7f3145c2b643834867f2c0a8cac8a48218307687911615c0ed01412a09dd163b66602073ffffffffffffffffffffffffffffffffffffffff6132c16132bc30837f0000000000000000000000000000000000000000000000000000000000000000166136a5565b613618565b906000547fffffffffffffffffffffff0000000000000000000000000000000000000000ff74ffffffffffffffffffffffffffffffffffffffff008460081b1691161760005560405191168152a1565b903073ffffffffffffffffffffffffffffffffffffffff831614612f355761333891612cbf565b1561333f57565b60046040517f1ba566ff000000000000000000000000000000000000000000000000000000008152fd5b60a060405161337661293d565b602081519101207f8b73c3c69bb8fe3d512ecc4cf759cc79239f7b179b0ffacaa9a75d522b39400f825260208201527fc89efdaa54c0f20c7adf612882df0950f5a951637e0307cdcb4c672f298b8bc660408201524660608201523060808201522090565b6805345cdf77eb68f44c80549083820191821061343b57556387a211a2600c526000526020600c20818154019055602052600c5160601c60007fddf252ad1be2c89b69c2b068fc378daa952ba7f163c4a11628f55a4df523b3ef602080a3565b63e5cfe9576000526004601cfd5b906134548183613311565b6387a211a2600c52816000526020600c20918254918281116134c7576000938173ffffffffffffffffffffffffffffffffffffffff940390556805345cdf77eb68f44c8181540390558352167fddf252ad1be2c89b69c2b068fc378daa952ba7f163c4a11628f55a4df523b3ef602083a3565b63f4d678b86000526004601cfd5b91906387a211a28360601b17600c526020600c2080548084116134c75783900390556000526020600c2081815401905560205273ffffffffffffffffffffffffffffffffffffffff600c5160601c91167fddf252ad1be2c89b69c2b068fc378daa952ba7f163c4a11628f55a4df523b3ef602080a3565b90807fffffffffffffffffffffffffffffffffffffffffffffffffffffffffffffffff048211810261358757670de0b6b3a764000091020490565b63bac65e5b6000526004601cfd5b817fffffffffffffffffffffffffffffffffffffffffffffffffffffffffffffffff04811182026135875702670de0b6b3a7640000808204910615150190565b670de0b6b3a7640000907812725dd1d243aba0e75fe645cc4873f9e65afe688c928e1f21811182021583021561360a57020490565b637c5f487d6000526004601cfd5b7401000000000000000000000000000000000000000081101561364e5773ffffffffffffffffffffffffffffffffffffffff1690565b6335278d126000526004601cfd5b60109260209260145260345260446000938480936fa9059cbb00000000000000000000000082525af13d15600183511417161561369857603452565b6390b8ec1890526004601cfd5b602460106020939284936014526f70a082310000000000000000000000006000525afa601f3d1116602051029056fea164736f6c6343000811000a",
  "linkReferences": {},
  "deployedLinkReferences": {}
}