{
  "_format": "hh-sol-artifact-1",
  "contractName": "CygnusCollateral",
  "sourceName": "contracts/cygnus-core/CygnusCollateral.sol",
  "abi": [
    {
      "inputs": [
        {
          "internalType": "uint256",
          "name": "min",
          "type": "uint256"
        },
        {
          "internalType": "uint256",
          "name": "max",
          "type": "uint256"
        },
        {
          "internalType": "uint256",
          "name": "value",
          "type": "uint256"
        }
      ],
      "name": "CygnusCollateralControl__ParameterNotInRange",
      "type": "error"
    },
    {
      "inputs": [
        {
          "internalType": "address",
          "name": "invalidBorrowable",
          "type": "address"
        },
        {
          "internalType": "address",
          "name": "validBorrowable",
          "type": "address"
        }
      ],
      "name": "CygnusCollateralModel__BorrowableInvalid",
      "type": "error"
    },
    {
      "inputs": [
        {
          "internalType": "address",
          "name": "sender",
          "type": "address"
        },
        {
          "internalType": "address",
          "name": "origin",
          "type": "address"
        }
      ],
      "name": "CygnusCollateralModel__BorrowerCantBeAddressZero",
      "type": "error"
    },
    {
      "inputs": [
        {
          "internalType": "address",
          "name": "sender",
          "type": "address"
        },
        {
          "internalType": "address",
          "name": "origin",
          "type": "address"
        }
      ],
      "name": "CygnusCollateralVoid__OnlyEOAAllowed",
      "type": "error"
    },
    {
      "inputs": [],
      "name": "CygnusCollateral__CantLiquidateZero",
      "type": "error"
    },
    {
      "inputs": [],
      "name": "CygnusCollateral__CantRedeemZero",
      "type": "error"
    },
    {
      "inputs": [
        {
          "internalType": "address",
          "name": "from",
          "type": "address"
        },
        {
          "internalType": "address",
          "name": "to",
          "type": "address"
        },
        {
          "internalType": "uint256",
          "name": "value",
          "type": "uint256"
        }
      ],
      "name": "CygnusCollateral__InsufficientLiquidity",
      "type": "error"
    },
    {
      "inputs": [
        {
          "internalType": "uint256",
          "name": "cygLPTokens",
          "type": "uint256"
        },
        {
          "internalType": "uint256",
          "name": "shares",
          "type": "uint256"
        }
      ],
      "name": "CygnusCollateral__InsufficientRedeemAmount",
      "type": "error"
    },
    {
      "inputs": [
        {
          "internalType": "address",
          "name": "sender",
          "type": "address"
        },
        {
          "internalType": "address",
          "name": "borrowable",
          "type": "address"
        }
      ],
      "name": "CygnusCollateral__MsgSenderNotBorrowable",
      "type": "error"
    },
    {
      "inputs": [
        {
          "internalType": "uint256",
          "name": "liquidity",
          "type": "uint256"
        },
        {
          "internalType": "uint256",
          "name": "shortfall",
          "type": "uint256"
        }
      ],
      "name": "CygnusCollateral__NotLiquidatable",
      "type": "error"
    },
    {
      "inputs": [
        {
          "internalType": "uint256",
          "name": "assets",
          "type": "uint256"
        },
        {
          "internalType": "uint256",
          "name": "totalBalance",
          "type": "uint256"
        }
      ],
      "name": "CygnusCollateral__RedeemAmountInvalid",
      "type": "error"
    },
    {
      "inputs": [],
      "name": "CygnusTerminal__CantMintZeroShares",
      "type": "error"
    },
    {
      "inputs": [],
      "name": "CygnusTerminal__CantRedeemZeroAssets",
      "type": "error"
    },
    {
      "inputs": [
        {
          "internalType": "address",
          "name": "token",
          "type": "address"
        },
        {
          "internalType": "address",
          "name": "underlying",
          "type": "address"
        }
      ],
      "name": "CygnusTerminal__CantSweepUnderlying",
      "type": "error"
    },
    {
      "inputs": [
        {
          "internalType": "address",
          "name": "sender",
          "type": "address"
        },
        {
          "internalType": "address",
          "name": "admin",
          "type": "address"
        }
      ],
      "name": "CygnusTerminal__MsgSenderNotAdmin",
      "type": "error"
    },
    {
      "inputs": [
        {
          "internalType": "address",
          "name": "owner",
          "type": "address"
        },
        {
          "internalType": "uint8",
          "name": "v",
          "type": "uint8"
        },
        {
          "internalType": "bytes32",
          "name": "r",
          "type": "bytes32"
        },
        {
          "internalType": "bytes32",
          "name": "s",
          "type": "bytes32"
        }
      ],
      "name": "ERC20Permit__InvalidSignature",
      "type": "error"
    },
    {
      "inputs": [],
      "name": "ERC20Permit__OwnerZeroAddress",
      "type": "error"
    },
    {
      "inputs": [
        {
          "internalType": "uint256",
          "name": "currentTime",
          "type": "uint256"
        },
        {
          "internalType": "uint256",
          "name": "deadline",
          "type": "uint256"
        }
      ],
      "name": "ERC20Permit__PermitExpired",
      "type": "error"
    },
    {
      "inputs": [],
      "name": "ERC20Permit__RecoveredOwnerZeroAddress",
      "type": "error"
    },
    {
      "inputs": [],
      "name": "ERC20Permit__SpenderZeroAddress",
      "type": "error"
    },
    {
      "inputs": [],
      "name": "ERC20__ApproveOwnerZeroAddress",
      "type": "error"
    },
    {
      "inputs": [],
      "name": "ERC20__ApproveSpenderZeroAddress",
      "type": "error"
    },
    {
      "inputs": [
        {
          "internalType": "uint256",
          "name": "accountBalance",
          "type": "uint256"
        },
        {
          "internalType": "uint256",
          "name": "burnAmount",
          "type": "uint256"
        }
      ],
      "name": "ERC20__BurnUnderflow",
      "type": "error"
    },
    {
      "inputs": [],
      "name": "ERC20__BurnZeroAddress",
      "type": "error"
    },
    {
      "inputs": [
        {
          "internalType": "uint256",
          "name": "allowance",
          "type": "uint256"
        },
        {
          "internalType": "uint256",
          "name": "amount",
          "type": "uint256"
        }
      ],
      "name": "ERC20__InsufficientAllowance",
      "type": "error"
    },
    {
      "inputs": [
        {
          "internalType": "uint256",
          "name": "senderBalance",
          "type": "uint256"
        },
        {
          "internalType": "uint256",
          "name": "amount",
          "type": "uint256"
        }
      ],
      "name": "ERC20__InsufficientBalance",
      "type": "error"
    },
    {
      "inputs": [],
      "name": "ERC20__MintZeroAddress",
      "type": "error"
    },
    {
      "inputs": [],
      "name": "ERC20__TransferRecipientZeroAddress",
      "type": "error"
    },
    {
      "inputs": [],
      "name": "ERC20__TransferSenderZeroAddress",
      "type": "error"
    },
    {
      "inputs": [],
      "name": "ReentrantCall",
      "type": "error"
    },
    {
      "anonymous": false,
      "inputs": [
        {
          "indexed": true,
          "internalType": "address",
          "name": "owner",
          "type": "address"
        },
        {
          "indexed": true,
          "internalType": "address",
          "name": "spender",
          "type": "address"
        },
        {
          "indexed": false,
          "internalType": "uint256",
          "name": "amount",
          "type": "uint256"
        }
      ],
      "name": "Approval",
      "type": "event"
    },
    {
      "anonymous": false,
      "inputs": [
        {
          "indexed": false,
          "internalType": "address",
          "name": "underlying",
          "type": "address"
        },
        {
          "indexed": false,
          "internalType": "uint256",
          "name": "shuttleId",
          "type": "uint256"
        },
        {
          "indexed": false,
          "internalType": "address",
          "name": "sender",
          "type": "address"
        }
      ],
      "name": "ChargeVoid",
      "type": "event"
    },
    {
      "anonymous": false,
      "inputs": [
        {
          "indexed": true,
          "internalType": "address",
          "name": "sender",
          "type": "address"
        },
        {
          "indexed": true,
          "internalType": "address",
          "name": "recipient",
          "type": "address"
        },
        {
          "indexed": false,
          "internalType": "uint256",
          "name": "assets",
          "type": "uint256"
        },
        {
          "indexed": false,
          "internalType": "uint256",
          "name": "shares",
          "type": "uint256"
        }
      ],
      "name": "Deposit",
      "type": "event"
    },
    {
      "anonymous": false,
      "inputs": [
        {
          "indexed": false,
          "internalType": "uint256",
          "name": "oldDebtRatio",
          "type": "uint256"
        },
        {
          "indexed": false,
          "internalType": "uint256",
          "name": "newDebtRatio",
          "type": "uint256"
        }
      ],
      "name": "NewDebtRatio",
      "type": "event"
    },
    {
      "anonymous": false,
      "inputs": [
        {
          "indexed": false,
          "internalType": "uint256",
          "name": "oldLiquidationFee",
          "type": "uint256"
        },
        {
          "indexed": false,
          "internalType": "uint256",
          "name": "newLiquidationFee",
          "type": "uint256"
        }
      ],
      "name": "NewLiquidationFee",
      "type": "event"
    },
    {
      "anonymous": false,
      "inputs": [
        {
          "indexed": false,
          "internalType": "uint256",
          "name": "oldLiquidationIncentive",
          "type": "uint256"
        },
        {
          "indexed": false,
          "internalType": "uint256",
          "name": "newLiquidationIncentive",
          "type": "uint256"
        }
      ],
      "name": "NewLiquidationIncentive",
      "type": "event"
    },
    {
      "anonymous": false,
      "inputs": [
        {
          "indexed": true,
          "internalType": "address",
          "name": "reinvestor",
          "type": "address"
        },
        {
          "indexed": false,
          "internalType": "uint256",
          "name": "rewardBalance",
          "type": "uint256"
        },
        {
          "indexed": false,
          "internalType": "uint256",
          "name": "reinvestReward",
          "type": "uint256"
        },
        {
          "indexed": false,
          "internalType": "uint256",
          "name": "daoReward",
          "type": "uint256"
        },
        {
          "indexed": false,
          "internalType": "uint256",
          "name": "underlyingReceived",
          "type": "uint256"
        }
      ],
      "name": "RechargeVoid",
      "type": "event"
    },
    {
      "anonymous": false,
      "inputs": [
        {
          "indexed": false,
          "internalType": "uint256",
          "name": "totalBalance",
          "type": "uint256"
        }
      ],
      "name": "Sync",
      "type": "event"
    },
    {
      "anonymous": false,
      "inputs": [
        {
          "indexed": true,
          "internalType": "address",
          "name": "from",
          "type": "address"
        },
        {
          "indexed": true,
          "internalType": "address",
          "name": "to",
          "type": "address"
        },
        {
          "indexed": false,
          "internalType": "uint256",
          "name": "amount",
          "type": "uint256"
        }
      ],
      "name": "Transfer",
      "type": "event"
    },
    {
      "anonymous": false,
      "inputs": [
        {
          "indexed": true,
          "internalType": "address",
          "name": "sender",
          "type": "address"
        },
        {
          "indexed": true,
          "internalType": "address",
          "name": "recipient",
          "type": "address"
        },
        {
          "indexed": true,
          "internalType": "address",
          "name": "owner",
          "type": "address"
        },
        {
          "indexed": false,
          "internalType": "uint256",
          "name": "assets",
          "type": "uint256"
        },
        {
          "indexed": false,
          "internalType": "uint256",
          "name": "shares",
          "type": "uint256"
        }
      ],
      "name": "Withdraw",
      "type": "event"
    },
    {
      "inputs": [],
      "name": "DAO_REWARD",
      "outputs": [
        {
          "internalType": "uint256",
          "name": "",
          "type": "uint256"
        }
      ],
      "stateMutability": "view",
      "type": "function"
    },
    {
      "inputs": [],
      "name": "DOMAIN_SEPARATOR",
      "outputs": [
        {
          "internalType": "bytes32",
          "name": "",
          "type": "bytes32"
        }
      ],
      "stateMutability": "view",
      "type": "function"
    },
    {
      "inputs": [],
      "name": "PERMIT_TYPEHASH",
      "outputs": [
        {
          "internalType": "bytes32",
          "name": "",
          "type": "bytes32"
        }
      ],
      "stateMutability": "view",
      "type": "function"
    },
    {
      "inputs": [],
      "name": "REINVEST_REWARD",
      "outputs": [
        {
          "internalType": "uint256",
          "name": "",
          "type": "uint256"
        }
      ],
      "stateMutability": "view",
      "type": "function"
    },
    {
      "inputs": [
        {
          "internalType": "address",
          "name": "owner",
          "type": "address"
        },
        {
          "internalType": "address",
          "name": "spender",
          "type": "address"
        }
      ],
      "name": "allowance",
      "outputs": [
        {
          "internalType": "uint256",
          "name": "",
          "type": "uint256"
        }
      ],
      "stateMutability": "view",
      "type": "function"
    },
    {
      "inputs": [
        {
          "internalType": "address",
          "name": "spender",
          "type": "address"
        },
        {
          "internalType": "uint256",
          "name": "amount",
          "type": "uint256"
        }
      ],
      "name": "approve",
      "outputs": [
        {
          "internalType": "bool",
          "name": "",
          "type": "bool"
        }
      ],
      "stateMutability": "nonpayable",
      "type": "function"
    },
    {
      "inputs": [
        {
          "internalType": "address",
          "name": "account",
          "type": "address"
        }
      ],
      "name": "balanceOf",
      "outputs": [
        {
          "internalType": "uint256",
          "name": "",
          "type": "uint256"
        }
      ],
      "stateMutability": "view",
      "type": "function"
    },
    {
      "inputs": [],
      "name": "borrowable",
      "outputs": [
        {
          "internalType": "address",
          "name": "",
          "type": "address"
        }
      ],
      "stateMutability": "view",
      "type": "function"
    },
    {
      "inputs": [
        {
          "internalType": "address",
          "name": "borrower",
          "type": "address"
        },
        {
          "internalType": "address",
          "name": "borrowableToken",
          "type": "address"
        },
        {
          "internalType": "uint256",
          "name": "borrowAmount",
          "type": "uint256"
        }
      ],
      "name": "canBorrow",
      "outputs": [
        {
          "internalType": "bool",
          "name": "",
          "type": "bool"
        }
      ],
      "stateMutability": "view",
      "type": "function"
    },
    {
      "inputs": [
        {
          "internalType": "address",
          "name": "borrower",
          "type": "address"
        },
        {
          "internalType": "uint256",
          "name": "redeemAmount",
          "type": "uint256"
        }
      ],
      "name": "canRedeem",
      "outputs": [
        {
          "internalType": "bool",
          "name": "",
          "type": "bool"
        }
      ],
      "stateMutability": "view",
      "type": "function"
    },
    {
      "inputs": [
        {
          "internalType": "uint256",
          "name": "_sushiPoolId",
          "type": "uint256"
        }
      ],
      "name": "chargeVoid",
      "outputs": [],
      "stateMutability": "nonpayable",
      "type": "function"
    },
    {
      "inputs": [],
      "name": "cygnusNebulaOracle",
      "outputs": [
        {
          "internalType": "contract ICygnusNebulaOracle",
          "name": "",
          "type": "address"
        }
      ],
      "stateMutability": "view",
      "type": "function"
    },
    {
      "inputs": [],
      "name": "debtRatio",
      "outputs": [
        {
          "internalType": "uint256",
          "name": "",
          "type": "uint256"
        }
      ],
      "stateMutability": "view",
      "type": "function"
    },
    {
      "inputs": [],
      "name": "decimals",
      "outputs": [
        {
          "internalType": "uint8",
          "name": "",
          "type": "uint8"
        }
      ],
      "stateMutability": "view",
      "type": "function"
    },
    {
      "inputs": [
        {
          "internalType": "uint256",
          "name": "assets",
          "type": "uint256"
        },
        {
          "internalType": "address",
          "name": "recipient",
          "type": "address"
        }
      ],
      "name": "deposit",
      "outputs": [
        {
          "internalType": "uint256",
          "name": "shares",
          "type": "uint256"
        }
      ],
      "stateMutability": "nonpayable",
      "type": "function"
    },
    {
      "inputs": [],
      "name": "exchangeRate",
      "outputs": [
        {
          "internalType": "uint256",
          "name": "",
          "type": "uint256"
        }
      ],
      "stateMutability": "view",
      "type": "function"
    },
    {
      "inputs": [
        {
          "internalType": "address",
          "name": "redeemer",
          "type": "address"
        },
        {
          "internalType": "uint256",
          "name": "assets",
          "type": "uint256"
        },
        {
          "internalType": "bytes",
          "name": "data",
          "type": "bytes"
        }
      ],
      "name": "flashRedeemAltair",
      "outputs": [],
      "stateMutability": "nonpayable",
      "type": "function"
    },
    {
      "inputs": [
        {
          "internalType": "address",
          "name": "borrower",
          "type": "address"
        }
      ],
      "name": "getAccountLiquidity",
      "outputs": [
        {
          "internalType": "uint256",
          "name": "liquidity",
          "type": "uint256"
        },
        {
          "internalType": "uint256",
          "name": "shortfall",
          "type": "uint256"
        }
      ],
      "stateMutability": "view",
      "type": "function"
    },
    {
      "inputs": [],
      "name": "getCygnusVoid",
      "outputs": [
        {
          "internalType": "address",
          "name": "",
          "type": "address"
        },
        {
          "internalType": "address",
          "name": "",
          "type": "address"
        },
        {
          "internalType": "address",
          "name": "",
          "type": "address"
        },
        {
          "internalType": "uint256",
          "name": "",
          "type": "uint256"
        }
      ],
      "stateMutability": "view",
      "type": "function"
    },
    {
      "inputs": [
        {
          "internalType": "address",
          "name": "borrower",
          "type": "address"
        }
      ],
      "name": "getDebtRatio",
      "outputs": [
        {
          "internalType": "uint256",
          "name": "",
          "type": "uint256"
        }
      ],
      "stateMutability": "view",
      "type": "function"
    },
    {
      "inputs": [],
      "name": "getLPTokenPrice",
      "outputs": [
        {
          "internalType": "uint256",
          "name": "",
          "type": "uint256"
        }
      ],
      "stateMutability": "view",
      "type": "function"
    },
    {
      "inputs": [],
      "name": "getRewards",
      "outputs": [
        {
          "internalType": "uint256",
          "name": "",
          "type": "uint256"
        }
      ],
      "stateMutability": "nonpayable",
      "type": "function"
    },
    {
      "inputs": [],
      "name": "hangar18",
      "outputs": [
        {
          "internalType": "contract IHangar18",
          "name": "",
          "type": "address"
        }
      ],
      "stateMutability": "view",
      "type": "function"
    },
    {
      "inputs": [],
      "name": "lastReinvest",
      "outputs": [
        {
          "internalType": "uint256",
          "name": "",
          "type": "uint256"
        }
      ],
      "stateMutability": "view",
      "type": "function"
    },
    {
      "inputs": [],
      "name": "liquidationFee",
      "outputs": [
        {
          "internalType": "uint256",
          "name": "",
          "type": "uint256"
        }
      ],
      "stateMutability": "view",
      "type": "function"
    },
    {
      "inputs": [],
      "name": "liquidationIncentive",
      "outputs": [
        {
          "internalType": "uint256",
          "name": "",
          "type": "uint256"
        }
      ],
      "stateMutability": "view",
      "type": "function"
    },
    {
      "inputs": [],
      "name": "name",
      "outputs": [
        {
          "internalType": "string",
          "name": "",
          "type": "string"
        }
      ],
      "stateMutability": "view",
      "type": "function"
    },
    {
      "inputs": [
        {
          "internalType": "address",
          "name": "",
          "type": "address"
        }
      ],
      "name": "nonces",
      "outputs": [
        {
          "internalType": "uint256",
          "name": "",
          "type": "uint256"
        }
      ],
      "stateMutability": "view",
      "type": "function"
    },
    {
      "inputs": [
        {
          "internalType": "address",
          "name": "owner",
          "type": "address"
        },
        {
          "internalType": "address",
          "name": "spender",
          "type": "address"
        },
        {
          "internalType": "uint256",
          "name": "value",
          "type": "uint256"
        },
        {
          "internalType": "uint256",
          "name": "deadline",
          "type": "uint256"
        },
        {
          "internalType": "uint8",
          "name": "v",
          "type": "uint8"
        },
        {
          "internalType": "bytes32",
          "name": "r",
          "type": "bytes32"
        },
        {
          "internalType": "bytes32",
          "name": "s",
          "type": "bytes32"
        }
      ],
      "name": "permit",
      "outputs": [],
      "stateMutability": "nonpayable",
      "type": "function"
    },
    {
      "inputs": [
        {
          "internalType": "uint256",
          "name": "shares",
          "type": "uint256"
        },
        {
          "internalType": "address",
          "name": "recipient",
          "type": "address"
        },
        {
          "internalType": "address",
          "name": "owner",
          "type": "address"
        }
      ],
      "name": "redeem",
      "outputs": [
        {
          "internalType": "uint256",
          "name": "assets",
          "type": "uint256"
        }
      ],
      "stateMutability": "nonpayable",
      "type": "function"
    },
    {
      "inputs": [],
      "name": "reinvestRewards_y7b",
      "outputs": [],
      "stateMutability": "nonpayable",
      "type": "function"
    },
    {
      "inputs": [
        {
          "internalType": "address",
          "name": "liquidator",
          "type": "address"
        },
        {
          "internalType": "address",
          "name": "borrower",
          "type": "address"
        },
        {
          "internalType": "uint256",
          "name": "repayAmount",
          "type": "uint256"
        }
      ],
      "name": "seizeCygLP",
      "outputs": [
        {
          "internalType": "uint256",
          "name": "cygLPAmount",
          "type": "uint256"
        }
      ],
      "stateMutability": "nonpayable",
      "type": "function"
    },
    {
      "inputs": [
        {
          "internalType": "uint256",
          "name": "newDebtRatio",
          "type": "uint256"
        }
      ],
      "name": "setDebtRatio",
      "outputs": [],
      "stateMutability": "nonpayable",
      "type": "function"
    },
    {
      "inputs": [
        {
          "internalType": "uint256",
          "name": "newLiquidationFee",
          "type": "uint256"
        }
      ],
      "name": "setLiquidationFee",
      "outputs": [],
      "stateMutability": "nonpayable",
      "type": "function"
    },
    {
      "inputs": [
        {
          "internalType": "uint256",
          "name": "newLiquidationIncentive",
          "type": "uint256"
        }
      ],
      "name": "setLiquidationIncentive",
      "outputs": [],
      "stateMutability": "nonpayable",
      "type": "function"
    },
    {
      "inputs": [],
      "name": "shuttleId",
      "outputs": [
        {
          "internalType": "uint256",
          "name": "",
          "type": "uint256"
        }
      ],
      "stateMutability": "view",
      "type": "function"
    },
    {
      "inputs": [
        {
          "internalType": "address",
          "name": "token",
          "type": "address"
        }
      ],
      "name": "sweepToken",
      "outputs": [],
      "stateMutability": "nonpayable",
      "type": "function"
    },
    {
      "inputs": [],
      "name": "symbol",
      "outputs": [
        {
          "internalType": "string",
          "name": "",
          "type": "string"
        }
      ],
      "stateMutability": "view",
      "type": "function"
    },
    {
      "inputs": [],
      "name": "totalBalance",
      "outputs": [
        {
          "internalType": "uint256",
          "name": "",
          "type": "uint256"
        }
      ],
      "stateMutability": "view",
      "type": "function"
    },
    {
      "inputs": [],
      "name": "totalSupply",
      "outputs": [
        {
          "internalType": "uint256",
          "name": "",
          "type": "uint256"
        }
      ],
      "stateMutability": "view",
      "type": "function"
    },
    {
      "inputs": [
        {
          "internalType": "address",
          "name": "recipient",
          "type": "address"
        },
        {
          "internalType": "uint256",
          "name": "amount",
          "type": "uint256"
        }
      ],
      "name": "transfer",
      "outputs": [
        {
          "internalType": "bool",
          "name": "",
          "type": "bool"
        }
      ],
      "stateMutability": "nonpayable",
      "type": "function"
    },
    {
      "inputs": [
        {
          "internalType": "address",
          "name": "sender",
          "type": "address"
        },
        {
          "internalType": "address",
          "name": "recipient",
          "type": "address"
        },
        {
          "internalType": "uint256",
          "name": "amount",
          "type": "uint256"
        }
      ],
      "name": "transferFrom",
      "outputs": [
        {
          "internalType": "bool",
          "name": "",
          "type": "bool"
        }
      ],
      "stateMutability": "nonpayable",
      "type": "function"
    },
    {
      "inputs": [],
      "name": "underlying",
      "outputs": [
        {
          "internalType": "address",
          "name": "",
          "type": "address"
        }
      ],
      "stateMutability": "view",
      "type": "function"
    },
    {
      "inputs": [],
      "name": "version",
      "outputs": [
        {
          "internalType": "string",
          "name": "",
          "type": "string"
        }
      ],
      "stateMutability": "view",
      "type": "function"
    }
  ],
  "bytecode": "0x6101a0604052670d2f13f7789f0000600955670e398811bec68000600a55600019600c553480156200003057600080fd5b50604080518082018252601281527110de59db9d5cce8810dbdb1b185d195c985b60721b602080830191825283519081019093526000808452805460ff19166001908117825583519394939192859285928592859285928592620000949262000620565b508151620000aa90600290602085019062000620565b506003805460ff191660ff92909216919091179055505060405146907f8b73c3c69bb8fe3d512ecc4cf759cc79239f7b179b0ffacaa9a75d522b39400f90620000f69060019062000836565b60408051918290038220828201825260058352640312e302e360dc1b6020938401528151928301939093528101919091527f06c015bd22b4c69690933c1058878ebdfef31f9aaae40bbe86d8a09fe1b2972c6060820152608081018290523060a082015260c00160408051601f19818403018152919052805160209091012060805250620001889250506200061c9050565b6001600160a01b0316635a412e536040518163ffffffff1660e01b815260040160a060405180830381600087803b158015620001c357600080fd5b505af1158015620001d8573d6000803e3d6000fd5b505050506040513d601f19601f82011682018060405250810190620001fe9190620006ec565b610100526001600160601b0319606091821b811660e05292811b831660c0529290921b1660a05250600092508291506200023790503390565b6001600160a01b0316635a412e536040518163ffffffff1660e01b815260040160a060405180830381600087803b1580156200027257600080fd5b505af115801562000287573d6000803e3d6000fd5b505050506040513d601f19601f82011682018060405250810190620002ad9190620006ec565b50509250925050816001600160a01b03166395d89b416040518163ffffffff1660e01b815260040160006040518083038186803b158015620002ee57600080fd5b505afa15801562000303573d6000803e3d6000fd5b505050506040513d6000823e601f3d908101601f191682016040526200032d91908101906200075f565b6040516020016200033f9190620008d9565b604051602081830303815290604052600290805190602001906200036592919062000620565b50816001600160a01b031663313ce5676040518163ffffffff1660e01b815260040160206040518083038186803b158015620003a057600080fd5b505afa158015620003b5573d6000803e3d6000fd5b505050506040513d601f19601f82011682018060405250810190620003db919062000813565b6003805460ff191660ff9290921691909117905560601b6001600160601b03191661012052506000600481905580620004113390565b6001600160a01b0316635a412e536040518163ffffffff1660e01b815260040160a060405180830381600087803b1580156200044c57600080fd5b505af115801562000461573d6000803e3d6000fd5b505050506040513d601f19601f82011682018060405250810190620004879190620006ec565b50505091509150806001600160a01b0316630dfe16816040518163ffffffff1660e01b815260040160206040518083038186803b158015620004c857600080fd5b505afa158015620004dd573d6000803e3d6000fd5b505050506040513d601f19601f82011682018060405250810190620005039190620006c6565b816001600160a01b031663d21220a76040518163ffffffff1660e01b815260040160206040518083038186803b1580156200053d57600080fd5b505afa15801562000552573d6000803e3d6000fd5b505050506040513d601f19601f82011682018060405250810190620005789190620006c6565b836001600160a01b031663e1758bd86040518163ffffffff1660e01b815260040160206040518083038186803b158015620005b257600080fd5b505afa158015620005c7573d6000803e3d6000fd5b505050506040513d601f19601f82011682018060405250810190620005ed9190620006c6565b6001600160601b0319606091821b81166101405291811b8216610180529190911b166101605250620009a99050565b3390565b8280546200062e906200093d565b90600052602060002090601f0160209004810192826200065257600085556200069d565b82601f106200066d57805160ff19168380011785556200069d565b828001600101855582156200069d579182015b828111156200069d57825182559160200191906001019062000680565b50620006ab929150620006af565b5090565b5b80821115620006ab5760008155600101620006b0565b600060208284031215620006d8578081fd5b8151620006e58162000990565b9392505050565b600080600080600060a0868803121562000704578081fd5b8551620007118162000990565b6020870151909550620007248162000990565b6040870151909450620007378162000990565b60608701519093506200074a8162000990565b80925050608086015190509295509295909350565b60006020828403121562000771578081fd5b81516001600160401b038082111562000788578283fd5b818401915084601f8301126200079c578283fd5b815181811115620007b157620007b16200097a565b604051601f8201601f19908116603f01168101908382118183101715620007dc57620007dc6200097a565b81604052828152876020848701011115620007f5578586fd5b620008088360208301602088016200090a565b979650505050505050565b60006020828403121562000825578081fd5b815160ff81168114620006e5578182fd5b600080835482600182811c9150808316806200085357607f831692505b60208084108214156200087457634e487b7160e01b87526022600452602487fd5b8180156200088b57600181146200089d57620008cb565b60ff19861689528489019650620008cb565b60008a815260209020885b86811015620008c35781548b820152908501908301620008a8565b505084890196505b509498975050505050505050565b66021bcb3a6281d160cd1b815260008251620008fd8160078501602087016200090a565b9190910160070192915050565b60005b83811015620009275781810151838201526020016200090d565b8381111562000937576000848401525b50505050565b600181811c908216806200095257607f821691505b602082108114156200097457634e487b7160e01b600052602260045260246000fd5b50919050565b634e487b7160e01b600052604160045260246000fd5b6001600160a01b0381168114620009a657600080fd5b50565b60805160a05160601c60c05160601c60e05160601c610100516101205160601c6101405160601c6101605160601c6101805160601c613a2462000b4e6000396000818161091c015281816109a601528181610a0e01528181610b1201528181610b9c0152610c750152600081816108d601528181610962015281816109c7015281816109ed01528181610ab701528181610b6d01528181610bbd01528181610c0701528181610c520152610d5f015260008181610a5201528181610a8d01528181610ae801528181610b4301528181610be60152610c2b01526000818161072d01528181610f2e015281816114b201528181611508015281816116350152818161166f01528181611b0e0152612c0c0152600081816105170152611f010152600081816106a601526112bb01526000818161055101528181610ca70152818161111c015281816111730152818161129001528181611387015281816119fa01528181611e9301528181611edd015261208601526000818161070601528181610821015281816117b30152612a8901526000818161046e0152611cb30152613a246000f3fe608060405234801561001057600080fd5b50600436106102f25760003560e01c80637ecebe0011610191578063cc1f8ffa116100e3578063dd62ed3e11610097578063eb6a887d11610071578063eb6a887d1461074f578063fa14fdc214610762578063fef0bec81461077557600080fd5b8063dd62ed3e146106c8578063e8a24e1d14610701578063e99a6ac71461072857600080fd5b8063d505accf116100c8578063d505accf1461067b578063d82f897f1461068e578063d935bd92146106a157600080fd5b8063cc1f8ffa1461065f578063cea55f571461067257600080fd5b8063a843108111610145578063b4ebbda41161011f578063b4ebbda414610630578063b5f3c95b14610643578063ba0876521461064c57600080fd5b8063a843108114610601578063a9059cbb14610614578063ad7a672f1461062757600080fd5b806395d89b411161017657806395d89b41146105dd5780639aac2c53146105e5578063a36a3630146105f857600080fd5b80637ecebe00146105b45780638c765e94146105d457600080fd5b8063313ce5671161024a57806359b0bc2a116101fe5780636e553f65116101d85780636e553f65146105395780636f307dc31461054c57806370a082311461058b57600080fd5b806359b0bc2a146104dc5780635ec88c79146104ea5780635f77f8911461051257600080fd5b80633ba0b9a91161022f5780633ba0b9a914610490578063513036221461049857806354fd4d50146104a057600080fd5b8063313ce5671461044a5780633644e5151461046957600080fd5b806318160ddd116102ac5780631c198188116102865780631c1981881461040257806323b872dd1461041057806330adf81f1461042357600080fd5b806318160ddd146103675780631995bc1a146103705780631be19560146103ef57600080fd5b80630572b0cc116102dd5780630572b0cc1461032757806306fdde031461032f578063095ea7b31461034457600080fd5b8061e18a146102f7578063031a5c8214610301575b600080fd5b6102ff610788565b005b61031461030f36600461338d565b610ec6565b6040519081526020015b60405180910390f35b610314610ff0565b610337611040565b60405161031e91906137d7565b6103576103523660046134b9565b6110ce565b604051901515815260200161031e565b61031460045481565b6103ba600c54730769fd68dfb93167989c6f7254cd0d766fb2841f91731b02da8cb0d097eb8d57a175b88c7d8b4799750691730b3f868e0be5597d5db7feb59e1cadbb0fdda50a91565b60405161031e94939291906001600160a01b039485168152928416602084015292166040820152606081019190915260800190565b6102ff6103fd36600461338d565b6110e5565b610314668e1bc9bf04000081565b61035761041e366004613404565b6111d7565b6103147f6e71edae12b1b97f4d1f60370fef10105fa2faae0126114a169c64845d6126c981565b6003546104579060ff1681565b60405160ff909116815260200161031e565b6103147f000000000000000000000000000000000000000000000000000000000000000081565b61031461124b565b610314611279565b6103376040518060400160405280600581526020017f312e302e3000000000000000000000000000000000000000000000000000000081525081565b61031466470de4df82000081565b6104fd6104f836600461338d565b61133c565b6040805192835260208301919091520161031e565b6103147f000000000000000000000000000000000000000000000000000000000000000081565b6103146105473660046136e7565b611354565b6105737f000000000000000000000000000000000000000000000000000000000000000081565b6040516001600160a01b03909116815260200161031e565b61031461059936600461338d565b6001600160a01b031660009081526005602052604090205490565b6103146105c236600461338d565b60076020526000908152604090205481565b610314600a5481565b6103376114a1565b6103576105f3366004613404565b6114ae565b610314600b5481565b6102ff61060f3660046136b7565b61154c565b6103576106223660046134b9565b6115ef565b61031460085481565b61031461063e366004613404565b6115fc565b610314600d5481565b61031461065a36600461370b565b611909565b61035761066d3660046134b9565b611aa3565b61031460095481565b6102ff610689366004613444565b611ba4565b6102ff61069c3660046136b7565b611e47565b6105737f000000000000000000000000000000000000000000000000000000000000000081565b6103146106d63660046133cc565b6001600160a01b03918216600090815260066020908152604080832093909416825291909152205490565b6105737f000000000000000000000000000000000000000000000000000000000000000081565b6105737f000000000000000000000000000000000000000000000000000000000000000081565b6102ff61075d3660046136b7565b611f66565b6102ff6107703660046134e4565b611ff4565b6102ff6107833660046136b7565b61218f565b60005460ff166107ab576040516306fda65d60e31b815260040160405180910390fd5b6000805460ff191690556107bd612216565b60006107c7612240565b9050806107d45750610eaf565b60006107e782668e1bc9bf040000612533565b9050610808730b3f868e0be5597d5db7feb59e1cadbb0fdda50a3383612561565b600061081b8366470de4df820000612533565b905060007f00000000000000000000000000000000000000000000000000000000000000006001600160a01b0316635b068af86040518163ffffffff1660e01b815260040160206040518083038186803b15801561087857600080fd5b505afa15801561088c573d6000803e3d6000fd5b505050506040513d601f19601f820116820180604052508101906108b091906133b0565b90506108d1730b3f868e0be5597d5db7feb59e1cadbb0fdda50a8284612561565b6000807f00000000000000000000000000000000000000000000000000000000000000006001600160a01b0316730b3f868e0be5597d5db7feb59e1cadbb0fdda50a148061095b57507f00000000000000000000000000000000000000000000000000000000000000006001600160a01b0316730b3f868e0be5597d5db7feb59e1cadbb0fdda50a145b15610a38577f00000000000000000000000000000000000000000000000000000000000000006001600160a01b0316730b3f868e0be5597d5db7feb59e1cadbb0fdda50a146109eb577f00000000000000000000000000000000000000000000000000000000000000007f0000000000000000000000000000000000000000000000000000000000000000610a2e565b7f00000000000000000000000000000000000000000000000000000000000000007f00000000000000000000000000000000000000000000000000000000000000005b9092509050610c95565b610a8b730b3f868e0be5597d5db7feb59e1cadbb0fdda50a7f000000000000000000000000000000000000000000000000000000000000000086610a7c898b613946565b610a869190613946565b6125aa565b7f00000000000000000000000000000000000000000000000000000000000000006001600160a01b03167f00000000000000000000000000000000000000000000000000000000000000006001600160a01b03161480610b3c57507f00000000000000000000000000000000000000000000000000000000000000006001600160a01b03167f00000000000000000000000000000000000000000000000000000000000000006001600160a01b0316145b15610be1577f00000000000000000000000000000000000000000000000000000000000000006001600160a01b03167f00000000000000000000000000000000000000000000000000000000000000006001600160a01b0316146109eb577f00000000000000000000000000000000000000000000000000000000000000007f0000000000000000000000000000000000000000000000000000000000000000610a2e565b610c4f7f00000000000000000000000000000000000000000000000000000000000000007f0000000000000000000000000000000000000000000000000000000000000000610a867f00000000000000000000000000000000000000000000000000000000000000006126ec565b507f000000000000000000000000000000000000000000000000000000000000000090507f00000000000000000000000000000000000000000000000000000000000000005b6000610ca0836126ec565b90506000807f00000000000000000000000000000000000000000000000000000000000000006001600160a01b0316630902f1ac6040518163ffffffff1660e01b815260040160606040518083038186803b158015610cfe57600080fd5b505afa158015610d12573d6000803e3d6000fd5b505050506040513d601f19601f82011682018060405250810190610d369190613669565b506dffffffffffffffffffffffffffff1691506dffffffffffffffffffffffffffff16915060007f00000000000000000000000000000000000000000000000000000000000000006001600160a01b0316866001600160a01b031614610d9c5781610d9e565b825b90506000610daf85836103e5612701565b9050610dbc8787836125aa565b6000610ddb8888610dcd858a613946565b610dd68b6126ec565b612837565b600c54604051638dbdbe6d60e01b8152600481019190915260248101829052306044820152909150730769fd68dfb93167989c6f7254cd0d766fb2841f90638dbdbe6d90606401600060405180830381600087803b158015610e3c57600080fd5b505af1158015610e50573d6000803e3d6000fd5b505042600d555050604080518d8152602081018d90528082018c905260608101839052905133917fc3845dedfc73729f4e3f721a87d9d20faf4551971c95726cf144e087da34ef2c919081900360800190a25050505050505050505050505b610eb761293f565b6000805460ff19166001179055565b600080610ef3610ed461124b565b6001600160a01b03851660009081526005602052604090205490612533565b90506000610f09610f02611279565b8390612533565b604051637d6af07960e01b81526001600160a01b0386811660048301529192506000917f00000000000000000000000000000000000000000000000000000000000000001690637d6af0799060240160206040518083038186803b158015610f7057600080fd5b505afa158015610f84573d6000803e3d6000fd5b505050506040513d601f19601f82011682018060405250810190610fa891906136cf565b90506000610fbf600b54600a54610f0291906138ef565b90508115610fe357600954610fde90610fd88386612987565b90612987565b610fe6565b60005b9695505050505050565b6000805460ff16611014576040516306fda65d60e31b815260040160405180910390fd5b6000805460ff19169055611026612216565b61102e612240565b90506000805460ff1916600117905590565b6001805461104d9061395d565b80601f01602080910402602001604051908101604052809291908181526020018280546110799061395d565b80156110c65780601f1061109b576101008083540402835291602001916110c6565b820191906000526020600020905b8154815290600101906020018083116110a957829003601f168201915b505050505081565b60006110db3384846129d6565b5060015b92915050565b60005460ff16611108576040516306fda65d60e31b815260040160405180910390fd5b6000805460ff1916905561111a612a85565b7f00000000000000000000000000000000000000000000000000000000000000006001600160a01b0316816001600160a01b031614156111a5576040516303b91a9160e31b81526001600160a01b0380831660048301527f00000000000000000000000000000000000000000000000000000000000000001660248201526044015b60405180910390fd5b60006111b0826126ec565b90506111c66001600160a01b0383163383612561565b50506000805460ff19166001179055565b60006111e4848484612b57565b6001600160a01b038416600090815260066020908152604080832033845290915290205482811015611233576040516310c6013560e31b8152600481018290526024810184905260440161119c565b61124085338584036129d6565b506001949350505050565b6004546000908015611269576008546112649082612987565b611273565b670de0b6b3a76400005b91505090565b6040516317e5a1a160e01b81526001600160a01b037f0000000000000000000000000000000000000000000000000000000000000000811660048301526000917f0000000000000000000000000000000000000000000000000000000000000000909116906317e5a1a19060240160206040518083038186803b1580156112ff57600080fd5b505afa158015611313573d6000803e3d6000fd5b505050506040513d601f19601f8201168201806040525081019061133791906136cf565b905090565b60008061134b83600019612ba8565b91509150915091565b6000805460ff16611378576040516306fda65d60e31b815260040160405180910390fd5b6000805460ff191690556113b77f00000000000000000000000000000000000000000000000000000000000000006001600160a01b0316333086612cce565b60006113c1612d1c565b90506113cc84612db1565b60006113d6612d1c565b90506113ed6113e361124b565b610fd88484613946565b9250600083116114105760405163f1ca48b160e01b815260040160405180910390fd5b6004546114345761142561dead6103e8612e24565b6114316103e884613946565b92505b61143e8484612e24565b60408051868152602081018590526001600160a01b0386169133917fdcbc1c05240f31ff3ad067ef1ee35ce4997762752e3a095284754544f4c709d7910160405180910390a3505061148e61293f565b6000805460ff1916600117905592915050565b6002805461104d9061395d565b60007f00000000000000000000000000000000000000000000000000000000000000006001600160a01b0316836001600160a01b0316146115355760405163d06d9b9360e01b81526001600160a01b0380851660048301527f000000000000000000000000000000000000000000000000000000000000000016602482015260440161119c565b60006115418584612ba8565b159695505050505050565b60005460ff1661156f576040516306fda65d60e31b815260040160405180910390fd5b6000805460ff19169055611581612a85565b61159c670de0b6b3a7640000670f43fc2c04ee000083612ed7565b600a80549082905560408051828152602081018490527faeba5a6c40a8ac138134bff1aaa65debf25971188a58804bad717f82f0ec131691015b60405180910390a150506000805460ff19166001179055565b60006110db338484612b57565b6000805460ff16611620576040516306fda65d60e31b815260040160405180910390fd5b6000805460ff19169055336001600160a01b037f000000000000000000000000000000000000000000000000000000000000000016146116a45760405163f0f84ccf60e01b81523360048201527f00000000000000000000000000000000000000000000000000000000000000006001600160a01b0316602482015260440161119c565b816116c25760405163f3934a2360e01b815260040160405180910390fd5b6000806116d185600019612ba8565b9150915060008111611700576040516311ef27af60e31b8152600481018390526024810182905260440161119c565b600061170a611279565b905061171461124b565b600a546117218784612987565b61172b9190613927565b6117359190613907565b6001600160a01b038716600090815260056020526040812080549296508692909190611762908490613946565b90915550506001600160a01b0387166000908152600560205260408120805486929061178f9084906138ef565b9091555050600b54600090156118a357600b546117ad908690612533565b905060007f00000000000000000000000000000000000000000000000000000000000000006001600160a01b0316635b068af86040518163ffffffff1660e01b815260040160206040518083038186803b15801561180a57600080fd5b505afa15801561181e573d6000803e3d6000fd5b505050506040513d601f19601f8201168201806040525081019061184291906133b0565b6001600160a01b03891660009081526005602052604081208054929350849290919061186f908490613946565b90915550506001600160a01b0381166000908152600560205260408120805484929061189c9084906138ef565b9091555050505b876001600160a01b0316876001600160a01b03167fddf252ad1be2c89b69c2b068fc378daa952ba7f163c4a11628f55a4df523b3ef876040516118e891815260200190565b60405180910390a350506000805460ff191660011790555090949350505050565b6000805460ff1661192d576040516306fda65d60e31b815260040160405180910390fd5b6000805460ff19169055336001600160a01b038316146119a5576001600160a01b038216600090815260066020908152604080832033845290915290205460001981146119a35761197e8582613946565b6001600160a01b03841660009081526006602090815260408083203384529091529020555b505b6119b76119b061124b565b8590612533565b9050600081116119da5760405163e3e8d29760e01b815260040160405180910390fd5b6119e381612f12565b6119ed8285612f5b565b611a216001600160a01b037f0000000000000000000000000000000000000000000000000000000000000000168483612561565b816001600160a01b0316836001600160a01b0316611a3c3390565b6001600160a01b03167ffbde797d201c681b91056529119e0b02407c7bb96a4a2c75c01fc9667232c8db8488604051611a7f929190918252602082015260400190565b60405180910390a4611a8f61293f565b6000805460ff191660011790559392505050565b6001600160a01b03821660009081526005602052604081205480831115611ace5760009150506110df565b6000611ada8483613946565b90506000611ae9610f0261124b565b604051637d6af07960e01b81526001600160a01b0388811660048301529192506000917f00000000000000000000000000000000000000000000000000000000000000001690637d6af0799060240160206040518083038186803b158015611b5057600080fd5b505afa158015611b64573d6000803e3d6000fd5b505050506040513d601f19601f82011682018060405250810190611b8891906136cf565b90506000611b968383612fa9565b159998505050505050505050565b6001600160a01b038716611bcb57604051639a321bc760e01b815260040160405180910390fd5b6001600160a01b038616611bf2576040516353fbd1d760e01b815260040160405180910390fd5b42841015611c1c5760405163075dd20f60e41b81524260048201526024810185905260440161119c565b6001600160a01b0387811660008181526007602090815260408083208054600180820190925582517f6e71edae12b1b97f4d1f60370fef10105fa2faae0126114a169c64845d6126c98186015280840196909652958c166060860152608085018b905260a085019590955260c08085018a90528151808603909101815260e08501825280519083012061190160f01b6101008601527f000000000000000000000000000000000000000000000000000000000000000061010286015261012280860182905282518087039091018152610142860180845281519185019190912090859052610162860180845281905260ff8a166101828701526101a286018990526101c2860188905291519095919491926101e2808401939192601f1981019281900390910190855afa158015611d57573d6000803e3d6000fd5b5050604051601f1901519150506001600160a01b038116611d8b57604051637386dbbb60e11b815260040160405180910390fd5b896001600160a01b0316816001600160a01b031614611ddf5760405163a1d5f2ed60e01b81526001600160a01b038b16600482015260ff87166024820152604481018690526064810185905260840161119c565b6001600160a01b038a81166000818152600660209081526040808320948e16808452948252918290208c905590518b81527f8c5be1e5ebec7d5bd14f71427d1e84f3dd0314c0f7b2291e5b200ac8c7c3b925910160405180910390a350505050505050505050565b60005460ff16611e6a576040516306fda65d60e31b815260040160405180910390fd5b6000805460ff19169055611e7c612a85565b600019600c541415611e8e57600c8190555b611ecf7f0000000000000000000000000000000000000000000000000000000000000000730769fd68dfb93167989c6f7254cd0d766fb2841f600019613023565b604080516001600160a01b037f00000000000000000000000000000000000000000000000000000000000000001681527f00000000000000000000000000000000000000000000000000000000000000006020820152338183015290517f98ccebae89f16f152c93c6a0cdc0d99913b9e62a9fc612471c21ffc299c389fd9181900360600190a1506000805460ff19166001179055565b60005460ff16611f89576040516306fda65d60e31b815260040160405180910390fd5b6000805460ff19169055611f9b612a85565b611fb6670b1a2bc2ec500000670de0b6b3a764000083612ed7565b600980549082905560408051828152602081018490527ff25d2243e4128e51523d8537f04f18c3e6390bbfc6323390a9a8e59b921ce04691016115d6565b60005460ff16612017576040516306fda65d60e31b815260040160405180910390fd5b6000805460ff191690558261203f57604051632a28590560e01b815260040160405180910390fd5b600854831115612070576008546040516345a1e23f60e11b815261119c918591600401918252602082015260400190565b61207983612f12565b6120ad6001600160a01b037f0000000000000000000000000000000000000000000000000000000000000000168585612561565b80156121185760405163989bebcf60e01b81526001600160a01b0385169063989bebcf906120e5903390879087908790600401613791565b600060405180830381600087803b1580156120ff57600080fd5b505af1158015612113573d6000803e3d6000fd5b505050505b306000908152600560205260408120549061213b61213461124b565b8690612987565b90508082101561216857604051633ff6a11160e01b8152600481018390526024810182905260440161119c565b6121723083612f5b565b505061217c61293f565b50506000805460ff191660011790555050565b60005460ff166121b2576040516306fda65d60e31b815260040160405180910390fd5b6000805460ff191690556121c4612a85565b6121d8600067016345785d8a000083612ed7565b600b80549082905560408051828152602081018490527f87272249f1056ec16a68dd9255101358246dd26a796e2f0bc6b3a0ad02f2de4191016115d6565b33321461223e57604051632f7a9fa160e21b815233600482015232602482015260440161119c565b565b600c5460405163c346253d60e01b815260048101919091526000908190730769fd68dfb93167989c6f7254cd0d766fb2841f9063c346253d9060240160206040518083038186803b15801561229457600080fd5b505afa1580156122a8573d6000803e3d6000fd5b505050506040513d601f19601f820116820180604052508101906122cc91906133b0565b90506001600160a01b038116156124a657600c5460405163d63b3c4960e01b815260048101919091523060248201526000604482018190529081906001600160a01b0384169063d63b3c499060640160006040518083038186803b15801561233357600080fd5b505afa158015612347573d6000803e3d6000fd5b505050506040513d6000823e601f3d908101601f1916820160405261236f9190810190613568565b600c54604051630c7e663b60e11b815260048101919091523060248201529193509150730769fd68dfb93167989c6f7254cd0d766fb2841f906318fccc7690604401600060405180830381600087803b1580156123cb57600080fd5b505af11580156123df573d6000803e3d6000fd5b5050505060005b825181101561249e57600082828151811061241157634e487b7160e01b600052603260045260246000fd5b6020026020010151111561248c5761248c83828151811061244257634e487b7160e01b600052603260045260246000fd5b6020026020010151730b3f868e0be5597d5db7feb59e1cadbb0fdda50a84848151811061247f57634e487b7160e01b600052603260045260246000fd5b60200260200101516125aa565b8061249681613992565b9150506123e6565b505050612516565b600c54604051630c7e663b60e11b81526004810191909152306024820152730769fd68dfb93167989c6f7254cd0d766fb2841f906318fccc7690604401600060405180830381600087803b1580156124fd57600080fd5b505af1158015612511573d6000803e3d6000fd5b505050505b611273730b3f868e0be5597d5db7feb59e1cadbb0fdda50a6126ec565b6000816000190483118202156125515763bac65e5b6000526004601cfd5b50670de0b6b3a764000091020490565b81601a5280603a5269a9059cbb00000000000060005260206000604460166000875af13d1560016000511417166125a0576390b8ec186000526004601cfd5b6000603a52505050565b6040805160028082526060820183526000926020830190803683370190505090508383826000815181106125ee57634e487b7160e01b600052603260045260246000fd5b602002602001018360018151811061261657634e487b7160e01b600052603260045260246000fd5b6001600160a01b0393841660209182029290920101529116905261264f84731b02da8cb0d097eb8d57a175b88c7d8b4799750684613023565b6040516338ed173960e01b8152731b02da8cb0d097eb8d57a175b88c7d8b47997506906338ed17399061268f90859060009086903090429060040161382a565b600060405180830381600087803b1580156126a957600080fd5b505af11580156126bd573d6000803e3d6000fd5b505050506040513d6000823e601f3d908101601f191682016040526126e5919081019061362e565b5050505050565b60006110df6001600160a01b038316306130c5565b60008061271083612710613946565b9050600084612721836127106138ef565b61272b9190613927565b90506000828661273d89612710613927565b6127479190613927565b612752906004613927565b61275c9190613927565b905060006128048261276e8580613927565b61277891906138ef565b70ffffffffffffffffffffffffffffffffff811160071b81811c68ffffffffffffffffff1060061b1781811c64ffffffffff1060051b1781811c62ffffff1060041b1781811c620100000160b5600192831c1b0260121c80830401811c80830401811c80830401811c80830401811c80830401811c80830401811c80830401901c908190048111900390565b90506000612813856002613927565b9050806128208584613946565b61282a9190613907565b9998505050505050505050565b600061285885731b02da8cb0d097eb8d57a175b88c7d8b4799750685613023565b61287784731b02da8cb0d097eb8d57a175b88c7d8b4799750684613023565b60405162e8e33760e81b81526001600160a01b03808716600483015285166024820152604481018490526064810183905260006084820181905260a48201523060c48201524260e4820152731b02da8cb0d097eb8d57a175b88c7d8b479975069063e8e337009061010401606060405180830381600087803b1580156128fc57600080fd5b505af1158015612910573d6000803e3d6000fd5b505050506040513d601f19601f820116820180604052508101906129349190613764565b979650505050505050565b6000612949612d1c565b60088190556040518181529091507f8a0df8ef054fae2c3d2d19a7b322e864870cc9fd3cb07fb9526309c596244bf49060200160405180910390a150565b60007812725dd1d243aba0e75fe645cc4873f9e65afe688c928e1f218311670de0b6b3a7640000021582026129c457637c5f487d6000526004601cfd5b50670de0b6b3a7640000919091020490565b6001600160a01b0383166129fd576040516317ba2d8b60e11b815260040160405180910390fd5b6001600160a01b038216612a2457604051632cc8a69760e11b815260040160405180910390fd5b6001600160a01b0383811660008181526006602090815260408083209487168084529482529182902085905590518481527f8c5be1e5ebec7d5bd14f71427d1e84f3dd0314c0f7b2291e5b200ac8c7c3b925910160405180910390a3505050565b60007f00000000000000000000000000000000000000000000000000000000000000006001600160a01b031663f851a4406040518163ffffffff1660e01b815260040160206040518083038186803b158015612ae057600080fd5b505afa158015612af4573d6000803e3d6000fd5b505050506040513d601f19601f82011682018060405250810190612b1891906133b0565b9050336001600160a01b03821614612b5457604051633e7c764160e21b81523360048201526001600160a01b038216602482015260440161119c565b50565b612b618382611aa3565b612b9857604051633595d14560e21b81526001600160a01b038085166004830152831660248201526044810182905260640161119c565b612ba38383836130ee565b505050565b6000806001600160a01b038416612be35760405163a5075cd160e01b81526001600160a01b038516600482015232602482015260440161119c565b600019831415612c8957604051637d6af07960e01b81526001600160a01b0385811660048301527f00000000000000000000000000000000000000000000000000000000000000001690637d6af0799060240160206040518083038186803b158015612c4e57600080fd5b505afa158015612c62573d6000803e3d6000fd5b505050506040513d601f19601f82011682018060405250810190612c8691906136cf565b92505b6000612cb5612c9661124b565b6001600160a01b03871660009081526005602052604090205490612533565b9050612cc18185612fa9565b92509250505b9250929050565b6040516323b872dd600052836020528260405281606052602060006064601c6000895af13d156001600051141716612d0e57637939f4246000526004601cfd5b600060605260405250505050565b600c546040516393f1a40b60e01b81526004810191909152306024820152600090730769fd68dfb93167989c6f7254cd0d766fb2841f906393f1a40b90604401604080518083038186803b158015612d7357600080fd5b505afa158015612d87573d6000803e3d6000fd5b505050506040513d601f19601f82011682018060405250810190612dab9190613741565b50919050565b600c54604051638dbdbe6d60e01b8152600481019190915260248101829052306044820152730769fd68dfb93167989c6f7254cd0d766fb2841f90638dbdbe6d906064015b600060405180830381600087803b158015612e1057600080fd5b505af11580156126e5573d6000803e3d6000fd5b6001600160a01b038216612e4b5760405163237813dd60e01b815260040160405180910390fd5b6001600160a01b03821660009081526005602052604081208054839290612e739084906138ef565b925050819055508060046000828254612e8c91906138ef565b90915550506040518181526001600160a01b038316906000907fddf252ad1be2c89b69c2b068fc378daa952ba7f163c4a11628f55a4df523b3ef906020015b60405180910390a35050565b82811080612ee457508181115b15612ba35760405162ccc44d60e41b815260048101849052602481018390526044810182905260640161119c565b600c54604051630ad58d2f60e01b8152600481019190915260248101829052306044820152730769fd68dfb93167989c6f7254cd0d766fb2841f90630ad58d2f90606401612df6565b612f658282611aa3565b612f9b57604051633595d14560e21b81526001600160a01b0383166004820152600060248201526044810182905260640161119c565b612fa58282613211565b5050565b6000806000612fb6611279565b90506000612fc48683612533565b90506000612fdd6009548361253390919063ffffffff16565b90506000612ffb600b54600a54612ff491906138ef565b8890612533565b9050808210613014579003935060009250612cc7915050565b60009550039250612cc7915050565b604051636eb1769f60e11b81523060048201526001600160a01b03838116602483015282919085169063dd62ed3e9060440160206040518083038186803b15801561306d57600080fd5b505afa158015613081573d6000803e3d6000fd5b505050506040513d601f19601f820116820180604052508101906130a591906136cf565b106130af57505050565b612ba36001600160a01b038416836000196132bc565b60006370a08231600052816020526020806024601c865afa601f3d111660205102905092915050565b6001600160a01b0383166131155760405163618a6e7d60e11b815260040160405180910390fd5b6001600160a01b03821661313c5760405163446ebce960e01b815260040160405180910390fd5b6001600160a01b038316600090815260056020526040902054818110156131805760405163355a868d60e01b8152600481018290526024810183905260440161119c565b6001600160a01b038085166000908152600560205260408082208585039055918516815290812080548492906131b79084906138ef565b92505081905550826001600160a01b0316846001600160a01b03167fddf252ad1be2c89b69c2b068fc378daa952ba7f163c4a11628f55a4df523b3ef8460405161320391815260200190565b60405180910390a350505050565b6001600160a01b03821661323857604051630b5da42b60e01b815260040160405180910390fd5b6001600160a01b03821660009081526005602052604081208054839290613260908490613946565b9250508190555080600460008282546132799190613946565b90915550506040518181526000906001600160a01b038416907fddf252ad1be2c89b69c2b068fc378daa952ba7f163c4a11628f55a4df523b3ef90602001612ecb565b81601a5280603a5269095ea7b300000000000060005260206000604460166000875af13d1560016000511417166125a057633e3f8f736000526004601cfd5b600082601f83011261330b578081fd5b8151602061332061331b836138cb565b61389a565b80838252828201915082860187848660051b890101111561333f578586fd5b855b8581101561335d57815184529284019290840190600101613341565b5090979650505050505050565b80516dffffffffffffffffffffffffffff8116811461338857600080fd5b919050565b60006020828403121561339e578081fd5b81356133a9816139d9565b9392505050565b6000602082840312156133c1578081fd5b81516133a9816139d9565b600080604083850312156133de578081fd5b82356133e9816139d9565b915060208301356133f9816139d9565b809150509250929050565b600080600060608486031215613418578081fd5b8335613423816139d9565b92506020840135613433816139d9565b929592945050506040919091013590565b600080600080600080600060e0888a03121561345e578283fd5b8735613469816139d9565b96506020880135613479816139d9565b95506040880135945060608801359350608088013560ff8116811461349c578384fd5b9699959850939692959460a0840135945060c09093013592915050565b600080604083850312156134cb578182fd5b82356134d6816139d9565b946020939093013593505050565b600080600080606085870312156134f9578384fd5b8435613504816139d9565b935060208501359250604085013567ffffffffffffffff80821115613527578384fd5b818701915087601f83011261353a578384fd5b813581811115613548578485fd5b886020828501011115613559578485fd5b95989497505060200194505050565b6000806040838503121561357a578182fd5b825167ffffffffffffffff80821115613591578384fd5b818501915085601f8301126135a4578384fd5b815160206135b461331b836138cb565b8083825282820191508286018a848660051b89010111156135d3578889fd5b8896505b848710156135fe5780516135ea816139d9565b8352600196909601959183019183016135d7565b5091880151919650909350505080821115613617578283fd5b50613624858286016132fb565b9150509250929050565b60006020828403121561363f578081fd5b815167ffffffffffffffff811115613655578182fd5b613661848285016132fb565b949350505050565b60008060006060848603121561367d578081fd5b6136868461336a565b92506136946020850161336a565b9150604084015163ffffffff811681146136ac578182fd5b809150509250925092565b6000602082840312156136c8578081fd5b5035919050565b6000602082840312156136e0578081fd5b5051919050565b600080604083850312156136f9578182fd5b8235915060208301356133f9816139d9565b60008060006060848603121561371f578081fd5b833592506020840135613731816139d9565b915060408401356136ac816139d9565b60008060408385031215613753578182fd5b505080516020909101519092909150565b600080600060608486031215613778578081fd5b8351925060208401519150604084015190509250925092565b6001600160a01b038516815283602082015260606040820152816060820152818360808301376000818301608090810191909152601f909201601f191601019392505050565b6000602080835283518082850152825b81811015613803578581018301518582016040015282016137e7565b818111156138145783604083870101525b50601f01601f1916929092016040019392505050565b600060a082018783526020878185015260a0604085015281875180845260c0860191508289019350845b818110156138795784516001600160a01b031683529383019391830191600101613854565b50506001600160a01b03969096166060850152505050608001529392505050565b604051601f8201601f1916810167ffffffffffffffff811182821017156138c3576138c36139c3565b604052919050565b600067ffffffffffffffff8211156138e5576138e56139c3565b5060051b60200190565b60008219821115613902576139026139ad565b500190565b60008261392257634e487b7160e01b81526012600452602481fd5b500490565b6000816000190483118215151615613941576139416139ad565b500290565b600082821015613958576139586139ad565b500390565b600181811c9082168061397157607f821691505b60208210811415612dab57634e487b7160e01b600052602260045260246000fd5b60006000198214156139a6576139a66139ad565b5060010190565b634e487b7160e01b600052601160045260246000fd5b634e487b7160e01b600052604160045260246000fd5b6001600160a01b0381168114612b5457600080fdfea26469706673582212203af587c03101f6d6bc5ebdcbdd58bf8d7edcc6b561f03bea631834184c3f5ffd64736f6c63430008040033",
  "linkReferences": {},
  "deployedLinkReferences": {}
}