{
  "_format": "hh-sol-artifact-1",
  "contractName": "CygnusCollateral",
  "sourceName": "contracts/cygnus-core/CygnusCollateral.sol",
  "abi": [
    {
      "inputs": [
        {
          "internalType": "address",
          "name": "sender",
          "type": "address"
        },
        {
          "internalType": "address",
          "name": "origin",
          "type": "address"
        }
      ],
      "name": "CygnusCollateralChef__OnlyEOAAllowed",
      "type": "error"
    },
    {
      "inputs": [
        {
          "internalType": "address",
          "name": "tokenReward",
          "type": "address"
        }
      ],
      "name": "CygnusCollateralChef__VoidAlreadyInitialized",
      "type": "error"
    },
    {
      "inputs": [
        {
          "internalType": "uint256",
          "name": "min",
          "type": "uint256"
        },
        {
          "internalType": "uint256",
          "name": "max",
          "type": "uint256"
        },
        {
          "internalType": "uint256",
          "name": "value",
          "type": "uint256"
        }
      ],
      "name": "CygnusCollateralControl__ParameterNotInRange",
      "type": "error"
    },
    {
      "inputs": [
        {
          "internalType": "address",
          "name": "invalidBorrowable",
          "type": "address"
        },
        {
          "internalType": "address",
          "name": "validBorrowable",
          "type": "address"
        }
      ],
      "name": "CygnusCollateralModel__BorrowableInvalid",
      "type": "error"
    },
    {
      "inputs": [
        {
          "internalType": "address",
          "name": "sender",
          "type": "address"
        },
        {
          "internalType": "address",
          "name": "origin",
          "type": "address"
        }
      ],
      "name": "CygnusCollateralModel__BorrowerCantBeAddressZero",
      "type": "error"
    },
    {
      "inputs": [
        {
          "internalType": "address",
          "name": "borrower",
          "type": "address"
        },
        {
          "internalType": "address",
          "name": "liquidator",
          "type": "address"
        }
      ],
      "name": "CygnusCollateral__CantLiquidateSelf",
      "type": "error"
    },
    {
      "inputs": [],
      "name": "CygnusCollateral__CantLiquidateZero",
      "type": "error"
    },
    {
      "inputs": [],
      "name": "CygnusCollateral__CantRedeemZero",
      "type": "error"
    },
    {
      "inputs": [
        {
          "internalType": "address",
          "name": "from",
          "type": "address"
        },
        {
          "internalType": "address",
          "name": "to",
          "type": "address"
        },
        {
          "internalType": "uint256",
          "name": "value",
          "type": "uint256"
        }
      ],
      "name": "CygnusCollateral__InsufficientLiquidity",
      "type": "error"
    },
    {
      "inputs": [
        {
          "internalType": "uint256",
          "name": "cygLPTokens",
          "type": "uint256"
        },
        {
          "internalType": "uint256",
          "name": "shares",
          "type": "uint256"
        }
      ],
      "name": "CygnusCollateral__InsufficientRedeemAmount",
      "type": "error"
    },
    {
      "inputs": [
        {
          "internalType": "address",
          "name": "sender",
          "type": "address"
        },
        {
          "internalType": "address",
          "name": "borrowable",
          "type": "address"
        }
      ],
      "name": "CygnusCollateral__MsgSenderNotBorrowable",
      "type": "error"
    },
    {
      "inputs": [
        {
          "internalType": "uint256",
          "name": "liquidity",
          "type": "uint256"
        },
        {
          "internalType": "uint256",
          "name": "shortfall",
          "type": "uint256"
        }
      ],
      "name": "CygnusCollateral__NotLiquidatable",
      "type": "error"
    },
    {
      "inputs": [
        {
          "internalType": "uint256",
          "name": "assets",
          "type": "uint256"
        },
        {
          "internalType": "uint256",
          "name": "totalBalance",
          "type": "uint256"
        }
      ],
      "name": "CygnusCollateral__RedeemAmountInvalid",
      "type": "error"
    },
    {
      "inputs": [],
      "name": "CygnusTerminal__CantMintZeroShares",
      "type": "error"
    },
    {
      "inputs": [],
      "name": "CygnusTerminal__CantRedeemZeroAssets",
      "type": "error"
    },
    {
      "inputs": [
        {
          "internalType": "address",
          "name": "token",
          "type": "address"
        },
        {
          "internalType": "address",
          "name": "underlying",
          "type": "address"
        }
      ],
      "name": "CygnusTerminal__CantSweepUnderlying",
      "type": "error"
    },
    {
      "inputs": [
        {
          "internalType": "address",
          "name": "sender",
          "type": "address"
        },
        {
          "internalType": "address",
          "name": "factoryAdmin",
          "type": "address"
        }
      ],
      "name": "CygnusTerminal__MsgSenderNotAdmin",
      "type": "error"
    },
    {
      "inputs": [
        {
          "internalType": "uint256",
          "name": "assets",
          "type": "uint256"
        },
        {
          "internalType": "uint256",
          "name": "totalBalance",
          "type": "uint256"
        }
      ],
      "name": "CygnusTerminal__RedeemAmountInvalid",
      "type": "error"
    },
    {
      "inputs": [],
      "name": "ERC20__ApproveOwnerZeroAddress",
      "type": "error"
    },
    {
      "inputs": [],
      "name": "ERC20__ApproveSpenderZeroAddress",
      "type": "error"
    },
    {
      "inputs": [
        {
          "internalType": "uint256",
          "name": "accountBalance",
          "type": "uint256"
        },
        {
          "internalType": "uint256",
          "name": "burnAmount",
          "type": "uint256"
        }
      ],
      "name": "ERC20__BurnUnderflow",
      "type": "error"
    },
    {
      "inputs": [],
      "name": "ERC20__BurnZeroAddress",
      "type": "error"
    },
    {
      "inputs": [
        {
          "internalType": "uint256",
          "name": "allowance",
          "type": "uint256"
        },
        {
          "internalType": "uint256",
          "name": "amount",
          "type": "uint256"
        }
      ],
      "name": "ERC20__InsufficientAllowance",
      "type": "error"
    },
    {
      "inputs": [
        {
          "internalType": "uint256",
          "name": "senderBalance",
          "type": "uint256"
        },
        {
          "internalType": "uint256",
          "name": "amount",
          "type": "uint256"
        }
      ],
      "name": "ERC20__InsufficientBalance",
      "type": "error"
    },
    {
      "inputs": [],
      "name": "ERC20__MintZeroAddress",
      "type": "error"
    },
    {
      "inputs": [],
      "name": "ERC20__TransferRecipientZeroAddress",
      "type": "error"
    },
    {
      "inputs": [],
      "name": "ERC20__TransferSenderZeroAddress",
      "type": "error"
    },
    {
      "inputs": [
        {
          "internalType": "uint256",
          "name": "prod1",
          "type": "uint256"
        }
      ],
      "name": "PRBMath__MulDivFixedPointOverflow",
      "type": "error"
    },
    {
      "inputs": [
        {
          "internalType": "uint256",
          "name": "prod1",
          "type": "uint256"
        },
        {
          "internalType": "uint256",
          "name": "denominator",
          "type": "uint256"
        }
      ],
      "name": "PRBMath__MulDivOverflow",
      "type": "error"
    },
    {
      "inputs": [],
      "name": "ReentrantCall",
      "type": "error"
    },
    {
      "anonymous": false,
      "inputs": [
        {
          "indexed": true,
          "internalType": "address",
          "name": "owner",
          "type": "address"
        },
        {
          "indexed": true,
          "internalType": "address",
          "name": "spender",
          "type": "address"
        },
        {
          "indexed": false,
          "internalType": "uint256",
          "name": "amount",
          "type": "uint256"
        }
      ],
      "name": "Approval",
      "type": "event"
    },
    {
      "anonymous": false,
      "inputs": [
        {
          "indexed": false,
          "internalType": "contract IDexRouter02",
          "name": "_dexRouter",
          "type": "address"
        },
        {
          "indexed": false,
          "internalType": "contract IMiniChef",
          "name": "_rewarder",
          "type": "address"
        },
        {
          "indexed": false,
          "internalType": "address",
          "name": "_rewardsToken",
          "type": "address"
        },
        {
          "indexed": false,
          "internalType": "uint256",
          "name": "_pid",
          "type": "uint256"
        }
      ],
      "name": "ChargeVoid",
      "type": "event"
    },
    {
      "anonymous": false,
      "inputs": [
        {
          "indexed": true,
          "internalType": "address",
          "name": "sender",
          "type": "address"
        },
        {
          "indexed": true,
          "internalType": "address",
          "name": "recipient",
          "type": "address"
        },
        {
          "indexed": false,
          "internalType": "uint256",
          "name": "assets",
          "type": "uint256"
        },
        {
          "indexed": false,
          "internalType": "uint256",
          "name": "shares",
          "type": "uint256"
        }
      ],
      "name": "Deposit",
      "type": "event"
    },
    {
      "anonymous": false,
      "inputs": [
        {
          "indexed": false,
          "internalType": "uint256",
          "name": "oldDebtRatio",
          "type": "uint256"
        },
        {
          "indexed": false,
          "internalType": "uint256",
          "name": "newDebtRatio",
          "type": "uint256"
        }
      ],
      "name": "NewDebtRatio",
      "type": "event"
    },
    {
      "anonymous": false,
      "inputs": [
        {
          "indexed": false,
          "internalType": "uint256",
          "name": "oldLiquidationFee",
          "type": "uint256"
        },
        {
          "indexed": false,
          "internalType": "uint256",
          "name": "newLiquidationFee",
          "type": "uint256"
        }
      ],
      "name": "NewLiquidationFee",
      "type": "event"
    },
    {
      "anonymous": false,
      "inputs": [
        {
          "indexed": false,
          "internalType": "uint256",
          "name": "oldLiquidationIncentive",
          "type": "uint256"
        },
        {
          "indexed": false,
          "internalType": "uint256",
          "name": "newLiquidationIncentive",
          "type": "uint256"
        }
      ],
      "name": "NewLiquidationIncentive",
      "type": "event"
    },
    {
      "anonymous": false,
      "inputs": [
        {
          "indexed": true,
          "internalType": "address",
          "name": "shuttle",
          "type": "address"
        },
        {
          "indexed": false,
          "internalType": "address",
          "name": "reinvestor",
          "type": "address"
        },
        {
          "indexed": false,
          "internalType": "uint256",
          "name": "rewardBalance",
          "type": "uint256"
        },
        {
          "indexed": false,
          "internalType": "uint256",
          "name": "reinvestReward",
          "type": "uint256"
        },
        {
          "indexed": false,
          "internalType": "uint256",
          "name": "daoReward",
          "type": "uint256"
        }
      ],
      "name": "RechargeVoid",
      "type": "event"
    },
    {
      "anonymous": false,
      "inputs": [
        {
          "indexed": false,
          "internalType": "uint256",
          "name": "totalBalance",
          "type": "uint256"
        }
      ],
      "name": "Sync",
      "type": "event"
    },
    {
      "anonymous": false,
      "inputs": [
        {
          "indexed": true,
          "internalType": "address",
          "name": "from",
          "type": "address"
        },
        {
          "indexed": true,
          "internalType": "address",
          "name": "to",
          "type": "address"
        },
        {
          "indexed": false,
          "internalType": "uint256",
          "name": "amount",
          "type": "uint256"
        }
      ],
      "name": "Transfer",
      "type": "event"
    },
    {
      "anonymous": false,
      "inputs": [
        {
          "indexed": true,
          "internalType": "address",
          "name": "sender",
          "type": "address"
        },
        {
          "indexed": true,
          "internalType": "address",
          "name": "recipient",
          "type": "address"
        },
        {
          "indexed": true,
          "internalType": "address",
          "name": "owner",
          "type": "address"
        },
        {
          "indexed": false,
          "internalType": "uint256",
          "name": "assets",
          "type": "uint256"
        },
        {
          "indexed": false,
          "internalType": "uint256",
          "name": "shares",
          "type": "uint256"
        }
      ],
      "name": "Withdraw",
      "type": "event"
    },
    {
      "inputs": [],
      "name": "DAO_REWARD",
      "outputs": [
        {
          "internalType": "uint256",
          "name": "",
          "type": "uint256"
        }
      ],
      "stateMutability": "view",
      "type": "function"
    },
    {
      "inputs": [],
      "name": "REINVEST_REWARD",
      "outputs": [
        {
          "internalType": "uint256",
          "name": "",
          "type": "uint256"
        }
      ],
      "stateMutability": "view",
      "type": "function"
    },
    {
      "inputs": [
        {
          "internalType": "address",
          "name": "owner",
          "type": "address"
        },
        {
          "internalType": "address",
          "name": "spender",
          "type": "address"
        }
      ],
      "name": "allowance",
      "outputs": [
        {
          "internalType": "uint256",
          "name": "",
          "type": "uint256"
        }
      ],
      "stateMutability": "view",
      "type": "function"
    },
    {
      "inputs": [
        {
          "internalType": "address",
          "name": "spender",
          "type": "address"
        },
        {
          "internalType": "uint256",
          "name": "amount",
          "type": "uint256"
        }
      ],
      "name": "approve",
      "outputs": [
        {
          "internalType": "bool",
          "name": "",
          "type": "bool"
        }
      ],
      "stateMutability": "nonpayable",
      "type": "function"
    },
    {
      "inputs": [
        {
          "internalType": "address",
          "name": "account",
          "type": "address"
        }
      ],
      "name": "balanceOf",
      "outputs": [
        {
          "internalType": "uint256",
          "name": "",
          "type": "uint256"
        }
      ],
      "stateMutability": "view",
      "type": "function"
    },
    {
      "inputs": [],
      "name": "borrowable",
      "outputs": [
        {
          "internalType": "address",
          "name": "",
          "type": "address"
        }
      ],
      "stateMutability": "view",
      "type": "function"
    },
    {
      "inputs": [
        {
          "internalType": "address",
          "name": "borrower",
          "type": "address"
        },
        {
          "internalType": "address",
          "name": "borrowableToken",
          "type": "address"
        },
        {
          "internalType": "uint256",
          "name": "borrowAmount",
          "type": "uint256"
        }
      ],
      "name": "canBorrow",
      "outputs": [
        {
          "internalType": "bool",
          "name": "",
          "type": "bool"
        }
      ],
      "stateMutability": "view",
      "type": "function"
    },
    {
      "inputs": [
        {
          "internalType": "address",
          "name": "borrower",
          "type": "address"
        },
        {
          "internalType": "uint256",
          "name": "redeemAmount",
          "type": "uint256"
        }
      ],
      "name": "canRedeem",
      "outputs": [
        {
          "internalType": "bool",
          "name": "",
          "type": "bool"
        }
      ],
      "stateMutability": "view",
      "type": "function"
    },
    {
      "inputs": [
        {
          "internalType": "contract IDexRouter02",
          "name": "dexRouterVoid",
          "type": "address"
        },
        {
          "internalType": "contract IMiniChef",
          "name": "rewarderVoid",
          "type": "address"
        },
        {
          "internalType": "address",
          "name": "rewardsTokenVoid",
          "type": "address"
        },
        {
          "internalType": "uint256",
          "name": "pidVoid",
          "type": "uint256"
        }
      ],
      "name": "chargeVoid",
      "outputs": [],
      "stateMutability": "nonpayable",
      "type": "function"
    },
    {
      "inputs": [],
      "name": "cygnusNebulaOracle",
      "outputs": [
        {
          "internalType": "contract IChainlinkNebulaOracle",
          "name": "",
          "type": "address"
        }
      ],
      "stateMutability": "view",
      "type": "function"
    },
    {
      "inputs": [],
      "name": "debtRatio",
      "outputs": [
        {
          "internalType": "uint256",
          "name": "",
          "type": "uint256"
        }
      ],
      "stateMutability": "view",
      "type": "function"
    },
    {
      "inputs": [],
      "name": "decimals",
      "outputs": [
        {
          "internalType": "uint8",
          "name": "",
          "type": "uint8"
        }
      ],
      "stateMutability": "view",
      "type": "function"
    },
    {
      "inputs": [
        {
          "internalType": "uint256",
          "name": "assets",
          "type": "uint256"
        },
        {
          "internalType": "address",
          "name": "recipient",
          "type": "address"
        }
      ],
      "name": "deposit",
      "outputs": [
        {
          "internalType": "uint256",
          "name": "shares",
          "type": "uint256"
        }
      ],
      "stateMutability": "nonpayable",
      "type": "function"
    },
    {
      "inputs": [],
      "name": "exchangeRate",
      "outputs": [
        {
          "internalType": "uint256",
          "name": "",
          "type": "uint256"
        }
      ],
      "stateMutability": "view",
      "type": "function"
    },
    {
      "inputs": [
        {
          "internalType": "address",
          "name": "redeemer",
          "type": "address"
        },
        {
          "internalType": "uint256",
          "name": "assets",
          "type": "uint256"
        },
        {
          "internalType": "bytes",
          "name": "data",
          "type": "bytes"
        }
      ],
      "name": "flashRedeemAltair",
      "outputs": [],
      "stateMutability": "nonpayable",
      "type": "function"
    },
    {
      "inputs": [
        {
          "internalType": "address",
          "name": "borrower",
          "type": "address"
        }
      ],
      "name": "getAccountLiquidity",
      "outputs": [
        {
          "internalType": "uint256",
          "name": "liquidity",
          "type": "uint256"
        },
        {
          "internalType": "uint256",
          "name": "shortfall",
          "type": "uint256"
        }
      ],
      "stateMutability": "view",
      "type": "function"
    },
    {
      "inputs": [],
      "name": "getCygnusVoid",
      "outputs": [
        {
          "internalType": "contract IMiniChef",
          "name": "",
          "type": "address"
        },
        {
          "internalType": "contract IDexRouter02",
          "name": "",
          "type": "address"
        },
        {
          "internalType": "address",
          "name": "",
          "type": "address"
        },
        {
          "internalType": "uint256",
          "name": "",
          "type": "uint256"
        }
      ],
      "stateMutability": "view",
      "type": "function"
    },
    {
      "inputs": [
        {
          "internalType": "address",
          "name": "borrower",
          "type": "address"
        }
      ],
      "name": "getDebtRatio",
      "outputs": [
        {
          "internalType": "uint256",
          "name": "",
          "type": "uint256"
        }
      ],
      "stateMutability": "view",
      "type": "function"
    },
    {
      "inputs": [],
      "name": "getLPTokenPrice",
      "outputs": [
        {
          "internalType": "uint256",
          "name": "",
          "type": "uint256"
        }
      ],
      "stateMutability": "view",
      "type": "function"
    },
    {
      "inputs": [],
      "name": "hangar18",
      "outputs": [
        {
          "internalType": "address",
          "name": "",
          "type": "address"
        }
      ],
      "stateMutability": "view",
      "type": "function"
    },
    {
      "inputs": [],
      "name": "liquidationFee",
      "outputs": [
        {
          "internalType": "uint256",
          "name": "",
          "type": "uint256"
        }
      ],
      "stateMutability": "view",
      "type": "function"
    },
    {
      "inputs": [],
      "name": "liquidationIncentive",
      "outputs": [
        {
          "internalType": "uint256",
          "name": "",
          "type": "uint256"
        }
      ],
      "stateMutability": "view",
      "type": "function"
    },
    {
      "inputs": [],
      "name": "name",
      "outputs": [
        {
          "internalType": "string",
          "name": "",
          "type": "string"
        }
      ],
      "stateMutability": "view",
      "type": "function"
    },
    {
      "inputs": [],
      "name": "orbiterName",
      "outputs": [
        {
          "internalType": "string",
          "name": "",
          "type": "string"
        }
      ],
      "stateMutability": "view",
      "type": "function"
    },
    {
      "inputs": [
        {
          "internalType": "uint256",
          "name": "shares",
          "type": "uint256"
        },
        {
          "internalType": "address",
          "name": "recipient",
          "type": "address"
        },
        {
          "internalType": "address",
          "name": "owner",
          "type": "address"
        }
      ],
      "name": "redeem",
      "outputs": [
        {
          "internalType": "uint256",
          "name": "assets",
          "type": "uint256"
        }
      ],
      "stateMutability": "nonpayable",
      "type": "function"
    },
    {
      "inputs": [],
      "name": "reinvestRewards_y7b",
      "outputs": [],
      "stateMutability": "nonpayable",
      "type": "function"
    },
    {
      "inputs": [
        {
          "internalType": "address",
          "name": "liquidator",
          "type": "address"
        },
        {
          "internalType": "address",
          "name": "borrower",
          "type": "address"
        },
        {
          "internalType": "uint256",
          "name": "repayAmount",
          "type": "uint256"
        }
      ],
      "name": "seizeCygLP",
      "outputs": [
        {
          "internalType": "uint256",
          "name": "cygLPAmount",
          "type": "uint256"
        }
      ],
      "stateMutability": "nonpayable",
      "type": "function"
    },
    {
      "inputs": [
        {
          "internalType": "uint256",
          "name": "newDebtRatio",
          "type": "uint256"
        }
      ],
      "name": "setDebtRatio",
      "outputs": [],
      "stateMutability": "nonpayable",
      "type": "function"
    },
    {
      "inputs": [
        {
          "internalType": "uint256",
          "name": "newLiquidationFee",
          "type": "uint256"
        }
      ],
      "name": "setLiquidationFee",
      "outputs": [],
      "stateMutability": "nonpayable",
      "type": "function"
    },
    {
      "inputs": [
        {
          "internalType": "uint256",
          "name": "newLiquidationIncentive",
          "type": "uint256"
        }
      ],
      "name": "setLiquidationIncentive",
      "outputs": [],
      "stateMutability": "nonpayable",
      "type": "function"
    },
    {
      "inputs": [],
      "name": "shuttleId",
      "outputs": [
        {
          "internalType": "uint256",
          "name": "",
          "type": "uint256"
        }
      ],
      "stateMutability": "view",
      "type": "function"
    },
    {
      "inputs": [
        {
          "internalType": "address",
          "name": "token",
          "type": "address"
        }
      ],
      "name": "sweepToken",
      "outputs": [],
      "stateMutability": "nonpayable",
      "type": "function"
    },
    {
      "inputs": [],
      "name": "symbol",
      "outputs": [
        {
          "internalType": "string",
          "name": "",
          "type": "string"
        }
      ],
      "stateMutability": "view",
      "type": "function"
    },
    {
      "inputs": [],
      "name": "totalBalance",
      "outputs": [
        {
          "internalType": "uint256",
          "name": "",
          "type": "uint256"
        }
      ],
      "stateMutability": "view",
      "type": "function"
    },
    {
      "inputs": [],
      "name": "totalSupply",
      "outputs": [
        {
          "internalType": "uint256",
          "name": "",
          "type": "uint256"
        }
      ],
      "stateMutability": "view",
      "type": "function"
    },
    {
      "inputs": [
        {
          "internalType": "address",
          "name": "recipient",
          "type": "address"
        },
        {
          "internalType": "uint256",
          "name": "amount",
          "type": "uint256"
        }
      ],
      "name": "transfer",
      "outputs": [
        {
          "internalType": "bool",
          "name": "",
          "type": "bool"
        }
      ],
      "stateMutability": "nonpayable",
      "type": "function"
    },
    {
      "inputs": [
        {
          "internalType": "address",
          "name": "sender",
          "type": "address"
        },
        {
          "internalType": "address",
          "name": "recipient",
          "type": "address"
        },
        {
          "internalType": "uint256",
          "name": "amount",
          "type": "uint256"
        }
      ],
      "name": "transferFrom",
      "outputs": [
        {
          "internalType": "bool",
          "name": "",
          "type": "bool"
        }
      ],
      "stateMutability": "nonpayable",
      "type": "function"
    },
    {
      "inputs": [],
      "name": "underlying",
      "outputs": [
        {
          "internalType": "address",
          "name": "",
          "type": "address"
        }
      ],
      "stateMutability": "view",
      "type": "function"
    },
    {
      "stateMutability": "payable",
      "type": "receive"
    }
  ],
  "bytecode": "0x6101a0604052670d2f13f7789f0000600855670e398811bec680006009553480156200002a57600080fd5b5060408051808201825260128082527110de59db9d5cce8810dbdb1b185d195c985b60721b602080840191825284519081019094526000808552805460ff1916600190811790915583519394938592859285926200008992906200067a565b5081516200009f9060029060208501906200067a565b5060f81b7fff000000000000000000000000000000000000000000000000000000000000001660805250600090508080620000d73390565b6001600160a01b031663c3bc64ea6040518163ffffffff1660e01b8152600401608060405180830381600087803b1580156200011257600080fd5b505af192505050801562000145575060408051601f3d908101601f19168201909252620001429181019062000746565b60015b620001d457336001600160a01b0316639a9862366040518163ffffffff1660e01b815260040160c060405180830381600087803b1580156200018657600080fd5b505af11580156200019b573d6000803e3d6000fd5b505050506040513d601f19601f82011682018060405250810190620001c191906200079f565b50939650919450909250620001df915050565b929550909350909150505b6001600160601b0319606093841b811660a0529190921b1660e05260c05250600091506200020c90503390565b6001600160a01b031663c3bc64ea6040518163ffffffff1660e01b8152600401608060405180830381600087803b1580156200024757600080fd5b505af11580156200025c573d6000803e3d6000fd5b505050506040513d601f19601f8201168201806040525081019062000282919062000746565b90915050806001600160a01b0316610100906001600160a01b031660601b8152508192505050806001600160a01b031663d935bd926040518163ffffffff1660e01b815260040160206040518083038186803b158015620002e257600080fd5b505afa158015620002f7573d6000803e3d6000fd5b505050506040513d601f19601f820116820180604052508101906200031d919062000720565b60601b6001600160601b031916610120525060006003819055806200033f3390565b6001600160a01b031663c3bc64ea6040518163ffffffff1660e01b8152600401608060405180830381600087803b1580156200037a57600080fd5b505af11580156200038f573d6000803e3d6000fd5b505050506040513d601f19601f82011682018060405250810190620003b5919062000746565b5050915091506000816001600160a01b0316630dfe16816040518163ffffffff1660e01b815260040160206040518083038186803b158015620003f757600080fd5b505afa1580156200040c573d6000803e3d6000fd5b505050506040513d601f19601f8201168201806040525081019062000432919062000720565b90506000826001600160a01b031663d21220a76040518163ffffffff1660e01b815260040160206040518083038186803b1580156200047057600080fd5b505afa15801562000485573d6000803e3d6000fd5b505050506040513d601f19601f82011682018060405250810190620004ab919062000720565b9050816001600160a01b03166395d89b416040518163ffffffff1660e01b815260040160006040518083038186803b158015620004e757600080fd5b505afa158015620004fc573d6000803e3d6000fd5b505050506040513d6000823e601f3d908101601f191682016040526200052691908101906200080e565b816001600160a01b03166395d89b416040518163ffffffff1660e01b815260040160006040518083038186803b1580156200056057600080fd5b505afa15801562000575573d6000803e3d6000fd5b505050506040513d6000823e601f3d908101601f191682016040526200059f91908101906200080e565b604051602001620005b2929190620008c2565b60405160208183030381529060405260029080519060200190620005d89291906200067a565b50836001600160a01b031663e1758bd86040518163ffffffff1660e01b815260040160206040518083038186803b1580156200061357600080fd5b505afa15801562000628573d6000803e3d6000fd5b505050506040513d601f19601f820116820180604052508101906200064e919062000720565b6001600160601b0319606091821b81166101405292811b8316610160521b166101805250620009b39050565b828054620006889062000947565b90600052602060002090601f016020900481019282620006ac5760008555620006f7565b82601f10620006c757805160ff1916838001178555620006f7565b82800160010185558215620006f7579182015b82811115620006f7578251825591602001919060010190620006da565b506200070592915062000709565b5090565b5b808211156200070557600081556001016200070a565b60006020828403121562000732578081fd5b81516200073f816200099a565b9392505050565b600080600080608085870312156200075c578283fd5b845162000769816200099a565b60208601519094506200077c816200099a565b60408601519093506200078f816200099a565b6060959095015193969295505050565b60008060008060008060c08789031215620007b8578182fd5b8651620007c5816200099a565b6020880151909650620007d8816200099a565b6040880151909550620007eb816200099a565b80945050606087015192506080870151915060a087015190509295509295509295565b60006020828403121562000820578081fd5b81516001600160401b038082111562000837578283fd5b818401915084601f8301126200084b578283fd5b81518181111562000860576200086062000984565b604051601f8201601f19908116603f011681019083821181831017156200088b576200088b62000984565b81604052828152876020848701011115620008a4578586fd5b620008b783602083016020880162000914565b979650505050505050565b65021bcb3a628160d51b815260008351620008e581600685016020880162000914565b602f60f81b60069184019182015283516200090881600784016020880162000914565b01600701949350505050565b60005b838110156200093157818101518382015260200162000917565b8381111562000941576000848401525b50505050565b600181811c908216806200095c57607f821691505b602082108114156200097e57634e487b7160e01b600052602260045260246000fd5b50919050565b634e487b7160e01b600052604160045260246000fd5b6001600160a01b0381168114620009b057600080fd5b50565b60805160f81c60a05160601c60c05160e05160601c6101005160601c6101205160601c6101405160601c6101605160601c6101805160601c613a2a62000b7e600039600081816109d101528181610a3c01528181610aa401528181610b9401528181610c1e01528181610cf70152611f9e01526000818161099901528181610a0901528181610a5d01528181610a8301528181610b3901528181610bef01528181610c3f01528181610c8901528181610cd401528181610de10152611f7c01526000818161022e01528181610ae001528181610b0f01528181610b6a01528181610bc501528181610c6801528181610cad01528181611525015261232b015260008181610710015261137b0152600081816107d301528181610fbe015281816116d1015281816117270152818161185d0152818161189f01528181611d620152612ae701526000818161056101528181610d290152818161115c015281816111b301528181611349015281816114d90152818161161b01528181611c4e01528181611f270152818161260a0152818161263e0152612678015260006104ed01526000818161079f015281816108e6015281816119e301526128920152600061042d0152613a2a6000f3fe6080604052600436106102275760003560e01c80638c765e9411610123578063cc1f8ffa116100ab578063e8a24e1d1161006f578063e8a24e1d1461078d578063e99a6ac7146107c1578063eb6a887d146107f5578063fa14fdc214610815578063fef0bec81461083557600080fd5b8063cc1f8ffa146106c8578063cea55f57146106e8578063d935bd92146106fe578063da7a2f7414610732578063dd62ed3e1461074757600080fd5b8063a8431081116100f2578063a843108114610632578063a9059cbb14610652578063ad7a672f14610672578063b4ebbda414610688578063ba087652146106a857600080fd5b80638c765e94146105d157806395d89b41146105e75780639aac2c53146105fc578063a36a36301461061c57600080fd5b8063313ce567116101b15780635f77f891116101755780635f77f891146104db57806361a2ff341461050f5780636e553f651461052f5780636f307dc31461054f57806370a082311461059b57600080fd5b8063313ce5671461041b5780633ba0b9a914610461578063513036221461047657806359b0bc2a1461048b5780635ec88c79146104a657600080fd5b806318160ddd116101f857806318160ddd146103435780631995bc1a146103595780631be19560146103c05780631c198188146103e057806323b872dd146103fb57600080fd5b8061e18a146102a7578063031a5c82146102be57806306fdde03146102f1578063095ea7b31461031357600080fd5b366102a2577f00000000000000000000000000000000000000000000000000000000000000006001600160a01b031663d0e30db0346040518263ffffffff1660e01b81526004016000604051808303818588803b15801561028757600080fd5b505af115801561029b573d6000803e3d6000fd5b5050505050005b600080fd5b3480156102b357600080fd5b506102bc610855565b005b3480156102ca57600080fd5b506102de6102d93660046133b4565b610f56565b6040519081526020015b60405180910390f35b3480156102fd57600080fd5b50610306611080565b6040516102e89190613847565b34801561031f57600080fd5b5061033361032e366004613464565b61110e565b60405190151581526020016102e8565b34801561034f57600080fd5b506102de60035481565b34801561036557600080fd5b5061038b600d54600c54600b54600e546001600160a01b03938416949284169390911691565b6040516102e894939291906001600160a01b039485168152928416602084015292166040820152606081019190915260800190565b3480156103cc57600080fd5b506102bc6103db3660046133b4565b611125565b3480156103ec57600080fd5b506102de66470de4df82000081565b34801561040757600080fd5b50610333610416366004613424565b61128e565b34801561042757600080fd5b5061044f7f000000000000000000000000000000000000000000000000000000000000000081565b60405160ff90911681526020016102e8565b34801561046d57600080fd5b506102de611304565b34801561048257600080fd5b506102de611332565b34801561049757600080fd5b506102de662386f26fc1000081565b3480156104b257600080fd5b506104c66104c13660046133b4565b611404565b604080519283526020830191909152016102e8565b3480156104e757600080fd5b506102de7f000000000000000000000000000000000000000000000000000000000000000081565b34801561051b57600080fd5b506102bc61052a3660046136a3565b61141c565b34801561053b57600080fd5b506102de61054a366004613765565b6115b3565b34801561055b57600080fd5b506105837f000000000000000000000000000000000000000000000000000000000000000081565b6040516001600160a01b0390911681526020016102e8565b3480156105a757600080fd5b506102de6105b63660046133b4565b6001600160a01b031660009081526004602052604090205490565b3480156105dd57600080fd5b506102de60095481565b3480156105f357600080fd5b506103066116c0565b34801561060857600080fd5b50610333610617366004613424565b6116cd565b34801561062857600080fd5b506102de600a5481565b34801561063e57600080fd5b506102bc61064d366004613735565b61176b565b34801561065e57600080fd5b5061033361066d366004613464565b61180e565b34801561067e57600080fd5b506102de60065481565b34801561069457600080fd5b506102de6106a3366004613424565b61181b565b3480156106b457600080fd5b506102de6106c3366004613789565b611b2b565b3480156106d457600080fd5b506103336106e3366004613464565b611cf7565b3480156106f457600080fd5b506102de60085481565b34801561070a57600080fd5b506105837f000000000000000000000000000000000000000000000000000000000000000081565b34801561073e57600080fd5b50610306611df8565b34801561075357600080fd5b506102de6107623660046133ec565b6001600160a01b03918216600090815260056020908152604080832093909416825291909152205490565b34801561079957600080fd5b506105837f000000000000000000000000000000000000000000000000000000000000000081565b3480156107cd57600080fd5b506105837f000000000000000000000000000000000000000000000000000000000000000081565b34801561080157600080fd5b506102bc610810366004613735565b611e05565b34801561082157600080fd5b506102bc61083036600461348f565b611e93565b34801561084157600080fd5b506102bc610850366004613735565b612074565b60005460ff16610878576040516306fda65d60e31b815260040160405180910390fd5b6000805460ff1916905561088a6120fb565b6000610894612125565b9050806108a15750610f3f565b60006108b48266470de4df820000612391565b90506108cd33600b546001600160a01b0316908361239d565b60006108e083662386f26fc10000612391565b905060007f00000000000000000000000000000000000000000000000000000000000000006001600160a01b0316635b068af86040518163ffffffff1660e01b815260040160206040518083038186803b15801561093d57600080fd5b505afa158015610951573d6000803e3d6000fd5b505050506040513d601f19601f8201168201806040525081019061097591906133d0565b600b5490915061098f906001600160a01b0316828461239d565b600b5460009081907f00000000000000000000000000000000000000000000000000000000000000006001600160a01b03908116911614806109ff5750600b547f00000000000000000000000000000000000000000000000000000000000000006001600160a01b039081169116145b15610ace57600b547f00000000000000000000000000000000000000000000000000000000000000006001600160a01b03908116911614610a81577f00000000000000000000000000000000000000000000000000000000000000007f0000000000000000000000000000000000000000000000000000000000000000610ac4565b7f00000000000000000000000000000000000000000000000000000000000000007f00000000000000000000000000000000000000000000000000000000000000005b9092509050610d17565b600b54610b0d906001600160a01b03167f0000000000000000000000000000000000000000000000000000000000000000610b08826123e1565b61245b565b7f00000000000000000000000000000000000000000000000000000000000000006001600160a01b03167f00000000000000000000000000000000000000000000000000000000000000006001600160a01b03161480610bbe57507f00000000000000000000000000000000000000000000000000000000000000006001600160a01b03167f00000000000000000000000000000000000000000000000000000000000000006001600160a01b0316145b15610c63577f00000000000000000000000000000000000000000000000000000000000000006001600160a01b03167f00000000000000000000000000000000000000000000000000000000000000006001600160a01b031614610a81577f00000000000000000000000000000000000000000000000000000000000000007f0000000000000000000000000000000000000000000000000000000000000000610ac4565b610cd17f00000000000000000000000000000000000000000000000000000000000000007f0000000000000000000000000000000000000000000000000000000000000000610b087f00000000000000000000000000000000000000000000000000000000000000006123e1565b507f000000000000000000000000000000000000000000000000000000000000000090507f00000000000000000000000000000000000000000000000000000000000000005b6000610d22836123e1565b90506000807f00000000000000000000000000000000000000000000000000000000000000006001600160a01b0316630902f1ac6040518163ffffffff1660e01b815260040160606040518083038186803b158015610d8057600080fd5b505afa158015610d94573d6000803e3d6000fd5b505050506040513d601f19601f82011682018060405250810190610db891906136f3565b506dffffffffffffffffffffffffffff1691506dffffffffffffffffffffffffffff16915060007f00000000000000000000000000000000000000000000000000000000000000006001600160a01b0316866001600160a01b031614610e1e5781610e20565b825b90506000610e2e8583612589565b9050610e3b87878361245b565b6000610e5a8888610e4c858a613961565b610e558b6123e1565b6125f9565b600d54600e54604051631c57762b60e31b81526004810191909152602481018390529192506001600160a01b03169063e2bbb15890604401600060405180830381600087803b158015610eac57600080fd5b505af1158015610ec0573d6000803e3d6000fd5b50505050306001600160a01b03167f7939504e0d173f269dabb97feceec8ad244dcdb64e12dd74ce21a2841e4f4b11610ef63390565b8e8e8e604051610f2a94939291906001600160a01b0394909416845260208401929092526040830152606082015260800190565b60405180910390a25050505050505050505050505b610f47612705565b6000805460ff19166001179055565b600080610f83610f64611304565b6001600160a01b03851660009081526004602052604090205490612391565b90506000610f99610f92611332565b8390612391565b604051637d6af07960e01b81526001600160a01b0386811660048301529192506000917f00000000000000000000000000000000000000000000000000000000000000001690637d6af0799060240160206040518083038186803b15801561100057600080fd5b505afa158015611014573d6000803e3d6000fd5b505050506040513d601f19601f82011682018060405250810190611038919061374d565b9050600061104f600a54600954610f92919061390a565b905081156110735760085461106e9061106883866127ca565b906127ca565b611076565b60005b9695505050505050565b6001805461108d90613978565b80601f01602080910402602001604051908101604052809291908181526020018280546110b990613978565b80156111065780601f106110db57610100808354040283529160200191611106565b820191906000526020600020905b8154815290600101906020018083116110e957829003601f168201915b505050505081565b600061111b3384846127df565b5060015b92915050565b60005460ff16611148576040516306fda65d60e31b815260040160405180910390fd5b6000805460ff1916905561115a61288e565b7f00000000000000000000000000000000000000000000000000000000000000006001600160a01b0316816001600160a01b031614156111e5576040516303b91a9160e31b81526001600160a01b0380831660048301527f00000000000000000000000000000000000000000000000000000000000000001660248201526044015b60405180910390fd5b6040516370a0823160e01b81523060048201526000906001600160a01b038316906370a082319060240160206040518083038186803b15801561122757600080fd5b505afa15801561123b573d6000803e3d6000fd5b505050506040513d601f19601f8201168201806040525081019061125f919061374d565b90506112756001600160a01b038316338361239d565b5061127e612705565b506000805460ff19166001179055565b600061129b848484612960565b6001600160a01b0384166000908152600560209081526040808320338452909152902054828110156112ea576040516310c6013560e31b815260048101829052602481018490526044016111dc565b6112f785338584036127df565b60019150505b9392505050565b60035460009080156113225760065461131d90826127ca565b61132c565b670de0b6b3a76400005b91505090565b604051638c5a6f8160e01b81526001600160a01b037f00000000000000000000000000000000000000000000000000000000000000008116600483015260009164e8d4a51000917f00000000000000000000000000000000000000000000000000000000000000001690638c5a6f819060240160206040518083038186803b1580156113bd57600080fd5b505afa1580156113d1573d6000803e3d6000fd5b505050506040513d601f19601f820116820180604052508101906113f5919061374d565b6113ff9190613922565b905090565b60008061141383600019612a83565b91509150915091565b60005460ff1661143f576040516306fda65d60e31b815260040160405180910390fd5b6000805460ff1916905561145161288e565b600b546001600160a01b031615611486576040516327d04a1160e01b81526001600160a01b03831660048201526024016111dc565b600c80546001600160a01b0380871673ffffffffffffffffffffffffffffffffffffffff1992831617909255600d8054868416908316179055600e839055600b80548584169216919091179055611502907f00000000000000000000000000000000000000000000000000000000000000001684600019612ba9565b6115186001600160a01b03831685600019612ba9565b61154e6001600160a01b037f00000000000000000000000000000000000000000000000000000000000000001685600019612ba9565b604080516001600160a01b03868116825285811660208301528416818301526060810183905290517fe234c6c9454cb0f87bb2181442b710c70556afa8f1a5033e2e1553ec18f3603c9181900360800190a150506000805460ff191660011790555050565b6000805460ff166115d7576040516306fda65d60e31b815260040160405180910390fd5b6000805460ff191690556115f36115ec611304565b84906127ca565b9050600081116116165760405163f1ca48b160e01b815260040160405180910390fd5b61164b7f00000000000000000000000000000000000000000000000000000000000000006001600160a01b0316333086612be5565b6116558282612c33565b61165f8382612ce6565b60408051848152602081018390526001600160a01b0384169133917fdcbc1c05240f31ff3ad067ef1ee35ce4997762752e3a095284754544f4c709d7910160405180910390a36116ad612705565b6000805460ff1916600117905592915050565b6002805461108d90613978565b60007f00000000000000000000000000000000000000000000000000000000000000006001600160a01b0316836001600160a01b0316146117545760405163d06d9b9360e01b81526001600160a01b0380851660048301527f00000000000000000000000000000000000000000000000000000000000000001660248201526044016111dc565b60006117608584612a83565b159695505050505050565b60005460ff1661178e576040516306fda65d60e31b815260040160405180910390fd5b6000805460ff191690556117a061288e565b6117bb670de0b6b3a7640000670f43fc2c04ee000083612d58565b600980549082905560408051828152602081018490527faeba5a6c40a8ac138134bff1aaa65debf25971188a58804bad717f82f0ec131691015b60405180910390a150506000805460ff19166001179055565b600061111b338484612960565b6000336001600160a01b038416141561185a5760405163d99e6eed60e01b81526001600160a01b038085166004830152851660248201526044016111dc565b337f00000000000000000000000000000000000000000000000000000000000000006001600160a01b0316146118d45760405163f0f84ccf60e01b81523360048201527f00000000000000000000000000000000000000000000000000000000000000006001600160a01b031660248201526044016111dc565b816118f25760405163f3934a2360e01b815260040160405180910390fd5b60008061190185600019612a83565b9150915060008111611930576040516311ef27af60e31b815260048101839052602481018290526044016111dc565b600061193a611332565b9050611944611304565b60095461195187846127ca565b61195b9190613942565b6119659190613922565b6001600160a01b038716600090815260046020526040812080549296508692909190611992908490613961565b90915550506001600160a01b038716600090815260046020526040812080548692906119bf90849061390a565b9091555050600a5460009015611ad357600a546119dd908690612391565b905060007f00000000000000000000000000000000000000000000000000000000000000006001600160a01b0316635b068af86040518163ffffffff1660e01b815260040160206040518083038186803b158015611a3a57600080fd5b505afa158015611a4e573d6000803e3d6000fd5b505050506040513d601f19601f82011682018060405250810190611a7291906133d0565b6001600160a01b038916600090815260046020526040812080549293508492909190611a9f908490613961565b90915550506001600160a01b03811660009081526004602052604081208054849290611acc90849061390a565b9091555050505b876001600160a01b0316876001600160a01b03167fddf252ad1be2c89b69c2b068fc378daa952ba7f163c4a11628f55a4df523b3ef87604051611b1891815260200190565b60405180910390a3505050509392505050565b6000805460ff16611b4f576040516306fda65d60e31b815260040160405180910390fd5b6000805460ff19169055336001600160a01b03831614611bc7576001600160a01b03821660009081526005602090815260408083203384529091529020546000198114611bc557611ba08582613961565b6001600160a01b03841660009081526005602090815260408083203384529091529020555b505b611bd9611bd2611304565b8590612391565b905060008111611bfc5760405163e3e8d29760e01b815260040160405180910390fd5b600654811115611c2d576006546040516339eff09f60e11b81526111dc918391600401918252602082015260400190565b611c378185612d98565b611c418285612dd4565b611c756001600160a01b037f000000000000000000000000000000000000000000000000000000000000000016848361239d565b816001600160a01b0316836001600160a01b0316611c903390565b6001600160a01b03167ffbde797d201c681b91056529119e0b02407c7bb96a4a2c75c01fc9667232c8db8488604051611cd3929190918252602082015260400190565b60405180910390a4611ce3612705565b6000805460ff191660011790559392505050565b6001600160a01b03821660009081526004602052604081205480831115611d2257600091505061111f565b6000611d2e8483613961565b90506000611d3d610f92611304565b604051637d6af07960e01b81526001600160a01b0388811660048301529192506000917f00000000000000000000000000000000000000000000000000000000000000001690637d6af0799060240160206040518083038186803b158015611da457600080fd5b505afa158015611db8573d6000803e3d6000fd5b505050506040513d601f19601f82011682018060405250810190611ddc919061374d565b90506000611dea8383612e22565b159998505050505050505050565b6007805461108d90613978565b60005460ff16611e28576040516306fda65d60e31b815260040160405180910390fd5b6000805460ff19169055611e3a61288e565b611e55670b1a2bc2ec500000670de0b6b3a764000083612d58565b600880549082905560408051828152602081018490527ff25d2243e4128e51523d8537f04f18c3e6390bbfc6323390a9a8e59b921ce04691016117f5565b60005460ff16611eb6576040516306fda65d60e31b815260040160405180910390fd5b6000805460ff1916905582611ede57604051632a28590560e01b815260040160405180910390fd5b600654831115611f0f576006546040516345a1e23f60e11b81526111dc918591600401918252602082015260400190565b611f1a836000612d98565b611f4e6001600160a01b037f000000000000000000000000000000000000000000000000000000000000000016858561239d565b8015611ffd5760405163062292db60e21b81526001600160a01b0385169063188a4b6c90611fca90339087907f0000000000000000000000000000000000000000000000000000000000000000907f000000000000000000000000000000000000000000000000000000000000000090899089906004016137ed565b600060405180830381600087803b158015611fe457600080fd5b505af1158015611ff8573d6000803e3d6000fd5b505050505b3060009081526004602052604081205490612020612019611304565b86906127ca565b90508082101561204d57604051633ff6a11160e01b815260048101839052602481018290526044016111dc565b6120573083612dd4565b5050612061612705565b50506000805460ff191660011790555050565b60005460ff16612097576040516306fda65d60e31b815260040160405180910390fd5b6000805460ff191690556120a961288e565b6120bd600067016345785d8a000083612d58565b600a80549082905560408051828152602081018490527f87272249f1056ec16a68dd9255101358246dd26a796e2f0bc6b3a0ad02f2de4191016117f5565b33321461212357604051631fec819f60e21b81523360048201523260248201526044016111dc565b565b600d54600e54604051630441a3e760e41b81526004810191909152600060248201819052916001600160a01b03169063441a3e7090604401600060405180830381600087803b15801561217757600080fd5b505af115801561218b573d6000803e3d6000fd5b5050600d54600e54604051631526fe2760e01b81526004810191909152600093506001600160a01b039091169150631526fe27906024016101206040518083038186803b1580156121db57600080fd5b505afa1580156121ef573d6000803e3d6000fd5b505050506040513d601f19601f820116820180604052508101906122139190613513565b5050509550505050505060006001600160a01b0316816001600160a01b03161461237c576000816001600160a01b03166373cfc6b26040518163ffffffff1660e01b815260040160206040518083038186803b15801561227257600080fd5b505afa158015612286573d6000803e3d6000fd5b505050506040513d601f19601f820116820180604052508101906122aa9190613683565b905060008161232957826001600160a01b031663f7c618c16040518163ffffffff1660e01b815260040160206040518083038186803b1580156122ec57600080fd5b505afa158015612300573d6000803e3d6000fd5b505050506040513d601f19601f8201168201806040525081019061232491906133d0565b61234b565b7f00000000000000000000000000000000000000000000000000000000000000005b90506000612358826123e1565b9050801561237857600b546123789083906001600160a01b03168361245b565b5050505b600b5461132c906001600160a01b03166123e1565b60006112fd8383612e9c565b60405163a9059cbb6000528260205281604052602060006044601c6000885af13d1560016000511417166123d9576390b8ec186000526004601cfd5b604052505050565b6040516370a0823160e01b81523060048201526000906001600160a01b038316906370a082319060240160206040518083038186803b15801561242357600080fd5b505afa158015612437573d6000803e3d6000fd5b505050506040513d601f19601f8201168201806040525081019061111f919061374d565b60408051600280825260608201835260009260208301908036833701905050905083838260008151811061249f57634e487b7160e01b600052603260045260246000fd5b60200260200101836001815181106124c757634e487b7160e01b600052603260045260246000fd5b6001600160a01b039384166020918202929092010152918116909152600c546124f39186911684612f5e565b600c546040516338ed173960e01b81526001600160a01b03909116906338ed17399061252c90859060009086903090429060040161389a565b600060405180830381600087803b15801561254657600080fd5b505af115801561255a573d6000803e3d6000fd5b505050506040513d6000823e601f3d908101601f1916820160405261258291908101906135c3565b5050505050565b600080612598836107cd613942565b90506000836125a9866103e8613942565b6125b39190613942565b6125bf90610f94613942565b905060006125e0826125d18580613942565b6125db919061390a565b613000565b90506107ca6125ef8483613961565b6110769190613922565b600061262f6001600160a01b0386167f00000000000000000000000000000000000000000000000000000000000000008561239d565b6126636001600160a01b0385167f00000000000000000000000000000000000000000000000000000000000000008461239d565b6040516335313c2160e11b81523060048201527f00000000000000000000000000000000000000000000000000000000000000006001600160a01b031690636a62784290602401602060405180830381600087803b1580156126c457600080fd5b505af11580156126d8573d6000803e3d6000fd5b505050506040513d601f19601f820116820180604052508101906126fc919061374d565b95945050505050565b600d54600e546040516393f1a40b60e01b815260048101919091523060248201526000916001600160a01b0316906393f1a40b90604401604080518083038186803b15801561275357600080fd5b505afa158015612767573d6000803e3d6000fd5b505050506040513d601f19601f8201168201806040525081019061278b91906137ca565b5060068190556040518181529091507f8a0df8ef054fae2c3d2d19a7b322e864870cc9fd3cb07fb9526309c596244bf49060200160405180910390a150565b60006112fd83670de0b6b3a7640000846131eb565b6001600160a01b038316612806576040516317ba2d8b60e11b815260040160405180910390fd5b6001600160a01b03821661282d57604051632cc8a69760e11b815260040160405180910390fd5b6001600160a01b0383811660008181526005602090815260408083209487168084529482529182902085905590518481527f8c5be1e5ebec7d5bd14f71427d1e84f3dd0314c0f7b2291e5b200ac8c7c3b925910160405180910390a3505050565b60007f00000000000000000000000000000000000000000000000000000000000000006001600160a01b031663f851a4406040518163ffffffff1660e01b815260040160206040518083038186803b1580156128e957600080fd5b505afa1580156128fd573d6000803e3d6000fd5b505050506040513d601f19601f8201168201806040525081019061292191906133d0565b9050336001600160a01b0382161461295d57604051633e7c764160e21b81523360048201526001600160a01b03821660248201526044016111dc565b50565b6001600160a01b0383166129875760405163618a6e7d60e11b815260040160405180910390fd5b6001600160a01b0382166129ae5760405163446ebce960e01b815260040160405180910390fd5b6001600160a01b038316600090815260046020526040902054818110156129f25760405163355a868d60e01b815260048101829052602481018390526044016111dc565b6001600160a01b03808516600090815260046020526040808220858503905591851681529081208054849290612a2990849061390a565b92505081905550826001600160a01b0316846001600160a01b03167fddf252ad1be2c89b69c2b068fc378daa952ba7f163c4a11628f55a4df523b3ef84604051612a7591815260200190565b60405180910390a350505050565b6000806001600160a01b038416612abe5760405163a5075cd160e01b81526001600160a01b03851660048201523260248201526044016111dc565b600019831415612b6457604051637d6af07960e01b81526001600160a01b0385811660048301527f00000000000000000000000000000000000000000000000000000000000000001690637d6af0799060240160206040518083038186803b158015612b2957600080fd5b505afa158015612b3d573d6000803e3d6000fd5b505050506040513d601f19601f82011682018060405250810190612b61919061374d565b92505b6000612b90612b71611304565b6001600160a01b03871660009081526004602052604090205490612391565b9050612b9c8185612e22565b92509250505b9250929050565b60405163095ea7b36000528260205281604052602060006044601c6000885af13d1560016000511417166123d957633e3f8f736000526004601cfd5b6040516323b872dd600052836020528260405281606052602060006064601c6000895af13d156001600051141716612c2557637939f4246000526004601cfd5b600060605260405250505050565b6001600160a01b038216612c5a5760405163237813dd60e01b815260040160405180910390fd5b6001600160a01b03821660009081526004602052604081208054839290612c8290849061390a565b925050819055508060036000828254612c9b919061390a565b90915550506040518181526001600160a01b038316906000907fddf252ad1be2c89b69c2b068fc378daa952ba7f163c4a11628f55a4df523b3ef906020015b60405180910390a35050565b600d54600e54604051631c57762b60e31b81526001600160a01b039092169163e2bbb15891612d22918690600401918252602082015260400190565b600060405180830381600087803b158015612d3c57600080fd5b505af1158015612d50573d6000803e3d6000fd5b505050505050565b82811080612d6557508181115b15612d935760405162ccc44d60e41b81526004810184905260248101839052604481018290526064016111dc565b505050565b600d54600e54604051630441a3e760e41b81526001600160a01b039092169163441a3e7091612d22918690600401918252602082015260400190565b612dde8282611cf7565b612e1457604051633595d14560e21b81526001600160a01b038316600482015260006024820152604481018290526064016111dc565b612e1e82826132c7565b5050565b6000806000612e2f611332565b90506000612e3d8683612391565b90506000612e566008548361239190919063ffffffff16565b90506000612e74600a54600954612e6d919061390a565b8890612391565b9050808210612e8d579003935060009250612ba2915050565b60009550039250612ba2915050565b60008080600019848609848602925082811083820303915050670de0b6b3a76400008110612ee05760405163698d9a0160e11b8152600481018290526024016111dc565b600080670de0b6b3a76400008688099150506706f05b59d3b1ffff811182612f1a5780670de0b6b3a764000085040194505050505061111f565b620400008285030493909111909103600160ee1b02919091177faccb18165bd6fe31ae1cf318dc5b51eee0e1ba569b88cd74c1773b91fac106690201905092915050565b604051636eb1769f60e11b81523060048201526001600160a01b03838116602483015282919085169063dd62ed3e9060440160206040518083038186803b158015612fa857600080fd5b505afa158015612fbc573d6000803e3d6000fd5b505050506040513d601f19601f82011682018060405250810190612fe0919061374d565b10612fea57505050565b612d936001600160a01b03841683600019612ba9565b60008161300f57506000919050565b50600181600160801b81106130295760409190911b9060801c5b6801000000000000000081106130445760209190911b9060401c5b640100000000811061305b5760109190911b9060201c5b6201000081106130705760089190911b9060101c5b61010081106130845760049190911b9060081c5b601081106130975760029190911b9060041c5b600881106130a757600182901b91505b60018284816130c657634e487b7160e01b600052601260045260246000fd5b048301901c915060018284816130ec57634e487b7160e01b600052601260045260246000fd5b048301901c9150600182848161311257634e487b7160e01b600052601260045260246000fd5b048301901c9150600182848161313857634e487b7160e01b600052601260045260246000fd5b048301901c9150600182848161315e57634e487b7160e01b600052601260045260246000fd5b048301901c9150600182848161318457634e487b7160e01b600052601260045260246000fd5b048301901c915060018284816131aa57634e487b7160e01b600052601260045260246000fd5b048301901c915060008284816131d057634e487b7160e01b600052601260045260246000fd5b049050808310156131e157826131e3565b805b949350505050565b6000808060001985870985870292508281108382030391505080600014156132345783828161322a57634e487b7160e01b600052601260045260246000fd5b04925050506112fd565b83811061325e57604051631dcf306360e21b815260048101829052602481018590526044016111dc565b60008486880960026001871981018816978890046003810283188082028403028082028403028082028403028082028403028082028403029081029092039091026000889003889004909101858311909403939093029303949094049190911702949350505050565b6001600160a01b0382166132ee57604051630b5da42b60e01b815260040160405180910390fd5b6001600160a01b03821660009081526004602052604081208054839290613316908490613961565b92505081905550806003600082825461332f9190613961565b90915550506040518181526000906001600160a01b038416907fddf252ad1be2c89b69c2b068fc378daa952ba7f163c4a11628f55a4df523b3ef90602001612cda565b805161337d816139df565b919050565b80516dffffffffffffffffffffffffffff8116811461337d57600080fd5b805163ffffffff8116811461337d57600080fd5b6000602082840312156133c5578081fd5b81356112fd816139df565b6000602082840312156133e1578081fd5b81516112fd816139df565b600080604083850312156133fe578081fd5b8235613409816139df565b91506020830135613419816139df565b809150509250929050565b600080600060608486031215613438578081fd5b8335613443816139df565b92506020840135613453816139df565b929592945050506040919091013590565b60008060408385031215613476578182fd5b8235613481816139df565b946020939093013593505050565b600080600080606085870312156134a4578081fd5b84356134af816139df565b935060208501359250604085013567ffffffffffffffff808211156134d2578283fd5b818701915087601f8301126134e5578283fd5b8135818111156134f3578384fd5b886020828501011115613504578384fd5b95989497505060200194505050565b60008060008060008060008060006101208a8c031215613531578485fd5b895161353c816139df565b60208b01519099506bffffffffffffffffffffffff8116811461355d578586fd5b8098505060408a0151965060608a0151955060808a015167ffffffffffffffff81168114613589578586fd5b945061359760a08b01613372565b93506135a560c08b016133a0565b925060e08a015191506101008a015190509295985092959850929598565b600060208083850312156135d5578182fd5b825167ffffffffffffffff808211156135ec578384fd5b818501915085601f8301126135ff578384fd5b815181811115613611576136116139c9565b8060051b604051601f19603f83011681018181108582111715613636576136366139c9565b604052828152858101935084860182860187018a1015613654578788fd5b8795505b83861015613676578051855260019590950194938601938601613658565b5098975050505050505050565b600060208284031215613694578081fd5b815180151581146112fd578182fd5b600080600080608085870312156136b8578182fd5b84356136c3816139df565b935060208501356136d3816139df565b925060408501356136e3816139df565b9396929550929360600135925050565b600080600060608486031215613707578081fd5b61371084613382565b925061371e60208501613382565b915061372c604085016133a0565b90509250925092565b600060208284031215613746578081fd5b5035919050565b60006020828403121561375e578081fd5b5051919050565b60008060408385031215613777578182fd5b823591506020830135613419816139df565b60008060006060848603121561379d578081fd5b8335925060208401356137af816139df565b915060408401356137bf816139df565b809150509250925092565b600080604083850312156137dc578182fd5b505080516020909101519092909150565b60006001600160a01b038089168352876020840152808716604084015280861660608401525060a060808301528260a0830152828460c084013781830160c090810191909152601f909201601f1916010195945050505050565b6000602080835283518082850152825b8181101561387357858101830151858201604001528201613857565b818111156138845783604083870101525b50601f01601f1916929092016040019392505050565b600060a082018783526020878185015260a0604085015281875180845260c0860191508289019350845b818110156138e95784516001600160a01b0316835293830193918301916001016138c4565b50506001600160a01b03969096166060850152505050608001529392505050565b6000821982111561391d5761391d6139b3565b500190565b60008261393d57634e487b7160e01b81526012600452602481fd5b500490565b600081600019048311821515161561395c5761395c6139b3565b500290565b600082821015613973576139736139b3565b500390565b600181811c9082168061398c57607f821691505b602082108114156139ad57634e487b7160e01b600052602260045260246000fd5b50919050565b634e487b7160e01b600052601160045260246000fd5b634e487b7160e01b600052604160045260246000fd5b6001600160a01b038116811461295d57600080fdfea264697066735822122011621d2a1d490edfaef5ea1d6d0ae3553245ed6c1ba8006286d6d6bed918db1964736f6c63430008040033",
  "linkReferences": {},
  "deployedLinkReferences": {}
}