{
  "_format": "hh-sol-artifact-1",
  "contractName": "CygnusBorrowControl",
  "sourceName": "contracts/cygnus-core/CygnusBorrowControl.sol",
  "abi": [
    {
      "inputs": [],
      "stateMutability": "nonpayable",
      "type": "constructor"
    },
    {
      "inputs": [],
      "name": "CygnusBorrowControl__ParameterNotInRange",
      "type": "error"
    },
    {
      "inputs": [],
      "name": "CygnusTerminal__CantMintZeroShares",
      "type": "error"
    },
    {
      "inputs": [],
      "name": "CygnusTerminal__CantRedeemZeroAssets",
      "type": "error"
    },
    {
      "inputs": [],
      "name": "CygnusTerminal__CantSweepUnderlying",
      "type": "error"
    },
    {
      "inputs": [],
      "name": "CygnusTerminal__MsgSenderNotAdmin",
      "type": "error"
    },
    {
      "inputs": [
        {
          "internalType": "address",
          "name": "owner",
          "type": "address"
        },
        {
          "internalType": "uint8",
          "name": "v",
          "type": "uint8"
        },
        {
          "internalType": "bytes32",
          "name": "r",
          "type": "bytes32"
        },
        {
          "internalType": "bytes32",
          "name": "s",
          "type": "bytes32"
        }
      ],
      "name": "ERC20Permit_InvalidSignature",
      "type": "error"
    },
    {
      "inputs": [],
      "name": "ERC20Permit_OwnerZeroAddress",
      "type": "error"
    },
    {
      "inputs": [
        {
          "internalType": "uint256",
          "name": "currentTime",
          "type": "uint256"
        },
        {
          "internalType": "uint256",
          "name": "deadline",
          "type": "uint256"
        }
      ],
      "name": "ERC20Permit_PermitExpired",
      "type": "error"
    },
    {
      "inputs": [],
      "name": "ERC20Permit_RecoveredOwnerZeroAddress",
      "type": "error"
    },
    {
      "inputs": [],
      "name": "ERC20Permit_SpenderZeroAddress",
      "type": "error"
    },
    {
      "inputs": [],
      "name": "ERC20_ApproveOwnerZeroAddress",
      "type": "error"
    },
    {
      "inputs": [],
      "name": "ERC20_ApproveSpenderZeroAddress",
      "type": "error"
    },
    {
      "inputs": [],
      "name": "ERC20_BurnHolderZeroAddress",
      "type": "error"
    },
    {
      "inputs": [
        {
          "internalType": "uint256",
          "name": "senderBalance",
          "type": "uint256"
        },
        {
          "internalType": "uint256",
          "name": "transferAmount",
          "type": "uint256"
        }
      ],
      "name": "ERC20_FromInsufficientBalance",
      "type": "error"
    },
    {
      "inputs": [
        {
          "internalType": "address",
          "name": "owner",
          "type": "address"
        },
        {
          "internalType": "address",
          "name": "spender",
          "type": "address"
        },
        {
          "internalType": "uint256",
          "name": "allowance",
          "type": "uint256"
        },
        {
          "internalType": "uint256",
          "name": "transferAmount",
          "type": "uint256"
        }
      ],
      "name": "ERC20_InsufficientAllowance",
      "type": "error"
    },
    {
      "inputs": [],
      "name": "ERC20_MintBeneficiaryZeroAddress",
      "type": "error"
    },
    {
      "inputs": [],
      "name": "ERC20_TransferFromZeroAddress",
      "type": "error"
    },
    {
      "inputs": [],
      "name": "ERC20_TransferToZeroAddress",
      "type": "error"
    },
    {
      "inputs": [],
      "name": "ReentrantCall",
      "type": "error"
    },
    {
      "anonymous": false,
      "inputs": [
        {
          "indexed": true,
          "internalType": "address",
          "name": "owner",
          "type": "address"
        },
        {
          "indexed": true,
          "internalType": "address",
          "name": "spender",
          "type": "address"
        },
        {
          "indexed": false,
          "internalType": "uint256",
          "name": "value",
          "type": "uint256"
        }
      ],
      "name": "Approval",
      "type": "event"
    },
    {
      "anonymous": false,
      "inputs": [
        {
          "indexed": true,
          "internalType": "address",
          "name": "sender",
          "type": "address"
        },
        {
          "indexed": true,
          "internalType": "address",
          "name": "recipient",
          "type": "address"
        },
        {
          "indexed": false,
          "internalType": "uint256",
          "name": "assets",
          "type": "uint256"
        },
        {
          "indexed": false,
          "internalType": "uint256",
          "name": "shares",
          "type": "uint256"
        }
      ],
      "name": "Deposit",
      "type": "event"
    },
    {
      "anonymous": false,
      "inputs": [
        {
          "indexed": false,
          "internalType": "address",
          "name": "oldBorrowRewarder",
          "type": "address"
        },
        {
          "indexed": false,
          "internalType": "address",
          "name": "newBorrowRewarder",
          "type": "address"
        }
      ],
      "name": "NewCygnusBorrowRewarder",
      "type": "event"
    },
    {
      "anonymous": false,
      "inputs": [
        {
          "indexed": false,
          "internalType": "uint256",
          "name": "baseRatePerYear",
          "type": "uint256"
        },
        {
          "indexed": false,
          "internalType": "uint256",
          "name": "multiplierPerYear",
          "type": "uint256"
        },
        {
          "indexed": false,
          "internalType": "uint256",
          "name": "kinkMultiplier_",
          "type": "uint256"
        },
        {
          "indexed": false,
          "internalType": "uint256",
          "name": "kinkUtilizationRate_",
          "type": "uint256"
        }
      ],
      "name": "NewInterestRateParameters",
      "type": "event"
    },
    {
      "anonymous": false,
      "inputs": [
        {
          "indexed": false,
          "internalType": "uint256",
          "name": "oldReserveFactor",
          "type": "uint256"
        },
        {
          "indexed": false,
          "internalType": "uint256",
          "name": "newReserveFactor",
          "type": "uint256"
        }
      ],
      "name": "NewReserveFactor",
      "type": "event"
    },
    {
      "anonymous": false,
      "inputs": [
        {
          "indexed": false,
          "internalType": "uint160",
          "name": "totalBalance",
          "type": "uint160"
        }
      ],
      "name": "Sync",
      "type": "event"
    },
    {
      "anonymous": false,
      "inputs": [
        {
          "indexed": true,
          "internalType": "address",
          "name": "from",
          "type": "address"
        },
        {
          "indexed": true,
          "internalType": "address",
          "name": "to",
          "type": "address"
        },
        {
          "indexed": false,
          "internalType": "uint256",
          "name": "amount",
          "type": "uint256"
        }
      ],
      "name": "Transfer",
      "type": "event"
    },
    {
      "anonymous": false,
      "inputs": [
        {
          "indexed": true,
          "internalType": "address",
          "name": "sender",
          "type": "address"
        },
        {
          "indexed": true,
          "internalType": "address",
          "name": "recipient",
          "type": "address"
        },
        {
          "indexed": true,
          "internalType": "address",
          "name": "owner",
          "type": "address"
        },
        {
          "indexed": false,
          "internalType": "uint256",
          "name": "assets",
          "type": "uint256"
        },
        {
          "indexed": false,
          "internalType": "uint256",
          "name": "shares",
          "type": "uint256"
        }
      ],
      "name": "Withdraw",
      "type": "event"
    },
    {
      "inputs": [],
      "name": "DOMAIN_SEPARATOR",
      "outputs": [
        {
          "internalType": "bytes32",
          "name": "",
          "type": "bytes32"
        }
      ],
      "stateMutability": "view",
      "type": "function"
    },
    {
      "inputs": [],
      "name": "PERMIT2",
      "outputs": [
        {
          "internalType": "contract IAllowanceTransfer",
          "name": "",
          "type": "address"
        }
      ],
      "stateMutability": "view",
      "type": "function"
    },
    {
      "inputs": [],
      "name": "PERMIT_TYPEHASH",
      "outputs": [
        {
          "internalType": "bytes32",
          "name": "",
          "type": "bytes32"
        }
      ],
      "stateMutability": "view",
      "type": "function"
    },
    {
      "inputs": [
        {
          "internalType": "address",
          "name": "owner",
          "type": "address"
        },
        {
          "internalType": "address",
          "name": "spender",
          "type": "address"
        }
      ],
      "name": "allowance",
      "outputs": [
        {
          "internalType": "uint256",
          "name": "",
          "type": "uint256"
        }
      ],
      "stateMutability": "view",
      "type": "function"
    },
    {
      "inputs": [
        {
          "internalType": "address",
          "name": "spender",
          "type": "address"
        },
        {
          "internalType": "uint256",
          "name": "value",
          "type": "uint256"
        }
      ],
      "name": "approve",
      "outputs": [
        {
          "internalType": "bool",
          "name": "",
          "type": "bool"
        }
      ],
      "stateMutability": "nonpayable",
      "type": "function"
    },
    {
      "inputs": [
        {
          "internalType": "address",
          "name": "account",
          "type": "address"
        }
      ],
      "name": "balanceOf",
      "outputs": [
        {
          "internalType": "uint256",
          "name": "",
          "type": "uint256"
        }
      ],
      "stateMutability": "view",
      "type": "function"
    },
    {
      "inputs": [],
      "name": "baseRatePerSecond",
      "outputs": [
        {
          "internalType": "uint256",
          "name": "",
          "type": "uint256"
        }
      ],
      "stateMutability": "view",
      "type": "function"
    },
    {
      "inputs": [],
      "name": "collateral",
      "outputs": [
        {
          "internalType": "address",
          "name": "",
          "type": "address"
        }
      ],
      "stateMutability": "view",
      "type": "function"
    },
    {
      "inputs": [],
      "name": "cygnusBorrowRewarder",
      "outputs": [
        {
          "internalType": "address",
          "name": "",
          "type": "address"
        }
      ],
      "stateMutability": "view",
      "type": "function"
    },
    {
      "inputs": [],
      "name": "cygnusNebulaOracle",
      "outputs": [
        {
          "internalType": "contract ICygnusNebulaOracle",
          "name": "",
          "type": "address"
        }
      ],
      "stateMutability": "view",
      "type": "function"
    },
    {
      "inputs": [],
      "name": "decimals",
      "outputs": [
        {
          "internalType": "uint8",
          "name": "",
          "type": "uint8"
        }
      ],
      "stateMutability": "view",
      "type": "function"
    },
    {
      "inputs": [
        {
          "internalType": "address",
          "name": "spender",
          "type": "address"
        },
        {
          "internalType": "uint256",
          "name": "value",
          "type": "uint256"
        }
      ],
      "name": "decreaseAllowance",
      "outputs": [
        {
          "internalType": "bool",
          "name": "",
          "type": "bool"
        }
      ],
      "stateMutability": "nonpayable",
      "type": "function"
    },
    {
      "inputs": [
        {
          "internalType": "uint256",
          "name": "assets",
          "type": "uint256"
        },
        {
          "internalType": "address",
          "name": "recipient",
          "type": "address"
        },
        {
          "components": [
            {
              "components": [
                {
                  "internalType": "address",
                  "name": "token",
                  "type": "address"
                },
                {
                  "internalType": "uint160",
                  "name": "amount",
                  "type": "uint160"
                },
                {
                  "internalType": "uint48",
                  "name": "expiration",
                  "type": "uint48"
                },
                {
                  "internalType": "uint48",
                  "name": "nonce",
                  "type": "uint48"
                }
              ],
              "internalType": "struct IAllowanceTransfer.PermitDetails",
              "name": "details",
              "type": "tuple"
            },
            {
              "internalType": "address",
              "name": "spender",
              "type": "address"
            },
            {
              "internalType": "uint256",
              "name": "sigDeadline",
              "type": "uint256"
            }
          ],
          "internalType": "struct IAllowanceTransfer.PermitSingle",
          "name": "_permit",
          "type": "tuple"
        },
        {
          "internalType": "bytes",
          "name": "signature",
          "type": "bytes"
        }
      ],
      "name": "deposit",
      "outputs": [
        {
          "internalType": "uint256",
          "name": "shares",
          "type": "uint256"
        }
      ],
      "stateMutability": "nonpayable",
      "type": "function"
    },
    {
      "inputs": [],
      "name": "exchangeRate",
      "outputs": [
        {
          "internalType": "uint256",
          "name": "",
          "type": "uint256"
        }
      ],
      "stateMutability": "nonpayable",
      "type": "function"
    },
    {
      "inputs": [],
      "name": "exchangeRateStored",
      "outputs": [
        {
          "internalType": "uint256",
          "name": "",
          "type": "uint256"
        }
      ],
      "stateMutability": "view",
      "type": "function"
    },
    {
      "inputs": [],
      "name": "hangar18",
      "outputs": [
        {
          "internalType": "contract IHangar18",
          "name": "",
          "type": "address"
        }
      ],
      "stateMutability": "view",
      "type": "function"
    },
    {
      "inputs": [
        {
          "internalType": "address",
          "name": "spender",
          "type": "address"
        },
        {
          "internalType": "uint256",
          "name": "value",
          "type": "uint256"
        }
      ],
      "name": "increaseAllowance",
      "outputs": [
        {
          "internalType": "bool",
          "name": "",
          "type": "bool"
        }
      ],
      "stateMutability": "nonpayable",
      "type": "function"
    },
    {
      "inputs": [],
      "name": "jumpMultiplierPerSecond",
      "outputs": [
        {
          "internalType": "uint256",
          "name": "",
          "type": "uint256"
        }
      ],
      "stateMutability": "view",
      "type": "function"
    },
    {
      "inputs": [],
      "name": "kinkMultiplier",
      "outputs": [
        {
          "internalType": "uint256",
          "name": "",
          "type": "uint256"
        }
      ],
      "stateMutability": "view",
      "type": "function"
    },
    {
      "inputs": [],
      "name": "kinkUtilizationRate",
      "outputs": [
        {
          "internalType": "uint256",
          "name": "",
          "type": "uint256"
        }
      ],
      "stateMutability": "view",
      "type": "function"
    },
    {
      "inputs": [],
      "name": "multiplierPerSecond",
      "outputs": [
        {
          "internalType": "uint256",
          "name": "",
          "type": "uint256"
        }
      ],
      "stateMutability": "view",
      "type": "function"
    },
    {
      "inputs": [],
      "name": "name",
      "outputs": [
        {
          "internalType": "string",
          "name": "",
          "type": "string"
        }
      ],
      "stateMutability": "view",
      "type": "function"
    },
    {
      "inputs": [
        {
          "internalType": "address",
          "name": "",
          "type": "address"
        }
      ],
      "name": "nonces",
      "outputs": [
        {
          "internalType": "uint256",
          "name": "",
          "type": "uint256"
        }
      ],
      "stateMutability": "view",
      "type": "function"
    },
    {
      "inputs": [
        {
          "internalType": "address",
          "name": "owner",
          "type": "address"
        },
        {
          "internalType": "address",
          "name": "spender",
          "type": "address"
        },
        {
          "internalType": "uint256",
          "name": "value",
          "type": "uint256"
        },
        {
          "internalType": "uint256",
          "name": "deadline",
          "type": "uint256"
        },
        {
          "internalType": "uint8",
          "name": "v",
          "type": "uint8"
        },
        {
          "internalType": "bytes32",
          "name": "r",
          "type": "bytes32"
        },
        {
          "internalType": "bytes32",
          "name": "s",
          "type": "bytes32"
        }
      ],
      "name": "permit",
      "outputs": [],
      "stateMutability": "nonpayable",
      "type": "function"
    },
    {
      "inputs": [
        {
          "internalType": "uint256",
          "name": "shares",
          "type": "uint256"
        },
        {
          "internalType": "address",
          "name": "recipient",
          "type": "address"
        },
        {
          "internalType": "address",
          "name": "owner",
          "type": "address"
        }
      ],
      "name": "redeem",
      "outputs": [
        {
          "internalType": "uint256",
          "name": "assets",
          "type": "uint256"
        }
      ],
      "stateMutability": "nonpayable",
      "type": "function"
    },
    {
      "inputs": [],
      "name": "reserveFactor",
      "outputs": [
        {
          "internalType": "uint256",
          "name": "",
          "type": "uint256"
        }
      ],
      "stateMutability": "view",
      "type": "function"
    },
    {
      "inputs": [
        {
          "internalType": "address",
          "name": "newBorrowRewarder",
          "type": "address"
        }
      ],
      "name": "setCygnusBorrowRewarder",
      "outputs": [],
      "stateMutability": "nonpayable",
      "type": "function"
    },
    {
      "inputs": [
        {
          "internalType": "uint256",
          "name": "baseRatePerYear_",
          "type": "uint256"
        },
        {
          "internalType": "uint256",
          "name": "multiplierPerYear_",
          "type": "uint256"
        },
        {
          "internalType": "uint256",
          "name": "kinkMultiplier_",
          "type": "uint256"
        },
        {
          "internalType": "uint256",
          "name": "kinkUtilizationRate_",
          "type": "uint256"
        }
      ],
      "name": "setInterestRateModel",
      "outputs": [],
      "stateMutability": "nonpayable",
      "type": "function"
    },
    {
      "inputs": [
        {
          "internalType": "uint256",
          "name": "newReserveFactor",
          "type": "uint256"
        }
      ],
      "name": "setReserveFactor",
      "outputs": [],
      "stateMutability": "nonpayable",
      "type": "function"
    },
    {
      "inputs": [],
      "name": "shuttleId",
      "outputs": [
        {
          "internalType": "uint256",
          "name": "",
          "type": "uint256"
        }
      ],
      "stateMutability": "view",
      "type": "function"
    },
    {
      "inputs": [
        {
          "internalType": "address",
          "name": "token",
          "type": "address"
        }
      ],
      "name": "sweepToken",
      "outputs": [],
      "stateMutability": "nonpayable",
      "type": "function"
    },
    {
      "inputs": [],
      "name": "symbol",
      "outputs": [
        {
          "internalType": "string",
          "name": "",
          "type": "string"
        }
      ],
      "stateMutability": "view",
      "type": "function"
    },
    {
      "inputs": [],
      "name": "totalBalance",
      "outputs": [
        {
          "internalType": "uint160",
          "name": "",
          "type": "uint160"
        }
      ],
      "stateMutability": "view",
      "type": "function"
    },
    {
      "inputs": [],
      "name": "totalSupply",
      "outputs": [
        {
          "internalType": "uint256",
          "name": "",
          "type": "uint256"
        }
      ],
      "stateMutability": "view",
      "type": "function"
    },
    {
      "inputs": [
        {
          "internalType": "address",
          "name": "to",
          "type": "address"
        },
        {
          "internalType": "uint256",
          "name": "amount",
          "type": "uint256"
        }
      ],
      "name": "transfer",
      "outputs": [
        {
          "internalType": "bool",
          "name": "",
          "type": "bool"
        }
      ],
      "stateMutability": "nonpayable",
      "type": "function"
    },
    {
      "inputs": [
        {
          "internalType": "address",
          "name": "from",
          "type": "address"
        },
        {
          "internalType": "address",
          "name": "to",
          "type": "address"
        },
        {
          "internalType": "uint256",
          "name": "amount",
          "type": "uint256"
        }
      ],
      "name": "transferFrom",
      "outputs": [
        {
          "internalType": "bool",
          "name": "",
          "type": "bool"
        }
      ],
      "stateMutability": "nonpayable",
      "type": "function"
    },
    {
      "inputs": [],
      "name": "underlying",
      "outputs": [
        {
          "internalType": "address",
          "name": "",
          "type": "address"
        }
      ],
      "stateMutability": "view",
      "type": "function"
    },
    {
      "inputs": [],
      "name": "version",
      "outputs": [
        {
          "internalType": "string",
          "name": "",
          "type": "string"
        }
      ],
      "stateMutability": "view",
      "type": "function"
    }
  ],
  "bytecode": "0x610140604052670bcbce7f1b150000600c556002600d55670214e8348c4f0000600e55670de0b6b3a7640000600f553480156200003b57600080fd5b5060405146907f8b73c3c69bb8fe3d512ecc4cf759cc79239f7b179b0ffacaa9a75d522b39400f90620000719060009062000390565b60408051918290038220828201825260018352603160f81b6020938401528151928301939093528101919091527fc89efdaa54c0f20c7adf612882df0950f5a951637e0307cdcb4c672f298b8bc66060820152608081018290523060a082015260c00160408051601f1981840301815282825280516020909101206080526007805460ff19166001179055635a412e5360e01b825251339250635a412e539160048082019260a09290919082900301816000875af115801562000138573d6000803e3d6000fd5b505050506040513d601f19601f820116820180604052508101906200015e919062000427565b610100526001600160a01b0390811660c05291821660e052501660a090815260408051635a412e5360e01b8152905160009283923392635a412e5392600480840193919291829003018187875af1158015620001be573d6000803e3d6000fd5b505050506040513d601f19601f82011682018060405250810190620001e4919062000427565b50509250925050604051806040016040528060128152602001714379676e75733a20426f72726f7761626c6560701b8152506000908162000226919062000504565b50816001600160a01b03166395d89b416040518163ffffffff1660e01b8152600401600060405180830381865afa15801562000266573d6000803e3d6000fd5b505050506040513d6000823e601f3d908101601f19168201604052620002909190810190620005f6565b604051602001620002a29190620006ae565b60405160208183030381529060405260019081620002c1919062000504565b50816001600160a01b031663313ce5676040518163ffffffff1660e01b8152600401602060405180830381865afa15801562000301573d6000803e3d6000fd5b505050506040513d601f19601f82011682018060405250810190620003279190620006e0565b6002805460ff191660ff929092169190911790556001600160a01b0316610120525060006003556200070c565b600181811c908216806200036957607f821691505b6020821081036200038a57634e487b7160e01b600052602260045260246000fd5b50919050565b6000808354620003a08162000354565b60018281168015620003bb5760018114620003d15762000402565b60ff198416875282151583028701945062000402565b8760005260208060002060005b85811015620003f95781548a820152908401908201620003de565b50505082870194505b50929695505050505050565b6001600160a01b03811681146200042457600080fd5b50565b600080600080600060a086880312156200044057600080fd5b85516200044d816200040e565b602087015190955062000460816200040e565b604087015190945062000473816200040e565b606087015190935062000486816200040e565b80925050608086015190509295509295909350565b634e487b7160e01b600052604160045260246000fd5b601f821115620004ff57600081815260208120601f850160051c81016020861015620004da5750805b601f850160051c820191505b81811015620004fb57828155600101620004e6565b5050505b505050565b81516001600160401b038111156200052057620005206200049b565b620005388162000531845462000354565b84620004b1565b602080601f831160018114620005705760008415620005575750858301515b600019600386901b1c1916600185901b178555620004fb565b600085815260208120601f198616915b82811015620005a15788860151825594840194600190910190840162000580565b5085821015620005c05787850151600019600388901b60f8161c191681555b5050505050600190811b01905550565b60005b83811015620005ed578181015183820152602001620005d3565b50506000910152565b6000602082840312156200060957600080fd5b81516001600160401b03808211156200062157600080fd5b818401915084601f8301126200063657600080fd5b8151818111156200064b576200064b6200049b565b604051601f8201601f19908116603f011681019083821181831017156200067657620006766200049b565b816040528281528760208487010111156200069057600080fd5b620006a3836020830160208801620005d0565b979650505050505050565b67021bcb3aaa9a21d160c51b815260008251620006d3816008850160208701620005d0565b9190910160080192915050565b600060208284031215620006f357600080fd5b815160ff811681146200070557600080fd5b9392505050565b60805160a05160c05160e0516101005161012051611c6f62000786600039600061058a015260006104210152600081816104760152818161071801528181610abf01528181610d300152611481015260006105ba01526000818161061a015261111401526000818161039a0152610ecd0152611c6f6000f3fe608060405234801561001057600080fd5b50600436106102925760003560e01c80636afdd85011610160578063a9059cbb116100d8578063d8dfeb451161008c578063d935bd9211610071578063d935bd92146105b5578063dd62ed3e146105dc578063e8a24e1d1461061557600080fd5b8063d8dfeb4514610585578063d90e0264146105ac57600080fd5b8063ad7a672f116100bd578063ad7a672f14610547578063ba0876521461055f578063d505accf1461057257600080fd5b8063a9059cbb14610521578063ad168c9d1461053457600080fd5b80637ecebe001161012f57806395d89b411161011457806395d89b41146104fd5780639b51099814610505578063a457c2d71461050e57600080fd5b80637ecebe00146104ca5780638808e71c146104ea57600080fd5b80636afdd850146104435780636f307dc31461047157806370a082311461049857806372cf84a7146104c157600080fd5b806330adf81f1161020e57806342bf78af116101c257806346f608ff116101a757806346f608ff146103f357806354fd4d50146103fc5780635f77f8911461041c57600080fd5b806342bf78af146103d75780634322b714146103ea57600080fd5b80633644e515116101f35780633644e5151461039557806339509351146103bc5780633ba0b9a9146103cf57600080fd5b806330adf81f1461034f578063313ce5671461037657600080fd5b80631aebf12f116102655780631c4469831161024a5780631c446983146103165780631e44b7fc1461032957806323b872dd1461033c57600080fd5b80631aebf12f146102f85780631be195601461030157600080fd5b806306fdde0314610297578063095ea7b3146102b557806318160ddd146102d8578063182df0f5146102ef575b600080fd5b61029f61063c565b6040516102ac91906117a7565b60405180910390f35b6102c86102c336600461180a565b6106ca565b60405190151581526020016102ac565b6102e160035481565b6040519081526020016102ac565b6102e1600f5481565b6102e1600c5481565b61031461030f366004611836565b6106e1565b005b610314610324366004611853565b61079a565b61031461033736600461186c565b6107fc565b6102c861034a36600461189e565b610816565b6102e17f6e71edae12b1b97f4d1f60370fef10105fa2faae0126114a169c64845d6126c981565b6002546103839060ff1681565b60405160ff90911681526020016102ac565b6102e17f000000000000000000000000000000000000000000000000000000000000000081565b6102c86103ca36600461180a565b6108a7565b6102e16108ef565b6103146103e5366004611836565b61092b565b6102e1600e5481565b6102e1600a5481565b61029f604051806040016040528060018152602001603160f81b81525081565b6102e17f000000000000000000000000000000000000000000000000000000000000000081565b6104596e22d473030f116ddee9f6b43ac78ba381565b6040516001600160a01b0390911681526020016102ac565b6104597f000000000000000000000000000000000000000000000000000000000000000081565b6102e16104a6366004611836565b6001600160a01b031660009081526005602052604090205490565b6102e1600b5481565b6102e16104d8366004611836565b60066020526000908152604090205481565b6102e16104f83660046118df565b6109a5565b61029f610bfb565b6102e1600d5481565b6102c861051c36600461180a565b610c08565b6102c861052f36600461180a565b610c39565b600854610459906001600160a01b031681565b6007546104599061010090046001600160a01b031681565b6102e161056d36600461198a565b610c46565b6103146105803660046119cc565b610dbe565b6104597f000000000000000000000000000000000000000000000000000000000000000081565b6102e160095481565b6104597f000000000000000000000000000000000000000000000000000000000000000081565b6102e16105ea366004611a43565b6001600160a01b03918216600090815260046020908152604080832093909416825291909152205490565b6104597f000000000000000000000000000000000000000000000000000000000000000081565b6000805461064990611a7c565b80601f016020809104026020016040519081016040528092919081815260200182805461067590611a7c565b80156106c25780601f10610697576101008083540402835291602001916106c2565b820191906000526020600020905b8154815290600101906020018083116106a557829003601f168201915b505050505081565b60006106d7338484611061565b5060015b92915050565b60075460ff16610704576040516306fda65d60e31b815260040160405180910390fd5b6007805460ff19169055610716611110565b7f00000000000000000000000000000000000000000000000000000000000000006001600160a01b0316816001600160a01b0316036107685760405163b5d8f39160e01b815260040160405180910390fd5b6000610773826111c2565b90506107896001600160a01b03831633836111d7565b50506007805460ff19166001179055565b6107a2611110565b6107b660006702c68af0bb14000083611226565b600e80549082905560408051828152602081018490527faaa68312e2ea9d50e16af5068410ab56e1a1fd06037b1a35664812c30f82146091015b60405180910390a15050565b610804611110565b61081084848484611256565b50505050565b6001600160a01b03831660009081526004602090815260408083203380855292528220548381101561088157604051636497133b60e11b81526001600160a01b0380881660048301528316602482015260448101829052606481018590526084015b60405180910390fd5b61088e8683868403611061565b61089986868661132c565b6001925050505b9392505050565b3360009081526004602090815260408083206001600160a01b038616845290915281205481906108d8908490611acc565b90506108e5338583611061565b5060019392505050565b600354600090801561091b576007546109169061010090046001600160a01b03168261142b565b610925565b670de0b6b3a76400005b91505090565b610933611110565b600880546001600160a01b038381167fffffffffffffffffffffffff000000000000000000000000000000000000000083168117909355604080519190921680825260208201939093527f2a0d5dc7fbc8045f59cb33c736f04f9a9b565e9f425912f9cd2bafdebd50cead91016107f0565b60075460009060ff166109cb576040516306fda65d60e31b815260040160405180910390fd5b6007805460ff1916905560006109df61147a565b90508215610a52576040516302b67b5760e41b81526e22d473030f116ddee9f6b43ac78ba390632b67b57090610a1f903390899089908990600401611b23565b600060405180830381600087803b158015610a3957600080fd5b505af1158015610a4d573d6000803e3d6000fd5b505050505b6e22d473030f116ddee9f6b43ac78ba36336c785163330610a728b6114aa565b60405160e085901b7fffffffff000000000000000000000000000000000000000000000000000000001681526001600160a01b0393841660048201529183166024830152821660448201527f00000000000000000000000000000000000000000000000000000000000000009091166064820152608401600060405180830381600087803b158015610b0357600080fd5b505af1158015610b17573d6000803e3d6000fd5b505050506000610b2561147a565b9050610b42610b326108ef565b610b3c8484611bd0565b9061142b565b925082600003610b655760405163f1ca48b160e01b815260040160405180910390fd5b600354600003610b8b57610b7b6103e884611bd0565b9250610b8b61dead6103e86114d4565b610b9587846114d4565b60408051898152602081018590526001600160a01b0389169133917fdcbc1c05240f31ff3ad067ef1ee35ce4997762752e3a095284754544f4c709d7910160405180910390a35050610be5611567565b6007805460ff1916600117905595945050505050565b6001805461064990611a7c565b3360009081526004602090815260408083206001600160a01b038616845290915281205481906108d8908490611bd0565b60006106d733848461132c565b60075460009060ff16610c6c576040516306fda65d60e31b815260040160405180910390fd5b6007805460ff19169055336001600160a01b03831614610ce4576001600160a01b03821660009081526004602090815260408083203384529091529020546000198114610ce257610cbd8582611bd0565b6001600160a01b03841660009081526004602090815260408083203384529091529020555b505b610cf6610cef6108ef565b85906115ec565b905060008111610d195760405163e3e8d29760e01b815260040160405180910390fd5b610d23828561161a565b610d576001600160a01b037f00000000000000000000000000000000000000000000000000000000000000001684836111d7565b60408051828152602081018690526001600160a01b03808516929086169133917ffbde797d201c681b91056529119e0b02407c7bb96a4a2c75c01fc9667232c8db910160405180910390a4610daa611567565b6007805460ff191660011790559392505050565b6001600160a01b038716610de5576040516337adc3e960e11b815260040160405180910390fd5b6001600160a01b038616610e0c57604051637b4813dd60e01b815260040160405180910390fd5b42841015610e3657604051633288645960e01b815242600482015260248101859052604401610878565b6001600160a01b0387811660008181526006602090815260408083208054600180820190925582517f6e71edae12b1b97f4d1f60370fef10105fa2faae0126114a169c64845d6126c98186015280840196909652958c166060860152608085018b905260a085019590955260c08085018a90528151808603909101815260e08501825280519083012061190160f01b6101008601527f000000000000000000000000000000000000000000000000000000000000000061010286015261012280860182905282518087039091018152610142860180845281519185019190912090859052610162860180845281905260ff8a166101828701526101a286018990526101c2860188905291519095919491926101e2808401939192601f1981019281900390910190855afa158015610f71573d6000803e3d6000fd5b5050604051601f1901519150506001600160a01b038116610fa55760405163d147d0e360e01b815260040160405180910390fd5b896001600160a01b0316816001600160a01b031614610ff957604051633460790b60e01b81526001600160a01b038b16600482015260ff871660248201526044810186905260648101859052608401610878565b6001600160a01b038a81166000818152600460209081526040808320948e16808452948252918290208c905590518b81527f8c5be1e5ebec7d5bd14f71427d1e84f3dd0314c0f7b2291e5b200ac8c7c3b925910160405180910390a350505050505050505050565b6001600160a01b0383166110885760405163231b1a1d60e21b815260040160405180910390fd5b6001600160a01b0382166110af57604051632b6990d760e21b815260040160405180910390fd5b6001600160a01b0383811660008181526004602090815260408083209487168084529482529182902085905590518481527f8c5be1e5ebec7d5bd14f71427d1e84f3dd0314c0f7b2291e5b200ac8c7c3b925910160405180910390a3505050565b60007f00000000000000000000000000000000000000000000000000000000000000006001600160a01b031663f851a4406040518163ffffffff1660e01b8152600401602060405180830381865afa158015611170573d6000803e3d6000fd5b505050506040513d601f19601f820116820180604052508101906111949190611be3565b9050336001600160a01b038216146111bf576040516331d63ad160e11b815260040160405180910390fd5b50565b60006106db6001600160a01b038316306116b5565b81601452806034526fa9059cbb00000000000000000000000060005260206000604460106000875af13d15600160005114171661121c576390b8ec186000526004601cfd5b6000603452505050565b8281108061123357508181115b1561125157604051630e49b3b360e41b815260040160405180910390fd5b505050565b61126a600067016345785d8a000086611226565b6112856706f05b59d3b20000670d2f13f7789f000083611226565b6112926001600a84611226565b6112a06301e1338085611c00565b6009556112bb6112b4826301e13380611c22565b849061142b565b600a55600d829055600c8190556112db81610b3c85856301e133806116ea565b600b556040805185815260208101859052908101839052606081018290527ff58b8cc439edada25fd9495b7364aeb1d737dbef59be1cf62e0cc4001c44a3cd9060800160405180910390a150505050565b6001600160a01b03831661135357604051636fbb781760e01b815260040160405180910390fd5b6001600160a01b038216611379576040516261696b60e71b815260040160405180910390fd5b6001600160a01b038316600090815260056020526040902054818110156113bd5760405163430cf54960e11b81526004810182905260248101839052604401610878565b6001600160a01b0380851660008181526005602052604080822086860390559286168082529083902080548601905591517fddf252ad1be2c89b69c2b068fc378daa952ba7f163c4a11628f55a4df523b3ef9061141d9086815260200190565b60405180910390a350505050565b60007812725dd1d243aba0e75fe645cc4873f9e65afe688c928e1f218311670de0b6b3a76400000215820261146857637c5f487d6000526004601cfd5b50670de0b6b3a7640000919091020490565b60006114a57f00000000000000000000000000000000000000000000000000000000000000006111c2565b905090565b60007401000000000000000000000000000000000000000082106114d0576114d0611799565b5090565b6001600160a01b0382166114fb5760405163df3dc1c960e01b815260040160405180910390fd5b806003600082825461150d9190611acc565b90915550506001600160a01b0382166000818152600560209081526040808320805486019055518481527fddf252ad1be2c89b69c2b068fc378daa952ba7f163c4a11628f55a4df523b3ef91015b60405180910390a35050565b600061157161147a565b90507f3145c2b643834867f2c0a8cac8a48218307687911615c0ed01412a09dd163b6661159d826114aa565b600780547fffffffffffffffffffffff0000000000000000000000000000000000000000ff166101006001600160a01b039390931692830217905560405190815260200160405180910390a150565b60008160001904831182021561160a5763bac65e5b6000526004601cfd5b50670de0b6b3a764000091020490565b6001600160a01b03821661164157604051633eedce0760e01b815260040160405180910390fd5b6001600160a01b03821660009081526005602052604081208054839290611669908490611bd0565b90915550506003805482900390556040518181526000906001600160a01b038416907fddf252ad1be2c89b69c2b068fc378daa952ba7f163c4a11628f55a4df523b3ef9060200161155b565b6000816014526f70a0823100000000000000000000000060005260208060246010865afa601f3d111660205102905092915050565b6000838302600019848609818110820190038061171f57836117145763ae47f7026000526004601cfd5b5082900490506108a0565b8084116117345763ae47f7026000526004601cfd5b838587096000858103861695869004956003870260029081188089028203028089028203028089028203028089028203028089028203028089029091030291819003819004600101858411909403939093029190930391909104170290509392505050565b6335278d126000526004601cfd5b600060208083528351808285015260005b818110156117d4578581018301518582016040015282016117b8565b506000604082860101526040601f19601f8301168501019250505092915050565b6001600160a01b03811681146111bf57600080fd5b6000806040838503121561181d57600080fd5b8235611828816117f5565b946020939093013593505050565b60006020828403121561184857600080fd5b81356108a0816117f5565b60006020828403121561186557600080fd5b5035919050565b6000806000806080858703121561188257600080fd5b5050823594602084013594506040840135936060013592509050565b6000806000606084860312156118b357600080fd5b83356118be816117f5565b925060208401356118ce816117f5565b929592945050506040919091013590565b60008060008060008587036101208112156118f957600080fd5b86359550602087013561190b816117f5565b945060c0603f198201121561191f57600080fd5b5060408601925061010086013567ffffffffffffffff8082111561194257600080fd5b818801915088601f83011261195657600080fd5b81358181111561196557600080fd5b89602082850101111561197757600080fd5b9699959850939650602001949392505050565b60008060006060848603121561199f57600080fd5b8335925060208401356119b1816117f5565b915060408401356119c1816117f5565b809150509250925092565b600080600080600080600060e0888a0312156119e757600080fd5b87356119f2816117f5565b96506020880135611a02816117f5565b95506040880135945060608801359350608088013560ff81168114611a2657600080fd5b9699959850939692959460a0840135945060c09093013592915050565b60008060408385031215611a5657600080fd5b8235611a61816117f5565b91506020830135611a71816117f5565b809150509250929050565b600181811c90821680611a9057607f821691505b602082108103611ab057634e487b7160e01b600052602260045260246000fd5b50919050565b634e487b7160e01b600052601160045260246000fd5b808201808211156106db576106db611ab6565b803565ffffffffffff81168114611af557600080fd5b919050565b81835281816020850137506000828201602090810191909152601f909101601f19169091010190565b60006101006001600160a01b0380881684528635611b40816117f5565b8181166020860152506020870135611b57816117f5565b818116604086015250611b6c60408801611adf565b65ffffffffffff808216606087015280611b8860608b01611adf565b16608087015250506080870135611b9e816117f5565b81811660a0860152505060a086013560c08401528060e0840152611bc58184018587611afa565b979650505050505050565b818103818111156106db576106db611ab6565b600060208284031215611bf557600080fd5b81516108a0816117f5565b600082611c1d57634e487b7160e01b600052601260045260246000fd5b500490565b80820281158282048414176106db576106db611ab656fea2646970667358221220423252fcee4fea0a02829bf1eb02cff109494e33c997ae6aa1eb8f2124db481764736f6c63430008110033",
  "linkReferences": {},
  "deployedLinkReferences": {}
}