{
  "_format": "hh-sol-artifact-1",
  "contractName": "CygnusBorrowControl",
  "sourceName": "contracts/cygnus-core/CygnusBorrowControl.sol",
  "abi": [
    {
      "inputs": [],
      "stateMutability": "nonpayable",
      "type": "constructor"
    },
    {
      "inputs": [
        {
          "internalType": "uint256",
          "name": "min",
          "type": "uint256"
        },
        {
          "internalType": "uint256",
          "name": "max",
          "type": "uint256"
        },
        {
          "internalType": "uint256",
          "name": "value",
          "type": "uint256"
        }
      ],
      "name": "CygnusBorrowControl__ParameterNotInRange",
      "type": "error"
    },
    {
      "inputs": [],
      "name": "CygnusTerminal__CantMintZeroShares",
      "type": "error"
    },
    {
      "inputs": [],
      "name": "CygnusTerminal__CantRedeemZeroAssets",
      "type": "error"
    },
    {
      "inputs": [
        {
          "internalType": "address",
          "name": "token",
          "type": "address"
        },
        {
          "internalType": "address",
          "name": "underlying",
          "type": "address"
        }
      ],
      "name": "CygnusTerminal__CantSweepUnderlying",
      "type": "error"
    },
    {
      "inputs": [
        {
          "internalType": "address",
          "name": "sender",
          "type": "address"
        },
        {
          "internalType": "address",
          "name": "admin",
          "type": "address"
        }
      ],
      "name": "CygnusTerminal__MsgSenderNotAdmin",
      "type": "error"
    },
    {
      "inputs": [
        {
          "internalType": "address",
          "name": "owner",
          "type": "address"
        },
        {
          "internalType": "uint8",
          "name": "v",
          "type": "uint8"
        },
        {
          "internalType": "bytes32",
          "name": "r",
          "type": "bytes32"
        },
        {
          "internalType": "bytes32",
          "name": "s",
          "type": "bytes32"
        }
      ],
      "name": "ERC20Permit__InvalidSignature",
      "type": "error"
    },
    {
      "inputs": [],
      "name": "ERC20Permit__OwnerZeroAddress",
      "type": "error"
    },
    {
      "inputs": [
        {
          "internalType": "uint256",
          "name": "currentTime",
          "type": "uint256"
        },
        {
          "internalType": "uint256",
          "name": "deadline",
          "type": "uint256"
        }
      ],
      "name": "ERC20Permit__PermitExpired",
      "type": "error"
    },
    {
      "inputs": [],
      "name": "ERC20Permit__RecoveredOwnerZeroAddress",
      "type": "error"
    },
    {
      "inputs": [],
      "name": "ERC20Permit__SpenderZeroAddress",
      "type": "error"
    },
    {
      "inputs": [],
      "name": "ERC20__ApproveOwnerZeroAddress",
      "type": "error"
    },
    {
      "inputs": [],
      "name": "ERC20__ApproveSpenderZeroAddress",
      "type": "error"
    },
    {
      "inputs": [
        {
          "internalType": "uint256",
          "name": "accountBalance",
          "type": "uint256"
        },
        {
          "internalType": "uint256",
          "name": "burnAmount",
          "type": "uint256"
        }
      ],
      "name": "ERC20__BurnUnderflow",
      "type": "error"
    },
    {
      "inputs": [],
      "name": "ERC20__BurnZeroAddress",
      "type": "error"
    },
    {
      "inputs": [
        {
          "internalType": "uint256",
          "name": "allowance",
          "type": "uint256"
        },
        {
          "internalType": "uint256",
          "name": "amount",
          "type": "uint256"
        }
      ],
      "name": "ERC20__InsufficientAllowance",
      "type": "error"
    },
    {
      "inputs": [
        {
          "internalType": "uint256",
          "name": "senderBalance",
          "type": "uint256"
        },
        {
          "internalType": "uint256",
          "name": "amount",
          "type": "uint256"
        }
      ],
      "name": "ERC20__InsufficientBalance",
      "type": "error"
    },
    {
      "inputs": [],
      "name": "ERC20__MintZeroAddress",
      "type": "error"
    },
    {
      "inputs": [],
      "name": "ERC20__TransferRecipientZeroAddress",
      "type": "error"
    },
    {
      "inputs": [],
      "name": "ERC20__TransferSenderZeroAddress",
      "type": "error"
    },
    {
      "inputs": [],
      "name": "ReentrantCall",
      "type": "error"
    },
    {
      "anonymous": false,
      "inputs": [
        {
          "indexed": true,
          "internalType": "address",
          "name": "owner",
          "type": "address"
        },
        {
          "indexed": true,
          "internalType": "address",
          "name": "spender",
          "type": "address"
        },
        {
          "indexed": false,
          "internalType": "uint256",
          "name": "amount",
          "type": "uint256"
        }
      ],
      "name": "Approval",
      "type": "event"
    },
    {
      "anonymous": false,
      "inputs": [
        {
          "indexed": true,
          "internalType": "address",
          "name": "sender",
          "type": "address"
        },
        {
          "indexed": true,
          "internalType": "address",
          "name": "recipient",
          "type": "address"
        },
        {
          "indexed": false,
          "internalType": "uint256",
          "name": "assets",
          "type": "uint256"
        },
        {
          "indexed": false,
          "internalType": "uint256",
          "name": "shares",
          "type": "uint256"
        }
      ],
      "name": "Deposit",
      "type": "event"
    },
    {
      "anonymous": false,
      "inputs": [
        {
          "indexed": false,
          "internalType": "address",
          "name": "oldBorrowRewarder",
          "type": "address"
        },
        {
          "indexed": false,
          "internalType": "address",
          "name": "newBorrowRewarder",
          "type": "address"
        }
      ],
      "name": "NewCygnusBorrowRewarder",
      "type": "event"
    },
    {
      "anonymous": false,
      "inputs": [
        {
          "indexed": false,
          "internalType": "uint256",
          "name": "baseRatePerYear",
          "type": "uint256"
        },
        {
          "indexed": false,
          "internalType": "uint256",
          "name": "multiplierPerYear",
          "type": "uint256"
        },
        {
          "indexed": false,
          "internalType": "uint256",
          "name": "kinkMultiplier_",
          "type": "uint256"
        },
        {
          "indexed": false,
          "internalType": "uint256",
          "name": "kinkUtilizationRate_",
          "type": "uint256"
        }
      ],
      "name": "NewInterestRateParameters",
      "type": "event"
    },
    {
      "anonymous": false,
      "inputs": [
        {
          "indexed": false,
          "internalType": "uint256",
          "name": "oldReserveFactor",
          "type": "uint256"
        },
        {
          "indexed": false,
          "internalType": "uint256",
          "name": "newReserveFactor",
          "type": "uint256"
        }
      ],
      "name": "NewReserveFactor",
      "type": "event"
    },
    {
      "anonymous": false,
      "inputs": [
        {
          "indexed": false,
          "internalType": "uint256",
          "name": "totalBalance",
          "type": "uint256"
        }
      ],
      "name": "Sync",
      "type": "event"
    },
    {
      "anonymous": false,
      "inputs": [
        {
          "indexed": true,
          "internalType": "address",
          "name": "from",
          "type": "address"
        },
        {
          "indexed": true,
          "internalType": "address",
          "name": "to",
          "type": "address"
        },
        {
          "indexed": false,
          "internalType": "uint256",
          "name": "amount",
          "type": "uint256"
        }
      ],
      "name": "Transfer",
      "type": "event"
    },
    {
      "anonymous": false,
      "inputs": [
        {
          "indexed": true,
          "internalType": "address",
          "name": "sender",
          "type": "address"
        },
        {
          "indexed": true,
          "internalType": "address",
          "name": "recipient",
          "type": "address"
        },
        {
          "indexed": true,
          "internalType": "address",
          "name": "owner",
          "type": "address"
        },
        {
          "indexed": false,
          "internalType": "uint256",
          "name": "assets",
          "type": "uint256"
        },
        {
          "indexed": false,
          "internalType": "uint256",
          "name": "shares",
          "type": "uint256"
        }
      ],
      "name": "Withdraw",
      "type": "event"
    },
    {
      "inputs": [],
      "name": "DOMAIN_SEPARATOR",
      "outputs": [
        {
          "internalType": "bytes32",
          "name": "",
          "type": "bytes32"
        }
      ],
      "stateMutability": "view",
      "type": "function"
    },
    {
      "inputs": [],
      "name": "PERMIT_TYPEHASH",
      "outputs": [
        {
          "internalType": "bytes32",
          "name": "",
          "type": "bytes32"
        }
      ],
      "stateMutability": "view",
      "type": "function"
    },
    {
      "inputs": [
        {
          "internalType": "address",
          "name": "owner",
          "type": "address"
        },
        {
          "internalType": "address",
          "name": "spender",
          "type": "address"
        }
      ],
      "name": "allowance",
      "outputs": [
        {
          "internalType": "uint256",
          "name": "",
          "type": "uint256"
        }
      ],
      "stateMutability": "view",
      "type": "function"
    },
    {
      "inputs": [
        {
          "internalType": "address",
          "name": "spender",
          "type": "address"
        },
        {
          "internalType": "uint256",
          "name": "amount",
          "type": "uint256"
        }
      ],
      "name": "approve",
      "outputs": [
        {
          "internalType": "bool",
          "name": "",
          "type": "bool"
        }
      ],
      "stateMutability": "nonpayable",
      "type": "function"
    },
    {
      "inputs": [
        {
          "internalType": "address",
          "name": "account",
          "type": "address"
        }
      ],
      "name": "balanceOf",
      "outputs": [
        {
          "internalType": "uint256",
          "name": "",
          "type": "uint256"
        }
      ],
      "stateMutability": "view",
      "type": "function"
    },
    {
      "inputs": [],
      "name": "baseRatePerSecond",
      "outputs": [
        {
          "internalType": "uint256",
          "name": "",
          "type": "uint256"
        }
      ],
      "stateMutability": "view",
      "type": "function"
    },
    {
      "inputs": [],
      "name": "collateral",
      "outputs": [
        {
          "internalType": "address",
          "name": "",
          "type": "address"
        }
      ],
      "stateMutability": "view",
      "type": "function"
    },
    {
      "inputs": [],
      "name": "cygnusBorrowRewarder",
      "outputs": [
        {
          "internalType": "address",
          "name": "",
          "type": "address"
        }
      ],
      "stateMutability": "view",
      "type": "function"
    },
    {
      "inputs": [],
      "name": "cygnusNebulaOracle",
      "outputs": [
        {
          "internalType": "contract ICygnusNebulaOracle",
          "name": "",
          "type": "address"
        }
      ],
      "stateMutability": "view",
      "type": "function"
    },
    {
      "inputs": [],
      "name": "decimals",
      "outputs": [
        {
          "internalType": "uint8",
          "name": "",
          "type": "uint8"
        }
      ],
      "stateMutability": "view",
      "type": "function"
    },
    {
      "inputs": [
        {
          "internalType": "uint256",
          "name": "assets",
          "type": "uint256"
        },
        {
          "internalType": "address",
          "name": "recipient",
          "type": "address"
        }
      ],
      "name": "deposit",
      "outputs": [
        {
          "internalType": "uint256",
          "name": "shares",
          "type": "uint256"
        }
      ],
      "stateMutability": "nonpayable",
      "type": "function"
    },
    {
      "inputs": [],
      "name": "exchangeRate",
      "outputs": [
        {
          "internalType": "uint256",
          "name": "",
          "type": "uint256"
        }
      ],
      "stateMutability": "nonpayable",
      "type": "function"
    },
    {
      "inputs": [],
      "name": "hangar18",
      "outputs": [
        {
          "internalType": "contract IHangar18",
          "name": "",
          "type": "address"
        }
      ],
      "stateMutability": "view",
      "type": "function"
    },
    {
      "inputs": [],
      "name": "jumpMultiplierPerSecond",
      "outputs": [
        {
          "internalType": "uint256",
          "name": "",
          "type": "uint256"
        }
      ],
      "stateMutability": "view",
      "type": "function"
    },
    {
      "inputs": [],
      "name": "kinkMultiplier",
      "outputs": [
        {
          "internalType": "uint256",
          "name": "",
          "type": "uint256"
        }
      ],
      "stateMutability": "view",
      "type": "function"
    },
    {
      "inputs": [],
      "name": "kinkUtilizationRate",
      "outputs": [
        {
          "internalType": "uint256",
          "name": "",
          "type": "uint256"
        }
      ],
      "stateMutability": "view",
      "type": "function"
    },
    {
      "inputs": [],
      "name": "multiplierPerSecond",
      "outputs": [
        {
          "internalType": "uint256",
          "name": "",
          "type": "uint256"
        }
      ],
      "stateMutability": "view",
      "type": "function"
    },
    {
      "inputs": [],
      "name": "name",
      "outputs": [
        {
          "internalType": "string",
          "name": "",
          "type": "string"
        }
      ],
      "stateMutability": "view",
      "type": "function"
    },
    {
      "inputs": [
        {
          "internalType": "address",
          "name": "",
          "type": "address"
        }
      ],
      "name": "nonces",
      "outputs": [
        {
          "internalType": "uint256",
          "name": "",
          "type": "uint256"
        }
      ],
      "stateMutability": "view",
      "type": "function"
    },
    {
      "inputs": [
        {
          "internalType": "address",
          "name": "owner",
          "type": "address"
        },
        {
          "internalType": "address",
          "name": "spender",
          "type": "address"
        },
        {
          "internalType": "uint256",
          "name": "value",
          "type": "uint256"
        },
        {
          "internalType": "uint256",
          "name": "deadline",
          "type": "uint256"
        },
        {
          "internalType": "uint8",
          "name": "v",
          "type": "uint8"
        },
        {
          "internalType": "bytes32",
          "name": "r",
          "type": "bytes32"
        },
        {
          "internalType": "bytes32",
          "name": "s",
          "type": "bytes32"
        }
      ],
      "name": "permit",
      "outputs": [],
      "stateMutability": "nonpayable",
      "type": "function"
    },
    {
      "inputs": [
        {
          "internalType": "uint256",
          "name": "shares",
          "type": "uint256"
        },
        {
          "internalType": "address",
          "name": "recipient",
          "type": "address"
        },
        {
          "internalType": "address",
          "name": "owner",
          "type": "address"
        }
      ],
      "name": "redeem",
      "outputs": [
        {
          "internalType": "uint256",
          "name": "assets",
          "type": "uint256"
        }
      ],
      "stateMutability": "nonpayable",
      "type": "function"
    },
    {
      "inputs": [],
      "name": "reserveFactor",
      "outputs": [
        {
          "internalType": "uint256",
          "name": "",
          "type": "uint256"
        }
      ],
      "stateMutability": "view",
      "type": "function"
    },
    {
      "inputs": [
        {
          "internalType": "address",
          "name": "newBorrowRewarder",
          "type": "address"
        }
      ],
      "name": "setCygnusBorrowRewarder",
      "outputs": [],
      "stateMutability": "nonpayable",
      "type": "function"
    },
    {
      "inputs": [
        {
          "internalType": "uint256",
          "name": "baseRatePerYear_",
          "type": "uint256"
        },
        {
          "internalType": "uint256",
          "name": "multiplierPerYear_",
          "type": "uint256"
        },
        {
          "internalType": "uint256",
          "name": "kinkMultiplier_",
          "type": "uint256"
        },
        {
          "internalType": "uint256",
          "name": "kinkUtilizationRate_",
          "type": "uint256"
        }
      ],
      "name": "setInterestRateModel",
      "outputs": [],
      "stateMutability": "nonpayable",
      "type": "function"
    },
    {
      "inputs": [
        {
          "internalType": "uint256",
          "name": "newReserveFactor",
          "type": "uint256"
        }
      ],
      "name": "setReserveFactor",
      "outputs": [],
      "stateMutability": "nonpayable",
      "type": "function"
    },
    {
      "inputs": [],
      "name": "shuttleId",
      "outputs": [
        {
          "internalType": "uint256",
          "name": "",
          "type": "uint256"
        }
      ],
      "stateMutability": "view",
      "type": "function"
    },
    {
      "inputs": [
        {
          "internalType": "address",
          "name": "token",
          "type": "address"
        }
      ],
      "name": "sweepToken",
      "outputs": [],
      "stateMutability": "nonpayable",
      "type": "function"
    },
    {
      "inputs": [],
      "name": "symbol",
      "outputs": [
        {
          "internalType": "string",
          "name": "",
          "type": "string"
        }
      ],
      "stateMutability": "view",
      "type": "function"
    },
    {
      "inputs": [],
      "name": "totalBalance",
      "outputs": [
        {
          "internalType": "uint256",
          "name": "",
          "type": "uint256"
        }
      ],
      "stateMutability": "view",
      "type": "function"
    },
    {
      "inputs": [],
      "name": "totalSupply",
      "outputs": [
        {
          "internalType": "uint256",
          "name": "",
          "type": "uint256"
        }
      ],
      "stateMutability": "view",
      "type": "function"
    },
    {
      "inputs": [
        {
          "internalType": "address",
          "name": "recipient",
          "type": "address"
        },
        {
          "internalType": "uint256",
          "name": "amount",
          "type": "uint256"
        }
      ],
      "name": "transfer",
      "outputs": [
        {
          "internalType": "bool",
          "name": "",
          "type": "bool"
        }
      ],
      "stateMutability": "nonpayable",
      "type": "function"
    },
    {
      "inputs": [
        {
          "internalType": "address",
          "name": "sender",
          "type": "address"
        },
        {
          "internalType": "address",
          "name": "recipient",
          "type": "address"
        },
        {
          "internalType": "uint256",
          "name": "amount",
          "type": "uint256"
        }
      ],
      "name": "transferFrom",
      "outputs": [
        {
          "internalType": "bool",
          "name": "",
          "type": "bool"
        }
      ],
      "stateMutability": "nonpayable",
      "type": "function"
    },
    {
      "inputs": [],
      "name": "underlying",
      "outputs": [
        {
          "internalType": "address",
          "name": "",
          "type": "address"
        }
      ],
      "stateMutability": "view",
      "type": "function"
    },
    {
      "inputs": [],
      "name": "version",
      "outputs": [
        {
          "internalType": "string",
          "name": "",
          "type": "string"
        }
      ],
      "stateMutability": "view",
      "type": "function"
    }
  ],
  "bytecode": "0x61014060405267016345785d8a0000600a55670bcbce7f1b150000600e556002600f553480156200002f57600080fd5b5060408051808201825260128152714379676e75733a20426f72726f7761626c6560701b602080830191825283519081019093526000808452805460ff1916600190811782558351939493919285928592859285928592859262000093926200040f565b508151620000a99060029060208501906200040f565b506003805460ff191660ff92909216919091179055505060405146907f8b73c3c69bb8fe3d512ecc4cf759cc79239f7b179b0ffacaa9a75d522b39400f90620000f59060019062000606565b60408051918290038220828201825260058352640312e302e360dc1b6020938401528151928301939093528101919091527f06c015bd22b4c69690933c1058878ebdfef31f9aaae40bbe86d8a09fe1b2972c6060820152608081018290523060a082015260c00160408051601f19818403018152919052805160209091012060805250620001879250506200040b9050565b6001600160a01b0316635a412e536040518163ffffffff1660e01b815260040160a060405180830381600087803b158015620001c257600080fd5b505af1158015620001d7573d6000803e3d6000fd5b505050506040513d601f19601f82011682018060405250810190620001fd9190620004b5565b610100526001600160601b0319606091821b811660e05292811b831660c0529290921b1660a05250600092508291506200023690503390565b6001600160a01b0316635a412e536040518163ffffffff1660e01b815260040160a060405180830381600087803b1580156200027157600080fd5b505af115801562000286573d6000803e3d6000fd5b505050506040513d601f19601f82011682018060405250810190620002ac9190620004b5565b50509250925050816001600160a01b03166395d89b416040518163ffffffff1660e01b815260040160006040518083038186803b158015620002ed57600080fd5b505afa15801562000302573d6000803e3d6000fd5b505050506040513d6000823e601f3d908101601f191682016040526200032c919081019062000528565b6040516020016200033e9190620006a9565b60405160208183030381529060405260029080519060200190620003649291906200040f565b50816001600160a01b031663313ce5676040518163ffffffff1660e01b815260040160206040518083038186803b1580156200039f57600080fd5b505afa158015620003b4573d6000803e3d6000fd5b505050506040513d601f19601f82011682018060405250810190620003da9190620005dc565b6003805460ff191660ff9290921691909117905560601b6001600160601b031916610120525060006004556200077a565b3390565b8280546200041d906200070e565b90600052602060002090601f0160209004810192826200044157600085556200048c565b82601f106200045c57805160ff19168380011785556200048c565b828001600101855582156200048c579182015b828111156200048c5782518255916020019190600101906200046f565b506200049a9291506200049e565b5090565b5b808211156200049a57600081556001016200049f565b600080600080600060a08688031215620004cd578081fd5b8551620004da8162000761565b6020870151909550620004ed8162000761565b6040870151909450620005008162000761565b6060870151909350620005138162000761565b80925050608086015190509295509295909350565b6000602082840312156200053a578081fd5b81516001600160401b038082111562000551578283fd5b818401915084601f83011262000565578283fd5b8151818111156200057a576200057a6200074b565b604051601f8201601f19908116603f01168101908382118183101715620005a557620005a56200074b565b81604052828152876020848701011115620005be578586fd5b620005d1836020830160208801620006db565b979650505050505050565b600060208284031215620005ee578081fd5b815160ff81168114620005ff578182fd5b9392505050565b600080835482600182811c9150808316806200062357607f831692505b60208084108214156200064457634e487b7160e01b87526022600452602487fd5b8180156200065b57600181146200066d576200069b565b60ff198616895284890196506200069b565b60008a815260209020885b86811015620006935781548b82015290850190830162000678565b505084890196505b509498975050505050505050565b67021bcb3aaa9a21d160c51b815260008251620006ce816008850160208701620006db565b9190910160080192915050565b60005b83811015620006f8578181015183820152602001620006de565b8381111562000708576000848401525b50505050565b600181811c908216806200072357607f821691505b602082108114156200074557634e487b7160e01b600052602260045260246000fd5b50919050565b634e487b7160e01b600052604160045260246000fd5b6001600160a01b03811681146200077757600080fd5b50565b60805160a05160601c60c05160601c60e05160601c610100516101205160601c6119d06200080760003960006104e6015260006103b5015260006105160152600081816103ef01528181610673015281816106ca0152818161099c01528181610ba001526114620152600081816105760152610f9f0152600081816103250152610d5801526119d06000f3fe608060405234801561001057600080fd5b50600436106102265760003560e01c80636e553f651161012a578063ad168c9d116100bd578063d8dfeb451161008c578063d935bd9211610071578063d935bd9214610511578063dd62ed3e14610538578063e8a24e1d1461057157600080fd5b8063d8dfeb45146104e1578063d90e02641461050857600080fd5b8063ad168c9d1461049f578063ad7a672f146104b2578063ba087652146104bb578063d505accf146104ce57600080fd5b80637ecebe00116100f95780637ecebe001461045b57806395d89b411461047b5780639b51099814610483578063a9059cbb1461048c57600080fd5b80636e553f65146103d75780636f307dc3146103ea57806370a082311461042957806372cf84a71461045257600080fd5b806330adf81f116101bd57806342bf78af1161018c57806346f608ff1161017157806346f608ff1461036b57806354fd4d50146103745780635f77f891146103b057600080fd5b806342bf78af1461034f5780634322b7141461036257600080fd5b806330adf81f146102da578063313ce567146103015780633644e515146103205780633ba0b9a91461034757600080fd5b80631be19560116101f95780631be195601461028c5780631c446983146102a15780631e44b7fc146102b457806323b872dd146102c757600080fd5b806306fdde031461022b578063095ea7b31461024957806318160ddd1461026c5780631aebf12f14610283575b600080fd5b610233610598565b6040516102409190611873565b60405180910390f35b61025c61025736600461179a565b610626565b6040519015158152602001610240565b61027560045481565b604051908152602001610240565b610275600e5481565b61029f61029a366004611675565b61063c565b005b61029f6102af3660046117c5565b61072e565b61029f6102c2366004611842565b6107ca565b61025c6102d53660046116e5565b61081e565b6102757f6e71edae12b1b97f4d1f60370fef10105fa2faae0126114a169c64845d6126c981565b60035461030e9060ff1681565b60405160ff9091168152602001610240565b6102757f000000000000000000000000000000000000000000000000000000000000000081565b610275610894565b61029f61035d366004611675565b6108c2565b610275600a5481565b610275600c5481565b6102336040518060400160405280600581526020017f312e302e3000000000000000000000000000000000000000000000000000000081525081565b6102757f000000000000000000000000000000000000000000000000000000000000000081565b6102756103e53660046117dd565b610969565b6104117f000000000000000000000000000000000000000000000000000000000000000081565b6040516001600160a01b039091168152602001610240565b610275610437366004611675565b6001600160a01b031660009081526005602052604090205490565b610275600d5481565b610275610469366004611675565b60076020526000908152604090205481565b610233610a9e565b610275600f5481565b61025c61049a36600461179a565b610aab565b600954610411906001600160a01b031681565b61027560085481565b6102756104c9366004611801565b610ab8565b61029f6104dc366004611725565b610c49565b6104117f000000000000000000000000000000000000000000000000000000000000000081565b610275600b5481565b6104117f000000000000000000000000000000000000000000000000000000000000000081565b6102756105463660046116ad565b6001600160a01b03918216600090815260066020908152604080832093909416825291909152205490565b6104117f000000000000000000000000000000000000000000000000000000000000000081565b600180546105a590611934565b80601f01602080910402602001604051908101604052809291908181526020018280546105d190611934565b801561061e5780601f106105f35761010080835404028352916020019161061e565b820191906000526020600020905b81548152906001019060200180831161060157829003601f168201915b505050505081565b6000610633338484610eec565b50600192915050565b60005460ff1661065f576040516306fda65d60e31b815260040160405180910390fd5b6000805460ff19169055610671610f9b565b7f00000000000000000000000000000000000000000000000000000000000000006001600160a01b0316816001600160a01b031614156106fc576040516303b91a9160e31b81526001600160a01b0380831660048301527f00000000000000000000000000000000000000000000000000000000000000001660248201526044015b60405180910390fd5b60006107078261106d565b905061071d6001600160a01b0383163383611088565b50506000805460ff19166001179055565b60005460ff16610751576040516306fda65d60e31b815260040160405180910390fd5b6000805460ff19169055610763610f9b565b61077760006702c68af0bb140000836110d1565b600a80549082905560408051828152602081018490527faaa68312e2ea9d50e16af5068410ab56e1a1fd06037b1a35664812c30f82146091015b60405180910390a150506000805460ff19166001179055565b60005460ff166107ed576040516306fda65d60e31b815260040160405180910390fd5b6000805460ff191690556107ff610f9b565b61080b84848484611112565b50506000805460ff191660011790555050565b600061082b8484846111e8565b6001600160a01b03841660009081526006602090815260408083203384529091529020548281101561087a576040516310c6013560e31b815260048101829052602481018490526044016106f3565b6108878533858403610eec565b60019150505b9392505050565b60045460009080156108b2576008546108ad908261130b565b6108bc565b670de0b6b3a76400005b91505090565b60005460ff166108e5576040516306fda65d60e31b815260040160405180910390fd5b6000805460ff191690556108f7610f9b565b600980546001600160a01b038381167fffffffffffffffffffffffff000000000000000000000000000000000000000083168117909355604080519190921680825260208201939093527f2a0d5dc7fbc8045f59cb33c736f04f9a9b565e9f425912f9cd2bafdebd50cead91016107b1565b6000805460ff1661098d576040516306fda65d60e31b815260040160405180910390fd5b6000805460ff191690556109cc7f00000000000000000000000000000000000000000000000000000000000000006001600160a01b031633308661135a565b6000806109ea6109da610894565b6109e4848461191d565b9061130b565b925060008311610a0d5760405163f1ca48b160e01b815260040160405180910390fd5b600454610a3157610a2261dead6103e86113a8565b610a2e6103e88461191d565b92505b610a3b84846113a8565b60408051868152602081018590526001600160a01b0386169133917fdcbc1c05240f31ff3ad067ef1ee35ce4997762752e3a095284754544f4c709d7910160405180910390a35050610a8b61145b565b6000805460ff1916600117905592915050565b600280546105a590611934565b60006106333384846111e8565b6000805460ff16610adc576040516306fda65d60e31b815260040160405180910390fd5b6000805460ff19169055336001600160a01b03831614610b54576001600160a01b03821660009081526006602090815260408083203384529091529020546000198114610b5257610b2d858261191d565b6001600160a01b03841660009081526006602090815260408083203384529091529020555b505b610b66610b5f610894565b85906114c4565b905060008111610b895760405163e3e8d29760e01b815260040160405180910390fd5b610b9382856114f2565b610bc76001600160a01b037f0000000000000000000000000000000000000000000000000000000000000000168483611088565b816001600160a01b0316836001600160a01b0316610be23390565b6001600160a01b03167ffbde797d201c681b91056529119e0b02407c7bb96a4a2c75c01fc9667232c8db8488604051610c25929190918252602082015260400190565b60405180910390a4610c3561145b565b6000805460ff191660011790559392505050565b6001600160a01b038716610c7057604051639a321bc760e01b815260040160405180910390fd5b6001600160a01b038616610c97576040516353fbd1d760e01b815260040160405180910390fd5b42841015610cc15760405163075dd20f60e41b8152426004820152602481018590526044016106f3565b6001600160a01b0387811660008181526007602090815260408083208054600180820190925582517f6e71edae12b1b97f4d1f60370fef10105fa2faae0126114a169c64845d6126c98186015280840196909652958c166060860152608085018b905260a085019590955260c08085018a90528151808603909101815260e08501825280519083012061190160f01b6101008601527f000000000000000000000000000000000000000000000000000000000000000061010286015261012280860182905282518087039091018152610142860180845281519185019190912090859052610162860180845281905260ff8a166101828701526101a286018990526101c2860188905291519095919491926101e2808401939192601f1981019281900390910190855afa158015610dfc573d6000803e3d6000fd5b5050604051601f1901519150506001600160a01b038116610e3057604051637386dbbb60e11b815260040160405180910390fd5b896001600160a01b0316816001600160a01b031614610e845760405163a1d5f2ed60e01b81526001600160a01b038b16600482015260ff8716602482015260448101869052606481018590526084016106f3565b6001600160a01b038a81166000818152600660209081526040808320948e16808452948252918290208c905590518b81527f8c5be1e5ebec7d5bd14f71427d1e84f3dd0314c0f7b2291e5b200ac8c7c3b925910160405180910390a350505050505050505050565b6001600160a01b038316610f13576040516317ba2d8b60e11b815260040160405180910390fd5b6001600160a01b038216610f3a57604051632cc8a69760e11b815260040160405180910390fd5b6001600160a01b0383811660008181526006602090815260408083209487168084529482529182902085905590518481527f8c5be1e5ebec7d5bd14f71427d1e84f3dd0314c0f7b2291e5b200ac8c7c3b925910160405180910390a3505050565b60007f00000000000000000000000000000000000000000000000000000000000000006001600160a01b031663f851a4406040518163ffffffff1660e01b815260040160206040518083038186803b158015610ff657600080fd5b505afa15801561100a573d6000803e3d6000fd5b505050506040513d601f19601f8201168201806040525081019061102e9190611691565b9050336001600160a01b0382161461106a57604051633e7c764160e21b81523360048201526001600160a01b03821660248201526044016106f3565b50565b60006110826001600160a01b0383163061159d565b92915050565b81601a5280603a5269a9059cbb00000000000060005260206000604460166000875af13d1560016000511417166110c7576390b8ec186000526004601cfd5b6000603a52505050565b828110806110de57508181115b1561110d57604051639e7fe3bd60e01b81526004810184905260248101839052604481018290526064016106f3565b505050565b611126600067016345785d8a0000866110d1565b6111416706f05b59d3b20000670d2f13f7789f0000836110d1565b61114e6001600a846110d1565b61115c6301e13380856118de565b600b55611177611170826301e133806118fe565b849061130b565b600c55600f829055600e819055611197816109e485856301e133806115c6565b600d556040805185815260208101859052908101839052606081018290527ff58b8cc439edada25fd9495b7364aeb1d737dbef59be1cf62e0cc4001c44a3cd9060800160405180910390a150505050565b6001600160a01b03831661120f5760405163618a6e7d60e11b815260040160405180910390fd5b6001600160a01b0382166112365760405163446ebce960e01b815260040160405180910390fd5b6001600160a01b0383166000908152600560205260409020548181101561127a5760405163355a868d60e01b815260048101829052602481018390526044016106f3565b6001600160a01b038085166000908152600560205260408082208585039055918516815290812080548492906112b19084906118c6565b92505081905550826001600160a01b0316846001600160a01b03167fddf252ad1be2c89b69c2b068fc378daa952ba7f163c4a11628f55a4df523b3ef846040516112fd91815260200190565b60405180910390a350505050565b60007812725dd1d243aba0e75fe645cc4873f9e65afe688c928e1f218311670de0b6b3a76400000215820261134857637c5f487d6000526004601cfd5b50670de0b6b3a7640000919091020490565b6040516323b872dd600052836020528260405281606052602060006064601c6000895af13d15600160005114171661139a57637939f4246000526004601cfd5b600060605260405250505050565b6001600160a01b0382166113cf5760405163237813dd60e01b815260040160405180910390fd5b6001600160a01b038216600090815260056020526040812080548392906113f79084906118c6565b92505081905550806004600082825461141091906118c6565b90915550506040518181526001600160a01b038316906000907fddf252ad1be2c89b69c2b068fc378daa952ba7f163c4a11628f55a4df523b3ef906020015b60405180910390a35050565b60006114867f000000000000000000000000000000000000000000000000000000000000000061106d565b60088190556040518181529091507f8a0df8ef054fae2c3d2d19a7b322e864870cc9fd3cb07fb9526309c596244bf49060200160405180910390a150565b6000816000190483118202156114e25763bac65e5b6000526004601cfd5b50670de0b6b3a764000091020490565b6001600160a01b03821661151957604051630b5da42b60e01b815260040160405180910390fd5b6001600160a01b0382166000908152600560205260408120805483929061154190849061191d565b92505081905550806004600082825461155a919061191d565b90915550506040518181526000906001600160a01b038416907fddf252ad1be2c89b69c2b068fc378daa952ba7f163c4a11628f55a4df523b3ef9060200161144f565b60006370a08231600052816020526020806024601c865afa601f3d111660205102905092915050565b600083830260001984860981811082019003806115fb57836115f05763ae47f7026000526004601cfd5b50829004905061088d565b8084116116105763ae47f7026000526004601cfd5b838587096000858103861695869004956003870260029081188089028203028089028203028089028203028089028203028089028203028089029091030291819003819004600101858411909403939093029190930391909104170290509392505050565b600060208284031215611686578081fd5b813561088d81611985565b6000602082840312156116a2578081fd5b815161088d81611985565b600080604083850312156116bf578081fd5b82356116ca81611985565b915060208301356116da81611985565b809150509250929050565b6000806000606084860312156116f9578081fd5b833561170481611985565b9250602084013561171481611985565b929592945050506040919091013590565b600080600080600080600060e0888a03121561173f578283fd5b873561174a81611985565b9650602088013561175a81611985565b95506040880135945060608801359350608088013560ff8116811461177d578384fd5b9699959850939692959460a0840135945060c09093013592915050565b600080604083850312156117ac578182fd5b82356117b781611985565b946020939093013593505050565b6000602082840312156117d6578081fd5b5035919050565b600080604083850312156117ef578182fd5b8235915060208301356116da81611985565b600080600060608486031215611815578283fd5b83359250602084013561182781611985565b9150604084013561183781611985565b809150509250925092565b60008060008060808587031215611857578384fd5b5050823594602084013594506040840135936060013592509050565b6000602080835283518082850152825b8181101561189f57858101830151858201604001528201611883565b818111156118b05783604083870101525b50601f01601f1916929092016040019392505050565b600082198211156118d9576118d961196f565b500190565b6000826118f957634e487b7160e01b81526012600452602481fd5b500490565b60008160001904831182151516156119185761191861196f565b500290565b60008282101561192f5761192f61196f565b500390565b600181811c9082168061194857607f821691505b6020821081141561196957634e487b7160e01b600052602260045260246000fd5b50919050565b634e487b7160e01b600052601160045260246000fd5b6001600160a01b038116811461106a57600080fdfea26469706673582212205fe01bc677b228c0095abf52584c5e561f736fd533f89774ad72c9ed9267333b64736f6c63430008040033",
  "linkReferences": {},
  "deployedLinkReferences": {}
}