{
  "_format": "hh-sol-artifact-1",
  "contractName": "CygnusBorrowControl",
  "sourceName": "contracts/cygnus-core/CygnusBorrowControl.sol",
  "abi": [
    {
      "inputs": [],
      "stateMutability": "nonpayable",
      "type": "constructor"
    },
    {
      "inputs": [
        {
          "internalType": "uint256",
          "name": "min",
          "type": "uint256"
        },
        {
          "internalType": "uint256",
          "name": "max",
          "type": "uint256"
        },
        {
          "internalType": "uint256",
          "name": "value",
          "type": "uint256"
        }
      ],
      "name": "CygnusBorrowControl__ParameterNotInRange",
      "type": "error"
    },
    {
      "inputs": [],
      "name": "CygnusTerminal__CantMintZeroShares",
      "type": "error"
    },
    {
      "inputs": [],
      "name": "CygnusTerminal__CantRedeemZeroAssets",
      "type": "error"
    },
    {
      "inputs": [
        {
          "internalType": "address",
          "name": "token",
          "type": "address"
        },
        {
          "internalType": "address",
          "name": "underlying",
          "type": "address"
        }
      ],
      "name": "CygnusTerminal__CantSweepUnderlying",
      "type": "error"
    },
    {
      "inputs": [
        {
          "internalType": "address",
          "name": "sender",
          "type": "address"
        },
        {
          "internalType": "address",
          "name": "admin",
          "type": "address"
        }
      ],
      "name": "CygnusTerminal__MsgSenderNotAdmin",
      "type": "error"
    },
    {
      "inputs": [
        {
          "internalType": "address",
          "name": "owner",
          "type": "address"
        },
        {
          "internalType": "uint8",
          "name": "v",
          "type": "uint8"
        },
        {
          "internalType": "bytes32",
          "name": "r",
          "type": "bytes32"
        },
        {
          "internalType": "bytes32",
          "name": "s",
          "type": "bytes32"
        }
      ],
      "name": "ERC20Permit__InvalidSignature",
      "type": "error"
    },
    {
      "inputs": [],
      "name": "ERC20Permit__OwnerZeroAddress",
      "type": "error"
    },
    {
      "inputs": [
        {
          "internalType": "uint256",
          "name": "currentTime",
          "type": "uint256"
        },
        {
          "internalType": "uint256",
          "name": "deadline",
          "type": "uint256"
        }
      ],
      "name": "ERC20Permit__PermitExpired",
      "type": "error"
    },
    {
      "inputs": [],
      "name": "ERC20Permit__RecoveredOwnerZeroAddress",
      "type": "error"
    },
    {
      "inputs": [],
      "name": "ERC20Permit__SpenderZeroAddress",
      "type": "error"
    },
    {
      "inputs": [],
      "name": "ERC20__ApproveOwnerZeroAddress",
      "type": "error"
    },
    {
      "inputs": [],
      "name": "ERC20__ApproveSpenderZeroAddress",
      "type": "error"
    },
    {
      "inputs": [
        {
          "internalType": "uint256",
          "name": "accountBalance",
          "type": "uint256"
        },
        {
          "internalType": "uint256",
          "name": "burnAmount",
          "type": "uint256"
        }
      ],
      "name": "ERC20__BurnUnderflow",
      "type": "error"
    },
    {
      "inputs": [],
      "name": "ERC20__BurnZeroAddress",
      "type": "error"
    },
    {
      "inputs": [
        {
          "internalType": "uint256",
          "name": "allowance",
          "type": "uint256"
        },
        {
          "internalType": "uint256",
          "name": "amount",
          "type": "uint256"
        }
      ],
      "name": "ERC20__InsufficientAllowance",
      "type": "error"
    },
    {
      "inputs": [
        {
          "internalType": "uint256",
          "name": "senderBalance",
          "type": "uint256"
        },
        {
          "internalType": "uint256",
          "name": "amount",
          "type": "uint256"
        }
      ],
      "name": "ERC20__InsufficientBalance",
      "type": "error"
    },
    {
      "inputs": [],
      "name": "ERC20__MintZeroAddress",
      "type": "error"
    },
    {
      "inputs": [],
      "name": "ERC20__TransferRecipientZeroAddress",
      "type": "error"
    },
    {
      "inputs": [],
      "name": "ERC20__TransferSenderZeroAddress",
      "type": "error"
    },
    {
      "inputs": [],
      "name": "ReentrantCall",
      "type": "error"
    },
    {
      "anonymous": false,
      "inputs": [
        {
          "indexed": true,
          "internalType": "address",
          "name": "owner",
          "type": "address"
        },
        {
          "indexed": true,
          "internalType": "address",
          "name": "spender",
          "type": "address"
        },
        {
          "indexed": false,
          "internalType": "uint256",
          "name": "amount",
          "type": "uint256"
        }
      ],
      "name": "Approval",
      "type": "event"
    },
    {
      "anonymous": false,
      "inputs": [
        {
          "indexed": true,
          "internalType": "address",
          "name": "sender",
          "type": "address"
        },
        {
          "indexed": true,
          "internalType": "address",
          "name": "recipient",
          "type": "address"
        },
        {
          "indexed": false,
          "internalType": "uint256",
          "name": "assets",
          "type": "uint256"
        },
        {
          "indexed": false,
          "internalType": "uint256",
          "name": "shares",
          "type": "uint256"
        }
      ],
      "name": "Deposit",
      "type": "event"
    },
    {
      "anonymous": false,
      "inputs": [
        {
          "indexed": false,
          "internalType": "address",
          "name": "oldBorrowRewarder",
          "type": "address"
        },
        {
          "indexed": false,
          "internalType": "address",
          "name": "newBorrowRewarder",
          "type": "address"
        }
      ],
      "name": "NewCygnusBorrowRewarder",
      "type": "event"
    },
    {
      "anonymous": false,
      "inputs": [
        {
          "indexed": false,
          "internalType": "uint256",
          "name": "baseRatePerYear",
          "type": "uint256"
        },
        {
          "indexed": false,
          "internalType": "uint256",
          "name": "multiplierPerYear",
          "type": "uint256"
        },
        {
          "indexed": false,
          "internalType": "uint256",
          "name": "kinkMultiplier_",
          "type": "uint256"
        },
        {
          "indexed": false,
          "internalType": "uint256",
          "name": "kinkUtilizationRate_",
          "type": "uint256"
        }
      ],
      "name": "NewInterestRateParameters",
      "type": "event"
    },
    {
      "anonymous": false,
      "inputs": [
        {
          "indexed": false,
          "internalType": "uint256",
          "name": "oldReserveFactor",
          "type": "uint256"
        },
        {
          "indexed": false,
          "internalType": "uint256",
          "name": "newReserveFactor",
          "type": "uint256"
        }
      ],
      "name": "NewReserveFactor",
      "type": "event"
    },
    {
      "anonymous": false,
      "inputs": [
        {
          "indexed": false,
          "internalType": "uint256",
          "name": "totalBalance",
          "type": "uint256"
        }
      ],
      "name": "Sync",
      "type": "event"
    },
    {
      "anonymous": false,
      "inputs": [
        {
          "indexed": true,
          "internalType": "address",
          "name": "from",
          "type": "address"
        },
        {
          "indexed": true,
          "internalType": "address",
          "name": "to",
          "type": "address"
        },
        {
          "indexed": false,
          "internalType": "uint256",
          "name": "amount",
          "type": "uint256"
        }
      ],
      "name": "Transfer",
      "type": "event"
    },
    {
      "anonymous": false,
      "inputs": [
        {
          "indexed": true,
          "internalType": "address",
          "name": "sender",
          "type": "address"
        },
        {
          "indexed": true,
          "internalType": "address",
          "name": "recipient",
          "type": "address"
        },
        {
          "indexed": true,
          "internalType": "address",
          "name": "owner",
          "type": "address"
        },
        {
          "indexed": false,
          "internalType": "uint256",
          "name": "assets",
          "type": "uint256"
        },
        {
          "indexed": false,
          "internalType": "uint256",
          "name": "shares",
          "type": "uint256"
        }
      ],
      "name": "Withdraw",
      "type": "event"
    },
    {
      "inputs": [],
      "name": "DOMAIN_SEPARATOR",
      "outputs": [
        {
          "internalType": "bytes32",
          "name": "",
          "type": "bytes32"
        }
      ],
      "stateMutability": "view",
      "type": "function"
    },
    {
      "inputs": [],
      "name": "PERMIT_TYPEHASH",
      "outputs": [
        {
          "internalType": "bytes32",
          "name": "",
          "type": "bytes32"
        }
      ],
      "stateMutability": "view",
      "type": "function"
    },
    {
      "inputs": [
        {
          "internalType": "address",
          "name": "owner",
          "type": "address"
        },
        {
          "internalType": "address",
          "name": "spender",
          "type": "address"
        }
      ],
      "name": "allowance",
      "outputs": [
        {
          "internalType": "uint256",
          "name": "",
          "type": "uint256"
        }
      ],
      "stateMutability": "view",
      "type": "function"
    },
    {
      "inputs": [
        {
          "internalType": "address",
          "name": "spender",
          "type": "address"
        },
        {
          "internalType": "uint256",
          "name": "amount",
          "type": "uint256"
        }
      ],
      "name": "approve",
      "outputs": [
        {
          "internalType": "bool",
          "name": "",
          "type": "bool"
        }
      ],
      "stateMutability": "nonpayable",
      "type": "function"
    },
    {
      "inputs": [
        {
          "internalType": "address",
          "name": "account",
          "type": "address"
        }
      ],
      "name": "balanceOf",
      "outputs": [
        {
          "internalType": "uint256",
          "name": "",
          "type": "uint256"
        }
      ],
      "stateMutability": "view",
      "type": "function"
    },
    {
      "inputs": [],
      "name": "baseRatePerSecond",
      "outputs": [
        {
          "internalType": "uint256",
          "name": "",
          "type": "uint256"
        }
      ],
      "stateMutability": "view",
      "type": "function"
    },
    {
      "inputs": [],
      "name": "collateral",
      "outputs": [
        {
          "internalType": "address",
          "name": "",
          "type": "address"
        }
      ],
      "stateMutability": "view",
      "type": "function"
    },
    {
      "inputs": [],
      "name": "cygnusBorrowRewarder",
      "outputs": [
        {
          "internalType": "address",
          "name": "",
          "type": "address"
        }
      ],
      "stateMutability": "view",
      "type": "function"
    },
    {
      "inputs": [],
      "name": "cygnusNebulaOracle",
      "outputs": [
        {
          "internalType": "contract ICygnusNebulaOracle",
          "name": "",
          "type": "address"
        }
      ],
      "stateMutability": "view",
      "type": "function"
    },
    {
      "inputs": [],
      "name": "decimals",
      "outputs": [
        {
          "internalType": "uint8",
          "name": "",
          "type": "uint8"
        }
      ],
      "stateMutability": "view",
      "type": "function"
    },
    {
      "inputs": [
        {
          "internalType": "uint256",
          "name": "assets",
          "type": "uint256"
        },
        {
          "internalType": "address",
          "name": "recipient",
          "type": "address"
        }
      ],
      "name": "deposit",
      "outputs": [
        {
          "internalType": "uint256",
          "name": "shares",
          "type": "uint256"
        }
      ],
      "stateMutability": "nonpayable",
      "type": "function"
    },
    {
      "inputs": [],
      "name": "exchangeRate",
      "outputs": [
        {
          "internalType": "uint256",
          "name": "",
          "type": "uint256"
        }
      ],
      "stateMutability": "nonpayable",
      "type": "function"
    },
    {
      "inputs": [],
      "name": "exchangeRateStored",
      "outputs": [
        {
          "internalType": "uint256",
          "name": "",
          "type": "uint256"
        }
      ],
      "stateMutability": "view",
      "type": "function"
    },
    {
      "inputs": [],
      "name": "hangar18",
      "outputs": [
        {
          "internalType": "contract IHangar18",
          "name": "",
          "type": "address"
        }
      ],
      "stateMutability": "view",
      "type": "function"
    },
    {
      "inputs": [],
      "name": "jumpMultiplierPerSecond",
      "outputs": [
        {
          "internalType": "uint256",
          "name": "",
          "type": "uint256"
        }
      ],
      "stateMutability": "view",
      "type": "function"
    },
    {
      "inputs": [],
      "name": "kinkMultiplier",
      "outputs": [
        {
          "internalType": "uint256",
          "name": "",
          "type": "uint256"
        }
      ],
      "stateMutability": "view",
      "type": "function"
    },
    {
      "inputs": [],
      "name": "kinkUtilizationRate",
      "outputs": [
        {
          "internalType": "uint256",
          "name": "",
          "type": "uint256"
        }
      ],
      "stateMutability": "view",
      "type": "function"
    },
    {
      "inputs": [],
      "name": "multiplierPerSecond",
      "outputs": [
        {
          "internalType": "uint256",
          "name": "",
          "type": "uint256"
        }
      ],
      "stateMutability": "view",
      "type": "function"
    },
    {
      "inputs": [],
      "name": "name",
      "outputs": [
        {
          "internalType": "string",
          "name": "",
          "type": "string"
        }
      ],
      "stateMutability": "view",
      "type": "function"
    },
    {
      "inputs": [
        {
          "internalType": "address",
          "name": "",
          "type": "address"
        }
      ],
      "name": "nonces",
      "outputs": [
        {
          "internalType": "uint256",
          "name": "",
          "type": "uint256"
        }
      ],
      "stateMutability": "view",
      "type": "function"
    },
    {
      "inputs": [
        {
          "internalType": "address",
          "name": "owner",
          "type": "address"
        },
        {
          "internalType": "address",
          "name": "spender",
          "type": "address"
        },
        {
          "internalType": "uint256",
          "name": "value",
          "type": "uint256"
        },
        {
          "internalType": "uint256",
          "name": "deadline",
          "type": "uint256"
        },
        {
          "internalType": "uint8",
          "name": "v",
          "type": "uint8"
        },
        {
          "internalType": "bytes32",
          "name": "r",
          "type": "bytes32"
        },
        {
          "internalType": "bytes32",
          "name": "s",
          "type": "bytes32"
        }
      ],
      "name": "permit",
      "outputs": [],
      "stateMutability": "nonpayable",
      "type": "function"
    },
    {
      "inputs": [
        {
          "internalType": "uint256",
          "name": "shares",
          "type": "uint256"
        },
        {
          "internalType": "address",
          "name": "recipient",
          "type": "address"
        },
        {
          "internalType": "address",
          "name": "owner",
          "type": "address"
        }
      ],
      "name": "redeem",
      "outputs": [
        {
          "internalType": "uint256",
          "name": "assets",
          "type": "uint256"
        }
      ],
      "stateMutability": "nonpayable",
      "type": "function"
    },
    {
      "inputs": [],
      "name": "reserveFactor",
      "outputs": [
        {
          "internalType": "uint256",
          "name": "",
          "type": "uint256"
        }
      ],
      "stateMutability": "view",
      "type": "function"
    },
    {
      "inputs": [
        {
          "internalType": "address",
          "name": "newBorrowRewarder",
          "type": "address"
        }
      ],
      "name": "setCygnusBorrowRewarder",
      "outputs": [],
      "stateMutability": "nonpayable",
      "type": "function"
    },
    {
      "inputs": [
        {
          "internalType": "uint256",
          "name": "baseRatePerYear_",
          "type": "uint256"
        },
        {
          "internalType": "uint256",
          "name": "multiplierPerYear_",
          "type": "uint256"
        },
        {
          "internalType": "uint256",
          "name": "kinkMultiplier_",
          "type": "uint256"
        },
        {
          "internalType": "uint256",
          "name": "kinkUtilizationRate_",
          "type": "uint256"
        }
      ],
      "name": "setInterestRateModel",
      "outputs": [],
      "stateMutability": "nonpayable",
      "type": "function"
    },
    {
      "inputs": [
        {
          "internalType": "uint256",
          "name": "newReserveFactor",
          "type": "uint256"
        }
      ],
      "name": "setReserveFactor",
      "outputs": [],
      "stateMutability": "nonpayable",
      "type": "function"
    },
    {
      "inputs": [],
      "name": "shuttleId",
      "outputs": [
        {
          "internalType": "uint256",
          "name": "",
          "type": "uint256"
        }
      ],
      "stateMutability": "view",
      "type": "function"
    },
    {
      "inputs": [
        {
          "internalType": "address",
          "name": "token",
          "type": "address"
        }
      ],
      "name": "sweepToken",
      "outputs": [],
      "stateMutability": "nonpayable",
      "type": "function"
    },
    {
      "inputs": [],
      "name": "symbol",
      "outputs": [
        {
          "internalType": "string",
          "name": "",
          "type": "string"
        }
      ],
      "stateMutability": "view",
      "type": "function"
    },
    {
      "inputs": [],
      "name": "totalBalance",
      "outputs": [
        {
          "internalType": "uint256",
          "name": "",
          "type": "uint256"
        }
      ],
      "stateMutability": "view",
      "type": "function"
    },
    {
      "inputs": [],
      "name": "totalSupply",
      "outputs": [
        {
          "internalType": "uint256",
          "name": "",
          "type": "uint256"
        }
      ],
      "stateMutability": "view",
      "type": "function"
    },
    {
      "inputs": [
        {
          "internalType": "address",
          "name": "recipient",
          "type": "address"
        },
        {
          "internalType": "uint256",
          "name": "amount",
          "type": "uint256"
        }
      ],
      "name": "transfer",
      "outputs": [
        {
          "internalType": "bool",
          "name": "",
          "type": "bool"
        }
      ],
      "stateMutability": "nonpayable",
      "type": "function"
    },
    {
      "inputs": [
        {
          "internalType": "address",
          "name": "sender",
          "type": "address"
        },
        {
          "internalType": "address",
          "name": "recipient",
          "type": "address"
        },
        {
          "internalType": "uint256",
          "name": "amount",
          "type": "uint256"
        }
      ],
      "name": "transferFrom",
      "outputs": [
        {
          "internalType": "bool",
          "name": "",
          "type": "bool"
        }
      ],
      "stateMutability": "nonpayable",
      "type": "function"
    },
    {
      "inputs": [],
      "name": "underlying",
      "outputs": [
        {
          "internalType": "address",
          "name": "",
          "type": "address"
        }
      ],
      "stateMutability": "view",
      "type": "function"
    },
    {
      "inputs": [],
      "name": "version",
      "outputs": [
        {
          "internalType": "string",
          "name": "",
          "type": "string"
        }
      ],
      "stateMutability": "view",
      "type": "function"
    }
  ],
  "bytecode": "0x610140604052670bcbce7f1b150000600d556002600e5567016345785d8a0000600f55670de0b6b3a76400006010553480156200003b57600080fd5b5060408051808201825260128152714379676e75733a20426f72726f7761626c6560701b602080830191825283519081019093526000808452805460ff191660019081178255835193949391928592859285928592859285926200009f926200041b565b508151620000b59060029060208501906200041b565b506003805460ff191660ff92909216919091179055505060405146907f8b73c3c69bb8fe3d512ecc4cf759cc79239f7b179b0ffacaa9a75d522b39400f90620001019060019062000612565b60408051918290038220828201825260058352640312e302e360dc1b6020938401528151928301939093528101919091527f06c015bd22b4c69690933c1058878ebdfef31f9aaae40bbe86d8a09fe1b2972c6060820152608081018290523060a082015260c00160408051601f1981840301815291905280516020909101206080525062000193925050620004179050565b6001600160a01b0316635a412e536040518163ffffffff1660e01b815260040160a060405180830381600087803b158015620001ce57600080fd5b505af1158015620001e3573d6000803e3d6000fd5b505050506040513d601f19601f82011682018060405250810190620002099190620004c1565b610100526001600160601b0319606091821b811660e05292811b831660c0529290921b1660a05250600092508291506200024290503390565b6001600160a01b0316635a412e536040518163ffffffff1660e01b815260040160a060405180830381600087803b1580156200027d57600080fd5b505af115801562000292573d6000803e3d6000fd5b505050506040513d601f19601f82011682018060405250810190620002b89190620004c1565b50509250925050816001600160a01b03166395d89b416040518163ffffffff1660e01b815260040160006040518083038186803b158015620002f957600080fd5b505afa1580156200030e573d6000803e3d6000fd5b505050506040513d6000823e601f3d908101601f1916820160405262000338919081019062000534565b6040516020016200034a9190620006b5565b60405160208183030381529060405260029080519060200190620003709291906200041b565b50816001600160a01b031663313ce5676040518163ffffffff1660e01b815260040160206040518083038186803b158015620003ab57600080fd5b505afa158015620003c0573d6000803e3d6000fd5b505050506040513d601f19601f82011682018060405250810190620003e69190620005e8565b6003805460ff191660ff9290921691909117905560601b6001600160601b0319166101205250600060045562000786565b3390565b82805462000429906200071a565b90600052602060002090601f0160209004810192826200044d576000855562000498565b82601f106200046857805160ff191683800117855562000498565b8280016001018555821562000498579182015b82811115620004985782518255916020019190600101906200047b565b50620004a6929150620004aa565b5090565b5b80821115620004a65760008155600101620004ab565b600080600080600060a08688031215620004d9578081fd5b8551620004e6816200076d565b6020870151909550620004f9816200076d565b60408701519094506200050c816200076d565b60608701519093506200051f816200076d565b80925050608086015190509295509295909350565b60006020828403121562000546578081fd5b81516001600160401b03808211156200055d578283fd5b818401915084601f83011262000571578283fd5b81518181111562000586576200058662000757565b604051601f8201601f19908116603f01168101908382118183101715620005b157620005b162000757565b81604052828152876020848701011115620005ca578586fd5b620005dd836020830160208801620006e7565b979650505050505050565b600060208284031215620005fa578081fd5b815160ff811681146200060b578182fd5b9392505050565b600080835482600182811c9150808316806200062f57607f831692505b60208084108214156200065057634e487b7160e01b87526022600452602487fd5b8180156200066757600181146200067957620006a7565b60ff19861689528489019650620006a7565b60008a815260209020885b868110156200069f5781548b82015290850190830162000684565b505084890196505b509498975050505050505050565b67021bcb3aaa9a21d160c51b815260008251620006da816008850160208701620006e7565b9190910160080192915050565b60005b8381101562000704578181015183820152602001620006ea565b8381111562000714576000848401525b50505050565b600181811c908216806200072f57607f821691505b602082108114156200075157634e487b7160e01b600052602260045260246000fd5b50919050565b634e487b7160e01b600052604160045260246000fd5b6001600160a01b03811681146200078357600080fd5b50565b60805160a05160601c60c05160601c60e05160601c610100516101205160601c6119e862000813600039600061050a015260006103d90152600061053a01526000818161041301528181610697015281816106ee015281816109c801528181610bd401526113a201526000818161059a0152610fd30152600081816103490152610d8c01526119e86000f3fe608060405234801561001057600080fd5b50600436106102415760003560e01c80635f77f89111610145578063ad168c9d116100bd578063d8dfeb451161008c578063d935bd9211610071578063d935bd9214610535578063dd62ed3e1461055c578063e8a24e1d1461059557600080fd5b8063d8dfeb4514610505578063d90e02641461052c57600080fd5b8063ad168c9d146104c3578063ad7a672f146104d6578063ba087652146104df578063d505accf146104f257600080fd5b806372cf84a71161011457806395d89b41116100f957806395d89b411461049f5780639b510998146104a7578063a9059cbb146104b057600080fd5b806372cf84a7146104765780637ecebe001461047f57600080fd5b80635f77f891146103d45780636e553f65146103fb5780636f307dc31461040e57806370a082311461044d57600080fd5b806323b872dd116101d85780633ba0b9a9116101a75780634322b7141161018c5780634322b7141461038657806346f608ff1461038f57806354fd4d501461039857600080fd5b80633ba0b9a91461036b57806342bf78af1461037357600080fd5b806323b872dd146102eb57806330adf81f146102fe578063313ce567146103255780633644e5151461034457600080fd5b80631aebf12f116102145780631aebf12f146102a75780631be19560146102b05780631c446983146102c55780631e44b7fc146102d857600080fd5b806306fdde0314610246578063095ea7b31461026457806318160ddd14610287578063182df0f51461029e575b600080fd5b61024e6105bc565b60405161025b919061188b565b60405180910390f35b6102776102723660046117b2565b61064a565b604051901515815260200161025b565b61029060045481565b60405190815260200161025b565b61029060105481565b610290600d5481565b6102c36102be36600461168d565b610660565b005b6102c36102d33660046117dd565b610752565b6102c36102e636600461185a565b6107ee565b6102776102f93660046116fd565b610842565b6102907f6e71edae12b1b97f4d1f60370fef10105fa2faae0126114a169c64845d6126c981565b6003546103329060ff1681565b60405160ff909116815260200161025b565b6102907f000000000000000000000000000000000000000000000000000000000000000081565b6102906108b8565b6102c361038136600461168d565b6108e6565b610290600f5481565b610290600b5481565b61024e6040518060400160405280600581526020017f312e302e3000000000000000000000000000000000000000000000000000000081525081565b6102907f000000000000000000000000000000000000000000000000000000000000000081565b6102906104093660046117f5565b61098d565b6104357f000000000000000000000000000000000000000000000000000000000000000081565b6040516001600160a01b03909116815260200161025b565b61029061045b36600461168d565b6001600160a01b031660009081526005602052604090205490565b610290600c5481565b61029061048d36600461168d565b60076020526000908152604090205481565b61024e610aca565b610290600e5481565b6102776104be3660046117b2565b610ad7565b600954610435906001600160a01b031681565b61029060085481565b6102906104ed366004611819565b610ae4565b6102c361050036600461173d565b610c7d565b6104357f000000000000000000000000000000000000000000000000000000000000000081565b610290600a5481565b6104357f000000000000000000000000000000000000000000000000000000000000000081565b61029061056a3660046116c5565b6001600160a01b03918216600090815260066020908152604080832093909416825291909152205490565b6104357f000000000000000000000000000000000000000000000000000000000000000081565b600180546105c99061194c565b80601f01602080910402602001604051908101604052809291908181526020018280546105f59061194c565b80156106425780601f1061061757610100808354040283529160200191610642565b820191906000526020600020905b81548152906001019060200180831161062557829003601f168201915b505050505081565b6000610657338484610f20565b50600192915050565b60005460ff16610683576040516306fda65d60e31b815260040160405180910390fd5b6000805460ff19169055610695610fcf565b7f00000000000000000000000000000000000000000000000000000000000000006001600160a01b0316816001600160a01b03161415610720576040516303b91a9160e31b81526001600160a01b0380831660048301527f00000000000000000000000000000000000000000000000000000000000000001660248201526044015b60405180910390fd5b600061072b826110a1565b90506107416001600160a01b03831633836110c9565b50506000805460ff19166001179055565b60005460ff16610775576040516306fda65d60e31b815260040160405180910390fd5b6000805460ff19169055610787610fcf565b61079b60006702c68af0bb14000083611112565b600f80549082905560408051828152602081018490527faaa68312e2ea9d50e16af5068410ab56e1a1fd06037b1a35664812c30f82146091015b60405180910390a150506000805460ff19166001179055565b60005460ff16610811576040516306fda65d60e31b815260040160405180910390fd5b6000805460ff19169055610823610fcf565b61082f84848484611153565b50506000805460ff191660011790555050565b600061084f848484611229565b6001600160a01b03841660009081526006602090815260408083203384529091529020548281101561089e576040516310c6013560e31b81526004810182905260248101849052604401610717565b6108ab8533858403610f20565b60019150505b9392505050565b60045460009080156108d6576008546108d1908261134c565b6108e0565b670de0b6b3a76400005b91505090565b60005460ff16610909576040516306fda65d60e31b815260040160405180910390fd5b6000805460ff1916905561091b610fcf565b600980546001600160a01b038381167fffffffffffffffffffffffff000000000000000000000000000000000000000083168117909355604080519190921680825260208201939093527f2a0d5dc7fbc8045f59cb33c736f04f9a9b565e9f425912f9cd2bafdebd50cead91016107d5565b6000805460ff166109b1576040516306fda65d60e31b815260040160405180910390fd5b6000805460ff191690556109c361139b565b6109f87f00000000000000000000000000000000000000000000000000000000000000006001600160a01b0316333086611404565b600080610a16610a066108b8565b610a108484611935565b9061134c565b925060008311610a395760405163f1ca48b160e01b815260040160405180910390fd5b600454610a5d57610a4e61dead6103e8611452565b610a5a6103e884611935565b92505b610a678484611452565b60408051868152602081018590526001600160a01b0386169133917fdcbc1c05240f31ff3ad067ef1ee35ce4997762752e3a095284754544f4c709d7910160405180910390a35050610ab761139b565b6000805460ff1916600117905592915050565b600280546105c99061194c565b6000610657338484611229565b6000805460ff16610b08576040516306fda65d60e31b815260040160405180910390fd5b6000805460ff19169055610b1a61139b565b336001600160a01b03831614610b88576001600160a01b03821660009081526006602090815260408083203384529091529020546000198114610b8657610b618582611935565b6001600160a01b03841660009081526006602090815260408083203384529091529020555b505b610b9a610b936108b8565b8590611505565b905060008111610bbd5760405163e3e8d29760e01b815260040160405180910390fd5b610bc78285611533565b610bfb6001600160a01b037f00000000000000000000000000000000000000000000000000000000000000001684836110c9565b816001600160a01b0316836001600160a01b0316610c163390565b6001600160a01b03167ffbde797d201c681b91056529119e0b02407c7bb96a4a2c75c01fc9667232c8db8488604051610c59929190918252602082015260400190565b60405180910390a4610c6961139b565b6000805460ff191660011790559392505050565b6001600160a01b038716610ca457604051639a321bc760e01b815260040160405180910390fd5b6001600160a01b038616610ccb576040516353fbd1d760e01b815260040160405180910390fd5b42841015610cf55760405163075dd20f60e41b815242600482015260248101859052604401610717565b6001600160a01b0387811660008181526007602090815260408083208054600180820190925582517f6e71edae12b1b97f4d1f60370fef10105fa2faae0126114a169c64845d6126c98186015280840196909652958c166060860152608085018b905260a085019590955260c08085018a90528151808603909101815260e08501825280519083012061190160f01b6101008601527f000000000000000000000000000000000000000000000000000000000000000061010286015261012280860182905282518087039091018152610142860180845281519185019190912090859052610162860180845281905260ff8a166101828701526101a286018990526101c2860188905291519095919491926101e2808401939192601f1981019281900390910190855afa158015610e30573d6000803e3d6000fd5b5050604051601f1901519150506001600160a01b038116610e6457604051637386dbbb60e11b815260040160405180910390fd5b896001600160a01b0316816001600160a01b031614610eb85760405163a1d5f2ed60e01b81526001600160a01b038b16600482015260ff871660248201526044810186905260648101859052608401610717565b6001600160a01b038a81166000818152600660209081526040808320948e16808452948252918290208c905590518b81527f8c5be1e5ebec7d5bd14f71427d1e84f3dd0314c0f7b2291e5b200ac8c7c3b925910160405180910390a350505050505050505050565b6001600160a01b038316610f47576040516317ba2d8b60e11b815260040160405180910390fd5b6001600160a01b038216610f6e57604051632cc8a69760e11b815260040160405180910390fd5b6001600160a01b0383811660008181526006602090815260408083209487168084529482529182902085905590518481527f8c5be1e5ebec7d5bd14f71427d1e84f3dd0314c0f7b2291e5b200ac8c7c3b925910160405180910390a3505050565b60007f00000000000000000000000000000000000000000000000000000000000000006001600160a01b031663f851a4406040518163ffffffff1660e01b815260040160206040518083038186803b15801561102a57600080fd5b505afa15801561103e573d6000803e3d6000fd5b505050506040513d601f19601f8201168201806040525081019061106291906116a9565b9050336001600160a01b0382161461109e57604051633e7c764160e21b81523360048201526001600160a01b0382166024820152604401610717565b50565b60006370a08231600052306020526020806024601c855afa601f3d1116602051029050919050565b81601a5280603a5269a9059cbb00000000000060005260206000604460166000875af13d156001600051141716611108576390b8ec186000526004601cfd5b6000603a52505050565b8281108061111f57508181115b1561114e57604051639e7fe3bd60e01b8152600481018490526024810183905260448101829052606401610717565b505050565b611167600067016345785d8a000086611112565b6111826706f05b59d3b20000670d2f13f7789f000083611112565b61118f6001600a84611112565b61119d6301e13380856118f6565b600a556111b86111b1826301e13380611916565b849061134c565b600b55600e829055600d8190556111d881610a1085856301e133806115de565b600c556040805185815260208101859052908101839052606081018290527ff58b8cc439edada25fd9495b7364aeb1d737dbef59be1cf62e0cc4001c44a3cd9060800160405180910390a150505050565b6001600160a01b0383166112505760405163618a6e7d60e11b815260040160405180910390fd5b6001600160a01b0382166112775760405163446ebce960e01b815260040160405180910390fd5b6001600160a01b038316600090815260056020526040902054818110156112bb5760405163355a868d60e01b81526004810182905260248101839052604401610717565b6001600160a01b038085166000908152600560205260408082208585039055918516815290812080548492906112f29084906118de565b92505081905550826001600160a01b0316846001600160a01b03167fddf252ad1be2c89b69c2b068fc378daa952ba7f163c4a11628f55a4df523b3ef8460405161133e91815260200190565b60405180910390a350505050565b60007812725dd1d243aba0e75fe645cc4873f9e65afe688c928e1f218311670de0b6b3a76400000215820261138957637c5f487d6000526004601cfd5b50670de0b6b3a7640000919091020490565b60006113c67f00000000000000000000000000000000000000000000000000000000000000006110a1565b60088190556040518181529091507f8a0df8ef054fae2c3d2d19a7b322e864870cc9fd3cb07fb9526309c596244bf49060200160405180910390a150565b6040516323b872dd600052836020528260405281606052602060006064601c6000895af13d15600160005114171661144457637939f4246000526004601cfd5b600060605260405250505050565b6001600160a01b0382166114795760405163237813dd60e01b815260040160405180910390fd5b6001600160a01b038216600090815260056020526040812080548392906114a19084906118de565b9250508190555080600460008282546114ba91906118de565b90915550506040518181526001600160a01b038316906000907fddf252ad1be2c89b69c2b068fc378daa952ba7f163c4a11628f55a4df523b3ef906020015b60405180910390a35050565b6000816000190483118202156115235763bac65e5b6000526004601cfd5b50670de0b6b3a764000091020490565b6001600160a01b03821661155a57604051630b5da42b60e01b815260040160405180910390fd5b6001600160a01b03821660009081526005602052604081208054839290611582908490611935565b92505081905550806004600082825461159b9190611935565b90915550506040518181526000906001600160a01b038416907fddf252ad1be2c89b69c2b068fc378daa952ba7f163c4a11628f55a4df523b3ef906020016114f9565b6000838302600019848609818110820190038061161357836116085763ae47f7026000526004601cfd5b5082900490506108b1565b8084116116285763ae47f7026000526004601cfd5b838587096000858103861695869004956003870260029081188089028203028089028203028089028203028089028203028089028203028089029091030291819003819004600101858411909403939093029190930391909104170290509392505050565b60006020828403121561169e578081fd5b81356108b18161199d565b6000602082840312156116ba578081fd5b81516108b18161199d565b600080604083850312156116d7578081fd5b82356116e28161199d565b915060208301356116f28161199d565b809150509250929050565b600080600060608486031215611711578081fd5b833561171c8161199d565b9250602084013561172c8161199d565b929592945050506040919091013590565b600080600080600080600060e0888a031215611757578283fd5b87356117628161199d565b965060208801356117728161199d565b95506040880135945060608801359350608088013560ff81168114611795578384fd5b9699959850939692959460a0840135945060c09093013592915050565b600080604083850312156117c4578182fd5b82356117cf8161199d565b946020939093013593505050565b6000602082840312156117ee578081fd5b5035919050565b60008060408385031215611807578182fd5b8235915060208301356116f28161199d565b60008060006060848603121561182d578283fd5b83359250602084013561183f8161199d565b9150604084013561184f8161199d565b809150509250925092565b6000806000806080858703121561186f578384fd5b5050823594602084013594506040840135936060013592509050565b6000602080835283518082850152825b818110156118b75785810183015185820160400152820161189b565b818111156118c85783604083870101525b50601f01601f1916929092016040019392505050565b600082198211156118f1576118f1611987565b500190565b60008261191157634e487b7160e01b81526012600452602481fd5b500490565b600081600019048311821515161561193057611930611987565b500290565b60008282101561194757611947611987565b500390565b600181811c9082168061196057607f821691505b6020821081141561198157634e487b7160e01b600052602260045260246000fd5b50919050565b634e487b7160e01b600052601160045260246000fd5b6001600160a01b038116811461109e57600080fdfea264697066735822122063403ca0a197eacc689438b8443572687086706c6e2acb4f22cda45ccb6aec8664736f6c63430008040033",
  "linkReferences": {},
  "deployedLinkReferences": {}
}