{
  "_format": "hh-sol-artifact-1",
  "contractName": "CygnusBorrowControl",
  "sourceName": "contracts/cygnus-core/CygnusBorrowControl.sol",
  "abi": [
    {
      "inputs": [],
      "stateMutability": "nonpayable",
      "type": "constructor"
    },
    {
      "inputs": [
        {
          "internalType": "address",
          "name": "currentTracker",
          "type": "address"
        },
        {
          "internalType": "address",
          "name": "newTracker",
          "type": "address"
        }
      ],
      "name": "CygnusBorrowControl__BorrowTrackerAlreadySet",
      "type": "error"
    },
    {
      "inputs": [
        {
          "internalType": "uint256",
          "name": "min",
          "type": "uint256"
        },
        {
          "internalType": "uint256",
          "name": "max",
          "type": "uint256"
        },
        {
          "internalType": "uint256",
          "name": "value",
          "type": "uint256"
        }
      ],
      "name": "CygnusBorrowControl__ParameterNotInRange",
      "type": "error"
    },
    {
      "inputs": [],
      "name": "CygnusTerminal__CantMintZeroShares",
      "type": "error"
    },
    {
      "inputs": [],
      "name": "CygnusTerminal__CantRedeemZeroAssets",
      "type": "error"
    },
    {
      "inputs": [
        {
          "internalType": "address",
          "name": "token",
          "type": "address"
        },
        {
          "internalType": "address",
          "name": "underlying",
          "type": "address"
        }
      ],
      "name": "CygnusTerminal__CantSweepUnderlying",
      "type": "error"
    },
    {
      "inputs": [
        {
          "internalType": "address",
          "name": "sender",
          "type": "address"
        },
        {
          "internalType": "address",
          "name": "factoryAdmin",
          "type": "address"
        }
      ],
      "name": "CygnusTerminal__MsgSenderNotAdmin",
      "type": "error"
    },
    {
      "inputs": [
        {
          "internalType": "uint256",
          "name": "assets",
          "type": "uint256"
        },
        {
          "internalType": "uint256",
          "name": "totalBalance",
          "type": "uint256"
        }
      ],
      "name": "CygnusTerminal__RedeemAmountInvalid",
      "type": "error"
    },
    {
      "inputs": [],
      "name": "ERC20__ApproveOwnerZeroAddress",
      "type": "error"
    },
    {
      "inputs": [],
      "name": "ERC20__ApproveSpenderZeroAddress",
      "type": "error"
    },
    {
      "inputs": [
        {
          "internalType": "uint256",
          "name": "accountBalance",
          "type": "uint256"
        },
        {
          "internalType": "uint256",
          "name": "burnAmount",
          "type": "uint256"
        }
      ],
      "name": "ERC20__BurnUnderflow",
      "type": "error"
    },
    {
      "inputs": [],
      "name": "ERC20__BurnZeroAddress",
      "type": "error"
    },
    {
      "inputs": [
        {
          "internalType": "uint256",
          "name": "allowance",
          "type": "uint256"
        },
        {
          "internalType": "uint256",
          "name": "amount",
          "type": "uint256"
        }
      ],
      "name": "ERC20__InsufficientAllowance",
      "type": "error"
    },
    {
      "inputs": [
        {
          "internalType": "uint256",
          "name": "senderBalance",
          "type": "uint256"
        },
        {
          "internalType": "uint256",
          "name": "amount",
          "type": "uint256"
        }
      ],
      "name": "ERC20__InsufficientBalance",
      "type": "error"
    },
    {
      "inputs": [],
      "name": "ERC20__MintZeroAddress",
      "type": "error"
    },
    {
      "inputs": [],
      "name": "ERC20__TransferRecipientZeroAddress",
      "type": "error"
    },
    {
      "inputs": [],
      "name": "ERC20__TransferSenderZeroAddress",
      "type": "error"
    },
    {
      "inputs": [
        {
          "internalType": "uint256",
          "name": "prod1",
          "type": "uint256"
        }
      ],
      "name": "PRBMath__MulDivFixedPointOverflow",
      "type": "error"
    },
    {
      "inputs": [
        {
          "internalType": "uint256",
          "name": "prod1",
          "type": "uint256"
        },
        {
          "internalType": "uint256",
          "name": "denominator",
          "type": "uint256"
        }
      ],
      "name": "PRBMath__MulDivOverflow",
      "type": "error"
    },
    {
      "inputs": [],
      "name": "ReentrantCall",
      "type": "error"
    },
    {
      "anonymous": false,
      "inputs": [
        {
          "indexed": true,
          "internalType": "address",
          "name": "owner",
          "type": "address"
        },
        {
          "indexed": true,
          "internalType": "address",
          "name": "spender",
          "type": "address"
        },
        {
          "indexed": false,
          "internalType": "uint256",
          "name": "amount",
          "type": "uint256"
        }
      ],
      "name": "Approval",
      "type": "event"
    },
    {
      "anonymous": false,
      "inputs": [
        {
          "indexed": true,
          "internalType": "address",
          "name": "sender",
          "type": "address"
        },
        {
          "indexed": true,
          "internalType": "address",
          "name": "recipient",
          "type": "address"
        },
        {
          "indexed": false,
          "internalType": "uint256",
          "name": "assets",
          "type": "uint256"
        },
        {
          "indexed": false,
          "internalType": "uint256",
          "name": "shares",
          "type": "uint256"
        }
      ],
      "name": "Deposit",
      "type": "event"
    },
    {
      "anonymous": false,
      "inputs": [
        {
          "indexed": false,
          "internalType": "address",
          "name": "oldBorrowRewarder",
          "type": "address"
        },
        {
          "indexed": false,
          "internalType": "address",
          "name": "newBorrowRewarder",
          "type": "address"
        }
      ],
      "name": "NewCygnusBorrowRewarder",
      "type": "event"
    },
    {
      "anonymous": false,
      "inputs": [
        {
          "indexed": false,
          "internalType": "uint256",
          "name": "baseRatePerYear",
          "type": "uint256"
        },
        {
          "indexed": false,
          "internalType": "uint256",
          "name": "multiplierPerYear",
          "type": "uint256"
        },
        {
          "indexed": false,
          "internalType": "uint256",
          "name": "kinkMultiplier_",
          "type": "uint256"
        },
        {
          "indexed": false,
          "internalType": "uint256",
          "name": "kinkUtilizationRate_",
          "type": "uint256"
        }
      ],
      "name": "NewInterestRateParameters",
      "type": "event"
    },
    {
      "anonymous": false,
      "inputs": [
        {
          "indexed": false,
          "internalType": "uint256",
          "name": "oldReserveFactor",
          "type": "uint256"
        },
        {
          "indexed": false,
          "internalType": "uint256",
          "name": "newReserveFactor",
          "type": "uint256"
        }
      ],
      "name": "NewReserveFactor",
      "type": "event"
    },
    {
      "anonymous": false,
      "inputs": [
        {
          "indexed": false,
          "internalType": "uint256",
          "name": "totalBalance",
          "type": "uint256"
        }
      ],
      "name": "Sync",
      "type": "event"
    },
    {
      "anonymous": false,
      "inputs": [
        {
          "indexed": true,
          "internalType": "address",
          "name": "from",
          "type": "address"
        },
        {
          "indexed": true,
          "internalType": "address",
          "name": "to",
          "type": "address"
        },
        {
          "indexed": false,
          "internalType": "uint256",
          "name": "amount",
          "type": "uint256"
        }
      ],
      "name": "Transfer",
      "type": "event"
    },
    {
      "anonymous": false,
      "inputs": [
        {
          "indexed": true,
          "internalType": "address",
          "name": "sender",
          "type": "address"
        },
        {
          "indexed": true,
          "internalType": "address",
          "name": "recipient",
          "type": "address"
        },
        {
          "indexed": true,
          "internalType": "address",
          "name": "owner",
          "type": "address"
        },
        {
          "indexed": false,
          "internalType": "uint256",
          "name": "assets",
          "type": "uint256"
        },
        {
          "indexed": false,
          "internalType": "uint256",
          "name": "shares",
          "type": "uint256"
        }
      ],
      "name": "Withdraw",
      "type": "event"
    },
    {
      "inputs": [
        {
          "internalType": "address",
          "name": "owner",
          "type": "address"
        },
        {
          "internalType": "address",
          "name": "spender",
          "type": "address"
        }
      ],
      "name": "allowance",
      "outputs": [
        {
          "internalType": "uint256",
          "name": "",
          "type": "uint256"
        }
      ],
      "stateMutability": "view",
      "type": "function"
    },
    {
      "inputs": [
        {
          "internalType": "address",
          "name": "spender",
          "type": "address"
        },
        {
          "internalType": "uint256",
          "name": "amount",
          "type": "uint256"
        }
      ],
      "name": "approve",
      "outputs": [
        {
          "internalType": "bool",
          "name": "",
          "type": "bool"
        }
      ],
      "stateMutability": "nonpayable",
      "type": "function"
    },
    {
      "inputs": [
        {
          "internalType": "address",
          "name": "account",
          "type": "address"
        }
      ],
      "name": "balanceOf",
      "outputs": [
        {
          "internalType": "uint256",
          "name": "",
          "type": "uint256"
        }
      ],
      "stateMutability": "view",
      "type": "function"
    },
    {
      "inputs": [],
      "name": "baseRatePerSecond",
      "outputs": [
        {
          "internalType": "uint256",
          "name": "",
          "type": "uint256"
        }
      ],
      "stateMutability": "view",
      "type": "function"
    },
    {
      "inputs": [],
      "name": "collateral",
      "outputs": [
        {
          "internalType": "address",
          "name": "",
          "type": "address"
        }
      ],
      "stateMutability": "view",
      "type": "function"
    },
    {
      "inputs": [],
      "name": "cygnusBorrowRewarder",
      "outputs": [
        {
          "internalType": "address",
          "name": "",
          "type": "address"
        }
      ],
      "stateMutability": "view",
      "type": "function"
    },
    {
      "inputs": [],
      "name": "decimals",
      "outputs": [
        {
          "internalType": "uint8",
          "name": "",
          "type": "uint8"
        }
      ],
      "stateMutability": "view",
      "type": "function"
    },
    {
      "inputs": [
        {
          "internalType": "uint256",
          "name": "assets",
          "type": "uint256"
        },
        {
          "internalType": "address",
          "name": "recipient",
          "type": "address"
        }
      ],
      "name": "deposit",
      "outputs": [
        {
          "internalType": "uint256",
          "name": "shares",
          "type": "uint256"
        }
      ],
      "stateMutability": "nonpayable",
      "type": "function"
    },
    {
      "inputs": [],
      "name": "exchangeRate",
      "outputs": [
        {
          "internalType": "uint256",
          "name": "",
          "type": "uint256"
        }
      ],
      "stateMutability": "nonpayable",
      "type": "function"
    },
    {
      "inputs": [],
      "name": "exchangeRateStored",
      "outputs": [
        {
          "internalType": "uint256",
          "name": "",
          "type": "uint256"
        }
      ],
      "stateMutability": "view",
      "type": "function"
    },
    {
      "inputs": [],
      "name": "hangar18",
      "outputs": [
        {
          "internalType": "address",
          "name": "",
          "type": "address"
        }
      ],
      "stateMutability": "view",
      "type": "function"
    },
    {
      "inputs": [],
      "name": "jumpMultiplierPerSecond",
      "outputs": [
        {
          "internalType": "uint256",
          "name": "",
          "type": "uint256"
        }
      ],
      "stateMutability": "view",
      "type": "function"
    },
    {
      "inputs": [],
      "name": "kinkMultiplier",
      "outputs": [
        {
          "internalType": "uint256",
          "name": "",
          "type": "uint256"
        }
      ],
      "stateMutability": "view",
      "type": "function"
    },
    {
      "inputs": [],
      "name": "kinkUtilizationRate",
      "outputs": [
        {
          "internalType": "uint256",
          "name": "",
          "type": "uint256"
        }
      ],
      "stateMutability": "view",
      "type": "function"
    },
    {
      "inputs": [],
      "name": "multiplierPerSecond",
      "outputs": [
        {
          "internalType": "uint256",
          "name": "",
          "type": "uint256"
        }
      ],
      "stateMutability": "view",
      "type": "function"
    },
    {
      "inputs": [],
      "name": "name",
      "outputs": [
        {
          "internalType": "string",
          "name": "",
          "type": "string"
        }
      ],
      "stateMutability": "view",
      "type": "function"
    },
    {
      "inputs": [],
      "name": "orbiterName",
      "outputs": [
        {
          "internalType": "string",
          "name": "",
          "type": "string"
        }
      ],
      "stateMutability": "view",
      "type": "function"
    },
    {
      "inputs": [
        {
          "internalType": "uint256",
          "name": "shares",
          "type": "uint256"
        },
        {
          "internalType": "address",
          "name": "recipient",
          "type": "address"
        },
        {
          "internalType": "address",
          "name": "owner",
          "type": "address"
        }
      ],
      "name": "redeem",
      "outputs": [
        {
          "internalType": "uint256",
          "name": "assets",
          "type": "uint256"
        }
      ],
      "stateMutability": "nonpayable",
      "type": "function"
    },
    {
      "inputs": [],
      "name": "reserveFactor",
      "outputs": [
        {
          "internalType": "uint256",
          "name": "",
          "type": "uint256"
        }
      ],
      "stateMutability": "view",
      "type": "function"
    },
    {
      "inputs": [
        {
          "internalType": "address",
          "name": "newBorrowRewarder",
          "type": "address"
        }
      ],
      "name": "setCygnusBorrowRewarder",
      "outputs": [],
      "stateMutability": "nonpayable",
      "type": "function"
    },
    {
      "inputs": [
        {
          "internalType": "uint256",
          "name": "baseRatePerYear",
          "type": "uint256"
        },
        {
          "internalType": "uint256",
          "name": "multiplierPerYear",
          "type": "uint256"
        },
        {
          "internalType": "uint256",
          "name": "kinkMultiplier_",
          "type": "uint256"
        },
        {
          "internalType": "uint256",
          "name": "kinkUtilizationRate_",
          "type": "uint256"
        }
      ],
      "name": "setInterestRateModel",
      "outputs": [],
      "stateMutability": "nonpayable",
      "type": "function"
    },
    {
      "inputs": [
        {
          "internalType": "uint256",
          "name": "newReserveFactor",
          "type": "uint256"
        }
      ],
      "name": "setReserveFactor",
      "outputs": [],
      "stateMutability": "nonpayable",
      "type": "function"
    },
    {
      "inputs": [],
      "name": "shuttleId",
      "outputs": [
        {
          "internalType": "uint256",
          "name": "",
          "type": "uint256"
        }
      ],
      "stateMutability": "view",
      "type": "function"
    },
    {
      "inputs": [
        {
          "internalType": "address",
          "name": "token",
          "type": "address"
        }
      ],
      "name": "sweepToken",
      "outputs": [],
      "stateMutability": "nonpayable",
      "type": "function"
    },
    {
      "inputs": [],
      "name": "symbol",
      "outputs": [
        {
          "internalType": "string",
          "name": "",
          "type": "string"
        }
      ],
      "stateMutability": "view",
      "type": "function"
    },
    {
      "inputs": [],
      "name": "totalBalance",
      "outputs": [
        {
          "internalType": "uint256",
          "name": "",
          "type": "uint256"
        }
      ],
      "stateMutability": "view",
      "type": "function"
    },
    {
      "inputs": [],
      "name": "totalSupply",
      "outputs": [
        {
          "internalType": "uint256",
          "name": "",
          "type": "uint256"
        }
      ],
      "stateMutability": "view",
      "type": "function"
    },
    {
      "inputs": [
        {
          "internalType": "address",
          "name": "recipient",
          "type": "address"
        },
        {
          "internalType": "uint256",
          "name": "amount",
          "type": "uint256"
        }
      ],
      "name": "transfer",
      "outputs": [
        {
          "internalType": "bool",
          "name": "",
          "type": "bool"
        }
      ],
      "stateMutability": "nonpayable",
      "type": "function"
    },
    {
      "inputs": [
        {
          "internalType": "address",
          "name": "sender",
          "type": "address"
        },
        {
          "internalType": "address",
          "name": "recipient",
          "type": "address"
        },
        {
          "internalType": "uint256",
          "name": "amount",
          "type": "uint256"
        }
      ],
      "name": "transferFrom",
      "outputs": [
        {
          "internalType": "bool",
          "name": "",
          "type": "bool"
        }
      ],
      "stateMutability": "nonpayable",
      "type": "function"
    },
    {
      "inputs": [],
      "name": "underlying",
      "outputs": [
        {
          "internalType": "address",
          "name": "",
          "type": "address"
        }
      ],
      "stateMutability": "view",
      "type": "function"
    }
  ],
  "bytecode": "0x61012060405266b1a2bc2ec50000600a55670bcbce7f1b150000600e556002600f553480156200002e57600080fd5b50604080518082018252600e81526d4379676e75733a20426f72726f7760901b6020808301918252835180850190945260068085526510de59d554d160d21b918501919091526000805460ff19166001908117909155835193949391928592859285926200009c9262000545565b508151620000b290600290602085019062000545565b5060f81b7fff000000000000000000000000000000000000000000000000000000000000001660805250600090508080620000ea3390565b6001600160a01b031663c3bc64ea6040518163ffffffff1660e01b8152600401608060405180830381600087803b1580156200012557600080fd5b505af192505050801562000158575060408051601f3d908101601f19168201909252620001559181019062000608565b60015b620001e757336001600160a01b0316639a9862366040518163ffffffff1660e01b815260040160c060405180830381600087803b1580156200019957600080fd5b505af1158015620001ae573d6000803e3d6000fd5b505050506040513d601f19601f82011682018060405250810190620001d4919062000659565b50939650919450909250620001f2915050565b929550909350909150505b6001600160601b0319606093841b811660a0529190921b1660e05260c0525060009150819050620002203390565b6001600160a01b0316639a9862366040518163ffffffff1660e01b815260040160c060405180830381600087803b1580156200025b57600080fd5b505af115801562000270573d6000803e3d6000fd5b505050506040513d601f19601f8201168201806040525081019062000296919062000659565b60609390931b6001600160601b03191661010052600f54600e54919750929550620002c9945086935085929150620002e2565b5050670de0b6b3a7640000600955600060035562000748565b620002f8600067016345785d8a000086620003f4565b620003156706f05b59d3b20000670d2f13f7789f000083620003f4565b620003246001600a84620003f4565b620003346301e1338085620006be565b600b55620003606200034b826301e13380620006df565b846200043c60201b62000c031790919060201c565b600c55600f829055600e819055620003a3816200038f85856301e1338062000465602090811b62000c1417901c565b6200043c60201b62000c031790919060201c565b600d556040805185815260208101859052908101839052606081018290527ff58b8cc439edada25fd9495b7364aeb1d737dbef59be1cf62e0cc4001c44a3cd9060800160405180910390a150505050565b828110806200040257508181115b156200043757604051639e7fe3bd60e01b81526004810184905260248101839052604481018290526064015b60405180910390fd5b505050565b60006200045e83670de0b6b3a7640000846200046560201b62000c141760201c565b9392505050565b600080806000198587098587029250828110838203039150508060001415620004b157838281620004a657634e487b7160e01b600052601260045260246000fd5b04925050506200045e565b838110620004dd57604051631dcf306360e21b815260048101829052602481018590526044016200042e565b600084868809600260036001881981018916988990049182028318808302840302808302840302808302840302808302840302808302840302918202909203026000889003889004909101858311909403939093029303949094049190911702949350505050565b82805462000553906200070b565b90600052602060002090601f016020900481019282620005775760008555620005c2565b82601f106200059257805160ff1916838001178555620005c2565b82800160010185558215620005c2579182015b82811115620005c2578251825591602001919060010190620005a5565b50620005d0929150620005d4565b5090565b5b80821115620005d05760008155600101620005d5565b80516001600160a01b03811681146200060357600080fd5b919050565b600080600080608085870312156200061e578384fd5b6200062985620005eb565b93506200063960208601620005eb565b92506200064960408601620005eb565b6060959095015193969295505050565b60008060008060008060c0878903121562000672578182fd5b6200067d87620005eb565b95506200068d60208801620005eb565b94506200069d60408801620005eb565b9350606087015192506080870151915060a087015190509295509295509295565b600082620006da57634e487b7160e01b81526012600452602481fd5b500490565b60008160001904831182151516156200070657634e487b7160e01b81526011600452602481fd5b500290565b600181811c908216806200072057607f821691505b602082108114156200074257634e487b7160e01b600052602260045260246000fd5b50919050565b60805160f81c60a05160601c60c05160e05160601c6101005160601c611737620007c3600039600061040001526000818161033c0152818161056f015281816105c60152818161097f01528181610b4d0152610eca015260006103020152600081816104710152610da30152600061029c01526117376000f3fe608060405234801561001057600080fd5b50600436106101da5760003560e01c80636e553f6511610104578063ad168c9d116100a2578063d90e026411610071578063d90e026414610422578063da7a2f741461042b578063dd62ed3e14610433578063e8a24e1d1461046c57600080fd5b8063ad168c9d146103cc578063ad7a672f146103df578063ba087652146103e8578063d8dfeb45146103fb57600080fd5b806372cf84a7116100de57806372cf84a71461039f57806395d89b41146103a85780639b510998146103b0578063a9059cbb146103b957600080fd5b80636e553f65146103245780636f307dc31461033757806370a082311461037657600080fd5b80631e44b7fc1161017c57806342bf78af1161014b57806342bf78af146102d85780634322b714146102eb57806346f608ff146102f45780635f77f891146102fd57600080fd5b80631e44b7fc1461027157806323b872dd14610284578063313ce567146102975780633ba0b9a9146102d057600080fd5b8063182df0f5116101b8578063182df0f5146102375780631aebf12f146102405780631be19560146102495780631c4469831461025e57600080fd5b806306fdde03146101df578063095ea7b3146101fd57806318160ddd14610220575b600080fd5b6101e7610493565b6040516101f491906115da565b60405180910390f35b61021061020b3660046114e9565b610521565b60405190151581526020016101f4565b61022960035481565b6040519081526020016101f4565b61022960095481565b610229600e5481565b61025c610257366004611439565b610538565b005b61025c61026c366004611514565b6106a1565b61025c61027f3660046115a9565b61073d565b6102106102923660046114a9565b610791565b6102be7f000000000000000000000000000000000000000000000000000000000000000081565b60405160ff90911681526020016101f4565b610229610807565b61025c6102e6366004611439565b610835565b610229600a5481565b610229600c5481565b6102297f000000000000000000000000000000000000000000000000000000000000000081565b610229610332366004611544565b610917565b61035e7f000000000000000000000000000000000000000000000000000000000000000081565b6040516001600160a01b0390911681526020016101f4565b610229610384366004611439565b6001600160a01b031660009081526004602052604090205490565b610229600d5481565b6101e7610a1a565b610229600f5481565b6102106103c73660046114e9565b610a27565b60085461035e906001600160a01b031681565b61022960065481565b6102296103f6366004611568565b610a34565b61035e7f000000000000000000000000000000000000000000000000000000000000000081565b610229600b5481565b6101e7610bf6565b610229610441366004611471565b6001600160a01b03918216600090815260056020908152604080832093909416825291909152205490565b61035e7f000000000000000000000000000000000000000000000000000000000000000081565b600180546104a09061169b565b80601f01602080910402602001604051908101604052809291908181526020018280546104cc9061169b565b80156105195780601f106104ee57610100808354040283529160200191610519565b820191906000526020600020905b8154815290600101906020018083116104fc57829003601f168201915b505050505081565b600061052e338484610cf0565b5060015b92915050565b60005460ff1661055b576040516306fda65d60e31b815260040160405180910390fd5b6000805460ff1916905561056d610d9f565b7f00000000000000000000000000000000000000000000000000000000000000006001600160a01b0316816001600160a01b031614156105f8576040516303b91a9160e31b81526001600160a01b0380831660048301527f00000000000000000000000000000000000000000000000000000000000000001660248201526044015b60405180910390fd5b6040516370a0823160e01b81523060048201526000906001600160a01b038316906370a082319060240160206040518083038186803b15801561063a57600080fd5b505afa15801561064e573d6000803e3d6000fd5b505050506040513d601f19601f82011682018060405250810190610672919061152c565b90506106886001600160a01b0383163383610e71565b50610691610eb5565b506000805460ff19166001179055565b60005460ff166106c4576040516306fda65d60e31b815260040160405180910390fd5b6000805460ff191690556106d6610d9f565b6106ea60006702c68af0bb14000083610f86565b600a80549082905560408051828152602081018490527faaa68312e2ea9d50e16af5068410ab56e1a1fd06037b1a35664812c30f82146091015b60405180910390a150506000805460ff19166001179055565b60005460ff16610760576040516306fda65d60e31b815260040160405180910390fd5b6000805460ff19169055610772610d9f565b61077e84848484610fc7565b50506000805460ff191660011790555050565b600061079e84848461109c565b6001600160a01b0384166000908152600560209081526040808320338452909152902054828110156107ed576040516310c6013560e31b815260048101829052602481018490526044016105ef565b6107fa8533858403610cf0565b60019150505b9392505050565b6003546000908015610825576006546108209082610c03565b61082f565b670de0b6b3a76400005b91505090565b60005460ff16610858576040516306fda65d60e31b815260040160405180910390fd5b6000805460ff1916905561086a610d9f565b6008546001600160a01b03828116911614156108b057600854604051635ab3b76b60e01b81526001600160a01b03918216600482015290821660248201526044016105ef565b600880546001600160a01b0383811673ffffffffffffffffffffffffffffffffffffffff1983168117909355604080519190921680825260208201939093527f2a0d5dc7fbc8045f59cb33c736f04f9a9b565e9f425912f9cd2bafdebd50cead9101610724565b6000805460ff1661093b576040516306fda65d60e31b815260040160405180910390fd5b6000805460ff19169055610957610950610807565b8490610c03565b90506000811161097a5760405163f1ca48b160e01b815260040160405180910390fd5b6109af7f00000000000000000000000000000000000000000000000000000000000000006001600160a01b03163330866111bf565b6109b9828261120d565b60408051848152602081018390526001600160a01b0384169133917fdcbc1c05240f31ff3ad067ef1ee35ce4997762752e3a095284754544f4c709d7910160405180910390a3610a07610eb5565b6000805460ff1916600117905592915050565b600280546104a09061169b565b600061052e33848461109c565b6000805460ff16610a58576040516306fda65d60e31b815260040160405180910390fd5b6000805460ff19169055336001600160a01b03831614610ad0576001600160a01b03821660009081526005602090815260408083203384529091529020546000198114610ace57610aa98582611684565b6001600160a01b03841660009081526005602090815260408083203384529091529020555b505b610ae2610adb610807565b85906112c0565b905060008111610b055760405163e3e8d29760e01b815260040160405180910390fd5b600654811115610b36576006546040516339eff09f60e11b81526105ef918391600401918252602082015260400190565b610b4082856112cc565b610b746001600160a01b037f0000000000000000000000000000000000000000000000000000000000000000168483610e71565b816001600160a01b0316836001600160a01b0316610b8f3390565b6001600160a01b03167ffbde797d201c681b91056529119e0b02407c7bb96a4a2c75c01fc9667232c8db8488604051610bd2929190918252602082015260400190565b60405180910390a4610be2610eb5565b6000805460ff191660011790559392505050565b600780546104a09061169b565b600061080083670de0b6b3a7640000845b600080806000198587098587029250828110838203039150508060001415610c5d57838281610c5357634e487b7160e01b600052601260045260246000fd5b0492505050610800565b838110610c8757604051631dcf306360e21b815260048101829052602481018590526044016105ef565b60008486880960026001871981018816978890046003810283188082028403028082028403028082028403028082028403028082028403029081029092039091026000889003889004909101858311909403939093029303949094049190911702949350505050565b6001600160a01b038316610d17576040516317ba2d8b60e11b815260040160405180910390fd5b6001600160a01b038216610d3e57604051632cc8a69760e11b815260040160405180910390fd5b6001600160a01b0383811660008181526005602090815260408083209487168084529482529182902085905590518481527f8c5be1e5ebec7d5bd14f71427d1e84f3dd0314c0f7b2291e5b200ac8c7c3b925910160405180910390a3505050565b60007f00000000000000000000000000000000000000000000000000000000000000006001600160a01b031663f851a4406040518163ffffffff1660e01b815260040160206040518083038186803b158015610dfa57600080fd5b505afa158015610e0e573d6000803e3d6000fd5b505050506040513d601f19601f82011682018060405250810190610e329190611455565b9050336001600160a01b03821614610e6e57604051633e7c764160e21b81523360048201526001600160a01b03821660248201526044016105ef565b50565b60405163a9059cbb6000528260205281604052602060006044601c6000885af13d156001600051141716610ead576390b8ec186000526004601cfd5b604052505050565b6040516370a0823160e01b81523060048201527f00000000000000000000000000000000000000000000000000000000000000006001600160a01b0316906370a082319060240160206040518083038186803b158015610f1457600080fd5b505afa158015610f28573d6000803e3d6000fd5b505050506040513d601f19601f82011682018060405250810190610f4c919061152c565b60068190556040519081527f8a0df8ef054fae2c3d2d19a7b322e864870cc9fd3cb07fb9526309c596244bf49060200160405180910390a1565b82811080610f9357508181115b15610fc257604051639e7fe3bd60e01b81526004810184905260248101839052604481018290526064016105ef565b505050565b610fdb600067016345785d8a000086610f86565b610ff66706f05b59d3b20000670d2f13f7789f000083610f86565b6110036001600a84610f86565b6110116301e1338085611645565b600b55611025610950826301e13380611665565b600c55600f829055600e81905561104b8161104585856301e13380610c14565b90610c03565b600d556040805185815260208101859052908101839052606081018290527ff58b8cc439edada25fd9495b7364aeb1d737dbef59be1cf62e0cc4001c44a3cd9060800160405180910390a150505050565b6001600160a01b0383166110c35760405163618a6e7d60e11b815260040160405180910390fd5b6001600160a01b0382166110ea5760405163446ebce960e01b815260040160405180910390fd5b6001600160a01b0383166000908152600460205260409020548181101561112e5760405163355a868d60e01b815260048101829052602481018390526044016105ef565b6001600160a01b0380851660009081526004602052604080822085850390559185168152908120805484929061116590849061162d565b92505081905550826001600160a01b0316846001600160a01b03167fddf252ad1be2c89b69c2b068fc378daa952ba7f163c4a11628f55a4df523b3ef846040516111b191815260200190565b60405180910390a350505050565b6040516323b872dd600052836020528260405281606052602060006064601c6000895af13d1560016000511417166111ff57637939f4246000526004601cfd5b600060605260405250505050565b6001600160a01b0382166112345760405163237813dd60e01b815260040160405180910390fd5b6001600160a01b0382166000908152600460205260408120805483929061125c90849061162d565b925050819055508060036000828254611275919061162d565b90915550506040518181526001600160a01b038316906000907fddf252ad1be2c89b69c2b068fc378daa952ba7f163c4a11628f55a4df523b3ef906020015b60405180910390a35050565b60006108008383611377565b6001600160a01b0382166112f357604051630b5da42b60e01b815260040160405180910390fd5b6001600160a01b0382166000908152600460205260408120805483929061131b908490611684565b9250508190555080600360008282546113349190611684565b90915550506040518181526000906001600160a01b038416907fddf252ad1be2c89b69c2b068fc378daa952ba7f163c4a11628f55a4df523b3ef906020016112b4565b60008080600019848609848602925082811083820303915050670de0b6b3a764000081106113bb5760405163698d9a0160e11b8152600481018290526024016105ef565b600080670de0b6b3a76400008688099150506706f05b59d3b1ffff8111826113f55780670de0b6b3a7640000850401945050505050610532565b620400008285030493909111909103600160ee1b02919091177faccb18165bd6fe31ae1cf318dc5b51eee0e1ba569b88cd74c1773b91fac106690201905092915050565b60006020828403121561144a578081fd5b8135610800816116ec565b600060208284031215611466578081fd5b8151610800816116ec565b60008060408385031215611483578081fd5b823561148e816116ec565b9150602083013561149e816116ec565b809150509250929050565b6000806000606084860312156114bd578081fd5b83356114c8816116ec565b925060208401356114d8816116ec565b929592945050506040919091013590565b600080604083850312156114fb578182fd5b8235611506816116ec565b946020939093013593505050565b600060208284031215611525578081fd5b5035919050565b60006020828403121561153d578081fd5b5051919050565b60008060408385031215611556578182fd5b82359150602083013561149e816116ec565b60008060006060848603121561157c578283fd5b83359250602084013561158e816116ec565b9150604084013561159e816116ec565b809150509250925092565b600080600080608085870312156115be578081fd5b5050823594602084013594506040840135936060013592509050565b6000602080835283518082850152825b81811015611606578581018301518582016040015282016115ea565b818111156116175783604083870101525b50601f01601f1916929092016040019392505050565b60008219821115611640576116406116d6565b500190565b60008261166057634e487b7160e01b81526012600452602481fd5b500490565b600081600019048311821515161561167f5761167f6116d6565b500290565b600082821015611696576116966116d6565b500390565b600181811c908216806116af57607f821691505b602082108114156116d057634e487b7160e01b600052602260045260246000fd5b50919050565b634e487b7160e01b600052601160045260246000fd5b6001600160a01b0381168114610e6e57600080fdfea264697066735822122023cb51fd3e439e839503b0c22150ff52cb29837f301eea7d664480ac11d4ba3564736f6c63430008040033",
  "linkReferences": {},
  "deployedLinkReferences": {}
}