{
  "_format": "hh-sol-artifact-1",
  "contractName": "CygnusBorrowControl",
  "sourceName": "contracts/cygnus-core/CygnusBorrowControl.sol",
  "abi": [
    {
      "inputs": [],
      "stateMutability": "nonpayable",
      "type": "constructor"
    },
    {
      "inputs": [],
      "name": "AllowanceOverflow",
      "type": "error"
    },
    {
      "inputs": [],
      "name": "AllowanceUnderflow",
      "type": "error"
    },
    {
      "inputs": [],
      "name": "CygnusBorrowControl__ParameterNotInRange",
      "type": "error"
    },
    {
      "inputs": [],
      "name": "CygnusTerminal__CantMintZeroShares",
      "type": "error"
    },
    {
      "inputs": [],
      "name": "CygnusTerminal__CantRedeemZeroAssets",
      "type": "error"
    },
    {
      "inputs": [],
      "name": "CygnusTerminal__CantSweepUnderlying",
      "type": "error"
    },
    {
      "inputs": [],
      "name": "CygnusTerminal__MsgSenderNotAdmin",
      "type": "error"
    },
    {
      "inputs": [],
      "name": "InsufficientAllowance",
      "type": "error"
    },
    {
      "inputs": [],
      "name": "InsufficientBalance",
      "type": "error"
    },
    {
      "inputs": [],
      "name": "InvalidPermit",
      "type": "error"
    },
    {
      "inputs": [],
      "name": "PermitExpired",
      "type": "error"
    },
    {
      "inputs": [],
      "name": "ReentrantCall",
      "type": "error"
    },
    {
      "inputs": [],
      "name": "TotalSupplyOverflow",
      "type": "error"
    },
    {
      "anonymous": false,
      "inputs": [
        {
          "indexed": true,
          "internalType": "address",
          "name": "owner",
          "type": "address"
        },
        {
          "indexed": true,
          "internalType": "address",
          "name": "spender",
          "type": "address"
        },
        {
          "indexed": false,
          "internalType": "uint256",
          "name": "amount",
          "type": "uint256"
        }
      ],
      "name": "Approval",
      "type": "event"
    },
    {
      "anonymous": false,
      "inputs": [
        {
          "indexed": true,
          "internalType": "address",
          "name": "sender",
          "type": "address"
        },
        {
          "indexed": true,
          "internalType": "address",
          "name": "recipient",
          "type": "address"
        },
        {
          "indexed": false,
          "internalType": "uint256",
          "name": "assets",
          "type": "uint256"
        },
        {
          "indexed": false,
          "internalType": "uint256",
          "name": "shares",
          "type": "uint256"
        }
      ],
      "name": "Deposit",
      "type": "event"
    },
    {
      "anonymous": false,
      "inputs": [
        {
          "indexed": false,
          "internalType": "address",
          "name": "oldBorrowRewarder",
          "type": "address"
        },
        {
          "indexed": false,
          "internalType": "address",
          "name": "newBorrowRewarder",
          "type": "address"
        }
      ],
      "name": "NewCygnusBorrowRewarder",
      "type": "event"
    },
    {
      "anonymous": false,
      "inputs": [
        {
          "indexed": false,
          "internalType": "uint256",
          "name": "baseRatePerYear",
          "type": "uint256"
        },
        {
          "indexed": false,
          "internalType": "uint256",
          "name": "multiplierPerYear",
          "type": "uint256"
        },
        {
          "indexed": false,
          "internalType": "uint256",
          "name": "kinkMultiplier_",
          "type": "uint256"
        },
        {
          "indexed": false,
          "internalType": "uint256",
          "name": "kinkUtilizationRate_",
          "type": "uint256"
        }
      ],
      "name": "NewInterestRateParameters",
      "type": "event"
    },
    {
      "anonymous": false,
      "inputs": [
        {
          "indexed": false,
          "internalType": "uint256",
          "name": "oldReserveFactor",
          "type": "uint256"
        },
        {
          "indexed": false,
          "internalType": "uint256",
          "name": "newReserveFactor",
          "type": "uint256"
        }
      ],
      "name": "NewReserveFactor",
      "type": "event"
    },
    {
      "anonymous": false,
      "inputs": [
        {
          "indexed": true,
          "internalType": "address",
          "name": "sender",
          "type": "address"
        },
        {
          "indexed": true,
          "internalType": "address",
          "name": "token",
          "type": "address"
        },
        {
          "indexed": false,
          "internalType": "uint256",
          "name": "balance",
          "type": "uint256"
        }
      ],
      "name": "SweepToken",
      "type": "event"
    },
    {
      "anonymous": false,
      "inputs": [
        {
          "indexed": false,
          "internalType": "uint160",
          "name": "totalBalance",
          "type": "uint160"
        }
      ],
      "name": "Sync",
      "type": "event"
    },
    {
      "anonymous": false,
      "inputs": [
        {
          "indexed": true,
          "internalType": "address",
          "name": "from",
          "type": "address"
        },
        {
          "indexed": true,
          "internalType": "address",
          "name": "to",
          "type": "address"
        },
        {
          "indexed": false,
          "internalType": "uint256",
          "name": "amount",
          "type": "uint256"
        }
      ],
      "name": "Transfer",
      "type": "event"
    },
    {
      "anonymous": false,
      "inputs": [
        {
          "indexed": true,
          "internalType": "address",
          "name": "sender",
          "type": "address"
        },
        {
          "indexed": true,
          "internalType": "address",
          "name": "recipient",
          "type": "address"
        },
        {
          "indexed": true,
          "internalType": "address",
          "name": "owner",
          "type": "address"
        },
        {
          "indexed": false,
          "internalType": "uint256",
          "name": "assets",
          "type": "uint256"
        },
        {
          "indexed": false,
          "internalType": "uint256",
          "name": "shares",
          "type": "uint256"
        }
      ],
      "name": "Withdraw",
      "type": "event"
    },
    {
      "inputs": [],
      "name": "DOMAIN_SEPARATOR",
      "outputs": [
        {
          "internalType": "bytes32",
          "name": "result",
          "type": "bytes32"
        }
      ],
      "stateMutability": "view",
      "type": "function"
    },
    {
      "inputs": [],
      "name": "PERMIT2",
      "outputs": [
        {
          "internalType": "contract IAllowanceTransfer",
          "name": "",
          "type": "address"
        }
      ],
      "stateMutability": "view",
      "type": "function"
    },
    {
      "inputs": [
        {
          "internalType": "address",
          "name": "owner",
          "type": "address"
        },
        {
          "internalType": "address",
          "name": "spender",
          "type": "address"
        }
      ],
      "name": "allowance",
      "outputs": [
        {
          "internalType": "uint256",
          "name": "result",
          "type": "uint256"
        }
      ],
      "stateMutability": "view",
      "type": "function"
    },
    {
      "inputs": [
        {
          "internalType": "address",
          "name": "spender",
          "type": "address"
        },
        {
          "internalType": "uint256",
          "name": "amount",
          "type": "uint256"
        }
      ],
      "name": "approve",
      "outputs": [
        {
          "internalType": "bool",
          "name": "",
          "type": "bool"
        }
      ],
      "stateMutability": "nonpayable",
      "type": "function"
    },
    {
      "inputs": [
        {
          "internalType": "address",
          "name": "owner",
          "type": "address"
        }
      ],
      "name": "balanceOf",
      "outputs": [
        {
          "internalType": "uint256",
          "name": "result",
          "type": "uint256"
        }
      ],
      "stateMutability": "view",
      "type": "function"
    },
    {
      "inputs": [],
      "name": "baseRatePerSecond",
      "outputs": [
        {
          "internalType": "uint256",
          "name": "",
          "type": "uint256"
        }
      ],
      "stateMutability": "view",
      "type": "function"
    },
    {
      "inputs": [],
      "name": "collateral",
      "outputs": [
        {
          "internalType": "address",
          "name": "",
          "type": "address"
        }
      ],
      "stateMutability": "view",
      "type": "function"
    },
    {
      "inputs": [],
      "name": "cygnusBorrowRewarder",
      "outputs": [
        {
          "internalType": "address",
          "name": "",
          "type": "address"
        }
      ],
      "stateMutability": "view",
      "type": "function"
    },
    {
      "inputs": [],
      "name": "cygnusNebulaOracle",
      "outputs": [
        {
          "internalType": "contract ICygnusNebulaOracle",
          "name": "",
          "type": "address"
        }
      ],
      "stateMutability": "view",
      "type": "function"
    },
    {
      "inputs": [],
      "name": "decimals",
      "outputs": [
        {
          "internalType": "uint8",
          "name": "",
          "type": "uint8"
        }
      ],
      "stateMutability": "view",
      "type": "function"
    },
    {
      "inputs": [
        {
          "internalType": "address",
          "name": "spender",
          "type": "address"
        },
        {
          "internalType": "uint256",
          "name": "difference",
          "type": "uint256"
        }
      ],
      "name": "decreaseAllowance",
      "outputs": [
        {
          "internalType": "bool",
          "name": "",
          "type": "bool"
        }
      ],
      "stateMutability": "nonpayable",
      "type": "function"
    },
    {
      "inputs": [
        {
          "internalType": "uint256",
          "name": "assets",
          "type": "uint256"
        },
        {
          "internalType": "address",
          "name": "recipient",
          "type": "address"
        },
        {
          "components": [
            {
              "components": [
                {
                  "internalType": "address",
                  "name": "token",
                  "type": "address"
                },
                {
                  "internalType": "uint160",
                  "name": "amount",
                  "type": "uint160"
                },
                {
                  "internalType": "uint48",
                  "name": "expiration",
                  "type": "uint48"
                },
                {
                  "internalType": "uint48",
                  "name": "nonce",
                  "type": "uint48"
                }
              ],
              "internalType": "struct IAllowanceTransfer.PermitDetails",
              "name": "details",
              "type": "tuple"
            },
            {
              "internalType": "address",
              "name": "spender",
              "type": "address"
            },
            {
              "internalType": "uint256",
              "name": "sigDeadline",
              "type": "uint256"
            }
          ],
          "internalType": "struct IAllowanceTransfer.PermitSingle",
          "name": "_permit",
          "type": "tuple"
        },
        {
          "internalType": "bytes",
          "name": "signature",
          "type": "bytes"
        }
      ],
      "name": "deposit",
      "outputs": [
        {
          "internalType": "uint256",
          "name": "shares",
          "type": "uint256"
        }
      ],
      "stateMutability": "nonpayable",
      "type": "function"
    },
    {
      "inputs": [],
      "name": "exchangeRate",
      "outputs": [
        {
          "internalType": "uint256",
          "name": "",
          "type": "uint256"
        }
      ],
      "stateMutability": "nonpayable",
      "type": "function"
    },
    {
      "inputs": [],
      "name": "exchangeRateStored",
      "outputs": [
        {
          "internalType": "uint256",
          "name": "",
          "type": "uint256"
        }
      ],
      "stateMutability": "view",
      "type": "function"
    },
    {
      "inputs": [],
      "name": "hangar18",
      "outputs": [
        {
          "internalType": "contract IHangar18",
          "name": "",
          "type": "address"
        }
      ],
      "stateMutability": "view",
      "type": "function"
    },
    {
      "inputs": [
        {
          "internalType": "address",
          "name": "spender",
          "type": "address"
        },
        {
          "internalType": "uint256",
          "name": "difference",
          "type": "uint256"
        }
      ],
      "name": "increaseAllowance",
      "outputs": [
        {
          "internalType": "bool",
          "name": "",
          "type": "bool"
        }
      ],
      "stateMutability": "nonpayable",
      "type": "function"
    },
    {
      "inputs": [],
      "name": "jumpMultiplierPerSecond",
      "outputs": [
        {
          "internalType": "uint256",
          "name": "",
          "type": "uint256"
        }
      ],
      "stateMutability": "view",
      "type": "function"
    },
    {
      "inputs": [],
      "name": "kinkMultiplier",
      "outputs": [
        {
          "internalType": "uint256",
          "name": "",
          "type": "uint256"
        }
      ],
      "stateMutability": "view",
      "type": "function"
    },
    {
      "inputs": [],
      "name": "kinkUtilizationRate",
      "outputs": [
        {
          "internalType": "uint256",
          "name": "",
          "type": "uint256"
        }
      ],
      "stateMutability": "view",
      "type": "function"
    },
    {
      "inputs": [],
      "name": "multiplierPerSecond",
      "outputs": [
        {
          "internalType": "uint256",
          "name": "",
          "type": "uint256"
        }
      ],
      "stateMutability": "view",
      "type": "function"
    },
    {
      "inputs": [],
      "name": "name",
      "outputs": [
        {
          "internalType": "string",
          "name": "",
          "type": "string"
        }
      ],
      "stateMutability": "pure",
      "type": "function"
    },
    {
      "inputs": [
        {
          "internalType": "address",
          "name": "owner",
          "type": "address"
        }
      ],
      "name": "nonces",
      "outputs": [
        {
          "internalType": "uint256",
          "name": "result",
          "type": "uint256"
        }
      ],
      "stateMutability": "view",
      "type": "function"
    },
    {
      "inputs": [
        {
          "internalType": "address",
          "name": "owner",
          "type": "address"
        },
        {
          "internalType": "address",
          "name": "spender",
          "type": "address"
        },
        {
          "internalType": "uint256",
          "name": "value",
          "type": "uint256"
        },
        {
          "internalType": "uint256",
          "name": "deadline",
          "type": "uint256"
        },
        {
          "internalType": "uint8",
          "name": "v",
          "type": "uint8"
        },
        {
          "internalType": "bytes32",
          "name": "r",
          "type": "bytes32"
        },
        {
          "internalType": "bytes32",
          "name": "s",
          "type": "bytes32"
        }
      ],
      "name": "permit",
      "outputs": [],
      "stateMutability": "nonpayable",
      "type": "function"
    },
    {
      "inputs": [
        {
          "internalType": "uint256",
          "name": "shares",
          "type": "uint256"
        },
        {
          "internalType": "address",
          "name": "recipient",
          "type": "address"
        },
        {
          "internalType": "address",
          "name": "owner",
          "type": "address"
        }
      ],
      "name": "redeem",
      "outputs": [
        {
          "internalType": "uint256",
          "name": "assets",
          "type": "uint256"
        }
      ],
      "stateMutability": "nonpayable",
      "type": "function"
    },
    {
      "inputs": [],
      "name": "reserveFactor",
      "outputs": [
        {
          "internalType": "uint256",
          "name": "",
          "type": "uint256"
        }
      ],
      "stateMutability": "view",
      "type": "function"
    },
    {
      "inputs": [
        {
          "internalType": "address",
          "name": "newBorrowRewarder",
          "type": "address"
        }
      ],
      "name": "setCygnusBorrowRewarder",
      "outputs": [],
      "stateMutability": "nonpayable",
      "type": "function"
    },
    {
      "inputs": [
        {
          "internalType": "uint256",
          "name": "baseRatePerYear_",
          "type": "uint256"
        },
        {
          "internalType": "uint256",
          "name": "multiplierPerYear_",
          "type": "uint256"
        },
        {
          "internalType": "uint256",
          "name": "kinkMultiplier_",
          "type": "uint256"
        },
        {
          "internalType": "uint256",
          "name": "kinkUtilizationRate_",
          "type": "uint256"
        }
      ],
      "name": "setInterestRateModel",
      "outputs": [],
      "stateMutability": "nonpayable",
      "type": "function"
    },
    {
      "inputs": [
        {
          "internalType": "uint256",
          "name": "newReserveFactor",
          "type": "uint256"
        }
      ],
      "name": "setReserveFactor",
      "outputs": [],
      "stateMutability": "nonpayable",
      "type": "function"
    },
    {
      "inputs": [],
      "name": "shuttleId",
      "outputs": [
        {
          "internalType": "uint256",
          "name": "",
          "type": "uint256"
        }
      ],
      "stateMutability": "view",
      "type": "function"
    },
    {
      "inputs": [
        {
          "internalType": "address",
          "name": "token",
          "type": "address"
        }
      ],
      "name": "sweepToken",
      "outputs": [],
      "stateMutability": "nonpayable",
      "type": "function"
    },
    {
      "inputs": [],
      "name": "symbol",
      "outputs": [
        {
          "internalType": "string",
          "name": "",
          "type": "string"
        }
      ],
      "stateMutability": "view",
      "type": "function"
    },
    {
      "inputs": [],
      "name": "totalBalance",
      "outputs": [
        {
          "internalType": "uint160",
          "name": "",
          "type": "uint160"
        }
      ],
      "stateMutability": "view",
      "type": "function"
    },
    {
      "inputs": [],
      "name": "totalSupply",
      "outputs": [
        {
          "internalType": "uint256",
          "name": "result",
          "type": "uint256"
        }
      ],
      "stateMutability": "view",
      "type": "function"
    },
    {
      "inputs": [
        {
          "internalType": "address",
          "name": "to",
          "type": "address"
        },
        {
          "internalType": "uint256",
          "name": "amount",
          "type": "uint256"
        }
      ],
      "name": "transfer",
      "outputs": [
        {
          "internalType": "bool",
          "name": "",
          "type": "bool"
        }
      ],
      "stateMutability": "nonpayable",
      "type": "function"
    },
    {
      "inputs": [
        {
          "internalType": "address",
          "name": "from",
          "type": "address"
        },
        {
          "internalType": "address",
          "name": "to",
          "type": "address"
        },
        {
          "internalType": "uint256",
          "name": "amount",
          "type": "uint256"
        }
      ],
      "name": "transferFrom",
      "outputs": [
        {
          "internalType": "bool",
          "name": "",
          "type": "bool"
        }
      ],
      "stateMutability": "nonpayable",
      "type": "function"
    },
    {
      "inputs": [],
      "name": "underlying",
      "outputs": [
        {
          "internalType": "address",
          "name": "",
          "type": "address"
        }
      ],
      "stateMutability": "view",
      "type": "function"
    }
  ],
  "bytecode": "0x610100806040523462000195576000805460ff19166001178155635a412e5360e01b80835260a092838160048186335af180156200018a57839184918591869162000161575b5060e052855260c052608052670bcbce7f1b1500006006556002600755670214e8348c4f0000600855670de0b6b3a7640000600955604051908152828160048185335af19182156200015557916200011c575b50600180546001600160a01b0319166001600160a01b039290921691909117905560405161211f91826200024383396080518281816101f80152611d88015251816102eb015260c05181818161063d01528181610a0701528181610bef0152818161109e015281816114390152818161197f0152611ea6015260e051816111400152f35b620001419150823d84116200014d575b6200013881836200019a565b810190620001e9565b50509150503862000098565b503d6200012c565b604051903d90823e3d90fd5b92505050620001809150843d86116200014d576200013881836200019a565b9150903862000045565b6040513d85823e3d90fd5b600080fd5b601f909101601f19168101906001600160401b03821190821017620001be57604052565b634e487b7160e01b600052604160045260246000fd5b51906001600160a01b03821682036200019557565b91908260a0910312620001955781516001600160a01b039081811681036200019557926200021a60208201620001d4565b926200022960408301620001d4565b926060830151908116810362000195576080909201519056fe6040608081526004908136101561001557600080fd5b600091823560e01c90816306fdde0314611ba1578163095ea7b314611b0257816318160ddd14611abd578163182df0f514611a805781631aebf12f14611a435781631be19560146118ef5781631c4469831461186a5781631e44b7fc146115e857816323b872dd146114c3578163313ce567146113c85781633644e5151461138d57816339509351146112d55781633ba0b9a91461129357816342bf78af146111dc5781634322b7141461119f57816346f608ff146111635781635f77f8911461110a5781636afdd850146110c25781636f307dc31461105357816370a0823114610fec57816372cf84a714610faf5781637ecebe0014610f485781638808e71c14610b2e57816395d89b41146109965781639b51099814610959578163a457c2d7146108a0578163a9059cbb146107e8578163ad168c9d14610795578163ad7a672f14610741578163ba08765214610523578163d505accf1461039f578163d8dfeb451461034c578163d90e02641461030f578163d935bd92146102a0578163dd62ed3e14610220575063e8a24e1d146101af57600080fd5b3461021c57817ffffffffffffffffffffffffffffffffffffffffffffffffffffffffffffffffc36011261021c576020905173ffffffffffffffffffffffffffffffffffffffff7f0000000000000000000000000000000000000000000000000000000000000000168152f35b5080fd5b90503461029c57817ffffffffffffffffffffffffffffffffffffffffffffffffffffffffffffffffc36011261029c573573ffffffffffffffffffffffffffffffffffffffff928382168203610297576024359384168403610297576020938452637f5e9f20600c52526034600c20549051908152f35b600080fd5b8280fd5b50503461021c57817ffffffffffffffffffffffffffffffffffffffffffffffffffffffffffffffffc36011261021c576020905173ffffffffffffffffffffffffffffffffffffffff7f0000000000000000000000000000000000000000000000000000000000000000168152f35b50503461021c57817ffffffffffffffffffffffffffffffffffffffffffffffffffffffffffffffffc36011261021c576020906003549051908152f35b50503461021c57817ffffffffffffffffffffffffffffffffffffffffffffffffffffffffffffffffc36011261021c5760209073ffffffffffffffffffffffffffffffffffffffff600154169051908152f35b9190503461029c5760e07ffffffffffffffffffffffffffffffffffffffffffffffffffffffffffffffffc36011261029c57813573ffffffffffffffffffffffffffffffffffffffff9081811680910361029757602435918216809203610297576084359360643560443560ff8716870361051f5761041c611f33565b92865197834211610513576338377508600c52858a5260209485600c20948554956001870190557f6e71edae12b1b97f4d1f60370fef10105fa2faae0126114a169c64845d6126c98b5287878c0152888a8c015260608b019585875260808c015260a08b01526119018b52855260c0892088526042601e208a5260ff16845260a435875260c435606052838060808b60015afa50843d51036105085750777f5e9f200000000000000000000000000000000000000000851786526034602c20557f8c5be1e5ebec7d5bd14f71427d1e84f3dd0314c0f7b2291e5b200ac8c7c3b9259190a3528060605280f35b63ddafbaef8952601cfd5b50631a15a3cc8952601cfd5b8780fd5b9190503461029c5760607ffffffffffffffffffffffffffffffffffffffffffffffffffffffffffffffffc36011261029c578135916024359373ffffffffffffffffffffffffffffffffffffffff93848616918287036102975760443595861693848703610297578433036106dd575b61059b611e33565b807fffffffffffffffffffffffffffffffffffffffffffffffffffffffffffffffff04841181026106d157670de0b6b3a7640000908402049687156106a9576387a211a2600c5282526020600c209081549081851161069e5750976106619288928560209b0390556805345cdf77eb68f44c858154039055848152867fddf252ad1be2c89b69c2b068fc378daa952ba7f163c4a11628f55a4df523b3ef8b83a37f000000000000000000000000000000000000000000000000000000000000000061209a565b835190858252868201527ffbde797d201c681b91056529119e0b02407c7bb96a4a2c75c01fc9667232c8db843392a4610698611e7a565b51908152f35b63f4d678b88452601cfd5b5085517fe3e8d297000000000000000000000000000000000000000000000000000000008152fd5b5063bac65e5b8252601cfd5b33602052637f5e9f20600c528682526034600c2080547fffffffffffffffffffffffffffffffffffffffffffffffffffffffffffffffff8103610722575b5050610593565b808511610735578490039055388061071b565b826313be252b8552601cfd5b50503461021c57817ffffffffffffffffffffffffffffffffffffffffffffffffffffffffffffffffc36011261021c5773ffffffffffffffffffffffffffffffffffffffff6020925460081c169051908152f35b50503461021c57817ffffffffffffffffffffffffffffffffffffffffffffffffffffffffffffffffc36011261021c5760209073ffffffffffffffffffffffffffffffffffffffff600254169051908152f35b82843461089d57817ffffffffffffffffffffffffffffffffffffffffffffffffffffffffffffffffc36011261089d57823573ffffffffffffffffffffffffffffffffffffffff8116810361029757602435916387a211a2600c5233815260209485600c209081549081861161069e575084900390555282600c208181540190558252600c5160601c337fddf252ad1be2c89b69c2b068fc378daa952ba7f163c4a11628f55a4df523b3ef8480a35160018152f35b80fd5b82843461089d57817ffffffffffffffffffffffffffffffffffffffffffffffffffffffffffffffffc36011261089d57823573ffffffffffffffffffffffffffffffffffffffff811681036102975760243590602052637f5e9f20600c523382526034600c2090815481811061094d5760209550038091558152602c5160601c907f8c5be1e5ebec7d5bd14f71427d1e84f3dd0314c0f7b2291e5b200ac8c7c3b925843392a35160018152f35b85638301ab388552601cfd5b50503461021c57817ffffffffffffffffffffffffffffffffffffffffffffffffffffffffffffffffc36011261021c576020906007549051908152f35b9190503461029c57827ffffffffffffffffffffffffffffffffffffffffffffffffffffffffffffffffc36011261029c5782815180937f95d89b410000000000000000000000000000000000000000000000000000000082528173ffffffffffffffffffffffffffffffffffffffff7f0000000000000000000000000000000000000000000000000000000000000000165afa918215610b24578392610a9c575b610a988383610a8e6028825180947f4379675553443a200000000000000000000000000000000000000000000000006020830152610a7e8151809260208686019101611be8565b8101036008810185520183611c55565b5191829182611c0b565b0390f35b9091503d8084833e610aae8183611c55565b810190602081830312610b1c5780519067ffffffffffffffff8211610b20570181601f82011215610b1c57805193610ae585611cc5565b92610af285519485611c55565b8584526020868401011161089d5750610a9893610b159160208085019101611be8565b9038610a37565b8380fd5b8480fd5b81513d85823e3d90fd5b9190503461029c576101207ffffffffffffffffffffffffffffffffffffffffffffffffffffffffffffffffc36011261029c5781359260249384359473ffffffffffffffffffffffffffffffffffffffff928387169384880361021c5760c07fffffffffffffffffffffffffffffffffffffffffffffffffffffffffffffffbc36011261021c5761010480359167ffffffffffffffff91828411610b205736602385011215610b2057838a0135928311610b205736868486010111610b20577f000000000000000000000000000000000000000000000000000000000000000092610c1930856120e3565b9481610e0e575b505050610c2c86612056565b6e22d473030f116ddee9f6b43ac78ba3803b15610e0a579060848b878094868e5197889687957f36c7851600000000000000000000000000000000000000000000000000000000875233908701528d3090870152166044850152881660648401525af18015610e0057908491610deb575b5050610caa9030906120e3565b908103908111610dbe57610cc690610cc0611e33565b90612013565b958615610d97576805345cdf77eb68f44c5415610d24575b505050610ced84602096611fa5565b825190815283858201527fdcbc1c05240f31ff3ad067ef1ee35ce4997762752e3a095284754544f4c709d7833392a3610698611e7a565b7ffffffffffffffffffffffffffffffffffffffffffffffffffffffffffffffc18870197968811610d6e57505050610ced6020958095610d686103e861dead611fa5565b96610cde565b6011907f4e487b7100000000000000000000000000000000000000000000000000000000835252fd5b85517ff1ca48b1000000000000000000000000000000000000000000000000000000008152fd5b826011887f4e487b7100000000000000000000000000000000000000000000000000000000600052526000fd5b81610df591611c55565b61029c578238610c9d565b88513d86823e3d90fd5b8580fd5b6e22d473030f116ddee9f6b43ac78ba391823b1561051f578b51937f2b67b5700000000000000000000000000000000000000000000000000000000085528d3390860152604435868116809103610f40578a860152606435868116809103610f4057604486015260843565ffffffffffff90818116809103610f4457606487015260a435908116809103610f4057608486015260c435868116809103610f40578593847fffffffffffffffffffffffffffffffffffffffffffffffffffffffffffffffe0601f868f978f9a988186998d9960a489015260e43560c489015261010060e489015287015261012496018686013785858286010152011681010301925af18015610f3657610f22575b8080610c20565b84610f2f91959295611c55565b9238610f1b565b89513d87823e3d90fd5b8980fd5b8a80fd5b90503461029c5760207ffffffffffffffffffffffffffffffffffffffffffffffffffffffffffffffffc36011261029c573573ffffffffffffffffffffffffffffffffffffffff8116810361029c576020926338377508600c525281600c20549051908152f35b50503461021c57817ffffffffffffffffffffffffffffffffffffffffffffffffffffffffffffffffc36011261021c576020906005549051908152f35b90503461029c5760207ffffffffffffffffffffffffffffffffffffffffffffffffffffffffffffffffc36011261029c573573ffffffffffffffffffffffffffffffffffffffff8116810361029c576020926387a211a2600c525281600c20549051908152f35b50503461021c57817ffffffffffffffffffffffffffffffffffffffffffffffffffffffffffffffffc36011261021c576020905173ffffffffffffffffffffffffffffffffffffffff7f0000000000000000000000000000000000000000000000000000000000000000168152f35b50503461021c57817ffffffffffffffffffffffffffffffffffffffffffffffffffffffffffffffffc36011261021c57602090516e22d473030f116ddee9f6b43ac78ba38152f35b50503461021c57817ffffffffffffffffffffffffffffffffffffffffffffffffffffffffffffffffc36011261021c57602090517f00000000000000000000000000000000000000000000000000000000000000008152f35b90503461029c57827ffffffffffffffffffffffffffffffffffffffffffffffffffffffffffffffffc36011261029c5760209250549051908152f35b50503461021c57817ffffffffffffffffffffffffffffffffffffffffffffffffffffffffffffffffc36011261021c576020906008549051908152f35b90503461029c5760207ffffffffffffffffffffffffffffffffffffffffffffffffffffffffffffffffc36011261029c57359073ffffffffffffffffffffffffffffffffffffffff808316809303610b1c577f2a0d5dc7fbc8045f59cb33c736f04f9a9b565e9f425912f9cd2bafdebd50cead92611258611d43565b60025491817fffffffffffffffffffffffff00000000000000000000000000000000000000008416176002558351921682526020820152a180f35b50503461021c57817ffffffffffffffffffffffffffffffffffffffffffffffffffffffffffffffffc36011261021c576020906112ce611e33565b9051908152f35b82843461089d57817ffffffffffffffffffffffffffffffffffffffffffffffffffffffffffffffffc36011261089d57823573ffffffffffffffffffffffffffffffffffffffff8116810361021c57602052637f5e9f20600c523381526034600c20928354906024358201918210611382575080602094558152602c5160601c907f8c5be1e5ebec7d5bd14f71427d1e84f3dd0314c0f7b2291e5b200ac8c7c3b925843392a35160018152f35b63f90670668352601cfd5b50503461021c57817ffffffffffffffffffffffffffffffffffffffffffffffffffffffffffffffffc36011261021c576020906112ce611f33565b82843461089d57807ffffffffffffffffffffffffffffffffffffffffffffffffffffffffffffffffc36011261089d576020825180947f313ce5670000000000000000000000000000000000000000000000000000000082528173ffffffffffffffffffffffffffffffffffffffff7f0000000000000000000000000000000000000000000000000000000000000000165afa9283156114b7578193611476575b60208460ff855191168152f35b9092506020813d82116114af575b8161149160209383611c55565b8101031261029c57519160ff8316830361089d575060ff6020611469565b3d9150611484565b509051903d90823e3d90fd5b82843461089d5760607ffffffffffffffffffffffffffffffffffffffffffffffffffffffffffffffffc36011261089d5773ffffffffffffffffffffffffffffffffffffffff8335818116929183820361029c57602435908116810361029c576044359160601b92602096338852600c94637f5e9f20811786526034862080547fffffffffffffffffffffffffffffffffffffffffffffffffffffffffffffffff81036115c5575b50506387a211a21785528785209081549081861161069e575084900390555284822081815401905584525160601c907fddf252ad1be2c89b69c2b068fc378daa952ba7f163c4a11628f55a4df523b3ef8480a35160018152f35b8087116115dc5786900390556387a211a28a61156b565b836313be252b8652601cfd5b90503461029c5760807ffffffffffffffffffffffffffffffffffffffffffffffffffffffffffffffffc36011261029c57803591602435906044359160643593611630611d43565b67016345785d8a00008611611832576706f05b59d3b2000085108015611859575b6118325760018085108015611828575b611800576301e133809182880460035586830283810488036117d4576116879085612013565b815585600755866006558892868502907fffffffffffffffffffffffffffffffffffffffffffffffffffffffffffffffff88870991808310810180840393147f98f5be4dd1e14769fbd6666224dc1eb80dd2e0a3d2c8b328f57e76b7ae1039578484111594848c8b0990848211900360f91b90840360071c170295611754575b508b7ff58b8cc439edada25fd9495b7364aeb1d737dbef59be1cf62e0cc4001c44a3cd60808d8d8d8d8d61173b848f612013565b600555815194855260208501528301526060820152a180f35b9091929394955061179f57505061179457508161173b8660807ff58b8cc439edada25fd9495b7364aeb1d737dbef59be1cf62e0cc4001c44a3cd38611707565b63ae47f7028852601cfd5b04925083915061173b90508660807ff58b8cc439edada25fd9495b7364aeb1d737dbef59be1cf62e0cc4001c44a3cd38611707565b60248a6011847f4e487b7100000000000000000000000000000000000000000000000000000000835252fd5b5082517fe49b3b30000000000000000000000000000000000000000000000000000000008152fd5b50600a8511611661565b82517fe49b3b30000000000000000000000000000000000000000000000000000000008152fd5b50670d2f13f7789f00008511611651565b90503461029c5760207ffffffffffffffffffffffffffffffffffffffffffffffffffffffffffffffffc36011261029c578035906118a6611d43565b6702c68af0bb14000082116118325750907faaa68312e2ea9d50e16af5068410ab56e1a1fd06037b1a35664812c30f82146091600854908060085582519182526020820152a180f35b83833461021c5760207ffffffffffffffffffffffffffffffffffffffffffffffffffffffffffffffffc36011261021c5773ffffffffffffffffffffffffffffffffffffffff90833582811691828203610b205784549360ff851615611a1b577fffffffffffffffffffffffffffffffffffffffffffffffffffffffffffffff00809516865561197d611d43565b7f00000000000000000000000000000000000000000000000000000000000000001683146119f35760019495506119c06119b730846120e3565b8093339061209a565b519081527f6d25be279134f4ecaa4770aff0c3d916d9e7c5ef37b65ed95dbdba411f5d54d560203392a382541617815580f35b8590517fb5d8f391000000000000000000000000000000000000000000000000000000008152fd5b8682517f37ed32e8000000000000000000000000000000000000000000000000000000008152fd5b50503461021c57817ffffffffffffffffffffffffffffffffffffffffffffffffffffffffffffffffc36011261021c576020906006549051908152f35b50503461021c57817ffffffffffffffffffffffffffffffffffffffffffffffffffffffffffffffffc36011261021c576020906009549051908152f35b50503461021c57817ffffffffffffffffffffffffffffffffffffffffffffffffffffffffffffffffc36011261021c576020906805345cdf77eb68f44c549051908152f35b90503461029c57817ffffffffffffffffffffffffffffffffffffffffffffffffffffffffffffffffc36011261029c573573ffffffffffffffffffffffffffffffffffffffff8116810361029c5791602092602435908452637f5e9f20600c52338252806034600c20558152602c5160601c907f8c5be1e5ebec7d5bd14f71427d1e84f3dd0314c0f7b2291e5b200ac8c7c3b925843392a35160018152f35b50503461021c57817ffffffffffffffffffffffffffffffffffffffffffffffffffffffffffffffffc36011261021c57610a9890611bdd611cff565b905191829182611c0b565b60005b838110611bfb5750506000910152565b8181015183820152602001611beb565b7fffffffffffffffffffffffffffffffffffffffffffffffffffffffffffffffe0601f60409360208452611c4e8151809281602088015260208888019101611be8565b0116010190565b90601f7fffffffffffffffffffffffffffffffffffffffffffffffffffffffffffffffe0910116810190811067ffffffffffffffff821117611c9657604052565b7f4e487b7100000000000000000000000000000000000000000000000000000000600052604160045260246000fd5b67ffffffffffffffff8111611c9657601f017fffffffffffffffffffffffffffffffffffffffffffffffffffffffffffffffe01660200190565b611d096012611cc5565b90611d176040519283611c55565b601282527f4379676e75733a20426f72726f7761626c6500000000000000000000000000006020830152565b6040517ff851a44000000000000000000000000000000000000000000000000000000000815273ffffffffffffffffffffffffffffffffffffffff90602081600481857f0000000000000000000000000000000000000000000000000000000000000000165afa908115611e2757600091611ded575b50163303611dc357565b60046040517f63ac75a2000000000000000000000000000000000000000000000000000000008152fd5b6020813d8211611e1f575b81611e0560209383611c55565b8101031261021c575190828216820361089d575038611db9565b3d9150611df8565b6040513d6000823e3d90fd5b6805345cdf77eb68f44c5460009080611e54575050670de0b6b3a764000090565b73ffffffffffffffffffffffffffffffffffffffff611e77925460081c16612013565b90565b7f3145c2b643834867f2c0a8cac8a48218307687911615c0ed01412a09dd163b666020611ecf611eca307f00000000000000000000000000000000000000000000000000000000000000006120e3565b612056565b6000547fffffffffffffffffffffff0000000000000000000000000000000000000000ff74ffffffffffffffffffffffffffffffffffffffff008360081b1691161760005573ffffffffffffffffffffffffffffffffffffffff60405191168152a1565b60a0604051611f40611cff565b602081519101207f8b73c3c69bb8fe3d512ecc4cf759cc79239f7b179b0ffacaa9a75d522b39400f825260208201527fc89efdaa54c0f20c7adf612882df0950f5a951637e0307cdcb4c672f298b8bc660408201524660608201523060808201522090565b6805345cdf77eb68f44c80549083820191821061200557556387a211a2600c526000526020600c20818154019055602052600c5160601c60007fddf252ad1be2c89b69c2b068fc378daa952ba7f163c4a11628f55a4df523b3ef602080a3565b63e5cfe9576000526004601cfd5b670de0b6b3a7640000907812725dd1d243aba0e75fe645cc4873f9e65afe688c928e1f21811182021583021561204857020490565b637c5f487d6000526004601cfd5b7401000000000000000000000000000000000000000081101561208c5773ffffffffffffffffffffffffffffffffffffffff1690565b6335278d126000526004601cfd5b60109260209260145260345260446000938480936fa9059cbb00000000000000000000000082525af13d1560018351141716156120d657603452565b6390b8ec1890526004601cfd5b602460106020939284936014526f70a082310000000000000000000000006000525afa601f3d1116602051029056fea164736f6c6343000811000a",
  "linkReferences": {},
  "deployedLinkReferences": {}
}