{
  "_format": "hh-sol-artifact-1",
  "contractName": "UQ112x112",
  "sourceName": "contracts/cygnus-oracle/libraries/UQ112x112.sol",
  "abi": [
    {
      "inputs": [],
      "name": "Q112",
      "outputs": [
        {
          "internalType": "uint224",
          "name": "",
          "type": "uint224"
        }
      ],
      "stateMutability": "view",
      "type": "function"
    }
  ],
  "bytecode": "0x60b4610038600b82828239805160001a607314602b57634e487b7160e01b600052600060045260246000fd5b30600052607381538281f3fe730000000000000000000000000000000000000000301460806040526004361060335760003560e01c80633bf7a83e146038575b600080fd5b604d6e01000000000000000000000000000081565b6040517bffffffffffffffffffffffffffffffffffffffffffffffffffffffff909116815260200160405180910390f3fea26469706673582212201ac3903eeb50e667997c9d9fd09dfe90eecc03dfc0b21bfb1b4a433e2b3597e264736f6c63430008040033",
  "linkReferences": {},
  "deployedLinkReferences": {}
}