{
  "_format": "hh-sol-artifact-1",
  "contractName": "CygnusDeneb",
  "sourceName": "contracts/cygnus-core/CygnusDeneb.sol",
  "abi": [
    {
      "inputs": [],
      "name": "ReentrantCall",
      "type": "error"
    },
    {
      "inputs": [],
      "name": "COLLATERAL_INIT_CODE_HASH",
      "outputs": [
        {
          "internalType": "bytes32",
          "name": "",
          "type": "bytes32"
        }
      ],
      "stateMutability": "view",
      "type": "function"
    },
    {
      "inputs": [],
      "name": "collateralParameters",
      "outputs": [
        {
          "internalType": "address",
          "name": "factory",
          "type": "address"
        },
        {
          "internalType": "address",
          "name": "underlying",
          "type": "address"
        },
        {
          "internalType": "address",
          "name": "cygnusDai",
          "type": "address"
        }
      ],
      "stateMutability": "view",
      "type": "function"
    },
    {
      "inputs": [
        {
          "internalType": "address",
          "name": "underlying",
          "type": "address"
        },
        {
          "internalType": "address",
          "name": "cygnusDai",
          "type": "address"
        }
      ],
      "name": "deployDeneb",
      "outputs": [
        {
          "internalType": "address",
          "name": "collateral",
          "type": "address"
        }
      ],
      "stateMutability": "nonpayable",
      "type": "function"
    }
  ],
  "bytecode": "0x608060405234801561001057600080fd5b506000805460ff191660011790556153b38061002d6000396000f3fe60806040523480156200001157600080fd5b5060043610620000465760003560e01c806310df4f52146200004b5780632e5e9b451462000068578063c3bc64ea1462000098575b600080fd5b62000055620000e4565b6040519081526020015b60405180910390f35b6200007f6200007936600462000269565b62000113565b6040516001600160a01b0390911681526020016200005f565b600154600254600354620000b9926001600160a01b03908116928116911683565b604080516001600160a01b03948516815292841660208401529216918101919091526060016200005f565b604051620000f5602082016200023e565b6020820181038252601f19601f820116604052508051906020012081565b6000805460ff1662000138576040516306fda65d60e31b815260040160405180910390fd5b6000805460ff191690556040805160608082018352338083526001600160a01b0387811660208086018290529188169486018590526001805473ffffffffffffffffffffffffffffffffffffffff1990811685179091556002805482168317905560038054909116909517909455845180820194909452838501919091528351808403850181529290910192839052815191012090620001d8906200023e565b8190604051809103906000f5905080158015620001f9573d6000803e3d6000fd5b506001805473ffffffffffffffffffffffffffffffffffffffff19908116825560028054821690556003805490911690556000805460ff191690911790559392505050565b6150dd80620002a183390190565b80356001600160a01b03811681146200026457600080fd5b919050565b600080604083850312156200027c578182fd5b62000287836200024c565b915062000297602084016200024c565b9050925092905056fe61014060405246600755670c7d713b49da0000600f55670e92596fd62900006010553480156200002e57600080fd5b5060408051808201825260128082527110de59db9d5cce8810dbdb1b185d195c985b60721b60208084019182528451808601909552600585526404379674c560dc1b908501526000805460ff191660019081179091558351939493859285928592859285928592620000a19290620006f1565b508151620000b7906002906020850190620006f1565b5060f81b7fff000000000000000000000000000000000000000000000000000000000000001660805250506040517f8b73c3c69bb8fe3d512ecc4cf759cc79239f7b179b0ffacaa9a75d522b39400f906200011590600190620008c4565b60408051918290038220828201825260018352603160f81b602093840152600754825193840194909452908201527fc89efdaa54c0f20c7adf612882df0950f5a951637e0307cdcb4c672f298b8bc6606082015260808101919091523060a082015260c00160408051601f19818403018152919052805160209091012060a05250620001a7945050620004dc92505050565b6001600160a01b031663c3bc64ea6040518163ffffffff1660e01b8152600401606060405180830381600087803b158015620001e257600080fd5b505af1158015620001f7573d6000803e3d6000fd5b505050506040513d601f19601f820116820180604052508101906200021d9190620007bd565b60601b6001600160601b03191660c052600c80546001600160a01b03199081166001600160a01b0393841617909155600d805490911692909116918217905560408051636c9adec960e11b8152905163d935bd9291600480820192602092909190829003018186803b1580156200029357600080fd5b505afa158015620002a8573d6000803e3d6000fd5b505050506040513d601f19601f82011682018060405250810190620002ce919062000797565b600e80546001600160a01b0319166001600160a01b03928316179055600c54620003059116620004e0602090811b6200277317901c565b80516200031b91600291602090910190620006f1565b506000600355600c5460408051630dfe168160e01b815290516001600160a01b0390921691630dfe168191600480820192602092909190829003018186803b1580156200036757600080fd5b505afa1580156200037c573d6000803e3d6000fd5b505050506040513d601f19601f82011682018060405250810190620003a2919062000797565b60601b6001600160601b03191661010052600c546040805163d21220a760e01b815290516001600160a01b039092169163d21220a791600480820192602092909190829003018186803b158015620003f957600080fd5b505afa1580156200040e573d6000803e3d6000fd5b505050506040513d601f19601f8201168201806040525081019062000434919062000797565b60601b6001600160601b03191661012052600d5460408051631c2eb17b60e31b815290516001600160a01b039092169163e1758bd891600480820192602092909190829003018186803b1580156200048b57600080fd5b505afa158015620004a0573d6000803e3d6000fd5b505050506040513d601f19601f82011682018060405250810190620004c6919062000797565b60601b6001600160601b03191660e05262000a58565b3390565b60606000826001600160a01b0316630dfe16816040518163ffffffff1660e01b815260040160206040518083038186803b1580156200051e57600080fd5b505afa15801562000533573d6000803e3d6000fd5b505050506040513d601f19601f8201168201806040525081019062000559919062000797565b6001600160a01b03166395d89b416040518163ffffffff1660e01b815260040160006040518083038186803b1580156200059257600080fd5b505afa158015620005a7573d6000803e3d6000fd5b505050506040513d6000823e601f3d908101601f19168201604052620005d1919081019062000810565b90506000836001600160a01b031663d21220a76040518163ffffffff1660e01b815260040160206040518083038186803b1580156200060f57600080fd5b505afa15801562000624573d6000803e3d6000fd5b505050506040513d601f19601f820116820180604052508101906200064a919062000797565b6001600160a01b03166395d89b416040518163ffffffff1660e01b815260040160006040518083038186803b1580156200068357600080fd5b505afa15801562000698573d6000803e3d6000fd5b505050506040513d6000823e601f3d908101601f19168201604052620006c2919081019062000810565b90508181604051602001620006d992919062000967565b60405160208183030381529060405292505050919050565b828054620006ff90620009ec565b90600052602060002090601f0160209004810192826200072357600085556200076e565b82601f106200073e57805160ff19168380011785556200076e565b828001600101855582156200076e579182015b828111156200076e57825182559160200191906001019062000751565b506200077c92915062000780565b5090565b5b808211156200077c576000815560010162000781565b600060208284031215620007a9578081fd5b8151620007b68162000a3f565b9392505050565b600080600060608486031215620007d2578182fd5b8351620007df8162000a3f565b6020850151909350620007f28162000a3f565b6040850151909250620008058162000a3f565b809150509250925092565b60006020828403121562000822578081fd5b81516001600160401b038082111562000839578283fd5b818401915084601f8301126200084d578283fd5b81518181111562000862576200086262000a29565b604051601f8201601f19908116603f011681019083821181831017156200088d576200088d62000a29565b81604052828152876020848701011115620008a6578586fd5b620008b9836020830160208801620009b9565b979650505050505050565b600080835482600182811c915080831680620008e157607f831692505b60208084108214156200090257634e487b7160e01b87526022600452602487fd5b8180156200091957600181146200092b5762000959565b60ff1986168952848901965062000959565b60008a815260209020885b86811015620009515781548b82015290850190830162000936565b505084890196505b509498975050505050505050565b65021bcb3a628160d51b8152600083516200098a816006850160208801620009b9565b602f60f81b6006918401918201528351620009ad816007840160208801620009b9565b01600701949350505050565b60005b83811015620009d6578181015183820152602001620009bc565b83811115620009e6576000848401525b50505050565b600181811c9082168062000a0157607f821691505b6020821081141562000a2357634e487b7160e01b600052602260045260246000fd5b50919050565b634e487b7160e01b600052604160045260246000fd5b6001600160a01b038116811462000a5557600080fd5b50565b60805160f81c60a05160c05160601c60e05160601c6101005160601c6101205160601c61455462000b8960003960008181611df901528181611e6401528181611ecc01528181611fbd015281816120470152612129015260008181611dc101528181611e3101528181611e8501528181611eab01528181611f620152818161201801528181612068015281816120b201528181612106015261221101526000818161033401528181610d3501528181611f0801528181611f3801528181611f9301528181611fee01528181612091015281816120d601526132ef0152600081816108ea01528181610af301528181610e2c01528181610e6e015281816113c601528181611417015281816118010152612c7d0152600081816105d101526124f60152600061056f01526145546000f3fe60806040526004361061032d5760003560e01c80637ecebe00116101a5578063afc8276c116100ec578063d505accf11610095578063e8a24e1d1161006f578063e8a24e1d14610a15578063eb6a887d14610a35578063fef0bec814610a55578063fff6cae914610a7557600080fd5b8063d505accf1461098f578063d935bd92146109af578063dd62ed3e146109cf57600080fd5b8063bc9bd12a116100c6578063bc9bd12a1461095d578063cea55f5714610979578063cf85c8821461095d57600080fd5b8063afc8276c1461090c578063b5f4d38c14610928578063bc25cf771461093d57600080fd5b8063a36a36301161014e578063a9059cbb11610128578063a9059cbb146108a2578063ad7a672f146108c2578063adbb2597146108d857600080fd5b8063a36a36301461084c578063a457c2d714610862578063a84310811461088257600080fd5b806395a2251f1161017f57806395a2251f1461080157806395d89b41146108215780639a8a05921461083657600080fd5b80637ecebe001461079e5780638c765e94146107cb5780638e5c2532146107e157600080fd5b80633644e5151161027457806358654e0f1161021d5780636a627842116101f75780636a627842146106f05780636e01be10146107105780636f307dc31461073057806370a082311461076857600080fd5b806358654e0f1461067f5780635ec88c791461069f578063643211f2146106d457600080fd5b8063421f0fcc1161024e578063421f0fcc14610628578063513036221461063d57806354fd4d501461065257600080fd5b80633644e515146105bf57806339509351146105f35780633ba0b9a91461061357600080fd5b80631c198188116102d657806330adf81f116102b057806330adf81f14610529578063313ce5671461055d57806333fabfd1146105a357600080fd5b80631c198188146104ce57806322610b78146104e957806323b872dd1461050957600080fd5b806315b02cf51161030757806315b02cf51461043257806318160ddd146104545780631995bc1a1461046a57600080fd5b8063031a5c82146103ad57806306fdde03146103e0578063095ea7b31461040257600080fd5b366103a8577f00000000000000000000000000000000000000000000000000000000000000006001600160a01b031663d0e30db0346040518263ffffffff1660e01b81526004016000604051808303818588803b15801561038d57600080fd5b505af11580156103a1573d6000803e3d6000fd5b5050505050005b600080fd5b3480156103b957600080fd5b506103cd6103c8366004613d88565b610a8a565b6040519081526020015b60405180910390f35b3480156103ec57600080fd5b506103f5610bb5565b6040516103d79190614330565b34801561040e57600080fd5b5061042261041d366004613ead565b610c43565b60405190151581526020016103d7565b34801561043e57600080fd5b5061045261044d3660046140d4565b610c5a565b005b34801561046057600080fd5b506103cd60035481565b34801561047657600080fd5b50600854600954600a54601254601454601354604080516001600160a01b039788168152602081019690965260ff909416151593850193909352908416606084015260808301529190911660a082015260c0016103d7565b3480156104da57600080fd5b506103cd6658d15e1762800081565b3480156104f557600080fd5b506103cd610504366004613df8565b610df2565b34801561051557600080fd5b50610422610524366004613df8565b6110d6565b34801561053557600080fd5b506103cd7f6e71edae12b1b97f4d1f60370fef10105fa2faae0126114a169c64845d6126c981565b34801561056957600080fd5b506105917f000000000000000000000000000000000000000000000000000000000000000081565b60405160ff90911681526020016103d7565b3480156105af57600080fd5b506103cd67016345785d8a000081565b3480156105cb57600080fd5b506103cd7f000000000000000000000000000000000000000000000000000000000000000081565b3480156105ff57600080fd5b5061042261060e366004613ead565b61114c565b34801561061f57600080fd5b506103cd611194565b34801561063457600080fd5b506104526111c2565b34801561064957600080fd5b506103cd611339565b34801561065e57600080fd5b506103f5604051806040016040528060018152602001603160f81b81525081565b34801561068b57600080fd5b5061042261069a366004613df8565b6113c2565b3480156106ab57600080fd5b506106bf6106ba366004613d88565b611484565b604080519283526020830191909152016103d7565b3480156106e057600080fd5b506103cd6706f05b59d3b2000081565b3480156106fc57600080fd5b506103cd61070b366004613d88565b61149c565b34801561071c57600080fd5b5061042261072b366004613ead565b611796565b34801561073c57600080fd5b50600c54610750906001600160a01b031681565b6040516001600160a01b0390911681526020016103d7565b34801561077457600080fd5b506103cd610783366004613d88565b6001600160a01b031660009081526004602052604090205490565b3480156107aa57600080fd5b506103cd6107b9366004613d88565b60066020526000908152604090205481565b3480156107d757600080fd5b506103cd60105481565b3480156107ed57600080fd5b506104526107fc366004613ed8565b611897565b34801561080d57600080fd5b506103cd61081c366004613d88565b611ae4565b34801561082d57600080fd5b506103f5611c66565b34801561084257600080fd5b506103cd60075481565b34801561085857600080fd5b506103cd60115481565b34801561086e57600080fd5b5061042261087d366004613ead565b611c73565b34801561088e57600080fd5b5061045261089d366004614200565b611ca4565b3480156108ae57600080fd5b506104226108bd366004613ead565b611d32565b3480156108ce57600080fd5b506103cd600b5481565b3480156108e457600080fd5b506107507f000000000000000000000000000000000000000000000000000000000000000081565b34801561091857600080fd5b506103cd6710a741a46278000081565b34801561093457600080fd5b50610452611d3f565b34801561094957600080fd5b50610452610958366004613d88565b61237c565b34801561096957600080fd5b506103cd670de0b6b3a764000081565b34801561098557600080fd5b506103cd600f5481565b34801561099b57600080fd5b506104526109aa366004613e38565b6123ed565b3480156109bb57600080fd5b50600e54610750906001600160a01b031681565b3480156109db57600080fd5b506103cd6109ea366004613dc0565b6001600160a01b03918216600090815260056020908152604080832093909416825291909152205490565b348015610a2157600080fd5b50600d54610750906001600160a01b031681565b348015610a4157600080fd5b50610452610a50366004614200565b61262a565b348015610a6157600080fd5b50610452610a70366004614200565b6126b8565b348015610a8157600080fd5b5061045261273e565b600080610ab8610a98611194565b6001600160a01b0385166000908152600460205260409020545b90612972565b90506000610ace610ac7611339565b8390612972565b604051637d6af07960e01b81526001600160a01b0386811660048301529192506000917f00000000000000000000000000000000000000000000000000000000000000001690637d6af0799060240160206040518083038186803b158015610b3557600080fd5b505afa158015610b49573d6000803e3d6000fd5b505050506040513d601f19601f82011682018060405250810190610b6d9190614218565b90506000610b84601154601054610ac79190614404565b90508215610ba857600f54610ba390610b9d838661297e565b9061297e565b610bab565b60005b9695505050505050565b60018054610bc2906144a2565b80601f0160208091040260200160405190810160405280929190818152602001828054610bee906144a2565b8015610c3b5780601f10610c1057610100808354040283529160200191610c3b565b820191906000526020600020905b815481529060010190602001808311610c1e57829003601f168201915b505050505081565b6000610c50338484612993565b5060015b92915050565b60005460ff16610c7d576040516306fda65d60e31b815260040160405180910390fd5b6000805460ff19169055610c8f612a42565b6012546001600160a01b031615610cc9576040516327d04a1160e01b81526001600160a01b03841660048201526024015b60405180910390fd5b601380546001600160a01b0380881673ffffffffffffffffffffffffffffffffffffffff19928316179092556008805487841690831617905560098490556012805492861692909116821790556014829055610d289086600019612afe565b610d5e6001600160a01b037f00000000000000000000000000000000000000000000000000000000000000001686600019612afe565b600c54610d77906001600160a01b031685600019612afe565b600a805460ff19166001179055604080516001600160a01b0387811682528681166020830152851681830152606081018490526080810183905290517fd11ba4f3abfc78cb044532e87016a0c93a03fbbb5049a35d53fb1238d9ac66529160a0908290030190a150506000805460ff19166001179055505050565b6000336001600160a01b0384161415610e295760405163524f438760e11b81526001600160a01b0384166004820152602401610cc0565b337f00000000000000000000000000000000000000000000000000000000000000006001600160a01b031614610ea35760405163f0f84ccf60e01b81523360048201527f00000000000000000000000000000000000000000000000000000000000000006001600160a01b03166024820152604401610cc0565b600080610eb285600019612c19565b9150915060008111610ee1576040516311ef27af60e31b81526004810183905260006024820152604401610cc0565b6000610eeb611339565b9050610ef5611194565b601054610f02878461297e565b610f0c919061443c565b610f16919061441c565b6001600160a01b038716600090815260046020526040812080549296508692909190610f4390849061445b565b90915550506001600160a01b03871660009081526004602052604081208054869290610f70908490614404565b90915550506011546000901561107957601154610f8e908690612972565b90506000600d60009054906101000a90046001600160a01b03166001600160a01b031663a8dc69746040518163ffffffff1660e01b815260040160206040518083038186803b158015610fe057600080fd5b505afa158015610ff4573d6000803e3d6000fd5b505050506040513d601f19601f820116820180604052508101906110189190613da4565b6001600160a01b03891660009081526004602052604081208054929350849290919061104590849061445b565b90915550506001600160a01b03811660009081526004602052604081208054849290611072908490614404565b9091555050505b604080516001600160a01b03808a1682528a166020820152908101869052606081018290527fe48ca9d6d45765ca2990f9866be78fb36fd23cc17e004d0a20d347ecccb745a89060800160405180910390a1505050509392505050565b60006110e3848484612d3e565b6001600160a01b03841660009081526005602090815260408083203384529091529020548281101561113257604051632b3ca6f360e11b81526004810182905260248101849052604401610cc0565b61113f8533858403612993565b60019150505b9392505050565b3360009081526005602090815260408083206001600160a01b0386168452909152812054819061117d908490614404565b905061118a338583612993565b5060019392505050565b60035460009080156111b257600b546111ad908261297e565b6111bc565b670de0b6b3a76400005b91505090565b6111ca612a42565b60005460ff166111ed576040516306fda65d60e31b815260040160405180910390fd5b6000805460ff19168155600d5460408051636c9adec960e11b815290516001600160a01b039092169163d935bd9291600480820192602092909190829003018186803b15801561123c57600080fd5b505afa158015611250573d6000803e3d6000fd5b505050506040513d601f19601f820116820180604052508101906112749190613da4565b600e549091506001600160a01b03808316911614156112bd57600e54604051637a4ec46360e01b81526001600160a01b0391821660048201529082166024820152604401610cc0565b600e80546001600160a01b0383811673ffffffffffffffffffffffffffffffffffffffff1983168117909355604080519190921680825260208201939093527fd52b2b9b7e9ee655fcb95d2e5b9e0c9f69e7ef2b8e9d2d0ea78402d576d22e2291015b60405180910390a150506000805460ff19166001179055565b600e54600c54604051633a08ab8b60e01b81526001600160a01b0391821660048201526000929190911690633a08ab8b9060240160206040518083038186803b15801561138557600080fd5b505afa158015611399573d6000803e3d6000fd5b505050506040513d601f19601f820116820180604052508101906113bd9190614218565b905090565b60007f00000000000000000000000000000000000000000000000000000000000000006001600160a01b03848116908216146114445760405163d06d9b9360e01b81526001600160a01b0380861660048301527f0000000000000000000000000000000000000000000000000000000000000000166024820152604401610cc0565b6000816001600160a01b0316856001600160a01b03161461146757600019611469565b835b905060006114778783612c19565b1598975050505050505050565b60008061149383600019612c19565b91509150915091565b6000805460ff166114c0576040516306fda65d60e31b815260040160405180910390fd5b6000805460ff19168155600c546040516370a0823160e01b81523060048201526001600160a01b03909116906370a082319060240160206040518083038186803b15801561150d57600080fd5b505afa158015611521573d6000803e3d6000fd5b505050506040513d601f19601f820116820180604052508101906115459190614218565b600a5490915060ff16156116e2576008546009546040516393f1a40b60e01b815260048101919091523060248201526000916001600160a01b0316906393f1a40b90604401604080518083038186803b1580156115a157600080fd5b505afa1580156115b5573d6000803e3d6000fd5b505050506040513d601f19601f820116820180604052508101906115d99190614230565b50600854600954604051631c57762b60e31b81526004810191909152602481018590529192506001600160a01b03169063e2bbb15890604401600060405180830381600087803b15801561162c57600080fd5b505af1158015611640573d6000803e3d6000fd5b50506008546009546040516393f1a40b60e01b81526004810191909152306024820152600093506001600160a01b0390911691506393f1a40b90604401604080518083038186803b15801561169457600080fd5b505afa1580156116a8573d6000803e3d6000fd5b505050506040513d601f19601f820116820180604052508101906116cc9190614230565b5090506116d9828261445b565b925050506116f2565b600b546116ef908261445b565b90505b6117046116fd611194565b829061297e565b91506000821161172a5760405163cd698f4d60e01b815260048101839052602401610cc0565b6117348383612d8f565b60408051828152602081018490526001600160a01b0385169133917f2f00e3cdd69a77be7ed215ec7b2a36784dd158f921fca79ac29deffa353fe6ee91015b60405180910390a350611784612e42565b6000805460ff19166001179055919050565b6001600160a01b038216600090815260046020526040812054808311156117c1576000915050610c54565b60006117cd848361445b565b905060006117dc610ac7611194565b604051637d6af07960e01b81526001600160a01b0388811660048301529192506000917f00000000000000000000000000000000000000000000000000000000000000001690637d6af0799060240160206040518083038186803b15801561184357600080fd5b505afa158015611857573d6000803e3d6000fd5b505050506040513d601f19601f8201168201806040525081019061187b9190614218565b905060006118898383612f0f565b159998505050505050505050565b60005460ff166118ba576040516306fda65d60e31b815260040160405180910390fd5b6000805460ff19169055826118f157604051637476c0cb60e11b815233600482015232602482015260448101849052606401610cc0565b600b5483111561192257600b546040516345a1e23f60e11b8152610cc0918591600401918252602082015260400190565b600a5460ff161561199c57600854600954604051630441a3e760e41b81526001600160a01b039092169163441a3e7091611969918790600401918252602082015260400190565b600060405180830381600087803b15801561198357600080fd5b505af1158015611997573d6000803e3d6000fd5b505050505b600c546119b3906001600160a01b03168585612f89565b8015611a1e5760405163989bebcf60e01b81526001600160a01b0385169063989bebcf906119eb9033908790879087906004016142ea565b600060405180830381600087803b158015611a0557600080fd5b505af1158015611a19573d6000803e3d6000fd5b505050505b3060009081526004602052604081205490611a41611a3a611194565b869061297e565b905080821015611a6e57604051633ff6a11160e01b81526004810183905260248101829052604401610cc0565b611a783083612fdb565b604080513381526001600160a01b03881660208201528082018790526060810184905290517f23cee814a3036d83a7d4ef9ef196affdcccb5fbb5e2ad7ea44df596a079987b49181900360800190a15050611ad1612e42565b50506000805460ff191660011790555050565b6000805460ff16611b08576040516306fda65d60e31b815260040160405180910390fd5b6000805460ff1916815530815260046020526040902054611b31611b2a611194565b8290612972565b915060008211611b57576040516319f4fb4360e31b815260048101839052602401610cc0565b600b54821115611b8857600b546040516339eff09f60e11b8152610cc0918491600401918252602082015260400190565b611b923082612fdb565b600a5460ff1615611c0c57600854600954604051630441a3e760e41b81526001600160a01b039092169163441a3e7091611bd9918690600401918252602082015260400190565b600060405180830381600087803b158015611bf357600080fd5b505af1158015611c07573d6000803e3d6000fd5b505050505b600c54611c23906001600160a01b03168484612f89565b60408051838152602081018390526001600160a01b0385169133917f3f693fff038bb8a046aa76d9516190ac7444f7d69cf952c4cbdc086fdef2d6fc9101611773565b60028054610bc2906144a2565b3360009081526005602090815260408083206001600160a01b0386168452909152812054819061117d90849061445b565b611cac612a42565b60005460ff16611ccf576040516306fda65d60e31b815260040160405180910390fd5b6000805460ff19169055611cf4670de0b6b3a76400006710a741a46278000083613086565b601080549082905560408051828152602081018490527faeba5a6c40a8ac138134bff1aaa65debf25971188a58804bad717f82f0ec13169101611320565b6000610c50338484612d3e565b60005460ff16611d62576040516306fda65d60e31b815260040160405180910390fd5b6000805460ff19169055611d746130c1565b6000611d7e6130e9565b905080611d8b5750612365565b6000611d9e826658d15e17628000612972565b9050611db7336012546001600160a01b03169083612f89565b60125460009081907f00000000000000000000000000000000000000000000000000000000000000006001600160a01b0390811691161480611e2757506012547f00000000000000000000000000000000000000000000000000000000000000006001600160a01b039081169116145b15611ef6576012547f00000000000000000000000000000000000000000000000000000000000000006001600160a01b03908116911614611ea9577f00000000000000000000000000000000000000000000000000000000000000007f0000000000000000000000000000000000000000000000000000000000000000611eec565b7f00000000000000000000000000000000000000000000000000000000000000007f00000000000000000000000000000000000000000000000000000000000000005b9092509050612149565b601254611f36906001600160a01b03167f0000000000000000000000000000000000000000000000000000000000000000611f31868861445b565b61335e565b7f00000000000000000000000000000000000000000000000000000000000000006001600160a01b03167f00000000000000000000000000000000000000000000000000000000000000006001600160a01b03161480611fe757507f00000000000000000000000000000000000000000000000000000000000000006001600160a01b03167f00000000000000000000000000000000000000000000000000000000000000006001600160a01b0316145b1561208c577f00000000000000000000000000000000000000000000000000000000000000006001600160a01b03167f00000000000000000000000000000000000000000000000000000000000000006001600160a01b031614611ea9577f00000000000000000000000000000000000000000000000000000000000000007f0000000000000000000000000000000000000000000000000000000000000000611eec565b6121037f00000000000000000000000000000000000000000000000000000000000000007f0000000000000000000000000000000000000000000000000000000000000000611f317f00000000000000000000000000000000000000000000000000000000000000006001600160a01b031661349c565b507f000000000000000000000000000000000000000000000000000000000000000090507f00000000000000000000000000000000000000000000000000000000000000005b600061215d836001600160a01b031661349c565b9050600080600c60009054906101000a90046001600160a01b03166001600160a01b0316630902f1ac6040518163ffffffff1660e01b815260040160606040518083038186803b1580156121b057600080fd5b505afa1580156121c4573d6000803e3d6000fd5b505050506040513d601f19601f820116820180604052508101906121e891906141be565b506dffffffffffffffffffffffffffff1691506dffffffffffffffffffffffffffff16915060007f00000000000000000000000000000000000000000000000000000000000000006001600160a01b0316866001600160a01b03161461224e5781612250565b825b905060006122618583601454613516565b905061226e87878361335e565b6000612296888861227f858a61445b565b6122918b6001600160a01b031661349c565b6135b4565b600854600954604051631c57762b60e31b81526004810191909152602481018390529192506001600160a01b03169063e2bbb15890604401600060405180830381600087803b1580156122e857600080fd5b505af11580156122fc573d6000803e3d6000fd5b50505050306001600160a01b03167f6ac14c64e9542da5b5d0624113aec83684dd471c3d8c61022ae5d78fa15237926123323390565b604080516001600160a01b039092168252602082018e905281018c905260600160405180910390a2505050505050505050505b61236d612e42565b6000805460ff19166001179055565b60005460ff1661239f576040516306fda65d60e31b815260040160405180910390fd5b6000805460ff19168155600b5430825260046020526040909120546123dd9183916123ca919061445b565b600c546001600160a01b03169190612f89565b506000805460ff19166001179055565b6001600160a01b0387166124145760405163bc622b6360e01b815260040160405180910390fd5b6001600160a01b03861661243b57604051632853494b60e11b815260040160405180910390fd5b4284101561245f5760405163212ed8bb60e11b815260048101859052602401610cc0565b6001600160a01b0387811660008181526006602090815260408083208054600180820190925582517f6e71edae12b1b97f4d1f60370fef10105fa2faae0126114a169c64845d6126c98186015280840196909652958c166060860152608085018b905260a085019590955260c08085018a90528151808603909101815260e08501825280519083012061190160f01b6101008601527f000000000000000000000000000000000000000000000000000000000000000061010286015261012280860182905282518087039091018152610142860180845281519185019190912090859052610162860180845281905260ff8a166101828701526101a286018990526101c2860188905291519095919491926101e2808401939192601f1981019281900390910190855afa15801561259a573d6000803e3d6000fd5b5050604051601f1901519150506001600160a01b0381166125ce57604051630f81234f60e31b815260040160405180910390fd5b896001600160a01b0316816001600160a01b03161461261357604051630b76193960e31b815260ff871660048201526024810186905260448101859052606401610cc0565b61261e8a8a8a612993565b50505050505050505050565b612632612a42565b60005460ff16612655576040516306fda65d60e31b815260040160405180910390fd5b6000805460ff1916905561267a6706f05b59d3b20000670de0b6b3a764000083613086565b600f80549082905560408051828152602081018490527ff25d2243e4128e51523d8537f04f18c3e6390bbfc6323390a9a8e59b921ce0469101611320565b6126c0612a42565b60005460ff166126e3576040516306fda65d60e31b815260040160405180910390fd5b6000805460ff191681556127009067016345785d8a000083613086565b601180549082905560408051828152602081018490527f87272249f1056ec16a68dd9255101358246dd26a796e2f0bc6b3a0ad02f2de419101611320565b60005460ff16612761576040516306fda65d60e31b815260040160405180910390fd5b6000805460ff1916905561236d612e42565b60606000826001600160a01b0316630dfe16816040518163ffffffff1660e01b815260040160206040518083038186803b1580156127b057600080fd5b505afa1580156127c4573d6000803e3d6000fd5b505050506040513d601f19601f820116820180604052508101906127e89190613da4565b6001600160a01b03166395d89b416040518163ffffffff1660e01b815260040160006040518083038186803b15801561282057600080fd5b505afa158015612834573d6000803e3d6000fd5b505050506040513d6000823e601f3d908101601f1916820160405261285c919081019061412e565b90506000836001600160a01b031663d21220a76040518163ffffffff1660e01b815260040160206040518083038186803b15801561289957600080fd5b505afa1580156128ad573d6000803e3d6000fd5b505050506040513d601f19601f820116820180604052508101906128d19190613da4565b6001600160a01b03166395d89b416040518163ffffffff1660e01b815260040160006040518083038186803b15801561290957600080fd5b505afa15801561291d573d6000803e3d6000fd5b505050506040513d6000823e601f3d908101601f19168201604052612945919081019061412e565b9050818160405160200161295a92919061429c565b60405160208183030381529060405292505050919050565b600061114583836136a7565b600061114583670de0b6b3a764000084613769565b6001600160a01b0383166129ba5760405163230326bf60e11b815260040160405180910390fd5b6001600160a01b0382166129e157604051630b39ecd960e21b815260040160405180910390fd5b6001600160a01b0383811660008181526005602090815260408083209487168084529482529182902085905590518481527f8c5be1e5ebec7d5bd14f71427d1e84f3dd0314c0f7b2291e5b200ac8c7c3b925910160405180910390a3505050565b600d54604080516303e1469160e61b815290516000926001600160a01b03169163f851a440916004808301926020929190829003018186803b158015612a8757600080fd5b505afa158015612a9b573d6000803e3d6000fd5b505050506040513d601f19601f82011682018060405250810190612abf9190613da4565b9050336001600160a01b03821614612afb57604051633e7c764160e21b81523360048201526001600160a01b0382166024820152604401610cc0565b50565b604080516001600160a01b038481166024830152604480830185905283518084039091018152606490920183526020820180516001600160e01b031663095ea7b360e01b1790529151600092839290871691612b5a9190614280565b6000604051808303816000865af19150503d8060008114612b97576040519150601f19603f3d011682016040523d82523d6000602084013e612b9c565b606091505b5091509150818015612bc6575080511580612bc6575080806020019051810190612bc691906140b4565b612c125760405162461bcd60e51b815260206004820152600c60248201527f2173616665417070726f766500000000000000000000000000000000000000006044820152606401610cc0565b5050505050565b6000806001600160a01b038416612c545760405163a5075cd160e01b81526001600160a01b0385166004820152326024820152604401610cc0565b600019831415612cfa57604051637d6af07960e01b81526001600160a01b0385811660048301527f00000000000000000000000000000000000000000000000000000000000000001690637d6af0799060240160206040518083038186803b158015612cbf57600080fd5b505afa158015612cd3573d6000803e3d6000fd5b505050506040513d601f19601f82011682018060405250810190612cf79190614218565b92505b6000612d25612d07611194565b6001600160a01b038716600090815260046020526040902054610ab2565b9050612d318185612f0f565b92509250505b9250929050565b612d488382611796565b612d7f57604051633595d14560e21b81526001600160a01b0380851660048301528316602482015260448101829052606401610cc0565b612d8a838383613845565b505050565b6001600160a01b038216612db65760405163139241eb60e01b815260040160405180910390fd5b6001600160a01b03821660009081526004602052604081208054839290612dde908490614404565b925050819055508060036000828254612df79190614404565b90915550506040518181526001600160a01b038316906000907fddf252ad1be2c89b69c2b068fc378daa952ba7f163c4a11628f55a4df523b3ef906020015b60405180910390a35050565b600a5460ff16612e4e57565b6008546009546040516393f1a40b60e01b815260048101919091523060248201526001600160a01b03909116906393f1a40b90604401604080518083038186803b158015612e9b57600080fd5b505afa158015612eaf573d6000803e3d6000fd5b505050506040513d601f19601f82011682018060405250810190612ed39190614230565b50600b8190556040519081527f8a0df8ef054fae2c3d2d19a7b322e864870cc9fd3cb07fb9526309c596244bf49060200160405180910390a15b565b6000806000612f1c611339565b90506000612f2a8683612972565b90506000612f43600f548361297290919063ffffffff16565b90506000612f61601154601054612f5a9190614404565b8890612972565b9050808210612f7a579003935060009250612d37915050565b60009550039250612d37915050565b604080516001600160a01b038416602482015260448082018490528251808303909101815260649091019091526020810180516001600160e01b031663a9059cbb60e01b179052612d8a908490613968565b6001600160a01b03821661300257604051638e35e80360e01b815260040160405180910390fd5b6001600160a01b0382166000908152600460205260408120805483929061302a90849061445b565b925050819055508060036000828254613043919061445b565b90915550506040518181526000906001600160a01b038416907fddf252ad1be2c89b69c2b068fc378daa952ba7f163c4a11628f55a4df523b3ef90602001612e36565b8281108061309357508181115b15612d8a5760405162ccc44d60e41b8152600481018490526024810183905260448101829052606401610cc0565b333214612f0d57604051631fec819f60e21b8152336004820152326024820152604401610cc0565b600854600954604051630441a3e760e41b81526004810191909152600060248201819052916001600160a01b03169063441a3e7090604401600060405180830381600087803b15801561313b57600080fd5b505af115801561314f573d6000803e3d6000fd5b5050600854600954604051631526fe2760e01b81526004810191909152600093506001600160a01b039091169150631526fe27906024016101206040518083038186803b15801561319f57600080fd5b505afa1580156131b3573d6000803e3d6000fd5b505050506040513d601f19601f820116820180604052508101906131d79190613f5c565b5050509550505050505060006001600160a01b0316816001600160a01b031614613349576000816001600160a01b03166373cfc6b26040518163ffffffff1660e01b815260040160206040518083038186803b15801561323657600080fd5b505afa15801561324a573d6000803e3d6000fd5b505050506040513d601f19601f8201168201806040525081019061326e91906140b4565b90506000816132ed57826001600160a01b031663f7c618c16040518163ffffffff1660e01b815260040160206040518083038186803b1580156132b057600080fd5b505afa1580156132c4573d6000803e3d6000fd5b505050506040513d601f19601f820116820180604052508101906132e89190613da4565b61330f565b7f00000000000000000000000000000000000000000000000000000000000000005b90506000613325826001600160a01b031661349c565b90508015613345576012546133459083906001600160a01b03168361335e565b5050505b6012546111bc906001600160a01b031661349c565b60408051600280825260608201835260009260208301908036833701905050905083816000815181106133a157634e487b7160e01b600052603260045260246000fd5b60200260200101906001600160a01b031690816001600160a01b03168152505082816001815181106133e357634e487b7160e01b600052603260045260246000fd5b6001600160a01b03928316602091820292909201015260135461340b918681169116846139e5565b6013546040516338ed173960e01b81526001600160a01b03909116906338ed1739906134469085906000908690309060001990600401614363565b600060405180830381600087803b15801561346057600080fd5b505af1158015613474573d6000803e3d6000fd5b505050506040513d6000823e601f3d908101601f19168201604052612c12919081019061400c565b6040516370a0823160e01b81523060048201526000906001600160a01b038316906370a082319060240160206040518083038186803b1580156134de57600080fd5b505afa1580156134f2573d6000803e3d6000fd5b505050506040513d601f19601f82011682018060405250810190610c549190614218565b60008083613526846103e8614404565b613530919061443c565b905060008385613542886103e861443c565b61354c919061443c565b61355790600461443c565b613561919061443c565b9050600061358282613573858061443c565b61357d9190614404565b613a7e565b9050600061359186600261443c565b90508061359e858461445b565b6135a8919061441c565b98975050505050505050565b6013546000906135d1906001600160a01b038781169116856139e5565b6013546135eb906001600160a01b038681169116846139e5565b60135460405162e8e33760e81b81526001600160a01b0387811660048301528681166024830152604482018690526064820185905260006084830181905260a48301523060c483015260001960e48301529091169063e8e337009061010401606060405180830381600087803b15801561366457600080fd5b505af1158015613678573d6000803e3d6000fd5b505050506040513d601f19601f8201168201806040525081019061369c9190614253565b979650505050505050565b60008080600019848609848602925082811083820303915050670de0b6b3a764000081106136eb5760405163698d9a0160e11b815260048101829052602401610cc0565b600080670de0b6b3a76400008688099150506706f05b59d3b1ffff8111826137255780670de0b6b3a7640000850401945050505050610c54565b620400008285030493909111909103600160ee1b02919091177faccb18165bd6fe31ae1cf318dc5b51eee0e1ba569b88cd74c1773b91fac106690201905092915050565b6000808060001985870985870292508281108382030391505080600014156137b2578382816137a857634e487b7160e01b600052601260045260246000fd5b0492505050611145565b8381106137dc57604051631dcf306360e21b81526004810182905260248101859052604401610cc0565b60008486880960026001871981018816978890046003810283188082028403028082028403028082028403028082028403028082028403029081029092039091026000889003889004909101858311909403939093029303949094049190911702949350505050565b6001600160a01b03831661386c5760405163907bfbd760e01b815260040160405180910390fd5b6001600160a01b03821661389357604051637184c13f60e01b815260040160405180910390fd5b6001600160a01b038316600090815260046020526040902054818110156138d757604051632dcf2e2160e21b81526004810182905260248101839052604401610cc0565b6001600160a01b0380851660009081526004602052604080822085850390559185168152908120805484929061390e908490614404565b92505081905550826001600160a01b0316846001600160a01b03167fddf252ad1be2c89b69c2b068fc378daa952ba7f163c4a11628f55a4df523b3ef8460405161395a91815260200190565b60405180910390a350505050565b60006139aa83836040518060400160405280601581526020017f5361666545726332304c6f774c6576656c43616c6c0000000000000000000000815250613c76565b805190915015612d8a57808060200190518101906139c891906140b4565b612d8a576040516364d6fc4d60e01b815260040160405180910390fd5b604051636eb1769f60e11b81523060048201526001600160a01b03838116602483015282919085169063dd62ed3e9060440160206040518083038186803b158015613a2f57600080fd5b505afa158015613a43573d6000803e3d6000fd5b505050506040513d601f19601f82011682018060405250810190613a679190614218565b10613a7157505050565b612d8a8383600019612afe565b600081613a8d57506000919050565b506001817001000000000000000000000000000000008110613ab45760409190911b9060801c5b680100000000000000008110613acf5760209190911b9060401c5b6401000000008110613ae65760109190911b9060201c5b620100008110613afb5760089190911b9060101c5b6101008110613b0f5760049190911b9060081c5b60108110613b225760029190911b9060041c5b60088110613b3257600182901b91505b6001828481613b5157634e487b7160e01b600052601260045260246000fd5b048301901c91506001828481613b7757634e487b7160e01b600052601260045260246000fd5b048301901c91506001828481613b9d57634e487b7160e01b600052601260045260246000fd5b048301901c91506001828481613bc357634e487b7160e01b600052601260045260246000fd5b048301901c91506001828481613be957634e487b7160e01b600052601260045260246000fd5b048301901c91506001828481613c0f57634e487b7160e01b600052601260045260246000fd5b048301901c91506001828481613c3557634e487b7160e01b600052601260045260246000fd5b048301901c91506000828481613c5b57634e487b7160e01b600052601260045260246000fd5b04905080831015613c6c5782613c6e565b805b949350505050565b60606001600160a01b0384163b613cab57604051638201cc0560e01b81526001600160a01b0385166004820152602401610cc0565b600080856001600160a01b031685604051613cc69190614280565b6000604051808303816000865af19150503d8060008114613d03576040519150601f19603f3d011682016040523d82523d6000602084013e613d08565b606091505b50915091508115613d1c5791506111459050565b805115613d2c5780518082602001fd5b8360405162461bcd60e51b8152600401610cc09190614330565b8051613d5181614509565b919050565b80516dffffffffffffffffffffffffffff81168114613d5157600080fd5b805163ffffffff81168114613d5157600080fd5b600060208284031215613d99578081fd5b813561114581614509565b600060208284031215613db5578081fd5b815161114581614509565b60008060408385031215613dd2578081fd5b8235613ddd81614509565b91506020830135613ded81614509565b809150509250929050565b600080600060608486031215613e0c578081fd5b8335613e1781614509565b92506020840135613e2781614509565b929592945050506040919091013590565b600080600080600080600060e0888a031215613e52578283fd5b8735613e5d81614509565b96506020880135613e6d81614509565b95506040880135945060608801359350608088013560ff81168114613e90578384fd5b9699959850939692959460a0840135945060c09093013592915050565b60008060408385031215613ebf578182fd5b8235613eca81614509565b946020939093013593505050565b60008060008060608587031215613eed578182fd5b8435613ef881614509565b935060208501359250604085013567ffffffffffffffff80821115613f1b578384fd5b818701915087601f830112613f2e578384fd5b813581811115613f3c578485fd5b886020828501011115613f4d578485fd5b95989497505060200194505050565b60008060008060008060008060006101208a8c031215613f7a578283fd5b8951613f8581614509565b60208b01519099506bffffffffffffffffffffffff81168114613fa6578384fd5b8098505060408a0151965060608a0151955060808a015167ffffffffffffffff81168114613fd2578384fd5b9450613fe060a08b01613d46565b9350613fee60c08b01613d74565b925060e08a015191506101008a015190509295985092959850929598565b6000602080838503121561401e578182fd5b825167ffffffffffffffff80821115614035578384fd5b818501915085601f830112614048578384fd5b81518181111561405a5761405a6144f3565b8060051b915061406b8483016143d3565b8181528481019084860184860187018a1015614085578788fd5b8795505b838610156140a7578051835260019590950194918601918601614089565b5098975050505050505050565b6000602082840312156140c5578081fd5b81518015158114611145578182fd5b600080600080600060a086880312156140eb578283fd5b85356140f681614509565b9450602086013561410681614509565b9350604086013561411681614509565b94979396509394606081013594506080013592915050565b60006020828403121561413f578081fd5b815167ffffffffffffffff80821115614156578283fd5b818401915084601f830112614169578283fd5b81518181111561417b5761417b6144f3565b61418e601f8201601f19166020016143d3565b91508082528560208285010111156141a4578384fd5b6141b5816020840160208601614472565b50949350505050565b6000806000606084860312156141d2578081fd5b6141db84613d56565b92506141e960208501613d56565b91506141f760408501613d74565b90509250925092565b600060208284031215614211578081fd5b5035919050565b600060208284031215614229578081fd5b5051919050565b60008060408385031215614242578182fd5b505080516020909101519092909150565b600080600060608486031215614267578081fd5b8351925060208401519150604084015190509250925092565b60008251614292818460208701614472565b9190910192915050565b65021bcb3a628160d51b8152600083516142bd816006850160208801614472565b602f60f81b60069184019182015283516142de816007840160208801614472565b01600701949350505050565b6001600160a01b038516815283602082015260606040820152816060820152818360808301376000818301608090810191909152601f909201601f191601019392505050565b602081526000825180602084015261434f816040850160208701614472565b601f01601f19169190910160400192915050565b600060a082018783526020878185015260a0604085015281875180845260c0860191508289019350845b818110156143b25784516001600160a01b03168352938301939183019160010161438d565b50506001600160a01b03969096166060850152505050608001529392505050565b604051601f8201601f1916810167ffffffffffffffff811182821017156143fc576143fc6144f3565b604052919050565b60008219821115614417576144176144dd565b500190565b60008261443757634e487b7160e01b81526012600452602481fd5b500490565b6000816000190483118215151615614456576144566144dd565b500290565b60008282101561446d5761446d6144dd565b500390565b60005b8381101561448d578181015183820152602001614475565b8381111561449c576000848401525b50505050565b600181811c908216806144b657607f821691505b602082108114156144d757634e487b7160e01b600052602260045260246000fd5b50919050565b634e487b7160e01b600052601160045260246000fd5b634e487b7160e01b600052604160045260246000fd5b6001600160a01b0381168114612afb57600080fdfea2646970667358221220db4bb9fb89b0b03609ffb0f3617c030348aa399e8d37490ecea495376a17191664736f6c63430008040033a26469706673582212203cd25ef2e3bdd1a3b434858e349b678fd217c657b33f7af14f622f1e3d953b5864736f6c63430008040033",
  "linkReferences": {},
  "deployedLinkReferences": {}
}