{
  "_format": "hh-sol-artifact-1",
  "contractName": "CygnusDeneb",
  "sourceName": "contracts/cygnus-core/CygnusDeneb.sol",
  "abi": [
    {
      "inputs": [],
      "name": "ReentrantCall",
      "type": "error"
    },
    {
      "inputs": [],
      "name": "COLLATERAL_INIT_CODE_HASH",
      "outputs": [
        {
          "internalType": "bytes32",
          "name": "",
          "type": "bytes32"
        }
      ],
      "stateMutability": "view",
      "type": "function"
    },
    {
      "inputs": [],
      "name": "collateralParameters",
      "outputs": [
        {
          "internalType": "address",
          "name": "factory",
          "type": "address"
        },
        {
          "internalType": "address",
          "name": "underlying",
          "type": "address"
        },
        {
          "internalType": "address",
          "name": "cygnusDai",
          "type": "address"
        }
      ],
      "stateMutability": "view",
      "type": "function"
    },
    {
      "inputs": [
        {
          "internalType": "address",
          "name": "underlying",
          "type": "address"
        },
        {
          "internalType": "address",
          "name": "cygnusDai",
          "type": "address"
        }
      ],
      "name": "deployDeneb",
      "outputs": [
        {
          "internalType": "address",
          "name": "collateral",
          "type": "address"
        }
      ],
      "stateMutability": "nonpayable",
      "type": "function"
    }
  ],
  "bytecode": "0x608060405234801561001057600080fd5b506000805460ff1916600117905561533c8061002d6000396000f3fe60806040523480156200001157600080fd5b5060043610620000465760003560e01c806310df4f52146200004b5780632e5e9b451462000068578063c3bc64ea1462000098575b600080fd5b62000055620000e4565b6040519081526020015b60405180910390f35b6200007f620000793660046200024f565b62000113565b6040516001600160a01b0390911681526020016200005f565b600154600254600354620000b9926001600160a01b03908116928116911683565b604080516001600160a01b03948516815292841660208401529216918101919091526060016200005f565b604051620000f56020820162000224565b6020820181038252601f19601f820116604052508051906020012081565b6000805460ff1662000138576040516306fda65d60e31b815260040160405180910390fd5b6000805460ff191690556040805160608082018352338083526001600160a01b038781166020808601829052918816948601859052600180546001600160a01b031990811685179091556002805482168317905560038054909116909517909455845180820194909452838501919091528351808403850181529290910192839052815191012090620001cb9062000224565b8190604051809103906000f5905080158015620001ec573d6000803e3d6000fd5b50600180546001600160a01b0319908116825560028054821690556003805490911690556000805460ff191690911790559392505050565b615080806200028783390190565b80356001600160a01b03811681146200024a57600080fd5b919050565b6000806040838503121562000262578182fd5b6200026d8362000232565b91506200027d6020840162000232565b9050925092905056fe61014060405246600755670c7d713b49da0000600f55670e92596fd62900006010553480156200002e57600080fd5b5060408051808201825260128082527110de59db9d5cce8810dbdb1b185d195c985b60721b60208084019182528451808601909552600585526404379674c560dc1b908501526000805460ff191660019081179091558351939493859285928592859285928592620000a19290620006f1565b508151620000b7906002906020850190620006f1565b5060f81b7fff000000000000000000000000000000000000000000000000000000000000001660805250506040517f8b73c3c69bb8fe3d512ecc4cf759cc79239f7b179b0ffacaa9a75d522b39400f906200011590600190620008c4565b60408051918290038220828201825260018352603160f81b602093840152600754825193840194909452908201527fc89efdaa54c0f20c7adf612882df0950f5a951637e0307cdcb4c672f298b8bc6606082015260808101919091523060a082015260c00160408051601f19818403018152919052805160209091012060a05250620001a7945050620004dc92505050565b6001600160a01b031663c3bc64ea6040518163ffffffff1660e01b8152600401606060405180830381600087803b158015620001e257600080fd5b505af1158015620001f7573d6000803e3d6000fd5b505050506040513d601f19601f820116820180604052508101906200021d9190620007bd565b60601b6001600160601b03191660c052600c80546001600160a01b03199081166001600160a01b0393841617909155600d805490911692909116918217905560408051636c9adec960e11b8152905163d935bd9291600480820192602092909190829003018186803b1580156200029357600080fd5b505afa158015620002a8573d6000803e3d6000fd5b505050506040513d601f19601f82011682018060405250810190620002ce919062000797565b600e80546001600160a01b0319166001600160a01b03928316179055600c54620003059116620004e0602090811b620026a417901c565b80516200031b91600291602090910190620006f1565b506000600355600c5460408051630dfe168160e01b815290516001600160a01b0390921691630dfe168191600480820192602092909190829003018186803b1580156200036757600080fd5b505afa1580156200037c573d6000803e3d6000fd5b505050506040513d601f19601f82011682018060405250810190620003a2919062000797565b60601b6001600160601b03191661010052600c546040805163d21220a760e01b815290516001600160a01b039092169163d21220a791600480820192602092909190829003018186803b158015620003f957600080fd5b505afa1580156200040e573d6000803e3d6000fd5b505050506040513d601f19601f8201168201806040525081019062000434919062000797565b60601b6001600160601b03191661012052600d5460408051631c2eb17b60e31b815290516001600160a01b039092169163e1758bd891600480820192602092909190829003018186803b1580156200048b57600080fd5b505afa158015620004a0573d6000803e3d6000fd5b505050506040513d601f19601f82011682018060405250810190620004c6919062000797565b60601b6001600160601b03191660e05262000a58565b3390565b60606000826001600160a01b0316630dfe16816040518163ffffffff1660e01b815260040160206040518083038186803b1580156200051e57600080fd5b505afa15801562000533573d6000803e3d6000fd5b505050506040513d601f19601f8201168201806040525081019062000559919062000797565b6001600160a01b03166395d89b416040518163ffffffff1660e01b815260040160006040518083038186803b1580156200059257600080fd5b505afa158015620005a7573d6000803e3d6000fd5b505050506040513d6000823e601f3d908101601f19168201604052620005d1919081019062000810565b90506000836001600160a01b031663d21220a76040518163ffffffff1660e01b815260040160206040518083038186803b1580156200060f57600080fd5b505afa15801562000624573d6000803e3d6000fd5b505050506040513d601f19601f820116820180604052508101906200064a919062000797565b6001600160a01b03166395d89b416040518163ffffffff1660e01b815260040160006040518083038186803b1580156200068357600080fd5b505afa15801562000698573d6000803e3d6000fd5b505050506040513d6000823e601f3d908101601f19168201604052620006c2919081019062000810565b90508181604051602001620006d992919062000967565b60405160208183030381529060405292505050919050565b828054620006ff90620009ec565b90600052602060002090601f0160209004810192826200072357600085556200076e565b82601f106200073e57805160ff19168380011785556200076e565b828001600101855582156200076e579182015b828111156200076e57825182559160200191906001019062000751565b506200077c92915062000780565b5090565b5b808211156200077c576000815560010162000781565b600060208284031215620007a9578081fd5b8151620007b68162000a3f565b9392505050565b600080600060608486031215620007d2578182fd5b8351620007df8162000a3f565b6020850151909350620007f28162000a3f565b6040850151909250620008058162000a3f565b809150509250925092565b60006020828403121562000822578081fd5b81516001600160401b038082111562000839578283fd5b818401915084601f8301126200084d578283fd5b81518181111562000862576200086262000a29565b604051601f8201601f19908116603f011681019083821181831017156200088d576200088d62000a29565b81604052828152876020848701011115620008a6578586fd5b620008b9836020830160208801620009b9565b979650505050505050565b600080835482600182811c915080831680620008e157607f831692505b60208084108214156200090257634e487b7160e01b87526022600452602487fd5b8180156200091957600181146200092b5762000959565b60ff1986168952848901965062000959565b60008a815260209020885b86811015620009515781548b82015290850190830162000936565b505084890196505b509498975050505050505050565b65021bcb3a628160d51b8152600083516200098a816006850160208801620009b9565b602f60f81b6006918401918201528351620009ad816007840160208801620009b9565b01600701949350505050565b60005b83811015620009d6578181015183820152602001620009bc565b83811115620009e6576000848401525b50505050565b600181811c9082168062000a0157607f821691505b6020821081141562000a2357634e487b7160e01b600052602260045260246000fd5b50919050565b634e487b7160e01b600052604160045260246000fd5b6001600160a01b038116811462000a5557600080fd5b50565b60805160f81c60a05160c05160601c60e05160601c6101005160601c6101205160601c6144f762000b8960003960008181611d3d01528181611da801528181611e1001528181611f0101528181611f8b015261206d015260008181611d0501528181611d7501528181611dc901528181611def01528181611ea601528181611f5c01528181611fac01528181611ff60152818161204a01526121470152600081816102d401528181610ca101528181611e4c01528181611e7c01528181611ed701528181611f3201528181611fd50152818161201a01526131e401526000818161087401528181610a6c01528181610d9801528181610dc80152818161130d015281816113420152818161172e0152612b8301526000818161057101526124270152600061050f01526144f76000f3fe6080604052600436106102cd5760003560e01c80637ecebe0011610175578063afc8276c116100dc578063d505accf11610095578063e8a24e1d1161006f578063e8a24e1d1461099f578063eb6a887d146109bf578063fef0bec8146109df578063fff6cae9146109ff57600080fd5b8063d505accf14610919578063d935bd9214610939578063dd62ed3e1461095957600080fd5b8063afc8276c14610896578063b5f4d38c146108b2578063bc25cf77146108c7578063bc9bd12a146108e7578063cea55f5714610903578063cf85c882146108e757600080fd5b8063a36a36301161012e578063a36a3630146107d6578063a457c2d7146107ec578063a84310811461080c578063a9059cbb1461082c578063ad7a672f1461084c578063adbb25971461086257600080fd5b80637ecebe00146107285780638c765e94146107555780638e5c25321461076b57806395a2251f1461078b57806395d89b41146107ab5780639a8a0592146107c057600080fd5b80633644e5151161023457806358654e0f116101ed5780636a627842116101c75780636a627842146106905780636e01be10146106b05780636f307dc3146106d057806370a082311461070857600080fd5b806358654e0f1461061f5780635ec88c791461063f578063643211f21461067457600080fd5b80633644e5151461055f57806339509351146105935780633ba0b9a9146105b3578063421f0fcc146105c857806351303622146105dd57806354fd4d50146105f257600080fd5b80631c198188116102865780631c1981881461046e57806322610b781461048957806323b872dd146104a957806330adf81f146104c9578063313ce567146104fd57806333fabfd11461054357600080fd5b8063031a5c821461034d57806306fdde0314610380578063095ea7b3146103a257806315b02cf5146103d257806318160ddd146103f45780631995bc1a1461040a57600080fd5b36610348577f00000000000000000000000000000000000000000000000000000000000000006001600160a01b031663d0e30db0346040518263ffffffff1660e01b81526004016000604051808303818588803b15801561032d57600080fd5b505af1158015610341573d6000803e3d6000fd5b5050505050005b600080fd5b34801561035957600080fd5b5061036d610368366004613d0f565b610a14565b6040519081526020015b60405180910390f35b34801561038c57600080fd5b50610395610b2e565b60405161037791906142d3565b3480156103ae57600080fd5b506103c26103bd366004613e34565b610bbc565b6040519015158152602001610377565b3480156103de57600080fd5b506103f26103ed36600461405b565b610bd3565b005b34801561040057600080fd5b5061036d60035481565b34801561041657600080fd5b50600854600954600a54601254601454601354604080516001600160a01b039788168152602081019690965260ff909416151593850193909352908416606084015260808301529190911660a082015260c001610377565b34801561047a57600080fd5b5061036d6658d15e1762800081565b34801561049557600080fd5b5061036d6104a4366004613d7f565b610d5e565b3480156104b557600080fd5b506103c26104c4366004613d7f565b611035565b3480156104d557600080fd5b5061036d7f6e71edae12b1b97f4d1f60370fef10105fa2faae0126114a169c64845d6126c981565b34801561050957600080fd5b506105317f000000000000000000000000000000000000000000000000000000000000000081565b60405160ff9091168152602001610377565b34801561054f57600080fd5b5061036d67016345785d8a000081565b34801561056b57600080fd5b5061036d7f000000000000000000000000000000000000000000000000000000000000000081565b34801561059f57600080fd5b506103c26105ae366004613e34565b6110ab565b3480156105bf57600080fd5b5061036d6110f3565b3480156105d457600080fd5b506103f2611121565b3480156105e957600080fd5b5061036d611280565b3480156105fe57600080fd5b50610395604051806040016040528060018152602001603160f81b81525081565b34801561062b57600080fd5b506103c261063a366004613d7f565b611309565b34801561064b57600080fd5b5061065f61065a366004613d0f565b6113bc565b60408051928352602083019190915201610377565b34801561068057600080fd5b5061036d6706f05b59d3b2000081565b34801561069c57600080fd5b5061036d6106ab366004613d0f565b6113d4565b3480156106bc57600080fd5b506103c26106cb366004613e34565b6116ce565b3480156106dc57600080fd5b50600c546106f0906001600160a01b031681565b6040516001600160a01b039091168152602001610377565b34801561071457600080fd5b5061036d610723366004613d0f565b6117c4565b34801561073457600080fd5b5061036d610743366004613d0f565b60066020526000908152604090205481565b34801561076157600080fd5b5061036d60105481565b34801561077757600080fd5b506103f2610786366004613e5f565b6117df565b34801561079757600080fd5b5061036d6107a6366004613d0f565b611a2a565b3480156107b757600080fd5b50610395611baa565b3480156107cc57600080fd5b5061036d60075481565b3480156107e257600080fd5b5061036d60115481565b3480156107f857600080fd5b506103c2610807366004613e34565b611bb7565b34801561081857600080fd5b506103f2610827366004614187565b611be8565b34801561083857600080fd5b506103c2610847366004613e34565b611c76565b34801561085857600080fd5b5061036d600b5481565b34801561086e57600080fd5b506106f07f000000000000000000000000000000000000000000000000000000000000000081565b3480156108a257600080fd5b5061036d6710a741a46278000081565b3480156108be57600080fd5b506103f2611c83565b3480156108d357600080fd5b506103f26108e2366004613d0f565b6122b2565b3480156108f357600080fd5b5061036d670de0b6b3a764000081565b34801561090f57600080fd5b5061036d600f5481565b34801561092557600080fd5b506103f2610934366004613dbf565b61231e565b34801561094557600080fd5b50600e546106f0906001600160a01b031681565b34801561096557600080fd5b5061036d610974366004613d47565b6001600160a01b03918216600090815260056020908152604080832093909416825291909152205490565b3480156109ab57600080fd5b50600d546106f0906001600160a01b031681565b3480156109cb57600080fd5b506103f26109da366004614187565b61255b565b3480156109eb57600080fd5b506103f26109fa366004614187565b6125e9565b348015610a0b57600080fd5b506103f261266f565b600080610a31610a226110f3565b610a2b856117c4565b906128a3565b90506000610a47610a40611280565b83906128a3565b604051637d6af07960e01b81526001600160a01b0386811660048301529192506000917f00000000000000000000000000000000000000000000000000000000000000001690637d6af0799060240160206040518083038186803b158015610aae57600080fd5b505afa158015610ac2573d6000803e3d6000fd5b505050506040513d601f19601f82011682018060405250810190610ae6919061419f565b90506000610afd601154601054610a4091906143a7565b90508215610b2157600f54610b1c90610b1683866128af565b906128af565b610b24565b60005b9695505050505050565b60018054610b3b90614445565b80601f0160208091040260200160405190810160405280929190818152602001828054610b6790614445565b8015610bb45780601f10610b8957610100808354040283529160200191610bb4565b820191906000526020600020905b815481529060010190602001808311610b9757829003601f168201915b505050505081565b6000610bc93384846128c4565b5060015b92915050565b60005460ff16610bf6576040516306fda65d60e31b815260040160405180910390fd5b6000805460ff19169055610c08612973565b6012546001600160a01b031615610c42576040516327d04a1160e01b81526001600160a01b03841660048201526024015b60405180910390fd5b601380546001600160a01b038088166001600160a01b0319928316179092556008805487841690831617905560098490556012805492861692909116821790556014829055610c949086600019612a22565b610cca6001600160a01b037f00000000000000000000000000000000000000000000000000000000000000001686600019612a22565b600c54610ce3906001600160a01b031685600019612a22565b600a805460ff19166001179055604080516001600160a01b0387811682528681166020830152851681830152606081018490526080810183905290517fd11ba4f3abfc78cb044532e87016a0c93a03fbbb5049a35d53fb1238d9ac66529160a0908290030190a150506000805460ff19166001179055505050565b6000336001600160a01b0384161415610d955760405163524f438760e11b81526001600160a01b0384166004820152602401610c39565b337f00000000000000000000000000000000000000000000000000000000000000006001600160a01b031614610e0257337f000000000000000000000000000000000000000000000000000000000000000060405163f0f84ccf60e01b8152600401610c39929190614271565b600080610e1185600019612b2c565b9150915060008111610e40576040516311ef27af60e31b81526004810183905260006024820152604401610c39565b6000610e4a611280565b9050610e546110f3565b601054610e6187846128af565b610e6b91906143df565b610e7591906143bf565b6001600160a01b038716600090815260046020526040812080549296508692909190610ea29084906143fe565b90915550506001600160a01b03871660009081526004602052604081208054869290610ecf9084906143a7565b909155505060115460009015610fd857601154610eed9086906128a3565b90506000600d60009054906101000a90046001600160a01b03166001600160a01b031663a8dc69746040518163ffffffff1660e01b815260040160206040518083038186803b158015610f3f57600080fd5b505afa158015610f53573d6000803e3d6000fd5b505050506040513d601f19601f82011682018060405250810190610f779190613d2b565b6001600160a01b038916600090815260046020526040812080549293508492909190610fa49084906143fe565b90915550506001600160a01b03811660009081526004602052604081208054849290610fd19084906143a7565b9091555050505b604080516001600160a01b03808a1682528a166020820152908101869052606081018290527fe48ca9d6d45765ca2990f9866be78fb36fd23cc17e004d0a20d347ecccb745a89060800160405180910390a1505050509392505050565b6000611042848484612c2f565b6001600160a01b03841660009081526005602090815260408083203384529091529020548281101561109157604051632b3ca6f360e11b81526004810182905260248101849052604401610c39565b61109e85338584036128c4565b60019150505b9392505050565b3360009081526005602090815260408083206001600160a01b038616845290915281205481906110dc9084906143a7565b90506110e93385836128c4565b5060019392505050565b600354600090801561111157600b5461110c90826128af565b61111b565b670de0b6b3a76400005b91505090565b611129612973565b60005460ff1661114c576040516306fda65d60e31b815260040160405180910390fd5b6000805460ff19168155600d5460408051636c9adec960e11b815290516001600160a01b039092169163d935bd9291600480820192602092909190829003018186803b15801561119b57600080fd5b505afa1580156111af573d6000803e3d6000fd5b505050506040513d601f19601f820116820180604052508101906111d39190613d2b565b600e549091506001600160a01b038083169116141561121457600e54604051637a4ec46360e01b8152610c39916001600160a01b0316908390600401614271565b600e80546001600160a01b038381166001600160a01b03198316179092556040519116907fd52b2b9b7e9ee655fcb95d2e5b9e0c9f69e7ef2b8e9d2d0ea78402d576d22e22906112679083908590614271565b60405180910390a150506000805460ff19166001179055565b600e54600c54604051633a08ab8b60e01b81526001600160a01b0391821660048201526000929190911690633a08ab8b9060240160206040518083038186803b1580156112cc57600080fd5b505afa1580156112e0573d6000803e3d6000fd5b505050506040513d601f19601f82011682018060405250810190611304919061419f565b905090565b60007f00000000000000000000000000000000000000000000000000000000000000006001600160a01b038481169082161461137c57837f000000000000000000000000000000000000000000000000000000000000000060405163d06d9b9360e01b8152600401610c39929190614271565b6000816001600160a01b0316856001600160a01b03161461139f576000196113a1565b835b905060006113af8783612b2c565b1598975050505050505050565b6000806113cb83600019612b2c565b91509150915091565b6000805460ff166113f8576040516306fda65d60e31b815260040160405180910390fd5b6000805460ff19168155600c546040516370a0823160e01b81523060048201526001600160a01b03909116906370a082319060240160206040518083038186803b15801561144557600080fd5b505afa158015611459573d6000803e3d6000fd5b505050506040513d601f19601f8201168201806040525081019061147d919061419f565b600a5490915060ff161561161a576008546009546040516393f1a40b60e01b815260048101919091523060248201526000916001600160a01b0316906393f1a40b90604401604080518083038186803b1580156114d957600080fd5b505afa1580156114ed573d6000803e3d6000fd5b505050506040513d601f19601f8201168201806040525081019061151191906141b7565b50600854600954604051631c57762b60e31b81526004810191909152602481018590529192506001600160a01b03169063e2bbb15890604401600060405180830381600087803b15801561156457600080fd5b505af1158015611578573d6000803e3d6000fd5b50506008546009546040516393f1a40b60e01b81526004810191909152306024820152600093506001600160a01b0390911691506393f1a40b90604401604080518083038186803b1580156115cc57600080fd5b505afa1580156115e0573d6000803e3d6000fd5b505050506040513d601f19601f8201168201806040525081019061160491906141b7565b50905061161182826143fe565b9250505061162a565b600b5461162790826143fe565b90505b61163c6116356110f3565b82906128af565b9150600082116116625760405163cd698f4d60e01b815260048101839052602401610c39565b61166c8383612c80565b60408051828152602081018490526001600160a01b0385169133917f2f00e3cdd69a77be7ed215ec7b2a36784dd158f921fca79ac29deffa353fe6ee91015b60405180910390a3506116bc612d33565b6000805460ff19166001179055919050565b6000806116da846117c4565b9050808311156116ee576000915050610bcd565b60006116fa84836143fe565b90506000611709610a406110f3565b604051637d6af07960e01b81526001600160a01b0388811660048301529192506000917f00000000000000000000000000000000000000000000000000000000000000001690637d6af0799060240160206040518083038186803b15801561177057600080fd5b505afa158015611784573d6000803e3d6000fd5b505050506040513d601f19601f820116820180604052508101906117a8919061419f565b905060006117b68383612e08565b159998505050505050505050565b6001600160a01b031660009081526004602052604090205490565b60005460ff16611802576040516306fda65d60e31b815260040160405180910390fd5b6000805460ff191690558261183957604051637476c0cb60e11b815233600482015232602482015260448101849052606401610c39565b600b5483111561186a57600b546040516345a1e23f60e11b8152610c39918591600401918252602082015260400190565b600a5460ff16156118e457600854600954604051630441a3e760e41b81526001600160a01b039092169163441a3e70916118b1918790600401918252602082015260400190565b600060405180830381600087803b1580156118cb57600080fd5b505af11580156118df573d6000803e3d6000fd5b505050505b600c546118fb906001600160a01b03168585612e82565b80156119665760405163989bebcf60e01b81526001600160a01b0385169063989bebcf9061193390339087908790879060040161428b565b600060405180830381600087803b15801561194d57600080fd5b505af1158015611961573d6000803e3d6000fd5b505050505b6000611971306117c4565b905060006119876119806110f3565b86906128af565b9050808210156119b457604051633ff6a11160e01b81526004810183905260248101829052604401610c39565b6119be3083612ed4565b604080513381526001600160a01b03881660208201528082018790526060810184905290517f23cee814a3036d83a7d4ef9ef196affdcccb5fbb5e2ad7ea44df596a079987b49181900360800190a15050611a17612d33565b50506000805460ff191660011790555050565b6000805460ff16611a4e576040516306fda65d60e31b815260040160405180910390fd5b6000805460ff19168155611a61306117c4565b9050611a75611a6e6110f3565b82906128a3565b915060008211611a9b576040516319f4fb4360e31b815260048101839052602401610c39565b600b54821115611acc57600b546040516339eff09f60e11b8152610c39918491600401918252602082015260400190565b611ad63082612ed4565b600a5460ff1615611b5057600854600954604051630441a3e760e41b81526001600160a01b039092169163441a3e7091611b1d918690600401918252602082015260400190565b600060405180830381600087803b158015611b3757600080fd5b505af1158015611b4b573d6000803e3d6000fd5b505050505b600c54611b67906001600160a01b03168484612e82565b60408051838152602081018390526001600160a01b0385169133917f3f693fff038bb8a046aa76d9516190ac7444f7d69cf952c4cbdc086fdef2d6fc91016116ab565b60028054610b3b90614445565b3360009081526005602090815260408083206001600160a01b038616845290915281205481906110dc9084906143fe565b611bf0612973565b60005460ff16611c13576040516306fda65d60e31b815260040160405180910390fd5b6000805460ff19169055611c38670de0b6b3a76400006710a741a46278000083612f7f565b601080549082905560408051828152602081018490527faeba5a6c40a8ac138134bff1aaa65debf25971188a58804bad717f82f0ec13169101611267565b6000610bc9338484612c2f565b60005460ff16611ca6576040516306fda65d60e31b815260040160405180910390fd5b6000805460ff19169055611cb8612fba565b6000611cc2612fde565b905080611ccf575061229b565b6000611ce2826658d15e176280006128a3565b9050611cfb336012546001600160a01b03169083612e82565b60125460009081907f00000000000000000000000000000000000000000000000000000000000000006001600160a01b0390811691161480611d6b57506012547f00000000000000000000000000000000000000000000000000000000000000006001600160a01b039081169116145b15611e3a576012547f00000000000000000000000000000000000000000000000000000000000000006001600160a01b03908116911614611ded577f00000000000000000000000000000000000000000000000000000000000000007f0000000000000000000000000000000000000000000000000000000000000000611e30565b7f00000000000000000000000000000000000000000000000000000000000000007f00000000000000000000000000000000000000000000000000000000000000005b909250905061208d565b601254611e7a906001600160a01b03167f0000000000000000000000000000000000000000000000000000000000000000611e7586886143fe565b613253565b7f00000000000000000000000000000000000000000000000000000000000000006001600160a01b03167f00000000000000000000000000000000000000000000000000000000000000006001600160a01b03161480611f2b57507f00000000000000000000000000000000000000000000000000000000000000006001600160a01b03167f00000000000000000000000000000000000000000000000000000000000000006001600160a01b0316145b15611fd0577f00000000000000000000000000000000000000000000000000000000000000006001600160a01b03167f00000000000000000000000000000000000000000000000000000000000000006001600160a01b031614611ded577f00000000000000000000000000000000000000000000000000000000000000007f0000000000000000000000000000000000000000000000000000000000000000611e30565b6120477f00000000000000000000000000000000000000000000000000000000000000007f0000000000000000000000000000000000000000000000000000000000000000611e757f00000000000000000000000000000000000000000000000000000000000000006001600160a01b0316613391565b507f000000000000000000000000000000000000000000000000000000000000000090507f00000000000000000000000000000000000000000000000000000000000000005b60006120a1836001600160a01b0316613391565b9050600080600c60009054906101000a90046001600160a01b03166001600160a01b0316630902f1ac6040518163ffffffff1660e01b815260040160606040518083038186803b1580156120f457600080fd5b505afa158015612108573d6000803e3d6000fd5b505050506040513d601f19601f8201168201806040525081019061212c9190614145565b506001600160701b031691506001600160701b0316915060007f00000000000000000000000000000000000000000000000000000000000000006001600160a01b0316866001600160a01b0316146121845781612186565b825b90506000612197858360145461340b565b90506121a4878783613253565b60006121cc88886121b5858a6143fe565b6121c78b6001600160a01b0316613391565b6134a9565b600854600954604051631c57762b60e31b81526004810191909152602481018390529192506001600160a01b03169063e2bbb15890604401600060405180830381600087803b15801561221e57600080fd5b505af1158015612232573d6000803e3d6000fd5b50505050306001600160a01b03167f6ac14c64e9542da5b5d0624113aec83684dd471c3d8c61022ae5d78fa15237926122683390565b604080516001600160a01b039092168252602082018e905281018c905260600160405180910390a2505050505050505050505b6122a3612d33565b6000805460ff19166001179055565b60005460ff166122d5576040516306fda65d60e31b815260040160405180910390fd5b6000805460ff19169055600b5461230e9082906122f1306117c4565b6122fb91906143fe565b600c546001600160a01b03169190612e82565b506000805460ff19166001179055565b6001600160a01b0387166123455760405163bc622b6360e01b815260040160405180910390fd5b6001600160a01b03861661236c57604051632853494b60e11b815260040160405180910390fd5b428410156123905760405163212ed8bb60e11b815260048101859052602401610c39565b6001600160a01b0387811660008181526006602090815260408083208054600180820190925582517f6e71edae12b1b97f4d1f60370fef10105fa2faae0126114a169c64845d6126c98186015280840196909652958c166060860152608085018b905260a085019590955260c08085018a90528151808603909101815260e08501825280519083012061190160f01b6101008601527f000000000000000000000000000000000000000000000000000000000000000061010286015261012280860182905282518087039091018152610142860180845281519185019190912090859052610162860180845281905260ff8a166101828701526101a286018990526101c2860188905291519095919491926101e2808401939192601f1981019281900390910190855afa1580156124cb573d6000803e3d6000fd5b5050604051601f1901519150506001600160a01b0381166124ff57604051630f81234f60e31b815260040160405180910390fd5b896001600160a01b0316816001600160a01b03161461254457604051630b76193960e31b815260ff871660048201526024810186905260448101859052606401610c39565b61254f8a8a8a6128c4565b50505050505050505050565b612563612973565b60005460ff16612586576040516306fda65d60e31b815260040160405180910390fd5b6000805460ff191690556125ab6706f05b59d3b20000670de0b6b3a764000083612f7f565b600f80549082905560408051828152602081018490527ff25d2243e4128e51523d8537f04f18c3e6390bbfc6323390a9a8e59b921ce0469101611267565b6125f1612973565b60005460ff16612614576040516306fda65d60e31b815260040160405180910390fd5b6000805460ff191681556126319067016345785d8a000083612f7f565b601180549082905560408051828152602081018490527f87272249f1056ec16a68dd9255101358246dd26a796e2f0bc6b3a0ad02f2de419101611267565b60005460ff16612692576040516306fda65d60e31b815260040160405180910390fd5b6000805460ff191690556122a3612d33565b60606000826001600160a01b0316630dfe16816040518163ffffffff1660e01b815260040160206040518083038186803b1580156126e157600080fd5b505afa1580156126f5573d6000803e3d6000fd5b505050506040513d601f19601f820116820180604052508101906127199190613d2b565b6001600160a01b03166395d89b416040518163ffffffff1660e01b815260040160006040518083038186803b15801561275157600080fd5b505afa158015612765573d6000803e3d6000fd5b505050506040513d6000823e601f3d908101601f1916820160405261278d91908101906140b5565b90506000836001600160a01b031663d21220a76040518163ffffffff1660e01b815260040160206040518083038186803b1580156127ca57600080fd5b505afa1580156127de573d6000803e3d6000fd5b505050506040513d601f19601f820116820180604052508101906128029190613d2b565b6001600160a01b03166395d89b416040518163ffffffff1660e01b815260040160006040518083038186803b15801561283a57600080fd5b505afa15801561284e573d6000803e3d6000fd5b505050506040513d6000823e601f3d908101601f1916820160405261287691908101906140b5565b9050818160405160200161288b929190614223565b60405160208183030381529060405292505050919050565b60006110a4838361359c565b60006110a483670de0b6b3a76400008461365e565b6001600160a01b0383166128eb5760405163230326bf60e11b815260040160405180910390fd5b6001600160a01b03821661291257604051630b39ecd960e21b815260040160405180910390fd5b6001600160a01b0383811660008181526005602090815260408083209487168084529482529182902085905590518481527f8c5be1e5ebec7d5bd14f71427d1e84f3dd0314c0f7b2291e5b200ac8c7c3b925910160405180910390a3505050565b600d54604080516303e1469160e61b815290516000926001600160a01b03169163f851a440916004808301926020929190829003018186803b1580156129b857600080fd5b505afa1580156129cc573d6000803e3d6000fd5b505050506040513d601f19601f820116820180604052508101906129f09190613d2b565b9050336001600160a01b03821614612a1f573381604051633e7c764160e21b8152600401610c39929190614271565b50565b604080516001600160a01b038481166024830152604480830185905283518084039091018152606490920183526020820180516001600160e01b031663095ea7b360e01b1790529151600092839290871691612a7e9190614207565b6000604051808303816000865af19150503d8060008114612abb576040519150601f19603f3d011682016040523d82523d6000602084013e612ac0565b606091505b5091509150818015612aea575080511580612aea575080806020019051810190612aea919061403b565b612b255760405162461bcd60e51b815260206004820152600c60248201526b2173616665417070726f766560a01b6044820152606401610c39565b5050505050565b6000806001600160a01b038416612b5a57833260405163a5075cd160e01b8152600401610c39929190614271565b600019831415612c0057604051637d6af07960e01b81526001600160a01b0385811660048301527f00000000000000000000000000000000000000000000000000000000000000001690637d6af0799060240160206040518083038186803b158015612bc557600080fd5b505afa158015612bd9573d6000803e3d6000fd5b505050506040513d601f19601f82011682018060405250810190612bfd919061419f565b92505b6000612c16612c0d6110f3565b610a2b876117c4565b9050612c228185612e08565b92509250505b9250929050565b612c3983826116ce565b612c7057604051633595d14560e21b81526001600160a01b0380851660048301528316602482015260448101829052606401610c39565b612c7b83838361373a565b505050565b6001600160a01b038216612ca75760405163139241eb60e01b815260040160405180910390fd5b6001600160a01b03821660009081526004602052604081208054839290612ccf9084906143a7565b925050819055508060036000828254612ce891906143a7565b90915550506040518181526001600160a01b038316906000907fddf252ad1be2c89b69c2b068fc378daa952ba7f163c4a11628f55a4df523b3ef906020015b60405180910390a35050565b600a5460ff16612d4757612d4561385d565b565b6008546009546040516393f1a40b60e01b815260048101919091523060248201526001600160a01b03909116906393f1a40b90604401604080518083038186803b158015612d9457600080fd5b505afa158015612da8573d6000803e3d6000fd5b505050506040513d601f19601f82011682018060405250810190612dcc91906141b7565b50600b8190556040519081527f8a0df8ef054fae2c3d2d19a7b322e864870cc9fd3cb07fb9526309c596244bf4906020015b60405180910390a1565b6000806000612e15611280565b90506000612e2386836128a3565b90506000612e3c600f54836128a390919063ffffffff16565b90506000612e5a601154601054612e5391906143a7565b88906128a3565b9050808210612e73579003935060009250612c28915050565b60009550039250612c28915050565b604080516001600160a01b038416602482015260448082018490528251808303909101815260649091019091526020810180516001600160e01b031663a9059cbb60e01b179052612c7b90849061390d565b6001600160a01b038216612efb57604051638e35e80360e01b815260040160405180910390fd5b6001600160a01b03821660009081526004602052604081208054839290612f239084906143fe565b925050819055508060036000828254612f3c91906143fe565b90915550506040518181526000906001600160a01b038416907fddf252ad1be2c89b69c2b068fc378daa952ba7f163c4a11628f55a4df523b3ef90602001612d27565b82811080612f8c57508181115b15612c7b5760405162ccc44d60e41b8152600481018490526024810183905260448101829052606401610c39565b333214612d45573332604051631fec819f60e21b8152600401610c39929190614271565b600854600954604051630441a3e760e41b81526004810191909152600060248201819052916001600160a01b03169063441a3e7090604401600060405180830381600087803b15801561303057600080fd5b505af1158015613044573d6000803e3d6000fd5b5050600854600954604051631526fe2760e01b81526004810191909152600093506001600160a01b039091169150631526fe27906024016101206040518083038186803b15801561309457600080fd5b505afa1580156130a8573d6000803e3d6000fd5b505050506040513d601f19601f820116820180604052508101906130cc9190613ee3565b5050509550505050505060006001600160a01b0316816001600160a01b03161461323e576000816001600160a01b03166373cfc6b26040518163ffffffff1660e01b815260040160206040518083038186803b15801561312b57600080fd5b505afa15801561313f573d6000803e3d6000fd5b505050506040513d601f19601f82011682018060405250810190613163919061403b565b90506000816131e257826001600160a01b031663f7c618c16040518163ffffffff1660e01b815260040160206040518083038186803b1580156131a557600080fd5b505afa1580156131b9573d6000803e3d6000fd5b505050506040513d601f19601f820116820180604052508101906131dd9190613d2b565b613204565b7f00000000000000000000000000000000000000000000000000000000000000005b9050600061321a826001600160a01b0316613391565b9050801561323a5760125461323a9083906001600160a01b031683613253565b5050505b60125461111b906001600160a01b0316613391565b604080516002808252606082018352600092602083019080368337019050509050838160008151811061329657634e487b7160e01b600052603260045260246000fd5b60200260200101906001600160a01b031690816001600160a01b03168152505082816001815181106132d857634e487b7160e01b600052603260045260246000fd5b6001600160a01b03928316602091820292909201015260135461330091868116911684613982565b6013546040516338ed173960e01b81526001600160a01b03909116906338ed17399061333b9085906000908690309060001990600401614306565b600060405180830381600087803b15801561335557600080fd5b505af1158015613369573d6000803e3d6000fd5b505050506040513d6000823e601f3d908101601f19168201604052612b259190810190613f93565b6040516370a0823160e01b81523060048201526000906001600160a01b038316906370a082319060240160206040518083038186803b1580156133d357600080fd5b505afa1580156133e7573d6000803e3d6000fd5b505050506040513d601f19601f82011682018060405250810190610bcd919061419f565b6000808361341b846103e86143a7565b61342591906143df565b905060008385613437886103e86143df565b61344191906143df565b61344c9060046143df565b61345691906143df565b905060006134778261346885806143df565b61347291906143a7565b613a19565b905060006134868660026143df565b90508061349385846143fe565b61349d91906143bf565b98975050505050505050565b6013546000906134c6906001600160a01b03878116911685613982565b6013546134e0906001600160a01b03868116911684613982565b60135460405162e8e33760e81b81526001600160a01b0387811660048301528681166024830152604482018690526064820185905260006084830181905260a48301523060c483015260001960e48301529091169063e8e337009061010401606060405180830381600087803b15801561355957600080fd5b505af115801561356d573d6000803e3d6000fd5b505050506040513d601f19601f8201168201806040525081019061359191906141da565b979650505050505050565b60008080600019848609848602925082811083820303915050670de0b6b3a764000081106135e05760405163698d9a0160e11b815260048101829052602401610c39565b600080670de0b6b3a76400008688099150506706f05b59d3b1ffff81118261361a5780670de0b6b3a7640000850401945050505050610bcd565b620400008285030493909111909103600160ee1b02919091177faccb18165bd6fe31ae1cf318dc5b51eee0e1ba569b88cd74c1773b91fac106690201905092915050565b6000808060001985870985870292508281108382030391505080600014156136a75783828161369d57634e487b7160e01b600052601260045260246000fd5b04925050506110a4565b8381106136d157604051631dcf306360e21b81526004810182905260248101859052604401610c39565b60008486880960026001871981018816978890046003810283188082028403028082028403028082028403028082028403028082028403029081029092039091026000889003889004909101858311909403939093029303949094049190911702949350505050565b6001600160a01b0383166137615760405163907bfbd760e01b815260040160405180910390fd5b6001600160a01b03821661378857604051637184c13f60e01b815260040160405180910390fd5b6001600160a01b038316600090815260046020526040902054818110156137cc57604051632dcf2e2160e21b81526004810182905260248101839052604401610c39565b6001600160a01b038085166000908152600460205260408082208585039055918516815290812080548492906138039084906143a7565b92505081905550826001600160a01b0316846001600160a01b03167fddf252ad1be2c89b69c2b068fc378daa952ba7f163c4a11628f55a4df523b3ef8460405161384f91815260200190565b60405180910390a350505050565b600c546040516370a0823160e01b81523060048201526001600160a01b03909116906370a082319060240160206040518083038186803b1580156138a057600080fd5b505afa1580156138b4573d6000803e3d6000fd5b505050506040513d601f19601f820116820180604052508101906138d8919061419f565b600b8190556040519081527f8a0df8ef054fae2c3d2d19a7b322e864870cc9fd3cb07fb9526309c596244bf490602001612dfe565b600061394783836040518060400160405280601581526020017414d85999515c98cc8c131bddd3195d995b10d85b1b605a1b815250613c04565b805190915015612c7b5780806020019051810190613965919061403b565b612c7b576040516364d6fc4d60e01b815260040160405180910390fd5b604051636eb1769f60e11b815281906001600160a01b0385169063dd62ed3e906139b29030908790600401614271565b60206040518083038186803b1580156139ca57600080fd5b505afa1580156139de573d6000803e3d6000fd5b505050506040513d601f19601f82011682018060405250810190613a02919061419f565b10613a0c57505050565b612c7b8383600019612a22565b600081613a2857506000919050565b50600181600160801b8110613a425760409190911b9060801c5b680100000000000000008110613a5d5760209190911b9060401c5b6401000000008110613a745760109190911b9060201c5b620100008110613a895760089190911b9060101c5b6101008110613a9d5760049190911b9060081c5b60108110613ab05760029190911b9060041c5b60088110613ac057600182901b91505b6001828481613adf57634e487b7160e01b600052601260045260246000fd5b048301901c91506001828481613b0557634e487b7160e01b600052601260045260246000fd5b048301901c91506001828481613b2b57634e487b7160e01b600052601260045260246000fd5b048301901c91506001828481613b5157634e487b7160e01b600052601260045260246000fd5b048301901c91506001828481613b7757634e487b7160e01b600052601260045260246000fd5b048301901c91506001828481613b9d57634e487b7160e01b600052601260045260246000fd5b048301901c91506001828481613bc357634e487b7160e01b600052601260045260246000fd5b048301901c91506000828481613be957634e487b7160e01b600052601260045260246000fd5b04905080831015613bfa5782613bfc565b805b949350505050565b60606001600160a01b0384163b613c3957604051638201cc0560e01b81526001600160a01b0385166004820152602401610c39565b600080856001600160a01b031685604051613c549190614207565b6000604051808303816000865af19150503d8060008114613c91576040519150601f19603f3d011682016040523d82523d6000602084013e613c96565b606091505b50915091508115613caa5791506110a49050565b805115613cba5780518082602001fd5b8360405162461bcd60e51b8152600401610c3991906142d3565b8051613cdf816144ac565b919050565b80516001600160701b0381168114613cdf57600080fd5b805163ffffffff81168114613cdf57600080fd5b600060208284031215613d20578081fd5b81356110a4816144ac565b600060208284031215613d3c578081fd5b81516110a4816144ac565b60008060408385031215613d59578081fd5b8235613d64816144ac565b91506020830135613d74816144ac565b809150509250929050565b600080600060608486031215613d93578081fd5b8335613d9e816144ac565b92506020840135613dae816144ac565b929592945050506040919091013590565b600080600080600080600060e0888a031215613dd9578283fd5b8735613de4816144ac565b96506020880135613df4816144ac565b95506040880135945060608801359350608088013560ff81168114613e17578384fd5b9699959850939692959460a0840135945060c09093013592915050565b60008060408385031215613e46578182fd5b8235613e51816144ac565b946020939093013593505050565b60008060008060608587031215613e74578182fd5b8435613e7f816144ac565b935060208501359250604085013567ffffffffffffffff80821115613ea2578384fd5b818701915087601f830112613eb5578384fd5b813581811115613ec3578485fd5b886020828501011115613ed4578485fd5b95989497505060200194505050565b60008060008060008060008060006101208a8c031215613f01578283fd5b8951613f0c816144ac565b60208b01519099506bffffffffffffffffffffffff81168114613f2d578384fd5b8098505060408a0151965060608a0151955060808a015167ffffffffffffffff81168114613f59578384fd5b9450613f6760a08b01613cd4565b9350613f7560c08b01613cfb565b925060e08a015191506101008a015190509295985092959850929598565b60006020808385031215613fa5578182fd5b825167ffffffffffffffff80821115613fbc578384fd5b818501915085601f830112613fcf578384fd5b815181811115613fe157613fe1614496565b8060051b9150613ff2848301614376565b8181528481019084860184860187018a101561400c578788fd5b8795505b8386101561402e578051835260019590950194918601918601614010565b5098975050505050505050565b60006020828403121561404c578081fd5b815180151581146110a4578182fd5b600080600080600060a08688031215614072578283fd5b853561407d816144ac565b9450602086013561408d816144ac565b9350604086013561409d816144ac565b94979396509394606081013594506080013592915050565b6000602082840312156140c6578081fd5b815167ffffffffffffffff808211156140dd578283fd5b818401915084601f8301126140f0578283fd5b81518181111561410257614102614496565b614115601f8201601f1916602001614376565b915080825285602082850101111561412b578384fd5b61413c816020840160208601614415565b50949350505050565b600080600060608486031215614159578081fd5b61416284613ce4565b925061417060208501613ce4565b915061417e60408501613cfb565b90509250925092565b600060208284031215614198578081fd5b5035919050565b6000602082840312156141b0578081fd5b5051919050565b600080604083850312156141c9578182fd5b505080516020909101519092909150565b6000806000606084860312156141ee578081fd5b8351925060208401519150604084015190509250925092565b60008251614219818460208701614415565b9190910192915050565b65021bcb3a628160d51b815260008351614244816006850160208801614415565b602f60f81b6006918401918201528351614265816007840160208801614415565b01600701949350505050565b6001600160a01b0392831681529116602082015260400190565b6001600160a01b0385168152602081018490526060604082018190528101829052818360808301376000818301608090810191909152601f909201601f191601019392505050565b60208152600082518060208401526142f2816040850160208701614415565b601f01601f19169190910160400192915050565b600060a082018783526020878185015260a0604085015281875180845260c0860191508289019350845b818110156143555784516001600160a01b031683529383019391830191600101614330565b50506001600160a01b03969096166060850152505050608001529392505050565b604051601f8201601f1916810167ffffffffffffffff8111828210171561439f5761439f614496565b604052919050565b600082198211156143ba576143ba614480565b500190565b6000826143da57634e487b7160e01b81526012600452602481fd5b500490565b60008160001904831182151516156143f9576143f9614480565b500290565b60008282101561441057614410614480565b500390565b60005b83811015614430578181015183820152602001614418565b8381111561443f576000848401525b50505050565b600181811c9082168061445957607f821691505b6020821081141561447a57634e487b7160e01b600052602260045260246000fd5b50919050565b634e487b7160e01b600052601160045260246000fd5b634e487b7160e01b600052604160045260246000fd5b6001600160a01b0381168114612a1f57600080fdfea2646970667358221220b44e54ebe8fa48f4ed8cfcb58809c89d1364fd072946403913f506dfd47e1e2f64736f6c63430008040033a26469706673582212205425dad5795dc2944c82fe7f387331fa7600c54538562ef677427c387dd0aab764736f6c63430008040033",
  "linkReferences": {},
  "deployedLinkReferences": {}
}