{
  "_format": "hh-sol-artifact-1",
  "contractName": "Hangar18",
  "sourceName": "contracts/cygnus-core/Hangar18.sol",
  "abi": [
    {
      "inputs": [
        {
          "internalType": "address",
          "name": "_admin",
          "type": "address"
        },
        {
          "internalType": "address",
          "name": "_daoReserves",
          "type": "address"
        },
        {
          "internalType": "address",
          "name": "_usd",
          "type": "address"
        },
        {
          "internalType": "address",
          "name": "_nativeToken",
          "type": "address"
        }
      ],
      "stateMutability": "nonpayable",
      "type": "constructor"
    },
    {
      "inputs": [
        {
          "internalType": "address",
          "name": "newPendingAdmin",
          "type": "address"
        },
        {
          "internalType": "address",
          "name": "admin",
          "type": "address"
        }
      ],
      "name": "CygnusFactory__AdminAlreadySet",
      "type": "error"
    },
    {
      "inputs": [
        {
          "internalType": "address",
          "name": "calculatedCollateral",
          "type": "address"
        },
        {
          "internalType": "address",
          "name": "deployedCollateral",
          "type": "address"
        }
      ],
      "name": "CygnusFactory__CollateralAddressMismatch",
      "type": "error"
    },
    {
      "inputs": [
        {
          "internalType": "address",
          "name": "sender",
          "type": "address"
        },
        {
          "internalType": "address",
          "name": "admin",
          "type": "address"
        }
      ],
      "name": "CygnusFactory__CygnusAdminOnly",
      "type": "error"
    },
    {
      "inputs": [
        {
          "internalType": "address",
          "name": "priceOracle",
          "type": "address"
        },
        {
          "internalType": "address",
          "name": "newPriceOracle",
          "type": "address"
        }
      ],
      "name": "CygnusFactory__CygnusNebulaAlreadySet",
      "type": "error"
    },
    {
      "inputs": [],
      "name": "CygnusFactory__CygnusNebulaCantBeZero",
      "type": "error"
    },
    {
      "inputs": [
        {
          "internalType": "address",
          "name": "newPendingDaoReserves",
          "type": "address"
        },
        {
          "internalType": "address",
          "name": "daoReserves",
          "type": "address"
        }
      ],
      "name": "CygnusFactory__DaoReservesAlreadySet",
      "type": "error"
    },
    {
      "inputs": [],
      "name": "CygnusFactory__DaoReservesCantBeZero",
      "type": "error"
    },
    {
      "inputs": [
        {
          "internalType": "address",
          "name": "lpTokenPair",
          "type": "address"
        }
      ],
      "name": "CygnusFactory__LPTokenPairNotSupported",
      "type": "error"
    },
    {
      "inputs": [
        {
          "components": [
            {
              "internalType": "bool",
              "name": "status",
              "type": "bool"
            },
            {
              "internalType": "uint88",
              "name": "orbiterId",
              "type": "uint88"
            },
            {
              "internalType": "contract IAlbireoOrbiter",
              "name": "albireoOrbiter",
              "type": "address"
            },
            {
              "internalType": "contract IDenebOrbiter",
              "name": "denebOrbiter",
              "type": "address"
            },
            {
              "internalType": "bytes32",
              "name": "borrowableInitCodeHash",
              "type": "bytes32"
            },
            {
              "internalType": "bytes32",
              "name": "collateralInitCodeHash",
              "type": "bytes32"
            },
            {
              "internalType": "contract ICygnusNebulaOracle",
              "name": "nebulaOracle",
              "type": "address"
            },
            {
              "internalType": "bytes32",
              "name": "uniqueHash",
              "type": "bytes32"
            },
            {
              "internalType": "string",
              "name": "orbiterName",
              "type": "string"
            }
          ],
          "internalType": "struct IHangar18.Orbiter",
          "name": "orbiter",
          "type": "tuple"
        }
      ],
      "name": "CygnusFactory__OrbiterAlreadySet",
      "type": "error"
    },
    {
      "inputs": [
        {
          "components": [
            {
              "internalType": "bool",
              "name": "status",
              "type": "bool"
            },
            {
              "internalType": "uint88",
              "name": "orbiterId",
              "type": "uint88"
            },
            {
              "internalType": "contract IAlbireoOrbiter",
              "name": "albireoOrbiter",
              "type": "address"
            },
            {
              "internalType": "contract IDenebOrbiter",
              "name": "denebOrbiter",
              "type": "address"
            },
            {
              "internalType": "bytes32",
              "name": "borrowableInitCodeHash",
              "type": "bytes32"
            },
            {
              "internalType": "bytes32",
              "name": "collateralInitCodeHash",
              "type": "bytes32"
            },
            {
              "internalType": "contract ICygnusNebulaOracle",
              "name": "nebulaOracle",
              "type": "address"
            },
            {
              "internalType": "bytes32",
              "name": "uniqueHash",
              "type": "bytes32"
            },
            {
              "internalType": "string",
              "name": "orbiterName",
              "type": "string"
            }
          ],
          "internalType": "struct IHangar18.Orbiter",
          "name": "orbiter",
          "type": "tuple"
        }
      ],
      "name": "CygnusFactory__OrbitersAreInactive",
      "type": "error"
    },
    {
      "inputs": [
        {
          "internalType": "uint256",
          "name": "orbiterId",
          "type": "uint256"
        }
      ],
      "name": "CygnusFactory__OrbitersNotSet",
      "type": "error"
    },
    {
      "inputs": [
        {
          "internalType": "address",
          "name": "newPendingAdmin",
          "type": "address"
        },
        {
          "internalType": "address",
          "name": "pendingAdmin",
          "type": "address"
        }
      ],
      "name": "CygnusFactory__PendingAdminAlreadySet",
      "type": "error"
    },
    {
      "inputs": [],
      "name": "CygnusFactory__PendingAdminCantBeZero",
      "type": "error"
    },
    {
      "inputs": [
        {
          "internalType": "address",
          "name": "newPendingDaoReserves",
          "type": "address"
        },
        {
          "internalType": "address",
          "name": "pendingDaoReserves",
          "type": "address"
        }
      ],
      "name": "CygnusFactory__PendingDaoReservesAlreadySet",
      "type": "error"
    },
    {
      "inputs": [
        {
          "internalType": "address",
          "name": "lpTokenPair",
          "type": "address"
        },
        {
          "internalType": "uint256",
          "name": "orbiterId",
          "type": "uint256"
        }
      ],
      "name": "CygnusFactory__ShuttleAlreadyDeployed",
      "type": "error"
    },
    {
      "inputs": [],
      "name": "ReentrantCall",
      "type": "error"
    },
    {
      "anonymous": false,
      "inputs": [
        {
          "indexed": false,
          "internalType": "bool",
          "name": "status",
          "type": "bool"
        },
        {
          "indexed": false,
          "internalType": "uint256",
          "name": "orbitersLength",
          "type": "uint256"
        },
        {
          "indexed": false,
          "internalType": "contract IAlbireoOrbiter",
          "name": "borrowOrbiter",
          "type": "address"
        },
        {
          "indexed": false,
          "internalType": "contract IDenebOrbiter",
          "name": "denebOrbiter",
          "type": "address"
        },
        {
          "indexed": false,
          "internalType": "bytes32",
          "name": "uniqueHash",
          "type": "bytes32"
        },
        {
          "indexed": false,
          "internalType": "string",
          "name": "orbitersName",
          "type": "string"
        }
      ],
      "name": "InitializeOrbiters",
      "type": "event"
    },
    {
      "anonymous": false,
      "inputs": [
        {
          "indexed": false,
          "internalType": "address",
          "name": "oldAdmin",
          "type": "address"
        },
        {
          "indexed": false,
          "internalType": "address",
          "name": "newAdmin",
          "type": "address"
        }
      ],
      "name": "NewCygnusAdmin",
      "type": "event"
    },
    {
      "anonymous": false,
      "inputs": [
        {
          "indexed": false,
          "internalType": "contract ICygnusNebulaOracle",
          "name": "oldCygnusNebula",
          "type": "address"
        },
        {
          "indexed": false,
          "internalType": "contract ICygnusNebulaOracle",
          "name": "newCygnusNebula",
          "type": "address"
        }
      ],
      "name": "NewCygnusNebulaOracle",
      "type": "event"
    },
    {
      "anonymous": false,
      "inputs": [
        {
          "indexed": false,
          "internalType": "address",
          "name": "oldDaoReserves",
          "type": "address"
        },
        {
          "indexed": false,
          "internalType": "address",
          "name": "daoReserves",
          "type": "address"
        }
      ],
      "name": "NewDaoReserves",
      "type": "event"
    },
    {
      "anonymous": false,
      "inputs": [
        {
          "indexed": false,
          "internalType": "address",
          "name": "pendingAdmin",
          "type": "address"
        },
        {
          "indexed": false,
          "internalType": "address",
          "name": "_admin",
          "type": "address"
        }
      ],
      "name": "NewPendingCygnusAdmin",
      "type": "event"
    },
    {
      "anonymous": false,
      "inputs": [
        {
          "indexed": false,
          "internalType": "address",
          "name": "oldPendingdaoReservesContract",
          "type": "address"
        },
        {
          "indexed": false,
          "internalType": "address",
          "name": "newPendingdaoReservesContract",
          "type": "address"
        }
      ],
      "name": "NewPendingDaoReserves",
      "type": "event"
    },
    {
      "anonymous": false,
      "inputs": [
        {
          "indexed": true,
          "internalType": "address",
          "name": "lpTokenPair",
          "type": "address"
        },
        {
          "indexed": true,
          "internalType": "uint256",
          "name": "shuttleId",
          "type": "uint256"
        },
        {
          "indexed": false,
          "internalType": "uint256",
          "name": "orbiterId",
          "type": "uint256"
        },
        {
          "indexed": false,
          "internalType": "address",
          "name": "borrowable",
          "type": "address"
        },
        {
          "indexed": false,
          "internalType": "address",
          "name": "collateral",
          "type": "address"
        }
      ],
      "name": "NewShuttle",
      "type": "event"
    },
    {
      "anonymous": false,
      "inputs": [
        {
          "indexed": false,
          "internalType": "bool",
          "name": "status",
          "type": "bool"
        },
        {
          "indexed": false,
          "internalType": "uint256",
          "name": "orbiterId",
          "type": "uint256"
        },
        {
          "indexed": false,
          "internalType": "contract IAlbireoOrbiter",
          "name": "albireoOrbiter",
          "type": "address"
        },
        {
          "indexed": false,
          "internalType": "contract IDenebOrbiter",
          "name": "denebOrbiter",
          "type": "address"
        },
        {
          "indexed": false,
          "internalType": "string",
          "name": "orbiterName",
          "type": "string"
        }
      ],
      "name": "SwitchOrbiterStatus",
      "type": "event"
    },
    {
      "inputs": [],
      "name": "AGGREGATION_ROUTER_V5",
      "outputs": [
        {
          "internalType": "contract IAggregationRouterV5",
          "name": "",
          "type": "address"
        }
      ],
      "stateMutability": "view",
      "type": "function"
    },
    {
      "inputs": [],
      "name": "admin",
      "outputs": [
        {
          "internalType": "address",
          "name": "",
          "type": "address"
        }
      ],
      "stateMutability": "view",
      "type": "function"
    },
    {
      "inputs": [
        {
          "internalType": "uint256",
          "name": "",
          "type": "uint256"
        }
      ],
      "name": "allNebulas",
      "outputs": [
        {
          "internalType": "contract ICygnusNebulaOracle",
          "name": "",
          "type": "address"
        }
      ],
      "stateMutability": "view",
      "type": "function"
    },
    {
      "inputs": [
        {
          "internalType": "uint256",
          "name": "",
          "type": "uint256"
        }
      ],
      "name": "allOrbiters",
      "outputs": [
        {
          "internalType": "bool",
          "name": "status",
          "type": "bool"
        },
        {
          "internalType": "uint88",
          "name": "orbiterId",
          "type": "uint88"
        },
        {
          "internalType": "contract IAlbireoOrbiter",
          "name": "albireoOrbiter",
          "type": "address"
        },
        {
          "internalType": "contract IDenebOrbiter",
          "name": "denebOrbiter",
          "type": "address"
        },
        {
          "internalType": "bytes32",
          "name": "borrowableInitCodeHash",
          "type": "bytes32"
        },
        {
          "internalType": "bytes32",
          "name": "collateralInitCodeHash",
          "type": "bytes32"
        },
        {
          "internalType": "contract ICygnusNebulaOracle",
          "name": "nebulaOracle",
          "type": "address"
        },
        {
          "internalType": "bytes32",
          "name": "uniqueHash",
          "type": "bytes32"
        },
        {
          "internalType": "string",
          "name": "orbiterName",
          "type": "string"
        }
      ],
      "stateMutability": "view",
      "type": "function"
    },
    {
      "inputs": [
        {
          "internalType": "uint256",
          "name": "",
          "type": "uint256"
        }
      ],
      "name": "allShuttles",
      "outputs": [
        {
          "internalType": "bool",
          "name": "launched",
          "type": "bool"
        },
        {
          "internalType": "uint88",
          "name": "shuttleId",
          "type": "uint88"
        },
        {
          "internalType": "address",
          "name": "borrowable",
          "type": "address"
        },
        {
          "internalType": "address",
          "name": "collateral",
          "type": "address"
        },
        {
          "internalType": "uint96",
          "name": "orbiterId",
          "type": "uint96"
        }
      ],
      "stateMutability": "view",
      "type": "function"
    },
    {
      "inputs": [],
      "name": "cygnusX1Vault",
      "outputs": [
        {
          "internalType": "address",
          "name": "",
          "type": "address"
        }
      ],
      "stateMutability": "view",
      "type": "function"
    },
    {
      "inputs": [],
      "name": "daoReserves",
      "outputs": [
        {
          "internalType": "address",
          "name": "",
          "type": "address"
        }
      ],
      "stateMutability": "view",
      "type": "function"
    },
    {
      "inputs": [
        {
          "internalType": "address",
          "name": "lpTokenPair",
          "type": "address"
        },
        {
          "internalType": "uint256",
          "name": "orbiterId",
          "type": "uint256"
        }
      ],
      "name": "deployShuttle",
      "outputs": [
        {
          "internalType": "address",
          "name": "borrowable",
          "type": "address"
        },
        {
          "internalType": "address",
          "name": "collateral",
          "type": "address"
        }
      ],
      "stateMutability": "nonpayable",
      "type": "function"
    },
    {
      "inputs": [
        {
          "internalType": "uint256",
          "name": "",
          "type": "uint256"
        }
      ],
      "name": "getOrbiters",
      "outputs": [
        {
          "internalType": "bool",
          "name": "status",
          "type": "bool"
        },
        {
          "internalType": "uint88",
          "name": "orbiterId",
          "type": "uint88"
        },
        {
          "internalType": "contract IAlbireoOrbiter",
          "name": "albireoOrbiter",
          "type": "address"
        },
        {
          "internalType": "contract IDenebOrbiter",
          "name": "denebOrbiter",
          "type": "address"
        },
        {
          "internalType": "bytes32",
          "name": "borrowableInitCodeHash",
          "type": "bytes32"
        },
        {
          "internalType": "bytes32",
          "name": "collateralInitCodeHash",
          "type": "bytes32"
        },
        {
          "internalType": "contract ICygnusNebulaOracle",
          "name": "nebulaOracle",
          "type": "address"
        },
        {
          "internalType": "bytes32",
          "name": "uniqueHash",
          "type": "bytes32"
        },
        {
          "internalType": "string",
          "name": "orbiterName",
          "type": "string"
        }
      ],
      "stateMutability": "view",
      "type": "function"
    },
    {
      "inputs": [
        {
          "internalType": "address",
          "name": "",
          "type": "address"
        },
        {
          "internalType": "uint256",
          "name": "",
          "type": "uint256"
        }
      ],
      "name": "getShuttles",
      "outputs": [
        {
          "internalType": "bool",
          "name": "launched",
          "type": "bool"
        },
        {
          "internalType": "uint88",
          "name": "shuttleId",
          "type": "uint88"
        },
        {
          "internalType": "address",
          "name": "borrowable",
          "type": "address"
        },
        {
          "internalType": "address",
          "name": "collateral",
          "type": "address"
        },
        {
          "internalType": "uint96",
          "name": "orbiterId",
          "type": "uint96"
        }
      ],
      "stateMutability": "view",
      "type": "function"
    },
    {
      "inputs": [
        {
          "internalType": "string",
          "name": "orbiterName",
          "type": "string"
        },
        {
          "internalType": "contract IAlbireoOrbiter",
          "name": "albireoOrbiter",
          "type": "address"
        },
        {
          "internalType": "contract IDenebOrbiter",
          "name": "denebOrbiter",
          "type": "address"
        },
        {
          "internalType": "contract ICygnusNebulaOracle",
          "name": "nebulaOracle",
          "type": "address"
        }
      ],
      "name": "initializeOrbiter",
      "outputs": [],
      "stateMutability": "nonpayable",
      "type": "function"
    },
    {
      "inputs": [],
      "name": "nativeToken",
      "outputs": [
        {
          "internalType": "address",
          "name": "",
          "type": "address"
        }
      ],
      "stateMutability": "view",
      "type": "function"
    },
    {
      "inputs": [],
      "name": "nebulasDeployed",
      "outputs": [
        {
          "internalType": "uint256",
          "name": "",
          "type": "uint256"
        }
      ],
      "stateMutability": "view",
      "type": "function"
    },
    {
      "inputs": [],
      "name": "orbitersDeployed",
      "outputs": [
        {
          "internalType": "uint256",
          "name": "",
          "type": "uint256"
        }
      ],
      "stateMutability": "view",
      "type": "function"
    },
    {
      "inputs": [],
      "name": "pendingAdmin",
      "outputs": [
        {
          "internalType": "address",
          "name": "",
          "type": "address"
        }
      ],
      "stateMutability": "view",
      "type": "function"
    },
    {
      "inputs": [],
      "name": "pendingDaoReserves",
      "outputs": [
        {
          "internalType": "address",
          "name": "",
          "type": "address"
        }
      ],
      "stateMutability": "view",
      "type": "function"
    },
    {
      "inputs": [],
      "name": "setNewCygnusAdmin",
      "outputs": [],
      "stateMutability": "nonpayable",
      "type": "function"
    },
    {
      "inputs": [],
      "name": "setNewDaoReserves",
      "outputs": [],
      "stateMutability": "nonpayable",
      "type": "function"
    },
    {
      "inputs": [
        {
          "internalType": "address",
          "name": "_newX1Vault",
          "type": "address"
        }
      ],
      "name": "setNewX1Vault",
      "outputs": [],
      "stateMutability": "nonpayable",
      "type": "function"
    },
    {
      "inputs": [
        {
          "internalType": "address",
          "name": "newPendingAdmin",
          "type": "address"
        }
      ],
      "name": "setPendingAdmin",
      "outputs": [],
      "stateMutability": "nonpayable",
      "type": "function"
    },
    {
      "inputs": [
        {
          "internalType": "address",
          "name": "newPendingDaoReserves",
          "type": "address"
        }
      ],
      "name": "setPendingDaoReserves",
      "outputs": [],
      "stateMutability": "nonpayable",
      "type": "function"
    },
    {
      "inputs": [],
      "name": "shuttlesDeployed",
      "outputs": [
        {
          "internalType": "uint256",
          "name": "",
          "type": "uint256"
        }
      ],
      "stateMutability": "view",
      "type": "function"
    },
    {
      "inputs": [
        {
          "internalType": "uint256",
          "name": "orbiterId",
          "type": "uint256"
        }
      ],
      "name": "switchOrbiterStatus",
      "outputs": [],
      "stateMutability": "nonpayable",
      "type": "function"
    },
    {
      "inputs": [],
      "name": "usd",
      "outputs": [
        {
          "internalType": "address",
          "name": "",
          "type": "address"
        }
      ],
      "stateMutability": "view",
      "type": "function"
    }
  ],
  "bytecode": "0x60c06040523480156200001157600080fd5b50604051620023763803806200237683398101604081905262000034916200012c565b6000805460ff19166001178155600680546001600160a01b038781166001600160a01b0319928316811790935560088054918816919092161790556001600160601b0319606084811b821660a05285901b166080526040805192835260208301919091527fa6fd993b45f105f3b99176403c23f4df5f10600b416795ff8223ff7ad9efb4f9910160405180910390a160408051600081526001600160a01b03851660208201527fdc45b28468284159445ec8588dd4c555fc01ed3c9e7b3b6fd371be486f77913b910160405180910390a15050505062000188565b80516001600160a01b03811681146200012757600080fd5b919050565b6000806000806080858703121562000142578384fd5b6200014d856200010f565b93506200015d602086016200010f565b92506200016d604086016200010f565b91506200017d606086016200010f565b905092959194509250565b60805160601c60a05160601c6121bb620001bb60003960006104170152600081816103dd01526108d101526121bb6000f3fe608060405234801561001057600080fd5b50600436106101985760003560e01c80639861a14f116100e3578063d63a6ccd1161008c578063ea191e9f11610066578063ea191e9f14610439578063ec84a5cb14610441578063f851a4401461045457600080fd5b8063d63a6ccd146103d8578063daa3bc01146103ff578063e1758bd81461041257600080fd5b8063c73ef9e8116100bd578063c73ef9e81461039f578063d02c70e8146103b2578063d5eaf1fb146103c557600080fd5b80639861a14f146102ff578063a5d2931814610312578063b11de7e31461038457600080fd5b80634dd18bf5116101455780636f40b0c71161011f5780636f40b0c7146102dc57806380ffbb88146102ef578063883fd1c9146102f757600080fd5b80634dd18bf5146102a3578063502b512e146102b65780635b068af8146102c957600080fd5b8063269a2ce411610176578063269a2ce41461023e5780632f94f7bf146102665780634d06fcd41461027057600080fd5b80631ad4c8c31461019d5780631f5b8f92146102015780632678224714610213575b600080fd5b6101b06101ab366004611d9b565b610467565b6040805195151586526001600160581b0390941660208601526001600160a01b03928316938501939093521660608301526bffffffffffffffffffffffff16608082015260a0015b60405180910390f35b6003545b6040519081526020016101f8565b600754610226906001600160a01b031681565b6040516001600160a01b0390911681526020016101f8565b61025161024c366004611d9b565b6104d3565b6040516101f899989796959493929190611e2b565b61026e6105d2565b005b61028361027e366004611ba9565b610670565b604080516001600160a01b039384168152929091166020830152016101f8565b61026e6102b1366004611b6a565b610cd2565b6102516102c4366004611d9b565b610d82565b600854610226906001600160a01b031681565b61026e6102ea366004611bec565b610def565b600254610205565b61026e61132d565b600954610226906001600160a01b031681565b6101b0610320366004611ba9565b60056020908152600092835260408084209091529082529020805460019091015460ff8216916001600160581b03610100820416916001600160a01b03600160601b9092048216918116906bffffffffffffffffffffffff600160a01b9091041685565b610226731111111254eeb25477b68fb85ed929f73a96058281565b600a54610226906001600160a01b031681565b6102266103c0366004611d9b565b6113c4565b61026e6103d3366004611b6a565b6113ee565b6102267f000000000000000000000000000000000000000000000000000000000000000081565b61026e61040d366004611b6a565b6113f9565b6102267f000000000000000000000000000000000000000000000000000000000000000081565b600154610205565b61026e61044f366004611d9b565b6114a1565b600654610226906001600160a01b031681565b6002818154811061047757600080fd5b60009182526020909120600290910201805460019091015460ff8216925061010082046001600160581b031691600160601b90046001600160a01b039081169190811690600160a01b90046bffffffffffffffffffffffff1685565b600181815481106104e357600080fd5b6000918252602090912060079091020180546001820154600283015460038401546004850154600586015460068701805460ff8816995061010088046001600160581b031698600160601b9098046001600160a01b039081169897811697941693919061054f906120f8565b80601f016020809104026020016040519081016040528092919081815260200182805461057b906120f8565b80156105c85780601f1061059d576101008083540402835291602001916105c8565b820191906000526020600020905b8154815290600101906020018083116105ab57829003601f168201915b5050505050905089565b6105da611579565b6009546001600160a01b03166106035760405163bb2a93a160e01b815260040160405180910390fd5b60088054600980546001600160a01b038082166001600160a01b0319808616821790965594909116909155604080519190921680825260208201939093527fdc45b28468284159445ec8588dd4c555fc01ed3c9e7b3b6fd371be486f77913b91015b60405180910390a150565b60008054819060ff16610696576040516306fda65d60e31b815260040160405180910390fd5b6000805460ff191690556106a8611579565b6000838152600460208181526040808420815161012081018352815460ff8116151582526101008082046001600160581b031695830195909552600160601b90046001600160a01b039081169382019390935260018201548316606082015260028201546080820152600382015460a08201529381015490911660c0840152600581015460e08401526006810180549192840191610745906120f8565b80601f0160208091040260200160405190810160405280929190818152602001828054610771906120f8565b80156107be5780601f10610793576101008083540402835291602001916107be565b820191906000526020600020905b8154815290600101906020018083116107a157829003601f168201915b505050505081525050905080600001516107f65780604051630958638160e11b81526004016107ed9190611f76565b60405180910390fd5b600061080f8683602001516001600160581b03166115c4565b60608381015160a0850151604080516001600160a01b038c16602080830191909152308284015282518083038401815282870184528051908201207fff0000000000000000000000000000000000000000000000000000000000000060808401529490951b6bffffffffffffffffffffffff19166081820152609581019390935260b5808401929092528051808403909201825260d5909201909152805191012090915060009060408481015160c086015185549251631375323f60e31b81527f00000000000000000000000000000000000000000000000000000000000000006001600160a01b039081166004830152808616602483015291821660448201526101009093046001600160581b031660648401529293509190911690639ba991f890608401602060405180830381600087803b15801561094f57600080fd5b505af1158015610963573d6000803e3d6000fd5b505050506040513d601f19601f820116820180604052508101906109879190611b8d565b606084015160c085015184546040516306cadc7960e21b81526001600160a01b038c81166004830152808616602483015292831660448201526101009091046001600160581b031660648201529297501690631b2b71e490608401602060405180830381600087803b1580156109fc57600080fd5b505af1158015610a10573d6000803e3d6000fd5b505050506040513d601f19601f82011682018060405250810190610a349190611b8d565b9350806001600160a01b0316846001600160a01b031614610a7b576040516305048e8760e11b81526001600160a01b038083166004830152851660248201526044016107ed565b60c0830151604051633c2b103160e21b81526001600160a01b038981166004830152600092169063f0ac40c49060240160006040518083038186803b158015610ac357600080fd5b505afa158015610ad7573d6000803e3d6000fd5b505050506040513d6000823e601f3d908101601f19168201604052610aff9190810190611c96565b8051909150610b2c57604051633c56810b60e21b81526001600160a01b03891660048201526024016107ed565b82546001600160a01b03878116600160601b9081026bffffffffffffffffffffff00909316929092176001908117865580860180548984166001600160a01b03199182161782556002805493840181556000819052885493027f405787fa12a823e0f2b7631cc41b3ba8828b3321ca811111fa75cd3aa3bb5ace8101805460ff909516151560ff198616811782558a546001600160581b0361010091829004811682026bffffffffffffffffffffff00199093166bffffffffffffffffffffffff1990981697909717919091178083558b54899004881689026bffffffffffffffffffffffff9182161790925584547f405787fa12a823e0f2b7631cc41b3ba8828b3321ca811111fa75cd3aa3bb5acf909301805490941692871692831784558454600160a01b90819004909216909102909117909155875491546040805192840490941682529490910483166020820152928216908301528891908a16907f87cc75e536ac0074a48c024a0a07dc0b5a1025f2ad992f76125df37add2c068f9060600160405180910390a350506000805460ff19166001179055509194909350915050565b610cda611579565b6006546001600160a01b0382811691161415610d205760065460405163c3226b7360e01b81526001600160a01b03808416600483015290911660248201526044016107ed565b600780546001600160a01b038381166001600160a01b031983168117909355604080519190921680825260208201939093527f2df3edf32bd243b7fb5e2d31673b2c1e842eff07d227e05d34b5135021a1683891015b60405180910390a15050565b6004602081905260009182526040909120805460018201546002830154600384015494840154600585015460068601805460ff87169861010088046001600160581b031698600160601b9098046001600160a01b0390811698978116979195169392909161054f906120f8565b610df7611579565b600060018054905090506000836001600160a01b03166310df4f526040518163ffffffff1660e01b815260040160206040518083038186803b158015610e3c57600080fd5b505afa158015610e50573d6000803e3d6000fd5b505050506040513d601f19601f82011682018060405250810190610e749190611bd4565b90506000856001600160a01b031663870ad7fa6040518163ffffffff1660e01b815260040160206040518083038186803b158015610eb157600080fd5b505afa158015610ec5573d6000803e3d6000fd5b505050506040513d601f19601f82011682018060405250810190610ee99190611bd4565b60408051602081018590529081018290526001600160a01b0386166060820152909150600090608001604051602081830303815290604052805190602001209050610f3481856116f5565b600084815260046020908152604090912080546bffffffffffffffffffffff0019166101006001600160581b0388160217815589519091610f7c9160068401918c01906118f4565b50868160010160006101000a8154816001600160a01b0302191690836001600160a01b031602179055508781600001600c6101000a8154816001600160a01b0302191690836001600160a01b03160217905550858160040160006101000a8154816001600160a01b0302191690836001600160a01b0316021790555083816003018190555082816002018190555081816005018190555060018160000160006101000a81548160ff02191690831515021790555060018190806001815401808255809150506001900390600052602060002090600702016000909190919091506000820160009054906101000a900460ff168160000160006101000a81548160ff0219169083151502179055506000820160019054906101000a90046001600160581b03168160000160016101000a8154816001600160581b0302191690836001600160581b0316021790555060008201600c9054906101000a90046001600160a01b031681600001600c6101000a8154816001600160a01b0302191690836001600160a01b031602179055506001820160009054906101000a90046001600160a01b03168160010160006101000a8154816001600160a01b0302191690836001600160a01b0316021790555060028201548160020155600382015481600301556004820160009054906101000a90046001600160a01b03168160040160006101000a8154816001600160a01b0302191690836001600160a01b031602179055506005820154816005015560068201816006019080546111bb906120f8565b6111c6929190611978565b5050506000600380548060200260200160405190810160405280929190818152602001828054801561122157602002820191906000526020600020905b81546001600160a01b03168152600190910190602001808311611203575b5050505050905060005b81518110156112de57600082828151811061125657634e487b7160e01b600052603260045260246000fd5b60200260200101519050886001600160a01b0316816001600160a01b0316141561128057506112de565b50600380546001810182556000919091527fc2575a0e9e593c00f959f8c92f12db2869c3395a3b0502d05e2516446f71f85b0180546001600160a01b0319166001600160a01b038a16179055806112d681612133565b91505061122b565b507f762b8fc43a2bd9ece972a1d1d8db08f6b4c5bfe96114e43b84ef52a1b0c85f756001878b8b878f60405161131996959493929190611ddf565b60405180910390a150505050505050505050565b611335611579565b6007546001600160a01b031661135e57604051633e2b53a560e01b815260040160405180910390fd5b60068054600780546001600160a01b038082166001600160a01b0319808616821790965594909116909155604080519190921680825260208201939093527fa6fd993b45f105f3b99176403c23f4df5f10600b416795ff8223ff7ad9efb4f99101610665565b600381815481106113d457600080fd5b6000918252602090912001546001600160a01b0316905081565b6113f6611579565b50565b611401611579565b6008546001600160a01b038281169116141561144757600854604051630a502a8f60e21b81526001600160a01b03808416600483015290911660248201526044016107ed565b600980546001600160a01b038381166001600160a01b031983168117909355604080519190921680825260208201939093527f3af6d72823f6692d6673266dabbf4e3165600dcf901b0188c596fe7dad74caf39101610d76565b6114a9611579565b6000600182815481106114cc57634e487b7160e01b600052603260045260246000fd5b906000526020600020906007020190506000801b81600501541415611507576040516308e1f4c960e01b8152600481018390526024016107ed565b805460ff19811660ff9182161590811780845560018401546040517f3a23a6fdafdcd184715cc363b2dcefad97be8b3a659d21faa90068b3b4d5c74994610d769416926001600160581b03610100820416926001600160a01b03600160601b9092048216929116906006880190611e9a565b6006546001600160a01b0316336001600160a01b0316146115c25760065460405163431c27f560e01b81523360048201526001600160a01b0390911660248201526044016107ed565b565b6001600160a01b038216600090815260056020908152604080832084845290915281205460ff1680151560011415611621576040516350f5a01360e11b81526001600160a01b0385166004820152602481018490526044016107ed565b50506040805160a08101825260008082526002546001600160581b039081166020808501918252848601848152606086018581526bffffffffffffffffffffffff808a16608089019081526001600160a01b038c81168952600586528a89208c8a529095529890962096518754945192518416600160601b0292909516610100026bffffffffffffffffffffff0019951515959095166bffffffffffffffffffffffff1990941693909317939093178416929092178455519351909116600160a01b02921691909117600182015592915050565b60006001805480602002602001604051908101604052809291908181526020016000905b82821015611856576000848152602090819020604080516101208101825260078602909201805460ff8116151584526101008082046001600160581b031695850195909552600160601b90046001600160a01b039081169284019290925260018101548216606084015260028101546080840152600381015460a0840152600481015490911660c0830152600581015460e083015260068101805492939192918401916117c5906120f8565b80601f01602080910402602001604051908101604052809291908181526020018280546117f1906120f8565b801561183e5780601f106118135761010080835404028352916020019161183e565b820191906000526020600020905b81548152906001019060200180831161182157829003601f168201915b50505050508152505081526020019060010190611719565b50505050905060005b828110156118ee5781818151811061188757634e487b7160e01b600052603260045260246000fd5b602002602001015160e001518414156118dc578181815181106118ba57634e487b7160e01b600052603260045260246000fd5b60200260200101516040516331043c6560e01b81526004016107ed9190611f76565b806118e681612133565b91505061185f565b50505050565b828054611900906120f8565b90600052602060002090601f0160209004810192826119225760008555611968565b82601f1061193b57805160ff1916838001178555611968565b82800160010185558215611968579182015b8281111561196857825182559160200191906001019061194d565b506119749291506119f3565b5090565b828054611984906120f8565b90600052602060002090601f0160209004810192826119a65760008555611968565b82601f106119b75780548555611968565b8280016001018555821561196857600052602060002091601f016020900482015b828111156119685782548255916001019190600101906119d8565b5b8082111561197457600081556001016119f4565b8051611a1381612170565b919050565b600082601f830112611a28578081fd5b81516020611a3d611a3883612080565b61204f565b80838252828201915082860187848660051b8901011115611a5c578586fd5b855b85811015611a83578151611a7181612170565b84529284019290840190600101611a5e565b5090979650505050505050565b600082601f830112611aa0578081fd5b81516020611ab0611a3883612080565b80838252828201915082860187848660051b8901011115611acf578586fd5b855b85811015611a8357815184529284019290840190600101611ad1565b80518015158114611a1357600080fd5b8035611a1381612170565b600082601f830112611b18578081fd5b8151611b26611a38826120a4565b818152846020838601011115611b3a578283fd5b611b4b8260208301602087016120cc565b949350505050565b80516001600160581b0381168114611a1357600080fd5b600060208284031215611b7b578081fd5b8135611b8681612170565b9392505050565b600060208284031215611b9e578081fd5b8151611b8681612170565b60008060408385031215611bbb578081fd5b8235611bc681612170565b946020939093013593505050565b600060208284031215611be5578081fd5b5051919050565b60008060008060808587031215611c01578182fd5b843567ffffffffffffffff811115611c17578283fd5b8501601f81018713611c27578283fd5b8035611c35611a38826120a4565b818152886020838501011115611c49578485fd5b8160208401602083013784602083830101528096505050506020850135611c6f81612170565b9250611c7d60408601611afd565b9150611c8b60608601611afd565b905092959194509250565b600060208284031215611ca7578081fd5b815167ffffffffffffffff80821115611cbe578283fd5b9083019060e08286031215611cd1578283fd5b611cd9612026565b611ce283611aed565b8152611cf060208401611b53565b6020820152604083015182811115611d06578485fd5b611d1287828601611b08565b604083015250611d2460608401611a08565b6060820152608083015182811115611d3a578485fd5b611d4687828601611a18565b60808301525060a083015182811115611d5d578485fd5b611d6987828601611a90565b60a08301525060c083015182811115611d80578485fd5b611d8c87828601611a18565b60c08301525095945050505050565b600060208284031215611dac578081fd5b5035919050565b60008151808452611dcb8160208601602086016120cc565b601f01601f19169290920160200192915050565b861515815285602082015260006001600160a01b03808716604084015280861660608401525083608083015260c060a0830152611e1f60c0830184611db3565b98975050505050505050565b60006101208b151583526001600160581b038b1660208401526001600160a01b03808b166040850152808a1660608501528860808501528760a085015280871660c0850152508460e084015280610100840152611e8a81840185611db3565b9c9b505050505050505050505050565b8515158152600060206001600160581b038716818401526001600160a01b03808716604085015280861660608501525060a0608084015281845483600182811c915080831680611eeb57607f831692505b858310811415611f0957634e487b7160e01b87526022600452602487fd5b60a0880183905260c08801818015611f285760018114611f3957611f63565b60ff19861682528782019650611f63565b60008b815260209020895b86811015611f5d57815484820152908501908901611f44565b83019750505b50949d9c50505050505050505050505050565b60208152611f8960208201835115159052565b60006020830151611fa560408401826001600160581b03169052565b5060408301516001600160a01b03811660608401525060608301516001600160a01b038116608084015250608083015160a083015260a083015160c083015260c0830151611ffe60e08401826001600160a01b03169052565b5060e08301516101008381019190915283015161012080840152611b4b610140840182611db3565b60405160e0810167ffffffffffffffff811182821017156120495761204961215a565b60405290565b604051601f8201601f1916810167ffffffffffffffff811182821017156120785761207861215a565b604052919050565b600067ffffffffffffffff82111561209a5761209a61215a565b5060051b60200190565b600067ffffffffffffffff8211156120be576120be61215a565b50601f01601f191660200190565b60005b838110156120e75781810151838201526020016120cf565b838111156118ee5750506000910152565b600181811c9082168061210c57607f821691505b6020821081141561212d57634e487b7160e01b600052602260045260246000fd5b50919050565b600060001982141561215357634e487b7160e01b81526011600452602481fd5b5060010190565b634e487b7160e01b600052604160045260246000fd5b6001600160a01b03811681146113f657600080fdfea26469706673582212200863aa433a51e0ab33da73c3bffeb8739cbca845ee76109292dc4aa5c78cabff64736f6c63430008040033",
  "linkReferences": {},
  "deployedLinkReferences": {}
}