{
  "_format": "hh-sol-artifact-1",
  "contractName": "Hangar18",
  "sourceName": "contracts/cygnus-core/Hangar18.sol",
  "abi": [
    {
      "inputs": [
        {
          "internalType": "address",
          "name": "_admin",
          "type": "address"
        },
        {
          "internalType": "address",
          "name": "_daoReserves",
          "type": "address"
        },
        {
          "internalType": "address",
          "name": "_usd",
          "type": "address"
        },
        {
          "internalType": "address",
          "name": "_nativeToken",
          "type": "address"
        }
      ],
      "stateMutability": "nonpayable",
      "type": "constructor"
    },
    {
      "inputs": [
        {
          "internalType": "address",
          "name": "newPendingAdmin",
          "type": "address"
        },
        {
          "internalType": "address",
          "name": "admin",
          "type": "address"
        }
      ],
      "name": "Hangar18__AdminAlreadySet",
      "type": "error"
    },
    {
      "inputs": [
        {
          "internalType": "address",
          "name": "create2Collateral",
          "type": "address"
        },
        {
          "internalType": "address",
          "name": "collateral",
          "type": "address"
        }
      ],
      "name": "Hangar18__CollateralAddressMismatch",
      "type": "error"
    },
    {
      "inputs": [
        {
          "internalType": "address",
          "name": "sender",
          "type": "address"
        },
        {
          "internalType": "address",
          "name": "admin",
          "type": "address"
        }
      ],
      "name": "Hangar18__CygnusAdminOnly",
      "type": "error"
    },
    {
      "inputs": [
        {
          "internalType": "address",
          "name": "priceOracle",
          "type": "address"
        },
        {
          "internalType": "address",
          "name": "newPriceOracle",
          "type": "address"
        }
      ],
      "name": "Hangar18__CygnusNebulaAlreadySet",
      "type": "error"
    },
    {
      "inputs": [],
      "name": "Hangar18__CygnusNebulaCantBeZero",
      "type": "error"
    },
    {
      "inputs": [
        {
          "internalType": "address",
          "name": "newPendingDaoReserves",
          "type": "address"
        },
        {
          "internalType": "address",
          "name": "daoReserves",
          "type": "address"
        }
      ],
      "name": "Hangar18__DaoReservesAlreadySet",
      "type": "error"
    },
    {
      "inputs": [],
      "name": "Hangar18__DaoReservesCantBeZero",
      "type": "error"
    },
    {
      "inputs": [
        {
          "internalType": "address",
          "name": "lpTokenPair",
          "type": "address"
        }
      ],
      "name": "Hangar18__LPTokenPairNotSupported",
      "type": "error"
    },
    {
      "inputs": [
        {
          "components": [
            {
              "internalType": "bool",
              "name": "status",
              "type": "bool"
            },
            {
              "internalType": "uint88",
              "name": "orbiterId",
              "type": "uint88"
            },
            {
              "internalType": "contract IAlbireoOrbiter",
              "name": "albireoOrbiter",
              "type": "address"
            },
            {
              "internalType": "contract IDenebOrbiter",
              "name": "denebOrbiter",
              "type": "address"
            },
            {
              "internalType": "bytes32",
              "name": "borrowableInitCodeHash",
              "type": "bytes32"
            },
            {
              "internalType": "bytes32",
              "name": "collateralInitCodeHash",
              "type": "bytes32"
            },
            {
              "internalType": "contract ICygnusNebulaOracle",
              "name": "nebulaOracle",
              "type": "address"
            },
            {
              "internalType": "bytes32",
              "name": "uniqueHash",
              "type": "bytes32"
            },
            {
              "internalType": "string",
              "name": "orbiterName",
              "type": "string"
            }
          ],
          "internalType": "struct IHangar18.Orbiter",
          "name": "orbiter",
          "type": "tuple"
        }
      ],
      "name": "Hangar18__OrbiterAlreadySet",
      "type": "error"
    },
    {
      "inputs": [
        {
          "components": [
            {
              "internalType": "bool",
              "name": "status",
              "type": "bool"
            },
            {
              "internalType": "uint88",
              "name": "orbiterId",
              "type": "uint88"
            },
            {
              "internalType": "contract IAlbireoOrbiter",
              "name": "albireoOrbiter",
              "type": "address"
            },
            {
              "internalType": "contract IDenebOrbiter",
              "name": "denebOrbiter",
              "type": "address"
            },
            {
              "internalType": "bytes32",
              "name": "borrowableInitCodeHash",
              "type": "bytes32"
            },
            {
              "internalType": "bytes32",
              "name": "collateralInitCodeHash",
              "type": "bytes32"
            },
            {
              "internalType": "contract ICygnusNebulaOracle",
              "name": "nebulaOracle",
              "type": "address"
            },
            {
              "internalType": "bytes32",
              "name": "uniqueHash",
              "type": "bytes32"
            },
            {
              "internalType": "string",
              "name": "orbiterName",
              "type": "string"
            }
          ],
          "internalType": "struct IHangar18.Orbiter",
          "name": "orbiter",
          "type": "tuple"
        }
      ],
      "name": "Hangar18__OrbitersAreInactive",
      "type": "error"
    },
    {
      "inputs": [
        {
          "internalType": "uint256",
          "name": "orbiterId",
          "type": "uint256"
        }
      ],
      "name": "Hangar18__OrbitersNotSet",
      "type": "error"
    },
    {
      "inputs": [
        {
          "internalType": "address",
          "name": "newPendingAdmin",
          "type": "address"
        },
        {
          "internalType": "address",
          "name": "pendingAdmin",
          "type": "address"
        }
      ],
      "name": "Hangar18__PendingAdminAlreadySet",
      "type": "error"
    },
    {
      "inputs": [],
      "name": "Hangar18__PendingAdminCantBeZero",
      "type": "error"
    },
    {
      "inputs": [
        {
          "internalType": "address",
          "name": "newPendingDaoReserves",
          "type": "address"
        },
        {
          "internalType": "address",
          "name": "pendingDaoReserves",
          "type": "address"
        }
      ],
      "name": "Hangar18__PendingDaoReservesAlreadySet",
      "type": "error"
    },
    {
      "inputs": [
        {
          "internalType": "address",
          "name": "lpTokenPair",
          "type": "address"
        },
        {
          "internalType": "uint256",
          "name": "orbiterId",
          "type": "uint256"
        }
      ],
      "name": "Hangar18__ShuttleAlreadyDeployed",
      "type": "error"
    },
    {
      "inputs": [],
      "name": "Hangar18__X1VaultCantBeZero",
      "type": "error"
    },
    {
      "inputs": [],
      "name": "ReentrantCall",
      "type": "error"
    },
    {
      "anonymous": false,
      "inputs": [
        {
          "indexed": false,
          "internalType": "bool",
          "name": "status",
          "type": "bool"
        },
        {
          "indexed": false,
          "internalType": "uint256",
          "name": "orbitersLength",
          "type": "uint256"
        },
        {
          "indexed": false,
          "internalType": "contract IAlbireoOrbiter",
          "name": "borrowOrbiter",
          "type": "address"
        },
        {
          "indexed": false,
          "internalType": "contract IDenebOrbiter",
          "name": "denebOrbiter",
          "type": "address"
        },
        {
          "indexed": false,
          "internalType": "contract ICygnusNebulaOracle",
          "name": "nebulaOracle",
          "type": "address"
        },
        {
          "indexed": false,
          "internalType": "bytes32",
          "name": "uniqueHash",
          "type": "bytes32"
        },
        {
          "indexed": false,
          "internalType": "string",
          "name": "orbitersName",
          "type": "string"
        }
      ],
      "name": "InitializeOrbiters",
      "type": "event"
    },
    {
      "anonymous": false,
      "inputs": [
        {
          "indexed": false,
          "internalType": "address",
          "name": "oldAdmin",
          "type": "address"
        },
        {
          "indexed": false,
          "internalType": "address",
          "name": "newAdmin",
          "type": "address"
        }
      ],
      "name": "NewCygnusAdmin",
      "type": "event"
    },
    {
      "anonymous": false,
      "inputs": [
        {
          "indexed": false,
          "internalType": "contract ICygnusNebulaOracle",
          "name": "oldCygnusNebula",
          "type": "address"
        },
        {
          "indexed": false,
          "internalType": "contract ICygnusNebulaOracle",
          "name": "newCygnusNebula",
          "type": "address"
        }
      ],
      "name": "NewCygnusNebulaOracle",
      "type": "event"
    },
    {
      "anonymous": false,
      "inputs": [
        {
          "indexed": false,
          "internalType": "address",
          "name": "oldDaoReserves",
          "type": "address"
        },
        {
          "indexed": false,
          "internalType": "address",
          "name": "daoReserves",
          "type": "address"
        }
      ],
      "name": "NewDaoReserves",
      "type": "event"
    },
    {
      "anonymous": false,
      "inputs": [
        {
          "indexed": false,
          "internalType": "address",
          "name": "owner",
          "type": "address"
        },
        {
          "indexed": false,
          "internalType": "address",
          "name": "spender",
          "type": "address"
        },
        {
          "indexed": false,
          "internalType": "bool",
          "name": "status",
          "type": "bool"
        }
      ],
      "name": "NewMasterBorrowApproval",
      "type": "event"
    },
    {
      "anonymous": false,
      "inputs": [
        {
          "indexed": false,
          "internalType": "address",
          "name": "pendingAdmin",
          "type": "address"
        },
        {
          "indexed": false,
          "internalType": "address",
          "name": "_admin",
          "type": "address"
        }
      ],
      "name": "NewPendingCygnusAdmin",
      "type": "event"
    },
    {
      "anonymous": false,
      "inputs": [
        {
          "indexed": false,
          "internalType": "address",
          "name": "oldPendingdaoReservesContract",
          "type": "address"
        },
        {
          "indexed": false,
          "internalType": "address",
          "name": "newPendingdaoReservesContract",
          "type": "address"
        }
      ],
      "name": "NewPendingDaoReserves",
      "type": "event"
    },
    {
      "anonymous": false,
      "inputs": [
        {
          "indexed": true,
          "internalType": "address",
          "name": "lpTokenPair",
          "type": "address"
        },
        {
          "indexed": true,
          "internalType": "uint256",
          "name": "shuttleId",
          "type": "uint256"
        },
        {
          "indexed": false,
          "internalType": "uint256",
          "name": "orbiterId",
          "type": "uint256"
        },
        {
          "indexed": false,
          "internalType": "address",
          "name": "borrowable",
          "type": "address"
        },
        {
          "indexed": false,
          "internalType": "address",
          "name": "collateral",
          "type": "address"
        }
      ],
      "name": "NewShuttle",
      "type": "event"
    },
    {
      "anonymous": false,
      "inputs": [
        {
          "indexed": false,
          "internalType": "address",
          "name": "oldVault",
          "type": "address"
        },
        {
          "indexed": false,
          "internalType": "address",
          "name": "newVault",
          "type": "address"
        }
      ],
      "name": "NewX1Vault",
      "type": "event"
    },
    {
      "anonymous": false,
      "inputs": [
        {
          "indexed": false,
          "internalType": "bool",
          "name": "status",
          "type": "bool"
        },
        {
          "indexed": false,
          "internalType": "uint256",
          "name": "orbiterId",
          "type": "uint256"
        },
        {
          "indexed": false,
          "internalType": "contract IAlbireoOrbiter",
          "name": "albireoOrbiter",
          "type": "address"
        },
        {
          "indexed": false,
          "internalType": "contract IDenebOrbiter",
          "name": "denebOrbiter",
          "type": "address"
        },
        {
          "indexed": false,
          "internalType": "string",
          "name": "orbiterName",
          "type": "string"
        }
      ],
      "name": "SwitchOrbiterStatus",
      "type": "event"
    },
    {
      "inputs": [],
      "name": "AGGREGATION_ROUTER_V5",
      "outputs": [
        {
          "internalType": "contract IAggregationRouterV5",
          "name": "",
          "type": "address"
        }
      ],
      "stateMutability": "view",
      "type": "function"
    },
    {
      "inputs": [],
      "name": "admin",
      "outputs": [
        {
          "internalType": "address",
          "name": "",
          "type": "address"
        }
      ],
      "stateMutability": "view",
      "type": "function"
    },
    {
      "inputs": [
        {
          "internalType": "uint256",
          "name": "",
          "type": "uint256"
        }
      ],
      "name": "allNebulas",
      "outputs": [
        {
          "internalType": "contract ICygnusNebulaOracle",
          "name": "",
          "type": "address"
        }
      ],
      "stateMutability": "view",
      "type": "function"
    },
    {
      "inputs": [
        {
          "internalType": "uint256",
          "name": "",
          "type": "uint256"
        }
      ],
      "name": "allOrbiters",
      "outputs": [
        {
          "internalType": "bool",
          "name": "status",
          "type": "bool"
        },
        {
          "internalType": "uint88",
          "name": "orbiterId",
          "type": "uint88"
        },
        {
          "internalType": "contract IAlbireoOrbiter",
          "name": "albireoOrbiter",
          "type": "address"
        },
        {
          "internalType": "contract IDenebOrbiter",
          "name": "denebOrbiter",
          "type": "address"
        },
        {
          "internalType": "bytes32",
          "name": "borrowableInitCodeHash",
          "type": "bytes32"
        },
        {
          "internalType": "bytes32",
          "name": "collateralInitCodeHash",
          "type": "bytes32"
        },
        {
          "internalType": "contract ICygnusNebulaOracle",
          "name": "nebulaOracle",
          "type": "address"
        },
        {
          "internalType": "bytes32",
          "name": "uniqueHash",
          "type": "bytes32"
        },
        {
          "internalType": "string",
          "name": "orbiterName",
          "type": "string"
        }
      ],
      "stateMutability": "view",
      "type": "function"
    },
    {
      "inputs": [
        {
          "internalType": "uint256",
          "name": "",
          "type": "uint256"
        }
      ],
      "name": "allShuttles",
      "outputs": [
        {
          "internalType": "bool",
          "name": "launched",
          "type": "bool"
        },
        {
          "internalType": "uint88",
          "name": "shuttleId",
          "type": "uint88"
        },
        {
          "internalType": "address",
          "name": "borrowable",
          "type": "address"
        },
        {
          "internalType": "address",
          "name": "collateral",
          "type": "address"
        },
        {
          "internalType": "uint96",
          "name": "orbiterId",
          "type": "uint96"
        }
      ],
      "stateMutability": "view",
      "type": "function"
    },
    {
      "inputs": [],
      "name": "cygnusX1Vault",
      "outputs": [
        {
          "internalType": "address",
          "name": "",
          "type": "address"
        }
      ],
      "stateMutability": "view",
      "type": "function"
    },
    {
      "inputs": [],
      "name": "daoReserves",
      "outputs": [
        {
          "internalType": "address",
          "name": "",
          "type": "address"
        }
      ],
      "stateMutability": "view",
      "type": "function"
    },
    {
      "inputs": [
        {
          "internalType": "address",
          "name": "lpTokenPair",
          "type": "address"
        },
        {
          "internalType": "uint256",
          "name": "orbiterId",
          "type": "uint256"
        }
      ],
      "name": "deployShuttle",
      "outputs": [
        {
          "internalType": "address",
          "name": "borrowable",
          "type": "address"
        },
        {
          "internalType": "address",
          "name": "collateral",
          "type": "address"
        }
      ],
      "stateMutability": "nonpayable",
      "type": "function"
    },
    {
      "inputs": [
        {
          "internalType": "uint256",
          "name": "",
          "type": "uint256"
        }
      ],
      "name": "getOrbiters",
      "outputs": [
        {
          "internalType": "bool",
          "name": "status",
          "type": "bool"
        },
        {
          "internalType": "uint88",
          "name": "orbiterId",
          "type": "uint88"
        },
        {
          "internalType": "contract IAlbireoOrbiter",
          "name": "albireoOrbiter",
          "type": "address"
        },
        {
          "internalType": "contract IDenebOrbiter",
          "name": "denebOrbiter",
          "type": "address"
        },
        {
          "internalType": "bytes32",
          "name": "borrowableInitCodeHash",
          "type": "bytes32"
        },
        {
          "internalType": "bytes32",
          "name": "collateralInitCodeHash",
          "type": "bytes32"
        },
        {
          "internalType": "contract ICygnusNebulaOracle",
          "name": "nebulaOracle",
          "type": "address"
        },
        {
          "internalType": "bytes32",
          "name": "uniqueHash",
          "type": "bytes32"
        },
        {
          "internalType": "string",
          "name": "orbiterName",
          "type": "string"
        }
      ],
      "stateMutability": "view",
      "type": "function"
    },
    {
      "inputs": [
        {
          "internalType": "address",
          "name": "",
          "type": "address"
        },
        {
          "internalType": "uint256",
          "name": "",
          "type": "uint256"
        }
      ],
      "name": "getShuttles",
      "outputs": [
        {
          "internalType": "bool",
          "name": "launched",
          "type": "bool"
        },
        {
          "internalType": "uint88",
          "name": "shuttleId",
          "type": "uint88"
        },
        {
          "internalType": "address",
          "name": "borrowable",
          "type": "address"
        },
        {
          "internalType": "address",
          "name": "collateral",
          "type": "address"
        },
        {
          "internalType": "uint96",
          "name": "orbiterId",
          "type": "uint96"
        }
      ],
      "stateMutability": "view",
      "type": "function"
    },
    {
      "inputs": [
        {
          "internalType": "string",
          "name": "orbiterName",
          "type": "string"
        },
        {
          "internalType": "contract IAlbireoOrbiter",
          "name": "albireoOrbiter",
          "type": "address"
        },
        {
          "internalType": "contract IDenebOrbiter",
          "name": "denebOrbiter",
          "type": "address"
        },
        {
          "internalType": "contract ICygnusNebulaOracle",
          "name": "nebulaOracle",
          "type": "address"
        }
      ],
      "name": "initializeOrbiter",
      "outputs": [],
      "stateMutability": "nonpayable",
      "type": "function"
    },
    {
      "inputs": [],
      "name": "nativeToken",
      "outputs": [
        {
          "internalType": "address",
          "name": "",
          "type": "address"
        }
      ],
      "stateMutability": "view",
      "type": "function"
    },
    {
      "inputs": [],
      "name": "nebulasDeployed",
      "outputs": [
        {
          "internalType": "uint256",
          "name": "",
          "type": "uint256"
        }
      ],
      "stateMutability": "view",
      "type": "function"
    },
    {
      "inputs": [],
      "name": "orbitersDeployed",
      "outputs": [
        {
          "internalType": "uint256",
          "name": "",
          "type": "uint256"
        }
      ],
      "stateMutability": "view",
      "type": "function"
    },
    {
      "inputs": [],
      "name": "pendingAdmin",
      "outputs": [
        {
          "internalType": "address",
          "name": "",
          "type": "address"
        }
      ],
      "stateMutability": "view",
      "type": "function"
    },
    {
      "inputs": [],
      "name": "pendingDaoReserves",
      "outputs": [
        {
          "internalType": "address",
          "name": "",
          "type": "address"
        }
      ],
      "stateMutability": "view",
      "type": "function"
    },
    {
      "inputs": [
        {
          "internalType": "address",
          "name": "newX1Vault",
          "type": "address"
        }
      ],
      "name": "setCygnusX1Vault",
      "outputs": [],
      "stateMutability": "nonpayable",
      "type": "function"
    },
    {
      "inputs": [],
      "name": "setNewCygnusAdmin",
      "outputs": [],
      "stateMutability": "nonpayable",
      "type": "function"
    },
    {
      "inputs": [],
      "name": "setNewDaoReserves",
      "outputs": [],
      "stateMutability": "nonpayable",
      "type": "function"
    },
    {
      "inputs": [
        {
          "internalType": "address",
          "name": "newPendingAdmin",
          "type": "address"
        }
      ],
      "name": "setPendingAdmin",
      "outputs": [],
      "stateMutability": "nonpayable",
      "type": "function"
    },
    {
      "inputs": [
        {
          "internalType": "address",
          "name": "newPendingDaoReserves",
          "type": "address"
        }
      ],
      "name": "setPendingDaoReserves",
      "outputs": [],
      "stateMutability": "nonpayable",
      "type": "function"
    },
    {
      "inputs": [],
      "name": "shuttlesDeployed",
      "outputs": [
        {
          "internalType": "uint256",
          "name": "",
          "type": "uint256"
        }
      ],
      "stateMutability": "view",
      "type": "function"
    },
    {
      "inputs": [
        {
          "internalType": "uint256",
          "name": "orbiterId",
          "type": "uint256"
        }
      ],
      "name": "switchOrbiterStatus",
      "outputs": [],
      "stateMutability": "nonpayable",
      "type": "function"
    },
    {
      "inputs": [],
      "name": "usd",
      "outputs": [
        {
          "internalType": "address",
          "name": "",
          "type": "address"
        }
      ],
      "stateMutability": "view",
      "type": "function"
    }
  ],
  "bytecode": "0x60c0346200013d57601f62002eac38819003918201601f191683019291906001600160401b03841183851017620001425781608092849260409687528339810103126200013d5781817fa6fd993b45f105f3b99176403c23f4df5f10600b416795ff8223ff7ad9efb4f982620000967fdc45b28468284159445ec8588dd4c555fc01ed3c9e7b3b6fd371be486f77913b9562000158565b620000a46020850162000158565b93620000c06060620000b885840162000158565b920162000158565b600160ff19600054161760005560018060a01b038093169260018060a01b03199684886006541617600655168096600854161760085560a052608052815190600082526020820152a1815190600082526020820152a151612d3e90816200016e82396080518181816105cc0152611878015260a051816104220152f35b600080fd5b634e487b7160e01b600052604160045260246000fd5b51906001600160a01b03821682036200013d5756fe6080604052600436101561001257600080fd5b60003560e01c806308890610146124475780631ad4c8c31461239d5780631f5b8f9214612361578063267822471461230f578063269a2ce4146122815780632f94f7bf146121775780634d06fcd4146114b55780634dd18bf51461137a578063502b512e146112ce5780635b068af81461127c5780636f40b0c71461099457806380ffbb8814610958578063883fd1c91461084e5780639861a14f146107fc578063a5d29318146106fd578063b11de7e3146106b0578063c73ef9e81461065e578063d02c70e8146105f0578063d63a6ccd14610581578063daa3bc0114610446578063e1758bd8146103d7578063ea191e9f1461039b578063ec84a5cb1461017b5763f851a4401461012457600080fd5b346101765760007ffffffffffffffffffffffffffffffffffffffffffffffffffffffffffffffffc36011261017657602073ffffffffffffffffffffffffffffffffffffffff60065416604051908152f35b600080fd5b34610176576020807ffffffffffffffffffffffffffffffffffffffffffffffffffffffffffffffffc360112610176576004356101b66129a4565b6001906101c3818361259f565b509060058201541561036a5750805460ff81811615167fffffffffffffffffffffffffffffffffffffffffffffffffffffffffffffff00909116178155805492600673ffffffffffffffffffffffffffffffffffffffff84840154169201916040519460ff8116151586526affffffffffffffffffffff8160081c168387015260601c6040860152606085015260a06080850152600092825492610266846125bb565b938460a0880152828116908160001461030357506001146102aa575b7f3a23a6fdafdcd184715cc363b2dcefad97be8b3a659d21faa90068b3b4d5c74986860387a1005b60009081528281209094505b8385106102ef5750505050810160c001817f3a23a6fdafdcd184715cc363b2dcefad97be8b3a659d21faa90068b3b4d5c7498480610282565b805486860160c001529382019381016102b6565b905086955060c093507f3a23a6fdafdcd184715cc363b2dcefad97be8b3a659d21faa90068b3b4d5c749969492507fffffffffffffffffffffffffffffffffffffffffffffffffffffffffffffff0091501682840152151560051b82010191928480610282565b602490604051907f0b6d2e750000000000000000000000000000000000000000000000000000000082526004820152fd5b346101765760007ffffffffffffffffffffffffffffffffffffffffffffffffffffffffffffffffc360112610176576020600154604051908152f35b346101765760007ffffffffffffffffffffffffffffffffffffffffffffffffffffffffffffffffc36011261017657602060405173ffffffffffffffffffffffffffffffffffffffff7f0000000000000000000000000000000000000000000000000000000000000000168152f35b346101765760207ffffffffffffffffffffffffffffffffffffffffffffffffffffffffffffffffc3601126101765760043573ffffffffffffffffffffffffffffffffffffffff8082168083036101765761049f6129a4565b81600854169283821461052d57600980547fffffffffffffffffffffffff0000000000000000000000000000000000000000811684179091556040805173ffffffffffffffffffffffffffffffffffffffff9286168316815291841660208301527f3af6d72823f6692d6673266dabbf4e3165600dcf901b0188c596fe7dad74caf39190819081015b0390a1005b6040517f2496ad5a00000000000000000000000000000000000000000000000000000000815273ffffffffffffffffffffffffffffffffffffffff91821660048201529084166024820152604490fd5b0390fd5b346101765760007ffffffffffffffffffffffffffffffffffffffffffffffffffffffffffffffffc36011261017657602060405173ffffffffffffffffffffffffffffffffffffffff7f0000000000000000000000000000000000000000000000000000000000000000168152f35b346101765760207ffffffffffffffffffffffffffffffffffffffffffffffffffffffffffffffffc360112610176576004356005548110156101765773ffffffffffffffffffffffffffffffffffffffff61064e6020926005612826565b9190546040519260031b1c168152f35b346101765760007ffffffffffffffffffffffffffffffffffffffffffffffffffffffffffffffffc36011261017657602073ffffffffffffffffffffffffffffffffffffffff600a5416604051908152f35b346101765760007ffffffffffffffffffffffffffffffffffffffffffffffffffffffffffffffffc360112610176576020604051731111111254eeb25477b68fb85ed929f73a9605828152f35b346101765760407ffffffffffffffffffffffffffffffffffffffffffffffffffffffffffffffffc3601126101765760043573ffffffffffffffffffffffffffffffffffffffff9081811680910361017657600052600460205260406000206024356000526020526040600020906107f8600183549301546040519384938260a01c9216908060601c9060ff6affffffffffffffffffffff8260081c1691168693926080936affffffffffffffffffffff6bffffffffffffffffffffffff949897939860a08801991515885216602087015273ffffffffffffffffffffffffffffffffffffffff809216604087015216606085015216910152565b0390f35b346101765760007ffffffffffffffffffffffffffffffffffffffffffffffffffffffffffffffffc36011261017657602073ffffffffffffffffffffffffffffffffffffffff60095416604051908152f35b346101765760007ffffffffffffffffffffffffffffffffffffffffffffffffffffffffffffffffc360112610176576108856129a4565b60075473ffffffffffffffffffffffffffffffffffffffff80821691821561092e57600680547fffffffffffffffffffffffff000000000000000000000000000000000000000080821686179092559116600755604080519290911673ffffffffffffffffffffffffffffffffffffffff908116835290921660208201527fa6fd993b45f105f3b99176403c23f4df5f10600b416795ff8223ff7ad9efb4f99181908101610528565b60046040517fd88ccfdc000000000000000000000000000000000000000000000000000000008152fd5b346101765760007ffffffffffffffffffffffffffffffffffffffffffffffffffffffffffffffffc360112610176576020600254604051908152f35b346101765760807ffffffffffffffffffffffffffffffffffffffffffffffffffffffffffffffffc3601126101765760043567ffffffffffffffff811161017657366023820112156101765780600401356109ee816127ec565b916109fc604051938461260e565b81835236602483830101116101765781600092602460209301838601378301015273ffffffffffffffffffffffffffffffffffffffff60243516602435036101765760443573ffffffffffffffffffffffffffffffffffffffff811681036101765773ffffffffffffffffffffffffffffffffffffffff60643516606435036101765760005460ff811615611252577fffffffffffffffffffffffffffffffffffffffffffffffffffffffffffffff0016600055610ab86129a4565b600154604051927fef703c9600000000000000000000000000000000000000000000000000000000845260208460048173ffffffffffffffffffffffffffffffffffffffff87165afa9384156112125760009461121e575b50604051907fb3984b8d00000000000000000000000000000000000000000000000000000000825260208260048173ffffffffffffffffffffffffffffffffffffffff602435165afa918215611212576000926111de575b50604051602081019086825283604082015273ffffffffffffffffffffffffffffffffffffffff60643516606082015260608152610ba760808261260e565b51902091610bb48461298c565b610bc1604051918261260e565b8481526020810160016000527fb10e2d527612073b26eecdfd717e6a320cf44b4afac2b0732d9fcbe2b7fa0cf6906000905b8782106111c05750505060005b85811061115e575050600084815260036020526040902080547fffffffffffffffffffffffffffffffffffffffff0000000000000000000000ff16600886901b6bffffffffffffffffffffff001617815595825167ffffffffffffffff811161105d57610c7d81610c7460068b01546125bb565b60068b01612a16565b806020601f82116001146110975760009161108c575b507fffffffffffffffffffffffffffffffffffffffffffffffffffffffffffffffff8260011b9260031b1c19161760068801555b6001870180547fffffffffffffffffffffffff00000000000000000000000000000000000000001673ffffffffffffffffffffffffffffffffffffffff881617905586546bffffffffffffffffffffffff1660243560601b7fffffffffffffffffffffffffffffffffffffffff0000000000000000000000001617875573ffffffffffffffffffffffffffffffffffffffff606435167fffffffffffffffffffffffff00000000000000000000000000000000000000006004890154161760048801556003870155600286015581600586015560017fffffffffffffffffffffffffffffffffffffffffffffffffffffffffffffff008654161785556001546801000000000000000081101561105d57806001610de99201600155600161259f565b92909261102e5785837fa7e99fcdd4ebcda1e96dd79db97b7b405991bff749f000898cc69d5ede019d4597610e939503610ec3575b5050610e2b606435612c12565b73ffffffffffffffffffffffffffffffffffffffff6040519586956001875260208701528160243516604087015216606085015273ffffffffffffffffffffffffffffffffffffffff60643516608085015260a084015260e060c084015260e0830190612737565b0390a1600080547fffffffffffffffffffffffffffffffffffffffffffffffffffffffffffffff00166001179055005b60068083610f0360ff611027965416859060ff7fffffffffffffffffffffffffffffffffffffffffffffffffffffffffffffff0083541691151516179055565b805484547fffffffffffffffffffffffffffffffffffffffff0000000000000000000000ff166bffffffffffffffffffffff00909116178455805484546bffffffffffffffffffffffff167fffffffffffffffffffffffffffffffffffffffff0000000000000000000000009091161784556001840173ffffffffffffffffffffffffffffffffffffffff6001830154167fffffffffffffffffffffffff000000000000000000000000000000000000000082541617905560028101546002850155600381015460038501556004840173ffffffffffffffffffffffffffffffffffffffff6004830154167fffffffffffffffffffffffff000000000000000000000000000000000000000082541617905560058101546005850155019101612a6a565b8680610e1e565b7f4e487b7100000000000000000000000000000000000000000000000000000000600052600060045260246000fd5b7f4e487b7100000000000000000000000000000000000000000000000000000000600052604160045260246000fd5b905084015189610c93565b91506006890160005260206000206000925b7fffffffffffffffffffffffffffffffffffffffffffffffffffffffffffffffe0831684106111465760019350827fffffffffffffffffffffffffffffffffffffffffffffffffffffffffffffffe081161061110f575b5050811b016006880155610cc7565b8601517fffffffffffffffffffffffffffffffffffffffffffffffffffffffffffffffff60f88460031b161c191690558980611100565b868101518255602093840193600190920191016110a9565b60e061116a8284612bfe565b51015185146111815761117c90612ba2565b610c00565b61118e9061057d92612bfe565b516040519182917ee9217c000000000000000000000000000000000000000000000000000000008352600483016128d5565b600760206001926111d08661283e565b815201930191019091610bf3565b9091506020813d60201161120a575b816111fa6020938361260e565b8101031261017657519085610b68565b3d91506111ed565b6040513d6000823e3d90fd5b9093506020813d60201161124a575b8161123a6020938361260e565b8101031261017657519284610b10565b3d915061122d565b60046040517f37ed32e8000000000000000000000000000000000000000000000000000000008152fd5b346101765760007ffffffffffffffffffffffffffffffffffffffffffffffffffffffffffffffffc36011261017657602073ffffffffffffffffffffffffffffffffffffffff60085416604051908152f35b346101765760207ffffffffffffffffffffffffffffffffffffffffffffffffffffffffffffffffc360112610176576004356000526003602052604060002080546107f873ffffffffffffffffffffffffffffffffffffffff80600185015416936002810154916003820154906004830154169061135360066005850154940161264f565b936040519787899860601c9060ff6affffffffffffffffffffff8260081c1691168a61277a565b346101765760207ffffffffffffffffffffffffffffffffffffffffffffffffffffffffffffffffc3601126101765760043573ffffffffffffffffffffffffffffffffffffffff808216808303610176576113d36129a4565b816006541680821461146457506105287f2df3edf32bd243b7fb5e2d31673b2c1e842eff07d227e05d34b5135021a1683893600754927fffffffffffffffffffffffff0000000000000000000000000000000000000000841617600755604051938493168390602090939293604083019473ffffffffffffffffffffffffffffffffffffffff809216845216910152565b6040517f681dd83c00000000000000000000000000000000000000000000000000000000815273ffffffffffffffffffffffffffffffffffffffff8581166004830152919091166024820152604490fd5b346101765760407ffffffffffffffffffffffffffffffffffffffffffffffffffffffffffffffffc3601126101765773ffffffffffffffffffffffffffffffffffffffff60043516600435036101765760005460ff811615611252577fffffffffffffffffffffffffffffffffffffffffffffffffffffffffffffff001660005561153e6129a4565b6024356000526003602052611556604060002061283e565b805115612141576affffffffffffffffffffff6020820151169073ffffffffffffffffffffffffffffffffffffffff600435166000526004602052604060002082600052602052600160ff604060002054161515146120f2576118e2916affffffffffffffffffffff6002541690604051916115d360a08461260e565b600083526020830152600060408301526000606083015280608083015273ffffffffffffffffffffffffffffffffffffffff60043516600052600460205260406000209060005260205261173f6bffffffffffffffffffffffff608060406000209361166d81511515869060ff7fffffffffffffffffffffffffffffffffffffffffffffffffffffffffffffff0083541691151516179055565b602081015185547fffffffffffffffffffffffffffffffffffffffff0000000000000000000000ff1660089190911b6bffffffffffffffffffffff0016178555604081015185546bffffffffffffffffffffffff1660609190911b7fffffffffffffffffffffffffffffffffffffffff0000000000000000000000001617855560608101519101519190911660a01b7fffffffffffffffffffffffff00000000000000000000000000000000000000001673ffffffffffffffffffffffffffffffffffffffff91909116176001830155565b60608281015160a08401516040805173ffffffffffffffffffffffffffffffffffffffff600435811660208301908152308385015292825294611782908261260e565b51902090604051917fffffffffffffffffffffffffffffffffffffffff00000000000000000000000060208401947fff00000000000000000000000000000000000000000000000000000000000000865260601b16602184015260358301526055820152605581526117f560758261260e565b5190201691602073ffffffffffffffffffffffffffffffffffffffff60408301511673ffffffffffffffffffffffffffffffffffffffff60c084015116906affffffffffffffffffffff60008654604051998a95869485937f9ba991f800000000000000000000000000000000000000000000000000000000855260081c16908b7f00000000000000000000000000000000000000000000000000000000000000006004860192936060926affffffffffffffffffffff929695608086019773ffffffffffffffffffffffffffffffffffffffff9283809216885216602087015216604085015216910152565b03925af1928315611212576000936120b5575b606082015160c083015184546040517f1b2b71e400000000000000000000000000000000000000000000000000000000815273ffffffffffffffffffffffffffffffffffffffff60048035821690830152888116602483015292831660448201526affffffffffffffffffffff60089290921c919091166064820152965060209187911681600081608481015b03925af194851561121257600095612079575b508073ffffffffffffffffffffffffffffffffffffffff8616036120295750600073ffffffffffffffffffffffffffffffffffffffff60c0602493015116604051928380927ff0ac40c400000000000000000000000000000000000000000000000000000000825273ffffffffffffffffffffffffffffffffffffffff6004351660048301525afa90811561121257600091611d4b575b505115611d035780546bffffffffffffffffffffff0016606083901b7fffffffffffffffffffffffffffffffffffffffff000000000000000000000000161760011781556001810180547fffffffffffffffffffffffff00000000000000000000000000000000000000001673ffffffffffffffffffffffffffffffffffffffff85161790556002546801000000000000000081101561105d57806001611ad892016002556002612554565b61102e57818103611bbd575b5073ffffffffffffffffffffffffffffffffffffffff6001825492015416604051916affffffffffffffffffffff8160081c16835260601c60208301526040820152602435907f87cc75e536ac0074a48c024a0a07dc0b5a1025f2ad992f76125df37add2c068f606073ffffffffffffffffffffffffffffffffffffffff6004351692a3600080547fffffffffffffffffffffffffffffffffffffffffffffffffffffffffffffff001660011790556040805173ffffffffffffffffffffffffffffffffffffffff928316815292909116602083015290f35b6001611cfd91611bfc60ff855416829060ff7fffffffffffffffffffffffffffffffffffffffffffffffffffffffffffffff0083541691151516179055565b835481547fffffffffffffffffffffffffffffffffffffffff0000000000000000000000ff166bffffffffffffffffffffff00909116178155835481546bffffffffffffffffffffffff167fffffffffffffffffffffffffffffffffffffffff0000000000000000000000009091161781550173ffffffffffffffffffffffffffffffffffffffff6001840154167fffffffffffffffffffffffff0000000000000000000000000000000000000000825416178155600183015460a01c73ffffffffffffffffffffffffffffffffffffffff7fffffffffffffffffffffffff000000000000000000000000000000000000000083549260a01b169116179055565b83611ae4565b60246040517f32556ecc00000000000000000000000000000000000000000000000000000000815273ffffffffffffffffffffffffffffffffffffffff600435166004820152fd5b3d9150816000823e611d5d828261260e565b60208183810103126101765780519067ffffffffffffffff82116101765760e082820184830103126101765760405192611d9860e08561260e565b828201518015158103610176578452602083830101516affffffffffffffffffffff811681036101765760208501526040838301015167ffffffffffffffff811161017657818301601f82868601010112156101765780848401015190611dfe826127ec565b91611e0c604051938461260e565b808352838501602082848989010101011161017657611e35916020808501918888010101612714565b6040850152611e4860608484010161296b565b60608501526080838301015167ffffffffffffffff811161017657818301601f828686010101121561017657808484010151611e838161298c565b91611e91604051938461260e565b81835260208084019260051b828888010101019084860182116101765785870101602001915b818310611ffc57505050608085015260a0838301015167ffffffffffffffff811161017657818301601f82868601010112156101765780848401015190611efd8261298c565b91611f0b604051938461260e565b80835260208084019160051b838888010101019184860183116101765785870101602001905b828210611fec5750505060a085015260c083830101519167ffffffffffffffff831161017657818101601f84868401010112156101765782848201015192611f788461298c565b94611f86604051968761260e565b84865260208087019560051b83838601010101938301841161017657602092010101915b818310611fbf5750505060c082015284611a2c565b825173ffffffffffffffffffffffffffffffffffffffff8116810361017657815260209283019201611faa565b8151815260209182019101611f31565b825173ffffffffffffffffffffffffffffffffffffffff8116810361017657815260209283019201611eb7565b6040517f7bb3880700000000000000000000000000000000000000000000000000000000815273ffffffffffffffffffffffffffffffffffffffff91821660048201529085166024820152604490fd5b9094506020813d6020116120ad575b816120956020938361260e565b81010312610176576120a69061296b565b9385611995565b3d9150612088565b92506020843d6020116120ea575b816120d06020938361260e565b81010312610176576120e46119829461296b565b926118f5565b3d91506120c3565b604482604051907f998d5f7000000000000000000000000000000000000000000000000000000000825273ffffffffffffffffffffffffffffffffffffffff6004351660048301526024820152fd5b61057d906040519182917f020b6241000000000000000000000000000000000000000000000000000000008352600483016128d5565b346101765760007ffffffffffffffffffffffffffffffffffffffffffffffffffffffffffffffffc360112610176576121ae6129a4565b60095473ffffffffffffffffffffffffffffffffffffffff80821691821561225757600880547fffffffffffffffffffffffff000000000000000000000000000000000000000080821686179092559116600955604080519290911673ffffffffffffffffffffffffffffffffffffffff908116835290921660208201527fdc45b28468284159445ec8588dd4c555fc01ed3c9e7b3b6fd371be486f77913b9181908101610528565b60046040517fd45740f5000000000000000000000000000000000000000000000000000000008152fd5b346101765760207ffffffffffffffffffffffffffffffffffffffffffffffffffffffffffffffffc36011261017657600435600154811015610176576122c890600161259f565b5080546107f873ffffffffffffffffffffffffffffffffffffffff80600185015416936002810154916003820154906004830154169061135360066005850154940161264f565b346101765760007ffffffffffffffffffffffffffffffffffffffffffffffffffffffffffffffffc36011261017657602073ffffffffffffffffffffffffffffffffffffffff60075416604051908152f35b346101765760007ffffffffffffffffffffffffffffffffffffffffffffffffffffffffffffffffc360112610176576020600554604051908152f35b346101765760207ffffffffffffffffffffffffffffffffffffffffffffffffffffffffffffffffc36011261017657600435600254811015610176576123e4906002612554565b5080546001909101546040805160ff8416151581526affffffffffffffffffffff600885901c166020820152606093841c9181019190915273ffffffffffffffffffffffffffffffffffffffff82169281019290925260a090811c608083015290f35b346101765760207ffffffffffffffffffffffffffffffffffffffffffffffffffffffffffffffffc3601126101765760043573ffffffffffffffffffffffffffffffffffffffff808216808303610176576124a06129a4565b801561252a576105287fee536cbb080de2a8340fafaee947799b653dff18ad502b7f85dec917aa90dd8893600a54927fffffffffffffffffffffffff0000000000000000000000000000000000000000841617600a55604051938493168390602090939293604083019473ffffffffffffffffffffffffffffffffffffffff809216845216910152565b60046040517f2d2aaf4c000000000000000000000000000000000000000000000000000000008152fd5b80548210156125705760005260206000209060011b0190600090565b7f4e487b7100000000000000000000000000000000000000000000000000000000600052603260045260246000fd5b8054821015612570576000526007602060002091020190600090565b90600182811c92168015612604575b60208310146125d557565b7f4e487b7100000000000000000000000000000000000000000000000000000000600052602260045260246000fd5b91607f16916125ca565b90601f7fffffffffffffffffffffffffffffffffffffffffffffffffffffffffffffffe0910116810190811067ffffffffffffffff82111761105d57604052565b9060405191826000825492612663846125bb565b9081845260019485811690816000146126d2575060011461268f575b505061268d9250038361260e565b565b9093915060005260209081600020936000915b8183106126ba57505061268d9350820101388061267f565b855488840185015294850194879450918301916126a2565b905061268d9550602093507fffffffffffffffffffffffffffffffffffffffffffffffffffffffffffffff0091501682840152151560051b820101388061267f565b60005b8381106127275750506000910152565b8181015183820152602001612717565b907fffffffffffffffffffffffffffffffffffffffffffffffffffffffffffffffe0601f60209361277381518092818752878088019101612714565b0116010190565b969394916affffffffffffffffffffff906127e99a999794921515895216602088015273ffffffffffffffffffffffffffffffffffffffff94858092166040890152166060870152608086015260a08501521660c083015260e082015261012090816101008201520190612737565b90565b67ffffffffffffffff811161105d57601f017fffffffffffffffffffffffffffffffffffffffffffffffffffffffffffffffe01660200190565b80548210156125705760005260206000200190600090565b9060405161284e6101208261260e565b6101006128d060068395805460ff8116151586526affffffffffffffffffffff8160081c16602087015260601c604086015273ffffffffffffffffffffffffffffffffffffffff80600183015416606087015260028201546080870152600382015460a087015260048201541660c0860152600581015460e08601520161264f565b910152565b6101406127e992602083528051151560208401526affffffffffffffffffffff602082015116604084015273ffffffffffffffffffffffffffffffffffffffff806040830151166060850152806060830151166080850152608082015160a085015260a082015160c085015260c08201511660e084015260e0810151906101009182850152015191610120808201520190612737565b519073ffffffffffffffffffffffffffffffffffffffff8216820361017657565b67ffffffffffffffff811161105d5760051b60200190565b73ffffffffffffffffffffffffffffffffffffffff600654168033036129c75750565b6040517f44c74fbb00000000000000000000000000000000000000000000000000000000815233600482015273ffffffffffffffffffffffffffffffffffffffff919091166024820152604490fd5b90601f8111612a2457505050565b600091825260208220906020601f850160051c83019410612a60575b601f0160051c01915b828110612a5557505050565b818155600101612a49565b9092508290612a40565b90808214612b9e57612a7c81546125bb565b9067ffffffffffffffff821161105d578190612aa282612a9c86546125bb565b86612a16565b600090601f8311600114612af657600092612aeb575b50507fffffffffffffffffffffffffffffffffffffffffffffffffffffffffffffffff8260011b9260031b1c1916179055565b015490503880612ab8565b917fffffffffffffffffffffffffffffffffffffffffffffffffffffffffffffffe016918152602091828220908583528383209383905b828210612b85575050908460019594939210612b4e575b505050811b019055565b01547fffffffffffffffffffffffffffffffffffffffffffffffffffffffffffffffff60f88460031b161c19169055388080612b44565b8495819295850154815560018091019601940190612b2d565b5050565b7fffffffffffffffffffffffffffffffffffffffffffffffffffffffffffffffff8114612bcf5760010190565b7f4e487b7100000000000000000000000000000000000000000000000000000000600052601160045260246000fd5b80518210156125705760209160051b010190565b60405190816005549283815281602080920160056000527f036b6384b5eca791c62761152d0c79bb0604c104a5fb6f4eb0703f3154bb3db09260005b878110612d04575050612c639250038261260e565b60005b8151811015612cad5773ffffffffffffffffffffffffffffffffffffffff80612c8f8385612bfe565b511690841614612ca757612ca290612ba2565b612c66565b50505050565b5050906801000000000000000081101561105d57806001612cd392016005556005612826565b819291549060031b9173ffffffffffffffffffffffffffffffffffffffff9283811b93849216901b16911916179055565b845473ffffffffffffffffffffffffffffffffffffffff1683526001948501948694509282019201612c4e56fea164736f6c6343000811000a",
  "linkReferences": {},
  "deployedLinkReferences": {}
}