{
  "_format": "hh-sol-artifact-1",
  "contractName": "Hangar18",
  "sourceName": "contracts/cygnus-core/Hangar18.sol",
  "abi": [
    {
      "inputs": [
        {
          "internalType": "address",
          "name": "_admin",
          "type": "address"
        },
        {
          "internalType": "address",
          "name": "_daoReserves",
          "type": "address"
        },
        {
          "internalType": "address",
          "name": "_usd",
          "type": "address"
        },
        {
          "internalType": "address",
          "name": "_nativeToken",
          "type": "address"
        }
      ],
      "stateMutability": "nonpayable",
      "type": "constructor"
    },
    {
      "inputs": [
        {
          "internalType": "address",
          "name": "newPendingAdmin",
          "type": "address"
        },
        {
          "internalType": "address",
          "name": "admin",
          "type": "address"
        }
      ],
      "name": "CygnusFactory__AdminAlreadySet",
      "type": "error"
    },
    {
      "inputs": [
        {
          "internalType": "address",
          "name": "calculatedCollateral",
          "type": "address"
        },
        {
          "internalType": "address",
          "name": "deployedCollateral",
          "type": "address"
        }
      ],
      "name": "CygnusFactory__CollateralAddressMismatch",
      "type": "error"
    },
    {
      "inputs": [
        {
          "internalType": "address",
          "name": "sender",
          "type": "address"
        },
        {
          "internalType": "address",
          "name": "admin",
          "type": "address"
        }
      ],
      "name": "CygnusFactory__CygnusAdminOnly",
      "type": "error"
    },
    {
      "inputs": [
        {
          "internalType": "address",
          "name": "priceOracle",
          "type": "address"
        },
        {
          "internalType": "address",
          "name": "newPriceOracle",
          "type": "address"
        }
      ],
      "name": "CygnusFactory__CygnusNebulaAlreadySet",
      "type": "error"
    },
    {
      "inputs": [],
      "name": "CygnusFactory__CygnusNebulaCantBeZero",
      "type": "error"
    },
    {
      "inputs": [
        {
          "internalType": "address",
          "name": "newPendingDaoReserves",
          "type": "address"
        },
        {
          "internalType": "address",
          "name": "daoReserves",
          "type": "address"
        }
      ],
      "name": "CygnusFactory__DaoReservesAlreadySet",
      "type": "error"
    },
    {
      "inputs": [],
      "name": "CygnusFactory__DaoReservesCantBeZero",
      "type": "error"
    },
    {
      "inputs": [
        {
          "internalType": "address",
          "name": "lpTokenPair",
          "type": "address"
        }
      ],
      "name": "CygnusFactory__LPTokenPairNotSupported",
      "type": "error"
    },
    {
      "inputs": [
        {
          "components": [
            {
              "internalType": "bool",
              "name": "status",
              "type": "bool"
            },
            {
              "internalType": "uint88",
              "name": "orbiterId",
              "type": "uint88"
            },
            {
              "internalType": "contract IAlbireoOrbiter",
              "name": "albireoOrbiter",
              "type": "address"
            },
            {
              "internalType": "contract IDenebOrbiter",
              "name": "denebOrbiter",
              "type": "address"
            },
            {
              "internalType": "contract ICygnusNebulaOracle",
              "name": "nebulaOracle",
              "type": "address"
            },
            {
              "internalType": "bytes32",
              "name": "collateralInitCodeHash",
              "type": "bytes32"
            },
            {
              "internalType": "bytes32",
              "name": "borrowableInitCodeHash",
              "type": "bytes32"
            },
            {
              "internalType": "bytes32",
              "name": "uniqueHash",
              "type": "bytes32"
            },
            {
              "internalType": "string",
              "name": "orbiterName",
              "type": "string"
            }
          ],
          "internalType": "struct IHangar18.Orbiter",
          "name": "orbiter",
          "type": "tuple"
        }
      ],
      "name": "CygnusFactory__OrbiterAlreadySet",
      "type": "error"
    },
    {
      "inputs": [
        {
          "components": [
            {
              "internalType": "bool",
              "name": "status",
              "type": "bool"
            },
            {
              "internalType": "uint88",
              "name": "orbiterId",
              "type": "uint88"
            },
            {
              "internalType": "contract IAlbireoOrbiter",
              "name": "albireoOrbiter",
              "type": "address"
            },
            {
              "internalType": "contract IDenebOrbiter",
              "name": "denebOrbiter",
              "type": "address"
            },
            {
              "internalType": "contract ICygnusNebulaOracle",
              "name": "nebulaOracle",
              "type": "address"
            },
            {
              "internalType": "bytes32",
              "name": "collateralInitCodeHash",
              "type": "bytes32"
            },
            {
              "internalType": "bytes32",
              "name": "borrowableInitCodeHash",
              "type": "bytes32"
            },
            {
              "internalType": "bytes32",
              "name": "uniqueHash",
              "type": "bytes32"
            },
            {
              "internalType": "string",
              "name": "orbiterName",
              "type": "string"
            }
          ],
          "internalType": "struct IHangar18.Orbiter",
          "name": "orbiter",
          "type": "tuple"
        }
      ],
      "name": "CygnusFactory__OrbitersAreInactive",
      "type": "error"
    },
    {
      "inputs": [
        {
          "internalType": "uint256",
          "name": "orbiterId",
          "type": "uint256"
        }
      ],
      "name": "CygnusFactory__OrbitersNotSet",
      "type": "error"
    },
    {
      "inputs": [
        {
          "internalType": "address",
          "name": "newPendingAdmin",
          "type": "address"
        },
        {
          "internalType": "address",
          "name": "pendingAdmin",
          "type": "address"
        }
      ],
      "name": "CygnusFactory__PendingAdminAlreadySet",
      "type": "error"
    },
    {
      "inputs": [],
      "name": "CygnusFactory__PendingAdminCantBeZero",
      "type": "error"
    },
    {
      "inputs": [
        {
          "internalType": "address",
          "name": "newPendingDaoReserves",
          "type": "address"
        },
        {
          "internalType": "address",
          "name": "pendingDaoReserves",
          "type": "address"
        }
      ],
      "name": "CygnusFactory__PendingDaoReservesAlreadySet",
      "type": "error"
    },
    {
      "inputs": [
        {
          "internalType": "uint256",
          "name": "id",
          "type": "uint256"
        },
        {
          "internalType": "address",
          "name": "lpTokenPair",
          "type": "address"
        }
      ],
      "name": "CygnusFactory__ShuttleAlreadyDeployed",
      "type": "error"
    },
    {
      "inputs": [],
      "name": "ReentrantCall",
      "type": "error"
    },
    {
      "anonymous": false,
      "inputs": [
        {
          "indexed": false,
          "internalType": "bool",
          "name": "status",
          "type": "bool"
        },
        {
          "indexed": false,
          "internalType": "uint256",
          "name": "orbitersLength",
          "type": "uint256"
        },
        {
          "indexed": false,
          "internalType": "contract IAlbireoOrbiter",
          "name": "borrowOrbiter",
          "type": "address"
        },
        {
          "indexed": false,
          "internalType": "contract IDenebOrbiter",
          "name": "denebOrbiter",
          "type": "address"
        },
        {
          "indexed": false,
          "internalType": "bytes32",
          "name": "uniqueHash",
          "type": "bytes32"
        },
        {
          "indexed": false,
          "internalType": "string",
          "name": "orbitersName",
          "type": "string"
        }
      ],
      "name": "InitializeOrbiters",
      "type": "event"
    },
    {
      "anonymous": false,
      "inputs": [
        {
          "indexed": false,
          "internalType": "address",
          "name": "oldAdmin",
          "type": "address"
        },
        {
          "indexed": false,
          "internalType": "address",
          "name": "newAdmin",
          "type": "address"
        }
      ],
      "name": "NewCygnusAdmin",
      "type": "event"
    },
    {
      "anonymous": false,
      "inputs": [
        {
          "indexed": false,
          "internalType": "contract ICygnusNebulaOracle",
          "name": "oldCygnusNebula",
          "type": "address"
        },
        {
          "indexed": false,
          "internalType": "contract ICygnusNebulaOracle",
          "name": "newCygnusNebula",
          "type": "address"
        }
      ],
      "name": "NewCygnusNebulaOracle",
      "type": "event"
    },
    {
      "anonymous": false,
      "inputs": [
        {
          "indexed": false,
          "internalType": "address",
          "name": "oldDaoReserves",
          "type": "address"
        },
        {
          "indexed": false,
          "internalType": "address",
          "name": "daoReserves",
          "type": "address"
        }
      ],
      "name": "NewDaoReserves",
      "type": "event"
    },
    {
      "anonymous": false,
      "inputs": [
        {
          "indexed": false,
          "internalType": "address",
          "name": "pendingAdmin",
          "type": "address"
        },
        {
          "indexed": false,
          "internalType": "address",
          "name": "_admin",
          "type": "address"
        }
      ],
      "name": "NewPendingCygnusAdmin",
      "type": "event"
    },
    {
      "anonymous": false,
      "inputs": [
        {
          "indexed": false,
          "internalType": "address",
          "name": "oldPendingdaoReservesContract",
          "type": "address"
        },
        {
          "indexed": false,
          "internalType": "address",
          "name": "newPendingdaoReservesContract",
          "type": "address"
        }
      ],
      "name": "NewPendingDaoReserves",
      "type": "event"
    },
    {
      "anonymous": false,
      "inputs": [
        {
          "indexed": true,
          "internalType": "address",
          "name": "lpTokenPair",
          "type": "address"
        },
        {
          "indexed": true,
          "internalType": "uint256",
          "name": "shuttleId",
          "type": "uint256"
        },
        {
          "indexed": false,
          "internalType": "uint256",
          "name": "orbiterId",
          "type": "uint256"
        },
        {
          "indexed": false,
          "internalType": "address",
          "name": "borrowable",
          "type": "address"
        },
        {
          "indexed": false,
          "internalType": "address",
          "name": "collateral",
          "type": "address"
        }
      ],
      "name": "NewShuttle",
      "type": "event"
    },
    {
      "anonymous": false,
      "inputs": [
        {
          "indexed": false,
          "internalType": "bool",
          "name": "status",
          "type": "bool"
        },
        {
          "indexed": false,
          "internalType": "uint256",
          "name": "orbiterId",
          "type": "uint256"
        },
        {
          "indexed": false,
          "internalType": "contract IAlbireoOrbiter",
          "name": "albireoOrbiter",
          "type": "address"
        },
        {
          "indexed": false,
          "internalType": "contract IDenebOrbiter",
          "name": "denebOrbiter",
          "type": "address"
        },
        {
          "indexed": false,
          "internalType": "string",
          "name": "orbiterName",
          "type": "string"
        }
      ],
      "name": "SwitchOrbiterStatus",
      "type": "event"
    },
    {
      "inputs": [],
      "name": "AGGREGATION_ROUTER_V5",
      "outputs": [
        {
          "internalType": "contract IAggregationRouterV5",
          "name": "",
          "type": "address"
        }
      ],
      "stateMutability": "view",
      "type": "function"
    },
    {
      "inputs": [],
      "name": "admin",
      "outputs": [
        {
          "internalType": "address",
          "name": "",
          "type": "address"
        }
      ],
      "stateMutability": "view",
      "type": "function"
    },
    {
      "inputs": [
        {
          "internalType": "uint256",
          "name": "",
          "type": "uint256"
        }
      ],
      "name": "allOrbiters",
      "outputs": [
        {
          "internalType": "bool",
          "name": "status",
          "type": "bool"
        },
        {
          "internalType": "uint88",
          "name": "orbiterId",
          "type": "uint88"
        },
        {
          "internalType": "contract IAlbireoOrbiter",
          "name": "albireoOrbiter",
          "type": "address"
        },
        {
          "internalType": "contract IDenebOrbiter",
          "name": "denebOrbiter",
          "type": "address"
        },
        {
          "internalType": "contract ICygnusNebulaOracle",
          "name": "nebulaOracle",
          "type": "address"
        },
        {
          "internalType": "bytes32",
          "name": "collateralInitCodeHash",
          "type": "bytes32"
        },
        {
          "internalType": "bytes32",
          "name": "borrowableInitCodeHash",
          "type": "bytes32"
        },
        {
          "internalType": "bytes32",
          "name": "uniqueHash",
          "type": "bytes32"
        },
        {
          "internalType": "string",
          "name": "orbiterName",
          "type": "string"
        }
      ],
      "stateMutability": "view",
      "type": "function"
    },
    {
      "inputs": [
        {
          "internalType": "uint256",
          "name": "",
          "type": "uint256"
        }
      ],
      "name": "allShuttles",
      "outputs": [
        {
          "internalType": "bool",
          "name": "launched",
          "type": "bool"
        },
        {
          "internalType": "uint88",
          "name": "shuttleId",
          "type": "uint88"
        },
        {
          "internalType": "address",
          "name": "borrowable",
          "type": "address"
        },
        {
          "internalType": "address",
          "name": "collateral",
          "type": "address"
        },
        {
          "internalType": "uint96",
          "name": "orbiterId",
          "type": "uint96"
        }
      ],
      "stateMutability": "view",
      "type": "function"
    },
    {
      "inputs": [
        {
          "internalType": "uint256",
          "name": "",
          "type": "uint256"
        }
      ],
      "name": "cygnusNebulaOracle",
      "outputs": [
        {
          "internalType": "contract ICygnusNebulaOracle",
          "name": "",
          "type": "address"
        }
      ],
      "stateMutability": "view",
      "type": "function"
    },
    {
      "inputs": [],
      "name": "daoReserves",
      "outputs": [
        {
          "internalType": "address",
          "name": "",
          "type": "address"
        }
      ],
      "stateMutability": "view",
      "type": "function"
    },
    {
      "inputs": [
        {
          "internalType": "address",
          "name": "lpTokenPair",
          "type": "address"
        },
        {
          "internalType": "uint256",
          "name": "orbiterId",
          "type": "uint256"
        }
      ],
      "name": "deployShuttle",
      "outputs": [
        {
          "internalType": "address",
          "name": "borrowable",
          "type": "address"
        },
        {
          "internalType": "address",
          "name": "collateral",
          "type": "address"
        }
      ],
      "stateMutability": "nonpayable",
      "type": "function"
    },
    {
      "inputs": [
        {
          "internalType": "uint256",
          "name": "",
          "type": "uint256"
        }
      ],
      "name": "getOrbiters",
      "outputs": [
        {
          "internalType": "bool",
          "name": "status",
          "type": "bool"
        },
        {
          "internalType": "uint88",
          "name": "orbiterId",
          "type": "uint88"
        },
        {
          "internalType": "contract IAlbireoOrbiter",
          "name": "albireoOrbiter",
          "type": "address"
        },
        {
          "internalType": "contract IDenebOrbiter",
          "name": "denebOrbiter",
          "type": "address"
        },
        {
          "internalType": "contract ICygnusNebulaOracle",
          "name": "nebulaOracle",
          "type": "address"
        },
        {
          "internalType": "bytes32",
          "name": "collateralInitCodeHash",
          "type": "bytes32"
        },
        {
          "internalType": "bytes32",
          "name": "borrowableInitCodeHash",
          "type": "bytes32"
        },
        {
          "internalType": "bytes32",
          "name": "uniqueHash",
          "type": "bytes32"
        },
        {
          "internalType": "string",
          "name": "orbiterName",
          "type": "string"
        }
      ],
      "stateMutability": "view",
      "type": "function"
    },
    {
      "inputs": [
        {
          "internalType": "address",
          "name": "",
          "type": "address"
        },
        {
          "internalType": "uint256",
          "name": "",
          "type": "uint256"
        }
      ],
      "name": "getShuttles",
      "outputs": [
        {
          "internalType": "bool",
          "name": "launched",
          "type": "bool"
        },
        {
          "internalType": "uint88",
          "name": "shuttleId",
          "type": "uint88"
        },
        {
          "internalType": "address",
          "name": "borrowable",
          "type": "address"
        },
        {
          "internalType": "address",
          "name": "collateral",
          "type": "address"
        },
        {
          "internalType": "uint96",
          "name": "orbiterId",
          "type": "uint96"
        }
      ],
      "stateMutability": "view",
      "type": "function"
    },
    {
      "inputs": [
        {
          "internalType": "string",
          "name": "orbiterName",
          "type": "string"
        },
        {
          "internalType": "contract IAlbireoOrbiter",
          "name": "albireoOrbiter",
          "type": "address"
        },
        {
          "internalType": "contract IDenebOrbiter",
          "name": "denebOrbiter",
          "type": "address"
        },
        {
          "internalType": "contract ICygnusNebulaOracle",
          "name": "nebulaOracle",
          "type": "address"
        }
      ],
      "name": "initializeOrbiter",
      "outputs": [],
      "stateMutability": "nonpayable",
      "type": "function"
    },
    {
      "inputs": [],
      "name": "nativeToken",
      "outputs": [
        {
          "internalType": "address",
          "name": "",
          "type": "address"
        }
      ],
      "stateMutability": "view",
      "type": "function"
    },
    {
      "inputs": [],
      "name": "orbitersDeployed",
      "outputs": [
        {
          "internalType": "uint256",
          "name": "",
          "type": "uint256"
        }
      ],
      "stateMutability": "view",
      "type": "function"
    },
    {
      "inputs": [],
      "name": "pendingAdmin",
      "outputs": [
        {
          "internalType": "address",
          "name": "",
          "type": "address"
        }
      ],
      "stateMutability": "view",
      "type": "function"
    },
    {
      "inputs": [],
      "name": "pendingDaoReserves",
      "outputs": [
        {
          "internalType": "address",
          "name": "",
          "type": "address"
        }
      ],
      "stateMutability": "view",
      "type": "function"
    },
    {
      "inputs": [],
      "name": "setNewCygnusAdmin",
      "outputs": [],
      "stateMutability": "nonpayable",
      "type": "function"
    },
    {
      "inputs": [],
      "name": "setNewDaoReserves",
      "outputs": [],
      "stateMutability": "nonpayable",
      "type": "function"
    },
    {
      "inputs": [
        {
          "internalType": "address",
          "name": "newPendingAdmin",
          "type": "address"
        }
      ],
      "name": "setPendingAdmin",
      "outputs": [],
      "stateMutability": "nonpayable",
      "type": "function"
    },
    {
      "inputs": [
        {
          "internalType": "address",
          "name": "newPendingDaoReserves",
          "type": "address"
        }
      ],
      "name": "setPendingDaoReserves",
      "outputs": [],
      "stateMutability": "nonpayable",
      "type": "function"
    },
    {
      "inputs": [],
      "name": "shuttlesDeployed",
      "outputs": [
        {
          "internalType": "uint256",
          "name": "",
          "type": "uint256"
        }
      ],
      "stateMutability": "view",
      "type": "function"
    },
    {
      "inputs": [
        {
          "internalType": "uint256",
          "name": "orbiterId",
          "type": "uint256"
        }
      ],
      "name": "switchOrbiterStatus",
      "outputs": [],
      "stateMutability": "nonpayable",
      "type": "function"
    },
    {
      "inputs": [],
      "name": "usd",
      "outputs": [
        {
          "internalType": "address",
          "name": "",
          "type": "address"
        }
      ],
      "stateMutability": "view",
      "type": "function"
    }
  ],
  "bytecode": "0x60c06040523480156200001157600080fd5b506040516200215e3803806200215e83398101604081905262000034916200012c565b6000805460ff19166001178155600580546001600160a01b038781166001600160a01b0319928316811790935560078054918816919092161790556001600160601b0319606084811b821660a05285901b166080526040805192835260208301919091527fa6fd993b45f105f3b99176403c23f4df5f10600b416795ff8223ff7ad9efb4f9910160405180910390a160408051600081526001600160a01b03851660208201527fdc45b28468284159445ec8588dd4c555fc01ed3c9e7b3b6fd371be486f77913b910160405180910390a15050505062000188565b80516001600160a01b03811681146200012757600080fd5b919050565b6000806000806080858703121562000142578384fd5b6200014d856200010f565b93506200015d602086016200010f565b92506200016d604086016200010f565b91506200017d606086016200010f565b905092959194509250565b60805160601c60a05160601c611fa3620001bb60003960006103c801526000818161038e01526108830152611fa36000f3fe608060405234801561001057600080fd5b50600436106101775760003560e01c8063883fd1c9116100d8578063d63a6ccd1161008c578063ea191e9f11610066578063ea191e9f146103ea578063ec84a5cb146103f2578063f851a4401461040557600080fd5b8063d63a6ccd14610389578063daa3bc01146103b0578063e1758bd8146103c357600080fd5b8063a5d29318116100bd578063a5d29318146102e9578063b11de7e31461035b578063ba81eae31461037657600080fd5b8063883fd1c9146102ce5780639861a14f146102d657600080fd5b80634dd18bf51161012f5780635b068af8116101145780635b068af8146102965780636f40b0c7146102a957806380ffbb88146102bc57600080fd5b80634dd18bf514610270578063502b512e1461028357600080fd5b8063269a2ce411610160578063269a2ce41461020b5780632f94f7bf146102335780634d06fcd41461023d57600080fd5b80631ad4c8c31461017c57806326782247146101e0575b600080fd5b61018f61018a366004611baf565b610418565b6040805195151586526001600160581b0390941660208601526001600160a01b03928316938501939093521660608301526bffffffffffffffffffffffff16608082015260a0015b60405180910390f35b6006546101f3906001600160a01b031681565b6040516001600160a01b0390911681526020016101d7565b61021e610219366004611baf565b610484565b6040516101d799989796959493929190611c5e565b61023b610583565b005b61025061024b3660046119e5565b610621565b604080516001600160a01b039384168152929091166020830152016101d7565b61023b61027e3660046119a6565b610c84565b61021e610291366004611baf565b610d34565b6007546101f3906001600160a01b031681565b61023b6102b7366004611a28565b610da2565b6002545b6040519081526020016101d7565b61023b6111c0565b6008546101f3906001600160a01b031681565b61018f6102f73660046119e5565b60046020908152600092835260408084209091529082529020805460019091015460ff8216916001600160581b03610100820416916001600160a01b03600160601b9092048216918116906bffffffffffffffffffffffff600160a01b9091041685565b6101f3731111111254eeb25477b68fb85ed929f73a96058281565b6101f3610384366004611baf565b611257565b6101f37f000000000000000000000000000000000000000000000000000000000000000081565b61023b6103be3660046119a6565b611281565b6101f37f000000000000000000000000000000000000000000000000000000000000000081565b6001546102c0565b61023b610400366004611baf565b611329565b6005546101f3906001600160a01b031681565b6002818154811061042857600080fd5b60009182526020909120600290910201805460019091015460ff8216925061010082046001600160581b031691600160601b90046001600160a01b039081169190811690600160a01b90046bffffffffffffffffffffffff1685565b6001818154811061049457600080fd5b6000918252602090912060079091020180546001820154600283015460038401546004850154600586015460068701805460ff8816995061010088046001600160581b031698600160601b9098046001600160a01b039081169897811697961695919061050090611edd565b80601f016020809104026020016040519081016040528092919081815260200182805461052c90611edd565b80156105795780601f1061054e57610100808354040283529160200191610579565b820191906000526020600020905b81548152906001019060200180831161055c57829003601f168201915b5050505050905089565b61058b611401565b6008546001600160a01b03166105b45760405163bb2a93a160e01b815260040160405180910390fd5b60078054600880546001600160a01b038082166001600160a01b0319808616821790965594909116909155604080519190921680825260208201939093527fdc45b28468284159445ec8588dd4c555fc01ed3c9e7b3b6fd371be486f77913b91015b60405180910390a150565b60008054819060ff16610647576040516306fda65d60e31b815260040160405180910390fd5b6000805460ff19169055610659611401565b6000838152600360208181526040808420815161012081018352815460ff8116151582526101008082046001600160581b031695830195909552600160601b90046001600160a01b0390811693820193909352600182015483166060820152600282015490921660808301529283015460a0820152600483015460c0820152600583015460e08201526006830180549193928401916106f790611edd565b80601f016020809104026020016040519081016040528092919081815260200182805461072390611edd565b80156107705780601f1061074557610100808354040283529160200191610770565b820191906000526020600020905b81548152906001019060200180831161075357829003601f168201915b505050505081525050905080600001516107a85780604051632641375760e11b815260040161079f9190611da9565b60405180910390fd5b60006107c18683602001516001600160581b031661144c565b60608381015160a0850151604080516001600160a01b038c16602080830191909152308284015282518083038401815282870184528051908201207fff0000000000000000000000000000000000000000000000000000000000000060808401529490951b6bffffffffffffffffffffffff19166081820152609581019390935260b5808401929092528051808403909201825260d59092019091528051910120909150600090604084810151608086015185549251631375323f60e31b81527f00000000000000000000000000000000000000000000000000000000000000006001600160a01b039081166004830152808616602483015291821660448201526101009093046001600160581b031660648401529293509190911690639ba991f890608401602060405180830381600087803b15801561090157600080fd5b505af1158015610915573d6000803e3d6000fd5b505050506040513d601f19601f8201168201806040525081019061093991906119c9565b6060840151608085015184546040516306cadc7960e21b81526001600160a01b038c81166004830152808616602483015292831660448201526101009091046001600160581b031660648201529297501690631b2b71e490608401602060405180830381600087803b1580156109ae57600080fd5b505af11580156109c2573d6000803e3d6000fd5b505050506040513d601f19601f820116820180604052508101906109e691906119c9565b9350806001600160a01b0316846001600160a01b031614610a2d576040516305048e8760e11b81526001600160a01b0380831660048301528516602482015260440161079f565b6080830151604051633c2b103160e21b81526001600160a01b038981166004830152600092169063f0ac40c49060240160006040518083038186803b158015610a7557600080fd5b505afa158015610a89573d6000803e3d6000fd5b505050506040513d6000823e601f3d908101601f19168201604052610ab19190810190611aea565b8051909150610ade57604051633c56810b60e21b81526001600160a01b038916600482015260240161079f565b82546001600160a01b03878116600160601b9081026bffffffffffffffffffffff00909316929092176001908117865580860180548984166001600160a01b03199182161782556002805493840181556000819052885493027f405787fa12a823e0f2b7631cc41b3ba8828b3321ca811111fa75cd3aa3bb5ace8101805460ff909516151560ff198616811782558a546001600160581b0361010091829004811682026bffffffffffffffffffffff00199093166bffffffffffffffffffffffff1990981697909717919091178083558b54899004881689026bffffffffffffffffffffffff9182161790925584547f405787fa12a823e0f2b7631cc41b3ba8828b3321ca811111fa75cd3aa3bb5acf909301805490941692871692831784558454600160a01b90819004909216909102909117909155875491546040805192840490941682529490910483166020820152928216908301528891908a16907f87cc75e536ac0074a48c024a0a07dc0b5a1025f2ad992f76125df37add2c068f9060600160405180910390a350506000805460ff19166001179055509194909350915050565b610c8c611401565b6005546001600160a01b0382811691161415610cd25760055460405163c3226b7360e01b81526001600160a01b038084166004830152909116602482015260440161079f565b600680546001600160a01b038381166001600160a01b031983168117909355604080519190921680825260208201939093527f2df3edf32bd243b7fb5e2d31673b2c1e842eff07d227e05d34b5135021a1683891015b60405180910390a15050565b6003602081905260009182526040909120805460018201546002830154938301546004840154600585015460068601805460ff87169861010088046001600160581b031698600160601b9098046001600160a01b039081169897811697911695949392909161050090611edd565b610daa611401565b600060018054905090506000836001600160a01b03166310df4f526040518163ffffffff1660e01b815260040160206040518083038186803b158015610def57600080fd5b505afa158015610e03573d6000803e3d6000fd5b505050506040513d601f19601f82011682018060405250810190610e279190611a10565b90506000856001600160a01b031663870ad7fa6040518163ffffffff1660e01b815260040160206040518083038186803b158015610e6457600080fd5b505afa158015610e78573d6000803e3d6000fd5b505050506040513d601f19601f82011682018060405250810190610e9c9190611a10565b905060008282604051602001610ebc929190918252602082015260400190565b604051602081830303815290604052805190602001209050610ede8185611583565b600084815260036020908152604090912080546bffffffffffffffffffffff0019166101006001600160581b0388160217815589519091610f269160068401918c0190611782565b50868160010160006101000a8154816001600160a01b0302191690836001600160a01b031602179055508781600001600c6101000a8154816001600160a01b0302191690836001600160a01b03160217905550858160020160006101000a8154816001600160a01b0302191690836001600160a01b0316021790555083816003018190555082816004018190555081816005018190555060018160000160006101000a81548160ff02191690831515021790555060018190806001815401808255809150506001900390600052602060002090600702016000909190919091506000820160009054906101000a900460ff168160000160006101000a81548160ff0219169083151502179055506000820160019054906101000a90046001600160581b03168160000160016101000a8154816001600160581b0302191690836001600160581b0316021790555060008201600c9054906101000a90046001600160a01b031681600001600c6101000a8154816001600160a01b0302191690836001600160a01b031602179055506001820160009054906101000a90046001600160a01b03168160010160006101000a8154816001600160a01b0302191690836001600160a01b031602179055506002820160009054906101000a90046001600160a01b03168160020160006101000a8154816001600160a01b0302191690836001600160a01b03160217905550600382015481600301556004820154816004015560058201548160050155600682018160060190805461116590611edd565b611170929190611806565b5050507f762b8fc43a2bd9ece972a1d1d8db08f6b4c5bfe96114e43b84ef52a1b0c85f756001868a8a868e6040516111ad96959493929190611c12565b60405180910390a1505050505050505050565b6111c8611401565b6006546001600160a01b03166111f157604051633e2b53a560e01b815260040160405180910390fd5b60058054600680546001600160a01b038082166001600160a01b0319808616821790965594909116909155604080519190921680825260208201939093527fa6fd993b45f105f3b99176403c23f4df5f10600b416795ff8223ff7ad9efb4f99101610616565b6009818154811061126757600080fd5b6000918252602090912001546001600160a01b0316905081565b611289611401565b6007546001600160a01b03828116911614156112cf57600754604051630a502a8f60e21b81526001600160a01b038084166004830152909116602482015260440161079f565b600880546001600160a01b038381166001600160a01b031983168117909355604080519190921680825260208201939093527f3af6d72823f6692d6673266dabbf4e3165600dcf901b0188c596fe7dad74caf39101610d28565b611331611401565b60006001828154811061135457634e487b7160e01b600052603260045260246000fd5b906000526020600020906007020190506000801b8160050154141561138f576040516308e1f4c960e01b81526004810183905260240161079f565b805460ff19811660ff9182161590811780845560018401546040517f3a23a6fdafdcd184715cc363b2dcefad97be8b3a659d21faa90068b3b4d5c74994610d289416926001600160581b03610100820416926001600160a01b03600160601b9092048216929116906006880190611ccd565b6005546001600160a01b0316336001600160a01b03161461144a5760055460405163431c27f560e01b81523360048201526001600160a01b03909116602482015260440161079f565b565b6001600160a01b038216600090815260046020908152604080832084845290915281205461010090046001600160581b031680156114af576040516308ed2bfd60e11b8152600481018290526001600160a01b038516602482015260440161079f565b50506040805160a08101825260008082526002546001600160581b039081166020808501918252848601848152606086018581526bffffffffffffffffffffffff808a16608089019081526001600160a01b038c81168952600486528a89208c8a529095529890962096518754945192518416600160601b0292909516610100026bffffffffffffffffffffff0019951515959095166bffffffffffffffffffffffff1990941693909317939093178416929092178455519351909116600160a01b02921691909117600182015592915050565b60006001805480602002602001604051908101604052809291908181526020016000905b828210156116e4576000848152602090819020604080516101208101825260078602909201805460ff8116151584526101008082046001600160581b031695850195909552600160601b90046001600160a01b039081169284019290925260018101548216606084015260028101549091166080830152600381015460a0830152600481015460c0830152600581015460e0830152600681018054929391929184019161165390611edd565b80601f016020809104026020016040519081016040528092919081815260200182805461167f90611edd565b80156116cc5780601f106116a1576101008083540402835291602001916116cc565b820191906000526020600020905b8154815290600101906020018083116116af57829003601f168201915b505050505081525050815260200190600101906115a7565b50505050905060005b8281101561177c5781818151811061171557634e487b7160e01b600052603260045260246000fd5b602002602001015160e0015184141561176a5781818151811061174857634e487b7160e01b600052603260045260246000fd5b602002602001015160405163c05cb15b60e01b815260040161079f9190611da9565b8061177481611f18565b9150506116ed565b50505050565b82805461178e90611edd565b90600052602060002090601f0160209004810192826117b057600085556117f6565b82601f106117c957805160ff19168380011785556117f6565b828001600101855582156117f6579182015b828111156117f65782518255916020019190600101906117db565b50611802929150611881565b5090565b82805461181290611edd565b90600052602060002090601f01602090048101928261183457600085556117f6565b82601f1061184557805485556117f6565b828001600101855582156117f657600052602060002091601f016020900482015b828111156117f6578254825591600101919060010190611866565b5b808211156118025760008155600101611882565b80516118a181611f55565b919050565b600082601f8301126118b6578081fd5b815160206118cb6118c683611eb9565b611e88565b80838252828201915082860187848660051b89010111156118ea578586fd5b855b858110156119115781516118ff81611f55565b845292840192908401906001016118ec565b5090979650505050505050565b600082601f83011261192e578081fd5b8151602061193e6118c683611eb9565b80838252828201915082860187848660051b890101111561195d578586fd5b855b8581101561191157815161197281611f55565b8452928401929084019060010161195f565b80356118a181611f55565b80516001600160581b03811681146118a157600080fd5b6000602082840312156119b7578081fd5b81356119c281611f55565b9392505050565b6000602082840312156119da578081fd5b81516119c281611f55565b600080604083850312156119f7578081fd5b8235611a0281611f55565b946020939093013593505050565b600060208284031215611a21578081fd5b5051919050565b60008060008060808587031215611a3d578182fd5b843567ffffffffffffffff80821115611a54578384fd5b818701915087601f830112611a67578384fd5b8135602082821115611a7b57611a7b611f3f565b611a8d601f8301601f19168201611e88565b92508183528981838601011115611aa2578586fd5b818185018285013785818385010152829750611abf818a01611984565b965050505050611ad160408601611984565b9150611adf60608601611984565b905092959194509250565b600060208284031215611afb578081fd5b815167ffffffffffffffff80821115611b12578283fd5b9083019060a08286031215611b25578283fd5b611b2d611e5f565b82518015158114611b3c578485fd5b8152611b4a6020840161198f565b6020820152611b5b60408401611896565b6040820152606083015182811115611b71578485fd5b611b7d8782860161191e565b606083015250608083015182811115611b94578485fd5b611ba0878286016118a6565b60808301525095945050505050565b600060208284031215611bc0578081fd5b5035919050565b60008151808452815b81811015611bec57602081850181015186830182015201611bd0565b81811115611bfd5782602083870101525b50601f01601f19169290920160200192915050565b861515815285602082015260006001600160a01b03808716604084015280861660608401525083608083015260c060a0830152611c5260c0830184611bc7565b98975050505050505050565b60006101208b151583526001600160581b038b1660208401526001600160a01b03808b166040850152808a1660608501528089166080850152508660a08401528560c08401528460e084015280610100840152611cbd81840185611bc7565b9c9b505050505050505050505050565b8515158152600060206001600160581b038716818401526001600160a01b03808716604085015280861660608501525060a0608084015281845483600182811c915080831680611d1e57607f831692505b858310811415611d3c57634e487b7160e01b87526022600452602487fd5b60a0880183905260c08801818015611d5b5760018114611d6c57611d96565b60ff19861682528782019650611d96565b60008b815260209020895b86811015611d9057815484820152908501908901611d77565b83019750505b50949d9c50505050505050505050505050565b60208152611dbc60208201835115159052565b60006020830151611dd860408401826001600160581b03169052565b5060408301516001600160a01b03811660608401525060608301516001600160a01b03811660808401525060808301516001600160a01b03811660a08401525060a083015160c083015260c083015160e083015260e0830151610100818185015280850151915050610120808185015250611e57610140840182611bc7565b949350505050565b60405160a0810167ffffffffffffffff81118282101715611e8257611e82611f3f565b60405290565b604051601f8201601f1916810167ffffffffffffffff81118282101715611eb157611eb1611f3f565b604052919050565b600067ffffffffffffffff821115611ed357611ed3611f3f565b5060051b60200190565b600181811c90821680611ef157607f821691505b60208210811415611f1257634e487b7160e01b600052602260045260246000fd5b50919050565b6000600019821415611f3857634e487b7160e01b81526011600452602481fd5b5060010190565b634e487b7160e01b600052604160045260246000fd5b6001600160a01b0381168114611f6a57600080fd5b5056fea264697066735822122016cf7ed81995cb368b4543c679a2eb348871d45251de66235dc156173a8d757964736f6c63430008040033",
  "linkReferences": {},
  "deployedLinkReferences": {}
}