{
  "_format": "hh-sol-artifact-1",
  "contractName": "Hangar18",
  "sourceName": "contracts/cygnus-core/Hangar18.sol",
  "abi": [
    {
      "inputs": [
        {
          "internalType": "address",
          "name": "_admin",
          "type": "address"
        },
        {
          "internalType": "address",
          "name": "_daoReserves",
          "type": "address"
        },
        {
          "internalType": "address",
          "name": "_usd",
          "type": "address"
        },
        {
          "internalType": "address",
          "name": "_nativeToken",
          "type": "address"
        }
      ],
      "stateMutability": "nonpayable",
      "type": "constructor"
    },
    {
      "inputs": [
        {
          "internalType": "address",
          "name": "newPendingAdmin",
          "type": "address"
        },
        {
          "internalType": "address",
          "name": "admin",
          "type": "address"
        }
      ],
      "name": "CygnusFactory__AdminAlreadySet",
      "type": "error"
    },
    {
      "inputs": [
        {
          "internalType": "address",
          "name": "calculatedCollateral",
          "type": "address"
        },
        {
          "internalType": "address",
          "name": "deployedCollateral",
          "type": "address"
        }
      ],
      "name": "CygnusFactory__CollateralAddressMismatch",
      "type": "error"
    },
    {
      "inputs": [
        {
          "internalType": "address",
          "name": "sender",
          "type": "address"
        },
        {
          "internalType": "address",
          "name": "admin",
          "type": "address"
        }
      ],
      "name": "CygnusFactory__CygnusAdminOnly",
      "type": "error"
    },
    {
      "inputs": [
        {
          "internalType": "address",
          "name": "priceOracle",
          "type": "address"
        },
        {
          "internalType": "address",
          "name": "newPriceOracle",
          "type": "address"
        }
      ],
      "name": "CygnusFactory__CygnusNebulaAlreadySet",
      "type": "error"
    },
    {
      "inputs": [],
      "name": "CygnusFactory__CygnusNebulaCantBeZero",
      "type": "error"
    },
    {
      "inputs": [
        {
          "internalType": "address",
          "name": "newPendingDaoReserves",
          "type": "address"
        },
        {
          "internalType": "address",
          "name": "daoReserves",
          "type": "address"
        }
      ],
      "name": "CygnusFactory__DaoReservesAlreadySet",
      "type": "error"
    },
    {
      "inputs": [],
      "name": "CygnusFactory__DaoReservesCantBeZero",
      "type": "error"
    },
    {
      "inputs": [
        {
          "internalType": "address",
          "name": "lpTokenPair",
          "type": "address"
        }
      ],
      "name": "CygnusFactory__LPTokenPairNotSupported",
      "type": "error"
    },
    {
      "inputs": [
        {
          "components": [
            {
              "internalType": "bool",
              "name": "status",
              "type": "bool"
            },
            {
              "internalType": "uint88",
              "name": "orbiterId",
              "type": "uint88"
            },
            {
              "internalType": "contract IAlbireoOrbiter",
              "name": "albireoOrbiter",
              "type": "address"
            },
            {
              "internalType": "contract IDenebOrbiter",
              "name": "denebOrbiter",
              "type": "address"
            },
            {
              "internalType": "bytes32",
              "name": "borrowableInitCodeHash",
              "type": "bytes32"
            },
            {
              "internalType": "bytes32",
              "name": "collateralInitCodeHash",
              "type": "bytes32"
            },
            {
              "internalType": "contract ICygnusNebulaOracle",
              "name": "nebulaOracle",
              "type": "address"
            },
            {
              "internalType": "bytes32",
              "name": "uniqueHash",
              "type": "bytes32"
            },
            {
              "internalType": "string",
              "name": "orbiterName",
              "type": "string"
            }
          ],
          "internalType": "struct IHangar18.Orbiter",
          "name": "orbiter",
          "type": "tuple"
        }
      ],
      "name": "CygnusFactory__OrbiterAlreadySet",
      "type": "error"
    },
    {
      "inputs": [
        {
          "components": [
            {
              "internalType": "bool",
              "name": "status",
              "type": "bool"
            },
            {
              "internalType": "uint88",
              "name": "orbiterId",
              "type": "uint88"
            },
            {
              "internalType": "contract IAlbireoOrbiter",
              "name": "albireoOrbiter",
              "type": "address"
            },
            {
              "internalType": "contract IDenebOrbiter",
              "name": "denebOrbiter",
              "type": "address"
            },
            {
              "internalType": "bytes32",
              "name": "borrowableInitCodeHash",
              "type": "bytes32"
            },
            {
              "internalType": "bytes32",
              "name": "collateralInitCodeHash",
              "type": "bytes32"
            },
            {
              "internalType": "contract ICygnusNebulaOracle",
              "name": "nebulaOracle",
              "type": "address"
            },
            {
              "internalType": "bytes32",
              "name": "uniqueHash",
              "type": "bytes32"
            },
            {
              "internalType": "string",
              "name": "orbiterName",
              "type": "string"
            }
          ],
          "internalType": "struct IHangar18.Orbiter",
          "name": "orbiter",
          "type": "tuple"
        }
      ],
      "name": "CygnusFactory__OrbitersAreInactive",
      "type": "error"
    },
    {
      "inputs": [
        {
          "internalType": "uint256",
          "name": "orbiterId",
          "type": "uint256"
        }
      ],
      "name": "CygnusFactory__OrbitersNotSet",
      "type": "error"
    },
    {
      "inputs": [
        {
          "internalType": "address",
          "name": "newPendingAdmin",
          "type": "address"
        },
        {
          "internalType": "address",
          "name": "pendingAdmin",
          "type": "address"
        }
      ],
      "name": "CygnusFactory__PendingAdminAlreadySet",
      "type": "error"
    },
    {
      "inputs": [],
      "name": "CygnusFactory__PendingAdminCantBeZero",
      "type": "error"
    },
    {
      "inputs": [
        {
          "internalType": "address",
          "name": "newPendingDaoReserves",
          "type": "address"
        },
        {
          "internalType": "address",
          "name": "pendingDaoReserves",
          "type": "address"
        }
      ],
      "name": "CygnusFactory__PendingDaoReservesAlreadySet",
      "type": "error"
    },
    {
      "inputs": [
        {
          "internalType": "address",
          "name": "lpTokenPair",
          "type": "address"
        },
        {
          "internalType": "uint256",
          "name": "orbiterId",
          "type": "uint256"
        }
      ],
      "name": "CygnusFactory__ShuttleAlreadyDeployed",
      "type": "error"
    },
    {
      "inputs": [],
      "name": "ReentrantCall",
      "type": "error"
    },
    {
      "anonymous": false,
      "inputs": [
        {
          "indexed": false,
          "internalType": "bool",
          "name": "status",
          "type": "bool"
        },
        {
          "indexed": false,
          "internalType": "uint256",
          "name": "orbitersLength",
          "type": "uint256"
        },
        {
          "indexed": false,
          "internalType": "contract IAlbireoOrbiter",
          "name": "borrowOrbiter",
          "type": "address"
        },
        {
          "indexed": false,
          "internalType": "contract IDenebOrbiter",
          "name": "denebOrbiter",
          "type": "address"
        },
        {
          "indexed": false,
          "internalType": "bytes32",
          "name": "uniqueHash",
          "type": "bytes32"
        },
        {
          "indexed": false,
          "internalType": "string",
          "name": "orbitersName",
          "type": "string"
        }
      ],
      "name": "InitializeOrbiters",
      "type": "event"
    },
    {
      "anonymous": false,
      "inputs": [
        {
          "indexed": false,
          "internalType": "address",
          "name": "oldAdmin",
          "type": "address"
        },
        {
          "indexed": false,
          "internalType": "address",
          "name": "newAdmin",
          "type": "address"
        }
      ],
      "name": "NewCygnusAdmin",
      "type": "event"
    },
    {
      "anonymous": false,
      "inputs": [
        {
          "indexed": false,
          "internalType": "contract ICygnusNebulaOracle",
          "name": "oldCygnusNebula",
          "type": "address"
        },
        {
          "indexed": false,
          "internalType": "contract ICygnusNebulaOracle",
          "name": "newCygnusNebula",
          "type": "address"
        }
      ],
      "name": "NewCygnusNebulaOracle",
      "type": "event"
    },
    {
      "anonymous": false,
      "inputs": [
        {
          "indexed": false,
          "internalType": "address",
          "name": "oldDaoReserves",
          "type": "address"
        },
        {
          "indexed": false,
          "internalType": "address",
          "name": "daoReserves",
          "type": "address"
        }
      ],
      "name": "NewDaoReserves",
      "type": "event"
    },
    {
      "anonymous": false,
      "inputs": [
        {
          "indexed": false,
          "internalType": "address",
          "name": "pendingAdmin",
          "type": "address"
        },
        {
          "indexed": false,
          "internalType": "address",
          "name": "_admin",
          "type": "address"
        }
      ],
      "name": "NewPendingCygnusAdmin",
      "type": "event"
    },
    {
      "anonymous": false,
      "inputs": [
        {
          "indexed": false,
          "internalType": "address",
          "name": "oldPendingdaoReservesContract",
          "type": "address"
        },
        {
          "indexed": false,
          "internalType": "address",
          "name": "newPendingdaoReservesContract",
          "type": "address"
        }
      ],
      "name": "NewPendingDaoReserves",
      "type": "event"
    },
    {
      "anonymous": false,
      "inputs": [
        {
          "indexed": true,
          "internalType": "address",
          "name": "lpTokenPair",
          "type": "address"
        },
        {
          "indexed": true,
          "internalType": "uint256",
          "name": "shuttleId",
          "type": "uint256"
        },
        {
          "indexed": false,
          "internalType": "uint256",
          "name": "orbiterId",
          "type": "uint256"
        },
        {
          "indexed": false,
          "internalType": "address",
          "name": "borrowable",
          "type": "address"
        },
        {
          "indexed": false,
          "internalType": "address",
          "name": "collateral",
          "type": "address"
        }
      ],
      "name": "NewShuttle",
      "type": "event"
    },
    {
      "anonymous": false,
      "inputs": [
        {
          "indexed": false,
          "internalType": "bool",
          "name": "status",
          "type": "bool"
        },
        {
          "indexed": false,
          "internalType": "uint256",
          "name": "orbiterId",
          "type": "uint256"
        },
        {
          "indexed": false,
          "internalType": "contract IAlbireoOrbiter",
          "name": "albireoOrbiter",
          "type": "address"
        },
        {
          "indexed": false,
          "internalType": "contract IDenebOrbiter",
          "name": "denebOrbiter",
          "type": "address"
        },
        {
          "indexed": false,
          "internalType": "string",
          "name": "orbiterName",
          "type": "string"
        }
      ],
      "name": "SwitchOrbiterStatus",
      "type": "event"
    },
    {
      "inputs": [],
      "name": "AGGREGATION_ROUTER_V5",
      "outputs": [
        {
          "internalType": "contract IAggregationRouterV5",
          "name": "",
          "type": "address"
        }
      ],
      "stateMutability": "view",
      "type": "function"
    },
    {
      "inputs": [],
      "name": "admin",
      "outputs": [
        {
          "internalType": "address",
          "name": "",
          "type": "address"
        }
      ],
      "stateMutability": "view",
      "type": "function"
    },
    {
      "inputs": [
        {
          "internalType": "uint256",
          "name": "",
          "type": "uint256"
        }
      ],
      "name": "allNebulas",
      "outputs": [
        {
          "internalType": "contract ICygnusNebulaOracle",
          "name": "",
          "type": "address"
        }
      ],
      "stateMutability": "view",
      "type": "function"
    },
    {
      "inputs": [
        {
          "internalType": "uint256",
          "name": "",
          "type": "uint256"
        }
      ],
      "name": "allOrbiters",
      "outputs": [
        {
          "internalType": "bool",
          "name": "status",
          "type": "bool"
        },
        {
          "internalType": "uint88",
          "name": "orbiterId",
          "type": "uint88"
        },
        {
          "internalType": "contract IAlbireoOrbiter",
          "name": "albireoOrbiter",
          "type": "address"
        },
        {
          "internalType": "contract IDenebOrbiter",
          "name": "denebOrbiter",
          "type": "address"
        },
        {
          "internalType": "bytes32",
          "name": "borrowableInitCodeHash",
          "type": "bytes32"
        },
        {
          "internalType": "bytes32",
          "name": "collateralInitCodeHash",
          "type": "bytes32"
        },
        {
          "internalType": "contract ICygnusNebulaOracle",
          "name": "nebulaOracle",
          "type": "address"
        },
        {
          "internalType": "bytes32",
          "name": "uniqueHash",
          "type": "bytes32"
        },
        {
          "internalType": "string",
          "name": "orbiterName",
          "type": "string"
        }
      ],
      "stateMutability": "view",
      "type": "function"
    },
    {
      "inputs": [
        {
          "internalType": "uint256",
          "name": "",
          "type": "uint256"
        }
      ],
      "name": "allShuttles",
      "outputs": [
        {
          "internalType": "bool",
          "name": "launched",
          "type": "bool"
        },
        {
          "internalType": "uint88",
          "name": "shuttleId",
          "type": "uint88"
        },
        {
          "internalType": "address",
          "name": "borrowable",
          "type": "address"
        },
        {
          "internalType": "address",
          "name": "collateral",
          "type": "address"
        },
        {
          "internalType": "uint96",
          "name": "orbiterId",
          "type": "uint96"
        }
      ],
      "stateMutability": "view",
      "type": "function"
    },
    {
      "inputs": [],
      "name": "daoReserves",
      "outputs": [
        {
          "internalType": "address",
          "name": "",
          "type": "address"
        }
      ],
      "stateMutability": "view",
      "type": "function"
    },
    {
      "inputs": [
        {
          "internalType": "address",
          "name": "lpTokenPair",
          "type": "address"
        },
        {
          "internalType": "uint256",
          "name": "orbiterId",
          "type": "uint256"
        }
      ],
      "name": "deployShuttle",
      "outputs": [
        {
          "internalType": "address",
          "name": "borrowable",
          "type": "address"
        },
        {
          "internalType": "address",
          "name": "collateral",
          "type": "address"
        }
      ],
      "stateMutability": "nonpayable",
      "type": "function"
    },
    {
      "inputs": [
        {
          "internalType": "uint256",
          "name": "",
          "type": "uint256"
        }
      ],
      "name": "getOrbiters",
      "outputs": [
        {
          "internalType": "bool",
          "name": "status",
          "type": "bool"
        },
        {
          "internalType": "uint88",
          "name": "orbiterId",
          "type": "uint88"
        },
        {
          "internalType": "contract IAlbireoOrbiter",
          "name": "albireoOrbiter",
          "type": "address"
        },
        {
          "internalType": "contract IDenebOrbiter",
          "name": "denebOrbiter",
          "type": "address"
        },
        {
          "internalType": "bytes32",
          "name": "borrowableInitCodeHash",
          "type": "bytes32"
        },
        {
          "internalType": "bytes32",
          "name": "collateralInitCodeHash",
          "type": "bytes32"
        },
        {
          "internalType": "contract ICygnusNebulaOracle",
          "name": "nebulaOracle",
          "type": "address"
        },
        {
          "internalType": "bytes32",
          "name": "uniqueHash",
          "type": "bytes32"
        },
        {
          "internalType": "string",
          "name": "orbiterName",
          "type": "string"
        }
      ],
      "stateMutability": "view",
      "type": "function"
    },
    {
      "inputs": [
        {
          "internalType": "address",
          "name": "",
          "type": "address"
        },
        {
          "internalType": "uint256",
          "name": "",
          "type": "uint256"
        }
      ],
      "name": "getShuttles",
      "outputs": [
        {
          "internalType": "bool",
          "name": "launched",
          "type": "bool"
        },
        {
          "internalType": "uint88",
          "name": "shuttleId",
          "type": "uint88"
        },
        {
          "internalType": "address",
          "name": "borrowable",
          "type": "address"
        },
        {
          "internalType": "address",
          "name": "collateral",
          "type": "address"
        },
        {
          "internalType": "uint96",
          "name": "orbiterId",
          "type": "uint96"
        }
      ],
      "stateMutability": "view",
      "type": "function"
    },
    {
      "inputs": [
        {
          "internalType": "string",
          "name": "orbiterName",
          "type": "string"
        },
        {
          "internalType": "contract IAlbireoOrbiter",
          "name": "albireoOrbiter",
          "type": "address"
        },
        {
          "internalType": "contract IDenebOrbiter",
          "name": "denebOrbiter",
          "type": "address"
        },
        {
          "internalType": "contract ICygnusNebulaOracle",
          "name": "nebulaOracle",
          "type": "address"
        }
      ],
      "name": "initializeOrbiter",
      "outputs": [],
      "stateMutability": "nonpayable",
      "type": "function"
    },
    {
      "inputs": [],
      "name": "nativeToken",
      "outputs": [
        {
          "internalType": "address",
          "name": "",
          "type": "address"
        }
      ],
      "stateMutability": "view",
      "type": "function"
    },
    {
      "inputs": [],
      "name": "nebulasDeployed",
      "outputs": [
        {
          "internalType": "uint256",
          "name": "",
          "type": "uint256"
        }
      ],
      "stateMutability": "view",
      "type": "function"
    },
    {
      "inputs": [],
      "name": "orbitersDeployed",
      "outputs": [
        {
          "internalType": "uint256",
          "name": "",
          "type": "uint256"
        }
      ],
      "stateMutability": "view",
      "type": "function"
    },
    {
      "inputs": [],
      "name": "pendingAdmin",
      "outputs": [
        {
          "internalType": "address",
          "name": "",
          "type": "address"
        }
      ],
      "stateMutability": "view",
      "type": "function"
    },
    {
      "inputs": [],
      "name": "pendingDaoReserves",
      "outputs": [
        {
          "internalType": "address",
          "name": "",
          "type": "address"
        }
      ],
      "stateMutability": "view",
      "type": "function"
    },
    {
      "inputs": [],
      "name": "setNewCygnusAdmin",
      "outputs": [],
      "stateMutability": "nonpayable",
      "type": "function"
    },
    {
      "inputs": [],
      "name": "setNewDaoReserves",
      "outputs": [],
      "stateMutability": "nonpayable",
      "type": "function"
    },
    {
      "inputs": [
        {
          "internalType": "address",
          "name": "newPendingAdmin",
          "type": "address"
        }
      ],
      "name": "setPendingAdmin",
      "outputs": [],
      "stateMutability": "nonpayable",
      "type": "function"
    },
    {
      "inputs": [
        {
          "internalType": "address",
          "name": "newPendingDaoReserves",
          "type": "address"
        }
      ],
      "name": "setPendingDaoReserves",
      "outputs": [],
      "stateMutability": "nonpayable",
      "type": "function"
    },
    {
      "inputs": [],
      "name": "shuttlesDeployed",
      "outputs": [
        {
          "internalType": "uint256",
          "name": "",
          "type": "uint256"
        }
      ],
      "stateMutability": "view",
      "type": "function"
    },
    {
      "inputs": [
        {
          "internalType": "uint256",
          "name": "orbiterId",
          "type": "uint256"
        }
      ],
      "name": "switchOrbiterStatus",
      "outputs": [],
      "stateMutability": "nonpayable",
      "type": "function"
    },
    {
      "inputs": [],
      "name": "usd",
      "outputs": [
        {
          "internalType": "address",
          "name": "",
          "type": "address"
        }
      ],
      "stateMutability": "view",
      "type": "function"
    }
  ],
  "bytecode": "0x60c06040523480156200001157600080fd5b506040516200228c3803806200228c83398101604081905262000034916200012c565b6000805460ff19166001178155600580546001600160a01b038781166001600160a01b0319928316811790935560078054918816919092161790556001600160601b0319606084811b821660a05285901b166080526040805192835260208301919091527fa6fd993b45f105f3b99176403c23f4df5f10600b416795ff8223ff7ad9efb4f9910160405180910390a160408051600081526001600160a01b03851660208201527fdc45b28468284159445ec8588dd4c555fc01ed3c9e7b3b6fd371be486f77913b910160405180910390a15050505062000188565b80516001600160a01b03811681146200012757600080fd5b919050565b6000806000806080858703121562000142578384fd5b6200014d856200010f565b93506200015d602086016200010f565b92506200016d604086016200010f565b91506200017d606086016200010f565b905092959194509250565b60805160601c60a05160601c6120d1620001bb60003960006103db0152600081816103a1015261089501526120d16000f3fe608060405234801561001057600080fd5b50600436106101825760003560e01c8063883fd1c9116100d8578063d63a6ccd1161008c578063ea191e9f11610066578063ea191e9f146103fd578063ec84a5cb14610405578063f851a4401461041857600080fd5b8063d63a6ccd1461039c578063daa3bc01146103c3578063e1758bd8146103d657600080fd5b8063a5d29318116100bd578063a5d29318146102fc578063b11de7e31461036e578063d02c70e81461038957600080fd5b8063883fd1c9146102e15780639861a14f146102e957600080fd5b80634d06fcd41161013a5780635b068af8116101145780635b068af8146102b35780636f40b0c7146102c657806380ffbb88146102d957600080fd5b80634d06fcd41461025a5780634dd18bf51461028d578063502b512e146102a057600080fd5b8063267822471161016b57806326782247146101fd578063269a2ce4146102285780632f94f7bf1461025057600080fd5b80631ad4c8c3146101875780631f5b8f92146101eb575b600080fd5b61019a610195366004611cdb565b61042b565b6040805195151586526001600160581b0390941660208601526001600160a01b03928316938501939093521660608301526bffffffffffffffffffffffff16608082015260a0015b60405180910390f35b6009545b6040519081526020016101e2565b600654610210906001600160a01b031681565b6040516001600160a01b0390911681526020016101e2565b61023b610236366004611cdb565b610497565b6040516101e299989796959493929190611d8a565b610258610596565b005b61026d610268366004611b11565b610634565b604080516001600160a01b039384168152929091166020830152016101e2565b61025861029b366004611ad2565b610c96565b61023b6102ae366004611cdb565b610d46565b600754610210906001600160a01b031681565b6102586102d4366004611b54565b610db4565b6002546101ef565b6102586112f2565b600854610210906001600160a01b031681565b61019a61030a366004611b11565b60046020908152600092835260408084209091529082529020805460019091015460ff8216916001600160581b03610100820416916001600160a01b03600160601b9092048216918116906bffffffffffffffffffffffff600160a01b9091041685565b610210731111111254eeb25477b68fb85ed929f73a96058281565b610210610397366004611cdb565b611389565b6102107f000000000000000000000000000000000000000000000000000000000000000081565b6102586103d1366004611ad2565b6113b3565b6102107f000000000000000000000000000000000000000000000000000000000000000081565b6001546101ef565b610258610413366004611cdb565b61145b565b600554610210906001600160a01b031681565b6002818154811061043b57600080fd5b60009182526020909120600290910201805460019091015460ff8216925061010082046001600160581b031691600160601b90046001600160a01b039081169190811690600160a01b90046bffffffffffffffffffffffff1685565b600181815481106104a757600080fd5b6000918252602090912060079091020180546001820154600283015460038401546004850154600586015460068701805460ff8816995061010088046001600160581b031698600160601b9098046001600160a01b03908116989781169794169391906105139061200b565b80601f016020809104026020016040519081016040528092919081815260200182805461053f9061200b565b801561058c5780601f106105615761010080835404028352916020019161058c565b820191906000526020600020905b81548152906001019060200180831161056f57829003601f168201915b5050505050905089565b61059e611533565b6008546001600160a01b03166105c75760405163bb2a93a160e01b815260040160405180910390fd5b60078054600880546001600160a01b038082166001600160a01b0319808616821790965594909116909155604080519190921680825260208201939093527fdc45b28468284159445ec8588dd4c555fc01ed3c9e7b3b6fd371be486f77913b91015b60405180910390a150565b60008054819060ff1661065a576040516306fda65d60e31b815260040160405180910390fd5b6000805460ff1916905561066c611533565b6000838152600360208181526040808420815161012081018352815460ff8116151582526101008082046001600160581b031695830195909552600160601b90046001600160a01b0390811693820193909352600182015483166060820152600282015460808201529381015460a0850152600481015490911660c0840152600581015460e084015260068101805491928401916107099061200b565b80601f01602080910402602001604051908101604052809291908181526020018280546107359061200b565b80156107825780601f1061075757610100808354040283529160200191610782565b820191906000526020600020905b81548152906001019060200180831161076557829003601f168201915b505050505081525050905080600001516107ba5780604051630958638160e11b81526004016107b19190611ed5565b60405180910390fd5b60006107d38683602001516001600160581b031661157e565b60608381015160a0850151604080516001600160a01b038c16602080830191909152308284015282518083038401815282870184528051908201207fff0000000000000000000000000000000000000000000000000000000000000060808401529490951b6bffffffffffffffffffffffff19166081820152609581019390935260b5808401929092528051808403909201825260d5909201909152805191012090915060009060408481015160c086015185549251631375323f60e31b81527f00000000000000000000000000000000000000000000000000000000000000006001600160a01b039081166004830152808616602483015291821660448201526101009093046001600160581b031660648401529293509190911690639ba991f890608401602060405180830381600087803b15801561091357600080fd5b505af1158015610927573d6000803e3d6000fd5b505050506040513d601f19601f8201168201806040525081019061094b9190611af5565b606084015160c085015184546040516306cadc7960e21b81526001600160a01b038c81166004830152808616602483015292831660448201526101009091046001600160581b031660648201529297501690631b2b71e490608401602060405180830381600087803b1580156109c057600080fd5b505af11580156109d4573d6000803e3d6000fd5b505050506040513d601f19601f820116820180604052508101906109f89190611af5565b9350806001600160a01b0316846001600160a01b031614610a3f576040516305048e8760e11b81526001600160a01b038083166004830152851660248201526044016107b1565b60c0830151604051633c2b103160e21b81526001600160a01b038981166004830152600092169063f0ac40c49060240160006040518083038186803b158015610a8757600080fd5b505afa158015610a9b573d6000803e3d6000fd5b505050506040513d6000823e601f3d908101601f19168201604052610ac39190810190611c16565b8051909150610af057604051633c56810b60e21b81526001600160a01b03891660048201526024016107b1565b82546001600160a01b03878116600160601b9081026bffffffffffffffffffffff00909316929092176001908117865580860180548984166001600160a01b03199182161782556002805493840181556000819052885493027f405787fa12a823e0f2b7631cc41b3ba8828b3321ca811111fa75cd3aa3bb5ace8101805460ff909516151560ff198616811782558a546001600160581b0361010091829004811682026bffffffffffffffffffffff00199093166bffffffffffffffffffffffff1990981697909717919091178083558b54899004881689026bffffffffffffffffffffffff9182161790925584547f405787fa12a823e0f2b7631cc41b3ba8828b3321ca811111fa75cd3aa3bb5acf909301805490941692871692831784558454600160a01b90819004909216909102909117909155875491546040805192840490941682529490910483166020820152928216908301528891908a16907f87cc75e536ac0074a48c024a0a07dc0b5a1025f2ad992f76125df37add2c068f9060600160405180910390a350506000805460ff19166001179055509194909350915050565b610c9e611533565b6005546001600160a01b0382811691161415610ce45760055460405163c3226b7360e01b81526001600160a01b03808416600483015290911660248201526044016107b1565b600680546001600160a01b038381166001600160a01b031983168117909355604080519190921680825260208201939093527f2df3edf32bd243b7fb5e2d31673b2c1e842eff07d227e05d34b5135021a1683891015b60405180910390a15050565b6003602081905260009182526040909120805460018201546002830154938301546004840154600585015460068601805460ff87169861010088046001600160581b031698600160601b9098046001600160a01b03908116989781169791969516939290916105139061200b565b610dbc611533565b600060018054905090506000836001600160a01b03166310df4f526040518163ffffffff1660e01b815260040160206040518083038186803b158015610e0157600080fd5b505afa158015610e15573d6000803e3d6000fd5b505050506040513d601f19601f82011682018060405250810190610e399190611b3c565b90506000856001600160a01b031663870ad7fa6040518163ffffffff1660e01b815260040160206040518083038186803b158015610e7657600080fd5b505afa158015610e8a573d6000803e3d6000fd5b505050506040513d601f19601f82011682018060405250810190610eae9190611b3c565b60408051602081018590529081018290526001600160a01b0386166060820152909150600090608001604051602081830303815290604052805190602001209050610ef981856116af565b600084815260036020908152604090912080546bffffffffffffffffffffff0019166101006001600160581b0388160217815589519091610f419160068401918c01906118ae565b50868160010160006101000a8154816001600160a01b0302191690836001600160a01b031602179055508781600001600c6101000a8154816001600160a01b0302191690836001600160a01b03160217905550858160040160006101000a8154816001600160a01b0302191690836001600160a01b0316021790555083816003018190555082816002018190555081816005018190555060018160000160006101000a81548160ff02191690831515021790555060018190806001815401808255809150506001900390600052602060002090600702016000909190919091506000820160009054906101000a900460ff168160000160006101000a81548160ff0219169083151502179055506000820160019054906101000a90046001600160581b03168160000160016101000a8154816001600160581b0302191690836001600160581b0316021790555060008201600c9054906101000a90046001600160a01b031681600001600c6101000a8154816001600160a01b0302191690836001600160a01b031602179055506001820160009054906101000a90046001600160a01b03168160010160006101000a8154816001600160a01b0302191690836001600160a01b0316021790555060028201548160020155600382015481600301556004820160009054906101000a90046001600160a01b03168160040160006101000a8154816001600160a01b0302191690836001600160a01b031602179055506005820154816005015560068201816006019080546111809061200b565b61118b929190611932565b505050600060098054806020026020016040519081016040528092919081815260200182805480156111e657602002820191906000526020600020905b81546001600160a01b031681526001909101906020018083116111c8575b5050505050905060005b81518110156112a357600082828151811061121b57634e487b7160e01b600052603260045260246000fd5b60200260200101519050886001600160a01b0316816001600160a01b0316141561124557506112a3565b50600980546001810182556000919091527f6e1540171b6c0c960b71a7020d9f60077f6af931a8bbf590da0223dacf75c7af0180546001600160a01b0319166001600160a01b038a161790558061129b81612046565b9150506111f0565b507f762b8fc43a2bd9ece972a1d1d8db08f6b4c5bfe96114e43b84ef52a1b0c85f756001878b8b878f6040516112de96959493929190611d3e565b60405180910390a150505050505050505050565b6112fa611533565b6006546001600160a01b031661132357604051633e2b53a560e01b815260040160405180910390fd5b60058054600680546001600160a01b038082166001600160a01b0319808616821790965594909116909155604080519190921680825260208201939093527fa6fd993b45f105f3b99176403c23f4df5f10600b416795ff8223ff7ad9efb4f99101610629565b6009818154811061139957600080fd5b6000918252602090912001546001600160a01b0316905081565b6113bb611533565b6007546001600160a01b038281169116141561140157600754604051630a502a8f60e21b81526001600160a01b03808416600483015290911660248201526044016107b1565b600880546001600160a01b038381166001600160a01b031983168117909355604080519190921680825260208201939093527f3af6d72823f6692d6673266dabbf4e3165600dcf901b0188c596fe7dad74caf39101610d3a565b611463611533565b60006001828154811061148657634e487b7160e01b600052603260045260246000fd5b906000526020600020906007020190506000801b816005015414156114c1576040516308e1f4c960e01b8152600481018390526024016107b1565b805460ff19811660ff9182161590811780845560018401546040517f3a23a6fdafdcd184715cc363b2dcefad97be8b3a659d21faa90068b3b4d5c74994610d3a9416926001600160581b03610100820416926001600160a01b03600160601b9092048216929116906006880190611df9565b6005546001600160a01b0316336001600160a01b03161461157c5760055460405163431c27f560e01b81523360048201526001600160a01b0390911660248201526044016107b1565b565b6001600160a01b038216600090815260046020908152604080832084845290915281205460ff16801515600114156115db576040516350f5a01360e11b81526001600160a01b0385166004820152602481018490526044016107b1565b50506040805160a08101825260008082526002546001600160581b039081166020808501918252848601848152606086018581526bffffffffffffffffffffffff808a16608089019081526001600160a01b038c81168952600486528a89208c8a529095529890962096518754945192518416600160601b0292909516610100026bffffffffffffffffffffff0019951515959095166bffffffffffffffffffffffff1990941693909317939093178416929092178455519351909116600160a01b02921691909117600182015592915050565b60006001805480602002602001604051908101604052809291908181526020016000905b82821015611810576000848152602090819020604080516101208101825260078602909201805460ff8116151584526101008082046001600160581b031695850195909552600160601b90046001600160a01b039081169284019290925260018101548216606084015260028101546080840152600381015460a0840152600481015490911660c0830152600581015460e0830152600681018054929391929184019161177f9061200b565b80601f01602080910402602001604051908101604052809291908181526020018280546117ab9061200b565b80156117f85780601f106117cd576101008083540402835291602001916117f8565b820191906000526020600020905b8154815290600101906020018083116117db57829003601f168201915b505050505081525050815260200190600101906116d3565b50505050905060005b828110156118a85781818151811061184157634e487b7160e01b600052603260045260246000fd5b602002602001015160e001518414156118965781818151811061187457634e487b7160e01b600052603260045260246000fd5b60200260200101516040516331043c6560e01b81526004016107b19190611ed5565b806118a081612046565b915050611819565b50505050565b8280546118ba9061200b565b90600052602060002090601f0160209004810192826118dc5760008555611922565b82601f106118f557805160ff1916838001178555611922565b82800160010185558215611922579182015b82811115611922578251825591602001919060010190611907565b5061192e9291506119ad565b5090565b82805461193e9061200b565b90600052602060002090601f0160209004810192826119605760008555611922565b82601f106119715780548555611922565b8280016001018555821561192257600052602060002091601f016020900482015b82811115611922578254825591600101919060010190611992565b5b8082111561192e57600081556001016119ae565b80516119cd81612083565b919050565b600082601f8301126119e2578081fd5b815160206119f76119f283611fe7565b611fb6565b80838252828201915082860187848660051b8901011115611a16578586fd5b855b85811015611a3d578151611a2b81612083565b84529284019290840190600101611a18565b5090979650505050505050565b600082601f830112611a5a578081fd5b81516020611a6a6119f283611fe7565b80838252828201915082860187848660051b8901011115611a89578586fd5b855b85811015611a3d578151611a9e81612083565b84529284019290840190600101611a8b565b80356119cd81612083565b80516001600160581b03811681146119cd57600080fd5b600060208284031215611ae3578081fd5b8135611aee81612083565b9392505050565b600060208284031215611b06578081fd5b8151611aee81612083565b60008060408385031215611b23578081fd5b8235611b2e81612083565b946020939093013593505050565b600060208284031215611b4d578081fd5b5051919050565b60008060008060808587031215611b69578182fd5b843567ffffffffffffffff80821115611b80578384fd5b818701915087601f830112611b93578384fd5b8135602082821115611ba757611ba761206d565b611bb9601f8301601f19168201611fb6565b92508183528981838601011115611bce578586fd5b818185018285013785818385010152829750611beb818a01611ab0565b965050505050611bfd60408601611ab0565b9150611c0b60608601611ab0565b905092959194509250565b600060208284031215611c27578081fd5b815167ffffffffffffffff80821115611c3e578283fd5b9083019060a08286031215611c51578283fd5b611c59611f8d565b82518015158114611c68578485fd5b8152611c7660208401611abb565b6020820152611c87604084016119c2565b6040820152606083015182811115611c9d578485fd5b611ca987828601611a4a565b606083015250608083015182811115611cc0578485fd5b611ccc878286016119d2565b60808301525095945050505050565b600060208284031215611cec578081fd5b5035919050565b60008151808452815b81811015611d1857602081850181015186830182015201611cfc565b81811115611d295782602083870101525b50601f01601f19169290920160200192915050565b861515815285602082015260006001600160a01b03808716604084015280861660608401525083608083015260c060a0830152611d7e60c0830184611cf3565b98975050505050505050565b60006101208b151583526001600160581b038b1660208401526001600160a01b03808b166040850152808a1660608501528860808501528760a085015280871660c0850152508460e084015280610100840152611de981840185611cf3565b9c9b505050505050505050505050565b8515158152600060206001600160581b038716818401526001600160a01b03808716604085015280861660608501525060a0608084015281845483600182811c915080831680611e4a57607f831692505b858310811415611e6857634e487b7160e01b87526022600452602487fd5b60a0880183905260c08801818015611e875760018114611e9857611ec2565b60ff19861682528782019650611ec2565b60008b815260209020895b86811015611ebc57815484820152908501908901611ea3565b83019750505b50949d9c50505050505050505050505050565b60208152611ee860208201835115159052565b60006020830151611f0460408401826001600160581b03169052565b5060408301516001600160a01b03811660608401525060608301516001600160a01b038116608084015250608083015160a083015260a083015160c083015260c0830151611f5d60e08401826001600160a01b03169052565b5060e08301516101008381019190915283015161012080840152611f85610140840182611cf3565b949350505050565b60405160a0810167ffffffffffffffff81118282101715611fb057611fb061206d565b60405290565b604051601f8201601f1916810167ffffffffffffffff81118282101715611fdf57611fdf61206d565b604052919050565b600067ffffffffffffffff8211156120015761200161206d565b5060051b60200190565b600181811c9082168061201f57607f821691505b6020821081141561204057634e487b7160e01b600052602260045260246000fd5b50919050565b600060001982141561206657634e487b7160e01b81526011600452602481fd5b5060010190565b634e487b7160e01b600052604160045260246000fd5b6001600160a01b038116811461209857600080fd5b5056fea2646970667358221220b854d58120c7784687daab17675788879f245c1eb8a9aea637d5a9f73463da0264736f6c63430008040033",
  "linkReferences": {},
  "deployedLinkReferences": {}
}