{
  "_format": "hh-sol-artifact-1",
  "contractName": "ERC20Permit",
  "sourceName": "contracts/cygnus-core/ERC20Permit.sol",
  "abi": [
    {
      "inputs": [
        {
          "internalType": "string",
          "name": "_name",
          "type": "string"
        },
        {
          "internalType": "string",
          "name": "_symbol",
          "type": "string"
        },
        {
          "internalType": "uint8",
          "name": "_decimals",
          "type": "uint8"
        }
      ],
      "stateMutability": "nonpayable",
      "type": "constructor"
    },
    {
      "inputs": [
        {
          "internalType": "address",
          "name": "owner",
          "type": "address"
        },
        {
          "internalType": "uint8",
          "name": "v",
          "type": "uint8"
        },
        {
          "internalType": "bytes32",
          "name": "r",
          "type": "bytes32"
        },
        {
          "internalType": "bytes32",
          "name": "s",
          "type": "bytes32"
        }
      ],
      "name": "ERC20Permit__InvalidSignature",
      "type": "error"
    },
    {
      "inputs": [],
      "name": "ERC20Permit__OwnerZeroAddress",
      "type": "error"
    },
    {
      "inputs": [
        {
          "internalType": "uint256",
          "name": "currentTime",
          "type": "uint256"
        },
        {
          "internalType": "uint256",
          "name": "deadline",
          "type": "uint256"
        }
      ],
      "name": "ERC20Permit__PermitExpired",
      "type": "error"
    },
    {
      "inputs": [],
      "name": "ERC20Permit__RecoveredOwnerZeroAddress",
      "type": "error"
    },
    {
      "inputs": [],
      "name": "ERC20Permit__SpenderZeroAddress",
      "type": "error"
    },
    {
      "inputs": [],
      "name": "ERC20__ApproveOwnerZeroAddress",
      "type": "error"
    },
    {
      "inputs": [],
      "name": "ERC20__ApproveSpenderZeroAddress",
      "type": "error"
    },
    {
      "inputs": [
        {
          "internalType": "uint256",
          "name": "accountBalance",
          "type": "uint256"
        },
        {
          "internalType": "uint256",
          "name": "burnAmount",
          "type": "uint256"
        }
      ],
      "name": "ERC20__BurnUnderflow",
      "type": "error"
    },
    {
      "inputs": [],
      "name": "ERC20__BurnZeroAddress",
      "type": "error"
    },
    {
      "inputs": [
        {
          "internalType": "uint256",
          "name": "allowance",
          "type": "uint256"
        },
        {
          "internalType": "uint256",
          "name": "amount",
          "type": "uint256"
        }
      ],
      "name": "ERC20__InsufficientAllowance",
      "type": "error"
    },
    {
      "inputs": [
        {
          "internalType": "uint256",
          "name": "senderBalance",
          "type": "uint256"
        },
        {
          "internalType": "uint256",
          "name": "amount",
          "type": "uint256"
        }
      ],
      "name": "ERC20__InsufficientBalance",
      "type": "error"
    },
    {
      "inputs": [],
      "name": "ERC20__MintZeroAddress",
      "type": "error"
    },
    {
      "inputs": [],
      "name": "ERC20__TransferRecipientZeroAddress",
      "type": "error"
    },
    {
      "inputs": [],
      "name": "ERC20__TransferSenderZeroAddress",
      "type": "error"
    },
    {
      "inputs": [],
      "name": "ReentrantCall",
      "type": "error"
    },
    {
      "anonymous": false,
      "inputs": [
        {
          "indexed": true,
          "internalType": "address",
          "name": "owner",
          "type": "address"
        },
        {
          "indexed": true,
          "internalType": "address",
          "name": "spender",
          "type": "address"
        },
        {
          "indexed": false,
          "internalType": "uint256",
          "name": "amount",
          "type": "uint256"
        }
      ],
      "name": "Approval",
      "type": "event"
    },
    {
      "anonymous": false,
      "inputs": [
        {
          "indexed": true,
          "internalType": "address",
          "name": "from",
          "type": "address"
        },
        {
          "indexed": true,
          "internalType": "address",
          "name": "to",
          "type": "address"
        },
        {
          "indexed": false,
          "internalType": "uint256",
          "name": "amount",
          "type": "uint256"
        }
      ],
      "name": "Transfer",
      "type": "event"
    },
    {
      "inputs": [],
      "name": "DOMAIN_SEPARATOR",
      "outputs": [
        {
          "internalType": "bytes32",
          "name": "",
          "type": "bytes32"
        }
      ],
      "stateMutability": "view",
      "type": "function"
    },
    {
      "inputs": [],
      "name": "PERMIT_TYPEHASH",
      "outputs": [
        {
          "internalType": "bytes32",
          "name": "",
          "type": "bytes32"
        }
      ],
      "stateMutability": "view",
      "type": "function"
    },
    {
      "inputs": [
        {
          "internalType": "address",
          "name": "owner",
          "type": "address"
        },
        {
          "internalType": "address",
          "name": "spender",
          "type": "address"
        }
      ],
      "name": "allowance",
      "outputs": [
        {
          "internalType": "uint256",
          "name": "",
          "type": "uint256"
        }
      ],
      "stateMutability": "view",
      "type": "function"
    },
    {
      "inputs": [
        {
          "internalType": "address",
          "name": "spender",
          "type": "address"
        },
        {
          "internalType": "uint256",
          "name": "amount",
          "type": "uint256"
        }
      ],
      "name": "approve",
      "outputs": [
        {
          "internalType": "bool",
          "name": "",
          "type": "bool"
        }
      ],
      "stateMutability": "nonpayable",
      "type": "function"
    },
    {
      "inputs": [
        {
          "internalType": "address",
          "name": "account",
          "type": "address"
        }
      ],
      "name": "balanceOf",
      "outputs": [
        {
          "internalType": "uint256",
          "name": "",
          "type": "uint256"
        }
      ],
      "stateMutability": "view",
      "type": "function"
    },
    {
      "inputs": [],
      "name": "decimals",
      "outputs": [
        {
          "internalType": "uint8",
          "name": "",
          "type": "uint8"
        }
      ],
      "stateMutability": "view",
      "type": "function"
    },
    {
      "inputs": [],
      "name": "name",
      "outputs": [
        {
          "internalType": "string",
          "name": "",
          "type": "string"
        }
      ],
      "stateMutability": "view",
      "type": "function"
    },
    {
      "inputs": [
        {
          "internalType": "address",
          "name": "",
          "type": "address"
        }
      ],
      "name": "nonces",
      "outputs": [
        {
          "internalType": "uint256",
          "name": "",
          "type": "uint256"
        }
      ],
      "stateMutability": "view",
      "type": "function"
    },
    {
      "inputs": [
        {
          "internalType": "address",
          "name": "owner",
          "type": "address"
        },
        {
          "internalType": "address",
          "name": "spender",
          "type": "address"
        },
        {
          "internalType": "uint256",
          "name": "value",
          "type": "uint256"
        },
        {
          "internalType": "uint256",
          "name": "deadline",
          "type": "uint256"
        },
        {
          "internalType": "uint8",
          "name": "v",
          "type": "uint8"
        },
        {
          "internalType": "bytes32",
          "name": "r",
          "type": "bytes32"
        },
        {
          "internalType": "bytes32",
          "name": "s",
          "type": "bytes32"
        }
      ],
      "name": "permit",
      "outputs": [],
      "stateMutability": "nonpayable",
      "type": "function"
    },
    {
      "inputs": [],
      "name": "symbol",
      "outputs": [
        {
          "internalType": "string",
          "name": "",
          "type": "string"
        }
      ],
      "stateMutability": "view",
      "type": "function"
    },
    {
      "inputs": [],
      "name": "totalSupply",
      "outputs": [
        {
          "internalType": "uint256",
          "name": "",
          "type": "uint256"
        }
      ],
      "stateMutability": "view",
      "type": "function"
    },
    {
      "inputs": [
        {
          "internalType": "address",
          "name": "recipient",
          "type": "address"
        },
        {
          "internalType": "uint256",
          "name": "amount",
          "type": "uint256"
        }
      ],
      "name": "transfer",
      "outputs": [
        {
          "internalType": "bool",
          "name": "",
          "type": "bool"
        }
      ],
      "stateMutability": "nonpayable",
      "type": "function"
    },
    {
      "inputs": [
        {
          "internalType": "address",
          "name": "sender",
          "type": "address"
        },
        {
          "internalType": "address",
          "name": "recipient",
          "type": "address"
        },
        {
          "internalType": "uint256",
          "name": "amount",
          "type": "uint256"
        }
      ],
      "name": "transferFrom",
      "outputs": [
        {
          "internalType": "bool",
          "name": "",
          "type": "bool"
        }
      ],
      "stateMutability": "nonpayable",
      "type": "function"
    },
    {
      "inputs": [],
      "name": "version",
      "outputs": [
        {
          "internalType": "string",
          "name": "",
          "type": "string"
        }
      ],
      "stateMutability": "view",
      "type": "function"
    }
  ],
  "bytecode": "0x60a06040523480156200001157600080fd5b5060405162000ecb38038062000ecb8339810160408190526200003491620002a4565b6000805460ff1916600190811790915583518491849184916200005c9160208601906200014b565b508151620000729060029060208501906200014b565b506003805460ff191660ff92909216919091179055505060405146907f8b73c3c69bb8fe3d512ecc4cf759cc79239f7b179b0ffacaa9a75d522b39400f90620000be9060019062000325565b60408051918290038220828201825260058352640312e302e360dc1b6020938401528151928301939093528101919091527f06c015bd22b4c69690933c1058878ebdfef31f9aaae40bbe86d8a09fe1b2972c6060820152608081018290523060a082015260c00160408051601f198184030181529190528051602090910120608052506200041b92505050565b8280546200015990620003c8565b90600052602060002090601f0160209004810192826200017d5760008555620001c8565b82601f106200019857805160ff1916838001178555620001c8565b82800160010185558215620001c8579182015b82811115620001c8578251825591602001919060010190620001ab565b50620001d6929150620001da565b5090565b5b80821115620001d65760008155600101620001db565b600082601f83011262000202578081fd5b81516001600160401b03808211156200021f576200021f62000405565b604051601f8301601f19908116603f011681019082821181831017156200024a576200024a62000405565b8160405283815260209250868385880101111562000266578485fd5b8491505b838210156200028957858201830151818301840152908201906200026a565b838211156200029a57848385830101525b9695505050505050565b600080600060608486031215620002b9578283fd5b83516001600160401b0380821115620002d0578485fd5b620002de87838801620001f1565b94506020860151915080821115620002f4578384fd5b506200030386828701620001f1565b925050604084015160ff811681146200031a578182fd5b809150509250925092565b600080835482600182811c9150808316806200034257607f831692505b60208084108214156200036357634e487b7160e01b87526022600452602487fd5b8180156200037a57600181146200038c57620003ba565b60ff19861689528489019650620003ba565b60008a815260209020885b86811015620003b25781548b82015290850190830162000397565b505084890196505b509498975050505050505050565b600181811c90821680620003dd57607f821691505b60208210811415620003ff57634e487b7160e01b600052602260045260246000fd5b50919050565b634e487b7160e01b600052604160045260246000fd5b608051610a8d6200043e600039600081816101a501526104fb0152610a8d6000f3fe608060405234801561001057600080fd5b50600436106100ea5760003560e01c806354fd4d501161008c57806395d89b411161006657806395d89b411461024c578063a9059cbb14610254578063d505accf14610267578063dd62ed3e1461027c57600080fd5b806354fd4d50146101c757806370a08231146102035780637ecebe001461022c57600080fd5b806323b872dd116100c857806323b872dd1461014757806330adf81f1461015a578063313ce567146101815780633644e515146101a057600080fd5b806306fdde03146100ef578063095ea7b31461010d57806318160ddd14610130575b600080fd5b6100f76102b5565b60405161010491906109a5565b60405180910390f35b61012061011b36600461097c565b610343565b6040519015158152602001610104565b61013960045481565b604051908152602001610104565b6101206101553660046108d0565b610359565b6101397f6e71edae12b1b97f4d1f60370fef10105fa2faae0126114a169c64845d6126c981565b60035461018e9060ff1681565b60405160ff9091168152602001610104565b6101397f000000000000000000000000000000000000000000000000000000000000000081565b6100f76040518060400160405280600581526020017f312e302e3000000000000000000000000000000000000000000000000000000081525081565b61013961021136600461087d565b6001600160a01b031660009081526005602052604090205490565b61013961023a36600461087d565b60076020526000908152604090205481565b6100f76103d2565b61012061026236600461097c565b6103df565b61027a61027536600461090b565b6103ec565b005b61013961028a36600461089e565b6001600160a01b03918216600090815260066020908152604080832093909416825291909152205490565b600180546102c290610a1c565b80601f01602080910402602001604051908101604052809291908181526020018280546102ee90610a1c565b801561033b5780601f106103105761010080835404028352916020019161033b565b820191906000526020600020905b81548152906001019060200180831161031e57829003601f168201915b505050505081565b600061035033848461068f565b50600192915050565b600061036684848461073e565b6001600160a01b0384166000908152600660209081526040808320338452909152902054828110156103ba576040516310c6013560e31b815260048101829052602481018490526044015b60405180910390fd5b6103c7853385840361068f565b506001949350505050565b600280546102c290610a1c565b600061035033848461073e565b6001600160a01b03871661041357604051639a321bc760e01b815260040160405180910390fd5b6001600160a01b03861661043a576040516353fbd1d760e01b815260040160405180910390fd5b428410156104645760405163075dd20f60e41b8152426004820152602481018590526044016103b1565b6001600160a01b0387811660008181526007602090815260408083208054600180820190925582517f6e71edae12b1b97f4d1f60370fef10105fa2faae0126114a169c64845d6126c98186015280840196909652958c166060860152608085018b905260a085019590955260c08085018a90528151808603909101815260e08501825280519083012061190160f01b6101008601527f000000000000000000000000000000000000000000000000000000000000000061010286015261012280860182905282518087039091018152610142860180845281519185019190912090859052610162860180845281905260ff8a166101828701526101a286018990526101c2860188905291519095919491926101e2808401939192601f1981019281900390910190855afa15801561059f573d6000803e3d6000fd5b5050604051601f1901519150506001600160a01b0381166105d357604051637386dbbb60e11b815260040160405180910390fd5b896001600160a01b0316816001600160a01b0316146106275760405163a1d5f2ed60e01b81526001600160a01b038b16600482015260ff8716602482015260448101869052606481018590526084016103b1565b6001600160a01b038a81166000818152600660209081526040808320948e16808452948252918290208c905590518b81527f8c5be1e5ebec7d5bd14f71427d1e84f3dd0314c0f7b2291e5b200ac8c7c3b925910160405180910390a350505050505050505050565b6001600160a01b0383166106b6576040516317ba2d8b60e11b815260040160405180910390fd5b6001600160a01b0382166106dd57604051632cc8a69760e11b815260040160405180910390fd5b6001600160a01b0383811660008181526006602090815260408083209487168084529482529182902085905590518481527f8c5be1e5ebec7d5bd14f71427d1e84f3dd0314c0f7b2291e5b200ac8c7c3b925910160405180910390a3505050565b6001600160a01b0383166107655760405163618a6e7d60e11b815260040160405180910390fd5b6001600160a01b03821661078c5760405163446ebce960e01b815260040160405180910390fd5b6001600160a01b038316600090815260056020526040902054818110156107d05760405163355a868d60e01b815260048101829052602481018390526044016103b1565b6001600160a01b038085166000908152600560205260408082208585039055918516815290812080548492906108079084906109f8565b92505081905550826001600160a01b0316846001600160a01b03167fddf252ad1be2c89b69c2b068fc378daa952ba7f163c4a11628f55a4df523b3ef8460405161085391815260200190565b60405180910390a350505050565b80356001600160a01b038116811461087857600080fd5b919050565b60006020828403121561088e578081fd5b61089782610861565b9392505050565b600080604083850312156108b0578081fd5b6108b983610861565b91506108c760208401610861565b90509250929050565b6000806000606084860312156108e4578081fd5b6108ed84610861565b92506108fb60208501610861565b9150604084013590509250925092565b600080600080600080600060e0888a031215610925578283fd5b61092e88610861565b965061093c60208901610861565b95506040880135945060608801359350608088013560ff8116811461095f578384fd5b9699959850939692959460a0840135945060c09093013592915050565b6000806040838503121561098e578182fd5b61099783610861565b946020939093013593505050565b6000602080835283518082850152825b818110156109d1578581018301518582016040015282016109b5565b818111156109e25783604083870101525b50601f01601f1916929092016040019392505050565b60008219821115610a1757634e487b7160e01b81526011600452602481fd5b500190565b600181811c90821680610a3057607f821691505b60208210811415610a5157634e487b7160e01b600052602260045260246000fd5b5091905056fea2646970667358221220ea280f4f3fec2b93cb2c264e8b5fad8be1012b077ca800efc430bfffa5939c5c64736f6c63430008040033",
  "linkReferences": {},
  "deployedLinkReferences": {}
}