{
  "_format": "hh-sol-artifact-1",
  "contractName": "Erc20Permit",
  "sourceName": "contracts/cygnus-core/Erc20Permit.sol",
  "abi": [
    {
      "inputs": [
        {
          "internalType": "string",
          "name": "_name",
          "type": "string"
        },
        {
          "internalType": "string",
          "name": "_symbol",
          "type": "string"
        },
        {
          "internalType": "uint8",
          "name": "_decimals",
          "type": "uint8"
        }
      ],
      "stateMutability": "nonpayable",
      "type": "constructor"
    },
    {
      "inputs": [
        {
          "internalType": "uint8",
          "name": "v",
          "type": "uint8"
        },
        {
          "internalType": "bytes32",
          "name": "r",
          "type": "bytes32"
        },
        {
          "internalType": "bytes32",
          "name": "s",
          "type": "bytes32"
        }
      ],
      "name": "Erc20Permit__InvalidSignature",
      "type": "error"
    },
    {
      "inputs": [],
      "name": "Erc20Permit__OwnerZeroAddress",
      "type": "error"
    },
    {
      "inputs": [
        {
          "internalType": "uint256",
          "name": "deadline",
          "type": "uint256"
        }
      ],
      "name": "Erc20Permit__PermitExpired",
      "type": "error"
    },
    {
      "inputs": [],
      "name": "Erc20Permit__RecoveredOwnerZeroAddress",
      "type": "error"
    },
    {
      "inputs": [],
      "name": "Erc20Permit__SpenderZeroAddress",
      "type": "error"
    },
    {
      "inputs": [],
      "name": "Erc20__ApproveOwnerZeroAddress",
      "type": "error"
    },
    {
      "inputs": [],
      "name": "Erc20__ApproveSpenderZeroAddress",
      "type": "error"
    },
    {
      "inputs": [
        {
          "internalType": "uint256",
          "name": "accountBalance",
          "type": "uint256"
        },
        {
          "internalType": "uint256",
          "name": "burnAmount",
          "type": "uint256"
        }
      ],
      "name": "Erc20__BurnUnderflow",
      "type": "error"
    },
    {
      "inputs": [],
      "name": "Erc20__BurnZeroAddress",
      "type": "error"
    },
    {
      "inputs": [
        {
          "internalType": "uint256",
          "name": "allowance",
          "type": "uint256"
        },
        {
          "internalType": "uint256",
          "name": "amount",
          "type": "uint256"
        }
      ],
      "name": "Erc20__InsufficientAllowance",
      "type": "error"
    },
    {
      "inputs": [
        {
          "internalType": "uint256",
          "name": "senderBalance",
          "type": "uint256"
        },
        {
          "internalType": "uint256",
          "name": "amount",
          "type": "uint256"
        }
      ],
      "name": "Erc20__InsufficientBalance",
      "type": "error"
    },
    {
      "inputs": [],
      "name": "Erc20__MintZeroAddress",
      "type": "error"
    },
    {
      "inputs": [],
      "name": "Erc20__TransferRecipientZeroAddress",
      "type": "error"
    },
    {
      "inputs": [],
      "name": "Erc20__TransferSenderZeroAddress",
      "type": "error"
    },
    {
      "inputs": [],
      "name": "ReentrantCall",
      "type": "error"
    },
    {
      "anonymous": false,
      "inputs": [
        {
          "indexed": true,
          "internalType": "address",
          "name": "owner",
          "type": "address"
        },
        {
          "indexed": true,
          "internalType": "address",
          "name": "spender",
          "type": "address"
        },
        {
          "indexed": false,
          "internalType": "uint256",
          "name": "amount",
          "type": "uint256"
        }
      ],
      "name": "Approval",
      "type": "event"
    },
    {
      "anonymous": false,
      "inputs": [
        {
          "indexed": true,
          "internalType": "address",
          "name": "from",
          "type": "address"
        },
        {
          "indexed": true,
          "internalType": "address",
          "name": "to",
          "type": "address"
        },
        {
          "indexed": false,
          "internalType": "uint256",
          "name": "amount",
          "type": "uint256"
        }
      ],
      "name": "Transfer",
      "type": "event"
    },
    {
      "inputs": [],
      "name": "DOMAIN_SEPARATOR",
      "outputs": [
        {
          "internalType": "bytes32",
          "name": "",
          "type": "bytes32"
        }
      ],
      "stateMutability": "view",
      "type": "function"
    },
    {
      "inputs": [],
      "name": "PERMIT_TYPEHASH",
      "outputs": [
        {
          "internalType": "bytes32",
          "name": "",
          "type": "bytes32"
        }
      ],
      "stateMutability": "view",
      "type": "function"
    },
    {
      "inputs": [
        {
          "internalType": "address",
          "name": "owner",
          "type": "address"
        },
        {
          "internalType": "address",
          "name": "spender",
          "type": "address"
        }
      ],
      "name": "allowance",
      "outputs": [
        {
          "internalType": "uint256",
          "name": "",
          "type": "uint256"
        }
      ],
      "stateMutability": "view",
      "type": "function"
    },
    {
      "inputs": [
        {
          "internalType": "address",
          "name": "spender",
          "type": "address"
        },
        {
          "internalType": "uint256",
          "name": "amount",
          "type": "uint256"
        }
      ],
      "name": "approve",
      "outputs": [
        {
          "internalType": "bool",
          "name": "",
          "type": "bool"
        }
      ],
      "stateMutability": "nonpayable",
      "type": "function"
    },
    {
      "inputs": [
        {
          "internalType": "address",
          "name": "account",
          "type": "address"
        }
      ],
      "name": "balanceOf",
      "outputs": [
        {
          "internalType": "uint256",
          "name": "",
          "type": "uint256"
        }
      ],
      "stateMutability": "view",
      "type": "function"
    },
    {
      "inputs": [],
      "name": "chainId",
      "outputs": [
        {
          "internalType": "uint256",
          "name": "",
          "type": "uint256"
        }
      ],
      "stateMutability": "view",
      "type": "function"
    },
    {
      "inputs": [],
      "name": "decimals",
      "outputs": [
        {
          "internalType": "uint8",
          "name": "",
          "type": "uint8"
        }
      ],
      "stateMutability": "view",
      "type": "function"
    },
    {
      "inputs": [
        {
          "internalType": "address",
          "name": "spender",
          "type": "address"
        },
        {
          "internalType": "uint256",
          "name": "subtractedAmount",
          "type": "uint256"
        }
      ],
      "name": "decreaseAllowance",
      "outputs": [
        {
          "internalType": "bool",
          "name": "",
          "type": "bool"
        }
      ],
      "stateMutability": "nonpayable",
      "type": "function"
    },
    {
      "inputs": [
        {
          "internalType": "address",
          "name": "spender",
          "type": "address"
        },
        {
          "internalType": "uint256",
          "name": "addedAmount",
          "type": "uint256"
        }
      ],
      "name": "increaseAllowance",
      "outputs": [
        {
          "internalType": "bool",
          "name": "",
          "type": "bool"
        }
      ],
      "stateMutability": "nonpayable",
      "type": "function"
    },
    {
      "inputs": [],
      "name": "name",
      "outputs": [
        {
          "internalType": "string",
          "name": "",
          "type": "string"
        }
      ],
      "stateMutability": "view",
      "type": "function"
    },
    {
      "inputs": [
        {
          "internalType": "address",
          "name": "",
          "type": "address"
        }
      ],
      "name": "nonces",
      "outputs": [
        {
          "internalType": "uint256",
          "name": "",
          "type": "uint256"
        }
      ],
      "stateMutability": "view",
      "type": "function"
    },
    {
      "inputs": [
        {
          "internalType": "address",
          "name": "owner",
          "type": "address"
        },
        {
          "internalType": "address",
          "name": "spender",
          "type": "address"
        },
        {
          "internalType": "uint256",
          "name": "value",
          "type": "uint256"
        },
        {
          "internalType": "uint256",
          "name": "deadline",
          "type": "uint256"
        },
        {
          "internalType": "uint8",
          "name": "v",
          "type": "uint8"
        },
        {
          "internalType": "bytes32",
          "name": "r",
          "type": "bytes32"
        },
        {
          "internalType": "bytes32",
          "name": "s",
          "type": "bytes32"
        }
      ],
      "name": "permit",
      "outputs": [],
      "stateMutability": "nonpayable",
      "type": "function"
    },
    {
      "inputs": [],
      "name": "symbol",
      "outputs": [
        {
          "internalType": "string",
          "name": "",
          "type": "string"
        }
      ],
      "stateMutability": "view",
      "type": "function"
    },
    {
      "inputs": [],
      "name": "totalSupply",
      "outputs": [
        {
          "internalType": "uint256",
          "name": "",
          "type": "uint256"
        }
      ],
      "stateMutability": "view",
      "type": "function"
    },
    {
      "inputs": [
        {
          "internalType": "address",
          "name": "recipient",
          "type": "address"
        },
        {
          "internalType": "uint256",
          "name": "amount",
          "type": "uint256"
        }
      ],
      "name": "transfer",
      "outputs": [
        {
          "internalType": "bool",
          "name": "",
          "type": "bool"
        }
      ],
      "stateMutability": "nonpayable",
      "type": "function"
    },
    {
      "inputs": [
        {
          "internalType": "address",
          "name": "sender",
          "type": "address"
        },
        {
          "internalType": "address",
          "name": "recipient",
          "type": "address"
        },
        {
          "internalType": "uint256",
          "name": "amount",
          "type": "uint256"
        }
      ],
      "name": "transferFrom",
      "outputs": [
        {
          "internalType": "bool",
          "name": "",
          "type": "bool"
        }
      ],
      "stateMutability": "nonpayable",
      "type": "function"
    },
    {
      "inputs": [],
      "name": "version",
      "outputs": [
        {
          "internalType": "string",
          "name": "",
          "type": "string"
        }
      ],
      "stateMutability": "view",
      "type": "function"
    }
  ],
  "bytecode": "0x60c0604052466007553480156200001557600080fd5b5060405162000f7d38038062000f7d8339810160408190526200003891620002b7565b6000805460ff191660019081179091558351849184918491620000609160208601906200015e565b508151620000769060029060208501906200015e565b5060f81b7fff000000000000000000000000000000000000000000000000000000000000001660805250506040517f8b73c3c69bb8fe3d512ecc4cf759cc79239f7b179b0ffacaa9a75d522b39400f90620000d49060019062000338565b60408051918290038220828201825260018352603160f81b602093840152600754825193840194909452908201527fc89efdaa54c0f20c7adf612882df0950f5a951637e0307cdcb4c672f298b8bc6606082015260808101919091523060a082015260c00160408051601f19818403018152919052805160209091012060a052506200042e915050565b8280546200016c90620003db565b90600052602060002090601f016020900481019282620001905760008555620001db565b82601f10620001ab57805160ff1916838001178555620001db565b82800160010185558215620001db579182015b82811115620001db578251825591602001919060010190620001be565b50620001e9929150620001ed565b5090565b5b80821115620001e95760008155600101620001ee565b600082601f83011262000215578081fd5b81516001600160401b038082111562000232576200023262000418565b604051601f8301601f19908116603f011681019082821181831017156200025d576200025d62000418565b8160405283815260209250868385880101111562000279578485fd5b8491505b838210156200029c57858201830151818301840152908201906200027d565b83821115620002ad57848385830101525b9695505050505050565b600080600060608486031215620002cc578283fd5b83516001600160401b0380821115620002e3578485fd5b620002f18783880162000204565b9450602086015191508082111562000307578384fd5b50620003168682870162000204565b925050604084015160ff811681146200032d578182fd5b809150509250925092565b600080835482600182811c9150808316806200035557607f831692505b60208084108214156200037657634e487b7160e01b87526022600452602487fd5b8180156200038d57600181146200039f57620003cd565b60ff19861689528489019650620003cd565b60008a815260209020885b86811015620003c55781548b820152908501908301620003aa565b505084890196505b509498975050505050505050565b600181811c90821680620003f057607f821691505b602082108114156200041257634e487b7160e01b600052602260045260246000fd5b50919050565b634e487b7160e01b600052604160045260246000fd5b60805160f81c60a051610b1f6200045e600039600081816101f001526105cc015260006101b70152610b1f6000f3fe608060405234801561001057600080fd5b506004361061011b5760003560e01c806354fd4d50116100b25780639a8a059211610081578063a9059cbb11610066578063a9059cbb146102b2578063d505accf146102c5578063dd62ed3e146102da57600080fd5b80639a8a059214610296578063a457c2d71461029f57600080fd5b806354fd4d501461022557806370a08231146102455780637ecebe001461026e57806395d89b411461028e57600080fd5b806330adf81f116100ee57806330adf81f1461018b578063313ce567146101b25780633644e515146101eb578063395093511461021257600080fd5b806306fdde0314610120578063095ea7b31461013e57806318160ddd1461016157806323b872dd14610178575b600080fd5b610128610313565b6040516101359190610a16565b60405180910390f35b61015161014c3660046109ed565b6103a1565b6040519015158152602001610135565b61016a60035481565b604051908152602001610135565b610151610186366004610941565b6103b7565b61016a7f6e71edae12b1b97f4d1f60370fef10105fa2faae0126114a169c64845d6126c981565b6101d97f000000000000000000000000000000000000000000000000000000000000000081565b60405160ff9091168152602001610135565b61016a7f000000000000000000000000000000000000000000000000000000000000000081565b6101516102203660046109ed565b610430565b610128604051806040016040528060018152602001603160f81b81525081565b61016a6102533660046108ee565b6001600160a01b031660009081526004602052604090205490565b61016a61027c3660046108ee565b60066020526000908152604090205481565b610128610478565b61016a60075481565b6101516102ad3660046109ed565b610485565b6101516102c03660046109ed565b6104b6565b6102d86102d336600461097c565b6104c3565b005b61016a6102e836600461090f565b6001600160a01b03918216600090815260056020908152604080832093909416825291909152205490565b6001805461032090610a98565b80601f016020809104026020016040519081016040528092919081815260200182805461034c90610a98565b80156103995780601f1061036e57610100808354040283529160200191610399565b820191906000526020600020905b81548152906001019060200180831161037c57829003601f168201915b505050505081565b60006103ae338484610700565b50600192915050565b60006103c48484846107af565b6001600160a01b03841660009081526005602090815260408083203384529091529020548281101561041857604051632b3ca6f360e11b815260048101829052602481018490526044015b60405180910390fd5b6104258533858403610700565b506001949350505050565b3360009081526005602090815260408083206001600160a01b03861684529091528120548190610461908490610a69565b905061046e338583610700565b5060019392505050565b6002805461032090610a98565b3360009081526005602090815260408083206001600160a01b03861684529091528120548190610461908490610a81565b60006103ae3384846107af565b6001600160a01b0387166104ea5760405163bc622b6360e01b815260040160405180910390fd5b6001600160a01b03861661051157604051632853494b60e11b815260040160405180910390fd5b428410156105355760405163212ed8bb60e11b81526004810185905260240161040f565b6001600160a01b0387811660008181526006602090815260408083208054600180820190925582517f6e71edae12b1b97f4d1f60370fef10105fa2faae0126114a169c64845d6126c98186015280840196909652958c166060860152608085018b905260a085019590955260c08085018a90528151808603909101815260e08501825280519083012061190160f01b6101008601527f000000000000000000000000000000000000000000000000000000000000000061010286015261012280860182905282518087039091018152610142860180845281519185019190912090859052610162860180845281905260ff8a166101828701526101a286018990526101c2860188905291519095919491926101e2808401939192601f1981019281900390910190855afa158015610670573d6000803e3d6000fd5b5050604051601f1901519150506001600160a01b0381166106a457604051630f81234f60e31b815260040160405180910390fd5b896001600160a01b0316816001600160a01b0316146106e957604051630b76193960e31b815260ff87166004820152602481018690526044810185905260640161040f565b6106f48a8a8a610700565b50505050505050505050565b6001600160a01b0383166107275760405163230326bf60e11b815260040160405180910390fd5b6001600160a01b03821661074e57604051630b39ecd960e21b815260040160405180910390fd5b6001600160a01b0383811660008181526005602090815260408083209487168084529482529182902085905590518481527f8c5be1e5ebec7d5bd14f71427d1e84f3dd0314c0f7b2291e5b200ac8c7c3b925910160405180910390a3505050565b6001600160a01b0383166107d65760405163907bfbd760e01b815260040160405180910390fd5b6001600160a01b0382166107fd57604051637184c13f60e01b815260040160405180910390fd5b6001600160a01b0383166000908152600460205260409020548181101561084157604051632dcf2e2160e21b8152600481018290526024810183905260440161040f565b6001600160a01b03808516600090815260046020526040808220858503905591851681529081208054849290610878908490610a69565b92505081905550826001600160a01b0316846001600160a01b03167fddf252ad1be2c89b69c2b068fc378daa952ba7f163c4a11628f55a4df523b3ef846040516108c491815260200190565b60405180910390a350505050565b80356001600160a01b03811681146108e957600080fd5b919050565b6000602082840312156108ff578081fd5b610908826108d2565b9392505050565b60008060408385031215610921578081fd5b61092a836108d2565b9150610938602084016108d2565b90509250929050565b600080600060608486031215610955578081fd5b61095e846108d2565b925061096c602085016108d2565b9150604084013590509250925092565b600080600080600080600060e0888a031215610996578283fd5b61099f886108d2565b96506109ad602089016108d2565b95506040880135945060608801359350608088013560ff811681146109d0578384fd5b9699959850939692959460a0840135945060c09093013592915050565b600080604083850312156109ff578182fd5b610a08836108d2565b946020939093013593505050565b6000602080835283518082850152825b81811015610a4257858101830151858201604001528201610a26565b81811115610a535783604083870101525b50601f01601f1916929092016040019392505050565b60008219821115610a7c57610a7c610ad3565b500190565b600082821015610a9357610a93610ad3565b500390565b600181811c90821680610aac57607f821691505b60208210811415610acd57634e487b7160e01b600052602260045260246000fd5b50919050565b634e487b7160e01b600052601160045260246000fdfea26469706673582212208a7f01bfb59e017df9db8f656aba8fbce966ad21a6e42d2ce9721fafd703e50864736f6c63430008040033",
  "linkReferences": {},
  "deployedLinkReferences": {}
}