{
  "_format": "hh-sol-artifact-1",
  "contractName": "Erc20Permit",
  "sourceName": "contracts/cygnus-core/Erc20Permit.sol",
  "abi": [
    {
      "inputs": [
        {
          "internalType": "string",
          "name": "_name",
          "type": "string"
        },
        {
          "internalType": "string",
          "name": "_symbol",
          "type": "string"
        },
        {
          "internalType": "uint8",
          "name": "_decimals",
          "type": "uint8"
        }
      ],
      "stateMutability": "nonpayable",
      "type": "constructor"
    },
    {
      "inputs": [
        {
          "internalType": "uint8",
          "name": "v",
          "type": "uint8"
        },
        {
          "internalType": "bytes32",
          "name": "r",
          "type": "bytes32"
        },
        {
          "internalType": "bytes32",
          "name": "s",
          "type": "bytes32"
        }
      ],
      "name": "Erc20Permit__InvalidSignature",
      "type": "error"
    },
    {
      "inputs": [],
      "name": "Erc20Permit__OwnerZeroAddress",
      "type": "error"
    },
    {
      "inputs": [
        {
          "internalType": "uint256",
          "name": "deadline",
          "type": "uint256"
        }
      ],
      "name": "Erc20Permit__PermitExpired",
      "type": "error"
    },
    {
      "inputs": [],
      "name": "Erc20Permit__RecoveredOwnerZeroAddress",
      "type": "error"
    },
    {
      "inputs": [],
      "name": "Erc20Permit__SpenderZeroAddress",
      "type": "error"
    },
    {
      "inputs": [],
      "name": "Erc20__ApproveOwnerZeroAddress",
      "type": "error"
    },
    {
      "inputs": [],
      "name": "Erc20__ApproveSpenderZeroAddress",
      "type": "error"
    },
    {
      "inputs": [
        {
          "internalType": "uint256",
          "name": "accountBalance",
          "type": "uint256"
        },
        {
          "internalType": "uint256",
          "name": "burnAmount",
          "type": "uint256"
        }
      ],
      "name": "Erc20__BurnUnderflow",
      "type": "error"
    },
    {
      "inputs": [],
      "name": "Erc20__BurnZeroAddress",
      "type": "error"
    },
    {
      "inputs": [
        {
          "internalType": "uint256",
          "name": "allowance",
          "type": "uint256"
        },
        {
          "internalType": "uint256",
          "name": "amount",
          "type": "uint256"
        }
      ],
      "name": "Erc20__InsufficientAllowance",
      "type": "error"
    },
    {
      "inputs": [
        {
          "internalType": "uint256",
          "name": "senderBalance",
          "type": "uint256"
        },
        {
          "internalType": "uint256",
          "name": "amount",
          "type": "uint256"
        }
      ],
      "name": "Erc20__InsufficientBalance",
      "type": "error"
    },
    {
      "inputs": [],
      "name": "Erc20__MintZeroAddress",
      "type": "error"
    },
    {
      "inputs": [],
      "name": "Erc20__TransferRecipientZeroAddress",
      "type": "error"
    },
    {
      "inputs": [],
      "name": "Erc20__TransferSenderZeroAddress",
      "type": "error"
    },
    {
      "inputs": [],
      "name": "ReentrantCall",
      "type": "error"
    },
    {
      "anonymous": false,
      "inputs": [
        {
          "indexed": true,
          "internalType": "address",
          "name": "owner",
          "type": "address"
        },
        {
          "indexed": true,
          "internalType": "address",
          "name": "spender",
          "type": "address"
        },
        {
          "indexed": false,
          "internalType": "uint256",
          "name": "amount",
          "type": "uint256"
        }
      ],
      "name": "Approval",
      "type": "event"
    },
    {
      "anonymous": false,
      "inputs": [
        {
          "indexed": true,
          "internalType": "address",
          "name": "from",
          "type": "address"
        },
        {
          "indexed": true,
          "internalType": "address",
          "name": "to",
          "type": "address"
        },
        {
          "indexed": false,
          "internalType": "uint256",
          "name": "amount",
          "type": "uint256"
        }
      ],
      "name": "Transfer",
      "type": "event"
    },
    {
      "inputs": [],
      "name": "DOMAIN_SEPARATOR",
      "outputs": [
        {
          "internalType": "bytes32",
          "name": "",
          "type": "bytes32"
        }
      ],
      "stateMutability": "view",
      "type": "function"
    },
    {
      "inputs": [],
      "name": "PERMIT_TYPEHASH",
      "outputs": [
        {
          "internalType": "bytes32",
          "name": "",
          "type": "bytes32"
        }
      ],
      "stateMutability": "view",
      "type": "function"
    },
    {
      "inputs": [
        {
          "internalType": "address",
          "name": "owner",
          "type": "address"
        },
        {
          "internalType": "address",
          "name": "spender",
          "type": "address"
        }
      ],
      "name": "allowance",
      "outputs": [
        {
          "internalType": "uint256",
          "name": "",
          "type": "uint256"
        }
      ],
      "stateMutability": "view",
      "type": "function"
    },
    {
      "inputs": [
        {
          "internalType": "address",
          "name": "spender",
          "type": "address"
        },
        {
          "internalType": "uint256",
          "name": "amount",
          "type": "uint256"
        }
      ],
      "name": "approve",
      "outputs": [
        {
          "internalType": "bool",
          "name": "",
          "type": "bool"
        }
      ],
      "stateMutability": "nonpayable",
      "type": "function"
    },
    {
      "inputs": [
        {
          "internalType": "address",
          "name": "account",
          "type": "address"
        }
      ],
      "name": "balanceOf",
      "outputs": [
        {
          "internalType": "uint256",
          "name": "",
          "type": "uint256"
        }
      ],
      "stateMutability": "view",
      "type": "function"
    },
    {
      "inputs": [],
      "name": "chainId",
      "outputs": [
        {
          "internalType": "uint256",
          "name": "",
          "type": "uint256"
        }
      ],
      "stateMutability": "view",
      "type": "function"
    },
    {
      "inputs": [],
      "name": "decimals",
      "outputs": [
        {
          "internalType": "uint8",
          "name": "",
          "type": "uint8"
        }
      ],
      "stateMutability": "view",
      "type": "function"
    },
    {
      "inputs": [
        {
          "internalType": "address",
          "name": "spender",
          "type": "address"
        },
        {
          "internalType": "uint256",
          "name": "subtractedAmount",
          "type": "uint256"
        }
      ],
      "name": "decreaseAllowance",
      "outputs": [
        {
          "internalType": "bool",
          "name": "",
          "type": "bool"
        }
      ],
      "stateMutability": "nonpayable",
      "type": "function"
    },
    {
      "inputs": [
        {
          "internalType": "address",
          "name": "spender",
          "type": "address"
        },
        {
          "internalType": "uint256",
          "name": "addedAmount",
          "type": "uint256"
        }
      ],
      "name": "increaseAllowance",
      "outputs": [
        {
          "internalType": "bool",
          "name": "",
          "type": "bool"
        }
      ],
      "stateMutability": "nonpayable",
      "type": "function"
    },
    {
      "inputs": [],
      "name": "name",
      "outputs": [
        {
          "internalType": "string",
          "name": "",
          "type": "string"
        }
      ],
      "stateMutability": "view",
      "type": "function"
    },
    {
      "inputs": [
        {
          "internalType": "address",
          "name": "",
          "type": "address"
        }
      ],
      "name": "nonces",
      "outputs": [
        {
          "internalType": "uint256",
          "name": "",
          "type": "uint256"
        }
      ],
      "stateMutability": "view",
      "type": "function"
    },
    {
      "inputs": [
        {
          "internalType": "address",
          "name": "owner",
          "type": "address"
        },
        {
          "internalType": "address",
          "name": "spender",
          "type": "address"
        },
        {
          "internalType": "uint256",
          "name": "value",
          "type": "uint256"
        },
        {
          "internalType": "uint256",
          "name": "deadline",
          "type": "uint256"
        },
        {
          "internalType": "uint8",
          "name": "v",
          "type": "uint8"
        },
        {
          "internalType": "bytes32",
          "name": "r",
          "type": "bytes32"
        },
        {
          "internalType": "bytes32",
          "name": "s",
          "type": "bytes32"
        }
      ],
      "name": "permit",
      "outputs": [],
      "stateMutability": "nonpayable",
      "type": "function"
    },
    {
      "inputs": [],
      "name": "symbol",
      "outputs": [
        {
          "internalType": "string",
          "name": "",
          "type": "string"
        }
      ],
      "stateMutability": "view",
      "type": "function"
    },
    {
      "inputs": [],
      "name": "totalSupply",
      "outputs": [
        {
          "internalType": "uint256",
          "name": "",
          "type": "uint256"
        }
      ],
      "stateMutability": "view",
      "type": "function"
    },
    {
      "inputs": [
        {
          "internalType": "address",
          "name": "recipient",
          "type": "address"
        },
        {
          "internalType": "uint256",
          "name": "amount",
          "type": "uint256"
        }
      ],
      "name": "transfer",
      "outputs": [
        {
          "internalType": "bool",
          "name": "",
          "type": "bool"
        }
      ],
      "stateMutability": "nonpayable",
      "type": "function"
    },
    {
      "inputs": [
        {
          "internalType": "address",
          "name": "sender",
          "type": "address"
        },
        {
          "internalType": "address",
          "name": "recipient",
          "type": "address"
        },
        {
          "internalType": "uint256",
          "name": "amount",
          "type": "uint256"
        }
      ],
      "name": "transferFrom",
      "outputs": [
        {
          "internalType": "bool",
          "name": "",
          "type": "bool"
        }
      ],
      "stateMutability": "nonpayable",
      "type": "function"
    },
    {
      "inputs": [],
      "name": "version",
      "outputs": [
        {
          "internalType": "string",
          "name": "",
          "type": "string"
        }
      ],
      "stateMutability": "view",
      "type": "function"
    }
  ],
  "bytecode": "0x60c0604052466007553480156200001557600080fd5b5060405162000f6d38038062000f6d8339810160408190526200003891620002b7565b6000805460ff191660019081179091558351849184918491620000609160208601906200015e565b508151620000769060029060208501906200015e565b5060f81b7fff000000000000000000000000000000000000000000000000000000000000001660805250506040517f8b73c3c69bb8fe3d512ecc4cf759cc79239f7b179b0ffacaa9a75d522b39400f90620000d49060019062000338565b60408051918290038220828201825260018352603160f81b602093840152600754825193840194909452908201527fc89efdaa54c0f20c7adf612882df0950f5a951637e0307cdcb4c672f298b8bc6606082015260808101919091523060a082015260c00160408051601f19818403018152919052805160209091012060a052506200042e915050565b8280546200016c90620003db565b90600052602060002090601f016020900481019282620001905760008555620001db565b82601f10620001ab57805160ff1916838001178555620001db565b82800160010185558215620001db579182015b82811115620001db578251825591602001919060010190620001be565b50620001e9929150620001ed565b5090565b5b80821115620001e95760008155600101620001ee565b600082601f83011262000215578081fd5b81516001600160401b038082111562000232576200023262000418565b604051601f8301601f19908116603f011681019082821181831017156200025d576200025d62000418565b8160405283815260209250868385880101111562000279578485fd5b8491505b838210156200029c57858201830151818301840152908201906200027d565b83821115620002ad57848385830101525b9695505050505050565b600080600060608486031215620002cc578283fd5b83516001600160401b0380821115620002e3578485fd5b620002f18783880162000204565b9450602086015191508082111562000307578384fd5b50620003168682870162000204565b925050604084015160ff811681146200032d578182fd5b809150509250925092565b600080835482600182811c9150808316806200035557607f831692505b60208084108214156200037657634e487b7160e01b87526022600452602487fd5b8180156200038d57600181146200039f57620003cd565b60ff19861689528489019650620003cd565b60008a815260209020885b86811015620003c55781548b820152908501908301620003aa565b505084890196505b509498975050505050505050565b600181811c90821680620003f057607f821691505b602082108114156200041257634e487b7160e01b600052602260045260246000fd5b50919050565b634e487b7160e01b600052604160045260246000fd5b60805160f81c60a051610b0f6200045e600039600081816101e001526105bc015260006101a70152610b0f6000f3fe608060405234801561001057600080fd5b506004361061010b5760003560e01c806354fd4d50116100a25780639a8a0592116100715780639a8a059214610286578063a457c2d71461028f578063a9059cbb146102a2578063d505accf146102b5578063dd62ed3e146102ca57600080fd5b806354fd4d501461021557806370a08231146102355780637ecebe001461025e57806395d89b411461027e57600080fd5b806330adf81f116100de57806330adf81f1461017b578063313ce567146101a25780633644e515146101db578063395093511461020257600080fd5b806306fdde0314610110578063095ea7b31461012e57806318160ddd1461015157806323b872dd14610168575b600080fd5b610118610303565b6040516101259190610a06565b60405180910390f35b61014161013c3660046109dd565b610391565b6040519015158152602001610125565b61015a60035481565b604051908152602001610125565b610141610176366004610931565b6103a7565b61015a7f6e71edae12b1b97f4d1f60370fef10105fa2faae0126114a169c64845d6126c981565b6101c97f000000000000000000000000000000000000000000000000000000000000000081565b60405160ff9091168152602001610125565b61015a7f000000000000000000000000000000000000000000000000000000000000000081565b6101416102103660046109dd565b610420565b610118604051806040016040528060018152602001603160f81b81525081565b61015a6102433660046108de565b6001600160a01b031660009081526004602052604090205490565b61015a61026c3660046108de565b60066020526000908152604090205481565b610118610468565b61015a60075481565b61014161029d3660046109dd565b610475565b6101416102b03660046109dd565b6104a6565b6102c86102c336600461096c565b6104b3565b005b61015a6102d83660046108ff565b6001600160a01b03918216600090815260056020908152604080832093909416825291909152205490565b6001805461031090610a88565b80601f016020809104026020016040519081016040528092919081815260200182805461033c90610a88565b80156103895780601f1061035e57610100808354040283529160200191610389565b820191906000526020600020905b81548152906001019060200180831161036c57829003601f168201915b505050505081565b600061039e3384846106f0565b50600192915050565b60006103b484848461079f565b6001600160a01b03841660009081526005602090815260408083203384529091529020548281101561040857604051632b3ca6f360e11b815260048101829052602481018490526044015b60405180910390fd5b61041585338584036106f0565b506001949350505050565b3360009081526005602090815260408083206001600160a01b03861684529091528120548190610451908490610a59565b905061045e3385836106f0565b5060019392505050565b6002805461031090610a88565b3360009081526005602090815260408083206001600160a01b03861684529091528120548190610451908490610a71565b600061039e33848461079f565b6001600160a01b0387166104da5760405163bc622b6360e01b815260040160405180910390fd5b6001600160a01b03861661050157604051632853494b60e11b815260040160405180910390fd5b428410156105255760405163212ed8bb60e11b8152600481018590526024016103ff565b6001600160a01b0387811660008181526006602090815260408083208054600180820190925582517f6e71edae12b1b97f4d1f60370fef10105fa2faae0126114a169c64845d6126c98186015280840196909652958c166060860152608085018b905260a085019590955260c08085018a90528151808603909101815260e08501825280519083012061190160f01b6101008601527f000000000000000000000000000000000000000000000000000000000000000061010286015261012280860182905282518087039091018152610142860180845281519185019190912090859052610162860180845281905260ff8a166101828701526101a286018990526101c2860188905291519095919491926101e2808401939192601f1981019281900390910190855afa158015610660573d6000803e3d6000fd5b5050604051601f1901519150506001600160a01b03811661069457604051630f81234f60e31b815260040160405180910390fd5b896001600160a01b0316816001600160a01b0316146106d957604051630b76193960e31b815260ff8716600482015260248101869052604481018590526064016103ff565b6106e48a8a8a6106f0565b50505050505050505050565b6001600160a01b0383166107175760405163230326bf60e11b815260040160405180910390fd5b6001600160a01b03821661073e57604051630b39ecd960e21b815260040160405180910390fd5b6001600160a01b0383811660008181526005602090815260408083209487168084529482529182902085905590518481527f8c5be1e5ebec7d5bd14f71427d1e84f3dd0314c0f7b2291e5b200ac8c7c3b925910160405180910390a3505050565b6001600160a01b0383166107c65760405163907bfbd760e01b815260040160405180910390fd5b6001600160a01b0382166107ed57604051637184c13f60e01b815260040160405180910390fd5b6001600160a01b0383166000908152600460205260409020548181101561083157604051632dcf2e2160e21b815260048101829052602481018390526044016103ff565b6001600160a01b03808516600090815260046020526040808220858503905591851681529081208054849290610868908490610a59565b92505081905550826001600160a01b0316846001600160a01b03167fddf252ad1be2c89b69c2b068fc378daa952ba7f163c4a11628f55a4df523b3ef846040516108b491815260200190565b60405180910390a350505050565b80356001600160a01b03811681146108d957600080fd5b919050565b6000602082840312156108ef578081fd5b6108f8826108c2565b9392505050565b60008060408385031215610911578081fd5b61091a836108c2565b9150610928602084016108c2565b90509250929050565b600080600060608486031215610945578081fd5b61094e846108c2565b925061095c602085016108c2565b9150604084013590509250925092565b600080600080600080600060e0888a031215610986578283fd5b61098f886108c2565b965061099d602089016108c2565b95506040880135945060608801359350608088013560ff811681146109c0578384fd5b9699959850939692959460a0840135945060c09093013592915050565b600080604083850312156109ef578182fd5b6109f8836108c2565b946020939093013593505050565b6000602080835283518082850152825b81811015610a3257858101830151858201604001528201610a16565b81811115610a435783604083870101525b50601f01601f1916929092016040019392505050565b60008219821115610a6c57610a6c610ac3565b500190565b600082821015610a8357610a83610ac3565b500390565b600181811c90821680610a9c57607f821691505b60208210811415610abd57634e487b7160e01b600052602260045260246000fd5b50919050565b634e487b7160e01b600052601160045260246000fdfea2646970667358221220acbf9d6b9e08cdb6c49824846bbc0eb4aff759eff22b5cb3b4596f15fa1f649a64736f6c63430008040033",
  "linkReferences": {},
  "deployedLinkReferences": {}
}