{
  "_format": "hh-sol-artifact-1",
  "contractName": "ERC20Permit",
  "sourceName": "contracts/cygnus-core/ERC20Permit.sol",
  "abi": [
    {
      "inputs": [],
      "stateMutability": "nonpayable",
      "type": "constructor"
    },
    {
      "inputs": [
        {
          "internalType": "address",
          "name": "owner",
          "type": "address"
        },
        {
          "internalType": "uint8",
          "name": "v",
          "type": "uint8"
        },
        {
          "internalType": "bytes32",
          "name": "r",
          "type": "bytes32"
        },
        {
          "internalType": "bytes32",
          "name": "s",
          "type": "bytes32"
        }
      ],
      "name": "ERC20Permit_InvalidSignature",
      "type": "error"
    },
    {
      "inputs": [],
      "name": "ERC20Permit_OwnerZeroAddress",
      "type": "error"
    },
    {
      "inputs": [
        {
          "internalType": "uint256",
          "name": "currentTime",
          "type": "uint256"
        },
        {
          "internalType": "uint256",
          "name": "deadline",
          "type": "uint256"
        }
      ],
      "name": "ERC20Permit_PermitExpired",
      "type": "error"
    },
    {
      "inputs": [],
      "name": "ERC20Permit_RecoveredOwnerZeroAddress",
      "type": "error"
    },
    {
      "inputs": [],
      "name": "ERC20Permit_SpenderZeroAddress",
      "type": "error"
    },
    {
      "inputs": [],
      "name": "ERC20_ApproveOwnerZeroAddress",
      "type": "error"
    },
    {
      "inputs": [],
      "name": "ERC20_ApproveSpenderZeroAddress",
      "type": "error"
    },
    {
      "inputs": [],
      "name": "ERC20_BurnHolderZeroAddress",
      "type": "error"
    },
    {
      "inputs": [
        {
          "internalType": "uint256",
          "name": "senderBalance",
          "type": "uint256"
        },
        {
          "internalType": "uint256",
          "name": "transferAmount",
          "type": "uint256"
        }
      ],
      "name": "ERC20_FromInsufficientBalance",
      "type": "error"
    },
    {
      "inputs": [
        {
          "internalType": "address",
          "name": "owner",
          "type": "address"
        },
        {
          "internalType": "address",
          "name": "spender",
          "type": "address"
        },
        {
          "internalType": "uint256",
          "name": "allowance",
          "type": "uint256"
        },
        {
          "internalType": "uint256",
          "name": "transferAmount",
          "type": "uint256"
        }
      ],
      "name": "ERC20_InsufficientAllowance",
      "type": "error"
    },
    {
      "inputs": [],
      "name": "ERC20_MintBeneficiaryZeroAddress",
      "type": "error"
    },
    {
      "inputs": [],
      "name": "ERC20_TransferFromZeroAddress",
      "type": "error"
    },
    {
      "inputs": [],
      "name": "ERC20_TransferToZeroAddress",
      "type": "error"
    },
    {
      "anonymous": false,
      "inputs": [
        {
          "indexed": true,
          "internalType": "address",
          "name": "owner",
          "type": "address"
        },
        {
          "indexed": true,
          "internalType": "address",
          "name": "spender",
          "type": "address"
        },
        {
          "indexed": false,
          "internalType": "uint256",
          "name": "value",
          "type": "uint256"
        }
      ],
      "name": "Approval",
      "type": "event"
    },
    {
      "anonymous": false,
      "inputs": [
        {
          "indexed": true,
          "internalType": "address",
          "name": "from",
          "type": "address"
        },
        {
          "indexed": true,
          "internalType": "address",
          "name": "to",
          "type": "address"
        },
        {
          "indexed": false,
          "internalType": "uint256",
          "name": "amount",
          "type": "uint256"
        }
      ],
      "name": "Transfer",
      "type": "event"
    },
    {
      "inputs": [],
      "name": "DOMAIN_SEPARATOR",
      "outputs": [
        {
          "internalType": "bytes32",
          "name": "",
          "type": "bytes32"
        }
      ],
      "stateMutability": "view",
      "type": "function"
    },
    {
      "inputs": [],
      "name": "PERMIT_TYPEHASH",
      "outputs": [
        {
          "internalType": "bytes32",
          "name": "",
          "type": "bytes32"
        }
      ],
      "stateMutability": "view",
      "type": "function"
    },
    {
      "inputs": [
        {
          "internalType": "address",
          "name": "owner",
          "type": "address"
        },
        {
          "internalType": "address",
          "name": "spender",
          "type": "address"
        }
      ],
      "name": "allowance",
      "outputs": [
        {
          "internalType": "uint256",
          "name": "",
          "type": "uint256"
        }
      ],
      "stateMutability": "view",
      "type": "function"
    },
    {
      "inputs": [
        {
          "internalType": "address",
          "name": "spender",
          "type": "address"
        },
        {
          "internalType": "uint256",
          "name": "value",
          "type": "uint256"
        }
      ],
      "name": "approve",
      "outputs": [
        {
          "internalType": "bool",
          "name": "",
          "type": "bool"
        }
      ],
      "stateMutability": "nonpayable",
      "type": "function"
    },
    {
      "inputs": [
        {
          "internalType": "address",
          "name": "account",
          "type": "address"
        }
      ],
      "name": "balanceOf",
      "outputs": [
        {
          "internalType": "uint256",
          "name": "",
          "type": "uint256"
        }
      ],
      "stateMutability": "view",
      "type": "function"
    },
    {
      "inputs": [],
      "name": "decimals",
      "outputs": [
        {
          "internalType": "uint8",
          "name": "",
          "type": "uint8"
        }
      ],
      "stateMutability": "view",
      "type": "function"
    },
    {
      "inputs": [
        {
          "internalType": "address",
          "name": "spender",
          "type": "address"
        },
        {
          "internalType": "uint256",
          "name": "value",
          "type": "uint256"
        }
      ],
      "name": "decreaseAllowance",
      "outputs": [
        {
          "internalType": "bool",
          "name": "",
          "type": "bool"
        }
      ],
      "stateMutability": "nonpayable",
      "type": "function"
    },
    {
      "inputs": [
        {
          "internalType": "address",
          "name": "spender",
          "type": "address"
        },
        {
          "internalType": "uint256",
          "name": "value",
          "type": "uint256"
        }
      ],
      "name": "increaseAllowance",
      "outputs": [
        {
          "internalType": "bool",
          "name": "",
          "type": "bool"
        }
      ],
      "stateMutability": "nonpayable",
      "type": "function"
    },
    {
      "inputs": [],
      "name": "name",
      "outputs": [
        {
          "internalType": "string",
          "name": "",
          "type": "string"
        }
      ],
      "stateMutability": "view",
      "type": "function"
    },
    {
      "inputs": [
        {
          "internalType": "address",
          "name": "",
          "type": "address"
        }
      ],
      "name": "nonces",
      "outputs": [
        {
          "internalType": "uint256",
          "name": "",
          "type": "uint256"
        }
      ],
      "stateMutability": "view",
      "type": "function"
    },
    {
      "inputs": [
        {
          "internalType": "address",
          "name": "owner",
          "type": "address"
        },
        {
          "internalType": "address",
          "name": "spender",
          "type": "address"
        },
        {
          "internalType": "uint256",
          "name": "value",
          "type": "uint256"
        },
        {
          "internalType": "uint256",
          "name": "deadline",
          "type": "uint256"
        },
        {
          "internalType": "uint8",
          "name": "v",
          "type": "uint8"
        },
        {
          "internalType": "bytes32",
          "name": "r",
          "type": "bytes32"
        },
        {
          "internalType": "bytes32",
          "name": "s",
          "type": "bytes32"
        }
      ],
      "name": "permit",
      "outputs": [],
      "stateMutability": "nonpayable",
      "type": "function"
    },
    {
      "inputs": [],
      "name": "symbol",
      "outputs": [
        {
          "internalType": "string",
          "name": "",
          "type": "string"
        }
      ],
      "stateMutability": "view",
      "type": "function"
    },
    {
      "inputs": [],
      "name": "totalSupply",
      "outputs": [
        {
          "internalType": "uint256",
          "name": "",
          "type": "uint256"
        }
      ],
      "stateMutability": "view",
      "type": "function"
    },
    {
      "inputs": [
        {
          "internalType": "address",
          "name": "to",
          "type": "address"
        },
        {
          "internalType": "uint256",
          "name": "amount",
          "type": "uint256"
        }
      ],
      "name": "transfer",
      "outputs": [
        {
          "internalType": "bool",
          "name": "",
          "type": "bool"
        }
      ],
      "stateMutability": "nonpayable",
      "type": "function"
    },
    {
      "inputs": [
        {
          "internalType": "address",
          "name": "from",
          "type": "address"
        },
        {
          "internalType": "address",
          "name": "to",
          "type": "address"
        },
        {
          "internalType": "uint256",
          "name": "amount",
          "type": "uint256"
        }
      ],
      "name": "transferFrom",
      "outputs": [
        {
          "internalType": "bool",
          "name": "",
          "type": "bool"
        }
      ],
      "stateMutability": "nonpayable",
      "type": "function"
    },
    {
      "inputs": [],
      "name": "version",
      "outputs": [
        {
          "internalType": "string",
          "name": "",
          "type": "string"
        }
      ],
      "stateMutability": "view",
      "type": "function"
    }
  ],
  "bytecode": "0x60a060405234801561001057600080fd5b5060405146907f8b73c3c69bb8fe3d512ecc4cf759cc79239f7b179b0ffacaa9a75d522b39400f90610044906000906100c8565b60408051918290038220828201825260018352603160f81b6020938401528151928301939093528101919091527fc89efdaa54c0f20c7adf612882df0950f5a951637e0307cdcb4c672f298b8bc66060820152608081018290523060a082015260c00160408051601f19818403018152919052805160209091012060805250610167565b600080835481600182811c9150808316806100e457607f831692505b6020808410820361010357634e487b7160e01b86526022600452602486fd5b818015610117576001811461012c57610159565b60ff1986168952841515850289019650610159565b60008a81526020902060005b868110156101515781548b820152908501908301610138565b505084890196505b509498975050505050505050565b608051610b31610189600039600081816101bb01526105ab0152610b316000f3fe608060405234801561001057600080fd5b50600436106101005760003560e01c806354fd4d5011610097578063a457c2d711610066578063a457c2d714610261578063a9059cbb14610274578063d505accf14610287578063dd62ed3e1461029c57600080fd5b806354fd4d50146101f057806370a08231146102105780637ecebe001461023957806395d89b411461025957600080fd5b806330adf81f116100d357806330adf81f14610170578063313ce567146101975780633644e515146101b657806339509351146101dd57600080fd5b806306fdde0314610105578063095ea7b31461012357806318160ddd1461014657806323b872dd1461015d575b600080fd5b61010d6102d5565b60405161011a91906108ed565b60405180910390f35b610136610131366004610957565b610363565b604051901515815260200161011a565b61014f60035481565b60405190815260200161011a565b61013661016b366004610981565b61037a565b61014f7f6e71edae12b1b97f4d1f60370fef10105fa2faae0126114a169c64845d6126c981565b6002546101a49060ff1681565b60405160ff909116815260200161011a565b61014f7f000000000000000000000000000000000000000000000000000000000000000081565b6101366101eb366004610957565b610409565b61010d604051806040016040528060018152602001603160f81b81525081565b61014f61021e3660046109bd565b6001600160a01b031660009081526005602052604090205490565b61014f6102473660046109bd565b60066020526000908152604090205481565b61010d610451565b61013661026f366004610957565b61045e565b610136610282366004610957565b61048f565b61029a6102953660046109df565b61049c565b005b61014f6102aa366004610a52565b6001600160a01b03918216600090815260046020908152604080832093909416825291909152205490565b600080546102e290610a85565b80601f016020809104026020016040519081016040528092919081815260200182805461030e90610a85565b801561035b5780601f106103305761010080835404028352916020019161035b565b820191906000526020600020905b81548152906001019060200180831161033e57829003601f168201915b505050505081565b600061037033848461073f565b5060015b92915050565b6001600160a01b0383166000908152600460209081526040808320338085529252822054838110156103e557604051636497133b60e11b81526001600160a01b0380881660048301528316602482015260448101829052606481018590526084015b60405180910390fd5b6103f2868386840361073f565b6103fd8686866107ee565b50600195945050505050565b3360009081526004602090815260408083206001600160a01b0386168452909152812054819061043a908490610ad5565b905061044733858361073f565b5060019392505050565b600180546102e290610a85565b3360009081526004602090815260408083206001600160a01b0386168452909152812054819061043a908490610ae8565b60006103703384846107ee565b6001600160a01b0387166104c3576040516337adc3e960e11b815260040160405180910390fd5b6001600160a01b0386166104ea57604051637b4813dd60e01b815260040160405180910390fd5b4284101561051457604051633288645960e01b8152426004820152602481018590526044016103dc565b6001600160a01b0387811660008181526006602090815260408083208054600180820190925582517f6e71edae12b1b97f4d1f60370fef10105fa2faae0126114a169c64845d6126c98186015280840196909652958c166060860152608085018b905260a085019590955260c08085018a90528151808603909101815260e08501825280519083012061190160f01b6101008601527f000000000000000000000000000000000000000000000000000000000000000061010286015261012280860182905282518087039091018152610142860180845281519185019190912090859052610162860180845281905260ff8a166101828701526101a286018990526101c2860188905291519095919491926101e2808401939192601f1981019281900390910190855afa15801561064f573d6000803e3d6000fd5b5050604051601f1901519150506001600160a01b0381166106835760405163d147d0e360e01b815260040160405180910390fd5b896001600160a01b0316816001600160a01b0316146106d757604051633460790b60e01b81526001600160a01b038b16600482015260ff8716602482015260448101869052606481018590526084016103dc565b6001600160a01b038a81166000818152600460209081526040808320948e16808452948252918290208c905590518b81527f8c5be1e5ebec7d5bd14f71427d1e84f3dd0314c0f7b2291e5b200ac8c7c3b925910160405180910390a350505050505050505050565b6001600160a01b0383166107665760405163231b1a1d60e21b815260040160405180910390fd5b6001600160a01b03821661078d57604051632b6990d760e21b815260040160405180910390fd5b6001600160a01b0383811660008181526004602090815260408083209487168084529482529182902085905590518481527f8c5be1e5ebec7d5bd14f71427d1e84f3dd0314c0f7b2291e5b200ac8c7c3b925910160405180910390a3505050565b6001600160a01b03831661081557604051636fbb781760e01b815260040160405180910390fd5b6001600160a01b03821661083b576040516261696b60e71b815260040160405180910390fd5b6001600160a01b0383166000908152600560205260409020548181101561087f5760405163430cf54960e11b815260048101829052602481018390526044016103dc565b6001600160a01b0380851660008181526005602052604080822086860390559286168082529083902080548601905591517fddf252ad1be2c89b69c2b068fc378daa952ba7f163c4a11628f55a4df523b3ef906108df9086815260200190565b60405180910390a350505050565b600060208083528351808285015260005b8181101561091a578581018301518582016040015282016108fe565b506000604082860101526040601f19601f8301168501019250505092915050565b80356001600160a01b038116811461095257600080fd5b919050565b6000806040838503121561096a57600080fd5b6109738361093b565b946020939093013593505050565b60008060006060848603121561099657600080fd5b61099f8461093b565b92506109ad6020850161093b565b9150604084013590509250925092565b6000602082840312156109cf57600080fd5b6109d88261093b565b9392505050565b600080600080600080600060e0888a0312156109fa57600080fd5b610a038861093b565b9650610a116020890161093b565b95506040880135945060608801359350608088013560ff81168114610a3557600080fd5b9699959850939692959460a0840135945060c09093013592915050565b60008060408385031215610a6557600080fd5b610a6e8361093b565b9150610a7c6020840161093b565b90509250929050565b600181811c90821680610a9957607f821691505b602082108103610ab957634e487b7160e01b600052602260045260246000fd5b50919050565b634e487b7160e01b600052601160045260246000fd5b8082018082111561037457610374610abf565b8181038181111561037457610374610abf56fea26469706673582212203f9d576debecc034b451857d7f275256da5563e3038bfd1134f56999564fb5d464736f6c63430008110033",
  "linkReferences": {},
  "deployedLinkReferences": {}
}