{
  "_format": "hh-sol-artifact-1",
  "contractName": "CygnusBorrowModel",
  "sourceName": "contracts/cygnus-core/CygnusBorrowModel.sol",
  "abi": [
    {
      "inputs": [],
      "stateMutability": "nonpayable",
      "type": "constructor"
    },
    {
      "inputs": [],
      "name": "AllowanceOverflow",
      "type": "error"
    },
    {
      "inputs": [],
      "name": "AllowanceUnderflow",
      "type": "error"
    },
    {
      "inputs": [],
      "name": "CygnusBorrowControl__ParameterNotInRange",
      "type": "error"
    },
    {
      "inputs": [],
      "name": "CygnusTerminal__CantMintZeroShares",
      "type": "error"
    },
    {
      "inputs": [],
      "name": "CygnusTerminal__CantRedeemZeroAssets",
      "type": "error"
    },
    {
      "inputs": [],
      "name": "CygnusTerminal__CantSweepUnderlying",
      "type": "error"
    },
    {
      "inputs": [],
      "name": "CygnusTerminal__MsgSenderNotAdmin",
      "type": "error"
    },
    {
      "inputs": [],
      "name": "InsufficientAllowance",
      "type": "error"
    },
    {
      "inputs": [],
      "name": "InsufficientBalance",
      "type": "error"
    },
    {
      "inputs": [],
      "name": "InvalidPermit",
      "type": "error"
    },
    {
      "inputs": [],
      "name": "PermitExpired",
      "type": "error"
    },
    {
      "inputs": [],
      "name": "ReentrantCall",
      "type": "error"
    },
    {
      "inputs": [],
      "name": "TotalSupplyOverflow",
      "type": "error"
    },
    {
      "anonymous": false,
      "inputs": [
        {
          "indexed": false,
          "internalType": "uint256",
          "name": "cashStored",
          "type": "uint256"
        },
        {
          "indexed": false,
          "internalType": "uint256",
          "name": "totalBorrowsStored",
          "type": "uint256"
        },
        {
          "indexed": false,
          "internalType": "uint256",
          "name": "interestAccumulated",
          "type": "uint256"
        }
      ],
      "name": "AccrueInterest",
      "type": "event"
    },
    {
      "anonymous": false,
      "inputs": [
        {
          "indexed": true,
          "internalType": "address",
          "name": "owner",
          "type": "address"
        },
        {
          "indexed": true,
          "internalType": "address",
          "name": "spender",
          "type": "address"
        },
        {
          "indexed": false,
          "internalType": "uint256",
          "name": "amount",
          "type": "uint256"
        }
      ],
      "name": "Approval",
      "type": "event"
    },
    {
      "anonymous": false,
      "inputs": [
        {
          "indexed": true,
          "internalType": "address",
          "name": "sender",
          "type": "address"
        },
        {
          "indexed": true,
          "internalType": "address",
          "name": "recipient",
          "type": "address"
        },
        {
          "indexed": false,
          "internalType": "uint256",
          "name": "assets",
          "type": "uint256"
        },
        {
          "indexed": false,
          "internalType": "uint256",
          "name": "shares",
          "type": "uint256"
        }
      ],
      "name": "Deposit",
      "type": "event"
    },
    {
      "anonymous": false,
      "inputs": [
        {
          "indexed": false,
          "internalType": "address",
          "name": "oldBorrowRewarder",
          "type": "address"
        },
        {
          "indexed": false,
          "internalType": "address",
          "name": "newBorrowRewarder",
          "type": "address"
        }
      ],
      "name": "NewCygnusBorrowRewarder",
      "type": "event"
    },
    {
      "anonymous": false,
      "inputs": [
        {
          "indexed": false,
          "internalType": "uint256",
          "name": "baseRatePerYear",
          "type": "uint256"
        },
        {
          "indexed": false,
          "internalType": "uint256",
          "name": "multiplierPerYear",
          "type": "uint256"
        },
        {
          "indexed": false,
          "internalType": "uint256",
          "name": "kinkMultiplier_",
          "type": "uint256"
        },
        {
          "indexed": false,
          "internalType": "uint256",
          "name": "kinkUtilizationRate_",
          "type": "uint256"
        }
      ],
      "name": "NewInterestRateParameters",
      "type": "event"
    },
    {
      "anonymous": false,
      "inputs": [
        {
          "indexed": false,
          "internalType": "uint256",
          "name": "oldReserveFactor",
          "type": "uint256"
        },
        {
          "indexed": false,
          "internalType": "uint256",
          "name": "newReserveFactor",
          "type": "uint256"
        }
      ],
      "name": "NewReserveFactor",
      "type": "event"
    },
    {
      "anonymous": false,
      "inputs": [
        {
          "indexed": true,
          "internalType": "address",
          "name": "sender",
          "type": "address"
        },
        {
          "indexed": true,
          "internalType": "address",
          "name": "token",
          "type": "address"
        },
        {
          "indexed": false,
          "internalType": "uint256",
          "name": "balance",
          "type": "uint256"
        }
      ],
      "name": "SweepToken",
      "type": "event"
    },
    {
      "anonymous": false,
      "inputs": [
        {
          "indexed": false,
          "internalType": "uint160",
          "name": "totalBalance",
          "type": "uint160"
        }
      ],
      "name": "Sync",
      "type": "event"
    },
    {
      "anonymous": false,
      "inputs": [
        {
          "indexed": true,
          "internalType": "address",
          "name": "from",
          "type": "address"
        },
        {
          "indexed": true,
          "internalType": "address",
          "name": "to",
          "type": "address"
        },
        {
          "indexed": false,
          "internalType": "uint256",
          "name": "amount",
          "type": "uint256"
        }
      ],
      "name": "Transfer",
      "type": "event"
    },
    {
      "anonymous": false,
      "inputs": [
        {
          "indexed": true,
          "internalType": "address",
          "name": "sender",
          "type": "address"
        },
        {
          "indexed": true,
          "internalType": "address",
          "name": "recipient",
          "type": "address"
        },
        {
          "indexed": true,
          "internalType": "address",
          "name": "owner",
          "type": "address"
        },
        {
          "indexed": false,
          "internalType": "uint256",
          "name": "assets",
          "type": "uint256"
        },
        {
          "indexed": false,
          "internalType": "uint256",
          "name": "shares",
          "type": "uint256"
        }
      ],
      "name": "Withdraw",
      "type": "event"
    },
    {
      "inputs": [],
      "name": "DOMAIN_SEPARATOR",
      "outputs": [
        {
          "internalType": "bytes32",
          "name": "result",
          "type": "bytes32"
        }
      ],
      "stateMutability": "view",
      "type": "function"
    },
    {
      "inputs": [],
      "name": "PERMIT2",
      "outputs": [
        {
          "internalType": "contract IAllowanceTransfer",
          "name": "",
          "type": "address"
        }
      ],
      "stateMutability": "view",
      "type": "function"
    },
    {
      "inputs": [],
      "name": "accrueInterest",
      "outputs": [],
      "stateMutability": "nonpayable",
      "type": "function"
    },
    {
      "inputs": [
        {
          "internalType": "address",
          "name": "owner",
          "type": "address"
        },
        {
          "internalType": "address",
          "name": "spender",
          "type": "address"
        }
      ],
      "name": "allowance",
      "outputs": [
        {
          "internalType": "uint256",
          "name": "result",
          "type": "uint256"
        }
      ],
      "stateMutability": "view",
      "type": "function"
    },
    {
      "inputs": [
        {
          "internalType": "address",
          "name": "spender",
          "type": "address"
        },
        {
          "internalType": "uint256",
          "name": "amount",
          "type": "uint256"
        }
      ],
      "name": "approve",
      "outputs": [
        {
          "internalType": "bool",
          "name": "",
          "type": "bool"
        }
      ],
      "stateMutability": "nonpayable",
      "type": "function"
    },
    {
      "inputs": [
        {
          "internalType": "address",
          "name": "owner",
          "type": "address"
        }
      ],
      "name": "balanceOf",
      "outputs": [
        {
          "internalType": "uint256",
          "name": "result",
          "type": "uint256"
        }
      ],
      "stateMutability": "view",
      "type": "function"
    },
    {
      "inputs": [],
      "name": "baseRatePerSecond",
      "outputs": [
        {
          "internalType": "uint256",
          "name": "",
          "type": "uint256"
        }
      ],
      "stateMutability": "view",
      "type": "function"
    },
    {
      "inputs": [
        {
          "internalType": "address",
          "name": "",
          "type": "address"
        }
      ],
      "name": "borrowBalances",
      "outputs": [
        {
          "internalType": "uint128",
          "name": "principal",
          "type": "uint128"
        },
        {
          "internalType": "uint128",
          "name": "interestIndex",
          "type": "uint128"
        }
      ],
      "stateMutability": "view",
      "type": "function"
    },
    {
      "inputs": [],
      "name": "borrowIndex",
      "outputs": [
        {
          "internalType": "uint80",
          "name": "",
          "type": "uint80"
        }
      ],
      "stateMutability": "view",
      "type": "function"
    },
    {
      "inputs": [],
      "name": "borrowRate",
      "outputs": [
        {
          "internalType": "uint48",
          "name": "",
          "type": "uint48"
        }
      ],
      "stateMutability": "view",
      "type": "function"
    },
    {
      "inputs": [],
      "name": "collateral",
      "outputs": [
        {
          "internalType": "address",
          "name": "",
          "type": "address"
        }
      ],
      "stateMutability": "view",
      "type": "function"
    },
    {
      "inputs": [],
      "name": "cygnusBorrowRewarder",
      "outputs": [
        {
          "internalType": "address",
          "name": "",
          "type": "address"
        }
      ],
      "stateMutability": "view",
      "type": "function"
    },
    {
      "inputs": [],
      "name": "cygnusNebulaOracle",
      "outputs": [
        {
          "internalType": "contract ICygnusNebulaOracle",
          "name": "",
          "type": "address"
        }
      ],
      "stateMutability": "view",
      "type": "function"
    },
    {
      "inputs": [],
      "name": "decimals",
      "outputs": [
        {
          "internalType": "uint8",
          "name": "",
          "type": "uint8"
        }
      ],
      "stateMutability": "view",
      "type": "function"
    },
    {
      "inputs": [
        {
          "internalType": "address",
          "name": "spender",
          "type": "address"
        },
        {
          "internalType": "uint256",
          "name": "difference",
          "type": "uint256"
        }
      ],
      "name": "decreaseAllowance",
      "outputs": [
        {
          "internalType": "bool",
          "name": "",
          "type": "bool"
        }
      ],
      "stateMutability": "nonpayable",
      "type": "function"
    },
    {
      "inputs": [
        {
          "internalType": "uint256",
          "name": "assets",
          "type": "uint256"
        },
        {
          "internalType": "address",
          "name": "recipient",
          "type": "address"
        },
        {
          "components": [
            {
              "components": [
                {
                  "internalType": "address",
                  "name": "token",
                  "type": "address"
                },
                {
                  "internalType": "uint160",
                  "name": "amount",
                  "type": "uint160"
                },
                {
                  "internalType": "uint48",
                  "name": "expiration",
                  "type": "uint48"
                },
                {
                  "internalType": "uint48",
                  "name": "nonce",
                  "type": "uint48"
                }
              ],
              "internalType": "struct IAllowanceTransfer.PermitDetails",
              "name": "details",
              "type": "tuple"
            },
            {
              "internalType": "address",
              "name": "spender",
              "type": "address"
            },
            {
              "internalType": "uint256",
              "name": "sigDeadline",
              "type": "uint256"
            }
          ],
          "internalType": "struct IAllowanceTransfer.PermitSingle",
          "name": "_permit",
          "type": "tuple"
        },
        {
          "internalType": "bytes",
          "name": "signature",
          "type": "bytes"
        }
      ],
      "name": "deposit",
      "outputs": [
        {
          "internalType": "uint256",
          "name": "shares",
          "type": "uint256"
        }
      ],
      "stateMutability": "nonpayable",
      "type": "function"
    },
    {
      "inputs": [],
      "name": "exchangeRate",
      "outputs": [
        {
          "internalType": "uint256",
          "name": "",
          "type": "uint256"
        }
      ],
      "stateMutability": "nonpayable",
      "type": "function"
    },
    {
      "inputs": [],
      "name": "exchangeRateStored",
      "outputs": [
        {
          "internalType": "uint256",
          "name": "",
          "type": "uint256"
        }
      ],
      "stateMutability": "view",
      "type": "function"
    },
    {
      "inputs": [
        {
          "internalType": "address",
          "name": "borrower",
          "type": "address"
        }
      ],
      "name": "getBorrowBalance",
      "outputs": [
        {
          "internalType": "uint256",
          "name": "",
          "type": "uint256"
        }
      ],
      "stateMutability": "view",
      "type": "function"
    },
    {
      "inputs": [],
      "name": "hangar18",
      "outputs": [
        {
          "internalType": "contract IHangar18",
          "name": "",
          "type": "address"
        }
      ],
      "stateMutability": "view",
      "type": "function"
    },
    {
      "inputs": [
        {
          "internalType": "address",
          "name": "spender",
          "type": "address"
        },
        {
          "internalType": "uint256",
          "name": "difference",
          "type": "uint256"
        }
      ],
      "name": "increaseAllowance",
      "outputs": [
        {
          "internalType": "bool",
          "name": "",
          "type": "bool"
        }
      ],
      "stateMutability": "nonpayable",
      "type": "function"
    },
    {
      "inputs": [],
      "name": "jumpMultiplierPerSecond",
      "outputs": [
        {
          "internalType": "uint256",
          "name": "",
          "type": "uint256"
        }
      ],
      "stateMutability": "view",
      "type": "function"
    },
    {
      "inputs": [],
      "name": "kinkMultiplier",
      "outputs": [
        {
          "internalType": "uint256",
          "name": "",
          "type": "uint256"
        }
      ],
      "stateMutability": "view",
      "type": "function"
    },
    {
      "inputs": [],
      "name": "kinkUtilizationRate",
      "outputs": [
        {
          "internalType": "uint256",
          "name": "",
          "type": "uint256"
        }
      ],
      "stateMutability": "view",
      "type": "function"
    },
    {
      "inputs": [],
      "name": "lastAccrualTimestamp",
      "outputs": [
        {
          "internalType": "uint32",
          "name": "",
          "type": "uint32"
        }
      ],
      "stateMutability": "view",
      "type": "function"
    },
    {
      "inputs": [],
      "name": "multiplierPerSecond",
      "outputs": [
        {
          "internalType": "uint256",
          "name": "",
          "type": "uint256"
        }
      ],
      "stateMutability": "view",
      "type": "function"
    },
    {
      "inputs": [],
      "name": "name",
      "outputs": [
        {
          "internalType": "string",
          "name": "",
          "type": "string"
        }
      ],
      "stateMutability": "pure",
      "type": "function"
    },
    {
      "inputs": [
        {
          "internalType": "address",
          "name": "owner",
          "type": "address"
        }
      ],
      "name": "nonces",
      "outputs": [
        {
          "internalType": "uint256",
          "name": "result",
          "type": "uint256"
        }
      ],
      "stateMutability": "view",
      "type": "function"
    },
    {
      "inputs": [
        {
          "internalType": "address",
          "name": "owner",
          "type": "address"
        },
        {
          "internalType": "address",
          "name": "spender",
          "type": "address"
        },
        {
          "internalType": "uint256",
          "name": "value",
          "type": "uint256"
        },
        {
          "internalType": "uint256",
          "name": "deadline",
          "type": "uint256"
        },
        {
          "internalType": "uint8",
          "name": "v",
          "type": "uint8"
        },
        {
          "internalType": "bytes32",
          "name": "r",
          "type": "bytes32"
        },
        {
          "internalType": "bytes32",
          "name": "s",
          "type": "bytes32"
        }
      ],
      "name": "permit",
      "outputs": [],
      "stateMutability": "nonpayable",
      "type": "function"
    },
    {
      "inputs": [
        {
          "internalType": "uint256",
          "name": "shares",
          "type": "uint256"
        },
        {
          "internalType": "address",
          "name": "recipient",
          "type": "address"
        },
        {
          "internalType": "address",
          "name": "owner",
          "type": "address"
        }
      ],
      "name": "redeem",
      "outputs": [
        {
          "internalType": "uint256",
          "name": "assets",
          "type": "uint256"
        }
      ],
      "stateMutability": "nonpayable",
      "type": "function"
    },
    {
      "inputs": [],
      "name": "reserveFactor",
      "outputs": [
        {
          "internalType": "uint256",
          "name": "",
          "type": "uint256"
        }
      ],
      "stateMutability": "view",
      "type": "function"
    },
    {
      "inputs": [
        {
          "internalType": "address",
          "name": "newBorrowRewarder",
          "type": "address"
        }
      ],
      "name": "setCygnusBorrowRewarder",
      "outputs": [],
      "stateMutability": "nonpayable",
      "type": "function"
    },
    {
      "inputs": [
        {
          "internalType": "uint256",
          "name": "baseRatePerYear_",
          "type": "uint256"
        },
        {
          "internalType": "uint256",
          "name": "multiplierPerYear_",
          "type": "uint256"
        },
        {
          "internalType": "uint256",
          "name": "kinkMultiplier_",
          "type": "uint256"
        },
        {
          "internalType": "uint256",
          "name": "kinkUtilizationRate_",
          "type": "uint256"
        }
      ],
      "name": "setInterestRateModel",
      "outputs": [],
      "stateMutability": "nonpayable",
      "type": "function"
    },
    {
      "inputs": [
        {
          "internalType": "uint256",
          "name": "newReserveFactor",
          "type": "uint256"
        }
      ],
      "name": "setReserveFactor",
      "outputs": [],
      "stateMutability": "nonpayable",
      "type": "function"
    },
    {
      "inputs": [],
      "name": "shuttleId",
      "outputs": [
        {
          "internalType": "uint256",
          "name": "",
          "type": "uint256"
        }
      ],
      "stateMutability": "view",
      "type": "function"
    },
    {
      "inputs": [],
      "name": "supplyRate",
      "outputs": [
        {
          "internalType": "uint256",
          "name": "",
          "type": "uint256"
        }
      ],
      "stateMutability": "view",
      "type": "function"
    },
    {
      "inputs": [
        {
          "internalType": "address",
          "name": "token",
          "type": "address"
        }
      ],
      "name": "sweepToken",
      "outputs": [],
      "stateMutability": "nonpayable",
      "type": "function"
    },
    {
      "inputs": [],
      "name": "symbol",
      "outputs": [
        {
          "internalType": "string",
          "name": "",
          "type": "string"
        }
      ],
      "stateMutability": "view",
      "type": "function"
    },
    {
      "inputs": [],
      "name": "totalBalance",
      "outputs": [
        {
          "internalType": "uint160",
          "name": "",
          "type": "uint160"
        }
      ],
      "stateMutability": "view",
      "type": "function"
    },
    {
      "inputs": [],
      "name": "totalBorrows",
      "outputs": [
        {
          "internalType": "uint96",
          "name": "",
          "type": "uint96"
        }
      ],
      "stateMutability": "view",
      "type": "function"
    },
    {
      "inputs": [],
      "name": "totalSupply",
      "outputs": [
        {
          "internalType": "uint256",
          "name": "result",
          "type": "uint256"
        }
      ],
      "stateMutability": "view",
      "type": "function"
    },
    {
      "inputs": [
        {
          "internalType": "address",
          "name": "borrower",
          "type": "address"
        }
      ],
      "name": "trackBorrower",
      "outputs": [],
      "stateMutability": "nonpayable",
      "type": "function"
    },
    {
      "inputs": [
        {
          "internalType": "address",
          "name": "to",
          "type": "address"
        },
        {
          "internalType": "uint256",
          "name": "amount",
          "type": "uint256"
        }
      ],
      "name": "transfer",
      "outputs": [
        {
          "internalType": "bool",
          "name": "",
          "type": "bool"
        }
      ],
      "stateMutability": "nonpayable",
      "type": "function"
    },
    {
      "inputs": [
        {
          "internalType": "address",
          "name": "from",
          "type": "address"
        },
        {
          "internalType": "address",
          "name": "to",
          "type": "address"
        },
        {
          "internalType": "uint256",
          "name": "amount",
          "type": "uint256"
        }
      ],
      "name": "transferFrom",
      "outputs": [
        {
          "internalType": "bool",
          "name": "",
          "type": "bool"
        }
      ],
      "stateMutability": "nonpayable",
      "type": "function"
    },
    {
      "inputs": [],
      "name": "underlying",
      "outputs": [
        {
          "internalType": "address",
          "name": "",
          "type": "address"
        }
      ],
      "stateMutability": "view",
      "type": "function"
    },
    {
      "inputs": [],
      "name": "utilizationRate",
      "outputs": [
        {
          "internalType": "uint256",
          "name": "",
          "type": "uint256"
        }
      ],
      "stateMutability": "view",
      "type": "function"
    }
  ],
  "bytecode": "0x6101008060405234620001c9576000805460ff19166001178155635a412e5360e01b80835260a092838160048186335af18015620001be57839184918591869162000195575b5060e052855260c052608052670bcbce7f1b1500006006556002600755670214e8348c4f0000600855670de0b6b3a7640000600955604051908152828160048185335af191821562000189579162000150575b50600180546001600160a01b0319166001600160a01b0392909216919091179055600b80546001600160601b0365ffffffffffff60b01b01164260e01b6001600160e01b031916176503782dace9d960721b1790556040516128999182620002778339608051828181610266015261240c01525181610359015260c05181818161070401528181610b8a01528181610df1015281816112cd015281816117a201528181611bf8015261251b015260e051816113f10152f35b620001759150823d841162000181575b6200016c8183620001ce565b8101906200021d565b50509150503862000098565b503d62000160565b604051903d90823e3d90fd5b92505050620001b49150843d861162000181576200016c8183620001ce565b9150903862000045565b6040513d85823e3d90fd5b600080fd5b601f909101601f19168101906001600160401b03821190821017620001f257604052565b634e487b7160e01b600052604160045260246000fd5b51906001600160a01b0382168203620001c957565b91908260a0910312620001c95781516001600160a01b03908181168103620001c957926200024e6020820162000208565b926200025d6040830162000208565b9260608301519081168103620001c9576080909201519056fe6040608081526004908136101561001557600080fd5b600091823560e01c90816306fdde0314611e1a578163095ea7b314611d7b57816318160ddd14611d36578163182df0f514611cf95781631aebf12f14611cbc5781631be1956014611b685781631c44698314611abc5781631e44b7fc1461195157816323b872dd1461182c578163313ce567146117315781633644e515146116f6578163395093511461163e5781633ba0b9a91461160357816342bf78af1461154c5781634322b7141461150f57816346f608ff146114d357816347bd3718146114885781635b322bbe146114145781635f77f891146113bb5781636afdd850146113735781636c321c8a146112f15781636f307dc31461128257816370a082311461121b57816372cf84a7146111de5781637d6af079146111825781637ecebe001461111b5781638808e71c14610d3057816394e1373c14610cb157816395d89b4114610b195781639b51099814610adc578163a457c2d714610a23578163a6afed95146109e9578163a9059cbb14610931578163aa5af0fd146108e5578163ad168c9d14610892578163ad2961a314610850578163ad7a672f146107fc578163ba08765214610619578163c0789dcb146105d9578163c914b43714610591578163d505accf1461040d578163d8dfeb45146103ba578163d90e02641461037d578163d935bd921461030e578163dd62ed3e1461028e575063e8a24e1d1461021d57600080fd5b3461028a57817ffffffffffffffffffffffffffffffffffffffffffffffffffffffffffffffffc36011261028a576020905173ffffffffffffffffffffffffffffffffffffffff7f0000000000000000000000000000000000000000000000000000000000000000168152f35b5080fd5b90503461030a57817ffffffffffffffffffffffffffffffffffffffffffffffffffffffffffffffffc36011261030a573573ffffffffffffffffffffffffffffffffffffffff928382168203610305576024359384168403610305576020938452637f5e9f20600c52526034600c20549051908152f35b600080fd5b8280fd5b50503461028a57817ffffffffffffffffffffffffffffffffffffffffffffffffffffffffffffffffc36011261028a576020905173ffffffffffffffffffffffffffffffffffffffff7f0000000000000000000000000000000000000000000000000000000000000000168152f35b50503461028a57817ffffffffffffffffffffffffffffffffffffffffffffffffffffffffffffffffc36011261028a576020906003549051908152f35b50503461028a57817ffffffffffffffffffffffffffffffffffffffffffffffffffffffffffffffffc36011261028a5760209073ffffffffffffffffffffffffffffffffffffffff600154169051908152f35b9190503461030a5760e07ffffffffffffffffffffffffffffffffffffffffffffffffffffffffffffffffc36011261030a57813573ffffffffffffffffffffffffffffffffffffffff9081811680910361030557602435918216809203610305576084359360643560443560ff8716870361058d5761048a6125a8565b92865197834211610581576338377508600c52858a5260209485600c20948554956001870190557f6e71edae12b1b97f4d1f60370fef10105fa2faae0126114a169c64845d6126c98b5287878c0152888a8c015260608b019585875260808c015260a08b01526119018b52855260c0892088526042601e208a5260ff16845260a435875260c435606052838060808b60015afa50843d51036105765750777f5e9f200000000000000000000000000000000000000000851786526034602c20557f8c5be1e5ebec7d5bd14f71427d1e84f3dd0314c0f7b2291e5b200ac8c7c3b9259190a3528060605280f35b63ddafbaef8952601cfd5b50631a15a3cc8952601cfd5b8780fd5b50503461028a57817ffffffffffffffffffffffffffffffffffffffffffffffffffffffffffffffffc36011261028a5760209065ffffffffffff600b5460b01c169051908152f35b50503461028a57817ffffffffffffffffffffffffffffffffffffffffffffffffffffffffffffffffc36011261028a57602090600b5460e01c9051908152f35b9190503461030a5760607ffffffffffffffffffffffffffffffffffffffffffffffffffffffffffffffffc36011261030a578135916024359373ffffffffffffffffffffffffffffffffffffffff9384861691828703610305576044359586169384870361030557843303610798575b61069a6106946124ab565b84612688565b968715610770576387a211a2600c5282526020600c20908154908185116107655750976107289288928560209b0390556805345cdf77eb68f44c858154039055848152867fddf252ad1be2c89b69c2b068fc378daa952ba7f163c4a11628f55a4df523b3ef8b83a37f0000000000000000000000000000000000000000000000000000000000000000612814565b835190858252868201527ffbde797d201c681b91056529119e0b02407c7bb96a4a2c75c01fc9667232c8db843392a461075f6124ef565b51908152f35b63f4d678b88452601cfd5b5085517fe3e8d297000000000000000000000000000000000000000000000000000000008152fd5b33602052637f5e9f20600c528682526034600c2080547fffffffffffffffffffffffffffffffffffffffffffffffffffffffffffffffff81036107dd575b5050610689565b8085116107f057849003905538806107d6565b826313be252b8552601cfd5b50503461028a57817ffffffffffffffffffffffffffffffffffffffffffffffffffffffffffffffffc36011261028a5773ffffffffffffffffffffffffffffffffffffffff6020925460081c169051908152f35b50503461028a57817ffffffffffffffffffffffffffffffffffffffffffffffffffffffffffffffffc36011261028a5760209061088b61206b565b9051908152f35b50503461028a57817ffffffffffffffffffffffffffffffffffffffffffffffffffffffffffffffffc36011261028a5760209073ffffffffffffffffffffffffffffffffffffffff600254169051908152f35b50503461028a57817ffffffffffffffffffffffffffffffffffffffffffffffffffffffffffffffffc36011261028a5760209069ffffffffffffffffffff600b5460601c169051908152f35b8284346109e657817ffffffffffffffffffffffffffffffffffffffffffffffffffffffffffffffffc3601126109e657823573ffffffffffffffffffffffffffffffffffffffff8116810361030557602435916387a211a2600c5233815260209485600c2090815490818611610765575084900390555282600c208181540190558252600c5160601c337fddf252ad1be2c89b69c2b068fc378daa952ba7f163c4a11628f55a4df523b3ef8480a35160018152f35b80fd5b83346109e657807ffffffffffffffffffffffffffffffffffffffffffffffffffffffffffffffffc3601126109e657610a206120f1565b80f35b8284346109e657817ffffffffffffffffffffffffffffffffffffffffffffffffffffffffffffffffc3601126109e657823573ffffffffffffffffffffffffffffffffffffffff811681036103055760243590602052637f5e9f20600c523382526034600c20908154818110610ad05760209550038091558152602c5160601c907f8c5be1e5ebec7d5bd14f71427d1e84f3dd0314c0f7b2291e5b200ac8c7c3b925843392a35160018152f35b85638301ab388552601cfd5b50503461028a57817ffffffffffffffffffffffffffffffffffffffffffffffffffffffffffffffffc36011261028a576020906007549051908152f35b9190503461030a57827ffffffffffffffffffffffffffffffffffffffffffffffffffffffffffffffffc36011261030a5782815180937f95d89b410000000000000000000000000000000000000000000000000000000082528173ffffffffffffffffffffffffffffffffffffffff7f0000000000000000000000000000000000000000000000000000000000000000165afa918215610ca7578392610c1f575b610c1b8383610c116028825180947f4379675553443a200000000000000000000000000000000000000000000000006020830152610c018151809260208686019101611e61565b8101036008810185520183611ece565b5191829182611e84565b0390f35b9091503d8084833e610c318183611ece565b810190602081830312610c9f5780519067ffffffffffffffff8211610ca3570181601f82011215610c9f57805193610c6885611f3e565b92610c7585519485611ece565b858452602086840101116109e65750610c1b93610c989160208085019101611e61565b9038610bba565b8380fd5b8480fd5b81513d85823e3d90fd5b8391503461028a5760207ffffffffffffffffffffffffffffffffffffffffffffffffffffffffffffffffc36011261028a57359073ffffffffffffffffffffffffffffffffffffffff82168092036103055782918152600a60205220548151906fffffffffffffffffffffffffffffffff8116825260801c6020820152f35b9190503461030a576101207ffffffffffffffffffffffffffffffffffffffffffffffffffffffffffffffffc36011261030a5781359260249384359473ffffffffffffffffffffffffffffffffffffffff928387169384880361028a5760c07fffffffffffffffffffffffffffffffffffffffffffffffffffffffffffffffbc36011261028a5761010480359167ffffffffffffffff91828411610ca35736602385011215610ca357838a0135928311610ca35736868486010111610ca3577f000000000000000000000000000000000000000000000000000000000000000092610e1b308561285d565b9481610fe1575b505050610e2e866127d0565b6e22d473030f116ddee9f6b43ac78ba3803b15610fdd579060848b878094868e5197889687957f36c7851600000000000000000000000000000000000000000000000000000000875233908701528d3090870152166044850152881660648401525af18015610fd357908491610fbe575b5050610ec691610eb3610eb892309061285d565b61205e565b610ec06124ab565b906126d1565b958615610f97576805345cdf77eb68f44c5415610f24575b505050610eed8460209661261a565b825190815283858201527fdcbc1c05240f31ff3ad067ef1ee35ce4997762752e3a095284754544f4c709d7833392a361075f6124ef565b7ffffffffffffffffffffffffffffffffffffffffffffffffffffffffffffffc18870197968811610f6e57505050610eed6020958095610f686103e861dead61261a565b96610ede565b6011907f4e487b7100000000000000000000000000000000000000000000000000000000835252fd5b85517ff1ca48b1000000000000000000000000000000000000000000000000000000008152fd5b81610fc891611ece565b61030a578238610e9f565b88513d86823e3d90fd5b8580fd5b6e22d473030f116ddee9f6b43ac78ba391823b1561058d578b51937f2b67b5700000000000000000000000000000000000000000000000000000000085528d3390860152604435868116809103611113578a86015260643586811680910361111357604486015260843565ffffffffffff9081811680910361111757606487015260a43590811680910361111357608486015260c435868116809103611113578593847fffffffffffffffffffffffffffffffffffffffffffffffffffffffffffffffe0601f868f978f9a988186998d9960a489015260e43560c489015261010060e489015287015261012496018686013785858286010152011681010301925af18015611109576110f5575b8080610e22565b8461110291959295611ece565b92386110ee565b89513d87823e3d90fd5b8980fd5b8a80fd5b90503461030a5760207ffffffffffffffffffffffffffffffffffffffffffffffffffffffffffffffffc36011261030a573573ffffffffffffffffffffffffffffffffffffffff8116810361030a576020926338377508600c525281600c20549051908152f35b90503461030a5760207ffffffffffffffffffffffffffffffffffffffffffffffffffffffffffffffffc36011261030a57359173ffffffffffffffffffffffffffffffffffffffff831683036109e6575061088b602092611fbc565b50503461028a57817ffffffffffffffffffffffffffffffffffffffffffffffffffffffffffffffffc36011261028a576020906005549051908152f35b90503461030a5760207ffffffffffffffffffffffffffffffffffffffffffffffffffffffffffffffffc36011261030a573573ffffffffffffffffffffffffffffffffffffffff8116810361030a576020926387a211a2600c525281600c20549051908152f35b50503461028a57817ffffffffffffffffffffffffffffffffffffffffffffffffffffffffffffffffc36011261028a576020905173ffffffffffffffffffffffffffffffffffffffff7f0000000000000000000000000000000000000000000000000000000000000000168152f35b50503461028a57817ffffffffffffffffffffffffffffffffffffffffffffffffffffffffffffffffc36011261028a576020916bffffffffffffffffffffffff600b5416801560001461134657509051908152f35b610ec08173ffffffffffffffffffffffffffffffffffffffff61136d945460081c16612022565b9061075f565b50503461028a57817ffffffffffffffffffffffffffffffffffffffffffffffffffffffffffffffffc36011261028a57602090516e22d473030f116ddee9f6b43ac78ba38152f35b50503461028a57817ffffffffffffffffffffffffffffffffffffffffffffffffffffffffffffffffc36011261028a57602090517f00000000000000000000000000000000000000000000000000000000000000008152f35b83903461028a5760207ffffffffffffffffffffffffffffffffffffffffffffffffffffffffffffffffc36011261028a573573ffffffffffffffffffffffffffffffffffffffff8116810361028a5780611470610a2092611fbc565b69ffffffffffffffffffff600b5460601c169161232a565b50503461028a57817ffffffffffffffffffffffffffffffffffffffffffffffffffffffffffffffffc36011261028a576020906bffffffffffffffffffffffff600b54169051908152f35b90503461030a57827ffffffffffffffffffffffffffffffffffffffffffffffffffffffffffffffffc36011261030a5760209250549051908152f35b50503461028a57817ffffffffffffffffffffffffffffffffffffffffffffffffffffffffffffffffc36011261028a576020906008549051908152f35b90503461030a5760207ffffffffffffffffffffffffffffffffffffffffffffffffffffffffffffffffc36011261030a57359073ffffffffffffffffffffffffffffffffffffffff808316809303610c9f577f2a0d5dc7fbc8045f59cb33c736f04f9a9b565e9f425912f9cd2bafdebd50cead926115c86123c7565b60025491817fffffffffffffffffffffffff00000000000000000000000000000000000000008416176002558351921682526020820152a180f35b50503461028a57817ffffffffffffffffffffffffffffffffffffffffffffffffffffffffffffffffc36011261028a5760209061088b6124ab565b8284346109e657817ffffffffffffffffffffffffffffffffffffffffffffffffffffffffffffffffc3601126109e657823573ffffffffffffffffffffffffffffffffffffffff8116810361028a57602052637f5e9f20600c523381526034600c209283549060243582019182106116eb575080602094558152602c5160601c907f8c5be1e5ebec7d5bd14f71427d1e84f3dd0314c0f7b2291e5b200ac8c7c3b925843392a35160018152f35b63f90670668352601cfd5b50503461028a57817ffffffffffffffffffffffffffffffffffffffffffffffffffffffffffffffffc36011261028a5760209061088b6125a8565b8284346109e657807ffffffffffffffffffffffffffffffffffffffffffffffffffffffffffffffffc3601126109e6576020825180947f313ce5670000000000000000000000000000000000000000000000000000000082528173ffffffffffffffffffffffffffffffffffffffff7f0000000000000000000000000000000000000000000000000000000000000000165afa9283156118205781936117df575b60208460ff855191168152f35b9092506020813d8211611818575b816117fa60209383611ece565b8101031261030a57519160ff831683036109e6575060ff60206117d2565b3d91506117ed565b509051903d90823e3d90fd5b8284346109e65760607ffffffffffffffffffffffffffffffffffffffffffffffffffffffffffffffffc3601126109e65773ffffffffffffffffffffffffffffffffffffffff8335818116929183820361030a57602435908116810361030a576044359160601b92602096338852600c94637f5e9f20811786526034862080547fffffffffffffffffffffffffffffffffffffffffffffffffffffffffffffffff810361192e575b50506387a211a217855287852090815490818611610765575084900390555284822081815401905584525160601c907fddf252ad1be2c89b69c2b068fc378daa952ba7f163c4a11628f55a4df523b3ef8480a35160018152f35b8087116119455786900390556387a211a28a6118d4565b836313be252b8652601cfd5b83833461028a5760807ffffffffffffffffffffffffffffffffffffffffffffffffffffffffffffffffc36011261028a5782359060643590604435906024356119986123c7565b67016345785d8a00008511611a79576706f05b59d3b2000084108015611aab575b611a7957600183108015611aa1575b611a79576301e133808086046003558481028181048603611a4d5791611a3486611a2f60809896948c611a1e7ff58b8cc439edada25fd9495b7364aeb1d737dbef59be1cf62e0cc4001c44a3cd9c9a98876126d1565b905586600755826006558685612714565b6126d1565b600555815194855260208501528301526060820152a180f35b60248860118b7f4e487b7100000000000000000000000000000000000000000000000000000000835252fd5b8682517fe49b3b30000000000000000000000000000000000000000000000000000000008152fd5b50600a83116119c8565b50670d2f13f7789f000084116119b9565b90503461030a5760207ffffffffffffffffffffffffffffffffffffffffffffffffffffffffffffffffc36011261030a57803590611af86123c7565b6702c68af0bb1400008211611b415750907faaa68312e2ea9d50e16af5068410ab56e1a1fd06037b1a35664812c30f82146091600854908060085582519182526020820152a180f35b82517fe49b3b30000000000000000000000000000000000000000000000000000000008152fd5b83833461028a5760207ffffffffffffffffffffffffffffffffffffffffffffffffffffffffffffffffc36011261028a5773ffffffffffffffffffffffffffffffffffffffff90833582811691828203610ca35784549360ff851615611c94577fffffffffffffffffffffffffffffffffffffffffffffffffffffffffffffff008095168655611bf66123c7565b7f0000000000000000000000000000000000000000000000000000000000000000168314611c6c576001949550611c39611c30308461285d565b80933390612814565b519081527f6d25be279134f4ecaa4770aff0c3d916d9e7c5ef37b65ed95dbdba411f5d54d560203392a382541617815580f35b8590517fb5d8f391000000000000000000000000000000000000000000000000000000008152fd5b8682517f37ed32e8000000000000000000000000000000000000000000000000000000008152fd5b50503461028a57817ffffffffffffffffffffffffffffffffffffffffffffffffffffffffffffffffc36011261028a576020906006549051908152f35b50503461028a57817ffffffffffffffffffffffffffffffffffffffffffffffffffffffffffffffffc36011261028a576020906009549051908152f35b50503461028a57817ffffffffffffffffffffffffffffffffffffffffffffffffffffffffffffffffc36011261028a576020906805345cdf77eb68f44c549051908152f35b90503461030a57817ffffffffffffffffffffffffffffffffffffffffffffffffffffffffffffffffc36011261030a573573ffffffffffffffffffffffffffffffffffffffff8116810361030a5791602092602435908452637f5e9f20600c52338252806034600c20558152602c5160601c907f8c5be1e5ebec7d5bd14f71427d1e84f3dd0314c0f7b2291e5b200ac8c7c3b925843392a35160018152f35b50503461028a57817ffffffffffffffffffffffffffffffffffffffffffffffffffffffffffffffffc36011261028a57610c1b90611e56611f78565b905191829182611e84565b60005b838110611e745750506000910152565b8181015183820152602001611e64565b7fffffffffffffffffffffffffffffffffffffffffffffffffffffffffffffffe0601f60409360208452611ec78151809281602088015260208888019101611e61565b0116010190565b90601f7fffffffffffffffffffffffffffffffffffffffffffffffffffffffffffffffe0910116810190811067ffffffffffffffff821117611f0f57604052565b7f4e487b7100000000000000000000000000000000000000000000000000000000600052604160045260246000fd5b67ffffffffffffffff8111611f0f57601f017fffffffffffffffffffffffffffffffffffffffffffffffffffffffffffffffe01660200190565b611f826012611f3e565b90611f906040519283611ece565b601282527f4379676e75733a20426f72726f7761626c6500000000000000000000000000006020830152565b73ffffffffffffffffffffffffffffffffffffffff16600052600a6020526040600020548060801c801561201b57612018916fffffffffffffffffffffffffffffffff69ffffffffffffffffffff600b5460601c169116612714565b90565b5050600090565b9190820180921161202f57565b7f4e487b7100000000000000000000000000000000000000000000000000000000600052601160045260246000fd5b9190820391821161202f57565b600b54600854670de0b6b3a764000090810390811161202f576120999065ffffffffffff8360b01c16612688565b73ffffffffffffffffffffffffffffffffffffffff6bffffffffffffffffffffffff8160005460081c16931680930181811161202f57169182156120e957612018926120e4916126d1565b612688565b505050600090565b600b5463ffffffff42811660e083901c80820383811161202f576bffffffffffffffffffffffff918286169460009169ffffffffffffffffffff73ffffffffffffffffffffffffffffffffffffffff845460081c169860601c16951480156122c1575b6122b85761216286886122c9565b92169384830294838604148315171561228b578061219761219d9261219161218a8a8a612688565b809a612022565b97612688565b90612022565b906c0100000000000000000000000085101561227e576a010000000000000000000082101561227e57660100000000000083101561227e5750917f875352fb3fadeb8c0be7cbbe8ff761b308fa7033470cd0287f02f3436fd76cb99593917bffffffffffff000000000000000000000000000000000000000000006060969475ffffffffffffffffffff0000000000000000000000007fffffffff000000000000000000000000000000000000000000000000000000004260e01b1694861691891b16179160b01b161717600b5560405192835260208301526040820152a1565b6335278d1290526004601cfd5b6024827f4e487b710000000000000000000000000000000000000000000000000000000081526011600452fd5b50505050505050565b508515612154565b90610ec0816122d793612022565b60065480821115612319579061231461230b612018936123056122fc60045483612688565b60035490612022565b9361205e565b60055490612688565b612022565b506122fc6120189160045490612688565b91909173ffffffffffffffffffffffffffffffffffffffff9081600254169081156123c057813b15610305576000606492819560405197889687957fd98320d5000000000000000000000000000000000000000000000000000000008752166004860152602485015260448401525af180156123b4576123a75750565b60006123b291611ece565b565b6040513d6000823e3d90fd5b5050505050565b6040517ff851a44000000000000000000000000000000000000000000000000000000000815273ffffffffffffffffffffffffffffffffffffffff90602081600481857f0000000000000000000000000000000000000000000000000000000000000000165afa9081156123b457600091612471575b5016330361244757565b60046040517f63ac75a2000000000000000000000000000000000000000000000000000000008152fd5b6020813d82116124a3575b8161248960209383611ece565b8101031261028a57519082821682036109e657503861243d565b3d915061247c565b6805345cdf77eb68f44c54600090806124cc575050670de0b6b3a764000090565b73ffffffffffffffffffffffffffffffffffffffff612018925460081c166126d1565b7f3145c2b643834867f2c0a8cac8a48218307687911615c0ed01412a09dd163b66602061254461253f307f000000000000000000000000000000000000000000000000000000000000000061285d565b6127d0565b6000547fffffffffffffffffffffff0000000000000000000000000000000000000000ff74ffffffffffffffffffffffffffffffffffffffff008360081b1691161760005573ffffffffffffffffffffffffffffffffffffffff60405191168152a1565b60a06040516125b5611f78565b602081519101207f8b73c3c69bb8fe3d512ecc4cf759cc79239f7b179b0ffacaa9a75d522b39400f825260208201527fc89efdaa54c0f20c7adf612882df0950f5a951637e0307cdcb4c672f298b8bc660408201524660608201523060808201522090565b6805345cdf77eb68f44c80549083820191821061267a57556387a211a2600c526000526020600c20818154019055602052600c5160601c60007fddf252ad1be2c89b69c2b068fc378daa952ba7f163c4a11628f55a4df523b3ef602080a3565b63e5cfe9576000526004601cfd5b90807fffffffffffffffffffffffffffffffffffffffffffffffffffffffffffffffff04821181026126c357670de0b6b3a764000091020490565b63bac65e5b6000526004601cfd5b670de0b6b3a7640000907812725dd1d243aba0e75fe645cc4873f9e65afe688c928e1f21811182021583021561270657020490565b637c5f487d6000526004601cfd5b91600092828102927fffffffffffffffffffffffffffffffffffffffffffffffffffffffffffffffff81830991848310850180840393146127b457828411156127a757908391099060018386038416808080960460028082600302188083028203028083028203028083028203028083028203028083028203028092029003029703040190848311900302920304170290565b63ae47f70286526004601cfd5b5050509182156127c357500490565b63ae47f70290526004601cfd5b740100000000000000000000000000000000000000008110156128065773ffffffffffffffffffffffffffffffffffffffff1690565b6335278d126000526004601cfd5b60109260209260145260345260446000938480936fa9059cbb00000000000000000000000082525af13d15600183511417161561285057603452565b6390b8ec1890526004601cfd5b602460106020939284936014526f70a082310000000000000000000000006000525afa601f3d1116602051029056fea164736f6c6343000811000a",
  "linkReferences": {},
  "deployedLinkReferences": {}
}