{
  "_format": "hh-sol-artifact-1",
  "contractName": "CygnusBorrowModel",
  "sourceName": "contracts/cygnus-core/CygnusBorrowModel.sol",
  "abi": [
    {
      "inputs": [],
      "stateMutability": "nonpayable",
      "type": "constructor"
    },
    {
      "inputs": [
        {
          "internalType": "uint256",
          "name": "min",
          "type": "uint256"
        },
        {
          "internalType": "uint256",
          "name": "max",
          "type": "uint256"
        },
        {
          "internalType": "uint256",
          "name": "value",
          "type": "uint256"
        }
      ],
      "name": "CygnusBorrowControl__ParameterNotInRange",
      "type": "error"
    },
    {
      "inputs": [],
      "name": "CygnusTerminal__CantMintZeroShares",
      "type": "error"
    },
    {
      "inputs": [],
      "name": "CygnusTerminal__CantRedeemZeroAssets",
      "type": "error"
    },
    {
      "inputs": [
        {
          "internalType": "address",
          "name": "token",
          "type": "address"
        },
        {
          "internalType": "address",
          "name": "underlying",
          "type": "address"
        }
      ],
      "name": "CygnusTerminal__CantSweepUnderlying",
      "type": "error"
    },
    {
      "inputs": [
        {
          "internalType": "address",
          "name": "sender",
          "type": "address"
        },
        {
          "internalType": "address",
          "name": "admin",
          "type": "address"
        }
      ],
      "name": "CygnusTerminal__MsgSenderNotAdmin",
      "type": "error"
    },
    {
      "inputs": [
        {
          "internalType": "address",
          "name": "owner",
          "type": "address"
        },
        {
          "internalType": "uint8",
          "name": "v",
          "type": "uint8"
        },
        {
          "internalType": "bytes32",
          "name": "r",
          "type": "bytes32"
        },
        {
          "internalType": "bytes32",
          "name": "s",
          "type": "bytes32"
        }
      ],
      "name": "ERC20Permit__InvalidSignature",
      "type": "error"
    },
    {
      "inputs": [],
      "name": "ERC20Permit__OwnerZeroAddress",
      "type": "error"
    },
    {
      "inputs": [
        {
          "internalType": "uint256",
          "name": "currentTime",
          "type": "uint256"
        },
        {
          "internalType": "uint256",
          "name": "deadline",
          "type": "uint256"
        }
      ],
      "name": "ERC20Permit__PermitExpired",
      "type": "error"
    },
    {
      "inputs": [],
      "name": "ERC20Permit__RecoveredOwnerZeroAddress",
      "type": "error"
    },
    {
      "inputs": [],
      "name": "ERC20Permit__SpenderZeroAddress",
      "type": "error"
    },
    {
      "inputs": [],
      "name": "ERC20__ApproveOwnerZeroAddress",
      "type": "error"
    },
    {
      "inputs": [],
      "name": "ERC20__ApproveSpenderZeroAddress",
      "type": "error"
    },
    {
      "inputs": [
        {
          "internalType": "uint256",
          "name": "accountBalance",
          "type": "uint256"
        },
        {
          "internalType": "uint256",
          "name": "burnAmount",
          "type": "uint256"
        }
      ],
      "name": "ERC20__BurnUnderflow",
      "type": "error"
    },
    {
      "inputs": [],
      "name": "ERC20__BurnZeroAddress",
      "type": "error"
    },
    {
      "inputs": [
        {
          "internalType": "uint256",
          "name": "allowance",
          "type": "uint256"
        },
        {
          "internalType": "uint256",
          "name": "amount",
          "type": "uint256"
        }
      ],
      "name": "ERC20__InsufficientAllowance",
      "type": "error"
    },
    {
      "inputs": [
        {
          "internalType": "uint256",
          "name": "senderBalance",
          "type": "uint256"
        },
        {
          "internalType": "uint256",
          "name": "amount",
          "type": "uint256"
        }
      ],
      "name": "ERC20__InsufficientBalance",
      "type": "error"
    },
    {
      "inputs": [],
      "name": "ERC20__MintZeroAddress",
      "type": "error"
    },
    {
      "inputs": [],
      "name": "ERC20__TransferRecipientZeroAddress",
      "type": "error"
    },
    {
      "inputs": [],
      "name": "ERC20__TransferSenderZeroAddress",
      "type": "error"
    },
    {
      "inputs": [],
      "name": "ReentrantCall",
      "type": "error"
    },
    {
      "anonymous": false,
      "inputs": [
        {
          "indexed": false,
          "internalType": "uint256",
          "name": "cashStored",
          "type": "uint256"
        },
        {
          "indexed": false,
          "internalType": "uint256",
          "name": "interestAccumulated",
          "type": "uint256"
        },
        {
          "indexed": false,
          "internalType": "uint256",
          "name": "borrowIndexStored",
          "type": "uint256"
        },
        {
          "indexed": false,
          "internalType": "uint256",
          "name": "totalBorrowsStored",
          "type": "uint256"
        },
        {
          "indexed": false,
          "internalType": "uint256",
          "name": "borrowRateStored",
          "type": "uint256"
        }
      ],
      "name": "AccrueInterest",
      "type": "event"
    },
    {
      "anonymous": false,
      "inputs": [
        {
          "indexed": true,
          "internalType": "address",
          "name": "owner",
          "type": "address"
        },
        {
          "indexed": true,
          "internalType": "address",
          "name": "spender",
          "type": "address"
        },
        {
          "indexed": false,
          "internalType": "uint256",
          "name": "amount",
          "type": "uint256"
        }
      ],
      "name": "Approval",
      "type": "event"
    },
    {
      "anonymous": false,
      "inputs": [
        {
          "indexed": true,
          "internalType": "address",
          "name": "sender",
          "type": "address"
        },
        {
          "indexed": true,
          "internalType": "address",
          "name": "recipient",
          "type": "address"
        },
        {
          "indexed": false,
          "internalType": "uint256",
          "name": "assets",
          "type": "uint256"
        },
        {
          "indexed": false,
          "internalType": "uint256",
          "name": "shares",
          "type": "uint256"
        }
      ],
      "name": "Deposit",
      "type": "event"
    },
    {
      "anonymous": false,
      "inputs": [
        {
          "indexed": false,
          "internalType": "address",
          "name": "oldBorrowRewarder",
          "type": "address"
        },
        {
          "indexed": false,
          "internalType": "address",
          "name": "newBorrowRewarder",
          "type": "address"
        }
      ],
      "name": "NewCygnusBorrowRewarder",
      "type": "event"
    },
    {
      "anonymous": false,
      "inputs": [
        {
          "indexed": false,
          "internalType": "uint256",
          "name": "baseRatePerYear",
          "type": "uint256"
        },
        {
          "indexed": false,
          "internalType": "uint256",
          "name": "multiplierPerYear",
          "type": "uint256"
        },
        {
          "indexed": false,
          "internalType": "uint256",
          "name": "kinkMultiplier_",
          "type": "uint256"
        },
        {
          "indexed": false,
          "internalType": "uint256",
          "name": "kinkUtilizationRate_",
          "type": "uint256"
        }
      ],
      "name": "NewInterestRateParameters",
      "type": "event"
    },
    {
      "anonymous": false,
      "inputs": [
        {
          "indexed": false,
          "internalType": "uint256",
          "name": "oldReserveFactor",
          "type": "uint256"
        },
        {
          "indexed": false,
          "internalType": "uint256",
          "name": "newReserveFactor",
          "type": "uint256"
        }
      ],
      "name": "NewReserveFactor",
      "type": "event"
    },
    {
      "anonymous": false,
      "inputs": [
        {
          "indexed": false,
          "internalType": "uint256",
          "name": "totalBalance",
          "type": "uint256"
        }
      ],
      "name": "Sync",
      "type": "event"
    },
    {
      "anonymous": false,
      "inputs": [
        {
          "indexed": true,
          "internalType": "address",
          "name": "from",
          "type": "address"
        },
        {
          "indexed": true,
          "internalType": "address",
          "name": "to",
          "type": "address"
        },
        {
          "indexed": false,
          "internalType": "uint256",
          "name": "amount",
          "type": "uint256"
        }
      ],
      "name": "Transfer",
      "type": "event"
    },
    {
      "anonymous": false,
      "inputs": [
        {
          "indexed": true,
          "internalType": "address",
          "name": "sender",
          "type": "address"
        },
        {
          "indexed": true,
          "internalType": "address",
          "name": "recipient",
          "type": "address"
        },
        {
          "indexed": true,
          "internalType": "address",
          "name": "owner",
          "type": "address"
        },
        {
          "indexed": false,
          "internalType": "uint256",
          "name": "assets",
          "type": "uint256"
        },
        {
          "indexed": false,
          "internalType": "uint256",
          "name": "shares",
          "type": "uint256"
        }
      ],
      "name": "Withdraw",
      "type": "event"
    },
    {
      "inputs": [],
      "name": "DOMAIN_SEPARATOR",
      "outputs": [
        {
          "internalType": "bytes32",
          "name": "",
          "type": "bytes32"
        }
      ],
      "stateMutability": "view",
      "type": "function"
    },
    {
      "inputs": [],
      "name": "PERMIT_TYPEHASH",
      "outputs": [
        {
          "internalType": "bytes32",
          "name": "",
          "type": "bytes32"
        }
      ],
      "stateMutability": "view",
      "type": "function"
    },
    {
      "inputs": [],
      "name": "accrueInterest",
      "outputs": [],
      "stateMutability": "nonpayable",
      "type": "function"
    },
    {
      "inputs": [
        {
          "internalType": "address",
          "name": "owner",
          "type": "address"
        },
        {
          "internalType": "address",
          "name": "spender",
          "type": "address"
        }
      ],
      "name": "allowance",
      "outputs": [
        {
          "internalType": "uint256",
          "name": "",
          "type": "uint256"
        }
      ],
      "stateMutability": "view",
      "type": "function"
    },
    {
      "inputs": [
        {
          "internalType": "address",
          "name": "spender",
          "type": "address"
        },
        {
          "internalType": "uint256",
          "name": "amount",
          "type": "uint256"
        }
      ],
      "name": "approve",
      "outputs": [
        {
          "internalType": "bool",
          "name": "",
          "type": "bool"
        }
      ],
      "stateMutability": "nonpayable",
      "type": "function"
    },
    {
      "inputs": [
        {
          "internalType": "address",
          "name": "account",
          "type": "address"
        }
      ],
      "name": "balanceOf",
      "outputs": [
        {
          "internalType": "uint256",
          "name": "",
          "type": "uint256"
        }
      ],
      "stateMutability": "view",
      "type": "function"
    },
    {
      "inputs": [],
      "name": "baseRatePerSecond",
      "outputs": [
        {
          "internalType": "uint256",
          "name": "",
          "type": "uint256"
        }
      ],
      "stateMutability": "view",
      "type": "function"
    },
    {
      "inputs": [],
      "name": "borrowIndex",
      "outputs": [
        {
          "internalType": "uint112",
          "name": "",
          "type": "uint112"
        }
      ],
      "stateMutability": "view",
      "type": "function"
    },
    {
      "inputs": [],
      "name": "borrowRate",
      "outputs": [
        {
          "internalType": "uint112",
          "name": "",
          "type": "uint112"
        }
      ],
      "stateMutability": "view",
      "type": "function"
    },
    {
      "inputs": [],
      "name": "collateral",
      "outputs": [
        {
          "internalType": "address",
          "name": "",
          "type": "address"
        }
      ],
      "stateMutability": "view",
      "type": "function"
    },
    {
      "inputs": [],
      "name": "cygnusBorrowRewarder",
      "outputs": [
        {
          "internalType": "address",
          "name": "",
          "type": "address"
        }
      ],
      "stateMutability": "view",
      "type": "function"
    },
    {
      "inputs": [],
      "name": "cygnusNebulaOracle",
      "outputs": [
        {
          "internalType": "contract ICygnusNebulaOracle",
          "name": "",
          "type": "address"
        }
      ],
      "stateMutability": "view",
      "type": "function"
    },
    {
      "inputs": [],
      "name": "decimals",
      "outputs": [
        {
          "internalType": "uint8",
          "name": "",
          "type": "uint8"
        }
      ],
      "stateMutability": "view",
      "type": "function"
    },
    {
      "inputs": [
        {
          "internalType": "uint256",
          "name": "assets",
          "type": "uint256"
        },
        {
          "internalType": "address",
          "name": "recipient",
          "type": "address"
        }
      ],
      "name": "deposit",
      "outputs": [
        {
          "internalType": "uint256",
          "name": "shares",
          "type": "uint256"
        }
      ],
      "stateMutability": "nonpayable",
      "type": "function"
    },
    {
      "inputs": [],
      "name": "exchangeRate",
      "outputs": [
        {
          "internalType": "uint256",
          "name": "",
          "type": "uint256"
        }
      ],
      "stateMutability": "nonpayable",
      "type": "function"
    },
    {
      "inputs": [
        {
          "internalType": "address",
          "name": "borrower",
          "type": "address"
        }
      ],
      "name": "getBorrowBalance",
      "outputs": [
        {
          "internalType": "uint256",
          "name": "",
          "type": "uint256"
        }
      ],
      "stateMutability": "view",
      "type": "function"
    },
    {
      "inputs": [],
      "name": "hangar18",
      "outputs": [
        {
          "internalType": "contract IHangar18",
          "name": "",
          "type": "address"
        }
      ],
      "stateMutability": "view",
      "type": "function"
    },
    {
      "inputs": [],
      "name": "jumpMultiplierPerSecond",
      "outputs": [
        {
          "internalType": "uint256",
          "name": "",
          "type": "uint256"
        }
      ],
      "stateMutability": "view",
      "type": "function"
    },
    {
      "inputs": [],
      "name": "kinkMultiplier",
      "outputs": [
        {
          "internalType": "uint256",
          "name": "",
          "type": "uint256"
        }
      ],
      "stateMutability": "view",
      "type": "function"
    },
    {
      "inputs": [],
      "name": "kinkUtilizationRate",
      "outputs": [
        {
          "internalType": "uint256",
          "name": "",
          "type": "uint256"
        }
      ],
      "stateMutability": "view",
      "type": "function"
    },
    {
      "inputs": [],
      "name": "lastAccrualTimestamp",
      "outputs": [
        {
          "internalType": "uint32",
          "name": "",
          "type": "uint32"
        }
      ],
      "stateMutability": "view",
      "type": "function"
    },
    {
      "inputs": [],
      "name": "multiplierPerSecond",
      "outputs": [
        {
          "internalType": "uint256",
          "name": "",
          "type": "uint256"
        }
      ],
      "stateMutability": "view",
      "type": "function"
    },
    {
      "inputs": [],
      "name": "name",
      "outputs": [
        {
          "internalType": "string",
          "name": "",
          "type": "string"
        }
      ],
      "stateMutability": "view",
      "type": "function"
    },
    {
      "inputs": [
        {
          "internalType": "address",
          "name": "",
          "type": "address"
        }
      ],
      "name": "nonces",
      "outputs": [
        {
          "internalType": "uint256",
          "name": "",
          "type": "uint256"
        }
      ],
      "stateMutability": "view",
      "type": "function"
    },
    {
      "inputs": [
        {
          "internalType": "address",
          "name": "owner",
          "type": "address"
        },
        {
          "internalType": "address",
          "name": "spender",
          "type": "address"
        },
        {
          "internalType": "uint256",
          "name": "value",
          "type": "uint256"
        },
        {
          "internalType": "uint256",
          "name": "deadline",
          "type": "uint256"
        },
        {
          "internalType": "uint8",
          "name": "v",
          "type": "uint8"
        },
        {
          "internalType": "bytes32",
          "name": "r",
          "type": "bytes32"
        },
        {
          "internalType": "bytes32",
          "name": "s",
          "type": "bytes32"
        }
      ],
      "name": "permit",
      "outputs": [],
      "stateMutability": "nonpayable",
      "type": "function"
    },
    {
      "inputs": [
        {
          "internalType": "uint256",
          "name": "shares",
          "type": "uint256"
        },
        {
          "internalType": "address",
          "name": "recipient",
          "type": "address"
        },
        {
          "internalType": "address",
          "name": "owner",
          "type": "address"
        }
      ],
      "name": "redeem",
      "outputs": [
        {
          "internalType": "uint256",
          "name": "assets",
          "type": "uint256"
        }
      ],
      "stateMutability": "nonpayable",
      "type": "function"
    },
    {
      "inputs": [],
      "name": "reserveFactor",
      "outputs": [
        {
          "internalType": "uint256",
          "name": "",
          "type": "uint256"
        }
      ],
      "stateMutability": "view",
      "type": "function"
    },
    {
      "inputs": [
        {
          "internalType": "address",
          "name": "newBorrowRewarder",
          "type": "address"
        }
      ],
      "name": "setCygnusBorrowRewarder",
      "outputs": [],
      "stateMutability": "nonpayable",
      "type": "function"
    },
    {
      "inputs": [
        {
          "internalType": "uint256",
          "name": "baseRatePerYear_",
          "type": "uint256"
        },
        {
          "internalType": "uint256",
          "name": "multiplierPerYear_",
          "type": "uint256"
        },
        {
          "internalType": "uint256",
          "name": "kinkMultiplier_",
          "type": "uint256"
        },
        {
          "internalType": "uint256",
          "name": "kinkUtilizationRate_",
          "type": "uint256"
        }
      ],
      "name": "setInterestRateModel",
      "outputs": [],
      "stateMutability": "nonpayable",
      "type": "function"
    },
    {
      "inputs": [
        {
          "internalType": "uint256",
          "name": "newReserveFactor",
          "type": "uint256"
        }
      ],
      "name": "setReserveFactor",
      "outputs": [],
      "stateMutability": "nonpayable",
      "type": "function"
    },
    {
      "inputs": [],
      "name": "shuttleId",
      "outputs": [
        {
          "internalType": "uint256",
          "name": "",
          "type": "uint256"
        }
      ],
      "stateMutability": "view",
      "type": "function"
    },
    {
      "inputs": [],
      "name": "supplyRate",
      "outputs": [
        {
          "internalType": "uint256",
          "name": "",
          "type": "uint256"
        }
      ],
      "stateMutability": "view",
      "type": "function"
    },
    {
      "inputs": [
        {
          "internalType": "address",
          "name": "token",
          "type": "address"
        }
      ],
      "name": "sweepToken",
      "outputs": [],
      "stateMutability": "nonpayable",
      "type": "function"
    },
    {
      "inputs": [],
      "name": "symbol",
      "outputs": [
        {
          "internalType": "string",
          "name": "",
          "type": "string"
        }
      ],
      "stateMutability": "view",
      "type": "function"
    },
    {
      "inputs": [],
      "name": "totalBalance",
      "outputs": [
        {
          "internalType": "uint256",
          "name": "",
          "type": "uint256"
        }
      ],
      "stateMutability": "view",
      "type": "function"
    },
    {
      "inputs": [],
      "name": "totalBorrows",
      "outputs": [
        {
          "internalType": "uint128",
          "name": "",
          "type": "uint128"
        }
      ],
      "stateMutability": "view",
      "type": "function"
    },
    {
      "inputs": [],
      "name": "totalReserves",
      "outputs": [
        {
          "internalType": "uint128",
          "name": "",
          "type": "uint128"
        }
      ],
      "stateMutability": "view",
      "type": "function"
    },
    {
      "inputs": [],
      "name": "totalSupply",
      "outputs": [
        {
          "internalType": "uint256",
          "name": "",
          "type": "uint256"
        }
      ],
      "stateMutability": "view",
      "type": "function"
    },
    {
      "inputs": [
        {
          "internalType": "address",
          "name": "borrower",
          "type": "address"
        }
      ],
      "name": "trackBorrow",
      "outputs": [],
      "stateMutability": "nonpayable",
      "type": "function"
    },
    {
      "inputs": [
        {
          "internalType": "address",
          "name": "recipient",
          "type": "address"
        },
        {
          "internalType": "uint256",
          "name": "amount",
          "type": "uint256"
        }
      ],
      "name": "transfer",
      "outputs": [
        {
          "internalType": "bool",
          "name": "",
          "type": "bool"
        }
      ],
      "stateMutability": "nonpayable",
      "type": "function"
    },
    {
      "inputs": [
        {
          "internalType": "address",
          "name": "sender",
          "type": "address"
        },
        {
          "internalType": "address",
          "name": "recipient",
          "type": "address"
        },
        {
          "internalType": "uint256",
          "name": "amount",
          "type": "uint256"
        }
      ],
      "name": "transferFrom",
      "outputs": [
        {
          "internalType": "bool",
          "name": "",
          "type": "bool"
        }
      ],
      "stateMutability": "nonpayable",
      "type": "function"
    },
    {
      "inputs": [],
      "name": "underlying",
      "outputs": [
        {
          "internalType": "address",
          "name": "",
          "type": "address"
        }
      ],
      "stateMutability": "view",
      "type": "function"
    },
    {
      "inputs": [],
      "name": "utilizationRate",
      "outputs": [
        {
          "internalType": "uint256",
          "name": "",
          "type": "uint256"
        }
      ],
      "stateMutability": "view",
      "type": "function"
    },
    {
      "inputs": [],
      "name": "version",
      "outputs": [
        {
          "internalType": "string",
          "name": "",
          "type": "string"
        }
      ],
      "stateMutability": "view",
      "type": "function"
    }
  ],
  "bytecode": "0x61014060405267016345785d8a0000600a55670bcbce7f1b150000600e556002600f553480156200002f57600080fd5b5060408051808201825260128152714379676e75733a20426f72726f7761626c6560701b602080830191825283519081019093526000808452805460ff19166001908117825583519394939192859285928592859285928592620000939262000453565b508151620000a990600290602085019062000453565b506003805460ff191660ff92909216919091179055505060405146907f8b73c3c69bb8fe3d512ecc4cf759cc79239f7b179b0ffacaa9a75d522b39400f90620000f5906001906200064a565b60408051918290038220828201825260058352640312e302e360dc1b6020938401528151928301939093528101919091527f06c015bd22b4c69690933c1058878ebdfef31f9aaae40bbe86d8a09fe1b2972c6060820152608081018290523060a082015260c00160408051601f19818403018152919052805160209091012060805250620001879250506200044f9050565b6001600160a01b0316635a412e536040518163ffffffff1660e01b815260040160a060405180830381600087803b158015620001c257600080fd5b505af1158015620001d7573d6000803e3d6000fd5b505050506040513d601f19601f82011682018060405250810190620001fd9190620004f9565b610100526001600160601b0319606091821b811660e05292811b831660c0529290921b1660a05250600092508291506200023690503390565b6001600160a01b0316635a412e536040518163ffffffff1660e01b815260040160a060405180830381600087803b1580156200027157600080fd5b505af115801562000286573d6000803e3d6000fd5b505050506040513d601f19601f82011682018060405250810190620002ac9190620004f9565b50509250925050816001600160a01b03166395d89b416040518163ffffffff1660e01b815260040160006040518083038186803b158015620002ed57600080fd5b505afa15801562000302573d6000803e3d6000fd5b505050506040513d6000823e601f3d908101601f191682016040526200032c91908101906200056c565b6040516020016200033e9190620006ed565b604051602081830303815290604052600290805190602001906200036492919062000453565b50816001600160a01b031663313ce5676040518163ffffffff1660e01b815260040160206040518083038186803b1580156200039f57600080fd5b505afa158015620003b4573d6000803e3d6000fd5b505050506040513d601f19601f82011682018060405250810190620003da919062000620565b6003805460ff191660ff9290921691909117905560601b6001600160601b0319166101205250600060045560138054670de0b6b3a76400006001600160701b0319909116179055620004294290565b6013601c6101000a81548163ffffffff021916908363ffffffff160217905550620007be565b3390565b828054620004619062000752565b90600052602060002090601f016020900481019282620004855760008555620004d0565b82601f10620004a057805160ff1916838001178555620004d0565b82800160010185558215620004d0579182015b82811115620004d0578251825591602001919060010190620004b3565b50620004de929150620004e2565b5090565b5b80821115620004de5760008155600101620004e3565b600080600080600060a0868803121562000511578081fd5b85516200051e81620007a5565b60208701519095506200053181620007a5565b60408701519094506200054481620007a5565b60608701519093506200055781620007a5565b80925050608086015190509295509295909350565b6000602082840312156200057e578081fd5b81516001600160401b038082111562000595578283fd5b818401915084601f830112620005a9578283fd5b815181811115620005be57620005be6200078f565b604051601f8201601f19908116603f01168101908382118183101715620005e957620005e96200078f565b8160405282815287602084870101111562000602578586fd5b620006158360208301602088016200071f565b979650505050505050565b60006020828403121562000632578081fd5b815160ff8116811462000643578182fd5b9392505050565b600080835482600182811c9150808316806200066757607f831692505b60208084108214156200068857634e487b7160e01b87526022600452602487fd5b8180156200069f5760018114620006b157620006df565b60ff19861689528489019650620006df565b60008a815260209020885b86811015620006d75781548b820152908501908301620006bc565b505084890196505b509498975050505050505050565b67021bcb3aaa9a21d160c51b815260008251620007128160088501602087016200071f565b9190910160080192915050565b60005b838110156200073c57818101518382015260200162000722565b838111156200074c576000848401525b50505050565b600181811c908216806200076757607f821691505b602082108114156200078957634e487b7160e01b600052602260045260246000fd5b50919050565b634e487b7160e01b600052604160045260246000fd5b6001600160a01b0381168114620007bb57600080fd5b50565b60805160a05160601c60c05160601c60e05160601c610100516101205160601c6120866200085260003960006106a80152600081816104b50152611bac015260006106d80152600081816104f7015281816108350152818161088c01528181610bb1015281816110d3015261199201526000818161073801526114d20152600081816103f3015261128b01526120866000f3fe608060405234801561001057600080fd5b50600436106102f45760003560e01c806372cf84a711610191578063ad7a672f116100e3578063d505accf11610097578063d935bd9211610071578063d935bd92146106d3578063dd62ed3e146106fa578063e8a24e1d1461073357600080fd5b8063d505accf14610690578063d8dfeb45146106a3578063d90e0264146106ca57600080fd5b8063ba087652116100c8578063ba08765214610637578063c0789dcb1461064a578063c914b4371461067657600080fd5b8063ad7a672f1461061b578063b7f1118a1461062457600080fd5b80639b51099811610145578063aa5af0fd1161011f578063aa5af0fd146105d5578063ad168c9d14610600578063ad2961a31461061357600080fd5b80639b510998146105b1578063a6afed95146105ba578063a9059cbb146105c257600080fd5b80637ecebe00116101765780637ecebe00146105765780638f840ddd1461059657806395d89b41146105a957600080fd5b806372cf84a71461055a5780637d6af0791461056357600080fd5b80633ba0b9a91161024a57806354fd4d50116101fe5780636e553f65116101d85780636e553f65146104df5780636f307dc3146104f257806370a082311461053157600080fd5b806354fd4d50146104745780635f77f891146104b05780636c321c8a146104d757600080fd5b80634322b7141161022f5780634322b7141461043057806346f608ff1461043957806347bd37181461044257600080fd5b80633ba0b9a91461041557806342bf78af1461041d57600080fd5b80631c446983116102ac57806330adf81f1161028657806330adf81f146103a8578063313ce567146103cf5780633644e515146103ee57600080fd5b80631c4469831461036f5780631e44b7fc1461038257806323b872dd1461039557600080fd5b806318160ddd116102dd57806318160ddd1461033a5780631aebf12f146103515780631be195601461035a57600080fd5b806306fdde03146102f9578063095ea7b314610317575b600080fd5b61030161075a565b60405161030e9190611f04565b60405180910390f35b61032a610325366004611e2b565b6107e8565b604051901515815260200161030e565b61034360045481565b60405190815260200161030e565b610343600e5481565b61036d610368366004611d06565b6107fe565b005b61036d61037d366004611e56565b6108f0565b61036d610390366004611ed3565b61098c565b61032a6103a3366004611d76565b6109e0565b6103437f6e71edae12b1b97f4d1f60370fef10105fa2faae0126114a169c64845d6126c981565b6003546103dc9060ff1681565b60405160ff909116815260200161030e565b6103437f000000000000000000000000000000000000000000000000000000000000000081565b610343610a56565b61036d61042b366004611d06565b610a84565b610343600a5481565b610343600c5481565b60125461045c90600160801b90046001600160801b031681565b6040516001600160801b03909116815260200161030e565b6103016040518060400160405280600581526020017f312e302e3000000000000000000000000000000000000000000000000000000081525081565b6103437f000000000000000000000000000000000000000000000000000000000000000081565b610343610b2b565b6103436104ed366004611e6e565b610b7e565b6105197f000000000000000000000000000000000000000000000000000000000000000081565b6040516001600160a01b03909116815260200161030e565b61034361053f366004611d06565b6001600160a01b031660009081526005602052604090205490565b610343600d5481565b610343610571366004611d06565b610cb3565b610343610584366004611d06565b60076020526000908152604090205481565b60125461045c906001600160801b031681565b610301610d25565b610343600f5481565b61036d610d32565b61032a6105d0366004611e2b565b610f15565b6013546105e8906001600160701b031681565b6040516001600160701b03909116815260200161030e565b600954610519906001600160a01b031681565b610343610f22565b61034360085481565b61036d610632366004611d06565b610fca565b610343610645366004611e92565b610feb565b60135461066190600160e01b900463ffffffff1681565b60405163ffffffff909116815260200161030e565b6013546105e890600160701b90046001600160701b031681565b61036d61069e366004611db6565b61117c565b6105197f000000000000000000000000000000000000000000000000000000000000000081565b610343600b5481565b6105197f000000000000000000000000000000000000000000000000000000000000000081565b610343610708366004611d3e565b6001600160a01b03918216600090815260066020908152604080832093909416825291909152205490565b6105197f000000000000000000000000000000000000000000000000000000000000000081565b6001805461076790611fea565b80601f016020809104026020016040519081016040528092919081815260200182805461079390611fea565b80156107e05780601f106107b5576101008083540402835291602001916107e0565b820191906000526020600020905b8154815290600101906020018083116107c357829003601f168201915b505050505081565b60006107f533848461141f565b50600192915050565b60005460ff16610821576040516306fda65d60e31b815260040160405180910390fd5b6000805460ff191690556108336114ce565b7f00000000000000000000000000000000000000000000000000000000000000006001600160a01b0316816001600160a01b031614156108be576040516303b91a9160e31b81526001600160a01b0380831660048301527f00000000000000000000000000000000000000000000000000000000000000001660248201526044015b60405180910390fd5b60006108c98261159d565b90506108df6001600160a01b03831633836115b8565b50506000805460ff19166001179055565b60005460ff16610913576040516306fda65d60e31b815260040160405180910390fd5b6000805460ff191690556109256114ce565b61093960006702c68af0bb14000083611601565b600a80549082905560408051828152602081018490527faaa68312e2ea9d50e16af5068410ab56e1a1fd06037b1a35664812c30f82146091015b60405180910390a150506000805460ff19166001179055565b60005460ff166109af576040516306fda65d60e31b815260040160405180910390fd5b6000805460ff191690556109c16114ce565b6109cd84848484611642565b50506000805460ff191660011790555050565b60006109ed848484611718565b6001600160a01b038416600090815260066020908152604080832033845290915290205482811015610a3c576040516310c6013560e31b815260048101829052602481018490526044016108b5565b610a49853385840361141f565b60019150505b9392505050565b6004546000908015610a7457600854610a6f908261183b565b610a7e565b670de0b6b3a76400005b91505090565b60005460ff16610aa7576040516306fda65d60e31b815260040160405180910390fd5b6000805460ff19169055610ab96114ce565b600980546001600160a01b038381167fffffffffffffffffffffffff000000000000000000000000000000000000000083168117909355604080519190921680825260208201939093527f2a0d5dc7fbc8045f59cb33c736f04f9a9b565e9f425912f9cd2bafdebd50cead9101610973565b601254600090600160801b90046001600160801b031680610b4e57600091505090565b601254600854610a7e916001600160801b031690610b6d908490611f57565b610b779190611fae565b829061183b565b6000805460ff16610ba2576040516306fda65d60e31b815260040160405180910390fd5b6000805460ff19169055610be17f00000000000000000000000000000000000000000000000000000000000000006001600160a01b031633308661188a565b600080610bff610bef610a56565b610bf98484611fae565b9061183b565b925060008311610c225760405163f1ca48b160e01b815260040160405180910390fd5b600454610c4657610c3761dead6103e86118d8565b610c436103e884611fae565b92505b610c5084846118d8565b60408051868152602081018590526001600160a01b0386169133917fdcbc1c05240f31ff3ad067ef1ee35ce4997762752e3a095284754544f4c709d7910160405180910390a35050610ca061198b565b6000805460ff1916600117905592915050565b6001600160a01b03811660009081526010602090815260408083208151808301909252546001600160701b038082168352600160701b9091041691810182905290610d015750600092915050565b60135460208201518251610a4f926001600160701b039182169290821691166119f4565b6002805461076790611fea565b6013544290600160e01b900463ffffffff908116908216811415610d54575050565b601380547bffffffffffffffffffffffffffffffffffffffffffffffffffffffff16600160e01b63ffffffff8516021790556000610d928284611fc5565b6012546008546013549293506001600160801b03600160801b83048116939216916001600160701b031683610dca5750505050505050565b6000610dd7838686611aa3565b90506000610deb63ffffffff881683611f8f565b90506000610df98288611b58565b9050610e058188611f57565b600a54909750610e159082611b58565b610e1f9087611f57565b9550610e2b8285611b58565b610e359085611f57565b6001600160801b03878116908916600160801b026fffffffffffffffffffffffffffffffff191617601255601380546001600160701b038381166dffffffffffffffffffffffffffff19918816600160701b02919091167fffffffff0000000000000000000000000000000000000000000000000000000090921691909117179055604080518781526020810184905290810182905260608101899052608081018590529094507f717fee053884ab1935ba6d0140f6ed225371439611d9674ff445419d6a0fa1b79060a00160405180910390a150505050505050505050565b60006107f5338484611718565b600080610f57600a54670de0b6b3a7640000610f3e9190611fae565b601354600160701b90046001600160701b031690611b58565b905080610f6657600091505090565b601254600854600091610fb7916001600160801b0380831692610f9492600160801b90910490911690611f57565b610f9e9190611fae565b601254600160801b90046001600160801b03169061183b565b9050610fc38183611b58565b9250505090565b610fe881610fd783610cb3565b6013546001600160701b0316611b86565b50565b6000805460ff1661100f576040516306fda65d60e31b815260040160405180910390fd5b6000805460ff19169055336001600160a01b03831614611087576001600160a01b03821660009081526006602090815260408083203384529091529020546000198114611085576110608582611fae565b6001600160a01b03841660009081526006602090815260408083203384529091529020555b505b611099611092610a56565b8590611b58565b9050600081116110bc5760405163e3e8d29760e01b815260040160405180910390fd5b6110c68285611c32565b6110fa6001600160a01b037f00000000000000000000000000000000000000000000000000000000000000001684836115b8565b816001600160a01b0316836001600160a01b03166111153390565b6001600160a01b03167ffbde797d201c681b91056529119e0b02407c7bb96a4a2c75c01fc9667232c8db8488604051611158929190918252602082015260400190565b60405180910390a461116861198b565b6000805460ff191660011790559392505050565b6001600160a01b0387166111a357604051639a321bc760e01b815260040160405180910390fd5b6001600160a01b0386166111ca576040516353fbd1d760e01b815260040160405180910390fd5b428410156111f45760405163075dd20f60e41b8152426004820152602481018590526044016108b5565b6001600160a01b0387811660008181526007602090815260408083208054600180820190925582517f6e71edae12b1b97f4d1f60370fef10105fa2faae0126114a169c64845d6126c98186015280840196909652958c166060860152608085018b905260a085019590955260c08085018a90528151808603909101815260e08501825280519083012061190160f01b6101008601527f000000000000000000000000000000000000000000000000000000000000000061010286015261012280860182905282518087039091018152610142860180845281519185019190912090859052610162860180845281905260ff8a166101828701526101a286018990526101c2860188905291519095919491926101e2808401939192601f1981019281900390910190855afa15801561132f573d6000803e3d6000fd5b5050604051601f1901519150506001600160a01b03811661136357604051637386dbbb60e11b815260040160405180910390fd5b896001600160a01b0316816001600160a01b0316146113b75760405163a1d5f2ed60e01b81526001600160a01b038b16600482015260ff8716602482015260448101869052606481018590526084016108b5565b6001600160a01b038a81166000818152600660209081526040808320948e16808452948252918290208c905590518b81527f8c5be1e5ebec7d5bd14f71427d1e84f3dd0314c0f7b2291e5b200ac8c7c3b925910160405180910390a350505050505050505050565b6001600160a01b038316611446576040516317ba2d8b60e11b815260040160405180910390fd5b6001600160a01b03821661146d57604051632cc8a69760e11b815260040160405180910390fd5b6001600160a01b0383811660008181526006602090815260408083209487168084529482529182902085905590518481527f8c5be1e5ebec7d5bd14f71427d1e84f3dd0314c0f7b2291e5b200ac8c7c3b925910160405180910390a3505050565b60007f00000000000000000000000000000000000000000000000000000000000000006001600160a01b031663f851a4406040518163ffffffff1660e01b815260040160206040518083038186803b15801561152957600080fd5b505afa15801561153d573d6000803e3d6000fd5b505050506040513d601f19601f820116820180604052508101906115619190611d22565b9050336001600160a01b03821614610fe857604051633e7c764160e21b81523360048201526001600160a01b03821660248201526044016108b5565b60006115b26001600160a01b03831630611cdd565b92915050565b81601a5280603a5269a9059cbb00000000000060005260206000604460166000875af13d1560016000511417166115f7576390b8ec186000526004601cfd5b6000603a52505050565b8281108061160e57508181115b1561163d57604051639e7fe3bd60e01b81526004810184905260248101839052604481018290526064016108b5565b505050565b611656600067016345785d8a000086611601565b6116716706f05b59d3b20000670d2f13f7789f000083611601565b61167e6001600a84611601565b61168c6301e1338085611f6f565b600b556116a76116a0826301e13380611f8f565b849061183b565b600c55600f829055600e8190556116c781610bf985856301e133806119f4565b600d556040805185815260208101859052908101839052606081018290527ff58b8cc439edada25fd9495b7364aeb1d737dbef59be1cf62e0cc4001c44a3cd9060800160405180910390a150505050565b6001600160a01b03831661173f5760405163618a6e7d60e11b815260040160405180910390fd5b6001600160a01b0382166117665760405163446ebce960e01b815260040160405180910390fd5b6001600160a01b038316600090815260056020526040902054818110156117aa5760405163355a868d60e01b815260048101829052602481018390526044016108b5565b6001600160a01b038085166000908152600560205260408082208585039055918516815290812080548492906117e1908490611f57565b92505081905550826001600160a01b0316846001600160a01b03167fddf252ad1be2c89b69c2b068fc378daa952ba7f163c4a11628f55a4df523b3ef8460405161182d91815260200190565b60405180910390a350505050565b60007812725dd1d243aba0e75fe645cc4873f9e65afe688c928e1f218311670de0b6b3a76400000215820261187857637c5f487d6000526004601cfd5b50670de0b6b3a7640000919091020490565b6040516323b872dd600052836020528260405281606052602060006064601c6000895af13d1560016000511417166118ca57637939f4246000526004601cfd5b600060605260405250505050565b6001600160a01b0382166118ff5760405163237813dd60e01b815260040160405180910390fd5b6001600160a01b03821660009081526005602052604081208054839290611927908490611f57565b9250508190555080600460008282546119409190611f57565b90915550506040518181526001600160a01b038316906000907fddf252ad1be2c89b69c2b068fc378daa952ba7f163c4a11628f55a4df523b3ef906020015b60405180910390a35050565b60006119b67f000000000000000000000000000000000000000000000000000000000000000061159d565b60088190556040518181529091507f8a0df8ef054fae2c3d2d19a7b322e864870cc9fd3cb07fb9526309c596244bf49060200160405180910390a150565b60008383026000198486098181108201900380611a295783611a1e5763ae47f7026000526004601cfd5b508290049050610a4f565b808411611a3e5763ae47f7026000526004601cfd5b838587096000858103861695869004956003870260029081188089028203028089028203028089028203028089028203028089028203028089029091030291819003819004600101858411909403939093029190930391909104170290509392505050565b600080611ac583611ab48688611f57565b611abe9190611fae565b859061183b565b9050600e548111611af357600b54600c54611ae1908390611b58565b611aeb9190611f57565b915050610a4f565b6000600b54611b0f600c54600e54611b5890919063ffffffff16565b611b199190611f57565b90506000600e5483611b2b9190611fae565b905081611b43600d5483611b5890919063ffffffff16565b611b4d9190611f57565b979650505050505050565b600081600019048311820215611b765763bac65e5b6000526004601cfd5b50670de0b6b3a764000091020490565b6009546001600160a01b031680611b9d5750505050565b604051632b7cf7cb60e11b81527f000000000000000000000000000000000000000000000000000000000000000060048201526001600160a01b03858116602483015260448201859052606482018490528216906356f9ef9690608401600060405180830381600087803b158015611c1457600080fd5b505af1158015611c28573d6000803e3d6000fd5b5050505050505050565b6001600160a01b038216611c5957604051630b5da42b60e01b815260040160405180910390fd5b6001600160a01b03821660009081526005602052604081208054839290611c81908490611fae565b925050819055508060046000828254611c9a9190611fae565b90915550506040518181526000906001600160a01b038416907fddf252ad1be2c89b69c2b068fc378daa952ba7f163c4a11628f55a4df523b3ef9060200161197f565b60006370a08231600052816020526020806024601c865afa601f3d111660205102905092915050565b600060208284031215611d17578081fd5b8135610a4f8161203b565b600060208284031215611d33578081fd5b8151610a4f8161203b565b60008060408385031215611d50578081fd5b8235611d5b8161203b565b91506020830135611d6b8161203b565b809150509250929050565b600080600060608486031215611d8a578081fd5b8335611d958161203b565b92506020840135611da58161203b565b929592945050506040919091013590565b600080600080600080600060e0888a031215611dd0578283fd5b8735611ddb8161203b565b96506020880135611deb8161203b565b95506040880135945060608801359350608088013560ff81168114611e0e578384fd5b9699959850939692959460a0840135945060c09093013592915050565b60008060408385031215611e3d578182fd5b8235611e488161203b565b946020939093013593505050565b600060208284031215611e67578081fd5b5035919050565b60008060408385031215611e80578182fd5b823591506020830135611d6b8161203b565b600080600060608486031215611ea6578283fd5b833592506020840135611eb88161203b565b91506040840135611ec88161203b565b809150509250925092565b60008060008060808587031215611ee8578384fd5b5050823594602084013594506040840135936060013592509050565b6000602080835283518082850152825b81811015611f3057858101830151858201604001528201611f14565b81811115611f415783604083870101525b50601f01601f1916929092016040019392505050565b60008219821115611f6a57611f6a612025565b500190565b600082611f8a57634e487b7160e01b81526012600452602481fd5b500490565b6000816000190483118215151615611fa957611fa9612025565b500290565b600082821015611fc057611fc0612025565b500390565b600063ffffffff83811690831681811015611fe257611fe2612025565b039392505050565b600181811c90821680611ffe57607f821691505b6020821081141561201f57634e487b7160e01b600052602260045260246000fd5b50919050565b634e487b7160e01b600052601160045260246000fd5b6001600160a01b0381168114610fe857600080fdfea2646970667358221220e84a77e4dfa2d314742fbe6ac217d4f40a22db3cc79230542938d0832803aea664736f6c63430008040033",
  "linkReferences": {},
  "deployedLinkReferences": {}
}