{
  "_format": "hh-sol-artifact-1",
  "contractName": "CygnusBorrowModel",
  "sourceName": "contracts/cygnus-core/CygnusBorrowModel.sol",
  "abi": [
    {
      "inputs": [],
      "stateMutability": "nonpayable",
      "type": "constructor"
    },
    {
      "inputs": [
        {
          "internalType": "uint256",
          "name": "min",
          "type": "uint256"
        },
        {
          "internalType": "uint256",
          "name": "max",
          "type": "uint256"
        },
        {
          "internalType": "uint256",
          "name": "value",
          "type": "uint256"
        }
      ],
      "name": "CygnusBorrowControl__ParameterNotInRange",
      "type": "error"
    },
    {
      "inputs": [],
      "name": "CygnusTerminal__CantMintZeroShares",
      "type": "error"
    },
    {
      "inputs": [],
      "name": "CygnusTerminal__CantRedeemZeroAssets",
      "type": "error"
    },
    {
      "inputs": [
        {
          "internalType": "address",
          "name": "token",
          "type": "address"
        },
        {
          "internalType": "address",
          "name": "underlying",
          "type": "address"
        }
      ],
      "name": "CygnusTerminal__CantSweepUnderlying",
      "type": "error"
    },
    {
      "inputs": [
        {
          "internalType": "address",
          "name": "sender",
          "type": "address"
        },
        {
          "internalType": "address",
          "name": "admin",
          "type": "address"
        }
      ],
      "name": "CygnusTerminal__MsgSenderNotAdmin",
      "type": "error"
    },
    {
      "inputs": [
        {
          "internalType": "address",
          "name": "owner",
          "type": "address"
        },
        {
          "internalType": "uint8",
          "name": "v",
          "type": "uint8"
        },
        {
          "internalType": "bytes32",
          "name": "r",
          "type": "bytes32"
        },
        {
          "internalType": "bytes32",
          "name": "s",
          "type": "bytes32"
        }
      ],
      "name": "ERC20Permit__InvalidSignature",
      "type": "error"
    },
    {
      "inputs": [],
      "name": "ERC20Permit__OwnerZeroAddress",
      "type": "error"
    },
    {
      "inputs": [
        {
          "internalType": "uint256",
          "name": "currentTime",
          "type": "uint256"
        },
        {
          "internalType": "uint256",
          "name": "deadline",
          "type": "uint256"
        }
      ],
      "name": "ERC20Permit__PermitExpired",
      "type": "error"
    },
    {
      "inputs": [],
      "name": "ERC20Permit__RecoveredOwnerZeroAddress",
      "type": "error"
    },
    {
      "inputs": [],
      "name": "ERC20Permit__SpenderZeroAddress",
      "type": "error"
    },
    {
      "inputs": [],
      "name": "ERC20__ApproveOwnerZeroAddress",
      "type": "error"
    },
    {
      "inputs": [],
      "name": "ERC20__ApproveSpenderZeroAddress",
      "type": "error"
    },
    {
      "inputs": [
        {
          "internalType": "uint256",
          "name": "accountBalance",
          "type": "uint256"
        },
        {
          "internalType": "uint256",
          "name": "burnAmount",
          "type": "uint256"
        }
      ],
      "name": "ERC20__BurnUnderflow",
      "type": "error"
    },
    {
      "inputs": [],
      "name": "ERC20__BurnZeroAddress",
      "type": "error"
    },
    {
      "inputs": [
        {
          "internalType": "uint256",
          "name": "allowance",
          "type": "uint256"
        },
        {
          "internalType": "uint256",
          "name": "amount",
          "type": "uint256"
        }
      ],
      "name": "ERC20__InsufficientAllowance",
      "type": "error"
    },
    {
      "inputs": [
        {
          "internalType": "uint256",
          "name": "senderBalance",
          "type": "uint256"
        },
        {
          "internalType": "uint256",
          "name": "amount",
          "type": "uint256"
        }
      ],
      "name": "ERC20__InsufficientBalance",
      "type": "error"
    },
    {
      "inputs": [],
      "name": "ERC20__MintZeroAddress",
      "type": "error"
    },
    {
      "inputs": [],
      "name": "ERC20__TransferRecipientZeroAddress",
      "type": "error"
    },
    {
      "inputs": [],
      "name": "ERC20__TransferSenderZeroAddress",
      "type": "error"
    },
    {
      "inputs": [],
      "name": "ReentrantCall",
      "type": "error"
    },
    {
      "anonymous": false,
      "inputs": [
        {
          "indexed": false,
          "internalType": "uint256",
          "name": "cashStored",
          "type": "uint256"
        },
        {
          "indexed": false,
          "internalType": "uint256",
          "name": "interestAccumulated",
          "type": "uint256"
        },
        {
          "indexed": false,
          "internalType": "uint256",
          "name": "borrowIndexStored",
          "type": "uint256"
        },
        {
          "indexed": false,
          "internalType": "uint256",
          "name": "totalBorrowsStored",
          "type": "uint256"
        },
        {
          "indexed": false,
          "internalType": "uint256",
          "name": "borrowRateStored",
          "type": "uint256"
        }
      ],
      "name": "AccrueInterest",
      "type": "event"
    },
    {
      "anonymous": false,
      "inputs": [
        {
          "indexed": true,
          "internalType": "address",
          "name": "owner",
          "type": "address"
        },
        {
          "indexed": true,
          "internalType": "address",
          "name": "spender",
          "type": "address"
        },
        {
          "indexed": false,
          "internalType": "uint256",
          "name": "amount",
          "type": "uint256"
        }
      ],
      "name": "Approval",
      "type": "event"
    },
    {
      "anonymous": false,
      "inputs": [
        {
          "indexed": true,
          "internalType": "address",
          "name": "sender",
          "type": "address"
        },
        {
          "indexed": true,
          "internalType": "address",
          "name": "recipient",
          "type": "address"
        },
        {
          "indexed": false,
          "internalType": "uint256",
          "name": "assets",
          "type": "uint256"
        },
        {
          "indexed": false,
          "internalType": "uint256",
          "name": "shares",
          "type": "uint256"
        }
      ],
      "name": "Deposit",
      "type": "event"
    },
    {
      "anonymous": false,
      "inputs": [
        {
          "indexed": false,
          "internalType": "address",
          "name": "oldBorrowRewarder",
          "type": "address"
        },
        {
          "indexed": false,
          "internalType": "address",
          "name": "newBorrowRewarder",
          "type": "address"
        }
      ],
      "name": "NewCygnusBorrowRewarder",
      "type": "event"
    },
    {
      "anonymous": false,
      "inputs": [
        {
          "indexed": false,
          "internalType": "uint256",
          "name": "baseRatePerYear",
          "type": "uint256"
        },
        {
          "indexed": false,
          "internalType": "uint256",
          "name": "multiplierPerYear",
          "type": "uint256"
        },
        {
          "indexed": false,
          "internalType": "uint256",
          "name": "kinkMultiplier_",
          "type": "uint256"
        },
        {
          "indexed": false,
          "internalType": "uint256",
          "name": "kinkUtilizationRate_",
          "type": "uint256"
        }
      ],
      "name": "NewInterestRateParameters",
      "type": "event"
    },
    {
      "anonymous": false,
      "inputs": [
        {
          "indexed": false,
          "internalType": "uint256",
          "name": "oldReserveFactor",
          "type": "uint256"
        },
        {
          "indexed": false,
          "internalType": "uint256",
          "name": "newReserveFactor",
          "type": "uint256"
        }
      ],
      "name": "NewReserveFactor",
      "type": "event"
    },
    {
      "anonymous": false,
      "inputs": [
        {
          "indexed": false,
          "internalType": "uint256",
          "name": "totalBalance",
          "type": "uint256"
        }
      ],
      "name": "Sync",
      "type": "event"
    },
    {
      "anonymous": false,
      "inputs": [
        {
          "indexed": true,
          "internalType": "address",
          "name": "from",
          "type": "address"
        },
        {
          "indexed": true,
          "internalType": "address",
          "name": "to",
          "type": "address"
        },
        {
          "indexed": false,
          "internalType": "uint256",
          "name": "amount",
          "type": "uint256"
        }
      ],
      "name": "Transfer",
      "type": "event"
    },
    {
      "anonymous": false,
      "inputs": [
        {
          "indexed": true,
          "internalType": "address",
          "name": "sender",
          "type": "address"
        },
        {
          "indexed": true,
          "internalType": "address",
          "name": "recipient",
          "type": "address"
        },
        {
          "indexed": true,
          "internalType": "address",
          "name": "owner",
          "type": "address"
        },
        {
          "indexed": false,
          "internalType": "uint256",
          "name": "assets",
          "type": "uint256"
        },
        {
          "indexed": false,
          "internalType": "uint256",
          "name": "shares",
          "type": "uint256"
        }
      ],
      "name": "Withdraw",
      "type": "event"
    },
    {
      "inputs": [],
      "name": "DOMAIN_SEPARATOR",
      "outputs": [
        {
          "internalType": "bytes32",
          "name": "",
          "type": "bytes32"
        }
      ],
      "stateMutability": "view",
      "type": "function"
    },
    {
      "inputs": [],
      "name": "PERMIT_TYPEHASH",
      "outputs": [
        {
          "internalType": "bytes32",
          "name": "",
          "type": "bytes32"
        }
      ],
      "stateMutability": "view",
      "type": "function"
    },
    {
      "inputs": [],
      "name": "accrueInterest",
      "outputs": [],
      "stateMutability": "nonpayable",
      "type": "function"
    },
    {
      "inputs": [
        {
          "internalType": "address",
          "name": "owner",
          "type": "address"
        },
        {
          "internalType": "address",
          "name": "spender",
          "type": "address"
        }
      ],
      "name": "allowance",
      "outputs": [
        {
          "internalType": "uint256",
          "name": "",
          "type": "uint256"
        }
      ],
      "stateMutability": "view",
      "type": "function"
    },
    {
      "inputs": [
        {
          "internalType": "address",
          "name": "spender",
          "type": "address"
        },
        {
          "internalType": "uint256",
          "name": "amount",
          "type": "uint256"
        }
      ],
      "name": "approve",
      "outputs": [
        {
          "internalType": "bool",
          "name": "",
          "type": "bool"
        }
      ],
      "stateMutability": "nonpayable",
      "type": "function"
    },
    {
      "inputs": [
        {
          "internalType": "address",
          "name": "account",
          "type": "address"
        }
      ],
      "name": "balanceOf",
      "outputs": [
        {
          "internalType": "uint256",
          "name": "",
          "type": "uint256"
        }
      ],
      "stateMutability": "view",
      "type": "function"
    },
    {
      "inputs": [],
      "name": "baseRatePerSecond",
      "outputs": [
        {
          "internalType": "uint256",
          "name": "",
          "type": "uint256"
        }
      ],
      "stateMutability": "view",
      "type": "function"
    },
    {
      "inputs": [],
      "name": "borrowIndex",
      "outputs": [
        {
          "internalType": "uint112",
          "name": "",
          "type": "uint112"
        }
      ],
      "stateMutability": "view",
      "type": "function"
    },
    {
      "inputs": [],
      "name": "borrowRate",
      "outputs": [
        {
          "internalType": "uint112",
          "name": "",
          "type": "uint112"
        }
      ],
      "stateMutability": "view",
      "type": "function"
    },
    {
      "inputs": [],
      "name": "collateral",
      "outputs": [
        {
          "internalType": "address",
          "name": "",
          "type": "address"
        }
      ],
      "stateMutability": "view",
      "type": "function"
    },
    {
      "inputs": [],
      "name": "cygnusBorrowRewarder",
      "outputs": [
        {
          "internalType": "address",
          "name": "",
          "type": "address"
        }
      ],
      "stateMutability": "view",
      "type": "function"
    },
    {
      "inputs": [],
      "name": "cygnusNebulaOracle",
      "outputs": [
        {
          "internalType": "contract ICygnusNebulaOracle",
          "name": "",
          "type": "address"
        }
      ],
      "stateMutability": "view",
      "type": "function"
    },
    {
      "inputs": [],
      "name": "decimals",
      "outputs": [
        {
          "internalType": "uint8",
          "name": "",
          "type": "uint8"
        }
      ],
      "stateMutability": "view",
      "type": "function"
    },
    {
      "inputs": [
        {
          "internalType": "uint256",
          "name": "assets",
          "type": "uint256"
        },
        {
          "internalType": "address",
          "name": "recipient",
          "type": "address"
        }
      ],
      "name": "deposit",
      "outputs": [
        {
          "internalType": "uint256",
          "name": "shares",
          "type": "uint256"
        }
      ],
      "stateMutability": "nonpayable",
      "type": "function"
    },
    {
      "inputs": [],
      "name": "exchangeRate",
      "outputs": [
        {
          "internalType": "uint256",
          "name": "",
          "type": "uint256"
        }
      ],
      "stateMutability": "nonpayable",
      "type": "function"
    },
    {
      "inputs": [],
      "name": "exchangeRateStored",
      "outputs": [
        {
          "internalType": "uint256",
          "name": "",
          "type": "uint256"
        }
      ],
      "stateMutability": "view",
      "type": "function"
    },
    {
      "inputs": [
        {
          "internalType": "address",
          "name": "borrower",
          "type": "address"
        }
      ],
      "name": "getBorrowBalance",
      "outputs": [
        {
          "internalType": "uint256",
          "name": "",
          "type": "uint256"
        }
      ],
      "stateMutability": "view",
      "type": "function"
    },
    {
      "inputs": [],
      "name": "hangar18",
      "outputs": [
        {
          "internalType": "contract IHangar18",
          "name": "",
          "type": "address"
        }
      ],
      "stateMutability": "view",
      "type": "function"
    },
    {
      "inputs": [],
      "name": "jumpMultiplierPerSecond",
      "outputs": [
        {
          "internalType": "uint256",
          "name": "",
          "type": "uint256"
        }
      ],
      "stateMutability": "view",
      "type": "function"
    },
    {
      "inputs": [],
      "name": "kinkMultiplier",
      "outputs": [
        {
          "internalType": "uint256",
          "name": "",
          "type": "uint256"
        }
      ],
      "stateMutability": "view",
      "type": "function"
    },
    {
      "inputs": [],
      "name": "kinkUtilizationRate",
      "outputs": [
        {
          "internalType": "uint256",
          "name": "",
          "type": "uint256"
        }
      ],
      "stateMutability": "view",
      "type": "function"
    },
    {
      "inputs": [],
      "name": "lastAccrualTimestamp",
      "outputs": [
        {
          "internalType": "uint32",
          "name": "",
          "type": "uint32"
        }
      ],
      "stateMutability": "view",
      "type": "function"
    },
    {
      "inputs": [],
      "name": "multiplierPerSecond",
      "outputs": [
        {
          "internalType": "uint256",
          "name": "",
          "type": "uint256"
        }
      ],
      "stateMutability": "view",
      "type": "function"
    },
    {
      "inputs": [],
      "name": "name",
      "outputs": [
        {
          "internalType": "string",
          "name": "",
          "type": "string"
        }
      ],
      "stateMutability": "view",
      "type": "function"
    },
    {
      "inputs": [
        {
          "internalType": "address",
          "name": "",
          "type": "address"
        }
      ],
      "name": "nonces",
      "outputs": [
        {
          "internalType": "uint256",
          "name": "",
          "type": "uint256"
        }
      ],
      "stateMutability": "view",
      "type": "function"
    },
    {
      "inputs": [
        {
          "internalType": "address",
          "name": "owner",
          "type": "address"
        },
        {
          "internalType": "address",
          "name": "spender",
          "type": "address"
        },
        {
          "internalType": "uint256",
          "name": "value",
          "type": "uint256"
        },
        {
          "internalType": "uint256",
          "name": "deadline",
          "type": "uint256"
        },
        {
          "internalType": "uint8",
          "name": "v",
          "type": "uint8"
        },
        {
          "internalType": "bytes32",
          "name": "r",
          "type": "bytes32"
        },
        {
          "internalType": "bytes32",
          "name": "s",
          "type": "bytes32"
        }
      ],
      "name": "permit",
      "outputs": [],
      "stateMutability": "nonpayable",
      "type": "function"
    },
    {
      "inputs": [
        {
          "internalType": "uint256",
          "name": "shares",
          "type": "uint256"
        },
        {
          "internalType": "address",
          "name": "recipient",
          "type": "address"
        },
        {
          "internalType": "address",
          "name": "owner",
          "type": "address"
        }
      ],
      "name": "redeem",
      "outputs": [
        {
          "internalType": "uint256",
          "name": "assets",
          "type": "uint256"
        }
      ],
      "stateMutability": "nonpayable",
      "type": "function"
    },
    {
      "inputs": [],
      "name": "reserveFactor",
      "outputs": [
        {
          "internalType": "uint256",
          "name": "",
          "type": "uint256"
        }
      ],
      "stateMutability": "view",
      "type": "function"
    },
    {
      "inputs": [
        {
          "internalType": "address",
          "name": "newBorrowRewarder",
          "type": "address"
        }
      ],
      "name": "setCygnusBorrowRewarder",
      "outputs": [],
      "stateMutability": "nonpayable",
      "type": "function"
    },
    {
      "inputs": [
        {
          "internalType": "uint256",
          "name": "baseRatePerYear_",
          "type": "uint256"
        },
        {
          "internalType": "uint256",
          "name": "multiplierPerYear_",
          "type": "uint256"
        },
        {
          "internalType": "uint256",
          "name": "kinkMultiplier_",
          "type": "uint256"
        },
        {
          "internalType": "uint256",
          "name": "kinkUtilizationRate_",
          "type": "uint256"
        }
      ],
      "name": "setInterestRateModel",
      "outputs": [],
      "stateMutability": "nonpayable",
      "type": "function"
    },
    {
      "inputs": [
        {
          "internalType": "uint256",
          "name": "newReserveFactor",
          "type": "uint256"
        }
      ],
      "name": "setReserveFactor",
      "outputs": [],
      "stateMutability": "nonpayable",
      "type": "function"
    },
    {
      "inputs": [],
      "name": "shuttleId",
      "outputs": [
        {
          "internalType": "uint256",
          "name": "",
          "type": "uint256"
        }
      ],
      "stateMutability": "view",
      "type": "function"
    },
    {
      "inputs": [],
      "name": "supplyRate",
      "outputs": [
        {
          "internalType": "uint256",
          "name": "",
          "type": "uint256"
        }
      ],
      "stateMutability": "view",
      "type": "function"
    },
    {
      "inputs": [
        {
          "internalType": "address",
          "name": "token",
          "type": "address"
        }
      ],
      "name": "sweepToken",
      "outputs": [],
      "stateMutability": "nonpayable",
      "type": "function"
    },
    {
      "inputs": [],
      "name": "symbol",
      "outputs": [
        {
          "internalType": "string",
          "name": "",
          "type": "string"
        }
      ],
      "stateMutability": "view",
      "type": "function"
    },
    {
      "inputs": [],
      "name": "totalBalance",
      "outputs": [
        {
          "internalType": "uint256",
          "name": "",
          "type": "uint256"
        }
      ],
      "stateMutability": "view",
      "type": "function"
    },
    {
      "inputs": [],
      "name": "totalBorrows",
      "outputs": [
        {
          "internalType": "uint256",
          "name": "",
          "type": "uint256"
        }
      ],
      "stateMutability": "view",
      "type": "function"
    },
    {
      "inputs": [],
      "name": "totalSupply",
      "outputs": [
        {
          "internalType": "uint256",
          "name": "",
          "type": "uint256"
        }
      ],
      "stateMutability": "view",
      "type": "function"
    },
    {
      "inputs": [
        {
          "internalType": "address",
          "name": "borrower",
          "type": "address"
        }
      ],
      "name": "trackBorrow",
      "outputs": [],
      "stateMutability": "nonpayable",
      "type": "function"
    },
    {
      "inputs": [
        {
          "internalType": "address",
          "name": "recipient",
          "type": "address"
        },
        {
          "internalType": "uint256",
          "name": "amount",
          "type": "uint256"
        }
      ],
      "name": "transfer",
      "outputs": [
        {
          "internalType": "bool",
          "name": "",
          "type": "bool"
        }
      ],
      "stateMutability": "nonpayable",
      "type": "function"
    },
    {
      "inputs": [
        {
          "internalType": "address",
          "name": "sender",
          "type": "address"
        },
        {
          "internalType": "address",
          "name": "recipient",
          "type": "address"
        },
        {
          "internalType": "uint256",
          "name": "amount",
          "type": "uint256"
        }
      ],
      "name": "transferFrom",
      "outputs": [
        {
          "internalType": "bool",
          "name": "",
          "type": "bool"
        }
      ],
      "stateMutability": "nonpayable",
      "type": "function"
    },
    {
      "inputs": [],
      "name": "underlying",
      "outputs": [
        {
          "internalType": "address",
          "name": "",
          "type": "address"
        }
      ],
      "stateMutability": "view",
      "type": "function"
    },
    {
      "inputs": [],
      "name": "utilizationRate",
      "outputs": [
        {
          "internalType": "uint256",
          "name": "",
          "type": "uint256"
        }
      ],
      "stateMutability": "view",
      "type": "function"
    },
    {
      "inputs": [],
      "name": "version",
      "outputs": [
        {
          "internalType": "string",
          "name": "",
          "type": "string"
        }
      ],
      "stateMutability": "view",
      "type": "function"
    }
  ],
  "bytecode": "0x610140604052670bcbce7f1b150000600d556002600e5567016345785d8a0000600f55670de0b6b3a76400006010553480156200003b57600080fd5b5060408051808201825260128152714379676e75733a20426f72726f7761626c6560701b602080830191825283519081019093526000808452805460ff191660019081178255835193949391928592859285928592859285926200009f926200045f565b508151620000b59060029060208501906200045f565b506003805460ff191660ff92909216919091179055505060405146907f8b73c3c69bb8fe3d512ecc4cf759cc79239f7b179b0ffacaa9a75d522b39400f90620001019060019062000656565b60408051918290038220828201825260058352640312e302e360dc1b6020938401528151928301939093528101919091527f06c015bd22b4c69690933c1058878ebdfef31f9aaae40bbe86d8a09fe1b2972c6060820152608081018290523060a082015260c00160408051601f19818403018152919052805160209091012060805250620001939250506200045b9050565b6001600160a01b0316635a412e536040518163ffffffff1660e01b815260040160a060405180830381600087803b158015620001ce57600080fd5b505af1158015620001e3573d6000803e3d6000fd5b505050506040513d601f19601f8201168201806040525081019062000209919062000505565b610100526001600160601b0319606091821b811660e05292811b831660c0529290921b1660a05250600092508291506200024290503390565b6001600160a01b0316635a412e536040518163ffffffff1660e01b815260040160a060405180830381600087803b1580156200027d57600080fd5b505af115801562000292573d6000803e3d6000fd5b505050506040513d601f19601f82011682018060405250810190620002b8919062000505565b50509250925050816001600160a01b03166395d89b416040518163ffffffff1660e01b815260040160006040518083038186803b158015620002f957600080fd5b505afa1580156200030e573d6000803e3d6000fd5b505050506040513d6000823e601f3d908101601f1916820160405262000338919081019062000578565b6040516020016200034a9190620006f9565b60405160208183030381529060405260029080519060200190620003709291906200045f565b50816001600160a01b031663313ce5676040518163ffffffff1660e01b815260040160206040518083038186803b158015620003ab57600080fd5b505afa158015620003c0573d6000803e3d6000fd5b505050506040513d601f19601f82011682018060405250810190620003e691906200062c565b6003805460ff191660ff9290921691909117905560601b6001600160601b0319166101205250600060045560138054670de0b6b3a76400006001600160701b0319909116179055620004354290565b6013601c6101000a81548163ffffffff021916908363ffffffff160217905550620007ca565b3390565b8280546200046d906200075e565b90600052602060002090601f016020900481019282620004915760008555620004dc565b82601f10620004ac57805160ff1916838001178555620004dc565b82800160010185558215620004dc579182015b82811115620004dc578251825591602001919060010190620004bf565b50620004ea929150620004ee565b5090565b5b80821115620004ea5760008155600101620004ef565b600080600080600060a086880312156200051d578081fd5b85516200052a81620007b1565b60208701519095506200053d81620007b1565b60408701519094506200055081620007b1565b60608701519093506200056381620007b1565b80925050608086015190509295509295909350565b6000602082840312156200058a578081fd5b81516001600160401b0380821115620005a1578283fd5b818401915084601f830112620005b5578283fd5b815181811115620005ca57620005ca6200079b565b604051601f8201601f19908116603f01168101908382118183101715620005f557620005f56200079b565b816040528281528760208487010111156200060e578586fd5b620006218360208301602088016200072b565b979650505050505050565b6000602082840312156200063e578081fd5b815160ff811681146200064f578182fd5b9392505050565b600080835482600182811c9150808316806200067357607f831692505b60208084108214156200069457634e487b7160e01b87526022600452602487fd5b818015620006ab5760018114620006bd57620006eb565b60ff19861689528489019650620006eb565b60008a815260209020885b86811015620006e35781548b820152908501908301620006c8565b505084890196505b509498975050505050505050565b67021bcb3aaa9a21d160c51b8152600082516200071e8160088501602087016200072b565b9190910160080192915050565b60005b83811015620007485781810151838201526020016200072e565b8381111562000758576000848401525b50505050565b600181811c908216806200077357607f821691505b602082108114156200079557634e487b7160e01b600052602260045260246000fd5b50919050565b634e487b7160e01b600052604160045260246000fd5b6001600160a01b0381168114620007c757600080fd5b50565b60805160a05160601c60c05160601c60e05160601c610100516101205160601c611f826200085e60003960006106750152600081816104950152611ad1015260006106a50152600081816104d7015281816108030152818161085a01528181610b5f01528181610ffe01526117c901526000818161070501526113fd0152600081816103fc01526111b60152611f826000f3fe608060405234801561001057600080fd5b50600436106102f45760003560e01c806370a0823111610191578063ad7a672f116100e3578063d505accf11610097578063d935bd9211610071578063d935bd92146106a0578063dd62ed3e146106c7578063e8a24e1d1461070057600080fd5b8063d505accf1461065d578063d8dfeb4514610670578063d90e02641461069757600080fd5b8063ba087652116100c8578063ba08765214610604578063c0789dcb14610617578063c914b4371461064357600080fd5b8063ad7a672f146105e8578063b7f1118a146105f157600080fd5b80639b51099811610145578063aa5af0fd1161011f578063aa5af0fd146105a2578063ad168c9d146105cd578063ad2961a3146105e057600080fd5b80639b5109981461057e578063a6afed9514610587578063a9059cbb1461058f57600080fd5b80637d6af079116101765780637d6af079146105435780637ecebe001461055657806395d89b411461057657600080fd5b806370a082311461051157806372cf84a71461053a57600080fd5b80633644e5151161024a57806347bd3718116101fe5780636c321c8a116101d85780636c321c8a146104b75780636e553f65146104bf5780636f307dc3146104d257600080fd5b806347bd37181461044b57806354fd4d50146104545780635f77f8911461049057600080fd5b806342bf78af1161022f57806342bf78af146104265780634322b7141461043957806346f608ff1461044257600080fd5b80633644e515146103f75780633ba0b9a91461041e57600080fd5b80631be19560116102ac57806323b872dd1161028657806323b872dd1461039e57806330adf81f146103b1578063313ce567146103d857600080fd5b80631be19560146103635780631c446983146103785780631e44b7fc1461038b57600080fd5b806318160ddd116102dd57806318160ddd1461033a578063182df0f5146103515780631aebf12f1461035a57600080fd5b806306fdde03146102f9578063095ea7b314610317575b600080fd5b610301610727565b60405161030e9190611e00565b60405180910390f35b61032a610325366004611d27565b6107b5565b604051901515815260200161030e565b61034360045481565b60405190815260200161030e565b61034360105481565b610343600d5481565b610376610371366004611c02565b6107cc565b005b610376610386366004611d52565b6108be565b610376610399366004611dcf565b61095a565b61032a6103ac366004611c72565b6109ae565b6103437f6e71edae12b1b97f4d1f60370fef10105fa2faae0126114a169c64845d6126c981565b6003546103e59060ff1681565b60405160ff909116815260200161030e565b6103437f000000000000000000000000000000000000000000000000000000000000000081565b610343610a24565b610376610434366004611c02565b610a52565b610343600f5481565b610343600b5481565b61034360125481565b6103016040518060400160405280600581526020017f312e302e3000000000000000000000000000000000000000000000000000000081525081565b6103437f000000000000000000000000000000000000000000000000000000000000000081565b610343610af9565b6103436104cd366004611d6a565b610b24565b6104f97f000000000000000000000000000000000000000000000000000000000000000081565b6040516001600160a01b03909116815260200161030e565b61034361051f366004611c02565b6001600160a01b031660009081526005602052604090205490565b610343600c5481565b610343610551366004611c02565b610c61565b610343610564366004611c02565b60076020526000908152604090205481565b610301610cd3565b610343600e5481565b610376610ce0565b61032a61059d366004611d27565b610e6b565b6013546105b5906001600160701b031681565b6040516001600160701b03909116815260200161030e565b6009546104f9906001600160a01b031681565b610343610e78565b61034360085481565b6103766105ff366004611c02565b610eed565b610343610612366004611d8e565b610f0e565b60135461062e90600160e01b900463ffffffff1681565b60405163ffffffff909116815260200161030e565b6013546105b590600160701b90046001600160701b031681565b61037661066b366004611cb2565b6110a7565b6104f97f000000000000000000000000000000000000000000000000000000000000000081565b610343600a5481565b6104f97f000000000000000000000000000000000000000000000000000000000000000081565b6103436106d5366004611c3a565b6001600160a01b03918216600090815260066020908152604080832093909416825291909152205490565b6104f97f000000000000000000000000000000000000000000000000000000000000000081565b6001805461073490611ee6565b80601f016020809104026020016040519081016040528092919081815260200182805461076090611ee6565b80156107ad5780601f10610782576101008083540402835291602001916107ad565b820191906000526020600020905b81548152906001019060200180831161079057829003601f168201915b505050505081565b60006107c233848461134a565b5060015b92915050565b60005460ff166107ef576040516306fda65d60e31b815260040160405180910390fd5b6000805460ff191690556108016113f9565b7f00000000000000000000000000000000000000000000000000000000000000006001600160a01b0316816001600160a01b0316141561088c576040516303b91a9160e31b81526001600160a01b0380831660048301527f00000000000000000000000000000000000000000000000000000000000000001660248201526044015b60405180910390fd5b6000610897826114c8565b90506108ad6001600160a01b03831633836114f0565b50506000805460ff19166001179055565b60005460ff166108e1576040516306fda65d60e31b815260040160405180910390fd5b6000805460ff191690556108f36113f9565b61090760006702c68af0bb14000083611539565b600f80549082905560408051828152602081018490527faaa68312e2ea9d50e16af5068410ab56e1a1fd06037b1a35664812c30f82146091015b60405180910390a150506000805460ff19166001179055565b60005460ff1661097d576040516306fda65d60e31b815260040160405180910390fd5b6000805460ff1916905561098f6113f9565b61099b8484848461157a565b50506000805460ff191660011790555050565b60006109bb848484611650565b6001600160a01b038416600090815260066020908152604080832033845290915290205482811015610a0a576040516310c6013560e31b81526004810182905260248101849052604401610883565b610a17853385840361134a565b60019150505b9392505050565b6004546000908015610a4257600854610a3d9082611773565b610a4c565b670de0b6b3a76400005b91505090565b60005460ff16610a75576040516306fda65d60e31b815260040160405180910390fd5b6000805460ff19169055610a876113f9565b600980546001600160a01b038381167fffffffffffffffffffffffff000000000000000000000000000000000000000083168117909355604080519190921680825260208201939093527f2a0d5dc7fbc8045f59cb33c736f04f9a9b565e9f425912f9cd2bafdebd50cead9101610941565b60125460009080610b0c57600091505090565b610a4c81600854610b1d9190611e53565b8290611773565b6000805460ff16610b48576040516306fda65d60e31b815260040160405180910390fd5b6000805460ff19169055610b5a6117c2565b610b8f7f00000000000000000000000000000000000000000000000000000000000000006001600160a01b031633308661182b565b600080610bad610b9d610a24565b610ba78484611eaa565b90611773565b925060008311610bd05760405163f1ca48b160e01b815260040160405180910390fd5b600454610bf457610be561dead6103e8611879565b610bf16103e884611eaa565b92505b610bfe8484611879565b60408051868152602081018590526001600160a01b0386169133917fdcbc1c05240f31ff3ad067ef1ee35ce4997762752e3a095284754544f4c709d7910160405180910390a35050610c4e6117c2565b6000805460ff1916600117905592915050565b6001600160a01b03811660009081526011602090815260408083208151808301909252546001600160701b038082168352600160701b9091041691810182905290610caf5750600092915050565b60135460208201518251610a1d926001600160701b0391821692908216911661192c565b6002805461073490611ee6565b6013544290600160e01b900463ffffffff908116908216811415610d02575050565b601380547bffffffffffffffffffffffffffffffffffffffffffffffffffffffff16600160e01b63ffffffff8516021790556000610d408284611ec1565b60125460085460135492935090916001600160701b031682610d6457505050505050565b6000610d7083856119db565b90506000610d8463ffffffff871683611e8b565b90506000610d928287611a7d565b9050610d9e8187611e53565b9550610daa8285611a7d565b610db49085611e53565b6012879055601380547fffffffff0000000000000000000000000000000000000000000000000000000016600160701b6001600160701b03878116919091026dffffffffffffffffffffffffffff191691909117908316179055604080518781526020810184905290810182905260608101889052608081018590529094507f717fee053884ab1935ba6d0140f6ed225371439611d9674ff445419d6a0fa1b79060a00160405180910390a1505050505050505050565b60006107c2338484611650565b600080610ead600f54670de0b6b3a7640000610e949190611eaa565b601354600160701b90046001600160701b031690611a7d565b905080610ebc57600091505090565b6000610eda601254600854610ed19190611e53565b60125490611773565b9050610ee68183611a7d565b9250505090565b610f0b81610efa83610c61565b6013546001600160701b0316611aab565b50565b6000805460ff16610f32576040516306fda65d60e31b815260040160405180910390fd5b6000805460ff19169055610f446117c2565b336001600160a01b03831614610fb2576001600160a01b03821660009081526006602090815260408083203384529091529020546000198114610fb057610f8b8582611eaa565b6001600160a01b03841660009081526006602090815260408083203384529091529020555b505b610fc4610fbd610a24565b8590611a7d565b905060008111610fe75760405163e3e8d29760e01b815260040160405180910390fd5b610ff18285611b57565b6110256001600160a01b037f00000000000000000000000000000000000000000000000000000000000000001684836114f0565b816001600160a01b0316836001600160a01b03166110403390565b6001600160a01b03167ffbde797d201c681b91056529119e0b02407c7bb96a4a2c75c01fc9667232c8db8488604051611083929190918252602082015260400190565b60405180910390a46110936117c2565b6000805460ff191660011790559392505050565b6001600160a01b0387166110ce57604051639a321bc760e01b815260040160405180910390fd5b6001600160a01b0386166110f5576040516353fbd1d760e01b815260040160405180910390fd5b4284101561111f5760405163075dd20f60e41b815242600482015260248101859052604401610883565b6001600160a01b0387811660008181526007602090815260408083208054600180820190925582517f6e71edae12b1b97f4d1f60370fef10105fa2faae0126114a169c64845d6126c98186015280840196909652958c166060860152608085018b905260a085019590955260c08085018a90528151808603909101815260e08501825280519083012061190160f01b6101008601527f000000000000000000000000000000000000000000000000000000000000000061010286015261012280860182905282518087039091018152610142860180845281519185019190912090859052610162860180845281905260ff8a166101828701526101a286018990526101c2860188905291519095919491926101e2808401939192601f1981019281900390910190855afa15801561125a573d6000803e3d6000fd5b5050604051601f1901519150506001600160a01b03811661128e57604051637386dbbb60e11b815260040160405180910390fd5b896001600160a01b0316816001600160a01b0316146112e25760405163a1d5f2ed60e01b81526001600160a01b038b16600482015260ff871660248201526044810186905260648101859052608401610883565b6001600160a01b038a81166000818152600660209081526040808320948e16808452948252918290208c905590518b81527f8c5be1e5ebec7d5bd14f71427d1e84f3dd0314c0f7b2291e5b200ac8c7c3b925910160405180910390a350505050505050505050565b6001600160a01b038316611371576040516317ba2d8b60e11b815260040160405180910390fd5b6001600160a01b03821661139857604051632cc8a69760e11b815260040160405180910390fd5b6001600160a01b0383811660008181526006602090815260408083209487168084529482529182902085905590518481527f8c5be1e5ebec7d5bd14f71427d1e84f3dd0314c0f7b2291e5b200ac8c7c3b925910160405180910390a3505050565b60007f00000000000000000000000000000000000000000000000000000000000000006001600160a01b031663f851a4406040518163ffffffff1660e01b815260040160206040518083038186803b15801561145457600080fd5b505afa158015611468573d6000803e3d6000fd5b505050506040513d601f19601f8201168201806040525081019061148c9190611c1e565b9050336001600160a01b03821614610f0b57604051633e7c764160e21b81523360048201526001600160a01b0382166024820152604401610883565b60006370a08231600052306020526020806024601c855afa601f3d1116602051029050919050565b81601a5280603a5269a9059cbb00000000000060005260206000604460166000875af13d15600160005114171661152f576390b8ec186000526004601cfd5b6000603a52505050565b8281108061154657508181115b1561157557604051639e7fe3bd60e01b8152600481018490526024810183905260448101829052606401610883565b505050565b61158e600067016345785d8a000086611539565b6115a96706f05b59d3b20000670d2f13f7789f000083611539565b6115b66001600a84611539565b6115c46301e1338085611e6b565b600a556115df6115d8826301e13380611e8b565b8490611773565b600b55600e829055600d8190556115ff81610ba785856301e1338061192c565b600c556040805185815260208101859052908101839052606081018290527ff58b8cc439edada25fd9495b7364aeb1d737dbef59be1cf62e0cc4001c44a3cd9060800160405180910390a150505050565b6001600160a01b0383166116775760405163618a6e7d60e11b815260040160405180910390fd5b6001600160a01b03821661169e5760405163446ebce960e01b815260040160405180910390fd5b6001600160a01b038316600090815260056020526040902054818110156116e25760405163355a868d60e01b81526004810182905260248101839052604401610883565b6001600160a01b03808516600090815260056020526040808220858503905591851681529081208054849290611719908490611e53565b92505081905550826001600160a01b0316846001600160a01b03167fddf252ad1be2c89b69c2b068fc378daa952ba7f163c4a11628f55a4df523b3ef8460405161176591815260200190565b60405180910390a350505050565b60007812725dd1d243aba0e75fe645cc4873f9e65afe688c928e1f218311670de0b6b3a7640000021582026117b057637c5f487d6000526004601cfd5b50670de0b6b3a7640000919091020490565b60006117ed7f00000000000000000000000000000000000000000000000000000000000000006114c8565b60088190556040518181529091507f8a0df8ef054fae2c3d2d19a7b322e864870cc9fd3cb07fb9526309c596244bf49060200160405180910390a150565b6040516323b872dd600052836020528260405281606052602060006064601c6000895af13d15600160005114171661186b57637939f4246000526004601cfd5b600060605260405250505050565b6001600160a01b0382166118a05760405163237813dd60e01b815260040160405180910390fd5b6001600160a01b038216600090815260056020526040812080548392906118c8908490611e53565b9250508190555080600460008282546118e19190611e53565b90915550506040518181526001600160a01b038316906000907fddf252ad1be2c89b69c2b068fc378daa952ba7f163c4a11628f55a4df523b3ef906020015b60405180910390a35050565b6000838302600019848609818110820190038061196157836119565763ae47f7026000526004601cfd5b508290049050610a1d565b8084116119765763ae47f7026000526004601cfd5b838587096000858103861695869004956003870260029081188089028203028089028203028089028203028089028203028089028203028089029091030291819003819004600101858411909403939093029190930391909104170290509392505050565b6000806119eb6115d88486611e53565b9050600d548111611a1957600a54600b54611a07908390611a7d565b611a119190611e53565b9150506107c6565b6000600a54611a35600b54600d54611a7d90919063ffffffff16565b611a3f9190611e53565b90506000600d5483611a519190611eaa565b905081611a69600c5483611a7d90919063ffffffff16565b611a739190611e53565b9695505050505050565b600081600019048311820215611a9b5763bac65e5b6000526004601cfd5b50670de0b6b3a764000091020490565b6009546001600160a01b031680611ac25750505050565b604051632b7cf7cb60e11b81527f000000000000000000000000000000000000000000000000000000000000000060048201526001600160a01b03858116602483015260448201859052606482018490528216906356f9ef9690608401600060405180830381600087803b158015611b3957600080fd5b505af1158015611b4d573d6000803e3d6000fd5b5050505050505050565b6001600160a01b038216611b7e57604051630b5da42b60e01b815260040160405180910390fd5b6001600160a01b03821660009081526005602052604081208054839290611ba6908490611eaa565b925050819055508060046000828254611bbf9190611eaa565b90915550506040518181526000906001600160a01b038416907fddf252ad1be2c89b69c2b068fc378daa952ba7f163c4a11628f55a4df523b3ef90602001611920565b600060208284031215611c13578081fd5b8135610a1d81611f37565b600060208284031215611c2f578081fd5b8151610a1d81611f37565b60008060408385031215611c4c578081fd5b8235611c5781611f37565b91506020830135611c6781611f37565b809150509250929050565b600080600060608486031215611c86578081fd5b8335611c9181611f37565b92506020840135611ca181611f37565b929592945050506040919091013590565b600080600080600080600060e0888a031215611ccc578283fd5b8735611cd781611f37565b96506020880135611ce781611f37565b95506040880135945060608801359350608088013560ff81168114611d0a578384fd5b9699959850939692959460a0840135945060c09093013592915050565b60008060408385031215611d39578182fd5b8235611d4481611f37565b946020939093013593505050565b600060208284031215611d63578081fd5b5035919050565b60008060408385031215611d7c578182fd5b823591506020830135611c6781611f37565b600080600060608486031215611da2578283fd5b833592506020840135611db481611f37565b91506040840135611dc481611f37565b809150509250925092565b60008060008060808587031215611de4578384fd5b5050823594602084013594506040840135936060013592509050565b6000602080835283518082850152825b81811015611e2c57858101830151858201604001528201611e10565b81811115611e3d5783604083870101525b50601f01601f1916929092016040019392505050565b60008219821115611e6657611e66611f21565b500190565b600082611e8657634e487b7160e01b81526012600452602481fd5b500490565b6000816000190483118215151615611ea557611ea5611f21565b500290565b600082821015611ebc57611ebc611f21565b500390565b600063ffffffff83811690831681811015611ede57611ede611f21565b039392505050565b600181811c90821680611efa57607f821691505b60208210811415611f1b57634e487b7160e01b600052602260045260246000fd5b50919050565b634e487b7160e01b600052601160045260246000fd5b6001600160a01b0381168114610f0b57600080fdfea2646970667358221220f0a75c2dd9b09c29bdda07c43a9f7a4e7bc33d3020e853d752bb330e7f8f54be64736f6c63430008040033",
  "linkReferences": {},
  "deployedLinkReferences": {}
}