{
  "_format": "hh-sol-artifact-1",
  "contractName": "CygnusBorrowModel",
  "sourceName": "contracts/cygnus-core/CygnusBorrowModel.sol",
  "abi": [
    {
      "inputs": [],
      "stateMutability": "nonpayable",
      "type": "constructor"
    },
    {
      "inputs": [],
      "name": "CygnusBorrowControl__ParameterNotInRange",
      "type": "error"
    },
    {
      "inputs": [],
      "name": "CygnusTerminal__CantMintZeroShares",
      "type": "error"
    },
    {
      "inputs": [],
      "name": "CygnusTerminal__CantRedeemZeroAssets",
      "type": "error"
    },
    {
      "inputs": [],
      "name": "CygnusTerminal__CantSweepUnderlying",
      "type": "error"
    },
    {
      "inputs": [],
      "name": "CygnusTerminal__MsgSenderNotAdmin",
      "type": "error"
    },
    {
      "inputs": [
        {
          "internalType": "address",
          "name": "owner",
          "type": "address"
        },
        {
          "internalType": "uint8",
          "name": "v",
          "type": "uint8"
        },
        {
          "internalType": "bytes32",
          "name": "r",
          "type": "bytes32"
        },
        {
          "internalType": "bytes32",
          "name": "s",
          "type": "bytes32"
        }
      ],
      "name": "ERC20Permit_InvalidSignature",
      "type": "error"
    },
    {
      "inputs": [],
      "name": "ERC20Permit_OwnerZeroAddress",
      "type": "error"
    },
    {
      "inputs": [
        {
          "internalType": "uint256",
          "name": "currentTime",
          "type": "uint256"
        },
        {
          "internalType": "uint256",
          "name": "deadline",
          "type": "uint256"
        }
      ],
      "name": "ERC20Permit_PermitExpired",
      "type": "error"
    },
    {
      "inputs": [],
      "name": "ERC20Permit_RecoveredOwnerZeroAddress",
      "type": "error"
    },
    {
      "inputs": [],
      "name": "ERC20Permit_SpenderZeroAddress",
      "type": "error"
    },
    {
      "inputs": [],
      "name": "ERC20_ApproveOwnerZeroAddress",
      "type": "error"
    },
    {
      "inputs": [],
      "name": "ERC20_ApproveSpenderZeroAddress",
      "type": "error"
    },
    {
      "inputs": [],
      "name": "ERC20_BurnHolderZeroAddress",
      "type": "error"
    },
    {
      "inputs": [
        {
          "internalType": "uint256",
          "name": "senderBalance",
          "type": "uint256"
        },
        {
          "internalType": "uint256",
          "name": "transferAmount",
          "type": "uint256"
        }
      ],
      "name": "ERC20_FromInsufficientBalance",
      "type": "error"
    },
    {
      "inputs": [
        {
          "internalType": "address",
          "name": "owner",
          "type": "address"
        },
        {
          "internalType": "address",
          "name": "spender",
          "type": "address"
        },
        {
          "internalType": "uint256",
          "name": "allowance",
          "type": "uint256"
        },
        {
          "internalType": "uint256",
          "name": "transferAmount",
          "type": "uint256"
        }
      ],
      "name": "ERC20_InsufficientAllowance",
      "type": "error"
    },
    {
      "inputs": [],
      "name": "ERC20_MintBeneficiaryZeroAddress",
      "type": "error"
    },
    {
      "inputs": [],
      "name": "ERC20_TransferFromZeroAddress",
      "type": "error"
    },
    {
      "inputs": [],
      "name": "ERC20_TransferToZeroAddress",
      "type": "error"
    },
    {
      "inputs": [],
      "name": "ReentrantCall",
      "type": "error"
    },
    {
      "anonymous": false,
      "inputs": [
        {
          "indexed": false,
          "internalType": "uint256",
          "name": "cashStored",
          "type": "uint256"
        },
        {
          "indexed": false,
          "internalType": "uint256",
          "name": "totalBorrowsStored",
          "type": "uint256"
        },
        {
          "indexed": false,
          "internalType": "uint256",
          "name": "interestAccumulated",
          "type": "uint256"
        }
      ],
      "name": "AccrueInterest",
      "type": "event"
    },
    {
      "anonymous": false,
      "inputs": [
        {
          "indexed": true,
          "internalType": "address",
          "name": "owner",
          "type": "address"
        },
        {
          "indexed": true,
          "internalType": "address",
          "name": "spender",
          "type": "address"
        },
        {
          "indexed": false,
          "internalType": "uint256",
          "name": "value",
          "type": "uint256"
        }
      ],
      "name": "Approval",
      "type": "event"
    },
    {
      "anonymous": false,
      "inputs": [
        {
          "indexed": true,
          "internalType": "address",
          "name": "sender",
          "type": "address"
        },
        {
          "indexed": true,
          "internalType": "address",
          "name": "recipient",
          "type": "address"
        },
        {
          "indexed": false,
          "internalType": "uint256",
          "name": "assets",
          "type": "uint256"
        },
        {
          "indexed": false,
          "internalType": "uint256",
          "name": "shares",
          "type": "uint256"
        }
      ],
      "name": "Deposit",
      "type": "event"
    },
    {
      "anonymous": false,
      "inputs": [
        {
          "indexed": false,
          "internalType": "address",
          "name": "oldBorrowRewarder",
          "type": "address"
        },
        {
          "indexed": false,
          "internalType": "address",
          "name": "newBorrowRewarder",
          "type": "address"
        }
      ],
      "name": "NewCygnusBorrowRewarder",
      "type": "event"
    },
    {
      "anonymous": false,
      "inputs": [
        {
          "indexed": false,
          "internalType": "uint256",
          "name": "baseRatePerYear",
          "type": "uint256"
        },
        {
          "indexed": false,
          "internalType": "uint256",
          "name": "multiplierPerYear",
          "type": "uint256"
        },
        {
          "indexed": false,
          "internalType": "uint256",
          "name": "kinkMultiplier_",
          "type": "uint256"
        },
        {
          "indexed": false,
          "internalType": "uint256",
          "name": "kinkUtilizationRate_",
          "type": "uint256"
        }
      ],
      "name": "NewInterestRateParameters",
      "type": "event"
    },
    {
      "anonymous": false,
      "inputs": [
        {
          "indexed": false,
          "internalType": "uint256",
          "name": "oldReserveFactor",
          "type": "uint256"
        },
        {
          "indexed": false,
          "internalType": "uint256",
          "name": "newReserveFactor",
          "type": "uint256"
        }
      ],
      "name": "NewReserveFactor",
      "type": "event"
    },
    {
      "anonymous": false,
      "inputs": [
        {
          "indexed": false,
          "internalType": "uint160",
          "name": "totalBalance",
          "type": "uint160"
        }
      ],
      "name": "Sync",
      "type": "event"
    },
    {
      "anonymous": false,
      "inputs": [
        {
          "indexed": true,
          "internalType": "address",
          "name": "from",
          "type": "address"
        },
        {
          "indexed": true,
          "internalType": "address",
          "name": "to",
          "type": "address"
        },
        {
          "indexed": false,
          "internalType": "uint256",
          "name": "amount",
          "type": "uint256"
        }
      ],
      "name": "Transfer",
      "type": "event"
    },
    {
      "anonymous": false,
      "inputs": [
        {
          "indexed": true,
          "internalType": "address",
          "name": "sender",
          "type": "address"
        },
        {
          "indexed": true,
          "internalType": "address",
          "name": "recipient",
          "type": "address"
        },
        {
          "indexed": true,
          "internalType": "address",
          "name": "owner",
          "type": "address"
        },
        {
          "indexed": false,
          "internalType": "uint256",
          "name": "assets",
          "type": "uint256"
        },
        {
          "indexed": false,
          "internalType": "uint256",
          "name": "shares",
          "type": "uint256"
        }
      ],
      "name": "Withdraw",
      "type": "event"
    },
    {
      "inputs": [],
      "name": "DOMAIN_SEPARATOR",
      "outputs": [
        {
          "internalType": "bytes32",
          "name": "",
          "type": "bytes32"
        }
      ],
      "stateMutability": "view",
      "type": "function"
    },
    {
      "inputs": [],
      "name": "PERMIT2",
      "outputs": [
        {
          "internalType": "contract IAllowanceTransfer",
          "name": "",
          "type": "address"
        }
      ],
      "stateMutability": "view",
      "type": "function"
    },
    {
      "inputs": [],
      "name": "PERMIT_TYPEHASH",
      "outputs": [
        {
          "internalType": "bytes32",
          "name": "",
          "type": "bytes32"
        }
      ],
      "stateMutability": "view",
      "type": "function"
    },
    {
      "inputs": [],
      "name": "accrueInterest",
      "outputs": [],
      "stateMutability": "nonpayable",
      "type": "function"
    },
    {
      "inputs": [
        {
          "internalType": "address",
          "name": "owner",
          "type": "address"
        },
        {
          "internalType": "address",
          "name": "spender",
          "type": "address"
        }
      ],
      "name": "allowance",
      "outputs": [
        {
          "internalType": "uint256",
          "name": "",
          "type": "uint256"
        }
      ],
      "stateMutability": "view",
      "type": "function"
    },
    {
      "inputs": [
        {
          "internalType": "address",
          "name": "spender",
          "type": "address"
        },
        {
          "internalType": "uint256",
          "name": "value",
          "type": "uint256"
        }
      ],
      "name": "approve",
      "outputs": [
        {
          "internalType": "bool",
          "name": "",
          "type": "bool"
        }
      ],
      "stateMutability": "nonpayable",
      "type": "function"
    },
    {
      "inputs": [
        {
          "internalType": "address",
          "name": "account",
          "type": "address"
        }
      ],
      "name": "balanceOf",
      "outputs": [
        {
          "internalType": "uint256",
          "name": "",
          "type": "uint256"
        }
      ],
      "stateMutability": "view",
      "type": "function"
    },
    {
      "inputs": [],
      "name": "baseRatePerSecond",
      "outputs": [
        {
          "internalType": "uint256",
          "name": "",
          "type": "uint256"
        }
      ],
      "stateMutability": "view",
      "type": "function"
    },
    {
      "inputs": [],
      "name": "borrowIndex",
      "outputs": [
        {
          "internalType": "uint80",
          "name": "",
          "type": "uint80"
        }
      ],
      "stateMutability": "view",
      "type": "function"
    },
    {
      "inputs": [],
      "name": "borrowRate",
      "outputs": [
        {
          "internalType": "uint48",
          "name": "",
          "type": "uint48"
        }
      ],
      "stateMutability": "view",
      "type": "function"
    },
    {
      "inputs": [],
      "name": "collateral",
      "outputs": [
        {
          "internalType": "address",
          "name": "",
          "type": "address"
        }
      ],
      "stateMutability": "view",
      "type": "function"
    },
    {
      "inputs": [],
      "name": "cygnusBorrowRewarder",
      "outputs": [
        {
          "internalType": "address",
          "name": "",
          "type": "address"
        }
      ],
      "stateMutability": "view",
      "type": "function"
    },
    {
      "inputs": [],
      "name": "cygnusNebulaOracle",
      "outputs": [
        {
          "internalType": "contract ICygnusNebulaOracle",
          "name": "",
          "type": "address"
        }
      ],
      "stateMutability": "view",
      "type": "function"
    },
    {
      "inputs": [],
      "name": "decimals",
      "outputs": [
        {
          "internalType": "uint8",
          "name": "",
          "type": "uint8"
        }
      ],
      "stateMutability": "view",
      "type": "function"
    },
    {
      "inputs": [
        {
          "internalType": "address",
          "name": "spender",
          "type": "address"
        },
        {
          "internalType": "uint256",
          "name": "value",
          "type": "uint256"
        }
      ],
      "name": "decreaseAllowance",
      "outputs": [
        {
          "internalType": "bool",
          "name": "",
          "type": "bool"
        }
      ],
      "stateMutability": "nonpayable",
      "type": "function"
    },
    {
      "inputs": [
        {
          "internalType": "uint256",
          "name": "assets",
          "type": "uint256"
        },
        {
          "internalType": "address",
          "name": "recipient",
          "type": "address"
        },
        {
          "components": [
            {
              "components": [
                {
                  "internalType": "address",
                  "name": "token",
                  "type": "address"
                },
                {
                  "internalType": "uint160",
                  "name": "amount",
                  "type": "uint160"
                },
                {
                  "internalType": "uint48",
                  "name": "expiration",
                  "type": "uint48"
                },
                {
                  "internalType": "uint48",
                  "name": "nonce",
                  "type": "uint48"
                }
              ],
              "internalType": "struct IAllowanceTransfer.PermitDetails",
              "name": "details",
              "type": "tuple"
            },
            {
              "internalType": "address",
              "name": "spender",
              "type": "address"
            },
            {
              "internalType": "uint256",
              "name": "sigDeadline",
              "type": "uint256"
            }
          ],
          "internalType": "struct IAllowanceTransfer.PermitSingle",
          "name": "_permit",
          "type": "tuple"
        },
        {
          "internalType": "bytes",
          "name": "signature",
          "type": "bytes"
        }
      ],
      "name": "deposit",
      "outputs": [
        {
          "internalType": "uint256",
          "name": "shares",
          "type": "uint256"
        }
      ],
      "stateMutability": "nonpayable",
      "type": "function"
    },
    {
      "inputs": [],
      "name": "exchangeRate",
      "outputs": [
        {
          "internalType": "uint256",
          "name": "",
          "type": "uint256"
        }
      ],
      "stateMutability": "nonpayable",
      "type": "function"
    },
    {
      "inputs": [],
      "name": "exchangeRateStored",
      "outputs": [
        {
          "internalType": "uint256",
          "name": "",
          "type": "uint256"
        }
      ],
      "stateMutability": "view",
      "type": "function"
    },
    {
      "inputs": [
        {
          "internalType": "address",
          "name": "borrower",
          "type": "address"
        }
      ],
      "name": "getBorrowBalance",
      "outputs": [
        {
          "internalType": "uint256",
          "name": "",
          "type": "uint256"
        }
      ],
      "stateMutability": "view",
      "type": "function"
    },
    {
      "inputs": [],
      "name": "hangar18",
      "outputs": [
        {
          "internalType": "contract IHangar18",
          "name": "",
          "type": "address"
        }
      ],
      "stateMutability": "view",
      "type": "function"
    },
    {
      "inputs": [
        {
          "internalType": "address",
          "name": "spender",
          "type": "address"
        },
        {
          "internalType": "uint256",
          "name": "value",
          "type": "uint256"
        }
      ],
      "name": "increaseAllowance",
      "outputs": [
        {
          "internalType": "bool",
          "name": "",
          "type": "bool"
        }
      ],
      "stateMutability": "nonpayable",
      "type": "function"
    },
    {
      "inputs": [],
      "name": "jumpMultiplierPerSecond",
      "outputs": [
        {
          "internalType": "uint256",
          "name": "",
          "type": "uint256"
        }
      ],
      "stateMutability": "view",
      "type": "function"
    },
    {
      "inputs": [],
      "name": "kinkMultiplier",
      "outputs": [
        {
          "internalType": "uint256",
          "name": "",
          "type": "uint256"
        }
      ],
      "stateMutability": "view",
      "type": "function"
    },
    {
      "inputs": [],
      "name": "kinkUtilizationRate",
      "outputs": [
        {
          "internalType": "uint256",
          "name": "",
          "type": "uint256"
        }
      ],
      "stateMutability": "view",
      "type": "function"
    },
    {
      "inputs": [],
      "name": "lastAccrualTimestamp",
      "outputs": [
        {
          "internalType": "uint32",
          "name": "",
          "type": "uint32"
        }
      ],
      "stateMutability": "view",
      "type": "function"
    },
    {
      "inputs": [],
      "name": "multiplierPerSecond",
      "outputs": [
        {
          "internalType": "uint256",
          "name": "",
          "type": "uint256"
        }
      ],
      "stateMutability": "view",
      "type": "function"
    },
    {
      "inputs": [],
      "name": "name",
      "outputs": [
        {
          "internalType": "string",
          "name": "",
          "type": "string"
        }
      ],
      "stateMutability": "view",
      "type": "function"
    },
    {
      "inputs": [
        {
          "internalType": "address",
          "name": "",
          "type": "address"
        }
      ],
      "name": "nonces",
      "outputs": [
        {
          "internalType": "uint256",
          "name": "",
          "type": "uint256"
        }
      ],
      "stateMutability": "view",
      "type": "function"
    },
    {
      "inputs": [
        {
          "internalType": "address",
          "name": "owner",
          "type": "address"
        },
        {
          "internalType": "address",
          "name": "spender",
          "type": "address"
        },
        {
          "internalType": "uint256",
          "name": "value",
          "type": "uint256"
        },
        {
          "internalType": "uint256",
          "name": "deadline",
          "type": "uint256"
        },
        {
          "internalType": "uint8",
          "name": "v",
          "type": "uint8"
        },
        {
          "internalType": "bytes32",
          "name": "r",
          "type": "bytes32"
        },
        {
          "internalType": "bytes32",
          "name": "s",
          "type": "bytes32"
        }
      ],
      "name": "permit",
      "outputs": [],
      "stateMutability": "nonpayable",
      "type": "function"
    },
    {
      "inputs": [
        {
          "internalType": "uint256",
          "name": "shares",
          "type": "uint256"
        },
        {
          "internalType": "address",
          "name": "recipient",
          "type": "address"
        },
        {
          "internalType": "address",
          "name": "owner",
          "type": "address"
        }
      ],
      "name": "redeem",
      "outputs": [
        {
          "internalType": "uint256",
          "name": "assets",
          "type": "uint256"
        }
      ],
      "stateMutability": "nonpayable",
      "type": "function"
    },
    {
      "inputs": [],
      "name": "reserveFactor",
      "outputs": [
        {
          "internalType": "uint256",
          "name": "",
          "type": "uint256"
        }
      ],
      "stateMutability": "view",
      "type": "function"
    },
    {
      "inputs": [
        {
          "internalType": "address",
          "name": "newBorrowRewarder",
          "type": "address"
        }
      ],
      "name": "setCygnusBorrowRewarder",
      "outputs": [],
      "stateMutability": "nonpayable",
      "type": "function"
    },
    {
      "inputs": [
        {
          "internalType": "uint256",
          "name": "baseRatePerYear_",
          "type": "uint256"
        },
        {
          "internalType": "uint256",
          "name": "multiplierPerYear_",
          "type": "uint256"
        },
        {
          "internalType": "uint256",
          "name": "kinkMultiplier_",
          "type": "uint256"
        },
        {
          "internalType": "uint256",
          "name": "kinkUtilizationRate_",
          "type": "uint256"
        }
      ],
      "name": "setInterestRateModel",
      "outputs": [],
      "stateMutability": "nonpayable",
      "type": "function"
    },
    {
      "inputs": [
        {
          "internalType": "uint256",
          "name": "newReserveFactor",
          "type": "uint256"
        }
      ],
      "name": "setReserveFactor",
      "outputs": [],
      "stateMutability": "nonpayable",
      "type": "function"
    },
    {
      "inputs": [],
      "name": "shuttleId",
      "outputs": [
        {
          "internalType": "uint256",
          "name": "",
          "type": "uint256"
        }
      ],
      "stateMutability": "view",
      "type": "function"
    },
    {
      "inputs": [],
      "name": "supplyRate",
      "outputs": [
        {
          "internalType": "uint256",
          "name": "",
          "type": "uint256"
        }
      ],
      "stateMutability": "view",
      "type": "function"
    },
    {
      "inputs": [
        {
          "internalType": "address",
          "name": "token",
          "type": "address"
        }
      ],
      "name": "sweepToken",
      "outputs": [],
      "stateMutability": "nonpayable",
      "type": "function"
    },
    {
      "inputs": [],
      "name": "symbol",
      "outputs": [
        {
          "internalType": "string",
          "name": "",
          "type": "string"
        }
      ],
      "stateMutability": "view",
      "type": "function"
    },
    {
      "inputs": [],
      "name": "totalBalance",
      "outputs": [
        {
          "internalType": "uint160",
          "name": "",
          "type": "uint160"
        }
      ],
      "stateMutability": "view",
      "type": "function"
    },
    {
      "inputs": [],
      "name": "totalBorrows",
      "outputs": [
        {
          "internalType": "uint96",
          "name": "",
          "type": "uint96"
        }
      ],
      "stateMutability": "view",
      "type": "function"
    },
    {
      "inputs": [],
      "name": "totalSupply",
      "outputs": [
        {
          "internalType": "uint256",
          "name": "",
          "type": "uint256"
        }
      ],
      "stateMutability": "view",
      "type": "function"
    },
    {
      "inputs": [
        {
          "internalType": "address",
          "name": "borrower",
          "type": "address"
        }
      ],
      "name": "trackBorrower",
      "outputs": [],
      "stateMutability": "nonpayable",
      "type": "function"
    },
    {
      "inputs": [
        {
          "internalType": "address",
          "name": "to",
          "type": "address"
        },
        {
          "internalType": "uint256",
          "name": "amount",
          "type": "uint256"
        }
      ],
      "name": "transfer",
      "outputs": [
        {
          "internalType": "bool",
          "name": "",
          "type": "bool"
        }
      ],
      "stateMutability": "nonpayable",
      "type": "function"
    },
    {
      "inputs": [
        {
          "internalType": "address",
          "name": "from",
          "type": "address"
        },
        {
          "internalType": "address",
          "name": "to",
          "type": "address"
        },
        {
          "internalType": "uint256",
          "name": "amount",
          "type": "uint256"
        }
      ],
      "name": "transferFrom",
      "outputs": [
        {
          "internalType": "bool",
          "name": "",
          "type": "bool"
        }
      ],
      "stateMutability": "nonpayable",
      "type": "function"
    },
    {
      "inputs": [],
      "name": "underlying",
      "outputs": [
        {
          "internalType": "address",
          "name": "",
          "type": "address"
        }
      ],
      "stateMutability": "view",
      "type": "function"
    },
    {
      "inputs": [],
      "name": "utilizationRate",
      "outputs": [
        {
          "internalType": "uint256",
          "name": "",
          "type": "uint256"
        }
      ],
      "stateMutability": "view",
      "type": "function"
    },
    {
      "inputs": [],
      "name": "version",
      "outputs": [
        {
          "internalType": "string",
          "name": "",
          "type": "string"
        }
      ],
      "stateMutability": "view",
      "type": "function"
    }
  ],
  "bytecode": "0x610140604052670bcbce7f1b150000600c556002600d55670214e8348c4f0000600e55670de0b6b3a7640000600f553480156200003b57600080fd5b5060405146907f8b73c3c69bb8fe3d512ecc4cf759cc79239f7b179b0ffacaa9a75d522b39400f906200007190600090620003c5565b60408051918290038220828201825260018352603160f81b6020938401528151928301939093528101919091527fc89efdaa54c0f20c7adf612882df0950f5a951637e0307cdcb4c672f298b8bc66060820152608081018290523060a082015260c00160408051601f1981840301815282825280516020909101206080526007805460ff19166001179055635a412e5360e01b825251339250635a412e539160048082019260a09290919082900301816000875af115801562000138573d6000803e3d6000fd5b505050506040513d601f19601f820116820180604052508101906200015e91906200045c565b610100526001600160a01b0390811660c05291821660e052501660a090815260408051635a412e5360e01b8152905160009283923392635a412e5392600480840193919291829003018187875af1158015620001be573d6000803e3d6000fd5b505050506040513d601f19601f82011682018060405250810190620001e491906200045c565b50509250925050604051806040016040528060128152602001714379676e75733a20426f72726f7761626c6560701b8152506000908162000226919062000539565b50816001600160a01b03166395d89b416040518163ffffffff1660e01b8152600401600060405180830381865afa15801562000266573d6000803e3d6000fd5b505050506040513d6000823e601f3d908101601f191682016040526200029091908101906200062b565b604051602001620002a29190620006e3565b60405160208183030381529060405260019081620002c1919062000539565b50816001600160a01b031663313ce5676040518163ffffffff1660e01b8152600401602060405180830381865afa15801562000301573d6000803e3d6000fd5b505050506040513d601f19601f8201168201806040525081019062000327919062000715565b6002805460ff191660ff929092169190911790556001600160a01b031661012052506000600355601180546503782dace9d960721b6001600160601b0365ffffffffffff60b01b01909116600160e01b4263ffffffff16021717905562000741565b600181811c908216806200039e57607f821691505b602082108103620003bf57634e487b7160e01b600052602260045260246000fd5b50919050565b6000808354620003d58162000389565b60018281168015620003f05760018114620004065762000437565b60ff198416875282151583028701945062000437565b8760005260208060002060005b858110156200042e5781548a82015290840190820162000413565b50505082870194505b50929695505050505050565b6001600160a01b03811681146200045957600080fd5b50565b600080600080600060a086880312156200047557600080fd5b8551620004828162000443565b6020870151909550620004958162000443565b6040870151909450620004a88162000443565b6060870151909350620004bb8162000443565b80925050608086015190509295509295909350565b634e487b7160e01b600052604160045260246000fd5b601f8211156200053457600081815260208120601f850160051c810160208610156200050f5750805b601f850160051c820191505b8181101562000530578281556001016200051b565b5050505b505050565b81516001600160401b03811115620005555762000555620004d0565b6200056d8162000566845462000389565b84620004e6565b602080601f831160018114620005a557600084156200058c5750858301515b600019600386901b1c1916600185901b17855562000530565b600085815260208120601f198616915b82811015620005d657888601518255948401946001909101908401620005b5565b5085821015620005f55787850151600019600388901b60f8161c191681555b5050505050600190811b01905550565b60005b838110156200062257818101518382015260200162000608565b50506000910152565b6000602082840312156200063e57600080fd5b81516001600160401b03808211156200065657600080fd5b818401915084601f8301126200066b57600080fd5b815181811115620006805762000680620004d0565b604051601f8201601f19908116603f01168101908382118183101715620006ab57620006ab620004d0565b81604052828152876020848701011115620006c557600080fd5b620006d883602083016020880162000605565b979650505050505050565b67021bcb3aaa9a21d160c51b8152600082516200070881600885016020870162000605565b9190910160080192915050565b6000602082840312156200072857600080fd5b815160ff811681146200073a57600080fd5b9392505050565b60805160a05160c05160e0516101005161012051612389620007c260003960006107140152600081816104ec01526119df015260008181610549015281816108a201528181610d61015281816112720152611b1b015260006107440152600081816107a4015261165601526000818161041d015261140f01526123896000f3fe608060405234801561001057600080fd5b50600436106103155760003560e01c80636f307dc3116101a7578063ad168c9d116100ee578063d505accf11610097578063d935bd9211610071578063d935bd921461073f578063dd62ed3e14610766578063e8a24e1d1461079f57600080fd5b8063d505accf146106fc578063d8dfeb451461070f578063d90e02641461073657600080fd5b8063ba087652116100c8578063ba0876521461068d578063c0789dcb146106a0578063c914b437146106cc57600080fd5b8063ad168c9d1461065a578063ad2961a31461066d578063ad7a672f1461067557600080fd5b806395d89b4111610150578063a6afed951161012a578063a6afed9514610607578063a9059cbb1461060f578063aa5af0fd1461062257600080fd5b806395d89b41146105e35780639b510998146105eb578063a457c2d7146105f457600080fd5b80637d6af079116101815780637d6af0791461059d5780637ecebe00146105b05780638808e71c146105d057600080fd5b80636f307dc31461054457806370a082311461056b57806372cf84a71461059457600080fd5b80633644e5151161026b57806347bd3718116102145780635f77f891116101ee5780635f77f891146104e75780636afdd8501461050e5780636c321c8a1461053c57600080fd5b806347bd37181461047f57806354fd4d50146104b45780635b322bbe146104d457600080fd5b806342bf78af1161024557806342bf78af1461045a5780634322b7141461046d57806346f608ff1461047657600080fd5b80633644e51514610418578063395093511461043f5780633ba0b9a91461045257600080fd5b80631be19560116102cd57806323b872dd116102a757806323b872dd146103bf57806330adf81f146103d2578063313ce567146103f957600080fd5b80631be19560146103845780631c446983146103995780631e44b7fc146103ac57600080fd5b806318160ddd116102fe57806318160ddd1461035b578063182df0f5146103725780631aebf12f1461037b57600080fd5b806306fdde031461031a578063095ea7b314610338575b600080fd5b6103226107c6565b60405161032f9190611e7d565b60405180910390f35b61034b610346366004611ee0565b610854565b604051901515815260200161032f565b61036460035481565b60405190815260200161032f565b610364600f5481565b610364600c5481565b610397610392366004611f0c565b61086b565b005b6103976103a7366004611f29565b610924565b6103976103ba366004611f42565b610986565b61034b6103cd366004611f74565b6109a0565b6103647f6e71edae12b1b97f4d1f60370fef10105fa2faae0126114a169c64845d6126c981565b6002546104069060ff1681565b60405160ff909116815260200161032f565b6103647f000000000000000000000000000000000000000000000000000000000000000081565b61034b61044d366004611ee0565b610a31565b610364610a79565b610397610468366004611f0c565b610ab5565b610364600e5481565b610364600a5481565b601154610497906bffffffffffffffffffffffff1681565b6040516bffffffffffffffffffffffff909116815260200161032f565b610322604051806040016040528060018152602001603160f81b81525081565b6103976104e2366004611f0c565b610b2f565b6103647f000000000000000000000000000000000000000000000000000000000000000081565b6105246e22d473030f116ddee9f6b43ac78ba381565b6040516001600160a01b03909116815260200161032f565b610364610b5a565b6105247f000000000000000000000000000000000000000000000000000000000000000081565b610364610579366004611f0c565b6001600160a01b031660009081526005602052604090205490565b610364600b5481565b6103646105ab366004611f0c565b610ba3565b6103646105be366004611f0c565b60066020526000908152604090205481565b6103646105de366004611fb5565b610c47565b610322610e9d565b610364600d5481565b61034b610602366004611ee0565b610eaa565b610397610edb565b61034b61061d366004611ee0565b6110c7565b60115461063f90600160601b900469ffffffffffffffffffff1681565b60405169ffffffffffffffffffff909116815260200161032f565b600854610524906001600160a01b031681565b6103646110d4565b6007546105249061010090046001600160a01b031681565b61036461069b366004612060565b611188565b6011546106b790600160e01b900463ffffffff1681565b60405163ffffffff909116815260200161032f565b6011546106e590600160b01b900465ffffffffffff1681565b60405165ffffffffffff909116815260200161032f565b61039761070a3660046120a2565b611300565b6105247f000000000000000000000000000000000000000000000000000000000000000081565b61036460095481565b6105247f000000000000000000000000000000000000000000000000000000000000000081565b610364610774366004612119565b6001600160a01b03918216600090815260046020908152604080832093909416825291909152205490565b6105247f000000000000000000000000000000000000000000000000000000000000000081565b600080546107d390612152565b80601f01602080910402602001604051908101604052809291908181526020018280546107ff90612152565b801561084c5780601f106108215761010080835404028352916020019161084c565b820191906000526020600020905b81548152906001019060200180831161082f57829003601f168201915b505050505081565b60006108613384846115a3565b5060015b92915050565b60075460ff1661088e576040516306fda65d60e31b815260040160405180910390fd5b6007805460ff191690556108a0611652565b7f00000000000000000000000000000000000000000000000000000000000000006001600160a01b0316816001600160a01b0316036108f25760405163b5d8f39160e01b815260040160405180910390fd5b60006108fd82611701565b90506109136001600160a01b0383163383611716565b50506007805460ff19166001179055565b61092c611652565b61094060006702c68af0bb14000083611765565b600e80549082905560408051828152602081018490527faaa68312e2ea9d50e16af5068410ab56e1a1fd06037b1a35664812c30f82146091015b60405180910390a15050565b61098e611652565b61099a84848484611795565b50505050565b6001600160a01b038316600090815260046020908152604080832033808552925282205483811015610a0b57604051636497133b60e11b81526001600160a01b0380881660048301528316602482015260448101829052606481018590526084015b60405180910390fd5b610a1886838684036115a3565b610a2386868661186b565b6001925050505b9392505050565b3360009081526004602090815260408083206001600160a01b03861684529091528120548190610a629084906121a2565b9050610a6f3385836115a3565b5060019392505050565b6003546000908015610aa557600754610aa09061010090046001600160a01b03168261196a565b610aaf565b670de0b6b3a76400005b91505090565b610abd611652565b600880546001600160a01b038381167fffffffffffffffffffffffff000000000000000000000000000000000000000083168117909355604080519190921680825260208201939093527f2a0d5dc7fbc8045f59cb33c736f04f9a9b565e9f425912f9cd2bafdebd50cead910161097a565b610b5781610b3c83610ba3565b601154600160601b900469ffffffffffffffffffff166119b9565b50565b6011546000906bffffffffffffffffffffffff168015610b9b57600754610aa090610b9490839061010090046001600160a01b03166121a2565b829061196a565b600091505090565b6001600160a01b03811660009081526010602090815260408083208151808301909252546fffffffffffffffffffffffffffffffff808216835270010000000000000000000000000000000090910416918101829052908203610c095750600092915050565b60115460208201518251610a2a926fffffffffffffffffffffffffffffffff91821692600160601b90910469ffffffffffffffffffff169116611a65565b60075460009060ff16610c6d576040516306fda65d60e31b815260040160405180910390fd5b6007805460ff191690556000610c81611b14565b90508215610cf4576040516302b67b5760e41b81526e22d473030f116ddee9f6b43ac78ba390632b67b57090610cc19033908990899089906004016121f9565b600060405180830381600087803b158015610cdb57600080fd5b505af1158015610cef573d6000803e3d6000fd5b505050505b6e22d473030f116ddee9f6b43ac78ba36336c785163330610d148b611b44565b60405160e085901b7fffffffff000000000000000000000000000000000000000000000000000000001681526001600160a01b0393841660048201529183166024830152821660448201527f00000000000000000000000000000000000000000000000000000000000000009091166064820152608401600060405180830381600087803b158015610da557600080fd5b505af1158015610db9573d6000803e3d6000fd5b505050506000610dc7611b14565b9050610de4610dd4610a79565b610dde84846122a6565b9061196a565b925082600003610e075760405163f1ca48b160e01b815260040160405180910390fd5b600354600003610e2d57610e1d6103e8846122a6565b9250610e2d61dead6103e8611b6e565b610e378784611b6e565b60408051898152602081018590526001600160a01b0389169133917fdcbc1c05240f31ff3ad067ef1ee35ce4997762752e3a095284754544f4c709d7910160405180910390a35050610e87611c01565b6007805460ff1916600117905595945050505050565b600180546107d390612152565b3360009081526004602090815260408083206001600160a01b03861684529091528120548190610a629084906122a6565b6011544290600160e01b900463ffffffff166000610ef982846122b9565b6011546007549192506bffffffffffffffffffffffff81169161010090046001600160a01b031690600160601b900469ffffffffffffffffffff1663ffffffff8581169087161480610f49575082155b15610f5657505050505050565b6000610f628385611c86565b90506000610f7663ffffffff8716836122dd565b90506000610f848287611d28565b9050610f9081876121a2565b9550610f9c8285611d28565b610fa690856121a2565b9350610fb186611d56565b601180546bffffffffffffffffffffffff19166bffffffffffffffffffffffff92909216919091179055610fe484611d6b565b6011600c6101000a81548169ffffffffffffffffffff021916908369ffffffffffffffffffff16021790555061101983611d87565b6011805475ffffffffffffffffffffffffffffffffffffffffffff16600160b01b65ffffffffffff93909316929092027bffffffffffffffffffffffffffffffffffffffffffffffffffffffff1691909117600160e01b63ffffffff8c160217905560408051868152602081018890529081018290527f875352fb3fadeb8c0be7cbbe8ff761b308fa7033470cd0287f02f3436fd76cb99060600160405180910390a1505050505050505050565b600061086133848461186b565b600080611108600e54670de0b6b3a76400006110f091906122a6565b601154600160b01b900465ffffffffffff1690611d28565b60115460075491925060009161113a916bffffffffffffffffffffffff169061010090046001600160a01b03166122f4565b6001600160a01b03169050806000036111565760009250505090565b601154600090611174906bffffffffffffffffffffffff168361196a565b90506111808184611d28565b935050505090565b60075460009060ff166111ae576040516306fda65d60e31b815260040160405180910390fd5b6007805460ff19169055336001600160a01b03831614611226576001600160a01b03821660009081526004602090815260408083203384529091529020546000198114611224576111ff85826122a6565b6001600160a01b03841660009081526004602090815260408083203384529091529020555b505b611238611231610a79565b8590611d28565b90506000811161125b5760405163e3e8d29760e01b815260040160405180910390fd5b6112658285611d9f565b6112996001600160a01b037f0000000000000000000000000000000000000000000000000000000000000000168483611716565b60408051828152602081018690526001600160a01b03808516929086169133917ffbde797d201c681b91056529119e0b02407c7bb96a4a2c75c01fc9667232c8db910160405180910390a46112ec611c01565b6007805460ff191660011790559392505050565b6001600160a01b038716611327576040516337adc3e960e11b815260040160405180910390fd5b6001600160a01b03861661134e57604051637b4813dd60e01b815260040160405180910390fd5b4284101561137857604051633288645960e01b815242600482015260248101859052604401610a02565b6001600160a01b0387811660008181526006602090815260408083208054600180820190925582517f6e71edae12b1b97f4d1f60370fef10105fa2faae0126114a169c64845d6126c98186015280840196909652958c166060860152608085018b905260a085019590955260c08085018a90528151808603909101815260e08501825280519083012061190160f01b6101008601527f000000000000000000000000000000000000000000000000000000000000000061010286015261012280860182905282518087039091018152610142860180845281519185019190912090859052610162860180845281905260ff8a166101828701526101a286018990526101c2860188905291519095919491926101e2808401939192601f1981019281900390910190855afa1580156114b3573d6000803e3d6000fd5b5050604051601f1901519150506001600160a01b0381166114e75760405163d147d0e360e01b815260040160405180910390fd5b896001600160a01b0316816001600160a01b03161461153b57604051633460790b60e01b81526001600160a01b038b16600482015260ff871660248201526044810186905260648101859052608401610a02565b6001600160a01b038a81166000818152600460209081526040808320948e16808452948252918290208c905590518b81527f8c5be1e5ebec7d5bd14f71427d1e84f3dd0314c0f7b2291e5b200ac8c7c3b925910160405180910390a350505050505050505050565b6001600160a01b0383166115ca5760405163231b1a1d60e21b815260040160405180910390fd5b6001600160a01b0382166115f157604051632b6990d760e21b815260040160405180910390fd5b6001600160a01b0383811660008181526004602090815260408083209487168084529482529182902085905590518481527f8c5be1e5ebec7d5bd14f71427d1e84f3dd0314c0f7b2291e5b200ac8c7c3b925910160405180910390a3505050565b60007f00000000000000000000000000000000000000000000000000000000000000006001600160a01b031663f851a4406040518163ffffffff1660e01b8152600401602060405180830381865afa1580156116b2573d6000803e3d6000fd5b505050506040513d601f19601f820116820180604052508101906116d69190612314565b9050336001600160a01b03821614610b57576040516331d63ad160e11b815260040160405180910390fd5b60006108656001600160a01b03831630611e3a565b81601452806034526fa9059cbb00000000000000000000000060005260206000604460106000875af13d15600160005114171661175b576390b8ec186000526004601cfd5b6000603452505050565b8281108061177257508181115b1561179057604051630e49b3b360e41b815260040160405180910390fd5b505050565b6117a9600067016345785d8a000086611765565b6117c46706f05b59d3b20000670d2f13f7789f000083611765565b6117d16001600a84611765565b6117df6301e1338085612331565b6009556117fa6117f3826301e133806122dd565b849061196a565b600a55600d829055600c81905561181a81610dde85856301e13380611a65565b600b556040805185815260208101859052908101839052606081018290527ff58b8cc439edada25fd9495b7364aeb1d737dbef59be1cf62e0cc4001c44a3cd9060800160405180910390a150505050565b6001600160a01b03831661189257604051636fbb781760e01b815260040160405180910390fd5b6001600160a01b0382166118b8576040516261696b60e71b815260040160405180910390fd5b6001600160a01b038316600090815260056020526040902054818110156118fc5760405163430cf54960e11b81526004810182905260248101839052604401610a02565b6001600160a01b0380851660008181526005602052604080822086860390559286168082529083902080548601905591517fddf252ad1be2c89b69c2b068fc378daa952ba7f163c4a11628f55a4df523b3ef9061195c9086815260200190565b60405180910390a350505050565b60007812725dd1d243aba0e75fe645cc4873f9e65afe688c928e1f218311670de0b6b3a7640000021582026119a757637c5f487d6000526004601cfd5b50670de0b6b3a7640000919091020490565b6008546001600160a01b0316806119d05750505050565b604051632110f7f160e21b81527f000000000000000000000000000000000000000000000000000000000000000060048201526001600160a01b0385811660248301526044820185905260648201849052821690638443dfc490608401600060405180830381600087803b158015611a4757600080fd5b505af1158015611a5b573d6000803e3d6000fd5b5050505050505050565b60008383026000198486098181108201900380611a9a5783611a8f5763ae47f7026000526004601cfd5b508290049050610a2a565b808411611aaf5763ae47f7026000526004601cfd5b838587096000858103861695869004956003870260029081188089028203028089028203028089028203028089028203028089028203028089029091030291819003819004600101858411909403939093029190930391909104170290509392505050565b6000611b3f7f0000000000000000000000000000000000000000000000000000000000000000611701565b905090565b6000740100000000000000000000000000000000000000008210611b6a57611b6a611e6f565b5090565b6001600160a01b038216611b955760405163df3dc1c960e01b815260040160405180910390fd5b8060036000828254611ba791906121a2565b90915550506001600160a01b0382166000818152600560209081526040808320805486019055518481527fddf252ad1be2c89b69c2b068fc378daa952ba7f163c4a11628f55a4df523b3ef91015b60405180910390a35050565b6000611c0b611b14565b90507f3145c2b643834867f2c0a8cac8a48218307687911615c0ed01412a09dd163b66611c3782611b44565b600780547fffffffffffffffffffffff0000000000000000000000000000000000000000ff166101006001600160a01b039390931692830217905560405190815260200160405180910390a150565b600080611c966117f384866121a2565b9050600c548111611cc457600954600a54611cb2908390611d28565b611cbc91906121a2565b915050610865565b6000600954611ce0600a54600c54611d2890919063ffffffff16565b611cea91906121a2565b90506000600c5483611cfc91906122a6565b905081611d14600b5483611d2890919063ffffffff16565b611d1e91906121a2565b9695505050505050565b600081600019048311820215611d465763bac65e5b6000526004601cfd5b50670de0b6b3a764000091020490565b6000600160601b8210611b6a57611b6a611e6f565b60006a01000000000000000000008210611b6a57611b6a611e6f565b600066010000000000008210611b6a57611b6a611e6f565b6001600160a01b038216611dc657604051633eedce0760e01b815260040160405180910390fd5b6001600160a01b03821660009081526005602052604081208054839290611dee9084906122a6565b90915550506003805482900390556040518181526000906001600160a01b038416907fddf252ad1be2c89b69c2b068fc378daa952ba7f163c4a11628f55a4df523b3ef90602001611bf5565b6000816014526f70a0823100000000000000000000000060005260208060246010865afa601f3d111660205102905092915050565b6335278d126000526004601cfd5b600060208083528351808285015260005b81811015611eaa57858101830151858201604001528201611e8e565b506000604082860101526040601f19601f8301168501019250505092915050565b6001600160a01b0381168114610b5757600080fd5b60008060408385031215611ef357600080fd5b8235611efe81611ecb565b946020939093013593505050565b600060208284031215611f1e57600080fd5b8135610a2a81611ecb565b600060208284031215611f3b57600080fd5b5035919050565b60008060008060808587031215611f5857600080fd5b5050823594602084013594506040840135936060013592509050565b600080600060608486031215611f8957600080fd5b8335611f9481611ecb565b92506020840135611fa481611ecb565b929592945050506040919091013590565b6000806000806000858703610120811215611fcf57600080fd5b863595506020870135611fe181611ecb565b945060c0603f1982011215611ff557600080fd5b5060408601925061010086013567ffffffffffffffff8082111561201857600080fd5b818801915088601f83011261202c57600080fd5b81358181111561203b57600080fd5b89602082850101111561204d57600080fd5b9699959850939650602001949392505050565b60008060006060848603121561207557600080fd5b83359250602084013561208781611ecb565b9150604084013561209781611ecb565b809150509250925092565b600080600080600080600060e0888a0312156120bd57600080fd5b87356120c881611ecb565b965060208801356120d881611ecb565b95506040880135945060608801359350608088013560ff811681146120fc57600080fd5b9699959850939692959460a0840135945060c09093013592915050565b6000806040838503121561212c57600080fd5b823561213781611ecb565b9150602083013561214781611ecb565b809150509250929050565b600181811c9082168061216657607f821691505b60208210810361218657634e487b7160e01b600052602260045260246000fd5b50919050565b634e487b7160e01b600052601160045260246000fd5b808201808211156108655761086561218c565b803565ffffffffffff811681146121cb57600080fd5b919050565b81835281816020850137506000828201602090810191909152601f909101601f19169091010190565b60006101006001600160a01b038088168452863561221681611ecb565b818116602086015250602087013561222d81611ecb565b818116604086015250612242604088016121b5565b65ffffffffffff80821660608701528061225e60608b016121b5565b1660808701525050608087013561227481611ecb565b81811660a0860152505060a086013560c08401528060e084015261229b81840185876121d0565b979650505050505050565b818103818111156108655761086561218c565b63ffffffff8281168282160390808211156122d6576122d661218c565b5092915050565b80820281158282048414176108655761086561218c565b6001600160a01b038181168382160190808211156122d6576122d661218c565b60006020828403121561232657600080fd5b8151610a2a81611ecb565b60008261234e57634e487b7160e01b600052601260045260246000fd5b50049056fea264697066735822122016f4a658f628cbfcf2dedeef1e15b8a4dc655411645668b75a0d6624e98ff24864736f6c63430008110033",
  "linkReferences": {},
  "deployedLinkReferences": {}
}