{
  "_format": "hh-sol-artifact-1",
  "contractName": "CygnusBorrow",
  "sourceName": "contracts/cygnus-core/CygnusBorrow.sol",
  "abi": [
    {
      "inputs": [
        {
          "internalType": "uint256",
          "name": "min",
          "type": "uint256"
        },
        {
          "internalType": "uint256",
          "name": "max",
          "type": "uint256"
        },
        {
          "internalType": "uint256",
          "name": "value",
          "type": "uint256"
        }
      ],
      "name": "CygnusBorrowControl__ParameterNotInRange",
      "type": "error"
    },
    {
      "inputs": [
        {
          "internalType": "address",
          "name": "dstReceiver",
          "type": "address"
        },
        {
          "internalType": "address",
          "name": "receiver",
          "type": "address"
        }
      ],
      "name": "CygnusBorrowVoid__DstReceiverNotValid",
      "type": "error"
    },
    {
      "inputs": [
        {
          "internalType": "address",
          "name": "dstToken",
          "type": "address"
        },
        {
          "internalType": "address",
          "name": "token",
          "type": "address"
        }
      ],
      "name": "CygnusBorrowVoid__DstTokenNotValid",
      "type": "error"
    },
    {
      "inputs": [
        {
          "internalType": "address",
          "name": "sender",
          "type": "address"
        },
        {
          "internalType": "address",
          "name": "origin",
          "type": "address"
        }
      ],
      "name": "CygnusBorrowVoid__OnlyEOAAllowed",
      "type": "error"
    },
    {
      "inputs": [
        {
          "internalType": "address",
          "name": "srcToken",
          "type": "address"
        },
        {
          "internalType": "address",
          "name": "token",
          "type": "address"
        }
      ],
      "name": "CygnusBorrowVoid__SrcTokenNotValid",
      "type": "error"
    },
    {
      "inputs": [
        {
          "internalType": "uint256",
          "name": "invalidBorrowAmount",
          "type": "uint256"
        },
        {
          "internalType": "uint256",
          "name": "contractBalance",
          "type": "uint256"
        }
      ],
      "name": "CygnusBorrow__BorrowExceedsTotalBalance",
      "type": "error"
    },
    {
      "inputs": [
        {
          "internalType": "uint256",
          "name": "borrowAmount",
          "type": "uint256"
        },
        {
          "internalType": "uint256",
          "name": "repayAmount",
          "type": "uint256"
        }
      ],
      "name": "CygnusBorrow__BorrowRepayOverload",
      "type": "error"
    },
    {
      "inputs": [
        {
          "internalType": "address",
          "name": "cygnusCollateral",
          "type": "address"
        },
        {
          "internalType": "address",
          "name": "borrower",
          "type": "address"
        },
        {
          "internalType": "uint256",
          "name": "borrowerBalance",
          "type": "uint256"
        }
      ],
      "name": "CygnusBorrow__InsufficientLiquidity",
      "type": "error"
    },
    {
      "inputs": [],
      "name": "CygnusTerminal__CantMintZeroShares",
      "type": "error"
    },
    {
      "inputs": [],
      "name": "CygnusTerminal__CantRedeemZeroAssets",
      "type": "error"
    },
    {
      "inputs": [
        {
          "internalType": "address",
          "name": "token",
          "type": "address"
        },
        {
          "internalType": "address",
          "name": "underlying",
          "type": "address"
        }
      ],
      "name": "CygnusTerminal__CantSweepUnderlying",
      "type": "error"
    },
    {
      "inputs": [
        {
          "internalType": "address",
          "name": "sender",
          "type": "address"
        },
        {
          "internalType": "address",
          "name": "admin",
          "type": "address"
        }
      ],
      "name": "CygnusTerminal__MsgSenderNotAdmin",
      "type": "error"
    },
    {
      "inputs": [
        {
          "internalType": "address",
          "name": "owner",
          "type": "address"
        },
        {
          "internalType": "uint8",
          "name": "v",
          "type": "uint8"
        },
        {
          "internalType": "bytes32",
          "name": "r",
          "type": "bytes32"
        },
        {
          "internalType": "bytes32",
          "name": "s",
          "type": "bytes32"
        }
      ],
      "name": "ERC20Permit__InvalidSignature",
      "type": "error"
    },
    {
      "inputs": [],
      "name": "ERC20Permit__OwnerZeroAddress",
      "type": "error"
    },
    {
      "inputs": [
        {
          "internalType": "uint256",
          "name": "currentTime",
          "type": "uint256"
        },
        {
          "internalType": "uint256",
          "name": "deadline",
          "type": "uint256"
        }
      ],
      "name": "ERC20Permit__PermitExpired",
      "type": "error"
    },
    {
      "inputs": [],
      "name": "ERC20Permit__RecoveredOwnerZeroAddress",
      "type": "error"
    },
    {
      "inputs": [],
      "name": "ERC20Permit__SpenderZeroAddress",
      "type": "error"
    },
    {
      "inputs": [],
      "name": "ERC20__ApproveOwnerZeroAddress",
      "type": "error"
    },
    {
      "inputs": [],
      "name": "ERC20__ApproveSpenderZeroAddress",
      "type": "error"
    },
    {
      "inputs": [
        {
          "internalType": "uint256",
          "name": "accountBalance",
          "type": "uint256"
        },
        {
          "internalType": "uint256",
          "name": "burnAmount",
          "type": "uint256"
        }
      ],
      "name": "ERC20__BurnUnderflow",
      "type": "error"
    },
    {
      "inputs": [],
      "name": "ERC20__BurnZeroAddress",
      "type": "error"
    },
    {
      "inputs": [
        {
          "internalType": "uint256",
          "name": "allowance",
          "type": "uint256"
        },
        {
          "internalType": "uint256",
          "name": "amount",
          "type": "uint256"
        }
      ],
      "name": "ERC20__InsufficientAllowance",
      "type": "error"
    },
    {
      "inputs": [
        {
          "internalType": "uint256",
          "name": "senderBalance",
          "type": "uint256"
        },
        {
          "internalType": "uint256",
          "name": "amount",
          "type": "uint256"
        }
      ],
      "name": "ERC20__InsufficientBalance",
      "type": "error"
    },
    {
      "inputs": [],
      "name": "ERC20__MintZeroAddress",
      "type": "error"
    },
    {
      "inputs": [],
      "name": "ERC20__TransferRecipientZeroAddress",
      "type": "error"
    },
    {
      "inputs": [],
      "name": "ERC20__TransferSenderZeroAddress",
      "type": "error"
    },
    {
      "inputs": [],
      "name": "ReentrantCall",
      "type": "error"
    },
    {
      "anonymous": false,
      "inputs": [
        {
          "indexed": false,
          "internalType": "uint256",
          "name": "cashStored",
          "type": "uint256"
        },
        {
          "indexed": false,
          "internalType": "uint256",
          "name": "interestAccumulated",
          "type": "uint256"
        },
        {
          "indexed": false,
          "internalType": "uint256",
          "name": "borrowIndexStored",
          "type": "uint256"
        },
        {
          "indexed": false,
          "internalType": "uint256",
          "name": "totalBorrowsStored",
          "type": "uint256"
        },
        {
          "indexed": false,
          "internalType": "uint256",
          "name": "borrowRateStored",
          "type": "uint256"
        }
      ],
      "name": "AccrueInterest",
      "type": "event"
    },
    {
      "anonymous": false,
      "inputs": [
        {
          "indexed": true,
          "internalType": "address",
          "name": "owner",
          "type": "address"
        },
        {
          "indexed": true,
          "internalType": "address",
          "name": "spender",
          "type": "address"
        },
        {
          "indexed": false,
          "internalType": "uint256",
          "name": "amount",
          "type": "uint256"
        }
      ],
      "name": "Approval",
      "type": "event"
    },
    {
      "anonymous": false,
      "inputs": [
        {
          "indexed": true,
          "internalType": "address",
          "name": "sender",
          "type": "address"
        },
        {
          "indexed": true,
          "internalType": "address",
          "name": "borrower",
          "type": "address"
        },
        {
          "indexed": true,
          "internalType": "address",
          "name": "receiver",
          "type": "address"
        },
        {
          "indexed": false,
          "internalType": "uint256",
          "name": "borrowAmount",
          "type": "uint256"
        },
        {
          "indexed": false,
          "internalType": "uint256",
          "name": "repayAmount",
          "type": "uint256"
        },
        {
          "indexed": false,
          "internalType": "uint256",
          "name": "accountBorrowsPrior",
          "type": "uint256"
        },
        {
          "indexed": false,
          "internalType": "uint256",
          "name": "accountBorrows",
          "type": "uint256"
        },
        {
          "indexed": false,
          "internalType": "uint256",
          "name": "totalBorrowsStored",
          "type": "uint256"
        }
      ],
      "name": "Borrow",
      "type": "event"
    },
    {
      "anonymous": false,
      "inputs": [
        {
          "indexed": false,
          "internalType": "address",
          "name": "underlying",
          "type": "address"
        },
        {
          "indexed": false,
          "internalType": "uint256",
          "name": "shuttleId",
          "type": "uint256"
        },
        {
          "indexed": false,
          "internalType": "address",
          "name": "sender",
          "type": "address"
        }
      ],
      "name": "ChargeVoid",
      "type": "event"
    },
    {
      "anonymous": false,
      "inputs": [
        {
          "indexed": true,
          "internalType": "address",
          "name": "sender",
          "type": "address"
        },
        {
          "indexed": true,
          "internalType": "address",
          "name": "recipient",
          "type": "address"
        },
        {
          "indexed": false,
          "internalType": "uint256",
          "name": "assets",
          "type": "uint256"
        },
        {
          "indexed": false,
          "internalType": "uint256",
          "name": "shares",
          "type": "uint256"
        }
      ],
      "name": "Deposit",
      "type": "event"
    },
    {
      "anonymous": false,
      "inputs": [
        {
          "indexed": true,
          "internalType": "address",
          "name": "sender",
          "type": "address"
        },
        {
          "indexed": true,
          "internalType": "address",
          "name": "borrower",
          "type": "address"
        },
        {
          "indexed": true,
          "internalType": "address",
          "name": "liquidator",
          "type": "address"
        },
        {
          "indexed": false,
          "internalType": "uint256",
          "name": "denebAmount",
          "type": "uint256"
        },
        {
          "indexed": false,
          "internalType": "uint256",
          "name": "repayAmount",
          "type": "uint256"
        },
        {
          "indexed": false,
          "internalType": "uint256",
          "name": "accountBorrowsPrior",
          "type": "uint256"
        },
        {
          "indexed": false,
          "internalType": "uint256",
          "name": "accountBorrows",
          "type": "uint256"
        },
        {
          "indexed": false,
          "internalType": "uint256",
          "name": "totalBorrowsStored",
          "type": "uint256"
        }
      ],
      "name": "Liquidate",
      "type": "event"
    },
    {
      "anonymous": false,
      "inputs": [
        {
          "indexed": false,
          "internalType": "address",
          "name": "oldBorrowRewarder",
          "type": "address"
        },
        {
          "indexed": false,
          "internalType": "address",
          "name": "newBorrowRewarder",
          "type": "address"
        }
      ],
      "name": "NewCygnusBorrowRewarder",
      "type": "event"
    },
    {
      "anonymous": false,
      "inputs": [
        {
          "indexed": false,
          "internalType": "uint256",
          "name": "baseRatePerYear",
          "type": "uint256"
        },
        {
          "indexed": false,
          "internalType": "uint256",
          "name": "multiplierPerYear",
          "type": "uint256"
        },
        {
          "indexed": false,
          "internalType": "uint256",
          "name": "kinkMultiplier_",
          "type": "uint256"
        },
        {
          "indexed": false,
          "internalType": "uint256",
          "name": "kinkUtilizationRate_",
          "type": "uint256"
        }
      ],
      "name": "NewInterestRateParameters",
      "type": "event"
    },
    {
      "anonymous": false,
      "inputs": [
        {
          "indexed": false,
          "internalType": "uint256",
          "name": "oldReserveFactor",
          "type": "uint256"
        },
        {
          "indexed": false,
          "internalType": "uint256",
          "name": "newReserveFactor",
          "type": "uint256"
        }
      ],
      "name": "NewReserveFactor",
      "type": "event"
    },
    {
      "anonymous": false,
      "inputs": [
        {
          "indexed": true,
          "internalType": "address",
          "name": "reinvestor",
          "type": "address"
        },
        {
          "indexed": false,
          "internalType": "uint256",
          "name": "rewardBalance",
          "type": "uint256"
        },
        {
          "indexed": false,
          "internalType": "uint256",
          "name": "reinvestReward",
          "type": "uint256"
        },
        {
          "indexed": false,
          "internalType": "uint256",
          "name": "daoReward",
          "type": "uint256"
        },
        {
          "indexed": false,
          "internalType": "uint256",
          "name": "underlyingReceived",
          "type": "uint256"
        }
      ],
      "name": "RechargeVoid",
      "type": "event"
    },
    {
      "anonymous": false,
      "inputs": [
        {
          "indexed": false,
          "internalType": "uint256",
          "name": "totalBalance",
          "type": "uint256"
        }
      ],
      "name": "Sync",
      "type": "event"
    },
    {
      "anonymous": false,
      "inputs": [
        {
          "indexed": true,
          "internalType": "address",
          "name": "from",
          "type": "address"
        },
        {
          "indexed": true,
          "internalType": "address",
          "name": "to",
          "type": "address"
        },
        {
          "indexed": false,
          "internalType": "uint256",
          "name": "amount",
          "type": "uint256"
        }
      ],
      "name": "Transfer",
      "type": "event"
    },
    {
      "anonymous": false,
      "inputs": [
        {
          "indexed": true,
          "internalType": "address",
          "name": "sender",
          "type": "address"
        },
        {
          "indexed": true,
          "internalType": "address",
          "name": "recipient",
          "type": "address"
        },
        {
          "indexed": true,
          "internalType": "address",
          "name": "owner",
          "type": "address"
        },
        {
          "indexed": false,
          "internalType": "uint256",
          "name": "assets",
          "type": "uint256"
        },
        {
          "indexed": false,
          "internalType": "uint256",
          "name": "shares",
          "type": "uint256"
        }
      ],
      "name": "Withdraw",
      "type": "event"
    },
    {
      "inputs": [],
      "name": "DAO_REWARD",
      "outputs": [
        {
          "internalType": "uint256",
          "name": "",
          "type": "uint256"
        }
      ],
      "stateMutability": "view",
      "type": "function"
    },
    {
      "inputs": [],
      "name": "DOMAIN_SEPARATOR",
      "outputs": [
        {
          "internalType": "bytes32",
          "name": "",
          "type": "bytes32"
        }
      ],
      "stateMutability": "view",
      "type": "function"
    },
    {
      "inputs": [],
      "name": "PERMIT_TYPEHASH",
      "outputs": [
        {
          "internalType": "bytes32",
          "name": "",
          "type": "bytes32"
        }
      ],
      "stateMutability": "view",
      "type": "function"
    },
    {
      "inputs": [],
      "name": "accrueInterest",
      "outputs": [],
      "stateMutability": "nonpayable",
      "type": "function"
    },
    {
      "inputs": [
        {
          "internalType": "address",
          "name": "owner",
          "type": "address"
        },
        {
          "internalType": "address",
          "name": "spender",
          "type": "address"
        }
      ],
      "name": "allowance",
      "outputs": [
        {
          "internalType": "uint256",
          "name": "",
          "type": "uint256"
        }
      ],
      "stateMutability": "view",
      "type": "function"
    },
    {
      "inputs": [
        {
          "internalType": "address",
          "name": "spender",
          "type": "address"
        },
        {
          "internalType": "uint256",
          "name": "amount",
          "type": "uint256"
        }
      ],
      "name": "approve",
      "outputs": [
        {
          "internalType": "bool",
          "name": "",
          "type": "bool"
        }
      ],
      "stateMutability": "nonpayable",
      "type": "function"
    },
    {
      "inputs": [
        {
          "internalType": "address",
          "name": "account",
          "type": "address"
        }
      ],
      "name": "balanceOf",
      "outputs": [
        {
          "internalType": "uint256",
          "name": "",
          "type": "uint256"
        }
      ],
      "stateMutability": "view",
      "type": "function"
    },
    {
      "inputs": [],
      "name": "baseRatePerSecond",
      "outputs": [
        {
          "internalType": "uint256",
          "name": "",
          "type": "uint256"
        }
      ],
      "stateMutability": "view",
      "type": "function"
    },
    {
      "inputs": [
        {
          "internalType": "address",
          "name": "borrower",
          "type": "address"
        },
        {
          "internalType": "address",
          "name": "receiver",
          "type": "address"
        },
        {
          "internalType": "uint256",
          "name": "borrowAmount",
          "type": "uint256"
        },
        {
          "internalType": "bytes",
          "name": "data",
          "type": "bytes"
        }
      ],
      "name": "borrow",
      "outputs": [],
      "stateMutability": "nonpayable",
      "type": "function"
    },
    {
      "inputs": [],
      "name": "borrowIndex",
      "outputs": [
        {
          "internalType": "uint112",
          "name": "",
          "type": "uint112"
        }
      ],
      "stateMutability": "view",
      "type": "function"
    },
    {
      "inputs": [],
      "name": "borrowRate",
      "outputs": [
        {
          "internalType": "uint112",
          "name": "",
          "type": "uint112"
        }
      ],
      "stateMutability": "view",
      "type": "function"
    },
    {
      "inputs": [
        {
          "internalType": "uint256",
          "name": "_stgPoolId",
          "type": "uint256"
        }
      ],
      "name": "chargeVoid",
      "outputs": [],
      "stateMutability": "nonpayable",
      "type": "function"
    },
    {
      "inputs": [],
      "name": "collateral",
      "outputs": [
        {
          "internalType": "address",
          "name": "",
          "type": "address"
        }
      ],
      "stateMutability": "view",
      "type": "function"
    },
    {
      "inputs": [],
      "name": "cygnusBorrowRewarder",
      "outputs": [
        {
          "internalType": "address",
          "name": "",
          "type": "address"
        }
      ],
      "stateMutability": "view",
      "type": "function"
    },
    {
      "inputs": [],
      "name": "cygnusNebulaOracle",
      "outputs": [
        {
          "internalType": "contract ICygnusNebulaOracle",
          "name": "",
          "type": "address"
        }
      ],
      "stateMutability": "view",
      "type": "function"
    },
    {
      "inputs": [],
      "name": "decimals",
      "outputs": [
        {
          "internalType": "uint8",
          "name": "",
          "type": "uint8"
        }
      ],
      "stateMutability": "view",
      "type": "function"
    },
    {
      "inputs": [
        {
          "internalType": "uint256",
          "name": "assets",
          "type": "uint256"
        },
        {
          "internalType": "address",
          "name": "recipient",
          "type": "address"
        }
      ],
      "name": "deposit",
      "outputs": [
        {
          "internalType": "uint256",
          "name": "shares",
          "type": "uint256"
        }
      ],
      "stateMutability": "nonpayable",
      "type": "function"
    },
    {
      "inputs": [],
      "name": "exchangeRate",
      "outputs": [
        {
          "internalType": "uint256",
          "name": "",
          "type": "uint256"
        }
      ],
      "stateMutability": "nonpayable",
      "type": "function"
    },
    {
      "inputs": [],
      "name": "exchangeRateStored",
      "outputs": [
        {
          "internalType": "uint256",
          "name": "",
          "type": "uint256"
        }
      ],
      "stateMutability": "view",
      "type": "function"
    },
    {
      "inputs": [
        {
          "internalType": "address",
          "name": "borrower",
          "type": "address"
        }
      ],
      "name": "getBorrowBalance",
      "outputs": [
        {
          "internalType": "uint256",
          "name": "",
          "type": "uint256"
        }
      ],
      "stateMutability": "view",
      "type": "function"
    },
    {
      "inputs": [],
      "name": "getCygnusVoid",
      "outputs": [
        {
          "internalType": "uint256",
          "name": "",
          "type": "uint256"
        },
        {
          "internalType": "uint256",
          "name": "",
          "type": "uint256"
        },
        {
          "internalType": "contract IStargatePool",
          "name": "",
          "type": "address"
        },
        {
          "internalType": "contract IStargateRouter",
          "name": "",
          "type": "address"
        },
        {
          "internalType": "contract IStargateLPStaking",
          "name": "",
          "type": "address"
        },
        {
          "internalType": "address",
          "name": "",
          "type": "address"
        },
        {
          "internalType": "contract IAggregationRouterV5",
          "name": "",
          "type": "address"
        }
      ],
      "stateMutability": "view",
      "type": "function"
    },
    {
      "inputs": [],
      "name": "getRewards",
      "outputs": [
        {
          "internalType": "uint256",
          "name": "",
          "type": "uint256"
        }
      ],
      "stateMutability": "nonpayable",
      "type": "function"
    },
    {
      "inputs": [],
      "name": "hangar18",
      "outputs": [
        {
          "internalType": "contract IHangar18",
          "name": "",
          "type": "address"
        }
      ],
      "stateMutability": "view",
      "type": "function"
    },
    {
      "inputs": [],
      "name": "jumpMultiplierPerSecond",
      "outputs": [
        {
          "internalType": "uint256",
          "name": "",
          "type": "uint256"
        }
      ],
      "stateMutability": "view",
      "type": "function"
    },
    {
      "inputs": [],
      "name": "kinkMultiplier",
      "outputs": [
        {
          "internalType": "uint256",
          "name": "",
          "type": "uint256"
        }
      ],
      "stateMutability": "view",
      "type": "function"
    },
    {
      "inputs": [],
      "name": "kinkUtilizationRate",
      "outputs": [
        {
          "internalType": "uint256",
          "name": "",
          "type": "uint256"
        }
      ],
      "stateMutability": "view",
      "type": "function"
    },
    {
      "inputs": [],
      "name": "lastAccrualTimestamp",
      "outputs": [
        {
          "internalType": "uint32",
          "name": "",
          "type": "uint32"
        }
      ],
      "stateMutability": "view",
      "type": "function"
    },
    {
      "inputs": [],
      "name": "lastReinvest",
      "outputs": [
        {
          "internalType": "uint256",
          "name": "",
          "type": "uint256"
        }
      ],
      "stateMutability": "view",
      "type": "function"
    },
    {
      "inputs": [
        {
          "internalType": "address",
          "name": "borrower",
          "type": "address"
        },
        {
          "internalType": "address",
          "name": "liquidator",
          "type": "address"
        }
      ],
      "name": "liquidate",
      "outputs": [
        {
          "internalType": "uint256",
          "name": "cygLPAmount",
          "type": "uint256"
        }
      ],
      "stateMutability": "nonpayable",
      "type": "function"
    },
    {
      "inputs": [],
      "name": "multiplierPerSecond",
      "outputs": [
        {
          "internalType": "uint256",
          "name": "",
          "type": "uint256"
        }
      ],
      "stateMutability": "view",
      "type": "function"
    },
    {
      "inputs": [],
      "name": "name",
      "outputs": [
        {
          "internalType": "string",
          "name": "",
          "type": "string"
        }
      ],
      "stateMutability": "view",
      "type": "function"
    },
    {
      "inputs": [
        {
          "internalType": "address",
          "name": "",
          "type": "address"
        }
      ],
      "name": "nonces",
      "outputs": [
        {
          "internalType": "uint256",
          "name": "",
          "type": "uint256"
        }
      ],
      "stateMutability": "view",
      "type": "function"
    },
    {
      "inputs": [
        {
          "internalType": "address",
          "name": "owner",
          "type": "address"
        },
        {
          "internalType": "address",
          "name": "spender",
          "type": "address"
        },
        {
          "internalType": "uint256",
          "name": "value",
          "type": "uint256"
        },
        {
          "internalType": "uint256",
          "name": "deadline",
          "type": "uint256"
        },
        {
          "internalType": "uint8",
          "name": "v",
          "type": "uint8"
        },
        {
          "internalType": "bytes32",
          "name": "r",
          "type": "bytes32"
        },
        {
          "internalType": "bytes32",
          "name": "s",
          "type": "bytes32"
        }
      ],
      "name": "permit",
      "outputs": [],
      "stateMutability": "nonpayable",
      "type": "function"
    },
    {
      "inputs": [
        {
          "internalType": "uint256",
          "name": "shares",
          "type": "uint256"
        },
        {
          "internalType": "address",
          "name": "recipient",
          "type": "address"
        },
        {
          "internalType": "address",
          "name": "owner",
          "type": "address"
        }
      ],
      "name": "redeem",
      "outputs": [
        {
          "internalType": "uint256",
          "name": "assets",
          "type": "uint256"
        }
      ],
      "stateMutability": "nonpayable",
      "type": "function"
    },
    {
      "inputs": [
        {
          "internalType": "bytes",
          "name": "swapData",
          "type": "bytes"
        }
      ],
      "name": "reinvestRewards_y7b",
      "outputs": [],
      "stateMutability": "nonpayable",
      "type": "function"
    },
    {
      "inputs": [],
      "name": "reserveFactor",
      "outputs": [
        {
          "internalType": "uint256",
          "name": "",
          "type": "uint256"
        }
      ],
      "stateMutability": "view",
      "type": "function"
    },
    {
      "inputs": [
        {
          "internalType": "address",
          "name": "newBorrowRewarder",
          "type": "address"
        }
      ],
      "name": "setCygnusBorrowRewarder",
      "outputs": [],
      "stateMutability": "nonpayable",
      "type": "function"
    },
    {
      "inputs": [
        {
          "internalType": "uint256",
          "name": "baseRatePerYear_",
          "type": "uint256"
        },
        {
          "internalType": "uint256",
          "name": "multiplierPerYear_",
          "type": "uint256"
        },
        {
          "internalType": "uint256",
          "name": "kinkMultiplier_",
          "type": "uint256"
        },
        {
          "internalType": "uint256",
          "name": "kinkUtilizationRate_",
          "type": "uint256"
        }
      ],
      "name": "setInterestRateModel",
      "outputs": [],
      "stateMutability": "nonpayable",
      "type": "function"
    },
    {
      "inputs": [
        {
          "internalType": "uint256",
          "name": "newReserveFactor",
          "type": "uint256"
        }
      ],
      "name": "setReserveFactor",
      "outputs": [],
      "stateMutability": "nonpayable",
      "type": "function"
    },
    {
      "inputs": [],
      "name": "shuttleId",
      "outputs": [
        {
          "internalType": "uint256",
          "name": "",
          "type": "uint256"
        }
      ],
      "stateMutability": "view",
      "type": "function"
    },
    {
      "inputs": [],
      "name": "supplyRate",
      "outputs": [
        {
          "internalType": "uint256",
          "name": "",
          "type": "uint256"
        }
      ],
      "stateMutability": "view",
      "type": "function"
    },
    {
      "inputs": [
        {
          "internalType": "address",
          "name": "token",
          "type": "address"
        }
      ],
      "name": "sweepToken",
      "outputs": [],
      "stateMutability": "nonpayable",
      "type": "function"
    },
    {
      "inputs": [],
      "name": "symbol",
      "outputs": [
        {
          "internalType": "string",
          "name": "",
          "type": "string"
        }
      ],
      "stateMutability": "view",
      "type": "function"
    },
    {
      "inputs": [],
      "name": "totalBalance",
      "outputs": [
        {
          "internalType": "uint256",
          "name": "",
          "type": "uint256"
        }
      ],
      "stateMutability": "view",
      "type": "function"
    },
    {
      "inputs": [],
      "name": "totalBorrows",
      "outputs": [
        {
          "internalType": "uint256",
          "name": "",
          "type": "uint256"
        }
      ],
      "stateMutability": "view",
      "type": "function"
    },
    {
      "inputs": [],
      "name": "totalSupply",
      "outputs": [
        {
          "internalType": "uint256",
          "name": "",
          "type": "uint256"
        }
      ],
      "stateMutability": "view",
      "type": "function"
    },
    {
      "inputs": [
        {
          "internalType": "address",
          "name": "borrower",
          "type": "address"
        }
      ],
      "name": "trackBorrow",
      "outputs": [],
      "stateMutability": "nonpayable",
      "type": "function"
    },
    {
      "inputs": [
        {
          "internalType": "address",
          "name": "recipient",
          "type": "address"
        },
        {
          "internalType": "uint256",
          "name": "amount",
          "type": "uint256"
        }
      ],
      "name": "transfer",
      "outputs": [
        {
          "internalType": "bool",
          "name": "",
          "type": "bool"
        }
      ],
      "stateMutability": "nonpayable",
      "type": "function"
    },
    {
      "inputs": [
        {
          "internalType": "address",
          "name": "sender",
          "type": "address"
        },
        {
          "internalType": "address",
          "name": "recipient",
          "type": "address"
        },
        {
          "internalType": "uint256",
          "name": "amount",
          "type": "uint256"
        }
      ],
      "name": "transferFrom",
      "outputs": [
        {
          "internalType": "bool",
          "name": "",
          "type": "bool"
        }
      ],
      "stateMutability": "nonpayable",
      "type": "function"
    },
    {
      "inputs": [],
      "name": "underlying",
      "outputs": [
        {
          "internalType": "address",
          "name": "",
          "type": "address"
        }
      ],
      "stateMutability": "view",
      "type": "function"
    },
    {
      "inputs": [],
      "name": "utilizationRate",
      "outputs": [
        {
          "internalType": "uint256",
          "name": "",
          "type": "uint256"
        }
      ],
      "stateMutability": "view",
      "type": "function"
    },
    {
      "inputs": [],
      "name": "version",
      "outputs": [
        {
          "internalType": "string",
          "name": "",
          "type": "string"
        }
      ],
      "stateMutability": "view",
      "type": "function"
    }
  ],
  "bytecode": "0x610140604052670bcbce7f1b150000600d556002600e5567016345785d8a0000600f55670de0b6b3a76400006010556000196014553480156200004157600080fd5b5060408051808201825260128152714379676e75733a20426f72726f7761626c6560701b602080830191825283519081019093526000808452805460ff19166001908117825583519394939192859285928592859285928592620000a59262000465565b508151620000bb90600290602085019062000465565b506003805460ff191660ff92909216919091179055505060405146907f8b73c3c69bb8fe3d512ecc4cf759cc79239f7b179b0ffacaa9a75d522b39400f9062000107906001906200065c565b60408051918290038220828201825260058352640312e302e360dc1b6020938401528151928301939093528101919091527f06c015bd22b4c69690933c1058878ebdfef31f9aaae40bbe86d8a09fe1b2972c6060820152608081018290523060a082015260c00160408051601f1981840301815291905280516020909101206080525062000199925050620004619050565b6001600160a01b0316635a412e536040518163ffffffff1660e01b815260040160a060405180830381600087803b158015620001d457600080fd5b505af1158015620001e9573d6000803e3d6000fd5b505050506040513d601f19601f820116820180604052508101906200020f91906200050b565b610100526001600160601b0319606091821b811660e05292811b831660c0529290921b1660a05250600092508291506200024890503390565b6001600160a01b0316635a412e536040518163ffffffff1660e01b815260040160a060405180830381600087803b1580156200028357600080fd5b505af115801562000298573d6000803e3d6000fd5b505050506040513d601f19601f82011682018060405250810190620002be91906200050b565b50509250925050816001600160a01b03166395d89b416040518163ffffffff1660e01b815260040160006040518083038186803b158015620002ff57600080fd5b505afa15801562000314573d6000803e3d6000fd5b505050506040513d6000823e601f3d908101601f191682016040526200033e91908101906200057e565b604051602001620003509190620006ff565b604051602081830303815290604052600290805190602001906200037692919062000465565b50816001600160a01b031663313ce5676040518163ffffffff1660e01b815260040160206040518083038186803b158015620003b157600080fd5b505afa158015620003c6573d6000803e3d6000fd5b505050506040513d601f19601f82011682018060405250810190620003ec919062000632565b6003805460ff191660ff9290921691909117905560601b6001600160601b0319166101205250600060045560138054670de0b6b3a76400006001600160701b03199091161790556200043b4290565b6013601c6101000a81548163ffffffff021916908363ffffffff160217905550620007d0565b3390565b828054620004739062000764565b90600052602060002090601f016020900481019282620004975760008555620004e2565b82601f10620004b257805160ff1916838001178555620004e2565b82800160010185558215620004e2579182015b82811115620004e2578251825591602001919060010190620004c5565b50620004f0929150620004f4565b5090565b5b80821115620004f05760008155600101620004f5565b600080600080600060a0868803121562000523578081fd5b85516200053081620007b7565b60208701519095506200054381620007b7565b60408701519094506200055681620007b7565b60608701519093506200056981620007b7565b80925050608086015190509295509295909350565b60006020828403121562000590578081fd5b81516001600160401b0380821115620005a7578283fd5b818401915084601f830112620005bb578283fd5b815181811115620005d057620005d0620007a1565b604051601f8201601f19908116603f01168101908382118183101715620005fb57620005fb620007a1565b8160405282815287602084870101111562000614578586fd5b6200062783602083016020880162000731565b979650505050505050565b60006020828403121562000644578081fd5b815160ff8116811462000655578182fd5b9392505050565b600080835482600182811c9150808316806200067957607f831692505b60208084108214156200069a57634e487b7160e01b87526022600452602487fd5b818015620006b15760018114620006c357620006f1565b60ff19861689528489019650620006f1565b60008a815260209020885b86811015620006e95781548b820152908501908301620006ce565b505084890196505b509498975050505050505050565b67021bcb3aaa9a21d160c51b8152600082516200072481600885016020870162000731565b9190910160080192915050565b60005b838110156200074e57818101518382015260200162000734565b838111156200075e576000848401525b50505050565b600181811c908216806200077957607f821691505b602082108114156200079b57634e487b7160e01b600052602260045260246000fd5b50919050565b634e487b7160e01b600052604160045260246000fd5b6001600160a01b0381168114620007cd57600080fd5b50565b60805160a05160601c60c05160601c60e05160601c610100516101205160601c613a4f620008b8600039600081816107ce01528181610d2201528181610dbc01526115920152600081816105bf01528181611e070152613083015260006107fe015260008181610601015281816109ac01528181610a0301528181610bde01528181610c770152818161134c0152818161151d015281816119cc01528181611d6401528181611de301528181612ac40152612b2301526000818161085e0152818161107a01528181611fe301526129450152600081816105050152611b840152613a4f6000f3fe608060405234801561001057600080fd5b506004361061034c5760003560e01c80636f307dc3116101bd578063ad7a672f116100f9578063d505accf116100a2578063d90e02641161007c578063d90e0264146107f0578063d935bd92146107f9578063dd62ed3e14610820578063e8a24e1d1461085957600080fd5b8063d505accf146107a3578063d82f897f146107b6578063d8dfeb45146107c957600080fd5b8063ba087652116100d3578063ba0876521461074a578063c0789dcb1461075d578063c914b4371461078957600080fd5b8063ad7a672f14610725578063b5f3c95b1461072e578063b7f1118a1461073757600080fd5b806395d89b4111610166578063a9059cbb11610140578063a9059cbb146106cc578063aa5af0fd146106df578063ad168c9d1461070a578063ad2961a31461071d57600080fd5b806395d89b41146106b35780639b510998146106bb578063a6afed95146106c457600080fd5b80637d6af079116101975780637d6af0791461066d5780637ecebe001461068057806386b9d81f146106a057600080fd5b80636f307dc3146105fc57806370a082311461063b57806372cf84a71461066457600080fd5b8063313ce5671161028c57806347bd3718116102355780635b037f1d1161020f5780635b037f1d146105a75780635f77f891146105ba5780636c321c8a146105e15780636e553f65146105e957600080fd5b806347bd37181461055457806354fd4d501461055d57806359b0bc2a1461059957600080fd5b806342bf78af1161026657806342bf78af1461052f5780634322b7141461054257806346f608ff1461054b57600080fd5b8063313ce567146104e15780633644e515146105005780633ba0b9a91461052757600080fd5b80631aebf12f116102f95780631e44b7fc116102d35780631e44b7fc146104815780631e7dcc0d1461049457806323b872dd146104a757806330adf81f146104ba57600080fd5b80631aebf12f146104505780631be19560146104595780631c4469831461046e57600080fd5b806318160ddd1161032a57806318160ddd146103a4578063182df0f5146103ad5780631995bc1a146103b657600080fd5b80630572b0cc1461035157806306fdde031461036c578063095ea7b314610381575b600080fd5b610359610880565b6040519081526020015b60405180910390f35b6103746108d0565b604051610363919061389e565b61039461038f366004613627565b61095e565b6040519015158152602001610363565b61035960045481565b61035960105481565b601454604080519182526001602083015273892785f33cdee22a30aef750f285e18c18040c3e908201527353bf833a5d6c4dda888f69c22c88c9f356a41614606082015273ea8dfee1898a7e0a59f7527f076106d7e44c21766080820152736694340fc020c5e6b96567843da2df01b2ce1eb660a0820152731111111254eeb25477b68fb85ed929f73a96058260c082015260e001610363565b610359600d5481565b61046c610467366004613390565b610975565b005b61046c61047c3660046136b2565b610a67565b61046c61048f36600461376a565b610b03565b61046c6104a2366004613541565b610b57565b6103946104b5366004613501565b610e9f565b6103597f6e71edae12b1b97f4d1f60370fef10105fa2faae0126114a169c64845d6126c981565b6003546104ee9060ff1681565b60405160ff9091168152602001610363565b6103597f000000000000000000000000000000000000000000000000000000000000000081565b610359610f15565b61046c61053d366004613390565b610f5e565b610359600f5481565b610359600b5481565b61035960125481565b6103746040518060400160405280600581526020017f312e302e3000000000000000000000000000000000000000000000000000000081525081565b61035966b1a2bc2ec5000081565b61046c6105b5366004613672565b611005565b6103597f000000000000000000000000000000000000000000000000000000000000000081565b6103596112e0565b6103596105f73660046136e2565b611311565b6106237f000000000000000000000000000000000000000000000000000000000000000081565b6040516001600160a01b039091168152602001610363565b610359610649366004613390565b6001600160a01b031660009081526005602052604090205490565b610359600c5481565b61035961067b366004613390565b611466565b61035961068e366004613390565b60076020526000908152604090205481565b6103596106ae3660046134c9565b6114d8565b6103746116b7565b610359600e5481565b61046c6116c4565b6103946106da366004613627565b611837565b6013546106f2906001600160701b031681565b6040516001600160701b039091168152602001610363565b600954610623906001600160a01b031681565b610359611844565b61035960085481565b61035960155481565b61046c610745366004613390565b6118b2565b610359610758366004613706565b6118d3565b60135461077490600160e01b900463ffffffff1681565b60405163ffffffff9091168152602001610363565b6013546106f290600160701b90046001600160701b031681565b61046c6107b13660046135b2565b611a75565b61046c6107c43660046136b2565b611d18565b6106237f000000000000000000000000000000000000000000000000000000000000000081565b610359600a5481565b6106237f000000000000000000000000000000000000000000000000000000000000000081565b61035961082e3660046134c9565b6001600160a01b03918216600090815260066020908152604080832093909416825291909152205490565b6106237f000000000000000000000000000000000000000000000000000000000000000081565b6000805460ff166108a4576040516306fda65d60e31b815260040160405180910390fd5b6000805460ff191690556108b6611e6c565b6108be611e96565b90506000805460ff1916600117905590565b600180546108dd9061399d565b80601f01602080910402602001604051908101604052809291908181526020018280546109099061399d565b80156109565780601f1061092b57610100808354040283529160200191610956565b820191906000526020600020905b81548152906001019060200180831161093957829003601f168201915b505050505081565b600061096b338484611f30565b5060015b92915050565b60005460ff16610998576040516306fda65d60e31b815260040160405180910390fd5b6000805460ff191690556109aa611fdf565b7f00000000000000000000000000000000000000000000000000000000000000006001600160a01b0316816001600160a01b03161415610a35576040516303b91a9160e31b81526001600160a01b0380831660048301527f00000000000000000000000000000000000000000000000000000000000000001660248201526044015b60405180910390fd5b6000610a40826120ae565b9050610a566001600160a01b03831633836120d6565b50506000805460ff19166001179055565b60005460ff16610a8a576040516306fda65d60e31b815260040160405180910390fd5b6000805460ff19169055610a9c611fdf565b610ab060006702c68af0bb1400008361211f565b600f80549082905560408051828152602081018490527faaa68312e2ea9d50e16af5068410ab56e1a1fd06037b1a35664812c30f82146091015b60405180910390a150506000805460ff19166001179055565b60005460ff16610b26576040516306fda65d60e31b815260040160405180910390fd5b6000805460ff19169055610b38611fdf565b610b4484848484612160565b50506000805460ff191660011790555050565b60005460ff16610b7a576040516306fda65d60e31b815260040160405180910390fd5b6000805460ff19169055610b8c612236565b610b946116c4565b60085480841115610bc257604051632f997d4760e21b81526004810185905260248101829052604401610a2c565b8315610c0557610bd18461227e565b610c056001600160a01b037f00000000000000000000000000000000000000000000000000000000000000001686866120d6565b8115610c7057604051638f53d74f60e01b81526001600160a01b03861690638f53d74f90610c3d9033908890889088906004016137c7565b600060405180830381600087803b158015610c5757600080fd5b505af1158015610c6b573d6000803e3d6000fd5b505050505b6000610c9b7f00000000000000000000000000000000000000000000000000000000000000006120ae565b9050600085118015610cad5750600181115b15610cd5576040516336ac622760e21b81526004810186905260248101829052604401610a2c565b6000806000610ce58a89866124ce565b92509250925083881115610dfe57604051639aac2c5360e01b81526001600160a01b038b81166004830152306024830152604482018490526000917f000000000000000000000000000000000000000000000000000000000000000090911690639aac2c539060640160206040518083038186803b158015610d6657600080fd5b505afa158015610d7a573d6000803e3d6000fd5b505050506040513d601f19601f82011682018060405250810190610d9e9190613652565b905080610df857604051633ffe255960e11b81526001600160a01b037f0000000000000000000000000000000000000000000000000000000000000000811660048301528c16602482015260448101849052606401610a2c565b50610e07565b610e078461266d565b896001600160a01b0316896001600160a01b0316610e223390565b604080518c81526020810189905290810187905260608101869052608081018590526001600160a01b0391909116907f33f3048bd4e6af45e53afb722adfd57dbde82da7e93e44db921fb4b8c6a70c4b9060a00160405180910390a45050505050610e8b612236565b50506000805460ff19166001179055505050565b6000610eac84848461277b565b6001600160a01b038416600090815260066020908152604080832033845290915290205482811015610efb576040516310c6013560e31b81526004810182905260248101849052604401610a2c565b610f088533858403611f30565b60019150505b9392505050565b6000610f1f6116c4565b60045480610f2f57505060105490565b6000610f4b82601254600854610f4591906138da565b9061289e565b9050610f5781836128ed565b9250505090565b60005460ff16610f81576040516306fda65d60e31b815260040160405180910390fd5b6000805460ff19169055610f93611fdf565b600980546001600160a01b038381167fffffffffffffffffffffffff000000000000000000000000000000000000000083168117909355604080519190921680825260208201939093527f2a0d5dc7fbc8045f59cb33c736f04f9a9b565e9f425912f9cd2bafdebd50cead9101610aea565b60005460ff16611028576040516306fda65d60e31b815260040160405180910390fd5b6000805460ff1916905561103a611e6c565b611042612236565b61104a6116c4565b6000611054611e96565b90508061106157506112d8565b60006110748266b1a2bc2ec500006129fa565b905060007f00000000000000000000000000000000000000000000000000000000000000006001600160a01b0316635b068af86040518163ffffffff1660e01b815260040160206040518083038186803b1580156110d157600080fd5b505afa1580156110e5573d6000803e3d6000fd5b505050506040513d601f19601f8201168201806040525081019061110991906133ac565b905061112a736694340fc020c5e6b96567843da2df01b2ce1eb682846120d6565b600061117786868080601f0160208091040260200160405190810160405280939291908181526020018383808284376000920191909152506111729250879150889050613931565b612a28565b6040516321ec87bf60e21b815260016004820152602481018290523060448201529091507353bf833a5d6c4dda888f69c22c88c9f356a41614906387b21efc90606401600060405180830381600087803b1580156111d457600080fd5b505af11580156111e8573d6000803e3d6000fd5b5050505073ea8dfee1898a7e0a59f7527f076106d7e44c21766001600160a01b031663e2bbb15860145461122f73892785f33cdee22a30aef750f285e18c18040c3e6120ae565b6040516001600160e01b031960e085901b16815260048101929092526024820152604401600060405180830381600087803b15801561126d57600080fd5b505af1158015611281573d6000803e3d6000fd5b5050426015555050604080518581526000602082015280820185905260608101839052905133917fc3845dedfc73729f4e3f721a87d9d20faf4551971c95726cf144e087da34ef2c919081900360800190a2505050505b610a56612236565b601254600090806112f357600091505090565b61130b8160085461130491906138da565b829061289e565b91505090565b6000805460ff16611335576040516306fda65d60e31b815260040160405180910390fd5b6000805460ff19169055611347612236565b61137c7f00000000000000000000000000000000000000000000000000000000000000006001600160a01b0316333086612c62565b6000611386612cb0565b90506113918461266d565b600061139b612cb0565b90506113b26113a8610f15565b610f458484613931565b9250600083116113d55760405163f1ca48b160e01b815260040160405180910390fd5b6004546113f9576113ea61dead6103e8612e59565b6113f66103e884613931565b92505b6114038484612e59565b60408051868152602081018590526001600160a01b0386169133917fdcbc1c05240f31ff3ad067ef1ee35ce4997762752e3a095284754544f4c709d7910160405180910390a35050611453612236565b6000805460ff1916600117905592915050565b6001600160a01b03811660009081526011602090815260408083208151808301909252546001600160701b038082168352600160701b90910416918101829052906114b45750600092915050565b60135460208201518251610f0e926001600160701b03918216929082169116612f0c565b6000805460ff166114fc576040516306fda65d60e31b815260040160405180910390fd5b6000805460ff1916905561150e612236565b6115166116c4565b60006115417f00000000000000000000000000000000000000000000000000000000000000006120ae565b9050600061154e85611466565b9050600082821061155f5782611561565b815b604051632d3aef6960e21b81526001600160a01b0387811660048301528881166024830152604482018390529192507f00000000000000000000000000000000000000000000000000000000000000009091169063b4ebbda490606401602060405180830381600087803b1580156115d857600080fd5b505af11580156115ec573d6000803e3d6000fd5b505050506040513d601f19601f8201168201806040525081019061161091906136ca565b93506000806000611623896000886124ce565b9250925092506116328661266d565b876001600160a01b0316896001600160a01b031661164d3390565b604080518b8152602081018b905290810187905260608101869052608081018590526001600160a01b0391909116907fb0dbe18c6ffdf0da655dd690e77211d379205c497be44c64447c3f5f021b51679060a00160405180910390a4505050505050611453612236565b600280546108dd9061399d565b6013544290600160e01b900463ffffffff9081169082168114156116e6575050565b601380547bffffffffffffffffffffffffffffffffffffffffffffffffffffffff16600160e01b63ffffffff85160217905560006117248284613948565b60125460085460135492935090916001600160701b03168261174857505050505050565b60006117548385612fbb565b9050600061176863ffffffff871683613912565b9050600061177682876129fa565b905061178281876138da565b955061178e82856129fa565b61179890856138da565b6012879055601380546001600160e01b031916600160701b6001600160701b03878116919091026dffffffffffffffffffffffffffff191691909117908316179055604080518781526020810184905290810182905260608101889052608081018590529094507f717fee053884ab1935ba6d0140f6ed225371439611d9674ff445419d6a0fa1b79060a00160405180910390a1505050505050505050565b600061096b33848461277b565b600080611879600f54670de0b6b3a76400006118609190613931565b601354600160701b90046001600160701b0316906129fa565b90508061188857600091505090565b60006118a660125460085461189d91906138da565b6012549061289e565b9050610f5781836129fa565b6118d0816118bf83611466565b6013546001600160701b031661305d565b50565b6000805460ff166118f7576040516306fda65d60e31b815260040160405180910390fd5b6000805460ff19169055611909612236565b336001600160a01b03831614611977576001600160a01b03821660009081526006602090815260408083203384529091529020546000198114611975576119508582613931565b6001600160a01b03841660009081526006602090815260408083203384529091529020555b505b611989611982610f15565b85906129fa565b9050600081116119ac5760405163e3e8d29760e01b815260040160405180910390fd5b6119b58161227e565b6119bf8285613109565b6119f36001600160a01b037f00000000000000000000000000000000000000000000000000000000000000001684836120d6565b816001600160a01b0316836001600160a01b0316611a0e3390565b6001600160a01b03167ffbde797d201c681b91056529119e0b02407c7bb96a4a2c75c01fc9667232c8db8488604051611a51929190918252602082015260400190565b60405180910390a4611a61612236565b6000805460ff191660011790559392505050565b6001600160a01b038716611a9c57604051639a321bc760e01b815260040160405180910390fd5b6001600160a01b038616611ac3576040516353fbd1d760e01b815260040160405180910390fd5b42841015611aed5760405163075dd20f60e41b815242600482015260248101859052604401610a2c565b6001600160a01b0387811660008181526007602090815260408083208054600180820190925582517f6e71edae12b1b97f4d1f60370fef10105fa2faae0126114a169c64845d6126c98186015280840196909652958c166060860152608085018b905260a085019590955260c08085018a90528151808603909101815260e08501825280519083012061190160f01b6101008601527f000000000000000000000000000000000000000000000000000000000000000061010286015261012280860182905282518087039091018152610142860180845281519185019190912090859052610162860180845281905260ff8a166101828701526101a286018990526101c2860188905291519095919491926101e2808401939192601f1981019281900390910190855afa158015611c28573d6000803e3d6000fd5b5050604051601f1901519150506001600160a01b038116611c5c57604051637386dbbb60e11b815260040160405180910390fd5b896001600160a01b0316816001600160a01b031614611cb05760405163a1d5f2ed60e01b81526001600160a01b038b16600482015260ff871660248201526044810186905260648101859052608401610a2c565b6001600160a01b038a81166000818152600660209081526040808320948e16808452948252918290208c905590518b81527f8c5be1e5ebec7d5bd14f71427d1e84f3dd0314c0f7b2291e5b200ac8c7c3b925910160405180910390a350505050505050505050565b60005460ff16611d3b576040516306fda65d60e31b815260040160405180910390fd5b6000805460ff19169055611d4d611fdf565b6000196014541415611d5f5760148190555b611da07f00000000000000000000000000000000000000000000000000000000000000007353bf833a5d6c4dda888f69c22c88c9f356a416146000196131b4565b611dd573892785f33cdee22a30aef750f285e18c18040c3e73ea8dfee1898a7e0a59f7527f076106d7e44c21766000196131b4565b604080516001600160a01b037f00000000000000000000000000000000000000000000000000000000000000001681527f00000000000000000000000000000000000000000000000000000000000000006020820152338183015290517f98ccebae89f16f152c93c6a0cdc0d99913b9e62a9fc612471c21ffc299c389fd9181900360600190a1506000805460ff19166001179055565b333214611e9457604051633172e8e760e01b8152336004820152326024820152604401610a2c565b565b601454604051631c57762b60e31b815260009173ea8dfee1898a7e0a59f7527f076106d7e44c21769163e2bbb15891611edc918590600401918252602082015260400190565b600060405180830381600087803b158015611ef657600080fd5b505af1158015611f0a573d6000803e3d6000fd5b50505050611f2b736694340fc020c5e6b96567843da2df01b2ce1eb66120ae565b905090565b6001600160a01b038316611f57576040516317ba2d8b60e11b815260040160405180910390fd5b6001600160a01b038216611f7e57604051632cc8a69760e11b815260040160405180910390fd5b6001600160a01b0383811660008181526006602090815260408083209487168084529482529182902085905590518481527f8c5be1e5ebec7d5bd14f71427d1e84f3dd0314c0f7b2291e5b200ac8c7c3b925910160405180910390a3505050565b60007f00000000000000000000000000000000000000000000000000000000000000006001600160a01b031663f851a4406040518163ffffffff1660e01b815260040160206040518083038186803b15801561203a57600080fd5b505afa15801561204e573d6000803e3d6000fd5b505050506040513d601f19601f8201168201806040525081019061207291906133ac565b9050336001600160a01b038216146118d057604051633e7c764160e21b81523360048201526001600160a01b0382166024820152604401610a2c565b60006370a08231600052306020526020806024601c855afa601f3d1116602051029050919050565b81601a5280603a5269a9059cbb00000000000060005260206000604460166000875af13d156001600051141716612115576390b8ec186000526004601cfd5b6000603a52505050565b8281108061212c57508181115b1561215b57604051639e7fe3bd60e01b8152600481018490526024810183905260448101829052606401610a2c565b505050565b612174600067016345785d8a00008661211f565b61218f6706f05b59d3b20000670d2f13f7789f00008361211f565b61219c6001600a8461211f565b6121aa6301e13380856138f2565b600a556121c56121be826301e13380613912565b849061289e565b600b55600e829055600d8190556121e581610f4585856301e13380612f0c565b600c556040805185815260208101859052908101839052606081018290527ff58b8cc439edada25fd9495b7364aeb1d737dbef59be1cf62e0cc4001c44a3cd9060800160405180910390a150505050565b6000612240612cb0565b60088190556040518181529091507f8a0df8ef054fae2c3d2d19a7b322e864870cc9fd3cb07fb9526309c596244bf49060200160405180910390a150565b600061239573892785f33cdee22a30aef750f285e18c18040c3e6001600160a01b03166318160ddd6040518163ffffffff1660e01b815260040160206040518083038186803b1580156122d057600080fd5b505afa1580156122e4573d6000803e3d6000fd5b505050506040513d601f19601f8201168201806040525081019061230891906136ca565b73892785f33cdee22a30aef750f285e18c18040c3e6001600160a01b03166315770f926040518163ffffffff1660e01b815260040160206040518083038186803b15801561235557600080fd5b505afa158015612369573d6000803e3d6000fd5b505050506040513d601f19601f8201168201806040525081019061238d91906136ca565b849190613256565b601454604051630441a3e760e41b815291925073ea8dfee1898a7e0a59f7527f076106d7e44c21769163441a3e70916123db918590600401918252602082015260400190565b600060405180830381600087803b1580156123f557600080fd5b505af1158015612409573d6000803e3d6000fd5b505050507353bf833a5d6c4dda888f69c22c88c9f356a416146001600160a01b031663c4de93a5600161244f73892785f33cdee22a30aef750f285e18c18040c3e6120ae565b6040516001600160e01b031960e085901b16815261ffff90921660048301526024820152306044820152606401602060405180830381600087803b15801561249657600080fd5b505af11580156124aa573d6000803e3d6000fd5b505050506040513d601f19601f8201168201806040525081019061215b91906136ca565b60008060006124dc86611466565b9250838514156124f25750506012548190612664565b6013546001600160701b03168486111561257b576001600160a01b0387166000908152601160205260408120906125298789613931565b905061253581876138da565b82546001600160701b03858116600160701b026001600160e01b03199092169083161717835560125490955061256c9082906138da565b6012819055935061264e915050565b6001600160a01b03871660009081526011602052604081209061259e8888613931565b90508086116125ae5760006125b2565b8086035b82546dffffffffffffffffffffffffffff19166001600160701b038216178355945084156125e057826125e3565b60005b82546001600160701b0391909116600160701b027fffffffff0000000000000000000000000000ffffffffffffffffffffffffffff909116178255600061262a8688613931565b9050601254945080851161263f576000612643565b8085035b601281905594505050505b6126628784836001600160701b031661305d565b505b93509350939050565b6040516321ec87bf60e21b815260016004820152602481018290523060448201527353bf833a5d6c4dda888f69c22c88c9f356a41614906387b21efc90606401600060405180830381600087803b1580156126c757600080fd5b505af11580156126db573d6000803e3d6000fd5b5050505073ea8dfee1898a7e0a59f7527f076106d7e44c21766001600160a01b031663e2bbb15860145461272273892785f33cdee22a30aef750f285e18c18040c3e6120ae565b6040516001600160e01b031960e085901b16815260048101929092526024820152604401600060405180830381600087803b15801561276057600080fd5b505af1158015612774573d6000803e3d6000fd5b5050505050565b6001600160a01b0383166127a25760405163618a6e7d60e11b815260040160405180910390fd5b6001600160a01b0382166127c95760405163446ebce960e01b815260040160405180910390fd5b6001600160a01b0383166000908152600560205260409020548181101561280d5760405163355a868d60e01b81526004810182905260248101839052604401610a2c565b6001600160a01b038085166000908152600560205260408082208585039055918516815290812080548492906128449084906138da565b92505081905550826001600160a01b0316846001600160a01b03167fddf252ad1be2c89b69c2b068fc378daa952ba7f163c4a11628f55a4df523b3ef8460405161289091815260200190565b60405180910390a350505050565b60007812725dd1d243aba0e75fe645cc4873f9e65afe688c928e1f218311670de0b6b3a7640000021582026128db57637c5f487d6000526004601cfd5b50670de0b6b3a7640000919091020490565b601054600090808411156129f1576000612915600f54838761290f9190613931565b906129fa565b61291f9086613931565b905060008461292f818885612f0c565b6129399190613931565b905080156129e25760007f00000000000000000000000000000000000000000000000000000000000000006001600160a01b0316635b068af86040518163ffffffff1660e01b815260040160206040518083038186803b15801561299c57600080fd5b505afa1580156129b0573d6000803e3d6000fd5b505050506040513d601f19601f820116820180604052508101906129d491906133ac565b90506129e08183612e59565b505b506010819055915061096f9050565b8391505061096f565b600081600019048311820215612a185763bac65e5b6000526004601cfd5b50670de0b6b3a764000091020490565b60008060008085806020019051810190612a4291906133c8565b9350509250925084826080015114612a5c57608082018590525b81516001600160a01b0316736694340fc020c5e6b96567843da2df01b2ce1eb614612ac25781516040516321f609b560e01b81526001600160a01b039091166004820152736694340fc020c5e6b96567843da2df01b2ce1eb66024820152604401610a2c565b7f00000000000000000000000000000000000000000000000000000000000000006001600160a01b031682602001516001600160a01b031614612b525760208201516040516310f88e6d60e01b81526001600160a01b0391821660048201527f00000000000000000000000000000000000000000000000000000000000000009091166024820152604401610a2c565b60608201516001600160a01b03163014612b965760608201516040516329855a9360e01b81526001600160a01b039091166004820152306024820152604401610a2c565b612bbd8260000151731111111254eeb25477b68fb85ed929f73a96058284608001516131b4565b604080516000815260208101918290526312aa3caf60e01b909152731111111254eeb25477b68fb85ed929f73a960582906312aa3caf90612c069086908690866024820161380d565b6040805180830381600087803b158015612c1f57600080fd5b505af1158015612c33573d6000803e3d6000fd5b505050506040513d601f19601f82011682018060405250810190612c579190613747565b509695505050505050565b6040516323b872dd600052836020528260405281606052602060006064601c6000895af13d156001600051141716612ca257637939f4246000526004601cfd5b600060605260405250505050565b6014546040516393f1a40b60e01b81526004810191909152306024820152600090819073ea8dfee1898a7e0a59f7527f076106d7e44c2176906393f1a40b90604401604080518083038186803b158015612d0957600080fd5b505afa158015612d1d573d6000803e3d6000fd5b505050506040513d601f19601f82011682018060405250810190612d419190613747565b50905061130b73892785f33cdee22a30aef750f285e18c18040c3e6001600160a01b03166315770f926040518163ffffffff1660e01b815260040160206040518083038186803b158015612d9457600080fd5b505afa158015612da8573d6000803e3d6000fd5b505050506040513d601f19601f82011682018060405250810190612dcc91906136ca565b73892785f33cdee22a30aef750f285e18c18040c3e6001600160a01b03166318160ddd6040518163ffffffff1660e01b815260040160206040518083038186803b158015612e1957600080fd5b505afa158015612e2d573d6000803e3d6000fd5b505050506040513d601f19601f82011682018060405250810190612e5191906136ca565b839190612f0c565b6001600160a01b038216612e805760405163237813dd60e01b815260040160405180910390fd5b6001600160a01b03821660009081526005602052604081208054839290612ea89084906138da565b925050819055508060046000828254612ec191906138da565b90915550506040518181526001600160a01b038316906000907fddf252ad1be2c89b69c2b068fc378daa952ba7f163c4a11628f55a4df523b3ef906020015b60405180910390a35050565b60008383026000198486098181108201900380612f415783612f365763ae47f7026000526004601cfd5b508290049050610f0e565b808411612f565763ae47f7026000526004601cfd5b838587096000858103861695869004956003870260029081188089028203028089028203028089028203028089028203028089028203028089029091030291819003819004600101858411909403939093029190930391909104170290509392505050565b600080612fcb6121be84866138da565b9050600d548111612ff957600a54600b54612fe79083906129fa565b612ff191906138da565b91505061096f565b6000600a54613015600b54600d546129fa90919063ffffffff16565b61301f91906138da565b90506000600d54836130319190613931565b905081613049600c54836129fa90919063ffffffff16565b61305391906138da565b9695505050505050565b6009546001600160a01b0316806130745750505050565b604051632b7cf7cb60e11b81527f000000000000000000000000000000000000000000000000000000000000000060048201526001600160a01b03858116602483015260448201859052606482018490528216906356f9ef9690608401600060405180830381600087803b1580156130eb57600080fd5b505af11580156130ff573d6000803e3d6000fd5b5050505050505050565b6001600160a01b03821661313057604051630b5da42b60e01b815260040160405180910390fd5b6001600160a01b03821660009081526005602052604081208054839290613158908490613931565b9250508190555080600460008282546131719190613931565b90915550506040518181526000906001600160a01b038416907fddf252ad1be2c89b69c2b068fc378daa952ba7f163c4a11628f55a4df523b3ef90602001612f00565b604051636eb1769f60e11b81523060048201526001600160a01b03838116602483015282919085169063dd62ed3e9060440160206040518083038186803b1580156131fe57600080fd5b505afa158015613212573d6000803e3d6000fd5b505050506040513d601f19601f8201168201806040525081019061323691906136ca565b1061324057505050565b61215b6001600160a01b0384168360001961328e565b6000613263848484612f0c565b90508183850915610f0e57600181016132845763ae47f7026000526004601cfd5b6001019392505050565b81601a5280603a5269095ea7b300000000000060005260206000604460166000875af13d15600160005114171661211557633e3f8f736000526004601cfd5b60008083601f8401126132de578182fd5b50813567ffffffffffffffff8111156132f5578182fd5b60208301915083602082850101111561330d57600080fd5b9250929050565b600082601f830112613324578081fd5b815167ffffffffffffffff8082111561333f5761333f6139ee565b604051601f8301601f19908116603f01168101908282118183101715613367576133676139ee565b8160405283815286602085880101111561337f578485fd5b61305384602083016020890161396d565b6000602082840312156133a1578081fd5b8135610f0e81613a04565b6000602082840312156133bd578081fd5b8151610f0e81613a04565b6000806000808486036101408112156133df578384fd5b85516133ea81613a04565b945060e0601f19820112156133fd578384fd5b506134066138b1565b602086015161341481613a04565b8152604086015161342481613a04565b6020820152606086015161343781613a04565b6040820152608086015161344a81613a04565b8060608301525060a0860151608082015260c086015160a082015260e086015160c08201528093505061010085015167ffffffffffffffff8082111561348e578384fd5b61349a88838901613314565b93506101208701519150808211156134b0578283fd5b506134bd87828801613314565b91505092959194509250565b600080604083850312156134db578182fd5b82356134e681613a04565b915060208301356134f681613a04565b809150509250929050565b600080600060608486031215613515578283fd5b833561352081613a04565b9250602084013561353081613a04565b929592945050506040919091013590565b600080600080600060808688031215613558578081fd5b853561356381613a04565b9450602086013561357381613a04565b935060408601359250606086013567ffffffffffffffff811115613595578182fd5b6135a1888289016132cd565b969995985093965092949392505050565b600080600080600080600060e0888a0312156135cc578182fd5b87356135d781613a04565b965060208801356135e781613a04565b95506040880135945060608801359350608088013560ff8116811461360a578283fd5b9699959850939692959460a0840135945060c09093013592915050565b60008060408385031215613639578182fd5b823561364481613a04565b946020939093013593505050565b600060208284031215613663578081fd5b81518015158114610f0e578182fd5b60008060208385031215613684578182fd5b823567ffffffffffffffff81111561369a578283fd5b6136a6858286016132cd565b90969095509350505050565b6000602082840312156136c3578081fd5b5035919050565b6000602082840312156136db578081fd5b5051919050565b600080604083850312156136f4578182fd5b8235915060208301356134f681613a04565b60008060006060848603121561371a578081fd5b83359250602084013561372c81613a04565b9150604084013561373c81613a04565b809150509250925092565b60008060408385031215613759578182fd5b505080516020909101519092909150565b6000806000806080858703121561377f578182fd5b5050823594602084013594506040840135936060013592509050565b600081518084526137b381602086016020860161396d565b601f01601f19169290920160200192915050565b6001600160a01b038516815283602082015260606040820152816060820152818360808301376000818301608090810191909152601f909201601f191601019392505050565b60006101406001600160a01b03808816845280875116602085015280602088015116604085015280604088015116606085015280606088015116608085015250608086015160a084015260a086015160c084015260c086015160e08401528061010084015261387e8184018661379b565b9050828103610120840152613893818561379b565b979650505050505050565b602081526000610f0e602083018461379b565b60405160e0810167ffffffffffffffff811182821017156138d4576138d46139ee565b60405290565b600082198211156138ed576138ed6139d8565b500190565b60008261390d57634e487b7160e01b81526012600452602481fd5b500490565b600081600019048311821515161561392c5761392c6139d8565b500290565b600082821015613943576139436139d8565b500390565b600063ffffffff83811690831681811015613965576139656139d8565b039392505050565b60005b83811015613988578181015183820152602001613970565b83811115613997576000848401525b50505050565b600181811c908216806139b157607f821691505b602082108114156139d257634e487b7160e01b600052602260045260246000fd5b50919050565b634e487b7160e01b600052601160045260246000fd5b634e487b7160e01b600052604160045260246000fd5b6001600160a01b03811681146118d057600080fdfea26469706673582212203c3ad318acaa4e43aa1652d8d60314343536c0af4657f63ed7fb7dea06489bf164736f6c63430008040033",
  "linkReferences": {},
  "deployedLinkReferences": {}
}