{
  "_format": "hh-sol-artifact-1",
  "contractName": "CygnusBorrow",
  "sourceName": "contracts/cygnus-core/CygnusBorrow.sol",
  "abi": [
    {
      "inputs": [],
      "name": "AllowanceOverflow",
      "type": "error"
    },
    {
      "inputs": [],
      "name": "AllowanceUnderflow",
      "type": "error"
    },
    {
      "inputs": [],
      "name": "CygnusBorrowControl__ParameterNotInRange",
      "type": "error"
    },
    {
      "inputs": [],
      "name": "CygnusBorrowVoid__CTokenError",
      "type": "error"
    },
    {
      "inputs": [],
      "name": "CygnusBorrowVoid__OnlyHarvesterAllowed",
      "type": "error"
    },
    {
      "inputs": [],
      "name": "CygnusBorrow__BorrowExceedsTotalBalance",
      "type": "error"
    },
    {
      "inputs": [],
      "name": "CygnusBorrow__BorrowRepayOverload",
      "type": "error"
    },
    {
      "inputs": [],
      "name": "CygnusBorrow__CantRepayZero",
      "type": "error"
    },
    {
      "inputs": [],
      "name": "CygnusBorrow__InsufficientLiquidity",
      "type": "error"
    },
    {
      "inputs": [],
      "name": "CygnusBorrow__InsufficientUsdReceived",
      "type": "error"
    },
    {
      "inputs": [],
      "name": "CygnusBorrow__InvalidRepayAmount",
      "type": "error"
    },
    {
      "inputs": [],
      "name": "CygnusBorrow__MasterApprovalDisabled",
      "type": "error"
    },
    {
      "inputs": [],
      "name": "CygnusTerminal__CantMintZeroShares",
      "type": "error"
    },
    {
      "inputs": [],
      "name": "CygnusTerminal__CantRedeemZeroAssets",
      "type": "error"
    },
    {
      "inputs": [],
      "name": "CygnusTerminal__CantSweepUnderlying",
      "type": "error"
    },
    {
      "inputs": [],
      "name": "CygnusTerminal__MsgSenderNotAdmin",
      "type": "error"
    },
    {
      "inputs": [],
      "name": "InsufficientAllowance",
      "type": "error"
    },
    {
      "inputs": [],
      "name": "InsufficientBalance",
      "type": "error"
    },
    {
      "inputs": [],
      "name": "InvalidPermit",
      "type": "error"
    },
    {
      "inputs": [],
      "name": "PermitExpired",
      "type": "error"
    },
    {
      "inputs": [],
      "name": "ReentrantCall",
      "type": "error"
    },
    {
      "inputs": [],
      "name": "TotalSupplyOverflow",
      "type": "error"
    },
    {
      "anonymous": false,
      "inputs": [
        {
          "indexed": false,
          "internalType": "uint256",
          "name": "cashStored",
          "type": "uint256"
        },
        {
          "indexed": false,
          "internalType": "uint256",
          "name": "totalBorrowsStored",
          "type": "uint256"
        },
        {
          "indexed": false,
          "internalType": "uint256",
          "name": "interestAccumulated",
          "type": "uint256"
        }
      ],
      "name": "AccrueInterest",
      "type": "event"
    },
    {
      "anonymous": false,
      "inputs": [
        {
          "indexed": true,
          "internalType": "address",
          "name": "owner",
          "type": "address"
        },
        {
          "indexed": true,
          "internalType": "address",
          "name": "spender",
          "type": "address"
        },
        {
          "indexed": false,
          "internalType": "uint256",
          "name": "amount",
          "type": "uint256"
        }
      ],
      "name": "Approval",
      "type": "event"
    },
    {
      "anonymous": false,
      "inputs": [
        {
          "indexed": true,
          "internalType": "address",
          "name": "sender",
          "type": "address"
        },
        {
          "indexed": true,
          "internalType": "address",
          "name": "borrower",
          "type": "address"
        },
        {
          "indexed": true,
          "internalType": "address",
          "name": "receiver",
          "type": "address"
        },
        {
          "indexed": false,
          "internalType": "uint256",
          "name": "borrowAmount",
          "type": "uint256"
        },
        {
          "indexed": false,
          "internalType": "uint256",
          "name": "repayAmount",
          "type": "uint256"
        }
      ],
      "name": "Borrow",
      "type": "event"
    },
    {
      "anonymous": false,
      "inputs": [
        {
          "indexed": false,
          "internalType": "address",
          "name": "underlying",
          "type": "address"
        },
        {
          "indexed": false,
          "internalType": "uint256",
          "name": "shuttleId",
          "type": "uint256"
        },
        {
          "indexed": false,
          "internalType": "address",
          "name": "sender",
          "type": "address"
        }
      ],
      "name": "ChargeVoid",
      "type": "event"
    },
    {
      "anonymous": false,
      "inputs": [
        {
          "indexed": true,
          "internalType": "address",
          "name": "sender",
          "type": "address"
        },
        {
          "indexed": true,
          "internalType": "address",
          "name": "recipient",
          "type": "address"
        },
        {
          "indexed": false,
          "internalType": "uint256",
          "name": "assets",
          "type": "uint256"
        },
        {
          "indexed": false,
          "internalType": "uint256",
          "name": "shares",
          "type": "uint256"
        }
      ],
      "name": "Deposit",
      "type": "event"
    },
    {
      "anonymous": false,
      "inputs": [
        {
          "indexed": true,
          "internalType": "address",
          "name": "sender",
          "type": "address"
        },
        {
          "indexed": true,
          "internalType": "address",
          "name": "borrower",
          "type": "address"
        },
        {
          "indexed": true,
          "internalType": "address",
          "name": "receiver",
          "type": "address"
        },
        {
          "indexed": false,
          "internalType": "uint256",
          "name": "repayAmount",
          "type": "uint256"
        },
        {
          "indexed": false,
          "internalType": "uint256",
          "name": "cygLPAmount",
          "type": "uint256"
        },
        {
          "indexed": false,
          "internalType": "uint256",
          "name": "usdAmount",
          "type": "uint256"
        }
      ],
      "name": "Liquidate",
      "type": "event"
    },
    {
      "anonymous": false,
      "inputs": [
        {
          "indexed": false,
          "internalType": "address",
          "name": "oldBorrowRewarder",
          "type": "address"
        },
        {
          "indexed": false,
          "internalType": "address",
          "name": "newBorrowRewarder",
          "type": "address"
        }
      ],
      "name": "NewCygnusBorrowRewarder",
      "type": "event"
    },
    {
      "anonymous": false,
      "inputs": [
        {
          "indexed": false,
          "internalType": "contract ICygnusHarvester",
          "name": "oldHarvester",
          "type": "address"
        },
        {
          "indexed": false,
          "internalType": "contract ICygnusHarvester",
          "name": "newHarvester",
          "type": "address"
        }
      ],
      "name": "NewHarvester",
      "type": "event"
    },
    {
      "anonymous": false,
      "inputs": [
        {
          "indexed": false,
          "internalType": "uint256",
          "name": "baseRatePerYear",
          "type": "uint256"
        },
        {
          "indexed": false,
          "internalType": "uint256",
          "name": "multiplierPerYear",
          "type": "uint256"
        },
        {
          "indexed": false,
          "internalType": "uint256",
          "name": "kinkMultiplier_",
          "type": "uint256"
        },
        {
          "indexed": false,
          "internalType": "uint256",
          "name": "kinkUtilizationRate_",
          "type": "uint256"
        }
      ],
      "name": "NewInterestRateParameters",
      "type": "event"
    },
    {
      "anonymous": false,
      "inputs": [
        {
          "indexed": false,
          "internalType": "uint256",
          "name": "oldReserveFactor",
          "type": "uint256"
        },
        {
          "indexed": false,
          "internalType": "uint256",
          "name": "newReserveFactor",
          "type": "uint256"
        }
      ],
      "name": "NewReserveFactor",
      "type": "event"
    },
    {
      "anonymous": false,
      "inputs": [
        {
          "indexed": true,
          "internalType": "address",
          "name": "reinvestor",
          "type": "address"
        },
        {
          "indexed": false,
          "internalType": "uint256",
          "name": "liquidity",
          "type": "uint256"
        },
        {
          "indexed": false,
          "internalType": "uint256",
          "name": "timestamp",
          "type": "uint256"
        }
      ],
      "name": "RechargeVoid",
      "type": "event"
    },
    {
      "anonymous": false,
      "inputs": [
        {
          "indexed": true,
          "internalType": "address",
          "name": "sender",
          "type": "address"
        },
        {
          "indexed": true,
          "internalType": "address",
          "name": "token",
          "type": "address"
        },
        {
          "indexed": false,
          "internalType": "uint256",
          "name": "balance",
          "type": "uint256"
        }
      ],
      "name": "SweepToken",
      "type": "event"
    },
    {
      "anonymous": false,
      "inputs": [
        {
          "indexed": false,
          "internalType": "uint160",
          "name": "totalBalance",
          "type": "uint160"
        }
      ],
      "name": "Sync",
      "type": "event"
    },
    {
      "anonymous": false,
      "inputs": [
        {
          "indexed": true,
          "internalType": "address",
          "name": "from",
          "type": "address"
        },
        {
          "indexed": true,
          "internalType": "address",
          "name": "to",
          "type": "address"
        },
        {
          "indexed": false,
          "internalType": "uint256",
          "name": "amount",
          "type": "uint256"
        }
      ],
      "name": "Transfer",
      "type": "event"
    },
    {
      "anonymous": false,
      "inputs": [
        {
          "indexed": true,
          "internalType": "address",
          "name": "sender",
          "type": "address"
        },
        {
          "indexed": true,
          "internalType": "address",
          "name": "recipient",
          "type": "address"
        },
        {
          "indexed": true,
          "internalType": "address",
          "name": "owner",
          "type": "address"
        },
        {
          "indexed": false,
          "internalType": "uint256",
          "name": "assets",
          "type": "uint256"
        },
        {
          "indexed": false,
          "internalType": "uint256",
          "name": "shares",
          "type": "uint256"
        }
      ],
      "name": "Withdraw",
      "type": "event"
    },
    {
      "inputs": [],
      "name": "DOMAIN_SEPARATOR",
      "outputs": [
        {
          "internalType": "bytes32",
          "name": "result",
          "type": "bytes32"
        }
      ],
      "stateMutability": "view",
      "type": "function"
    },
    {
      "inputs": [],
      "name": "PERMIT2",
      "outputs": [
        {
          "internalType": "contract IAllowanceTransfer",
          "name": "",
          "type": "address"
        }
      ],
      "stateMutability": "view",
      "type": "function"
    },
    {
      "inputs": [],
      "name": "accrueInterest",
      "outputs": [],
      "stateMutability": "nonpayable",
      "type": "function"
    },
    {
      "inputs": [
        {
          "internalType": "address",
          "name": "owner",
          "type": "address"
        },
        {
          "internalType": "address",
          "name": "spender",
          "type": "address"
        }
      ],
      "name": "allowance",
      "outputs": [
        {
          "internalType": "uint256",
          "name": "result",
          "type": "uint256"
        }
      ],
      "stateMutability": "view",
      "type": "function"
    },
    {
      "inputs": [
        {
          "internalType": "address",
          "name": "spender",
          "type": "address"
        },
        {
          "internalType": "uint256",
          "name": "amount",
          "type": "uint256"
        }
      ],
      "name": "approve",
      "outputs": [
        {
          "internalType": "bool",
          "name": "",
          "type": "bool"
        }
      ],
      "stateMutability": "nonpayable",
      "type": "function"
    },
    {
      "inputs": [
        {
          "internalType": "address",
          "name": "owner",
          "type": "address"
        }
      ],
      "name": "balanceOf",
      "outputs": [
        {
          "internalType": "uint256",
          "name": "result",
          "type": "uint256"
        }
      ],
      "stateMutability": "view",
      "type": "function"
    },
    {
      "inputs": [],
      "name": "baseRatePerSecond",
      "outputs": [
        {
          "internalType": "uint256",
          "name": "",
          "type": "uint256"
        }
      ],
      "stateMutability": "view",
      "type": "function"
    },
    {
      "inputs": [
        {
          "internalType": "address",
          "name": "borrower",
          "type": "address"
        },
        {
          "internalType": "address",
          "name": "receiver",
          "type": "address"
        },
        {
          "internalType": "uint256",
          "name": "borrowAmount",
          "type": "uint256"
        },
        {
          "internalType": "bytes",
          "name": "data",
          "type": "bytes"
        }
      ],
      "name": "borrow",
      "outputs": [],
      "stateMutability": "nonpayable",
      "type": "function"
    },
    {
      "inputs": [
        {
          "internalType": "address",
          "name": "",
          "type": "address"
        }
      ],
      "name": "borrowBalances",
      "outputs": [
        {
          "internalType": "uint128",
          "name": "principal",
          "type": "uint128"
        },
        {
          "internalType": "uint128",
          "name": "interestIndex",
          "type": "uint128"
        }
      ],
      "stateMutability": "view",
      "type": "function"
    },
    {
      "inputs": [],
      "name": "borrowIndex",
      "outputs": [
        {
          "internalType": "uint80",
          "name": "",
          "type": "uint80"
        }
      ],
      "stateMutability": "view",
      "type": "function"
    },
    {
      "inputs": [],
      "name": "borrowRate",
      "outputs": [
        {
          "internalType": "uint48",
          "name": "",
          "type": "uint48"
        }
      ],
      "stateMutability": "view",
      "type": "function"
    },
    {
      "inputs": [],
      "name": "chargeVoid",
      "outputs": [],
      "stateMutability": "nonpayable",
      "type": "function"
    },
    {
      "inputs": [],
      "name": "collateral",
      "outputs": [
        {
          "internalType": "address",
          "name": "",
          "type": "address"
        }
      ],
      "stateMutability": "view",
      "type": "function"
    },
    {
      "inputs": [],
      "name": "cygnusBorrowRewarder",
      "outputs": [
        {
          "internalType": "address",
          "name": "",
          "type": "address"
        }
      ],
      "stateMutability": "view",
      "type": "function"
    },
    {
      "inputs": [],
      "name": "cygnusNebulaOracle",
      "outputs": [
        {
          "internalType": "contract ICygnusNebulaOracle",
          "name": "",
          "type": "address"
        }
      ],
      "stateMutability": "view",
      "type": "function"
    },
    {
      "inputs": [],
      "name": "decimals",
      "outputs": [
        {
          "internalType": "uint8",
          "name": "",
          "type": "uint8"
        }
      ],
      "stateMutability": "view",
      "type": "function"
    },
    {
      "inputs": [
        {
          "internalType": "address",
          "name": "spender",
          "type": "address"
        },
        {
          "internalType": "uint256",
          "name": "difference",
          "type": "uint256"
        }
      ],
      "name": "decreaseAllowance",
      "outputs": [
        {
          "internalType": "bool",
          "name": "",
          "type": "bool"
        }
      ],
      "stateMutability": "nonpayable",
      "type": "function"
    },
    {
      "inputs": [
        {
          "internalType": "uint256",
          "name": "assets",
          "type": "uint256"
        },
        {
          "internalType": "address",
          "name": "recipient",
          "type": "address"
        },
        {
          "components": [
            {
              "components": [
                {
                  "internalType": "address",
                  "name": "token",
                  "type": "address"
                },
                {
                  "internalType": "uint160",
                  "name": "amount",
                  "type": "uint160"
                },
                {
                  "internalType": "uint48",
                  "name": "expiration",
                  "type": "uint48"
                },
                {
                  "internalType": "uint48",
                  "name": "nonce",
                  "type": "uint48"
                }
              ],
              "internalType": "struct IAllowanceTransfer.PermitDetails",
              "name": "details",
              "type": "tuple"
            },
            {
              "internalType": "address",
              "name": "spender",
              "type": "address"
            },
            {
              "internalType": "uint256",
              "name": "sigDeadline",
              "type": "uint256"
            }
          ],
          "internalType": "struct IAllowanceTransfer.PermitSingle",
          "name": "_permit",
          "type": "tuple"
        },
        {
          "internalType": "bytes",
          "name": "signature",
          "type": "bytes"
        }
      ],
      "name": "deposit",
      "outputs": [
        {
          "internalType": "uint256",
          "name": "shares",
          "type": "uint256"
        }
      ],
      "stateMutability": "nonpayable",
      "type": "function"
    },
    {
      "inputs": [],
      "name": "exchangeRate",
      "outputs": [
        {
          "internalType": "uint256",
          "name": "",
          "type": "uint256"
        }
      ],
      "stateMutability": "nonpayable",
      "type": "function"
    },
    {
      "inputs": [],
      "name": "exchangeRateStored",
      "outputs": [
        {
          "internalType": "uint256",
          "name": "",
          "type": "uint256"
        }
      ],
      "stateMutability": "view",
      "type": "function"
    },
    {
      "inputs": [
        {
          "internalType": "address",
          "name": "borrower",
          "type": "address"
        }
      ],
      "name": "getBorrowBalance",
      "outputs": [
        {
          "internalType": "uint256",
          "name": "",
          "type": "uint256"
        }
      ],
      "stateMutability": "view",
      "type": "function"
    },
    {
      "inputs": [],
      "name": "getRewards",
      "outputs": [
        {
          "internalType": "address[]",
          "name": "tokens",
          "type": "address[]"
        },
        {
          "internalType": "uint256[]",
          "name": "amounts",
          "type": "uint256[]"
        }
      ],
      "stateMutability": "nonpayable",
      "type": "function"
    },
    {
      "inputs": [],
      "name": "hangar18",
      "outputs": [
        {
          "internalType": "contract IHangar18",
          "name": "",
          "type": "address"
        }
      ],
      "stateMutability": "view",
      "type": "function"
    },
    {
      "inputs": [],
      "name": "harvester",
      "outputs": [
        {
          "internalType": "contract ICygnusHarvester",
          "name": "",
          "type": "address"
        }
      ],
      "stateMutability": "view",
      "type": "function"
    },
    {
      "inputs": [
        {
          "internalType": "address",
          "name": "spender",
          "type": "address"
        },
        {
          "internalType": "uint256",
          "name": "difference",
          "type": "uint256"
        }
      ],
      "name": "increaseAllowance",
      "outputs": [
        {
          "internalType": "bool",
          "name": "",
          "type": "bool"
        }
      ],
      "stateMutability": "nonpayable",
      "type": "function"
    },
    {
      "inputs": [],
      "name": "jumpMultiplierPerSecond",
      "outputs": [
        {
          "internalType": "uint256",
          "name": "",
          "type": "uint256"
        }
      ],
      "stateMutability": "view",
      "type": "function"
    },
    {
      "inputs": [],
      "name": "kinkMultiplier",
      "outputs": [
        {
          "internalType": "uint256",
          "name": "",
          "type": "uint256"
        }
      ],
      "stateMutability": "view",
      "type": "function"
    },
    {
      "inputs": [],
      "name": "kinkUtilizationRate",
      "outputs": [
        {
          "internalType": "uint256",
          "name": "",
          "type": "uint256"
        }
      ],
      "stateMutability": "view",
      "type": "function"
    },
    {
      "inputs": [],
      "name": "lastAccrualTimestamp",
      "outputs": [
        {
          "internalType": "uint32",
          "name": "",
          "type": "uint32"
        }
      ],
      "stateMutability": "view",
      "type": "function"
    },
    {
      "inputs": [],
      "name": "lastReinvest",
      "outputs": [
        {
          "internalType": "uint256",
          "name": "",
          "type": "uint256"
        }
      ],
      "stateMutability": "view",
      "type": "function"
    },
    {
      "inputs": [
        {
          "internalType": "address",
          "name": "borrower",
          "type": "address"
        },
        {
          "internalType": "address",
          "name": "receiver",
          "type": "address"
        },
        {
          "internalType": "uint256",
          "name": "repayAmount",
          "type": "uint256"
        },
        {
          "internalType": "bytes",
          "name": "data",
          "type": "bytes"
        }
      ],
      "name": "liquidate",
      "outputs": [
        {
          "internalType": "uint256",
          "name": "amountUsd",
          "type": "uint256"
        }
      ],
      "stateMutability": "nonpayable",
      "type": "function"
    },
    {
      "inputs": [],
      "name": "multiplierPerSecond",
      "outputs": [
        {
          "internalType": "uint256",
          "name": "",
          "type": "uint256"
        }
      ],
      "stateMutability": "view",
      "type": "function"
    },
    {
      "inputs": [],
      "name": "name",
      "outputs": [
        {
          "internalType": "string",
          "name": "",
          "type": "string"
        }
      ],
      "stateMutability": "pure",
      "type": "function"
    },
    {
      "inputs": [
        {
          "internalType": "address",
          "name": "owner",
          "type": "address"
        }
      ],
      "name": "nonces",
      "outputs": [
        {
          "internalType": "uint256",
          "name": "result",
          "type": "uint256"
        }
      ],
      "stateMutability": "view",
      "type": "function"
    },
    {
      "inputs": [
        {
          "internalType": "address",
          "name": "owner",
          "type": "address"
        },
        {
          "internalType": "address",
          "name": "spender",
          "type": "address"
        },
        {
          "internalType": "uint256",
          "name": "value",
          "type": "uint256"
        },
        {
          "internalType": "uint256",
          "name": "deadline",
          "type": "uint256"
        },
        {
          "internalType": "uint8",
          "name": "v",
          "type": "uint8"
        },
        {
          "internalType": "bytes32",
          "name": "r",
          "type": "bytes32"
        },
        {
          "internalType": "bytes32",
          "name": "s",
          "type": "bytes32"
        }
      ],
      "name": "permit",
      "outputs": [],
      "stateMutability": "nonpayable",
      "type": "function"
    },
    {
      "inputs": [
        {
          "internalType": "uint256",
          "name": "shares",
          "type": "uint256"
        },
        {
          "internalType": "address",
          "name": "recipient",
          "type": "address"
        },
        {
          "internalType": "address",
          "name": "owner",
          "type": "address"
        }
      ],
      "name": "redeem",
      "outputs": [
        {
          "internalType": "uint256",
          "name": "assets",
          "type": "uint256"
        }
      ],
      "stateMutability": "nonpayable",
      "type": "function"
    },
    {
      "inputs": [
        {
          "internalType": "uint256",
          "name": "liquidity",
          "type": "uint256"
        }
      ],
      "name": "reinvestRewards_y7b",
      "outputs": [],
      "stateMutability": "nonpayable",
      "type": "function"
    },
    {
      "inputs": [],
      "name": "reserveFactor",
      "outputs": [
        {
          "internalType": "uint256",
          "name": "",
          "type": "uint256"
        }
      ],
      "stateMutability": "view",
      "type": "function"
    },
    {
      "inputs": [],
      "name": "rewardToken",
      "outputs": [
        {
          "internalType": "address",
          "name": "",
          "type": "address"
        }
      ],
      "stateMutability": "pure",
      "type": "function"
    },
    {
      "inputs": [],
      "name": "rewarder",
      "outputs": [
        {
          "internalType": "address",
          "name": "",
          "type": "address"
        }
      ],
      "stateMutability": "pure",
      "type": "function"
    },
    {
      "inputs": [
        {
          "internalType": "address",
          "name": "newBorrowRewarder",
          "type": "address"
        }
      ],
      "name": "setCygnusBorrowRewarder",
      "outputs": [],
      "stateMutability": "nonpayable",
      "type": "function"
    },
    {
      "inputs": [
        {
          "internalType": "contract ICygnusHarvester",
          "name": "_harvester",
          "type": "address"
        }
      ],
      "name": "setHarvester",
      "outputs": [],
      "stateMutability": "nonpayable",
      "type": "function"
    },
    {
      "inputs": [
        {
          "internalType": "uint256",
          "name": "baseRatePerYear_",
          "type": "uint256"
        },
        {
          "internalType": "uint256",
          "name": "multiplierPerYear_",
          "type": "uint256"
        },
        {
          "internalType": "uint256",
          "name": "kinkMultiplier_",
          "type": "uint256"
        },
        {
          "internalType": "uint256",
          "name": "kinkUtilizationRate_",
          "type": "uint256"
        }
      ],
      "name": "setInterestRateModel",
      "outputs": [],
      "stateMutability": "nonpayable",
      "type": "function"
    },
    {
      "inputs": [
        {
          "internalType": "uint256",
          "name": "newReserveFactor",
          "type": "uint256"
        }
      ],
      "name": "setReserveFactor",
      "outputs": [],
      "stateMutability": "nonpayable",
      "type": "function"
    },
    {
      "inputs": [],
      "name": "shuttleId",
      "outputs": [
        {
          "internalType": "uint256",
          "name": "",
          "type": "uint256"
        }
      ],
      "stateMutability": "view",
      "type": "function"
    },
    {
      "inputs": [],
      "name": "supplyRate",
      "outputs": [
        {
          "internalType": "uint256",
          "name": "",
          "type": "uint256"
        }
      ],
      "stateMutability": "view",
      "type": "function"
    },
    {
      "inputs": [
        {
          "internalType": "address",
          "name": "token",
          "type": "address"
        }
      ],
      "name": "sweepToken",
      "outputs": [],
      "stateMutability": "nonpayable",
      "type": "function"
    },
    {
      "inputs": [],
      "name": "symbol",
      "outputs": [
        {
          "internalType": "string",
          "name": "",
          "type": "string"
        }
      ],
      "stateMutability": "view",
      "type": "function"
    },
    {
      "inputs": [],
      "name": "sync",
      "outputs": [],
      "stateMutability": "nonpayable",
      "type": "function"
    },
    {
      "inputs": [],
      "name": "totalBalance",
      "outputs": [
        {
          "internalType": "uint160",
          "name": "",
          "type": "uint160"
        }
      ],
      "stateMutability": "view",
      "type": "function"
    },
    {
      "inputs": [],
      "name": "totalBorrows",
      "outputs": [
        {
          "internalType": "uint96",
          "name": "",
          "type": "uint96"
        }
      ],
      "stateMutability": "view",
      "type": "function"
    },
    {
      "inputs": [],
      "name": "totalSupply",
      "outputs": [
        {
          "internalType": "uint256",
          "name": "result",
          "type": "uint256"
        }
      ],
      "stateMutability": "view",
      "type": "function"
    },
    {
      "inputs": [
        {
          "internalType": "address",
          "name": "borrower",
          "type": "address"
        }
      ],
      "name": "trackBorrower",
      "outputs": [],
      "stateMutability": "nonpayable",
      "type": "function"
    },
    {
      "inputs": [
        {
          "internalType": "address",
          "name": "to",
          "type": "address"
        },
        {
          "internalType": "uint256",
          "name": "amount",
          "type": "uint256"
        }
      ],
      "name": "transfer",
      "outputs": [
        {
          "internalType": "bool",
          "name": "",
          "type": "bool"
        }
      ],
      "stateMutability": "nonpayable",
      "type": "function"
    },
    {
      "inputs": [
        {
          "internalType": "address",
          "name": "from",
          "type": "address"
        },
        {
          "internalType": "address",
          "name": "to",
          "type": "address"
        },
        {
          "internalType": "uint256",
          "name": "amount",
          "type": "uint256"
        }
      ],
      "name": "transferFrom",
      "outputs": [
        {
          "internalType": "bool",
          "name": "",
          "type": "bool"
        }
      ],
      "stateMutability": "nonpayable",
      "type": "function"
    },
    {
      "inputs": [],
      "name": "underlying",
      "outputs": [
        {
          "internalType": "address",
          "name": "",
          "type": "address"
        }
      ],
      "stateMutability": "view",
      "type": "function"
    },
    {
      "inputs": [],
      "name": "utilizationRate",
      "outputs": [
        {
          "internalType": "uint256",
          "name": "",
          "type": "uint256"
        }
      ],
      "stateMutability": "view",
      "type": "function"
    }
  ],
  "bytecode": "0x6101008060405234620001f3576000805460ff19166001178155635a412e5360e01b80835260a092838160048186335af18015620001e8578391849185918691620001bf575b5060e052855260c052608052670bcbce7f1b1500006006556002600755670214e8348c4f0000600855670de0b6b3a7640000600955604051908152828160048185335af1918215620001b357916200017a575b50600180546001600160a01b0319166001600160a01b0392909216919091179055600b80546001600160601b0365ffffffffffff60b01b01164260e01b6001600160e01b031916176503782dace9d960721b1790556040516141999182620002a183396080518281816103f201528181612de70152613c6001525181610529015260c05181818161083e01528181610a1d01528181610e8b015281816111560152818161167301528181611bcf01528181611d4a015281816120c0015281816123020152818161260b0152612823015260e0518181816108ed01526117970152f35b6200019f9150823d8411620001ab575b620001968183620001f8565b81019062000247565b50509150503862000098565b503d6200018a565b604051903d90823e3d90fd5b92505050620001de9150843d8611620001ab57620001968183620001f8565b9150903862000045565b6040513d85823e3d90fd5b600080fd5b601f909101601f19168101906001600160401b038211908210176200021c57604052565b634e487b7160e01b600052604160045260246000fd5b51906001600160a01b0382168203620001f357565b91908260a0910312620001f35781516001600160a01b03908181168103620001f35792620002786020820162000232565b92620002876040830162000232565b9260608301519081168103620001f3576080909201519056fe6080604081815260048036101561001557600080fd5b600092833560e01c9081630572b0cc146129e25750806306fdde031461299b578063095ea7b3146128fd57806315de1daa1461278e57806318160ddd14612749578063182df0f51461270c5780631aebf12f146126cf5780631be195601461257a5780631c446983146124cf5780631e44b7fc146123635780631e7dcc0d1461202557806323b872dd14611f0057806327ce385414611c59578063313ce56714611b5e5780633644e51514611b235780633950935114611a6b5780633ba0b9a914611a2857806342bf78af146119445780634322b7141461190757806346f608ff146118cc57806347bd3718146118815780634bdaeac11461182e5780635b322bbe146117ba5780635f77f891146117615780636afdd850146117195780636c321c8a146116975780636f307dc31461162857806370a08231146115c257806372cf84a7146115855780637d6af079146115295780637ecebe00146114c357806381f5b6f4146113f35780638808e71c1461103157806394e1373c14610fb257806395d89b4114610e1b5780639b51099814610dde578063a457c2d714610d25578063a6afed9514610ceb578063a9059cbb14610c33578063aa5af0fd14610be7578063ad168c9d14610b94578063ad2961a314610b52578063ad7a672f14610afe578063b5f3c95b14610ac1578063ba0876521461091a578063bcbc3320146107e8578063c0789dcb146107a8578063c914b43714610760578063d505accf146105dd578063d8dfeb451461058a578063d90e02641461054d578063d935bd92146104de578063dcc3e06e14610491578063dd62ed3e14610416578063e8a24e1d146103a7578063f7c618c1146103565763fff6cae91461029657600080fd5b3461035257827ffffffffffffffffffffffffffffffffffffffffffffffffffffffffffffffffc3601126103525782549160ff83161561032c57836001847fffffffffffffffffffffffffffffffffffffffffffffffffffffffffffffff008091168355610302613ce3565b61030a613302565b610312613302565b61031a612c54565b50610323613ce3565b82541617815580f35b517f37ed32e8000000000000000000000000000000000000000000000000000000008152fd5b8280fd5b5050346103a357817ffffffffffffffffffffffffffffffffffffffffffffffffffffffffffffffffc3601126103a35760209051731db2466d9f5e10d7090e7152b68d62703a2245f08152f35b5080fd5b5050346103a357817ffffffffffffffffffffffffffffffffffffffffffffffffffffffffffffffffc3601126103a3576020905173ffffffffffffffffffffffffffffffffffffffff7f0000000000000000000000000000000000000000000000000000000000000000168152f35b503461035257817ffffffffffffffffffffffffffffffffffffffffffffffffffffffffffffffffc360112610352573573ffffffffffffffffffffffffffffffffffffffff92838216820361048c57602435938416840361048c576020938452637f5e9f20600c52526034600c20549051908152f35b600080fd5b5050346103a357817ffffffffffffffffffffffffffffffffffffffffffffffffffffffffffffffffc3601126103a357602090517360cf091cd3f50420d50fd7f707414d0df4751c588152f35b5050346103a357817ffffffffffffffffffffffffffffffffffffffffffffffffffffffffffffffffc3601126103a3576020905173ffffffffffffffffffffffffffffffffffffffff7f0000000000000000000000000000000000000000000000000000000000000000168152f35b5050346103a357817ffffffffffffffffffffffffffffffffffffffffffffffffffffffffffffffffc3601126103a3576020906003549051908152f35b5050346103a357817ffffffffffffffffffffffffffffffffffffffffffffffffffffffffffffffffc3601126103a35760209073ffffffffffffffffffffffffffffffffffffffff600154169051908152f35b5090346103525760e07ffffffffffffffffffffffffffffffffffffffffffffffffffffffffffffffffc36011261035257813573ffffffffffffffffffffffffffffffffffffffff9081811680910361048c5760243591821680920361048c576084359360643560443560ff8716870361075c57610659613e05565b92865197834211610750576338377508600c52858a5260209485600c20948554956001870190557f6e71edae12b1b97f4d1f60370fef10105fa2faae0126114a169c64845d6126c98b5287878c0152888a8c015260608b019585875260808c015260a08b01526119018b52855260c0892088526042601e208a5260ff16845260a435875260c435606052838060808b60015afa50843d51036107455750777f5e9f200000000000000000000000000000000000000000851786526034602c20557f8c5be1e5ebec7d5bd14f71427d1e84f3dd0314c0f7b2291e5b200ac8c7c3b9259190a3528060605280f35b63ddafbaef8952601cfd5b50631a15a3cc8952601cfd5b8780fd5b5050346103a357817ffffffffffffffffffffffffffffffffffffffffffffffffffffffffffffffffc3601126103a35760209065ffffffffffff600b5460b01c169051908152f35b5050346103a357817ffffffffffffffffffffffffffffffffffffffffffffffffffffffffffffffffc3601126103a357602090600b5460e01c9051908152f35b5050346103a357817ffffffffffffffffffffffffffffffffffffffffffffffffffffffffffffffffc3601126103a35760607f98ccebae89f16f152c93c6a0cdc0d99913b9e62a9fc612471c21ffc299c389fd917f0000000000000000000000000000000000000000000000000000000000000000906108d07fffffffffffffffffffffffffffffffffffffffffffffffffffffffffffffffff6108a18173ec8fea79026ffed168ccf5c627c7f486d77b765f86613628565b73dc05d85069dc4aba65954008ff99f2d73ff12618731db2466d9f5e10d7090e7152b68d62703a2245f0613628565b73ffffffffffffffffffffffffffffffffffffffff8151921682527f000000000000000000000000000000000000000000000000000000000000000060208301523390820152a180f35b5090346103525760607ffffffffffffffffffffffffffffffffffffffffffffffffffffffffffffffffc360112610352578135916024359373ffffffffffffffffffffffffffffffffffffffff938486169182870361048c576044359586169384870361048c57610989613ce3565b843303610ab1575b610999613302565b6109aa6109a4612c54565b84613f42565b968715610a89576109ba886135c8565b6387a211a2600c5282526020600c2090815490818511610a7e575097610a419288928560209b0390556805345cdf77eb68f44c858154039055848152867fddf252ad1be2c89b69c2b068fc378daa952ba7f163c4a11628f55a4df523b3ef8b83a37f0000000000000000000000000000000000000000000000000000000000000000614114565b835190858252868201527ffbde797d201c681b91056529119e0b02407c7bb96a4a2c75c01fc9667232c8db843392a4610a78613ce3565b51908152f35b63f4d678b88452601cfd5b5085517fe3e8d297000000000000000000000000000000000000000000000000000000008152fd5b610abc833389613ee5565b610991565b5050346103a357817ffffffffffffffffffffffffffffffffffffffffffffffffffffffffffffffffc3601126103a357602090600d549051908152f35b5050346103a357817ffffffffffffffffffffffffffffffffffffffffffffffffffffffffffffffffc3601126103a35773ffffffffffffffffffffffffffffffffffffffff6020925460081c169051908152f35b5050346103a357817ffffffffffffffffffffffffffffffffffffffffffffffffffffffffffffffffc3601126103a357602090610b8d612f86565b9051908152f35b5050346103a357817ffffffffffffffffffffffffffffffffffffffffffffffffffffffffffffffffc3601126103a35760209073ffffffffffffffffffffffffffffffffffffffff600254169051908152f35b5050346103a357817ffffffffffffffffffffffffffffffffffffffffffffffffffffffffffffffffc3601126103a35760209069ffffffffffffffffffff600b5460601c169051908152f35b509134610ce857817ffffffffffffffffffffffffffffffffffffffffffffffffffffffffffffffffc360112610ce857823573ffffffffffffffffffffffffffffffffffffffff8116810361048c57602435916387a211a2600c5233815260209485600c2090815490818611610a7e575084900390555282600c208181540190558252600c5160601c337fddf252ad1be2c89b69c2b068fc378daa952ba7f163c4a11628f55a4df523b3ef8480a35160018152f35b80fd5b8334610ce857807ffffffffffffffffffffffffffffffffffffffffffffffffffffffffffffffffc360112610ce857610d22613302565b80f35b509134610ce857817ffffffffffffffffffffffffffffffffffffffffffffffffffffffffffffffffc360112610ce857823573ffffffffffffffffffffffffffffffffffffffff8116810361048c5760243590602052637f5e9f20600c523382526034600c20908154818110610dd25760209550038091558152602c5160601c907f8c5be1e5ebec7d5bd14f71427d1e84f3dd0314c0f7b2291e5b200ac8c7c3b925843392a35160018152f35b85638301ab388552601cfd5b5050346103a357817ffffffffffffffffffffffffffffffffffffffffffffffffffffffffffffffffc3601126103a3576020906007549051908152f35b50903461035257827ffffffffffffffffffffffffffffffffffffffffffffffffffffffffffffffffc3601126103525782815180937f95d89b410000000000000000000000000000000000000000000000000000000082528173ffffffffffffffffffffffffffffffffffffffff7f0000000000000000000000000000000000000000000000000000000000000000165afa918215610fa8578392610f20575b610f1c8383610f126028825180947f4379675553443a200000000000000000000000000000000000000000000000006020830152610f028151809260208686019101612b12565b8101036008810185520183612cbf565b5191829182612b35565b0390f35b9091503d8084833e610f328183612cbf565b810190602081830312610fa05780519067ffffffffffffffff8211610fa4570181601f82011215610fa057805193610f6985612ea5565b92610f7685519485612cbf565b85845260208684010111610ce85750610f1c93610f999160208085019101612b12565b9038610ebb565b8380fd5b8480fd5b81513d85823e3d90fd5b508290346103a35760207ffffffffffffffffffffffffffffffffffffffffffffffffffffffffffffffffc3601126103a357359073ffffffffffffffffffffffffffffffffffffffff821680920361048c5782918152600a60205220548151906fffffffffffffffffffffffffffffffff8116825260801c6020820152f35b509190346103a3576101207ffffffffffffffffffffffffffffffffffffffffffffffffffffffffffffffffc3601126103a3576024359273ffffffffffffffffffffffffffffffffffffffff8085169180359183870361048c5760c07fffffffffffffffffffffffffffffffffffffffffffffffffffffffffffffffbc3601126112d35761010490813567ffffffffffffffff811161075c576110d79036908501612ba0565b926110e0613ce3565b6110e8613d7a565b93806112e5575b5050506110fb846140de565b6e22d473030f116ddee9f6b43ac78ba3803b156112e157608489928385938b5196879586947f36c78516000000000000000000000000000000000000000000000000000000008652338c8701523060248701521660448501527f00000000000000000000000000000000000000000000000000000000000000001660648401525af180156112d7579087916112be575b50506111aa6111c09161119d8561350c565b6111a5613d7a565b612cb2565b6111b2613302565b6111ba612c54565b90613f8b565b948515611296576805345cdf77eb68f44c541561121d575b50506111e684602096613e77565b825190815283858201527fdcbc1c05240f31ff3ad067ef1ee35ce4997762752e3a095284754544f4c709d7833392a3610a78613ce3565b7ffffffffffffffffffffffffffffffffffffffffffffffffffffffffffffffc18869297960191821161126a5750602095506111e69080956112636103e861dead613e77565b96506111d8565b806011887f4e487b71000000000000000000000000000000000000000000000000000000006024945252fd5b5083517ff1ca48b1000000000000000000000000000000000000000000000000000000008152fd5b816112c891612cbf565b6112d357853861118b565b8580fd5b86513d89823e3d90fd5b8880fd5b6e22d473030f116ddee9f6b43ac78ba3803b156113ef578951937f2b67b570000000000000000000000000000000000000000000000000000000008552338886015260443586811680910361048c5760248601526064358681168091036113eb57604486015260843565ffffffffffff9081811680910361048c57606487015260a43590811680910361048c57608486015260c4359286841680940361048c57856113b08195938f97938894849660a486015260e43560c486015261010060e4860152840191612e66565b03925af180156113e1579088916113c8575b806110ef565b816113d291612cbf565b6113dd5786386113c2565b8680fd5b87513d8a823e3d90fd5b8c80fd5b8a80fd5b5090346103525760207ffffffffffffffffffffffffffffffffffffffffffffffffffffffffffffffffc3601126103525781359161142f613ce3565b611437613302565b73ffffffffffffffffffffffffffffffffffffffff600c5416330361149c57507fc63644116f6ef474fe595238489f3d0d31a12c55be3a748d72269a62882b04c9906114828361350c565b42600d5580519283524260208401523392a2610d22613ce3565b90517f1bb1bcc6000000000000000000000000000000000000000000000000000000008152fd5b50346103525760207ffffffffffffffffffffffffffffffffffffffffffffffffffffffffffffffffc360112610352573573ffffffffffffffffffffffffffffffffffffffff8116810361048c576020926338377508600c525281600c20549051908152f35b508234610ce85760207ffffffffffffffffffffffffffffffffffffffffffffffffffffffffffffffffc360112610ce85750359073ffffffffffffffffffffffffffffffffffffffff8216820361048c57610b8d602092612f23565b5050346103a357817ffffffffffffffffffffffffffffffffffffffffffffffffffffffffffffffffc3601126103a3576020906005549051908152f35b50346103525760207ffffffffffffffffffffffffffffffffffffffffffffffffffffffffffffffffc360112610352573573ffffffffffffffffffffffffffffffffffffffff8116810361048c576020926387a211a2600c525281600c20549051908152f35b5050346103a357817ffffffffffffffffffffffffffffffffffffffffffffffffffffffffffffffffc3601126103a3576020905173ffffffffffffffffffffffffffffffffffffffff7f0000000000000000000000000000000000000000000000000000000000000000168152f35b5050346103a357817ffffffffffffffffffffffffffffffffffffffffffffffffffffffffffffffffc3601126103a3576020916bffffffffffffffffffffffff600b541680156000146116ec57509051908152f35b6111ba8173ffffffffffffffffffffffffffffffffffffffff611713945460081c16612c18565b90610a78565b5050346103a357817ffffffffffffffffffffffffffffffffffffffffffffffffffffffffffffffffc3601126103a357602090516e22d473030f116ddee9f6b43ac78ba38152f35b5050346103a357817ffffffffffffffffffffffffffffffffffffffffffffffffffffffffffffffffc3601126103a357602090517f00000000000000000000000000000000000000000000000000000000000000008152f35b8382346103a35760207ffffffffffffffffffffffffffffffffffffffffffffffffffffffffffffffffc3601126103a3573573ffffffffffffffffffffffffffffffffffffffff8116810361048c5780611816610d2292612f23565b69ffffffffffffffffffff600b5460601c1691613273565b5050346103a357817ffffffffffffffffffffffffffffffffffffffffffffffffffffffffffffffffc3601126103a35760209073ffffffffffffffffffffffffffffffffffffffff600c54169051908152f35b5050346103a357817ffffffffffffffffffffffffffffffffffffffffffffffffffffffffffffffffc3601126103a3576020906bffffffffffffffffffffffff600b54169051908152f35b503461035257827ffffffffffffffffffffffffffffffffffffffffffffffffffffffffffffffffc3601126103525760209250549051908152f35b5050346103a357817ffffffffffffffffffffffffffffffffffffffffffffffffffffffffffffffffc3601126103a3576020906008549051908152f35b50346103525760207ffffffffffffffffffffffffffffffffffffffffffffffffffffffffffffffffc36011261035257359073ffffffffffffffffffffffffffffffffffffffff908183169081840361048c577f2a0d5dc7fbc8045f59cb33c736f04f9a9b565e9f425912f9cd2bafdebd50cead93611a22916119c5613c1b565b600254937fffffffffffffffffffffffff000000000000000000000000000000000000000085161760025551938493168390602090939293604083019473ffffffffffffffffffffffffffffffffffffffff809216845216910152565b0390a180f35b5050346103a357817ffffffffffffffffffffffffffffffffffffffffffffffffffffffffffffffffc3601126103a357602090611a63613302565b610b8d612c54565b509134610ce857817ffffffffffffffffffffffffffffffffffffffffffffffffffffffffffffffffc360112610ce857823573ffffffffffffffffffffffffffffffffffffffff8116810361048c57602052637f5e9f20600c523381526034600c20928354906024358201918210611b18575080602094558152602c5160601c907f8c5be1e5ebec7d5bd14f71427d1e84f3dd0314c0f7b2291e5b200ac8c7c3b925843392a35160018152f35b63f90670668352601cfd5b5050346103a357817ffffffffffffffffffffffffffffffffffffffffffffffffffffffffffffffffc3601126103a357602090610b8d613e05565b509134610ce857807ffffffffffffffffffffffffffffffffffffffffffffffffffffffffffffffffc360112610ce8576020825180947f313ce5670000000000000000000000000000000000000000000000000000000082528173ffffffffffffffffffffffffffffffffffffffff7f0000000000000000000000000000000000000000000000000000000000000000165afa928315611c4d578193611c0c575b60208460ff855191168152f35b9092506020813d8211611c45575b81611c2760209383612cbf565b8101031261035257519160ff83168303610ce8575060ff6020611bff565b3d9150611c1a565b509051903d90823e3d90fd5b50903461035257611c6a3683612bce565b91969384549760ff891615611ed8579087949392917fffffffffffffffffffffffffffffffffffffffffffffffffffffffffffffff00809a168755611cad613ce3565b611cb5613302565b611cbe82612f23565b9080821015611ed05750915b73ffffffffffffffffffffffffffffffffffffffff9360208560648160015416988b8d51998a9485937fb4ebbda400000000000000000000000000000000000000000000000000000000855216809d84015288169a8b60248401528960448401525af1948515611ec6578895611e93575b5080611e07575b5050611d6e307f000000000000000000000000000000000000000000000000000000000000000061415d565b97828910611de05750917fb2b14447b2fb5b250428a70cf03fd19f8ff7ee7e04a46ebe7824df2a0c91a9e38860209a9593611dad828a60019a9861300c565b50611db78261350c565b8951938452602084015260408301523391606090a4611dd4613ce3565b82541617905551908152f35b87517f1ec6f5bc000000000000000000000000000000000000000000000000000000008152fd5b333b1561075c5787908a611e608b5194859384937fe95471c70000000000000000000000000000000000000000000000000000000085523390850152896024850152886044850152608060648501526084840191612e66565b038183335af18015611e895790879115611d425781611e7e91612cbf565b6112d3578538611d42565b88513d89823e3d90fd5b9094506020813d8211611ebe575b81611eae60209383612cbf565b8101031261048c57519338611d3b565b3d9150611ea1565b89513d8a823e3d90fd5b905091611cca565b8787517f37ed32e8000000000000000000000000000000000000000000000000000000008152fd5b509134610ce85760607ffffffffffffffffffffffffffffffffffffffffffffffffffffffffffffffffc360112610ce85773ffffffffffffffffffffffffffffffffffffffff8335818116929183820361048c57602435908116810361048c576044359160601b92602096338852600c94637f5e9f20811786526034862080547fffffffffffffffffffffffffffffffffffffffffffffffffffffffffffffffff8103612002575b50506387a211a217855287852090815490818611610a7e575084900390555284822081815401905584525160601c907fddf252ad1be2c89b69c2b068fc378daa952ba7f163c4a11628f55a4df523b3ef8480a35160018152f35b8087116120195786900390556387a211a238611fa8565b836313be252b8652601cfd5b509190346103a3576120373684612bce565b94939686939193549560ff87161561233b579083917fffffffffffffffffffffffffffffffffffffffffffffffffffffffffffffff00809816895561207a613ce3565b612082613302565b73ffffffffffffffffffffffffffffffffffffffff998a81169633880361232b575b84151592836122f2575b80612257575b50506120ec906120e4307f000000000000000000000000000000000000000000000000000000000000000061415d565b94859161300c565b90838611156121f4575060208a600154169160448951809481937fcf8c8c440000000000000000000000000000000000000000000000000000000083528b8884015260248301525afa9081156121ea5789916121b0575b50156121895750967f96558a334f4759f0e7c423d68c84721860bd8fbf94ddc4e55158ecb125ad04b591600197985b8651948552602085015216933392a4610323613ce3565b85517fefd51885000000000000000000000000000000000000000000000000000000008152fd5b90506020813d82116121e2575b816121ca60209383612cbf565b810103126112e1575180151581036112e15738612143565b3d91506121bd565b87513d8b823e3d90fd5b90506122305750967f96558a334f4759f0e7c423d68c84721860bd8fbf94ddc4e55158ecb125ad04b5918861222b6001999a61350c565b612172565b85517ff982134a000000000000000000000000000000000000000000000000000000008152fd5b909192939450333b156113ef576122b0918b918a5193849283927f8f53d74f000000000000000000000000000000000000000000000000000000008452338a8501528b6024850152606060448501526064840191612e66565b038183335af180156122e8576122cc575b9081869493926120b4565b896122de879594939b6120ec93612cbf565b99919293506122c1565b88513d8c823e3d90fd5b6122fb866135c8565b61232686887f0000000000000000000000000000000000000000000000000000000000000000614114565b6120ae565b612336853384613ee5565b6120a4565b5084517f37ed32e8000000000000000000000000000000000000000000000000000000008152fd5b509190346103a35760807ffffffffffffffffffffffffffffffffffffffffffffffffffffffffffffffffc3601126103a35782359060643590604435906024356123ab613c1b565b67016345785d8a0000851161248c576706f05b59d3b20000841080156124be575b61248c576001831080156124b4575b61248c576301e13380808604600355848102818104860361246057916124478661244260809896948c6124317ff58b8cc439edada25fd9495b7364aeb1d737dbef59be1cf62e0cc4001c44a3cd9c9a9887613f8b565b905586600755826006558685613fce565b613f8b565b600555815194855260208501528301526060820152a180f35b60248860118b7f4e487b7100000000000000000000000000000000000000000000000000000000835252fd5b8682517fe49b3b30000000000000000000000000000000000000000000000000000000008152fd5b50600a83116123db565b50670d2f13f7789f000084116123cc565b50346103525760207ffffffffffffffffffffffffffffffffffffffffffffffffffffffffffffffffc3601126103525780359061250a613c1b565b6702c68af0bb14000082116125535750907faaa68312e2ea9d50e16af5068410ab56e1a1fd06037b1a35664812c30f82146091600854908060085582519182526020820152a180f35b82517fe49b3b30000000000000000000000000000000000000000000000000000000008152fd5b509190346103a35760207ffffffffffffffffffffffffffffffffffffffffffffffffffffffffffffffffc3601126103a35773ffffffffffffffffffffffffffffffffffffffff90833582811691828203610fa45784549360ff8516156126a7577fffffffffffffffffffffffffffffffffffffffffffffffffffffffffffffff008095168655612609613c1b565b7f000000000000000000000000000000000000000000000000000000000000000016831461267f57600194955061264c612643308461415d565b80933390614114565b519081527f6d25be279134f4ecaa4770aff0c3d916d9e7c5ef37b65ed95dbdba411f5d54d560203392a382541617815580f35b8590517fb5d8f391000000000000000000000000000000000000000000000000000000008152fd5b8682517f37ed32e8000000000000000000000000000000000000000000000000000000008152fd5b5050346103a357817ffffffffffffffffffffffffffffffffffffffffffffffffffffffffffffffffc3601126103a3576020906006549051908152f35b5050346103a357817ffffffffffffffffffffffffffffffffffffffffffffffffffffffffffffffffc3601126103a3576020906009549051908152f35b5050346103a357817ffffffffffffffffffffffffffffffffffffffffffffffffffffffffffffffffc3601126103a3576020906805345cdf77eb68f44c549051908152f35b50346103525760207ffffffffffffffffffffffffffffffffffffffffffffffffffffffffffffffffc360112610352573573ffffffffffffffffffffffffffffffffffffffff90818116809103610fa0576127ea929192613c1b565b600c90815493817fffffffffffffffffffffffff0000000000000000000000000000000000000000861617835561281f6137d5565b50937f0000000000000000000000000000000000000000000000000000000000000000821690875b86518110156128c85780838561286061286c948b613765565b511603612871576137a8565b612847565b61288c8a86612880848c613765565b5116878a541690613628565b6128c37fffffffffffffffffffffffffffffffffffffffffffffffffffffffffffffffff87876128bc858d613765565b5116613628565b6137a8565b887f6a97a9e954ae4ef4c8ecc6c7dd8a1cbe668254132294ceb515db9a2e4faad7f5838a88888351921682526020820152a180f35b503461035257817ffffffffffffffffffffffffffffffffffffffffffffffffffffffffffffffffc360112610352573573ffffffffffffffffffffffffffffffffffffffff811681036103525791602092602435908452637f5e9f20600c52338252806034600c20558152602c5160601c907f8c5be1e5ebec7d5bd14f71427d1e84f3dd0314c0f7b2291e5b200ac8c7c3b925843392a35160018152f35b5050346103a357817ffffffffffffffffffffffffffffffffffffffffffffffffffffffffffffffffc3601126103a357610f1c906129d7612edf565b905191829182612b35565b838584346103a357817ffffffffffffffffffffffffffffffffffffffffffffffffffffffffffffffffc3601126103a35781549360ff851615612aa357612a6d8486857fffffffffffffffffffffffffffffffffffffffffffffffffffffffffffffff008092168155612a536137d5565b949060018094845416178355845194808652850190612ac8565b6020848203818601528080875193848152019601925b828110612a905785870386f35b8351875295810195928101928401612a83565b7f37ed32e8000000000000000000000000000000000000000000000000000000008152fd5b90815180825260208080930193019160005b828110612ae8575050505090565b835173ffffffffffffffffffffffffffffffffffffffff1685529381019392810192600101612ada565b60005b838110612b255750506000910152565b8181015183820152602001612b15565b7fffffffffffffffffffffffffffffffffffffffffffffffffffffffffffffffe0601f60409360208452612b788151809281602088015260208888019101612b12565b0116010190565b359073ffffffffffffffffffffffffffffffffffffffff8216820361048c57565b9181601f8401121561048c5782359167ffffffffffffffff831161048c576020838186019501011161048c57565b9060808282031261048c57612be282612b7f565b92612bef60208401612b7f565b92604081013592606082013567ffffffffffffffff811161048c57612c149201612ba0565b9091565b91908201809211612c2557565b7f4e487b7100000000000000000000000000000000000000000000000000000000600052601160045260246000fd5b6805345cdf77eb68f44c548015612cab5780612ca3612ca89261244273ffffffffffffffffffffffffffffffffffffffff60005460081c166bffffffffffffffffffffffff600b541690612c18565b612d5b565b90565b5060095490565b91908203918211612c2557565b90601f7fffffffffffffffffffffffffffffffffffffffffffffffffffffffffffffffe0910116810190811067ffffffffffffffff821117612d0057604052565b7f4e487b7100000000000000000000000000000000000000000000000000000000600052604160045260246000fd5b9081602091031261048c575173ffffffffffffffffffffffffffffffffffffffff8116810361048c5790565b600954909181831115612e61576111a5612d8d612d87612d7e612d959587612cb2565b60085490613f42565b85612cb2565b809483613fce565b80612da3575b508060095590565b604051907f5b068af800000000000000000000000000000000000000000000000000000000825260208260048173ffffffffffffffffffffffffffffffffffffffff7f0000000000000000000000000000000000000000000000000000000000000000165afa8015612e5557612e2192600091612e27575b50613e77565b38612d9b565b612e48915060203d8111612e4e575b612e408183612cbf565b810190612d2f565b38612e1b565b503d612e36565b6040513d6000823e3d90fd5b505090565b601f82602094937fffffffffffffffffffffffffffffffffffffffffffffffffffffffffffffffe0938186528686013760008582860101520116010190565b67ffffffffffffffff8111612d0057601f017fffffffffffffffffffffffffffffffffffffffffffffffffffffffffffffffe01660200190565b612ee96012612ea5565b90612ef76040519283612cbf565b601282527f4379676e75733a20426f72726f7761626c6500000000000000000000000000006020830152565b73ffffffffffffffffffffffffffffffffffffffff16600052600a6020526040600020548060801c8015612f7f57612ca8916fffffffffffffffffffffffffffffffff69ffffffffffffffffffff600b5460601c169116613fce565b5050600090565b600b54600854670de0b6b3a7640000908103908111612c2557612fb49065ffffffffffff8360b01c16613f42565b73ffffffffffffffffffffffffffffffffffffffff6bffffffffffffffffffffffff8160005460081c169316809301818111612c25571691821561300457612ca892612fff91613f8b565b613f42565b505050600090565b92919261301881612f23565b84831461326d5769ffffffffffffffffffff600b5460601c169460009373ffffffffffffffffffffffffffffffffffffffff84168552600a602052604085209482821160001461315c57509161307a61310897949261315a9694038092612c18565b9687936fffffffffffffffffffffffffffffffff613097866140b0565b167fffffffffffffffffffffffffffffffff000000000000000000000000000000008254161781556130c8866140b0565b6fffffffffffffffffffffffffffffffff7fffffffffffffffffffffffffffffffff0000000000000000000000000000000083549260801b169116179055565b7fffffffffffffffffffffffffffffffffffffffff000000000000000000000000600b549161314e6131496bffffffffffffffffffffffff92838616612c18565b61408a565b16911617600b55613273565b565b9061322b61315a96947fffffffffffffffffffffffffffffffffffffffff000000000000000000000000926111a59a979503808211600014613265578103905b819a8b976fffffffffffffffffffffffffffffffff6131ba856140b0565b167fffffffffffffffffffffffffffffffff00000000000000000000000000000000825416178155831560001461325c5780546fffffffffffffffffffffffffffffffff16608088901b7fffffffffffffffffffffffffffffffff0000000000000000000000000000000016179055565b600b54926bffffffffffffffffffffffff9161314e91838616908282111561325457500361408a565b91505061408a565b6130c88a6140b0565b50839061319c565b93505050565b91909173ffffffffffffffffffffffffffffffffffffffff9081600254169081156132fb57813b1561048c576000606492819560405197889687957fd98320d5000000000000000000000000000000000000000000000000000000008752166004860152602485015260448401525af18015612e55576132f05750565b600061315a91612cbf565b5050505050565b63ffffffff804216600b548060e01c9283830393818511612c25576bffffffffffffffffffffffff918284169169ffffffffffffffffffff73ffffffffffffffffffffffffffffffffffffffff60005460081c169560601c16951480156134a3575b61349b5761337282856134ab565b951693848602948686041486151715612c2557806133a76133ad926133a161339a868a613f42565b8096612c18565b97613f42565b90612c18565b916133b78561408a565b16916a010000000000000000000081101561348d57660100000000000086101561348d577f875352fb3fadeb8c0be7cbbe8ff761b308fa7033470cd0287f02f3436fd76cb9957bffffffffffff000000000000000000000000000000000000000000006134889475ffffffffffffffffffff0000000000000000000000007fffffffff000000000000000000000000000000000000000000000000000000004260e01b169460601b16179160b01b161717600b55604051938493846040919493926060820195825260208201520152565b0390a1565b6335278d126000526004601cfd5b505050505050565b508115613364565b906111ba816134b993612c18565b600654808211156134fb57906134f66134ed612ca8936134e76134de60045483613f42565b60035490612c18565b93612cb2565b60055490613f42565b612c18565b506134de612ca89160045490613f42565b604051907fa0712d680000000000000000000000000000000000000000000000000000000082526004820152602081602481600073ec8fea79026ffed168ccf5c627c7f486d77b765f5af1908115612e5557600091613597575b5061356d57565b60046040517fe75efa34000000000000000000000000000000000000000000000000000000008152fd5b906020823d82116135c0575b816135b060209383612cbf565b81010312610ce857505138613566565b3d91506135a3565b604051907f852a12e30000000000000000000000000000000000000000000000000000000082526004820152602081602481600073ec8fea79026ffed168ccf5c627c7f486d77b765f5af1908115612e5557600091613597575061356d57565b6040517fdd62ed3e00000000000000000000000000000000000000000000000000000000815230600482015273ffffffffffffffffffffffffffffffffffffffff83166024820152919290916020818060448101038173ffffffffffffffffffffffffffffffffffffffff87165afa908115612e555760009161371c575b5010156137185760446010600080936020956014527fffffffffffffffffffffffffffffffffffffffffffffffffffffffffffffffff6034526f095ea7b300000000000000000000000082525af13d1560016000511417161561370a576000603452565b633e3f8f736000526004601cfd5b5050565b906020823d8211613745575b8161373560209383612cbf565b81010312610ce8575051386136a6565b3d9150613728565b67ffffffffffffffff8111612d005760051b60200190565b80518210156137795760209160051b010190565b7f4e487b7100000000000000000000000000000000000000000000000000000000600052603260045260246000fd5b7fffffffffffffffffffffffffffffffffffffffffffffffffffffffffffffffff8114612c255760010190565b60009060409081516137e78382612cbf565b6001815260209283368184013773ec8fea79026ffed168ccf5c627c7f486d77b765f6138138684613765565b527360cf091cd3f50420d50fd7f707414d0df4751c5891823b156112d35781517f1c3db2e0000000000000000000000000000000000000000000000000000000008152868160049530878301528183816138786024988a8a8401526044830190612ac8565b03925af18015613c1157613bfd575b508151957fd1058e5900000000000000000000000000000000000000000000000000000000875273dc05d85069dc4aba65954008ff99f2d73ff126189681818681838c5af1908115613bf3578291613b63575b50306014526f70a0823100000000000000000000000082528680846010731db2466d9f5e10d7090e7152b68d62703a2245f05afa601f3d111687510280613af7575b5051927fffffffffffffffffffffffffffffffffffffffffffffffffffffffffffffffff92838501948511613acd576139548561374d565b9261396183519485612cbf565b8584527fffffffffffffffffffffffffffffffffffffffffffffffffffffffffffffffe094856139908861374d565b01368b870137849a6139a18861374d565b966139ae86519889612cbf565b8888526139ba8961374d565b01368c890137869a60015b898111156139da575050505050505050505050565b86517f4f64b2be000000000000000000000000000000000000000000000000000000008152818c8201528281888189885af1908115613ac3578691613aa6575b5084820190828211613a7b5790613a70613a698b613a769594613a3d8583613765565b73ffffffffffffffffffffffffffffffffffffffff8092169052613a62853093613765565b511661415d565b918c613765565b526137a8565b6139c5565b878760118f7f4e487b7100000000000000000000000000000000000000000000000000000000835252fd5b613abd9150833d8511612e4e57612e408183612cbf565b38613a1a565b88513d88823e3d90fd5b826011877f4e487b7100000000000000000000000000000000000000000000000000000000835252fd5b883b15610352578451907fa0712d680000000000000000000000000000000000000000000000000000000082528682015282818581838d5af18015613b5957908391613b44575b5061391c565b81613b4e91612cbf565b6103a3578138613b3e565b85513d85823e3d90fd5b90503d8083833e613b748183612cbf565b81019087818303126103525780519067ffffffffffffffff8211610fa057019080601f83011215610352578151613baa8161374d565b92613bb787519485612cbf565b818452898085019260051b820101928311610fa45789809101915b838310613be35750505050386138da565b82518152918101918a9101613bd2565b84513d84823e3d90fd5b86613c0a91979297612cbf565b9438613887565b83513d89823e3d90fd5b6040517ff851a44000000000000000000000000000000000000000000000000000000000815273ffffffffffffffffffffffffffffffffffffffff90602081600481857f0000000000000000000000000000000000000000000000000000000000000000165afa908115612e5557600091613cc5575b50163303613c9b57565b60046040517f63ac75a2000000000000000000000000000000000000000000000000000000008152fd5b613cdd915060203d8111612e4e57612e408183612cbf565b38613c91565b7f3145c2b643834867f2c0a8cac8a48218307687911615c0ed01412a09dd163b666020613d16613d11613d7a565b6140de565b6000547fffffffffffffffffffffff0000000000000000000000000000000000000000ff74ffffffffffffffffffffffffffffffffffffffff008360081b1691161760005573ffffffffffffffffffffffffffffffffffffffff60405191168152a1565b6040517f3af9e669000000000000000000000000000000000000000000000000000000008152306004820152602081602481600073ec8fea79026ffed168ccf5c627c7f486d77b765f5af1908115612e5557600091613dd7575090565b906020823d8211613dfd575b81613df060209383612cbf565b81010312610ce857505190565b3d9150613de3565b60a0604051613e12612edf565b602081519101207f8b73c3c69bb8fe3d512ecc4cf759cc79239f7b179b0ffacaa9a75d522b39400f825260208201527fc89efdaa54c0f20c7adf612882df0950f5a951637e0307cdcb4c672f298b8bc660408201524660608201523060808201522090565b6805345cdf77eb68f44c805490838201918210613ed757556387a211a2600c526000526020600c20818154019055602052600c5160601c60007fddf252ad1be2c89b69c2b068fc378daa952ba7f163c4a11628f55a4df523b3ef602080a3565b63e5cfe9576000526004601cfd5b90602052637f5e9f20600c526000526034600c209081547fffffffffffffffffffffffffffffffffffffffffffffffffffffffffffffffff8103613f2857505050565b808211613f3457039055565b6313be252b6000526004601cfd5b90807fffffffffffffffffffffffffffffffffffffffffffffffffffffffffffffffff0482118102613f7d57670de0b6b3a764000091020490565b63bac65e5b6000526004601cfd5b670de0b6b3a7640000907812725dd1d243aba0e75fe645cc4873f9e65afe688c928e1f218111820215830215613fc057020490565b637c5f487d6000526004601cfd5b91600092828102927fffffffffffffffffffffffffffffffffffffffffffffffffffffffffffffffff818309918483108501808403931461406e578284111561406157908391099060018386038416808080960460028082600302188083028203028083028203028083028203028083028203028083028203028092029003029703040190848311900302920304170290565b63ae47f70286526004601cfd5b50505091821561407d57500490565b63ae47f70290526004601cfd5b6c0100000000000000000000000081101561348d576bffffffffffffffffffffffff1690565b70010000000000000000000000000000000081101561348d576fffffffffffffffffffffffffffffffff1690565b7401000000000000000000000000000000000000000081101561348d5773ffffffffffffffffffffffffffffffffffffffff1690565b60109260209260145260345260446000938480936fa9059cbb00000000000000000000000082525af13d15600183511417161561415057603452565b6390b8ec1890526004601cfd5b602460106020939284936014526f70a082310000000000000000000000006000525afa601f3d1116602051029056fea164736f6c6343000811000a",
  "linkReferences": {},
  "deployedLinkReferences": {}
}