{
  "_format": "hh-sol-artifact-1",
  "contractName": "CygnusBorrowVoid",
  "sourceName": "contracts/cygnus-core/CygnusBorrowVoid.sol",
  "abi": [
    {
      "inputs": [],
      "stateMutability": "nonpayable",
      "type": "constructor"
    },
    {
      "inputs": [
        {
          "internalType": "uint256",
          "name": "min",
          "type": "uint256"
        },
        {
          "internalType": "uint256",
          "name": "max",
          "type": "uint256"
        },
        {
          "internalType": "uint256",
          "name": "value",
          "type": "uint256"
        }
      ],
      "name": "CygnusBorrowControl__ParameterNotInRange",
      "type": "error"
    },
    {
      "inputs": [
        {
          "internalType": "address",
          "name": "dstReceiver",
          "type": "address"
        },
        {
          "internalType": "address",
          "name": "receiver",
          "type": "address"
        }
      ],
      "name": "CygnusBorrowVoid__DstReceiverNotValid",
      "type": "error"
    },
    {
      "inputs": [
        {
          "internalType": "address",
          "name": "dstToken",
          "type": "address"
        },
        {
          "internalType": "address",
          "name": "token",
          "type": "address"
        }
      ],
      "name": "CygnusBorrowVoid__DstTokenNotValid",
      "type": "error"
    },
    {
      "inputs": [
        {
          "internalType": "address",
          "name": "sender",
          "type": "address"
        },
        {
          "internalType": "address",
          "name": "origin",
          "type": "address"
        }
      ],
      "name": "CygnusBorrowVoid__OnlyEOAAllowed",
      "type": "error"
    },
    {
      "inputs": [
        {
          "internalType": "address",
          "name": "srcToken",
          "type": "address"
        },
        {
          "internalType": "address",
          "name": "token",
          "type": "address"
        }
      ],
      "name": "CygnusBorrowVoid__SrcTokenNotValid",
      "type": "error"
    },
    {
      "inputs": [],
      "name": "CygnusTerminal__CantMintZeroShares",
      "type": "error"
    },
    {
      "inputs": [],
      "name": "CygnusTerminal__CantRedeemZeroAssets",
      "type": "error"
    },
    {
      "inputs": [
        {
          "internalType": "address",
          "name": "token",
          "type": "address"
        },
        {
          "internalType": "address",
          "name": "underlying",
          "type": "address"
        }
      ],
      "name": "CygnusTerminal__CantSweepUnderlying",
      "type": "error"
    },
    {
      "inputs": [
        {
          "internalType": "address",
          "name": "sender",
          "type": "address"
        },
        {
          "internalType": "address",
          "name": "admin",
          "type": "address"
        }
      ],
      "name": "CygnusTerminal__MsgSenderNotAdmin",
      "type": "error"
    },
    {
      "inputs": [
        {
          "internalType": "address",
          "name": "owner",
          "type": "address"
        },
        {
          "internalType": "uint8",
          "name": "v",
          "type": "uint8"
        },
        {
          "internalType": "bytes32",
          "name": "r",
          "type": "bytes32"
        },
        {
          "internalType": "bytes32",
          "name": "s",
          "type": "bytes32"
        }
      ],
      "name": "ERC20Permit__InvalidSignature",
      "type": "error"
    },
    {
      "inputs": [],
      "name": "ERC20Permit__OwnerZeroAddress",
      "type": "error"
    },
    {
      "inputs": [
        {
          "internalType": "uint256",
          "name": "currentTime",
          "type": "uint256"
        },
        {
          "internalType": "uint256",
          "name": "deadline",
          "type": "uint256"
        }
      ],
      "name": "ERC20Permit__PermitExpired",
      "type": "error"
    },
    {
      "inputs": [],
      "name": "ERC20Permit__RecoveredOwnerZeroAddress",
      "type": "error"
    },
    {
      "inputs": [],
      "name": "ERC20Permit__SpenderZeroAddress",
      "type": "error"
    },
    {
      "inputs": [],
      "name": "ERC20__ApproveOwnerZeroAddress",
      "type": "error"
    },
    {
      "inputs": [],
      "name": "ERC20__ApproveSpenderZeroAddress",
      "type": "error"
    },
    {
      "inputs": [
        {
          "internalType": "uint256",
          "name": "accountBalance",
          "type": "uint256"
        },
        {
          "internalType": "uint256",
          "name": "burnAmount",
          "type": "uint256"
        }
      ],
      "name": "ERC20__BurnUnderflow",
      "type": "error"
    },
    {
      "inputs": [],
      "name": "ERC20__BurnZeroAddress",
      "type": "error"
    },
    {
      "inputs": [
        {
          "internalType": "uint256",
          "name": "allowance",
          "type": "uint256"
        },
        {
          "internalType": "uint256",
          "name": "amount",
          "type": "uint256"
        }
      ],
      "name": "ERC20__InsufficientAllowance",
      "type": "error"
    },
    {
      "inputs": [
        {
          "internalType": "uint256",
          "name": "senderBalance",
          "type": "uint256"
        },
        {
          "internalType": "uint256",
          "name": "amount",
          "type": "uint256"
        }
      ],
      "name": "ERC20__InsufficientBalance",
      "type": "error"
    },
    {
      "inputs": [],
      "name": "ERC20__MintZeroAddress",
      "type": "error"
    },
    {
      "inputs": [],
      "name": "ERC20__TransferRecipientZeroAddress",
      "type": "error"
    },
    {
      "inputs": [],
      "name": "ERC20__TransferSenderZeroAddress",
      "type": "error"
    },
    {
      "inputs": [],
      "name": "ReentrantCall",
      "type": "error"
    },
    {
      "anonymous": false,
      "inputs": [
        {
          "indexed": false,
          "internalType": "uint256",
          "name": "cashStored",
          "type": "uint256"
        },
        {
          "indexed": false,
          "internalType": "uint256",
          "name": "interestAccumulated",
          "type": "uint256"
        },
        {
          "indexed": false,
          "internalType": "uint256",
          "name": "borrowIndexStored",
          "type": "uint256"
        },
        {
          "indexed": false,
          "internalType": "uint256",
          "name": "totalBorrowsStored",
          "type": "uint256"
        },
        {
          "indexed": false,
          "internalType": "uint256",
          "name": "borrowRateStored",
          "type": "uint256"
        }
      ],
      "name": "AccrueInterest",
      "type": "event"
    },
    {
      "anonymous": false,
      "inputs": [
        {
          "indexed": true,
          "internalType": "address",
          "name": "owner",
          "type": "address"
        },
        {
          "indexed": true,
          "internalType": "address",
          "name": "spender",
          "type": "address"
        },
        {
          "indexed": false,
          "internalType": "uint256",
          "name": "amount",
          "type": "uint256"
        }
      ],
      "name": "Approval",
      "type": "event"
    },
    {
      "anonymous": false,
      "inputs": [
        {
          "indexed": false,
          "internalType": "address",
          "name": "underlying",
          "type": "address"
        },
        {
          "indexed": false,
          "internalType": "uint256",
          "name": "shuttleId",
          "type": "uint256"
        },
        {
          "indexed": false,
          "internalType": "address",
          "name": "sender",
          "type": "address"
        }
      ],
      "name": "ChargeVoid",
      "type": "event"
    },
    {
      "anonymous": false,
      "inputs": [
        {
          "indexed": true,
          "internalType": "address",
          "name": "sender",
          "type": "address"
        },
        {
          "indexed": true,
          "internalType": "address",
          "name": "recipient",
          "type": "address"
        },
        {
          "indexed": false,
          "internalType": "uint256",
          "name": "assets",
          "type": "uint256"
        },
        {
          "indexed": false,
          "internalType": "uint256",
          "name": "shares",
          "type": "uint256"
        }
      ],
      "name": "Deposit",
      "type": "event"
    },
    {
      "anonymous": false,
      "inputs": [
        {
          "indexed": false,
          "internalType": "address",
          "name": "oldBorrowRewarder",
          "type": "address"
        },
        {
          "indexed": false,
          "internalType": "address",
          "name": "newBorrowRewarder",
          "type": "address"
        }
      ],
      "name": "NewCygnusBorrowRewarder",
      "type": "event"
    },
    {
      "anonymous": false,
      "inputs": [
        {
          "indexed": false,
          "internalType": "uint256",
          "name": "baseRatePerYear",
          "type": "uint256"
        },
        {
          "indexed": false,
          "internalType": "uint256",
          "name": "multiplierPerYear",
          "type": "uint256"
        },
        {
          "indexed": false,
          "internalType": "uint256",
          "name": "kinkMultiplier_",
          "type": "uint256"
        },
        {
          "indexed": false,
          "internalType": "uint256",
          "name": "kinkUtilizationRate_",
          "type": "uint256"
        }
      ],
      "name": "NewInterestRateParameters",
      "type": "event"
    },
    {
      "anonymous": false,
      "inputs": [
        {
          "indexed": false,
          "internalType": "uint256",
          "name": "oldReserveFactor",
          "type": "uint256"
        },
        {
          "indexed": false,
          "internalType": "uint256",
          "name": "newReserveFactor",
          "type": "uint256"
        }
      ],
      "name": "NewReserveFactor",
      "type": "event"
    },
    {
      "anonymous": false,
      "inputs": [
        {
          "indexed": true,
          "internalType": "address",
          "name": "reinvestor",
          "type": "address"
        },
        {
          "indexed": false,
          "internalType": "uint256",
          "name": "rewardBalance",
          "type": "uint256"
        },
        {
          "indexed": false,
          "internalType": "uint256",
          "name": "reinvestReward",
          "type": "uint256"
        },
        {
          "indexed": false,
          "internalType": "uint256",
          "name": "daoReward",
          "type": "uint256"
        },
        {
          "indexed": false,
          "internalType": "uint256",
          "name": "underlyingReceived",
          "type": "uint256"
        }
      ],
      "name": "RechargeVoid",
      "type": "event"
    },
    {
      "anonymous": false,
      "inputs": [
        {
          "indexed": false,
          "internalType": "uint256",
          "name": "totalBalance",
          "type": "uint256"
        }
      ],
      "name": "Sync",
      "type": "event"
    },
    {
      "anonymous": false,
      "inputs": [
        {
          "indexed": true,
          "internalType": "address",
          "name": "from",
          "type": "address"
        },
        {
          "indexed": true,
          "internalType": "address",
          "name": "to",
          "type": "address"
        },
        {
          "indexed": false,
          "internalType": "uint256",
          "name": "amount",
          "type": "uint256"
        }
      ],
      "name": "Transfer",
      "type": "event"
    },
    {
      "anonymous": false,
      "inputs": [
        {
          "indexed": true,
          "internalType": "address",
          "name": "sender",
          "type": "address"
        },
        {
          "indexed": true,
          "internalType": "address",
          "name": "recipient",
          "type": "address"
        },
        {
          "indexed": true,
          "internalType": "address",
          "name": "owner",
          "type": "address"
        },
        {
          "indexed": false,
          "internalType": "uint256",
          "name": "assets",
          "type": "uint256"
        },
        {
          "indexed": false,
          "internalType": "uint256",
          "name": "shares",
          "type": "uint256"
        }
      ],
      "name": "Withdraw",
      "type": "event"
    },
    {
      "inputs": [],
      "name": "DAO_REWARD",
      "outputs": [
        {
          "internalType": "uint256",
          "name": "",
          "type": "uint256"
        }
      ],
      "stateMutability": "view",
      "type": "function"
    },
    {
      "inputs": [],
      "name": "DOMAIN_SEPARATOR",
      "outputs": [
        {
          "internalType": "bytes32",
          "name": "",
          "type": "bytes32"
        }
      ],
      "stateMutability": "view",
      "type": "function"
    },
    {
      "inputs": [],
      "name": "PERMIT_TYPEHASH",
      "outputs": [
        {
          "internalType": "bytes32",
          "name": "",
          "type": "bytes32"
        }
      ],
      "stateMutability": "view",
      "type": "function"
    },
    {
      "inputs": [],
      "name": "REINVEST_REWARD",
      "outputs": [
        {
          "internalType": "uint256",
          "name": "",
          "type": "uint256"
        }
      ],
      "stateMutability": "view",
      "type": "function"
    },
    {
      "inputs": [],
      "name": "accrueInterest",
      "outputs": [],
      "stateMutability": "nonpayable",
      "type": "function"
    },
    {
      "inputs": [
        {
          "internalType": "address",
          "name": "owner",
          "type": "address"
        },
        {
          "internalType": "address",
          "name": "spender",
          "type": "address"
        }
      ],
      "name": "allowance",
      "outputs": [
        {
          "internalType": "uint256",
          "name": "",
          "type": "uint256"
        }
      ],
      "stateMutability": "view",
      "type": "function"
    },
    {
      "inputs": [
        {
          "internalType": "address",
          "name": "spender",
          "type": "address"
        },
        {
          "internalType": "uint256",
          "name": "amount",
          "type": "uint256"
        }
      ],
      "name": "approve",
      "outputs": [
        {
          "internalType": "bool",
          "name": "",
          "type": "bool"
        }
      ],
      "stateMutability": "nonpayable",
      "type": "function"
    },
    {
      "inputs": [
        {
          "internalType": "address",
          "name": "account",
          "type": "address"
        }
      ],
      "name": "balanceOf",
      "outputs": [
        {
          "internalType": "uint256",
          "name": "",
          "type": "uint256"
        }
      ],
      "stateMutability": "view",
      "type": "function"
    },
    {
      "inputs": [],
      "name": "baseRatePerSecond",
      "outputs": [
        {
          "internalType": "uint256",
          "name": "",
          "type": "uint256"
        }
      ],
      "stateMutability": "view",
      "type": "function"
    },
    {
      "inputs": [],
      "name": "borrowIndex",
      "outputs": [
        {
          "internalType": "uint112",
          "name": "",
          "type": "uint112"
        }
      ],
      "stateMutability": "view",
      "type": "function"
    },
    {
      "inputs": [],
      "name": "borrowRate",
      "outputs": [
        {
          "internalType": "uint112",
          "name": "",
          "type": "uint112"
        }
      ],
      "stateMutability": "view",
      "type": "function"
    },
    {
      "inputs": [
        {
          "internalType": "uint256",
          "name": "_stgPoolId",
          "type": "uint256"
        }
      ],
      "name": "chargeVoid",
      "outputs": [],
      "stateMutability": "nonpayable",
      "type": "function"
    },
    {
      "inputs": [],
      "name": "collateral",
      "outputs": [
        {
          "internalType": "address",
          "name": "",
          "type": "address"
        }
      ],
      "stateMutability": "view",
      "type": "function"
    },
    {
      "inputs": [],
      "name": "cygnusBorrowRewarder",
      "outputs": [
        {
          "internalType": "address",
          "name": "",
          "type": "address"
        }
      ],
      "stateMutability": "view",
      "type": "function"
    },
    {
      "inputs": [],
      "name": "cygnusNebulaOracle",
      "outputs": [
        {
          "internalType": "contract ICygnusNebulaOracle",
          "name": "",
          "type": "address"
        }
      ],
      "stateMutability": "view",
      "type": "function"
    },
    {
      "inputs": [],
      "name": "decimals",
      "outputs": [
        {
          "internalType": "uint8",
          "name": "",
          "type": "uint8"
        }
      ],
      "stateMutability": "view",
      "type": "function"
    },
    {
      "inputs": [
        {
          "internalType": "uint256",
          "name": "assets",
          "type": "uint256"
        },
        {
          "internalType": "address",
          "name": "recipient",
          "type": "address"
        }
      ],
      "name": "deposit",
      "outputs": [
        {
          "internalType": "uint256",
          "name": "shares",
          "type": "uint256"
        }
      ],
      "stateMutability": "nonpayable",
      "type": "function"
    },
    {
      "inputs": [],
      "name": "exchangeRate",
      "outputs": [
        {
          "internalType": "uint256",
          "name": "",
          "type": "uint256"
        }
      ],
      "stateMutability": "nonpayable",
      "type": "function"
    },
    {
      "inputs": [],
      "name": "exchangeRateStored",
      "outputs": [
        {
          "internalType": "uint256",
          "name": "",
          "type": "uint256"
        }
      ],
      "stateMutability": "view",
      "type": "function"
    },
    {
      "inputs": [
        {
          "internalType": "address",
          "name": "borrower",
          "type": "address"
        }
      ],
      "name": "getBorrowBalance",
      "outputs": [
        {
          "internalType": "uint256",
          "name": "",
          "type": "uint256"
        }
      ],
      "stateMutability": "view",
      "type": "function"
    },
    {
      "inputs": [],
      "name": "getCygnusVoid",
      "outputs": [
        {
          "internalType": "uint256",
          "name": "",
          "type": "uint256"
        },
        {
          "internalType": "uint256",
          "name": "",
          "type": "uint256"
        },
        {
          "internalType": "contract IStargatePool",
          "name": "",
          "type": "address"
        },
        {
          "internalType": "contract IStargateRouter",
          "name": "",
          "type": "address"
        },
        {
          "internalType": "contract IStargateLPStaking",
          "name": "",
          "type": "address"
        },
        {
          "internalType": "address",
          "name": "",
          "type": "address"
        },
        {
          "internalType": "contract IAggregationRouterV5",
          "name": "",
          "type": "address"
        }
      ],
      "stateMutability": "view",
      "type": "function"
    },
    {
      "inputs": [],
      "name": "getRewards",
      "outputs": [
        {
          "internalType": "uint256",
          "name": "",
          "type": "uint256"
        }
      ],
      "stateMutability": "nonpayable",
      "type": "function"
    },
    {
      "inputs": [],
      "name": "hangar18",
      "outputs": [
        {
          "internalType": "contract IHangar18",
          "name": "",
          "type": "address"
        }
      ],
      "stateMutability": "view",
      "type": "function"
    },
    {
      "inputs": [],
      "name": "jumpMultiplierPerSecond",
      "outputs": [
        {
          "internalType": "uint256",
          "name": "",
          "type": "uint256"
        }
      ],
      "stateMutability": "view",
      "type": "function"
    },
    {
      "inputs": [],
      "name": "kinkMultiplier",
      "outputs": [
        {
          "internalType": "uint256",
          "name": "",
          "type": "uint256"
        }
      ],
      "stateMutability": "view",
      "type": "function"
    },
    {
      "inputs": [],
      "name": "kinkUtilizationRate",
      "outputs": [
        {
          "internalType": "uint256",
          "name": "",
          "type": "uint256"
        }
      ],
      "stateMutability": "view",
      "type": "function"
    },
    {
      "inputs": [],
      "name": "lastAccrualTimestamp",
      "outputs": [
        {
          "internalType": "uint32",
          "name": "",
          "type": "uint32"
        }
      ],
      "stateMutability": "view",
      "type": "function"
    },
    {
      "inputs": [],
      "name": "lastReinvest",
      "outputs": [
        {
          "internalType": "uint256",
          "name": "",
          "type": "uint256"
        }
      ],
      "stateMutability": "view",
      "type": "function"
    },
    {
      "inputs": [],
      "name": "multiplierPerSecond",
      "outputs": [
        {
          "internalType": "uint256",
          "name": "",
          "type": "uint256"
        }
      ],
      "stateMutability": "view",
      "type": "function"
    },
    {
      "inputs": [],
      "name": "name",
      "outputs": [
        {
          "internalType": "string",
          "name": "",
          "type": "string"
        }
      ],
      "stateMutability": "view",
      "type": "function"
    },
    {
      "inputs": [
        {
          "internalType": "address",
          "name": "",
          "type": "address"
        }
      ],
      "name": "nonces",
      "outputs": [
        {
          "internalType": "uint256",
          "name": "",
          "type": "uint256"
        }
      ],
      "stateMutability": "view",
      "type": "function"
    },
    {
      "inputs": [
        {
          "internalType": "address",
          "name": "owner",
          "type": "address"
        },
        {
          "internalType": "address",
          "name": "spender",
          "type": "address"
        },
        {
          "internalType": "uint256",
          "name": "value",
          "type": "uint256"
        },
        {
          "internalType": "uint256",
          "name": "deadline",
          "type": "uint256"
        },
        {
          "internalType": "uint8",
          "name": "v",
          "type": "uint8"
        },
        {
          "internalType": "bytes32",
          "name": "r",
          "type": "bytes32"
        },
        {
          "internalType": "bytes32",
          "name": "s",
          "type": "bytes32"
        }
      ],
      "name": "permit",
      "outputs": [],
      "stateMutability": "nonpayable",
      "type": "function"
    },
    {
      "inputs": [
        {
          "internalType": "uint256",
          "name": "shares",
          "type": "uint256"
        },
        {
          "internalType": "address",
          "name": "recipient",
          "type": "address"
        },
        {
          "internalType": "address",
          "name": "owner",
          "type": "address"
        }
      ],
      "name": "redeem",
      "outputs": [
        {
          "internalType": "uint256",
          "name": "assets",
          "type": "uint256"
        }
      ],
      "stateMutability": "nonpayable",
      "type": "function"
    },
    {
      "inputs": [
        {
          "internalType": "bytes",
          "name": "swapData",
          "type": "bytes"
        }
      ],
      "name": "reinvestRewards_y7b",
      "outputs": [],
      "stateMutability": "nonpayable",
      "type": "function"
    },
    {
      "inputs": [],
      "name": "reserveFactor",
      "outputs": [
        {
          "internalType": "uint256",
          "name": "",
          "type": "uint256"
        }
      ],
      "stateMutability": "view",
      "type": "function"
    },
    {
      "inputs": [
        {
          "internalType": "address",
          "name": "newBorrowRewarder",
          "type": "address"
        }
      ],
      "name": "setCygnusBorrowRewarder",
      "outputs": [],
      "stateMutability": "nonpayable",
      "type": "function"
    },
    {
      "inputs": [
        {
          "internalType": "uint256",
          "name": "baseRatePerYear_",
          "type": "uint256"
        },
        {
          "internalType": "uint256",
          "name": "multiplierPerYear_",
          "type": "uint256"
        },
        {
          "internalType": "uint256",
          "name": "kinkMultiplier_",
          "type": "uint256"
        },
        {
          "internalType": "uint256",
          "name": "kinkUtilizationRate_",
          "type": "uint256"
        }
      ],
      "name": "setInterestRateModel",
      "outputs": [],
      "stateMutability": "nonpayable",
      "type": "function"
    },
    {
      "inputs": [
        {
          "internalType": "uint256",
          "name": "newReserveFactor",
          "type": "uint256"
        }
      ],
      "name": "setReserveFactor",
      "outputs": [],
      "stateMutability": "nonpayable",
      "type": "function"
    },
    {
      "inputs": [],
      "name": "shuttleId",
      "outputs": [
        {
          "internalType": "uint256",
          "name": "",
          "type": "uint256"
        }
      ],
      "stateMutability": "view",
      "type": "function"
    },
    {
      "inputs": [],
      "name": "supplyRate",
      "outputs": [
        {
          "internalType": "uint256",
          "name": "",
          "type": "uint256"
        }
      ],
      "stateMutability": "view",
      "type": "function"
    },
    {
      "inputs": [
        {
          "internalType": "address",
          "name": "token",
          "type": "address"
        }
      ],
      "name": "sweepToken",
      "outputs": [],
      "stateMutability": "nonpayable",
      "type": "function"
    },
    {
      "inputs": [],
      "name": "symbol",
      "outputs": [
        {
          "internalType": "string",
          "name": "",
          "type": "string"
        }
      ],
      "stateMutability": "view",
      "type": "function"
    },
    {
      "inputs": [],
      "name": "totalBalance",
      "outputs": [
        {
          "internalType": "uint256",
          "name": "",
          "type": "uint256"
        }
      ],
      "stateMutability": "view",
      "type": "function"
    },
    {
      "inputs": [],
      "name": "totalBorrows",
      "outputs": [
        {
          "internalType": "uint256",
          "name": "",
          "type": "uint256"
        }
      ],
      "stateMutability": "view",
      "type": "function"
    },
    {
      "inputs": [],
      "name": "totalSupply",
      "outputs": [
        {
          "internalType": "uint256",
          "name": "",
          "type": "uint256"
        }
      ],
      "stateMutability": "view",
      "type": "function"
    },
    {
      "inputs": [
        {
          "internalType": "address",
          "name": "borrower",
          "type": "address"
        }
      ],
      "name": "trackBorrow",
      "outputs": [],
      "stateMutability": "nonpayable",
      "type": "function"
    },
    {
      "inputs": [
        {
          "internalType": "address",
          "name": "recipient",
          "type": "address"
        },
        {
          "internalType": "uint256",
          "name": "amount",
          "type": "uint256"
        }
      ],
      "name": "transfer",
      "outputs": [
        {
          "internalType": "bool",
          "name": "",
          "type": "bool"
        }
      ],
      "stateMutability": "nonpayable",
      "type": "function"
    },
    {
      "inputs": [
        {
          "internalType": "address",
          "name": "sender",
          "type": "address"
        },
        {
          "internalType": "address",
          "name": "recipient",
          "type": "address"
        },
        {
          "internalType": "uint256",
          "name": "amount",
          "type": "uint256"
        }
      ],
      "name": "transferFrom",
      "outputs": [
        {
          "internalType": "bool",
          "name": "",
          "type": "bool"
        }
      ],
      "stateMutability": "nonpayable",
      "type": "function"
    },
    {
      "inputs": [],
      "name": "underlying",
      "outputs": [
        {
          "internalType": "address",
          "name": "",
          "type": "address"
        }
      ],
      "stateMutability": "view",
      "type": "function"
    },
    {
      "inputs": [],
      "name": "utilizationRate",
      "outputs": [
        {
          "internalType": "uint256",
          "name": "",
          "type": "uint256"
        }
      ],
      "stateMutability": "view",
      "type": "function"
    },
    {
      "inputs": [],
      "name": "version",
      "outputs": [
        {
          "internalType": "string",
          "name": "",
          "type": "string"
        }
      ],
      "stateMutability": "view",
      "type": "function"
    }
  ],
  "bytecode": "0x61014060405267016345785d8a0000600a55670bcbce7f1b150000600e556002600f55670de0b6b3a76400006010556000196014553480156200004157600080fd5b5060408051808201825260128152714379676e75733a20426f72726f7761626c6560701b602080830191825283519081019093526000808452805460ff19166001908117825583519394939192859285928592859285928592620000a59262000465565b508151620000bb90600290602085019062000465565b506003805460ff191660ff92909216919091179055505060405146907f8b73c3c69bb8fe3d512ecc4cf759cc79239f7b179b0ffacaa9a75d522b39400f9062000107906001906200065c565b60408051918290038220828201825260058352640312e302e360dc1b6020938401528151928301939093528101919091527f06c015bd22b4c69690933c1058878ebdfef31f9aaae40bbe86d8a09fe1b2972c6060820152608081018290523060a082015260c00160408051601f1981840301815291905280516020909101206080525062000199925050620004619050565b6001600160a01b0316635a412e536040518163ffffffff1660e01b815260040160a060405180830381600087803b158015620001d457600080fd5b505af1158015620001e9573d6000803e3d6000fd5b505050506040513d601f19601f820116820180604052508101906200020f91906200050b565b610100526001600160601b0319606091821b811660e05292811b831660c0529290921b1660a05250600092508291506200024890503390565b6001600160a01b0316635a412e536040518163ffffffff1660e01b815260040160a060405180830381600087803b1580156200028357600080fd5b505af115801562000298573d6000803e3d6000fd5b505050506040513d601f19601f82011682018060405250810190620002be91906200050b565b50509250925050816001600160a01b03166395d89b416040518163ffffffff1660e01b815260040160006040518083038186803b158015620002ff57600080fd5b505afa15801562000314573d6000803e3d6000fd5b505050506040513d6000823e601f3d908101601f191682016040526200033e91908101906200057e565b604051602001620003509190620006ff565b604051602081830303815290604052600290805190602001906200037692919062000465565b50816001600160a01b031663313ce5676040518163ffffffff1660e01b815260040160206040518083038186803b158015620003b157600080fd5b505afa158015620003c6573d6000803e3d6000fd5b505050506040513d601f19601f82011682018060405250810190620003ec919062000632565b6003805460ff191660ff9290921691909117905560601b6001600160601b0319166101205250600060045560138054670de0b6b3a76400006001600160701b03199091161790556200043b4290565b6013601c6101000a81548163ffffffff021916908363ffffffff160217905550620007d0565b3390565b828054620004739062000764565b90600052602060002090601f016020900481019282620004975760008555620004e2565b82601f10620004b257805160ff1916838001178555620004e2565b82800160010185558215620004e2579182015b82811115620004e2578251825591602001919060010190620004c5565b50620004f0929150620004f4565b5090565b5b80821115620004f05760008155600101620004f5565b600080600080600060a0868803121562000523578081fd5b85516200053081620007b7565b60208701519095506200054381620007b7565b60408701519094506200055681620007b7565b60608701519093506200056981620007b7565b80925050608086015190509295509295909350565b60006020828403121562000590578081fd5b81516001600160401b0380821115620005a7578283fd5b818401915084601f830112620005bb578283fd5b815181811115620005d057620005d0620007a1565b604051601f8201601f19908116603f01168101908382118183101715620005fb57620005fb620007a1565b8160405282815287602084870101111562000614578586fd5b6200062783602083016020880162000731565b979650505050505050565b60006020828403121562000644578081fd5b815160ff8116811462000655578182fd5b9392505050565b600080835482600182811c9150808316806200067957607f831692505b60208084108214156200069a57634e487b7160e01b87526022600452602487fd5b818015620006b15760018114620006c357620006f1565b60ff19861689528489019650620006f1565b60008a815260209020885b86811015620006e95781548b820152908501908301620006ce565b505084890196505b509498975050505050505050565b67021bcb3aaa9a21d160c51b8152600082516200072481600885016020870162000731565b9190910160080192915050565b60005b838110156200074e57818101518382015260200162000734565b838111156200075e576000848401525b50505050565b600181811c908216806200077957607f821691505b602082108114156200079b57634e487b7160e01b600052602260045260246000fd5b50919050565b634e487b7160e01b600052604160045260246000fd5b6001600160a01b0381168114620007cd57600080fd5b50565b60805160a05160601c60c05160601c60e05160601c610100516101205160601c6131926200088760003960006107ab0152600081816105af015281816118d1015261263e015260006107db0152600081816105f101528181610989015281816109e001528181610ff0015281816114960152818161182e015281816118ad01528181611f290152611f8801526000818161083b01528181610d200152611aad0152600081816104f5015261164e01526131926000f3fe608060405234801561001057600080fd5b50600436106103415760003560e01c80636e553f65116101bd578063ad7a672f116100f9578063d505accf116100a2578063d90e02641161007c578063d90e0264146107cd578063d935bd92146107d6578063dd62ed3e146107fd578063e8a24e1d1461083657600080fd5b8063d505accf14610780578063d82f897f14610793578063d8dfeb45146107a657600080fd5b8063ba087652116100d3578063ba08765214610727578063c0789dcb1461073a578063c914b4371461076657600080fd5b8063ad7a672f14610702578063b5f3c95b1461070b578063b7f1118a1461071457600080fd5b806395d89b4111610166578063a9059cbb11610140578063a9059cbb146106a9578063aa5af0fd146106bc578063ad168c9d146106e7578063ad2961a3146106fa57600080fd5b806395d89b41146106905780639b51099814610698578063a6afed95146106a157600080fd5b806372cf84a71161019757806372cf84a7146106545780637d6af0791461065d5780637ecebe001461067057600080fd5b80636e553f65146105d95780636f307dc3146105ec57806370a082311461062b57600080fd5b806330adf81f1161028c57806346f608ff1161023557806359b0bc2a1161020f57806359b0bc2a146105895780635b037f1d146105975780635f77f891146105aa5780636c321c8a146105d157600080fd5b806346f608ff1461053b57806347bd37181461054457806354fd4d501461054d57600080fd5b80633ba0b9a9116102665780633ba0b9a91461051757806342bf78af1461051f5780634322b7141461053257600080fd5b806330adf81f146104aa578063313ce567146104d15780633644e515146104f057600080fd5b80631aebf12f116102ee5780631c446983116102c85780631c446983146104715780631e44b7fc1461048457806323b872dd1461049757600080fd5b80631aebf12f146104455780631be195601461044e5780631c1981881461046357600080fd5b806318160ddd1161031f57806318160ddd14610399578063182df0f5146103a25780631995bc1a146103ab57600080fd5b80630572b0cc1461034657806306fdde0314610361578063095ea7b314610376575b600080fd5b61034e61085d565b6040519081526020015b60405180910390f35b6103696108ad565b6040516103589190612fe1565b610389610384366004612da3565b61093b565b6040519015158152602001610358565b61034e60045481565b61034e60105481565b6014546040805191825260016020830152731205f31718499dbf1fca446663b532ef87481fe1908201527345a01e4e04f14f7a4a6702c74187c5f6222033cd6060820152738731d54e9d02c286767d56ac03e8037c07e01e986080820152732f6f07cdcf3588944bf4c42ac74ff24bf56e759060a0820152731111111254eeb25477b68fb85ed929f73a96058260c082015260e001610358565b61034e600e5481565b61046161045c366004612b7d565b610952565b005b61034e668e1bc9bf04000081565b61046161047f366004612e3b565b610a44565b610461610492366004612ef3565b610ae0565b6103896104a5366004612cee565b610b34565b61034e7f6e71edae12b1b97f4d1f60370fef10105fa2faae0126114a169c64845d6126c981565b6003546104de9060ff1681565b60405160ff9091168152602001610358565b61034e7f000000000000000000000000000000000000000000000000000000000000000081565b61034e610baa565b61046161052d366004612b7d565b610bd8565b61034e600a5481565b61034e600c5481565b61034e60125481565b6103696040518060400160405280600581526020017f312e302e3000000000000000000000000000000000000000000000000000000081525081565b61034e66470de4df82000081565b6104616105a5366004612dce565b610c7f565b61034e7f000000000000000000000000000000000000000000000000000000000000000081565b61034e610f92565b61034e6105e7366004612e6b565b610fbd565b6106137f000000000000000000000000000000000000000000000000000000000000000081565b6040516001600160a01b039091168152602001610358565b61034e610639366004612b7d565b6001600160a01b031660009081526005602052604090205490565b61034e600d5481565b61034e61066b366004612b7d565b611110565b61034e61067e366004612b7d565b60076020526000908152604090205481565b610369611182565b61034e600f5481565b61046161118f565b6103896106b7366004612da3565b611302565b6013546106cf906001600160701b031681565b6040516001600160701b039091168152602001610358565b600954610613906001600160a01b031681565b61034e61130f565b61034e60085481565b61034e60155481565b610461610722366004612b7d565b611384565b61034e610735366004612e8f565b6113a5565b60135461075190600160e01b900463ffffffff1681565b60405163ffffffff9091168152602001610358565b6013546106cf90600160701b90046001600160701b031681565b61046161078e366004612d2e565b61153f565b6104616107a1366004612e3b565b6117e2565b6106137f000000000000000000000000000000000000000000000000000000000000000081565b61034e600b5481565b6106137f000000000000000000000000000000000000000000000000000000000000000081565b61034e61080b366004612cb6565b6001600160a01b03918216600090815260066020908152604080832093909416825291909152205490565b6106137f000000000000000000000000000000000000000000000000000000000000000081565b6000805460ff16610881576040516306fda65d60e31b815260040160405180910390fd5b6000805460ff19169055610893611936565b61089b611960565b90506000805460ff1916600117905590565b600180546108ba906130e0565b80601f01602080910402602001604051908101604052809291908181526020018280546108e6906130e0565b80156109335780601f1061090857610100808354040283529160200191610933565b820191906000526020600020905b81548152906001019060200180831161091657829003601f168201915b505050505081565b60006109483384846119fa565b5060015b92915050565b60005460ff16610975576040516306fda65d60e31b815260040160405180910390fd5b6000805460ff19169055610987611aa9565b7f00000000000000000000000000000000000000000000000000000000000000006001600160a01b0316816001600160a01b03161415610a12576040516303b91a9160e31b81526001600160a01b0380831660048301527f00000000000000000000000000000000000000000000000000000000000000001660248201526044015b60405180910390fd5b6000610a1d82611b78565b9050610a336001600160a01b0383163383611b8d565b50506000805460ff19166001179055565b60005460ff16610a67576040516306fda65d60e31b815260040160405180910390fd5b6000805460ff19169055610a79611aa9565b610a8d60006702c68af0bb14000083611bd6565b600a80549082905560408051828152602081018490527faaa68312e2ea9d50e16af5068410ab56e1a1fd06037b1a35664812c30f82146091015b60405180910390a150506000805460ff19166001179055565b60005460ff16610b03576040516306fda65d60e31b815260040160405180910390fd5b6000805460ff19169055610b15611aa9565b610b2184848484611c17565b50506000805460ff191660011790555050565b6000610b41848484611ced565b6001600160a01b038416600090815260066020908152604080832033845290915290205482811015610b90576040516310c6013560e31b81526004810182905260248101849052604401610a09565b610b9d85338584036119fa565b60019150505b9392505050565b6004546000908015610bc857600854610bc39082611e10565b610bd2565b670de0b6b3a76400005b91505090565b60005460ff16610bfb576040516306fda65d60e31b815260040160405180910390fd5b6000805460ff19169055610c0d611aa9565b600980546001600160a01b038381167fffffffffffffffffffffffff000000000000000000000000000000000000000083168117909355604080519190921680825260208201939093527f2a0d5dc7fbc8045f59cb33c736f04f9a9b565e9f425912f9cd2bafdebd50cead9101610ac7565b60005460ff16610ca2576040516306fda65d60e31b815260040160405180910390fd5b6000805460ff19169055610cb4611936565b610cbc61118f565b6000610cc6611960565b905080610cd35750610f8a565b6000610ce682668e1bc9bf040000611e5f565b9050610d07732f6f07cdcf3588944bf4c42ac74ff24bf56e75903383611b8d565b6000610d1a8366470de4df820000611e5f565b905060007f00000000000000000000000000000000000000000000000000000000000000006001600160a01b0316635b068af86040518163ffffffff1660e01b815260040160206040518083038186803b158015610d7757600080fd5b505afa158015610d8b573d6000803e3d6000fd5b505050506040513d601f19601f82011682018060405250810190610daf9190612b99565b9050610dd0732f6f07cdcf3588944bf4c42ac74ff24bf56e75908284611b8d565b6000610e2887878080601f016020809104026020016040519081016040528093929190818152602001838380828437600092019190915250879250610e19915088905089613074565b610e239190613074565b611e8d565b6040516321ec87bf60e21b815260016004820152602481018290523060448201529091507345a01e4e04f14f7a4a6702c74187c5f6222033cd906387b21efc90606401600060405180830381600087803b158015610e8557600080fd5b505af1158015610e99573d6000803e3d6000fd5b50505050738731d54e9d02c286767d56ac03e8037c07e01e986001600160a01b031663e2bbb158601454610ee0731205f31718499dbf1fca446663b532ef87481fe1611b78565b6040516001600160e01b031960e085901b16815260048101929092526024820152604401600060405180830381600087803b158015610f1e57600080fd5b505af1158015610f32573d6000803e3d6000fd5b5050426015555050604080518681526020810186905280820185905260608101839052905133917fc3845dedfc73729f4e3f721a87d9d20faf4551971c95726cf144e087da34ef2c919081900360800190a250505050505b610a336120c7565b60125460009080610fa557600091505090565b610bd281600854610fb6919061301d565b8290611e10565b6000805460ff16610fe1576040516306fda65d60e31b815260040160405180910390fd5b6000805460ff191690556110207f00000000000000000000000000000000000000000000000000000000000000006001600160a01b031633308661210f565b600061102a61215d565b905061103584612306565b600061103f61215d565b905061105c61104c610baa565b6110568484613074565b90611e10565b92506000831161107f5760405163f1ca48b160e01b815260040160405180910390fd5b6004546110a35761109461dead6103e8612414565b6110a06103e884613074565b92505b6110ad8484612414565b60408051868152602081018590526001600160a01b0386169133917fdcbc1c05240f31ff3ad067ef1ee35ce4997762752e3a095284754544f4c709d7910160405180910390a350506110fd6120c7565b6000805460ff1916600117905592915050565b6001600160a01b03811660009081526011602090815260408083208151808301909252546001600160701b038082168352600160701b909104169181018290529061115e5750600092915050565b60135460208201518251610ba3926001600160701b039182169290821691166124c7565b600280546108ba906130e0565b6013544290600160e01b900463ffffffff9081169082168114156111b1575050565b601380547bffffffffffffffffffffffffffffffffffffffffffffffffffffffff16600160e01b63ffffffff85160217905560006111ef828461308b565b60125460085460135492935090916001600160701b03168261121357505050505050565b600061121f8385612576565b9050600061123363ffffffff871683613055565b905060006112418287611e5f565b905061124d818761301d565b95506112598285611e5f565b611263908561301d565b6012879055601380546001600160e01b031916600160701b6001600160701b03878116919091026dffffffffffffffffffffffffffff191691909117908316179055604080518781526020810184905290810182905260608101889052608081018590529094507f717fee053884ab1935ba6d0140f6ed225371439611d9674ff445419d6a0fa1b79060a00160405180910390a1505050505050505050565b6000610948338484611ced565b600080611344600a54670de0b6b3a764000061132b9190613074565b601354600160701b90046001600160701b031690611e5f565b90508061135357600091505090565b6000611371601254600854611368919061301d565b60125490611e10565b905061137d8183611e5f565b9250505090565b6113a28161139183611110565b6013546001600160701b0316612618565b50565b6000805460ff166113c9576040516306fda65d60e31b815260040160405180910390fd5b6000805460ff19169055336001600160a01b03831614611441576001600160a01b0382166000908152600660209081526040808320338452909152902054600019811461143f5761141a8582613074565b6001600160a01b03841660009081526006602090815260408083203384529091529020555b505b61145361144c610baa565b8590611e5f565b9050600081116114765760405163e3e8d29760e01b815260040160405180910390fd5b61147f816126c4565b6114898285612914565b6114bd6001600160a01b037f0000000000000000000000000000000000000000000000000000000000000000168483611b8d565b816001600160a01b0316836001600160a01b03166114d83390565b6001600160a01b03167ffbde797d201c681b91056529119e0b02407c7bb96a4a2c75c01fc9667232c8db848860405161151b929190918252602082015260400190565b60405180910390a461152b6120c7565b6000805460ff191660011790559392505050565b6001600160a01b03871661156657604051639a321bc760e01b815260040160405180910390fd5b6001600160a01b03861661158d576040516353fbd1d760e01b815260040160405180910390fd5b428410156115b75760405163075dd20f60e41b815242600482015260248101859052604401610a09565b6001600160a01b0387811660008181526007602090815260408083208054600180820190925582517f6e71edae12b1b97f4d1f60370fef10105fa2faae0126114a169c64845d6126c98186015280840196909652958c166060860152608085018b905260a085019590955260c08085018a90528151808603909101815260e08501825280519083012061190160f01b6101008601527f000000000000000000000000000000000000000000000000000000000000000061010286015261012280860182905282518087039091018152610142860180845281519185019190912090859052610162860180845281905260ff8a166101828701526101a286018990526101c2860188905291519095919491926101e2808401939192601f1981019281900390910190855afa1580156116f2573d6000803e3d6000fd5b5050604051601f1901519150506001600160a01b03811661172657604051637386dbbb60e11b815260040160405180910390fd5b896001600160a01b0316816001600160a01b03161461177a5760405163a1d5f2ed60e01b81526001600160a01b038b16600482015260ff871660248201526044810186905260648101859052608401610a09565b6001600160a01b038a81166000818152600660209081526040808320948e16808452948252918290208c905590518b81527f8c5be1e5ebec7d5bd14f71427d1e84f3dd0314c0f7b2291e5b200ac8c7c3b925910160405180910390a350505050505050505050565b60005460ff16611805576040516306fda65d60e31b815260040160405180910390fd5b6000805460ff19169055611817611aa9565b60001960145414156118295760148190555b61186a7f00000000000000000000000000000000000000000000000000000000000000007345a01e4e04f14f7a4a6702c74187c5f6222033cd6000196129bf565b61189f731205f31718499dbf1fca446663b532ef87481fe1738731d54e9d02c286767d56ac03e8037c07e01e986000196129bf565b604080516001600160a01b037f00000000000000000000000000000000000000000000000000000000000000001681527f00000000000000000000000000000000000000000000000000000000000000006020820152338183015290517f98ccebae89f16f152c93c6a0cdc0d99913b9e62a9fc612471c21ffc299c389fd9181900360600190a1506000805460ff19166001179055565b33321461195e57604051633172e8e760e01b8152336004820152326024820152604401610a09565b565b601454604051631c57762b60e31b8152600091738731d54e9d02c286767d56ac03e8037c07e01e989163e2bbb158916119a6918590600401918252602082015260400190565b600060405180830381600087803b1580156119c057600080fd5b505af11580156119d4573d6000803e3d6000fd5b505050506119f5732f6f07cdcf3588944bf4c42ac74ff24bf56e7590611b78565b905090565b6001600160a01b038316611a21576040516317ba2d8b60e11b815260040160405180910390fd5b6001600160a01b038216611a4857604051632cc8a69760e11b815260040160405180910390fd5b6001600160a01b0383811660008181526006602090815260408083209487168084529482529182902085905590518481527f8c5be1e5ebec7d5bd14f71427d1e84f3dd0314c0f7b2291e5b200ac8c7c3b925910160405180910390a3505050565b60007f00000000000000000000000000000000000000000000000000000000000000006001600160a01b031663f851a4406040518163ffffffff1660e01b815260040160206040518083038186803b158015611b0457600080fd5b505afa158015611b18573d6000803e3d6000fd5b505050506040513d601f19601f82011682018060405250810190611b3c9190612b99565b9050336001600160a01b038216146113a257604051633e7c764160e21b81523360048201526001600160a01b0382166024820152604401610a09565b600061094c6001600160a01b03831630612a61565b81601a5280603a5269a9059cbb00000000000060005260206000604460166000875af13d156001600051141716611bcc576390b8ec186000526004601cfd5b6000603a52505050565b82811080611be357508181115b15611c1257604051639e7fe3bd60e01b8152600481018490526024810183905260448101829052606401610a09565b505050565b611c2b600067016345785d8a000086611bd6565b611c466706f05b59d3b20000670d2f13f7789f000083611bd6565b611c536001600a84611bd6565b611c616301e1338085613035565b600b55611c7c611c75826301e13380613055565b8490611e10565b600c55600f829055600e819055611c9c8161105685856301e133806124c7565b600d556040805185815260208101859052908101839052606081018290527ff58b8cc439edada25fd9495b7364aeb1d737dbef59be1cf62e0cc4001c44a3cd9060800160405180910390a150505050565b6001600160a01b038316611d145760405163618a6e7d60e11b815260040160405180910390fd5b6001600160a01b038216611d3b5760405163446ebce960e01b815260040160405180910390fd5b6001600160a01b03831660009081526005602052604090205481811015611d7f5760405163355a868d60e01b81526004810182905260248101839052604401610a09565b6001600160a01b03808516600090815260056020526040808220858503905591851681529081208054849290611db690849061301d565b92505081905550826001600160a01b0316846001600160a01b03167fddf252ad1be2c89b69c2b068fc378daa952ba7f163c4a11628f55a4df523b3ef84604051611e0291815260200190565b60405180910390a350505050565b60007812725dd1d243aba0e75fe645cc4873f9e65afe688c928e1f218311670de0b6b3a764000002158202611e4d57637c5f487d6000526004601cfd5b50670de0b6b3a7640000919091020490565b600081600019048311820215611e7d5763bac65e5b6000526004601cfd5b50670de0b6b3a764000091020490565b60008060008085806020019051810190611ea79190612bb5565b9350509250925084826080015114611ec157608082018590525b81516001600160a01b0316732f6f07cdcf3588944bf4c42ac74ff24bf56e759014611f275781516040516321f609b560e01b81526001600160a01b039091166004820152732f6f07cdcf3588944bf4c42ac74ff24bf56e75906024820152604401610a09565b7f00000000000000000000000000000000000000000000000000000000000000006001600160a01b031682602001516001600160a01b031614611fb75760208201516040516310f88e6d60e01b81526001600160a01b0391821660048201527f00000000000000000000000000000000000000000000000000000000000000009091166024820152604401610a09565b60608201516001600160a01b03163014611ffb5760608201516040516329855a9360e01b81526001600160a01b039091166004820152306024820152604401610a09565b6120228260000151731111111254eeb25477b68fb85ed929f73a96058284608001516129bf565b604080516000815260208101918290526312aa3caf60e01b909152731111111254eeb25477b68fb85ed929f73a960582906312aa3caf9061206b90869086908660248201612f50565b6040805180830381600087803b15801561208457600080fd5b505af1158015612098573d6000803e3d6000fd5b505050506040513d601f19601f820116820180604052508101906120bc9190612ed0565b509695505050505050565b60006120d161215d565b60088190556040518181529091507f8a0df8ef054fae2c3d2d19a7b322e864870cc9fd3cb07fb9526309c596244bf49060200160405180910390a150565b6040516323b872dd600052836020528260405281606052602060006064601c6000895af13d15600160005114171661214f57637939f4246000526004601cfd5b600060605260405250505050565b6014546040516393f1a40b60e01b815260048101919091523060248201526000908190738731d54e9d02c286767d56ac03e8037c07e01e98906393f1a40b90604401604080518083038186803b1580156121b657600080fd5b505afa1580156121ca573d6000803e3d6000fd5b505050506040513d601f19601f820116820180604052508101906121ee9190612ed0565b509050610bd2731205f31718499dbf1fca446663b532ef87481fe16001600160a01b03166315770f926040518163ffffffff1660e01b815260040160206040518083038186803b15801561224157600080fd5b505afa158015612255573d6000803e3d6000fd5b505050506040513d601f19601f820116820180604052508101906122799190612e53565b731205f31718499dbf1fca446663b532ef87481fe16001600160a01b03166318160ddd6040518163ffffffff1660e01b815260040160206040518083038186803b1580156122c657600080fd5b505afa1580156122da573d6000803e3d6000fd5b505050506040513d601f19601f820116820180604052508101906122fe9190612e53565b8391906124c7565b6040516321ec87bf60e21b815260016004820152602481018290523060448201527345a01e4e04f14f7a4a6702c74187c5f6222033cd906387b21efc90606401600060405180830381600087803b15801561236057600080fd5b505af1158015612374573d6000803e3d6000fd5b50505050738731d54e9d02c286767d56ac03e8037c07e01e986001600160a01b031663e2bbb1586014546123bb731205f31718499dbf1fca446663b532ef87481fe1611b78565b6040516001600160e01b031960e085901b16815260048101929092526024820152604401600060405180830381600087803b1580156123f957600080fd5b505af115801561240d573d6000803e3d6000fd5b5050505050565b6001600160a01b03821661243b5760405163237813dd60e01b815260040160405180910390fd5b6001600160a01b0382166000908152600560205260408120805483929061246390849061301d565b92505081905550806004600082825461247c919061301d565b90915550506040518181526001600160a01b038316906000907fddf252ad1be2c89b69c2b068fc378daa952ba7f163c4a11628f55a4df523b3ef906020015b60405180910390a35050565b600083830260001984860981811082019003806124fc57836124f15763ae47f7026000526004601cfd5b508290049050610ba3565b8084116125115763ae47f7026000526004601cfd5b838587096000858103861695869004956003870260029081188089028203028089028203028089028203028089028203028089028203028089029091030291819003819004600101858411909403939093029190930391909104170290509392505050565b600080612586611c75848661301d565b9050600e5481116125b457600b54600c546125a2908390611e5f565b6125ac919061301d565b91505061094c565b6000600b546125d0600c54600e54611e5f90919063ffffffff16565b6125da919061301d565b90506000600e54836125ec9190613074565b905081612604600d5483611e5f90919063ffffffff16565b61260e919061301d565b9695505050505050565b6009546001600160a01b03168061262f5750505050565b604051632b7cf7cb60e11b81527f000000000000000000000000000000000000000000000000000000000000000060048201526001600160a01b03858116602483015260448201859052606482018490528216906356f9ef9690608401600060405180830381600087803b1580156126a657600080fd5b505af11580156126ba573d6000803e3d6000fd5b5050505050505050565b60006127db731205f31718499dbf1fca446663b532ef87481fe16001600160a01b03166318160ddd6040518163ffffffff1660e01b815260040160206040518083038186803b15801561271657600080fd5b505afa15801561272a573d6000803e3d6000fd5b505050506040513d601f19601f8201168201806040525081019061274e9190612e53565b731205f31718499dbf1fca446663b532ef87481fe16001600160a01b03166315770f926040518163ffffffff1660e01b815260040160206040518083038186803b15801561279b57600080fd5b505afa1580156127af573d6000803e3d6000fd5b505050506040513d601f19601f820116820180604052508101906127d39190612e53565b849190612a8a565b601454604051630441a3e760e41b8152919250738731d54e9d02c286767d56ac03e8037c07e01e989163441a3e7091612821918590600401918252602082015260400190565b600060405180830381600087803b15801561283b57600080fd5b505af115801561284f573d6000803e3d6000fd5b505050507345a01e4e04f14f7a4a6702c74187c5f6222033cd6001600160a01b031663c4de93a56001612895731205f31718499dbf1fca446663b532ef87481fe1611b78565b6040516001600160e01b031960e085901b16815261ffff90921660048301526024820152306044820152606401602060405180830381600087803b1580156128dc57600080fd5b505af11580156128f0573d6000803e3d6000fd5b505050506040513d601f19601f82011682018060405250810190611c129190612e53565b6001600160a01b03821661293b57604051630b5da42b60e01b815260040160405180910390fd5b6001600160a01b03821660009081526005602052604081208054839290612963908490613074565b92505081905550806004600082825461297c9190613074565b90915550506040518181526000906001600160a01b038416907fddf252ad1be2c89b69c2b068fc378daa952ba7f163c4a11628f55a4df523b3ef906020016124bb565b604051636eb1769f60e11b81523060048201526001600160a01b03838116602483015282919085169063dd62ed3e9060440160206040518083038186803b158015612a0957600080fd5b505afa158015612a1d573d6000803e3d6000fd5b505050506040513d601f19601f82011682018060405250810190612a419190612e53565b10612a4b57505050565b611c126001600160a01b03841683600019612ac2565b60006370a08231600052816020526020806024601c865afa601f3d111660205102905092915050565b6000612a978484846124c7565b90508183850915610ba35760018101612ab85763ae47f7026000526004601cfd5b6001019392505050565b81601a5280603a5269095ea7b300000000000060005260206000604460166000875af13d156001600051141716611bcc57633e3f8f736000526004601cfd5b600082601f830112612b11578081fd5b815167ffffffffffffffff80821115612b2c57612b2c613131565b604051601f8301601f19908116603f01168101908282118183101715612b5457612b54613131565b81604052838152866020858801011115612b6c578485fd5b61260e8460208301602089016130b0565b600060208284031215612b8e578081fd5b8135610ba381613147565b600060208284031215612baa578081fd5b8151610ba381613147565b600080600080848603610140811215612bcc578384fd5b8551612bd781613147565b945060e0601f1982011215612bea578384fd5b50612bf3612ff4565b6020860151612c0181613147565b81526040860151612c1181613147565b60208201526060860151612c2481613147565b60408201526080860151612c3781613147565b8060608301525060a0860151608082015260c086015160a082015260e086015160c08201528093505061010085015167ffffffffffffffff80821115612c7b578384fd5b612c8788838901612b01565b9350610120870151915080821115612c9d578283fd5b50612caa87828801612b01565b91505092959194509250565b60008060408385031215612cc8578182fd5b8235612cd381613147565b91506020830135612ce381613147565b809150509250929050565b600080600060608486031215612d02578283fd5b8335612d0d81613147565b92506020840135612d1d81613147565b929592945050506040919091013590565b600080600080600080600060e0888a031215612d48578283fd5b8735612d5381613147565b96506020880135612d6381613147565b95506040880135945060608801359350608088013560ff81168114612d86578384fd5b9699959850939692959460a0840135945060c09093013592915050565b60008060408385031215612db5578182fd5b8235612dc081613147565b946020939093013593505050565b60008060208385031215612de0578182fd5b823567ffffffffffffffff80821115612df7578384fd5b818501915085601f830112612e0a578384fd5b813581811115612e18578485fd5b866020828501011115612e29578485fd5b60209290920196919550909350505050565b600060208284031215612e4c578081fd5b5035919050565b600060208284031215612e64578081fd5b5051919050565b60008060408385031215612e7d578182fd5b823591506020830135612ce381613147565b600080600060608486031215612ea3578081fd5b833592506020840135612eb581613147565b91506040840135612ec581613147565b809150509250925092565b60008060408385031215612ee2578182fd5b505080516020909101519092909150565b60008060008060808587031215612f08578182fd5b5050823594602084013594506040840135936060013592509050565b60008151808452612f3c8160208601602086016130b0565b601f01601f19169290920160200192915050565b60006101406001600160a01b03808816845280875116602085015280602088015116604085015280604088015116606085015280606088015116608085015250608086015160a084015260a086015160c084015260c086015160e084015280610100840152612fc181840186612f24565b9050828103610120840152612fd68185612f24565b979650505050505050565b602081526000610ba36020830184612f24565b60405160e0810167ffffffffffffffff8111828210171561301757613017613131565b60405290565b600082198211156130305761303061311b565b500190565b60008261305057634e487b7160e01b81526012600452602481fd5b500490565b600081600019048311821515161561306f5761306f61311b565b500290565b6000828210156130865761308661311b565b500390565b600063ffffffff838116908316818110156130a8576130a861311b565b039392505050565b60005b838110156130cb5781810151838201526020016130b3565b838111156130da576000848401525b50505050565b600181811c908216806130f457607f821691505b6020821081141561311557634e487b7160e01b600052602260045260246000fd5b50919050565b634e487b7160e01b600052601160045260246000fd5b634e487b7160e01b600052604160045260246000fd5b6001600160a01b03811681146113a257600080fdfea2646970667358221220b076941138952118d53cfea09a1038910392426c4a6e2e3eaf935b7a86df387464736f6c63430008040033",
  "linkReferences": {},
  "deployedLinkReferences": {}
}