{
  "_format": "hh-sol-artifact-1",
  "contractName": "CygnusBorrowVoid",
  "sourceName": "contracts/cygnus-core/CygnusBorrowVoid.sol",
  "abi": [
    {
      "inputs": [],
      "stateMutability": "nonpayable",
      "type": "constructor"
    },
    {
      "inputs": [
        {
          "internalType": "uint256",
          "name": "min",
          "type": "uint256"
        },
        {
          "internalType": "uint256",
          "name": "max",
          "type": "uint256"
        },
        {
          "internalType": "uint256",
          "name": "value",
          "type": "uint256"
        }
      ],
      "name": "CygnusBorrowControl__ParameterNotInRange",
      "type": "error"
    },
    {
      "inputs": [
        {
          "internalType": "address",
          "name": "dstReceiver",
          "type": "address"
        },
        {
          "internalType": "address",
          "name": "receiver",
          "type": "address"
        }
      ],
      "name": "CygnusBorrowVoid__DstReceiverNotValid",
      "type": "error"
    },
    {
      "inputs": [
        {
          "internalType": "address",
          "name": "dstToken",
          "type": "address"
        },
        {
          "internalType": "address",
          "name": "token",
          "type": "address"
        }
      ],
      "name": "CygnusBorrowVoid__DstTokenNotValid",
      "type": "error"
    },
    {
      "inputs": [
        {
          "internalType": "address",
          "name": "sender",
          "type": "address"
        },
        {
          "internalType": "address",
          "name": "origin",
          "type": "address"
        }
      ],
      "name": "CygnusBorrowVoid__OnlyEOAAllowed",
      "type": "error"
    },
    {
      "inputs": [
        {
          "internalType": "address",
          "name": "srcToken",
          "type": "address"
        },
        {
          "internalType": "address",
          "name": "token",
          "type": "address"
        }
      ],
      "name": "CygnusBorrowVoid__SrcTokenNotValid",
      "type": "error"
    },
    {
      "inputs": [],
      "name": "CygnusTerminal__CantMintZeroShares",
      "type": "error"
    },
    {
      "inputs": [],
      "name": "CygnusTerminal__CantRedeemZeroAssets",
      "type": "error"
    },
    {
      "inputs": [
        {
          "internalType": "address",
          "name": "token",
          "type": "address"
        },
        {
          "internalType": "address",
          "name": "underlying",
          "type": "address"
        }
      ],
      "name": "CygnusTerminal__CantSweepUnderlying",
      "type": "error"
    },
    {
      "inputs": [
        {
          "internalType": "address",
          "name": "sender",
          "type": "address"
        },
        {
          "internalType": "address",
          "name": "admin",
          "type": "address"
        }
      ],
      "name": "CygnusTerminal__MsgSenderNotAdmin",
      "type": "error"
    },
    {
      "inputs": [
        {
          "internalType": "address",
          "name": "owner",
          "type": "address"
        },
        {
          "internalType": "uint8",
          "name": "v",
          "type": "uint8"
        },
        {
          "internalType": "bytes32",
          "name": "r",
          "type": "bytes32"
        },
        {
          "internalType": "bytes32",
          "name": "s",
          "type": "bytes32"
        }
      ],
      "name": "ERC20Permit__InvalidSignature",
      "type": "error"
    },
    {
      "inputs": [],
      "name": "ERC20Permit__OwnerZeroAddress",
      "type": "error"
    },
    {
      "inputs": [
        {
          "internalType": "uint256",
          "name": "currentTime",
          "type": "uint256"
        },
        {
          "internalType": "uint256",
          "name": "deadline",
          "type": "uint256"
        }
      ],
      "name": "ERC20Permit__PermitExpired",
      "type": "error"
    },
    {
      "inputs": [],
      "name": "ERC20Permit__RecoveredOwnerZeroAddress",
      "type": "error"
    },
    {
      "inputs": [],
      "name": "ERC20Permit__SpenderZeroAddress",
      "type": "error"
    },
    {
      "inputs": [],
      "name": "ERC20__ApproveOwnerZeroAddress",
      "type": "error"
    },
    {
      "inputs": [],
      "name": "ERC20__ApproveSpenderZeroAddress",
      "type": "error"
    },
    {
      "inputs": [
        {
          "internalType": "uint256",
          "name": "accountBalance",
          "type": "uint256"
        },
        {
          "internalType": "uint256",
          "name": "burnAmount",
          "type": "uint256"
        }
      ],
      "name": "ERC20__BurnUnderflow",
      "type": "error"
    },
    {
      "inputs": [],
      "name": "ERC20__BurnZeroAddress",
      "type": "error"
    },
    {
      "inputs": [
        {
          "internalType": "uint256",
          "name": "allowance",
          "type": "uint256"
        },
        {
          "internalType": "uint256",
          "name": "amount",
          "type": "uint256"
        }
      ],
      "name": "ERC20__InsufficientAllowance",
      "type": "error"
    },
    {
      "inputs": [
        {
          "internalType": "uint256",
          "name": "senderBalance",
          "type": "uint256"
        },
        {
          "internalType": "uint256",
          "name": "amount",
          "type": "uint256"
        }
      ],
      "name": "ERC20__InsufficientBalance",
      "type": "error"
    },
    {
      "inputs": [],
      "name": "ERC20__MintZeroAddress",
      "type": "error"
    },
    {
      "inputs": [],
      "name": "ERC20__TransferRecipientZeroAddress",
      "type": "error"
    },
    {
      "inputs": [],
      "name": "ERC20__TransferSenderZeroAddress",
      "type": "error"
    },
    {
      "inputs": [],
      "name": "ReentrantCall",
      "type": "error"
    },
    {
      "anonymous": false,
      "inputs": [
        {
          "indexed": false,
          "internalType": "uint256",
          "name": "cashStored",
          "type": "uint256"
        },
        {
          "indexed": false,
          "internalType": "uint256",
          "name": "interestAccumulated",
          "type": "uint256"
        },
        {
          "indexed": false,
          "internalType": "uint256",
          "name": "borrowIndexStored",
          "type": "uint256"
        },
        {
          "indexed": false,
          "internalType": "uint256",
          "name": "totalBorrowsStored",
          "type": "uint256"
        },
        {
          "indexed": false,
          "internalType": "uint256",
          "name": "borrowRateStored",
          "type": "uint256"
        }
      ],
      "name": "AccrueInterest",
      "type": "event"
    },
    {
      "anonymous": false,
      "inputs": [
        {
          "indexed": true,
          "internalType": "address",
          "name": "owner",
          "type": "address"
        },
        {
          "indexed": true,
          "internalType": "address",
          "name": "spender",
          "type": "address"
        },
        {
          "indexed": false,
          "internalType": "uint256",
          "name": "amount",
          "type": "uint256"
        }
      ],
      "name": "Approval",
      "type": "event"
    },
    {
      "anonymous": false,
      "inputs": [
        {
          "indexed": false,
          "internalType": "address",
          "name": "underlying",
          "type": "address"
        },
        {
          "indexed": false,
          "internalType": "uint256",
          "name": "shuttleId",
          "type": "uint256"
        },
        {
          "indexed": false,
          "internalType": "address",
          "name": "sender",
          "type": "address"
        }
      ],
      "name": "ChargeVoid",
      "type": "event"
    },
    {
      "anonymous": false,
      "inputs": [
        {
          "indexed": true,
          "internalType": "address",
          "name": "sender",
          "type": "address"
        },
        {
          "indexed": true,
          "internalType": "address",
          "name": "recipient",
          "type": "address"
        },
        {
          "indexed": false,
          "internalType": "uint256",
          "name": "assets",
          "type": "uint256"
        },
        {
          "indexed": false,
          "internalType": "uint256",
          "name": "shares",
          "type": "uint256"
        }
      ],
      "name": "Deposit",
      "type": "event"
    },
    {
      "anonymous": false,
      "inputs": [
        {
          "indexed": false,
          "internalType": "address",
          "name": "oldBorrowRewarder",
          "type": "address"
        },
        {
          "indexed": false,
          "internalType": "address",
          "name": "newBorrowRewarder",
          "type": "address"
        }
      ],
      "name": "NewCygnusBorrowRewarder",
      "type": "event"
    },
    {
      "anonymous": false,
      "inputs": [
        {
          "indexed": false,
          "internalType": "uint256",
          "name": "baseRatePerYear",
          "type": "uint256"
        },
        {
          "indexed": false,
          "internalType": "uint256",
          "name": "multiplierPerYear",
          "type": "uint256"
        },
        {
          "indexed": false,
          "internalType": "uint256",
          "name": "kinkMultiplier_",
          "type": "uint256"
        },
        {
          "indexed": false,
          "internalType": "uint256",
          "name": "kinkUtilizationRate_",
          "type": "uint256"
        }
      ],
      "name": "NewInterestRateParameters",
      "type": "event"
    },
    {
      "anonymous": false,
      "inputs": [
        {
          "indexed": false,
          "internalType": "uint256",
          "name": "oldReserveFactor",
          "type": "uint256"
        },
        {
          "indexed": false,
          "internalType": "uint256",
          "name": "newReserveFactor",
          "type": "uint256"
        }
      ],
      "name": "NewReserveFactor",
      "type": "event"
    },
    {
      "anonymous": false,
      "inputs": [
        {
          "indexed": true,
          "internalType": "address",
          "name": "reinvestor",
          "type": "address"
        },
        {
          "indexed": false,
          "internalType": "uint256",
          "name": "rewardBalance",
          "type": "uint256"
        },
        {
          "indexed": false,
          "internalType": "uint256",
          "name": "reinvestReward",
          "type": "uint256"
        },
        {
          "indexed": false,
          "internalType": "uint256",
          "name": "daoReward",
          "type": "uint256"
        },
        {
          "indexed": false,
          "internalType": "uint256",
          "name": "underlyingReceived",
          "type": "uint256"
        }
      ],
      "name": "RechargeVoid",
      "type": "event"
    },
    {
      "anonymous": false,
      "inputs": [
        {
          "indexed": false,
          "internalType": "uint256",
          "name": "totalBalance",
          "type": "uint256"
        }
      ],
      "name": "Sync",
      "type": "event"
    },
    {
      "anonymous": false,
      "inputs": [
        {
          "indexed": true,
          "internalType": "address",
          "name": "from",
          "type": "address"
        },
        {
          "indexed": true,
          "internalType": "address",
          "name": "to",
          "type": "address"
        },
        {
          "indexed": false,
          "internalType": "uint256",
          "name": "amount",
          "type": "uint256"
        }
      ],
      "name": "Transfer",
      "type": "event"
    },
    {
      "anonymous": false,
      "inputs": [
        {
          "indexed": true,
          "internalType": "address",
          "name": "sender",
          "type": "address"
        },
        {
          "indexed": true,
          "internalType": "address",
          "name": "recipient",
          "type": "address"
        },
        {
          "indexed": true,
          "internalType": "address",
          "name": "owner",
          "type": "address"
        },
        {
          "indexed": false,
          "internalType": "uint256",
          "name": "assets",
          "type": "uint256"
        },
        {
          "indexed": false,
          "internalType": "uint256",
          "name": "shares",
          "type": "uint256"
        }
      ],
      "name": "Withdraw",
      "type": "event"
    },
    {
      "inputs": [],
      "name": "DAO_REWARD",
      "outputs": [
        {
          "internalType": "uint256",
          "name": "",
          "type": "uint256"
        }
      ],
      "stateMutability": "view",
      "type": "function"
    },
    {
      "inputs": [],
      "name": "DOMAIN_SEPARATOR",
      "outputs": [
        {
          "internalType": "bytes32",
          "name": "",
          "type": "bytes32"
        }
      ],
      "stateMutability": "view",
      "type": "function"
    },
    {
      "inputs": [],
      "name": "PERMIT_TYPEHASH",
      "outputs": [
        {
          "internalType": "bytes32",
          "name": "",
          "type": "bytes32"
        }
      ],
      "stateMutability": "view",
      "type": "function"
    },
    {
      "inputs": [],
      "name": "accrueInterest",
      "outputs": [],
      "stateMutability": "nonpayable",
      "type": "function"
    },
    {
      "inputs": [
        {
          "internalType": "address",
          "name": "owner",
          "type": "address"
        },
        {
          "internalType": "address",
          "name": "spender",
          "type": "address"
        }
      ],
      "name": "allowance",
      "outputs": [
        {
          "internalType": "uint256",
          "name": "",
          "type": "uint256"
        }
      ],
      "stateMutability": "view",
      "type": "function"
    },
    {
      "inputs": [
        {
          "internalType": "address",
          "name": "spender",
          "type": "address"
        },
        {
          "internalType": "uint256",
          "name": "amount",
          "type": "uint256"
        }
      ],
      "name": "approve",
      "outputs": [
        {
          "internalType": "bool",
          "name": "",
          "type": "bool"
        }
      ],
      "stateMutability": "nonpayable",
      "type": "function"
    },
    {
      "inputs": [
        {
          "internalType": "address",
          "name": "account",
          "type": "address"
        }
      ],
      "name": "balanceOf",
      "outputs": [
        {
          "internalType": "uint256",
          "name": "",
          "type": "uint256"
        }
      ],
      "stateMutability": "view",
      "type": "function"
    },
    {
      "inputs": [],
      "name": "baseRatePerSecond",
      "outputs": [
        {
          "internalType": "uint256",
          "name": "",
          "type": "uint256"
        }
      ],
      "stateMutability": "view",
      "type": "function"
    },
    {
      "inputs": [],
      "name": "borrowIndex",
      "outputs": [
        {
          "internalType": "uint112",
          "name": "",
          "type": "uint112"
        }
      ],
      "stateMutability": "view",
      "type": "function"
    },
    {
      "inputs": [],
      "name": "borrowRate",
      "outputs": [
        {
          "internalType": "uint112",
          "name": "",
          "type": "uint112"
        }
      ],
      "stateMutability": "view",
      "type": "function"
    },
    {
      "inputs": [
        {
          "internalType": "uint256",
          "name": "_stgPoolId",
          "type": "uint256"
        }
      ],
      "name": "chargeVoid",
      "outputs": [],
      "stateMutability": "nonpayable",
      "type": "function"
    },
    {
      "inputs": [],
      "name": "collateral",
      "outputs": [
        {
          "internalType": "address",
          "name": "",
          "type": "address"
        }
      ],
      "stateMutability": "view",
      "type": "function"
    },
    {
      "inputs": [],
      "name": "cygnusBorrowRewarder",
      "outputs": [
        {
          "internalType": "address",
          "name": "",
          "type": "address"
        }
      ],
      "stateMutability": "view",
      "type": "function"
    },
    {
      "inputs": [],
      "name": "cygnusNebulaOracle",
      "outputs": [
        {
          "internalType": "contract ICygnusNebulaOracle",
          "name": "",
          "type": "address"
        }
      ],
      "stateMutability": "view",
      "type": "function"
    },
    {
      "inputs": [],
      "name": "decimals",
      "outputs": [
        {
          "internalType": "uint8",
          "name": "",
          "type": "uint8"
        }
      ],
      "stateMutability": "view",
      "type": "function"
    },
    {
      "inputs": [
        {
          "internalType": "uint256",
          "name": "assets",
          "type": "uint256"
        },
        {
          "internalType": "address",
          "name": "recipient",
          "type": "address"
        }
      ],
      "name": "deposit",
      "outputs": [
        {
          "internalType": "uint256",
          "name": "shares",
          "type": "uint256"
        }
      ],
      "stateMutability": "nonpayable",
      "type": "function"
    },
    {
      "inputs": [],
      "name": "exchangeRate",
      "outputs": [
        {
          "internalType": "uint256",
          "name": "",
          "type": "uint256"
        }
      ],
      "stateMutability": "nonpayable",
      "type": "function"
    },
    {
      "inputs": [],
      "name": "exchangeRateStored",
      "outputs": [
        {
          "internalType": "uint256",
          "name": "",
          "type": "uint256"
        }
      ],
      "stateMutability": "view",
      "type": "function"
    },
    {
      "inputs": [
        {
          "internalType": "address",
          "name": "borrower",
          "type": "address"
        }
      ],
      "name": "getBorrowBalance",
      "outputs": [
        {
          "internalType": "uint256",
          "name": "",
          "type": "uint256"
        }
      ],
      "stateMutability": "view",
      "type": "function"
    },
    {
      "inputs": [],
      "name": "getCygnusVoid",
      "outputs": [
        {
          "internalType": "uint256",
          "name": "",
          "type": "uint256"
        },
        {
          "internalType": "uint256",
          "name": "",
          "type": "uint256"
        },
        {
          "internalType": "contract IStargatePool",
          "name": "",
          "type": "address"
        },
        {
          "internalType": "contract IStargateRouter",
          "name": "",
          "type": "address"
        },
        {
          "internalType": "contract IStargateLPStaking",
          "name": "",
          "type": "address"
        },
        {
          "internalType": "address",
          "name": "",
          "type": "address"
        },
        {
          "internalType": "contract IAggregationRouterV5",
          "name": "",
          "type": "address"
        }
      ],
      "stateMutability": "view",
      "type": "function"
    },
    {
      "inputs": [],
      "name": "getRewards",
      "outputs": [
        {
          "internalType": "uint256",
          "name": "",
          "type": "uint256"
        }
      ],
      "stateMutability": "nonpayable",
      "type": "function"
    },
    {
      "inputs": [],
      "name": "hangar18",
      "outputs": [
        {
          "internalType": "contract IHangar18",
          "name": "",
          "type": "address"
        }
      ],
      "stateMutability": "view",
      "type": "function"
    },
    {
      "inputs": [],
      "name": "jumpMultiplierPerSecond",
      "outputs": [
        {
          "internalType": "uint256",
          "name": "",
          "type": "uint256"
        }
      ],
      "stateMutability": "view",
      "type": "function"
    },
    {
      "inputs": [],
      "name": "kinkMultiplier",
      "outputs": [
        {
          "internalType": "uint256",
          "name": "",
          "type": "uint256"
        }
      ],
      "stateMutability": "view",
      "type": "function"
    },
    {
      "inputs": [],
      "name": "kinkUtilizationRate",
      "outputs": [
        {
          "internalType": "uint256",
          "name": "",
          "type": "uint256"
        }
      ],
      "stateMutability": "view",
      "type": "function"
    },
    {
      "inputs": [],
      "name": "lastAccrualTimestamp",
      "outputs": [
        {
          "internalType": "uint32",
          "name": "",
          "type": "uint32"
        }
      ],
      "stateMutability": "view",
      "type": "function"
    },
    {
      "inputs": [],
      "name": "lastReinvest",
      "outputs": [
        {
          "internalType": "uint256",
          "name": "",
          "type": "uint256"
        }
      ],
      "stateMutability": "view",
      "type": "function"
    },
    {
      "inputs": [],
      "name": "multiplierPerSecond",
      "outputs": [
        {
          "internalType": "uint256",
          "name": "",
          "type": "uint256"
        }
      ],
      "stateMutability": "view",
      "type": "function"
    },
    {
      "inputs": [],
      "name": "name",
      "outputs": [
        {
          "internalType": "string",
          "name": "",
          "type": "string"
        }
      ],
      "stateMutability": "view",
      "type": "function"
    },
    {
      "inputs": [
        {
          "internalType": "address",
          "name": "",
          "type": "address"
        }
      ],
      "name": "nonces",
      "outputs": [
        {
          "internalType": "uint256",
          "name": "",
          "type": "uint256"
        }
      ],
      "stateMutability": "view",
      "type": "function"
    },
    {
      "inputs": [
        {
          "internalType": "address",
          "name": "owner",
          "type": "address"
        },
        {
          "internalType": "address",
          "name": "spender",
          "type": "address"
        },
        {
          "internalType": "uint256",
          "name": "value",
          "type": "uint256"
        },
        {
          "internalType": "uint256",
          "name": "deadline",
          "type": "uint256"
        },
        {
          "internalType": "uint8",
          "name": "v",
          "type": "uint8"
        },
        {
          "internalType": "bytes32",
          "name": "r",
          "type": "bytes32"
        },
        {
          "internalType": "bytes32",
          "name": "s",
          "type": "bytes32"
        }
      ],
      "name": "permit",
      "outputs": [],
      "stateMutability": "nonpayable",
      "type": "function"
    },
    {
      "inputs": [
        {
          "internalType": "uint256",
          "name": "shares",
          "type": "uint256"
        },
        {
          "internalType": "address",
          "name": "recipient",
          "type": "address"
        },
        {
          "internalType": "address",
          "name": "owner",
          "type": "address"
        }
      ],
      "name": "redeem",
      "outputs": [
        {
          "internalType": "uint256",
          "name": "assets",
          "type": "uint256"
        }
      ],
      "stateMutability": "nonpayable",
      "type": "function"
    },
    {
      "inputs": [
        {
          "internalType": "bytes",
          "name": "swapData",
          "type": "bytes"
        }
      ],
      "name": "reinvestRewards_y7b",
      "outputs": [],
      "stateMutability": "nonpayable",
      "type": "function"
    },
    {
      "inputs": [],
      "name": "reserveFactor",
      "outputs": [
        {
          "internalType": "uint256",
          "name": "",
          "type": "uint256"
        }
      ],
      "stateMutability": "view",
      "type": "function"
    },
    {
      "inputs": [
        {
          "internalType": "address",
          "name": "newBorrowRewarder",
          "type": "address"
        }
      ],
      "name": "setCygnusBorrowRewarder",
      "outputs": [],
      "stateMutability": "nonpayable",
      "type": "function"
    },
    {
      "inputs": [
        {
          "internalType": "uint256",
          "name": "baseRatePerYear_",
          "type": "uint256"
        },
        {
          "internalType": "uint256",
          "name": "multiplierPerYear_",
          "type": "uint256"
        },
        {
          "internalType": "uint256",
          "name": "kinkMultiplier_",
          "type": "uint256"
        },
        {
          "internalType": "uint256",
          "name": "kinkUtilizationRate_",
          "type": "uint256"
        }
      ],
      "name": "setInterestRateModel",
      "outputs": [],
      "stateMutability": "nonpayable",
      "type": "function"
    },
    {
      "inputs": [
        {
          "internalType": "uint256",
          "name": "newReserveFactor",
          "type": "uint256"
        }
      ],
      "name": "setReserveFactor",
      "outputs": [],
      "stateMutability": "nonpayable",
      "type": "function"
    },
    {
      "inputs": [],
      "name": "shuttleId",
      "outputs": [
        {
          "internalType": "uint256",
          "name": "",
          "type": "uint256"
        }
      ],
      "stateMutability": "view",
      "type": "function"
    },
    {
      "inputs": [],
      "name": "supplyRate",
      "outputs": [
        {
          "internalType": "uint256",
          "name": "",
          "type": "uint256"
        }
      ],
      "stateMutability": "view",
      "type": "function"
    },
    {
      "inputs": [
        {
          "internalType": "address",
          "name": "token",
          "type": "address"
        }
      ],
      "name": "sweepToken",
      "outputs": [],
      "stateMutability": "nonpayable",
      "type": "function"
    },
    {
      "inputs": [],
      "name": "symbol",
      "outputs": [
        {
          "internalType": "string",
          "name": "",
          "type": "string"
        }
      ],
      "stateMutability": "view",
      "type": "function"
    },
    {
      "inputs": [],
      "name": "totalBalance",
      "outputs": [
        {
          "internalType": "uint256",
          "name": "",
          "type": "uint256"
        }
      ],
      "stateMutability": "view",
      "type": "function"
    },
    {
      "inputs": [],
      "name": "totalBorrows",
      "outputs": [
        {
          "internalType": "uint256",
          "name": "",
          "type": "uint256"
        }
      ],
      "stateMutability": "view",
      "type": "function"
    },
    {
      "inputs": [],
      "name": "totalSupply",
      "outputs": [
        {
          "internalType": "uint256",
          "name": "",
          "type": "uint256"
        }
      ],
      "stateMutability": "view",
      "type": "function"
    },
    {
      "inputs": [
        {
          "internalType": "address",
          "name": "borrower",
          "type": "address"
        }
      ],
      "name": "trackBorrow",
      "outputs": [],
      "stateMutability": "nonpayable",
      "type": "function"
    },
    {
      "inputs": [
        {
          "internalType": "address",
          "name": "recipient",
          "type": "address"
        },
        {
          "internalType": "uint256",
          "name": "amount",
          "type": "uint256"
        }
      ],
      "name": "transfer",
      "outputs": [
        {
          "internalType": "bool",
          "name": "",
          "type": "bool"
        }
      ],
      "stateMutability": "nonpayable",
      "type": "function"
    },
    {
      "inputs": [
        {
          "internalType": "address",
          "name": "sender",
          "type": "address"
        },
        {
          "internalType": "address",
          "name": "recipient",
          "type": "address"
        },
        {
          "internalType": "uint256",
          "name": "amount",
          "type": "uint256"
        }
      ],
      "name": "transferFrom",
      "outputs": [
        {
          "internalType": "bool",
          "name": "",
          "type": "bool"
        }
      ],
      "stateMutability": "nonpayable",
      "type": "function"
    },
    {
      "inputs": [],
      "name": "underlying",
      "outputs": [
        {
          "internalType": "address",
          "name": "",
          "type": "address"
        }
      ],
      "stateMutability": "view",
      "type": "function"
    },
    {
      "inputs": [],
      "name": "utilizationRate",
      "outputs": [
        {
          "internalType": "uint256",
          "name": "",
          "type": "uint256"
        }
      ],
      "stateMutability": "view",
      "type": "function"
    },
    {
      "inputs": [],
      "name": "version",
      "outputs": [
        {
          "internalType": "string",
          "name": "",
          "type": "string"
        }
      ],
      "stateMutability": "view",
      "type": "function"
    }
  ],
  "bytecode": "0x610140604052670bcbce7f1b150000600d556002600e5567016345785d8a0000600f55670de0b6b3a76400006010556000196014553480156200004157600080fd5b5060408051808201825260128152714379676e75733a20426f72726f7761626c6560701b602080830191825283519081019093526000808452805460ff19166001908117825583519394939192859285928592859285928592620000a59262000465565b508151620000bb90600290602085019062000465565b506003805460ff191660ff92909216919091179055505060405146907f8b73c3c69bb8fe3d512ecc4cf759cc79239f7b179b0ffacaa9a75d522b39400f9062000107906001906200065c565b60408051918290038220828201825260058352640312e302e360dc1b6020938401528151928301939093528101919091527f06c015bd22b4c69690933c1058878ebdfef31f9aaae40bbe86d8a09fe1b2972c6060820152608081018290523060a082015260c00160408051601f1981840301815291905280516020909101206080525062000199925050620004619050565b6001600160a01b0316635a412e536040518163ffffffff1660e01b815260040160a060405180830381600087803b158015620001d457600080fd5b505af1158015620001e9573d6000803e3d6000fd5b505050506040513d601f19601f820116820180604052508101906200020f91906200050b565b610100526001600160601b0319606091821b811660e05292811b831660c0529290921b1660a05250600092508291506200024890503390565b6001600160a01b0316635a412e536040518163ffffffff1660e01b815260040160a060405180830381600087803b1580156200028357600080fd5b505af115801562000298573d6000803e3d6000fd5b505050506040513d601f19601f82011682018060405250810190620002be91906200050b565b50509250925050816001600160a01b03166395d89b416040518163ffffffff1660e01b815260040160006040518083038186803b158015620002ff57600080fd5b505afa15801562000314573d6000803e3d6000fd5b505050506040513d6000823e601f3d908101601f191682016040526200033e91908101906200057e565b604051602001620003509190620006ff565b604051602081830303815290604052600290805190602001906200037692919062000465565b50816001600160a01b031663313ce5676040518163ffffffff1660e01b815260040160206040518083038186803b158015620003b157600080fd5b505afa158015620003c6573d6000803e3d6000fd5b505050506040513d601f19601f82011682018060405250810190620003ec919062000632565b6003805460ff191660ff9290921691909117905560601b6001600160601b0319166101205250600060045560138054670de0b6b3a76400006001600160701b03199091161790556200043b4290565b6013601c6101000a81548163ffffffff021916908363ffffffff160217905550620007d0565b3390565b828054620004739062000764565b90600052602060002090601f016020900481019282620004975760008555620004e2565b82601f10620004b257805160ff1916838001178555620004e2565b82800160010185558215620004e2579182015b82811115620004e2578251825591602001919060010190620004c5565b50620004f0929150620004f4565b5090565b5b80821115620004f05760008155600101620004f5565b600080600080600060a0868803121562000523578081fd5b85516200053081620007b7565b60208701519095506200054381620007b7565b60408701519094506200055681620007b7565b60608701519093506200056981620007b7565b80925050608086015190509295509295909350565b60006020828403121562000590578081fd5b81516001600160401b0380821115620005a7578283fd5b818401915084601f830112620005bb578283fd5b815181811115620005d057620005d0620007a1565b604051601f8201601f19908116603f01168101908382118183101715620005fb57620005fb620007a1565b8160405282815287602084870101111562000614578586fd5b6200062783602083016020880162000731565b979650505050505050565b60006020828403121562000644578081fd5b815160ff8116811462000655578182fd5b9392505050565b600080835482600182811c9150808316806200067957607f831692505b60208084108214156200069a57634e487b7160e01b87526022600452602487fd5b818015620006b15760018114620006c357620006f1565b60ff19861689528489019650620006f1565b60008a815260209020885b86811015620006e95781548b820152908501908301620006ce565b505084890196505b509498975050505050505050565b67021bcb3aaa9a21d160c51b8152600082516200072481600885016020870162000731565b9190910160080192915050565b60005b838110156200074e57818101518382015260200162000734565b838111156200075e576000848401525b50505050565b600181811c908216806200077957607f821691505b602082108114156200079b57634e487b7160e01b600052602260045260246000fd5b50919050565b634e487b7160e01b600052604160045260246000fd5b6001600160a01b0381168114620007cd57600080fd5b50565b60805160a05160601c60c05160601c60e05160601c610100516101205160601c61313b620008876000396000610792015260008181610596015281816118900152612610015260006107c20152600081816105d801528181610970015281816109c701528181610fa701528181611455015281816117ed0152818161186c01528181611f430152611fa201526000818161082201528181610cdb0152611a6c0152600081816104dc015261160d015261313b6000f3fe608060405234801561001057600080fd5b50600436106103365760003560e01c80636f307dc3116101b2578063ad7a672f116100f9578063d505accf116100a2578063d90e02641161007c578063d90e0264146107b4578063d935bd92146107bd578063dd62ed3e146107e4578063e8a24e1d1461081d57600080fd5b8063d505accf14610767578063d82f897f1461077a578063d8dfeb451461078d57600080fd5b8063ba087652116100d3578063ba0876521461070e578063c0789dcb14610721578063c914b4371461074d57600080fd5b8063ad7a672f146106e9578063b5f3c95b146106f2578063b7f1118a146106fb57600080fd5b80639b5109981161015b578063aa5af0fd11610135578063aa5af0fd146106a3578063ad168c9d146106ce578063ad2961a3146106e157600080fd5b80639b5109981461067f578063a6afed9514610688578063a9059cbb1461069057600080fd5b80637d6af0791161018c5780637d6af079146106445780637ecebe001461065757806395d89b411461067757600080fd5b80636f307dc3146105d357806370a082311461061257806372cf84a71461063b57600080fd5b8063313ce5671161028157806347bd37181161022a5780635b037f1d116102045780635b037f1d1461057e5780635f77f891146105915780636c321c8a146105b85780636e553f65146105c057600080fd5b806347bd37181461052b57806354fd4d501461053457806359b0bc2a1461057057600080fd5b806342bf78af1161025b57806342bf78af146105065780634322b7141461051957806346f608ff1461052257600080fd5b8063313ce567146104b85780633644e515146104d75780633ba0b9a9146104fe57600080fd5b80631aebf12f116102e35780631e44b7fc116102bd5780631e44b7fc1461046b57806323b872dd1461047e57806330adf81f1461049157600080fd5b80631aebf12f1461043a5780631be19560146104435780631c4469831461045857600080fd5b806318160ddd1161031457806318160ddd1461038e578063182df0f5146103975780631995bc1a146103a057600080fd5b80630572b0cc1461033b57806306fdde0314610356578063095ea7b31461036b575b600080fd5b610343610844565b6040519081526020015b60405180910390f35b61035e610894565b60405161034d9190612f8a565b61037e610379366004612d4c565b610922565b604051901515815260200161034d565b61034360045481565b61034360105481565b601454604080519182526001602083015273892785f33cdee22a30aef750f285e18c18040c3e908201527353bf833a5d6c4dda888f69c22c88c9f356a41614606082015273ea8dfee1898a7e0a59f7527f076106d7e44c21766080820152736694340fc020c5e6b96567843da2df01b2ce1eb660a0820152731111111254eeb25477b68fb85ed929f73a96058260c082015260e00161034d565b610343600d5481565b610456610451366004612b26565b610939565b005b610456610466366004612de4565b610a2b565b610456610479366004612e9c565b610ac7565b61037e61048c366004612c97565b610b1b565b6103437f6e71edae12b1b97f4d1f60370fef10105fa2faae0126114a169c64845d6126c981565b6003546104c59060ff1681565b60405160ff909116815260200161034d565b6103437f000000000000000000000000000000000000000000000000000000000000000081565b610343610b91565b610456610514366004612b26565b610bbf565b610343600f5481565b610343600b5481565b61034360125481565b61035e6040518060400160405280600581526020017f312e302e3000000000000000000000000000000000000000000000000000000081525081565b61034366b1a2bc2ec5000081565b61045661058c366004612d77565b610c66565b6103437f000000000000000000000000000000000000000000000000000000000000000081565b610343610f41565b6103436105ce366004612e14565b610f6c565b6105fa7f000000000000000000000000000000000000000000000000000000000000000081565b6040516001600160a01b03909116815260200161034d565b610343610620366004612b26565b6001600160a01b031660009081526005602052604090205490565b610343600c5481565b610343610652366004612b26565b6110c7565b610343610665366004612b26565b60076020526000908152604090205481565b61035e611139565b610343600e5481565b610456611146565b61037e61069e366004612d4c565b6112b9565b6013546106b6906001600160701b031681565b6040516001600160701b03909116815260200161034d565b6009546105fa906001600160a01b031681565b6103436112c6565b61034360085481565b61034360155481565b610456610709366004612b26565b61133b565b61034361071c366004612e38565b61135c565b60135461073890600160e01b900463ffffffff1681565b60405163ffffffff909116815260200161034d565b6013546106b690600160701b90046001600160701b031681565b610456610775366004612cd7565b6114fe565b610456610788366004612de4565b6117a1565b6105fa7f000000000000000000000000000000000000000000000000000000000000000081565b610343600a5481565b6105fa7f000000000000000000000000000000000000000000000000000000000000000081565b6103436107f2366004612c5f565b6001600160a01b03918216600090815260066020908152604080832093909416825291909152205490565b6105fa7f000000000000000000000000000000000000000000000000000000000000000081565b6000805460ff16610868576040516306fda65d60e31b815260040160405180910390fd5b6000805460ff1916905561087a6118f5565b61088261191f565b90506000805460ff1916600117905590565b600180546108a190613089565b80601f01602080910402602001604051908101604052809291908181526020018280546108cd90613089565b801561091a5780601f106108ef5761010080835404028352916020019161091a565b820191906000526020600020905b8154815290600101906020018083116108fd57829003601f168201915b505050505081565b600061092f3384846119b9565b5060015b92915050565b60005460ff1661095c576040516306fda65d60e31b815260040160405180910390fd5b6000805460ff1916905561096e611a68565b7f00000000000000000000000000000000000000000000000000000000000000006001600160a01b0316816001600160a01b031614156109f9576040516303b91a9160e31b81526001600160a01b0380831660048301527f00000000000000000000000000000000000000000000000000000000000000001660248201526044015b60405180910390fd5b6000610a0482611b37565b9050610a1a6001600160a01b0383163383611b5f565b50506000805460ff19166001179055565b60005460ff16610a4e576040516306fda65d60e31b815260040160405180910390fd5b6000805460ff19169055610a60611a68565b610a7460006702c68af0bb14000083611ba8565b600f80549082905560408051828152602081018490527faaa68312e2ea9d50e16af5068410ab56e1a1fd06037b1a35664812c30f82146091015b60405180910390a150506000805460ff19166001179055565b60005460ff16610aea576040516306fda65d60e31b815260040160405180910390fd5b6000805460ff19169055610afc611a68565b610b0884848484611be9565b50506000805460ff191660011790555050565b6000610b28848484611cbf565b6001600160a01b038416600090815260066020908152604080832033845290915290205482811015610b77576040516310c6013560e31b815260048101829052602481018490526044016109f0565b610b8485338584036119b9565b60019150505b9392505050565b6004546000908015610baf57600854610baa9082611de2565b610bb9565b670de0b6b3a76400005b91505090565b60005460ff16610be2576040516306fda65d60e31b815260040160405180910390fd5b6000805460ff19169055610bf4611a68565b600980546001600160a01b038381167fffffffffffffffffffffffff000000000000000000000000000000000000000083168117909355604080519190921680825260208201939093527f2a0d5dc7fbc8045f59cb33c736f04f9a9b565e9f425912f9cd2bafdebd50cead9101610aae565b60005460ff16610c89576040516306fda65d60e31b815260040160405180910390fd5b6000805460ff19169055610c9b6118f5565b610ca3611e31565b610cab611146565b6000610cb561191f565b905080610cc25750610f39565b6000610cd58266b1a2bc2ec50000611e79565b905060007f00000000000000000000000000000000000000000000000000000000000000006001600160a01b0316635b068af86040518163ffffffff1660e01b815260040160206040518083038186803b158015610d3257600080fd5b505afa158015610d46573d6000803e3d6000fd5b505050506040513d601f19601f82011682018060405250810190610d6a9190612b42565b9050610d8b736694340fc020c5e6b96567843da2df01b2ce1eb68284611b5f565b6000610dd886868080601f016020809104026020016040519081016040528093929190818152602001838380828437600092019190915250610dd3925087915088905061301d565b611ea7565b6040516321ec87bf60e21b815260016004820152602481018290523060448201529091507353bf833a5d6c4dda888f69c22c88c9f356a41614906387b21efc90606401600060405180830381600087803b158015610e3557600080fd5b505af1158015610e49573d6000803e3d6000fd5b5050505073ea8dfee1898a7e0a59f7527f076106d7e44c21766001600160a01b031663e2bbb158601454610e9073892785f33cdee22a30aef750f285e18c18040c3e611b37565b6040516001600160e01b031960e085901b16815260048101929092526024820152604401600060405180830381600087803b158015610ece57600080fd5b505af1158015610ee2573d6000803e3d6000fd5b5050426015555050604080518581526000602082015280820185905260608101839052905133917fc3845dedfc73729f4e3f721a87d9d20faf4551971c95726cf144e087da34ef2c919081900360800190a2505050505b610a1a611e31565b60125460009080610f5457600091505090565b610bb981600854610f659190612fc6565b8290611de2565b6000805460ff16610f90576040516306fda65d60e31b815260040160405180910390fd5b6000805460ff19169055610fa2611e31565b610fd77f00000000000000000000000000000000000000000000000000000000000000006001600160a01b03163330866120e1565b6000610fe161212f565b9050610fec846122d8565b6000610ff661212f565b9050611013611003610b91565b61100d848461301d565b90611de2565b9250600083116110365760405163f1ca48b160e01b815260040160405180910390fd5b60045461105a5761104b61dead6103e86123e6565b6110576103e88461301d565b92505b61106484846123e6565b60408051868152602081018590526001600160a01b0386169133917fdcbc1c05240f31ff3ad067ef1ee35ce4997762752e3a095284754544f4c709d7910160405180910390a350506110b4611e31565b6000805460ff1916600117905592915050565b6001600160a01b03811660009081526011602090815260408083208151808301909252546001600160701b038082168352600160701b90910416918101829052906111155750600092915050565b60135460208201518251610b8a926001600160701b03918216929082169116612499565b600280546108a190613089565b6013544290600160e01b900463ffffffff908116908216811415611168575050565b601380547bffffffffffffffffffffffffffffffffffffffffffffffffffffffff16600160e01b63ffffffff85160217905560006111a68284613034565b60125460085460135492935090916001600160701b0316826111ca57505050505050565b60006111d68385612548565b905060006111ea63ffffffff871683612ffe565b905060006111f88287611e79565b90506112048187612fc6565b95506112108285611e79565b61121a9085612fc6565b6012879055601380546001600160e01b031916600160701b6001600160701b03878116919091026dffffffffffffffffffffffffffff191691909117908316179055604080518781526020810184905290810182905260608101889052608081018590529094507f717fee053884ab1935ba6d0140f6ed225371439611d9674ff445419d6a0fa1b79060a00160405180910390a1505050505050505050565b600061092f338484611cbf565b6000806112fb600f54670de0b6b3a76400006112e2919061301d565b601354600160701b90046001600160701b031690611e79565b90508061130a57600091505090565b600061132860125460085461131f9190612fc6565b60125490611de2565b90506113348183611e79565b9250505090565b61135981611348836110c7565b6013546001600160701b03166125ea565b50565b6000805460ff16611380576040516306fda65d60e31b815260040160405180910390fd5b6000805460ff19169055611392611e31565b336001600160a01b03831614611400576001600160a01b038216600090815260066020908152604080832033845290915290205460001981146113fe576113d9858261301d565b6001600160a01b03841660009081526006602090815260408083203384529091529020555b505b61141261140b610b91565b8590611e79565b9050600081116114355760405163e3e8d29760e01b815260040160405180910390fd5b61143e81612696565b61144882856128e6565b61147c6001600160a01b037f0000000000000000000000000000000000000000000000000000000000000000168483611b5f565b816001600160a01b0316836001600160a01b03166114973390565b6001600160a01b03167ffbde797d201c681b91056529119e0b02407c7bb96a4a2c75c01fc9667232c8db84886040516114da929190918252602082015260400190565b60405180910390a46114ea611e31565b6000805460ff191660011790559392505050565b6001600160a01b03871661152557604051639a321bc760e01b815260040160405180910390fd5b6001600160a01b03861661154c576040516353fbd1d760e01b815260040160405180910390fd5b428410156115765760405163075dd20f60e41b8152426004820152602481018590526044016109f0565b6001600160a01b0387811660008181526007602090815260408083208054600180820190925582517f6e71edae12b1b97f4d1f60370fef10105fa2faae0126114a169c64845d6126c98186015280840196909652958c166060860152608085018b905260a085019590955260c08085018a90528151808603909101815260e08501825280519083012061190160f01b6101008601527f000000000000000000000000000000000000000000000000000000000000000061010286015261012280860182905282518087039091018152610142860180845281519185019190912090859052610162860180845281905260ff8a166101828701526101a286018990526101c2860188905291519095919491926101e2808401939192601f1981019281900390910190855afa1580156116b1573d6000803e3d6000fd5b5050604051601f1901519150506001600160a01b0381166116e557604051637386dbbb60e11b815260040160405180910390fd5b896001600160a01b0316816001600160a01b0316146117395760405163a1d5f2ed60e01b81526001600160a01b038b16600482015260ff8716602482015260448101869052606481018590526084016109f0565b6001600160a01b038a81166000818152600660209081526040808320948e16808452948252918290208c905590518b81527f8c5be1e5ebec7d5bd14f71427d1e84f3dd0314c0f7b2291e5b200ac8c7c3b925910160405180910390a350505050505050505050565b60005460ff166117c4576040516306fda65d60e31b815260040160405180910390fd5b6000805460ff191690556117d6611a68565b60001960145414156117e85760148190555b6118297f00000000000000000000000000000000000000000000000000000000000000007353bf833a5d6c4dda888f69c22c88c9f356a41614600019612991565b61185e73892785f33cdee22a30aef750f285e18c18040c3e73ea8dfee1898a7e0a59f7527f076106d7e44c2176600019612991565b604080516001600160a01b037f00000000000000000000000000000000000000000000000000000000000000001681527f00000000000000000000000000000000000000000000000000000000000000006020820152338183015290517f98ccebae89f16f152c93c6a0cdc0d99913b9e62a9fc612471c21ffc299c389fd9181900360600190a1506000805460ff19166001179055565b33321461191d57604051633172e8e760e01b81523360048201523260248201526044016109f0565b565b601454604051631c57762b60e31b815260009173ea8dfee1898a7e0a59f7527f076106d7e44c21769163e2bbb15891611965918590600401918252602082015260400190565b600060405180830381600087803b15801561197f57600080fd5b505af1158015611993573d6000803e3d6000fd5b505050506119b4736694340fc020c5e6b96567843da2df01b2ce1eb6611b37565b905090565b6001600160a01b0383166119e0576040516317ba2d8b60e11b815260040160405180910390fd5b6001600160a01b038216611a0757604051632cc8a69760e11b815260040160405180910390fd5b6001600160a01b0383811660008181526006602090815260408083209487168084529482529182902085905590518481527f8c5be1e5ebec7d5bd14f71427d1e84f3dd0314c0f7b2291e5b200ac8c7c3b925910160405180910390a3505050565b60007f00000000000000000000000000000000000000000000000000000000000000006001600160a01b031663f851a4406040518163ffffffff1660e01b815260040160206040518083038186803b158015611ac357600080fd5b505afa158015611ad7573d6000803e3d6000fd5b505050506040513d601f19601f82011682018060405250810190611afb9190612b42565b9050336001600160a01b0382161461135957604051633e7c764160e21b81523360048201526001600160a01b03821660248201526044016109f0565b60006370a08231600052306020526020806024601c855afa601f3d1116602051029050919050565b81601a5280603a5269a9059cbb00000000000060005260206000604460166000875af13d156001600051141716611b9e576390b8ec186000526004601cfd5b6000603a52505050565b82811080611bb557508181115b15611be457604051639e7fe3bd60e01b81526004810184905260248101839052604481018290526064016109f0565b505050565b611bfd600067016345785d8a000086611ba8565b611c186706f05b59d3b20000670d2f13f7789f000083611ba8565b611c256001600a84611ba8565b611c336301e1338085612fde565b600a55611c4e611c47826301e13380612ffe565b8490611de2565b600b55600e829055600d819055611c6e8161100d85856301e13380612499565b600c556040805185815260208101859052908101839052606081018290527ff58b8cc439edada25fd9495b7364aeb1d737dbef59be1cf62e0cc4001c44a3cd9060800160405180910390a150505050565b6001600160a01b038316611ce65760405163618a6e7d60e11b815260040160405180910390fd5b6001600160a01b038216611d0d5760405163446ebce960e01b815260040160405180910390fd5b6001600160a01b03831660009081526005602052604090205481811015611d515760405163355a868d60e01b815260048101829052602481018390526044016109f0565b6001600160a01b03808516600090815260056020526040808220858503905591851681529081208054849290611d88908490612fc6565b92505081905550826001600160a01b0316846001600160a01b03167fddf252ad1be2c89b69c2b068fc378daa952ba7f163c4a11628f55a4df523b3ef84604051611dd491815260200190565b60405180910390a350505050565b60007812725dd1d243aba0e75fe645cc4873f9e65afe688c928e1f218311670de0b6b3a764000002158202611e1f57637c5f487d6000526004601cfd5b50670de0b6b3a7640000919091020490565b6000611e3b61212f565b60088190556040518181529091507f8a0df8ef054fae2c3d2d19a7b322e864870cc9fd3cb07fb9526309c596244bf49060200160405180910390a150565b600081600019048311820215611e975763bac65e5b6000526004601cfd5b50670de0b6b3a764000091020490565b60008060008085806020019051810190611ec19190612b5e565b9350509250925084826080015114611edb57608082018590525b81516001600160a01b0316736694340fc020c5e6b96567843da2df01b2ce1eb614611f415781516040516321f609b560e01b81526001600160a01b039091166004820152736694340fc020c5e6b96567843da2df01b2ce1eb660248201526044016109f0565b7f00000000000000000000000000000000000000000000000000000000000000006001600160a01b031682602001516001600160a01b031614611fd15760208201516040516310f88e6d60e01b81526001600160a01b0391821660048201527f000000000000000000000000000000000000000000000000000000000000000090911660248201526044016109f0565b60608201516001600160a01b031630146120155760608201516040516329855a9360e01b81526001600160a01b0390911660048201523060248201526044016109f0565b61203c8260000151731111111254eeb25477b68fb85ed929f73a9605828460800151612991565b604080516000815260208101918290526312aa3caf60e01b909152731111111254eeb25477b68fb85ed929f73a960582906312aa3caf9061208590869086908660248201612ef9565b6040805180830381600087803b15801561209e57600080fd5b505af11580156120b2573d6000803e3d6000fd5b505050506040513d601f19601f820116820180604052508101906120d69190612e79565b509695505050505050565b6040516323b872dd600052836020528260405281606052602060006064601c6000895af13d15600160005114171661212157637939f4246000526004601cfd5b600060605260405250505050565b6014546040516393f1a40b60e01b81526004810191909152306024820152600090819073ea8dfee1898a7e0a59f7527f076106d7e44c2176906393f1a40b90604401604080518083038186803b15801561218857600080fd5b505afa15801561219c573d6000803e3d6000fd5b505050506040513d601f19601f820116820180604052508101906121c09190612e79565b509050610bb973892785f33cdee22a30aef750f285e18c18040c3e6001600160a01b03166315770f926040518163ffffffff1660e01b815260040160206040518083038186803b15801561221357600080fd5b505afa158015612227573d6000803e3d6000fd5b505050506040513d601f19601f8201168201806040525081019061224b9190612dfc565b73892785f33cdee22a30aef750f285e18c18040c3e6001600160a01b03166318160ddd6040518163ffffffff1660e01b815260040160206040518083038186803b15801561229857600080fd5b505afa1580156122ac573d6000803e3d6000fd5b505050506040513d601f19601f820116820180604052508101906122d09190612dfc565b839190612499565b6040516321ec87bf60e21b815260016004820152602481018290523060448201527353bf833a5d6c4dda888f69c22c88c9f356a41614906387b21efc90606401600060405180830381600087803b15801561233257600080fd5b505af1158015612346573d6000803e3d6000fd5b5050505073ea8dfee1898a7e0a59f7527f076106d7e44c21766001600160a01b031663e2bbb15860145461238d73892785f33cdee22a30aef750f285e18c18040c3e611b37565b6040516001600160e01b031960e085901b16815260048101929092526024820152604401600060405180830381600087803b1580156123cb57600080fd5b505af11580156123df573d6000803e3d6000fd5b5050505050565b6001600160a01b03821661240d5760405163237813dd60e01b815260040160405180910390fd5b6001600160a01b03821660009081526005602052604081208054839290612435908490612fc6565b92505081905550806004600082825461244e9190612fc6565b90915550506040518181526001600160a01b038316906000907fddf252ad1be2c89b69c2b068fc378daa952ba7f163c4a11628f55a4df523b3ef906020015b60405180910390a35050565b600083830260001984860981811082019003806124ce57836124c35763ae47f7026000526004601cfd5b508290049050610b8a565b8084116124e35763ae47f7026000526004601cfd5b838587096000858103861695869004956003870260029081188089028203028089028203028089028203028089028203028089028203028089029091030291819003819004600101858411909403939093029190930391909104170290509392505050565b600080612558611c478486612fc6565b9050600d54811161258657600a54600b54612574908390611e79565b61257e9190612fc6565b915050610933565b6000600a546125a2600b54600d54611e7990919063ffffffff16565b6125ac9190612fc6565b90506000600d54836125be919061301d565b9050816125d6600c5483611e7990919063ffffffff16565b6125e09190612fc6565b9695505050505050565b6009546001600160a01b0316806126015750505050565b604051632b7cf7cb60e11b81527f000000000000000000000000000000000000000000000000000000000000000060048201526001600160a01b03858116602483015260448201859052606482018490528216906356f9ef9690608401600060405180830381600087803b15801561267857600080fd5b505af115801561268c573d6000803e3d6000fd5b5050505050505050565b60006127ad73892785f33cdee22a30aef750f285e18c18040c3e6001600160a01b03166318160ddd6040518163ffffffff1660e01b815260040160206040518083038186803b1580156126e857600080fd5b505afa1580156126fc573d6000803e3d6000fd5b505050506040513d601f19601f820116820180604052508101906127209190612dfc565b73892785f33cdee22a30aef750f285e18c18040c3e6001600160a01b03166315770f926040518163ffffffff1660e01b815260040160206040518083038186803b15801561276d57600080fd5b505afa158015612781573d6000803e3d6000fd5b505050506040513d601f19601f820116820180604052508101906127a59190612dfc565b849190612a33565b601454604051630441a3e760e41b815291925073ea8dfee1898a7e0a59f7527f076106d7e44c21769163441a3e70916127f3918590600401918252602082015260400190565b600060405180830381600087803b15801561280d57600080fd5b505af1158015612821573d6000803e3d6000fd5b505050507353bf833a5d6c4dda888f69c22c88c9f356a416146001600160a01b031663c4de93a5600161286773892785f33cdee22a30aef750f285e18c18040c3e611b37565b6040516001600160e01b031960e085901b16815261ffff90921660048301526024820152306044820152606401602060405180830381600087803b1580156128ae57600080fd5b505af11580156128c2573d6000803e3d6000fd5b505050506040513d601f19601f82011682018060405250810190611be49190612dfc565b6001600160a01b03821661290d57604051630b5da42b60e01b815260040160405180910390fd5b6001600160a01b0382166000908152600560205260408120805483929061293590849061301d565b92505081905550806004600082825461294e919061301d565b90915550506040518181526000906001600160a01b038416907fddf252ad1be2c89b69c2b068fc378daa952ba7f163c4a11628f55a4df523b3ef9060200161248d565b604051636eb1769f60e11b81523060048201526001600160a01b03838116602483015282919085169063dd62ed3e9060440160206040518083038186803b1580156129db57600080fd5b505afa1580156129ef573d6000803e3d6000fd5b505050506040513d601f19601f82011682018060405250810190612a139190612dfc565b10612a1d57505050565b611be46001600160a01b03841683600019612a6b565b6000612a40848484612499565b90508183850915610b8a5760018101612a615763ae47f7026000526004601cfd5b6001019392505050565b81601a5280603a5269095ea7b300000000000060005260206000604460166000875af13d156001600051141716611b9e57633e3f8f736000526004601cfd5b600082601f830112612aba578081fd5b815167ffffffffffffffff80821115612ad557612ad56130da565b604051601f8301601f19908116603f01168101908282118183101715612afd57612afd6130da565b81604052838152866020858801011115612b15578485fd5b6125e0846020830160208901613059565b600060208284031215612b37578081fd5b8135610b8a816130f0565b600060208284031215612b53578081fd5b8151610b8a816130f0565b600080600080848603610140811215612b75578384fd5b8551612b80816130f0565b945060e0601f1982011215612b93578384fd5b50612b9c612f9d565b6020860151612baa816130f0565b81526040860151612bba816130f0565b60208201526060860151612bcd816130f0565b60408201526080860151612be0816130f0565b8060608301525060a0860151608082015260c086015160a082015260e086015160c08201528093505061010085015167ffffffffffffffff80821115612c24578384fd5b612c3088838901612aaa565b9350610120870151915080821115612c46578283fd5b50612c5387828801612aaa565b91505092959194509250565b60008060408385031215612c71578182fd5b8235612c7c816130f0565b91506020830135612c8c816130f0565b809150509250929050565b600080600060608486031215612cab578283fd5b8335612cb6816130f0565b92506020840135612cc6816130f0565b929592945050506040919091013590565b600080600080600080600060e0888a031215612cf1578283fd5b8735612cfc816130f0565b96506020880135612d0c816130f0565b95506040880135945060608801359350608088013560ff81168114612d2f578384fd5b9699959850939692959460a0840135945060c09093013592915050565b60008060408385031215612d5e578182fd5b8235612d69816130f0565b946020939093013593505050565b60008060208385031215612d89578182fd5b823567ffffffffffffffff80821115612da0578384fd5b818501915085601f830112612db3578384fd5b813581811115612dc1578485fd5b866020828501011115612dd2578485fd5b60209290920196919550909350505050565b600060208284031215612df5578081fd5b5035919050565b600060208284031215612e0d578081fd5b5051919050565b60008060408385031215612e26578182fd5b823591506020830135612c8c816130f0565b600080600060608486031215612e4c578081fd5b833592506020840135612e5e816130f0565b91506040840135612e6e816130f0565b809150509250925092565b60008060408385031215612e8b578182fd5b505080516020909101519092909150565b60008060008060808587031215612eb1578182fd5b5050823594602084013594506040840135936060013592509050565b60008151808452612ee5816020860160208601613059565b601f01601f19169290920160200192915050565b60006101406001600160a01b03808816845280875116602085015280602088015116604085015280604088015116606085015280606088015116608085015250608086015160a084015260a086015160c084015260c086015160e084015280610100840152612f6a81840186612ecd565b9050828103610120840152612f7f8185612ecd565b979650505050505050565b602081526000610b8a6020830184612ecd565b60405160e0810167ffffffffffffffff81118282101715612fc057612fc06130da565b60405290565b60008219821115612fd957612fd96130c4565b500190565b600082612ff957634e487b7160e01b81526012600452602481fd5b500490565b6000816000190483118215151615613018576130186130c4565b500290565b60008282101561302f5761302f6130c4565b500390565b600063ffffffff83811690831681811015613051576130516130c4565b039392505050565b60005b8381101561307457818101518382015260200161305c565b83811115613083576000848401525b50505050565b600181811c9082168061309d57607f821691505b602082108114156130be57634e487b7160e01b600052602260045260246000fd5b50919050565b634e487b7160e01b600052601160045260246000fd5b634e487b7160e01b600052604160045260246000fd5b6001600160a01b038116811461135957600080fdfea264697066735822122019f4a6a4a3b30d6f12db75ff844887c9d0b7232dbbbff0a960fd3df7bf7a59af64736f6c63430008040033",
  "linkReferences": {},
  "deployedLinkReferences": {}
}