{
  "_format": "hh-sol-artifact-1",
  "contractName": "CygnusBorrowVoid",
  "sourceName": "contracts/cygnus-core/CygnusBorrowVoid.sol",
  "abi": [
    {
      "inputs": [],
      "stateMutability": "nonpayable",
      "type": "constructor"
    },
    {
      "inputs": [],
      "name": "CygnusBorrowControl__ParameterNotInRange",
      "type": "error"
    },
    {
      "inputs": [],
      "name": "CygnusBorrowVoid__CTokenError",
      "type": "error"
    },
    {
      "inputs": [],
      "name": "CygnusBorrowVoid__OnlyHarvesterAllowed",
      "type": "error"
    },
    {
      "inputs": [],
      "name": "CygnusTerminal__CantMintZeroShares",
      "type": "error"
    },
    {
      "inputs": [],
      "name": "CygnusTerminal__CantRedeemZeroAssets",
      "type": "error"
    },
    {
      "inputs": [],
      "name": "CygnusTerminal__CantSweepUnderlying",
      "type": "error"
    },
    {
      "inputs": [],
      "name": "CygnusTerminal__MsgSenderNotAdmin",
      "type": "error"
    },
    {
      "inputs": [
        {
          "internalType": "address",
          "name": "owner",
          "type": "address"
        },
        {
          "internalType": "uint8",
          "name": "v",
          "type": "uint8"
        },
        {
          "internalType": "bytes32",
          "name": "r",
          "type": "bytes32"
        },
        {
          "internalType": "bytes32",
          "name": "s",
          "type": "bytes32"
        }
      ],
      "name": "ERC20Permit_InvalidSignature",
      "type": "error"
    },
    {
      "inputs": [],
      "name": "ERC20Permit_OwnerZeroAddress",
      "type": "error"
    },
    {
      "inputs": [
        {
          "internalType": "uint256",
          "name": "currentTime",
          "type": "uint256"
        },
        {
          "internalType": "uint256",
          "name": "deadline",
          "type": "uint256"
        }
      ],
      "name": "ERC20Permit_PermitExpired",
      "type": "error"
    },
    {
      "inputs": [],
      "name": "ERC20Permit_RecoveredOwnerZeroAddress",
      "type": "error"
    },
    {
      "inputs": [],
      "name": "ERC20Permit_SpenderZeroAddress",
      "type": "error"
    },
    {
      "inputs": [],
      "name": "ERC20_ApproveOwnerZeroAddress",
      "type": "error"
    },
    {
      "inputs": [],
      "name": "ERC20_ApproveSpenderZeroAddress",
      "type": "error"
    },
    {
      "inputs": [],
      "name": "ERC20_BurnHolderZeroAddress",
      "type": "error"
    },
    {
      "inputs": [
        {
          "internalType": "uint256",
          "name": "senderBalance",
          "type": "uint256"
        },
        {
          "internalType": "uint256",
          "name": "transferAmount",
          "type": "uint256"
        }
      ],
      "name": "ERC20_FromInsufficientBalance",
      "type": "error"
    },
    {
      "inputs": [
        {
          "internalType": "address",
          "name": "owner",
          "type": "address"
        },
        {
          "internalType": "address",
          "name": "spender",
          "type": "address"
        },
        {
          "internalType": "uint256",
          "name": "allowance",
          "type": "uint256"
        },
        {
          "internalType": "uint256",
          "name": "transferAmount",
          "type": "uint256"
        }
      ],
      "name": "ERC20_InsufficientAllowance",
      "type": "error"
    },
    {
      "inputs": [],
      "name": "ERC20_MintBeneficiaryZeroAddress",
      "type": "error"
    },
    {
      "inputs": [],
      "name": "ERC20_TransferFromZeroAddress",
      "type": "error"
    },
    {
      "inputs": [],
      "name": "ERC20_TransferToZeroAddress",
      "type": "error"
    },
    {
      "inputs": [],
      "name": "ReentrantCall",
      "type": "error"
    },
    {
      "anonymous": false,
      "inputs": [
        {
          "indexed": false,
          "internalType": "uint256",
          "name": "cashStored",
          "type": "uint256"
        },
        {
          "indexed": false,
          "internalType": "uint256",
          "name": "totalBorrowsStored",
          "type": "uint256"
        },
        {
          "indexed": false,
          "internalType": "uint256",
          "name": "interestAccumulated",
          "type": "uint256"
        }
      ],
      "name": "AccrueInterest",
      "type": "event"
    },
    {
      "anonymous": false,
      "inputs": [
        {
          "indexed": true,
          "internalType": "address",
          "name": "owner",
          "type": "address"
        },
        {
          "indexed": true,
          "internalType": "address",
          "name": "spender",
          "type": "address"
        },
        {
          "indexed": false,
          "internalType": "uint256",
          "name": "value",
          "type": "uint256"
        }
      ],
      "name": "Approval",
      "type": "event"
    },
    {
      "anonymous": false,
      "inputs": [
        {
          "indexed": false,
          "internalType": "address",
          "name": "underlying",
          "type": "address"
        },
        {
          "indexed": false,
          "internalType": "uint256",
          "name": "shuttleId",
          "type": "uint256"
        },
        {
          "indexed": false,
          "internalType": "address",
          "name": "sender",
          "type": "address"
        }
      ],
      "name": "ChargeVoid",
      "type": "event"
    },
    {
      "anonymous": false,
      "inputs": [
        {
          "indexed": true,
          "internalType": "address",
          "name": "sender",
          "type": "address"
        },
        {
          "indexed": true,
          "internalType": "address",
          "name": "recipient",
          "type": "address"
        },
        {
          "indexed": false,
          "internalType": "uint256",
          "name": "assets",
          "type": "uint256"
        },
        {
          "indexed": false,
          "internalType": "uint256",
          "name": "shares",
          "type": "uint256"
        }
      ],
      "name": "Deposit",
      "type": "event"
    },
    {
      "anonymous": false,
      "inputs": [
        {
          "indexed": false,
          "internalType": "address",
          "name": "oldBorrowRewarder",
          "type": "address"
        },
        {
          "indexed": false,
          "internalType": "address",
          "name": "newBorrowRewarder",
          "type": "address"
        }
      ],
      "name": "NewCygnusBorrowRewarder",
      "type": "event"
    },
    {
      "anonymous": false,
      "inputs": [
        {
          "indexed": false,
          "internalType": "contract ICygnusHarvester",
          "name": "oldHarvester",
          "type": "address"
        },
        {
          "indexed": false,
          "internalType": "contract ICygnusHarvester",
          "name": "newHarvester",
          "type": "address"
        }
      ],
      "name": "NewHarvester",
      "type": "event"
    },
    {
      "anonymous": false,
      "inputs": [
        {
          "indexed": false,
          "internalType": "uint256",
          "name": "baseRatePerYear",
          "type": "uint256"
        },
        {
          "indexed": false,
          "internalType": "uint256",
          "name": "multiplierPerYear",
          "type": "uint256"
        },
        {
          "indexed": false,
          "internalType": "uint256",
          "name": "kinkMultiplier_",
          "type": "uint256"
        },
        {
          "indexed": false,
          "internalType": "uint256",
          "name": "kinkUtilizationRate_",
          "type": "uint256"
        }
      ],
      "name": "NewInterestRateParameters",
      "type": "event"
    },
    {
      "anonymous": false,
      "inputs": [
        {
          "indexed": false,
          "internalType": "uint256",
          "name": "oldReserveFactor",
          "type": "uint256"
        },
        {
          "indexed": false,
          "internalType": "uint256",
          "name": "newReserveFactor",
          "type": "uint256"
        }
      ],
      "name": "NewReserveFactor",
      "type": "event"
    },
    {
      "anonymous": false,
      "inputs": [
        {
          "indexed": true,
          "internalType": "address",
          "name": "reinvestor",
          "type": "address"
        },
        {
          "indexed": false,
          "internalType": "uint256",
          "name": "liquidity",
          "type": "uint256"
        },
        {
          "indexed": false,
          "internalType": "uint256",
          "name": "timestamp",
          "type": "uint256"
        }
      ],
      "name": "RechargeVoid",
      "type": "event"
    },
    {
      "anonymous": false,
      "inputs": [
        {
          "indexed": false,
          "internalType": "uint160",
          "name": "totalBalance",
          "type": "uint160"
        }
      ],
      "name": "Sync",
      "type": "event"
    },
    {
      "anonymous": false,
      "inputs": [
        {
          "indexed": true,
          "internalType": "address",
          "name": "from",
          "type": "address"
        },
        {
          "indexed": true,
          "internalType": "address",
          "name": "to",
          "type": "address"
        },
        {
          "indexed": false,
          "internalType": "uint256",
          "name": "amount",
          "type": "uint256"
        }
      ],
      "name": "Transfer",
      "type": "event"
    },
    {
      "anonymous": false,
      "inputs": [
        {
          "indexed": true,
          "internalType": "address",
          "name": "sender",
          "type": "address"
        },
        {
          "indexed": true,
          "internalType": "address",
          "name": "recipient",
          "type": "address"
        },
        {
          "indexed": true,
          "internalType": "address",
          "name": "owner",
          "type": "address"
        },
        {
          "indexed": false,
          "internalType": "uint256",
          "name": "assets",
          "type": "uint256"
        },
        {
          "indexed": false,
          "internalType": "uint256",
          "name": "shares",
          "type": "uint256"
        }
      ],
      "name": "Withdraw",
      "type": "event"
    },
    {
      "inputs": [],
      "name": "DOMAIN_SEPARATOR",
      "outputs": [
        {
          "internalType": "bytes32",
          "name": "",
          "type": "bytes32"
        }
      ],
      "stateMutability": "view",
      "type": "function"
    },
    {
      "inputs": [],
      "name": "PERMIT2",
      "outputs": [
        {
          "internalType": "contract IAllowanceTransfer",
          "name": "",
          "type": "address"
        }
      ],
      "stateMutability": "view",
      "type": "function"
    },
    {
      "inputs": [],
      "name": "PERMIT_TYPEHASH",
      "outputs": [
        {
          "internalType": "bytes32",
          "name": "",
          "type": "bytes32"
        }
      ],
      "stateMutability": "view",
      "type": "function"
    },
    {
      "inputs": [],
      "name": "accrueInterest",
      "outputs": [],
      "stateMutability": "nonpayable",
      "type": "function"
    },
    {
      "inputs": [
        {
          "internalType": "address",
          "name": "owner",
          "type": "address"
        },
        {
          "internalType": "address",
          "name": "spender",
          "type": "address"
        }
      ],
      "name": "allowance",
      "outputs": [
        {
          "internalType": "uint256",
          "name": "",
          "type": "uint256"
        }
      ],
      "stateMutability": "view",
      "type": "function"
    },
    {
      "inputs": [
        {
          "internalType": "address",
          "name": "spender",
          "type": "address"
        },
        {
          "internalType": "uint256",
          "name": "value",
          "type": "uint256"
        }
      ],
      "name": "approve",
      "outputs": [
        {
          "internalType": "bool",
          "name": "",
          "type": "bool"
        }
      ],
      "stateMutability": "nonpayable",
      "type": "function"
    },
    {
      "inputs": [
        {
          "internalType": "address",
          "name": "account",
          "type": "address"
        }
      ],
      "name": "balanceOf",
      "outputs": [
        {
          "internalType": "uint256",
          "name": "",
          "type": "uint256"
        }
      ],
      "stateMutability": "view",
      "type": "function"
    },
    {
      "inputs": [],
      "name": "baseRatePerSecond",
      "outputs": [
        {
          "internalType": "uint256",
          "name": "",
          "type": "uint256"
        }
      ],
      "stateMutability": "view",
      "type": "function"
    },
    {
      "inputs": [],
      "name": "borrowIndex",
      "outputs": [
        {
          "internalType": "uint80",
          "name": "",
          "type": "uint80"
        }
      ],
      "stateMutability": "view",
      "type": "function"
    },
    {
      "inputs": [],
      "name": "borrowRate",
      "outputs": [
        {
          "internalType": "uint48",
          "name": "",
          "type": "uint48"
        }
      ],
      "stateMutability": "view",
      "type": "function"
    },
    {
      "inputs": [],
      "name": "chargeVoid",
      "outputs": [],
      "stateMutability": "nonpayable",
      "type": "function"
    },
    {
      "inputs": [],
      "name": "collateral",
      "outputs": [
        {
          "internalType": "address",
          "name": "",
          "type": "address"
        }
      ],
      "stateMutability": "view",
      "type": "function"
    },
    {
      "inputs": [],
      "name": "cygnusBorrowRewarder",
      "outputs": [
        {
          "internalType": "address",
          "name": "",
          "type": "address"
        }
      ],
      "stateMutability": "view",
      "type": "function"
    },
    {
      "inputs": [],
      "name": "cygnusNebulaOracle",
      "outputs": [
        {
          "internalType": "contract ICygnusNebulaOracle",
          "name": "",
          "type": "address"
        }
      ],
      "stateMutability": "view",
      "type": "function"
    },
    {
      "inputs": [],
      "name": "decimals",
      "outputs": [
        {
          "internalType": "uint8",
          "name": "",
          "type": "uint8"
        }
      ],
      "stateMutability": "view",
      "type": "function"
    },
    {
      "inputs": [
        {
          "internalType": "address",
          "name": "spender",
          "type": "address"
        },
        {
          "internalType": "uint256",
          "name": "value",
          "type": "uint256"
        }
      ],
      "name": "decreaseAllowance",
      "outputs": [
        {
          "internalType": "bool",
          "name": "",
          "type": "bool"
        }
      ],
      "stateMutability": "nonpayable",
      "type": "function"
    },
    {
      "inputs": [
        {
          "internalType": "uint256",
          "name": "assets",
          "type": "uint256"
        },
        {
          "internalType": "address",
          "name": "recipient",
          "type": "address"
        },
        {
          "components": [
            {
              "components": [
                {
                  "internalType": "address",
                  "name": "token",
                  "type": "address"
                },
                {
                  "internalType": "uint160",
                  "name": "amount",
                  "type": "uint160"
                },
                {
                  "internalType": "uint48",
                  "name": "expiration",
                  "type": "uint48"
                },
                {
                  "internalType": "uint48",
                  "name": "nonce",
                  "type": "uint48"
                }
              ],
              "internalType": "struct IAllowanceTransfer.PermitDetails",
              "name": "details",
              "type": "tuple"
            },
            {
              "internalType": "address",
              "name": "spender",
              "type": "address"
            },
            {
              "internalType": "uint256",
              "name": "sigDeadline",
              "type": "uint256"
            }
          ],
          "internalType": "struct IAllowanceTransfer.PermitSingle",
          "name": "_permit",
          "type": "tuple"
        },
        {
          "internalType": "bytes",
          "name": "signature",
          "type": "bytes"
        }
      ],
      "name": "deposit",
      "outputs": [
        {
          "internalType": "uint256",
          "name": "shares",
          "type": "uint256"
        }
      ],
      "stateMutability": "nonpayable",
      "type": "function"
    },
    {
      "inputs": [],
      "name": "exchangeRate",
      "outputs": [
        {
          "internalType": "uint256",
          "name": "",
          "type": "uint256"
        }
      ],
      "stateMutability": "nonpayable",
      "type": "function"
    },
    {
      "inputs": [],
      "name": "exchangeRateStored",
      "outputs": [
        {
          "internalType": "uint256",
          "name": "",
          "type": "uint256"
        }
      ],
      "stateMutability": "view",
      "type": "function"
    },
    {
      "inputs": [
        {
          "internalType": "address",
          "name": "borrower",
          "type": "address"
        }
      ],
      "name": "getBorrowBalance",
      "outputs": [
        {
          "internalType": "uint256",
          "name": "",
          "type": "uint256"
        }
      ],
      "stateMutability": "view",
      "type": "function"
    },
    {
      "inputs": [],
      "name": "getRewards",
      "outputs": [
        {
          "internalType": "address[]",
          "name": "tokens",
          "type": "address[]"
        },
        {
          "internalType": "uint256[]",
          "name": "amounts",
          "type": "uint256[]"
        }
      ],
      "stateMutability": "nonpayable",
      "type": "function"
    },
    {
      "inputs": [],
      "name": "hangar18",
      "outputs": [
        {
          "internalType": "contract IHangar18",
          "name": "",
          "type": "address"
        }
      ],
      "stateMutability": "view",
      "type": "function"
    },
    {
      "inputs": [],
      "name": "harvester",
      "outputs": [
        {
          "internalType": "contract ICygnusHarvester",
          "name": "",
          "type": "address"
        }
      ],
      "stateMutability": "view",
      "type": "function"
    },
    {
      "inputs": [
        {
          "internalType": "address",
          "name": "spender",
          "type": "address"
        },
        {
          "internalType": "uint256",
          "name": "value",
          "type": "uint256"
        }
      ],
      "name": "increaseAllowance",
      "outputs": [
        {
          "internalType": "bool",
          "name": "",
          "type": "bool"
        }
      ],
      "stateMutability": "nonpayable",
      "type": "function"
    },
    {
      "inputs": [],
      "name": "jumpMultiplierPerSecond",
      "outputs": [
        {
          "internalType": "uint256",
          "name": "",
          "type": "uint256"
        }
      ],
      "stateMutability": "view",
      "type": "function"
    },
    {
      "inputs": [],
      "name": "kinkMultiplier",
      "outputs": [
        {
          "internalType": "uint256",
          "name": "",
          "type": "uint256"
        }
      ],
      "stateMutability": "view",
      "type": "function"
    },
    {
      "inputs": [],
      "name": "kinkUtilizationRate",
      "outputs": [
        {
          "internalType": "uint256",
          "name": "",
          "type": "uint256"
        }
      ],
      "stateMutability": "view",
      "type": "function"
    },
    {
      "inputs": [],
      "name": "lastAccrualTimestamp",
      "outputs": [
        {
          "internalType": "uint32",
          "name": "",
          "type": "uint32"
        }
      ],
      "stateMutability": "view",
      "type": "function"
    },
    {
      "inputs": [],
      "name": "lastReinvest",
      "outputs": [
        {
          "internalType": "uint256",
          "name": "",
          "type": "uint256"
        }
      ],
      "stateMutability": "view",
      "type": "function"
    },
    {
      "inputs": [],
      "name": "multiplierPerSecond",
      "outputs": [
        {
          "internalType": "uint256",
          "name": "",
          "type": "uint256"
        }
      ],
      "stateMutability": "view",
      "type": "function"
    },
    {
      "inputs": [],
      "name": "name",
      "outputs": [
        {
          "internalType": "string",
          "name": "",
          "type": "string"
        }
      ],
      "stateMutability": "view",
      "type": "function"
    },
    {
      "inputs": [
        {
          "internalType": "address",
          "name": "",
          "type": "address"
        }
      ],
      "name": "nonces",
      "outputs": [
        {
          "internalType": "uint256",
          "name": "",
          "type": "uint256"
        }
      ],
      "stateMutability": "view",
      "type": "function"
    },
    {
      "inputs": [
        {
          "internalType": "address",
          "name": "owner",
          "type": "address"
        },
        {
          "internalType": "address",
          "name": "spender",
          "type": "address"
        },
        {
          "internalType": "uint256",
          "name": "value",
          "type": "uint256"
        },
        {
          "internalType": "uint256",
          "name": "deadline",
          "type": "uint256"
        },
        {
          "internalType": "uint8",
          "name": "v",
          "type": "uint8"
        },
        {
          "internalType": "bytes32",
          "name": "r",
          "type": "bytes32"
        },
        {
          "internalType": "bytes32",
          "name": "s",
          "type": "bytes32"
        }
      ],
      "name": "permit",
      "outputs": [],
      "stateMutability": "nonpayable",
      "type": "function"
    },
    {
      "inputs": [
        {
          "internalType": "uint256",
          "name": "shares",
          "type": "uint256"
        },
        {
          "internalType": "address",
          "name": "recipient",
          "type": "address"
        },
        {
          "internalType": "address",
          "name": "owner",
          "type": "address"
        }
      ],
      "name": "redeem",
      "outputs": [
        {
          "internalType": "uint256",
          "name": "assets",
          "type": "uint256"
        }
      ],
      "stateMutability": "nonpayable",
      "type": "function"
    },
    {
      "inputs": [
        {
          "internalType": "uint256",
          "name": "liquidity",
          "type": "uint256"
        }
      ],
      "name": "reinvestRewards_y7b",
      "outputs": [],
      "stateMutability": "nonpayable",
      "type": "function"
    },
    {
      "inputs": [],
      "name": "reserveFactor",
      "outputs": [
        {
          "internalType": "uint256",
          "name": "",
          "type": "uint256"
        }
      ],
      "stateMutability": "view",
      "type": "function"
    },
    {
      "inputs": [],
      "name": "rewardToken",
      "outputs": [
        {
          "internalType": "address",
          "name": "",
          "type": "address"
        }
      ],
      "stateMutability": "view",
      "type": "function"
    },
    {
      "inputs": [],
      "name": "rewarder",
      "outputs": [
        {
          "internalType": "address",
          "name": "",
          "type": "address"
        }
      ],
      "stateMutability": "pure",
      "type": "function"
    },
    {
      "inputs": [
        {
          "internalType": "address",
          "name": "newBorrowRewarder",
          "type": "address"
        }
      ],
      "name": "setCygnusBorrowRewarder",
      "outputs": [],
      "stateMutability": "nonpayable",
      "type": "function"
    },
    {
      "inputs": [
        {
          "internalType": "contract ICygnusHarvester",
          "name": "_harvester",
          "type": "address"
        }
      ],
      "name": "setHarvester",
      "outputs": [],
      "stateMutability": "nonpayable",
      "type": "function"
    },
    {
      "inputs": [
        {
          "internalType": "uint256",
          "name": "baseRatePerYear_",
          "type": "uint256"
        },
        {
          "internalType": "uint256",
          "name": "multiplierPerYear_",
          "type": "uint256"
        },
        {
          "internalType": "uint256",
          "name": "kinkMultiplier_",
          "type": "uint256"
        },
        {
          "internalType": "uint256",
          "name": "kinkUtilizationRate_",
          "type": "uint256"
        }
      ],
      "name": "setInterestRateModel",
      "outputs": [],
      "stateMutability": "nonpayable",
      "type": "function"
    },
    {
      "inputs": [
        {
          "internalType": "uint256",
          "name": "newReserveFactor",
          "type": "uint256"
        }
      ],
      "name": "setReserveFactor",
      "outputs": [],
      "stateMutability": "nonpayable",
      "type": "function"
    },
    {
      "inputs": [],
      "name": "shuttleId",
      "outputs": [
        {
          "internalType": "uint256",
          "name": "",
          "type": "uint256"
        }
      ],
      "stateMutability": "view",
      "type": "function"
    },
    {
      "inputs": [],
      "name": "supplyRate",
      "outputs": [
        {
          "internalType": "uint256",
          "name": "",
          "type": "uint256"
        }
      ],
      "stateMutability": "view",
      "type": "function"
    },
    {
      "inputs": [
        {
          "internalType": "address",
          "name": "token",
          "type": "address"
        }
      ],
      "name": "sweepToken",
      "outputs": [],
      "stateMutability": "nonpayable",
      "type": "function"
    },
    {
      "inputs": [],
      "name": "symbol",
      "outputs": [
        {
          "internalType": "string",
          "name": "",
          "type": "string"
        }
      ],
      "stateMutability": "view",
      "type": "function"
    },
    {
      "inputs": [],
      "name": "totalBalance",
      "outputs": [
        {
          "internalType": "uint160",
          "name": "",
          "type": "uint160"
        }
      ],
      "stateMutability": "view",
      "type": "function"
    },
    {
      "inputs": [],
      "name": "totalBorrows",
      "outputs": [
        {
          "internalType": "uint96",
          "name": "",
          "type": "uint96"
        }
      ],
      "stateMutability": "view",
      "type": "function"
    },
    {
      "inputs": [],
      "name": "totalSupply",
      "outputs": [
        {
          "internalType": "uint256",
          "name": "",
          "type": "uint256"
        }
      ],
      "stateMutability": "view",
      "type": "function"
    },
    {
      "inputs": [
        {
          "internalType": "address",
          "name": "borrower",
          "type": "address"
        }
      ],
      "name": "trackBorrower",
      "outputs": [],
      "stateMutability": "nonpayable",
      "type": "function"
    },
    {
      "inputs": [
        {
          "internalType": "address",
          "name": "to",
          "type": "address"
        },
        {
          "internalType": "uint256",
          "name": "amount",
          "type": "uint256"
        }
      ],
      "name": "transfer",
      "outputs": [
        {
          "internalType": "bool",
          "name": "",
          "type": "bool"
        }
      ],
      "stateMutability": "nonpayable",
      "type": "function"
    },
    {
      "inputs": [
        {
          "internalType": "address",
          "name": "from",
          "type": "address"
        },
        {
          "internalType": "address",
          "name": "to",
          "type": "address"
        },
        {
          "internalType": "uint256",
          "name": "amount",
          "type": "uint256"
        }
      ],
      "name": "transferFrom",
      "outputs": [
        {
          "internalType": "bool",
          "name": "",
          "type": "bool"
        }
      ],
      "stateMutability": "nonpayable",
      "type": "function"
    },
    {
      "inputs": [],
      "name": "underlying",
      "outputs": [
        {
          "internalType": "address",
          "name": "",
          "type": "address"
        }
      ],
      "stateMutability": "view",
      "type": "function"
    },
    {
      "inputs": [],
      "name": "utilizationRate",
      "outputs": [
        {
          "internalType": "uint256",
          "name": "",
          "type": "uint256"
        }
      ],
      "stateMutability": "view",
      "type": "function"
    },
    {
      "inputs": [],
      "name": "version",
      "outputs": [
        {
          "internalType": "string",
          "name": "",
          "type": "string"
        }
      ],
      "stateMutability": "view",
      "type": "function"
    }
  ],
  "bytecode": "0x610140604052670bcbce7f1b150000600c556002600d55670214e8348c4f0000600e55670de0b6b3a7640000600f553480156200003b57600080fd5b5060405146907f8b73c3c69bb8fe3d512ecc4cf759cc79239f7b179b0ffacaa9a75d522b39400f906200007190600090620003c5565b60408051918290038220828201825260018352603160f81b6020938401528151928301939093528101919091527fc89efdaa54c0f20c7adf612882df0950f5a951637e0307cdcb4c672f298b8bc66060820152608081018290523060a082015260c00160408051601f1981840301815282825280516020909101206080526007805460ff19166001179055635a412e5360e01b825251339250635a412e539160048082019260a09290919082900301816000875af115801562000138573d6000803e3d6000fd5b505050506040513d601f19601f820116820180604052508101906200015e91906200045c565b610100526001600160a01b0390811660c05291821660e052501660a090815260408051635a412e5360e01b8152905160009283923392635a412e5392600480840193919291829003018187875af1158015620001be573d6000803e3d6000fd5b505050506040513d601f19601f82011682018060405250810190620001e491906200045c565b50509250925050604051806040016040528060128152602001714379676e75733a20426f72726f7761626c6560701b8152506000908162000226919062000539565b50816001600160a01b03166395d89b416040518163ffffffff1660e01b8152600401600060405180830381865afa15801562000266573d6000803e3d6000fd5b505050506040513d6000823e601f3d908101601f191682016040526200029091908101906200062b565b604051602001620002a29190620006e3565b60405160208183030381529060405260019081620002c1919062000539565b50816001600160a01b031663313ce5676040518163ffffffff1660e01b8152600401602060405180830381865afa15801562000301573d6000803e3d6000fd5b505050506040513d601f19601f8201168201806040525081019062000327919062000715565b6002805460ff191660ff929092169190911790556001600160a01b031661012052506000600355601180546503782dace9d960721b6001600160601b0365ffffffffffff60b01b01909116600160e01b4263ffffffff16021717905562000741565b600181811c908216806200039e57607f821691505b602082108103620003bf57634e487b7160e01b600052602260045260246000fd5b50919050565b6000808354620003d58162000389565b60018281168015620003f05760018114620004065762000437565b60ff198416875282151583028701945062000437565b8760005260208060002060005b858110156200042e5781548a82015290840190820162000413565b50505082870194505b50929695505050505050565b6001600160a01b03811681146200045957600080fd5b50565b600080600080600060a086880312156200047557600080fd5b8551620004828162000443565b6020870151909550620004958162000443565b6040870151909450620004a88162000443565b6060870151909350620004bb8162000443565b80925050608086015190509295509295909350565b634e487b7160e01b600052604160045260246000fd5b601f8211156200053457600081815260208120601f850160051c810160208610156200050f5750805b601f850160051c820191505b8181101562000530578281556001016200051b565b5050505b505050565b81516001600160401b03811115620005555762000555620004d0565b6200056d8162000566845462000389565b84620004e6565b602080601f831160018114620005a557600084156200058c5750858301515b600019600386901b1c1916600185901b17855562000530565b600085815260208120601f198616915b82811015620005d657888601518255948401946001909101908401620005b5565b5085821015620005f55787850151600019600388901b60f8161c191681555b5050505050600190811b01905550565b60005b838110156200062257818101518382015260200162000608565b50506000910152565b6000602082840312156200063e57600080fd5b81516001600160401b03808211156200065657600080fd5b818401915084601f8301126200066b57600080fd5b815181811115620006805762000680620004d0565b604051601f8201601f19908116603f01168101908382118183101715620006ab57620006ab620004d0565b81604052828152876020848701011115620006c557600080fd5b620006d883602083016020880162000605565b979650505050505050565b67021bcb3aaa9a21d160c51b8152600082516200070881600885016020870162000605565b9190910160080192915050565b6000602082840312156200072857600080fd5b815160ff811681146200073a57600080fd5b9392505050565b60805160a05160c05160e0516101005161012051613063620007d760003960006107cc015260008181610598015281816116d501526120dd0152600081816105dd015281816109e301528181610aeb0152818161104f015281816115720152818161163201526116a9015260006107fc0152600081816108760152611cc101526000818161049e015261184801526130636000f3fe608060405234801561001057600080fd5b506004361061036d5760003560e01c806370a08231116101d3578063ad7a672f11610104578063d8dfeb45116100a2578063dcc3e06e1161007c578063dcc3e06e1461081e578063dd62ed3e14610838578063e8a24e1d14610871578063f7c618c11461089857600080fd5b8063d8dfeb45146107c7578063d90e0264146107ee578063d935bd92146107f757600080fd5b8063bcbc3320116100de578063bcbc332014610750578063c0789dcb14610758578063c914b43714610784578063d505accf146107b457600080fd5b8063ad7a672f1461071c578063b5f3c95b14610734578063ba0876521461073d57600080fd5b80639b51099811610171578063a9059cbb1161014b578063a9059cbb146106b6578063aa5af0fd146106c9578063ad168c9d14610701578063ad2961a31461071457600080fd5b80639b51099814610692578063a457c2d71461069b578063a6afed95146106ae57600080fd5b80637ecebe00116101ad5780637ecebe001461064457806381f5b6f4146106645780638808e71c1461067757806395d89b411461068a57600080fd5b806370a08231146105ff57806372cf84a7146106285780637d6af0791461063157600080fd5b80633644e515116102ad5780634bdaeac11161024b5780635f77f891116102255780635f77f891146105935780636afdd850146105ba5780636c321c8a146105d05780636f307dc3146105d857600080fd5b80634bdaeac11461053557806354fd4d50146105605780635b322bbe1461058057600080fd5b806342bf78af1161028757806342bf78af146104db5780634322b714146104ee57806346f608ff146104f757806347bd37181461050057600080fd5b80633644e5151461049957806339509351146104c05780633ba0b9a9146104d357600080fd5b80631aebf12f1161031a5780631e44b7fc116102f45780631e44b7fc1461042d57806323b872dd1461044057806330adf81f14610453578063313ce5671461047a57600080fd5b80631aebf12f146103fe5780631be19560146104075780631c4469831461041a57600080fd5b806315de1daa1161034b57806315de1daa146103c957806318160ddd146103de578063182df0f5146103f557600080fd5b80630572b0cc1461037257806306fdde0314610391578063095ea7b3146103a6575b600080fd5b61037a6108a0565b604051610388929190612a67565b60405180910390f35b6103996108ef565b6040516103889190612aeb565b6103b96103b4366004612b4e565b61097d565b6040519015158152602001610388565b6103dc6103d7366004612b7a565b610994565b005b6103e760035481565b604051908152602001610388565b6103e7600f5481565b6103e7600c5481565b6103dc610415366004612b7a565b610ab4565b6103dc610428366004612b97565b610b6d565b6103dc61043b366004612bb0565b610bcf565b6103b961044e366004612be2565b610be9565b6103e77f6e71edae12b1b97f4d1f60370fef10105fa2faae0126114a169c64845d6126c981565b6002546104879060ff1681565b60405160ff9091168152602001610388565b6103e77f000000000000000000000000000000000000000000000000000000000000000081565b6103b96104ce366004612b4e565b610c7a565b6103e7610cc2565b6103dc6104e9366004612b7a565b610cfe565b6103e7600e5481565b6103e7600a5481565b601154610518906bffffffffffffffffffffffff1681565b6040516bffffffffffffffffffffffff9091168152602001610388565b601254610548906001600160a01b031681565b6040516001600160a01b039091168152602001610388565b610399604051806040016040528060018152602001603160f81b81525081565b6103dc61058e366004612b7a565b610d6d565b6103e77f000000000000000000000000000000000000000000000000000000000000000081565b6105486e22d473030f116ddee9f6b43ac78ba381565b6103e7610d98565b6105487f000000000000000000000000000000000000000000000000000000000000000081565b6103e761060d366004612b7a565b6001600160a01b031660009081526005602052604090205490565b6103e7600b5481565b6103e761063f366004612b7a565b610de1565b6103e7610652366004612b7a565b60066020526000908152604090205481565b6103dc610672366004612b97565b610e85565b6103e7610685366004612c23565b610f4d565b610399611194565b6103e7600d5481565b6103b96106a9366004612b4e565b6111a1565b6103dc6111d2565b6103b96106c4366004612b4e565b6113be565b6011546106e690600160601b900469ffffffffffffffffffff1681565b60405169ffffffffffffffffffff9091168152602001610388565b600854610548906001600160a01b031681565b6103e76113cb565b6007546105489061010090046001600160a01b031681565b6103e760135481565b6103e761074b366004612cce565b61147f565b6103dc611600565b60115461076f90600160e01b900463ffffffff1681565b60405163ffffffff9091168152602001610388565b60115461079d90600160b01b900465ffffffffffff1681565b60405165ffffffffffff9091168152602001610388565b6103dc6107c2366004612d10565b611739565b6105487f000000000000000000000000000000000000000000000000000000000000000081565b6103e760095481565b6105487f000000000000000000000000000000000000000000000000000000000000000081565b734dea9e918c6289a52cd469cac652727b7b412cd2610548565b6103e7610846366004612d87565b6001600160a01b03918216600090815260046020908152604080832093909416825291909152205490565b6105487f000000000000000000000000000000000000000000000000000000000000000081565b6105486119dc565b600754606090819060ff166108c8576040516306fda65d60e31b815260040160405180910390fd5b6007805460ff191690556108da611a59565b915091506007805460ff191660011790559091565b600080546108fc90612dc0565b80601f016020809104026020016040519081016040528092919081815260200182805461092890612dc0565b80156109755780601f1061094a57610100808354040283529160200191610975565b820191906000526020600020905b81548152906001019060200180831161095857829003601f168201915b505050505081565b600061098a338484611c0e565b5060015b92915050565b61099c611cbd565b601280546001600160a01b0383811673ffffffffffffffffffffffffffffffffffffffff198316179092551660006109d2611a59565b50905060005b8151811015610a6b577f00000000000000000000000000000000000000000000000000000000000000006001600160a01b0316828281518110610a1d57610a1d612dfa565b60200260200101516001600160a01b031614610a5957610a59828281518110610a4857610a48612dfa565b602002602001015185600019611d6c565b80610a6381612e26565b9150506109d8565b50604080516001600160a01b038085168252851660208201527f6a97a9e954ae4ef4c8ecc6c7dd8a1cbe668254132294ceb515db9a2e4faad7f5910160405180910390a1505050565b60075460ff16610ad7576040516306fda65d60e31b815260040160405180910390fd5b6007805460ff19169055610ae9611cbd565b7f00000000000000000000000000000000000000000000000000000000000000006001600160a01b0316816001600160a01b031603610b3b5760405163b5d8f39160e01b815260040160405180910390fd5b6000610b4682611e04565b9050610b5c6001600160a01b0383163383611e19565b50506007805460ff19166001179055565b610b75611cbd565b610b8960006702c68af0bb14000083611e68565b600e80549082905560408051828152602081018490527faaa68312e2ea9d50e16af5068410ab56e1a1fd06037b1a35664812c30f82146091015b60405180910390a15050565b610bd7611cbd565b610be384848484611e93565b50505050565b6001600160a01b038316600090815260046020908152604080832033808552925282205483811015610c5457604051636497133b60e11b81526001600160a01b0380881660048301528316602482015260448101829052606481018590526084015b60405180910390fd5b610c618683868403611c0e565b610c6c868686611f69565b6001925050505b9392505050565b3360009081526004602090815260408083206001600160a01b03861684529091528120548190610cab908490612e3f565b9050610cb8338583611c0e565b5060019392505050565b6003546000908015610cee57600754610ce99061010090046001600160a01b031682612068565b610cf8565b670de0b6b3a76400005b91505090565b610d06611cbd565b600880546001600160a01b0383811673ffffffffffffffffffffffffffffffffffffffff1983168117909355604080519190921680825260208201939093527f2a0d5dc7fbc8045f59cb33c736f04f9a9b565e9f425912f9cd2bafdebd50cead9101610bc3565b610d9581610d7a83610de1565b601154600160601b900469ffffffffffffffffffff166120b7565b50565b6011546000906bffffffffffffffffffffffff168015610dd957600754610ce990610dd290839061010090046001600160a01b0316612e3f565b8290612068565b600091505090565b6001600160a01b03811660009081526010602090815260408083208151808301909252546fffffffffffffffffffffffffffffffff808216835270010000000000000000000000000000000090910416918101829052908203610e475750600092915050565b60115460208201518251610c73926fffffffffffffffffffffffffffffffff91821692600160601b90910469ffffffffffffffffffff169116612163565b60075460ff16610ea8576040516306fda65d60e31b815260040160405180910390fd5b6007805460ff19169055610eba6111d2565b6012546001600160a01b03163314610ee557604051630dd8de6360e11b815260040160405180910390fd5b610eee81612212565b42601381905560405133917fc63644116f6ef474fe595238489f3d0d31a12c55be3a748d72269a62882b04c991610f2d91858252602082015260400190565b60405180910390a2610f3d61231f565b506007805460ff19166001179055565b60075460009060ff16610f73576040516306fda65d60e31b815260040160405180910390fd5b6007805460ff191690556000610f876123a4565b90508215610ffa576040516302b67b5760e41b81526e22d473030f116ddee9f6b43ac78ba390632b67b57090610fc7903390899089908990600401612e96565b600060405180830381600087803b158015610fe157600080fd5b505af1158015610ff5573d6000803e3d6000fd5b505050505b6e22d473030f116ddee9f6b43ac78ba36336c78516333061101a8b61251c565b60405160e085901b6001600160e01b03191681526001600160a01b0393841660048201529183166024830152821660448201527f00000000000000000000000000000000000000000000000000000000000000009091166064820152608401600060405180830381600087803b15801561109357600080fd5b505af11580156110a7573d6000803e3d6000fd5b505050506110b487612212565b60006110be6123a4565b90506110db6110cb610cc2565b6110d58484612f43565b90612068565b9250826000036110fe5760405163f1ca48b160e01b815260040160405180910390fd5b600354600003611124576111146103e884612f43565b925061112461dead6103e8612546565b61112e8784612546565b60408051898152602081018590526001600160a01b0389169133917fdcbc1c05240f31ff3ad067ef1ee35ce4997762752e3a095284754544f4c709d7910160405180910390a3505061117e61231f565b6007805460ff1916600117905595945050505050565b600180546108fc90612dc0565b3360009081526004602090815260408083206001600160a01b03861684529091528120548190610cab908490612f43565b6011544290600160e01b900463ffffffff1660006111f08284612f56565b6011546007549192506bffffffffffffffffffffffff81169161010090046001600160a01b031690600160601b900469ffffffffffffffffffff1663ffffffff8581169087161480611240575082155b1561124d57505050505050565b600061125983856125d9565b9050600061126d63ffffffff871683612f7a565b9050600061127b828761267b565b90506112878187612e3f565b9550611293828561267b565b61129d9085612e3f565b93506112a8866126a9565b601180546bffffffffffffffffffffffff19166bffffffffffffffffffffffff929092169190911790556112db846126be565b6011600c6101000a81548169ffffffffffffffffffff021916908369ffffffffffffffffffff160217905550611310836126da565b6011805475ffffffffffffffffffffffffffffffffffffffffffff16600160b01b65ffffffffffff93909316929092027bffffffffffffffffffffffffffffffffffffffffffffffffffffffff1691909117600160e01b63ffffffff8c160217905560408051868152602081018890529081018290527f875352fb3fadeb8c0be7cbbe8ff761b308fa7033470cd0287f02f3436fd76cb99060600160405180910390a1505050505050505050565b600061098a338484611f69565b6000806113ff600e54670de0b6b3a76400006113e79190612f43565b601154600160b01b900465ffffffffffff169061267b565b601154600754919250600091611431916bffffffffffffffffffffffff169061010090046001600160a01b0316612f91565b6001600160a01b031690508060000361144d5760009250505090565b60115460009061146b906bffffffffffffffffffffffff1683612068565b9050611477818461267b565b935050505090565b60075460009060ff166114a5576040516306fda65d60e31b815260040160405180910390fd5b6007805460ff19169055336001600160a01b0383161461151d576001600160a01b0382166000908152600460209081526040808320338452909152902054600019811461151b576114f68582612f43565b6001600160a01b03841660009081526004602090815260408083203384529091529020555b505b61152f611528610cc2565b859061267b565b9050600081116115525760405163e3e8d29760e01b815260040160405180910390fd5b61155b816126f2565b611565828561290c565b6115996001600160a01b037f0000000000000000000000000000000000000000000000000000000000000000168483611e19565b60408051828152602081018690526001600160a01b03808516929086169133917ffbde797d201c681b91056529119e0b02407c7bb96a4a2c75c01fc9667232c8db910160405180910390a46115ec61231f565b6007805460ff191660011790559392505050565b60075460ff16611623576040516306fda65d60e31b815260040160405180910390fd5b6007805460ff1916905561166e7f000000000000000000000000000000000000000000000000000000000000000073b0d502e938ed5f4df2e681fe6e419ff29631d62b600019611d6c565b6116a373decc0c09c3b5f6e92ef4184125d5648a66e35298734dea9e918c6289a52cd469cac652727b7b412cd2600019611d6c565b604080517f00000000000000000000000000000000000000000000000000000000000000006001600160a01b031681527f00000000000000000000000000000000000000000000000000000000000000006020820152338183015290517f98ccebae89f16f152c93c6a0cdc0d99913b9e62a9fc612471c21ffc299c389fd9181900360600190a16007805460ff19166001179055565b6001600160a01b038716611760576040516337adc3e960e11b815260040160405180910390fd5b6001600160a01b03861661178757604051637b4813dd60e01b815260040160405180910390fd5b428410156117b157604051633288645960e01b815242600482015260248101859052604401610c4b565b6001600160a01b0387811660008181526006602090815260408083208054600180820190925582517f6e71edae12b1b97f4d1f60370fef10105fa2faae0126114a169c64845d6126c98186015280840196909652958c166060860152608085018b905260a085019590955260c08085018a90528151808603909101815260e08501825280519083012061190160f01b6101008601527f000000000000000000000000000000000000000000000000000000000000000061010286015261012280860182905282518087039091018152610142860180845281519185019190912090859052610162860180845281905260ff8a166101828701526101a286018990526101c2860188905291519095919491926101e2808401939192601f1981019281900390910190855afa1580156118ec573d6000803e3d6000fd5b5050604051601f1901519150506001600160a01b0381166119205760405163d147d0e360e01b815260040160405180910390fd5b896001600160a01b0316816001600160a01b03161461197457604051633460790b60e01b81526001600160a01b038b16600482015260ff871660248201526044810186905260648101859052608401610c4b565b6001600160a01b038a81166000818152600460209081526040808320948e16808452948252918290208c905590518b81527f8c5be1e5ebec7d5bd14f71427d1e84f3dd0314c0f7b2291e5b200ac8c7c3b925910160405180910390a350505050505050505050565b6000734dea9e918c6289a52cd469cac652727b7b412cd26001600160a01b031663953d9cf16040518163ffffffff1660e01b8152600401602060405180830381865afa158015611a30573d6000803e3d6000fd5b505050506040513d601f19601f82011682018060405250810190611a549190612fb1565b905090565b604051631c57762b60e31b815260006004820181905260248201526060908190734dea9e918c6289a52cd469cac652727b7b412cd29063e2bbb15890604401600060405180830381600087803b158015611ab257600080fd5b505af1158015611ac6573d6000803e3d6000fd5b5060019250611ad3915050565b604051908082528060200260200182016040528015611afc578160200160208202803683370190505b5060408051600180825281830190925291935060208083019080368337019050509050734dea9e918c6289a52cd469cac652727b7b412cd26001600160a01b031663953d9cf16040518163ffffffff1660e01b8152600401602060405180830381865afa158015611b71573d6000803e3d6000fd5b505050506040513d601f19601f82011682018060405250810190611b959190612fb1565b82600081518110611ba857611ba8612dfa565b60200260200101906001600160a01b031690816001600160a01b031681525050611beb82600081518110611bde57611bde612dfa565b6020026020010151611e04565b81600081518110611bfe57611bfe612dfa565b6020026020010181815250509091565b6001600160a01b038316611c355760405163231b1a1d60e21b815260040160405180910390fd5b6001600160a01b038216611c5c57604051632b6990d760e21b815260040160405180910390fd5b6001600160a01b0383811660008181526004602090815260408083209487168084529482529182902085905590518481527f8c5be1e5ebec7d5bd14f71427d1e84f3dd0314c0f7b2291e5b200ac8c7c3b925910160405180910390a3505050565b60007f00000000000000000000000000000000000000000000000000000000000000006001600160a01b031663f851a4406040518163ffffffff1660e01b8152600401602060405180830381865afa158015611d1d573d6000803e3d6000fd5b505050506040513d601f19601f82011682018060405250810190611d419190612fb1565b9050336001600160a01b03821614610d95576040516331d63ad160e11b815260040160405180910390fd5b604051636eb1769f60e11b81523060048201526001600160a01b03838116602483015282919085169063dd62ed3e90604401602060405180830381865afa158015611dbb573d6000803e3d6000fd5b505050506040513d601f19601f82011682018060405250810190611ddf9190612fce565b10611de957505050565b611dff6001600160a01b038416836000196129a7565b505050565b600061098e6001600160a01b038316306129ec565b81601452806034526fa9059cbb00000000000000000000000060005260206000604460106000875af13d156001600051141716611e5e576390b8ec186000526004601cfd5b6000603452505050565b82811080611e7557508181115b15611dff57604051630e49b3b360e41b815260040160405180910390fd5b611ea7600067016345785d8a000086611e68565b611ec26706f05b59d3b20000670d2f13f7789f000083611e68565b611ecf6001600a84611e68565b611edd6301e1338085612fe7565b600955611ef8611ef1826301e13380612f7a565b8490612068565b600a55600d829055600c819055611f18816110d585856301e13380612163565b600b556040805185815260208101859052908101839052606081018290527ff58b8cc439edada25fd9495b7364aeb1d737dbef59be1cf62e0cc4001c44a3cd9060800160405180910390a150505050565b6001600160a01b038316611f9057604051636fbb781760e01b815260040160405180910390fd5b6001600160a01b038216611fb6576040516261696b60e71b815260040160405180910390fd5b6001600160a01b03831660009081526005602052604090205481811015611ffa5760405163430cf54960e11b81526004810182905260248101839052604401610c4b565b6001600160a01b0380851660008181526005602052604080822086860390559286168082529083902080548601905591517fddf252ad1be2c89b69c2b068fc378daa952ba7f163c4a11628f55a4df523b3ef9061205a9086815260200190565b60405180910390a350505050565b60007812725dd1d243aba0e75fe645cc4873f9e65afe688c928e1f218311670de0b6b3a7640000021582026120a557637c5f487d6000526004601cfd5b50670de0b6b3a7640000919091020490565b6008546001600160a01b0316806120ce5750505050565b604051632110f7f160e21b81527f000000000000000000000000000000000000000000000000000000000000000060048201526001600160a01b0385811660248301526044820185905260648201849052821690638443dfc490608401600060405180830381600087803b15801561214557600080fd5b505af1158015612159573d6000803e3d6000fd5b5050505050505050565b60008383026000198486098181108201900380612198578361218d5763ae47f7026000526004601cfd5b508290049050610c73565b8084116121ad5763ae47f7026000526004601cfd5b838587096000858103861695869004956003870260029081188089028203028089028203028089028203028089028203028089028203028089029091030291819003819004600101858411909403939093029190930391909104170290509392505050565b6040516321ec87bf60e21b8152600160048201526024810182905230604482015273b0d502e938ed5f4df2e681fe6e419ff29631d62b906387b21efc90606401600060405180830381600087803b15801561226c57600080fd5b505af1158015612280573d6000803e3d6000fd5b50505050734dea9e918c6289a52cd469cac652727b7b412cd26001600160a01b031663e2bbb15860006122c673decc0c09c3b5f6e92ef4184125d5648a66e35298611e04565b6040516001600160e01b031960e085901b16815260048101929092526024820152604401600060405180830381600087803b15801561230457600080fd5b505af1158015612318573d6000803e3d6000fd5b5050505050565b60006123296123a4565b90507f3145c2b643834867f2c0a8cac8a48218307687911615c0ed01412a09dd163b666123558261251c565b600780547fffffffffffffffffffffff0000000000000000000000000000000000000000ff166101006001600160a01b039390931692830217905560405190815260200160405180910390a150565b6040516393f1a40b60e01b8152600060048201819052306024830152908190734dea9e918c6289a52cd469cac652727b7b412cd2906393f1a40b906044016040805180830381865afa1580156123fe573d6000803e3d6000fd5b505050506040513d601f19601f820116820180604052508101906124229190613009565b509050610cf873decc0c09c3b5f6e92ef4184125d5648a66e352986001600160a01b03166315770f926040518163ffffffff1660e01b8152600401602060405180830381865afa15801561247a573d6000803e3d6000fd5b505050506040513d601f19601f8201168201806040525081019061249e9190612fce565b73decc0c09c3b5f6e92ef4184125d5648a66e352986001600160a01b03166318160ddd6040518163ffffffff1660e01b8152600401602060405180830381865afa1580156124f0573d6000803e3d6000fd5b505050506040513d601f19601f820116820180604052508101906125149190612fce565b839190612163565b600074010000000000000000000000000000000000000000821061254257612542612a21565b5090565b6001600160a01b03821661256d5760405163df3dc1c960e01b815260040160405180910390fd5b806003600082825461257f9190612e3f565b90915550506001600160a01b0382166000818152600560209081526040808320805486019055518481527fddf252ad1be2c89b69c2b068fc378daa952ba7f163c4a11628f55a4df523b3ef91015b60405180910390a35050565b6000806125e9611ef18486612e3f565b9050600c54811161261757600954600a5461260590839061267b565b61260f9190612e3f565b91505061098e565b6000600954612633600a54600c5461267b90919063ffffffff16565b61263d9190612e3f565b90506000600c548361264f9190612f43565b905081612667600b548361267b90919063ffffffff16565b6126719190612e3f565b9695505050505050565b6000816000190483118202156126995763bac65e5b6000526004601cfd5b50670de0b6b3a764000091020490565b6000600160601b821061254257612542612a21565b60006a0100000000000000000000821061254257612542612a21565b60006601000000000000821061254257612542612a21565b60006127eb73decc0c09c3b5f6e92ef4184125d5648a66e352986001600160a01b03166318160ddd6040518163ffffffff1660e01b8152600401602060405180830381865afa158015612749573d6000803e3d6000fd5b505050506040513d601f19601f8201168201806040525081019061276d9190612fce565b73decc0c09c3b5f6e92ef4184125d5648a66e352986001600160a01b03166315770f926040518163ffffffff1660e01b8152600401602060405180830381865afa1580156127bf573d6000803e3d6000fd5b505050506040513d601f19601f820116820180604052508101906127e39190612fce565b849190612a2f565b604051630441a3e760e41b81526000600482015260248101829052909150734dea9e918c6289a52cd469cac652727b7b412cd29063441a3e7090604401600060405180830381600087803b15801561284257600080fd5b505af1158015612856573d6000803e3d6000fd5b5050505073b0d502e938ed5f4df2e681fe6e419ff29631d62b6001600160a01b031663c4de93a5600161289c73decc0c09c3b5f6e92ef4184125d5648a66e35298611e04565b6040516001600160e01b031960e085901b16815261ffff909216600483015260248201523060448201526064016020604051808303816000875af11580156128e8573d6000803e3d6000fd5b505050506040513d601f19601f82011682018060405250810190611dff9190612fce565b6001600160a01b03821661293357604051633eedce0760e01b815260040160405180910390fd5b6001600160a01b0382166000908152600560205260408120805483929061295b908490612f43565b90915550506003805482900390556040518181526000906001600160a01b038416907fddf252ad1be2c89b69c2b068fc378daa952ba7f163c4a11628f55a4df523b3ef906020016125cd565b81601452806034526f095ea7b300000000000000000000000060005260206000604460106000875af13d156001600051141716611e5e57633e3f8f736000526004601cfd5b6000816014526f70a0823100000000000000000000000060005260208060246010865afa601f3d111660205102905092915050565b6335278d126000526004601cfd5b6000612a3c848484612163565b90508183850915610c735760018101612a5d5763ae47f7026000526004601cfd5b6001019392505050565b604080825283519082018190526000906020906060840190828701845b82811015612aa95781516001600160a01b031684529284019290840190600101612a84565b5050508381038285015284518082528583019183019060005b81811015612ade57835183529284019291840191600101612ac2565b5090979650505050505050565b600060208083528351808285015260005b81811015612b1857858101830151858201604001528201612afc565b506000604082860101526040601f19601f8301168501019250505092915050565b6001600160a01b0381168114610d9557600080fd5b60008060408385031215612b6157600080fd5b8235612b6c81612b39565b946020939093013593505050565b600060208284031215612b8c57600080fd5b8135610c7381612b39565b600060208284031215612ba957600080fd5b5035919050565b60008060008060808587031215612bc657600080fd5b5050823594602084013594506040840135936060013592509050565b600080600060608486031215612bf757600080fd5b8335612c0281612b39565b92506020840135612c1281612b39565b929592945050506040919091013590565b6000806000806000858703610120811215612c3d57600080fd5b863595506020870135612c4f81612b39565b945060c0603f1982011215612c6357600080fd5b5060408601925061010086013567ffffffffffffffff80821115612c8657600080fd5b818801915088601f830112612c9a57600080fd5b813581811115612ca957600080fd5b896020828501011115612cbb57600080fd5b9699959850939650602001949392505050565b600080600060608486031215612ce357600080fd5b833592506020840135612cf581612b39565b91506040840135612d0581612b39565b809150509250925092565b600080600080600080600060e0888a031215612d2b57600080fd5b8735612d3681612b39565b96506020880135612d4681612b39565b95506040880135945060608801359350608088013560ff81168114612d6a57600080fd5b9699959850939692959460a0840135945060c09093013592915050565b60008060408385031215612d9a57600080fd5b8235612da581612b39565b91506020830135612db581612b39565b809150509250929050565b600181811c90821680612dd457607f821691505b602082108103612df457634e487b7160e01b600052602260045260246000fd5b50919050565b634e487b7160e01b600052603260045260246000fd5b634e487b7160e01b600052601160045260246000fd5b600060018201612e3857612e38612e10565b5060010190565b8082018082111561098e5761098e612e10565b803565ffffffffffff81168114612e6857600080fd5b919050565b81835281816020850137506000828201602090810191909152601f909101601f19169091010190565b60006101006001600160a01b0380881684528635612eb381612b39565b8181166020860152506020870135612eca81612b39565b818116604086015250612edf60408801612e52565b65ffffffffffff808216606087015280612efb60608b01612e52565b16608087015250506080870135612f1181612b39565b81811660a0860152505060a086013560c08401528060e0840152612f388184018587612e6d565b979650505050505050565b8181038181111561098e5761098e612e10565b63ffffffff828116828216039080821115612f7357612f73612e10565b5092915050565b808202811582820484141761098e5761098e612e10565b6001600160a01b03818116838216019080821115612f7357612f73612e10565b600060208284031215612fc357600080fd5b8151610c7381612b39565b600060208284031215612fe057600080fd5b5051919050565b60008261300457634e487b7160e01b600052601260045260246000fd5b500490565b6000806040838503121561301c57600080fd5b50508051602090910151909290915056fea26469706673582212201dfaa2ba3cb2b629ec3d6ca024f8f8b647ca0e7ff34fdce0aa156b06b94adeee64736f6c63430008110033",
  "linkReferences": {},
  "deployedLinkReferences": {}
}