{
  "_format": "hh-sol-artifact-1",
  "contractName": "CygnusBorrowVoid",
  "sourceName": "contracts/cygnus-core/CygnusBorrowVoid.sol",
  "abi": [
    {
      "inputs": [],
      "stateMutability": "nonpayable",
      "type": "constructor"
    },
    {
      "inputs": [],
      "name": "AllowanceOverflow",
      "type": "error"
    },
    {
      "inputs": [],
      "name": "AllowanceUnderflow",
      "type": "error"
    },
    {
      "inputs": [],
      "name": "CygnusBorrowControl__ParameterNotInRange",
      "type": "error"
    },
    {
      "inputs": [],
      "name": "CygnusBorrowVoid__CTokenError",
      "type": "error"
    },
    {
      "inputs": [],
      "name": "CygnusBorrowVoid__OnlyHarvesterAllowed",
      "type": "error"
    },
    {
      "inputs": [],
      "name": "CygnusTerminal__CantMintZeroShares",
      "type": "error"
    },
    {
      "inputs": [],
      "name": "CygnusTerminal__CantRedeemZeroAssets",
      "type": "error"
    },
    {
      "inputs": [],
      "name": "CygnusTerminal__CantSweepUnderlying",
      "type": "error"
    },
    {
      "inputs": [],
      "name": "CygnusTerminal__MsgSenderNotAdmin",
      "type": "error"
    },
    {
      "inputs": [],
      "name": "InsufficientAllowance",
      "type": "error"
    },
    {
      "inputs": [],
      "name": "InsufficientBalance",
      "type": "error"
    },
    {
      "inputs": [],
      "name": "InvalidPermit",
      "type": "error"
    },
    {
      "inputs": [],
      "name": "PermitExpired",
      "type": "error"
    },
    {
      "inputs": [],
      "name": "ReentrantCall",
      "type": "error"
    },
    {
      "inputs": [],
      "name": "TotalSupplyOverflow",
      "type": "error"
    },
    {
      "anonymous": false,
      "inputs": [
        {
          "indexed": false,
          "internalType": "uint256",
          "name": "cashStored",
          "type": "uint256"
        },
        {
          "indexed": false,
          "internalType": "uint256",
          "name": "totalBorrowsStored",
          "type": "uint256"
        },
        {
          "indexed": false,
          "internalType": "uint256",
          "name": "interestAccumulated",
          "type": "uint256"
        }
      ],
      "name": "AccrueInterest",
      "type": "event"
    },
    {
      "anonymous": false,
      "inputs": [
        {
          "indexed": true,
          "internalType": "address",
          "name": "owner",
          "type": "address"
        },
        {
          "indexed": true,
          "internalType": "address",
          "name": "spender",
          "type": "address"
        },
        {
          "indexed": false,
          "internalType": "uint256",
          "name": "amount",
          "type": "uint256"
        }
      ],
      "name": "Approval",
      "type": "event"
    },
    {
      "anonymous": false,
      "inputs": [
        {
          "indexed": false,
          "internalType": "address",
          "name": "underlying",
          "type": "address"
        },
        {
          "indexed": false,
          "internalType": "uint256",
          "name": "shuttleId",
          "type": "uint256"
        },
        {
          "indexed": false,
          "internalType": "address",
          "name": "sender",
          "type": "address"
        }
      ],
      "name": "ChargeVoid",
      "type": "event"
    },
    {
      "anonymous": false,
      "inputs": [
        {
          "indexed": true,
          "internalType": "address",
          "name": "sender",
          "type": "address"
        },
        {
          "indexed": true,
          "internalType": "address",
          "name": "recipient",
          "type": "address"
        },
        {
          "indexed": false,
          "internalType": "uint256",
          "name": "assets",
          "type": "uint256"
        },
        {
          "indexed": false,
          "internalType": "uint256",
          "name": "shares",
          "type": "uint256"
        }
      ],
      "name": "Deposit",
      "type": "event"
    },
    {
      "anonymous": false,
      "inputs": [
        {
          "indexed": false,
          "internalType": "address",
          "name": "oldBorrowRewarder",
          "type": "address"
        },
        {
          "indexed": false,
          "internalType": "address",
          "name": "newBorrowRewarder",
          "type": "address"
        }
      ],
      "name": "NewCygnusBorrowRewarder",
      "type": "event"
    },
    {
      "anonymous": false,
      "inputs": [
        {
          "indexed": false,
          "internalType": "contract ICygnusHarvester",
          "name": "oldHarvester",
          "type": "address"
        },
        {
          "indexed": false,
          "internalType": "contract ICygnusHarvester",
          "name": "newHarvester",
          "type": "address"
        }
      ],
      "name": "NewHarvester",
      "type": "event"
    },
    {
      "anonymous": false,
      "inputs": [
        {
          "indexed": false,
          "internalType": "uint256",
          "name": "baseRatePerYear",
          "type": "uint256"
        },
        {
          "indexed": false,
          "internalType": "uint256",
          "name": "multiplierPerYear",
          "type": "uint256"
        },
        {
          "indexed": false,
          "internalType": "uint256",
          "name": "kinkMultiplier_",
          "type": "uint256"
        },
        {
          "indexed": false,
          "internalType": "uint256",
          "name": "kinkUtilizationRate_",
          "type": "uint256"
        }
      ],
      "name": "NewInterestRateParameters",
      "type": "event"
    },
    {
      "anonymous": false,
      "inputs": [
        {
          "indexed": false,
          "internalType": "uint256",
          "name": "oldReserveFactor",
          "type": "uint256"
        },
        {
          "indexed": false,
          "internalType": "uint256",
          "name": "newReserveFactor",
          "type": "uint256"
        }
      ],
      "name": "NewReserveFactor",
      "type": "event"
    },
    {
      "anonymous": false,
      "inputs": [
        {
          "indexed": true,
          "internalType": "address",
          "name": "reinvestor",
          "type": "address"
        },
        {
          "indexed": false,
          "internalType": "uint256",
          "name": "liquidity",
          "type": "uint256"
        },
        {
          "indexed": false,
          "internalType": "uint256",
          "name": "timestamp",
          "type": "uint256"
        }
      ],
      "name": "RechargeVoid",
      "type": "event"
    },
    {
      "anonymous": false,
      "inputs": [
        {
          "indexed": true,
          "internalType": "address",
          "name": "sender",
          "type": "address"
        },
        {
          "indexed": true,
          "internalType": "address",
          "name": "token",
          "type": "address"
        },
        {
          "indexed": false,
          "internalType": "uint256",
          "name": "balance",
          "type": "uint256"
        }
      ],
      "name": "SweepToken",
      "type": "event"
    },
    {
      "anonymous": false,
      "inputs": [
        {
          "indexed": false,
          "internalType": "uint160",
          "name": "totalBalance",
          "type": "uint160"
        }
      ],
      "name": "Sync",
      "type": "event"
    },
    {
      "anonymous": false,
      "inputs": [
        {
          "indexed": true,
          "internalType": "address",
          "name": "from",
          "type": "address"
        },
        {
          "indexed": true,
          "internalType": "address",
          "name": "to",
          "type": "address"
        },
        {
          "indexed": false,
          "internalType": "uint256",
          "name": "amount",
          "type": "uint256"
        }
      ],
      "name": "Transfer",
      "type": "event"
    },
    {
      "anonymous": false,
      "inputs": [
        {
          "indexed": true,
          "internalType": "address",
          "name": "sender",
          "type": "address"
        },
        {
          "indexed": true,
          "internalType": "address",
          "name": "recipient",
          "type": "address"
        },
        {
          "indexed": true,
          "internalType": "address",
          "name": "owner",
          "type": "address"
        },
        {
          "indexed": false,
          "internalType": "uint256",
          "name": "assets",
          "type": "uint256"
        },
        {
          "indexed": false,
          "internalType": "uint256",
          "name": "shares",
          "type": "uint256"
        }
      ],
      "name": "Withdraw",
      "type": "event"
    },
    {
      "inputs": [],
      "name": "DOMAIN_SEPARATOR",
      "outputs": [
        {
          "internalType": "bytes32",
          "name": "result",
          "type": "bytes32"
        }
      ],
      "stateMutability": "view",
      "type": "function"
    },
    {
      "inputs": [],
      "name": "PERMIT2",
      "outputs": [
        {
          "internalType": "contract IAllowanceTransfer",
          "name": "",
          "type": "address"
        }
      ],
      "stateMutability": "view",
      "type": "function"
    },
    {
      "inputs": [],
      "name": "accrueInterest",
      "outputs": [],
      "stateMutability": "nonpayable",
      "type": "function"
    },
    {
      "inputs": [
        {
          "internalType": "address",
          "name": "owner",
          "type": "address"
        },
        {
          "internalType": "address",
          "name": "spender",
          "type": "address"
        }
      ],
      "name": "allowance",
      "outputs": [
        {
          "internalType": "uint256",
          "name": "result",
          "type": "uint256"
        }
      ],
      "stateMutability": "view",
      "type": "function"
    },
    {
      "inputs": [
        {
          "internalType": "address",
          "name": "spender",
          "type": "address"
        },
        {
          "internalType": "uint256",
          "name": "amount",
          "type": "uint256"
        }
      ],
      "name": "approve",
      "outputs": [
        {
          "internalType": "bool",
          "name": "",
          "type": "bool"
        }
      ],
      "stateMutability": "nonpayable",
      "type": "function"
    },
    {
      "inputs": [
        {
          "internalType": "address",
          "name": "owner",
          "type": "address"
        }
      ],
      "name": "balanceOf",
      "outputs": [
        {
          "internalType": "uint256",
          "name": "result",
          "type": "uint256"
        }
      ],
      "stateMutability": "view",
      "type": "function"
    },
    {
      "inputs": [],
      "name": "baseRatePerSecond",
      "outputs": [
        {
          "internalType": "uint256",
          "name": "",
          "type": "uint256"
        }
      ],
      "stateMutability": "view",
      "type": "function"
    },
    {
      "inputs": [
        {
          "internalType": "address",
          "name": "",
          "type": "address"
        }
      ],
      "name": "borrowBalances",
      "outputs": [
        {
          "internalType": "uint128",
          "name": "principal",
          "type": "uint128"
        },
        {
          "internalType": "uint128",
          "name": "interestIndex",
          "type": "uint128"
        }
      ],
      "stateMutability": "view",
      "type": "function"
    },
    {
      "inputs": [],
      "name": "borrowIndex",
      "outputs": [
        {
          "internalType": "uint80",
          "name": "",
          "type": "uint80"
        }
      ],
      "stateMutability": "view",
      "type": "function"
    },
    {
      "inputs": [],
      "name": "borrowRate",
      "outputs": [
        {
          "internalType": "uint48",
          "name": "",
          "type": "uint48"
        }
      ],
      "stateMutability": "view",
      "type": "function"
    },
    {
      "inputs": [],
      "name": "chargeVoid",
      "outputs": [],
      "stateMutability": "nonpayable",
      "type": "function"
    },
    {
      "inputs": [],
      "name": "collateral",
      "outputs": [
        {
          "internalType": "address",
          "name": "",
          "type": "address"
        }
      ],
      "stateMutability": "view",
      "type": "function"
    },
    {
      "inputs": [],
      "name": "cygnusBorrowRewarder",
      "outputs": [
        {
          "internalType": "address",
          "name": "",
          "type": "address"
        }
      ],
      "stateMutability": "view",
      "type": "function"
    },
    {
      "inputs": [],
      "name": "cygnusNebulaOracle",
      "outputs": [
        {
          "internalType": "contract ICygnusNebulaOracle",
          "name": "",
          "type": "address"
        }
      ],
      "stateMutability": "view",
      "type": "function"
    },
    {
      "inputs": [],
      "name": "decimals",
      "outputs": [
        {
          "internalType": "uint8",
          "name": "",
          "type": "uint8"
        }
      ],
      "stateMutability": "view",
      "type": "function"
    },
    {
      "inputs": [
        {
          "internalType": "address",
          "name": "spender",
          "type": "address"
        },
        {
          "internalType": "uint256",
          "name": "difference",
          "type": "uint256"
        }
      ],
      "name": "decreaseAllowance",
      "outputs": [
        {
          "internalType": "bool",
          "name": "",
          "type": "bool"
        }
      ],
      "stateMutability": "nonpayable",
      "type": "function"
    },
    {
      "inputs": [
        {
          "internalType": "uint256",
          "name": "assets",
          "type": "uint256"
        },
        {
          "internalType": "address",
          "name": "recipient",
          "type": "address"
        },
        {
          "components": [
            {
              "components": [
                {
                  "internalType": "address",
                  "name": "token",
                  "type": "address"
                },
                {
                  "internalType": "uint160",
                  "name": "amount",
                  "type": "uint160"
                },
                {
                  "internalType": "uint48",
                  "name": "expiration",
                  "type": "uint48"
                },
                {
                  "internalType": "uint48",
                  "name": "nonce",
                  "type": "uint48"
                }
              ],
              "internalType": "struct IAllowanceTransfer.PermitDetails",
              "name": "details",
              "type": "tuple"
            },
            {
              "internalType": "address",
              "name": "spender",
              "type": "address"
            },
            {
              "internalType": "uint256",
              "name": "sigDeadline",
              "type": "uint256"
            }
          ],
          "internalType": "struct IAllowanceTransfer.PermitSingle",
          "name": "_permit",
          "type": "tuple"
        },
        {
          "internalType": "bytes",
          "name": "signature",
          "type": "bytes"
        }
      ],
      "name": "deposit",
      "outputs": [
        {
          "internalType": "uint256",
          "name": "shares",
          "type": "uint256"
        }
      ],
      "stateMutability": "nonpayable",
      "type": "function"
    },
    {
      "inputs": [],
      "name": "exchangeRate",
      "outputs": [
        {
          "internalType": "uint256",
          "name": "",
          "type": "uint256"
        }
      ],
      "stateMutability": "nonpayable",
      "type": "function"
    },
    {
      "inputs": [],
      "name": "exchangeRateStored",
      "outputs": [
        {
          "internalType": "uint256",
          "name": "",
          "type": "uint256"
        }
      ],
      "stateMutability": "view",
      "type": "function"
    },
    {
      "inputs": [
        {
          "internalType": "address",
          "name": "borrower",
          "type": "address"
        }
      ],
      "name": "getBorrowBalance",
      "outputs": [
        {
          "internalType": "uint256",
          "name": "",
          "type": "uint256"
        }
      ],
      "stateMutability": "view",
      "type": "function"
    },
    {
      "inputs": [],
      "name": "getRewards",
      "outputs": [
        {
          "internalType": "address[]",
          "name": "tokens",
          "type": "address[]"
        },
        {
          "internalType": "uint256[]",
          "name": "amounts",
          "type": "uint256[]"
        }
      ],
      "stateMutability": "nonpayable",
      "type": "function"
    },
    {
      "inputs": [],
      "name": "hangar18",
      "outputs": [
        {
          "internalType": "contract IHangar18",
          "name": "",
          "type": "address"
        }
      ],
      "stateMutability": "view",
      "type": "function"
    },
    {
      "inputs": [],
      "name": "harvester",
      "outputs": [
        {
          "internalType": "contract ICygnusHarvester",
          "name": "",
          "type": "address"
        }
      ],
      "stateMutability": "view",
      "type": "function"
    },
    {
      "inputs": [
        {
          "internalType": "address",
          "name": "spender",
          "type": "address"
        },
        {
          "internalType": "uint256",
          "name": "difference",
          "type": "uint256"
        }
      ],
      "name": "increaseAllowance",
      "outputs": [
        {
          "internalType": "bool",
          "name": "",
          "type": "bool"
        }
      ],
      "stateMutability": "nonpayable",
      "type": "function"
    },
    {
      "inputs": [],
      "name": "jumpMultiplierPerSecond",
      "outputs": [
        {
          "internalType": "uint256",
          "name": "",
          "type": "uint256"
        }
      ],
      "stateMutability": "view",
      "type": "function"
    },
    {
      "inputs": [],
      "name": "kinkMultiplier",
      "outputs": [
        {
          "internalType": "uint256",
          "name": "",
          "type": "uint256"
        }
      ],
      "stateMutability": "view",
      "type": "function"
    },
    {
      "inputs": [],
      "name": "kinkUtilizationRate",
      "outputs": [
        {
          "internalType": "uint256",
          "name": "",
          "type": "uint256"
        }
      ],
      "stateMutability": "view",
      "type": "function"
    },
    {
      "inputs": [],
      "name": "lastAccrualTimestamp",
      "outputs": [
        {
          "internalType": "uint32",
          "name": "",
          "type": "uint32"
        }
      ],
      "stateMutability": "view",
      "type": "function"
    },
    {
      "inputs": [],
      "name": "lastReinvest",
      "outputs": [
        {
          "internalType": "uint256",
          "name": "",
          "type": "uint256"
        }
      ],
      "stateMutability": "view",
      "type": "function"
    },
    {
      "inputs": [],
      "name": "multiplierPerSecond",
      "outputs": [
        {
          "internalType": "uint256",
          "name": "",
          "type": "uint256"
        }
      ],
      "stateMutability": "view",
      "type": "function"
    },
    {
      "inputs": [],
      "name": "name",
      "outputs": [
        {
          "internalType": "string",
          "name": "",
          "type": "string"
        }
      ],
      "stateMutability": "pure",
      "type": "function"
    },
    {
      "inputs": [
        {
          "internalType": "address",
          "name": "owner",
          "type": "address"
        }
      ],
      "name": "nonces",
      "outputs": [
        {
          "internalType": "uint256",
          "name": "result",
          "type": "uint256"
        }
      ],
      "stateMutability": "view",
      "type": "function"
    },
    {
      "inputs": [
        {
          "internalType": "address",
          "name": "owner",
          "type": "address"
        },
        {
          "internalType": "address",
          "name": "spender",
          "type": "address"
        },
        {
          "internalType": "uint256",
          "name": "value",
          "type": "uint256"
        },
        {
          "internalType": "uint256",
          "name": "deadline",
          "type": "uint256"
        },
        {
          "internalType": "uint8",
          "name": "v",
          "type": "uint8"
        },
        {
          "internalType": "bytes32",
          "name": "r",
          "type": "bytes32"
        },
        {
          "internalType": "bytes32",
          "name": "s",
          "type": "bytes32"
        }
      ],
      "name": "permit",
      "outputs": [],
      "stateMutability": "nonpayable",
      "type": "function"
    },
    {
      "inputs": [
        {
          "internalType": "uint256",
          "name": "shares",
          "type": "uint256"
        },
        {
          "internalType": "address",
          "name": "recipient",
          "type": "address"
        },
        {
          "internalType": "address",
          "name": "owner",
          "type": "address"
        }
      ],
      "name": "redeem",
      "outputs": [
        {
          "internalType": "uint256",
          "name": "assets",
          "type": "uint256"
        }
      ],
      "stateMutability": "nonpayable",
      "type": "function"
    },
    {
      "inputs": [
        {
          "internalType": "uint256",
          "name": "liquidity",
          "type": "uint256"
        }
      ],
      "name": "reinvestRewards_y7b",
      "outputs": [],
      "stateMutability": "nonpayable",
      "type": "function"
    },
    {
      "inputs": [],
      "name": "reserveFactor",
      "outputs": [
        {
          "internalType": "uint256",
          "name": "",
          "type": "uint256"
        }
      ],
      "stateMutability": "view",
      "type": "function"
    },
    {
      "inputs": [],
      "name": "rewardToken",
      "outputs": [
        {
          "internalType": "address",
          "name": "",
          "type": "address"
        }
      ],
      "stateMutability": "pure",
      "type": "function"
    },
    {
      "inputs": [],
      "name": "rewarder",
      "outputs": [
        {
          "internalType": "address",
          "name": "",
          "type": "address"
        }
      ],
      "stateMutability": "pure",
      "type": "function"
    },
    {
      "inputs": [
        {
          "internalType": "address",
          "name": "newBorrowRewarder",
          "type": "address"
        }
      ],
      "name": "setCygnusBorrowRewarder",
      "outputs": [],
      "stateMutability": "nonpayable",
      "type": "function"
    },
    {
      "inputs": [
        {
          "internalType": "contract ICygnusHarvester",
          "name": "_harvester",
          "type": "address"
        }
      ],
      "name": "setHarvester",
      "outputs": [],
      "stateMutability": "nonpayable",
      "type": "function"
    },
    {
      "inputs": [
        {
          "internalType": "uint256",
          "name": "baseRatePerYear_",
          "type": "uint256"
        },
        {
          "internalType": "uint256",
          "name": "multiplierPerYear_",
          "type": "uint256"
        },
        {
          "internalType": "uint256",
          "name": "kinkMultiplier_",
          "type": "uint256"
        },
        {
          "internalType": "uint256",
          "name": "kinkUtilizationRate_",
          "type": "uint256"
        }
      ],
      "name": "setInterestRateModel",
      "outputs": [],
      "stateMutability": "nonpayable",
      "type": "function"
    },
    {
      "inputs": [
        {
          "internalType": "uint256",
          "name": "newReserveFactor",
          "type": "uint256"
        }
      ],
      "name": "setReserveFactor",
      "outputs": [],
      "stateMutability": "nonpayable",
      "type": "function"
    },
    {
      "inputs": [],
      "name": "shuttleId",
      "outputs": [
        {
          "internalType": "uint256",
          "name": "",
          "type": "uint256"
        }
      ],
      "stateMutability": "view",
      "type": "function"
    },
    {
      "inputs": [],
      "name": "supplyRate",
      "outputs": [
        {
          "internalType": "uint256",
          "name": "",
          "type": "uint256"
        }
      ],
      "stateMutability": "view",
      "type": "function"
    },
    {
      "inputs": [
        {
          "internalType": "address",
          "name": "token",
          "type": "address"
        }
      ],
      "name": "sweepToken",
      "outputs": [],
      "stateMutability": "nonpayable",
      "type": "function"
    },
    {
      "inputs": [],
      "name": "symbol",
      "outputs": [
        {
          "internalType": "string",
          "name": "",
          "type": "string"
        }
      ],
      "stateMutability": "view",
      "type": "function"
    },
    {
      "inputs": [],
      "name": "totalBalance",
      "outputs": [
        {
          "internalType": "uint160",
          "name": "",
          "type": "uint160"
        }
      ],
      "stateMutability": "view",
      "type": "function"
    },
    {
      "inputs": [],
      "name": "totalBorrows",
      "outputs": [
        {
          "internalType": "uint96",
          "name": "",
          "type": "uint96"
        }
      ],
      "stateMutability": "view",
      "type": "function"
    },
    {
      "inputs": [],
      "name": "totalSupply",
      "outputs": [
        {
          "internalType": "uint256",
          "name": "result",
          "type": "uint256"
        }
      ],
      "stateMutability": "view",
      "type": "function"
    },
    {
      "inputs": [
        {
          "internalType": "address",
          "name": "borrower",
          "type": "address"
        }
      ],
      "name": "trackBorrower",
      "outputs": [],
      "stateMutability": "nonpayable",
      "type": "function"
    },
    {
      "inputs": [
        {
          "internalType": "address",
          "name": "to",
          "type": "address"
        },
        {
          "internalType": "uint256",
          "name": "amount",
          "type": "uint256"
        }
      ],
      "name": "transfer",
      "outputs": [
        {
          "internalType": "bool",
          "name": "",
          "type": "bool"
        }
      ],
      "stateMutability": "nonpayable",
      "type": "function"
    },
    {
      "inputs": [
        {
          "internalType": "address",
          "name": "from",
          "type": "address"
        },
        {
          "internalType": "address",
          "name": "to",
          "type": "address"
        },
        {
          "internalType": "uint256",
          "name": "amount",
          "type": "uint256"
        }
      ],
      "name": "transferFrom",
      "outputs": [
        {
          "internalType": "bool",
          "name": "",
          "type": "bool"
        }
      ],
      "stateMutability": "nonpayable",
      "type": "function"
    },
    {
      "inputs": [],
      "name": "underlying",
      "outputs": [
        {
          "internalType": "address",
          "name": "",
          "type": "address"
        }
      ],
      "stateMutability": "view",
      "type": "function"
    },
    {
      "inputs": [],
      "name": "utilizationRate",
      "outputs": [
        {
          "internalType": "uint256",
          "name": "",
          "type": "uint256"
        }
      ],
      "stateMutability": "view",
      "type": "function"
    }
  ],
  "bytecode": "0x6101008060405234620001d7576000805460ff19166001178155635a412e5360e01b80835260a092838160048186335af18015620001cc578391849185918691620001a3575b5060e052855260c052608052670bcbce7f1b1500006006556002600755670214e8348c4f0000600855670de0b6b3a7640000600955604051908152828160048185335af19182156200019757916200015e575b50600180546001600160a01b0319166001600160a01b0392909216919091179055600b80546001600160601b0365ffffffffffff60b01b01164260e01b6001600160e01b031916176503782dace9d960721b1790556040516136f0918262000285833960805182818161031001526132160152518161044c015260c0518181816107620152818161098b01528181610eac0152818161118f015281816116c701528181611c1d01528181612073015261228c015260e05181818161081101526117eb0152f35b620001839150823d84116200018f575b6200017a8183620001dc565b8101906200022b565b50509150503862000098565b503d6200016e565b604051903d90823e3d90fd5b92505050620001c29150843d86116200018f576200017a8183620001dc565b9150903862000045565b6040513d85823e3d90fd5b600080fd5b601f909101601f19168101906001600160401b038211908210176200020057604052565b634e487b7160e01b600052604160045260246000fd5b51906001600160a01b0382168203620001d757565b91908260a0910312620001d75781516001600160a01b03908181168103620001d757926200025c6020820162000216565b926200026b6040830162000216565b9260608301519081168103620001d7576080909201519056fe608060408181526004918236101561001657600080fd5b600092833560e01c9182630572b0cc1461244c5750816306fdde0314612405578163095ea7b31461236657816315de1daa146121f657816318160ddd146121b1578163182df0f5146121745781631aebf12f146121375781631be1956014611fe35781631c44698314611f375781631e44b7fc14611dcc57816323b872dd14611ca7578163313ce56714611bac5781633644e51514611b715781633950935114611ab95781633ba0b9a914611a7e57816342bf78af146119995781634322b7141461195c57816346f608ff1461192057816347bd3718146118d55781634bdaeac1146118825781635b322bbe1461180e5781635f77f891146117b55781636afdd8501461176d5781636c321c8a146116eb5781636f307dc31461167c57816370a082311461161557816372cf84a7146115d85781637d6af0791461157c5781637ecebe001461151557816381f5b6f4146114445781638808e71c1461105257816394e1373c14610fd357816395d89b4114610e3b5781639b51099814610dfe578163a457c2d714610d45578163a6afed9514610d0b578163a9059cbb14610c53578163aa5af0fd14610c07578163ad168c9d14610bb4578163ad2961a314610b72578163ad7a672f14610b1e578163b5f3c95b14610ae1578163ba0876521461083e578163bcbc33201461070c578163c0789dcb146106cc578163c914b43714610684578163d505accf14610500578163d8dfeb45146104ad578163d90e026414610470578163d935bd9214610401578163dcc3e06e146103b4578163dd62ed3e1461033457508063e8a24e1d146102c65763f7c618c11461027757600080fd5b346102c257817ffffffffffffffffffffffffffffffffffffffffffffffffffffffffffffffffc3601126102c25760209051731db2466d9f5e10d7090e7152b68d62703a2245f08152f35b5080fd5b50346102c257817ffffffffffffffffffffffffffffffffffffffffffffffffffffffffffffffffc3601126102c2576020905173ffffffffffffffffffffffffffffffffffffffff7f0000000000000000000000000000000000000000000000000000000000000000168152f35b9050346103b057817ffffffffffffffffffffffffffffffffffffffffffffffffffffffffffffffffc3601126103b0573573ffffffffffffffffffffffffffffffffffffffff9283821682036103ab5760243593841684036103ab576020938452637f5e9f20600c52526034600c20549051908152f35b600080fd5b8280fd5b5050346102c257817ffffffffffffffffffffffffffffffffffffffffffffffffffffffffffffffffc3601126102c257602090517360cf091cd3f50420d50fd7f707414d0df4751c588152f35b5050346102c257817ffffffffffffffffffffffffffffffffffffffffffffffffffffffffffffffffc3601126102c2576020905173ffffffffffffffffffffffffffffffffffffffff7f0000000000000000000000000000000000000000000000000000000000000000168152f35b5050346102c257817ffffffffffffffffffffffffffffffffffffffffffffffffffffffffffffffffc3601126102c2576020906003549051908152f35b5050346102c257817ffffffffffffffffffffffffffffffffffffffffffffffffffffffffffffffffc3601126102c25760209073ffffffffffffffffffffffffffffffffffffffff600154169051908152f35b919050346103b05760e07ffffffffffffffffffffffffffffffffffffffffffffffffffffffffffffffffc3601126103b057813573ffffffffffffffffffffffffffffffffffffffff908181168091036103ab576024359182168092036103ab576084359360643560443560ff871687036106805761057d6133ff565b92865197834211610674576338377508600c52858a5260209485600c20948554956001870190557f6e71edae12b1b97f4d1f60370fef10105fa2faae0126114a169c64845d6126c98b5287878c0152888a8c015260608b019585875260808c015260a08b01526119018b52855260c0892088526042601e208a5260ff16845260a435875260c435606052838060808b60015afa50843d51036106695750777f5e9f200000000000000000000000000000000000000000851786526034602c20557f8c5be1e5ebec7d5bd14f71427d1e84f3dd0314c0f7b2291e5b200ac8c7c3b9259190a3528060605280f35b63ddafbaef8952601cfd5b50631a15a3cc8952601cfd5b8780fd5b5050346102c257817ffffffffffffffffffffffffffffffffffffffffffffffffffffffffffffffffc3601126102c25760209065ffffffffffff600b5460b01c169051908152f35b5050346102c257817ffffffffffffffffffffffffffffffffffffffffffffffffffffffffffffffffc3601126102c257602090600b5460e01c9051908152f35b5050346102c257817ffffffffffffffffffffffffffffffffffffffffffffffffffffffffffffffffc3601126102c25760607f98ccebae89f16f152c93c6a0cdc0d99913b9e62a9fc612471c21ffc299c389fd917f0000000000000000000000000000000000000000000000000000000000000000906107f47fffffffffffffffffffffffffffffffffffffffffffffffffffffffffffffffff6107c58173ec8fea79026ffed168ccf5c627c7f486d77b765f86612ae2565b73dc05d85069dc4aba65954008ff99f2d73ff12618731db2466d9f5e10d7090e7152b68d62703a2245f0612ae2565b73ffffffffffffffffffffffffffffffffffffffff8151921682527f000000000000000000000000000000000000000000000000000000000000000060208301523390820152a180f35b919050346103b05760607ffffffffffffffffffffffffffffffffffffffffffffffffffffffffffffffffc3601126103b05781359260243573ffffffffffffffffffffffffffffffffffffffff94858216918281036103ab57604435968716938488036103ab576108ad6132dd565b843303610a7d575b6108c66108c0613299565b846134df565b968715610a56578651987f852a12e3000000000000000000000000000000000000000000000000000000008a5288828b01526020998a816024818773ec8fea79026ffed168ccf5c627c7f486d77b765f5af1908115610a4c578491610a1f575b506109f7576387a211a2600c52825288600c20908154908186116109ec5750916109af9391858a940390556805345cdf77eb68f44c858154039055848152867fddf252ad1be2c89b69c2b068fc378daa952ba7f163c4a11628f55a4df523b3ef8b83a37f000000000000000000000000000000000000000000000000000000000000000061366b565b835190858252868201527ffbde797d201c681b91056529119e0b02407c7bb96a4a2c75c01fc9667232c8db843392a46109e66132dd565b51908152f35b63f4d678b88452601cfd5b5086517fe75efa34000000000000000000000000000000000000000000000000000000008152fd5b90508a81813d8311610a45575b610a3681836125e9565b810103126103ab575138610926565b503d610a2c565b89513d86823e3d90fd5b86517fe3e8d297000000000000000000000000000000000000000000000000000000008152fd5b33602052637f5e9f20600c528781526034600c2080547fffffffffffffffffffffffffffffffffffffffffffffffffffffffffffffffff8103610ac2575b50506108b5565b808511610ad55784900390553880610abb565b886313be252b8452601cfd5b5050346102c257817ffffffffffffffffffffffffffffffffffffffffffffffffffffffffffffffffc3601126102c257602090600d549051908152f35b5050346102c257817ffffffffffffffffffffffffffffffffffffffffffffffffffffffffffffffffc3601126102c25773ffffffffffffffffffffffffffffffffffffffff6020925460081c169051908152f35b5050346102c257817ffffffffffffffffffffffffffffffffffffffffffffffffffffffffffffffffc3601126102c257602090610bad612786565b9051908152f35b5050346102c257817ffffffffffffffffffffffffffffffffffffffffffffffffffffffffffffffffc3601126102c25760209073ffffffffffffffffffffffffffffffffffffffff600254169051908152f35b5050346102c257817ffffffffffffffffffffffffffffffffffffffffffffffffffffffffffffffffc3601126102c25760209069ffffffffffffffffffff600b5460601c169051908152f35b828434610d0857817ffffffffffffffffffffffffffffffffffffffffffffffffffffffffffffffffc360112610d0857823573ffffffffffffffffffffffffffffffffffffffff811681036103ab57602435916387a211a2600c5233815260209485600c20908154908186116109ec575084900390555282600c208181540190558252600c5160601c337fddf252ad1be2c89b69c2b068fc378daa952ba7f163c4a11628f55a4df523b3ef8480a35160018152f35b80fd5b8334610d0857807ffffffffffffffffffffffffffffffffffffffffffffffffffffffffffffffffc360112610d0857610d4261280c565b80f35b828434610d0857817ffffffffffffffffffffffffffffffffffffffffffffffffffffffffffffffffc360112610d0857823573ffffffffffffffffffffffffffffffffffffffff811681036103ab5760243590602052637f5e9f20600c523382526034600c20908154818110610df25760209550038091558152602c5160601c907f8c5be1e5ebec7d5bd14f71427d1e84f3dd0314c0f7b2291e5b200ac8c7c3b925843392a35160018152f35b85638301ab388552601cfd5b5050346102c257817ffffffffffffffffffffffffffffffffffffffffffffffffffffffffffffffffc3601126102c2576020906007549051908152f35b919050346103b057827ffffffffffffffffffffffffffffffffffffffffffffffffffffffffffffffffc3601126103b05782815180937f95d89b410000000000000000000000000000000000000000000000000000000082528173ffffffffffffffffffffffffffffffffffffffff7f0000000000000000000000000000000000000000000000000000000000000000165afa918215610fc9578392610f41575b610f3d8383610f336028825180947f4379675553443a200000000000000000000000000000000000000000000000006020830152610f23815180926020868601910161257c565b81010360088101855201836125e9565b519182918261259f565b0390f35b9091503d8084833e610f5381836125e9565b810190602081830312610fc15780519067ffffffffffffffff8211610fc5570181601f82011215610fc157805193610f8a85612659565b92610f97855194856125e9565b85845260208684010111610d085750610f3d93610fba916020808501910161257c565b9038610edc565b8380fd5b8480fd5b81513d85823e3d90fd5b839150346102c25760207ffffffffffffffffffffffffffffffffffffffffffffffffffffffffffffffffc3601126102c257359073ffffffffffffffffffffffffffffffffffffffff82168092036103ab5782918152600a60205220548151906fffffffffffffffffffffffffffffffff8116825260801c6020820152f35b919050346103b0576101207ffffffffffffffffffffffffffffffffffffffffffffffffffffffffffffffffc3601126103b05781359260249384359473ffffffffffffffffffffffffffffffffffffffff92838716938488036102c25760c07fffffffffffffffffffffffffffffffffffffffffffffffffffffffffffffffbc3601126102c2576101049081359167ffffffffffffffff808411610fc55736602385011215610fc557838a0135908111610fc55736868286010111610fc5576111196132dd565b611121613374565b9381611308575b50505061113485613627565b6e22d473030f116ddee9f6b43ac78ba3803b15610fc5579060848a868094868d5197889687957f36c785160000000000000000000000000000000000000000000000000000000087523390870152308d8701521660448501527f00000000000000000000000000000000000000000000000000000000000000001660648401525af180156112fe579083916112e9575b50506111e36111f1916111d686613115565b6111de613374565b612779565b6111eb613299565b90613528565b9586156112c2576805345cdf77eb68f44c541561124f575b50505061121884602096613471565b825190815283858201527fdcbc1c05240f31ff3ad067ef1ee35ce4997762752e3a095284754544f4c709d7833392a36109e66132dd565b7ffffffffffffffffffffffffffffffffffffffffffffffffffffffffffffffc188701979688116112995750505061121860209580956112936103e861dead613471565b96611209565b6011907f4e487b7100000000000000000000000000000000000000000000000000000000835252fd5b85517ff1ca48b1000000000000000000000000000000000000000000000000000000008152fd5b816112f3916125e9565b6102c25781386111c4565b87513d85823e3d90fd5b6e22d473030f116ddee9f6b43ac78ba391823b15611440578a51937f2b67b570000000000000000000000000000000000000000000000000000000008552338d860152604435868116809103611438578986015260643586811680910361143857604486015260843565ffffffffffff9081811680910361143c57606487015260a43590811680910361143857608486015260c435868116809103611438578593847fffffffffffffffffffffffffffffffffffffffffffffffffffffffffffffffe0601f86808f8f9b9986998d9960a489015260e43560c489015261010060e489015287015261012496018686013785858286010152011681010301925af1801561142e5761141a575b8080611128565b83611427919492946125e9565b9138611413565b88513d86823e3d90fd5b8880fd5b8980fd5b8680fd5b919050346103b05760207ffffffffffffffffffffffffffffffffffffffffffffffffffffffffffffffffc3601126103b0578135916114816132dd565b61148961280c565b73ffffffffffffffffffffffffffffffffffffffff600c541633036114ee57507fc63644116f6ef474fe595238489f3d0d31a12c55be3a748d72269a62882b04c9906114d483613115565b42600d5580519283524260208401523392a2610d426132dd565b90517f1bb1bcc6000000000000000000000000000000000000000000000000000000008152fd5b9050346103b05760207ffffffffffffffffffffffffffffffffffffffffffffffffffffffffffffffffc3601126103b0573573ffffffffffffffffffffffffffffffffffffffff811681036103b0576020926338377508600c525281600c20549051908152f35b9050346103b05760207ffffffffffffffffffffffffffffffffffffffffffffffffffffffffffffffffc3601126103b057359173ffffffffffffffffffffffffffffffffffffffff83168303610d085750610bad6020926126d7565b5050346102c257817ffffffffffffffffffffffffffffffffffffffffffffffffffffffffffffffffc3601126102c2576020906005549051908152f35b9050346103b05760207ffffffffffffffffffffffffffffffffffffffffffffffffffffffffffffffffc3601126103b0573573ffffffffffffffffffffffffffffffffffffffff811681036103b0576020926387a211a2600c525281600c20549051908152f35b5050346102c257817ffffffffffffffffffffffffffffffffffffffffffffffffffffffffffffffffc3601126102c2576020905173ffffffffffffffffffffffffffffffffffffffff7f0000000000000000000000000000000000000000000000000000000000000000168152f35b5050346102c257817ffffffffffffffffffffffffffffffffffffffffffffffffffffffffffffffffc3601126102c2576020916bffffffffffffffffffffffff600b5416801560001461174057509051908152f35b6111eb8173ffffffffffffffffffffffffffffffffffffffff611767945460081c1661273d565b906109e6565b5050346102c257817ffffffffffffffffffffffffffffffffffffffffffffffffffffffffffffffffc3601126102c257602090516e22d473030f116ddee9f6b43ac78ba38152f35b5050346102c257817ffffffffffffffffffffffffffffffffffffffffffffffffffffffffffffffffc3601126102c257602090517f00000000000000000000000000000000000000000000000000000000000000008152f35b8390346102c25760207ffffffffffffffffffffffffffffffffffffffffffffffffffffffffffffffffc3601126102c2573573ffffffffffffffffffffffffffffffffffffffff811681036102c2578061186a610d42926126d7565b69ffffffffffffffffffff600b5460601c1691612a45565b5050346102c257817ffffffffffffffffffffffffffffffffffffffffffffffffffffffffffffffffc3601126102c25760209073ffffffffffffffffffffffffffffffffffffffff600c54169051908152f35b5050346102c257817ffffffffffffffffffffffffffffffffffffffffffffffffffffffffffffffffc3601126102c2576020906bffffffffffffffffffffffff600b54169051908152f35b9050346103b057827ffffffffffffffffffffffffffffffffffffffffffffffffffffffffffffffffc3601126103b05760209250549051908152f35b5050346102c257817ffffffffffffffffffffffffffffffffffffffffffffffffffffffffffffffffc3601126102c2576020906008549051908152f35b9050346103b05760207ffffffffffffffffffffffffffffffffffffffffffffffffffffffffffffffffc3601126103b057359073ffffffffffffffffffffffffffffffffffffffff9081831690818403610fc5577f2a0d5dc7fbc8045f59cb33c736f04f9a9b565e9f425912f9cd2bafdebd50cead93611a7891611a1b6131d1565b600254937fffffffffffffffffffffffff000000000000000000000000000000000000000085161760025551938493168390602090939293604083019473ffffffffffffffffffffffffffffffffffffffff809216845216910152565b0390a180f35b5050346102c257817ffffffffffffffffffffffffffffffffffffffffffffffffffffffffffffffffc3601126102c257602090610bad613299565b828434610d0857817ffffffffffffffffffffffffffffffffffffffffffffffffffffffffffffffffc360112610d0857823573ffffffffffffffffffffffffffffffffffffffff811681036102c257602052637f5e9f20600c523381526034600c20928354906024358201918210611b66575080602094558152602c5160601c907f8c5be1e5ebec7d5bd14f71427d1e84f3dd0314c0f7b2291e5b200ac8c7c3b925843392a35160018152f35b63f90670668352601cfd5b5050346102c257817ffffffffffffffffffffffffffffffffffffffffffffffffffffffffffffffffc3601126102c257602090610bad6133ff565b828434610d0857807ffffffffffffffffffffffffffffffffffffffffffffffffffffffffffffffffc360112610d08576020825180947f313ce5670000000000000000000000000000000000000000000000000000000082528173ffffffffffffffffffffffffffffffffffffffff7f0000000000000000000000000000000000000000000000000000000000000000165afa928315611c9b578193611c5a575b60208460ff855191168152f35b9092506020813d8211611c93575b81611c75602093836125e9565b810103126103b057519160ff83168303610d08575060ff6020611c4d565b3d9150611c68565b509051903d90823e3d90fd5b828434610d085760607ffffffffffffffffffffffffffffffffffffffffffffffffffffffffffffffffc360112610d085773ffffffffffffffffffffffffffffffffffffffff833581811692918382036103b05760243590811681036103b0576044359160601b92602096338852600c94637f5e9f20811786526034862080547fffffffffffffffffffffffffffffffffffffffffffffffffffffffffffffffff8103611da9575b50506387a211a2178552878520908154908186116109ec575084900390555284822081815401905584525160601c907fddf252ad1be2c89b69c2b068fc378daa952ba7f163c4a11628f55a4df523b3ef8480a35160018152f35b808711611dc05786900390556387a211a28a611d4f565b836313be252b8652601cfd5b8383346102c25760807ffffffffffffffffffffffffffffffffffffffffffffffffffffffffffffffffc3601126102c2578235906064359060443590602435611e136131d1565b67016345785d8a00008511611ef4576706f05b59d3b2000084108015611f26575b611ef457600183108015611f1c575b611ef4576301e133808086046003558481028181048603611ec85791611eaf86611eaa60809896948c611e997ff58b8cc439edada25fd9495b7364aeb1d737dbef59be1cf62e0cc4001c44a3cd9c9a9887613528565b90558660075582600655868561356b565b613528565b600555815194855260208501528301526060820152a180f35b60248860118b7f4e487b7100000000000000000000000000000000000000000000000000000000835252fd5b8682517fe49b3b30000000000000000000000000000000000000000000000000000000008152fd5b50600a8311611e43565b50670d2f13f7789f00008411611e34565b9050346103b05760207ffffffffffffffffffffffffffffffffffffffffffffffffffffffffffffffffc3601126103b057803590611f736131d1565b6702c68af0bb1400008211611fbc5750907faaa68312e2ea9d50e16af5068410ab56e1a1fd06037b1a35664812c30f82146091600854908060085582519182526020820152a180f35b82517fe49b3b30000000000000000000000000000000000000000000000000000000008152fd5b8383346102c25760207ffffffffffffffffffffffffffffffffffffffffffffffffffffffffffffffffc3601126102c25773ffffffffffffffffffffffffffffffffffffffff90833582811691828203610fc55784549360ff85161561210f577fffffffffffffffffffffffffffffffffffffffffffffffffffffffffffffff0080951686556120716131d1565b7f00000000000000000000000000000000000000000000000000000000000000001683146120e75760019495506120b46120ab30846136b4565b8093339061366b565b519081527f6d25be279134f4ecaa4770aff0c3d916d9e7c5ef37b65ed95dbdba411f5d54d560203392a382541617815580f35b8590517fb5d8f391000000000000000000000000000000000000000000000000000000008152fd5b8682517f37ed32e8000000000000000000000000000000000000000000000000000000008152fd5b5050346102c257817ffffffffffffffffffffffffffffffffffffffffffffffffffffffffffffffffc3601126102c2576020906006549051908152f35b5050346102c257817ffffffffffffffffffffffffffffffffffffffffffffffffffffffffffffffffc3601126102c2576020906009549051908152f35b5050346102c257817ffffffffffffffffffffffffffffffffffffffffffffffffffffffffffffffffc3601126102c2576020906805345cdf77eb68f44c549051908152f35b9050346103b05760207ffffffffffffffffffffffffffffffffffffffffffffffffffffffffffffffffc3601126103b0573573ffffffffffffffffffffffffffffffffffffffff90818116809103610fc1576122539291926131d1565b600c90815493817fffffffffffffffffffffffff00000000000000000000000000000000000000008616178355612288612cbb565b50937f0000000000000000000000000000000000000000000000000000000000000000821690875b8651811015612331578083856122c96122d5948b612c1f565b5116036122da57612c62565b6122b0565b6122f58a866122e9848c612c1f565b5116878a541690612ae2565b61232c7fffffffffffffffffffffffffffffffffffffffffffffffffffffffffffffffff8787612325858d612c1f565b5116612ae2565b612c62565b887f6a97a9e954ae4ef4c8ecc6c7dd8a1cbe668254132294ceb515db9a2e4faad7f5838a88888351921682526020820152a180f35b9050346103b057817ffffffffffffffffffffffffffffffffffffffffffffffffffffffffffffffffc3601126103b0573573ffffffffffffffffffffffffffffffffffffffff811681036103b05791602092602435908452637f5e9f20600c52338252806034600c20558152602c5160601c907f8c5be1e5ebec7d5bd14f71427d1e84f3dd0314c0f7b2291e5b200ac8c7c3b925843392a35160018152f35b5050346102c257817ffffffffffffffffffffffffffffffffffffffffffffffffffffffffffffffffc3601126102c257610f3d90612441612693565b90519182918261259f565b939150346102c257817ffffffffffffffffffffffffffffffffffffffffffffffffffffffffffffffffc3601126102c25781549360ff85161561250d576124d78486857fffffffffffffffffffffffffffffffffffffffffffffffffffffffffffffff0080921681556124bd612cbb565b949060018094845416178355845194808652850190612532565b6020848203818601528080875193848152019601925b8281106124fa5785870386f35b83518752958101959281019284016124ed565b7f37ed32e8000000000000000000000000000000000000000000000000000000008152fd5b90815180825260208080930193019160005b828110612552575050505090565b835173ffffffffffffffffffffffffffffffffffffffff1685529381019392810192600101612544565b60005b83811061258f5750506000910152565b818101518382015260200161257f565b7fffffffffffffffffffffffffffffffffffffffffffffffffffffffffffffffe0601f604093602084526125e2815180928160208801526020888801910161257c565b0116010190565b90601f7fffffffffffffffffffffffffffffffffffffffffffffffffffffffffffffffe0910116810190811067ffffffffffffffff82111761262a57604052565b7f4e487b7100000000000000000000000000000000000000000000000000000000600052604160045260246000fd5b67ffffffffffffffff811161262a57601f017fffffffffffffffffffffffffffffffffffffffffffffffffffffffffffffffe01660200190565b61269d6012612659565b906126ab60405192836125e9565b601282527f4379676e75733a20426f72726f7761626c6500000000000000000000000000006020830152565b73ffffffffffffffffffffffffffffffffffffffff16600052600a6020526040600020548060801c801561273657612733916fffffffffffffffffffffffffffffffff69ffffffffffffffffffff600b5460601c16911661356b565b90565b5050600090565b9190820180921161274a57565b7f4e487b7100000000000000000000000000000000000000000000000000000000600052601160045260246000fd5b9190820391821161274a57565b600b54600854670de0b6b3a764000090810390811161274a576127b49065ffffffffffff8360b01c166134df565b73ffffffffffffffffffffffffffffffffffffffff6bffffffffffffffffffffffff8160005460081c16931680930181811161274a571691821561280457612733926127ff91613528565b6134df565b505050600090565b600b5463ffffffff42811660e083901c80820383811161274a576bffffffffffffffffffffffff918286169460009169ffffffffffffffffffff73ffffffffffffffffffffffffffffffffffffffff845460081c169860601c16951480156129dc575b6129d35761287d86886129e4565b9216938483029483860414831517156129a657806128b26128b8926128ac6128a58a8a6134df565b809a61273d565b976134df565b9061273d565b906c01000000000000000000000000851015612999576a01000000000000000000008210156129995766010000000000008310156129995750917f875352fb3fadeb8c0be7cbbe8ff761b308fa7033470cd0287f02f3436fd76cb99593917bffffffffffff000000000000000000000000000000000000000000006060969475ffffffffffffffffffff0000000000000000000000007fffffffff000000000000000000000000000000000000000000000000000000004260e01b1694861691891b16179160b01b161717600b5560405192835260208301526040820152a1565b6335278d1290526004601cfd5b6024827f4e487b710000000000000000000000000000000000000000000000000000000081526011600452fd5b50505050505050565b50851561286f565b906111eb816129f29361273d565b60065480821115612a345790612a2f612a2661273393612a20612a17600454836134df565b6003549061273d565b93612779565b600554906134df565b61273d565b50612a1761273391600454906134df565b91909173ffffffffffffffffffffffffffffffffffffffff908160025416908115612adb57813b156103ab576000606492819560405197889687957fd98320d5000000000000000000000000000000000000000000000000000000008752166004860152602485015260448401525af18015612acf57612ac25750565b6000612acd916125e9565b565b6040513d6000823e3d90fd5b5050505050565b6040517fdd62ed3e00000000000000000000000000000000000000000000000000000000815230600482015273ffffffffffffffffffffffffffffffffffffffff83166024820152919290916020818060448101038173ffffffffffffffffffffffffffffffffffffffff87165afa908115612acf57600091612bd6575b501015612bd25760446010600080936020956014527fffffffffffffffffffffffffffffffffffffffffffffffffffffffffffffffff6034526f095ea7b300000000000000000000000082525af13d15600160005114171615612bc4576000603452565b633e3f8f736000526004601cfd5b5050565b906020823d8211612bff575b81612bef602093836125e9565b81010312610d0857505138612b60565b3d9150612be2565b67ffffffffffffffff811161262a5760051b60200190565b8051821015612c335760209160051b010190565b7f4e487b7100000000000000000000000000000000000000000000000000000000600052603260045260246000fd5b7fffffffffffffffffffffffffffffffffffffffffffffffffffffffffffffffff811461274a5760010190565b908160209103126103ab575173ffffffffffffffffffffffffffffffffffffffff811681036103ab5790565b6000906040908151612ccd83826125e9565b6001815260209283368184013773ec8fea79026ffed168ccf5c627c7f486d77b765f612cf98684612c1f565b527360cf091cd3f50420d50fd7f707414d0df4751c5891823b156131115781517f1c3db2e000000000000000000000000000000000000000000000000000000000815286816004953087830152818381612d5e6024988a8a8401526044830190612532565b03925af18015613107576130f3575b508151957fd1058e5900000000000000000000000000000000000000000000000000000000875273dc05d85069dc4aba65954008ff99f2d73ff126189681818681838c5af19081156130e9578291613059575b50306014526f70a0823100000000000000000000000082528680846010731db2466d9f5e10d7090e7152b68d62703a2245f05afa601f3d111687510280612fed575b5051927fffffffffffffffffffffffffffffffffffffffffffffffffffffffffffffffff92838501948511612fc357612e3a85612c07565b92612e47835194856125e9565b8584527fffffffffffffffffffffffffffffffffffffffffffffffffffffffffffffffe09485612e7688612c07565b01368b870137849a612e8788612c07565b96612e94865198896125e9565b888852612ea089612c07565b01368c890137869a60015b89811115612ec0575050505050505050505050565b86517f4f64b2be000000000000000000000000000000000000000000000000000000008152818c8201528281888189885af1908115612fb9578691612f8c575b5084820190828211612f615790612f56612f4f8b612f5c9594612f238583612c1f565b73ffffffffffffffffffffffffffffffffffffffff8092169052612f48853093612c1f565b51166136b4565b918c612c1f565b52612c62565b612eab565b878760118f7f4e487b7100000000000000000000000000000000000000000000000000000000835252fd5b612fac9150833d8511612fb2575b612fa481836125e9565b810190612c8f565b38612f00565b503d612f9a565b88513d88823e3d90fd5b826011877f4e487b7100000000000000000000000000000000000000000000000000000000835252fd5b883b156103b0578451907fa0712d680000000000000000000000000000000000000000000000000000000082528682015282818581838d5af1801561304f5790839161303a575b50612e02565b81613044916125e9565b6102c2578138613034565b85513d85823e3d90fd5b90503d8083833e61306a81836125e9565b81019087818303126103b05780519067ffffffffffffffff8211610fc157019080601f830112156103b05781516130a081612c07565b926130ad875194856125e9565b818452898085019260051b820101928311610fc55789809101915b8383106130d9575050505038612dc0565b82518152918101918a91016130c8565b84513d84823e3d90fd5b86613100919792976125e9565b9438612d6d565b83513d89823e3d90fd5b8580fd5b604051907fa0712d680000000000000000000000000000000000000000000000000000000082526004820152602081602481600073ec8fea79026ffed168ccf5c627c7f486d77b765f5af1908115612acf576000916131a0575b5061317657565b60046040517fe75efa34000000000000000000000000000000000000000000000000000000008152fd5b906020823d82116131c9575b816131b9602093836125e9565b81010312610d085750513861316f565b3d91506131ac565b6040517ff851a44000000000000000000000000000000000000000000000000000000000815273ffffffffffffffffffffffffffffffffffffffff90602081600481857f0000000000000000000000000000000000000000000000000000000000000000165afa908115612acf5760009161327b575b5016330361325157565b60046040517f63ac75a2000000000000000000000000000000000000000000000000000000008152fd5b613293915060203d8111612fb257612fa481836125e9565b38613247565b6805345cdf77eb68f44c54600090806132ba575050670de0b6b3a764000090565b73ffffffffffffffffffffffffffffffffffffffff612733925460081c16613528565b7f3145c2b643834867f2c0a8cac8a48218307687911615c0ed01412a09dd163b66602061331061330b613374565b613627565b6000547fffffffffffffffffffffff0000000000000000000000000000000000000000ff74ffffffffffffffffffffffffffffffffffffffff008360081b1691161760005573ffffffffffffffffffffffffffffffffffffffff60405191168152a1565b6040517f3af9e669000000000000000000000000000000000000000000000000000000008152306004820152602081602481600073ec8fea79026ffed168ccf5c627c7f486d77b765f5af1908115612acf576000916133d1575090565b906020823d82116133f7575b816133ea602093836125e9565b81010312610d0857505190565b3d91506133dd565b60a060405161340c612693565b602081519101207f8b73c3c69bb8fe3d512ecc4cf759cc79239f7b179b0ffacaa9a75d522b39400f825260208201527fc89efdaa54c0f20c7adf612882df0950f5a951637e0307cdcb4c672f298b8bc660408201524660608201523060808201522090565b6805345cdf77eb68f44c8054908382019182106134d157556387a211a2600c526000526020600c20818154019055602052600c5160601c60007fddf252ad1be2c89b69c2b068fc378daa952ba7f163c4a11628f55a4df523b3ef602080a3565b63e5cfe9576000526004601cfd5b90807fffffffffffffffffffffffffffffffffffffffffffffffffffffffffffffffff048211810261351a57670de0b6b3a764000091020490565b63bac65e5b6000526004601cfd5b670de0b6b3a7640000907812725dd1d243aba0e75fe645cc4873f9e65afe688c928e1f21811182021583021561355d57020490565b637c5f487d6000526004601cfd5b91600092828102927fffffffffffffffffffffffffffffffffffffffffffffffffffffffffffffffff818309918483108501808403931461360b57828411156135fe57908391099060018386038416808080960460028082600302188083028203028083028203028083028203028083028203028083028203028092029003029703040190848311900302920304170290565b63ae47f70286526004601cfd5b50505091821561361a57500490565b63ae47f70290526004601cfd5b7401000000000000000000000000000000000000000081101561365d5773ffffffffffffffffffffffffffffffffffffffff1690565b6335278d126000526004601cfd5b60109260209260145260345260446000938480936fa9059cbb00000000000000000000000082525af13d1560018351141716156136a757603452565b6390b8ec1890526004601cfd5b602460106020939284936014526f70a082310000000000000000000000006000525afa601f3d1116602051029056fea164736f6c6343000811000a",
  "linkReferences": {},
  "deployedLinkReferences": {}
}